{
	"tp/tpp.sol": {
		"DemoContract": {
			"abi": [
				{
					"inputs": [],
					"stateMutability": "nonpayable",
					"type": "constructor"
				},
				{
					"inputs": [
						{
							"internalType": "address",
							"name": "caller",
							"type": "address"
						}
					],
					"name": "Unauthorized",
					"type": "error"
				},
				{
					"anonymous": false,
					"inputs": [
						{
							"indexed": true,
							"internalType": "address",
							"name": "from",
							"type": "address"
						},
						{
							"indexed": false,
							"internalType": "uint256",
							"name": "amount",
							"type": "uint256"
						}
					],
					"name": "EtherDeposited",
					"type": "event"
				},
				{
					"anonymous": false,
					"inputs": [
						{
							"indexed": true,
							"internalType": "address",
							"name": "to",
							"type": "address"
						},
						{
							"indexed": false,
							"internalType": "uint256",
							"name": "amount",
							"type": "uint256"
						}
					],
					"name": "EtherWithdrawn",
					"type": "event"
				},
				{
					"anonymous": false,
					"inputs": [
						{
							"indexed": true,
							"internalType": "address",
							"name": "user",
							"type": "address"
						},
						{
							"indexed": false,
							"internalType": "string",
							"name": "name",
							"type": "string"
						},
						{
							"indexed": false,
							"internalType": "uint256",
							"name": "age",
							"type": "uint256"
						}
					],
					"name": "UserRegistered",
					"type": "event"
				},
				{
					"anonymous": false,
					"inputs": [
						{
							"indexed": true,
							"internalType": "address",
							"name": "user",
							"type": "address"
						},
						{
							"indexed": false,
							"internalType": "string",
							"name": "name",
							"type": "string"
						}
					],
					"name": "UserUpdated",
					"type": "event"
				},
				{
					"stateMutability": "payable",
					"type": "fallback"
				},
				{
					"inputs": [],
					"name": "contractBalance",
					"outputs": [
						{
							"internalType": "uint256",
							"name": "",
							"type": "uint256"
						}
					],
					"stateMutability": "view",
					"type": "function"
				},
				{
					"inputs": [],
					"name": "deposit",
					"outputs": [],
					"stateMutability": "payable",
					"type": "function"
				},
				{
					"inputs": [],
					"name": "getAllUsers",
					"outputs": [
						{
							"components": [
								{
									"internalType": "string",
									"name": "name",
									"type": "string"
								},
								{
									"internalType": "uint256",
									"name": "age",
									"type": "uint256"
								},
								{
									"internalType": "address",
									"name": "wallet",
									"type": "address"
								},
								{
									"internalType": "uint256",
									"name": "balance",
									"type": "uint256"
								}
							],
							"internalType": "struct DemoContract.User[]",
							"name": "",
							"type": "tuple[]"
						}
					],
					"stateMutability": "view",
					"type": "function"
				},
				{
					"inputs": [],
					"name": "onlyOwnerFunction",
					"outputs": [],
					"stateMutability": "view",
					"type": "function"
				},
				{
					"inputs": [],
					"name": "owner",
					"outputs": [
						{
							"internalType": "address",
							"name": "",
							"type": "address"
						}
					],
					"stateMutability": "view",
					"type": "function"
				},
				{
					"inputs": [
						{
							"internalType": "string",
							"name": "_name",
							"type": "string"
						},
						{
							"internalType": "uint256",
							"name": "_age",
							"type": "uint256"
						}
					],
					"name": "registerUser",
					"outputs": [],
					"stateMutability": "nonpayable",
					"type": "function"
				},
				{
					"inputs": [
						{
							"internalType": "string",
							"name": "_newName",
							"type": "string"
						}
					],
					"name": "updateUserName",
					"outputs": [],
					"stateMutability": "nonpayable",
					"type": "function"
				},
				{
					"inputs": [
						{
							"internalType": "uint256",
							"name": "",
							"type": "uint256"
						}
					],
					"name": "userAddresses",
					"outputs": [
						{
							"internalType": "address",
							"name": "",
							"type": "address"
						}
					],
					"stateMutability": "view",
					"type": "function"
				},
				{
					"inputs": [
						{
							"internalType": "address",
							"name": "",
							"type": "address"
						}
					],
					"name": "users",
					"outputs": [
						{
							"internalType": "string",
							"name": "name",
							"type": "string"
						},
						{
							"internalType": "uint256",
							"name": "age",
							"type": "uint256"
						},
						{
							"internalType": "address",
							"name": "wallet",
							"type": "address"
						},
						{
							"internalType": "uint256",
							"name": "balance",
							"type": "uint256"
						}
					],
					"stateMutability": "view",
					"type": "function"
				},
				{
					"inputs": [
						{
							"internalType": "uint256",
							"name": "_amount",
							"type": "uint256"
						}
					],
					"name": "withdraw",
					"outputs": [],
					"stateMutability": "nonpayable",
					"type": "function"
				},
				{
					"stateMutability": "payable",
					"type": "receive"
				}
			],
			"devdoc": {
				"kind": "dev",
				"methods": {},
				"version": 1
			},
			"evm": {
				"assembly": "    /* \"tp/tpp.sol\":61:2954  contract DemoContract {... */\n  mstore(0x40, 0x80)\n    /* \"tp/tpp.sol\":877:928  constructor() {... */\n  callvalue\n  dup1\n  iszero\n  tag_1\n  jumpi\n  revert(0x00, 0x00)\ntag_1:\n  pop\n    /* \"tp/tpp.sol\":910:920  msg.sender */\n  caller\n    /* \"tp/tpp.sol\":902:907  owner */\n  0x00\n  0x00\n    /* \"tp/tpp.sol\":902:920  owner = msg.sender */\n  0x0100\n  exp\n  dup2\n  sload\n  dup2\n  0xffffffffffffffffffffffffffffffffffffffff\n  mul\n  not\n  and\n  swap1\n  dup4\n  0xffffffffffffffffffffffffffffffffffffffff\n  and\n  mul\n  or\n  swap1\n  sstore\n  pop\n    /* \"tp/tpp.sol\":61:2954  contract DemoContract {... */\n  dataSize(sub_0)\n  dup1\n  dataOffset(sub_0)\n  0x00\n  codecopy\n  0x00\n  return\nstop\n\nsub_0: assembly {\n        /* \"tp/tpp.sol\":61:2954  contract DemoContract {... */\n      mstore(0x40, 0x80)\n      jumpi(tag_1, lt(calldatasize, 0x04))\n      shr(0xe0, calldataload(0x00))\n      dup1\n      0xa87430ba\n      gt\n      tag_13\n      jumpi\n      dup1\n      0xa87430ba\n      eq\n      tag_8\n      jumpi\n      dup1\n      0xaf9036a1\n      eq\n      tag_9\n      jumpi\n      dup1\n      0xd0e30db0\n      eq\n      tag_10\n      jumpi\n      dup1\n      0xd3951002\n      eq\n      tag_11\n      jumpi\n      dup1\n      0xe2842d79\n      eq\n      tag_12\n      jumpi\n      jump(tag_2)\n    tag_13:\n      dup1\n      0x2a35c4f4\n      eq\n      tag_3\n      jumpi\n      dup1\n      0x2e1a7d4d\n      eq\n      tag_4\n      jumpi\n      dup1\n      0x502c9bd5\n      eq\n      tag_5\n      jumpi\n      dup1\n      0x8b7afe2e\n      eq\n      tag_6\n      jumpi\n      dup1\n      0x8da5cb5b\n      eq\n      tag_7\n      jumpi\n      jump(tag_2)\n    tag_1:\n      jumpi(tag_2, calldatasize)\n        /* \"tp/tpp.sol\":2603:2612  msg.value */\n      callvalue\n        /* \"tp/tpp.sol\":2584:2599  contractBalance */\n      0x01\n      0x00\n        /* \"tp/tpp.sol\":2584:2612  contractBalance += msg.value */\n      dup3\n      dup3\n      sload\n      tag_16\n      swap2\n      swap1\n      tag_17\n      jump\t// in\n    tag_16:\n      swap3\n      pop\n      pop\n      dup2\n      swap1\n      sstore\n      pop\n        /* \"tp/tpp.sol\":2643:2653  msg.sender */\n      caller\n        /* \"tp/tpp.sol\":2628:2665  EtherDeposited(msg.sender, msg.value) */\n      0xffffffffffffffffffffffffffffffffffffffff\n      and\n      0x939e51ac2fd009b158d6344f7e68a83d8d18d9b0cc88cf514aac6aaa9cad2a18\n        /* \"tp/tpp.sol\":2655:2664  msg.value */\n      callvalue\n        /* \"tp/tpp.sol\":2628:2665  EtherDeposited(msg.sender, msg.value) */\n      mload(0x40)\n      tag_18\n      swap2\n      swap1\n      tag_19\n      jump\t// in\n    tag_18:\n      mload(0x40)\n      dup1\n      swap2\n      sub\n      swap1\n      log2\n        /* \"tp/tpp.sol\":61:2954  contract DemoContract {... */\n      stop\n    tag_2:\n        /* \"tp/tpp.sol\":2739:2748  msg.value */\n      callvalue\n        /* \"tp/tpp.sol\":2720:2735  contractBalance */\n      0x01\n      0x00\n        /* \"tp/tpp.sol\":2720:2748  contractBalance += msg.value */\n      dup3\n      dup3\n      sload\n      tag_22\n      swap2\n      swap1\n      tag_17\n      jump\t// in\n    tag_22:\n      swap3\n      pop\n      pop\n      dup2\n      swap1\n      sstore\n      stop\n        /* \"tp/tpp.sol\":2807:2951  function onlyOwnerFunction() external view {... */\n    tag_3:\n      callvalue\n      dup1\n      iszero\n      tag_23\n      jumpi\n      revert(0x00, 0x00)\n    tag_23:\n      pop\n      tag_24\n      tag_25\n      jump\t// in\n    tag_24:\n      stop\n        /* \"tp/tpp.sol\":2079:2538  function withdraw(uint256 _amount)... */\n    tag_4:\n      callvalue\n      dup1\n      iszero\n      tag_26\n      jumpi\n      revert(0x00, 0x00)\n    tag_26:\n      pop\n      tag_27\n      0x04\n      dup1\n      calldatasize\n      sub\n      dup2\n      add\n      swap1\n      tag_28\n      swap2\n      swap1\n      tag_29\n      jump\t// in\n    tag_28:\n      tag_30\n      jump\t// in\n    tag_27:\n      stop\n        /* \"tp/tpp.sol\":325:355  address[] public userAddresses */\n    tag_5:\n      callvalue\n      dup1\n      iszero\n      tag_31\n      jumpi\n      revert(0x00, 0x00)\n    tag_31:\n      pop\n      tag_32\n      0x04\n      dup1\n      calldatasize\n      sub\n      dup2\n      add\n      swap1\n      tag_33\n      swap2\n      swap1\n      tag_29\n      jump\t// in\n    tag_33:\n      tag_34\n      jump\t// in\n    tag_32:\n      mload(0x40)\n      tag_35\n      swap2\n      swap1\n      tag_36\n      jump\t// in\n    tag_35:\n      mload(0x40)\n      dup1\n      swap2\n      sub\n      swap1\n      return\n        /* \"tp/tpp.sol\":119:149  uint256 public contractBalance */\n    tag_6:\n      callvalue\n      dup1\n      iszero\n      tag_37\n      jumpi\n      revert(0x00, 0x00)\n    tag_37:\n      pop\n      tag_38\n      tag_39\n      jump\t// in\n    tag_38:\n      mload(0x40)\n      tag_40\n      swap2\n      swap1\n      tag_19\n      jump\t// in\n    tag_40:\n      mload(0x40)\n      dup1\n      swap2\n      sub\n      swap1\n      return\n        /* \"tp/tpp.sol\":92:112  address public owner */\n    tag_7:\n      callvalue\n      dup1\n      iszero\n      tag_41\n      jumpi\n      revert(0x00, 0x00)\n    tag_41:\n      pop\n      tag_42\n      tag_43\n      jump\t// in\n    tag_42:\n      mload(0x40)\n      tag_44\n      swap2\n      swap1\n      tag_36\n      jump\t// in\n    tag_44:\n      mload(0x40)\n      dup1\n      swap2\n      sub\n      swap1\n      return\n        /* \"tp/tpp.sol\":281:318  mapping(address => User) public users */\n    tag_8:\n      callvalue\n      dup1\n      iszero\n      tag_45\n      jumpi\n      revert(0x00, 0x00)\n    tag_45:\n      pop\n      tag_46\n      0x04\n      dup1\n      calldatasize\n      sub\n      dup2\n      add\n      swap1\n      tag_47\n      swap2\n      swap1\n      tag_48\n      jump\t// in\n    tag_47:\n      tag_49\n      jump\t// in\n    tag_46:\n      mload(0x40)\n      tag_50\n      swap5\n      swap4\n      swap3\n      swap2\n      swap1\n      tag_51\n      jump\t// in\n    tag_50:\n      mload(0x40)\n      dup1\n      swap2\n      sub\n      swap1\n      return\n        /* \"tp/tpp.sol\":1355:1559  function updateUserName(string memory _newName)... */\n    tag_9:\n      callvalue\n      dup1\n      iszero\n      tag_52\n      jumpi\n      revert(0x00, 0x00)\n    tag_52:\n      pop\n      tag_53\n      0x04\n      dup1\n      calldatasize\n      sub\n      dup2\n      add\n      swap1\n      tag_54\n      swap2\n      swap1\n      tag_55\n      jump\t// in\n    tag_54:\n      tag_56\n      jump\t// in\n    tag_53:\n      stop\n        /* \"tp/tpp.sol\":1861:2071  function deposit() external payable userExists(msg.sender) {... */\n    tag_10:\n      tag_57\n      tag_58\n      jump\t// in\n    tag_57:\n      stop\n        /* \"tp/tpp.sol\":936:1347  function registerUser(string memory _name, uint256 _age) external {... */\n    tag_11:\n      callvalue\n      dup1\n      iszero\n      tag_59\n      jumpi\n      revert(0x00, 0x00)\n    tag_59:\n      pop\n      tag_60\n      0x04\n      dup1\n      calldatasize\n      sub\n      dup2\n      add\n      swap1\n      tag_61\n      swap2\n      swap1\n      tag_62\n      jump\t// in\n    tag_61:\n      tag_63\n      jump\t// in\n    tag_60:\n      stop\n        /* \"tp/tpp.sol\":1567:1853  function getAllUsers() external view returns (User[] memory) {... */\n    tag_12:\n      callvalue\n      dup1\n      iszero\n      tag_64\n      jumpi\n      revert(0x00, 0x00)\n    tag_64:\n      pop\n      tag_65\n      tag_66\n      jump\t// in\n    tag_65:\n      mload(0x40)\n      tag_67\n      swap2\n      swap1\n      tag_68\n      jump\t// in\n    tag_67:\n      mload(0x40)\n      dup1\n      swap2\n      sub\n      swap1\n      return\n        /* \"tp/tpp.sol\":2807:2951  function onlyOwnerFunction() external view {... */\n    tag_25:\n        /* \"tp/tpp.sol\":2879:2884  owner */\n      0x00\n      0x00\n      swap1\n      sload\n      swap1\n      0x0100\n      exp\n      swap1\n      div\n      0xffffffffffffffffffffffffffffffffffffffff\n      and\n        /* \"tp/tpp.sol\":2865:2884  msg.sender != owner */\n      0xffffffffffffffffffffffffffffffffffffffff\n      and\n        /* \"tp/tpp.sol\":2865:2875  msg.sender */\n      caller\n        /* \"tp/tpp.sol\":2865:2884  msg.sender != owner */\n      0xffffffffffffffffffffffffffffffffffffffff\n      and\n      eq\n        /* \"tp/tpp.sol\":2861:2944  if (msg.sender != owner) {... */\n      tag_70\n      jumpi\n        /* \"tp/tpp.sol\":2921:2931  msg.sender */\n      caller\n        /* \"tp/tpp.sol\":2908:2932  Unauthorized(msg.sender) */\n      mload(0x40)\n      0x8e4a23d600000000000000000000000000000000000000000000000000000000\n      dup2\n      mstore\n      0x04\n      add\n      tag_71\n      swap2\n      swap1\n      tag_36\n      jump\t// in\n    tag_71:\n      mload(0x40)\n      dup1\n      swap2\n      sub\n      swap1\n      revert\n        /* \"tp/tpp.sol\":2861:2944  if (msg.sender != owner) {... */\n    tag_70:\n        /* \"tp/tpp.sol\":2807:2951  function onlyOwnerFunction() external view {... */\n      jump\t// out\n        /* \"tp/tpp.sol\":2079:2538  function withdraw(uint256 _amount)... */\n    tag_30:\n        /* \"tp/tpp.sol\":2152:2162  msg.sender */\n      caller\n        /* \"tp/tpp.sol\":823:824  0 */\n      0x00\n        /* \"tp/tpp.sol\":792:825  users[_addr].wallet != address(0) */\n      0xffffffffffffffffffffffffffffffffffffffff\n      and\n        /* \"tp/tpp.sol\":792:797  users */\n      0x02\n        /* \"tp/tpp.sol\":792:804  users[_addr] */\n      0x00\n        /* \"tp/tpp.sol\":798:803  _addr */\n      dup4\n        /* \"tp/tpp.sol\":792:804  users[_addr] */\n      0xffffffffffffffffffffffffffffffffffffffff\n      and\n      0xffffffffffffffffffffffffffffffffffffffff\n      and\n      dup2\n      mstore\n      0x20\n      add\n      swap1\n      dup2\n      mstore\n      0x20\n      add\n      0x00\n      keccak256\n        /* \"tp/tpp.sol\":792:811  users[_addr].wallet */\n      0x02\n      add\n      0x00\n      swap1\n      sload\n      swap1\n      0x0100\n      exp\n      swap1\n      div\n      0xffffffffffffffffffffffffffffffffffffffff\n      and\n        /* \"tp/tpp.sol\":792:825  users[_addr].wallet != address(0) */\n      0xffffffffffffffffffffffffffffffffffffffff\n      and\n      sub\n        /* \"tp/tpp.sol\":784:849  require(users[_addr].wallet != address(0), \"User does not exist\") */\n      tag_73\n      jumpi\n      mload(0x40)\n      0x08c379a000000000000000000000000000000000000000000000000000000000\n      dup2\n      mstore\n      0x04\n      add\n      tag_74\n      swap1\n      tag_75\n      jump\t// in\n    tag_74:\n      mload(0x40)\n      dup1\n      swap2\n      sub\n      swap1\n      revert\n    tag_73:\n        /* \"tp/tpp.sol\":2202:2207  owner */\n      0x00\n      0x00\n      swap1\n      sload\n      swap1\n      0x0100\n      exp\n      swap1\n      div\n      0xffffffffffffffffffffffffffffffffffffffff\n      and\n        /* \"tp/tpp.sol\":2188:2207  msg.sender == owner */\n      0xffffffffffffffffffffffffffffffffffffffff\n      and\n        /* \"tp/tpp.sol\":2188:2198  msg.sender */\n      caller\n        /* \"tp/tpp.sol\":2188:2207  msg.sender == owner */\n      0xffffffffffffffffffffffffffffffffffffffff\n      and\n      eq\n        /* \"tp/tpp.sol\":2180:2221  require(msg.sender == owner, \"Not owner\") */\n      tag_77\n      jumpi\n      mload(0x40)\n      0x08c379a000000000000000000000000000000000000000000000000000000000\n      dup2\n      mstore\n      0x04\n      add\n      tag_78\n      swap1\n      tag_79\n      jump\t// in\n    tag_78:\n      mload(0x40)\n      dup1\n      swap2\n      sub\n      swap1\n      revert\n    tag_77:\n        /* \"tp/tpp.sol\":2283:2290  _amount */\n      dup2\n        /* \"tp/tpp.sol\":2254:2259  users */\n      0x02\n        /* \"tp/tpp.sol\":2254:2271  users[msg.sender] */\n      0x00\n        /* \"tp/tpp.sol\":2260:2270  msg.sender */\n      caller\n        /* \"tp/tpp.sol\":2254:2271  users[msg.sender] */\n      0xffffffffffffffffffffffffffffffffffffffff\n      and\n      0xffffffffffffffffffffffffffffffffffffffff\n      and\n      dup2\n      mstore\n      0x20\n      add\n      swap1\n      dup2\n      mstore\n      0x20\n      add\n      0x00\n      keccak256\n        /* \"tp/tpp.sol\":2254:2279  users[msg.sender].balance */\n      0x03\n      add\n      sload\n        /* \"tp/tpp.sol\":2254:2290  users[msg.sender].balance >= _amount */\n      lt\n      iszero\n        /* \"tp/tpp.sol\":2232:2343  require(... */\n      tag_80\n      jumpi\n      mload(0x40)\n      0x08c379a000000000000000000000000000000000000000000000000000000000\n      dup2\n      mstore\n      0x04\n      add\n      tag_81\n      swap1\n      tag_82\n      jump\t// in\n    tag_81:\n      mload(0x40)\n      dup1\n      swap2\n      sub\n      swap1\n      revert\n    tag_80:\n        /* \"tp/tpp.sol\":2385:2392  _amount */\n      dup2\n        /* \"tp/tpp.sol\":2356:2361  users */\n      0x02\n        /* \"tp/tpp.sol\":2356:2373  users[msg.sender] */\n      0x00\n        /* \"tp/tpp.sol\":2362:2372  msg.sender */\n      caller\n        /* \"tp/tpp.sol\":2356:2373  users[msg.sender] */\n      0xffffffffffffffffffffffffffffffffffffffff\n      and\n      0xffffffffffffffffffffffffffffffffffffffff\n      and\n      dup2\n      mstore\n      0x20\n      add\n      swap1\n      dup2\n      mstore\n      0x20\n      add\n      0x00\n      keccak256\n        /* \"tp/tpp.sol\":2356:2381  users[msg.sender].balance */\n      0x03\n      add\n      0x00\n        /* \"tp/tpp.sol\":2356:2392  users[msg.sender].balance -= _amount */\n      dup3\n      dup3\n      sload\n      tag_83\n      swap2\n      swap1\n      tag_84\n      jump\t// in\n    tag_83:\n      swap3\n      pop\n      pop\n      dup2\n      swap1\n      sstore\n      pop\n        /* \"tp/tpp.sol\":2422:2429  _amount */\n      dup2\n        /* \"tp/tpp.sol\":2403:2418  contractBalance */\n      0x01\n      0x00\n        /* \"tp/tpp.sol\":2403:2429  contractBalance -= _amount */\n      dup3\n      dup3\n      sload\n      tag_85\n      swap2\n      swap1\n      tag_84\n      jump\t// in\n    tag_85:\n      swap3\n      pop\n      pop\n      dup2\n      swap1\n      sstore\n      pop\n        /* \"tp/tpp.sol\":2450:2460  msg.sender */\n      caller\n        /* \"tp/tpp.sol\":2442:2470  payable(msg.sender).transfer */\n      0xffffffffffffffffffffffffffffffffffffffff\n      and\n        /* \"tp/tpp.sol\":2442:2479  payable(msg.sender).transfer(_amount) */\n      0x08fc\n        /* \"tp/tpp.sol\":2471:2478  _amount */\n      dup4\n        /* \"tp/tpp.sol\":2442:2479  payable(msg.sender).transfer(_amount) */\n      swap1\n      dup2\n      iszero\n      mul\n      swap1\n      mload(0x40)\n      0x00\n      mload(0x40)\n      dup1\n      dup4\n      sub\n      dup2\n      dup6\n      dup9\n      dup9\n      call\n      swap4\n      pop\n      pop\n      pop\n      pop\n      iszero\n      dup1\n      iszero\n      tag_87\n      jumpi\n      returndatacopy(0x00, 0x00, returndatasize)\n      revert(0x00, returndatasize)\n    tag_87:\n      pop\n        /* \"tp/tpp.sol\":2510:2520  msg.sender */\n      caller\n        /* \"tp/tpp.sol\":2495:2530  EtherWithdrawn(msg.sender, _amount) */\n      0xffffffffffffffffffffffffffffffffffffffff\n      and\n      0x06097061aeda806b5e9cb4133d9899f332ff0913956567fc0f7ea15e3d19947c\n        /* \"tp/tpp.sol\":2522:2529  _amount */\n      dup4\n        /* \"tp/tpp.sol\":2495:2530  EtherWithdrawn(msg.sender, _amount) */\n      mload(0x40)\n      tag_88\n      swap2\n      swap1\n      tag_19\n      jump\t// in\n    tag_88:\n      mload(0x40)\n      dup1\n      swap2\n      sub\n      swap1\n      log2\n        /* \"tp/tpp.sol\":2079:2538  function withdraw(uint256 _amount)... */\n      pop\n      pop\n      jump\t// out\n        /* \"tp/tpp.sol\":325:355  address[] public userAddresses */\n    tag_34:\n      0x03\n      dup2\n      dup2\n      sload\n      dup2\n      lt\n      tag_89\n      jumpi\n      0x00\n      dup1\n      revert\n    tag_89:\n      swap1\n      0x00\n      mstore\n      keccak256(0x00, 0x20)\n      add\n      0x00\n      swap2\n      pop\n      sload\n      swap1\n      0x0100\n      exp\n      swap1\n      div\n      0xffffffffffffffffffffffffffffffffffffffff\n      and\n      dup2\n      jump\t// out\n        /* \"tp/tpp.sol\":119:149  uint256 public contractBalance */\n    tag_39:\n      sload(0x01)\n      dup2\n      jump\t// out\n        /* \"tp/tpp.sol\":92:112  address public owner */\n    tag_43:\n      0x00\n      0x00\n      swap1\n      sload\n      swap1\n      0x0100\n      exp\n      swap1\n      div\n      0xffffffffffffffffffffffffffffffffffffffff\n      and\n      dup2\n      jump\t// out\n        /* \"tp/tpp.sol\":281:318  mapping(address => User) public users */\n    tag_49:\n      mstore(0x20, 0x02)\n      dup1\n      0x00\n      mstore\n      keccak256(0x00, 0x40)\n      0x00\n      swap2\n      pop\n      swap1\n      pop\n      dup1\n      0x00\n      add\n      dup1\n      sload\n      tag_91\n      swap1\n      tag_92\n      jump\t// in\n    tag_91:\n      dup1\n      0x1f\n      add\n      0x20\n      dup1\n      swap2\n      div\n      mul\n      0x20\n      add\n      mload(0x40)\n      swap1\n      dup2\n      add\n      0x40\n      mstore\n      dup1\n      swap3\n      swap2\n      swap1\n      dup2\n      dup2\n      mstore\n      0x20\n      add\n      dup3\n      dup1\n      sload\n      tag_93\n      swap1\n      tag_92\n      jump\t// in\n    tag_93:\n      dup1\n      iszero\n      tag_94\n      jumpi\n      dup1\n      0x1f\n      lt\n      tag_95\n      jumpi\n      0x0100\n      dup1\n      dup4\n      sload\n      div\n      mul\n      dup4\n      mstore\n      swap2\n      0x20\n      add\n      swap2\n      jump(tag_94)\n    tag_95:\n      dup3\n      add\n      swap2\n      swap1\n      0x00\n      mstore\n      keccak256(0x00, 0x20)\n      swap1\n    tag_96:\n      dup2\n      sload\n      dup2\n      mstore\n      swap1\n      0x01\n      add\n      swap1\n      0x20\n      add\n      dup1\n      dup4\n      gt\n      tag_96\n      jumpi\n      dup3\n      swap1\n      sub\n      0x1f\n      and\n      dup3\n      add\n      swap2\n    tag_94:\n      pop\n      pop\n      pop\n      pop\n      pop\n      swap1\n      dup1\n      0x01\n      add\n      sload\n      swap1\n      dup1\n      0x02\n      add\n      0x00\n      swap1\n      sload\n      swap1\n      0x0100\n      exp\n      swap1\n      div\n      0xffffffffffffffffffffffffffffffffffffffff\n      and\n      swap1\n      dup1\n      0x03\n      add\n      sload\n      swap1\n      pop\n      dup5\n      jump\t// out\n        /* \"tp/tpp.sol\":1355:1559  function updateUserName(string memory _newName)... */\n    tag_56:\n        /* \"tp/tpp.sol\":1441:1451  msg.sender */\n      caller\n        /* \"tp/tpp.sol\":823:824  0 */\n      0x00\n        /* \"tp/tpp.sol\":792:825  users[_addr].wallet != address(0) */\n      0xffffffffffffffffffffffffffffffffffffffff\n      and\n        /* \"tp/tpp.sol\":792:797  users */\n      0x02\n        /* \"tp/tpp.sol\":792:804  users[_addr] */\n      0x00\n        /* \"tp/tpp.sol\":798:803  _addr */\n      dup4\n        /* \"tp/tpp.sol\":792:804  users[_addr] */\n      0xffffffffffffffffffffffffffffffffffffffff\n      and\n      0xffffffffffffffffffffffffffffffffffffffff\n      and\n      dup2\n      mstore\n      0x20\n      add\n      swap1\n      dup2\n      mstore\n      0x20\n      add\n      0x00\n      keccak256\n        /* \"tp/tpp.sol\":792:811  users[_addr].wallet */\n      0x02\n      add\n      0x00\n      swap1\n      sload\n      swap1\n      0x0100\n      exp\n      swap1\n      div\n      0xffffffffffffffffffffffffffffffffffffffff\n      and\n        /* \"tp/tpp.sol\":792:825  users[_addr].wallet != address(0) */\n      0xffffffffffffffffffffffffffffffffffffffff\n      and\n      sub\n        /* \"tp/tpp.sol\":784:849  require(users[_addr].wallet != address(0), \"User does not exist\") */\n      tag_98\n      jumpi\n      mload(0x40)\n      0x08c379a000000000000000000000000000000000000000000000000000000000\n      dup2\n      mstore\n      0x04\n      add\n      tag_99\n      swap1\n      tag_75\n      jump\t// in\n    tag_99:\n      mload(0x40)\n      dup1\n      swap2\n      sub\n      swap1\n      revert\n    tag_98:\n        /* \"tp/tpp.sol\":1494:1502  _newName */\n      dup2\n        /* \"tp/tpp.sol\":1469:1474  users */\n      0x02\n        /* \"tp/tpp.sol\":1469:1486  users[msg.sender] */\n      0x00\n        /* \"tp/tpp.sol\":1475:1485  msg.sender */\n      caller\n        /* \"tp/tpp.sol\":1469:1486  users[msg.sender] */\n      0xffffffffffffffffffffffffffffffffffffffff\n      and\n      0xffffffffffffffffffffffffffffffffffffffff\n      and\n      dup2\n      mstore\n      0x20\n      add\n      swap1\n      dup2\n      mstore\n      0x20\n      add\n      0x00\n      keccak256\n        /* \"tp/tpp.sol\":1469:1491  users[msg.sender].name */\n      0x00\n      add\n        /* \"tp/tpp.sol\":1469:1502  users[msg.sender].name = _newName */\n      swap1\n      dup2\n      tag_101\n      swap2\n      swap1\n      tag_102\n      jump\t// in\n    tag_101:\n      pop\n        /* \"tp/tpp.sol\":1530:1540  msg.sender */\n      caller\n        /* \"tp/tpp.sol\":1518:1551  UserUpdated(msg.sender, _newName) */\n      0xffffffffffffffffffffffffffffffffffffffff\n      and\n      0xd6136f3cad7c60bfc24bbf1548f39f766ca8bce104bf9adde3deb6237dec51df\n        /* \"tp/tpp.sol\":1542:1550  _newName */\n      dup4\n        /* \"tp/tpp.sol\":1518:1551  UserUpdated(msg.sender, _newName) */\n      mload(0x40)\n      tag_103\n      swap2\n      swap1\n      tag_104\n      jump\t// in\n    tag_103:\n      mload(0x40)\n      dup1\n      swap2\n      sub\n      swap1\n      log2\n        /* \"tp/tpp.sol\":1355:1559  function updateUserName(string memory _newName)... */\n      pop\n      pop\n      jump\t// out\n        /* \"tp/tpp.sol\":1861:2071  function deposit() external payable userExists(msg.sender) {... */\n    tag_58:\n        /* \"tp/tpp.sol\":1908:1918  msg.sender */\n      caller\n        /* \"tp/tpp.sol\":823:824  0 */\n      0x00\n        /* \"tp/tpp.sol\":792:825  users[_addr].wallet != address(0) */\n      0xffffffffffffffffffffffffffffffffffffffff\n      and\n        /* \"tp/tpp.sol\":792:797  users */\n      0x02\n        /* \"tp/tpp.sol\":792:804  users[_addr] */\n      0x00\n        /* \"tp/tpp.sol\":798:803  _addr */\n      dup4\n        /* \"tp/tpp.sol\":792:804  users[_addr] */\n      0xffffffffffffffffffffffffffffffffffffffff\n      and\n      0xffffffffffffffffffffffffffffffffffffffff\n      and\n      dup2\n      mstore\n      0x20\n      add\n      swap1\n      dup2\n      mstore\n      0x20\n      add\n      0x00\n      keccak256\n        /* \"tp/tpp.sol\":792:811  users[_addr].wallet */\n      0x02\n      add\n      0x00\n      swap1\n      sload\n      swap1\n      0x0100\n      exp\n      swap1\n      div\n      0xffffffffffffffffffffffffffffffffffffffff\n      and\n        /* \"tp/tpp.sol\":792:825  users[_addr].wallet != address(0) */\n      0xffffffffffffffffffffffffffffffffffffffff\n      and\n      sub\n        /* \"tp/tpp.sol\":784:849  require(users[_addr].wallet != address(0), \"User does not exist\") */\n      tag_106\n      jumpi\n      mload(0x40)\n      0x08c379a000000000000000000000000000000000000000000000000000000000\n      dup2\n      mstore\n      0x04\n      add\n      tag_107\n      swap1\n      tag_75\n      jump\t// in\n    tag_107:\n      mload(0x40)\n      dup1\n      swap2\n      sub\n      swap1\n      revert\n    tag_106:\n        /* \"tp/tpp.sol\":1960:1969  msg.value */\n      callvalue\n        /* \"tp/tpp.sol\":1931:1936  users */\n      0x02\n        /* \"tp/tpp.sol\":1931:1948  users[msg.sender] */\n      0x00\n        /* \"tp/tpp.sol\":1937:1947  msg.sender */\n      caller\n        /* \"tp/tpp.sol\":1931:1948  users[msg.sender] */\n      0xffffffffffffffffffffffffffffffffffffffff\n      and\n      0xffffffffffffffffffffffffffffffffffffffff\n      and\n      dup2\n      mstore\n      0x20\n      add\n      swap1\n      dup2\n      mstore\n      0x20\n      add\n      0x00\n      keccak256\n        /* \"tp/tpp.sol\":1931:1956  users[msg.sender].balance */\n      0x03\n      add\n      0x00\n        /* \"tp/tpp.sol\":1931:1969  users[msg.sender].balance += msg.value */\n      dup3\n      dup3\n      sload\n      tag_109\n      swap2\n      swap1\n      tag_17\n      jump\t// in\n    tag_109:\n      swap3\n      pop\n      pop\n      dup2\n      swap1\n      sstore\n      pop\n        /* \"tp/tpp.sol\":1999:2008  msg.value */\n      callvalue\n        /* \"tp/tpp.sol\":1980:1995  contractBalance */\n      0x01\n      0x00\n        /* \"tp/tpp.sol\":1980:2008  contractBalance += msg.value */\n      dup3\n      dup3\n      sload\n      tag_110\n      swap2\n      swap1\n      tag_17\n      jump\t// in\n    tag_110:\n      swap3\n      pop\n      pop\n      dup2\n      swap1\n      sstore\n      pop\n        /* \"tp/tpp.sol\":2041:2051  msg.sender */\n      caller\n        /* \"tp/tpp.sol\":2026:2063  EtherDeposited(msg.sender, msg.value) */\n      0xffffffffffffffffffffffffffffffffffffffff\n      and\n      0x939e51ac2fd009b158d6344f7e68a83d8d18d9b0cc88cf514aac6aaa9cad2a18\n        /* \"tp/tpp.sol\":2053:2062  msg.value */\n      callvalue\n        /* \"tp/tpp.sol\":2026:2063  EtherDeposited(msg.sender, msg.value) */\n      mload(0x40)\n      tag_111\n      swap2\n      swap1\n      tag_19\n      jump\t// in\n    tag_111:\n      mload(0x40)\n      dup1\n      swap2\n      sub\n      swap1\n      log2\n        /* \"tp/tpp.sol\":1861:2071  function deposit() external payable userExists(msg.sender) {... */\n      pop\n      jump\t// out\n        /* \"tp/tpp.sol\":936:1347  function registerUser(string memory _name, uint256 _age) external {... */\n    tag_63:\n        /* \"tp/tpp.sol\":1057:1058  0 */\n      0x00\n        /* \"tp/tpp.sol\":1021:1059  users[msg.sender].wallet == address(0) */\n      0xffffffffffffffffffffffffffffffffffffffff\n      and\n        /* \"tp/tpp.sol\":1021:1026  users */\n      0x02\n        /* \"tp/tpp.sol\":1021:1038  users[msg.sender] */\n      0x00\n        /* \"tp/tpp.sol\":1027:1037  msg.sender */\n      caller\n        /* \"tp/tpp.sol\":1021:1038  users[msg.sender] */\n      0xffffffffffffffffffffffffffffffffffffffff\n      and\n      0xffffffffffffffffffffffffffffffffffffffff\n      and\n      dup2\n      mstore\n      0x20\n      add\n      swap1\n      dup2\n      mstore\n      0x20\n      add\n      0x00\n      keccak256\n        /* \"tp/tpp.sol\":1021:1045  users[msg.sender].wallet */\n      0x02\n      add\n      0x00\n      swap1\n      sload\n      swap1\n      0x0100\n      exp\n      swap1\n      div\n      0xffffffffffffffffffffffffffffffffffffffff\n      and\n        /* \"tp/tpp.sol\":1021:1059  users[msg.sender].wallet == address(0) */\n      0xffffffffffffffffffffffffffffffffffffffff\n      and\n      eq\n        /* \"tp/tpp.sol\":1013:1083  require(users[msg.sender].wallet == address(0), \"User already exists\") */\n      tag_113\n      jumpi\n      mload(0x40)\n      0x08c379a000000000000000000000000000000000000000000000000000000000\n      dup2\n      mstore\n      0x04\n      add\n      tag_114\n      swap1\n      tag_115\n      jump\t// in\n    tag_114:\n      mload(0x40)\n      dup1\n      swap2\n      sub\n      swap1\n      revert\n    tag_113:\n        /* \"tp/tpp.sol\":1116:1241  User({... */\n      mload(0x40)\n      dup1\n      0x80\n      add\n      0x40\n      mstore\n      dup1\n        /* \"tp/tpp.sol\":1142:1147  _name */\n      dup4\n        /* \"tp/tpp.sol\":1116:1241  User({... */\n      dup2\n      mstore\n      0x20\n      add\n        /* \"tp/tpp.sol\":1167:1171  _age */\n      dup3\n        /* \"tp/tpp.sol\":1116:1241  User({... */\n      dup2\n      mstore\n      0x20\n      add\n        /* \"tp/tpp.sol\":1194:1204  msg.sender */\n      caller\n        /* \"tp/tpp.sol\":1116:1241  User({... */\n      0xffffffffffffffffffffffffffffffffffffffff\n      and\n      dup2\n      mstore\n      0x20\n      add\n        /* \"tp/tpp.sol\":1228:1229  0 */\n      0x00\n        /* \"tp/tpp.sol\":1116:1241  User({... */\n      dup2\n      mstore\n      pop\n        /* \"tp/tpp.sol\":1096:1101  users */\n      0x02\n        /* \"tp/tpp.sol\":1096:1113  users[msg.sender] */\n      0x00\n        /* \"tp/tpp.sol\":1102:1112  msg.sender */\n      caller\n        /* \"tp/tpp.sol\":1096:1113  users[msg.sender] */\n      0xffffffffffffffffffffffffffffffffffffffff\n      and\n      0xffffffffffffffffffffffffffffffffffffffff\n      and\n      dup2\n      mstore\n      0x20\n      add\n      swap1\n      dup2\n      mstore\n      0x20\n      add\n      0x00\n      keccak256\n        /* \"tp/tpp.sol\":1096:1241  users[msg.sender] = User({... */\n      0x00\n      dup3\n      add\n      mload\n      dup2\n      0x00\n      add\n      swap1\n      dup2\n      tag_116\n      swap2\n      swap1\n      tag_102\n      jump\t// in\n    tag_116:\n      pop\n      0x20\n      dup3\n      add\n      mload\n      dup2\n      0x01\n      add\n      sstore\n      0x40\n      dup3\n      add\n      mload\n      dup2\n      0x02\n      add\n      exp(0x0100, 0x00)\n      dup2\n      sload\n      dup2\n      0xffffffffffffffffffffffffffffffffffffffff\n      mul\n      not\n      and\n      swap1\n      dup4\n      0xffffffffffffffffffffffffffffffffffffffff\n      and\n      mul\n      or\n      swap1\n      sstore\n      pop\n      0x60\n      dup3\n      add\n      mload\n      dup2\n      0x03\n      add\n      sstore\n      swap1\n      pop\n      pop\n        /* \"tp/tpp.sol\":1254:1267  userAddresses */\n      0x03\n        /* \"tp/tpp.sol\":1273:1283  msg.sender */\n      caller\n        /* \"tp/tpp.sol\":1254:1284  userAddresses.push(msg.sender) */\n      swap1\n      dup1\n      0x01\n      dup2\n      sload\n      add\n      dup1\n      dup3\n      sstore\n      dup1\n      swap2\n      pop\n      pop\n      0x01\n      swap1\n      sub\n      swap1\n      0x00\n      mstore\n      keccak256(0x00, 0x20)\n      add\n      0x00\n      swap1\n      swap2\n      swap1\n      swap2\n      swap1\n      swap2\n      0x0100\n      exp\n      dup2\n      sload\n      dup2\n      0xffffffffffffffffffffffffffffffffffffffff\n      mul\n      not\n      and\n      swap1\n      dup4\n      0xffffffffffffffffffffffffffffffffffffffff\n      and\n      mul\n      or\n      swap1\n      sstore\n      pop\n        /* \"tp/tpp.sol\":1315:1325  msg.sender */\n      caller\n        /* \"tp/tpp.sol\":1300:1339  UserRegistered(msg.sender, _name, _age) */\n      0xffffffffffffffffffffffffffffffffffffffff\n      and\n      0x89105a1c6a3c2fbd471255c66a31ccab604af5697f67d7e2e9a0028c5e4dbd91\n        /* \"tp/tpp.sol\":1327:1332  _name */\n      dup4\n        /* \"tp/tpp.sol\":1334:1338  _age */\n      dup4\n        /* \"tp/tpp.sol\":1300:1339  UserRegistered(msg.sender, _name, _age) */\n      mload(0x40)\n      tag_118\n      swap3\n      swap2\n      swap1\n      tag_119\n      jump\t// in\n    tag_118:\n      mload(0x40)\n      dup1\n      swap2\n      sub\n      swap1\n      log2\n        /* \"tp/tpp.sol\":936:1347  function registerUser(string memory _name, uint256 _age) external {... */\n      pop\n      pop\n      jump\t// out\n        /* \"tp/tpp.sol\":1567:1853  function getAllUsers() external view returns (User[] memory) {... */\n    tag_66:\n        /* \"tp/tpp.sol\":1613:1626  User[] memory */\n      0x60\n        /* \"tp/tpp.sol\":1639:1659  User[] memory result */\n      0x00\n        /* \"tp/tpp.sol\":1673:1686  userAddresses */\n      0x03\n        /* \"tp/tpp.sol\":1673:1693  userAddresses.length */\n      dup1\n      sload\n      swap1\n      pop\n        /* \"tp/tpp.sol\":1662:1694  new User[](userAddresses.length) */\n      0xffffffffffffffff\n      dup2\n      gt\n      iszero\n      tag_121\n      jumpi\n      tag_122\n      tag_123\n      jump\t// in\n    tag_122:\n    tag_121:\n      mload(0x40)\n      swap1\n      dup1\n      dup3\n      mstore\n      dup1\n      0x20\n      mul\n      0x20\n      add\n      dup3\n      add\n      0x40\n      mstore\n      dup1\n      iszero\n      tag_124\n      jumpi\n      dup2\n      0x20\n      add\n    tag_125:\n      tag_126\n      tag_127\n      jump\t// in\n    tag_126:\n      dup2\n      mstore\n      0x20\n      add\n      swap1\n      0x01\n      swap1\n      sub\n      swap1\n      dup2\n      tag_125\n      jumpi\n      swap1\n      pop\n    tag_124:\n      pop\n        /* \"tp/tpp.sol\":1639:1694  User[] memory result = new User[](userAddresses.length) */\n      swap1\n      pop\n        /* \"tp/tpp.sol\":1712:1721  uint256 i */\n      0x00\n        /* \"tp/tpp.sol\":1724:1725  0 */\n      0x00\n        /* \"tp/tpp.sol\":1712:1725  uint256 i = 0 */\n      swap1\n      pop\n        /* \"tp/tpp.sol\":1707:1820  for (uint256 i = 0; i < userAddresses.length; i++) {... */\n    tag_128:\n        /* \"tp/tpp.sol\":1731:1744  userAddresses */\n      0x03\n        /* \"tp/tpp.sol\":1731:1751  userAddresses.length */\n      dup1\n      sload\n      swap1\n      pop\n        /* \"tp/tpp.sol\":1727:1728  i */\n      dup2\n        /* \"tp/tpp.sol\":1727:1751  i < userAddresses.length */\n      lt\n        /* \"tp/tpp.sol\":1707:1820  for (uint256 i = 0; i < userAddresses.length; i++) {... */\n      iszero\n      tag_129\n      jumpi\n        /* \"tp/tpp.sol\":1785:1790  users */\n      0x02\n        /* \"tp/tpp.sol\":1785:1808  users[userAddresses[i]] */\n      0x00\n        /* \"tp/tpp.sol\":1791:1804  userAddresses */\n      0x03\n        /* \"tp/tpp.sol\":1805:1806  i */\n      dup4\n        /* \"tp/tpp.sol\":1791:1807  userAddresses[i] */\n      dup2\n      sload\n      dup2\n      lt\n      tag_131\n      jumpi\n      tag_132\n      tag_133\n      jump\t// in\n    tag_132:\n    tag_131:\n      swap1\n      0x00\n      mstore\n      keccak256(0x00, 0x20)\n      add\n      0x00\n      swap1\n      sload\n      swap1\n      0x0100\n      exp\n      swap1\n      div\n      0xffffffffffffffffffffffffffffffffffffffff\n      and\n        /* \"tp/tpp.sol\":1785:1808  users[userAddresses[i]] */\n      0xffffffffffffffffffffffffffffffffffffffff\n      and\n      0xffffffffffffffffffffffffffffffffffffffff\n      and\n      dup2\n      mstore\n      0x20\n      add\n      swap1\n      dup2\n      mstore\n      0x20\n      add\n      0x00\n      keccak256\n        /* \"tp/tpp.sol\":1773:1808  result[i] = users[userAddresses[i]] */\n      mload(0x40)\n      dup1\n      0x80\n      add\n      0x40\n      mstore\n      swap1\n      dup2\n      0x00\n      dup3\n      add\n      dup1\n      sload\n      tag_135\n      swap1\n      tag_92\n      jump\t// in\n    tag_135:\n      dup1\n      0x1f\n      add\n      0x20\n      dup1\n      swap2\n      div\n      mul\n      0x20\n      add\n      mload(0x40)\n      swap1\n      dup2\n      add\n      0x40\n      mstore\n      dup1\n      swap3\n      swap2\n      swap1\n      dup2\n      dup2\n      mstore\n      0x20\n      add\n      dup3\n      dup1\n      sload\n      tag_136\n      swap1\n      tag_92\n      jump\t// in\n    tag_136:\n      dup1\n      iszero\n      tag_137\n      jumpi\n      dup1\n      0x1f\n      lt\n      tag_138\n      jumpi\n      0x0100\n      dup1\n      dup4\n      sload\n      div\n      mul\n      dup4\n      mstore\n      swap2\n      0x20\n      add\n      swap2\n      jump(tag_137)\n    tag_138:\n      dup3\n      add\n      swap2\n      swap1\n      0x00\n      mstore\n      keccak256(0x00, 0x20)\n      swap1\n    tag_139:\n      dup2\n      sload\n      dup2\n      mstore\n      swap1\n      0x01\n      add\n      swap1\n      0x20\n      add\n      dup1\n      dup4\n      gt\n      tag_139\n      jumpi\n      dup3\n      swap1\n      sub\n      0x1f\n      and\n      dup3\n      add\n      swap2\n    tag_137:\n      pop\n      pop\n      pop\n      pop\n      pop\n      dup2\n      mstore\n      0x20\n      add\n      0x01\n      dup3\n      add\n      sload\n      dup2\n      mstore\n      0x20\n      add\n      0x02\n      dup3\n      add\n      0x00\n      swap1\n      sload\n      swap1\n      0x0100\n      exp\n      swap1\n      div\n      0xffffffffffffffffffffffffffffffffffffffff\n      and\n      0xffffffffffffffffffffffffffffffffffffffff\n      and\n      0xffffffffffffffffffffffffffffffffffffffff\n      and\n      dup2\n      mstore\n      0x20\n      add\n      0x03\n      dup3\n      add\n      sload\n      dup2\n      mstore\n      pop\n      pop\n        /* \"tp/tpp.sol\":1773:1779  result */\n      dup3\n        /* \"tp/tpp.sol\":1780:1781  i */\n      dup3\n        /* \"tp/tpp.sol\":1773:1782  result[i] */\n      dup2\n      mload\n      dup2\n      lt\n      tag_140\n      jumpi\n      tag_141\n      tag_133\n      jump\t// in\n    tag_141:\n    tag_140:\n      0x20\n      mul\n      0x20\n      add\n      add\n        /* \"tp/tpp.sol\":1773:1808  result[i] = users[userAddresses[i]] */\n      dup2\n      swap1\n      mstore\n      pop\n        /* \"tp/tpp.sol\":1753:1756  i++ */\n      dup1\n      dup1\n      0x01\n      add\n      swap2\n      pop\n      pop\n        /* \"tp/tpp.sol\":1707:1820  for (uint256 i = 0; i < userAddresses.length; i++) {... */\n      jump(tag_128)\n    tag_129:\n      pop\n        /* \"tp/tpp.sol\":1839:1845  result */\n      dup1\n        /* \"tp/tpp.sol\":1832:1845  return result */\n      swap2\n      pop\n      pop\n        /* \"tp/tpp.sol\":1567:1853  function getAllUsers() external view returns (User[] memory) {... */\n      swap1\n      jump\t// out\n    tag_127:\n      mload(0x40)\n      dup1\n      0x80\n      add\n      0x40\n      mstore\n      dup1\n      0x60\n      dup2\n      mstore\n      0x20\n      add\n      0x00\n      dup2\n      mstore\n      0x20\n      add\n      and(0xffffffffffffffffffffffffffffffffffffffff, 0x00)\n      dup2\n      mstore\n      0x20\n      add\n      0x00\n      dup2\n      mstore\n      pop\n      swap1\n      jump\t// out\n        /* \"#utility.yul\":7:84   */\n    tag_142:\n        /* \"#utility.yul\":44:51   */\n      0x00\n        /* \"#utility.yul\":73:78   */\n      dup2\n        /* \"#utility.yul\":62:78   */\n      swap1\n      pop\n        /* \"#utility.yul\":7:84   */\n      swap2\n      swap1\n      pop\n      jump\t// out\n        /* \"#utility.yul\":90:270   */\n    tag_143:\n        /* \"#utility.yul\":138:215   */\n      0x4e487b7100000000000000000000000000000000000000000000000000000000\n        /* \"#utility.yul\":135:136   */\n      0x00\n        /* \"#utility.yul\":128:216   */\n      mstore\n        /* \"#utility.yul\":235:239   */\n      0x11\n        /* \"#utility.yul\":232:233   */\n      0x04\n        /* \"#utility.yul\":225:240   */\n      mstore\n        /* \"#utility.yul\":259:263   */\n      0x24\n        /* \"#utility.yul\":256:257   */\n      0x00\n        /* \"#utility.yul\":249:264   */\n      revert\n        /* \"#utility.yul\":276:467   */\n    tag_17:\n        /* \"#utility.yul\":316:319   */\n      0x00\n        /* \"#utility.yul\":335:355   */\n      tag_207\n        /* \"#utility.yul\":353:354   */\n      dup3\n        /* \"#utility.yul\":335:355   */\n      tag_142\n      jump\t// in\n    tag_207:\n        /* \"#utility.yul\":330:355   */\n      swap2\n      pop\n        /* \"#utility.yul\":369:389   */\n      tag_208\n        /* \"#utility.yul\":387:388   */\n      dup4\n        /* \"#utility.yul\":369:389   */\n      tag_142\n      jump\t// in\n    tag_208:\n        /* \"#utility.yul\":364:389   */\n      swap3\n      pop\n        /* \"#utility.yul\":412:413   */\n      dup3\n        /* \"#utility.yul\":409:410   */\n      dup3\n        /* \"#utility.yul\":405:414   */\n      add\n        /* \"#utility.yul\":398:414   */\n      swap1\n      pop\n        /* \"#utility.yul\":433:436   */\n      dup1\n        /* \"#utility.yul\":430:431   */\n      dup3\n        /* \"#utility.yul\":427:437   */\n      gt\n        /* \"#utility.yul\":424:460   */\n      iszero\n      tag_209\n      jumpi\n        /* \"#utility.yul\":440:458   */\n      tag_210\n      tag_143\n      jump\t// in\n    tag_210:\n        /* \"#utility.yul\":424:460   */\n    tag_209:\n        /* \"#utility.yul\":276:467   */\n      swap3\n      swap2\n      pop\n      pop\n      jump\t// out\n        /* \"#utility.yul\":473:591   */\n    tag_144:\n        /* \"#utility.yul\":560:584   */\n      tag_212\n        /* \"#utility.yul\":578:583   */\n      dup2\n        /* \"#utility.yul\":560:584   */\n      tag_142\n      jump\t// in\n    tag_212:\n        /* \"#utility.yul\":555:558   */\n      dup3\n        /* \"#utility.yul\":548:585   */\n      mstore\n        /* \"#utility.yul\":473:591   */\n      pop\n      pop\n      jump\t// out\n        /* \"#utility.yul\":597:819   */\n    tag_19:\n        /* \"#utility.yul\":690:694   */\n      0x00\n        /* \"#utility.yul\":728:730   */\n      0x20\n        /* \"#utility.yul\":717:726   */\n      dup3\n        /* \"#utility.yul\":713:731   */\n      add\n        /* \"#utility.yul\":705:731   */\n      swap1\n      pop\n        /* \"#utility.yul\":741:812   */\n      tag_214\n        /* \"#utility.yul\":809:810   */\n      0x00\n        /* \"#utility.yul\":798:807   */\n      dup4\n        /* \"#utility.yul\":794:811   */\n      add\n        /* \"#utility.yul\":785:791   */\n      dup5\n        /* \"#utility.yul\":741:812   */\n      tag_144\n      jump\t// in\n    tag_214:\n        /* \"#utility.yul\":597:819   */\n      swap3\n      swap2\n      pop\n      pop\n      jump\t// out\n        /* \"#utility.yul\":825:900   */\n    tag_145:\n        /* \"#utility.yul\":858:864   */\n      0x00\n        /* \"#utility.yul\":891:893   */\n      0x40\n        /* \"#utility.yul\":885:894   */\n      mload\n        /* \"#utility.yul\":875:894   */\n      swap1\n      pop\n        /* \"#utility.yul\":825:900   */\n      swap1\n      jump\t// out\n        /* \"#utility.yul\":906:1023   */\n    tag_146:\n        /* \"#utility.yul\":1015:1016   */\n      0x00\n        /* \"#utility.yul\":1012:1013   */\n      0x00\n        /* \"#utility.yul\":1005:1017   */\n      revert\n        /* \"#utility.yul\":1029:1146   */\n    tag_147:\n        /* \"#utility.yul\":1138:1139   */\n      0x00\n        /* \"#utility.yul\":1135:1136   */\n      0x00\n        /* \"#utility.yul\":1128:1140   */\n      revert\n        /* \"#utility.yul\":1152:1274   */\n    tag_148:\n        /* \"#utility.yul\":1225:1249   */\n      tag_219\n        /* \"#utility.yul\":1243:1248   */\n      dup2\n        /* \"#utility.yul\":1225:1249   */\n      tag_142\n      jump\t// in\n    tag_219:\n        /* \"#utility.yul\":1218:1223   */\n      dup2\n        /* \"#utility.yul\":1215:1250   */\n      eq\n        /* \"#utility.yul\":1205:1268   */\n      tag_220\n      jumpi\n        /* \"#utility.yul\":1264:1265   */\n      0x00\n        /* \"#utility.yul\":1261:1262   */\n      0x00\n        /* \"#utility.yul\":1254:1266   */\n      revert\n        /* \"#utility.yul\":1205:1268   */\n    tag_220:\n        /* \"#utility.yul\":1152:1274   */\n      pop\n      jump\t// out\n        /* \"#utility.yul\":1280:1419   */\n    tag_149:\n        /* \"#utility.yul\":1326:1331   */\n      0x00\n        /* \"#utility.yul\":1364:1370   */\n      dup2\n        /* \"#utility.yul\":1351:1371   */\n      calldataload\n        /* \"#utility.yul\":1342:1371   */\n      swap1\n      pop\n        /* \"#utility.yul\":1380:1413   */\n      tag_222\n        /* \"#utility.yul\":1407:1412   */\n      dup2\n        /* \"#utility.yul\":1380:1413   */\n      tag_148\n      jump\t// in\n    tag_222:\n        /* \"#utility.yul\":1280:1419   */\n      swap3\n      swap2\n      pop\n      pop\n      jump\t// out\n        /* \"#utility.yul\":1425:1754   */\n    tag_29:\n        /* \"#utility.yul\":1484:1490   */\n      0x00\n        /* \"#utility.yul\":1533:1535   */\n      0x20\n        /* \"#utility.yul\":1521:1530   */\n      dup3\n        /* \"#utility.yul\":1512:1519   */\n      dup5\n        /* \"#utility.yul\":1508:1531   */\n      sub\n        /* \"#utility.yul\":1504:1536   */\n      slt\n        /* \"#utility.yul\":1501:1620   */\n      iszero\n      tag_224\n      jumpi\n        /* \"#utility.yul\":1539:1618   */\n      tag_225\n      tag_146\n      jump\t// in\n    tag_225:\n        /* \"#utility.yul\":1501:1620   */\n    tag_224:\n        /* \"#utility.yul\":1659:1660   */\n      0x00\n        /* \"#utility.yul\":1684:1737   */\n      tag_226\n        /* \"#utility.yul\":1729:1736   */\n      dup5\n        /* \"#utility.yul\":1720:1726   */\n      dup3\n        /* \"#utility.yul\":1709:1718   */\n      dup6\n        /* \"#utility.yul\":1705:1727   */\n      add\n        /* \"#utility.yul\":1684:1737   */\n      tag_149\n      jump\t// in\n    tag_226:\n        /* \"#utility.yul\":1674:1737   */\n      swap2\n      pop\n        /* \"#utility.yul\":1630:1747   */\n      pop\n        /* \"#utility.yul\":1425:1754   */\n      swap3\n      swap2\n      pop\n      pop\n      jump\t// out\n        /* \"#utility.yul\":1760:1886   */\n    tag_150:\n        /* \"#utility.yul\":1797:1804   */\n      0x00\n        /* \"#utility.yul\":1837:1879   */\n      0xffffffffffffffffffffffffffffffffffffffff\n        /* \"#utility.yul\":1830:1835   */\n      dup3\n        /* \"#utility.yul\":1826:1880   */\n      and\n        /* \"#utility.yul\":1815:1880   */\n      swap1\n      pop\n        /* \"#utility.yul\":1760:1886   */\n      swap2\n      swap1\n      pop\n      jump\t// out\n        /* \"#utility.yul\":1892:1988   */\n    tag_151:\n        /* \"#utility.yul\":1929:1936   */\n      0x00\n        /* \"#utility.yul\":1958:1982   */\n      tag_229\n        /* \"#utility.yul\":1976:1981   */\n      dup3\n        /* \"#utility.yul\":1958:1982   */\n      tag_150\n      jump\t// in\n    tag_229:\n        /* \"#utility.yul\":1947:1982   */\n      swap1\n      pop\n        /* \"#utility.yul\":1892:1988   */\n      swap2\n      swap1\n      pop\n      jump\t// out\n        /* \"#utility.yul\":1994:2112   */\n    tag_152:\n        /* \"#utility.yul\":2081:2105   */\n      tag_231\n        /* \"#utility.yul\":2099:2104   */\n      dup2\n        /* \"#utility.yul\":2081:2105   */\n      tag_151\n      jump\t// in\n    tag_231:\n        /* \"#utility.yul\":2076:2079   */\n      dup3\n        /* \"#utility.yul\":2069:2106   */\n      mstore\n        /* \"#utility.yul\":1994:2112   */\n      pop\n      pop\n      jump\t// out\n        /* \"#utility.yul\":2118:2340   */\n    tag_36:\n        /* \"#utility.yul\":2211:2215   */\n      0x00\n        /* \"#utility.yul\":2249:2251   */\n      0x20\n        /* \"#utility.yul\":2238:2247   */\n      dup3\n        /* \"#utility.yul\":2234:2252   */\n      add\n        /* \"#utility.yul\":2226:2252   */\n      swap1\n      pop\n        /* \"#utility.yul\":2262:2333   */\n      tag_233\n        /* \"#utility.yul\":2330:2331   */\n      0x00\n        /* \"#utility.yul\":2319:2328   */\n      dup4\n        /* \"#utility.yul\":2315:2332   */\n      add\n        /* \"#utility.yul\":2306:2312   */\n      dup5\n        /* \"#utility.yul\":2262:2333   */\n      tag_152\n      jump\t// in\n    tag_233:\n        /* \"#utility.yul\":2118:2340   */\n      swap3\n      swap2\n      pop\n      pop\n      jump\t// out\n        /* \"#utility.yul\":2346:2468   */\n    tag_153:\n        /* \"#utility.yul\":2419:2443   */\n      tag_235\n        /* \"#utility.yul\":2437:2442   */\n      dup2\n        /* \"#utility.yul\":2419:2443   */\n      tag_151\n      jump\t// in\n    tag_235:\n        /* \"#utility.yul\":2412:2417   */\n      dup2\n        /* \"#utility.yul\":2409:2444   */\n      eq\n        /* \"#utility.yul\":2399:2462   */\n      tag_236\n      jumpi\n        /* \"#utility.yul\":2458:2459   */\n      0x00\n        /* \"#utility.yul\":2455:2456   */\n      0x00\n        /* \"#utility.yul\":2448:2460   */\n      revert\n        /* \"#utility.yul\":2399:2462   */\n    tag_236:\n        /* \"#utility.yul\":2346:2468   */\n      pop\n      jump\t// out\n        /* \"#utility.yul\":2474:2613   */\n    tag_154:\n        /* \"#utility.yul\":2520:2525   */\n      0x00\n        /* \"#utility.yul\":2558:2564   */\n      dup2\n        /* \"#utility.yul\":2545:2565   */\n      calldataload\n        /* \"#utility.yul\":2536:2565   */\n      swap1\n      pop\n        /* \"#utility.yul\":2574:2607   */\n      tag_238\n        /* \"#utility.yul\":2601:2606   */\n      dup2\n        /* \"#utility.yul\":2574:2607   */\n      tag_153\n      jump\t// in\n    tag_238:\n        /* \"#utility.yul\":2474:2613   */\n      swap3\n      swap2\n      pop\n      pop\n      jump\t// out\n        /* \"#utility.yul\":2619:2948   */\n    tag_48:\n        /* \"#utility.yul\":2678:2684   */\n      0x00\n        /* \"#utility.yul\":2727:2729   */\n      0x20\n        /* \"#utility.yul\":2715:2724   */\n      dup3\n        /* \"#utility.yul\":2706:2713   */\n      dup5\n        /* \"#utility.yul\":2702:2725   */\n      sub\n        /* \"#utility.yul\":2698:2730   */\n      slt\n        /* \"#utility.yul\":2695:2814   */\n      iszero\n      tag_240\n      jumpi\n        /* \"#utility.yul\":2733:2812   */\n      tag_241\n      tag_146\n      jump\t// in\n    tag_241:\n        /* \"#utility.yul\":2695:2814   */\n    tag_240:\n        /* \"#utility.yul\":2853:2854   */\n      0x00\n        /* \"#utility.yul\":2878:2931   */\n      tag_242\n        /* \"#utility.yul\":2923:2930   */\n      dup5\n        /* \"#utility.yul\":2914:2920   */\n      dup3\n        /* \"#utility.yul\":2903:2912   */\n      dup6\n        /* \"#utility.yul\":2899:2921   */\n      add\n        /* \"#utility.yul\":2878:2931   */\n      tag_154\n      jump\t// in\n    tag_242:\n        /* \"#utility.yul\":2868:2931   */\n      swap2\n      pop\n        /* \"#utility.yul\":2824:2941   */\n      pop\n        /* \"#utility.yul\":2619:2948   */\n      swap3\n      swap2\n      pop\n      pop\n      jump\t// out\n        /* \"#utility.yul\":2954:3053   */\n    tag_155:\n        /* \"#utility.yul\":3006:3012   */\n      0x00\n        /* \"#utility.yul\":3040:3045   */\n      dup2\n        /* \"#utility.yul\":3034:3046   */\n      mload\n        /* \"#utility.yul\":3024:3046   */\n      swap1\n      pop\n        /* \"#utility.yul\":2954:3053   */\n      swap2\n      swap1\n      pop\n      jump\t// out\n        /* \"#utility.yul\":3059:3228   */\n    tag_156:\n        /* \"#utility.yul\":3143:3154   */\n      0x00\n        /* \"#utility.yul\":3177:3183   */\n      dup3\n        /* \"#utility.yul\":3172:3175   */\n      dup3\n        /* \"#utility.yul\":3165:3184   */\n      mstore\n        /* \"#utility.yul\":3217:3221   */\n      0x20\n        /* \"#utility.yul\":3212:3215   */\n      dup3\n        /* \"#utility.yul\":3208:3222   */\n      add\n        /* \"#utility.yul\":3193:3222   */\n      swap1\n      pop\n        /* \"#utility.yul\":3059:3228   */\n      swap3\n      swap2\n      pop\n      pop\n      jump\t// out\n        /* \"#utility.yul\":3234:3373   */\n    tag_157:\n        /* \"#utility.yul\":3323:3329   */\n      dup3\n        /* \"#utility.yul\":3318:3321   */\n      dup2\n        /* \"#utility.yul\":3313:3316   */\n      dup4\n        /* \"#utility.yul\":3307:3330   */\n      mcopy\n        /* \"#utility.yul\":3364:3365   */\n      0x00\n        /* \"#utility.yul\":3355:3361   */\n      dup4\n        /* \"#utility.yul\":3350:3353   */\n      dup4\n        /* \"#utility.yul\":3346:3362   */\n      add\n        /* \"#utility.yul\":3339:3366   */\n      mstore\n        /* \"#utility.yul\":3234:3373   */\n      pop\n      pop\n      pop\n      jump\t// out\n        /* \"#utility.yul\":3379:3481   */\n    tag_158:\n        /* \"#utility.yul\":3420:3426   */\n      0x00\n        /* \"#utility.yul\":3471:3473   */\n      0x1f\n        /* \"#utility.yul\":3467:3474   */\n      not\n        /* \"#utility.yul\":3462:3464   */\n      0x1f\n        /* \"#utility.yul\":3455:3460   */\n      dup4\n        /* \"#utility.yul\":3451:3465   */\n      add\n        /* \"#utility.yul\":3447:3475   */\n      and\n        /* \"#utility.yul\":3437:3475   */\n      swap1\n      pop\n        /* \"#utility.yul\":3379:3481   */\n      swap2\n      swap1\n      pop\n      jump\t// out\n        /* \"#utility.yul\":3487:3864   */\n    tag_159:\n        /* \"#utility.yul\":3575:3578   */\n      0x00\n        /* \"#utility.yul\":3603:3642   */\n      tag_248\n        /* \"#utility.yul\":3636:3641   */\n      dup3\n        /* \"#utility.yul\":3603:3642   */\n      tag_155\n      jump\t// in\n    tag_248:\n        /* \"#utility.yul\":3658:3729   */\n      tag_249\n        /* \"#utility.yul\":3722:3728   */\n      dup2\n        /* \"#utility.yul\":3717:3720   */\n      dup6\n        /* \"#utility.yul\":3658:3729   */\n      tag_156\n      jump\t// in\n    tag_249:\n        /* \"#utility.yul\":3651:3729   */\n      swap4\n      pop\n        /* \"#utility.yul\":3738:3803   */\n      tag_250\n        /* \"#utility.yul\":3796:3802   */\n      dup2\n        /* \"#utility.yul\":3791:3794   */\n      dup6\n        /* \"#utility.yul\":3784:3788   */\n      0x20\n        /* \"#utility.yul\":3777:3782   */\n      dup7\n        /* \"#utility.yul\":3773:3789   */\n      add\n        /* \"#utility.yul\":3738:3803   */\n      tag_157\n      jump\t// in\n    tag_250:\n        /* \"#utility.yul\":3828:3857   */\n      tag_251\n        /* \"#utility.yul\":3850:3856   */\n      dup2\n        /* \"#utility.yul\":3828:3857   */\n      tag_158\n      jump\t// in\n    tag_251:\n        /* \"#utility.yul\":3823:3826   */\n      dup5\n        /* \"#utility.yul\":3819:3858   */\n      add\n        /* \"#utility.yul\":3812:3858   */\n      swap2\n      pop\n        /* \"#utility.yul\":3579:3864   */\n      pop\n        /* \"#utility.yul\":3487:3864   */\n      swap3\n      swap2\n      pop\n      pop\n      jump\t// out\n        /* \"#utility.yul\":3870:4514   */\n    tag_51:\n        /* \"#utility.yul\":4067:4071   */\n      0x00\n        /* \"#utility.yul\":4105:4108   */\n      0x80\n        /* \"#utility.yul\":4094:4103   */\n      dup3\n        /* \"#utility.yul\":4090:4109   */\n      add\n        /* \"#utility.yul\":4082:4109   */\n      swap1\n      pop\n        /* \"#utility.yul\":4155:4164   */\n      dup2\n        /* \"#utility.yul\":4149:4153   */\n      dup2\n        /* \"#utility.yul\":4145:4165   */\n      sub\n        /* \"#utility.yul\":4141:4142   */\n      0x00\n        /* \"#utility.yul\":4130:4139   */\n      dup4\n        /* \"#utility.yul\":4126:4143   */\n      add\n        /* \"#utility.yul\":4119:4166   */\n      mstore\n        /* \"#utility.yul\":4183:4261   */\n      tag_253\n        /* \"#utility.yul\":4256:4260   */\n      dup2\n        /* \"#utility.yul\":4247:4253   */\n      dup8\n        /* \"#utility.yul\":4183:4261   */\n      tag_159\n      jump\t// in\n    tag_253:\n        /* \"#utility.yul\":4175:4261   */\n      swap1\n      pop\n        /* \"#utility.yul\":4271:4343   */\n      tag_254\n        /* \"#utility.yul\":4339:4341   */\n      0x20\n        /* \"#utility.yul\":4328:4337   */\n      dup4\n        /* \"#utility.yul\":4324:4342   */\n      add\n        /* \"#utility.yul\":4315:4321   */\n      dup7\n        /* \"#utility.yul\":4271:4343   */\n      tag_144\n      jump\t// in\n    tag_254:\n        /* \"#utility.yul\":4353:4425   */\n      tag_255\n        /* \"#utility.yul\":4421:4423   */\n      0x40\n        /* \"#utility.yul\":4410:4419   */\n      dup4\n        /* \"#utility.yul\":4406:4424   */\n      add\n        /* \"#utility.yul\":4397:4403   */\n      dup6\n        /* \"#utility.yul\":4353:4425   */\n      tag_152\n      jump\t// in\n    tag_255:\n        /* \"#utility.yul\":4435:4507   */\n      tag_256\n        /* \"#utility.yul\":4503:4505   */\n      0x60\n        /* \"#utility.yul\":4492:4501   */\n      dup4\n        /* \"#utility.yul\":4488:4506   */\n      add\n        /* \"#utility.yul\":4479:4485   */\n      dup5\n        /* \"#utility.yul\":4435:4507   */\n      tag_144\n      jump\t// in\n    tag_256:\n        /* \"#utility.yul\":3870:4514   */\n      swap6\n      swap5\n      pop\n      pop\n      pop\n      pop\n      pop\n      jump\t// out\n        /* \"#utility.yul\":4520:4637   */\n    tag_160:\n        /* \"#utility.yul\":4629:4630   */\n      0x00\n        /* \"#utility.yul\":4626:4627   */\n      0x00\n        /* \"#utility.yul\":4619:4631   */\n      revert\n        /* \"#utility.yul\":4643:4760   */\n    tag_161:\n        /* \"#utility.yul\":4752:4753   */\n      0x00\n        /* \"#utility.yul\":4749:4750   */\n      0x00\n        /* \"#utility.yul\":4742:4754   */\n      revert\n        /* \"#utility.yul\":4766:4946   */\n    tag_123:\n        /* \"#utility.yul\":4814:4891   */\n      0x4e487b7100000000000000000000000000000000000000000000000000000000\n        /* \"#utility.yul\":4811:4812   */\n      0x00\n        /* \"#utility.yul\":4804:4892   */\n      mstore\n        /* \"#utility.yul\":4911:4915   */\n      0x41\n        /* \"#utility.yul\":4908:4909   */\n      0x04\n        /* \"#utility.yul\":4901:4916   */\n      mstore\n        /* \"#utility.yul\":4935:4939   */\n      0x24\n        /* \"#utility.yul\":4932:4933   */\n      0x00\n        /* \"#utility.yul\":4925:4940   */\n      revert\n        /* \"#utility.yul\":4952:5233   */\n    tag_162:\n        /* \"#utility.yul\":5035:5062   */\n      tag_261\n        /* \"#utility.yul\":5057:5061   */\n      dup3\n        /* \"#utility.yul\":5035:5062   */\n      tag_158\n      jump\t// in\n    tag_261:\n        /* \"#utility.yul\":5027:5033   */\n      dup2\n        /* \"#utility.yul\":5023:5063   */\n      add\n        /* \"#utility.yul\":5165:5171   */\n      dup2\n        /* \"#utility.yul\":5153:5163   */\n      dup2\n        /* \"#utility.yul\":5150:5172   */\n      lt\n        /* \"#utility.yul\":5129:5147   */\n      0xffffffffffffffff\n        /* \"#utility.yul\":5117:5127   */\n      dup3\n        /* \"#utility.yul\":5114:5148   */\n      gt\n        /* \"#utility.yul\":5111:5173   */\n      or\n        /* \"#utility.yul\":5108:5196   */\n      iszero\n      tag_262\n      jumpi\n        /* \"#utility.yul\":5176:5194   */\n      tag_263\n      tag_123\n      jump\t// in\n    tag_263:\n        /* \"#utility.yul\":5108:5196   */\n    tag_262:\n        /* \"#utility.yul\":5216:5226   */\n      dup1\n        /* \"#utility.yul\":5212:5214   */\n      0x40\n        /* \"#utility.yul\":5205:5227   */\n      mstore\n        /* \"#utility.yul\":4995:5233   */\n      pop\n        /* \"#utility.yul\":4952:5233   */\n      pop\n      pop\n      jump\t// out\n        /* \"#utility.yul\":5239:5368   */\n    tag_163:\n        /* \"#utility.yul\":5273:5279   */\n      0x00\n        /* \"#utility.yul\":5300:5320   */\n      tag_265\n      tag_145\n      jump\t// in\n    tag_265:\n        /* \"#utility.yul\":5290:5320   */\n      swap1\n      pop\n        /* \"#utility.yul\":5329:5362   */\n      tag_266\n        /* \"#utility.yul\":5357:5361   */\n      dup3\n        /* \"#utility.yul\":5349:5355   */\n      dup3\n        /* \"#utility.yul\":5329:5362   */\n      tag_162\n      jump\t// in\n    tag_266:\n        /* \"#utility.yul\":5239:5368   */\n      swap2\n      swap1\n      pop\n      jump\t// out\n        /* \"#utility.yul\":5374:5682   */\n    tag_164:\n        /* \"#utility.yul\":5436:5440   */\n      0x00\n        /* \"#utility.yul\":5526:5544   */\n      0xffffffffffffffff\n        /* \"#utility.yul\":5518:5524   */\n      dup3\n        /* \"#utility.yul\":5515:5545   */\n      gt\n        /* \"#utility.yul\":5512:5568   */\n      iszero\n      tag_268\n      jumpi\n        /* \"#utility.yul\":5548:5566   */\n      tag_269\n      tag_123\n      jump\t// in\n    tag_269:\n        /* \"#utility.yul\":5512:5568   */\n    tag_268:\n        /* \"#utility.yul\":5586:5615   */\n      tag_270\n        /* \"#utility.yul\":5608:5614   */\n      dup3\n        /* \"#utility.yul\":5586:5615   */\n      tag_158\n      jump\t// in\n    tag_270:\n        /* \"#utility.yul\":5578:5615   */\n      swap1\n      pop\n        /* \"#utility.yul\":5670:5674   */\n      0x20\n        /* \"#utility.yul\":5664:5668   */\n      dup2\n        /* \"#utility.yul\":5660:5675   */\n      add\n        /* \"#utility.yul\":5652:5675   */\n      swap1\n      pop\n        /* \"#utility.yul\":5374:5682   */\n      swap2\n      swap1\n      pop\n      jump\t// out\n        /* \"#utility.yul\":5688:5836   */\n    tag_165:\n        /* \"#utility.yul\":5786:5792   */\n      dup3\n        /* \"#utility.yul\":5781:5784   */\n      dup2\n        /* \"#utility.yul\":5776:5779   */\n      dup4\n        /* \"#utility.yul\":5763:5793   */\n      calldatacopy\n        /* \"#utility.yul\":5827:5828   */\n      0x00\n        /* \"#utility.yul\":5818:5824   */\n      dup4\n        /* \"#utility.yul\":5813:5816   */\n      dup4\n        /* \"#utility.yul\":5809:5825   */\n      add\n        /* \"#utility.yul\":5802:5829   */\n      mstore\n        /* \"#utility.yul\":5688:5836   */\n      pop\n      pop\n      pop\n      jump\t// out\n        /* \"#utility.yul\":5842:6267   */\n    tag_166:\n        /* \"#utility.yul\":5920:5925   */\n      0x00\n        /* \"#utility.yul\":5945:6011   */\n      tag_273\n        /* \"#utility.yul\":5961:6010   */\n      tag_274\n        /* \"#utility.yul\":6003:6009   */\n      dup5\n        /* \"#utility.yul\":5961:6010   */\n      tag_164\n      jump\t// in\n    tag_274:\n        /* \"#utility.yul\":5945:6011   */\n      tag_163\n      jump\t// in\n    tag_273:\n        /* \"#utility.yul\":5936:6011   */\n      swap1\n      pop\n        /* \"#utility.yul\":6034:6040   */\n      dup3\n        /* \"#utility.yul\":6027:6032   */\n      dup2\n        /* \"#utility.yul\":6020:6041   */\n      mstore\n        /* \"#utility.yul\":6072:6076   */\n      0x20\n        /* \"#utility.yul\":6065:6070   */\n      dup2\n        /* \"#utility.yul\":6061:6077   */\n      add\n        /* \"#utility.yul\":6110:6113   */\n      dup5\n        /* \"#utility.yul\":6101:6107   */\n      dup5\n        /* \"#utility.yul\":6096:6099   */\n      dup5\n        /* \"#utility.yul\":6092:6108   */\n      add\n        /* \"#utility.yul\":6089:6114   */\n      gt\n        /* \"#utility.yul\":6086:6198   */\n      iszero\n      tag_275\n      jumpi\n        /* \"#utility.yul\":6117:6196   */\n      tag_276\n      tag_161\n      jump\t// in\n    tag_276:\n        /* \"#utility.yul\":6086:6198   */\n    tag_275:\n        /* \"#utility.yul\":6207:6261   */\n      tag_277\n        /* \"#utility.yul\":6254:6260   */\n      dup5\n        /* \"#utility.yul\":6249:6252   */\n      dup3\n        /* \"#utility.yul\":6244:6247   */\n      dup6\n        /* \"#utility.yul\":6207:6261   */\n      tag_165\n      jump\t// in\n    tag_277:\n        /* \"#utility.yul\":5926:6267   */\n      pop\n        /* \"#utility.yul\":5842:6267   */\n      swap4\n      swap3\n      pop\n      pop\n      pop\n      jump\t// out\n        /* \"#utility.yul\":6287:6627   */\n    tag_167:\n        /* \"#utility.yul\":6343:6348   */\n      0x00\n        /* \"#utility.yul\":6392:6395   */\n      dup3\n        /* \"#utility.yul\":6385:6389   */\n      0x1f\n        /* \"#utility.yul\":6377:6383   */\n      dup4\n        /* \"#utility.yul\":6373:6390   */\n      add\n        /* \"#utility.yul\":6369:6396   */\n      slt\n        /* \"#utility.yul\":6359:6481   */\n      tag_279\n      jumpi\n        /* \"#utility.yul\":6400:6479   */\n      tag_280\n      tag_160\n      jump\t// in\n    tag_280:\n        /* \"#utility.yul\":6359:6481   */\n    tag_279:\n        /* \"#utility.yul\":6517:6523   */\n      dup2\n        /* \"#utility.yul\":6504:6524   */\n      calldataload\n        /* \"#utility.yul\":6542:6621   */\n      tag_281\n        /* \"#utility.yul\":6617:6620   */\n      dup5\n        /* \"#utility.yul\":6609:6615   */\n      dup3\n        /* \"#utility.yul\":6602:6606   */\n      0x20\n        /* \"#utility.yul\":6594:6600   */\n      dup7\n        /* \"#utility.yul\":6590:6607   */\n      add\n        /* \"#utility.yul\":6542:6621   */\n      tag_166\n      jump\t// in\n    tag_281:\n        /* \"#utility.yul\":6533:6621   */\n      swap2\n      pop\n        /* \"#utility.yul\":6349:6627   */\n      pop\n        /* \"#utility.yul\":6287:6627   */\n      swap3\n      swap2\n      pop\n      pop\n      jump\t// out\n        /* \"#utility.yul\":6633:7142   */\n    tag_55:\n        /* \"#utility.yul\":6702:6708   */\n      0x00\n        /* \"#utility.yul\":6751:6753   */\n      0x20\n        /* \"#utility.yul\":6739:6748   */\n      dup3\n        /* \"#utility.yul\":6730:6737   */\n      dup5\n        /* \"#utility.yul\":6726:6749   */\n      sub\n        /* \"#utility.yul\":6722:6754   */\n      slt\n        /* \"#utility.yul\":6719:6838   */\n      iszero\n      tag_283\n      jumpi\n        /* \"#utility.yul\":6757:6836   */\n      tag_284\n      tag_146\n      jump\t// in\n    tag_284:\n        /* \"#utility.yul\":6719:6838   */\n    tag_283:\n        /* \"#utility.yul\":6905:6906   */\n      0x00\n        /* \"#utility.yul\":6894:6903   */\n      dup3\n        /* \"#utility.yul\":6890:6907   */\n      add\n        /* \"#utility.yul\":6877:6908   */\n      calldataload\n        /* \"#utility.yul\":6935:6953   */\n      0xffffffffffffffff\n        /* \"#utility.yul\":6927:6933   */\n      dup2\n        /* \"#utility.yul\":6924:6954   */\n      gt\n        /* \"#utility.yul\":6921:7038   */\n      iszero\n      tag_285\n      jumpi\n        /* \"#utility.yul\":6957:7036   */\n      tag_286\n      tag_147\n      jump\t// in\n    tag_286:\n        /* \"#utility.yul\":6921:7038   */\n    tag_285:\n        /* \"#utility.yul\":7062:7125   */\n      tag_287\n        /* \"#utility.yul\":7117:7124   */\n      dup5\n        /* \"#utility.yul\":7108:7114   */\n      dup3\n        /* \"#utility.yul\":7097:7106   */\n      dup6\n        /* \"#utility.yul\":7093:7115   */\n      add\n        /* \"#utility.yul\":7062:7125   */\n      tag_167\n      jump\t// in\n    tag_287:\n        /* \"#utility.yul\":7052:7125   */\n      swap2\n      pop\n        /* \"#utility.yul\":6848:7135   */\n      pop\n        /* \"#utility.yul\":6633:7142   */\n      swap3\n      swap2\n      pop\n      pop\n      jump\t// out\n        /* \"#utility.yul\":7148:7802   */\n    tag_62:\n        /* \"#utility.yul\":7226:7232   */\n      0x00\n        /* \"#utility.yul\":7234:7240   */\n      0x00\n        /* \"#utility.yul\":7283:7285   */\n      0x40\n        /* \"#utility.yul\":7271:7280   */\n      dup4\n        /* \"#utility.yul\":7262:7269   */\n      dup6\n        /* \"#utility.yul\":7258:7281   */\n      sub\n        /* \"#utility.yul\":7254:7286   */\n      slt\n        /* \"#utility.yul\":7251:7370   */\n      iszero\n      tag_289\n      jumpi\n        /* \"#utility.yul\":7289:7368   */\n      tag_290\n      tag_146\n      jump\t// in\n    tag_290:\n        /* \"#utility.yul\":7251:7370   */\n    tag_289:\n        /* \"#utility.yul\":7437:7438   */\n      0x00\n        /* \"#utility.yul\":7426:7435   */\n      dup4\n        /* \"#utility.yul\":7422:7439   */\n      add\n        /* \"#utility.yul\":7409:7440   */\n      calldataload\n        /* \"#utility.yul\":7467:7485   */\n      0xffffffffffffffff\n        /* \"#utility.yul\":7459:7465   */\n      dup2\n        /* \"#utility.yul\":7456:7486   */\n      gt\n        /* \"#utility.yul\":7453:7570   */\n      iszero\n      tag_291\n      jumpi\n        /* \"#utility.yul\":7489:7568   */\n      tag_292\n      tag_147\n      jump\t// in\n    tag_292:\n        /* \"#utility.yul\":7453:7570   */\n    tag_291:\n        /* \"#utility.yul\":7594:7657   */\n      tag_293\n        /* \"#utility.yul\":7649:7656   */\n      dup6\n        /* \"#utility.yul\":7640:7646   */\n      dup3\n        /* \"#utility.yul\":7629:7638   */\n      dup7\n        /* \"#utility.yul\":7625:7647   */\n      add\n        /* \"#utility.yul\":7594:7657   */\n      tag_167\n      jump\t// in\n    tag_293:\n        /* \"#utility.yul\":7584:7657   */\n      swap3\n      pop\n        /* \"#utility.yul\":7380:7667   */\n      pop\n        /* \"#utility.yul\":7706:7708   */\n      0x20\n        /* \"#utility.yul\":7732:7785   */\n      tag_294\n        /* \"#utility.yul\":7777:7784   */\n      dup6\n        /* \"#utility.yul\":7768:7774   */\n      dup3\n        /* \"#utility.yul\":7757:7766   */\n      dup7\n        /* \"#utility.yul\":7753:7775   */\n      add\n        /* \"#utility.yul\":7732:7785   */\n      tag_149\n      jump\t// in\n    tag_294:\n        /* \"#utility.yul\":7722:7785   */\n      swap2\n      pop\n        /* \"#utility.yul\":7677:7795   */\n      pop\n        /* \"#utility.yul\":7148:7802   */\n      swap3\n      pop\n      swap3\n      swap1\n      pop\n      jump\t// out\n        /* \"#utility.yul\":7808:7942   */\n    tag_168:\n        /* \"#utility.yul\":7895:7901   */\n      0x00\n        /* \"#utility.yul\":7929:7934   */\n      dup2\n        /* \"#utility.yul\":7923:7935   */\n      mload\n        /* \"#utility.yul\":7913:7935   */\n      swap1\n      pop\n        /* \"#utility.yul\":7808:7942   */\n      swap2\n      swap1\n      pop\n      jump\t// out\n        /* \"#utility.yul\":7948:8152   */\n    tag_169:\n        /* \"#utility.yul\":8067:8078   */\n      0x00\n        /* \"#utility.yul\":8101:8107   */\n      dup3\n        /* \"#utility.yul\":8096:8099   */\n      dup3\n        /* \"#utility.yul\":8089:8108   */\n      mstore\n        /* \"#utility.yul\":8141:8145   */\n      0x20\n        /* \"#utility.yul\":8136:8139   */\n      dup3\n        /* \"#utility.yul\":8132:8146   */\n      add\n        /* \"#utility.yul\":8117:8146   */\n      swap1\n      pop\n        /* \"#utility.yul\":7948:8152   */\n      swap3\n      swap2\n      pop\n      pop\n      jump\t// out\n        /* \"#utility.yul\":8158:8310   */\n    tag_170:\n        /* \"#utility.yul\":8245:8249   */\n      0x00\n        /* \"#utility.yul\":8268:8271   */\n      dup2\n        /* \"#utility.yul\":8260:8271   */\n      swap1\n      pop\n        /* \"#utility.yul\":8298:8302   */\n      0x20\n        /* \"#utility.yul\":8293:8296   */\n      dup3\n        /* \"#utility.yul\":8289:8303   */\n      add\n        /* \"#utility.yul\":8281:8303   */\n      swap1\n      pop\n        /* \"#utility.yul\":8158:8310   */\n      swap2\n      swap1\n      pop\n      jump\t// out\n        /* \"#utility.yul\":8316:8475   */\n    tag_171:\n        /* \"#utility.yul\":8390:8401   */\n      0x00\n        /* \"#utility.yul\":8424:8430   */\n      dup3\n        /* \"#utility.yul\":8419:8422   */\n      dup3\n        /* \"#utility.yul\":8412:8431   */\n      mstore\n        /* \"#utility.yul\":8464:8468   */\n      0x20\n        /* \"#utility.yul\":8459:8462   */\n      dup3\n        /* \"#utility.yul\":8455:8469   */\n      add\n        /* \"#utility.yul\":8440:8469   */\n      swap1\n      pop\n        /* \"#utility.yul\":8316:8475   */\n      swap3\n      swap2\n      pop\n      pop\n      jump\t// out\n        /* \"#utility.yul\":8481:8838   */\n    tag_172:\n        /* \"#utility.yul\":8559:8562   */\n      0x00\n        /* \"#utility.yul\":8587:8626   */\n      tag_300\n        /* \"#utility.yul\":8620:8625   */\n      dup3\n        /* \"#utility.yul\":8587:8626   */\n      tag_155\n      jump\t// in\n    tag_300:\n        /* \"#utility.yul\":8642:8703   */\n      tag_301\n        /* \"#utility.yul\":8696:8702   */\n      dup2\n        /* \"#utility.yul\":8691:8694   */\n      dup6\n        /* \"#utility.yul\":8642:8703   */\n      tag_171\n      jump\t// in\n    tag_301:\n        /* \"#utility.yul\":8635:8703   */\n      swap4\n      pop\n        /* \"#utility.yul\":8712:8777   */\n      tag_302\n        /* \"#utility.yul\":8770:8776   */\n      dup2\n        /* \"#utility.yul\":8765:8768   */\n      dup6\n        /* \"#utility.yul\":8758:8762   */\n      0x20\n        /* \"#utility.yul\":8751:8756   */\n      dup7\n        /* \"#utility.yul\":8747:8763   */\n      add\n        /* \"#utility.yul\":8712:8777   */\n      tag_157\n      jump\t// in\n    tag_302:\n        /* \"#utility.yul\":8802:8831   */\n      tag_303\n        /* \"#utility.yul\":8824:8830   */\n      dup2\n        /* \"#utility.yul\":8802:8831   */\n      tag_158\n      jump\t// in\n    tag_303:\n        /* \"#utility.yul\":8797:8800   */\n      dup5\n        /* \"#utility.yul\":8793:8832   */\n      add\n        /* \"#utility.yul\":8786:8832   */\n      swap2\n      pop\n        /* \"#utility.yul\":8563:8838   */\n      pop\n        /* \"#utility.yul\":8481:8838   */\n      swap3\n      swap2\n      pop\n      pop\n      jump\t// out\n        /* \"#utility.yul\":8844:8952   */\n    tag_173:\n        /* \"#utility.yul\":8921:8945   */\n      tag_305\n        /* \"#utility.yul\":8939:8944   */\n      dup2\n        /* \"#utility.yul\":8921:8945   */\n      tag_142\n      jump\t// in\n    tag_305:\n        /* \"#utility.yul\":8916:8919   */\n      dup3\n        /* \"#utility.yul\":8909:8946   */\n      mstore\n        /* \"#utility.yul\":8844:8952   */\n      pop\n      pop\n      jump\t// out\n        /* \"#utility.yul\":8958:9066   */\n    tag_174:\n        /* \"#utility.yul\":9035:9059   */\n      tag_307\n        /* \"#utility.yul\":9053:9058   */\n      dup2\n        /* \"#utility.yul\":9035:9059   */\n      tag_151\n      jump\t// in\n    tag_307:\n        /* \"#utility.yul\":9030:9033   */\n      dup3\n        /* \"#utility.yul\":9023:9060   */\n      mstore\n        /* \"#utility.yul\":8958:9066   */\n      pop\n      pop\n      jump\t// out\n        /* \"#utility.yul\":9132:10070   */\n    tag_175:\n        /* \"#utility.yul\":9231:9234   */\n      0x00\n        /* \"#utility.yul\":9267:9271   */\n      0x80\n        /* \"#utility.yul\":9262:9265   */\n      dup4\n        /* \"#utility.yul\":9258:9272   */\n      add\n        /* \"#utility.yul\":9354:9358   */\n      0x00\n        /* \"#utility.yul\":9347:9352   */\n      dup4\n        /* \"#utility.yul\":9343:9359   */\n      add\n        /* \"#utility.yul\":9337:9360   */\n      mload\n        /* \"#utility.yul\":9407:9410   */\n      dup5\n        /* \"#utility.yul\":9401:9405   */\n      dup3\n        /* \"#utility.yul\":9397:9411   */\n      sub\n        /* \"#utility.yul\":9390:9394   */\n      0x00\n        /* \"#utility.yul\":9385:9388   */\n      dup7\n        /* \"#utility.yul\":9381:9395   */\n      add\n        /* \"#utility.yul\":9374:9412   */\n      mstore\n        /* \"#utility.yul\":9433:9506   */\n      tag_309\n        /* \"#utility.yul\":9501:9505   */\n      dup3\n        /* \"#utility.yul\":9487:9499   */\n      dup3\n        /* \"#utility.yul\":9433:9506   */\n      tag_172\n      jump\t// in\n    tag_309:\n        /* \"#utility.yul\":9425:9506   */\n      swap2\n      pop\n        /* \"#utility.yul\":9282:9517   */\n      pop\n        /* \"#utility.yul\":9598:9602   */\n      0x20\n        /* \"#utility.yul\":9591:9596   */\n      dup4\n        /* \"#utility.yul\":9587:9603   */\n      add\n        /* \"#utility.yul\":9581:9604   */\n      mload\n        /* \"#utility.yul\":9617:9680   */\n      tag_310\n        /* \"#utility.yul\":9674:9678   */\n      0x20\n        /* \"#utility.yul\":9669:9672   */\n      dup7\n        /* \"#utility.yul\":9665:9679   */\n      add\n        /* \"#utility.yul\":9651:9663   */\n      dup3\n        /* \"#utility.yul\":9617:9680   */\n      tag_173\n      jump\t// in\n    tag_310:\n        /* \"#utility.yul\":9527:9690   */\n      pop\n        /* \"#utility.yul\":9774:9778   */\n      0x40\n        /* \"#utility.yul\":9767:9772   */\n      dup4\n        /* \"#utility.yul\":9763:9779   */\n      add\n        /* \"#utility.yul\":9757:9780   */\n      mload\n        /* \"#utility.yul\":9793:9856   */\n      tag_311\n        /* \"#utility.yul\":9850:9854   */\n      0x40\n        /* \"#utility.yul\":9845:9848   */\n      dup7\n        /* \"#utility.yul\":9841:9855   */\n      add\n        /* \"#utility.yul\":9827:9839   */\n      dup3\n        /* \"#utility.yul\":9793:9856   */\n      tag_174\n      jump\t// in\n    tag_311:\n        /* \"#utility.yul\":9700:9866   */\n      pop\n        /* \"#utility.yul\":9951:9955   */\n      0x60\n        /* \"#utility.yul\":9944:9949   */\n      dup4\n        /* \"#utility.yul\":9940:9956   */\n      add\n        /* \"#utility.yul\":9934:9957   */\n      mload\n        /* \"#utility.yul\":9970:10033   */\n      tag_312\n        /* \"#utility.yul\":10027:10031   */\n      0x60\n        /* \"#utility.yul\":10022:10025   */\n      dup7\n        /* \"#utility.yul\":10018:10032   */\n      add\n        /* \"#utility.yul\":10004:10016   */\n      dup3\n        /* \"#utility.yul\":9970:10033   */\n      tag_173\n      jump\t// in\n    tag_312:\n        /* \"#utility.yul\":9876:10043   */\n      pop\n        /* \"#utility.yul\":10060:10064   */\n      dup1\n        /* \"#utility.yul\":10053:10064   */\n      swap2\n      pop\n        /* \"#utility.yul\":9236:10070   */\n      pop\n        /* \"#utility.yul\":9132:10070   */\n      swap3\n      swap2\n      pop\n      pop\n      jump\t// out\n        /* \"#utility.yul\":10076:10312   */\n    tag_176:\n        /* \"#utility.yul\":10185:10195   */\n      0x00\n        /* \"#utility.yul\":10220:10306   */\n      tag_314\n        /* \"#utility.yul\":10302:10305   */\n      dup4\n        /* \"#utility.yul\":10294:10300   */\n      dup4\n        /* \"#utility.yul\":10220:10306   */\n      tag_175\n      jump\t// in\n    tag_314:\n        /* \"#utility.yul\":10206:10306   */\n      swap1\n      pop\n        /* \"#utility.yul\":10076:10312   */\n      swap3\n      swap2\n      pop\n      pop\n      jump\t// out\n        /* \"#utility.yul\":10318:10451   */\n    tag_177:\n        /* \"#utility.yul\":10408:10412   */\n      0x00\n        /* \"#utility.yul\":10440:10444   */\n      0x20\n        /* \"#utility.yul\":10435:10438   */\n      dup3\n        /* \"#utility.yul\":10431:10445   */\n      add\n        /* \"#utility.yul\":10423:10445   */\n      swap1\n      pop\n        /* \"#utility.yul\":10318:10451   */\n      swap2\n      swap1\n      pop\n      jump\t// out\n        /* \"#utility.yul\":10521:11592   */\n    tag_178:\n        /* \"#utility.yul\":10680:10683   */\n      0x00\n        /* \"#utility.yul\":10709:10783   */\n      tag_317\n        /* \"#utility.yul\":10777:10782   */\n      dup3\n        /* \"#utility.yul\":10709:10783   */\n      tag_168\n      jump\t// in\n    tag_317:\n        /* \"#utility.yul\":10799:10905   */\n      tag_318\n        /* \"#utility.yul\":10898:10904   */\n      dup2\n        /* \"#utility.yul\":10893:10896   */\n      dup6\n        /* \"#utility.yul\":10799:10905   */\n      tag_169\n      jump\t// in\n    tag_318:\n        /* \"#utility.yul\":10792:10905   */\n      swap4\n      pop\n        /* \"#utility.yul\":10931:10934   */\n      dup4\n        /* \"#utility.yul\":10976:10980   */\n      0x20\n        /* \"#utility.yul\":10968:10974   */\n      dup3\n        /* \"#utility.yul\":10964:10981   */\n      mul\n        /* \"#utility.yul\":10959:10962   */\n      dup6\n        /* \"#utility.yul\":10955:10982   */\n      add\n        /* \"#utility.yul\":11006:11082   */\n      tag_319\n        /* \"#utility.yul\":11076:11081   */\n      dup6\n        /* \"#utility.yul\":11006:11082   */\n      tag_170\n      jump\t// in\n    tag_319:\n        /* \"#utility.yul\":11105:11112   */\n      dup1\n        /* \"#utility.yul\":11136:11137   */\n      0x00\n        /* \"#utility.yul\":11121:11547   */\n    tag_320:\n        /* \"#utility.yul\":11146:11152   */\n      dup6\n        /* \"#utility.yul\":11143:11144   */\n      dup2\n        /* \"#utility.yul\":11140:11153   */\n      lt\n        /* \"#utility.yul\":11121:11547   */\n      iszero\n      tag_322\n      jumpi\n        /* \"#utility.yul\":11217:11226   */\n      dup5\n        /* \"#utility.yul\":11211:11215   */\n      dup5\n        /* \"#utility.yul\":11207:11227   */\n      sub\n        /* \"#utility.yul\":11202:11205   */\n      dup10\n        /* \"#utility.yul\":11195:11228   */\n      mstore\n        /* \"#utility.yul\":11268:11274   */\n      dup2\n        /* \"#utility.yul\":11262:11275   */\n      mload\n        /* \"#utility.yul\":11296:11400   */\n      tag_323\n        /* \"#utility.yul\":11395:11399   */\n      dup6\n        /* \"#utility.yul\":11380:11393   */\n      dup3\n        /* \"#utility.yul\":11296:11400   */\n      tag_176\n      jump\t// in\n    tag_323:\n        /* \"#utility.yul\":11288:11400   */\n      swap5\n      pop\n        /* \"#utility.yul\":11423:11503   */\n      tag_324\n        /* \"#utility.yul\":11496:11502   */\n      dup4\n        /* \"#utility.yul\":11423:11503   */\n      tag_177\n      jump\t// in\n    tag_324:\n        /* \"#utility.yul\":11413:11503   */\n      swap3\n      pop\n        /* \"#utility.yul\":11532:11536   */\n      0x20\n        /* \"#utility.yul\":11527:11530   */\n      dup11\n        /* \"#utility.yul\":11523:11537   */\n      add\n        /* \"#utility.yul\":11516:11537   */\n      swap10\n      pop\n        /* \"#utility.yul\":11181:11547   */\n      pop\n        /* \"#utility.yul\":11168:11169   */\n      0x01\n        /* \"#utility.yul\":11165:11166   */\n      dup2\n        /* \"#utility.yul\":11161:11170   */\n      add\n        /* \"#utility.yul\":11156:11170   */\n      swap1\n      pop\n        /* \"#utility.yul\":11121:11547   */\n      jump(tag_320)\n    tag_322:\n        /* \"#utility.yul\":11125:11139   */\n      pop\n        /* \"#utility.yul\":11563:11567   */\n      dup3\n        /* \"#utility.yul\":11556:11567   */\n      swap8\n      pop\n        /* \"#utility.yul\":11583:11586   */\n      dup8\n        /* \"#utility.yul\":11576:11586   */\n      swap6\n      pop\n        /* \"#utility.yul\":10685:11592   */\n      pop\n      pop\n      pop\n      pop\n      pop\n        /* \"#utility.yul\":10521:11592   */\n      swap3\n      swap2\n      pop\n      pop\n      jump\t// out\n        /* \"#utility.yul\":11598:12051   */\n    tag_68:\n        /* \"#utility.yul\":11781:11785   */\n      0x00\n        /* \"#utility.yul\":11819:11821   */\n      0x20\n        /* \"#utility.yul\":11808:11817   */\n      dup3\n        /* \"#utility.yul\":11804:11822   */\n      add\n        /* \"#utility.yul\":11796:11822   */\n      swap1\n      pop\n        /* \"#utility.yul\":11868:11877   */\n      dup2\n        /* \"#utility.yul\":11862:11866   */\n      dup2\n        /* \"#utility.yul\":11858:11878   */\n      sub\n        /* \"#utility.yul\":11854:11855   */\n      0x00\n        /* \"#utility.yul\":11843:11852   */\n      dup4\n        /* \"#utility.yul\":11839:11856   */\n      add\n        /* \"#utility.yul\":11832:11879   */\n      mstore\n        /* \"#utility.yul\":11896:12044   */\n      tag_326\n        /* \"#utility.yul\":12039:12043   */\n      dup2\n        /* \"#utility.yul\":12030:12036   */\n      dup5\n        /* \"#utility.yul\":11896:12044   */\n      tag_178\n      jump\t// in\n    tag_326:\n        /* \"#utility.yul\":11888:12044   */\n      swap1\n      pop\n        /* \"#utility.yul\":11598:12051   */\n      swap3\n      swap2\n      pop\n      pop\n      jump\t// out\n        /* \"#utility.yul\":12057:12226   */\n    tag_179:\n        /* \"#utility.yul\":12197:12218   */\n      0x5573657220646f6573206e6f7420657869737400000000000000000000000000\n        /* \"#utility.yul\":12193:12194   */\n      0x00\n        /* \"#utility.yul\":12185:12191   */\n      dup3\n        /* \"#utility.yul\":12181:12195   */\n      add\n        /* \"#utility.yul\":12174:12219   */\n      mstore\n        /* \"#utility.yul\":12057:12226   */\n      pop\n      jump\t// out\n        /* \"#utility.yul\":12232:12598   */\n    tag_180:\n        /* \"#utility.yul\":12374:12377   */\n      0x00\n        /* \"#utility.yul\":12395:12462   */\n      tag_329\n        /* \"#utility.yul\":12459:12461   */\n      0x13\n        /* \"#utility.yul\":12454:12457   */\n      dup4\n        /* \"#utility.yul\":12395:12462   */\n      tag_156\n      jump\t// in\n    tag_329:\n        /* \"#utility.yul\":12388:12462   */\n      swap2\n      pop\n        /* \"#utility.yul\":12471:12564   */\n      tag_330\n        /* \"#utility.yul\":12560:12563   */\n      dup3\n        /* \"#utility.yul\":12471:12564   */\n      tag_179\n      jump\t// in\n    tag_330:\n        /* \"#utility.yul\":12589:12591   */\n      0x20\n        /* \"#utility.yul\":12584:12587   */\n      dup3\n        /* \"#utility.yul\":12580:12592   */\n      add\n        /* \"#utility.yul\":12573:12592   */\n      swap1\n      pop\n        /* \"#utility.yul\":12232:12598   */\n      swap2\n      swap1\n      pop\n      jump\t// out\n        /* \"#utility.yul\":12604:13023   */\n    tag_75:\n        /* \"#utility.yul\":12770:12774   */\n      0x00\n        /* \"#utility.yul\":12808:12810   */\n      0x20\n        /* \"#utility.yul\":12797:12806   */\n      dup3\n        /* \"#utility.yul\":12793:12811   */\n      add\n        /* \"#utility.yul\":12785:12811   */\n      swap1\n      pop\n        /* \"#utility.yul\":12857:12866   */\n      dup2\n        /* \"#utility.yul\":12851:12855   */\n      dup2\n        /* \"#utility.yul\":12847:12867   */\n      sub\n        /* \"#utility.yul\":12843:12844   */\n      0x00\n        /* \"#utility.yul\":12832:12841   */\n      dup4\n        /* \"#utility.yul\":12828:12845   */\n      add\n        /* \"#utility.yul\":12821:12868   */\n      mstore\n        /* \"#utility.yul\":12885:13016   */\n      tag_332\n        /* \"#utility.yul\":13011:13015   */\n      dup2\n        /* \"#utility.yul\":12885:13016   */\n      tag_180\n      jump\t// in\n    tag_332:\n        /* \"#utility.yul\":12877:13016   */\n      swap1\n      pop\n        /* \"#utility.yul\":12604:13023   */\n      swap2\n      swap1\n      pop\n      jump\t// out\n        /* \"#utility.yul\":13029:13188   */\n    tag_181:\n        /* \"#utility.yul\":13169:13180   */\n      0x4e6f74206f776e65720000000000000000000000000000000000000000000000\n        /* \"#utility.yul\":13165:13166   */\n      0x00\n        /* \"#utility.yul\":13157:13163   */\n      dup3\n        /* \"#utility.yul\":13153:13167   */\n      add\n        /* \"#utility.yul\":13146:13181   */\n      mstore\n        /* \"#utility.yul\":13029:13188   */\n      pop\n      jump\t// out\n        /* \"#utility.yul\":13194:13559   */\n    tag_182:\n        /* \"#utility.yul\":13336:13339   */\n      0x00\n        /* \"#utility.yul\":13357:13423   */\n      tag_335\n        /* \"#utility.yul\":13421:13422   */\n      0x09\n        /* \"#utility.yul\":13416:13419   */\n      dup4\n        /* \"#utility.yul\":13357:13423   */\n      tag_156\n      jump\t// in\n    tag_335:\n        /* \"#utility.yul\":13350:13423   */\n      swap2\n      pop\n        /* \"#utility.yul\":13432:13525   */\n      tag_336\n        /* \"#utility.yul\":13521:13524   */\n      dup3\n        /* \"#utility.yul\":13432:13525   */\n      tag_181\n      jump\t// in\n    tag_336:\n        /* \"#utility.yul\":13550:13552   */\n      0x20\n        /* \"#utility.yul\":13545:13548   */\n      dup3\n        /* \"#utility.yul\":13541:13553   */\n      add\n        /* \"#utility.yul\":13534:13553   */\n      swap1\n      pop\n        /* \"#utility.yul\":13194:13559   */\n      swap2\n      swap1\n      pop\n      jump\t// out\n        /* \"#utility.yul\":13565:13984   */\n    tag_79:\n        /* \"#utility.yul\":13731:13735   */\n      0x00\n        /* \"#utility.yul\":13769:13771   */\n      0x20\n        /* \"#utility.yul\":13758:13767   */\n      dup3\n        /* \"#utility.yul\":13754:13772   */\n      add\n        /* \"#utility.yul\":13746:13772   */\n      swap1\n      pop\n        /* \"#utility.yul\":13818:13827   */\n      dup2\n        /* \"#utility.yul\":13812:13816   */\n      dup2\n        /* \"#utility.yul\":13808:13828   */\n      sub\n        /* \"#utility.yul\":13804:13805   */\n      0x00\n        /* \"#utility.yul\":13793:13802   */\n      dup4\n        /* \"#utility.yul\":13789:13806   */\n      add\n        /* \"#utility.yul\":13782:13829   */\n      mstore\n        /* \"#utility.yul\":13846:13977   */\n      tag_338\n        /* \"#utility.yul\":13972:13976   */\n      dup2\n        /* \"#utility.yul\":13846:13977   */\n      tag_182\n      jump\t// in\n    tag_338:\n        /* \"#utility.yul\":13838:13977   */\n      swap1\n      pop\n        /* \"#utility.yul\":13565:13984   */\n      swap2\n      swap1\n      pop\n      jump\t// out\n        /* \"#utility.yul\":13990:14165   */\n    tag_183:\n        /* \"#utility.yul\":14130:14157   */\n      0x496e73756666696369656e7420757365722062616c616e636500000000000000\n        /* \"#utility.yul\":14126:14127   */\n      0x00\n        /* \"#utility.yul\":14118:14124   */\n      dup3\n        /* \"#utility.yul\":14114:14128   */\n      add\n        /* \"#utility.yul\":14107:14158   */\n      mstore\n        /* \"#utility.yul\":13990:14165   */\n      pop\n      jump\t// out\n        /* \"#utility.yul\":14171:14537   */\n    tag_184:\n        /* \"#utility.yul\":14313:14316   */\n      0x00\n        /* \"#utility.yul\":14334:14401   */\n      tag_341\n        /* \"#utility.yul\":14398:14400   */\n      0x19\n        /* \"#utility.yul\":14393:14396   */\n      dup4\n        /* \"#utility.yul\":14334:14401   */\n      tag_156\n      jump\t// in\n    tag_341:\n        /* \"#utility.yul\":14327:14401   */\n      swap2\n      pop\n        /* \"#utility.yul\":14410:14503   */\n      tag_342\n        /* \"#utility.yul\":14499:14502   */\n      dup3\n        /* \"#utility.yul\":14410:14503   */\n      tag_183\n      jump\t// in\n    tag_342:\n        /* \"#utility.yul\":14528:14530   */\n      0x20\n        /* \"#utility.yul\":14523:14526   */\n      dup3\n        /* \"#utility.yul\":14519:14531   */\n      add\n        /* \"#utility.yul\":14512:14531   */\n      swap1\n      pop\n        /* \"#utility.yul\":14171:14537   */\n      swap2\n      swap1\n      pop\n      jump\t// out\n        /* \"#utility.yul\":14543:14962   */\n    tag_82:\n        /* \"#utility.yul\":14709:14713   */\n      0x00\n        /* \"#utility.yul\":14747:14749   */\n      0x20\n        /* \"#utility.yul\":14736:14745   */\n      dup3\n        /* \"#utility.yul\":14732:14750   */\n      add\n        /* \"#utility.yul\":14724:14750   */\n      swap1\n      pop\n        /* \"#utility.yul\":14796:14805   */\n      dup2\n        /* \"#utility.yul\":14790:14794   */\n      dup2\n        /* \"#utility.yul\":14786:14806   */\n      sub\n        /* \"#utility.yul\":14782:14783   */\n      0x00\n        /* \"#utility.yul\":14771:14780   */\n      dup4\n        /* \"#utility.yul\":14767:14784   */\n      add\n        /* \"#utility.yul\":14760:14807   */\n      mstore\n        /* \"#utility.yul\":14824:14955   */\n      tag_344\n        /* \"#utility.yul\":14950:14954   */\n      dup2\n        /* \"#utility.yul\":14824:14955   */\n      tag_184\n      jump\t// in\n    tag_344:\n        /* \"#utility.yul\":14816:14955   */\n      swap1\n      pop\n        /* \"#utility.yul\":14543:14962   */\n      swap2\n      swap1\n      pop\n      jump\t// out\n        /* \"#utility.yul\":14968:15162   */\n    tag_84:\n        /* \"#utility.yul\":15008:15012   */\n      0x00\n        /* \"#utility.yul\":15028:15048   */\n      tag_346\n        /* \"#utility.yul\":15046:15047   */\n      dup3\n        /* \"#utility.yul\":15028:15048   */\n      tag_142\n      jump\t// in\n    tag_346:\n        /* \"#utility.yul\":15023:15048   */\n      swap2\n      pop\n        /* \"#utility.yul\":15062:15082   */\n      tag_347\n        /* \"#utility.yul\":15080:15081   */\n      dup4\n        /* \"#utility.yul\":15062:15082   */\n      tag_142\n      jump\t// in\n    tag_347:\n        /* \"#utility.yul\":15057:15082   */\n      swap3\n      pop\n        /* \"#utility.yul\":15106:15107   */\n      dup3\n        /* \"#utility.yul\":15103:15104   */\n      dup3\n        /* \"#utility.yul\":15099:15108   */\n      sub\n        /* \"#utility.yul\":15091:15108   */\n      swap1\n      pop\n        /* \"#utility.yul\":15130:15131   */\n      dup2\n        /* \"#utility.yul\":15124:15128   */\n      dup2\n        /* \"#utility.yul\":15121:15132   */\n      gt\n        /* \"#utility.yul\":15118:15155   */\n      iszero\n      tag_348\n      jumpi\n        /* \"#utility.yul\":15135:15153   */\n      tag_349\n      tag_143\n      jump\t// in\n    tag_349:\n        /* \"#utility.yul\":15118:15155   */\n    tag_348:\n        /* \"#utility.yul\":14968:15162   */\n      swap3\n      swap2\n      pop\n      pop\n      jump\t// out\n        /* \"#utility.yul\":15168:15348   */\n    tag_185:\n        /* \"#utility.yul\":15216:15293   */\n      0x4e487b7100000000000000000000000000000000000000000000000000000000\n        /* \"#utility.yul\":15213:15214   */\n      0x00\n        /* \"#utility.yul\":15206:15294   */\n      mstore\n        /* \"#utility.yul\":15313:15317   */\n      0x22\n        /* \"#utility.yul\":15310:15311   */\n      0x04\n        /* \"#utility.yul\":15303:15318   */\n      mstore\n        /* \"#utility.yul\":15337:15341   */\n      0x24\n        /* \"#utility.yul\":15334:15335   */\n      0x00\n        /* \"#utility.yul\":15327:15342   */\n      revert\n        /* \"#utility.yul\":15354:15674   */\n    tag_92:\n        /* \"#utility.yul\":15398:15404   */\n      0x00\n        /* \"#utility.yul\":15435:15436   */\n      0x02\n        /* \"#utility.yul\":15429:15433   */\n      dup3\n        /* \"#utility.yul\":15425:15437   */\n      div\n        /* \"#utility.yul\":15415:15437   */\n      swap1\n      pop\n        /* \"#utility.yul\":15482:15483   */\n      0x01\n        /* \"#utility.yul\":15476:15480   */\n      dup3\n        /* \"#utility.yul\":15472:15484   */\n      and\n        /* \"#utility.yul\":15503:15521   */\n      dup1\n        /* \"#utility.yul\":15493:15574   */\n      tag_352\n      jumpi\n        /* \"#utility.yul\":15559:15563   */\n      0x7f\n        /* \"#utility.yul\":15551:15557   */\n      dup3\n        /* \"#utility.yul\":15547:15564   */\n      and\n        /* \"#utility.yul\":15537:15564   */\n      swap2\n      pop\n        /* \"#utility.yul\":15493:15574   */\n    tag_352:\n        /* \"#utility.yul\":15621:15623   */\n      0x20\n        /* \"#utility.yul\":15613:15619   */\n      dup3\n        /* \"#utility.yul\":15610:15624   */\n      lt\n        /* \"#utility.yul\":15590:15608   */\n      dup2\n        /* \"#utility.yul\":15587:15625   */\n      sub\n        /* \"#utility.yul\":15584:15668   */\n      tag_353\n      jumpi\n        /* \"#utility.yul\":15640:15658   */\n      tag_354\n      tag_185\n      jump\t// in\n    tag_354:\n        /* \"#utility.yul\":15584:15668   */\n    tag_353:\n        /* \"#utility.yul\":15405:15674   */\n      pop\n        /* \"#utility.yul\":15354:15674   */\n      swap2\n      swap1\n      pop\n      jump\t// out\n        /* \"#utility.yul\":15680:15821   */\n    tag_186:\n        /* \"#utility.yul\":15729:15733   */\n      0x00\n        /* \"#utility.yul\":15752:15755   */\n      dup2\n        /* \"#utility.yul\":15744:15755   */\n      swap1\n      pop\n        /* \"#utility.yul\":15775:15778   */\n      dup2\n        /* \"#utility.yul\":15772:15773   */\n      0x00\n        /* \"#utility.yul\":15765:15779   */\n      mstore\n        /* \"#utility.yul\":15809:15813   */\n      0x20\n        /* \"#utility.yul\":15806:15807   */\n      0x00\n        /* \"#utility.yul\":15796:15814   */\n      keccak256\n        /* \"#utility.yul\":15788:15814   */\n      swap1\n      pop\n        /* \"#utility.yul\":15680:15821   */\n      swap2\n      swap1\n      pop\n      jump\t// out\n        /* \"#utility.yul\":15827:15920   */\n    tag_187:\n        /* \"#utility.yul\":15864:15870   */\n      0x00\n        /* \"#utility.yul\":15911:15913   */\n      0x20\n        /* \"#utility.yul\":15906:15908   */\n      0x1f\n        /* \"#utility.yul\":15899:15904   */\n      dup4\n        /* \"#utility.yul\":15895:15909   */\n      add\n        /* \"#utility.yul\":15891:15914   */\n      div\n        /* \"#utility.yul\":15881:15914   */\n      swap1\n      pop\n        /* \"#utility.yul\":15827:15920   */\n      swap2\n      swap1\n      pop\n      jump\t// out\n        /* \"#utility.yul\":15926:16033   */\n    tag_188:\n        /* \"#utility.yul\":15970:15978   */\n      0x00\n        /* \"#utility.yul\":16020:16025   */\n      dup3\n        /* \"#utility.yul\":16014:16018   */\n      dup3\n        /* \"#utility.yul\":16010:16026   */\n      shl\n        /* \"#utility.yul\":15989:16026   */\n      swap1\n      pop\n        /* \"#utility.yul\":15926:16033   */\n      swap3\n      swap2\n      pop\n      pop\n      jump\t// out\n        /* \"#utility.yul\":16039:16432   */\n    tag_189:\n        /* \"#utility.yul\":16108:16114   */\n      0x00\n        /* \"#utility.yul\":16158:16159   */\n      0x08\n        /* \"#utility.yul\":16146:16156   */\n      dup4\n        /* \"#utility.yul\":16142:16160   */\n      mul\n        /* \"#utility.yul\":16181:16278   */\n      tag_359\n        /* \"#utility.yul\":16211:16277   */\n      0xffffffffffffffffffffffffffffffffffffffffffffffffffffffffffffffff\n        /* \"#utility.yul\":16200:16209   */\n      dup3\n        /* \"#utility.yul\":16181:16278   */\n      tag_188\n      jump\t// in\n    tag_359:\n        /* \"#utility.yul\":16299:16338   */\n      tag_360\n        /* \"#utility.yul\":16329:16337   */\n      dup7\n        /* \"#utility.yul\":16318:16327   */\n      dup4\n        /* \"#utility.yul\":16299:16338   */\n      tag_188\n      jump\t// in\n    tag_360:\n        /* \"#utility.yul\":16287:16338   */\n      swap6\n      pop\n        /* \"#utility.yul\":16371:16375   */\n      dup1\n        /* \"#utility.yul\":16367:16376   */\n      not\n        /* \"#utility.yul\":16360:16365   */\n      dup5\n        /* \"#utility.yul\":16356:16377   */\n      and\n        /* \"#utility.yul\":16347:16377   */\n      swap4\n      pop\n        /* \"#utility.yul\":16420:16424   */\n      dup1\n        /* \"#utility.yul\":16410:16418   */\n      dup7\n        /* \"#utility.yul\":16406:16425   */\n      and\n        /* \"#utility.yul\":16399:16404   */\n      dup5\n        /* \"#utility.yul\":16396:16426   */\n      or\n        /* \"#utility.yul\":16386:16426   */\n      swap3\n      pop\n        /* \"#utility.yul\":16115:16432   */\n      pop\n      pop\n        /* \"#utility.yul\":16039:16432   */\n      swap4\n      swap3\n      pop\n      pop\n      pop\n      jump\t// out\n        /* \"#utility.yul\":16438:16498   */\n    tag_190:\n        /* \"#utility.yul\":16466:16469   */\n      0x00\n        /* \"#utility.yul\":16487:16492   */\n      dup2\n        /* \"#utility.yul\":16480:16492   */\n      swap1\n      pop\n        /* \"#utility.yul\":16438:16498   */\n      swap2\n      swap1\n      pop\n      jump\t// out\n        /* \"#utility.yul\":16504:16646   */\n    tag_191:\n        /* \"#utility.yul\":16554:16563   */\n      0x00\n        /* \"#utility.yul\":16587:16640   */\n      tag_363\n        /* \"#utility.yul\":16605:16639   */\n      tag_364\n        /* \"#utility.yul\":16614:16638   */\n      tag_365\n        /* \"#utility.yul\":16632:16637   */\n      dup5\n        /* \"#utility.yul\":16614:16638   */\n      tag_142\n      jump\t// in\n    tag_365:\n        /* \"#utility.yul\":16605:16639   */\n      tag_190\n      jump\t// in\n    tag_364:\n        /* \"#utility.yul\":16587:16640   */\n      tag_142\n      jump\t// in\n    tag_363:\n        /* \"#utility.yul\":16574:16640   */\n      swap1\n      pop\n        /* \"#utility.yul\":16504:16646   */\n      swap2\n      swap1\n      pop\n      jump\t// out\n        /* \"#utility.yul\":16652:16727   */\n    tag_192:\n        /* \"#utility.yul\":16695:16698   */\n      0x00\n        /* \"#utility.yul\":16716:16721   */\n      dup2\n        /* \"#utility.yul\":16709:16721   */\n      swap1\n      pop\n        /* \"#utility.yul\":16652:16727   */\n      swap2\n      swap1\n      pop\n      jump\t// out\n        /* \"#utility.yul\":16733:17002   */\n    tag_193:\n        /* \"#utility.yul\":16843:16882   */\n      tag_368\n        /* \"#utility.yul\":16874:16881   */\n      dup4\n        /* \"#utility.yul\":16843:16882   */\n      tag_191\n      jump\t// in\n    tag_368:\n        /* \"#utility.yul\":16904:16995   */\n      tag_369\n        /* \"#utility.yul\":16953:16994   */\n      tag_370\n        /* \"#utility.yul\":16977:16993   */\n      dup3\n        /* \"#utility.yul\":16953:16994   */\n      tag_192\n      jump\t// in\n    tag_370:\n        /* \"#utility.yul\":16945:16951   */\n      dup5\n        /* \"#utility.yul\":16938:16942   */\n      dup5\n        /* \"#utility.yul\":16932:16943   */\n      sload\n        /* \"#utility.yul\":16904:16995   */\n      tag_189\n      jump\t// in\n    tag_369:\n        /* \"#utility.yul\":16898:16902   */\n      dup3\n        /* \"#utility.yul\":16891:16996   */\n      sstore\n        /* \"#utility.yul\":16809:17002   */\n      pop\n        /* \"#utility.yul\":16733:17002   */\n      pop\n      pop\n      pop\n      jump\t// out\n        /* \"#utility.yul\":17008:17081   */\n    tag_194:\n        /* \"#utility.yul\":17053:17056   */\n      0x00\n        /* \"#utility.yul\":17074:17075   */\n      0x00\n        /* \"#utility.yul\":17067:17075   */\n      swap1\n      pop\n        /* \"#utility.yul\":17008:17081   */\n      swap1\n      jump\t// out\n        /* \"#utility.yul\":17087:17276   */\n    tag_195:\n        /* \"#utility.yul\":17164:17196   */\n      tag_373\n      tag_194\n      jump\t// in\n    tag_373:\n        /* \"#utility.yul\":17205:17270   */\n      tag_374\n        /* \"#utility.yul\":17263:17269   */\n      dup2\n        /* \"#utility.yul\":17255:17261   */\n      dup5\n        /* \"#utility.yul\":17249:17253   */\n      dup5\n        /* \"#utility.yul\":17205:17270   */\n      tag_193\n      jump\t// in\n    tag_374:\n        /* \"#utility.yul\":17140:17276   */\n      pop\n        /* \"#utility.yul\":17087:17276   */\n      pop\n      pop\n      jump\t// out\n        /* \"#utility.yul\":17282:17496   */\n    tag_196:\n        /* \"#utility.yul\":17367:17368   */\n      0x00\n        /* \"#utility.yul\":17352:17490   */\n    tag_376:\n        /* \"#utility.yul\":17377:17386   */\n      dup3\n        /* \"#utility.yul\":17374:17375   */\n      dup2\n        /* \"#utility.yul\":17371:17387   */\n      lt\n        /* \"#utility.yul\":17352:17490   */\n      iszero\n      tag_378\n      jumpi\n        /* \"#utility.yul\":17429:17480   */\n      tag_379\n        /* \"#utility.yul\":17478:17479   */\n      0x00\n        /* \"#utility.yul\":17474:17475   */\n      dup3\n        /* \"#utility.yul\":17463:17472   */\n      dup5\n        /* \"#utility.yul\":17459:17476   */\n      add\n        /* \"#utility.yul\":17429:17480   */\n      tag_195\n      jump\t// in\n    tag_379:\n        /* \"#utility.yul\":17402:17403   */\n      0x01\n        /* \"#utility.yul\":17399:17400   */\n      dup2\n        /* \"#utility.yul\":17395:17404   */\n      add\n        /* \"#utility.yul\":17390:17404   */\n      swap1\n      pop\n        /* \"#utility.yul\":17352:17490   */\n      jump(tag_376)\n    tag_378:\n        /* \"#utility.yul\":17356:17370   */\n      pop\n        /* \"#utility.yul\":17282:17496   */\n      pop\n      pop\n      jump\t// out\n        /* \"#utility.yul\":17502:18248   */\n    tag_197:\n        /* \"#utility.yul\":17603:17605   */\n      0x1f\n        /* \"#utility.yul\":17598:17601   */\n      dup3\n        /* \"#utility.yul\":17595:17606   */\n      gt\n        /* \"#utility.yul\":17592:18241   */\n      iszero\n      tag_381\n      jumpi\n        /* \"#utility.yul\":17632:17642   */\n      dup3\n        /* \"#utility.yul\":17627:17630   */\n      dup3\n        /* \"#utility.yul\":17624:17643   */\n      gt\n        /* \"#utility.yul\":17621:18231   */\n      iszero\n      tag_382\n      jumpi\n        /* \"#utility.yul\":17678:17716   */\n      tag_383\n        /* \"#utility.yul\":17710:17715   */\n      dup2\n        /* \"#utility.yul\":17678:17716   */\n      tag_186\n      jump\t// in\n    tag_383:\n        /* \"#utility.yul\":17753:17775   */\n      tag_384\n        /* \"#utility.yul\":17771:17774   */\n      dup4\n        /* \"#utility.yul\":17753:17775   */\n      tag_187\n      jump\t// in\n    tag_384:\n        /* \"#utility.yul\":17812:17841   */\n      tag_385\n        /* \"#utility.yul\":17830:17840   */\n      dup6\n        /* \"#utility.yul\":17812:17841   */\n      tag_187\n      jump\t// in\n    tag_385:\n        /* \"#utility.yul\":18002:18004   */\n      0x20\n        /* \"#utility.yul\":17990:18000   */\n      dup7\n        /* \"#utility.yul\":17987:18005   */\n      lt\n        /* \"#utility.yul\":17984:18063   */\n      iszero\n      tag_386\n      jumpi\n        /* \"#utility.yul\":18044:18045   */\n      0x00\n        /* \"#utility.yul\":18028:18045   */\n      swap1\n      pop\n        /* \"#utility.yul\":17984:18063   */\n    tag_386:\n        /* \"#utility.yul\":18113:18125   */\n      dup1\n        /* \"#utility.yul\":18103:18111   */\n      dup4\n        /* \"#utility.yul\":18099:18126   */\n      add\n        /* \"#utility.yul\":18143:18217   */\n      tag_387\n        /* \"#utility.yul\":18203:18215   */\n      dup3\n        /* \"#utility.yul\":18189:18201   */\n      dup5\n        /* \"#utility.yul\":18185:18216   */\n      sub\n        /* \"#utility.yul\":18172:18183   */\n      dup3\n        /* \"#utility.yul\":18143:18217   */\n      tag_196\n      jump\t// in\n    tag_387:\n        /* \"#utility.yul\":17644:18231   */\n      pop\n      pop\n      pop\n      pop\n        /* \"#utility.yul\":17621:18231   */\n    tag_382:\n        /* \"#utility.yul\":17592:18241   */\n    tag_381:\n        /* \"#utility.yul\":17502:18248   */\n      pop\n      pop\n      pop\n      jump\t// out\n        /* \"#utility.yul\":18254:18371   */\n    tag_198:\n        /* \"#utility.yul\":18308:18316   */\n      0x00\n        /* \"#utility.yul\":18358:18363   */\n      dup3\n        /* \"#utility.yul\":18352:18356   */\n      dup3\n        /* \"#utility.yul\":18348:18364   */\n      shr\n        /* \"#utility.yul\":18327:18364   */\n      swap1\n      pop\n        /* \"#utility.yul\":18254:18371   */\n      swap3\n      swap2\n      pop\n      pop\n      jump\t// out\n        /* \"#utility.yul\":18377:18546   */\n    tag_199:\n        /* \"#utility.yul\":18421:18427   */\n      0x00\n        /* \"#utility.yul\":18454:18505   */\n      tag_390\n        /* \"#utility.yul\":18502:18503   */\n      0x00\n        /* \"#utility.yul\":18498:18504   */\n      not\n        /* \"#utility.yul\":18490:18495   */\n      dup5\n        /* \"#utility.yul\":18487:18488   */\n      0x08\n        /* \"#utility.yul\":18483:18496   */\n      mul\n        /* \"#utility.yul\":18454:18505   */\n      tag_198\n      jump\t// in\n    tag_390:\n        /* \"#utility.yul\":18450:18506   */\n      not\n        /* \"#utility.yul\":18535:18539   */\n      dup1\n        /* \"#utility.yul\":18529:18533   */\n      dup4\n        /* \"#utility.yul\":18525:18540   */\n      and\n        /* \"#utility.yul\":18515:18540   */\n      swap2\n      pop\n        /* \"#utility.yul\":18428:18546   */\n      pop\n        /* \"#utility.yul\":18377:18546   */\n      swap3\n      swap2\n      pop\n      pop\n      jump\t// out\n        /* \"#utility.yul\":18551:18846   */\n    tag_200:\n        /* \"#utility.yul\":18627:18631   */\n      0x00\n        /* \"#utility.yul\":18773:18802   */\n      tag_392\n        /* \"#utility.yul\":18798:18801   */\n      dup4\n        /* \"#utility.yul\":18792:18796   */\n      dup4\n        /* \"#utility.yul\":18773:18802   */\n      tag_199\n      jump\t// in\n    tag_392:\n        /* \"#utility.yul\":18765:18802   */\n      swap2\n      pop\n        /* \"#utility.yul\":18835:18838   */\n      dup3\n        /* \"#utility.yul\":18832:18833   */\n      0x02\n        /* \"#utility.yul\":18828:18839   */\n      mul\n        /* \"#utility.yul\":18822:18826   */\n      dup3\n        /* \"#utility.yul\":18819:18840   */\n      or\n        /* \"#utility.yul\":18811:18840   */\n      swap1\n      pop\n        /* \"#utility.yul\":18551:18846   */\n      swap3\n      swap2\n      pop\n      pop\n      jump\t// out\n        /* \"#utility.yul\":18851:20246   */\n    tag_102:\n        /* \"#utility.yul\":18968:19005   */\n      tag_394\n        /* \"#utility.yul\":19001:19004   */\n      dup3\n        /* \"#utility.yul\":18968:19005   */\n      tag_155\n      jump\t// in\n    tag_394:\n        /* \"#utility.yul\":19070:19088   */\n      0xffffffffffffffff\n        /* \"#utility.yul\":19062:19068   */\n      dup2\n        /* \"#utility.yul\":19059:19089   */\n      gt\n        /* \"#utility.yul\":19056:19112   */\n      iszero\n      tag_395\n      jumpi\n        /* \"#utility.yul\":19092:19110   */\n      tag_396\n      tag_123\n      jump\t// in\n    tag_396:\n        /* \"#utility.yul\":19056:19112   */\n    tag_395:\n        /* \"#utility.yul\":19136:19174   */\n      tag_397\n        /* \"#utility.yul\":19168:19172   */\n      dup3\n        /* \"#utility.yul\":19162:19173   */\n      sload\n        /* \"#utility.yul\":19136:19174   */\n      tag_92\n      jump\t// in\n    tag_397:\n        /* \"#utility.yul\":19221:19288   */\n      tag_398\n        /* \"#utility.yul\":19281:19287   */\n      dup3\n        /* \"#utility.yul\":19273:19279   */\n      dup3\n        /* \"#utility.yul\":19267:19271   */\n      dup6\n        /* \"#utility.yul\":19221:19288   */\n      tag_197\n      jump\t// in\n    tag_398:\n        /* \"#utility.yul\":19315:19316   */\n      0x00\n        /* \"#utility.yul\":19339:19343   */\n      0x20\n        /* \"#utility.yul\":19326:19343   */\n      swap1\n      pop\n        /* \"#utility.yul\":19371:19373   */\n      0x1f\n        /* \"#utility.yul\":19363:19369   */\n      dup4\n        /* \"#utility.yul\":19360:19374   */\n      gt\n        /* \"#utility.yul\":19388:19389   */\n      0x01\n        /* \"#utility.yul\":19383:20001   */\n      dup2\n      eq\n      tag_400\n      jumpi\n        /* \"#utility.yul\":20045:20046   */\n      0x00\n        /* \"#utility.yul\":20062:20068   */\n      dup5\n        /* \"#utility.yul\":20059:20136   */\n      iszero\n      tag_401\n      jumpi\n        /* \"#utility.yul\":20111:20120   */\n      dup3\n        /* \"#utility.yul\":20106:20109   */\n      dup8\n        /* \"#utility.yul\":20102:20121   */\n      add\n        /* \"#utility.yul\":20096:20122   */\n      mload\n        /* \"#utility.yul\":20087:20122   */\n      swap1\n      pop\n        /* \"#utility.yul\":20059:20136   */\n    tag_401:\n        /* \"#utility.yul\":20162:20229   */\n      tag_402\n        /* \"#utility.yul\":20222:20228   */\n      dup6\n        /* \"#utility.yul\":20215:20220   */\n      dup3\n        /* \"#utility.yul\":20162:20229   */\n      tag_200\n      jump\t// in\n    tag_402:\n        /* \"#utility.yul\":20156:20160   */\n      dup7\n        /* \"#utility.yul\":20149:20230   */\n      sstore\n        /* \"#utility.yul\":20018:20240   */\n      pop\n        /* \"#utility.yul\":19353:20240   */\n      jump(tag_399)\n        /* \"#utility.yul\":19383:20001   */\n    tag_400:\n        /* \"#utility.yul\":19435:19439   */\n      0x1f\n        /* \"#utility.yul\":19431:19440   */\n      not\n        /* \"#utility.yul\":19423:19429   */\n      dup5\n        /* \"#utility.yul\":19419:19441   */\n      and\n        /* \"#utility.yul\":19469:19506   */\n      tag_403\n        /* \"#utility.yul\":19501:19505   */\n      dup7\n        /* \"#utility.yul\":19469:19506   */\n      tag_186\n      jump\t// in\n    tag_403:\n        /* \"#utility.yul\":19528:19529   */\n      0x00\n        /* \"#utility.yul\":19542:19750   */\n    tag_404:\n        /* \"#utility.yul\":19556:19563   */\n      dup3\n        /* \"#utility.yul\":19553:19554   */\n      dup2\n        /* \"#utility.yul\":19550:19564   */\n      lt\n        /* \"#utility.yul\":19542:19750   */\n      iszero\n      tag_406\n      jumpi\n        /* \"#utility.yul\":19635:19644   */\n      dup5\n        /* \"#utility.yul\":19630:19633   */\n      dup10\n        /* \"#utility.yul\":19626:19645   */\n      add\n        /* \"#utility.yul\":19620:19646   */\n      mload\n        /* \"#utility.yul\":19612:19618   */\n      dup3\n        /* \"#utility.yul\":19605:19647   */\n      sstore\n        /* \"#utility.yul\":19686:19687   */\n      0x01\n        /* \"#utility.yul\":19678:19684   */\n      dup3\n        /* \"#utility.yul\":19674:19688   */\n      add\n        /* \"#utility.yul\":19664:19688   */\n      swap2\n      pop\n        /* \"#utility.yul\":19733:19735   */\n      0x20\n        /* \"#utility.yul\":19722:19731   */\n      dup6\n        /* \"#utility.yul\":19718:19736   */\n      add\n        /* \"#utility.yul\":19705:19736   */\n      swap5\n      pop\n        /* \"#utility.yul\":19579:19583   */\n      0x20\n        /* \"#utility.yul\":19576:19577   */\n      dup2\n        /* \"#utility.yul\":19572:19584   */\n      add\n        /* \"#utility.yul\":19567:19584   */\n      swap1\n      pop\n        /* \"#utility.yul\":19542:19750   */\n      jump(tag_404)\n    tag_406:\n        /* \"#utility.yul\":19778:19784   */\n      dup7\n        /* \"#utility.yul\":19769:19776   */\n      dup4\n        /* \"#utility.yul\":19766:19785   */\n      lt\n        /* \"#utility.yul\":19763:19942   */\n      iszero\n      tag_407\n      jumpi\n        /* \"#utility.yul\":19836:19845   */\n      dup5\n        /* \"#utility.yul\":19831:19834   */\n      dup10\n        /* \"#utility.yul\":19827:19846   */\n      add\n        /* \"#utility.yul\":19821:19847   */\n      mload\n        /* \"#utility.yul\":19879:19927   */\n      tag_408\n        /* \"#utility.yul\":19921:19925   */\n      0x1f\n        /* \"#utility.yul\":19913:19919   */\n      dup10\n        /* \"#utility.yul\":19909:19926   */\n      and\n        /* \"#utility.yul\":19898:19907   */\n      dup3\n        /* \"#utility.yul\":19879:19927   */\n      tag_199\n      jump\t// in\n    tag_408:\n        /* \"#utility.yul\":19871:19877   */\n      dup4\n        /* \"#utility.yul\":19864:19928   */\n      sstore\n        /* \"#utility.yul\":19786:19942   */\n      pop\n        /* \"#utility.yul\":19763:19942   */\n    tag_407:\n        /* \"#utility.yul\":19988:19989   */\n      0x01\n        /* \"#utility.yul\":19984:19985   */\n      0x02\n        /* \"#utility.yul\":19976:19982   */\n      dup9\n        /* \"#utility.yul\":19972:19986   */\n      mul\n        /* \"#utility.yul\":19968:19990   */\n      add\n        /* \"#utility.yul\":19962:19966   */\n      dup9\n        /* \"#utility.yul\":19955:19991   */\n      sstore\n        /* \"#utility.yul\":19390:20001   */\n      pop\n      pop\n      pop\n        /* \"#utility.yul\":19353:20240   */\n    tag_399:\n      pop\n        /* \"#utility.yul\":18943:20246   */\n      pop\n      pop\n      pop\n        /* \"#utility.yul\":18851:20246   */\n      pop\n      pop\n      jump\t// out\n        /* \"#utility.yul\":20252:20565   */\n    tag_104:\n        /* \"#utility.yul\":20365:20369   */\n      0x00\n        /* \"#utility.yul\":20403:20405   */\n      0x20\n        /* \"#utility.yul\":20392:20401   */\n      dup3\n        /* \"#utility.yul\":20388:20406   */\n      add\n        /* \"#utility.yul\":20380:20406   */\n      swap1\n      pop\n        /* \"#utility.yul\":20452:20461   */\n      dup2\n        /* \"#utility.yul\":20446:20450   */\n      dup2\n        /* \"#utility.yul\":20442:20462   */\n      sub\n        /* \"#utility.yul\":20438:20439   */\n      0x00\n        /* \"#utility.yul\":20427:20436   */\n      dup4\n        /* \"#utility.yul\":20423:20440   */\n      add\n        /* \"#utility.yul\":20416:20463   */\n      mstore\n        /* \"#utility.yul\":20480:20558   */\n      tag_410\n        /* \"#utility.yul\":20553:20557   */\n      dup2\n        /* \"#utility.yul\":20544:20550   */\n      dup5\n        /* \"#utility.yul\":20480:20558   */\n      tag_159\n      jump\t// in\n    tag_410:\n        /* \"#utility.yul\":20472:20558   */\n      swap1\n      pop\n        /* \"#utility.yul\":20252:20565   */\n      swap3\n      swap2\n      pop\n      pop\n      jump\t// out\n        /* \"#utility.yul\":20571:20740   */\n    tag_201:\n        /* \"#utility.yul\":20711:20732   */\n      0x5573657220616c72656164792065786973747300000000000000000000000000\n        /* \"#utility.yul\":20707:20708   */\n      0x00\n        /* \"#utility.yul\":20699:20705   */\n      dup3\n        /* \"#utility.yul\":20695:20709   */\n      add\n        /* \"#utility.yul\":20688:20733   */\n      mstore\n        /* \"#utility.yul\":20571:20740   */\n      pop\n      jump\t// out\n        /* \"#utility.yul\":20746:21112   */\n    tag_202:\n        /* \"#utility.yul\":20888:20891   */\n      0x00\n        /* \"#utility.yul\":20909:20976   */\n      tag_413\n        /* \"#utility.yul\":20973:20975   */\n      0x13\n        /* \"#utility.yul\":20968:20971   */\n      dup4\n        /* \"#utility.yul\":20909:20976   */\n      tag_156\n      jump\t// in\n    tag_413:\n        /* \"#utility.yul\":20902:20976   */\n      swap2\n      pop\n        /* \"#utility.yul\":20985:21078   */\n      tag_414\n        /* \"#utility.yul\":21074:21077   */\n      dup3\n        /* \"#utility.yul\":20985:21078   */\n      tag_201\n      jump\t// in\n    tag_414:\n        /* \"#utility.yul\":21103:21105   */\n      0x20\n        /* \"#utility.yul\":21098:21101   */\n      dup3\n        /* \"#utility.yul\":21094:21106   */\n      add\n        /* \"#utility.yul\":21087:21106   */\n      swap1\n      pop\n        /* \"#utility.yul\":20746:21112   */\n      swap2\n      swap1\n      pop\n      jump\t// out\n        /* \"#utility.yul\":21118:21537   */\n    tag_115:\n        /* \"#utility.yul\":21284:21288   */\n      0x00\n        /* \"#utility.yul\":21322:21324   */\n      0x20\n        /* \"#utility.yul\":21311:21320   */\n      dup3\n        /* \"#utility.yul\":21307:21325   */\n      add\n        /* \"#utility.yul\":21299:21325   */\n      swap1\n      pop\n        /* \"#utility.yul\":21371:21380   */\n      dup2\n        /* \"#utility.yul\":21365:21369   */\n      dup2\n        /* \"#utility.yul\":21361:21381   */\n      sub\n        /* \"#utility.yul\":21357:21358   */\n      0x00\n        /* \"#utility.yul\":21346:21355   */\n      dup4\n        /* \"#utility.yul\":21342:21359   */\n      add\n        /* \"#utility.yul\":21335:21382   */\n      mstore\n        /* \"#utility.yul\":21399:21530   */\n      tag_416\n        /* \"#utility.yul\":21525:21529   */\n      dup2\n        /* \"#utility.yul\":21399:21530   */\n      tag_202\n      jump\t// in\n    tag_416:\n        /* \"#utility.yul\":21391:21530   */\n      swap1\n      pop\n        /* \"#utility.yul\":21118:21537   */\n      swap2\n      swap1\n      pop\n      jump\t// out\n        /* \"#utility.yul\":21543:21966   */\n    tag_119:\n        /* \"#utility.yul\":21684:21688   */\n      0x00\n        /* \"#utility.yul\":21722:21724   */\n      0x40\n        /* \"#utility.yul\":21711:21720   */\n      dup3\n        /* \"#utility.yul\":21707:21725   */\n      add\n        /* \"#utility.yul\":21699:21725   */\n      swap1\n      pop\n        /* \"#utility.yul\":21771:21780   */\n      dup2\n        /* \"#utility.yul\":21765:21769   */\n      dup2\n        /* \"#utility.yul\":21761:21781   */\n      sub\n        /* \"#utility.yul\":21757:21758   */\n      0x00\n        /* \"#utility.yul\":21746:21755   */\n      dup4\n        /* \"#utility.yul\":21742:21759   */\n      add\n        /* \"#utility.yul\":21735:21782   */\n      mstore\n        /* \"#utility.yul\":21799:21877   */\n      tag_418\n        /* \"#utility.yul\":21872:21876   */\n      dup2\n        /* \"#utility.yul\":21863:21869   */\n      dup6\n        /* \"#utility.yul\":21799:21877   */\n      tag_159\n      jump\t// in\n    tag_418:\n        /* \"#utility.yul\":21791:21877   */\n      swap1\n      pop\n        /* \"#utility.yul\":21887:21959   */\n      tag_419\n        /* \"#utility.yul\":21955:21957   */\n      0x20\n        /* \"#utility.yul\":21944:21953   */\n      dup4\n        /* \"#utility.yul\":21940:21958   */\n      add\n        /* \"#utility.yul\":21931:21937   */\n      dup5\n        /* \"#utility.yul\":21887:21959   */\n      tag_144\n      jump\t// in\n    tag_419:\n        /* \"#utility.yul\":21543:21966   */\n      swap4\n      swap3\n      pop\n      pop\n      pop\n      jump\t// out\n        /* \"#utility.yul\":21972:22152   */\n    tag_133:\n        /* \"#utility.yul\":22020:22097   */\n      0x4e487b7100000000000000000000000000000000000000000000000000000000\n        /* \"#utility.yul\":22017:22018   */\n      0x00\n        /* \"#utility.yul\":22010:22098   */\n      mstore\n        /* \"#utility.yul\":22117:22121   */\n      0x32\n        /* \"#utility.yul\":22114:22115   */\n      0x04\n        /* \"#utility.yul\":22107:22122   */\n      mstore\n        /* \"#utility.yul\":22141:22145   */\n      0x24\n        /* \"#utility.yul\":22138:22139   */\n      0x00\n        /* \"#utility.yul\":22131:22146   */\n      revert\n\n    auxdata: 0xa2646970667358221220463354303717ea232fbcea54d7e2dbfc53163d5d5000e99076290e708b8a0dc864736f6c63430008220033\n}\n",
				"bytecode": {
					"linkReferences": {},
					"object": "6080604052348015600e575f5ffd5b50335f5f6101000a81548173ffffffffffffffffffffffffffffffffffffffff021916908373ffffffffffffffffffffffffffffffffffffffff160217905550611a3c8061005b5f395ff3fe608060405260043610610094575f3560e01c8063a87430ba11610058578063a87430ba146101e8578063af9036a114610227578063d0e30db01461024f578063d395100214610259578063e2842d791461028157610101565b80632a35c4f41461011a5780632e1a7d4d14610130578063502c9bd5146101585780638b7afe2e146101945780638da5cb5b146101be57610101565b36610101573460015f8282546100aa9190610f45565b925050819055503373ffffffffffffffffffffffffffffffffffffffff167f939e51ac2fd009b158d6344f7e68a83d8d18d9b0cc88cf514aac6aaa9cad2a18346040516100f79190610f87565b60405180910390a2005b3460015f8282546101129190610f45565b925050819055005b348015610125575f5ffd5b5061012e6102ab565b005b34801561013b575f5ffd5b5061015660048036038101906101519190610fdb565b61033d565b005b348015610163575f5ffd5b5061017e60048036038101906101799190610fdb565b610620565b60405161018b9190611045565b60405180910390f35b34801561019f575f5ffd5b506101a861065b565b6040516101b59190610f87565b60405180910390f35b3480156101c9575f5ffd5b506101d2610661565b6040516101df9190611045565b60405180910390f35b3480156101f3575f5ffd5b5061020e60048036038101906102099190611088565b610685565b60405161021e9493929190611123565b60405180910390f35b348015610232575f5ffd5b5061024d60048036038101906102489190611299565b610756565b005b6102576108c3565b005b348015610264575f5ffd5b5061027f600480360381019061027a91906112e0565b610a50565b005b34801561028c575f5ffd5b50610295610cb6565b6040516102a291906114bb565b60405180910390f35b5f5f9054906101000a900473ffffffffffffffffffffffffffffffffffffffff1673ffffffffffffffffffffffffffffffffffffffff163373ffffffffffffffffffffffffffffffffffffffff161461033b57336040517f8e4a23d60000000000000000000000000000000000000000000000000000000081526004016103329190611045565b60405180910390fd5b565b335f73ffffffffffffffffffffffffffffffffffffffff1660025f8373ffffffffffffffffffffffffffffffffffffffff1673ffffffffffffffffffffffffffffffffffffffff1681526020019081526020015f206002015f9054906101000a900473ffffffffffffffffffffffffffffffffffffffff1673ffffffffffffffffffffffffffffffffffffffff160361040b576040517f08c379a000000000000000000000000000000000000000000000000000000000815260040161040290611525565b60405180910390fd5b5f5f9054906101000a900473ffffffffffffffffffffffffffffffffffffffff1673ffffffffffffffffffffffffffffffffffffffff163373ffffffffffffffffffffffffffffffffffffffff1614610499576040517f08c379a00000000000000000000000000000000000000000000000000000000081526004016104909061158d565b60405180910390fd5b8160025f3373ffffffffffffffffffffffffffffffffffffffff1673ffffffffffffffffffffffffffffffffffffffff1681526020019081526020015f2060030154101561051c576040517f08c379a0000000000000000000000000000000000000000000000000000000008152600401610513906115f5565b60405180910390fd5b8160025f3373ffffffffffffffffffffffffffffffffffffffff1673ffffffffffffffffffffffffffffffffffffffff1681526020019081526020015f206003015f82825461056b9190611613565b925050819055508160015f8282546105839190611613565b925050819055503373ffffffffffffffffffffffffffffffffffffffff166108fc8390811502906040515f60405180830381858888f193505050501580156105cd573d5f5f3e3d5ffd5b503373ffffffffffffffffffffffffffffffffffffffff167f06097061aeda806b5e9cb4133d9899f332ff0913956567fc0f7ea15e3d19947c836040516106149190610f87565b60405180910390a25050565b6003818154811061062f575f80fd5b905f5260205f20015f915054906101000a900473ffffffffffffffffffffffffffffffffffffffff1681565b60015481565b5f5f9054906101000a900473ffffffffffffffffffffffffffffffffffffffff1681565b6002602052805f5260405f205f91509050805f0180546106a490611673565b80601f01602080910402602001604051908101604052809291908181526020018280546106d090611673565b801561071b5780601f106106f25761010080835404028352916020019161071b565b820191905f5260205f20905b8154815290600101906020018083116106fe57829003601f168201915b505050505090806001015490806002015f9054906101000a900473ffffffffffffffffffffffffffffffffffffffff16908060030154905084565b335f73ffffffffffffffffffffffffffffffffffffffff1660025f8373ffffffffffffffffffffffffffffffffffffffff1673ffffffffffffffffffffffffffffffffffffffff1681526020019081526020015f206002015f9054906101000a900473ffffffffffffffffffffffffffffffffffffffff1673ffffffffffffffffffffffffffffffffffffffff1603610824576040517f08c379a000000000000000000000000000000000000000000000000000000000815260040161081b90611525565b60405180910390fd5b8160025f3373ffffffffffffffffffffffffffffffffffffffff1673ffffffffffffffffffffffffffffffffffffffff1681526020019081526020015f205f0190816108709190611854565b503373ffffffffffffffffffffffffffffffffffffffff167fd6136f3cad7c60bfc24bbf1548f39f766ca8bce104bf9adde3deb6237dec51df836040516108b79190611923565b60405180910390a25050565b335f73ffffffffffffffffffffffffffffffffffffffff1660025f8373ffffffffffffffffffffffffffffffffffffffff1673ffffffffffffffffffffffffffffffffffffffff1681526020019081526020015f206002015f9054906101000a900473ffffffffffffffffffffffffffffffffffffffff1673ffffffffffffffffffffffffffffffffffffffff1603610991576040517f08c379a000000000000000000000000000000000000000000000000000000000815260040161098890611525565b60405180910390fd5b3460025f3373ffffffffffffffffffffffffffffffffffffffff1673ffffffffffffffffffffffffffffffffffffffff1681526020019081526020015f206003015f8282546109e09190610f45565b925050819055503460015f8282546109f89190610f45565b925050819055503373ffffffffffffffffffffffffffffffffffffffff167f939e51ac2fd009b158d6344f7e68a83d8d18d9b0cc88cf514aac6aaa9cad2a1834604051610a459190610f87565b60405180910390a250565b5f73ffffffffffffffffffffffffffffffffffffffff1660025f3373ffffffffffffffffffffffffffffffffffffffff1673ffffffffffffffffffffffffffffffffffffffff1681526020019081526020015f206002015f9054906101000a900473ffffffffffffffffffffffffffffffffffffffff1673ffffffffffffffffffffffffffffffffffffffff1614610b1d576040517f08c379a0000000000000000000000000000000000000000000000000000000008152600401610b149061198d565b60405180910390fd5b60405180608001604052808381526020018281526020013373ffffffffffffffffffffffffffffffffffffffff1681526020015f81525060025f3373ffffffffffffffffffffffffffffffffffffffff1673ffffffffffffffffffffffffffffffffffffffff1681526020019081526020015f205f820151815f019081610ba49190611854565b50602082015181600101556040820151816002015f6101000a81548173ffffffffffffffffffffffffffffffffffffffff021916908373ffffffffffffffffffffffffffffffffffffffff16021790555060608201518160030155905050600333908060018154018082558091505060019003905f5260205f20015f9091909190916101000a81548173ffffffffffffffffffffffffffffffffffffffff021916908373ffffffffffffffffffffffffffffffffffffffff1602179055503373ffffffffffffffffffffffffffffffffffffffff167f89105a1c6a3c2fbd471255c66a31ccab604af5697f67d7e2e9a0028c5e4dbd918383604051610caa9291906119ab565b60405180910390a25050565b60605f60038054905067ffffffffffffffff811115610cd857610cd7611175565b5b604051908082528060200260200182016040528015610d1157816020015b610cfe610ed4565b815260200190600190039081610cf65790505b5090505f5f90505b600380549050811015610ecc5760025f60038381548110610d3d57610d3c6119d9565b5b905f5260205f20015f9054906101000a900473ffffffffffffffffffffffffffffffffffffffff1673ffffffffffffffffffffffffffffffffffffffff1673ffffffffffffffffffffffffffffffffffffffff1681526020019081526020015f206040518060800160405290815f82018054610db890611673565b80601f0160208091040260200160405190810160405280929190818152602001828054610de490611673565b8015610e2f5780601f10610e0657610100808354040283529160200191610e2f565b820191905f5260205f20905b815481529060010190602001808311610e1257829003601f168201915b5050505050815260200160018201548152602001600282015f9054906101000a900473ffffffffffffffffffffffffffffffffffffffff1673ffffffffffffffffffffffffffffffffffffffff1673ffffffffffffffffffffffffffffffffffffffff168152602001600382015481525050828281518110610eb457610eb36119d9565b5b60200260200101819052508080600101915050610d19565b508091505090565b6040518060800160405280606081526020015f81526020015f73ffffffffffffffffffffffffffffffffffffffff1681526020015f81525090565b5f819050919050565b7f4e487b71000000000000000000000000000000000000000000000000000000005f52601160045260245ffd5b5f610f4f82610f0f565b9150610f5a83610f0f565b9250828201905080821115610f7257610f71610f18565b5b92915050565b610f8181610f0f565b82525050565b5f602082019050610f9a5f830184610f78565b92915050565b5f604051905090565b5f5ffd5b5f5ffd5b610fba81610f0f565b8114610fc4575f5ffd5b50565b5f81359050610fd581610fb1565b92915050565b5f60208284031215610ff057610fef610fa9565b5b5f610ffd84828501610fc7565b91505092915050565b5f73ffffffffffffffffffffffffffffffffffffffff82169050919050565b5f61102f82611006565b9050919050565b61103f81611025565b82525050565b5f6020820190506110585f830184611036565b92915050565b61106781611025565b8114611071575f5ffd5b50565b5f813590506110828161105e565b92915050565b5f6020828403121561109d5761109c610fa9565b5b5f6110aa84828501611074565b91505092915050565b5f81519050919050565b5f82825260208201905092915050565b8281835e5f83830152505050565b5f601f19601f8301169050919050565b5f6110f5826110b3565b6110ff81856110bd565b935061110f8185602086016110cd565b611118816110db565b840191505092915050565b5f6080820190508181035f83015261113b81876110eb565b905061114a6020830186610f78565b6111576040830185611036565b6111646060830184610f78565b95945050505050565b5f5ffd5b5f5ffd5b7f4e487b71000000000000000000000000000000000000000000000000000000005f52604160045260245ffd5b6111ab826110db565b810181811067ffffffffffffffff821117156111ca576111c9611175565b5b80604052505050565b5f6111dc610fa0565b90506111e882826111a2565b919050565b5f67ffffffffffffffff82111561120757611206611175565b5b611210826110db565b9050602081019050919050565b828183375f83830152505050565b5f61123d611238846111ed565b6111d3565b90508281526020810184848401111561125957611258611171565b5b61126484828561121d565b509392505050565b5f82601f8301126112805761127f61116d565b5b813561129084826020860161122b565b91505092915050565b5f602082840312156112ae576112ad610fa9565b5b5f82013567ffffffffffffffff8111156112cb576112ca610fad565b5b6112d78482850161126c565b91505092915050565b5f5f604083850312156112f6576112f5610fa9565b5b5f83013567ffffffffffffffff81111561131357611312610fad565b5b61131f8582860161126c565b925050602061133085828601610fc7565b9150509250929050565b5f81519050919050565b5f82825260208201905092915050565b5f819050602082019050919050565b5f82825260208201905092915050565b5f61137d826110b3565b6113878185611363565b93506113978185602086016110cd565b6113a0816110db565b840191505092915050565b6113b481610f0f565b82525050565b6113c381611025565b82525050565b5f608083015f8301518482035f8601526113e38282611373565b91505060208301516113f860208601826113ab565b50604083015161140b60408601826113ba565b50606083015161141e60608601826113ab565b508091505092915050565b5f61143483836113c9565b905092915050565b5f602082019050919050565b5f6114528261133a565b61145c8185611344565b93508360208202850161146e85611354565b805f5b858110156114a9578484038952815161148a8582611429565b94506114958361143c565b925060208a01995050600181019050611471565b50829750879550505050505092915050565b5f6020820190508181035f8301526114d38184611448565b905092915050565b7f5573657220646f6573206e6f74206578697374000000000000000000000000005f82015250565b5f61150f6013836110bd565b915061151a826114db565b602082019050919050565b5f6020820190508181035f83015261153c81611503565b9050919050565b7f4e6f74206f776e657200000000000000000000000000000000000000000000005f82015250565b5f6115776009836110bd565b915061158282611543565b602082019050919050565b5f6020820190508181035f8301526115a48161156b565b9050919050565b7f496e73756666696369656e7420757365722062616c616e6365000000000000005f82015250565b5f6115df6019836110bd565b91506115ea826115ab565b602082019050919050565b5f6020820190508181035f83015261160c816115d3565b9050919050565b5f61161d82610f0f565b915061162883610f0f565b92508282039050818111156116405761163f610f18565b5b92915050565b7f4e487b71000000000000000000000000000000000000000000000000000000005f52602260045260245ffd5b5f600282049050600182168061168a57607f821691505b60208210810361169d5761169c611646565b5b50919050565b5f819050815f5260205f209050919050565b5f6020601f8301049050919050565b5f82821b905092915050565b5f600883026116ff7fffffffffffffffffffffffffffffffffffffffffffffffffffffffffffffffff826116c4565b61170986836116c4565b95508019841693508086168417925050509392505050565b5f819050919050565b5f61174461173f61173a84610f0f565b611721565b610f0f565b9050919050565b5f819050919050565b61175d8361172a565b6117716117698261174b565b8484546116d0565b825550505050565b5f5f905090565b611788611779565b611793818484611754565b505050565b5f5b828110156117b9576117ae5f828401611780565b60018101905061179a565b505050565b601f82111561180c578282111561180b576117d8816116a3565b6117e1836116b5565b6117ea856116b5565b60208610156117f7575f90505b80830161180682840382611798565b505050505b5b505050565b5f82821c905092915050565b5f61182c5f1984600802611811565b1980831691505092915050565b5f611844838361181d565b9150826002028217905092915050565b61185d826110b3565b67ffffffffffffffff81111561187657611875611175565b5b6118808254611673565b61188b8282856117be565b5f60209050601f8311600181146118bc575f84156118aa578287015190505b6118b48582611839565b86555061191b565b601f1984166118ca866116a3565b5f5b828110156118f1578489015182556001820191506020850194506020810190506118cc565b8683101561190e578489015161190a601f89168261181d565b8355505b6001600288020188555050505b505050505050565b5f6020820190508181035f83015261193b81846110eb565b905092915050565b7f5573657220616c726561647920657869737473000000000000000000000000005f82015250565b5f6119776013836110bd565b915061198282611943565b602082019050919050565b5f6020820190508181035f8301526119a48161196b565b9050919050565b5f6040820190508181035f8301526119c381856110eb565b90506119d26020830184610f78565b9392505050565b7f4e487b71000000000000000000000000000000000000000000000000000000005f52603260045260245ffdfea2646970667358221220463354303717ea232fbcea54d7e2dbfc53163d5d5000e99076290e708b8a0dc864736f6c63430008220033",
					"opcodes": "PUSH1 0x80 PUSH1 0x40 MSTORE CALLVALUE DUP1 ISZERO PUSH1 0xE JUMPI PUSH0 PUSH0 REVERT JUMPDEST POP CALLER PUSH0 PUSH0 PUSH2 0x100 EXP DUP2 SLOAD DUP2 PUSH20 0xFFFFFFFFFFFFFFFFFFFFFFFFFFFFFFFFFFFFFFFF MUL NOT AND SWAP1 DUP4 PUSH20 0xFFFFFFFFFFFFFFFFFFFFFFFFFFFFFFFFFFFFFFFF AND MUL OR SWAP1 SSTORE POP PUSH2 0x1A3C DUP1 PUSH2 0x5B PUSH0 CODECOPY PUSH0 RETURN INVALID PUSH1 0x80 PUSH1 0x40 MSTORE PUSH1 0x4 CALLDATASIZE LT PUSH2 0x94 JUMPI PUSH0 CALLDATALOAD PUSH1 0xE0 SHR DUP1 PUSH4 0xA87430BA GT PUSH2 0x58 JUMPI DUP1 PUSH4 0xA87430BA EQ PUSH2 0x1E8 JUMPI DUP1 PUSH4 0xAF9036A1 EQ PUSH2 0x227 JUMPI DUP1 PUSH4 0xD0E30DB0 EQ PUSH2 0x24F JUMPI DUP1 PUSH4 0xD3951002 EQ PUSH2 0x259 JUMPI DUP1 PUSH4 0xE2842D79 EQ PUSH2 0x281 JUMPI PUSH2 0x101 JUMP JUMPDEST DUP1 PUSH4 0x2A35C4F4 EQ PUSH2 0x11A JUMPI DUP1 PUSH4 0x2E1A7D4D EQ PUSH2 0x130 JUMPI DUP1 PUSH4 0x502C9BD5 EQ PUSH2 0x158 JUMPI DUP1 PUSH4 0x8B7AFE2E EQ PUSH2 0x194 JUMPI DUP1 PUSH4 0x8DA5CB5B EQ PUSH2 0x1BE JUMPI PUSH2 0x101 JUMP JUMPDEST CALLDATASIZE PUSH2 0x101 JUMPI CALLVALUE PUSH1 0x1 PUSH0 DUP3 DUP3 SLOAD PUSH2 0xAA SWAP2 SWAP1 PUSH2 0xF45 JUMP JUMPDEST SWAP3 POP POP DUP2 SWAP1 SSTORE POP CALLER PUSH20 0xFFFFFFFFFFFFFFFFFFFFFFFFFFFFFFFFFFFFFFFF AND PUSH32 0x939E51AC2FD009B158D6344F7E68A83D8D18D9B0CC88CF514AAC6AAA9CAD2A18 CALLVALUE PUSH1 0x40 MLOAD PUSH2 0xF7 SWAP2 SWAP1 PUSH2 0xF87 JUMP JUMPDEST PUSH1 0x40 MLOAD DUP1 SWAP2 SUB SWAP1 LOG2 STOP JUMPDEST CALLVALUE PUSH1 0x1 PUSH0 DUP3 DUP3 SLOAD PUSH2 0x112 SWAP2 SWAP1 PUSH2 0xF45 JUMP JUMPDEST SWAP3 POP POP DUP2 SWAP1 SSTORE STOP JUMPDEST CALLVALUE DUP1 ISZERO PUSH2 0x125 JUMPI PUSH0 PUSH0 REVERT JUMPDEST POP PUSH2 0x12E PUSH2 0x2AB JUMP JUMPDEST STOP JUMPDEST CALLVALUE DUP1 ISZERO PUSH2 0x13B JUMPI PUSH0 PUSH0 REVERT JUMPDEST POP PUSH2 0x156 PUSH1 0x4 DUP1 CALLDATASIZE SUB DUP2 ADD SWAP1 PUSH2 0x151 SWAP2 SWAP1 PUSH2 0xFDB JUMP JUMPDEST PUSH2 0x33D JUMP JUMPDEST STOP JUMPDEST CALLVALUE DUP1 ISZERO PUSH2 0x163 JUMPI PUSH0 PUSH0 REVERT JUMPDEST POP PUSH2 0x17E PUSH1 0x4 DUP1 CALLDATASIZE SUB DUP2 ADD SWAP1 PUSH2 0x179 SWAP2 SWAP1 PUSH2 0xFDB JUMP JUMPDEST PUSH2 0x620 JUMP JUMPDEST PUSH1 0x40 MLOAD PUSH2 0x18B SWAP2 SWAP1 PUSH2 0x1045 JUMP JUMPDEST PUSH1 0x40 MLOAD DUP1 SWAP2 SUB SWAP1 RETURN JUMPDEST CALLVALUE DUP1 ISZERO PUSH2 0x19F JUMPI PUSH0 PUSH0 REVERT JUMPDEST POP PUSH2 0x1A8 PUSH2 0x65B JUMP JUMPDEST PUSH1 0x40 MLOAD PUSH2 0x1B5 SWAP2 SWAP1 PUSH2 0xF87 JUMP JUMPDEST PUSH1 0x40 MLOAD DUP1 SWAP2 SUB SWAP1 RETURN JUMPDEST CALLVALUE DUP1 ISZERO PUSH2 0x1C9 JUMPI PUSH0 PUSH0 REVERT JUMPDEST POP PUSH2 0x1D2 PUSH2 0x661 JUMP JUMPDEST PUSH1 0x40 MLOAD PUSH2 0x1DF SWAP2 SWAP1 PUSH2 0x1045 JUMP JUMPDEST PUSH1 0x40 MLOAD DUP1 SWAP2 SUB SWAP1 RETURN JUMPDEST CALLVALUE DUP1 ISZERO PUSH2 0x1F3 JUMPI PUSH0 PUSH0 REVERT JUMPDEST POP PUSH2 0x20E PUSH1 0x4 DUP1 CALLDATASIZE SUB DUP2 ADD SWAP1 PUSH2 0x209 SWAP2 SWAP1 PUSH2 0x1088 JUMP JUMPDEST PUSH2 0x685 JUMP JUMPDEST PUSH1 0x40 MLOAD PUSH2 0x21E SWAP5 SWAP4 SWAP3 SWAP2 SWAP1 PUSH2 0x1123 JUMP JUMPDEST PUSH1 0x40 MLOAD DUP1 SWAP2 SUB SWAP1 RETURN JUMPDEST CALLVALUE DUP1 ISZERO PUSH2 0x232 JUMPI PUSH0 PUSH0 REVERT JUMPDEST POP PUSH2 0x24D PUSH1 0x4 DUP1 CALLDATASIZE SUB DUP2 ADD SWAP1 PUSH2 0x248 SWAP2 SWAP1 PUSH2 0x1299 JUMP JUMPDEST PUSH2 0x756 JUMP JUMPDEST STOP JUMPDEST PUSH2 0x257 PUSH2 0x8C3 JUMP JUMPDEST STOP JUMPDEST CALLVALUE DUP1 ISZERO PUSH2 0x264 JUMPI PUSH0 PUSH0 REVERT JUMPDEST POP PUSH2 0x27F PUSH1 0x4 DUP1 CALLDATASIZE SUB DUP2 ADD SWAP1 PUSH2 0x27A SWAP2 SWAP1 PUSH2 0x12E0 JUMP JUMPDEST PUSH2 0xA50 JUMP JUMPDEST STOP JUMPDEST CALLVALUE DUP1 ISZERO PUSH2 0x28C JUMPI PUSH0 PUSH0 REVERT JUMPDEST POP PUSH2 0x295 PUSH2 0xCB6 JUMP JUMPDEST PUSH1 0x40 MLOAD PUSH2 0x2A2 SWAP2 SWAP1 PUSH2 0x14BB JUMP JUMPDEST PUSH1 0x40 MLOAD DUP1 SWAP2 SUB SWAP1 RETURN JUMPDEST PUSH0 PUSH0 SWAP1 SLOAD SWAP1 PUSH2 0x100 EXP SWAP1 DIV PUSH20 0xFFFFFFFFFFFFFFFFFFFFFFFFFFFFFFFFFFFFFFFF AND PUSH20 0xFFFFFFFFFFFFFFFFFFFFFFFFFFFFFFFFFFFFFFFF AND CALLER PUSH20 0xFFFFFFFFFFFFFFFFFFFFFFFFFFFFFFFFFFFFFFFF AND EQ PUSH2 0x33B JUMPI CALLER PUSH1 0x40 MLOAD PUSH32 0x8E4A23D600000000000000000000000000000000000000000000000000000000 DUP2 MSTORE PUSH1 0x4 ADD PUSH2 0x332 SWAP2 SWAP1 PUSH2 0x1045 JUMP JUMPDEST PUSH1 0x40 MLOAD DUP1 SWAP2 SUB SWAP1 REVERT JUMPDEST JUMP JUMPDEST CALLER PUSH0 PUSH20 0xFFFFFFFFFFFFFFFFFFFFFFFFFFFFFFFFFFFFFFFF AND PUSH1 0x2 PUSH0 DUP4 PUSH20 0xFFFFFFFFFFFFFFFFFFFFFFFFFFFFFFFFFFFFFFFF AND PUSH20 0xFFFFFFFFFFFFFFFFFFFFFFFFFFFFFFFFFFFFFFFF AND DUP2 MSTORE PUSH1 0x20 ADD SWAP1 DUP2 MSTORE PUSH1 0x20 ADD PUSH0 KECCAK256 PUSH1 0x2 ADD PUSH0 SWAP1 SLOAD SWAP1 PUSH2 0x100 EXP SWAP1 DIV PUSH20 0xFFFFFFFFFFFFFFFFFFFFFFFFFFFFFFFFFFFFFFFF AND PUSH20 0xFFFFFFFFFFFFFFFFFFFFFFFFFFFFFFFFFFFFFFFF AND SUB PUSH2 0x40B JUMPI PUSH1 0x40 MLOAD PUSH32 0x8C379A000000000000000000000000000000000000000000000000000000000 DUP2 MSTORE PUSH1 0x4 ADD PUSH2 0x402 SWAP1 PUSH2 0x1525 JUMP JUMPDEST PUSH1 0x40 MLOAD DUP1 SWAP2 SUB SWAP1 REVERT JUMPDEST PUSH0 PUSH0 SWAP1 SLOAD SWAP1 PUSH2 0x100 EXP SWAP1 DIV PUSH20 0xFFFFFFFFFFFFFFFFFFFFFFFFFFFFFFFFFFFFFFFF AND PUSH20 0xFFFFFFFFFFFFFFFFFFFFFFFFFFFFFFFFFFFFFFFF AND CALLER PUSH20 0xFFFFFFFFFFFFFFFFFFFFFFFFFFFFFFFFFFFFFFFF AND EQ PUSH2 0x499 JUMPI PUSH1 0x40 MLOAD PUSH32 0x8C379A000000000000000000000000000000000000000000000000000000000 DUP2 MSTORE PUSH1 0x4 ADD PUSH2 0x490 SWAP1 PUSH2 0x158D JUMP JUMPDEST PUSH1 0x40 MLOAD DUP1 SWAP2 SUB SWAP1 REVERT JUMPDEST DUP2 PUSH1 0x2 PUSH0 CALLER PUSH20 0xFFFFFFFFFFFFFFFFFFFFFFFFFFFFFFFFFFFFFFFF AND PUSH20 0xFFFFFFFFFFFFFFFFFFFFFFFFFFFFFFFFFFFFFFFF AND DUP2 MSTORE PUSH1 0x20 ADD SWAP1 DUP2 MSTORE PUSH1 0x20 ADD PUSH0 KECCAK256 PUSH1 0x3 ADD SLOAD LT ISZERO PUSH2 0x51C JUMPI PUSH1 0x40 MLOAD PUSH32 0x8C379A000000000000000000000000000000000000000000000000000000000 DUP2 MSTORE PUSH1 0x4 ADD PUSH2 0x513 SWAP1 PUSH2 0x15F5 JUMP JUMPDEST PUSH1 0x40 MLOAD DUP1 SWAP2 SUB SWAP1 REVERT JUMPDEST DUP2 PUSH1 0x2 PUSH0 CALLER PUSH20 0xFFFFFFFFFFFFFFFFFFFFFFFFFFFFFFFFFFFFFFFF AND PUSH20 0xFFFFFFFFFFFFFFFFFFFFFFFFFFFFFFFFFFFFFFFF AND DUP2 MSTORE PUSH1 0x20 ADD SWAP1 DUP2 MSTORE PUSH1 0x20 ADD PUSH0 KECCAK256 PUSH1 0x3 ADD PUSH0 DUP3 DUP3 SLOAD PUSH2 0x56B SWAP2 SWAP1 PUSH2 0x1613 JUMP JUMPDEST SWAP3 POP POP DUP2 SWAP1 SSTORE POP DUP2 PUSH1 0x1 PUSH0 DUP3 DUP3 SLOAD PUSH2 0x583 SWAP2 SWAP1 PUSH2 0x1613 JUMP JUMPDEST SWAP3 POP POP DUP2 SWAP1 SSTORE POP CALLER PUSH20 0xFFFFFFFFFFFFFFFFFFFFFFFFFFFFFFFFFFFFFFFF AND PUSH2 0x8FC DUP4 SWAP1 DUP2 ISZERO MUL SWAP1 PUSH1 0x40 MLOAD PUSH0 PUSH1 0x40 MLOAD DUP1 DUP4 SUB DUP2 DUP6 DUP9 DUP9 CALL SWAP4 POP POP POP POP ISZERO DUP1 ISZERO PUSH2 0x5CD JUMPI RETURNDATASIZE PUSH0 PUSH0 RETURNDATACOPY RETURNDATASIZE PUSH0 REVERT JUMPDEST POP CALLER PUSH20 0xFFFFFFFFFFFFFFFFFFFFFFFFFFFFFFFFFFFFFFFF AND PUSH32 0x6097061AEDA806B5E9CB4133D9899F332FF0913956567FC0F7EA15E3D19947C DUP4 PUSH1 0x40 MLOAD PUSH2 0x614 SWAP2 SWAP1 PUSH2 0xF87 JUMP JUMPDEST PUSH1 0x40 MLOAD DUP1 SWAP2 SUB SWAP1 LOG2 POP POP JUMP JUMPDEST PUSH1 0x3 DUP2 DUP2 SLOAD DUP2 LT PUSH2 0x62F JUMPI PUSH0 DUP1 REVERT JUMPDEST SWAP1 PUSH0 MSTORE PUSH1 0x20 PUSH0 KECCAK256 ADD PUSH0 SWAP2 POP SLOAD SWAP1 PUSH2 0x100 EXP SWAP1 DIV PUSH20 0xFFFFFFFFFFFFFFFFFFFFFFFFFFFFFFFFFFFFFFFF AND DUP2 JUMP JUMPDEST PUSH1 0x1 SLOAD DUP2 JUMP JUMPDEST PUSH0 PUSH0 SWAP1 SLOAD SWAP1 PUSH2 0x100 EXP SWAP1 DIV PUSH20 0xFFFFFFFFFFFFFFFFFFFFFFFFFFFFFFFFFFFFFFFF AND DUP2 JUMP JUMPDEST PUSH1 0x2 PUSH1 0x20 MSTORE DUP1 PUSH0 MSTORE PUSH1 0x40 PUSH0 KECCAK256 PUSH0 SWAP2 POP SWAP1 POP DUP1 PUSH0 ADD DUP1 SLOAD PUSH2 0x6A4 SWAP1 PUSH2 0x1673 JUMP JUMPDEST DUP1 PUSH1 0x1F ADD PUSH1 0x20 DUP1 SWAP2 DIV MUL PUSH1 0x20 ADD PUSH1 0x40 MLOAD SWAP1 DUP2 ADD PUSH1 0x40 MSTORE DUP1 SWAP3 SWAP2 SWAP1 DUP2 DUP2 MSTORE PUSH1 0x20 ADD DUP3 DUP1 SLOAD PUSH2 0x6D0 SWAP1 PUSH2 0x1673 JUMP JUMPDEST DUP1 ISZERO PUSH2 0x71B JUMPI DUP1 PUSH1 0x1F LT PUSH2 0x6F2 JUMPI PUSH2 0x100 DUP1 DUP4 SLOAD DIV MUL DUP4 MSTORE SWAP2 PUSH1 0x20 ADD SWAP2 PUSH2 0x71B JUMP JUMPDEST DUP3 ADD SWAP2 SWAP1 PUSH0 MSTORE PUSH1 0x20 PUSH0 KECCAK256 SWAP1 JUMPDEST DUP2 SLOAD DUP2 MSTORE SWAP1 PUSH1 0x1 ADD SWAP1 PUSH1 0x20 ADD DUP1 DUP4 GT PUSH2 0x6FE JUMPI DUP3 SWAP1 SUB PUSH1 0x1F AND DUP3 ADD SWAP2 JUMPDEST POP POP POP POP POP SWAP1 DUP1 PUSH1 0x1 ADD SLOAD SWAP1 DUP1 PUSH1 0x2 ADD PUSH0 SWAP1 SLOAD SWAP1 PUSH2 0x100 EXP SWAP1 DIV PUSH20 0xFFFFFFFFFFFFFFFFFFFFFFFFFFFFFFFFFFFFFFFF AND SWAP1 DUP1 PUSH1 0x3 ADD SLOAD SWAP1 POP DUP5 JUMP JUMPDEST CALLER PUSH0 PUSH20 0xFFFFFFFFFFFFFFFFFFFFFFFFFFFFFFFFFFFFFFFF AND PUSH1 0x2 PUSH0 DUP4 PUSH20 0xFFFFFFFFFFFFFFFFFFFFFFFFFFFFFFFFFFFFFFFF AND PUSH20 0xFFFFFFFFFFFFFFFFFFFFFFFFFFFFFFFFFFFFFFFF AND DUP2 MSTORE PUSH1 0x20 ADD SWAP1 DUP2 MSTORE PUSH1 0x20 ADD PUSH0 KECCAK256 PUSH1 0x2 ADD PUSH0 SWAP1 SLOAD SWAP1 PUSH2 0x100 EXP SWAP1 DIV PUSH20 0xFFFFFFFFFFFFFFFFFFFFFFFFFFFFFFFFFFFFFFFF AND PUSH20 0xFFFFFFFFFFFFFFFFFFFFFFFFFFFFFFFFFFFFFFFF AND SUB PUSH2 0x824 JUMPI PUSH1 0x40 MLOAD PUSH32 0x8C379A000000000000000000000000000000000000000000000000000000000 DUP2 MSTORE PUSH1 0x4 ADD PUSH2 0x81B SWAP1 PUSH2 0x1525 JUMP JUMPDEST PUSH1 0x40 MLOAD DUP1 SWAP2 SUB SWAP1 REVERT JUMPDEST DUP2 PUSH1 0x2 PUSH0 CALLER PUSH20 0xFFFFFFFFFFFFFFFFFFFFFFFFFFFFFFFFFFFFFFFF AND PUSH20 0xFFFFFFFFFFFFFFFFFFFFFFFFFFFFFFFFFFFFFFFF AND DUP2 MSTORE PUSH1 0x20 ADD SWAP1 DUP2 MSTORE PUSH1 0x20 ADD PUSH0 KECCAK256 PUSH0 ADD SWAP1 DUP2 PUSH2 0x870 SWAP2 SWAP1 PUSH2 0x1854 JUMP JUMPDEST POP CALLER PUSH20 0xFFFFFFFFFFFFFFFFFFFFFFFFFFFFFFFFFFFFFFFF AND PUSH32 0xD6136F3CAD7C60BFC24BBF1548F39F766CA8BCE104BF9ADDE3DEB6237DEC51DF DUP4 PUSH1 0x40 MLOAD PUSH2 0x8B7 SWAP2 SWAP1 PUSH2 0x1923 JUMP JUMPDEST PUSH1 0x40 MLOAD DUP1 SWAP2 SUB SWAP1 LOG2 POP POP JUMP JUMPDEST CALLER PUSH0 PUSH20 0xFFFFFFFFFFFFFFFFFFFFFFFFFFFFFFFFFFFFFFFF AND PUSH1 0x2 PUSH0 DUP4 PUSH20 0xFFFFFFFFFFFFFFFFFFFFFFFFFFFFFFFFFFFFFFFF AND PUSH20 0xFFFFFFFFFFFFFFFFFFFFFFFFFFFFFFFFFFFFFFFF AND DUP2 MSTORE PUSH1 0x20 ADD SWAP1 DUP2 MSTORE PUSH1 0x20 ADD PUSH0 KECCAK256 PUSH1 0x2 ADD PUSH0 SWAP1 SLOAD SWAP1 PUSH2 0x100 EXP SWAP1 DIV PUSH20 0xFFFFFFFFFFFFFFFFFFFFFFFFFFFFFFFFFFFFFFFF AND PUSH20 0xFFFFFFFFFFFFFFFFFFFFFFFFFFFFFFFFFFFFFFFF AND SUB PUSH2 0x991 JUMPI PUSH1 0x40 MLOAD PUSH32 0x8C379A000000000000000000000000000000000000000000000000000000000 DUP2 MSTORE PUSH1 0x4 ADD PUSH2 0x988 SWAP1 PUSH2 0x1525 JUMP JUMPDEST PUSH1 0x40 MLOAD DUP1 SWAP2 SUB SWAP1 REVERT JUMPDEST CALLVALUE PUSH1 0x2 PUSH0 CALLER PUSH20 0xFFFFFFFFFFFFFFFFFFFFFFFFFFFFFFFFFFFFFFFF AND PUSH20 0xFFFFFFFFFFFFFFFFFFFFFFFFFFFFFFFFFFFFFFFF AND DUP2 MSTORE PUSH1 0x20 ADD SWAP1 DUP2 MSTORE PUSH1 0x20 ADD PUSH0 KECCAK256 PUSH1 0x3 ADD PUSH0 DUP3 DUP3 SLOAD PUSH2 0x9E0 SWAP2 SWAP1 PUSH2 0xF45 JUMP JUMPDEST SWAP3 POP POP DUP2 SWAP1 SSTORE POP CALLVALUE PUSH1 0x1 PUSH0 DUP3 DUP3 SLOAD PUSH2 0x9F8 SWAP2 SWAP1 PUSH2 0xF45 JUMP JUMPDEST SWAP3 POP POP DUP2 SWAP1 SSTORE POP CALLER PUSH20 0xFFFFFFFFFFFFFFFFFFFFFFFFFFFFFFFFFFFFFFFF AND PUSH32 0x939E51AC2FD009B158D6344F7E68A83D8D18D9B0CC88CF514AAC6AAA9CAD2A18 CALLVALUE PUSH1 0x40 MLOAD PUSH2 0xA45 SWAP2 SWAP1 PUSH2 0xF87 JUMP JUMPDEST PUSH1 0x40 MLOAD DUP1 SWAP2 SUB SWAP1 LOG2 POP JUMP JUMPDEST PUSH0 PUSH20 0xFFFFFFFFFFFFFFFFFFFFFFFFFFFFFFFFFFFFFFFF AND PUSH1 0x2 PUSH0 CALLER PUSH20 0xFFFFFFFFFFFFFFFFFFFFFFFFFFFFFFFFFFFFFFFF AND PUSH20 0xFFFFFFFFFFFFFFFFFFFFFFFFFFFFFFFFFFFFFFFF AND DUP2 MSTORE PUSH1 0x20 ADD SWAP1 DUP2 MSTORE PUSH1 0x20 ADD PUSH0 KECCAK256 PUSH1 0x2 ADD PUSH0 SWAP1 SLOAD SWAP1 PUSH2 0x100 EXP SWAP1 DIV PUSH20 0xFFFFFFFFFFFFFFFFFFFFFFFFFFFFFFFFFFFFFFFF AND PUSH20 0xFFFFFFFFFFFFFFFFFFFFFFFFFFFFFFFFFFFFFFFF AND EQ PUSH2 0xB1D JUMPI PUSH1 0x40 MLOAD PUSH32 0x8C379A000000000000000000000000000000000000000000000000000000000 DUP2 MSTORE PUSH1 0x4 ADD PUSH2 0xB14 SWAP1 PUSH2 0x198D JUMP JUMPDEST PUSH1 0x40 MLOAD DUP1 SWAP2 SUB SWAP1 REVERT JUMPDEST PUSH1 0x40 MLOAD DUP1 PUSH1 0x80 ADD PUSH1 0x40 MSTORE DUP1 DUP4 DUP2 MSTORE PUSH1 0x20 ADD DUP3 DUP2 MSTORE PUSH1 0x20 ADD CALLER PUSH20 0xFFFFFFFFFFFFFFFFFFFFFFFFFFFFFFFFFFFFFFFF AND DUP2 MSTORE PUSH1 0x20 ADD PUSH0 DUP2 MSTORE POP PUSH1 0x2 PUSH0 CALLER PUSH20 0xFFFFFFFFFFFFFFFFFFFFFFFFFFFFFFFFFFFFFFFF AND PUSH20 0xFFFFFFFFFFFFFFFFFFFFFFFFFFFFFFFFFFFFFFFF AND DUP2 MSTORE PUSH1 0x20 ADD SWAP1 DUP2 MSTORE PUSH1 0x20 ADD PUSH0 KECCAK256 PUSH0 DUP3 ADD MLOAD DUP2 PUSH0 ADD SWAP1 DUP2 PUSH2 0xBA4 SWAP2 SWAP1 PUSH2 0x1854 JUMP JUMPDEST POP PUSH1 0x20 DUP3 ADD MLOAD DUP2 PUSH1 0x1 ADD SSTORE PUSH1 0x40 DUP3 ADD MLOAD DUP2 PUSH1 0x2 ADD PUSH0 PUSH2 0x100 EXP DUP2 SLOAD DUP2 PUSH20 0xFFFFFFFFFFFFFFFFFFFFFFFFFFFFFFFFFFFFFFFF MUL NOT AND SWAP1 DUP4 PUSH20 0xFFFFFFFFFFFFFFFFFFFFFFFFFFFFFFFFFFFFFFFF AND MUL OR SWAP1 SSTORE POP PUSH1 0x60 DUP3 ADD MLOAD DUP2 PUSH1 0x3 ADD SSTORE SWAP1 POP POP PUSH1 0x3 CALLER SWAP1 DUP1 PUSH1 0x1 DUP2 SLOAD ADD DUP1 DUP3 SSTORE DUP1 SWAP2 POP POP PUSH1 0x1 SWAP1 SUB SWAP1 PUSH0 MSTORE PUSH1 0x20 PUSH0 KECCAK256 ADD PUSH0 SWAP1 SWAP2 SWAP1 SWAP2 SWAP1 SWAP2 PUSH2 0x100 EXP DUP2 SLOAD DUP2 PUSH20 0xFFFFFFFFFFFFFFFFFFFFFFFFFFFFFFFFFFFFFFFF MUL NOT AND SWAP1 DUP4 PUSH20 0xFFFFFFFFFFFFFFFFFFFFFFFFFFFFFFFFFFFFFFFF AND MUL OR SWAP1 SSTORE POP CALLER PUSH20 0xFFFFFFFFFFFFFFFFFFFFFFFFFFFFFFFFFFFFFFFF AND PUSH32 0x89105A1C6A3C2FBD471255C66A31CCAB604AF5697F67D7E2E9A0028C5E4DBD91 DUP4 DUP4 PUSH1 0x40 MLOAD PUSH2 0xCAA SWAP3 SWAP2 SWAP1 PUSH2 0x19AB JUMP JUMPDEST PUSH1 0x40 MLOAD DUP1 SWAP2 SUB SWAP1 LOG2 POP POP JUMP JUMPDEST PUSH1 0x60 PUSH0 PUSH1 0x3 DUP1 SLOAD SWAP1 POP PUSH8 0xFFFFFFFFFFFFFFFF DUP2 GT ISZERO PUSH2 0xCD8 JUMPI PUSH2 0xCD7 PUSH2 0x1175 JUMP JUMPDEST JUMPDEST PUSH1 0x40 MLOAD SWAP1 DUP1 DUP3 MSTORE DUP1 PUSH1 0x20 MUL PUSH1 0x20 ADD DUP3 ADD PUSH1 0x40 MSTORE DUP1 ISZERO PUSH2 0xD11 JUMPI DUP2 PUSH1 0x20 ADD JUMPDEST PUSH2 0xCFE PUSH2 0xED4 JUMP JUMPDEST DUP2 MSTORE PUSH1 0x20 ADD SWAP1 PUSH1 0x1 SWAP1 SUB SWAP1 DUP2 PUSH2 0xCF6 JUMPI SWAP1 POP JUMPDEST POP SWAP1 POP PUSH0 PUSH0 SWAP1 POP JUMPDEST PUSH1 0x3 DUP1 SLOAD SWAP1 POP DUP2 LT ISZERO PUSH2 0xECC JUMPI PUSH1 0x2 PUSH0 PUSH1 0x3 DUP4 DUP2 SLOAD DUP2 LT PUSH2 0xD3D JUMPI PUSH2 0xD3C PUSH2 0x19D9 JUMP JUMPDEST JUMPDEST SWAP1 PUSH0 MSTORE PUSH1 0x20 PUSH0 KECCAK256 ADD PUSH0 SWAP1 SLOAD SWAP1 PUSH2 0x100 EXP SWAP1 DIV PUSH20 0xFFFFFFFFFFFFFFFFFFFFFFFFFFFFFFFFFFFFFFFF AND PUSH20 0xFFFFFFFFFFFFFFFFFFFFFFFFFFFFFFFFFFFFFFFF AND PUSH20 0xFFFFFFFFFFFFFFFFFFFFFFFFFFFFFFFFFFFFFFFF AND DUP2 MSTORE PUSH1 0x20 ADD SWAP1 DUP2 MSTORE PUSH1 0x20 ADD PUSH0 KECCAK256 PUSH1 0x40 MLOAD DUP1 PUSH1 0x80 ADD PUSH1 0x40 MSTORE SWAP1 DUP2 PUSH0 DUP3 ADD DUP1 SLOAD PUSH2 0xDB8 SWAP1 PUSH2 0x1673 JUMP JUMPDEST DUP1 PUSH1 0x1F ADD PUSH1 0x20 DUP1 SWAP2 DIV MUL PUSH1 0x20 ADD PUSH1 0x40 MLOAD SWAP1 DUP2 ADD PUSH1 0x40 MSTORE DUP1 SWAP3 SWAP2 SWAP1 DUP2 DUP2 MSTORE PUSH1 0x20 ADD DUP3 DUP1 SLOAD PUSH2 0xDE4 SWAP1 PUSH2 0x1673 JUMP JUMPDEST DUP1 ISZERO PUSH2 0xE2F JUMPI DUP1 PUSH1 0x1F LT PUSH2 0xE06 JUMPI PUSH2 0x100 DUP1 DUP4 SLOAD DIV MUL DUP4 MSTORE SWAP2 PUSH1 0x20 ADD SWAP2 PUSH2 0xE2F JUMP JUMPDEST DUP3 ADD SWAP2 SWAP1 PUSH0 MSTORE PUSH1 0x20 PUSH0 KECCAK256 SWAP1 JUMPDEST DUP2 SLOAD DUP2 MSTORE SWAP1 PUSH1 0x1 ADD SWAP1 PUSH1 0x20 ADD DUP1 DUP4 GT PUSH2 0xE12 JUMPI DUP3 SWAP1 SUB PUSH1 0x1F AND DUP3 ADD SWAP2 JUMPDEST POP POP POP POP POP DUP2 MSTORE PUSH1 0x20 ADD PUSH1 0x1 DUP3 ADD SLOAD DUP2 MSTORE PUSH1 0x20 ADD PUSH1 0x2 DUP3 ADD PUSH0 SWAP1 SLOAD SWAP1 PUSH2 0x100 EXP SWAP1 DIV PUSH20 0xFFFFFFFFFFFFFFFFFFFFFFFFFFFFFFFFFFFFFFFF AND PUSH20 0xFFFFFFFFFFFFFFFFFFFFFFFFFFFFFFFFFFFFFFFF AND PUSH20 0xFFFFFFFFFFFFFFFFFFFFFFFFFFFFFFFFFFFFFFFF AND DUP2 MSTORE PUSH1 0x20 ADD PUSH1 0x3 DUP3 ADD SLOAD DUP2 MSTORE POP POP DUP3 DUP3 DUP2 MLOAD DUP2 LT PUSH2 0xEB4 JUMPI PUSH2 0xEB3 PUSH2 0x19D9 JUMP JUMPDEST JUMPDEST PUSH1 0x20 MUL PUSH1 0x20 ADD ADD DUP2 SWAP1 MSTORE POP DUP1 DUP1 PUSH1 0x1 ADD SWAP2 POP POP PUSH2 0xD19 JUMP JUMPDEST POP DUP1 SWAP2 POP POP SWAP1 JUMP JUMPDEST PUSH1 0x40 MLOAD DUP1 PUSH1 0x80 ADD PUSH1 0x40 MSTORE DUP1 PUSH1 0x60 DUP2 MSTORE PUSH1 0x20 ADD PUSH0 DUP2 MSTORE PUSH1 0x20 ADD PUSH0 PUSH20 0xFFFFFFFFFFFFFFFFFFFFFFFFFFFFFFFFFFFFFFFF AND DUP2 MSTORE PUSH1 0x20 ADD PUSH0 DUP2 MSTORE POP SWAP1 JUMP JUMPDEST PUSH0 DUP2 SWAP1 POP SWAP2 SWAP1 POP JUMP JUMPDEST PUSH32 0x4E487B7100000000000000000000000000000000000000000000000000000000 PUSH0 MSTORE PUSH1 0x11 PUSH1 0x4 MSTORE PUSH1 0x24 PUSH0 REVERT JUMPDEST PUSH0 PUSH2 0xF4F DUP3 PUSH2 0xF0F JUMP JUMPDEST SWAP2 POP PUSH2 0xF5A DUP4 PUSH2 0xF0F JUMP JUMPDEST SWAP3 POP DUP3 DUP3 ADD SWAP1 POP DUP1 DUP3 GT ISZERO PUSH2 0xF72 JUMPI PUSH2 0xF71 PUSH2 0xF18 JUMP JUMPDEST JUMPDEST SWAP3 SWAP2 POP POP JUMP JUMPDEST PUSH2 0xF81 DUP2 PUSH2 0xF0F JUMP JUMPDEST DUP3 MSTORE POP POP JUMP JUMPDEST PUSH0 PUSH1 0x20 DUP3 ADD SWAP1 POP PUSH2 0xF9A PUSH0 DUP4 ADD DUP5 PUSH2 0xF78 JUMP JUMPDEST SWAP3 SWAP2 POP POP JUMP JUMPDEST PUSH0 PUSH1 0x40 MLOAD SWAP1 POP SWAP1 JUMP JUMPDEST PUSH0 PUSH0 REVERT JUMPDEST PUSH0 PUSH0 REVERT JUMPDEST PUSH2 0xFBA DUP2 PUSH2 0xF0F JUMP JUMPDEST DUP2 EQ PUSH2 0xFC4 JUMPI PUSH0 PUSH0 REVERT JUMPDEST POP JUMP JUMPDEST PUSH0 DUP2 CALLDATALOAD SWAP1 POP PUSH2 0xFD5 DUP2 PUSH2 0xFB1 JUMP JUMPDEST SWAP3 SWAP2 POP POP JUMP JUMPDEST PUSH0 PUSH1 0x20 DUP3 DUP5 SUB SLT ISZERO PUSH2 0xFF0 JUMPI PUSH2 0xFEF PUSH2 0xFA9 JUMP JUMPDEST JUMPDEST PUSH0 PUSH2 0xFFD DUP5 DUP3 DUP6 ADD PUSH2 0xFC7 JUMP JUMPDEST SWAP2 POP POP SWAP3 SWAP2 POP POP JUMP JUMPDEST PUSH0 PUSH20 0xFFFFFFFFFFFFFFFFFFFFFFFFFFFFFFFFFFFFFFFF DUP3 AND SWAP1 POP SWAP2 SWAP1 POP JUMP JUMPDEST PUSH0 PUSH2 0x102F DUP3 PUSH2 0x1006 JUMP JUMPDEST SWAP1 POP SWAP2 SWAP1 POP JUMP JUMPDEST PUSH2 0x103F DUP2 PUSH2 0x1025 JUMP JUMPDEST DUP3 MSTORE POP POP JUMP JUMPDEST PUSH0 PUSH1 0x20 DUP3 ADD SWAP1 POP PUSH2 0x1058 PUSH0 DUP4 ADD DUP5 PUSH2 0x1036 JUMP JUMPDEST SWAP3 SWAP2 POP POP JUMP JUMPDEST PUSH2 0x1067 DUP2 PUSH2 0x1025 JUMP JUMPDEST DUP2 EQ PUSH2 0x1071 JUMPI PUSH0 PUSH0 REVERT JUMPDEST POP JUMP JUMPDEST PUSH0 DUP2 CALLDATALOAD SWAP1 POP PUSH2 0x1082 DUP2 PUSH2 0x105E JUMP JUMPDEST SWAP3 SWAP2 POP POP JUMP JUMPDEST PUSH0 PUSH1 0x20 DUP3 DUP5 SUB SLT ISZERO PUSH2 0x109D JUMPI PUSH2 0x109C PUSH2 0xFA9 JUMP JUMPDEST JUMPDEST PUSH0 PUSH2 0x10AA DUP5 DUP3 DUP6 ADD PUSH2 0x1074 JUMP JUMPDEST SWAP2 POP POP SWAP3 SWAP2 POP POP JUMP JUMPDEST PUSH0 DUP2 MLOAD SWAP1 POP SWAP2 SWAP1 POP JUMP JUMPDEST PUSH0 DUP3 DUP3 MSTORE PUSH1 0x20 DUP3 ADD SWAP1 POP SWAP3 SWAP2 POP POP JUMP JUMPDEST DUP3 DUP2 DUP4 MCOPY PUSH0 DUP4 DUP4 ADD MSTORE POP POP POP JUMP JUMPDEST PUSH0 PUSH1 0x1F NOT PUSH1 0x1F DUP4 ADD AND SWAP1 POP SWAP2 SWAP1 POP JUMP JUMPDEST PUSH0 PUSH2 0x10F5 DUP3 PUSH2 0x10B3 JUMP JUMPDEST PUSH2 0x10FF DUP2 DUP6 PUSH2 0x10BD JUMP JUMPDEST SWAP4 POP PUSH2 0x110F DUP2 DUP6 PUSH1 0x20 DUP7 ADD PUSH2 0x10CD JUMP JUMPDEST PUSH2 0x1118 DUP2 PUSH2 0x10DB JUMP JUMPDEST DUP5 ADD SWAP2 POP POP SWAP3 SWAP2 POP POP JUMP JUMPDEST PUSH0 PUSH1 0x80 DUP3 ADD SWAP1 POP DUP2 DUP2 SUB PUSH0 DUP4 ADD MSTORE PUSH2 0x113B DUP2 DUP8 PUSH2 0x10EB JUMP JUMPDEST SWAP1 POP PUSH2 0x114A PUSH1 0x20 DUP4 ADD DUP7 PUSH2 0xF78 JUMP JUMPDEST PUSH2 0x1157 PUSH1 0x40 DUP4 ADD DUP6 PUSH2 0x1036 JUMP JUMPDEST PUSH2 0x1164 PUSH1 0x60 DUP4 ADD DUP5 PUSH2 0xF78 JUMP JUMPDEST SWAP6 SWAP5 POP POP POP POP POP JUMP JUMPDEST PUSH0 PUSH0 REVERT JUMPDEST PUSH0 PUSH0 REVERT JUMPDEST PUSH32 0x4E487B7100000000000000000000000000000000000000000000000000000000 PUSH0 MSTORE PUSH1 0x41 PUSH1 0x4 MSTORE PUSH1 0x24 PUSH0 REVERT JUMPDEST PUSH2 0x11AB DUP3 PUSH2 0x10DB JUMP JUMPDEST DUP2 ADD DUP2 DUP2 LT PUSH8 0xFFFFFFFFFFFFFFFF DUP3 GT OR ISZERO PUSH2 0x11CA JUMPI PUSH2 0x11C9 PUSH2 0x1175 JUMP JUMPDEST JUMPDEST DUP1 PUSH1 0x40 MSTORE POP POP POP JUMP JUMPDEST PUSH0 PUSH2 0x11DC PUSH2 0xFA0 JUMP JUMPDEST SWAP1 POP PUSH2 0x11E8 DUP3 DUP3 PUSH2 0x11A2 JUMP JUMPDEST SWAP2 SWAP1 POP JUMP JUMPDEST PUSH0 PUSH8 0xFFFFFFFFFFFFFFFF DUP3 GT ISZERO PUSH2 0x1207 JUMPI PUSH2 0x1206 PUSH2 0x1175 JUMP JUMPDEST JUMPDEST PUSH2 0x1210 DUP3 PUSH2 0x10DB JUMP JUMPDEST SWAP1 POP PUSH1 0x20 DUP2 ADD SWAP1 POP SWAP2 SWAP1 POP JUMP JUMPDEST DUP3 DUP2 DUP4 CALLDATACOPY PUSH0 DUP4 DUP4 ADD MSTORE POP POP POP JUMP JUMPDEST PUSH0 PUSH2 0x123D PUSH2 0x1238 DUP5 PUSH2 0x11ED JUMP JUMPDEST PUSH2 0x11D3 JUMP JUMPDEST SWAP1 POP DUP3 DUP2 MSTORE PUSH1 0x20 DUP2 ADD DUP5 DUP5 DUP5 ADD GT ISZERO PUSH2 0x1259 JUMPI PUSH2 0x1258 PUSH2 0x1171 JUMP JUMPDEST JUMPDEST PUSH2 0x1264 DUP5 DUP3 DUP6 PUSH2 0x121D JUMP JUMPDEST POP SWAP4 SWAP3 POP POP POP JUMP JUMPDEST PUSH0 DUP3 PUSH1 0x1F DUP4 ADD SLT PUSH2 0x1280 JUMPI PUSH2 0x127F PUSH2 0x116D JUMP JUMPDEST JUMPDEST DUP2 CALLDATALOAD PUSH2 0x1290 DUP5 DUP3 PUSH1 0x20 DUP7 ADD PUSH2 0x122B JUMP JUMPDEST SWAP2 POP POP SWAP3 SWAP2 POP POP JUMP JUMPDEST PUSH0 PUSH1 0x20 DUP3 DUP5 SUB SLT ISZERO PUSH2 0x12AE JUMPI PUSH2 0x12AD PUSH2 0xFA9 JUMP JUMPDEST JUMPDEST PUSH0 DUP3 ADD CALLDATALOAD PUSH8 0xFFFFFFFFFFFFFFFF DUP2 GT ISZERO PUSH2 0x12CB JUMPI PUSH2 0x12CA PUSH2 0xFAD JUMP JUMPDEST JUMPDEST PUSH2 0x12D7 DUP5 DUP3 DUP6 ADD PUSH2 0x126C JUMP JUMPDEST SWAP2 POP POP SWAP3 SWAP2 POP POP JUMP JUMPDEST PUSH0 PUSH0 PUSH1 0x40 DUP4 DUP6 SUB SLT ISZERO PUSH2 0x12F6 JUMPI PUSH2 0x12F5 PUSH2 0xFA9 JUMP JUMPDEST JUMPDEST PUSH0 DUP4 ADD CALLDATALOAD PUSH8 0xFFFFFFFFFFFFFFFF DUP2 GT ISZERO PUSH2 0x1313 JUMPI PUSH2 0x1312 PUSH2 0xFAD JUMP JUMPDEST JUMPDEST PUSH2 0x131F DUP6 DUP3 DUP7 ADD PUSH2 0x126C JUMP JUMPDEST SWAP3 POP POP PUSH1 0x20 PUSH2 0x1330 DUP6 DUP3 DUP7 ADD PUSH2 0xFC7 JUMP JUMPDEST SWAP2 POP POP SWAP3 POP SWAP3 SWAP1 POP JUMP JUMPDEST PUSH0 DUP2 MLOAD SWAP1 POP SWAP2 SWAP1 POP JUMP JUMPDEST PUSH0 DUP3 DUP3 MSTORE PUSH1 0x20 DUP3 ADD SWAP1 POP SWAP3 SWAP2 POP POP JUMP JUMPDEST PUSH0 DUP2 SWAP1 POP PUSH1 0x20 DUP3 ADD SWAP1 POP SWAP2 SWAP1 POP JUMP JUMPDEST PUSH0 DUP3 DUP3 MSTORE PUSH1 0x20 DUP3 ADD SWAP1 POP SWAP3 SWAP2 POP POP JUMP JUMPDEST PUSH0 PUSH2 0x137D DUP3 PUSH2 0x10B3 JUMP JUMPDEST PUSH2 0x1387 DUP2 DUP6 PUSH2 0x1363 JUMP JUMPDEST SWAP4 POP PUSH2 0x1397 DUP2 DUP6 PUSH1 0x20 DUP7 ADD PUSH2 0x10CD JUMP JUMPDEST PUSH2 0x13A0 DUP2 PUSH2 0x10DB JUMP JUMPDEST DUP5 ADD SWAP2 POP POP SWAP3 SWAP2 POP POP JUMP JUMPDEST PUSH2 0x13B4 DUP2 PUSH2 0xF0F JUMP JUMPDEST DUP3 MSTORE POP POP JUMP JUMPDEST PUSH2 0x13C3 DUP2 PUSH2 0x1025 JUMP JUMPDEST DUP3 MSTORE POP POP JUMP JUMPDEST PUSH0 PUSH1 0x80 DUP4 ADD PUSH0 DUP4 ADD MLOAD DUP5 DUP3 SUB PUSH0 DUP7 ADD MSTORE PUSH2 0x13E3 DUP3 DUP3 PUSH2 0x1373 JUMP JUMPDEST SWAP2 POP POP PUSH1 0x20 DUP4 ADD MLOAD PUSH2 0x13F8 PUSH1 0x20 DUP7 ADD DUP3 PUSH2 0x13AB JUMP JUMPDEST POP PUSH1 0x40 DUP4 ADD MLOAD PUSH2 0x140B PUSH1 0x40 DUP7 ADD DUP3 PUSH2 0x13BA JUMP JUMPDEST POP PUSH1 0x60 DUP4 ADD MLOAD PUSH2 0x141E PUSH1 0x60 DUP7 ADD DUP3 PUSH2 0x13AB JUMP JUMPDEST POP DUP1 SWAP2 POP POP SWAP3 SWAP2 POP POP JUMP JUMPDEST PUSH0 PUSH2 0x1434 DUP4 DUP4 PUSH2 0x13C9 JUMP JUMPDEST SWAP1 POP SWAP3 SWAP2 POP POP JUMP JUMPDEST PUSH0 PUSH1 0x20 DUP3 ADD SWAP1 POP SWAP2 SWAP1 POP JUMP JUMPDEST PUSH0 PUSH2 0x1452 DUP3 PUSH2 0x133A JUMP JUMPDEST PUSH2 0x145C DUP2 DUP6 PUSH2 0x1344 JUMP JUMPDEST SWAP4 POP DUP4 PUSH1 0x20 DUP3 MUL DUP6 ADD PUSH2 0x146E DUP6 PUSH2 0x1354 JUMP JUMPDEST DUP1 PUSH0 JUMPDEST DUP6 DUP2 LT ISZERO PUSH2 0x14A9 JUMPI DUP5 DUP5 SUB DUP10 MSTORE DUP2 MLOAD PUSH2 0x148A DUP6 DUP3 PUSH2 0x1429 JUMP JUMPDEST SWAP5 POP PUSH2 0x1495 DUP4 PUSH2 0x143C JUMP JUMPDEST SWAP3 POP PUSH1 0x20 DUP11 ADD SWAP10 POP POP PUSH1 0x1 DUP2 ADD SWAP1 POP PUSH2 0x1471 JUMP JUMPDEST POP DUP3 SWAP8 POP DUP8 SWAP6 POP POP POP POP POP POP SWAP3 SWAP2 POP POP JUMP JUMPDEST PUSH0 PUSH1 0x20 DUP3 ADD SWAP1 POP DUP2 DUP2 SUB PUSH0 DUP4 ADD MSTORE PUSH2 0x14D3 DUP2 DUP5 PUSH2 0x1448 JUMP JUMPDEST SWAP1 POP SWAP3 SWAP2 POP POP JUMP JUMPDEST PUSH32 0x5573657220646F6573206E6F7420657869737400000000000000000000000000 PUSH0 DUP3 ADD MSTORE POP JUMP JUMPDEST PUSH0 PUSH2 0x150F PUSH1 0x13 DUP4 PUSH2 0x10BD JUMP JUMPDEST SWAP2 POP PUSH2 0x151A DUP3 PUSH2 0x14DB JUMP JUMPDEST PUSH1 0x20 DUP3 ADD SWAP1 POP SWAP2 SWAP1 POP JUMP JUMPDEST PUSH0 PUSH1 0x20 DUP3 ADD SWAP1 POP DUP2 DUP2 SUB PUSH0 DUP4 ADD MSTORE PUSH2 0x153C DUP2 PUSH2 0x1503 JUMP JUMPDEST SWAP1 POP SWAP2 SWAP1 POP JUMP JUMPDEST PUSH32 0x4E6F74206F776E65720000000000000000000000000000000000000000000000 PUSH0 DUP3 ADD MSTORE POP JUMP JUMPDEST PUSH0 PUSH2 0x1577 PUSH1 0x9 DUP4 PUSH2 0x10BD JUMP JUMPDEST SWAP2 POP PUSH2 0x1582 DUP3 PUSH2 0x1543 JUMP JUMPDEST PUSH1 0x20 DUP3 ADD SWAP1 POP SWAP2 SWAP1 POP JUMP JUMPDEST PUSH0 PUSH1 0x20 DUP3 ADD SWAP1 POP DUP2 DUP2 SUB PUSH0 DUP4 ADD MSTORE PUSH2 0x15A4 DUP2 PUSH2 0x156B JUMP JUMPDEST SWAP1 POP SWAP2 SWAP1 POP JUMP JUMPDEST PUSH32 0x496E73756666696369656E7420757365722062616C616E636500000000000000 PUSH0 DUP3 ADD MSTORE POP JUMP JUMPDEST PUSH0 PUSH2 0x15DF PUSH1 0x19 DUP4 PUSH2 0x10BD JUMP JUMPDEST SWAP2 POP PUSH2 0x15EA DUP3 PUSH2 0x15AB JUMP JUMPDEST PUSH1 0x20 DUP3 ADD SWAP1 POP SWAP2 SWAP1 POP JUMP JUMPDEST PUSH0 PUSH1 0x20 DUP3 ADD SWAP1 POP DUP2 DUP2 SUB PUSH0 DUP4 ADD MSTORE PUSH2 0x160C DUP2 PUSH2 0x15D3 JUMP JUMPDEST SWAP1 POP SWAP2 SWAP1 POP JUMP JUMPDEST PUSH0 PUSH2 0x161D DUP3 PUSH2 0xF0F JUMP JUMPDEST SWAP2 POP PUSH2 0x1628 DUP4 PUSH2 0xF0F JUMP JUMPDEST SWAP3 POP DUP3 DUP3 SUB SWAP1 POP DUP2 DUP2 GT ISZERO PUSH2 0x1640 JUMPI PUSH2 0x163F PUSH2 0xF18 JUMP JUMPDEST JUMPDEST SWAP3 SWAP2 POP POP JUMP JUMPDEST PUSH32 0x4E487B7100000000000000000000000000000000000000000000000000000000 PUSH0 MSTORE PUSH1 0x22 PUSH1 0x4 MSTORE PUSH1 0x24 PUSH0 REVERT JUMPDEST PUSH0 PUSH1 0x2 DUP3 DIV SWAP1 POP PUSH1 0x1 DUP3 AND DUP1 PUSH2 0x168A JUMPI PUSH1 0x7F DUP3 AND SWAP2 POP JUMPDEST PUSH1 0x20 DUP3 LT DUP2 SUB PUSH2 0x169D JUMPI PUSH2 0x169C PUSH2 0x1646 JUMP JUMPDEST JUMPDEST POP SWAP2 SWAP1 POP JUMP JUMPDEST PUSH0 DUP2 SWAP1 POP DUP2 PUSH0 MSTORE PUSH1 0x20 PUSH0 KECCAK256 SWAP1 POP SWAP2 SWAP1 POP JUMP JUMPDEST PUSH0 PUSH1 0x20 PUSH1 0x1F DUP4 ADD DIV SWAP1 POP SWAP2 SWAP1 POP JUMP JUMPDEST PUSH0 DUP3 DUP3 SHL SWAP1 POP SWAP3 SWAP2 POP POP JUMP JUMPDEST PUSH0 PUSH1 0x8 DUP4 MUL PUSH2 0x16FF PUSH32 0xFFFFFFFFFFFFFFFFFFFFFFFFFFFFFFFFFFFFFFFFFFFFFFFFFFFFFFFFFFFFFFFF DUP3 PUSH2 0x16C4 JUMP JUMPDEST PUSH2 0x1709 DUP7 DUP4 PUSH2 0x16C4 JUMP JUMPDEST SWAP6 POP DUP1 NOT DUP5 AND SWAP4 POP DUP1 DUP7 AND DUP5 OR SWAP3 POP POP POP SWAP4 SWAP3 POP POP POP JUMP JUMPDEST PUSH0 DUP2 SWAP1 POP SWAP2 SWAP1 POP JUMP JUMPDEST PUSH0 PUSH2 0x1744 PUSH2 0x173F PUSH2 0x173A DUP5 PUSH2 0xF0F JUMP JUMPDEST PUSH2 0x1721 JUMP JUMPDEST PUSH2 0xF0F JUMP JUMPDEST SWAP1 POP SWAP2 SWAP1 POP JUMP JUMPDEST PUSH0 DUP2 SWAP1 POP SWAP2 SWAP1 POP JUMP JUMPDEST PUSH2 0x175D DUP4 PUSH2 0x172A JUMP JUMPDEST PUSH2 0x1771 PUSH2 0x1769 DUP3 PUSH2 0x174B JUMP JUMPDEST DUP5 DUP5 SLOAD PUSH2 0x16D0 JUMP JUMPDEST DUP3 SSTORE POP POP POP POP JUMP JUMPDEST PUSH0 PUSH0 SWAP1 POP SWAP1 JUMP JUMPDEST PUSH2 0x1788 PUSH2 0x1779 JUMP JUMPDEST PUSH2 0x1793 DUP2 DUP5 DUP5 PUSH2 0x1754 JUMP JUMPDEST POP POP POP JUMP JUMPDEST PUSH0 JUMPDEST DUP3 DUP2 LT ISZERO PUSH2 0x17B9 JUMPI PUSH2 0x17AE PUSH0 DUP3 DUP5 ADD PUSH2 0x1780 JUMP JUMPDEST PUSH1 0x1 DUP2 ADD SWAP1 POP PUSH2 0x179A JUMP JUMPDEST POP POP POP JUMP JUMPDEST PUSH1 0x1F DUP3 GT ISZERO PUSH2 0x180C JUMPI DUP3 DUP3 GT ISZERO PUSH2 0x180B JUMPI PUSH2 0x17D8 DUP2 PUSH2 0x16A3 JUMP JUMPDEST PUSH2 0x17E1 DUP4 PUSH2 0x16B5 JUMP JUMPDEST PUSH2 0x17EA DUP6 PUSH2 0x16B5 JUMP JUMPDEST PUSH1 0x20 DUP7 LT ISZERO PUSH2 0x17F7 JUMPI PUSH0 SWAP1 POP JUMPDEST DUP1 DUP4 ADD PUSH2 0x1806 DUP3 DUP5 SUB DUP3 PUSH2 0x1798 JUMP JUMPDEST POP POP POP POP JUMPDEST JUMPDEST POP POP POP JUMP JUMPDEST PUSH0 DUP3 DUP3 SHR SWAP1 POP SWAP3 SWAP2 POP POP JUMP JUMPDEST PUSH0 PUSH2 0x182C PUSH0 NOT DUP5 PUSH1 0x8 MUL PUSH2 0x1811 JUMP JUMPDEST NOT DUP1 DUP4 AND SWAP2 POP POP SWAP3 SWAP2 POP POP JUMP JUMPDEST PUSH0 PUSH2 0x1844 DUP4 DUP4 PUSH2 0x181D JUMP JUMPDEST SWAP2 POP DUP3 PUSH1 0x2 MUL DUP3 OR SWAP1 POP SWAP3 SWAP2 POP POP JUMP JUMPDEST PUSH2 0x185D DUP3 PUSH2 0x10B3 JUMP JUMPDEST PUSH8 0xFFFFFFFFFFFFFFFF DUP2 GT ISZERO PUSH2 0x1876 JUMPI PUSH2 0x1875 PUSH2 0x1175 JUMP JUMPDEST JUMPDEST PUSH2 0x1880 DUP3 SLOAD PUSH2 0x1673 JUMP JUMPDEST PUSH2 0x188B DUP3 DUP3 DUP6 PUSH2 0x17BE JUMP JUMPDEST PUSH0 PUSH1 0x20 SWAP1 POP PUSH1 0x1F DUP4 GT PUSH1 0x1 DUP2 EQ PUSH2 0x18BC JUMPI PUSH0 DUP5 ISZERO PUSH2 0x18AA JUMPI DUP3 DUP8 ADD MLOAD SWAP1 POP JUMPDEST PUSH2 0x18B4 DUP6 DUP3 PUSH2 0x1839 JUMP JUMPDEST DUP7 SSTORE POP PUSH2 0x191B JUMP JUMPDEST PUSH1 0x1F NOT DUP5 AND PUSH2 0x18CA DUP7 PUSH2 0x16A3 JUMP JUMPDEST PUSH0 JUMPDEST DUP3 DUP2 LT ISZERO PUSH2 0x18F1 JUMPI DUP5 DUP10 ADD MLOAD DUP3 SSTORE PUSH1 0x1 DUP3 ADD SWAP2 POP PUSH1 0x20 DUP6 ADD SWAP5 POP PUSH1 0x20 DUP2 ADD SWAP1 POP PUSH2 0x18CC JUMP JUMPDEST DUP7 DUP4 LT ISZERO PUSH2 0x190E JUMPI DUP5 DUP10 ADD MLOAD PUSH2 0x190A PUSH1 0x1F DUP10 AND DUP3 PUSH2 0x181D JUMP JUMPDEST DUP4 SSTORE POP JUMPDEST PUSH1 0x1 PUSH1 0x2 DUP9 MUL ADD DUP9 SSTORE POP POP POP JUMPDEST POP POP POP POP POP POP JUMP JUMPDEST PUSH0 PUSH1 0x20 DUP3 ADD SWAP1 POP DUP2 DUP2 SUB PUSH0 DUP4 ADD MSTORE PUSH2 0x193B DUP2 DUP5 PUSH2 0x10EB JUMP JUMPDEST SWAP1 POP SWAP3 SWAP2 POP POP JUMP JUMPDEST PUSH32 0x5573657220616C72656164792065786973747300000000000000000000000000 PUSH0 DUP3 ADD MSTORE POP JUMP JUMPDEST PUSH0 PUSH2 0x1977 PUSH1 0x13 DUP4 PUSH2 0x10BD JUMP JUMPDEST SWAP2 POP PUSH2 0x1982 DUP3 PUSH2 0x1943 JUMP JUMPDEST PUSH1 0x20 DUP3 ADD SWAP1 POP SWAP2 SWAP1 POP JUMP JUMPDEST PUSH0 PUSH1 0x20 DUP3 ADD SWAP1 POP DUP2 DUP2 SUB PUSH0 DUP4 ADD MSTORE PUSH2 0x19A4 DUP2 PUSH2 0x196B JUMP JUMPDEST SWAP1 POP SWAP2 SWAP1 POP JUMP JUMPDEST PUSH0 PUSH1 0x40 DUP3 ADD SWAP1 POP DUP2 DUP2 SUB PUSH0 DUP4 ADD MSTORE PUSH2 0x19C3 DUP2 DUP6 PUSH2 0x10EB JUMP JUMPDEST SWAP1 POP PUSH2 0x19D2 PUSH1 0x20 DUP4 ADD DUP5 PUSH2 0xF78 JUMP JUMPDEST SWAP4 SWAP3 POP POP POP JUMP JUMPDEST PUSH32 0x4E487B7100000000000000000000000000000000000000000000000000000000 PUSH0 MSTORE PUSH1 0x32 PUSH1 0x4 MSTORE PUSH1 0x24 PUSH0 REVERT INVALID LOG2 PUSH5 0x6970667358 0x22 SLT KECCAK256 CHAINID CALLER SLOAD ADDRESS CALLDATACOPY OR 0xEA 0x23 0x2F 0xBC 0xEA SLOAD 0xD7 0xE2 0xDB 0xFC MSTORE8 AND RETURNDATASIZE TSTORE POP STOP 0xE9 SWAP1 PUSH23 0x290E708B8A0DC864736F6C634300082200330000000000 "
				},
				"gasEstimates": {
					"creation": {
						"codeDepositCost": "1343200",
						"executionCost": "25659",
						"totalCost": "1368859"
					},
					"external": {
						"": "infinite",
						"contractBalance()": "2492",
						"deposit()": "infinite",
						"getAllUsers()": "infinite",
						"onlyOwnerFunction()": "2546",
						"owner()": "2596",
						"registerUser(string,uint256)": "infinite",
						"updateUserName(string)": "infinite",
						"userAddresses(uint256)": "4989",
						"users(address)": "infinite",
						"withdraw(uint256)": "infinite"
					}
				},
				"methodIdentifiers": {
					"contractBalance()": "8b7afe2e",
					"deposit()": "d0e30db0",
					"getAllUsers()": "e2842d79",
					"onlyOwnerFunction()": "2a35c4f4",
					"owner()": "8da5cb5b",
					"registerUser(string,uint256)": "d3951002",
					"updateUserName(string)": "af9036a1",
					"userAddresses(uint256)": "502c9bd5",
					"users(address)": "a87430ba",
					"withdraw(uint256)": "2e1a7d4d"
				}
			},
			"storageLayout": {
				"storage": [
					{
						"astId": 3,
						"contract": "tp/tpp.sol:DemoContract",
						"label": "owner",
						"offset": 0,
						"slot": "0",
						"type": "t_address"
					},
					{
						"astId": 5,
						"contract": "tp/tpp.sol:DemoContract",
						"label": "contractBalance",
						"offset": 0,
						"slot": "1",
						"type": "t_uint256"
					},
					{
						"astId": 19,
						"contract": "tp/tpp.sol:DemoContract",
						"label": "users",
						"offset": 0,
						"slot": "2",
						"type": "t_mapping(t_address,t_struct(User)14_storage)"
					},
					{
						"astId": 22,
						"contract": "tp/tpp.sol:DemoContract",
						"label": "userAddresses",
						"offset": 0,
						"slot": "3",
						"type": "t_array(t_address)dyn_storage"
					}
				],
				"types": {
					"t_address": {
						"encoding": "inplace",
						"label": "address",
						"numberOfBytes": "20"
					},
					"t_array(t_address)dyn_storage": {
						"base": "t_address",
						"encoding": "dynamic_array",
						"label": "address[]",
						"numberOfBytes": "32"
					},
					"t_mapping(t_address,t_struct(User)14_storage)": {
						"encoding": "mapping",
						"key": "t_address",
						"label": "mapping(address => struct DemoContract.User)",
						"numberOfBytes": "32",
						"value": "t_struct(User)14_storage"
					},
					"t_string_storage": {
						"encoding": "bytes",
						"label": "string",
						"numberOfBytes": "32"
					},
					"t_struct(User)14_storage": {
						"encoding": "inplace",
						"label": "struct DemoContract.User",
						"members": [
							{
								"astId": 7,
								"contract": "tp/tpp.sol:DemoContract",
								"label": "name",
								"offset": 0,
								"slot": "0",
								"type": "t_string_storage"
							},
							{
								"astId": 9,
								"contract": "tp/tpp.sol:DemoContract",
								"label": "age",
								"offset": 0,
								"slot": "1",
								"type": "t_uint256"
							},
							{
								"astId": 11,
								"contract": "tp/tpp.sol:DemoContract",
								"label": "wallet",
								"offset": 0,
								"slot": "2",
								"type": "t_address"
							},
							{
								"astId": 13,
								"contract": "tp/tpp.sol:DemoContract",
								"label": "balance",
								"offset": 0,
								"slot": "3",
								"type": "t_uint256"
							}
						],
						"numberOfBytes": "128"
					},
					"t_uint256": {
						"encoding": "inplace",
						"label": "uint256",
						"numberOfBytes": "32"
					}
				}
			},
			"userdoc": {
				"kind": "user",
				"methods": {},
				"version": 1
			}
		}
	}
}