{
	"certificate.sol": {
		"CertificateIssuer": {
			"abi": [
				{
					"inputs": [],
					"stateMutability": "nonpayable",
					"type": "constructor"
				},
				{
					"anonymous": false,
					"inputs": [
						{
							"indexed": false,
							"internalType": "uint256",
							"name": "certificateId",
							"type": "uint256"
						},
						{
							"indexed": false,
							"internalType": "string",
							"name": "studentName",
							"type": "string"
						},
						{
							"indexed": false,
							"internalType": "string",
							"name": "course",
							"type": "string"
						}
					],
					"name": "CertificateIssued",
					"type": "event"
				},
				{
					"inputs": [],
					"name": "certificateCount",
					"outputs": [
						{
							"internalType": "uint256",
							"name": "",
							"type": "uint256"
						}
					],
					"stateMutability": "view",
					"type": "function"
				},
				{
					"inputs": [
						{
							"internalType": "uint256",
							"name": "",
							"type": "uint256"
						}
					],
					"name": "certificates",
					"outputs": [
						{
							"internalType": "string",
							"name": "studentName",
							"type": "string"
						},
						{
							"internalType": "string",
							"name": "course",
							"type": "string"
						},
						{
							"internalType": "uint256",
							"name": "issuedOn",
							"type": "uint256"
						},
						{
							"internalType": "bool",
							"name": "valid",
							"type": "bool"
						}
					],
					"stateMutability": "view",
					"type": "function"
				},
				{
					"inputs": [
						{
							"internalType": "string",
							"name": "_studentName",
							"type": "string"
						},
						{
							"internalType": "string",
							"name": "_course",
							"type": "string"
						}
					],
					"name": "issueCertificate",
					"outputs": [],
					"stateMutability": "nonpayable",
					"type": "function"
				},
				{
					"inputs": [],
					"name": "issuer",
					"outputs": [
						{
							"internalType": "address",
							"name": "",
							"type": "address"
						}
					],
					"stateMutability": "view",
					"type": "function"
				},
				{
					"inputs": [
						{
							"internalType": "uint256",
							"name": "_id",
							"type": "uint256"
						}
					],
					"name": "verifyCertificate",
					"outputs": [
						{
							"internalType": "string",
							"name": "studentName",
							"type": "string"
						},
						{
							"internalType": "string",
							"name": "course",
							"type": "string"
						},
						{
							"internalType": "uint256",
							"name": "issuedOn",
							"type": "uint256"
						},
						{
							"internalType": "bool",
							"name": "valid",
							"type": "bool"
						}
					],
					"stateMutability": "view",
					"type": "function"
				}
			],
			"devdoc": {
				"kind": "dev",
				"methods": {},
				"version": 1
			},
			"evm": {
				"assembly": "    /* \"certificate.sol\":60:1358  contract CertificateIssuer {... */\n  mstore(0x40, 0x80)\n    /* \"certificate.sol\":440:492  constructor() {... */\n  callvalue\n  dup1\n  iszero\n  tag_1\n  jumpi\n  0x00\n  dup1\n  revert\ntag_1:\n  pop\n    /* \"certificate.sol\":474:484  msg.sender */\n  caller\n    /* \"certificate.sol\":465:471  issuer */\n  0x00\n  dup1\n    /* \"certificate.sol\":465:484  issuer = msg.sender */\n  0x0100\n  exp\n  dup2\n  sload\n  dup2\n  0xffffffffffffffffffffffffffffffffffffffff\n  mul\n  not\n  and\n  swap1\n  dup4\n  0xffffffffffffffffffffffffffffffffffffffff\n  and\n  mul\n  or\n  swap1\n  sstore\n  pop\n    /* \"certificate.sol\":60:1358  contract CertificateIssuer {... */\n  dataSize(sub_0)\n  dup1\n  dataOffset(sub_0)\n  0x00\n  codecopy\n  0x00\n  return\nstop\n\nsub_0: assembly {\n        /* \"certificate.sol\":60:1358  contract CertificateIssuer {... */\n      mstore(0x40, 0x80)\n      callvalue\n      dup1\n      iszero\n      tag_1\n      jumpi\n      0x00\n      dup1\n      revert\n    tag_1:\n      pop\n      jumpi(tag_2, lt(calldatasize, 0x04))\n      shr(0xe0, calldataload(0x00))\n      dup1\n      0x1692a942\n      eq\n      tag_3\n      jumpi\n      dup1\n      0x1d143848\n      eq\n      tag_4\n      jumpi\n      dup1\n      0x211bbe71\n      eq\n      tag_5\n      jumpi\n      dup1\n      0x52d7b89c\n      eq\n      tag_6\n      jumpi\n      dup1\n      0x663b3e22\n      eq\n      tag_7\n      jumpi\n    tag_2:\n      0x00\n      dup1\n      revert\n        /* \"certificate.sol\":1006:1355  function verifyCertificate(uint _id)public view returns (string memory studentName,string memory course... */\n    tag_3:\n      tag_8\n      0x04\n      dup1\n      calldatasize\n      sub\n      dup2\n      add\n      swap1\n      tag_9\n      swap2\n      swap1\n      tag_10\n      jump\t// in\n    tag_9:\n      tag_11\n      jump\t// in\n    tag_8:\n      mload(0x40)\n      tag_12\n      swap5\n      swap4\n      swap3\n      swap2\n      swap1\n      tag_13\n      jump\t// in\n    tag_12:\n      mload(0x40)\n      dup1\n      swap2\n      sub\n      swap1\n      return\n        /* \"certificate.sol\":96:117  address public issuer */\n    tag_4:\n      tag_14\n      tag_15\n      jump\t// in\n    tag_14:\n      mload(0x40)\n      tag_16\n      swap2\n      swap1\n      tag_17\n      jump\t// in\n    tag_16:\n      mload(0x40)\n      dup1\n      swap2\n      sub\n      swap1\n      return\n        /* \"certificate.sol\":629:998  function issueCertificate(string memory _studentName,string memory _course) public onlyIssuer {... */\n    tag_5:\n      tag_18\n      0x04\n      dup1\n      calldatasize\n      sub\n      dup2\n      add\n      swap1\n      tag_19\n      swap2\n      swap1\n      tag_20\n      jump\t// in\n    tag_19:\n      tag_21\n      jump\t// in\n    tag_18:\n      stop\n        /* \"certificate.sol\":314:342  uint public certificateCount */\n    tag_6:\n      tag_22\n      tag_23\n      jump\t// in\n    tag_22:\n      mload(0x40)\n      tag_24\n      swap2\n      swap1\n      tag_25\n      jump\t// in\n    tag_24:\n      mload(0x40)\n      dup1\n      swap2\n      sub\n      swap1\n      return\n        /* \"certificate.sol\":259:307  mapping(uint => Certificate) public certificates */\n    tag_7:\n      tag_26\n      0x04\n      dup1\n      calldatasize\n      sub\n      dup2\n      add\n      swap1\n      tag_27\n      swap2\n      swap1\n      tag_10\n      jump\t// in\n    tag_27:\n      tag_28\n      jump\t// in\n    tag_26:\n      mload(0x40)\n      tag_29\n      swap5\n      swap4\n      swap3\n      swap2\n      swap1\n      tag_13\n      jump\t// in\n    tag_29:\n      mload(0x40)\n      dup1\n      swap2\n      sub\n      swap1\n      return\n        /* \"certificate.sol\":1006:1355  function verifyCertificate(uint _id)public view returns (string memory studentName,string memory course... */\n    tag_11:\n        /* \"certificate.sol\":1063:1088  string memory studentName */\n      0x60\n        /* \"certificate.sol\":1089:1109  string memory course */\n      dup1\n        /* \"certificate.sol\":1116:1129  uint issuedOn */\n      0x00\n        /* \"certificate.sol\":1130:1140  bool valid */\n      dup1\n        /* \"certificate.sol\":1165:1188  Certificate memory cert */\n      0x00\n        /* \"certificate.sol\":1191:1203  certificates */\n      0x01\n        /* \"certificate.sol\":1191:1208  certificates[_id] */\n      0x00\n        /* \"certificate.sol\":1204:1207  _id */\n      dup8\n        /* \"certificate.sol\":1191:1208  certificates[_id] */\n      dup2\n      mstore\n      0x20\n      add\n      swap1\n      dup2\n      mstore\n      0x20\n      add\n      0x00\n      keccak256\n        /* \"certificate.sol\":1165:1208  Certificate memory cert = certificates[_id] */\n      mload(0x40)\n      dup1\n      0x80\n      add\n      0x40\n      mstore\n      swap1\n      dup2\n      0x00\n      dup3\n      add\n      dup1\n      sload\n      tag_31\n      swap1\n      tag_32\n      jump\t// in\n    tag_31:\n      dup1\n      0x1f\n      add\n      0x20\n      dup1\n      swap2\n      div\n      mul\n      0x20\n      add\n      mload(0x40)\n      swap1\n      dup2\n      add\n      0x40\n      mstore\n      dup1\n      swap3\n      swap2\n      swap1\n      dup2\n      dup2\n      mstore\n      0x20\n      add\n      dup3\n      dup1\n      sload\n      tag_33\n      swap1\n      tag_32\n      jump\t// in\n    tag_33:\n      dup1\n      iszero\n      tag_34\n      jumpi\n      dup1\n      0x1f\n      lt\n      tag_35\n      jumpi\n      0x0100\n      dup1\n      dup4\n      sload\n      div\n      mul\n      dup4\n      mstore\n      swap2\n      0x20\n      add\n      swap2\n      jump(tag_34)\n    tag_35:\n      dup3\n      add\n      swap2\n      swap1\n      0x00\n      mstore\n      keccak256(0x00, 0x20)\n      swap1\n    tag_36:\n      dup2\n      sload\n      dup2\n      mstore\n      swap1\n      0x01\n      add\n      swap1\n      0x20\n      add\n      dup1\n      dup4\n      gt\n      tag_36\n      jumpi\n      dup3\n      swap1\n      sub\n      0x1f\n      and\n      dup3\n      add\n      swap2\n    tag_34:\n      pop\n      pop\n      pop\n      pop\n      pop\n      dup2\n      mstore\n      0x20\n      add\n      0x01\n      dup3\n      add\n      dup1\n      sload\n      tag_37\n      swap1\n      tag_32\n      jump\t// in\n    tag_37:\n      dup1\n      0x1f\n      add\n      0x20\n      dup1\n      swap2\n      div\n      mul\n      0x20\n      add\n      mload(0x40)\n      swap1\n      dup2\n      add\n      0x40\n      mstore\n      dup1\n      swap3\n      swap2\n      swap1\n      dup2\n      dup2\n      mstore\n      0x20\n      add\n      dup3\n      dup1\n      sload\n      tag_38\n      swap1\n      tag_32\n      jump\t// in\n    tag_38:\n      dup1\n      iszero\n      tag_39\n      jumpi\n      dup1\n      0x1f\n      lt\n      tag_40\n      jumpi\n      0x0100\n      dup1\n      dup4\n      sload\n      div\n      mul\n      dup4\n      mstore\n      swap2\n      0x20\n      add\n      swap2\n      jump(tag_39)\n    tag_40:\n      dup3\n      add\n      swap2\n      swap1\n      0x00\n      mstore\n      keccak256(0x00, 0x20)\n      swap1\n    tag_41:\n      dup2\n      sload\n      dup2\n      mstore\n      swap1\n      0x01\n      add\n      swap1\n      0x20\n      add\n      dup1\n      dup4\n      gt\n      tag_41\n      jumpi\n      dup3\n      swap1\n      sub\n      0x1f\n      and\n      dup3\n      add\n      swap2\n    tag_39:\n      pop\n      pop\n      pop\n      pop\n      pop\n      dup2\n      mstore\n      0x20\n      add\n      0x02\n      dup3\n      add\n      sload\n      dup2\n      mstore\n      0x20\n      add\n      0x03\n      dup3\n      add\n      0x00\n      swap1\n      sload\n      swap1\n      0x0100\n      exp\n      swap1\n      div\n      0xff\n      and\n      iszero\n      iszero\n      iszero\n      iszero\n      dup2\n      mstore\n      pop\n      pop\n      swap1\n      pop\n        /* \"certificate.sol\":1241:1245  cert */\n      dup1\n        /* \"certificate.sol\":1241:1257  cert.studentName */\n      0x00\n      add\n      mload\n        /* \"certificate.sol\":1272:1276  cert */\n      dup2\n        /* \"certificate.sol\":1272:1283  cert.course */\n      0x20\n      add\n      mload\n        /* \"certificate.sol\":1298:1302  cert */\n      dup3\n        /* \"certificate.sol\":1298:1311  cert.issuedOn */\n      0x40\n      add\n      mload\n        /* \"certificate.sol\":1326:1330  cert */\n      dup4\n        /* \"certificate.sol\":1326:1336  cert.valid */\n      0x60\n      add\n      mload\n        /* \"certificate.sol\":1219:1347  return (... */\n      swap5\n      pop\n      swap5\n      pop\n      swap5\n      pop\n      swap5\n      pop\n      pop\n        /* \"certificate.sol\":1006:1355  function verifyCertificate(uint _id)public view returns (string memory studentName,string memory course... */\n      swap2\n      swap4\n      pop\n      swap2\n      swap4\n      jump\t// out\n        /* \"certificate.sol\":96:117  address public issuer */\n    tag_15:\n      0x00\n      dup1\n      sload\n      swap1\n      0x0100\n      exp\n      swap1\n      div\n      0xffffffffffffffffffffffffffffffffffffffff\n      and\n      dup2\n      jump\t// out\n        /* \"certificate.sol\":629:998  function issueCertificate(string memory _studentName,string memory _course) public onlyIssuer {... */\n    tag_21:\n        /* \"certificate.sol\":555:561  issuer */\n      0x00\n      dup1\n      sload\n      swap1\n      0x0100\n      exp\n      swap1\n      div\n      0xffffffffffffffffffffffffffffffffffffffff\n      and\n        /* \"certificate.sol\":541:561  msg.sender == issuer */\n      0xffffffffffffffffffffffffffffffffffffffff\n      and\n        /* \"certificate.sol\":541:551  msg.sender */\n      caller\n        /* \"certificate.sol\":541:561  msg.sender == issuer */\n      0xffffffffffffffffffffffffffffffffffffffff\n      and\n      eq\n        /* \"certificate.sol\":533:601  require(msg.sender == issuer, \"Only issuer can perform this action\") */\n      tag_43\n      jumpi\n      mload(0x40)\n      0x08c379a000000000000000000000000000000000000000000000000000000000\n      dup2\n      mstore\n      0x04\n      add\n      tag_44\n      swap1\n      tag_45\n      jump\t// in\n    tag_44:\n      mload(0x40)\n      dup1\n      swap2\n      sub\n      swap1\n      revert\n    tag_43:\n        /* \"certificate.sol\":736:752  certificateCount */\n      0x02\n      0x00\n        /* \"certificate.sol\":736:754  certificateCount++ */\n      dup2\n      sload\n      dup1\n      swap3\n      swap2\n      swap1\n      tag_47\n      swap1\n      tag_48\n      jump\t// in\n    tag_47:\n      swap2\n      swap1\n      pop\n      sstore\n      pop\n        /* \"certificate.sol\":800:904  Certificate({studentName: _studentName,course: _course,issuedOn: block... */\n      mload(0x40)\n      dup1\n      0x80\n      add\n      0x40\n      mstore\n      dup1\n        /* \"certificate.sol\":826:838  _studentName */\n      dup4\n        /* \"certificate.sol\":800:904  Certificate({studentName: _studentName,course: _course,issuedOn: block... */\n      dup2\n      mstore\n      0x20\n      add\n        /* \"certificate.sol\":847:854  _course */\n      dup3\n        /* \"certificate.sol\":800:904  Certificate({studentName: _studentName,course: _course,issuedOn: block... */\n      dup2\n      mstore\n      0x20\n      add\n        /* \"certificate.sol\":865:890  block... */\n      timestamp\n        /* \"certificate.sol\":800:904  Certificate({studentName: _studentName,course: _course,issuedOn: block... */\n      dup2\n      mstore\n      0x20\n      add\n        /* \"certificate.sol\":898:902  true */\n      0x01\n        /* \"certificate.sol\":800:904  Certificate({studentName: _studentName,course: _course,issuedOn: block... */\n      iszero\n      iszero\n      dup2\n      mstore\n      pop\n        /* \"certificate.sol\":767:779  certificates */\n      0x01\n        /* \"certificate.sol\":767:797  certificates[certificateCount] */\n      0x00\n        /* \"certificate.sol\":780:796  certificateCount */\n      sload(0x02)\n        /* \"certificate.sol\":767:797  certificates[certificateCount] */\n      dup2\n      mstore\n      0x20\n      add\n      swap1\n      dup2\n      mstore\n      0x20\n      add\n      0x00\n      keccak256\n        /* \"certificate.sol\":767:904  certificates[certificateCount] = Certificate({studentName: _studentName,course: _course,issuedOn: block... */\n      0x00\n      dup3\n      add\n      mload\n      dup2\n      0x00\n      add\n      swap1\n      dup2\n      tag_49\n      swap2\n      swap1\n      tag_50\n      jump\t// in\n    tag_49:\n      pop\n      0x20\n      dup3\n      add\n      mload\n      dup2\n      0x01\n      add\n      swap1\n      dup2\n      tag_51\n      swap2\n      swap1\n      tag_50\n      jump\t// in\n    tag_51:\n      pop\n      0x40\n      dup3\n      add\n      mload\n      dup2\n      0x02\n      add\n      sstore\n      0x60\n      dup3\n      add\n      mload\n      dup2\n      0x03\n      add\n      exp(0x0100, 0x00)\n      dup2\n      sload\n      dup2\n      0xff\n      mul\n      not\n      and\n      swap1\n      dup4\n      iszero\n      iszero\n      mul\n      or\n      swap1\n      sstore\n      pop\n      swap1\n      pop\n      pop\n        /* \"certificate.sol\":934:990  CertificateIssued(certificateCount,_studentName,_course) */\n      0x55e235e38225040825e04ea5d7545c53f47415b5543ec6bf898aa3a96742d5f9\n        /* \"certificate.sol\":952:968  certificateCount */\n      sload(0x02)\n        /* \"certificate.sol\":969:981  _studentName */\n      dup4\n        /* \"certificate.sol\":982:989  _course */\n      dup4\n        /* \"certificate.sol\":934:990  CertificateIssued(certificateCount,_studentName,_course) */\n      mload(0x40)\n      tag_52\n      swap4\n      swap3\n      swap2\n      swap1\n      tag_53\n      jump\t// in\n    tag_52:\n      mload(0x40)\n      dup1\n      swap2\n      sub\n      swap1\n      log1\n        /* \"certificate.sol\":629:998  function issueCertificate(string memory _studentName,string memory _course) public onlyIssuer {... */\n      pop\n      pop\n      jump\t// out\n        /* \"certificate.sol\":314:342  uint public certificateCount */\n    tag_23:\n      sload(0x02)\n      dup2\n      jump\t// out\n        /* \"certificate.sol\":259:307  mapping(uint => Certificate) public certificates */\n    tag_28:\n      mstore(0x20, 0x01)\n      dup1\n      0x00\n      mstore\n      keccak256(0x00, 0x40)\n      0x00\n      swap2\n      pop\n      swap1\n      pop\n      dup1\n      0x00\n      add\n      dup1\n      sload\n      tag_54\n      swap1\n      tag_32\n      jump\t// in\n    tag_54:\n      dup1\n      0x1f\n      add\n      0x20\n      dup1\n      swap2\n      div\n      mul\n      0x20\n      add\n      mload(0x40)\n      swap1\n      dup2\n      add\n      0x40\n      mstore\n      dup1\n      swap3\n      swap2\n      swap1\n      dup2\n      dup2\n      mstore\n      0x20\n      add\n      dup3\n      dup1\n      sload\n      tag_55\n      swap1\n      tag_32\n      jump\t// in\n    tag_55:\n      dup1\n      iszero\n      tag_56\n      jumpi\n      dup1\n      0x1f\n      lt\n      tag_57\n      jumpi\n      0x0100\n      dup1\n      dup4\n      sload\n      div\n      mul\n      dup4\n      mstore\n      swap2\n      0x20\n      add\n      swap2\n      jump(tag_56)\n    tag_57:\n      dup3\n      add\n      swap2\n      swap1\n      0x00\n      mstore\n      keccak256(0x00, 0x20)\n      swap1\n    tag_58:\n      dup2\n      sload\n      dup2\n      mstore\n      swap1\n      0x01\n      add\n      swap1\n      0x20\n      add\n      dup1\n      dup4\n      gt\n      tag_58\n      jumpi\n      dup3\n      swap1\n      sub\n      0x1f\n      and\n      dup3\n      add\n      swap2\n    tag_56:\n      pop\n      pop\n      pop\n      pop\n      pop\n      swap1\n      dup1\n      0x01\n      add\n      dup1\n      sload\n      tag_59\n      swap1\n      tag_32\n      jump\t// in\n    tag_59:\n      dup1\n      0x1f\n      add\n      0x20\n      dup1\n      swap2\n      div\n      mul\n      0x20\n      add\n      mload(0x40)\n      swap1\n      dup2\n      add\n      0x40\n      mstore\n      dup1\n      swap3\n      swap2\n      swap1\n      dup2\n      dup2\n      mstore\n      0x20\n      add\n      dup3\n      dup1\n      sload\n      tag_60\n      swap1\n      tag_32\n      jump\t// in\n    tag_60:\n      dup1\n      iszero\n      tag_61\n      jumpi\n      dup1\n      0x1f\n      lt\n      tag_62\n      jumpi\n      0x0100\n      dup1\n      dup4\n      sload\n      div\n      mul\n      dup4\n      mstore\n      swap2\n      0x20\n      add\n      swap2\n      jump(tag_61)\n    tag_62:\n      dup3\n      add\n      swap2\n      swap1\n      0x00\n      mstore\n      keccak256(0x00, 0x20)\n      swap1\n    tag_63:\n      dup2\n      sload\n      dup2\n      mstore\n      swap1\n      0x01\n      add\n      swap1\n      0x20\n      add\n      dup1\n      dup4\n      gt\n      tag_63\n      jumpi\n      dup3\n      swap1\n      sub\n      0x1f\n      and\n      dup3\n      add\n      swap2\n    tag_61:\n      pop\n      pop\n      pop\n      pop\n      pop\n      swap1\n      dup1\n      0x02\n      add\n      sload\n      swap1\n      dup1\n      0x03\n      add\n      0x00\n      swap1\n      sload\n      swap1\n      0x0100\n      exp\n      swap1\n      div\n      0xff\n      and\n      swap1\n      pop\n      dup5\n      jump\t// out\n        /* \"#utility.yul\":7:82   */\n    tag_64:\n        /* \"#utility.yul\":40:46   */\n      0x00\n        /* \"#utility.yul\":73:75   */\n      0x40\n        /* \"#utility.yul\":67:76   */\n      mload\n        /* \"#utility.yul\":57:76   */\n      swap1\n      pop\n        /* \"#utility.yul\":7:82   */\n      swap1\n      jump\t// out\n        /* \"#utility.yul\":88:205   */\n    tag_65:\n        /* \"#utility.yul\":197:198   */\n      0x00\n        /* \"#utility.yul\":194:195   */\n      dup1\n        /* \"#utility.yul\":187:199   */\n      revert\n        /* \"#utility.yul\":211:328   */\n    tag_66:\n        /* \"#utility.yul\":320:321   */\n      0x00\n        /* \"#utility.yul\":317:318   */\n      dup1\n        /* \"#utility.yul\":310:322   */\n      revert\n        /* \"#utility.yul\":334:411   */\n    tag_67:\n        /* \"#utility.yul\":371:378   */\n      0x00\n        /* \"#utility.yul\":400:405   */\n      dup2\n        /* \"#utility.yul\":389:405   */\n      swap1\n      pop\n        /* \"#utility.yul\":334:411   */\n      swap2\n      swap1\n      pop\n      jump\t// out\n        /* \"#utility.yul\":417:539   */\n    tag_68:\n        /* \"#utility.yul\":490:514   */\n      tag_115\n        /* \"#utility.yul\":508:513   */\n      dup2\n        /* \"#utility.yul\":490:514   */\n      tag_67\n      jump\t// in\n    tag_115:\n        /* \"#utility.yul\":483:488   */\n      dup2\n        /* \"#utility.yul\":480:515   */\n      eq\n        /* \"#utility.yul\":470:533   */\n      tag_116\n      jumpi\n        /* \"#utility.yul\":529:530   */\n      0x00\n        /* \"#utility.yul\":526:527   */\n      dup1\n        /* \"#utility.yul\":519:531   */\n      revert\n        /* \"#utility.yul\":470:533   */\n    tag_116:\n        /* \"#utility.yul\":417:539   */\n      pop\n      jump\t// out\n        /* \"#utility.yul\":545:684   */\n    tag_69:\n        /* \"#utility.yul\":591:596   */\n      0x00\n        /* \"#utility.yul\":629:635   */\n      dup2\n        /* \"#utility.yul\":616:636   */\n      calldataload\n        /* \"#utility.yul\":607:636   */\n      swap1\n      pop\n        /* \"#utility.yul\":645:678   */\n      tag_118\n        /* \"#utility.yul\":672:677   */\n      dup2\n        /* \"#utility.yul\":645:678   */\n      tag_68\n      jump\t// in\n    tag_118:\n        /* \"#utility.yul\":545:684   */\n      swap3\n      swap2\n      pop\n      pop\n      jump\t// out\n        /* \"#utility.yul\":690:1019   */\n    tag_10:\n        /* \"#utility.yul\":749:755   */\n      0x00\n        /* \"#utility.yul\":798:800   */\n      0x20\n        /* \"#utility.yul\":786:795   */\n      dup3\n        /* \"#utility.yul\":777:784   */\n      dup5\n        /* \"#utility.yul\":773:796   */\n      sub\n        /* \"#utility.yul\":769:801   */\n      slt\n        /* \"#utility.yul\":766:885   */\n      iszero\n      tag_120\n      jumpi\n        /* \"#utility.yul\":804:883   */\n      tag_121\n      tag_65\n      jump\t// in\n    tag_121:\n        /* \"#utility.yul\":766:885   */\n    tag_120:\n        /* \"#utility.yul\":924:925   */\n      0x00\n        /* \"#utility.yul\":949:1002   */\n      tag_122\n        /* \"#utility.yul\":994:1001   */\n      dup5\n        /* \"#utility.yul\":985:991   */\n      dup3\n        /* \"#utility.yul\":974:983   */\n      dup6\n        /* \"#utility.yul\":970:992   */\n      add\n        /* \"#utility.yul\":949:1002   */\n      tag_69\n      jump\t// in\n    tag_122:\n        /* \"#utility.yul\":939:1002   */\n      swap2\n      pop\n        /* \"#utility.yul\":895:1012   */\n      pop\n        /* \"#utility.yul\":690:1019   */\n      swap3\n      swap2\n      pop\n      pop\n      jump\t// out\n        /* \"#utility.yul\":1025:1124   */\n    tag_70:\n        /* \"#utility.yul\":1077:1083   */\n      0x00\n        /* \"#utility.yul\":1111:1116   */\n      dup2\n        /* \"#utility.yul\":1105:1117   */\n      mload\n        /* \"#utility.yul\":1095:1117   */\n      swap1\n      pop\n        /* \"#utility.yul\":1025:1124   */\n      swap2\n      swap1\n      pop\n      jump\t// out\n        /* \"#utility.yul\":1130:1299   */\n    tag_71:\n        /* \"#utility.yul\":1214:1225   */\n      0x00\n        /* \"#utility.yul\":1248:1254   */\n      dup3\n        /* \"#utility.yul\":1243:1246   */\n      dup3\n        /* \"#utility.yul\":1236:1255   */\n      mstore\n        /* \"#utility.yul\":1288:1292   */\n      0x20\n        /* \"#utility.yul\":1283:1286   */\n      dup3\n        /* \"#utility.yul\":1279:1293   */\n      add\n        /* \"#utility.yul\":1264:1293   */\n      swap1\n      pop\n        /* \"#utility.yul\":1130:1299   */\n      swap3\n      swap2\n      pop\n      pop\n      jump\t// out\n        /* \"#utility.yul\":1305:1551   */\n    tag_72:\n        /* \"#utility.yul\":1386:1387   */\n      0x00\n        /* \"#utility.yul\":1396:1509   */\n    tag_126:\n        /* \"#utility.yul\":1410:1416   */\n      dup4\n        /* \"#utility.yul\":1407:1408   */\n      dup2\n        /* \"#utility.yul\":1404:1417   */\n      lt\n        /* \"#utility.yul\":1396:1509   */\n      iszero\n      tag_128\n      jumpi\n        /* \"#utility.yul\":1495:1496   */\n      dup1\n        /* \"#utility.yul\":1490:1493   */\n      dup3\n        /* \"#utility.yul\":1486:1497   */\n      add\n        /* \"#utility.yul\":1480:1498   */\n      mload\n        /* \"#utility.yul\":1476:1477   */\n      dup2\n        /* \"#utility.yul\":1471:1474   */\n      dup5\n        /* \"#utility.yul\":1467:1478   */\n      add\n        /* \"#utility.yul\":1460:1499   */\n      mstore\n        /* \"#utility.yul\":1432:1434   */\n      0x20\n        /* \"#utility.yul\":1429:1430   */\n      dup2\n        /* \"#utility.yul\":1425:1435   */\n      add\n        /* \"#utility.yul\":1420:1435   */\n      swap1\n      pop\n        /* \"#utility.yul\":1396:1509   */\n      jump(tag_126)\n    tag_128:\n        /* \"#utility.yul\":1543:1544   */\n      0x00\n        /* \"#utility.yul\":1534:1540   */\n      dup5\n        /* \"#utility.yul\":1529:1532   */\n      dup5\n        /* \"#utility.yul\":1525:1541   */\n      add\n        /* \"#utility.yul\":1518:1545   */\n      mstore\n        /* \"#utility.yul\":1367:1551   */\n      pop\n        /* \"#utility.yul\":1305:1551   */\n      pop\n      pop\n      pop\n      jump\t// out\n        /* \"#utility.yul\":1557:1659   */\n    tag_73:\n        /* \"#utility.yul\":1598:1604   */\n      0x00\n        /* \"#utility.yul\":1649:1651   */\n      0x1f\n        /* \"#utility.yul\":1645:1652   */\n      not\n        /* \"#utility.yul\":1640:1642   */\n      0x1f\n        /* \"#utility.yul\":1633:1638   */\n      dup4\n        /* \"#utility.yul\":1629:1643   */\n      add\n        /* \"#utility.yul\":1625:1653   */\n      and\n        /* \"#utility.yul\":1615:1653   */\n      swap1\n      pop\n        /* \"#utility.yul\":1557:1659   */\n      swap2\n      swap1\n      pop\n      jump\t// out\n        /* \"#utility.yul\":1665:2042   */\n    tag_74:\n        /* \"#utility.yul\":1753:1756   */\n      0x00\n        /* \"#utility.yul\":1781:1820   */\n      tag_131\n        /* \"#utility.yul\":1814:1819   */\n      dup3\n        /* \"#utility.yul\":1781:1820   */\n      tag_70\n      jump\t// in\n    tag_131:\n        /* \"#utility.yul\":1836:1907   */\n      tag_132\n        /* \"#utility.yul\":1900:1906   */\n      dup2\n        /* \"#utility.yul\":1895:1898   */\n      dup6\n        /* \"#utility.yul\":1836:1907   */\n      tag_71\n      jump\t// in\n    tag_132:\n        /* \"#utility.yul\":1829:1907   */\n      swap4\n      pop\n        /* \"#utility.yul\":1916:1981   */\n      tag_133\n        /* \"#utility.yul\":1974:1980   */\n      dup2\n        /* \"#utility.yul\":1969:1972   */\n      dup6\n        /* \"#utility.yul\":1962:1966   */\n      0x20\n        /* \"#utility.yul\":1955:1960   */\n      dup7\n        /* \"#utility.yul\":1951:1967   */\n      add\n        /* \"#utility.yul\":1916:1981   */\n      tag_72\n      jump\t// in\n    tag_133:\n        /* \"#utility.yul\":2006:2035   */\n      tag_134\n        /* \"#utility.yul\":2028:2034   */\n      dup2\n        /* \"#utility.yul\":2006:2035   */\n      tag_73\n      jump\t// in\n    tag_134:\n        /* \"#utility.yul\":2001:2004   */\n      dup5\n        /* \"#utility.yul\":1997:2036   */\n      add\n        /* \"#utility.yul\":1990:2036   */\n      swap2\n      pop\n        /* \"#utility.yul\":1757:2042   */\n      pop\n        /* \"#utility.yul\":1665:2042   */\n      swap3\n      swap2\n      pop\n      pop\n      jump\t// out\n        /* \"#utility.yul\":2048:2166   */\n    tag_75:\n        /* \"#utility.yul\":2135:2159   */\n      tag_136\n        /* \"#utility.yul\":2153:2158   */\n      dup2\n        /* \"#utility.yul\":2135:2159   */\n      tag_67\n      jump\t// in\n    tag_136:\n        /* \"#utility.yul\":2130:2133   */\n      dup3\n        /* \"#utility.yul\":2123:2160   */\n      mstore\n        /* \"#utility.yul\":2048:2166   */\n      pop\n      pop\n      jump\t// out\n        /* \"#utility.yul\":2172:2262   */\n    tag_76:\n        /* \"#utility.yul\":2206:2213   */\n      0x00\n        /* \"#utility.yul\":2249:2254   */\n      dup2\n        /* \"#utility.yul\":2242:2255   */\n      iszero\n        /* \"#utility.yul\":2235:2256   */\n      iszero\n        /* \"#utility.yul\":2224:2256   */\n      swap1\n      pop\n        /* \"#utility.yul\":2172:2262   */\n      swap2\n      swap1\n      pop\n      jump\t// out\n        /* \"#utility.yul\":2268:2377   */\n    tag_77:\n        /* \"#utility.yul\":2349:2370   */\n      tag_139\n        /* \"#utility.yul\":2364:2369   */\n      dup2\n        /* \"#utility.yul\":2349:2370   */\n      tag_76\n      jump\t// in\n    tag_139:\n        /* \"#utility.yul\":2344:2347   */\n      dup3\n        /* \"#utility.yul\":2337:2371   */\n      mstore\n        /* \"#utility.yul\":2268:2377   */\n      pop\n      pop\n      jump\t// out\n        /* \"#utility.yul\":2383:3106   */\n    tag_13:\n        /* \"#utility.yul\":2594:2598   */\n      0x00\n        /* \"#utility.yul\":2632:2635   */\n      0x80\n        /* \"#utility.yul\":2621:2630   */\n      dup3\n        /* \"#utility.yul\":2617:2636   */\n      add\n        /* \"#utility.yul\":2609:2636   */\n      swap1\n      pop\n        /* \"#utility.yul\":2682:2691   */\n      dup2\n        /* \"#utility.yul\":2676:2680   */\n      dup2\n        /* \"#utility.yul\":2672:2692   */\n      sub\n        /* \"#utility.yul\":2668:2669   */\n      0x00\n        /* \"#utility.yul\":2657:2666   */\n      dup4\n        /* \"#utility.yul\":2653:2670   */\n      add\n        /* \"#utility.yul\":2646:2693   */\n      mstore\n        /* \"#utility.yul\":2710:2788   */\n      tag_141\n        /* \"#utility.yul\":2783:2787   */\n      dup2\n        /* \"#utility.yul\":2774:2780   */\n      dup8\n        /* \"#utility.yul\":2710:2788   */\n      tag_74\n      jump\t// in\n    tag_141:\n        /* \"#utility.yul\":2702:2788   */\n      swap1\n      pop\n        /* \"#utility.yul\":2835:2844   */\n      dup2\n        /* \"#utility.yul\":2829:2833   */\n      dup2\n        /* \"#utility.yul\":2825:2845   */\n      sub\n        /* \"#utility.yul\":2820:2822   */\n      0x20\n        /* \"#utility.yul\":2809:2818   */\n      dup4\n        /* \"#utility.yul\":2805:2823   */\n      add\n        /* \"#utility.yul\":2798:2846   */\n      mstore\n        /* \"#utility.yul\":2863:2941   */\n      tag_142\n        /* \"#utility.yul\":2936:2940   */\n      dup2\n        /* \"#utility.yul\":2927:2933   */\n      dup7\n        /* \"#utility.yul\":2863:2941   */\n      tag_74\n      jump\t// in\n    tag_142:\n        /* \"#utility.yul\":2855:2941   */\n      swap1\n      pop\n        /* \"#utility.yul\":2951:3023   */\n      tag_143\n        /* \"#utility.yul\":3019:3021   */\n      0x40\n        /* \"#utility.yul\":3008:3017   */\n      dup4\n        /* \"#utility.yul\":3004:3022   */\n      add\n        /* \"#utility.yul\":2995:3001   */\n      dup6\n        /* \"#utility.yul\":2951:3023   */\n      tag_75\n      jump\t// in\n    tag_143:\n        /* \"#utility.yul\":3033:3099   */\n      tag_144\n        /* \"#utility.yul\":3095:3097   */\n      0x60\n        /* \"#utility.yul\":3084:3093   */\n      dup4\n        /* \"#utility.yul\":3080:3098   */\n      add\n        /* \"#utility.yul\":3071:3077   */\n      dup5\n        /* \"#utility.yul\":3033:3099   */\n      tag_77\n      jump\t// in\n    tag_144:\n        /* \"#utility.yul\":2383:3106   */\n      swap6\n      swap5\n      pop\n      pop\n      pop\n      pop\n      pop\n      jump\t// out\n        /* \"#utility.yul\":3112:3238   */\n    tag_78:\n        /* \"#utility.yul\":3149:3156   */\n      0x00\n        /* \"#utility.yul\":3189:3231   */\n      0xffffffffffffffffffffffffffffffffffffffff\n        /* \"#utility.yul\":3182:3187   */\n      dup3\n        /* \"#utility.yul\":3178:3232   */\n      and\n        /* \"#utility.yul\":3167:3232   */\n      swap1\n      pop\n        /* \"#utility.yul\":3112:3238   */\n      swap2\n      swap1\n      pop\n      jump\t// out\n        /* \"#utility.yul\":3244:3340   */\n    tag_79:\n        /* \"#utility.yul\":3281:3288   */\n      0x00\n        /* \"#utility.yul\":3310:3334   */\n      tag_147\n        /* \"#utility.yul\":3328:3333   */\n      dup3\n        /* \"#utility.yul\":3310:3334   */\n      tag_78\n      jump\t// in\n    tag_147:\n        /* \"#utility.yul\":3299:3334   */\n      swap1\n      pop\n        /* \"#utility.yul\":3244:3340   */\n      swap2\n      swap1\n      pop\n      jump\t// out\n        /* \"#utility.yul\":3346:3464   */\n    tag_80:\n        /* \"#utility.yul\":3433:3457   */\n      tag_149\n        /* \"#utility.yul\":3451:3456   */\n      dup2\n        /* \"#utility.yul\":3433:3457   */\n      tag_79\n      jump\t// in\n    tag_149:\n        /* \"#utility.yul\":3428:3431   */\n      dup3\n        /* \"#utility.yul\":3421:3458   */\n      mstore\n        /* \"#utility.yul\":3346:3464   */\n      pop\n      pop\n      jump\t// out\n        /* \"#utility.yul\":3470:3692   */\n    tag_17:\n        /* \"#utility.yul\":3563:3567   */\n      0x00\n        /* \"#utility.yul\":3601:3603   */\n      0x20\n        /* \"#utility.yul\":3590:3599   */\n      dup3\n        /* \"#utility.yul\":3586:3604   */\n      add\n        /* \"#utility.yul\":3578:3604   */\n      swap1\n      pop\n        /* \"#utility.yul\":3614:3685   */\n      tag_151\n        /* \"#utility.yul\":3682:3683   */\n      0x00\n        /* \"#utility.yul\":3671:3680   */\n      dup4\n        /* \"#utility.yul\":3667:3684   */\n      add\n        /* \"#utility.yul\":3658:3664   */\n      dup5\n        /* \"#utility.yul\":3614:3685   */\n      tag_80\n      jump\t// in\n    tag_151:\n        /* \"#utility.yul\":3470:3692   */\n      swap3\n      swap2\n      pop\n      pop\n      jump\t// out\n        /* \"#utility.yul\":3698:3815   */\n    tag_81:\n        /* \"#utility.yul\":3807:3808   */\n      0x00\n        /* \"#utility.yul\":3804:3805   */\n      dup1\n        /* \"#utility.yul\":3797:3809   */\n      revert\n        /* \"#utility.yul\":3821:3938   */\n    tag_82:\n        /* \"#utility.yul\":3930:3931   */\n      0x00\n        /* \"#utility.yul\":3927:3928   */\n      dup1\n        /* \"#utility.yul\":3920:3932   */\n      revert\n        /* \"#utility.yul\":3944:4124   */\n    tag_83:\n        /* \"#utility.yul\":3992:4069   */\n      0x4e487b7100000000000000000000000000000000000000000000000000000000\n        /* \"#utility.yul\":3989:3990   */\n      0x00\n        /* \"#utility.yul\":3982:4070   */\n      mstore\n        /* \"#utility.yul\":4089:4093   */\n      0x41\n        /* \"#utility.yul\":4086:4087   */\n      0x04\n        /* \"#utility.yul\":4079:4094   */\n      mstore\n        /* \"#utility.yul\":4113:4117   */\n      0x24\n        /* \"#utility.yul\":4110:4111   */\n      0x00\n        /* \"#utility.yul\":4103:4118   */\n      revert\n        /* \"#utility.yul\":4130:4411   */\n    tag_84:\n        /* \"#utility.yul\":4213:4240   */\n      tag_156\n        /* \"#utility.yul\":4235:4239   */\n      dup3\n        /* \"#utility.yul\":4213:4240   */\n      tag_73\n      jump\t// in\n    tag_156:\n        /* \"#utility.yul\":4205:4211   */\n      dup2\n        /* \"#utility.yul\":4201:4241   */\n      add\n        /* \"#utility.yul\":4343:4349   */\n      dup2\n        /* \"#utility.yul\":4331:4341   */\n      dup2\n        /* \"#utility.yul\":4328:4350   */\n      lt\n        /* \"#utility.yul\":4307:4325   */\n      0xffffffffffffffff\n        /* \"#utility.yul\":4295:4305   */\n      dup3\n        /* \"#utility.yul\":4292:4326   */\n      gt\n        /* \"#utility.yul\":4289:4351   */\n      or\n        /* \"#utility.yul\":4286:4374   */\n      iszero\n      tag_157\n      jumpi\n        /* \"#utility.yul\":4354:4372   */\n      tag_158\n      tag_83\n      jump\t// in\n    tag_158:\n        /* \"#utility.yul\":4286:4374   */\n    tag_157:\n        /* \"#utility.yul\":4394:4404   */\n      dup1\n        /* \"#utility.yul\":4390:4392   */\n      0x40\n        /* \"#utility.yul\":4383:4405   */\n      mstore\n        /* \"#utility.yul\":4173:4411   */\n      pop\n        /* \"#utility.yul\":4130:4411   */\n      pop\n      pop\n      jump\t// out\n        /* \"#utility.yul\":4417:4546   */\n    tag_85:\n        /* \"#utility.yul\":4451:4457   */\n      0x00\n        /* \"#utility.yul\":4478:4498   */\n      tag_160\n      tag_64\n      jump\t// in\n    tag_160:\n        /* \"#utility.yul\":4468:4498   */\n      swap1\n      pop\n        /* \"#utility.yul\":4507:4540   */\n      tag_161\n        /* \"#utility.yul\":4535:4539   */\n      dup3\n        /* \"#utility.yul\":4527:4533   */\n      dup3\n        /* \"#utility.yul\":4507:4540   */\n      tag_84\n      jump\t// in\n    tag_161:\n        /* \"#utility.yul\":4417:4546   */\n      swap2\n      swap1\n      pop\n      jump\t// out\n        /* \"#utility.yul\":4552:4860   */\n    tag_86:\n        /* \"#utility.yul\":4614:4618   */\n      0x00\n        /* \"#utility.yul\":4704:4722   */\n      0xffffffffffffffff\n        /* \"#utility.yul\":4696:4702   */\n      dup3\n        /* \"#utility.yul\":4693:4723   */\n      gt\n        /* \"#utility.yul\":4690:4746   */\n      iszero\n      tag_163\n      jumpi\n        /* \"#utility.yul\":4726:4744   */\n      tag_164\n      tag_83\n      jump\t// in\n    tag_164:\n        /* \"#utility.yul\":4690:4746   */\n    tag_163:\n        /* \"#utility.yul\":4764:4793   */\n      tag_165\n        /* \"#utility.yul\":4786:4792   */\n      dup3\n        /* \"#utility.yul\":4764:4793   */\n      tag_73\n      jump\t// in\n    tag_165:\n        /* \"#utility.yul\":4756:4793   */\n      swap1\n      pop\n        /* \"#utility.yul\":4848:4852   */\n      0x20\n        /* \"#utility.yul\":4842:4846   */\n      dup2\n        /* \"#utility.yul\":4838:4853   */\n      add\n        /* \"#utility.yul\":4830:4853   */\n      swap1\n      pop\n        /* \"#utility.yul\":4552:4860   */\n      swap2\n      swap1\n      pop\n      jump\t// out\n        /* \"#utility.yul\":4866:5012   */\n    tag_87:\n        /* \"#utility.yul\":4963:4969   */\n      dup3\n        /* \"#utility.yul\":4958:4961   */\n      dup2\n        /* \"#utility.yul\":4953:4956   */\n      dup4\n        /* \"#utility.yul\":4940:4970   */\n      calldatacopy\n        /* \"#utility.yul\":5004:5005   */\n      0x00\n        /* \"#utility.yul\":4995:5001   */\n      dup4\n        /* \"#utility.yul\":4990:4993   */\n      dup4\n        /* \"#utility.yul\":4986:5002   */\n      add\n        /* \"#utility.yul\":4979:5006   */\n      mstore\n        /* \"#utility.yul\":4866:5012   */\n      pop\n      pop\n      pop\n      jump\t// out\n        /* \"#utility.yul\":5018:5443   */\n    tag_88:\n        /* \"#utility.yul\":5096:5101   */\n      0x00\n        /* \"#utility.yul\":5121:5187   */\n      tag_168\n        /* \"#utility.yul\":5137:5186   */\n      tag_169\n        /* \"#utility.yul\":5179:5185   */\n      dup5\n        /* \"#utility.yul\":5137:5186   */\n      tag_86\n      jump\t// in\n    tag_169:\n        /* \"#utility.yul\":5121:5187   */\n      tag_85\n      jump\t// in\n    tag_168:\n        /* \"#utility.yul\":5112:5187   */\n      swap1\n      pop\n        /* \"#utility.yul\":5210:5216   */\n      dup3\n        /* \"#utility.yul\":5203:5208   */\n      dup2\n        /* \"#utility.yul\":5196:5217   */\n      mstore\n        /* \"#utility.yul\":5248:5252   */\n      0x20\n        /* \"#utility.yul\":5241:5246   */\n      dup2\n        /* \"#utility.yul\":5237:5253   */\n      add\n        /* \"#utility.yul\":5286:5289   */\n      dup5\n        /* \"#utility.yul\":5277:5283   */\n      dup5\n        /* \"#utility.yul\":5272:5275   */\n      dup5\n        /* \"#utility.yul\":5268:5284   */\n      add\n        /* \"#utility.yul\":5265:5290   */\n      gt\n        /* \"#utility.yul\":5262:5374   */\n      iszero\n      tag_170\n      jumpi\n        /* \"#utility.yul\":5293:5372   */\n      tag_171\n      tag_82\n      jump\t// in\n    tag_171:\n        /* \"#utility.yul\":5262:5374   */\n    tag_170:\n        /* \"#utility.yul\":5383:5437   */\n      tag_172\n        /* \"#utility.yul\":5430:5436   */\n      dup5\n        /* \"#utility.yul\":5425:5428   */\n      dup3\n        /* \"#utility.yul\":5420:5423   */\n      dup6\n        /* \"#utility.yul\":5383:5437   */\n      tag_87\n      jump\t// in\n    tag_172:\n        /* \"#utility.yul\":5102:5443   */\n      pop\n        /* \"#utility.yul\":5018:5443   */\n      swap4\n      swap3\n      pop\n      pop\n      pop\n      jump\t// out\n        /* \"#utility.yul\":5463:5803   */\n    tag_89:\n        /* \"#utility.yul\":5519:5524   */\n      0x00\n        /* \"#utility.yul\":5568:5571   */\n      dup3\n        /* \"#utility.yul\":5561:5565   */\n      0x1f\n        /* \"#utility.yul\":5553:5559   */\n      dup4\n        /* \"#utility.yul\":5549:5566   */\n      add\n        /* \"#utility.yul\":5545:5572   */\n      slt\n        /* \"#utility.yul\":5535:5657   */\n      tag_174\n      jumpi\n        /* \"#utility.yul\":5576:5655   */\n      tag_175\n      tag_81\n      jump\t// in\n    tag_175:\n        /* \"#utility.yul\":5535:5657   */\n    tag_174:\n        /* \"#utility.yul\":5693:5699   */\n      dup2\n        /* \"#utility.yul\":5680:5700   */\n      calldataload\n        /* \"#utility.yul\":5718:5797   */\n      tag_176\n        /* \"#utility.yul\":5793:5796   */\n      dup5\n        /* \"#utility.yul\":5785:5791   */\n      dup3\n        /* \"#utility.yul\":5778:5782   */\n      0x20\n        /* \"#utility.yul\":5770:5776   */\n      dup7\n        /* \"#utility.yul\":5766:5783   */\n      add\n        /* \"#utility.yul\":5718:5797   */\n      tag_88\n      jump\t// in\n    tag_176:\n        /* \"#utility.yul\":5709:5797   */\n      swap2\n      pop\n        /* \"#utility.yul\":5525:5803   */\n      pop\n        /* \"#utility.yul\":5463:5803   */\n      swap3\n      swap2\n      pop\n      pop\n      jump\t// out\n        /* \"#utility.yul\":5809:6643   */\n    tag_20:\n        /* \"#utility.yul\":5897:5903   */\n      0x00\n        /* \"#utility.yul\":5905:5911   */\n      dup1\n        /* \"#utility.yul\":5954:5956   */\n      0x40\n        /* \"#utility.yul\":5942:5951   */\n      dup4\n        /* \"#utility.yul\":5933:5940   */\n      dup6\n        /* \"#utility.yul\":5929:5952   */\n      sub\n        /* \"#utility.yul\":5925:5957   */\n      slt\n        /* \"#utility.yul\":5922:6041   */\n      iszero\n      tag_178\n      jumpi\n        /* \"#utility.yul\":5960:6039   */\n      tag_179\n      tag_65\n      jump\t// in\n    tag_179:\n        /* \"#utility.yul\":5922:6041   */\n    tag_178:\n        /* \"#utility.yul\":6108:6109   */\n      0x00\n        /* \"#utility.yul\":6097:6106   */\n      dup4\n        /* \"#utility.yul\":6093:6110   */\n      add\n        /* \"#utility.yul\":6080:6111   */\n      calldataload\n        /* \"#utility.yul\":6138:6156   */\n      0xffffffffffffffff\n        /* \"#utility.yul\":6130:6136   */\n      dup2\n        /* \"#utility.yul\":6127:6157   */\n      gt\n        /* \"#utility.yul\":6124:6241   */\n      iszero\n      tag_180\n      jumpi\n        /* \"#utility.yul\":6160:6239   */\n      tag_181\n      tag_66\n      jump\t// in\n    tag_181:\n        /* \"#utility.yul\":6124:6241   */\n    tag_180:\n        /* \"#utility.yul\":6265:6328   */\n      tag_182\n        /* \"#utility.yul\":6320:6327   */\n      dup6\n        /* \"#utility.yul\":6311:6317   */\n      dup3\n        /* \"#utility.yul\":6300:6309   */\n      dup7\n        /* \"#utility.yul\":6296:6318   */\n      add\n        /* \"#utility.yul\":6265:6328   */\n      tag_89\n      jump\t// in\n    tag_182:\n        /* \"#utility.yul\":6255:6328   */\n      swap3\n      pop\n        /* \"#utility.yul\":6051:6338   */\n      pop\n        /* \"#utility.yul\":6405:6407   */\n      0x20\n        /* \"#utility.yul\":6394:6403   */\n      dup4\n        /* \"#utility.yul\":6390:6408   */\n      add\n        /* \"#utility.yul\":6377:6409   */\n      calldataload\n        /* \"#utility.yul\":6436:6454   */\n      0xffffffffffffffff\n        /* \"#utility.yul\":6428:6434   */\n      dup2\n        /* \"#utility.yul\":6425:6455   */\n      gt\n        /* \"#utility.yul\":6422:6539   */\n      iszero\n      tag_183\n      jumpi\n        /* \"#utility.yul\":6458:6537   */\n      tag_184\n      tag_66\n      jump\t// in\n    tag_184:\n        /* \"#utility.yul\":6422:6539   */\n    tag_183:\n        /* \"#utility.yul\":6563:6626   */\n      tag_185\n        /* \"#utility.yul\":6618:6625   */\n      dup6\n        /* \"#utility.yul\":6609:6615   */\n      dup3\n        /* \"#utility.yul\":6598:6607   */\n      dup7\n        /* \"#utility.yul\":6594:6616   */\n      add\n        /* \"#utility.yul\":6563:6626   */\n      tag_89\n      jump\t// in\n    tag_185:\n        /* \"#utility.yul\":6553:6626   */\n      swap2\n      pop\n        /* \"#utility.yul\":6348:6636   */\n      pop\n        /* \"#utility.yul\":5809:6643   */\n      swap3\n      pop\n      swap3\n      swap1\n      pop\n      jump\t// out\n        /* \"#utility.yul\":6649:6871   */\n    tag_25:\n        /* \"#utility.yul\":6742:6746   */\n      0x00\n        /* \"#utility.yul\":6780:6782   */\n      0x20\n        /* \"#utility.yul\":6769:6778   */\n      dup3\n        /* \"#utility.yul\":6765:6783   */\n      add\n        /* \"#utility.yul\":6757:6783   */\n      swap1\n      pop\n        /* \"#utility.yul\":6793:6864   */\n      tag_187\n        /* \"#utility.yul\":6861:6862   */\n      0x00\n        /* \"#utility.yul\":6850:6859   */\n      dup4\n        /* \"#utility.yul\":6846:6863   */\n      add\n        /* \"#utility.yul\":6837:6843   */\n      dup5\n        /* \"#utility.yul\":6793:6864   */\n      tag_75\n      jump\t// in\n    tag_187:\n        /* \"#utility.yul\":6649:6871   */\n      swap3\n      swap2\n      pop\n      pop\n      jump\t// out\n        /* \"#utility.yul\":6877:7057   */\n    tag_90:\n        /* \"#utility.yul\":6925:7002   */\n      0x4e487b7100000000000000000000000000000000000000000000000000000000\n        /* \"#utility.yul\":6922:6923   */\n      0x00\n        /* \"#utility.yul\":6915:7003   */\n      mstore\n        /* \"#utility.yul\":7022:7026   */\n      0x22\n        /* \"#utility.yul\":7019:7020   */\n      0x04\n        /* \"#utility.yul\":7012:7027   */\n      mstore\n        /* \"#utility.yul\":7046:7050   */\n      0x24\n        /* \"#utility.yul\":7043:7044   */\n      0x00\n        /* \"#utility.yul\":7036:7051   */\n      revert\n        /* \"#utility.yul\":7063:7383   */\n    tag_32:\n        /* \"#utility.yul\":7107:7113   */\n      0x00\n        /* \"#utility.yul\":7144:7145   */\n      0x02\n        /* \"#utility.yul\":7138:7142   */\n      dup3\n        /* \"#utility.yul\":7134:7146   */\n      div\n        /* \"#utility.yul\":7124:7146   */\n      swap1\n      pop\n        /* \"#utility.yul\":7191:7192   */\n      0x01\n        /* \"#utility.yul\":7185:7189   */\n      dup3\n        /* \"#utility.yul\":7181:7193   */\n      and\n        /* \"#utility.yul\":7212:7230   */\n      dup1\n        /* \"#utility.yul\":7202:7283   */\n      tag_190\n      jumpi\n        /* \"#utility.yul\":7268:7272   */\n      0x7f\n        /* \"#utility.yul\":7260:7266   */\n      dup3\n        /* \"#utility.yul\":7256:7273   */\n      and\n        /* \"#utility.yul\":7246:7273   */\n      swap2\n      pop\n        /* \"#utility.yul\":7202:7283   */\n    tag_190:\n        /* \"#utility.yul\":7330:7332   */\n      0x20\n        /* \"#utility.yul\":7322:7328   */\n      dup3\n        /* \"#utility.yul\":7319:7333   */\n      lt\n        /* \"#utility.yul\":7299:7317   */\n      dup2\n        /* \"#utility.yul\":7296:7334   */\n      sub\n        /* \"#utility.yul\":7293:7377   */\n      tag_191\n      jumpi\n        /* \"#utility.yul\":7349:7367   */\n      tag_192\n      tag_90\n      jump\t// in\n    tag_192:\n        /* \"#utility.yul\":7293:7377   */\n    tag_191:\n        /* \"#utility.yul\":7114:7383   */\n      pop\n        /* \"#utility.yul\":7063:7383   */\n      swap2\n      swap1\n      pop\n      jump\t// out\n        /* \"#utility.yul\":7389:7611   */\n    tag_91:\n        /* \"#utility.yul\":7529:7563   */\n      0x4f6e6c79206973737565722063616e20706572666f726d207468697320616374\n        /* \"#utility.yul\":7525:7526   */\n      0x00\n        /* \"#utility.yul\":7517:7523   */\n      dup3\n        /* \"#utility.yul\":7513:7527   */\n      add\n        /* \"#utility.yul\":7506:7564   */\n      mstore\n        /* \"#utility.yul\":7598:7603   */\n      0x696f6e0000000000000000000000000000000000000000000000000000000000\n        /* \"#utility.yul\":7593:7595   */\n      0x20\n        /* \"#utility.yul\":7585:7591   */\n      dup3\n        /* \"#utility.yul\":7581:7596   */\n      add\n        /* \"#utility.yul\":7574:7604   */\n      mstore\n        /* \"#utility.yul\":7389:7611   */\n      pop\n      jump\t// out\n        /* \"#utility.yul\":7617:7983   */\n    tag_92:\n        /* \"#utility.yul\":7759:7762   */\n      0x00\n        /* \"#utility.yul\":7780:7847   */\n      tag_195\n        /* \"#utility.yul\":7844:7846   */\n      0x23\n        /* \"#utility.yul\":7839:7842   */\n      dup4\n        /* \"#utility.yul\":7780:7847   */\n      tag_71\n      jump\t// in\n    tag_195:\n        /* \"#utility.yul\":7773:7847   */\n      swap2\n      pop\n        /* \"#utility.yul\":7856:7949   */\n      tag_196\n        /* \"#utility.yul\":7945:7948   */\n      dup3\n        /* \"#utility.yul\":7856:7949   */\n      tag_91\n      jump\t// in\n    tag_196:\n        /* \"#utility.yul\":7974:7976   */\n      0x40\n        /* \"#utility.yul\":7969:7972   */\n      dup3\n        /* \"#utility.yul\":7965:7977   */\n      add\n        /* \"#utility.yul\":7958:7977   */\n      swap1\n      pop\n        /* \"#utility.yul\":7617:7983   */\n      swap2\n      swap1\n      pop\n      jump\t// out\n        /* \"#utility.yul\":7989:8408   */\n    tag_45:\n        /* \"#utility.yul\":8155:8159   */\n      0x00\n        /* \"#utility.yul\":8193:8195   */\n      0x20\n        /* \"#utility.yul\":8182:8191   */\n      dup3\n        /* \"#utility.yul\":8178:8196   */\n      add\n        /* \"#utility.yul\":8170:8196   */\n      swap1\n      pop\n        /* \"#utility.yul\":8242:8251   */\n      dup2\n        /* \"#utility.yul\":8236:8240   */\n      dup2\n        /* \"#utility.yul\":8232:8252   */\n      sub\n        /* \"#utility.yul\":8228:8229   */\n      0x00\n        /* \"#utility.yul\":8217:8226   */\n      dup4\n        /* \"#utility.yul\":8213:8230   */\n      add\n        /* \"#utility.yul\":8206:8253   */\n      mstore\n        /* \"#utility.yul\":8270:8401   */\n      tag_198\n        /* \"#utility.yul\":8396:8400   */\n      dup2\n        /* \"#utility.yul\":8270:8401   */\n      tag_92\n      jump\t// in\n    tag_198:\n        /* \"#utility.yul\":8262:8401   */\n      swap1\n      pop\n        /* \"#utility.yul\":7989:8408   */\n      swap2\n      swap1\n      pop\n      jump\t// out\n        /* \"#utility.yul\":8414:8594   */\n    tag_93:\n        /* \"#utility.yul\":8462:8539   */\n      0x4e487b7100000000000000000000000000000000000000000000000000000000\n        /* \"#utility.yul\":8459:8460   */\n      0x00\n        /* \"#utility.yul\":8452:8540   */\n      mstore\n        /* \"#utility.yul\":8559:8563   */\n      0x11\n        /* \"#utility.yul\":8556:8557   */\n      0x04\n        /* \"#utility.yul\":8549:8564   */\n      mstore\n        /* \"#utility.yul\":8583:8587   */\n      0x24\n        /* \"#utility.yul\":8580:8581   */\n      0x00\n        /* \"#utility.yul\":8573:8588   */\n      revert\n        /* \"#utility.yul\":8600:8833   */\n    tag_48:\n        /* \"#utility.yul\":8639:8642   */\n      0x00\n        /* \"#utility.yul\":8662:8686   */\n      tag_201\n        /* \"#utility.yul\":8680:8685   */\n      dup3\n        /* \"#utility.yul\":8662:8686   */\n      tag_67\n      jump\t// in\n    tag_201:\n        /* \"#utility.yul\":8653:8686   */\n      swap2\n      pop\n        /* \"#utility.yul\":8708:8774   */\n      0xffffffffffffffffffffffffffffffffffffffffffffffffffffffffffffffff\n        /* \"#utility.yul\":8701:8706   */\n      dup3\n        /* \"#utility.yul\":8698:8775   */\n      sub\n        /* \"#utility.yul\":8695:8798   */\n      tag_202\n      jumpi\n        /* \"#utility.yul\":8778:8796   */\n      tag_203\n      tag_93\n      jump\t// in\n    tag_203:\n        /* \"#utility.yul\":8695:8798   */\n    tag_202:\n        /* \"#utility.yul\":8825:8826   */\n      0x01\n        /* \"#utility.yul\":8818:8823   */\n      dup3\n        /* \"#utility.yul\":8814:8827   */\n      add\n        /* \"#utility.yul\":8807:8827   */\n      swap1\n      pop\n        /* \"#utility.yul\":8600:8833   */\n      swap2\n      swap1\n      pop\n      jump\t// out\n        /* \"#utility.yul\":8839:8980   */\n    tag_94:\n        /* \"#utility.yul\":8888:8892   */\n      0x00\n        /* \"#utility.yul\":8911:8914   */\n      dup2\n        /* \"#utility.yul\":8903:8914   */\n      swap1\n      pop\n        /* \"#utility.yul\":8934:8937   */\n      dup2\n        /* \"#utility.yul\":8931:8932   */\n      0x00\n        /* \"#utility.yul\":8924:8938   */\n      mstore\n        /* \"#utility.yul\":8968:8972   */\n      0x20\n        /* \"#utility.yul\":8965:8966   */\n      0x00\n        /* \"#utility.yul\":8955:8973   */\n      keccak256\n        /* \"#utility.yul\":8947:8973   */\n      swap1\n      pop\n        /* \"#utility.yul\":8839:8980   */\n      swap2\n      swap1\n      pop\n      jump\t// out\n        /* \"#utility.yul\":8986:9079   */\n    tag_95:\n        /* \"#utility.yul\":9023:9029   */\n      0x00\n        /* \"#utility.yul\":9070:9072   */\n      0x20\n        /* \"#utility.yul\":9065:9067   */\n      0x1f\n        /* \"#utility.yul\":9058:9063   */\n      dup4\n        /* \"#utility.yul\":9054:9068   */\n      add\n        /* \"#utility.yul\":9050:9073   */\n      div\n        /* \"#utility.yul\":9040:9073   */\n      swap1\n      pop\n        /* \"#utility.yul\":8986:9079   */\n      swap2\n      swap1\n      pop\n      jump\t// out\n        /* \"#utility.yul\":9085:9192   */\n    tag_96:\n        /* \"#utility.yul\":9129:9137   */\n      0x00\n        /* \"#utility.yul\":9179:9184   */\n      dup3\n        /* \"#utility.yul\":9173:9177   */\n      dup3\n        /* \"#utility.yul\":9169:9185   */\n      shl\n        /* \"#utility.yul\":9148:9185   */\n      swap1\n      pop\n        /* \"#utility.yul\":9085:9192   */\n      swap3\n      swap2\n      pop\n      pop\n      jump\t// out\n        /* \"#utility.yul\":9198:9591   */\n    tag_97:\n        /* \"#utility.yul\":9267:9273   */\n      0x00\n        /* \"#utility.yul\":9317:9318   */\n      0x08\n        /* \"#utility.yul\":9305:9315   */\n      dup4\n        /* \"#utility.yul\":9301:9319   */\n      mul\n        /* \"#utility.yul\":9340:9437   */\n      tag_208\n        /* \"#utility.yul\":9370:9436   */\n      0xffffffffffffffffffffffffffffffffffffffffffffffffffffffffffffffff\n        /* \"#utility.yul\":9359:9368   */\n      dup3\n        /* \"#utility.yul\":9340:9437   */\n      tag_96\n      jump\t// in\n    tag_208:\n        /* \"#utility.yul\":9458:9497   */\n      tag_209\n        /* \"#utility.yul\":9488:9496   */\n      dup7\n        /* \"#utility.yul\":9477:9486   */\n      dup4\n        /* \"#utility.yul\":9458:9497   */\n      tag_96\n      jump\t// in\n    tag_209:\n        /* \"#utility.yul\":9446:9497   */\n      swap6\n      pop\n        /* \"#utility.yul\":9530:9534   */\n      dup1\n        /* \"#utility.yul\":9526:9535   */\n      not\n        /* \"#utility.yul\":9519:9524   */\n      dup5\n        /* \"#utility.yul\":9515:9536   */\n      and\n        /* \"#utility.yul\":9506:9536   */\n      swap4\n      pop\n        /* \"#utility.yul\":9579:9583   */\n      dup1\n        /* \"#utility.yul\":9569:9577   */\n      dup7\n        /* \"#utility.yul\":9565:9584   */\n      and\n        /* \"#utility.yul\":9558:9563   */\n      dup5\n        /* \"#utility.yul\":9555:9585   */\n      or\n        /* \"#utility.yul\":9545:9585   */\n      swap3\n      pop\n        /* \"#utility.yul\":9274:9591   */\n      pop\n      pop\n        /* \"#utility.yul\":9198:9591   */\n      swap4\n      swap3\n      pop\n      pop\n      pop\n      jump\t// out\n        /* \"#utility.yul\":9597:9657   */\n    tag_98:\n        /* \"#utility.yul\":9625:9628   */\n      0x00\n        /* \"#utility.yul\":9646:9651   */\n      dup2\n        /* \"#utility.yul\":9639:9651   */\n      swap1\n      pop\n        /* \"#utility.yul\":9597:9657   */\n      swap2\n      swap1\n      pop\n      jump\t// out\n        /* \"#utility.yul\":9663:9805   */\n    tag_99:\n        /* \"#utility.yul\":9713:9722   */\n      0x00\n        /* \"#utility.yul\":9746:9799   */\n      tag_212\n        /* \"#utility.yul\":9764:9798   */\n      tag_213\n        /* \"#utility.yul\":9773:9797   */\n      tag_214\n        /* \"#utility.yul\":9791:9796   */\n      dup5\n        /* \"#utility.yul\":9773:9797   */\n      tag_67\n      jump\t// in\n    tag_214:\n        /* \"#utility.yul\":9764:9798   */\n      tag_98\n      jump\t// in\n    tag_213:\n        /* \"#utility.yul\":9746:9799   */\n      tag_67\n      jump\t// in\n    tag_212:\n        /* \"#utility.yul\":9733:9799   */\n      swap1\n      pop\n        /* \"#utility.yul\":9663:9805   */\n      swap2\n      swap1\n      pop\n      jump\t// out\n        /* \"#utility.yul\":9811:9886   */\n    tag_100:\n        /* \"#utility.yul\":9854:9857   */\n      0x00\n        /* \"#utility.yul\":9875:9880   */\n      dup2\n        /* \"#utility.yul\":9868:9880   */\n      swap1\n      pop\n        /* \"#utility.yul\":9811:9886   */\n      swap2\n      swap1\n      pop\n      jump\t// out\n        /* \"#utility.yul\":9892:10161   */\n    tag_101:\n        /* \"#utility.yul\":10002:10041   */\n      tag_217\n        /* \"#utility.yul\":10033:10040   */\n      dup4\n        /* \"#utility.yul\":10002:10041   */\n      tag_99\n      jump\t// in\n    tag_217:\n        /* \"#utility.yul\":10063:10154   */\n      tag_218\n        /* \"#utility.yul\":10112:10153   */\n      tag_219\n        /* \"#utility.yul\":10136:10152   */\n      dup3\n        /* \"#utility.yul\":10112:10153   */\n      tag_100\n      jump\t// in\n    tag_219:\n        /* \"#utility.yul\":10104:10110   */\n      dup5\n        /* \"#utility.yul\":10097:10101   */\n      dup5\n        /* \"#utility.yul\":10091:10102   */\n      sload\n        /* \"#utility.yul\":10063:10154   */\n      tag_97\n      jump\t// in\n    tag_218:\n        /* \"#utility.yul\":10057:10061   */\n      dup3\n        /* \"#utility.yul\":10050:10155   */\n      sstore\n        /* \"#utility.yul\":9968:10161   */\n      pop\n        /* \"#utility.yul\":9892:10161   */\n      pop\n      pop\n      pop\n      jump\t// out\n        /* \"#utility.yul\":10167:10240   */\n    tag_102:\n        /* \"#utility.yul\":10212:10215   */\n      0x00\n        /* \"#utility.yul\":10167:10240   */\n      swap1\n      jump\t// out\n        /* \"#utility.yul\":10246:10435   */\n    tag_103:\n        /* \"#utility.yul\":10323:10355   */\n      tag_222\n      tag_102\n      jump\t// in\n    tag_222:\n        /* \"#utility.yul\":10364:10429   */\n      tag_223\n        /* \"#utility.yul\":10422:10428   */\n      dup2\n        /* \"#utility.yul\":10414:10420   */\n      dup5\n        /* \"#utility.yul\":10408:10412   */\n      dup5\n        /* \"#utility.yul\":10364:10429   */\n      tag_101\n      jump\t// in\n    tag_223:\n        /* \"#utility.yul\":10299:10435   */\n      pop\n        /* \"#utility.yul\":10246:10435   */\n      pop\n      pop\n      jump\t// out\n        /* \"#utility.yul\":10441:10627   */\n    tag_104:\n        /* \"#utility.yul\":10501:10621   */\n    tag_225:\n        /* \"#utility.yul\":10518:10521   */\n      dup2\n        /* \"#utility.yul\":10511:10516   */\n      dup2\n        /* \"#utility.yul\":10508:10522   */\n      lt\n        /* \"#utility.yul\":10501:10621   */\n      iszero\n      tag_227\n      jumpi\n        /* \"#utility.yul\":10572:10611   */\n      tag_228\n        /* \"#utility.yul\":10609:10610   */\n      0x00\n        /* \"#utility.yul\":10602:10607   */\n      dup3\n        /* \"#utility.yul\":10572:10611   */\n      tag_103\n      jump\t// in\n    tag_228:\n        /* \"#utility.yul\":10545:10546   */\n      0x01\n        /* \"#utility.yul\":10538:10543   */\n      dup2\n        /* \"#utility.yul\":10534:10547   */\n      add\n        /* \"#utility.yul\":10525:10547   */\n      swap1\n      pop\n        /* \"#utility.yul\":10501:10621   */\n      jump(tag_225)\n    tag_227:\n        /* \"#utility.yul\":10441:10627   */\n      pop\n      pop\n      jump\t// out\n        /* \"#utility.yul\":10633:11176   */\n    tag_105:\n        /* \"#utility.yul\":10734:10736   */\n      0x1f\n        /* \"#utility.yul\":10729:10732   */\n      dup3\n        /* \"#utility.yul\":10726:10737   */\n      gt\n        /* \"#utility.yul\":10723:11169   */\n      iszero\n      tag_230\n      jumpi\n        /* \"#utility.yul\":10768:10806   */\n      tag_231\n        /* \"#utility.yul\":10800:10805   */\n      dup2\n        /* \"#utility.yul\":10768:10806   */\n      tag_94\n      jump\t// in\n    tag_231:\n        /* \"#utility.yul\":10852:10881   */\n      tag_232\n        /* \"#utility.yul\":10870:10880   */\n      dup5\n        /* \"#utility.yul\":10852:10881   */\n      tag_95\n      jump\t// in\n    tag_232:\n        /* \"#utility.yul\":10842:10850   */\n      dup2\n        /* \"#utility.yul\":10838:10882   */\n      add\n        /* \"#utility.yul\":11035:11037   */\n      0x20\n        /* \"#utility.yul\":11023:11033   */\n      dup6\n        /* \"#utility.yul\":11020:11038   */\n      lt\n        /* \"#utility.yul\":11017:11066   */\n      iszero\n      tag_233\n      jumpi\n        /* \"#utility.yul\":11056:11064   */\n      dup2\n        /* \"#utility.yul\":11041:11064   */\n      swap1\n      pop\n        /* \"#utility.yul\":11017:11066   */\n    tag_233:\n        /* \"#utility.yul\":11079:11159   */\n      tag_234\n        /* \"#utility.yul\":11135:11157   */\n      tag_235\n        /* \"#utility.yul\":11153:11156   */\n      dup6\n        /* \"#utility.yul\":11135:11157   */\n      tag_95\n      jump\t// in\n    tag_235:\n        /* \"#utility.yul\":11125:11133   */\n      dup4\n        /* \"#utility.yul\":11121:11158   */\n      add\n        /* \"#utility.yul\":11108:11119   */\n      dup3\n        /* \"#utility.yul\":11079:11159   */\n      tag_104\n      jump\t// in\n    tag_234:\n        /* \"#utility.yul\":10738:11169   */\n      pop\n      pop\n        /* \"#utility.yul\":10723:11169   */\n    tag_230:\n        /* \"#utility.yul\":10633:11176   */\n      pop\n      pop\n      pop\n      jump\t// out\n        /* \"#utility.yul\":11182:11299   */\n    tag_106:\n        /* \"#utility.yul\":11236:11244   */\n      0x00\n        /* \"#utility.yul\":11286:11291   */\n      dup3\n        /* \"#utility.yul\":11280:11284   */\n      dup3\n        /* \"#utility.yul\":11276:11292   */\n      shr\n        /* \"#utility.yul\":11255:11292   */\n      swap1\n      pop\n        /* \"#utility.yul\":11182:11299   */\n      swap3\n      swap2\n      pop\n      pop\n      jump\t// out\n        /* \"#utility.yul\":11305:11474   */\n    tag_107:\n        /* \"#utility.yul\":11349:11355   */\n      0x00\n        /* \"#utility.yul\":11382:11433   */\n      tag_238\n        /* \"#utility.yul\":11430:11431   */\n      0x00\n        /* \"#utility.yul\":11426:11432   */\n      not\n        /* \"#utility.yul\":11418:11423   */\n      dup5\n        /* \"#utility.yul\":11415:11416   */\n      0x08\n        /* \"#utility.yul\":11411:11424   */\n      mul\n        /* \"#utility.yul\":11382:11433   */\n      tag_106\n      jump\t// in\n    tag_238:\n        /* \"#utility.yul\":11378:11434   */\n      not\n        /* \"#utility.yul\":11463:11467   */\n      dup1\n        /* \"#utility.yul\":11457:11461   */\n      dup4\n        /* \"#utility.yul\":11453:11468   */\n      and\n        /* \"#utility.yul\":11443:11468   */\n      swap2\n      pop\n        /* \"#utility.yul\":11356:11474   */\n      pop\n        /* \"#utility.yul\":11305:11474   */\n      swap3\n      swap2\n      pop\n      pop\n      jump\t// out\n        /* \"#utility.yul\":11479:11774   */\n    tag_108:\n        /* \"#utility.yul\":11555:11559   */\n      0x00\n        /* \"#utility.yul\":11701:11730   */\n      tag_240\n        /* \"#utility.yul\":11726:11729   */\n      dup4\n        /* \"#utility.yul\":11720:11724   */\n      dup4\n        /* \"#utility.yul\":11701:11730   */\n      tag_107\n      jump\t// in\n    tag_240:\n        /* \"#utility.yul\":11693:11730   */\n      swap2\n      pop\n        /* \"#utility.yul\":11763:11766   */\n      dup3\n        /* \"#utility.yul\":11760:11761   */\n      0x02\n        /* \"#utility.yul\":11756:11767   */\n      mul\n        /* \"#utility.yul\":11750:11754   */\n      dup3\n        /* \"#utility.yul\":11747:11768   */\n      or\n        /* \"#utility.yul\":11739:11768   */\n      swap1\n      pop\n        /* \"#utility.yul\":11479:11774   */\n      swap3\n      swap2\n      pop\n      pop\n      jump\t// out\n        /* \"#utility.yul\":11779:13174   */\n    tag_50:\n        /* \"#utility.yul\":11896:11933   */\n      tag_242\n        /* \"#utility.yul\":11929:11932   */\n      dup3\n        /* \"#utility.yul\":11896:11933   */\n      tag_70\n      jump\t// in\n    tag_242:\n        /* \"#utility.yul\":11998:12016   */\n      0xffffffffffffffff\n        /* \"#utility.yul\":11990:11996   */\n      dup2\n        /* \"#utility.yul\":11987:12017   */\n      gt\n        /* \"#utility.yul\":11984:12040   */\n      iszero\n      tag_243\n      jumpi\n        /* \"#utility.yul\":12020:12038   */\n      tag_244\n      tag_83\n      jump\t// in\n    tag_244:\n        /* \"#utility.yul\":11984:12040   */\n    tag_243:\n        /* \"#utility.yul\":12064:12102   */\n      tag_245\n        /* \"#utility.yul\":12096:12100   */\n      dup3\n        /* \"#utility.yul\":12090:12101   */\n      sload\n        /* \"#utility.yul\":12064:12102   */\n      tag_32\n      jump\t// in\n    tag_245:\n        /* \"#utility.yul\":12149:12216   */\n      tag_246\n        /* \"#utility.yul\":12209:12215   */\n      dup3\n        /* \"#utility.yul\":12201:12207   */\n      dup3\n        /* \"#utility.yul\":12195:12199   */\n      dup6\n        /* \"#utility.yul\":12149:12216   */\n      tag_105\n      jump\t// in\n    tag_246:\n        /* \"#utility.yul\":12243:12244   */\n      0x00\n        /* \"#utility.yul\":12267:12271   */\n      0x20\n        /* \"#utility.yul\":12254:12271   */\n      swap1\n      pop\n        /* \"#utility.yul\":12299:12301   */\n      0x1f\n        /* \"#utility.yul\":12291:12297   */\n      dup4\n        /* \"#utility.yul\":12288:12302   */\n      gt\n        /* \"#utility.yul\":12316:12317   */\n      0x01\n        /* \"#utility.yul\":12311:12929   */\n      dup2\n      eq\n      tag_248\n      jumpi\n        /* \"#utility.yul\":12973:12974   */\n      0x00\n        /* \"#utility.yul\":12990:12996   */\n      dup5\n        /* \"#utility.yul\":12987:13064   */\n      iszero\n      tag_249\n      jumpi\n        /* \"#utility.yul\":13039:13048   */\n      dup3\n        /* \"#utility.yul\":13034:13037   */\n      dup8\n        /* \"#utility.yul\":13030:13049   */\n      add\n        /* \"#utility.yul\":13024:13050   */\n      mload\n        /* \"#utility.yul\":13015:13050   */\n      swap1\n      pop\n        /* \"#utility.yul\":12987:13064   */\n    tag_249:\n        /* \"#utility.yul\":13090:13157   */\n      tag_250\n        /* \"#utility.yul\":13150:13156   */\n      dup6\n        /* \"#utility.yul\":13143:13148   */\n      dup3\n        /* \"#utility.yul\":13090:13157   */\n      tag_108\n      jump\t// in\n    tag_250:\n        /* \"#utility.yul\":13084:13088   */\n      dup7\n        /* \"#utility.yul\":13077:13158   */\n      sstore\n        /* \"#utility.yul\":12946:13168   */\n      pop\n        /* \"#utility.yul\":12281:13168   */\n      jump(tag_247)\n        /* \"#utility.yul\":12311:12929   */\n    tag_248:\n        /* \"#utility.yul\":12363:12367   */\n      0x1f\n        /* \"#utility.yul\":12359:12368   */\n      not\n        /* \"#utility.yul\":12351:12357   */\n      dup5\n        /* \"#utility.yul\":12347:12369   */\n      and\n        /* \"#utility.yul\":12397:12434   */\n      tag_251\n        /* \"#utility.yul\":12429:12433   */\n      dup7\n        /* \"#utility.yul\":12397:12434   */\n      tag_94\n      jump\t// in\n    tag_251:\n        /* \"#utility.yul\":12456:12457   */\n      0x00\n        /* \"#utility.yul\":12470:12678   */\n    tag_252:\n        /* \"#utility.yul\":12484:12491   */\n      dup3\n        /* \"#utility.yul\":12481:12482   */\n      dup2\n        /* \"#utility.yul\":12478:12492   */\n      lt\n        /* \"#utility.yul\":12470:12678   */\n      iszero\n      tag_254\n      jumpi\n        /* \"#utility.yul\":12563:12572   */\n      dup5\n        /* \"#utility.yul\":12558:12561   */\n      dup10\n        /* \"#utility.yul\":12554:12573   */\n      add\n        /* \"#utility.yul\":12548:12574   */\n      mload\n        /* \"#utility.yul\":12540:12546   */\n      dup3\n        /* \"#utility.yul\":12533:12575   */\n      sstore\n        /* \"#utility.yul\":12614:12615   */\n      0x01\n        /* \"#utility.yul\":12606:12612   */\n      dup3\n        /* \"#utility.yul\":12602:12616   */\n      add\n        /* \"#utility.yul\":12592:12616   */\n      swap2\n      pop\n        /* \"#utility.yul\":12661:12663   */\n      0x20\n        /* \"#utility.yul\":12650:12659   */\n      dup6\n        /* \"#utility.yul\":12646:12664   */\n      add\n        /* \"#utility.yul\":12633:12664   */\n      swap5\n      pop\n        /* \"#utility.yul\":12507:12511   */\n      0x20\n        /* \"#utility.yul\":12504:12505   */\n      dup2\n        /* \"#utility.yul\":12500:12512   */\n      add\n        /* \"#utility.yul\":12495:12512   */\n      swap1\n      pop\n        /* \"#utility.yul\":12470:12678   */\n      jump(tag_252)\n    tag_254:\n        /* \"#utility.yul\":12706:12712   */\n      dup7\n        /* \"#utility.yul\":12697:12704   */\n      dup4\n        /* \"#utility.yul\":12694:12713   */\n      lt\n        /* \"#utility.yul\":12691:12870   */\n      iszero\n      tag_255\n      jumpi\n        /* \"#utility.yul\":12764:12773   */\n      dup5\n        /* \"#utility.yul\":12759:12762   */\n      dup10\n        /* \"#utility.yul\":12755:12774   */\n      add\n        /* \"#utility.yul\":12749:12775   */\n      mload\n        /* \"#utility.yul\":12807:12855   */\n      tag_256\n        /* \"#utility.yul\":12849:12853   */\n      0x1f\n        /* \"#utility.yul\":12841:12847   */\n      dup10\n        /* \"#utility.yul\":12837:12854   */\n      and\n        /* \"#utility.yul\":12826:12835   */\n      dup3\n        /* \"#utility.yul\":12807:12855   */\n      tag_107\n      jump\t// in\n    tag_256:\n        /* \"#utility.yul\":12799:12805   */\n      dup4\n        /* \"#utility.yul\":12792:12856   */\n      sstore\n        /* \"#utility.yul\":12714:12870   */\n      pop\n        /* \"#utility.yul\":12691:12870   */\n    tag_255:\n        /* \"#utility.yul\":12916:12917   */\n      0x01\n        /* \"#utility.yul\":12912:12913   */\n      0x02\n        /* \"#utility.yul\":12904:12910   */\n      dup9\n        /* \"#utility.yul\":12900:12914   */\n      mul\n        /* \"#utility.yul\":12896:12918   */\n      add\n        /* \"#utility.yul\":12890:12894   */\n      dup9\n        /* \"#utility.yul\":12883:12919   */\n      sstore\n        /* \"#utility.yul\":12318:12929   */\n      pop\n      pop\n      pop\n        /* \"#utility.yul\":12281:13168   */\n    tag_247:\n      pop\n        /* \"#utility.yul\":11871:13174   */\n      pop\n      pop\n      pop\n        /* \"#utility.yul\":11779:13174   */\n      pop\n      pop\n      jump\t// out\n        /* \"#utility.yul\":13180:13804   */\n    tag_53:\n        /* \"#utility.yul\":13369:13373   */\n      0x00\n        /* \"#utility.yul\":13407:13409   */\n      0x60\n        /* \"#utility.yul\":13396:13405   */\n      dup3\n        /* \"#utility.yul\":13392:13410   */\n      add\n        /* \"#utility.yul\":13384:13410   */\n      swap1\n      pop\n        /* \"#utility.yul\":13420:13491   */\n      tag_258\n        /* \"#utility.yul\":13488:13489   */\n      0x00\n        /* \"#utility.yul\":13477:13486   */\n      dup4\n        /* \"#utility.yul\":13473:13490   */\n      add\n        /* \"#utility.yul\":13464:13470   */\n      dup7\n        /* \"#utility.yul\":13420:13491   */\n      tag_75\n      jump\t// in\n    tag_258:\n        /* \"#utility.yul\":13538:13547   */\n      dup2\n        /* \"#utility.yul\":13532:13536   */\n      dup2\n        /* \"#utility.yul\":13528:13548   */\n      sub\n        /* \"#utility.yul\":13523:13525   */\n      0x20\n        /* \"#utility.yul\":13512:13521   */\n      dup4\n        /* \"#utility.yul\":13508:13526   */\n      add\n        /* \"#utility.yul\":13501:13549   */\n      mstore\n        /* \"#utility.yul\":13566:13644   */\n      tag_259\n        /* \"#utility.yul\":13639:13643   */\n      dup2\n        /* \"#utility.yul\":13630:13636   */\n      dup6\n        /* \"#utility.yul\":13566:13644   */\n      tag_74\n      jump\t// in\n    tag_259:\n        /* \"#utility.yul\":13558:13644   */\n      swap1\n      pop\n        /* \"#utility.yul\":13691:13700   */\n      dup2\n        /* \"#utility.yul\":13685:13689   */\n      dup2\n        /* \"#utility.yul\":13681:13701   */\n      sub\n        /* \"#utility.yul\":13676:13678   */\n      0x40\n        /* \"#utility.yul\":13665:13674   */\n      dup4\n        /* \"#utility.yul\":13661:13679   */\n      add\n        /* \"#utility.yul\":13654:13702   */\n      mstore\n        /* \"#utility.yul\":13719:13797   */\n      tag_260\n        /* \"#utility.yul\":13792:13796   */\n      dup2\n        /* \"#utility.yul\":13783:13789   */\n      dup5\n        /* \"#utility.yul\":13719:13797   */\n      tag_74\n      jump\t// in\n    tag_260:\n        /* \"#utility.yul\":13711:13797   */\n      swap1\n      pop\n        /* \"#utility.yul\":13180:13804   */\n      swap5\n      swap4\n      pop\n      pop\n      pop\n      pop\n      jump\t// out\n\n    auxdata: 0xa26469706673582212208622f07ccd1c83b42e8f234e2db1273eaf801c583fa23cb9a35b810089f8540e64736f6c63430008120033\n}\n",
				"bytecode": {
					"linkReferences": {},
					"object": "608060405234801561001057600080fd5b50336000806101000a81548173ffffffffffffffffffffffffffffffffffffffff021916908373ffffffffffffffffffffffffffffffffffffffff160217905550610da9806100606000396000f3fe608060405234801561001057600080fd5b50600436106100575760003560e01c80631692a9421461005c5780631d1438481461008f578063211bbe71146100ad57806352d7b89c146100c9578063663b3e22146100e7575b600080fd5b610076600480360381019061007191906105e9565b61011a565b60405161008694939291906106d0565b60405180910390f35b6100976102af565b6040516100a49190610764565b60405180910390f35b6100c760048036038101906100c291906108b4565b6102d3565b005b6100d161044c565b6040516100de919061092c565b60405180910390f35b61010160048036038101906100fc91906105e9565b610452565b60405161011194939291906106d0565b60405180910390f35b60608060008060006001600087815260200190815260200160002060405180608001604052908160008201805461015090610976565b80601f016020809104026020016040519081016040528092919081815260200182805461017c90610976565b80156101c95780601f1061019e576101008083540402835291602001916101c9565b820191906000526020600020905b8154815290600101906020018083116101ac57829003601f168201915b505050505081526020016001820180546101e290610976565b80601f016020809104026020016040519081016040528092919081815260200182805461020e90610976565b801561025b5780601f106102305761010080835404028352916020019161025b565b820191906000526020600020905b81548152906001019060200180831161023e57829003601f168201915b50505050508152602001600282015481526020016003820160009054906101000a900460ff161515151581525050905080600001518160200151826040015183606001519450945094509450509193509193565b60008054906101000a900473ffffffffffffffffffffffffffffffffffffffff1681565b60008054906101000a900473ffffffffffffffffffffffffffffffffffffffff1673ffffffffffffffffffffffffffffffffffffffff163373ffffffffffffffffffffffffffffffffffffffff1614610361576040517f08c379a000000000000000000000000000000000000000000000000000000000815260040161035890610a19565b60405180910390fd5b6002600081548092919061037490610a68565b919050555060405180608001604052808381526020018281526020014281526020016001151581525060016000600254815260200190815260200160002060008201518160000190816103c79190610c5c565b5060208201518160010190816103dd9190610c5c565b506040820151816002015560608201518160030160006101000a81548160ff0219169083151502179055509050507f55e235e38225040825e04ea5d7545c53f47415b5543ec6bf898aa3a96742d5f9600254838360405161044093929190610d2e565b60405180910390a15050565b60025481565b600160205280600052604060002060009150905080600001805461047590610976565b80601f01602080910402602001604051908101604052809291908181526020018280546104a190610976565b80156104ee5780601f106104c3576101008083540402835291602001916104ee565b820191906000526020600020905b8154815290600101906020018083116104d157829003601f168201915b50505050509080600101805461050390610976565b80601f016020809104026020016040519081016040528092919081815260200182805461052f90610976565b801561057c5780601f106105515761010080835404028352916020019161057c565b820191906000526020600020905b81548152906001019060200180831161055f57829003601f168201915b5050505050908060020154908060030160009054906101000a900460ff16905084565b6000604051905090565b600080fd5b600080fd5b6000819050919050565b6105c6816105b3565b81146105d157600080fd5b50565b6000813590506105e3816105bd565b92915050565b6000602082840312156105ff576105fe6105a9565b5b600061060d848285016105d4565b91505092915050565b600081519050919050565b600082825260208201905092915050565b60005b83811015610650578082015181840152602081019050610635565b60008484015250505050565b6000601f19601f8301169050919050565b600061067882610616565b6106828185610621565b9350610692818560208601610632565b61069b8161065c565b840191505092915050565b6106af816105b3565b82525050565b60008115159050919050565b6106ca816106b5565b82525050565b600060808201905081810360008301526106ea818761066d565b905081810360208301526106fe818661066d565b905061070d60408301856106a6565b61071a60608301846106c1565b95945050505050565b600073ffffffffffffffffffffffffffffffffffffffff82169050919050565b600061074e82610723565b9050919050565b61075e81610743565b82525050565b60006020820190506107796000830184610755565b92915050565b600080fd5b600080fd5b7f4e487b7100000000000000000000000000000000000000000000000000000000600052604160045260246000fd5b6107c18261065c565b810181811067ffffffffffffffff821117156107e0576107df610789565b5b80604052505050565b60006107f361059f565b90506107ff82826107b8565b919050565b600067ffffffffffffffff82111561081f5761081e610789565b5b6108288261065c565b9050602081019050919050565b82818337600083830152505050565b600061085761085284610804565b6107e9565b90508281526020810184848401111561087357610872610784565b5b61087e848285610835565b509392505050565b600082601f83011261089b5761089a61077f565b5b81356108ab848260208601610844565b91505092915050565b600080604083850312156108cb576108ca6105a9565b5b600083013567ffffffffffffffff8111156108e9576108e86105ae565b5b6108f585828601610886565b925050602083013567ffffffffffffffff811115610916576109156105ae565b5b61092285828601610886565b9150509250929050565b600060208201905061094160008301846106a6565b92915050565b7f4e487b7100000000000000000000000000000000000000000000000000000000600052602260045260246000fd5b6000600282049050600182168061098e57607f821691505b6020821081036109a1576109a0610947565b5b50919050565b7f4f6e6c79206973737565722063616e20706572666f726d20746869732061637460008201527f696f6e0000000000000000000000000000000000000000000000000000000000602082015250565b6000610a03602383610621565b9150610a0e826109a7565b604082019050919050565b60006020820190508181036000830152610a32816109f6565b9050919050565b7f4e487b7100000000000000000000000000000000000000000000000000000000600052601160045260246000fd5b6000610a73826105b3565b91507fffffffffffffffffffffffffffffffffffffffffffffffffffffffffffffffff8203610aa557610aa4610a39565b5b600182019050919050565b60008190508160005260206000209050919050565b60006020601f8301049050919050565b600082821b905092915050565b600060088302610b127fffffffffffffffffffffffffffffffffffffffffffffffffffffffffffffffff82610ad5565b610b1c8683610ad5565b95508019841693508086168417925050509392505050565b6000819050919050565b6000610b59610b54610b4f846105b3565b610b34565b6105b3565b9050919050565b6000819050919050565b610b7383610b3e565b610b87610b7f82610b60565b848454610ae2565b825550505050565b600090565b610b9c610b8f565b610ba7818484610b6a565b505050565b5b81811015610bcb57610bc0600082610b94565b600181019050610bad565b5050565b601f821115610c1057610be181610ab0565b610bea84610ac5565b81016020851015610bf9578190505b610c0d610c0585610ac5565b830182610bac565b50505b505050565b600082821c905092915050565b6000610c3360001984600802610c15565b1980831691505092915050565b6000610c4c8383610c22565b9150826002028217905092915050565b610c6582610616565b67ffffffffffffffff811115610c7e57610c7d610789565b5b610c888254610976565b610c93828285610bcf565b600060209050601f831160018114610cc65760008415610cb4578287015190505b610cbe8582610c40565b865550610d26565b601f198416610cd486610ab0565b60005b82811015610cfc57848901518255600182019150602085019450602081019050610cd7565b86831015610d195784890151610d15601f891682610c22565b8355505b6001600288020188555050505b505050505050565b6000606082019050610d4360008301866106a6565b8181036020830152610d55818561066d565b90508181036040830152610d69818461066d565b905094935050505056fea26469706673582212208622f07ccd1c83b42e8f234e2db1273eaf801c583fa23cb9a35b810089f8540e64736f6c63430008120033",
					"opcodes": "PUSH1 0x80 PUSH1 0x40 MSTORE CALLVALUE DUP1 ISZERO PUSH2 0x10 JUMPI PUSH1 0x0 DUP1 REVERT JUMPDEST POP CALLER PUSH1 0x0 DUP1 PUSH2 0x100 EXP DUP2 SLOAD DUP2 PUSH20 0xFFFFFFFFFFFFFFFFFFFFFFFFFFFFFFFFFFFFFFFF MUL NOT AND SWAP1 DUP4 PUSH20 0xFFFFFFFFFFFFFFFFFFFFFFFFFFFFFFFFFFFFFFFF AND MUL OR SWAP1 SSTORE POP PUSH2 0xDA9 DUP1 PUSH2 0x60 PUSH1 0x0 CODECOPY PUSH1 0x0 RETURN INVALID PUSH1 0x80 PUSH1 0x40 MSTORE CALLVALUE DUP1 ISZERO PUSH2 0x10 JUMPI PUSH1 0x0 DUP1 REVERT JUMPDEST POP PUSH1 0x4 CALLDATASIZE LT PUSH2 0x57 JUMPI PUSH1 0x0 CALLDATALOAD PUSH1 0xE0 SHR DUP1 PUSH4 0x1692A942 EQ PUSH2 0x5C JUMPI DUP1 PUSH4 0x1D143848 EQ PUSH2 0x8F JUMPI DUP1 PUSH4 0x211BBE71 EQ PUSH2 0xAD JUMPI DUP1 PUSH4 0x52D7B89C EQ PUSH2 0xC9 JUMPI DUP1 PUSH4 0x663B3E22 EQ PUSH2 0xE7 JUMPI JUMPDEST PUSH1 0x0 DUP1 REVERT JUMPDEST PUSH2 0x76 PUSH1 0x4 DUP1 CALLDATASIZE SUB DUP2 ADD SWAP1 PUSH2 0x71 SWAP2 SWAP1 PUSH2 0x5E9 JUMP JUMPDEST PUSH2 0x11A JUMP JUMPDEST PUSH1 0x40 MLOAD PUSH2 0x86 SWAP5 SWAP4 SWAP3 SWAP2 SWAP1 PUSH2 0x6D0 JUMP JUMPDEST PUSH1 0x40 MLOAD DUP1 SWAP2 SUB SWAP1 RETURN JUMPDEST PUSH2 0x97 PUSH2 0x2AF JUMP JUMPDEST PUSH1 0x40 MLOAD PUSH2 0xA4 SWAP2 SWAP1 PUSH2 0x764 JUMP JUMPDEST PUSH1 0x40 MLOAD DUP1 SWAP2 SUB SWAP1 RETURN JUMPDEST PUSH2 0xC7 PUSH1 0x4 DUP1 CALLDATASIZE SUB DUP2 ADD SWAP1 PUSH2 0xC2 SWAP2 SWAP1 PUSH2 0x8B4 JUMP JUMPDEST PUSH2 0x2D3 JUMP JUMPDEST STOP JUMPDEST PUSH2 0xD1 PUSH2 0x44C JUMP JUMPDEST PUSH1 0x40 MLOAD PUSH2 0xDE SWAP2 SWAP1 PUSH2 0x92C JUMP JUMPDEST PUSH1 0x40 MLOAD DUP1 SWAP2 SUB SWAP1 RETURN JUMPDEST PUSH2 0x101 PUSH1 0x4 DUP1 CALLDATASIZE SUB DUP2 ADD SWAP1 PUSH2 0xFC SWAP2 SWAP1 PUSH2 0x5E9 JUMP JUMPDEST PUSH2 0x452 JUMP JUMPDEST PUSH1 0x40 MLOAD PUSH2 0x111 SWAP5 SWAP4 SWAP3 SWAP2 SWAP1 PUSH2 0x6D0 JUMP JUMPDEST PUSH1 0x40 MLOAD DUP1 SWAP2 SUB SWAP1 RETURN JUMPDEST PUSH1 0x60 DUP1 PUSH1 0x0 DUP1 PUSH1 0x0 PUSH1 0x1 PUSH1 0x0 DUP8 DUP2 MSTORE PUSH1 0x20 ADD SWAP1 DUP2 MSTORE PUSH1 0x20 ADD PUSH1 0x0 KECCAK256 PUSH1 0x40 MLOAD DUP1 PUSH1 0x80 ADD PUSH1 0x40 MSTORE SWAP1 DUP2 PUSH1 0x0 DUP3 ADD DUP1 SLOAD PUSH2 0x150 SWAP1 PUSH2 0x976 JUMP JUMPDEST DUP1 PUSH1 0x1F ADD PUSH1 0x20 DUP1 SWAP2 DIV MUL PUSH1 0x20 ADD PUSH1 0x40 MLOAD SWAP1 DUP2 ADD PUSH1 0x40 MSTORE DUP1 SWAP3 SWAP2 SWAP1 DUP2 DUP2 MSTORE PUSH1 0x20 ADD DUP3 DUP1 SLOAD PUSH2 0x17C SWAP1 PUSH2 0x976 JUMP JUMPDEST DUP1 ISZERO PUSH2 0x1C9 JUMPI DUP1 PUSH1 0x1F LT PUSH2 0x19E JUMPI PUSH2 0x100 DUP1 DUP4 SLOAD DIV MUL DUP4 MSTORE SWAP2 PUSH1 0x20 ADD SWAP2 PUSH2 0x1C9 JUMP JUMPDEST DUP3 ADD SWAP2 SWAP1 PUSH1 0x0 MSTORE PUSH1 0x20 PUSH1 0x0 KECCAK256 SWAP1 JUMPDEST DUP2 SLOAD DUP2 MSTORE SWAP1 PUSH1 0x1 ADD SWAP1 PUSH1 0x20 ADD DUP1 DUP4 GT PUSH2 0x1AC JUMPI DUP3 SWAP1 SUB PUSH1 0x1F AND DUP3 ADD SWAP2 JUMPDEST POP POP POP POP POP DUP2 MSTORE PUSH1 0x20 ADD PUSH1 0x1 DUP3 ADD DUP1 SLOAD PUSH2 0x1E2 SWAP1 PUSH2 0x976 JUMP JUMPDEST DUP1 PUSH1 0x1F ADD PUSH1 0x20 DUP1 SWAP2 DIV MUL PUSH1 0x20 ADD PUSH1 0x40 MLOAD SWAP1 DUP2 ADD PUSH1 0x40 MSTORE DUP1 SWAP3 SWAP2 SWAP1 DUP2 DUP2 MSTORE PUSH1 0x20 ADD DUP3 DUP1 SLOAD PUSH2 0x20E SWAP1 PUSH2 0x976 JUMP JUMPDEST DUP1 ISZERO PUSH2 0x25B JUMPI DUP1 PUSH1 0x1F LT PUSH2 0x230 JUMPI PUSH2 0x100 DUP1 DUP4 SLOAD DIV MUL DUP4 MSTORE SWAP2 PUSH1 0x20 ADD SWAP2 PUSH2 0x25B JUMP JUMPDEST DUP3 ADD SWAP2 SWAP1 PUSH1 0x0 MSTORE PUSH1 0x20 PUSH1 0x0 KECCAK256 SWAP1 JUMPDEST DUP2 SLOAD DUP2 MSTORE SWAP1 PUSH1 0x1 ADD SWAP1 PUSH1 0x20 ADD DUP1 DUP4 GT PUSH2 0x23E JUMPI DUP3 SWAP1 SUB PUSH1 0x1F AND DUP3 ADD SWAP2 JUMPDEST POP POP POP POP POP DUP2 MSTORE PUSH1 0x20 ADD PUSH1 0x2 DUP3 ADD SLOAD DUP2 MSTORE PUSH1 0x20 ADD PUSH1 0x3 DUP3 ADD PUSH1 0x0 SWAP1 SLOAD SWAP1 PUSH2 0x100 EXP SWAP1 DIV PUSH1 0xFF AND ISZERO ISZERO ISZERO ISZERO DUP2 MSTORE POP POP SWAP1 POP DUP1 PUSH1 0x0 ADD MLOAD DUP2 PUSH1 0x20 ADD MLOAD DUP3 PUSH1 0x40 ADD MLOAD DUP4 PUSH1 0x60 ADD MLOAD SWAP5 POP SWAP5 POP SWAP5 POP SWAP5 POP POP SWAP2 SWAP4 POP SWAP2 SWAP4 JUMP JUMPDEST PUSH1 0x0 DUP1 SLOAD SWAP1 PUSH2 0x100 EXP SWAP1 DIV PUSH20 0xFFFFFFFFFFFFFFFFFFFFFFFFFFFFFFFFFFFFFFFF AND DUP2 JUMP JUMPDEST PUSH1 0x0 DUP1 SLOAD SWAP1 PUSH2 0x100 EXP SWAP1 DIV PUSH20 0xFFFFFFFFFFFFFFFFFFFFFFFFFFFFFFFFFFFFFFFF AND PUSH20 0xFFFFFFFFFFFFFFFFFFFFFFFFFFFFFFFFFFFFFFFF AND CALLER PUSH20 0xFFFFFFFFFFFFFFFFFFFFFFFFFFFFFFFFFFFFFFFF AND EQ PUSH2 0x361 JUMPI PUSH1 0x40 MLOAD PUSH32 0x8C379A000000000000000000000000000000000000000000000000000000000 DUP2 MSTORE PUSH1 0x4 ADD PUSH2 0x358 SWAP1 PUSH2 0xA19 JUMP JUMPDEST PUSH1 0x40 MLOAD DUP1 SWAP2 SUB SWAP1 REVERT JUMPDEST PUSH1 0x2 PUSH1 0x0 DUP2 SLOAD DUP1 SWAP3 SWAP2 SWAP1 PUSH2 0x374 SWAP1 PUSH2 0xA68 JUMP JUMPDEST SWAP2 SWAP1 POP SSTORE POP PUSH1 0x40 MLOAD DUP1 PUSH1 0x80 ADD PUSH1 0x40 MSTORE DUP1 DUP4 DUP2 MSTORE PUSH1 0x20 ADD DUP3 DUP2 MSTORE PUSH1 0x20 ADD TIMESTAMP DUP2 MSTORE PUSH1 0x20 ADD PUSH1 0x1 ISZERO ISZERO DUP2 MSTORE POP PUSH1 0x1 PUSH1 0x0 PUSH1 0x2 SLOAD DUP2 MSTORE PUSH1 0x20 ADD SWAP1 DUP2 MSTORE PUSH1 0x20 ADD PUSH1 0x0 KECCAK256 PUSH1 0x0 DUP3 ADD MLOAD DUP2 PUSH1 0x0 ADD SWAP1 DUP2 PUSH2 0x3C7 SWAP2 SWAP1 PUSH2 0xC5C JUMP JUMPDEST POP PUSH1 0x20 DUP3 ADD MLOAD DUP2 PUSH1 0x1 ADD SWAP1 DUP2 PUSH2 0x3DD SWAP2 SWAP1 PUSH2 0xC5C JUMP JUMPDEST POP PUSH1 0x40 DUP3 ADD MLOAD DUP2 PUSH1 0x2 ADD SSTORE PUSH1 0x60 DUP3 ADD MLOAD DUP2 PUSH1 0x3 ADD PUSH1 0x0 PUSH2 0x100 EXP DUP2 SLOAD DUP2 PUSH1 0xFF MUL NOT AND SWAP1 DUP4 ISZERO ISZERO MUL OR SWAP1 SSTORE POP SWAP1 POP POP PUSH32 0x55E235E38225040825E04EA5D7545C53F47415B5543EC6BF898AA3A96742D5F9 PUSH1 0x2 SLOAD DUP4 DUP4 PUSH1 0x40 MLOAD PUSH2 0x440 SWAP4 SWAP3 SWAP2 SWAP1 PUSH2 0xD2E JUMP JUMPDEST PUSH1 0x40 MLOAD DUP1 SWAP2 SUB SWAP1 LOG1 POP POP JUMP JUMPDEST PUSH1 0x2 SLOAD DUP2 JUMP JUMPDEST PUSH1 0x1 PUSH1 0x20 MSTORE DUP1 PUSH1 0x0 MSTORE PUSH1 0x40 PUSH1 0x0 KECCAK256 PUSH1 0x0 SWAP2 POP SWAP1 POP DUP1 PUSH1 0x0 ADD DUP1 SLOAD PUSH2 0x475 SWAP1 PUSH2 0x976 JUMP JUMPDEST DUP1 PUSH1 0x1F ADD PUSH1 0x20 DUP1 SWAP2 DIV MUL PUSH1 0x20 ADD PUSH1 0x40 MLOAD SWAP1 DUP2 ADD PUSH1 0x40 MSTORE DUP1 SWAP3 SWAP2 SWAP1 DUP2 DUP2 MSTORE PUSH1 0x20 ADD DUP3 DUP1 SLOAD PUSH2 0x4A1 SWAP1 PUSH2 0x976 JUMP JUMPDEST DUP1 ISZERO PUSH2 0x4EE JUMPI DUP1 PUSH1 0x1F LT PUSH2 0x4C3 JUMPI PUSH2 0x100 DUP1 DUP4 SLOAD DIV MUL DUP4 MSTORE SWAP2 PUSH1 0x20 ADD SWAP2 PUSH2 0x4EE JUMP JUMPDEST DUP3 ADD SWAP2 SWAP1 PUSH1 0x0 MSTORE PUSH1 0x20 PUSH1 0x0 KECCAK256 SWAP1 JUMPDEST DUP2 SLOAD DUP2 MSTORE SWAP1 PUSH1 0x1 ADD SWAP1 PUSH1 0x20 ADD DUP1 DUP4 GT PUSH2 0x4D1 JUMPI DUP3 SWAP1 SUB PUSH1 0x1F AND DUP3 ADD SWAP2 JUMPDEST POP POP POP POP POP SWAP1 DUP1 PUSH1 0x1 ADD DUP1 SLOAD PUSH2 0x503 SWAP1 PUSH2 0x976 JUMP JUMPDEST DUP1 PUSH1 0x1F ADD PUSH1 0x20 DUP1 SWAP2 DIV MUL PUSH1 0x20 ADD PUSH1 0x40 MLOAD SWAP1 DUP2 ADD PUSH1 0x40 MSTORE DUP1 SWAP3 SWAP2 SWAP1 DUP2 DUP2 MSTORE PUSH1 0x20 ADD DUP3 DUP1 SLOAD PUSH2 0x52F SWAP1 PUSH2 0x976 JUMP JUMPDEST DUP1 ISZERO PUSH2 0x57C JUMPI DUP1 PUSH1 0x1F LT PUSH2 0x551 JUMPI PUSH2 0x100 DUP1 DUP4 SLOAD DIV MUL DUP4 MSTORE SWAP2 PUSH1 0x20 ADD SWAP2 PUSH2 0x57C JUMP JUMPDEST DUP3 ADD SWAP2 SWAP1 PUSH1 0x0 MSTORE PUSH1 0x20 PUSH1 0x0 KECCAK256 SWAP1 JUMPDEST DUP2 SLOAD DUP2 MSTORE SWAP1 PUSH1 0x1 ADD SWAP1 PUSH1 0x20 ADD DUP1 DUP4 GT PUSH2 0x55F JUMPI DUP3 SWAP1 SUB PUSH1 0x1F AND DUP3 ADD SWAP2 JUMPDEST POP POP POP POP POP SWAP1 DUP1 PUSH1 0x2 ADD SLOAD SWAP1 DUP1 PUSH1 0x3 ADD PUSH1 0x0 SWAP1 SLOAD SWAP1 PUSH2 0x100 EXP SWAP1 DIV PUSH1 0xFF AND SWAP1 POP DUP5 JUMP JUMPDEST PUSH1 0x0 PUSH1 0x40 MLOAD SWAP1 POP SWAP1 JUMP JUMPDEST PUSH1 0x0 DUP1 REVERT JUMPDEST PUSH1 0x0 DUP1 REVERT JUMPDEST PUSH1 0x0 DUP2 SWAP1 POP SWAP2 SWAP1 POP JUMP JUMPDEST PUSH2 0x5C6 DUP2 PUSH2 0x5B3 JUMP JUMPDEST DUP2 EQ PUSH2 0x5D1 JUMPI PUSH1 0x0 DUP1 REVERT JUMPDEST POP JUMP JUMPDEST PUSH1 0x0 DUP2 CALLDATALOAD SWAP1 POP PUSH2 0x5E3 DUP2 PUSH2 0x5BD JUMP JUMPDEST SWAP3 SWAP2 POP POP JUMP JUMPDEST PUSH1 0x0 PUSH1 0x20 DUP3 DUP5 SUB SLT ISZERO PUSH2 0x5FF JUMPI PUSH2 0x5FE PUSH2 0x5A9 JUMP JUMPDEST JUMPDEST PUSH1 0x0 PUSH2 0x60D DUP5 DUP3 DUP6 ADD PUSH2 0x5D4 JUMP JUMPDEST SWAP2 POP POP SWAP3 SWAP2 POP POP JUMP JUMPDEST PUSH1 0x0 DUP2 MLOAD SWAP1 POP SWAP2 SWAP1 POP JUMP JUMPDEST PUSH1 0x0 DUP3 DUP3 MSTORE PUSH1 0x20 DUP3 ADD SWAP1 POP SWAP3 SWAP2 POP POP JUMP JUMPDEST PUSH1 0x0 JUMPDEST DUP4 DUP2 LT ISZERO PUSH2 0x650 JUMPI DUP1 DUP3 ADD MLOAD DUP2 DUP5 ADD MSTORE PUSH1 0x20 DUP2 ADD SWAP1 POP PUSH2 0x635 JUMP JUMPDEST PUSH1 0x0 DUP5 DUP5 ADD MSTORE POP POP POP POP JUMP JUMPDEST PUSH1 0x0 PUSH1 0x1F NOT PUSH1 0x1F DUP4 ADD AND SWAP1 POP SWAP2 SWAP1 POP JUMP JUMPDEST PUSH1 0x0 PUSH2 0x678 DUP3 PUSH2 0x616 JUMP JUMPDEST PUSH2 0x682 DUP2 DUP6 PUSH2 0x621 JUMP JUMPDEST SWAP4 POP PUSH2 0x692 DUP2 DUP6 PUSH1 0x20 DUP7 ADD PUSH2 0x632 JUMP JUMPDEST PUSH2 0x69B DUP2 PUSH2 0x65C JUMP JUMPDEST DUP5 ADD SWAP2 POP POP SWAP3 SWAP2 POP POP JUMP JUMPDEST PUSH2 0x6AF DUP2 PUSH2 0x5B3 JUMP JUMPDEST DUP3 MSTORE POP POP JUMP JUMPDEST PUSH1 0x0 DUP2 ISZERO ISZERO SWAP1 POP SWAP2 SWAP1 POP JUMP JUMPDEST PUSH2 0x6CA DUP2 PUSH2 0x6B5 JUMP JUMPDEST DUP3 MSTORE POP POP JUMP JUMPDEST PUSH1 0x0 PUSH1 0x80 DUP3 ADD SWAP1 POP DUP2 DUP2 SUB PUSH1 0x0 DUP4 ADD MSTORE PUSH2 0x6EA DUP2 DUP8 PUSH2 0x66D JUMP JUMPDEST SWAP1 POP DUP2 DUP2 SUB PUSH1 0x20 DUP4 ADD MSTORE PUSH2 0x6FE DUP2 DUP7 PUSH2 0x66D JUMP JUMPDEST SWAP1 POP PUSH2 0x70D PUSH1 0x40 DUP4 ADD DUP6 PUSH2 0x6A6 JUMP JUMPDEST PUSH2 0x71A PUSH1 0x60 DUP4 ADD DUP5 PUSH2 0x6C1 JUMP JUMPDEST SWAP6 SWAP5 POP POP POP POP POP JUMP JUMPDEST PUSH1 0x0 PUSH20 0xFFFFFFFFFFFFFFFFFFFFFFFFFFFFFFFFFFFFFFFF DUP3 AND SWAP1 POP SWAP2 SWAP1 POP JUMP JUMPDEST PUSH1 0x0 PUSH2 0x74E DUP3 PUSH2 0x723 JUMP JUMPDEST SWAP1 POP SWAP2 SWAP1 POP JUMP JUMPDEST PUSH2 0x75E DUP2 PUSH2 0x743 JUMP JUMPDEST DUP3 MSTORE POP POP JUMP JUMPDEST PUSH1 0x0 PUSH1 0x20 DUP3 ADD SWAP1 POP PUSH2 0x779 PUSH1 0x0 DUP4 ADD DUP5 PUSH2 0x755 JUMP JUMPDEST SWAP3 SWAP2 POP POP JUMP JUMPDEST PUSH1 0x0 DUP1 REVERT JUMPDEST PUSH1 0x0 DUP1 REVERT JUMPDEST PUSH32 0x4E487B7100000000000000000000000000000000000000000000000000000000 PUSH1 0x0 MSTORE PUSH1 0x41 PUSH1 0x4 MSTORE PUSH1 0x24 PUSH1 0x0 REVERT JUMPDEST PUSH2 0x7C1 DUP3 PUSH2 0x65C JUMP JUMPDEST DUP2 ADD DUP2 DUP2 LT PUSH8 0xFFFFFFFFFFFFFFFF DUP3 GT OR ISZERO PUSH2 0x7E0 JUMPI PUSH2 0x7DF PUSH2 0x789 JUMP JUMPDEST JUMPDEST DUP1 PUSH1 0x40 MSTORE POP POP POP JUMP JUMPDEST PUSH1 0x0 PUSH2 0x7F3 PUSH2 0x59F JUMP JUMPDEST SWAP1 POP PUSH2 0x7FF DUP3 DUP3 PUSH2 0x7B8 JUMP JUMPDEST SWAP2 SWAP1 POP JUMP JUMPDEST PUSH1 0x0 PUSH8 0xFFFFFFFFFFFFFFFF DUP3 GT ISZERO PUSH2 0x81F JUMPI PUSH2 0x81E PUSH2 0x789 JUMP JUMPDEST JUMPDEST PUSH2 0x828 DUP3 PUSH2 0x65C JUMP JUMPDEST SWAP1 POP PUSH1 0x20 DUP2 ADD SWAP1 POP SWAP2 SWAP1 POP JUMP JUMPDEST DUP3 DUP2 DUP4 CALLDATACOPY PUSH1 0x0 DUP4 DUP4 ADD MSTORE POP POP POP JUMP JUMPDEST PUSH1 0x0 PUSH2 0x857 PUSH2 0x852 DUP5 PUSH2 0x804 JUMP JUMPDEST PUSH2 0x7E9 JUMP JUMPDEST SWAP1 POP DUP3 DUP2 MSTORE PUSH1 0x20 DUP2 ADD DUP5 DUP5 DUP5 ADD GT ISZERO PUSH2 0x873 JUMPI PUSH2 0x872 PUSH2 0x784 JUMP JUMPDEST JUMPDEST PUSH2 0x87E DUP5 DUP3 DUP6 PUSH2 0x835 JUMP JUMPDEST POP SWAP4 SWAP3 POP POP POP JUMP JUMPDEST PUSH1 0x0 DUP3 PUSH1 0x1F DUP4 ADD SLT PUSH2 0x89B JUMPI PUSH2 0x89A PUSH2 0x77F JUMP JUMPDEST JUMPDEST DUP2 CALLDATALOAD PUSH2 0x8AB DUP5 DUP3 PUSH1 0x20 DUP7 ADD PUSH2 0x844 JUMP JUMPDEST SWAP2 POP POP SWAP3 SWAP2 POP POP JUMP JUMPDEST PUSH1 0x0 DUP1 PUSH1 0x40 DUP4 DUP6 SUB SLT ISZERO PUSH2 0x8CB JUMPI PUSH2 0x8CA PUSH2 0x5A9 JUMP JUMPDEST JUMPDEST PUSH1 0x0 DUP4 ADD CALLDATALOAD PUSH8 0xFFFFFFFFFFFFFFFF DUP2 GT ISZERO PUSH2 0x8E9 JUMPI PUSH2 0x8E8 PUSH2 0x5AE JUMP JUMPDEST JUMPDEST PUSH2 0x8F5 DUP6 DUP3 DUP7 ADD PUSH2 0x886 JUMP JUMPDEST SWAP3 POP POP PUSH1 0x20 DUP4 ADD CALLDATALOAD PUSH8 0xFFFFFFFFFFFFFFFF DUP2 GT ISZERO PUSH2 0x916 JUMPI PUSH2 0x915 PUSH2 0x5AE JUMP JUMPDEST JUMPDEST PUSH2 0x922 DUP6 DUP3 DUP7 ADD PUSH2 0x886 JUMP JUMPDEST SWAP2 POP POP SWAP3 POP SWAP3 SWAP1 POP JUMP JUMPDEST PUSH1 0x0 PUSH1 0x20 DUP3 ADD SWAP1 POP PUSH2 0x941 PUSH1 0x0 DUP4 ADD DUP5 PUSH2 0x6A6 JUMP JUMPDEST SWAP3 SWAP2 POP POP JUMP JUMPDEST PUSH32 0x4E487B7100000000000000000000000000000000000000000000000000000000 PUSH1 0x0 MSTORE PUSH1 0x22 PUSH1 0x4 MSTORE PUSH1 0x24 PUSH1 0x0 REVERT JUMPDEST PUSH1 0x0 PUSH1 0x2 DUP3 DIV SWAP1 POP PUSH1 0x1 DUP3 AND DUP1 PUSH2 0x98E JUMPI PUSH1 0x7F DUP3 AND SWAP2 POP JUMPDEST PUSH1 0x20 DUP3 LT DUP2 SUB PUSH2 0x9A1 JUMPI PUSH2 0x9A0 PUSH2 0x947 JUMP JUMPDEST JUMPDEST POP SWAP2 SWAP1 POP JUMP JUMPDEST PUSH32 0x4F6E6C79206973737565722063616E20706572666F726D207468697320616374 PUSH1 0x0 DUP3 ADD MSTORE PUSH32 0x696F6E0000000000000000000000000000000000000000000000000000000000 PUSH1 0x20 DUP3 ADD MSTORE POP JUMP JUMPDEST PUSH1 0x0 PUSH2 0xA03 PUSH1 0x23 DUP4 PUSH2 0x621 JUMP JUMPDEST SWAP2 POP PUSH2 0xA0E DUP3 PUSH2 0x9A7 JUMP JUMPDEST PUSH1 0x40 DUP3 ADD SWAP1 POP SWAP2 SWAP1 POP JUMP JUMPDEST PUSH1 0x0 PUSH1 0x20 DUP3 ADD SWAP1 POP DUP2 DUP2 SUB PUSH1 0x0 DUP4 ADD MSTORE PUSH2 0xA32 DUP2 PUSH2 0x9F6 JUMP JUMPDEST SWAP1 POP SWAP2 SWAP1 POP JUMP JUMPDEST PUSH32 0x4E487B7100000000000000000000000000000000000000000000000000000000 PUSH1 0x0 MSTORE PUSH1 0x11 PUSH1 0x4 MSTORE PUSH1 0x24 PUSH1 0x0 REVERT JUMPDEST PUSH1 0x0 PUSH2 0xA73 DUP3 PUSH2 0x5B3 JUMP JUMPDEST SWAP2 POP PUSH32 0xFFFFFFFFFFFFFFFFFFFFFFFFFFFFFFFFFFFFFFFFFFFFFFFFFFFFFFFFFFFFFFFF DUP3 SUB PUSH2 0xAA5 JUMPI PUSH2 0xAA4 PUSH2 0xA39 JUMP JUMPDEST JUMPDEST PUSH1 0x1 DUP3 ADD SWAP1 POP SWAP2 SWAP1 POP JUMP JUMPDEST PUSH1 0x0 DUP2 SWAP1 POP DUP2 PUSH1 0x0 MSTORE PUSH1 0x20 PUSH1 0x0 KECCAK256 SWAP1 POP SWAP2 SWAP1 POP JUMP JUMPDEST PUSH1 0x0 PUSH1 0x20 PUSH1 0x1F DUP4 ADD DIV SWAP1 POP SWAP2 SWAP1 POP JUMP JUMPDEST PUSH1 0x0 DUP3 DUP3 SHL SWAP1 POP SWAP3 SWAP2 POP POP JUMP JUMPDEST PUSH1 0x0 PUSH1 0x8 DUP4 MUL PUSH2 0xB12 PUSH32 0xFFFFFFFFFFFFFFFFFFFFFFFFFFFFFFFFFFFFFFFFFFFFFFFFFFFFFFFFFFFFFFFF DUP3 PUSH2 0xAD5 JUMP JUMPDEST PUSH2 0xB1C DUP7 DUP4 PUSH2 0xAD5 JUMP JUMPDEST SWAP6 POP DUP1 NOT DUP5 AND SWAP4 POP DUP1 DUP7 AND DUP5 OR SWAP3 POP POP POP SWAP4 SWAP3 POP POP POP JUMP JUMPDEST PUSH1 0x0 DUP2 SWAP1 POP SWAP2 SWAP1 POP JUMP JUMPDEST PUSH1 0x0 PUSH2 0xB59 PUSH2 0xB54 PUSH2 0xB4F DUP5 PUSH2 0x5B3 JUMP JUMPDEST PUSH2 0xB34 JUMP JUMPDEST PUSH2 0x5B3 JUMP JUMPDEST SWAP1 POP SWAP2 SWAP1 POP JUMP JUMPDEST PUSH1 0x0 DUP2 SWAP1 POP SWAP2 SWAP1 POP JUMP JUMPDEST PUSH2 0xB73 DUP4 PUSH2 0xB3E JUMP JUMPDEST PUSH2 0xB87 PUSH2 0xB7F DUP3 PUSH2 0xB60 JUMP JUMPDEST DUP5 DUP5 SLOAD PUSH2 0xAE2 JUMP JUMPDEST DUP3 SSTORE POP POP POP POP JUMP JUMPDEST PUSH1 0x0 SWAP1 JUMP JUMPDEST PUSH2 0xB9C PUSH2 0xB8F JUMP JUMPDEST PUSH2 0xBA7 DUP2 DUP5 DUP5 PUSH2 0xB6A JUMP JUMPDEST POP POP POP JUMP JUMPDEST JUMPDEST DUP2 DUP2 LT ISZERO PUSH2 0xBCB JUMPI PUSH2 0xBC0 PUSH1 0x0 DUP3 PUSH2 0xB94 JUMP JUMPDEST PUSH1 0x1 DUP2 ADD SWAP1 POP PUSH2 0xBAD JUMP JUMPDEST POP POP JUMP JUMPDEST PUSH1 0x1F DUP3 GT ISZERO PUSH2 0xC10 JUMPI PUSH2 0xBE1 DUP2 PUSH2 0xAB0 JUMP JUMPDEST PUSH2 0xBEA DUP5 PUSH2 0xAC5 JUMP JUMPDEST DUP2 ADD PUSH1 0x20 DUP6 LT ISZERO PUSH2 0xBF9 JUMPI DUP2 SWAP1 POP JUMPDEST PUSH2 0xC0D PUSH2 0xC05 DUP6 PUSH2 0xAC5 JUMP JUMPDEST DUP4 ADD DUP3 PUSH2 0xBAC JUMP JUMPDEST POP POP JUMPDEST POP POP POP JUMP JUMPDEST PUSH1 0x0 DUP3 DUP3 SHR SWAP1 POP SWAP3 SWAP2 POP POP JUMP JUMPDEST PUSH1 0x0 PUSH2 0xC33 PUSH1 0x0 NOT DUP5 PUSH1 0x8 MUL PUSH2 0xC15 JUMP JUMPDEST NOT DUP1 DUP4 AND SWAP2 POP POP SWAP3 SWAP2 POP POP JUMP JUMPDEST PUSH1 0x0 PUSH2 0xC4C DUP4 DUP4 PUSH2 0xC22 JUMP JUMPDEST SWAP2 POP DUP3 PUSH1 0x2 MUL DUP3 OR SWAP1 POP SWAP3 SWAP2 POP POP JUMP JUMPDEST PUSH2 0xC65 DUP3 PUSH2 0x616 JUMP JUMPDEST PUSH8 0xFFFFFFFFFFFFFFFF DUP2 GT ISZERO PUSH2 0xC7E JUMPI PUSH2 0xC7D PUSH2 0x789 JUMP JUMPDEST JUMPDEST PUSH2 0xC88 DUP3 SLOAD PUSH2 0x976 JUMP JUMPDEST PUSH2 0xC93 DUP3 DUP3 DUP6 PUSH2 0xBCF JUMP JUMPDEST PUSH1 0x0 PUSH1 0x20 SWAP1 POP PUSH1 0x1F DUP4 GT PUSH1 0x1 DUP2 EQ PUSH2 0xCC6 JUMPI PUSH1 0x0 DUP5 ISZERO PUSH2 0xCB4 JUMPI DUP3 DUP8 ADD MLOAD SWAP1 POP JUMPDEST PUSH2 0xCBE DUP6 DUP3 PUSH2 0xC40 JUMP JUMPDEST DUP7 SSTORE POP PUSH2 0xD26 JUMP JUMPDEST PUSH1 0x1F NOT DUP5 AND PUSH2 0xCD4 DUP7 PUSH2 0xAB0 JUMP JUMPDEST PUSH1 0x0 JUMPDEST DUP3 DUP2 LT ISZERO PUSH2 0xCFC JUMPI DUP5 DUP10 ADD MLOAD DUP3 SSTORE PUSH1 0x1 DUP3 ADD SWAP2 POP PUSH1 0x20 DUP6 ADD SWAP5 POP PUSH1 0x20 DUP2 ADD SWAP1 POP PUSH2 0xCD7 JUMP JUMPDEST DUP7 DUP4 LT ISZERO PUSH2 0xD19 JUMPI DUP5 DUP10 ADD MLOAD PUSH2 0xD15 PUSH1 0x1F DUP10 AND DUP3 PUSH2 0xC22 JUMP JUMPDEST DUP4 SSTORE POP JUMPDEST PUSH1 0x1 PUSH1 0x2 DUP9 MUL ADD DUP9 SSTORE POP POP POP JUMPDEST POP POP POP POP POP POP JUMP JUMPDEST PUSH1 0x0 PUSH1 0x60 DUP3 ADD SWAP1 POP PUSH2 0xD43 PUSH1 0x0 DUP4 ADD DUP7 PUSH2 0x6A6 JUMP JUMPDEST DUP2 DUP2 SUB PUSH1 0x20 DUP4 ADD MSTORE PUSH2 0xD55 DUP2 DUP6 PUSH2 0x66D JUMP JUMPDEST SWAP1 POP DUP2 DUP2 SUB PUSH1 0x40 DUP4 ADD MSTORE PUSH2 0xD69 DUP2 DUP5 PUSH2 0x66D JUMP JUMPDEST SWAP1 POP SWAP5 SWAP4 POP POP POP POP JUMP INVALID LOG2 PUSH5 0x6970667358 0x22 SLT KECCAK256 DUP7 0x22 CREATE PUSH29 0xCD1C83B42E8F234E2DB1273EAF801C583FA23CB9A35B810089F8540E64 PUSH20 0x6F6C634300081200330000000000000000000000 "
				},
				"gasEstimates": {
					"creation": {
						"codeDepositCost": "699400",
						"executionCost": "25000",
						"totalCost": "724400"
					},
					"external": {
						"certificateCount()": "2473",
						"certificates(uint256)": "infinite",
						"issueCertificate(string,string)": "infinite",
						"issuer()": "2511",
						"verifyCertificate(uint256)": "infinite"
					}
				},
				"methodIdentifiers": {
					"certificateCount()": "52d7b89c",
					"certificates(uint256)": "663b3e22",
					"issueCertificate(string,string)": "211bbe71",
					"issuer()": "1d143848",
					"verifyCertificate(uint256)": "1692a942"
				}
			},
			"storageLayout": {
				"storage": [
					{
						"astId": 3,
						"contract": "certificate.sol:CertificateIssuer",
						"label": "issuer",
						"offset": 0,
						"slot": "0",
						"type": "t_address"
					},
					{
						"astId": 17,
						"contract": "certificate.sol:CertificateIssuer",
						"label": "certificates",
						"offset": 0,
						"slot": "1",
						"type": "t_mapping(t_uint256,t_struct(Certificate)12_storage)"
					},
					{
						"astId": 19,
						"contract": "certificate.sol:CertificateIssuer",
						"label": "certificateCount",
						"offset": 0,
						"slot": "2",
						"type": "t_uint256"
					}
				],
				"types": {
					"t_address": {
						"encoding": "inplace",
						"label": "address",
						"numberOfBytes": "20"
					},
					"t_bool": {
						"encoding": "inplace",
						"label": "bool",
						"numberOfBytes": "1"
					},
					"t_mapping(t_uint256,t_struct(Certificate)12_storage)": {
						"encoding": "mapping",
						"key": "t_uint256",
						"label": "mapping(uint256 => struct CertificateIssuer.Certificate)",
						"numberOfBytes": "32",
						"value": "t_struct(Certificate)12_storage"
					},
					"t_string_storage": {
						"encoding": "bytes",
						"label": "string",
						"numberOfBytes": "32"
					},
					"t_struct(Certificate)12_storage": {
						"encoding": "inplace",
						"label": "struct CertificateIssuer.Certificate",
						"members": [
							{
								"astId": 5,
								"contract": "certificate.sol:CertificateIssuer",
								"label": "studentName",
								"offset": 0,
								"slot": "0",
								"type": "t_string_storage"
							},
							{
								"astId": 7,
								"contract": "certificate.sol:CertificateIssuer",
								"label": "course",
								"offset": 0,
								"slot": "1",
								"type": "t_string_storage"
							},
							{
								"astId": 9,
								"contract": "certificate.sol:CertificateIssuer",
								"label": "issuedOn",
								"offset": 0,
								"slot": "2",
								"type": "t_uint256"
							},
							{
								"astId": 11,
								"contract": "certificate.sol:CertificateIssuer",
								"label": "valid",
								"offset": 0,
								"slot": "3",
								"type": "t_bool"
							}
						],
						"numberOfBytes": "128"
					},
					"t_uint256": {
						"encoding": "inplace",
						"label": "uint256",
						"numberOfBytes": "32"
					}
				}
			},
			"userdoc": {
				"kind": "user",
				"methods": {},
				"version": 1
			}
		}
	}
}