{
	"management.sol": {
		"StudentManager": {
			"abi": [
				{
					"inputs": [],
					"stateMutability": "nonpayable",
					"type": "constructor"
				},
				{
					"inputs": [
						{
							"internalType": "address",
							"name": "_addr",
							"type": "address"
						},
						{
							"internalType": "string",
							"name": "_name",
							"type": "string"
						},
						{
							"internalType": "uint256",
							"name": "_age",
							"type": "uint256"
						}
					],
					"name": "addStudent",
					"outputs": [],
					"stateMutability": "nonpayable",
					"type": "function"
				},
				{
					"inputs": [],
					"name": "getAllStudents",
					"outputs": [
						{
							"components": [
								{
									"internalType": "string",
									"name": "name",
									"type": "string"
								},
								{
									"internalType": "uint256",
									"name": "age",
									"type": "uint256"
								}
							],
							"internalType": "struct StudentManager.Student[]",
							"name": "",
							"type": "tuple[]"
						}
					],
					"stateMutability": "view",
					"type": "function"
				},
				{
					"inputs": [
						{
							"internalType": "address",
							"name": "_addr",
							"type": "address"
						}
					],
					"name": "getStudent",
					"outputs": [
						{
							"internalType": "string",
							"name": "",
							"type": "string"
						},
						{
							"internalType": "uint256",
							"name": "",
							"type": "uint256"
						}
					],
					"stateMutability": "view",
					"type": "function"
				},
				{
					"inputs": [],
					"name": "getTotalStudents",
					"outputs": [
						{
							"internalType": "uint256",
							"name": "",
							"type": "uint256"
						}
					],
					"stateMutability": "view",
					"type": "function"
				},
				{
					"inputs": [],
					"name": "owner",
					"outputs": [
						{
							"internalType": "address",
							"name": "",
							"type": "address"
						}
					],
					"stateMutability": "view",
					"type": "function"
				},
				{
					"inputs": [
						{
							"internalType": "uint256",
							"name": "",
							"type": "uint256"
						}
					],
					"name": "studentList",
					"outputs": [
						{
							"internalType": "address",
							"name": "",
							"type": "address"
						}
					],
					"stateMutability": "view",
					"type": "function"
				},
				{
					"inputs": [
						{
							"internalType": "address",
							"name": "",
							"type": "address"
						}
					],
					"name": "students",
					"outputs": [
						{
							"internalType": "string",
							"name": "name",
							"type": "string"
						},
						{
							"internalType": "uint256",
							"name": "age",
							"type": "uint256"
						}
					],
					"stateMutability": "view",
					"type": "function"
				}
			],
			"devdoc": {
				"kind": "dev",
				"methods": {},
				"version": 1
			},
			"evm": {
				"assembly": "    /* \"management.sol\":60:1554  contract StudentManager {... */\n  mstore(0x40, 0x80)\n    /* \"management.sol\":436:487  constructor() {... */\n  callvalue\n  dup1\n  iszero\n  tag_1\n  jumpi\n  0x00\n  dup1\n  revert\ntag_1:\n  pop\n    /* \"management.sol\":469:479  msg.sender */\n  caller\n    /* \"management.sol\":461:466  owner */\n  0x02\n  0x00\n    /* \"management.sol\":461:479  owner = msg.sender */\n  0x0100\n  exp\n  dup2\n  sload\n  dup2\n  0xffffffffffffffffffffffffffffffffffffffff\n  mul\n  not\n  and\n  swap1\n  dup4\n  0xffffffffffffffffffffffffffffffffffffffff\n  and\n  mul\n  or\n  swap1\n  sstore\n  pop\n    /* \"management.sol\":60:1554  contract StudentManager {... */\n  dataSize(sub_0)\n  dup1\n  dataOffset(sub_0)\n  0x00\n  codecopy\n  0x00\n  return\nstop\n\nsub_0: assembly {\n        /* \"management.sol\":60:1554  contract StudentManager {... */\n      mstore(0x40, 0x80)\n      callvalue\n      dup1\n      iszero\n      tag_1\n      jumpi\n      0x00\n      dup1\n      revert\n    tag_1:\n      pop\n      jumpi(tag_2, lt(calldatasize, 0x04))\n      shr(0xe0, calldataload(0x00))\n      dup1\n      0x8da5cb5b\n      gt\n      tag_10\n      jumpi\n      dup1\n      0x8da5cb5b\n      eq\n      tag_6\n      jumpi\n      dup1\n      0xa6c807a9\n      eq\n      tag_7\n      jumpi\n      dup1\n      0xe9e30927\n      eq\n      tag_8\n      jumpi\n      dup1\n      0xf041f73f\n      eq\n      tag_9\n      jumpi\n      jump(tag_2)\n    tag_10:\n      dup1\n      0x28bcb51a\n      eq\n      tag_3\n      jumpi\n      dup1\n      0x6b7b44d7\n      eq\n      tag_4\n      jumpi\n      dup1\n      0x7df221e9\n      eq\n      tag_5\n      jumpi\n    tag_2:\n      0x00\n      dup1\n      revert\n        /* \"management.sol\":1127:1226  function getTotalStudents() public view returns (uint) {... */\n    tag_3:\n      tag_11\n      tag_12\n      jump\t// in\n    tag_11:\n      mload(0x40)\n      tag_13\n      swap2\n      swap1\n      tag_14\n      jump\t// in\n    tag_13:\n      mload(0x40)\n      dup1\n      swap2\n      sub\n      swap1\n      return\n        /* \"management.sol\":917:1080  function getStudent(address _addr) public view returns (string memory, uint) {... */\n    tag_4:\n      tag_15\n      0x04\n      dup1\n      calldatasize\n      sub\n      dup2\n      add\n      swap1\n      tag_16\n      swap2\n      swap1\n      tag_17\n      jump\t// in\n    tag_16:\n      tag_18\n      jump\t// in\n    tag_15:\n      mload(0x40)\n      tag_19\n      swap3\n      swap2\n      swap1\n      tag_20\n      jump\t// in\n    tag_19:\n      mload(0x40)\n      dup1\n      swap2\n      sub\n      swap1\n      return\n        /* \"management.sol\":321:349  address[] public studentList */\n    tag_5:\n      tag_21\n      0x04\n      dup1\n      calldatasize\n      sub\n      dup2\n      add\n      swap1\n      tag_22\n      swap2\n      swap1\n      tag_23\n      jump\t// in\n    tag_22:\n      tag_24\n      jump\t// in\n    tag_21:\n      mload(0x40)\n      tag_25\n      swap2\n      swap1\n      tag_26\n      jump\t// in\n    tag_25:\n      mload(0x40)\n      dup1\n      swap2\n      sub\n      swap1\n      return\n        /* \"management.sol\":358:378  address public owner */\n    tag_6:\n      tag_27\n      tag_28\n      jump\t// in\n    tag_27:\n      mload(0x40)\n      tag_29\n      swap2\n      swap1\n      tag_26\n      jump\t// in\n    tag_29:\n      mload(0x40)\n      dup1\n      swap2\n      sub\n      swap1\n      return\n        /* \"management.sol\":223:266  mapping(address => Student) public students */\n    tag_7:\n      tag_30\n      0x04\n      dup1\n      calldatasize\n      sub\n      dup2\n      add\n      swap1\n      tag_31\n      swap2\n      swap1\n      tag_17\n      jump\t// in\n    tag_31:\n      tag_32\n      jump\t// in\n    tag_30:\n      mload(0x40)\n      tag_33\n      swap3\n      swap2\n      swap1\n      tag_20\n      jump\t// in\n    tag_33:\n      mload(0x40)\n      dup1\n      swap2\n      sub\n      swap1\n      return\n        /* \"management.sol\":1234:1551  function getAllStudents() public view returns (Student[] memory) {... */\n    tag_8:\n      tag_34\n      tag_35\n      jump\t// in\n    tag_34:\n      mload(0x40)\n      tag_36\n      swap2\n      swap1\n      tag_37\n      jump\t// in\n    tag_36:\n      mload(0x40)\n      dup1\n      swap2\n      sub\n      swap1\n      return\n        /* \"management.sol\":694:869  function addStudent(address _addr, string memory _name, uint _age) public onlyOwner {... */\n    tag_9:\n      tag_38\n      0x04\n      dup1\n      calldatasize\n      sub\n      dup2\n      add\n      swap1\n      tag_39\n      swap2\n      swap1\n      tag_40\n      jump\t// in\n    tag_39:\n      tag_41\n      jump\t// in\n    tag_38:\n      stop\n        /* \"management.sol\":1127:1226  function getTotalStudents() public view returns (uint) {... */\n    tag_12:\n        /* \"management.sol\":1176:1180  uint */\n      0x00\n        /* \"management.sol\":1200:1211  studentList */\n      0x01\n        /* \"management.sol\":1200:1218  studentList.length */\n      dup1\n      sload\n      swap1\n      pop\n        /* \"management.sol\":1193:1218  return studentList.length */\n      swap1\n      pop\n        /* \"management.sol\":1127:1226  function getTotalStudents() public view returns (uint) {... */\n      swap1\n      jump\t// out\n        /* \"management.sol\":917:1080  function getStudent(address _addr) public view returns (string memory, uint) {... */\n    tag_18:\n        /* \"management.sol\":973:986  string memory */\n      0x60\n        /* \"management.sol\":988:992  uint */\n      0x00\n        /* \"management.sol\":1005:1021  Student memory s */\n      dup1\n        /* \"management.sol\":1024:1032  students */\n      0x00\n        /* \"management.sol\":1024:1039  students[_addr] */\n      dup1\n        /* \"management.sol\":1033:1038  _addr */\n      dup6\n        /* \"management.sol\":1024:1039  students[_addr] */\n      0xffffffffffffffffffffffffffffffffffffffff\n      and\n      0xffffffffffffffffffffffffffffffffffffffff\n      and\n      dup2\n      mstore\n      0x20\n      add\n      swap1\n      dup2\n      mstore\n      0x20\n      add\n      0x00\n      keccak256\n        /* \"management.sol\":1005:1039  Student memory s = students[_addr] */\n      mload(0x40)\n      dup1\n      0x40\n      add\n      0x40\n      mstore\n      swap1\n      dup2\n      0x00\n      dup3\n      add\n      dup1\n      sload\n      tag_44\n      swap1\n      tag_45\n      jump\t// in\n    tag_44:\n      dup1\n      0x1f\n      add\n      0x20\n      dup1\n      swap2\n      div\n      mul\n      0x20\n      add\n      mload(0x40)\n      swap1\n      dup2\n      add\n      0x40\n      mstore\n      dup1\n      swap3\n      swap2\n      swap1\n      dup2\n      dup2\n      mstore\n      0x20\n      add\n      dup3\n      dup1\n      sload\n      tag_46\n      swap1\n      tag_45\n      jump\t// in\n    tag_46:\n      dup1\n      iszero\n      tag_47\n      jumpi\n      dup1\n      0x1f\n      lt\n      tag_48\n      jumpi\n      0x0100\n      dup1\n      dup4\n      sload\n      div\n      mul\n      dup4\n      mstore\n      swap2\n      0x20\n      add\n      swap2\n      jump(tag_47)\n    tag_48:\n      dup3\n      add\n      swap2\n      swap1\n      0x00\n      mstore\n      keccak256(0x00, 0x20)\n      swap1\n    tag_49:\n      dup2\n      sload\n      dup2\n      mstore\n      swap1\n      0x01\n      add\n      swap1\n      0x20\n      add\n      dup1\n      dup4\n      gt\n      tag_49\n      jumpi\n      dup3\n      swap1\n      sub\n      0x1f\n      and\n      dup3\n      add\n      swap2\n    tag_47:\n      pop\n      pop\n      pop\n      pop\n      pop\n      dup2\n      mstore\n      0x20\n      add\n      0x01\n      dup3\n      add\n      sload\n      dup2\n      mstore\n      pop\n      pop\n      swap1\n      pop\n        /* \"management.sol\":1058:1059  s */\n      dup1\n        /* \"management.sol\":1058:1064  s.name */\n      0x00\n      add\n      mload\n        /* \"management.sol\":1066:1067  s */\n      dup2\n        /* \"management.sol\":1066:1071  s.age */\n      0x20\n      add\n      mload\n        /* \"management.sol\":1050:1072  return (s.name, s.age) */\n      swap3\n      pop\n      swap3\n      pop\n      pop\n        /* \"management.sol\":917:1080  function getStudent(address _addr) public view returns (string memory, uint) {... */\n      swap2\n      pop\n      swap2\n      jump\t// out\n        /* \"management.sol\":321:349  address[] public studentList */\n    tag_24:\n      0x01\n      dup2\n      dup2\n      sload\n      dup2\n      lt\n      tag_50\n      jumpi\n      0x00\n      dup1\n      revert\n    tag_50:\n      swap1\n      0x00\n      mstore\n      keccak256(0x00, 0x20)\n      add\n      0x00\n      swap2\n      pop\n      sload\n      swap1\n      0x0100\n      exp\n      swap1\n      div\n      0xffffffffffffffffffffffffffffffffffffffff\n      and\n      dup2\n      jump\t// out\n        /* \"management.sol\":358:378  address public owner */\n    tag_28:\n      0x02\n      0x00\n      swap1\n      sload\n      swap1\n      0x0100\n      exp\n      swap1\n      div\n      0xffffffffffffffffffffffffffffffffffffffff\n      and\n      dup2\n      jump\t// out\n        /* \"management.sol\":223:266  mapping(address => Student) public students */\n    tag_32:\n      mstore(0x20, 0x00)\n      dup1\n      0x00\n      mstore\n      keccak256(0x00, 0x40)\n      0x00\n      swap2\n      pop\n      swap1\n      pop\n      dup1\n      0x00\n      add\n      dup1\n      sload\n      tag_52\n      swap1\n      tag_45\n      jump\t// in\n    tag_52:\n      dup1\n      0x1f\n      add\n      0x20\n      dup1\n      swap2\n      div\n      mul\n      0x20\n      add\n      mload(0x40)\n      swap1\n      dup2\n      add\n      0x40\n      mstore\n      dup1\n      swap3\n      swap2\n      swap1\n      dup2\n      dup2\n      mstore\n      0x20\n      add\n      dup3\n      dup1\n      sload\n      tag_53\n      swap1\n      tag_45\n      jump\t// in\n    tag_53:\n      dup1\n      iszero\n      tag_54\n      jumpi\n      dup1\n      0x1f\n      lt\n      tag_55\n      jumpi\n      0x0100\n      dup1\n      dup4\n      sload\n      div\n      mul\n      dup4\n      mstore\n      swap2\n      0x20\n      add\n      swap2\n      jump(tag_54)\n    tag_55:\n      dup3\n      add\n      swap2\n      swap1\n      0x00\n      mstore\n      keccak256(0x00, 0x20)\n      swap1\n    tag_56:\n      dup2\n      sload\n      dup2\n      mstore\n      swap1\n      0x01\n      add\n      swap1\n      0x20\n      add\n      dup1\n      dup4\n      gt\n      tag_56\n      jumpi\n      dup3\n      swap1\n      sub\n      0x1f\n      and\n      dup3\n      add\n      swap2\n    tag_54:\n      pop\n      pop\n      pop\n      pop\n      pop\n      swap1\n      dup1\n      0x01\n      add\n      sload\n      swap1\n      pop\n      dup3\n      jump\t// out\n        /* \"management.sol\":1234:1551  function getAllStudents() public view returns (Student[] memory) {... */\n    tag_35:\n        /* \"management.sol\":1281:1297  Student[] memory */\n      0x60\n        /* \"management.sol\":1312:1340  Student[] memory allStudents */\n      0x00\n        /* \"management.sol\":1357:1368  studentList */\n      0x01\n        /* \"management.sol\":1357:1375  studentList.length */\n      dup1\n      sload\n      swap1\n      pop\n        /* \"management.sol\":1343:1376  new Student[](studentList.length) */\n      0xffffffffffffffff\n      dup2\n      gt\n      iszero\n      tag_58\n      jumpi\n      tag_59\n      tag_60\n      jump\t// in\n    tag_59:\n    tag_58:\n      mload(0x40)\n      swap1\n      dup1\n      dup3\n      mstore\n      dup1\n      0x20\n      mul\n      0x20\n      add\n      dup3\n      add\n      0x40\n      mstore\n      dup1\n      iszero\n      tag_61\n      jumpi\n      dup2\n      0x20\n      add\n    tag_62:\n      tag_63\n      tag_64\n      jump\t// in\n    tag_63:\n      dup2\n      mstore\n      0x20\n      add\n      swap1\n      0x01\n      swap1\n      sub\n      swap1\n      dup2\n      tag_62\n      jumpi\n      swap1\n      pop\n    tag_61:\n      pop\n        /* \"management.sol\":1312:1376  Student[] memory allStudents = new Student[](studentList.length) */\n      swap1\n      pop\n        /* \"management.sol\":1390:1396  uint i */\n      0x00\n        /* \"management.sol\":1385:1521  for (uint i = 0; i < studentList.length; i++) {... */\n    tag_65:\n        /* \"management.sol\":1406:1417  studentList */\n      0x01\n        /* \"management.sol\":1406:1424  studentList.length */\n      dup1\n      sload\n      swap1\n      pop\n        /* \"management.sol\":1402:1403  i */\n      dup2\n        /* \"management.sol\":1402:1424  i < studentList.length */\n      lt\n        /* \"management.sol\":1385:1521  for (uint i = 0; i < studentList.length; i++) {... */\n      iszero\n      tag_66\n      jumpi\n        /* \"management.sol\":1442:1454  address addr */\n      0x00\n        /* \"management.sol\":1457:1468  studentList */\n      0x01\n        /* \"management.sol\":1469:1470  i */\n      dup3\n        /* \"management.sol\":1457:1471  studentList[i] */\n      dup2\n      sload\n      dup2\n      lt\n      tag_68\n      jumpi\n      tag_69\n      tag_70\n      jump\t// in\n    tag_69:\n    tag_68:\n      swap1\n      0x00\n      mstore\n      keccak256(0x00, 0x20)\n      add\n      0x00\n      swap1\n      sload\n      swap1\n      0x0100\n      exp\n      swap1\n      div\n      0xffffffffffffffffffffffffffffffffffffffff\n      and\n        /* \"management.sol\":1442:1471  address addr = studentList[i] */\n      swap1\n      pop\n        /* \"management.sol\":1499:1507  students */\n      0x00\n        /* \"management.sol\":1499:1513  students[addr] */\n      dup1\n        /* \"management.sol\":1508:1512  addr */\n      dup3\n        /* \"management.sol\":1499:1513  students[addr] */\n      0xffffffffffffffffffffffffffffffffffffffff\n      and\n      0xffffffffffffffffffffffffffffffffffffffff\n      and\n      dup2\n      mstore\n      0x20\n      add\n      swap1\n      dup2\n      mstore\n      0x20\n      add\n      0x00\n      keccak256\n        /* \"management.sol\":1482:1513  allStudents[i] = students[addr] */\n      mload(0x40)\n      dup1\n      0x40\n      add\n      0x40\n      mstore\n      swap1\n      dup2\n      0x00\n      dup3\n      add\n      dup1\n      sload\n      tag_72\n      swap1\n      tag_45\n      jump\t// in\n    tag_72:\n      dup1\n      0x1f\n      add\n      0x20\n      dup1\n      swap2\n      div\n      mul\n      0x20\n      add\n      mload(0x40)\n      swap1\n      dup2\n      add\n      0x40\n      mstore\n      dup1\n      swap3\n      swap2\n      swap1\n      dup2\n      dup2\n      mstore\n      0x20\n      add\n      dup3\n      dup1\n      sload\n      tag_73\n      swap1\n      tag_45\n      jump\t// in\n    tag_73:\n      dup1\n      iszero\n      tag_74\n      jumpi\n      dup1\n      0x1f\n      lt\n      tag_75\n      jumpi\n      0x0100\n      dup1\n      dup4\n      sload\n      div\n      mul\n      dup4\n      mstore\n      swap2\n      0x20\n      add\n      swap2\n      jump(tag_74)\n    tag_75:\n      dup3\n      add\n      swap2\n      swap1\n      0x00\n      mstore\n      keccak256(0x00, 0x20)\n      swap1\n    tag_76:\n      dup2\n      sload\n      dup2\n      mstore\n      swap1\n      0x01\n      add\n      swap1\n      0x20\n      add\n      dup1\n      dup4\n      gt\n      tag_76\n      jumpi\n      dup3\n      swap1\n      sub\n      0x1f\n      and\n      dup3\n      add\n      swap2\n    tag_74:\n      pop\n      pop\n      pop\n      pop\n      pop\n      dup2\n      mstore\n      0x20\n      add\n      0x01\n      dup3\n      add\n      sload\n      dup2\n      mstore\n      pop\n      pop\n        /* \"management.sol\":1482:1493  allStudents */\n      dup4\n        /* \"management.sol\":1494:1495  i */\n      dup4\n        /* \"management.sol\":1482:1496  allStudents[i] */\n      dup2\n      mload\n      dup2\n      lt\n      tag_77\n      jumpi\n      tag_78\n      tag_70\n      jump\t// in\n    tag_78:\n    tag_77:\n      0x20\n      mul\n      0x20\n      add\n      add\n        /* \"management.sol\":1482:1513  allStudents[i] = students[addr] */\n      dup2\n      swap1\n      mstore\n      pop\n        /* \"management.sol\":1431:1521  {... */\n      pop\n        /* \"management.sol\":1426:1429  i++ */\n      dup1\n      dup1\n      tag_79\n      swap1\n      tag_80\n      jump\t// in\n    tag_79:\n      swap2\n      pop\n      pop\n        /* \"management.sol\":1385:1521  for (uint i = 0; i < studentList.length; i++) {... */\n      jump(tag_65)\n    tag_66:\n      pop\n        /* \"management.sol\":1536:1547  allStudents */\n      dup1\n        /* \"management.sol\":1529:1547  return allStudents */\n      swap2\n      pop\n      pop\n        /* \"management.sol\":1234:1551  function getAllStudents() public view returns (Student[] memory) {... */\n      swap1\n      jump\t// out\n        /* \"management.sol\":694:869  function addStudent(address _addr, string memory _name, uint _age) public onlyOwner {... */\n    tag_41:\n        /* \"management.sol\":609:614  owner */\n      0x02\n      0x00\n      swap1\n      sload\n      swap1\n      0x0100\n      exp\n      swap1\n      div\n      0xffffffffffffffffffffffffffffffffffffffff\n      and\n        /* \"management.sol\":595:614  msg.sender == owner */\n      0xffffffffffffffffffffffffffffffffffffffff\n      and\n        /* \"management.sol\":595:605  msg.sender */\n      caller\n        /* \"management.sol\":595:614  msg.sender == owner */\n      0xffffffffffffffffffffffffffffffffffffffff\n      and\n      eq\n        /* \"management.sol\":587:632  require(msg.sender == owner, \"Not the owner\") */\n      tag_82\n      jumpi\n      mload(0x40)\n      0x08c379a000000000000000000000000000000000000000000000000000000000\n      dup2\n      mstore\n      0x04\n      add\n      tag_83\n      swap1\n      tag_84\n      jump\t// in\n    tag_83:\n      mload(0x40)\n      dup1\n      swap2\n      sub\n      swap1\n      revert\n    tag_82:\n        /* \"management.sol\":807:827  Student(_name, _age) */\n      mload(0x40)\n      dup1\n      0x40\n      add\n      0x40\n      mstore\n      dup1\n        /* \"management.sol\":815:820  _name */\n      dup4\n        /* \"management.sol\":807:827  Student(_name, _age) */\n      dup2\n      mstore\n      0x20\n      add\n        /* \"management.sol\":822:826  _age */\n      dup3\n        /* \"management.sol\":807:827  Student(_name, _age) */\n      dup2\n      mstore\n      pop\n        /* \"management.sol\":789:797  students */\n      0x00\n        /* \"management.sol\":789:804  students[_addr] */\n      dup1\n        /* \"management.sol\":798:803  _addr */\n      dup6\n        /* \"management.sol\":789:804  students[_addr] */\n      0xffffffffffffffffffffffffffffffffffffffff\n      and\n      0xffffffffffffffffffffffffffffffffffffffff\n      and\n      dup2\n      mstore\n      0x20\n      add\n      swap1\n      dup2\n      mstore\n      0x20\n      add\n      0x00\n      keccak256\n        /* \"management.sol\":789:827  students[_addr] = Student(_name, _age) */\n      0x00\n      dup3\n      add\n      mload\n      dup2\n      0x00\n      add\n      swap1\n      dup2\n      tag_86\n      swap2\n      swap1\n      tag_87\n      jump\t// in\n    tag_86:\n      pop\n      0x20\n      dup3\n      add\n      mload\n      dup2\n      0x01\n      add\n      sstore\n      swap1\n      pop\n      pop\n        /* \"management.sol\":838:849  studentList */\n      0x01\n        /* \"management.sol\":855:860  _addr */\n      dup4\n        /* \"management.sol\":838:861  studentList.push(_addr) */\n      swap1\n      dup1\n      0x01\n      dup2\n      sload\n      add\n      dup1\n      dup3\n      sstore\n      dup1\n      swap2\n      pop\n      pop\n      0x01\n      swap1\n      sub\n      swap1\n      0x00\n      mstore\n      keccak256(0x00, 0x20)\n      add\n      0x00\n      swap1\n      swap2\n      swap1\n      swap2\n      swap1\n      swap2\n      0x0100\n      exp\n      dup2\n      sload\n      dup2\n      0xffffffffffffffffffffffffffffffffffffffff\n      mul\n      not\n      and\n      swap1\n      dup4\n      0xffffffffffffffffffffffffffffffffffffffff\n      and\n      mul\n      or\n      swap1\n      sstore\n      pop\n        /* \"management.sol\":694:869  function addStudent(address _addr, string memory _name, uint _age) public onlyOwner {... */\n      pop\n      pop\n      pop\n      jump\t// out\n    tag_64:\n      mload(0x40)\n      dup1\n      0x40\n      add\n      0x40\n      mstore\n      dup1\n      0x60\n      dup2\n      mstore\n      0x20\n      add\n      0x00\n      dup2\n      mstore\n      pop\n      swap1\n      jump\t// out\n        /* \"#utility.yul\":7:84   */\n    tag_89:\n        /* \"#utility.yul\":44:51   */\n      0x00\n        /* \"#utility.yul\":73:78   */\n      dup2\n        /* \"#utility.yul\":62:78   */\n      swap1\n      pop\n        /* \"#utility.yul\":7:84   */\n      swap2\n      swap1\n      pop\n      jump\t// out\n        /* \"#utility.yul\":90:208   */\n    tag_90:\n        /* \"#utility.yul\":177:201   */\n      tag_146\n        /* \"#utility.yul\":195:200   */\n      dup2\n        /* \"#utility.yul\":177:201   */\n      tag_89\n      jump\t// in\n    tag_146:\n        /* \"#utility.yul\":172:175   */\n      dup3\n        /* \"#utility.yul\":165:202   */\n      mstore\n        /* \"#utility.yul\":90:208   */\n      pop\n      pop\n      jump\t// out\n        /* \"#utility.yul\":214:436   */\n    tag_14:\n        /* \"#utility.yul\":307:311   */\n      0x00\n        /* \"#utility.yul\":345:347   */\n      0x20\n        /* \"#utility.yul\":334:343   */\n      dup3\n        /* \"#utility.yul\":330:348   */\n      add\n        /* \"#utility.yul\":322:348   */\n      swap1\n      pop\n        /* \"#utility.yul\":358:429   */\n      tag_148\n        /* \"#utility.yul\":426:427   */\n      0x00\n        /* \"#utility.yul\":415:424   */\n      dup4\n        /* \"#utility.yul\":411:428   */\n      add\n        /* \"#utility.yul\":402:408   */\n      dup5\n        /* \"#utility.yul\":358:429   */\n      tag_90\n      jump\t// in\n    tag_148:\n        /* \"#utility.yul\":214:436   */\n      swap3\n      swap2\n      pop\n      pop\n      jump\t// out\n        /* \"#utility.yul\":442:517   */\n    tag_91:\n        /* \"#utility.yul\":475:481   */\n      0x00\n        /* \"#utility.yul\":508:510   */\n      0x40\n        /* \"#utility.yul\":502:511   */\n      mload\n        /* \"#utility.yul\":492:511   */\n      swap1\n      pop\n        /* \"#utility.yul\":442:517   */\n      swap1\n      jump\t// out\n        /* \"#utility.yul\":523:640   */\n    tag_92:\n        /* \"#utility.yul\":632:633   */\n      0x00\n        /* \"#utility.yul\":629:630   */\n      dup1\n        /* \"#utility.yul\":622:634   */\n      revert\n        /* \"#utility.yul\":646:763   */\n    tag_93:\n        /* \"#utility.yul\":755:756   */\n      0x00\n        /* \"#utility.yul\":752:753   */\n      dup1\n        /* \"#utility.yul\":745:757   */\n      revert\n        /* \"#utility.yul\":769:895   */\n    tag_94:\n        /* \"#utility.yul\":806:813   */\n      0x00\n        /* \"#utility.yul\":846:888   */\n      0xffffffffffffffffffffffffffffffffffffffff\n        /* \"#utility.yul\":839:844   */\n      dup3\n        /* \"#utility.yul\":835:889   */\n      and\n        /* \"#utility.yul\":824:889   */\n      swap1\n      pop\n        /* \"#utility.yul\":769:895   */\n      swap2\n      swap1\n      pop\n      jump\t// out\n        /* \"#utility.yul\":901:997   */\n    tag_95:\n        /* \"#utility.yul\":938:945   */\n      0x00\n        /* \"#utility.yul\":967:991   */\n      tag_154\n        /* \"#utility.yul\":985:990   */\n      dup3\n        /* \"#utility.yul\":967:991   */\n      tag_94\n      jump\t// in\n    tag_154:\n        /* \"#utility.yul\":956:991   */\n      swap1\n      pop\n        /* \"#utility.yul\":901:997   */\n      swap2\n      swap1\n      pop\n      jump\t// out\n        /* \"#utility.yul\":1003:1125   */\n    tag_96:\n        /* \"#utility.yul\":1076:1100   */\n      tag_156\n        /* \"#utility.yul\":1094:1099   */\n      dup2\n        /* \"#utility.yul\":1076:1100   */\n      tag_95\n      jump\t// in\n    tag_156:\n        /* \"#utility.yul\":1069:1074   */\n      dup2\n        /* \"#utility.yul\":1066:1101   */\n      eq\n        /* \"#utility.yul\":1056:1119   */\n      tag_157\n      jumpi\n        /* \"#utility.yul\":1115:1116   */\n      0x00\n        /* \"#utility.yul\":1112:1113   */\n      dup1\n        /* \"#utility.yul\":1105:1117   */\n      revert\n        /* \"#utility.yul\":1056:1119   */\n    tag_157:\n        /* \"#utility.yul\":1003:1125   */\n      pop\n      jump\t// out\n        /* \"#utility.yul\":1131:1270   */\n    tag_97:\n        /* \"#utility.yul\":1177:1182   */\n      0x00\n        /* \"#utility.yul\":1215:1221   */\n      dup2\n        /* \"#utility.yul\":1202:1222   */\n      calldataload\n        /* \"#utility.yul\":1193:1222   */\n      swap1\n      pop\n        /* \"#utility.yul\":1231:1264   */\n      tag_159\n        /* \"#utility.yul\":1258:1263   */\n      dup2\n        /* \"#utility.yul\":1231:1264   */\n      tag_96\n      jump\t// in\n    tag_159:\n        /* \"#utility.yul\":1131:1270   */\n      swap3\n      swap2\n      pop\n      pop\n      jump\t// out\n        /* \"#utility.yul\":1276:1605   */\n    tag_17:\n        /* \"#utility.yul\":1335:1341   */\n      0x00\n        /* \"#utility.yul\":1384:1386   */\n      0x20\n        /* \"#utility.yul\":1372:1381   */\n      dup3\n        /* \"#utility.yul\":1363:1370   */\n      dup5\n        /* \"#utility.yul\":1359:1382   */\n      sub\n        /* \"#utility.yul\":1355:1387   */\n      slt\n        /* \"#utility.yul\":1352:1471   */\n      iszero\n      tag_161\n      jumpi\n        /* \"#utility.yul\":1390:1469   */\n      tag_162\n      tag_92\n      jump\t// in\n    tag_162:\n        /* \"#utility.yul\":1352:1471   */\n    tag_161:\n        /* \"#utility.yul\":1510:1511   */\n      0x00\n        /* \"#utility.yul\":1535:1588   */\n      tag_163\n        /* \"#utility.yul\":1580:1587   */\n      dup5\n        /* \"#utility.yul\":1571:1577   */\n      dup3\n        /* \"#utility.yul\":1560:1569   */\n      dup6\n        /* \"#utility.yul\":1556:1578   */\n      add\n        /* \"#utility.yul\":1535:1588   */\n      tag_97\n      jump\t// in\n    tag_163:\n        /* \"#utility.yul\":1525:1588   */\n      swap2\n      pop\n        /* \"#utility.yul\":1481:1598   */\n      pop\n        /* \"#utility.yul\":1276:1605   */\n      swap3\n      swap2\n      pop\n      pop\n      jump\t// out\n        /* \"#utility.yul\":1611:1710   */\n    tag_98:\n        /* \"#utility.yul\":1663:1669   */\n      0x00\n        /* \"#utility.yul\":1697:1702   */\n      dup2\n        /* \"#utility.yul\":1691:1703   */\n      mload\n        /* \"#utility.yul\":1681:1703   */\n      swap1\n      pop\n        /* \"#utility.yul\":1611:1710   */\n      swap2\n      swap1\n      pop\n      jump\t// out\n        /* \"#utility.yul\":1716:1885   */\n    tag_99:\n        /* \"#utility.yul\":1800:1811   */\n      0x00\n        /* \"#utility.yul\":1834:1840   */\n      dup3\n        /* \"#utility.yul\":1829:1832   */\n      dup3\n        /* \"#utility.yul\":1822:1841   */\n      mstore\n        /* \"#utility.yul\":1874:1878   */\n      0x20\n        /* \"#utility.yul\":1869:1872   */\n      dup3\n        /* \"#utility.yul\":1865:1879   */\n      add\n        /* \"#utility.yul\":1850:1879   */\n      swap1\n      pop\n        /* \"#utility.yul\":1716:1885   */\n      swap3\n      swap2\n      pop\n      pop\n      jump\t// out\n        /* \"#utility.yul\":1891:2137   */\n    tag_100:\n        /* \"#utility.yul\":1972:1973   */\n      0x00\n        /* \"#utility.yul\":1982:2095   */\n    tag_167:\n        /* \"#utility.yul\":1996:2002   */\n      dup4\n        /* \"#utility.yul\":1993:1994   */\n      dup2\n        /* \"#utility.yul\":1990:2003   */\n      lt\n        /* \"#utility.yul\":1982:2095   */\n      iszero\n      tag_169\n      jumpi\n        /* \"#utility.yul\":2081:2082   */\n      dup1\n        /* \"#utility.yul\":2076:2079   */\n      dup3\n        /* \"#utility.yul\":2072:2083   */\n      add\n        /* \"#utility.yul\":2066:2084   */\n      mload\n        /* \"#utility.yul\":2062:2063   */\n      dup2\n        /* \"#utility.yul\":2057:2060   */\n      dup5\n        /* \"#utility.yul\":2053:2064   */\n      add\n        /* \"#utility.yul\":2046:2085   */\n      mstore\n        /* \"#utility.yul\":2018:2020   */\n      0x20\n        /* \"#utility.yul\":2015:2016   */\n      dup2\n        /* \"#utility.yul\":2011:2021   */\n      add\n        /* \"#utility.yul\":2006:2021   */\n      swap1\n      pop\n        /* \"#utility.yul\":1982:2095   */\n      jump(tag_167)\n    tag_169:\n        /* \"#utility.yul\":2129:2130   */\n      0x00\n        /* \"#utility.yul\":2120:2126   */\n      dup5\n        /* \"#utility.yul\":2115:2118   */\n      dup5\n        /* \"#utility.yul\":2111:2127   */\n      add\n        /* \"#utility.yul\":2104:2131   */\n      mstore\n        /* \"#utility.yul\":1953:2137   */\n      pop\n        /* \"#utility.yul\":1891:2137   */\n      pop\n      pop\n      pop\n      jump\t// out\n        /* \"#utility.yul\":2143:2245   */\n    tag_101:\n        /* \"#utility.yul\":2184:2190   */\n      0x00\n        /* \"#utility.yul\":2235:2237   */\n      0x1f\n        /* \"#utility.yul\":2231:2238   */\n      not\n        /* \"#utility.yul\":2226:2228   */\n      0x1f\n        /* \"#utility.yul\":2219:2224   */\n      dup4\n        /* \"#utility.yul\":2215:2229   */\n      add\n        /* \"#utility.yul\":2211:2239   */\n      and\n        /* \"#utility.yul\":2201:2239   */\n      swap1\n      pop\n        /* \"#utility.yul\":2143:2245   */\n      swap2\n      swap1\n      pop\n      jump\t// out\n        /* \"#utility.yul\":2251:2628   */\n    tag_102:\n        /* \"#utility.yul\":2339:2342   */\n      0x00\n        /* \"#utility.yul\":2367:2406   */\n      tag_172\n        /* \"#utility.yul\":2400:2405   */\n      dup3\n        /* \"#utility.yul\":2367:2406   */\n      tag_98\n      jump\t// in\n    tag_172:\n        /* \"#utility.yul\":2422:2493   */\n      tag_173\n        /* \"#utility.yul\":2486:2492   */\n      dup2\n        /* \"#utility.yul\":2481:2484   */\n      dup6\n        /* \"#utility.yul\":2422:2493   */\n      tag_99\n      jump\t// in\n    tag_173:\n        /* \"#utility.yul\":2415:2493   */\n      swap4\n      pop\n        /* \"#utility.yul\":2502:2567   */\n      tag_174\n        /* \"#utility.yul\":2560:2566   */\n      dup2\n        /* \"#utility.yul\":2555:2558   */\n      dup6\n        /* \"#utility.yul\":2548:2552   */\n      0x20\n        /* \"#utility.yul\":2541:2546   */\n      dup7\n        /* \"#utility.yul\":2537:2553   */\n      add\n        /* \"#utility.yul\":2502:2567   */\n      tag_100\n      jump\t// in\n    tag_174:\n        /* \"#utility.yul\":2592:2621   */\n      tag_175\n        /* \"#utility.yul\":2614:2620   */\n      dup2\n        /* \"#utility.yul\":2592:2621   */\n      tag_101\n      jump\t// in\n    tag_175:\n        /* \"#utility.yul\":2587:2590   */\n      dup5\n        /* \"#utility.yul\":2583:2622   */\n      add\n        /* \"#utility.yul\":2576:2622   */\n      swap2\n      pop\n        /* \"#utility.yul\":2343:2628   */\n      pop\n        /* \"#utility.yul\":2251:2628   */\n      swap3\n      swap2\n      pop\n      pop\n      jump\t// out\n        /* \"#utility.yul\":2634:3057   */\n    tag_20:\n        /* \"#utility.yul\":2775:2779   */\n      0x00\n        /* \"#utility.yul\":2813:2815   */\n      0x40\n        /* \"#utility.yul\":2802:2811   */\n      dup3\n        /* \"#utility.yul\":2798:2816   */\n      add\n        /* \"#utility.yul\":2790:2816   */\n      swap1\n      pop\n        /* \"#utility.yul\":2862:2871   */\n      dup2\n        /* \"#utility.yul\":2856:2860   */\n      dup2\n        /* \"#utility.yul\":2852:2872   */\n      sub\n        /* \"#utility.yul\":2848:2849   */\n      0x00\n        /* \"#utility.yul\":2837:2846   */\n      dup4\n        /* \"#utility.yul\":2833:2850   */\n      add\n        /* \"#utility.yul\":2826:2873   */\n      mstore\n        /* \"#utility.yul\":2890:2968   */\n      tag_177\n        /* \"#utility.yul\":2963:2967   */\n      dup2\n        /* \"#utility.yul\":2954:2960   */\n      dup6\n        /* \"#utility.yul\":2890:2968   */\n      tag_102\n      jump\t// in\n    tag_177:\n        /* \"#utility.yul\":2882:2968   */\n      swap1\n      pop\n        /* \"#utility.yul\":2978:3050   */\n      tag_178\n        /* \"#utility.yul\":3046:3048   */\n      0x20\n        /* \"#utility.yul\":3035:3044   */\n      dup4\n        /* \"#utility.yul\":3031:3049   */\n      add\n        /* \"#utility.yul\":3022:3028   */\n      dup5\n        /* \"#utility.yul\":2978:3050   */\n      tag_90\n      jump\t// in\n    tag_178:\n        /* \"#utility.yul\":2634:3057   */\n      swap4\n      swap3\n      pop\n      pop\n      pop\n      jump\t// out\n        /* \"#utility.yul\":3063:3185   */\n    tag_103:\n        /* \"#utility.yul\":3136:3160   */\n      tag_180\n        /* \"#utility.yul\":3154:3159   */\n      dup2\n        /* \"#utility.yul\":3136:3160   */\n      tag_89\n      jump\t// in\n    tag_180:\n        /* \"#utility.yul\":3129:3134   */\n      dup2\n        /* \"#utility.yul\":3126:3161   */\n      eq\n        /* \"#utility.yul\":3116:3179   */\n      tag_181\n      jumpi\n        /* \"#utility.yul\":3175:3176   */\n      0x00\n        /* \"#utility.yul\":3172:3173   */\n      dup1\n        /* \"#utility.yul\":3165:3177   */\n      revert\n        /* \"#utility.yul\":3116:3179   */\n    tag_181:\n        /* \"#utility.yul\":3063:3185   */\n      pop\n      jump\t// out\n        /* \"#utility.yul\":3191:3330   */\n    tag_104:\n        /* \"#utility.yul\":3237:3242   */\n      0x00\n        /* \"#utility.yul\":3275:3281   */\n      dup2\n        /* \"#utility.yul\":3262:3282   */\n      calldataload\n        /* \"#utility.yul\":3253:3282   */\n      swap1\n      pop\n        /* \"#utility.yul\":3291:3324   */\n      tag_183\n        /* \"#utility.yul\":3318:3323   */\n      dup2\n        /* \"#utility.yul\":3291:3324   */\n      tag_103\n      jump\t// in\n    tag_183:\n        /* \"#utility.yul\":3191:3330   */\n      swap3\n      swap2\n      pop\n      pop\n      jump\t// out\n        /* \"#utility.yul\":3336:3665   */\n    tag_23:\n        /* \"#utility.yul\":3395:3401   */\n      0x00\n        /* \"#utility.yul\":3444:3446   */\n      0x20\n        /* \"#utility.yul\":3432:3441   */\n      dup3\n        /* \"#utility.yul\":3423:3430   */\n      dup5\n        /* \"#utility.yul\":3419:3442   */\n      sub\n        /* \"#utility.yul\":3415:3447   */\n      slt\n        /* \"#utility.yul\":3412:3531   */\n      iszero\n      tag_185\n      jumpi\n        /* \"#utility.yul\":3450:3529   */\n      tag_186\n      tag_92\n      jump\t// in\n    tag_186:\n        /* \"#utility.yul\":3412:3531   */\n    tag_185:\n        /* \"#utility.yul\":3570:3571   */\n      0x00\n        /* \"#utility.yul\":3595:3648   */\n      tag_187\n        /* \"#utility.yul\":3640:3647   */\n      dup5\n        /* \"#utility.yul\":3631:3637   */\n      dup3\n        /* \"#utility.yul\":3620:3629   */\n      dup6\n        /* \"#utility.yul\":3616:3638   */\n      add\n        /* \"#utility.yul\":3595:3648   */\n      tag_104\n      jump\t// in\n    tag_187:\n        /* \"#utility.yul\":3585:3648   */\n      swap2\n      pop\n        /* \"#utility.yul\":3541:3658   */\n      pop\n        /* \"#utility.yul\":3336:3665   */\n      swap3\n      swap2\n      pop\n      pop\n      jump\t// out\n        /* \"#utility.yul\":3671:3789   */\n    tag_105:\n        /* \"#utility.yul\":3758:3782   */\n      tag_189\n        /* \"#utility.yul\":3776:3781   */\n      dup2\n        /* \"#utility.yul\":3758:3782   */\n      tag_95\n      jump\t// in\n    tag_189:\n        /* \"#utility.yul\":3753:3756   */\n      dup3\n        /* \"#utility.yul\":3746:3783   */\n      mstore\n        /* \"#utility.yul\":3671:3789   */\n      pop\n      pop\n      jump\t// out\n        /* \"#utility.yul\":3795:4017   */\n    tag_26:\n        /* \"#utility.yul\":3888:3892   */\n      0x00\n        /* \"#utility.yul\":3926:3928   */\n      0x20\n        /* \"#utility.yul\":3915:3924   */\n      dup3\n        /* \"#utility.yul\":3911:3929   */\n      add\n        /* \"#utility.yul\":3903:3929   */\n      swap1\n      pop\n        /* \"#utility.yul\":3939:4010   */\n      tag_191\n        /* \"#utility.yul\":4007:4008   */\n      0x00\n        /* \"#utility.yul\":3996:4005   */\n      dup4\n        /* \"#utility.yul\":3992:4009   */\n      add\n        /* \"#utility.yul\":3983:3989   */\n      dup5\n        /* \"#utility.yul\":3939:4010   */\n      tag_105\n      jump\t// in\n    tag_191:\n        /* \"#utility.yul\":3795:4017   */\n      swap3\n      swap2\n      pop\n      pop\n      jump\t// out\n        /* \"#utility.yul\":4023:4159   */\n    tag_106:\n        /* \"#utility.yul\":4112:4118   */\n      0x00\n        /* \"#utility.yul\":4146:4151   */\n      dup2\n        /* \"#utility.yul\":4140:4152   */\n      mload\n        /* \"#utility.yul\":4130:4152   */\n      swap1\n      pop\n        /* \"#utility.yul\":4023:4159   */\n      swap2\n      swap1\n      pop\n      jump\t// out\n        /* \"#utility.yul\":4165:4371   */\n    tag_107:\n        /* \"#utility.yul\":4286:4297   */\n      0x00\n        /* \"#utility.yul\":4320:4326   */\n      dup3\n        /* \"#utility.yul\":4315:4318   */\n      dup3\n        /* \"#utility.yul\":4308:4327   */\n      mstore\n        /* \"#utility.yul\":4360:4364   */\n      0x20\n        /* \"#utility.yul\":4355:4358   */\n      dup3\n        /* \"#utility.yul\":4351:4365   */\n      add\n        /* \"#utility.yul\":4336:4365   */\n      swap1\n      pop\n        /* \"#utility.yul\":4165:4371   */\n      swap3\n      swap2\n      pop\n      pop\n      jump\t// out\n        /* \"#utility.yul\":4377:4531   */\n    tag_108:\n        /* \"#utility.yul\":4466:4470   */\n      0x00\n        /* \"#utility.yul\":4489:4492   */\n      dup2\n        /* \"#utility.yul\":4481:4492   */\n      swap1\n      pop\n        /* \"#utility.yul\":4519:4523   */\n      0x20\n        /* \"#utility.yul\":4514:4517   */\n      dup3\n        /* \"#utility.yul\":4510:4524   */\n      add\n        /* \"#utility.yul\":4502:4524   */\n      swap1\n      pop\n        /* \"#utility.yul\":4377:4531   */\n      swap2\n      swap1\n      pop\n      jump\t// out\n        /* \"#utility.yul\":4537:4696   */\n    tag_109:\n        /* \"#utility.yul\":4611:4622   */\n      0x00\n        /* \"#utility.yul\":4645:4651   */\n      dup3\n        /* \"#utility.yul\":4640:4643   */\n      dup3\n        /* \"#utility.yul\":4633:4652   */\n      mstore\n        /* \"#utility.yul\":4685:4689   */\n      0x20\n        /* \"#utility.yul\":4680:4683   */\n      dup3\n        /* \"#utility.yul\":4676:4690   */\n      add\n        /* \"#utility.yul\":4661:4690   */\n      swap1\n      pop\n        /* \"#utility.yul\":4537:4696   */\n      swap3\n      swap2\n      pop\n      pop\n      jump\t// out\n        /* \"#utility.yul\":4702:5059   */\n    tag_110:\n        /* \"#utility.yul\":4780:4783   */\n      0x00\n        /* \"#utility.yul\":4808:4847   */\n      tag_197\n        /* \"#utility.yul\":4841:4846   */\n      dup3\n        /* \"#utility.yul\":4808:4847   */\n      tag_98\n      jump\t// in\n    tag_197:\n        /* \"#utility.yul\":4863:4924   */\n      tag_198\n        /* \"#utility.yul\":4917:4923   */\n      dup2\n        /* \"#utility.yul\":4912:4915   */\n      dup6\n        /* \"#utility.yul\":4863:4924   */\n      tag_109\n      jump\t// in\n    tag_198:\n        /* \"#utility.yul\":4856:4924   */\n      swap4\n      pop\n        /* \"#utility.yul\":4933:4998   */\n      tag_199\n        /* \"#utility.yul\":4991:4997   */\n      dup2\n        /* \"#utility.yul\":4986:4989   */\n      dup6\n        /* \"#utility.yul\":4979:4983   */\n      0x20\n        /* \"#utility.yul\":4972:4977   */\n      dup7\n        /* \"#utility.yul\":4968:4984   */\n      add\n        /* \"#utility.yul\":4933:4998   */\n      tag_100\n      jump\t// in\n    tag_199:\n        /* \"#utility.yul\":5023:5052   */\n      tag_200\n        /* \"#utility.yul\":5045:5051   */\n      dup2\n        /* \"#utility.yul\":5023:5052   */\n      tag_101\n      jump\t// in\n    tag_200:\n        /* \"#utility.yul\":5018:5021   */\n      dup5\n        /* \"#utility.yul\":5014:5053   */\n      add\n        /* \"#utility.yul\":5007:5053   */\n      swap2\n      pop\n        /* \"#utility.yul\":4784:5059   */\n      pop\n        /* \"#utility.yul\":4702:5059   */\n      swap3\n      swap2\n      pop\n      pop\n      jump\t// out\n        /* \"#utility.yul\":5065:5173   */\n    tag_111:\n        /* \"#utility.yul\":5142:5166   */\n      tag_202\n        /* \"#utility.yul\":5160:5165   */\n      dup2\n        /* \"#utility.yul\":5142:5166   */\n      tag_89\n      jump\t// in\n    tag_202:\n        /* \"#utility.yul\":5137:5140   */\n      dup3\n        /* \"#utility.yul\":5130:5167   */\n      mstore\n        /* \"#utility.yul\":5065:5173   */\n      pop\n      pop\n      jump\t// out\n        /* \"#utility.yul\":5249:5838   */\n    tag_112:\n        /* \"#utility.yul\":5352:5355   */\n      0x00\n        /* \"#utility.yul\":5388:5392   */\n      0x40\n        /* \"#utility.yul\":5383:5386   */\n      dup4\n        /* \"#utility.yul\":5379:5393   */\n      add\n        /* \"#utility.yul\":5475:5479   */\n      0x00\n        /* \"#utility.yul\":5468:5473   */\n      dup4\n        /* \"#utility.yul\":5464:5480   */\n      add\n        /* \"#utility.yul\":5458:5481   */\n      mload\n        /* \"#utility.yul\":5528:5531   */\n      dup5\n        /* \"#utility.yul\":5522:5526   */\n      dup3\n        /* \"#utility.yul\":5518:5532   */\n      sub\n        /* \"#utility.yul\":5511:5515   */\n      0x00\n        /* \"#utility.yul\":5506:5509   */\n      dup7\n        /* \"#utility.yul\":5502:5516   */\n      add\n        /* \"#utility.yul\":5495:5533   */\n      mstore\n        /* \"#utility.yul\":5554:5627   */\n      tag_204\n        /* \"#utility.yul\":5622:5626   */\n      dup3\n        /* \"#utility.yul\":5608:5620   */\n      dup3\n        /* \"#utility.yul\":5554:5627   */\n      tag_110\n      jump\t// in\n    tag_204:\n        /* \"#utility.yul\":5546:5627   */\n      swap2\n      pop\n        /* \"#utility.yul\":5403:5638   */\n      pop\n        /* \"#utility.yul\":5719:5723   */\n      0x20\n        /* \"#utility.yul\":5712:5717   */\n      dup4\n        /* \"#utility.yul\":5708:5724   */\n      add\n        /* \"#utility.yul\":5702:5725   */\n      mload\n        /* \"#utility.yul\":5738:5801   */\n      tag_205\n        /* \"#utility.yul\":5795:5799   */\n      0x20\n        /* \"#utility.yul\":5790:5793   */\n      dup7\n        /* \"#utility.yul\":5786:5800   */\n      add\n        /* \"#utility.yul\":5772:5784   */\n      dup3\n        /* \"#utility.yul\":5738:5801   */\n      tag_111\n      jump\t// in\n    tag_205:\n        /* \"#utility.yul\":5648:5811   */\n      pop\n        /* \"#utility.yul\":5828:5832   */\n      dup1\n        /* \"#utility.yul\":5821:5832   */\n      swap2\n      pop\n        /* \"#utility.yul\":5357:5838   */\n      pop\n        /* \"#utility.yul\":5249:5838   */\n      swap3\n      swap2\n      pop\n      pop\n      jump\t// out\n        /* \"#utility.yul\":5844:6088   */\n    tag_113:\n        /* \"#utility.yul\":5957:5967   */\n      0x00\n        /* \"#utility.yul\":5992:6082   */\n      tag_207\n        /* \"#utility.yul\":6078:6081   */\n      dup4\n        /* \"#utility.yul\":6070:6076   */\n      dup4\n        /* \"#utility.yul\":5992:6082   */\n      tag_112\n      jump\t// in\n    tag_207:\n        /* \"#utility.yul\":5978:6082   */\n      swap1\n      pop\n        /* \"#utility.yul\":5844:6088   */\n      swap3\n      swap2\n      pop\n      pop\n      jump\t// out\n        /* \"#utility.yul\":6094:6229   */\n    tag_114:\n        /* \"#utility.yul\":6186:6190   */\n      0x00\n        /* \"#utility.yul\":6218:6222   */\n      0x20\n        /* \"#utility.yul\":6213:6216   */\n      dup3\n        /* \"#utility.yul\":6209:6223   */\n      add\n        /* \"#utility.yul\":6201:6223   */\n      swap1\n      pop\n        /* \"#utility.yul\":6094:6229   */\n      swap2\n      swap1\n      pop\n      jump\t// out\n        /* \"#utility.yul\":6309:7396   */\n    tag_115:\n        /* \"#utility.yul\":6472:6475   */\n      0x00\n        /* \"#utility.yul\":6501:6577   */\n      tag_210\n        /* \"#utility.yul\":6571:6576   */\n      dup3\n        /* \"#utility.yul\":6501:6577   */\n      tag_106\n      jump\t// in\n    tag_210:\n        /* \"#utility.yul\":6593:6701   */\n      tag_211\n        /* \"#utility.yul\":6694:6700   */\n      dup2\n        /* \"#utility.yul\":6689:6692   */\n      dup6\n        /* \"#utility.yul\":6593:6701   */\n      tag_107\n      jump\t// in\n    tag_211:\n        /* \"#utility.yul\":6586:6701   */\n      swap4\n      pop\n        /* \"#utility.yul\":6727:6730   */\n      dup4\n        /* \"#utility.yul\":6772:6776   */\n      0x20\n        /* \"#utility.yul\":6764:6770   */\n      dup3\n        /* \"#utility.yul\":6760:6777   */\n      mul\n        /* \"#utility.yul\":6755:6758   */\n      dup6\n        /* \"#utility.yul\":6751:6778   */\n      add\n        /* \"#utility.yul\":6802:6880   */\n      tag_212\n        /* \"#utility.yul\":6874:6879   */\n      dup6\n        /* \"#utility.yul\":6802:6880   */\n      tag_108\n      jump\t// in\n    tag_212:\n        /* \"#utility.yul\":6903:6910   */\n      dup1\n        /* \"#utility.yul\":6934:6935   */\n      0x00\n        /* \"#utility.yul\":6919:7351   */\n    tag_213:\n        /* \"#utility.yul\":6944:6950   */\n      dup6\n        /* \"#utility.yul\":6941:6942   */\n      dup2\n        /* \"#utility.yul\":6938:6951   */\n      lt\n        /* \"#utility.yul\":6919:7351   */\n      iszero\n      tag_215\n      jumpi\n        /* \"#utility.yul\":7015:7024   */\n      dup5\n        /* \"#utility.yul\":7009:7013   */\n      dup5\n        /* \"#utility.yul\":7005:7025   */\n      sub\n        /* \"#utility.yul\":7000:7003   */\n      dup10\n        /* \"#utility.yul\":6993:7026   */\n      mstore\n        /* \"#utility.yul\":7066:7072   */\n      dup2\n        /* \"#utility.yul\":7060:7073   */\n      mload\n        /* \"#utility.yul\":7094:7202   */\n      tag_216\n        /* \"#utility.yul\":7197:7201   */\n      dup6\n        /* \"#utility.yul\":7182:7195   */\n      dup3\n        /* \"#utility.yul\":7094:7202   */\n      tag_113\n      jump\t// in\n    tag_216:\n        /* \"#utility.yul\":7086:7202   */\n      swap5\n      pop\n        /* \"#utility.yul\":7225:7307   */\n      tag_217\n        /* \"#utility.yul\":7300:7306   */\n      dup4\n        /* \"#utility.yul\":7225:7307   */\n      tag_114\n      jump\t// in\n    tag_217:\n        /* \"#utility.yul\":7215:7307   */\n      swap3\n      pop\n        /* \"#utility.yul\":7336:7340   */\n      0x20\n        /* \"#utility.yul\":7331:7334   */\n      dup11\n        /* \"#utility.yul\":7327:7341   */\n      add\n        /* \"#utility.yul\":7320:7341   */\n      swap10\n      pop\n        /* \"#utility.yul\":6979:7351   */\n      pop\n        /* \"#utility.yul\":6966:6967   */\n      0x01\n        /* \"#utility.yul\":6963:6964   */\n      dup2\n        /* \"#utility.yul\":6959:6968   */\n      add\n        /* \"#utility.yul\":6954:6968   */\n      swap1\n      pop\n        /* \"#utility.yul\":6919:7351   */\n      jump(tag_213)\n    tag_215:\n        /* \"#utility.yul\":6923:6937   */\n      pop\n        /* \"#utility.yul\":7367:7371   */\n      dup3\n        /* \"#utility.yul\":7360:7371   */\n      swap8\n      pop\n        /* \"#utility.yul\":7387:7390   */\n      dup8\n        /* \"#utility.yul\":7380:7390   */\n      swap6\n      pop\n        /* \"#utility.yul\":6477:7396   */\n      pop\n      pop\n      pop\n      pop\n      pop\n        /* \"#utility.yul\":6309:7396   */\n      swap3\n      swap2\n      pop\n      pop\n      jump\t// out\n        /* \"#utility.yul\":7402:7863   */\n    tag_37:\n        /* \"#utility.yul\":7589:7593   */\n      0x00\n        /* \"#utility.yul\":7627:7629   */\n      0x20\n        /* \"#utility.yul\":7616:7625   */\n      dup3\n        /* \"#utility.yul\":7612:7630   */\n      add\n        /* \"#utility.yul\":7604:7630   */\n      swap1\n      pop\n        /* \"#utility.yul\":7676:7685   */\n      dup2\n        /* \"#utility.yul\":7670:7674   */\n      dup2\n        /* \"#utility.yul\":7666:7686   */\n      sub\n        /* \"#utility.yul\":7662:7663   */\n      0x00\n        /* \"#utility.yul\":7651:7660   */\n      dup4\n        /* \"#utility.yul\":7647:7664   */\n      add\n        /* \"#utility.yul\":7640:7687   */\n      mstore\n        /* \"#utility.yul\":7704:7856   */\n      tag_219\n        /* \"#utility.yul\":7851:7855   */\n      dup2\n        /* \"#utility.yul\":7842:7848   */\n      dup5\n        /* \"#utility.yul\":7704:7856   */\n      tag_115\n      jump\t// in\n    tag_219:\n        /* \"#utility.yul\":7696:7856   */\n      swap1\n      pop\n        /* \"#utility.yul\":7402:7863   */\n      swap3\n      swap2\n      pop\n      pop\n      jump\t// out\n        /* \"#utility.yul\":7869:7986   */\n    tag_116:\n        /* \"#utility.yul\":7978:7979   */\n      0x00\n        /* \"#utility.yul\":7975:7976   */\n      dup1\n        /* \"#utility.yul\":7968:7980   */\n      revert\n        /* \"#utility.yul\":7992:8109   */\n    tag_117:\n        /* \"#utility.yul\":8101:8102   */\n      0x00\n        /* \"#utility.yul\":8098:8099   */\n      dup1\n        /* \"#utility.yul\":8091:8103   */\n      revert\n        /* \"#utility.yul\":8115:8295   */\n    tag_60:\n        /* \"#utility.yul\":8163:8240   */\n      0x4e487b7100000000000000000000000000000000000000000000000000000000\n        /* \"#utility.yul\":8160:8161   */\n      0x00\n        /* \"#utility.yul\":8153:8241   */\n      mstore\n        /* \"#utility.yul\":8260:8264   */\n      0x41\n        /* \"#utility.yul\":8257:8258   */\n      0x04\n        /* \"#utility.yul\":8250:8265   */\n      mstore\n        /* \"#utility.yul\":8284:8288   */\n      0x24\n        /* \"#utility.yul\":8281:8282   */\n      0x00\n        /* \"#utility.yul\":8274:8289   */\n      revert\n        /* \"#utility.yul\":8301:8582   */\n    tag_118:\n        /* \"#utility.yul\":8384:8411   */\n      tag_224\n        /* \"#utility.yul\":8406:8410   */\n      dup3\n        /* \"#utility.yul\":8384:8411   */\n      tag_101\n      jump\t// in\n    tag_224:\n        /* \"#utility.yul\":8376:8382   */\n      dup2\n        /* \"#utility.yul\":8372:8412   */\n      add\n        /* \"#utility.yul\":8514:8520   */\n      dup2\n        /* \"#utility.yul\":8502:8512   */\n      dup2\n        /* \"#utility.yul\":8499:8521   */\n      lt\n        /* \"#utility.yul\":8478:8496   */\n      0xffffffffffffffff\n        /* \"#utility.yul\":8466:8476   */\n      dup3\n        /* \"#utility.yul\":8463:8497   */\n      gt\n        /* \"#utility.yul\":8460:8522   */\n      or\n        /* \"#utility.yul\":8457:8545   */\n      iszero\n      tag_225\n      jumpi\n        /* \"#utility.yul\":8525:8543   */\n      tag_226\n      tag_60\n      jump\t// in\n    tag_226:\n        /* \"#utility.yul\":8457:8545   */\n    tag_225:\n        /* \"#utility.yul\":8565:8575   */\n      dup1\n        /* \"#utility.yul\":8561:8563   */\n      0x40\n        /* \"#utility.yul\":8554:8576   */\n      mstore\n        /* \"#utility.yul\":8344:8582   */\n      pop\n        /* \"#utility.yul\":8301:8582   */\n      pop\n      pop\n      jump\t// out\n        /* \"#utility.yul\":8588:8717   */\n    tag_119:\n        /* \"#utility.yul\":8622:8628   */\n      0x00\n        /* \"#utility.yul\":8649:8669   */\n      tag_228\n      tag_91\n      jump\t// in\n    tag_228:\n        /* \"#utility.yul\":8639:8669   */\n      swap1\n      pop\n        /* \"#utility.yul\":8678:8711   */\n      tag_229\n        /* \"#utility.yul\":8706:8710   */\n      dup3\n        /* \"#utility.yul\":8698:8704   */\n      dup3\n        /* \"#utility.yul\":8678:8711   */\n      tag_118\n      jump\t// in\n    tag_229:\n        /* \"#utility.yul\":8588:8717   */\n      swap2\n      swap1\n      pop\n      jump\t// out\n        /* \"#utility.yul\":8723:9031   */\n    tag_120:\n        /* \"#utility.yul\":8785:8789   */\n      0x00\n        /* \"#utility.yul\":8875:8893   */\n      0xffffffffffffffff\n        /* \"#utility.yul\":8867:8873   */\n      dup3\n        /* \"#utility.yul\":8864:8894   */\n      gt\n        /* \"#utility.yul\":8861:8917   */\n      iszero\n      tag_231\n      jumpi\n        /* \"#utility.yul\":8897:8915   */\n      tag_232\n      tag_60\n      jump\t// in\n    tag_232:\n        /* \"#utility.yul\":8861:8917   */\n    tag_231:\n        /* \"#utility.yul\":8935:8964   */\n      tag_233\n        /* \"#utility.yul\":8957:8963   */\n      dup3\n        /* \"#utility.yul\":8935:8964   */\n      tag_101\n      jump\t// in\n    tag_233:\n        /* \"#utility.yul\":8927:8964   */\n      swap1\n      pop\n        /* \"#utility.yul\":9019:9023   */\n      0x20\n        /* \"#utility.yul\":9013:9017   */\n      dup2\n        /* \"#utility.yul\":9009:9024   */\n      add\n        /* \"#utility.yul\":9001:9024   */\n      swap1\n      pop\n        /* \"#utility.yul\":8723:9031   */\n      swap2\n      swap1\n      pop\n      jump\t// out\n        /* \"#utility.yul\":9037:9183   */\n    tag_121:\n        /* \"#utility.yul\":9134:9140   */\n      dup3\n        /* \"#utility.yul\":9129:9132   */\n      dup2\n        /* \"#utility.yul\":9124:9127   */\n      dup4\n        /* \"#utility.yul\":9111:9141   */\n      calldatacopy\n        /* \"#utility.yul\":9175:9176   */\n      0x00\n        /* \"#utility.yul\":9166:9172   */\n      dup4\n        /* \"#utility.yul\":9161:9164   */\n      dup4\n        /* \"#utility.yul\":9157:9173   */\n      add\n        /* \"#utility.yul\":9150:9177   */\n      mstore\n        /* \"#utility.yul\":9037:9183   */\n      pop\n      pop\n      pop\n      jump\t// out\n        /* \"#utility.yul\":9189:9614   */\n    tag_122:\n        /* \"#utility.yul\":9267:9272   */\n      0x00\n        /* \"#utility.yul\":9292:9358   */\n      tag_236\n        /* \"#utility.yul\":9308:9357   */\n      tag_237\n        /* \"#utility.yul\":9350:9356   */\n      dup5\n        /* \"#utility.yul\":9308:9357   */\n      tag_120\n      jump\t// in\n    tag_237:\n        /* \"#utility.yul\":9292:9358   */\n      tag_119\n      jump\t// in\n    tag_236:\n        /* \"#utility.yul\":9283:9358   */\n      swap1\n      pop\n        /* \"#utility.yul\":9381:9387   */\n      dup3\n        /* \"#utility.yul\":9374:9379   */\n      dup2\n        /* \"#utility.yul\":9367:9388   */\n      mstore\n        /* \"#utility.yul\":9419:9423   */\n      0x20\n        /* \"#utility.yul\":9412:9417   */\n      dup2\n        /* \"#utility.yul\":9408:9424   */\n      add\n        /* \"#utility.yul\":9457:9460   */\n      dup5\n        /* \"#utility.yul\":9448:9454   */\n      dup5\n        /* \"#utility.yul\":9443:9446   */\n      dup5\n        /* \"#utility.yul\":9439:9455   */\n      add\n        /* \"#utility.yul\":9436:9461   */\n      gt\n        /* \"#utility.yul\":9433:9545   */\n      iszero\n      tag_238\n      jumpi\n        /* \"#utility.yul\":9464:9543   */\n      tag_239\n      tag_117\n      jump\t// in\n    tag_239:\n        /* \"#utility.yul\":9433:9545   */\n    tag_238:\n        /* \"#utility.yul\":9554:9608   */\n      tag_240\n        /* \"#utility.yul\":9601:9607   */\n      dup5\n        /* \"#utility.yul\":9596:9599   */\n      dup3\n        /* \"#utility.yul\":9591:9594   */\n      dup6\n        /* \"#utility.yul\":9554:9608   */\n      tag_121\n      jump\t// in\n    tag_240:\n        /* \"#utility.yul\":9273:9614   */\n      pop\n        /* \"#utility.yul\":9189:9614   */\n      swap4\n      swap3\n      pop\n      pop\n      pop\n      jump\t// out\n        /* \"#utility.yul\":9634:9974   */\n    tag_123:\n        /* \"#utility.yul\":9690:9695   */\n      0x00\n        /* \"#utility.yul\":9739:9742   */\n      dup3\n        /* \"#utility.yul\":9732:9736   */\n      0x1f\n        /* \"#utility.yul\":9724:9730   */\n      dup4\n        /* \"#utility.yul\":9720:9737   */\n      add\n        /* \"#utility.yul\":9716:9743   */\n      slt\n        /* \"#utility.yul\":9706:9828   */\n      tag_242\n      jumpi\n        /* \"#utility.yul\":9747:9826   */\n      tag_243\n      tag_116\n      jump\t// in\n    tag_243:\n        /* \"#utility.yul\":9706:9828   */\n    tag_242:\n        /* \"#utility.yul\":9864:9870   */\n      dup2\n        /* \"#utility.yul\":9851:9871   */\n      calldataload\n        /* \"#utility.yul\":9889:9968   */\n      tag_244\n        /* \"#utility.yul\":9964:9967   */\n      dup5\n        /* \"#utility.yul\":9956:9962   */\n      dup3\n        /* \"#utility.yul\":9949:9953   */\n      0x20\n        /* \"#utility.yul\":9941:9947   */\n      dup7\n        /* \"#utility.yul\":9937:9954   */\n      add\n        /* \"#utility.yul\":9889:9968   */\n      tag_122\n      jump\t// in\n    tag_244:\n        /* \"#utility.yul\":9880:9968   */\n      swap2\n      pop\n        /* \"#utility.yul\":9696:9974   */\n      pop\n        /* \"#utility.yul\":9634:9974   */\n      swap3\n      swap2\n      pop\n      pop\n      jump\t// out\n        /* \"#utility.yul\":9980:10779   */\n    tag_40:\n        /* \"#utility.yul\":10067:10073   */\n      0x00\n        /* \"#utility.yul\":10075:10081   */\n      dup1\n        /* \"#utility.yul\":10083:10089   */\n      0x00\n        /* \"#utility.yul\":10132:10134   */\n      0x60\n        /* \"#utility.yul\":10120:10129   */\n      dup5\n        /* \"#utility.yul\":10111:10118   */\n      dup7\n        /* \"#utility.yul\":10107:10130   */\n      sub\n        /* \"#utility.yul\":10103:10135   */\n      slt\n        /* \"#utility.yul\":10100:10219   */\n      iszero\n      tag_246\n      jumpi\n        /* \"#utility.yul\":10138:10217   */\n      tag_247\n      tag_92\n      jump\t// in\n    tag_247:\n        /* \"#utility.yul\":10100:10219   */\n    tag_246:\n        /* \"#utility.yul\":10258:10259   */\n      0x00\n        /* \"#utility.yul\":10283:10336   */\n      tag_248\n        /* \"#utility.yul\":10328:10335   */\n      dup7\n        /* \"#utility.yul\":10319:10325   */\n      dup3\n        /* \"#utility.yul\":10308:10317   */\n      dup8\n        /* \"#utility.yul\":10304:10326   */\n      add\n        /* \"#utility.yul\":10283:10336   */\n      tag_97\n      jump\t// in\n    tag_248:\n        /* \"#utility.yul\":10273:10336   */\n      swap4\n      pop\n        /* \"#utility.yul\":10229:10346   */\n      pop\n        /* \"#utility.yul\":10413:10415   */\n      0x20\n        /* \"#utility.yul\":10402:10411   */\n      dup5\n        /* \"#utility.yul\":10398:10416   */\n      add\n        /* \"#utility.yul\":10385:10417   */\n      calldataload\n        /* \"#utility.yul\":10444:10462   */\n      0xffffffffffffffff\n        /* \"#utility.yul\":10436:10442   */\n      dup2\n        /* \"#utility.yul\":10433:10463   */\n      gt\n        /* \"#utility.yul\":10430:10547   */\n      iszero\n      tag_249\n      jumpi\n        /* \"#utility.yul\":10466:10545   */\n      tag_250\n      tag_93\n      jump\t// in\n    tag_250:\n        /* \"#utility.yul\":10430:10547   */\n    tag_249:\n        /* \"#utility.yul\":10571:10634   */\n      tag_251\n        /* \"#utility.yul\":10626:10633   */\n      dup7\n        /* \"#utility.yul\":10617:10623   */\n      dup3\n        /* \"#utility.yul\":10606:10615   */\n      dup8\n        /* \"#utility.yul\":10602:10624   */\n      add\n        /* \"#utility.yul\":10571:10634   */\n      tag_123\n      jump\t// in\n    tag_251:\n        /* \"#utility.yul\":10561:10634   */\n      swap3\n      pop\n        /* \"#utility.yul\":10356:10644   */\n      pop\n        /* \"#utility.yul\":10683:10685   */\n      0x40\n        /* \"#utility.yul\":10709:10762   */\n      tag_252\n        /* \"#utility.yul\":10754:10761   */\n      dup7\n        /* \"#utility.yul\":10745:10751   */\n      dup3\n        /* \"#utility.yul\":10734:10743   */\n      dup8\n        /* \"#utility.yul\":10730:10752   */\n      add\n        /* \"#utility.yul\":10709:10762   */\n      tag_104\n      jump\t// in\n    tag_252:\n        /* \"#utility.yul\":10699:10762   */\n      swap2\n      pop\n        /* \"#utility.yul\":10654:10772   */\n      pop\n        /* \"#utility.yul\":9980:10779   */\n      swap3\n      pop\n      swap3\n      pop\n      swap3\n      jump\t// out\n        /* \"#utility.yul\":10785:10965   */\n    tag_124:\n        /* \"#utility.yul\":10833:10910   */\n      0x4e487b7100000000000000000000000000000000000000000000000000000000\n        /* \"#utility.yul\":10830:10831   */\n      0x00\n        /* \"#utility.yul\":10823:10911   */\n      mstore\n        /* \"#utility.yul\":10930:10934   */\n      0x22\n        /* \"#utility.yul\":10927:10928   */\n      0x04\n        /* \"#utility.yul\":10920:10935   */\n      mstore\n        /* \"#utility.yul\":10954:10958   */\n      0x24\n        /* \"#utility.yul\":10951:10952   */\n      0x00\n        /* \"#utility.yul\":10944:10959   */\n      revert\n        /* \"#utility.yul\":10971:11291   */\n    tag_45:\n        /* \"#utility.yul\":11015:11021   */\n      0x00\n        /* \"#utility.yul\":11052:11053   */\n      0x02\n        /* \"#utility.yul\":11046:11050   */\n      dup3\n        /* \"#utility.yul\":11042:11054   */\n      div\n        /* \"#utility.yul\":11032:11054   */\n      swap1\n      pop\n        /* \"#utility.yul\":11099:11100   */\n      0x01\n        /* \"#utility.yul\":11093:11097   */\n      dup3\n        /* \"#utility.yul\":11089:11101   */\n      and\n        /* \"#utility.yul\":11120:11138   */\n      dup1\n        /* \"#utility.yul\":11110:11191   */\n      tag_255\n      jumpi\n        /* \"#utility.yul\":11176:11180   */\n      0x7f\n        /* \"#utility.yul\":11168:11174   */\n      dup3\n        /* \"#utility.yul\":11164:11181   */\n      and\n        /* \"#utility.yul\":11154:11181   */\n      swap2\n      pop\n        /* \"#utility.yul\":11110:11191   */\n    tag_255:\n        /* \"#utility.yul\":11238:11240   */\n      0x20\n        /* \"#utility.yul\":11230:11236   */\n      dup3\n        /* \"#utility.yul\":11227:11241   */\n      lt\n        /* \"#utility.yul\":11207:11225   */\n      dup2\n        /* \"#utility.yul\":11204:11242   */\n      sub\n        /* \"#utility.yul\":11201:11285   */\n      tag_256\n      jumpi\n        /* \"#utility.yul\":11257:11275   */\n      tag_257\n      tag_124\n      jump\t// in\n    tag_257:\n        /* \"#utility.yul\":11201:11285   */\n    tag_256:\n        /* \"#utility.yul\":11022:11291   */\n      pop\n        /* \"#utility.yul\":10971:11291   */\n      swap2\n      swap1\n      pop\n      jump\t// out\n        /* \"#utility.yul\":11297:11477   */\n    tag_70:\n        /* \"#utility.yul\":11345:11422   */\n      0x4e487b7100000000000000000000000000000000000000000000000000000000\n        /* \"#utility.yul\":11342:11343   */\n      0x00\n        /* \"#utility.yul\":11335:11423   */\n      mstore\n        /* \"#utility.yul\":11442:11446   */\n      0x32\n        /* \"#utility.yul\":11439:11440   */\n      0x04\n        /* \"#utility.yul\":11432:11447   */\n      mstore\n        /* \"#utility.yul\":11466:11470   */\n      0x24\n        /* \"#utility.yul\":11463:11464   */\n      0x00\n        /* \"#utility.yul\":11456:11471   */\n      revert\n        /* \"#utility.yul\":11483:11663   */\n    tag_125:\n        /* \"#utility.yul\":11531:11608   */\n      0x4e487b7100000000000000000000000000000000000000000000000000000000\n        /* \"#utility.yul\":11528:11529   */\n      0x00\n        /* \"#utility.yul\":11521:11609   */\n      mstore\n        /* \"#utility.yul\":11628:11632   */\n      0x11\n        /* \"#utility.yul\":11625:11626   */\n      0x04\n        /* \"#utility.yul\":11618:11633   */\n      mstore\n        /* \"#utility.yul\":11652:11656   */\n      0x24\n        /* \"#utility.yul\":11649:11650   */\n      0x00\n        /* \"#utility.yul\":11642:11657   */\n      revert\n        /* \"#utility.yul\":11669:11902   */\n    tag_80:\n        /* \"#utility.yul\":11708:11711   */\n      0x00\n        /* \"#utility.yul\":11731:11755   */\n      tag_261\n        /* \"#utility.yul\":11749:11754   */\n      dup3\n        /* \"#utility.yul\":11731:11755   */\n      tag_89\n      jump\t// in\n    tag_261:\n        /* \"#utility.yul\":11722:11755   */\n      swap2\n      pop\n        /* \"#utility.yul\":11777:11843   */\n      0xffffffffffffffffffffffffffffffffffffffffffffffffffffffffffffffff\n        /* \"#utility.yul\":11770:11775   */\n      dup3\n        /* \"#utility.yul\":11767:11844   */\n      sub\n        /* \"#utility.yul\":11764:11867   */\n      tag_262\n      jumpi\n        /* \"#utility.yul\":11847:11865   */\n      tag_263\n      tag_125\n      jump\t// in\n    tag_263:\n        /* \"#utility.yul\":11764:11867   */\n    tag_262:\n        /* \"#utility.yul\":11894:11895   */\n      0x01\n        /* \"#utility.yul\":11887:11892   */\n      dup3\n        /* \"#utility.yul\":11883:11896   */\n      add\n        /* \"#utility.yul\":11876:11896   */\n      swap1\n      pop\n        /* \"#utility.yul\":11669:11902   */\n      swap2\n      swap1\n      pop\n      jump\t// out\n        /* \"#utility.yul\":11908:12071   */\n    tag_126:\n        /* \"#utility.yul\":12048:12063   */\n      0x4e6f7420746865206f776e657200000000000000000000000000000000000000\n        /* \"#utility.yul\":12044:12045   */\n      0x00\n        /* \"#utility.yul\":12036:12042   */\n      dup3\n        /* \"#utility.yul\":12032:12046   */\n      add\n        /* \"#utility.yul\":12025:12064   */\n      mstore\n        /* \"#utility.yul\":11908:12071   */\n      pop\n      jump\t// out\n        /* \"#utility.yul\":12077:12443   */\n    tag_127:\n        /* \"#utility.yul\":12219:12222   */\n      0x00\n        /* \"#utility.yul\":12240:12307   */\n      tag_266\n        /* \"#utility.yul\":12304:12306   */\n      0x0d\n        /* \"#utility.yul\":12299:12302   */\n      dup4\n        /* \"#utility.yul\":12240:12307   */\n      tag_99\n      jump\t// in\n    tag_266:\n        /* \"#utility.yul\":12233:12307   */\n      swap2\n      pop\n        /* \"#utility.yul\":12316:12409   */\n      tag_267\n        /* \"#utility.yul\":12405:12408   */\n      dup3\n        /* \"#utility.yul\":12316:12409   */\n      tag_126\n      jump\t// in\n    tag_267:\n        /* \"#utility.yul\":12434:12436   */\n      0x20\n        /* \"#utility.yul\":12429:12432   */\n      dup3\n        /* \"#utility.yul\":12425:12437   */\n      add\n        /* \"#utility.yul\":12418:12437   */\n      swap1\n      pop\n        /* \"#utility.yul\":12077:12443   */\n      swap2\n      swap1\n      pop\n      jump\t// out\n        /* \"#utility.yul\":12449:12868   */\n    tag_84:\n        /* \"#utility.yul\":12615:12619   */\n      0x00\n        /* \"#utility.yul\":12653:12655   */\n      0x20\n        /* \"#utility.yul\":12642:12651   */\n      dup3\n        /* \"#utility.yul\":12638:12656   */\n      add\n        /* \"#utility.yul\":12630:12656   */\n      swap1\n      pop\n        /* \"#utility.yul\":12702:12711   */\n      dup2\n        /* \"#utility.yul\":12696:12700   */\n      dup2\n        /* \"#utility.yul\":12692:12712   */\n      sub\n        /* \"#utility.yul\":12688:12689   */\n      0x00\n        /* \"#utility.yul\":12677:12686   */\n      dup4\n        /* \"#utility.yul\":12673:12690   */\n      add\n        /* \"#utility.yul\":12666:12713   */\n      mstore\n        /* \"#utility.yul\":12730:12861   */\n      tag_269\n        /* \"#utility.yul\":12856:12860   */\n      dup2\n        /* \"#utility.yul\":12730:12861   */\n      tag_127\n      jump\t// in\n    tag_269:\n        /* \"#utility.yul\":12722:12861   */\n      swap1\n      pop\n        /* \"#utility.yul\":12449:12868   */\n      swap2\n      swap1\n      pop\n      jump\t// out\n        /* \"#utility.yul\":12874:13015   */\n    tag_128:\n        /* \"#utility.yul\":12923:12927   */\n      0x00\n        /* \"#utility.yul\":12946:12949   */\n      dup2\n        /* \"#utility.yul\":12938:12949   */\n      swap1\n      pop\n        /* \"#utility.yul\":12969:12972   */\n      dup2\n        /* \"#utility.yul\":12966:12967   */\n      0x00\n        /* \"#utility.yul\":12959:12973   */\n      mstore\n        /* \"#utility.yul\":13003:13007   */\n      0x20\n        /* \"#utility.yul\":13000:13001   */\n      0x00\n        /* \"#utility.yul\":12990:13008   */\n      keccak256\n        /* \"#utility.yul\":12982:13008   */\n      swap1\n      pop\n        /* \"#utility.yul\":12874:13015   */\n      swap2\n      swap1\n      pop\n      jump\t// out\n        /* \"#utility.yul\":13021:13114   */\n    tag_129:\n        /* \"#utility.yul\":13058:13064   */\n      0x00\n        /* \"#utility.yul\":13105:13107   */\n      0x20\n        /* \"#utility.yul\":13100:13102   */\n      0x1f\n        /* \"#utility.yul\":13093:13098   */\n      dup4\n        /* \"#utility.yul\":13089:13103   */\n      add\n        /* \"#utility.yul\":13085:13108   */\n      div\n        /* \"#utility.yul\":13075:13108   */\n      swap1\n      pop\n        /* \"#utility.yul\":13021:13114   */\n      swap2\n      swap1\n      pop\n      jump\t// out\n        /* \"#utility.yul\":13120:13227   */\n    tag_130:\n        /* \"#utility.yul\":13164:13172   */\n      0x00\n        /* \"#utility.yul\":13214:13219   */\n      dup3\n        /* \"#utility.yul\":13208:13212   */\n      dup3\n        /* \"#utility.yul\":13204:13220   */\n      shl\n        /* \"#utility.yul\":13183:13220   */\n      swap1\n      pop\n        /* \"#utility.yul\":13120:13227   */\n      swap3\n      swap2\n      pop\n      pop\n      jump\t// out\n        /* \"#utility.yul\":13233:13626   */\n    tag_131:\n        /* \"#utility.yul\":13302:13308   */\n      0x00\n        /* \"#utility.yul\":13352:13353   */\n      0x08\n        /* \"#utility.yul\":13340:13350   */\n      dup4\n        /* \"#utility.yul\":13336:13354   */\n      mul\n        /* \"#utility.yul\":13375:13472   */\n      tag_274\n        /* \"#utility.yul\":13405:13471   */\n      0xffffffffffffffffffffffffffffffffffffffffffffffffffffffffffffffff\n        /* \"#utility.yul\":13394:13403   */\n      dup3\n        /* \"#utility.yul\":13375:13472   */\n      tag_130\n      jump\t// in\n    tag_274:\n        /* \"#utility.yul\":13493:13532   */\n      tag_275\n        /* \"#utility.yul\":13523:13531   */\n      dup7\n        /* \"#utility.yul\":13512:13521   */\n      dup4\n        /* \"#utility.yul\":13493:13532   */\n      tag_130\n      jump\t// in\n    tag_275:\n        /* \"#utility.yul\":13481:13532   */\n      swap6\n      pop\n        /* \"#utility.yul\":13565:13569   */\n      dup1\n        /* \"#utility.yul\":13561:13570   */\n      not\n        /* \"#utility.yul\":13554:13559   */\n      dup5\n        /* \"#utility.yul\":13550:13571   */\n      and\n        /* \"#utility.yul\":13541:13571   */\n      swap4\n      pop\n        /* \"#utility.yul\":13614:13618   */\n      dup1\n        /* \"#utility.yul\":13604:13612   */\n      dup7\n        /* \"#utility.yul\":13600:13619   */\n      and\n        /* \"#utility.yul\":13593:13598   */\n      dup5\n        /* \"#utility.yul\":13590:13620   */\n      or\n        /* \"#utility.yul\":13580:13620   */\n      swap3\n      pop\n        /* \"#utility.yul\":13309:13626   */\n      pop\n      pop\n        /* \"#utility.yul\":13233:13626   */\n      swap4\n      swap3\n      pop\n      pop\n      pop\n      jump\t// out\n        /* \"#utility.yul\":13632:13692   */\n    tag_132:\n        /* \"#utility.yul\":13660:13663   */\n      0x00\n        /* \"#utility.yul\":13681:13686   */\n      dup2\n        /* \"#utility.yul\":13674:13686   */\n      swap1\n      pop\n        /* \"#utility.yul\":13632:13692   */\n      swap2\n      swap1\n      pop\n      jump\t// out\n        /* \"#utility.yul\":13698:13840   */\n    tag_133:\n        /* \"#utility.yul\":13748:13757   */\n      0x00\n        /* \"#utility.yul\":13781:13834   */\n      tag_278\n        /* \"#utility.yul\":13799:13833   */\n      tag_279\n        /* \"#utility.yul\":13808:13832   */\n      tag_280\n        /* \"#utility.yul\":13826:13831   */\n      dup5\n        /* \"#utility.yul\":13808:13832   */\n      tag_89\n      jump\t// in\n    tag_280:\n        /* \"#utility.yul\":13799:13833   */\n      tag_132\n      jump\t// in\n    tag_279:\n        /* \"#utility.yul\":13781:13834   */\n      tag_89\n      jump\t// in\n    tag_278:\n        /* \"#utility.yul\":13768:13834   */\n      swap1\n      pop\n        /* \"#utility.yul\":13698:13840   */\n      swap2\n      swap1\n      pop\n      jump\t// out\n        /* \"#utility.yul\":13846:13921   */\n    tag_134:\n        /* \"#utility.yul\":13889:13892   */\n      0x00\n        /* \"#utility.yul\":13910:13915   */\n      dup2\n        /* \"#utility.yul\":13903:13915   */\n      swap1\n      pop\n        /* \"#utility.yul\":13846:13921   */\n      swap2\n      swap1\n      pop\n      jump\t// out\n        /* \"#utility.yul\":13927:14196   */\n    tag_135:\n        /* \"#utility.yul\":14037:14076   */\n      tag_283\n        /* \"#utility.yul\":14068:14075   */\n      dup4\n        /* \"#utility.yul\":14037:14076   */\n      tag_133\n      jump\t// in\n    tag_283:\n        /* \"#utility.yul\":14098:14189   */\n      tag_284\n        /* \"#utility.yul\":14147:14188   */\n      tag_285\n        /* \"#utility.yul\":14171:14187   */\n      dup3\n        /* \"#utility.yul\":14147:14188   */\n      tag_134\n      jump\t// in\n    tag_285:\n        /* \"#utility.yul\":14139:14145   */\n      dup5\n        /* \"#utility.yul\":14132:14136   */\n      dup5\n        /* \"#utility.yul\":14126:14137   */\n      sload\n        /* \"#utility.yul\":14098:14189   */\n      tag_131\n      jump\t// in\n    tag_284:\n        /* \"#utility.yul\":14092:14096   */\n      dup3\n        /* \"#utility.yul\":14085:14190   */\n      sstore\n        /* \"#utility.yul\":14003:14196   */\n      pop\n        /* \"#utility.yul\":13927:14196   */\n      pop\n      pop\n      pop\n      jump\t// out\n        /* \"#utility.yul\":14202:14275   */\n    tag_136:\n        /* \"#utility.yul\":14247:14250   */\n      0x00\n        /* \"#utility.yul\":14202:14275   */\n      swap1\n      jump\t// out\n        /* \"#utility.yul\":14281:14470   */\n    tag_137:\n        /* \"#utility.yul\":14358:14390   */\n      tag_288\n      tag_136\n      jump\t// in\n    tag_288:\n        /* \"#utility.yul\":14399:14464   */\n      tag_289\n        /* \"#utility.yul\":14457:14463   */\n      dup2\n        /* \"#utility.yul\":14449:14455   */\n      dup5\n        /* \"#utility.yul\":14443:14447   */\n      dup5\n        /* \"#utility.yul\":14399:14464   */\n      tag_135\n      jump\t// in\n    tag_289:\n        /* \"#utility.yul\":14334:14470   */\n      pop\n        /* \"#utility.yul\":14281:14470   */\n      pop\n      pop\n      jump\t// out\n        /* \"#utility.yul\":14476:14662   */\n    tag_138:\n        /* \"#utility.yul\":14536:14656   */\n    tag_291:\n        /* \"#utility.yul\":14553:14556   */\n      dup2\n        /* \"#utility.yul\":14546:14551   */\n      dup2\n        /* \"#utility.yul\":14543:14557   */\n      lt\n        /* \"#utility.yul\":14536:14656   */\n      iszero\n      tag_293\n      jumpi\n        /* \"#utility.yul\":14607:14646   */\n      tag_294\n        /* \"#utility.yul\":14644:14645   */\n      0x00\n        /* \"#utility.yul\":14637:14642   */\n      dup3\n        /* \"#utility.yul\":14607:14646   */\n      tag_137\n      jump\t// in\n    tag_294:\n        /* \"#utility.yul\":14580:14581   */\n      0x01\n        /* \"#utility.yul\":14573:14578   */\n      dup2\n        /* \"#utility.yul\":14569:14582   */\n      add\n        /* \"#utility.yul\":14560:14582   */\n      swap1\n      pop\n        /* \"#utility.yul\":14536:14656   */\n      jump(tag_291)\n    tag_293:\n        /* \"#utility.yul\":14476:14662   */\n      pop\n      pop\n      jump\t// out\n        /* \"#utility.yul\":14668:15211   */\n    tag_139:\n        /* \"#utility.yul\":14769:14771   */\n      0x1f\n        /* \"#utility.yul\":14764:14767   */\n      dup3\n        /* \"#utility.yul\":14761:14772   */\n      gt\n        /* \"#utility.yul\":14758:15204   */\n      iszero\n      tag_296\n      jumpi\n        /* \"#utility.yul\":14803:14841   */\n      tag_297\n        /* \"#utility.yul\":14835:14840   */\n      dup2\n        /* \"#utility.yul\":14803:14841   */\n      tag_128\n      jump\t// in\n    tag_297:\n        /* \"#utility.yul\":14887:14916   */\n      tag_298\n        /* \"#utility.yul\":14905:14915   */\n      dup5\n        /* \"#utility.yul\":14887:14916   */\n      tag_129\n      jump\t// in\n    tag_298:\n        /* \"#utility.yul\":14877:14885   */\n      dup2\n        /* \"#utility.yul\":14873:14917   */\n      add\n        /* \"#utility.yul\":15070:15072   */\n      0x20\n        /* \"#utility.yul\":15058:15068   */\n      dup6\n        /* \"#utility.yul\":15055:15073   */\n      lt\n        /* \"#utility.yul\":15052:15101   */\n      iszero\n      tag_299\n      jumpi\n        /* \"#utility.yul\":15091:15099   */\n      dup2\n        /* \"#utility.yul\":15076:15099   */\n      swap1\n      pop\n        /* \"#utility.yul\":15052:15101   */\n    tag_299:\n        /* \"#utility.yul\":15114:15194   */\n      tag_300\n        /* \"#utility.yul\":15170:15192   */\n      tag_301\n        /* \"#utility.yul\":15188:15191   */\n      dup6\n        /* \"#utility.yul\":15170:15192   */\n      tag_129\n      jump\t// in\n    tag_301:\n        /* \"#utility.yul\":15160:15168   */\n      dup4\n        /* \"#utility.yul\":15156:15193   */\n      add\n        /* \"#utility.yul\":15143:15154   */\n      dup3\n        /* \"#utility.yul\":15114:15194   */\n      tag_138\n      jump\t// in\n    tag_300:\n        /* \"#utility.yul\":14773:15204   */\n      pop\n      pop\n        /* \"#utility.yul\":14758:15204   */\n    tag_296:\n        /* \"#utility.yul\":14668:15211   */\n      pop\n      pop\n      pop\n      jump\t// out\n        /* \"#utility.yul\":15217:15334   */\n    tag_140:\n        /* \"#utility.yul\":15271:15279   */\n      0x00\n        /* \"#utility.yul\":15321:15326   */\n      dup3\n        /* \"#utility.yul\":15315:15319   */\n      dup3\n        /* \"#utility.yul\":15311:15327   */\n      shr\n        /* \"#utility.yul\":15290:15327   */\n      swap1\n      pop\n        /* \"#utility.yul\":15217:15334   */\n      swap3\n      swap2\n      pop\n      pop\n      jump\t// out\n        /* \"#utility.yul\":15340:15509   */\n    tag_141:\n        /* \"#utility.yul\":15384:15390   */\n      0x00\n        /* \"#utility.yul\":15417:15468   */\n      tag_304\n        /* \"#utility.yul\":15465:15466   */\n      0x00\n        /* \"#utility.yul\":15461:15467   */\n      not\n        /* \"#utility.yul\":15453:15458   */\n      dup5\n        /* \"#utility.yul\":15450:15451   */\n      0x08\n        /* \"#utility.yul\":15446:15459   */\n      mul\n        /* \"#utility.yul\":15417:15468   */\n      tag_140\n      jump\t// in\n    tag_304:\n        /* \"#utility.yul\":15413:15469   */\n      not\n        /* \"#utility.yul\":15498:15502   */\n      dup1\n        /* \"#utility.yul\":15492:15496   */\n      dup4\n        /* \"#utility.yul\":15488:15503   */\n      and\n        /* \"#utility.yul\":15478:15503   */\n      swap2\n      pop\n        /* \"#utility.yul\":15391:15509   */\n      pop\n        /* \"#utility.yul\":15340:15509   */\n      swap3\n      swap2\n      pop\n      pop\n      jump\t// out\n        /* \"#utility.yul\":15514:15809   */\n    tag_142:\n        /* \"#utility.yul\":15590:15594   */\n      0x00\n        /* \"#utility.yul\":15736:15765   */\n      tag_306\n        /* \"#utility.yul\":15761:15764   */\n      dup4\n        /* \"#utility.yul\":15755:15759   */\n      dup4\n        /* \"#utility.yul\":15736:15765   */\n      tag_141\n      jump\t// in\n    tag_306:\n        /* \"#utility.yul\":15728:15765   */\n      swap2\n      pop\n        /* \"#utility.yul\":15798:15801   */\n      dup3\n        /* \"#utility.yul\":15795:15796   */\n      0x02\n        /* \"#utility.yul\":15791:15802   */\n      mul\n        /* \"#utility.yul\":15785:15789   */\n      dup3\n        /* \"#utility.yul\":15782:15803   */\n      or\n        /* \"#utility.yul\":15774:15803   */\n      swap1\n      pop\n        /* \"#utility.yul\":15514:15809   */\n      swap3\n      swap2\n      pop\n      pop\n      jump\t// out\n        /* \"#utility.yul\":15814:17209   */\n    tag_87:\n        /* \"#utility.yul\":15931:15968   */\n      tag_308\n        /* \"#utility.yul\":15964:15967   */\n      dup3\n        /* \"#utility.yul\":15931:15968   */\n      tag_98\n      jump\t// in\n    tag_308:\n        /* \"#utility.yul\":16033:16051   */\n      0xffffffffffffffff\n        /* \"#utility.yul\":16025:16031   */\n      dup2\n        /* \"#utility.yul\":16022:16052   */\n      gt\n        /* \"#utility.yul\":16019:16075   */\n      iszero\n      tag_309\n      jumpi\n        /* \"#utility.yul\":16055:16073   */\n      tag_310\n      tag_60\n      jump\t// in\n    tag_310:\n        /* \"#utility.yul\":16019:16075   */\n    tag_309:\n        /* \"#utility.yul\":16099:16137   */\n      tag_311\n        /* \"#utility.yul\":16131:16135   */\n      dup3\n        /* \"#utility.yul\":16125:16136   */\n      sload\n        /* \"#utility.yul\":16099:16137   */\n      tag_45\n      jump\t// in\n    tag_311:\n        /* \"#utility.yul\":16184:16251   */\n      tag_312\n        /* \"#utility.yul\":16244:16250   */\n      dup3\n        /* \"#utility.yul\":16236:16242   */\n      dup3\n        /* \"#utility.yul\":16230:16234   */\n      dup6\n        /* \"#utility.yul\":16184:16251   */\n      tag_139\n      jump\t// in\n    tag_312:\n        /* \"#utility.yul\":16278:16279   */\n      0x00\n        /* \"#utility.yul\":16302:16306   */\n      0x20\n        /* \"#utility.yul\":16289:16306   */\n      swap1\n      pop\n        /* \"#utility.yul\":16334:16336   */\n      0x1f\n        /* \"#utility.yul\":16326:16332   */\n      dup4\n        /* \"#utility.yul\":16323:16337   */\n      gt\n        /* \"#utility.yul\":16351:16352   */\n      0x01\n        /* \"#utility.yul\":16346:16964   */\n      dup2\n      eq\n      tag_314\n      jumpi\n        /* \"#utility.yul\":17008:17009   */\n      0x00\n        /* \"#utility.yul\":17025:17031   */\n      dup5\n        /* \"#utility.yul\":17022:17099   */\n      iszero\n      tag_315\n      jumpi\n        /* \"#utility.yul\":17074:17083   */\n      dup3\n        /* \"#utility.yul\":17069:17072   */\n      dup8\n        /* \"#utility.yul\":17065:17084   */\n      add\n        /* \"#utility.yul\":17059:17085   */\n      mload\n        /* \"#utility.yul\":17050:17085   */\n      swap1\n      pop\n        /* \"#utility.yul\":17022:17099   */\n    tag_315:\n        /* \"#utility.yul\":17125:17192   */\n      tag_316\n        /* \"#utility.yul\":17185:17191   */\n      dup6\n        /* \"#utility.yul\":17178:17183   */\n      dup3\n        /* \"#utility.yul\":17125:17192   */\n      tag_142\n      jump\t// in\n    tag_316:\n        /* \"#utility.yul\":17119:17123   */\n      dup7\n        /* \"#utility.yul\":17112:17193   */\n      sstore\n        /* \"#utility.yul\":16981:17203   */\n      pop\n        /* \"#utility.yul\":16316:17203   */\n      jump(tag_313)\n        /* \"#utility.yul\":16346:16964   */\n    tag_314:\n        /* \"#utility.yul\":16398:16402   */\n      0x1f\n        /* \"#utility.yul\":16394:16403   */\n      not\n        /* \"#utility.yul\":16386:16392   */\n      dup5\n        /* \"#utility.yul\":16382:16404   */\n      and\n        /* \"#utility.yul\":16432:16469   */\n      tag_317\n        /* \"#utility.yul\":16464:16468   */\n      dup7\n        /* \"#utility.yul\":16432:16469   */\n      tag_128\n      jump\t// in\n    tag_317:\n        /* \"#utility.yul\":16491:16492   */\n      0x00\n        /* \"#utility.yul\":16505:16713   */\n    tag_318:\n        /* \"#utility.yul\":16519:16526   */\n      dup3\n        /* \"#utility.yul\":16516:16517   */\n      dup2\n        /* \"#utility.yul\":16513:16527   */\n      lt\n        /* \"#utility.yul\":16505:16713   */\n      iszero\n      tag_320\n      jumpi\n        /* \"#utility.yul\":16598:16607   */\n      dup5\n        /* \"#utility.yul\":16593:16596   */\n      dup10\n        /* \"#utility.yul\":16589:16608   */\n      add\n        /* \"#utility.yul\":16583:16609   */\n      mload\n        /* \"#utility.yul\":16575:16581   */\n      dup3\n        /* \"#utility.yul\":16568:16610   */\n      sstore\n        /* \"#utility.yul\":16649:16650   */\n      0x01\n        /* \"#utility.yul\":16641:16647   */\n      dup3\n        /* \"#utility.yul\":16637:16651   */\n      add\n        /* \"#utility.yul\":16627:16651   */\n      swap2\n      pop\n        /* \"#utility.yul\":16696:16698   */\n      0x20\n        /* \"#utility.yul\":16685:16694   */\n      dup6\n        /* \"#utility.yul\":16681:16699   */\n      add\n        /* \"#utility.yul\":16668:16699   */\n      swap5\n      pop\n        /* \"#utility.yul\":16542:16546   */\n      0x20\n        /* \"#utility.yul\":16539:16540   */\n      dup2\n        /* \"#utility.yul\":16535:16547   */\n      add\n        /* \"#utility.yul\":16530:16547   */\n      swap1\n      pop\n        /* \"#utility.yul\":16505:16713   */\n      jump(tag_318)\n    tag_320:\n        /* \"#utility.yul\":16741:16747   */\n      dup7\n        /* \"#utility.yul\":16732:16739   */\n      dup4\n        /* \"#utility.yul\":16729:16748   */\n      lt\n        /* \"#utility.yul\":16726:16905   */\n      iszero\n      tag_321\n      jumpi\n        /* \"#utility.yul\":16799:16808   */\n      dup5\n        /* \"#utility.yul\":16794:16797   */\n      dup10\n        /* \"#utility.yul\":16790:16809   */\n      add\n        /* \"#utility.yul\":16784:16810   */\n      mload\n        /* \"#utility.yul\":16842:16890   */\n      tag_322\n        /* \"#utility.yul\":16884:16888   */\n      0x1f\n        /* \"#utility.yul\":16876:16882   */\n      dup10\n        /* \"#utility.yul\":16872:16889   */\n      and\n        /* \"#utility.yul\":16861:16870   */\n      dup3\n        /* \"#utility.yul\":16842:16890   */\n      tag_141\n      jump\t// in\n    tag_322:\n        /* \"#utility.yul\":16834:16840   */\n      dup4\n        /* \"#utility.yul\":16827:16891   */\n      sstore\n        /* \"#utility.yul\":16749:16905   */\n      pop\n        /* \"#utility.yul\":16726:16905   */\n    tag_321:\n        /* \"#utility.yul\":16951:16952   */\n      0x01\n        /* \"#utility.yul\":16947:16948   */\n      0x02\n        /* \"#utility.yul\":16939:16945   */\n      dup9\n        /* \"#utility.yul\":16935:16949   */\n      mul\n        /* \"#utility.yul\":16931:16953   */\n      add\n        /* \"#utility.yul\":16925:16929   */\n      dup9\n        /* \"#utility.yul\":16918:16954   */\n      sstore\n        /* \"#utility.yul\":16353:16964   */\n      pop\n      pop\n      pop\n        /* \"#utility.yul\":16316:17203   */\n    tag_313:\n      pop\n        /* \"#utility.yul\":15906:17209   */\n      pop\n      pop\n      pop\n        /* \"#utility.yul\":15814:17209   */\n      pop\n      pop\n      jump\t// out\n\n    auxdata: 0xa26469706673582212203aef16d2b78f9153f85a876c00571be6b555cc7a37d8d82b44434c3fcd7843e264736f6c63430008120033\n}\n",
				"bytecode": {
					"linkReferences": {},
					"object": "608060405234801561001057600080fd5b5033600260006101000a81548173ffffffffffffffffffffffffffffffffffffffff021916908373ffffffffffffffffffffffffffffffffffffffff16021790555061105b806100616000396000f3fe608060405234801561001057600080fd5b506004361061007d5760003560e01c80638da5cb5b1161005b5780638da5cb5b14610101578063a6c807a91461011f578063e9e3092714610150578063f041f73f1461016e5761007d565b806328bcb51a146100825780636b7b44d7146100a05780637df221e9146100d1575b600080fd5b61008a61018a565b604051610097919061071a565b60405180910390f35b6100ba60048036038101906100b591906107a7565b610197565b6040516100c8929190610864565b60405180910390f35b6100eb60048036038101906100e691906108c0565b610297565b6040516100f891906108fc565b60405180910390f35b6101096102d6565b60405161011691906108fc565b60405180910390f35b610139600480360381019061013491906107a7565b6102fc565b604051610147929190610864565b60405180910390f35b6101586103a8565b6040516101659190610a6f565b60405180910390f35b61018860048036038101906101839190610bc6565b610579565b005b6000600180549050905090565b60606000806000808573ffffffffffffffffffffffffffffffffffffffff1673ffffffffffffffffffffffffffffffffffffffff1681526020019081526020016000206040518060400160405290816000820180546101f590610c64565b80601f016020809104026020016040519081016040528092919081815260200182805461022190610c64565b801561026e5780601f106102435761010080835404028352916020019161026e565b820191906000526020600020905b81548152906001019060200180831161025157829003601f168201915b505050505081526020016001820154815250509050806000015181602001519250925050915091565b600181815481106102a757600080fd5b906000526020600020016000915054906101000a900473ffffffffffffffffffffffffffffffffffffffff1681565b600260009054906101000a900473ffffffffffffffffffffffffffffffffffffffff1681565b600060205280600052604060002060009150905080600001805461031f90610c64565b80601f016020809104026020016040519081016040528092919081815260200182805461034b90610c64565b80156103985780601f1061036d57610100808354040283529160200191610398565b820191906000526020600020905b81548152906001019060200180831161037b57829003601f168201915b5050505050908060010154905082565b6060600060018054905067ffffffffffffffff8111156103cb576103ca610a9b565b5b60405190808252806020026020018201604052801561040457816020015b6103f16106e7565b8152602001906001900390816103e95790505b50905060005b6001805490508110156105715760006001828154811061042d5761042c610c95565b5b9060005260206000200160009054906101000a900473ffffffffffffffffffffffffffffffffffffffff1690506000808273ffffffffffffffffffffffffffffffffffffffff1673ffffffffffffffffffffffffffffffffffffffff1681526020019081526020016000206040518060400160405290816000820180546104b390610c64565b80601f01602080910402602001604051908101604052809291908181526020018280546104df90610c64565b801561052c5780601f106105015761010080835404028352916020019161052c565b820191906000526020600020905b81548152906001019060200180831161050f57829003601f168201915b5050505050815260200160018201548152505083838151811061055257610551610c95565b5b602002602001018190525050808061056990610cf3565b91505061040a565b508091505090565b600260009054906101000a900473ffffffffffffffffffffffffffffffffffffffff1673ffffffffffffffffffffffffffffffffffffffff163373ffffffffffffffffffffffffffffffffffffffff1614610609576040517f08c379a000000000000000000000000000000000000000000000000000000000815260040161060090610d87565b60405180910390fd5b6040518060400160405280838152602001828152506000808573ffffffffffffffffffffffffffffffffffffffff1673ffffffffffffffffffffffffffffffffffffffff16815260200190815260200160002060008201518160000190816106719190610f53565b50602082015181600101559050506001839080600181540180825580915050600190039060005260206000200160009091909190916101000a81548173ffffffffffffffffffffffffffffffffffffffff021916908373ffffffffffffffffffffffffffffffffffffffff160217905550505050565b604051806040016040528060608152602001600081525090565b6000819050919050565b61071481610701565b82525050565b600060208201905061072f600083018461070b565b92915050565b6000604051905090565b600080fd5b600080fd5b600073ffffffffffffffffffffffffffffffffffffffff82169050919050565b600061077482610749565b9050919050565b61078481610769565b811461078f57600080fd5b50565b6000813590506107a18161077b565b92915050565b6000602082840312156107bd576107bc61073f565b5b60006107cb84828501610792565b91505092915050565b600081519050919050565b600082825260208201905092915050565b60005b8381101561080e5780820151818401526020810190506107f3565b60008484015250505050565b6000601f19601f8301169050919050565b6000610836826107d4565b61084081856107df565b93506108508185602086016107f0565b6108598161081a565b840191505092915050565b6000604082019050818103600083015261087e818561082b565b905061088d602083018461070b565b9392505050565b61089d81610701565b81146108a857600080fd5b50565b6000813590506108ba81610894565b92915050565b6000602082840312156108d6576108d561073f565b5b60006108e4848285016108ab565b91505092915050565b6108f681610769565b82525050565b600060208201905061091160008301846108ed565b92915050565b600081519050919050565b600082825260208201905092915050565b6000819050602082019050919050565b600082825260208201905092915050565b600061095f826107d4565b6109698185610943565b93506109798185602086016107f0565b6109828161081a565b840191505092915050565b61099681610701565b82525050565b600060408301600083015184820360008601526109b98282610954565b91505060208301516109ce602086018261098d565b508091505092915050565b60006109e5838361099c565b905092915050565b6000602082019050919050565b6000610a0582610917565b610a0f8185610922565b935083602082028501610a2185610933565b8060005b85811015610a5d5784840389528151610a3e85826109d9565b9450610a49836109ed565b925060208a01995050600181019050610a25565b50829750879550505050505092915050565b60006020820190508181036000830152610a8981846109fa565b905092915050565b600080fd5b600080fd5b7f4e487b7100000000000000000000000000000000000000000000000000000000600052604160045260246000fd5b610ad38261081a565b810181811067ffffffffffffffff82111715610af257610af1610a9b565b5b80604052505050565b6000610b05610735565b9050610b118282610aca565b919050565b600067ffffffffffffffff821115610b3157610b30610a9b565b5b610b3a8261081a565b9050602081019050919050565b82818337600083830152505050565b6000610b69610b6484610b16565b610afb565b905082815260208101848484011115610b8557610b84610a96565b5b610b90848285610b47565b509392505050565b600082601f830112610bad57610bac610a91565b5b8135610bbd848260208601610b56565b91505092915050565b600080600060608486031215610bdf57610bde61073f565b5b6000610bed86828701610792565b935050602084013567ffffffffffffffff811115610c0e57610c0d610744565b5b610c1a86828701610b98565b9250506040610c2b868287016108ab565b9150509250925092565b7f4e487b7100000000000000000000000000000000000000000000000000000000600052602260045260246000fd5b60006002820490506001821680610c7c57607f821691505b602082108103610c8f57610c8e610c35565b5b50919050565b7f4e487b7100000000000000000000000000000000000000000000000000000000600052603260045260246000fd5b7f4e487b7100000000000000000000000000000000000000000000000000000000600052601160045260246000fd5b6000610cfe82610701565b91507fffffffffffffffffffffffffffffffffffffffffffffffffffffffffffffffff8203610d3057610d2f610cc4565b5b600182019050919050565b7f4e6f7420746865206f776e657200000000000000000000000000000000000000600082015250565b6000610d71600d836107df565b9150610d7c82610d3b565b602082019050919050565b60006020820190508181036000830152610da081610d64565b9050919050565b60008190508160005260206000209050919050565b60006020601f8301049050919050565b600082821b905092915050565b600060088302610e097fffffffffffffffffffffffffffffffffffffffffffffffffffffffffffffffff82610dcc565b610e138683610dcc565b95508019841693508086168417925050509392505050565b6000819050919050565b6000610e50610e4b610e4684610701565b610e2b565b610701565b9050919050565b6000819050919050565b610e6a83610e35565b610e7e610e7682610e57565b848454610dd9565b825550505050565b600090565b610e93610e86565b610e9e818484610e61565b505050565b5b81811015610ec257610eb7600082610e8b565b600181019050610ea4565b5050565b601f821115610f0757610ed881610da7565b610ee184610dbc565b81016020851015610ef0578190505b610f04610efc85610dbc565b830182610ea3565b50505b505050565b600082821c905092915050565b6000610f2a60001984600802610f0c565b1980831691505092915050565b6000610f438383610f19565b9150826002028217905092915050565b610f5c826107d4565b67ffffffffffffffff811115610f7557610f74610a9b565b5b610f7f8254610c64565b610f8a828285610ec6565b600060209050601f831160018114610fbd5760008415610fab578287015190505b610fb58582610f37565b86555061101d565b601f198416610fcb86610da7565b60005b82811015610ff357848901518255600182019150602085019450602081019050610fce565b86831015611010578489015161100c601f891682610f19565b8355505b6001600288020188555050505b50505050505056fea26469706673582212203aef16d2b78f9153f85a876c00571be6b555cc7a37d8d82b44434c3fcd7843e264736f6c63430008120033",
					"opcodes": "PUSH1 0x80 PUSH1 0x40 MSTORE CALLVALUE DUP1 ISZERO PUSH2 0x10 JUMPI PUSH1 0x0 DUP1 REVERT JUMPDEST POP CALLER PUSH1 0x2 PUSH1 0x0 PUSH2 0x100 EXP DUP2 SLOAD DUP2 PUSH20 0xFFFFFFFFFFFFFFFFFFFFFFFFFFFFFFFFFFFFFFFF MUL NOT AND SWAP1 DUP4 PUSH20 0xFFFFFFFFFFFFFFFFFFFFFFFFFFFFFFFFFFFFFFFF AND MUL OR SWAP1 SSTORE POP PUSH2 0x105B DUP1 PUSH2 0x61 PUSH1 0x0 CODECOPY PUSH1 0x0 RETURN INVALID PUSH1 0x80 PUSH1 0x40 MSTORE CALLVALUE DUP1 ISZERO PUSH2 0x10 JUMPI PUSH1 0x0 DUP1 REVERT JUMPDEST POP PUSH1 0x4 CALLDATASIZE LT PUSH2 0x7D JUMPI PUSH1 0x0 CALLDATALOAD PUSH1 0xE0 SHR DUP1 PUSH4 0x8DA5CB5B GT PUSH2 0x5B JUMPI DUP1 PUSH4 0x8DA5CB5B EQ PUSH2 0x101 JUMPI DUP1 PUSH4 0xA6C807A9 EQ PUSH2 0x11F JUMPI DUP1 PUSH4 0xE9E30927 EQ PUSH2 0x150 JUMPI DUP1 PUSH4 0xF041F73F EQ PUSH2 0x16E JUMPI PUSH2 0x7D JUMP JUMPDEST DUP1 PUSH4 0x28BCB51A EQ PUSH2 0x82 JUMPI DUP1 PUSH4 0x6B7B44D7 EQ PUSH2 0xA0 JUMPI DUP1 PUSH4 0x7DF221E9 EQ PUSH2 0xD1 JUMPI JUMPDEST PUSH1 0x0 DUP1 REVERT JUMPDEST PUSH2 0x8A PUSH2 0x18A JUMP JUMPDEST PUSH1 0x40 MLOAD PUSH2 0x97 SWAP2 SWAP1 PUSH2 0x71A JUMP JUMPDEST PUSH1 0x40 MLOAD DUP1 SWAP2 SUB SWAP1 RETURN JUMPDEST PUSH2 0xBA PUSH1 0x4 DUP1 CALLDATASIZE SUB DUP2 ADD SWAP1 PUSH2 0xB5 SWAP2 SWAP1 PUSH2 0x7A7 JUMP JUMPDEST PUSH2 0x197 JUMP JUMPDEST PUSH1 0x40 MLOAD PUSH2 0xC8 SWAP3 SWAP2 SWAP1 PUSH2 0x864 JUMP JUMPDEST PUSH1 0x40 MLOAD DUP1 SWAP2 SUB SWAP1 RETURN JUMPDEST PUSH2 0xEB PUSH1 0x4 DUP1 CALLDATASIZE SUB DUP2 ADD SWAP1 PUSH2 0xE6 SWAP2 SWAP1 PUSH2 0x8C0 JUMP JUMPDEST PUSH2 0x297 JUMP JUMPDEST PUSH1 0x40 MLOAD PUSH2 0xF8 SWAP2 SWAP1 PUSH2 0x8FC JUMP JUMPDEST PUSH1 0x40 MLOAD DUP1 SWAP2 SUB SWAP1 RETURN JUMPDEST PUSH2 0x109 PUSH2 0x2D6 JUMP JUMPDEST PUSH1 0x40 MLOAD PUSH2 0x116 SWAP2 SWAP1 PUSH2 0x8FC JUMP JUMPDEST PUSH1 0x40 MLOAD DUP1 SWAP2 SUB SWAP1 RETURN JUMPDEST PUSH2 0x139 PUSH1 0x4 DUP1 CALLDATASIZE SUB DUP2 ADD SWAP1 PUSH2 0x134 SWAP2 SWAP1 PUSH2 0x7A7 JUMP JUMPDEST PUSH2 0x2FC JUMP JUMPDEST PUSH1 0x40 MLOAD PUSH2 0x147 SWAP3 SWAP2 SWAP1 PUSH2 0x864 JUMP JUMPDEST PUSH1 0x40 MLOAD DUP1 SWAP2 SUB SWAP1 RETURN JUMPDEST PUSH2 0x158 PUSH2 0x3A8 JUMP JUMPDEST PUSH1 0x40 MLOAD PUSH2 0x165 SWAP2 SWAP1 PUSH2 0xA6F JUMP JUMPDEST PUSH1 0x40 MLOAD DUP1 SWAP2 SUB SWAP1 RETURN JUMPDEST PUSH2 0x188 PUSH1 0x4 DUP1 CALLDATASIZE SUB DUP2 ADD SWAP1 PUSH2 0x183 SWAP2 SWAP1 PUSH2 0xBC6 JUMP JUMPDEST PUSH2 0x579 JUMP JUMPDEST STOP JUMPDEST PUSH1 0x0 PUSH1 0x1 DUP1 SLOAD SWAP1 POP SWAP1 POP SWAP1 JUMP JUMPDEST PUSH1 0x60 PUSH1 0x0 DUP1 PUSH1 0x0 DUP1 DUP6 PUSH20 0xFFFFFFFFFFFFFFFFFFFFFFFFFFFFFFFFFFFFFFFF AND PUSH20 0xFFFFFFFFFFFFFFFFFFFFFFFFFFFFFFFFFFFFFFFF AND DUP2 MSTORE PUSH1 0x20 ADD SWAP1 DUP2 MSTORE PUSH1 0x20 ADD PUSH1 0x0 KECCAK256 PUSH1 0x40 MLOAD DUP1 PUSH1 0x40 ADD PUSH1 0x40 MSTORE SWAP1 DUP2 PUSH1 0x0 DUP3 ADD DUP1 SLOAD PUSH2 0x1F5 SWAP1 PUSH2 0xC64 JUMP JUMPDEST DUP1 PUSH1 0x1F ADD PUSH1 0x20 DUP1 SWAP2 DIV MUL PUSH1 0x20 ADD PUSH1 0x40 MLOAD SWAP1 DUP2 ADD PUSH1 0x40 MSTORE DUP1 SWAP3 SWAP2 SWAP1 DUP2 DUP2 MSTORE PUSH1 0x20 ADD DUP3 DUP1 SLOAD PUSH2 0x221 SWAP1 PUSH2 0xC64 JUMP JUMPDEST DUP1 ISZERO PUSH2 0x26E JUMPI DUP1 PUSH1 0x1F LT PUSH2 0x243 JUMPI PUSH2 0x100 DUP1 DUP4 SLOAD DIV MUL DUP4 MSTORE SWAP2 PUSH1 0x20 ADD SWAP2 PUSH2 0x26E JUMP JUMPDEST DUP3 ADD SWAP2 SWAP1 PUSH1 0x0 MSTORE PUSH1 0x20 PUSH1 0x0 KECCAK256 SWAP1 JUMPDEST DUP2 SLOAD DUP2 MSTORE SWAP1 PUSH1 0x1 ADD SWAP1 PUSH1 0x20 ADD DUP1 DUP4 GT PUSH2 0x251 JUMPI DUP3 SWAP1 SUB PUSH1 0x1F AND DUP3 ADD SWAP2 JUMPDEST POP POP POP POP POP DUP2 MSTORE PUSH1 0x20 ADD PUSH1 0x1 DUP3 ADD SLOAD DUP2 MSTORE POP POP SWAP1 POP DUP1 PUSH1 0x0 ADD MLOAD DUP2 PUSH1 0x20 ADD MLOAD SWAP3 POP SWAP3 POP POP SWAP2 POP SWAP2 JUMP JUMPDEST PUSH1 0x1 DUP2 DUP2 SLOAD DUP2 LT PUSH2 0x2A7 JUMPI PUSH1 0x0 DUP1 REVERT JUMPDEST SWAP1 PUSH1 0x0 MSTORE PUSH1 0x20 PUSH1 0x0 KECCAK256 ADD PUSH1 0x0 SWAP2 POP SLOAD SWAP1 PUSH2 0x100 EXP SWAP1 DIV PUSH20 0xFFFFFFFFFFFFFFFFFFFFFFFFFFFFFFFFFFFFFFFF AND DUP2 JUMP JUMPDEST PUSH1 0x2 PUSH1 0x0 SWAP1 SLOAD SWAP1 PUSH2 0x100 EXP SWAP1 DIV PUSH20 0xFFFFFFFFFFFFFFFFFFFFFFFFFFFFFFFFFFFFFFFF AND DUP2 JUMP JUMPDEST PUSH1 0x0 PUSH1 0x20 MSTORE DUP1 PUSH1 0x0 MSTORE PUSH1 0x40 PUSH1 0x0 KECCAK256 PUSH1 0x0 SWAP2 POP SWAP1 POP DUP1 PUSH1 0x0 ADD DUP1 SLOAD PUSH2 0x31F SWAP1 PUSH2 0xC64 JUMP JUMPDEST DUP1 PUSH1 0x1F ADD PUSH1 0x20 DUP1 SWAP2 DIV MUL PUSH1 0x20 ADD PUSH1 0x40 MLOAD SWAP1 DUP2 ADD PUSH1 0x40 MSTORE DUP1 SWAP3 SWAP2 SWAP1 DUP2 DUP2 MSTORE PUSH1 0x20 ADD DUP3 DUP1 SLOAD PUSH2 0x34B SWAP1 PUSH2 0xC64 JUMP JUMPDEST DUP1 ISZERO PUSH2 0x398 JUMPI DUP1 PUSH1 0x1F LT PUSH2 0x36D JUMPI PUSH2 0x100 DUP1 DUP4 SLOAD DIV MUL DUP4 MSTORE SWAP2 PUSH1 0x20 ADD SWAP2 PUSH2 0x398 JUMP JUMPDEST DUP3 ADD SWAP2 SWAP1 PUSH1 0x0 MSTORE PUSH1 0x20 PUSH1 0x0 KECCAK256 SWAP1 JUMPDEST DUP2 SLOAD DUP2 MSTORE SWAP1 PUSH1 0x1 ADD SWAP1 PUSH1 0x20 ADD DUP1 DUP4 GT PUSH2 0x37B JUMPI DUP3 SWAP1 SUB PUSH1 0x1F AND DUP3 ADD SWAP2 JUMPDEST POP POP POP POP POP SWAP1 DUP1 PUSH1 0x1 ADD SLOAD SWAP1 POP DUP3 JUMP JUMPDEST PUSH1 0x60 PUSH1 0x0 PUSH1 0x1 DUP1 SLOAD SWAP1 POP PUSH8 0xFFFFFFFFFFFFFFFF DUP2 GT ISZERO PUSH2 0x3CB JUMPI PUSH2 0x3CA PUSH2 0xA9B JUMP JUMPDEST JUMPDEST PUSH1 0x40 MLOAD SWAP1 DUP1 DUP3 MSTORE DUP1 PUSH1 0x20 MUL PUSH1 0x20 ADD DUP3 ADD PUSH1 0x40 MSTORE DUP1 ISZERO PUSH2 0x404 JUMPI DUP2 PUSH1 0x20 ADD JUMPDEST PUSH2 0x3F1 PUSH2 0x6E7 JUMP JUMPDEST DUP2 MSTORE PUSH1 0x20 ADD SWAP1 PUSH1 0x1 SWAP1 SUB SWAP1 DUP2 PUSH2 0x3E9 JUMPI SWAP1 POP JUMPDEST POP SWAP1 POP PUSH1 0x0 JUMPDEST PUSH1 0x1 DUP1 SLOAD SWAP1 POP DUP2 LT ISZERO PUSH2 0x571 JUMPI PUSH1 0x0 PUSH1 0x1 DUP3 DUP2 SLOAD DUP2 LT PUSH2 0x42D JUMPI PUSH2 0x42C PUSH2 0xC95 JUMP JUMPDEST JUMPDEST SWAP1 PUSH1 0x0 MSTORE PUSH1 0x20 PUSH1 0x0 KECCAK256 ADD PUSH1 0x0 SWAP1 SLOAD SWAP1 PUSH2 0x100 EXP SWAP1 DIV PUSH20 0xFFFFFFFFFFFFFFFFFFFFFFFFFFFFFFFFFFFFFFFF AND SWAP1 POP PUSH1 0x0 DUP1 DUP3 PUSH20 0xFFFFFFFFFFFFFFFFFFFFFFFFFFFFFFFFFFFFFFFF AND PUSH20 0xFFFFFFFFFFFFFFFFFFFFFFFFFFFFFFFFFFFFFFFF AND DUP2 MSTORE PUSH1 0x20 ADD SWAP1 DUP2 MSTORE PUSH1 0x20 ADD PUSH1 0x0 KECCAK256 PUSH1 0x40 MLOAD DUP1 PUSH1 0x40 ADD PUSH1 0x40 MSTORE SWAP1 DUP2 PUSH1 0x0 DUP3 ADD DUP1 SLOAD PUSH2 0x4B3 SWAP1 PUSH2 0xC64 JUMP JUMPDEST DUP1 PUSH1 0x1F ADD PUSH1 0x20 DUP1 SWAP2 DIV MUL PUSH1 0x20 ADD PUSH1 0x40 MLOAD SWAP1 DUP2 ADD PUSH1 0x40 MSTORE DUP1 SWAP3 SWAP2 SWAP1 DUP2 DUP2 MSTORE PUSH1 0x20 ADD DUP3 DUP1 SLOAD PUSH2 0x4DF SWAP1 PUSH2 0xC64 JUMP JUMPDEST DUP1 ISZERO PUSH2 0x52C JUMPI DUP1 PUSH1 0x1F LT PUSH2 0x501 JUMPI PUSH2 0x100 DUP1 DUP4 SLOAD DIV MUL DUP4 MSTORE SWAP2 PUSH1 0x20 ADD SWAP2 PUSH2 0x52C JUMP JUMPDEST DUP3 ADD SWAP2 SWAP1 PUSH1 0x0 MSTORE PUSH1 0x20 PUSH1 0x0 KECCAK256 SWAP1 JUMPDEST DUP2 SLOAD DUP2 MSTORE SWAP1 PUSH1 0x1 ADD SWAP1 PUSH1 0x20 ADD DUP1 DUP4 GT PUSH2 0x50F JUMPI DUP3 SWAP1 SUB PUSH1 0x1F AND DUP3 ADD SWAP2 JUMPDEST POP POP POP POP POP DUP2 MSTORE PUSH1 0x20 ADD PUSH1 0x1 DUP3 ADD SLOAD DUP2 MSTORE POP POP DUP4 DUP4 DUP2 MLOAD DUP2 LT PUSH2 0x552 JUMPI PUSH2 0x551 PUSH2 0xC95 JUMP JUMPDEST JUMPDEST PUSH1 0x20 MUL PUSH1 0x20 ADD ADD DUP2 SWAP1 MSTORE POP POP DUP1 DUP1 PUSH2 0x569 SWAP1 PUSH2 0xCF3 JUMP JUMPDEST SWAP2 POP POP PUSH2 0x40A JUMP JUMPDEST POP DUP1 SWAP2 POP POP SWAP1 JUMP JUMPDEST PUSH1 0x2 PUSH1 0x0 SWAP1 SLOAD SWAP1 PUSH2 0x100 EXP SWAP1 DIV PUSH20 0xFFFFFFFFFFFFFFFFFFFFFFFFFFFFFFFFFFFFFFFF AND PUSH20 0xFFFFFFFFFFFFFFFFFFFFFFFFFFFFFFFFFFFFFFFF AND CALLER PUSH20 0xFFFFFFFFFFFFFFFFFFFFFFFFFFFFFFFFFFFFFFFF AND EQ PUSH2 0x609 JUMPI PUSH1 0x40 MLOAD PUSH32 0x8C379A000000000000000000000000000000000000000000000000000000000 DUP2 MSTORE PUSH1 0x4 ADD PUSH2 0x600 SWAP1 PUSH2 0xD87 JUMP JUMPDEST PUSH1 0x40 MLOAD DUP1 SWAP2 SUB SWAP1 REVERT JUMPDEST PUSH1 0x40 MLOAD DUP1 PUSH1 0x40 ADD PUSH1 0x40 MSTORE DUP1 DUP4 DUP2 MSTORE PUSH1 0x20 ADD DUP3 DUP2 MSTORE POP PUSH1 0x0 DUP1 DUP6 PUSH20 0xFFFFFFFFFFFFFFFFFFFFFFFFFFFFFFFFFFFFFFFF AND PUSH20 0xFFFFFFFFFFFFFFFFFFFFFFFFFFFFFFFFFFFFFFFF AND DUP2 MSTORE PUSH1 0x20 ADD SWAP1 DUP2 MSTORE PUSH1 0x20 ADD PUSH1 0x0 KECCAK256 PUSH1 0x0 DUP3 ADD MLOAD DUP2 PUSH1 0x0 ADD SWAP1 DUP2 PUSH2 0x671 SWAP2 SWAP1 PUSH2 0xF53 JUMP JUMPDEST POP PUSH1 0x20 DUP3 ADD MLOAD DUP2 PUSH1 0x1 ADD SSTORE SWAP1 POP POP PUSH1 0x1 DUP4 SWAP1 DUP1 PUSH1 0x1 DUP2 SLOAD ADD DUP1 DUP3 SSTORE DUP1 SWAP2 POP POP PUSH1 0x1 SWAP1 SUB SWAP1 PUSH1 0x0 MSTORE PUSH1 0x20 PUSH1 0x0 KECCAK256 ADD PUSH1 0x0 SWAP1 SWAP2 SWAP1 SWAP2 SWAP1 SWAP2 PUSH2 0x100 EXP DUP2 SLOAD DUP2 PUSH20 0xFFFFFFFFFFFFFFFFFFFFFFFFFFFFFFFFFFFFFFFF MUL NOT AND SWAP1 DUP4 PUSH20 0xFFFFFFFFFFFFFFFFFFFFFFFFFFFFFFFFFFFFFFFF AND MUL OR SWAP1 SSTORE POP POP POP POP JUMP JUMPDEST PUSH1 0x40 MLOAD DUP1 PUSH1 0x40 ADD PUSH1 0x40 MSTORE DUP1 PUSH1 0x60 DUP2 MSTORE PUSH1 0x20 ADD PUSH1 0x0 DUP2 MSTORE POP SWAP1 JUMP JUMPDEST PUSH1 0x0 DUP2 SWAP1 POP SWAP2 SWAP1 POP JUMP JUMPDEST PUSH2 0x714 DUP2 PUSH2 0x701 JUMP JUMPDEST DUP3 MSTORE POP POP JUMP JUMPDEST PUSH1 0x0 PUSH1 0x20 DUP3 ADD SWAP1 POP PUSH2 0x72F PUSH1 0x0 DUP4 ADD DUP5 PUSH2 0x70B JUMP JUMPDEST SWAP3 SWAP2 POP POP JUMP JUMPDEST PUSH1 0x0 PUSH1 0x40 MLOAD SWAP1 POP SWAP1 JUMP JUMPDEST PUSH1 0x0 DUP1 REVERT JUMPDEST PUSH1 0x0 DUP1 REVERT JUMPDEST PUSH1 0x0 PUSH20 0xFFFFFFFFFFFFFFFFFFFFFFFFFFFFFFFFFFFFFFFF DUP3 AND SWAP1 POP SWAP2 SWAP1 POP JUMP JUMPDEST PUSH1 0x0 PUSH2 0x774 DUP3 PUSH2 0x749 JUMP JUMPDEST SWAP1 POP SWAP2 SWAP1 POP JUMP JUMPDEST PUSH2 0x784 DUP2 PUSH2 0x769 JUMP JUMPDEST DUP2 EQ PUSH2 0x78F JUMPI PUSH1 0x0 DUP1 REVERT JUMPDEST POP JUMP JUMPDEST PUSH1 0x0 DUP2 CALLDATALOAD SWAP1 POP PUSH2 0x7A1 DUP2 PUSH2 0x77B JUMP JUMPDEST SWAP3 SWAP2 POP POP JUMP JUMPDEST PUSH1 0x0 PUSH1 0x20 DUP3 DUP5 SUB SLT ISZERO PUSH2 0x7BD JUMPI PUSH2 0x7BC PUSH2 0x73F JUMP JUMPDEST JUMPDEST PUSH1 0x0 PUSH2 0x7CB DUP5 DUP3 DUP6 ADD PUSH2 0x792 JUMP JUMPDEST SWAP2 POP POP SWAP3 SWAP2 POP POP JUMP JUMPDEST PUSH1 0x0 DUP2 MLOAD SWAP1 POP SWAP2 SWAP1 POP JUMP JUMPDEST PUSH1 0x0 DUP3 DUP3 MSTORE PUSH1 0x20 DUP3 ADD SWAP1 POP SWAP3 SWAP2 POP POP JUMP JUMPDEST PUSH1 0x0 JUMPDEST DUP4 DUP2 LT ISZERO PUSH2 0x80E JUMPI DUP1 DUP3 ADD MLOAD DUP2 DUP5 ADD MSTORE PUSH1 0x20 DUP2 ADD SWAP1 POP PUSH2 0x7F3 JUMP JUMPDEST PUSH1 0x0 DUP5 DUP5 ADD MSTORE POP POP POP POP JUMP JUMPDEST PUSH1 0x0 PUSH1 0x1F NOT PUSH1 0x1F DUP4 ADD AND SWAP1 POP SWAP2 SWAP1 POP JUMP JUMPDEST PUSH1 0x0 PUSH2 0x836 DUP3 PUSH2 0x7D4 JUMP JUMPDEST PUSH2 0x840 DUP2 DUP6 PUSH2 0x7DF JUMP JUMPDEST SWAP4 POP PUSH2 0x850 DUP2 DUP6 PUSH1 0x20 DUP7 ADD PUSH2 0x7F0 JUMP JUMPDEST PUSH2 0x859 DUP2 PUSH2 0x81A JUMP JUMPDEST DUP5 ADD SWAP2 POP POP SWAP3 SWAP2 POP POP JUMP JUMPDEST PUSH1 0x0 PUSH1 0x40 DUP3 ADD SWAP1 POP DUP2 DUP2 SUB PUSH1 0x0 DUP4 ADD MSTORE PUSH2 0x87E DUP2 DUP6 PUSH2 0x82B JUMP JUMPDEST SWAP1 POP PUSH2 0x88D PUSH1 0x20 DUP4 ADD DUP5 PUSH2 0x70B JUMP JUMPDEST SWAP4 SWAP3 POP POP POP JUMP JUMPDEST PUSH2 0x89D DUP2 PUSH2 0x701 JUMP JUMPDEST DUP2 EQ PUSH2 0x8A8 JUMPI PUSH1 0x0 DUP1 REVERT JUMPDEST POP JUMP JUMPDEST PUSH1 0x0 DUP2 CALLDATALOAD SWAP1 POP PUSH2 0x8BA DUP2 PUSH2 0x894 JUMP JUMPDEST SWAP3 SWAP2 POP POP JUMP JUMPDEST PUSH1 0x0 PUSH1 0x20 DUP3 DUP5 SUB SLT ISZERO PUSH2 0x8D6 JUMPI PUSH2 0x8D5 PUSH2 0x73F JUMP JUMPDEST JUMPDEST PUSH1 0x0 PUSH2 0x8E4 DUP5 DUP3 DUP6 ADD PUSH2 0x8AB JUMP JUMPDEST SWAP2 POP POP SWAP3 SWAP2 POP POP JUMP JUMPDEST PUSH2 0x8F6 DUP2 PUSH2 0x769 JUMP JUMPDEST DUP3 MSTORE POP POP JUMP JUMPDEST PUSH1 0x0 PUSH1 0x20 DUP3 ADD SWAP1 POP PUSH2 0x911 PUSH1 0x0 DUP4 ADD DUP5 PUSH2 0x8ED JUMP JUMPDEST SWAP3 SWAP2 POP POP JUMP JUMPDEST PUSH1 0x0 DUP2 MLOAD SWAP1 POP SWAP2 SWAP1 POP JUMP JUMPDEST PUSH1 0x0 DUP3 DUP3 MSTORE PUSH1 0x20 DUP3 ADD SWAP1 POP SWAP3 SWAP2 POP POP JUMP JUMPDEST PUSH1 0x0 DUP2 SWAP1 POP PUSH1 0x20 DUP3 ADD SWAP1 POP SWAP2 SWAP1 POP JUMP JUMPDEST PUSH1 0x0 DUP3 DUP3 MSTORE PUSH1 0x20 DUP3 ADD SWAP1 POP SWAP3 SWAP2 POP POP JUMP JUMPDEST PUSH1 0x0 PUSH2 0x95F DUP3 PUSH2 0x7D4 JUMP JUMPDEST PUSH2 0x969 DUP2 DUP6 PUSH2 0x943 JUMP JUMPDEST SWAP4 POP PUSH2 0x979 DUP2 DUP6 PUSH1 0x20 DUP7 ADD PUSH2 0x7F0 JUMP JUMPDEST PUSH2 0x982 DUP2 PUSH2 0x81A JUMP JUMPDEST DUP5 ADD SWAP2 POP POP SWAP3 SWAP2 POP POP JUMP JUMPDEST PUSH2 0x996 DUP2 PUSH2 0x701 JUMP JUMPDEST DUP3 MSTORE POP POP JUMP JUMPDEST PUSH1 0x0 PUSH1 0x40 DUP4 ADD PUSH1 0x0 DUP4 ADD MLOAD DUP5 DUP3 SUB PUSH1 0x0 DUP7 ADD MSTORE PUSH2 0x9B9 DUP3 DUP3 PUSH2 0x954 JUMP JUMPDEST SWAP2 POP POP PUSH1 0x20 DUP4 ADD MLOAD PUSH2 0x9CE PUSH1 0x20 DUP7 ADD DUP3 PUSH2 0x98D JUMP JUMPDEST POP DUP1 SWAP2 POP POP SWAP3 SWAP2 POP POP JUMP JUMPDEST PUSH1 0x0 PUSH2 0x9E5 DUP4 DUP4 PUSH2 0x99C JUMP JUMPDEST SWAP1 POP SWAP3 SWAP2 POP POP JUMP JUMPDEST PUSH1 0x0 PUSH1 0x20 DUP3 ADD SWAP1 POP SWAP2 SWAP1 POP JUMP JUMPDEST PUSH1 0x0 PUSH2 0xA05 DUP3 PUSH2 0x917 JUMP JUMPDEST PUSH2 0xA0F DUP2 DUP6 PUSH2 0x922 JUMP JUMPDEST SWAP4 POP DUP4 PUSH1 0x20 DUP3 MUL DUP6 ADD PUSH2 0xA21 DUP6 PUSH2 0x933 JUMP JUMPDEST DUP1 PUSH1 0x0 JUMPDEST DUP6 DUP2 LT ISZERO PUSH2 0xA5D JUMPI DUP5 DUP5 SUB DUP10 MSTORE DUP2 MLOAD PUSH2 0xA3E DUP6 DUP3 PUSH2 0x9D9 JUMP JUMPDEST SWAP5 POP PUSH2 0xA49 DUP4 PUSH2 0x9ED JUMP JUMPDEST SWAP3 POP PUSH1 0x20 DUP11 ADD SWAP10 POP POP PUSH1 0x1 DUP2 ADD SWAP1 POP PUSH2 0xA25 JUMP JUMPDEST POP DUP3 SWAP8 POP DUP8 SWAP6 POP POP POP POP POP POP SWAP3 SWAP2 POP POP JUMP JUMPDEST PUSH1 0x0 PUSH1 0x20 DUP3 ADD SWAP1 POP DUP2 DUP2 SUB PUSH1 0x0 DUP4 ADD MSTORE PUSH2 0xA89 DUP2 DUP5 PUSH2 0x9FA JUMP JUMPDEST SWAP1 POP SWAP3 SWAP2 POP POP JUMP JUMPDEST PUSH1 0x0 DUP1 REVERT JUMPDEST PUSH1 0x0 DUP1 REVERT JUMPDEST PUSH32 0x4E487B7100000000000000000000000000000000000000000000000000000000 PUSH1 0x0 MSTORE PUSH1 0x41 PUSH1 0x4 MSTORE PUSH1 0x24 PUSH1 0x0 REVERT JUMPDEST PUSH2 0xAD3 DUP3 PUSH2 0x81A JUMP JUMPDEST DUP2 ADD DUP2 DUP2 LT PUSH8 0xFFFFFFFFFFFFFFFF DUP3 GT OR ISZERO PUSH2 0xAF2 JUMPI PUSH2 0xAF1 PUSH2 0xA9B JUMP JUMPDEST JUMPDEST DUP1 PUSH1 0x40 MSTORE POP POP POP JUMP JUMPDEST PUSH1 0x0 PUSH2 0xB05 PUSH2 0x735 JUMP JUMPDEST SWAP1 POP PUSH2 0xB11 DUP3 DUP3 PUSH2 0xACA JUMP JUMPDEST SWAP2 SWAP1 POP JUMP JUMPDEST PUSH1 0x0 PUSH8 0xFFFFFFFFFFFFFFFF DUP3 GT ISZERO PUSH2 0xB31 JUMPI PUSH2 0xB30 PUSH2 0xA9B JUMP JUMPDEST JUMPDEST PUSH2 0xB3A DUP3 PUSH2 0x81A JUMP JUMPDEST SWAP1 POP PUSH1 0x20 DUP2 ADD SWAP1 POP SWAP2 SWAP1 POP JUMP JUMPDEST DUP3 DUP2 DUP4 CALLDATACOPY PUSH1 0x0 DUP4 DUP4 ADD MSTORE POP POP POP JUMP JUMPDEST PUSH1 0x0 PUSH2 0xB69 PUSH2 0xB64 DUP5 PUSH2 0xB16 JUMP JUMPDEST PUSH2 0xAFB JUMP JUMPDEST SWAP1 POP DUP3 DUP2 MSTORE PUSH1 0x20 DUP2 ADD DUP5 DUP5 DUP5 ADD GT ISZERO PUSH2 0xB85 JUMPI PUSH2 0xB84 PUSH2 0xA96 JUMP JUMPDEST JUMPDEST PUSH2 0xB90 DUP5 DUP3 DUP6 PUSH2 0xB47 JUMP JUMPDEST POP SWAP4 SWAP3 POP POP POP JUMP JUMPDEST PUSH1 0x0 DUP3 PUSH1 0x1F DUP4 ADD SLT PUSH2 0xBAD JUMPI PUSH2 0xBAC PUSH2 0xA91 JUMP JUMPDEST JUMPDEST DUP2 CALLDATALOAD PUSH2 0xBBD DUP5 DUP3 PUSH1 0x20 DUP7 ADD PUSH2 0xB56 JUMP JUMPDEST SWAP2 POP POP SWAP3 SWAP2 POP POP JUMP JUMPDEST PUSH1 0x0 DUP1 PUSH1 0x0 PUSH1 0x60 DUP5 DUP7 SUB SLT ISZERO PUSH2 0xBDF JUMPI PUSH2 0xBDE PUSH2 0x73F JUMP JUMPDEST JUMPDEST PUSH1 0x0 PUSH2 0xBED DUP7 DUP3 DUP8 ADD PUSH2 0x792 JUMP JUMPDEST SWAP4 POP POP PUSH1 0x20 DUP5 ADD CALLDATALOAD PUSH8 0xFFFFFFFFFFFFFFFF DUP2 GT ISZERO PUSH2 0xC0E JUMPI PUSH2 0xC0D PUSH2 0x744 JUMP JUMPDEST JUMPDEST PUSH2 0xC1A DUP7 DUP3 DUP8 ADD PUSH2 0xB98 JUMP JUMPDEST SWAP3 POP POP PUSH1 0x40 PUSH2 0xC2B DUP7 DUP3 DUP8 ADD PUSH2 0x8AB JUMP JUMPDEST SWAP2 POP POP SWAP3 POP SWAP3 POP SWAP3 JUMP JUMPDEST PUSH32 0x4E487B7100000000000000000000000000000000000000000000000000000000 PUSH1 0x0 MSTORE PUSH1 0x22 PUSH1 0x4 MSTORE PUSH1 0x24 PUSH1 0x0 REVERT JUMPDEST PUSH1 0x0 PUSH1 0x2 DUP3 DIV SWAP1 POP PUSH1 0x1 DUP3 AND DUP1 PUSH2 0xC7C JUMPI PUSH1 0x7F DUP3 AND SWAP2 POP JUMPDEST PUSH1 0x20 DUP3 LT DUP2 SUB PUSH2 0xC8F JUMPI PUSH2 0xC8E PUSH2 0xC35 JUMP JUMPDEST JUMPDEST POP SWAP2 SWAP1 POP JUMP JUMPDEST PUSH32 0x4E487B7100000000000000000000000000000000000000000000000000000000 PUSH1 0x0 MSTORE PUSH1 0x32 PUSH1 0x4 MSTORE PUSH1 0x24 PUSH1 0x0 REVERT JUMPDEST PUSH32 0x4E487B7100000000000000000000000000000000000000000000000000000000 PUSH1 0x0 MSTORE PUSH1 0x11 PUSH1 0x4 MSTORE PUSH1 0x24 PUSH1 0x0 REVERT JUMPDEST PUSH1 0x0 PUSH2 0xCFE DUP3 PUSH2 0x701 JUMP JUMPDEST SWAP2 POP PUSH32 0xFFFFFFFFFFFFFFFFFFFFFFFFFFFFFFFFFFFFFFFFFFFFFFFFFFFFFFFFFFFFFFFF DUP3 SUB PUSH2 0xD30 JUMPI PUSH2 0xD2F PUSH2 0xCC4 JUMP JUMPDEST JUMPDEST PUSH1 0x1 DUP3 ADD SWAP1 POP SWAP2 SWAP1 POP JUMP JUMPDEST PUSH32 0x4E6F7420746865206F776E657200000000000000000000000000000000000000 PUSH1 0x0 DUP3 ADD MSTORE POP JUMP JUMPDEST PUSH1 0x0 PUSH2 0xD71 PUSH1 0xD DUP4 PUSH2 0x7DF JUMP JUMPDEST SWAP2 POP PUSH2 0xD7C DUP3 PUSH2 0xD3B JUMP JUMPDEST PUSH1 0x20 DUP3 ADD SWAP1 POP SWAP2 SWAP1 POP JUMP JUMPDEST PUSH1 0x0 PUSH1 0x20 DUP3 ADD SWAP1 POP DUP2 DUP2 SUB PUSH1 0x0 DUP4 ADD MSTORE PUSH2 0xDA0 DUP2 PUSH2 0xD64 JUMP JUMPDEST SWAP1 POP SWAP2 SWAP1 POP JUMP JUMPDEST PUSH1 0x0 DUP2 SWAP1 POP DUP2 PUSH1 0x0 MSTORE PUSH1 0x20 PUSH1 0x0 KECCAK256 SWAP1 POP SWAP2 SWAP1 POP JUMP JUMPDEST PUSH1 0x0 PUSH1 0x20 PUSH1 0x1F DUP4 ADD DIV SWAP1 POP SWAP2 SWAP1 POP JUMP JUMPDEST PUSH1 0x0 DUP3 DUP3 SHL SWAP1 POP SWAP3 SWAP2 POP POP JUMP JUMPDEST PUSH1 0x0 PUSH1 0x8 DUP4 MUL PUSH2 0xE09 PUSH32 0xFFFFFFFFFFFFFFFFFFFFFFFFFFFFFFFFFFFFFFFFFFFFFFFFFFFFFFFFFFFFFFFF DUP3 PUSH2 0xDCC JUMP JUMPDEST PUSH2 0xE13 DUP7 DUP4 PUSH2 0xDCC JUMP JUMPDEST SWAP6 POP DUP1 NOT DUP5 AND SWAP4 POP DUP1 DUP7 AND DUP5 OR SWAP3 POP POP POP SWAP4 SWAP3 POP POP POP JUMP JUMPDEST PUSH1 0x0 DUP2 SWAP1 POP SWAP2 SWAP1 POP JUMP JUMPDEST PUSH1 0x0 PUSH2 0xE50 PUSH2 0xE4B PUSH2 0xE46 DUP5 PUSH2 0x701 JUMP JUMPDEST PUSH2 0xE2B JUMP JUMPDEST PUSH2 0x701 JUMP JUMPDEST SWAP1 POP SWAP2 SWAP1 POP JUMP JUMPDEST PUSH1 0x0 DUP2 SWAP1 POP SWAP2 SWAP1 POP JUMP JUMPDEST PUSH2 0xE6A DUP4 PUSH2 0xE35 JUMP JUMPDEST PUSH2 0xE7E PUSH2 0xE76 DUP3 PUSH2 0xE57 JUMP JUMPDEST DUP5 DUP5 SLOAD PUSH2 0xDD9 JUMP JUMPDEST DUP3 SSTORE POP POP POP POP JUMP JUMPDEST PUSH1 0x0 SWAP1 JUMP JUMPDEST PUSH2 0xE93 PUSH2 0xE86 JUMP JUMPDEST PUSH2 0xE9E DUP2 DUP5 DUP5 PUSH2 0xE61 JUMP JUMPDEST POP POP POP JUMP JUMPDEST JUMPDEST DUP2 DUP2 LT ISZERO PUSH2 0xEC2 JUMPI PUSH2 0xEB7 PUSH1 0x0 DUP3 PUSH2 0xE8B JUMP JUMPDEST PUSH1 0x1 DUP2 ADD SWAP1 POP PUSH2 0xEA4 JUMP JUMPDEST POP POP JUMP JUMPDEST PUSH1 0x1F DUP3 GT ISZERO PUSH2 0xF07 JUMPI PUSH2 0xED8 DUP2 PUSH2 0xDA7 JUMP JUMPDEST PUSH2 0xEE1 DUP5 PUSH2 0xDBC JUMP JUMPDEST DUP2 ADD PUSH1 0x20 DUP6 LT ISZERO PUSH2 0xEF0 JUMPI DUP2 SWAP1 POP JUMPDEST PUSH2 0xF04 PUSH2 0xEFC DUP6 PUSH2 0xDBC JUMP JUMPDEST DUP4 ADD DUP3 PUSH2 0xEA3 JUMP JUMPDEST POP POP JUMPDEST POP POP POP JUMP JUMPDEST PUSH1 0x0 DUP3 DUP3 SHR SWAP1 POP SWAP3 SWAP2 POP POP JUMP JUMPDEST PUSH1 0x0 PUSH2 0xF2A PUSH1 0x0 NOT DUP5 PUSH1 0x8 MUL PUSH2 0xF0C JUMP JUMPDEST NOT DUP1 DUP4 AND SWAP2 POP POP SWAP3 SWAP2 POP POP JUMP JUMPDEST PUSH1 0x0 PUSH2 0xF43 DUP4 DUP4 PUSH2 0xF19 JUMP JUMPDEST SWAP2 POP DUP3 PUSH1 0x2 MUL DUP3 OR SWAP1 POP SWAP3 SWAP2 POP POP JUMP JUMPDEST PUSH2 0xF5C DUP3 PUSH2 0x7D4 JUMP JUMPDEST PUSH8 0xFFFFFFFFFFFFFFFF DUP2 GT ISZERO PUSH2 0xF75 JUMPI PUSH2 0xF74 PUSH2 0xA9B JUMP JUMPDEST JUMPDEST PUSH2 0xF7F DUP3 SLOAD PUSH2 0xC64 JUMP JUMPDEST PUSH2 0xF8A DUP3 DUP3 DUP6 PUSH2 0xEC6 JUMP JUMPDEST PUSH1 0x0 PUSH1 0x20 SWAP1 POP PUSH1 0x1F DUP4 GT PUSH1 0x1 DUP2 EQ PUSH2 0xFBD JUMPI PUSH1 0x0 DUP5 ISZERO PUSH2 0xFAB JUMPI DUP3 DUP8 ADD MLOAD SWAP1 POP JUMPDEST PUSH2 0xFB5 DUP6 DUP3 PUSH2 0xF37 JUMP JUMPDEST DUP7 SSTORE POP PUSH2 0x101D JUMP JUMPDEST PUSH1 0x1F NOT DUP5 AND PUSH2 0xFCB DUP7 PUSH2 0xDA7 JUMP JUMPDEST PUSH1 0x0 JUMPDEST DUP3 DUP2 LT ISZERO PUSH2 0xFF3 JUMPI DUP5 DUP10 ADD MLOAD DUP3 SSTORE PUSH1 0x1 DUP3 ADD SWAP2 POP PUSH1 0x20 DUP6 ADD SWAP5 POP PUSH1 0x20 DUP2 ADD SWAP1 POP PUSH2 0xFCE JUMP JUMPDEST DUP7 DUP4 LT ISZERO PUSH2 0x1010 JUMPI DUP5 DUP10 ADD MLOAD PUSH2 0x100C PUSH1 0x1F DUP10 AND DUP3 PUSH2 0xF19 JUMP JUMPDEST DUP4 SSTORE POP JUMPDEST PUSH1 0x1 PUSH1 0x2 DUP9 MUL ADD DUP9 SSTORE POP POP POP JUMPDEST POP POP POP POP POP POP JUMP INVALID LOG2 PUSH5 0x6970667358 0x22 SLT KECCAK256 GASPRICE 0xEF AND 0xD2 0xB7 DUP16 SWAP2 MSTORE8 0xF8 GAS DUP8 PUSH13 0x571BE6B555CC7A37D8D82B44 NUMBER 0x4C EXTCODEHASH 0xCD PUSH25 0x43E264736F6C63430008120033000000000000000000000000 "
				},
				"gasEstimates": {
					"creation": {
						"codeDepositCost": "837400",
						"executionCost": "25136",
						"totalCost": "862536"
					},
					"external": {
						"addStudent(address,string,uint256)": "infinite",
						"getAllStudents()": "infinite",
						"getStudent(address)": "infinite",
						"getTotalStudents()": "2446",
						"owner()": "2514",
						"studentList(uint256)": "5001",
						"students(address)": "infinite"
					}
				},
				"methodIdentifiers": {
					"addStudent(address,string,uint256)": "f041f73f",
					"getAllStudents()": "e9e30927",
					"getStudent(address)": "6b7b44d7",
					"getTotalStudents()": "28bcb51a",
					"owner()": "8da5cb5b",
					"studentList(uint256)": "7df221e9",
					"students(address)": "a6c807a9"
				}
			},
			"storageLayout": {
				"storage": [
					{
						"astId": 11,
						"contract": "management.sol:StudentManager",
						"label": "students",
						"offset": 0,
						"slot": "0",
						"type": "t_mapping(t_address,t_struct(Student)6_storage)"
					},
					{
						"astId": 14,
						"contract": "management.sol:StudentManager",
						"label": "studentList",
						"offset": 0,
						"slot": "1",
						"type": "t_array(t_address)dyn_storage"
					},
					{
						"astId": 16,
						"contract": "management.sol:StudentManager",
						"label": "owner",
						"offset": 0,
						"slot": "2",
						"type": "t_address"
					}
				],
				"types": {
					"t_address": {
						"encoding": "inplace",
						"label": "address",
						"numberOfBytes": "20"
					},
					"t_array(t_address)dyn_storage": {
						"base": "t_address",
						"encoding": "dynamic_array",
						"label": "address[]",
						"numberOfBytes": "32"
					},
					"t_mapping(t_address,t_struct(Student)6_storage)": {
						"encoding": "mapping",
						"key": "t_address",
						"label": "mapping(address => struct StudentManager.Student)",
						"numberOfBytes": "32",
						"value": "t_struct(Student)6_storage"
					},
					"t_string_storage": {
						"encoding": "bytes",
						"label": "string",
						"numberOfBytes": "32"
					},
					"t_struct(Student)6_storage": {
						"encoding": "inplace",
						"label": "struct StudentManager.Student",
						"members": [
							{
								"astId": 3,
								"contract": "management.sol:StudentManager",
								"label": "name",
								"offset": 0,
								"slot": "0",
								"type": "t_string_storage"
							},
							{
								"astId": 5,
								"contract": "management.sol:StudentManager",
								"label": "age",
								"offset": 0,
								"slot": "1",
								"type": "t_uint256"
							}
						],
						"numberOfBytes": "64"
					},
					"t_uint256": {
						"encoding": "inplace",
						"label": "uint256",
						"numberOfBytes": "32"
					}
				}
			},
			"userdoc": {
				"kind": "user",
				"methods": {},
				"version": 1
			}
		}
	}
}