{
	"LoanApproval.sol": {
		"LoanApproval": {
			"abi": [
				{
					"anonymous": false,
					"inputs": [
						{
							"indexed": true,
							"internalType": "address",
							"name": "user",
							"type": "address"
						},
						{
							"indexed": false,
							"internalType": "uint256",
							"name": "amount",
							"type": "uint256"
						},
						{
							"indexed": false,
							"internalType": "uint256",
							"name": "loanId",
							"type": "uint256"
						}
					],
					"name": "LoanApproved",
					"type": "event"
				},
				{
					"inputs": [
						{
							"internalType": "uint256",
							"name": "_amount",
							"type": "uint256"
						}
					],
					"name": "applyLoan",
					"outputs": [],
					"stateMutability": "nonpayable",
					"type": "function"
				},
				{
					"inputs": [
						{
							"internalType": "uint256",
							"name": "_loanId",
							"type": "uint256"
						}
					],
					"name": "approveLoan",
					"outputs": [],
					"stateMutability": "nonpayable",
					"type": "function"
				},
				{
					"inputs": [],
					"name": "getTotalLoans",
					"outputs": [
						{
							"internalType": "uint256",
							"name": "",
							"type": "uint256"
						}
					],
					"stateMutability": "view",
					"type": "function"
				},
				{
					"inputs": [
						{
							"internalType": "uint256",
							"name": "",
							"type": "uint256"
						}
					],
					"name": "loans",
					"outputs": [
						{
							"internalType": "address",
							"name": "user",
							"type": "address"
						},
						{
							"internalType": "uint256",
							"name": "amount",
							"type": "uint256"
						},
						{
							"internalType": "bool",
							"name": "approved",
							"type": "bool"
						}
					],
					"stateMutability": "view",
					"type": "function"
				},
				{
					"inputs": [],
					"name": "maxLoanAmount",
					"outputs": [
						{
							"internalType": "uint256",
							"name": "",
							"type": "uint256"
						}
					],
					"stateMutability": "view",
					"type": "function"
				},
				{
					"inputs": [],
					"name": "minLoanAmount",
					"outputs": [
						{
							"internalType": "uint256",
							"name": "",
							"type": "uint256"
						}
					],
					"stateMutability": "view",
					"type": "function"
				},
				{
					"inputs": [],
					"name": "owner",
					"outputs": [
						{
							"internalType": "address",
							"name": "",
							"type": "address"
						}
					],
					"stateMutability": "view",
					"type": "function"
				}
			],
			"devdoc": {
				"kind": "dev",
				"methods": {},
				"version": 1
			},
			"evm": {
				"assembly": "    /* \"LoanApproval.sol\":84:1244  contract LoanApproval is Bank {... */\n  mstore(0x40, 0x80)\n    /* \"Bank.sol\":136:137  1 */\n  0x01\n    /* \"Bank.sol\":108:137  uint public minLoanAmount = 1 */\n  dup1\n  sstore\n    /* \"Bank.sol\":173:175  10 */\n  0x0a\n    /* \"Bank.sol\":145:175  uint public maxLoanAmount = 10 */\n  0x02\n  sstore\n    /* \"LoanApproval.sol\":84:1244  contract LoanApproval is Bank {... */\n  callvalue\n  dup1\n  iszero\n  tag_1\n  jumpi\n  revert(0x00, 0x00)\ntag_1:\n  pop\n    /* \"Bank.sol\":217:227  msg.sender */\n  caller\n    /* \"Bank.sol\":209:214  owner */\n  0x00\n  0x00\n    /* \"Bank.sol\":209:227  owner = msg.sender */\n  0x0100\n  exp\n  dup2\n  sload\n  dup2\n  0xffffffffffffffffffffffffffffffffffffffff\n  mul\n  not\n  and\n  swap1\n  dup4\n  0xffffffffffffffffffffffffffffffffffffffff\n  and\n  mul\n  or\n  swap1\n  sstore\n  pop\n    /* \"LoanApproval.sol\":84:1244  contract LoanApproval is Bank {... */\n  dataSize(sub_0)\n  dup1\n  dataOffset(sub_0)\n  0x00\n  codecopy\n  0x00\n  return\nstop\n\nsub_0: assembly {\n        /* \"LoanApproval.sol\":84:1244  contract LoanApproval is Bank {... */\n      mstore(0x40, 0x80)\n      callvalue\n      dup1\n      iszero\n      tag_1\n      jumpi\n      revert(0x00, 0x00)\n    tag_1:\n      pop\n      jumpi(tag_2, lt(calldatasize, 0x04))\n      shr(0xe0, calldataload(0x00))\n      dup1\n      0x8da5cb5b\n      gt\n      tag_10\n      jumpi\n      dup1\n      0x8da5cb5b\n      eq\n      tag_6\n      jumpi\n      dup1\n      0xaadc1ac1\n      eq\n      tag_7\n      jumpi\n      dup1\n      0xe06a9138\n      eq\n      tag_8\n      jumpi\n      dup1\n      0xe1ec3c68\n      eq\n      tag_9\n      jumpi\n      jump(tag_2)\n    tag_10:\n      dup1\n      0x4b7253bf\n      eq\n      tag_3\n      jumpi\n      dup1\n      0x72f94365\n      eq\n      tag_4\n      jumpi\n      dup1\n      0x833be5d5\n      eq\n      tag_5\n      jumpi\n    tag_2:\n      revert(0x00, 0x00)\n        /* \"LoanApproval.sol\":392:705  function applyLoan(uint _amount) public {... */\n    tag_3:\n      tag_11\n      0x04\n      dup1\n      calldatasize\n      sub\n      dup2\n      add\n      swap1\n      tag_12\n      swap2\n      swap1\n      tag_13\n      jump\t// in\n    tag_12:\n      tag_14\n      jump\t// in\n    tag_11:\n      stop\n        /* \"Bank.sol\":145:175  uint public maxLoanAmount = 10 */\n    tag_4:\n      tag_15\n      tag_16\n      jump\t// in\n    tag_15:\n      mload(0x40)\n      tag_17\n      swap2\n      swap1\n      tag_18\n      jump\t// in\n    tag_17:\n      mload(0x40)\n      dup1\n      swap2\n      sub\n      swap1\n      return\n        /* \"LoanApproval.sol\":1151:1241  function getTotalLoans() public view returns (uint) {... */\n    tag_5:\n      tag_19\n      tag_20\n      jump\t// in\n    tag_19:\n      mload(0x40)\n      tag_21\n      swap2\n      swap1\n      tag_18\n      jump\t// in\n    tag_21:\n      mload(0x40)\n      dup1\n      swap2\n      sub\n      swap1\n      return\n        /* \"Bank.sol\":81:101  address public owner */\n    tag_6:\n      tag_22\n      tag_23\n      jump\t// in\n    tag_22:\n      mload(0x40)\n      tag_24\n      swap2\n      swap1\n      tag_25\n      jump\t// in\n    tag_24:\n      mload(0x40)\n      dup1\n      swap2\n      sub\n      swap1\n      return\n        /* \"LoanApproval.sol\":752:1113  function approveLoan(uint _loanId) public onlyOwner {... */\n    tag_7:\n      tag_26\n      0x04\n      dup1\n      calldatasize\n      sub\n      dup2\n      add\n      swap1\n      tag_27\n      swap2\n      swap1\n      tag_13\n      jump\t// in\n    tag_27:\n      tag_28\n      jump\t// in\n    tag_26:\n      stop\n        /* \"Bank.sol\":108:137  uint public minLoanAmount = 1 */\n    tag_8:\n      tag_29\n      tag_30\n      jump\t// in\n    tag_29:\n      mload(0x40)\n      tag_31\n      swap2\n      swap1\n      tag_18\n      jump\t// in\n    tag_31:\n      mload(0x40)\n      dup1\n      swap2\n      sub\n      swap1\n      return\n        /* \"LoanApproval.sol\":220:239  Loan[] public loans */\n    tag_9:\n      tag_32\n      0x04\n      dup1\n      calldatasize\n      sub\n      dup2\n      add\n      swap1\n      tag_33\n      swap2\n      swap1\n      tag_13\n      jump\t// in\n    tag_33:\n      tag_34\n      jump\t// in\n    tag_32:\n      mload(0x40)\n      tag_35\n      swap4\n      swap3\n      swap2\n      swap1\n      tag_36\n      jump\t// in\n    tag_35:\n      mload(0x40)\n      dup1\n      swap2\n      sub\n      swap1\n      return\n        /* \"LoanApproval.sol\":392:705  function applyLoan(uint _amount) public {... */\n    tag_14:\n        /* \"LoanApproval.sol\":476:489  minLoanAmount */\n      sload(0x01)\n        /* \"LoanApproval.sol\":465:472  _amount */\n      dup2\n        /* \"LoanApproval.sol\":465:489  _amount >= minLoanAmount */\n      lt\n      iszero\n        /* \"LoanApproval.sol\":465:517  _amount >= minLoanAmount && _amount <= maxLoanAmount */\n      dup1\n      iszero\n      tag_38\n      jumpi\n      pop\n        /* \"LoanApproval.sol\":504:517  maxLoanAmount */\n      sload(0x02)\n        /* \"LoanApproval.sol\":493:500  _amount */\n      dup2\n        /* \"LoanApproval.sol\":493:517  _amount <= maxLoanAmount */\n      gt\n      iszero\n        /* \"LoanApproval.sol\":465:517  _amount >= minLoanAmount && _amount <= maxLoanAmount */\n    tag_38:\n        /* \"LoanApproval.sol\":443:564  require(... */\n      tag_39\n      jumpi\n      mload(0x40)\n      0x08c379a000000000000000000000000000000000000000000000000000000000\n      dup2\n      mstore\n      0x04\n      add\n      tag_40\n      swap1\n      tag_41\n      jump\t// in\n    tag_40:\n      mload(0x40)\n      dup1\n      swap2\n      sub\n      swap1\n      revert\n    tag_39:\n        /* \"LoanApproval.sol\":577:582  loans */\n      0x03\n        /* \"LoanApproval.sol\":588:696  Loan({... */\n      mload(0x40)\n      dup1\n      0x60\n      add\n      0x40\n      mstore\n      dup1\n        /* \"LoanApproval.sol\":614:624  msg.sender */\n      caller\n        /* \"LoanApproval.sol\":588:696  Loan({... */\n      0xffffffffffffffffffffffffffffffffffffffff\n      and\n      dup2\n      mstore\n      0x20\n      add\n        /* \"LoanApproval.sol\":647:654  _amount */\n      dup4\n        /* \"LoanApproval.sol\":588:696  Loan({... */\n      dup2\n      mstore\n      0x20\n      add\n        /* \"LoanApproval.sol\":679:684  false */\n      0x00\n        /* \"LoanApproval.sol\":588:696  Loan({... */\n      iszero\n      iszero\n      dup2\n      mstore\n      pop\n        /* \"LoanApproval.sol\":577:697  loans.push(Loan({... */\n      swap1\n      dup1\n      0x01\n      dup2\n      sload\n      add\n      dup1\n      dup3\n      sstore\n      dup1\n      swap2\n      pop\n      pop\n      0x01\n      swap1\n      sub\n      swap1\n      0x00\n      mstore\n      keccak256(0x00, 0x20)\n      swap1\n      0x03\n      mul\n      add\n      0x00\n      swap1\n      swap2\n      swap1\n      swap2\n      swap1\n      swap2\n      pop\n      0x00\n      dup3\n      add\n      mload\n      dup2\n      0x00\n      add\n      exp(0x0100, 0x00)\n      dup2\n      sload\n      dup2\n      0xffffffffffffffffffffffffffffffffffffffff\n      mul\n      not\n      and\n      swap1\n      dup4\n      0xffffffffffffffffffffffffffffffffffffffff\n      and\n      mul\n      or\n      swap1\n      sstore\n      pop\n      0x20\n      dup3\n      add\n      mload\n      dup2\n      0x01\n      add\n      sstore\n      0x40\n      dup3\n      add\n      mload\n      dup2\n      0x02\n      add\n      exp(0x0100, 0x00)\n      dup2\n      sload\n      dup2\n      0xff\n      mul\n      not\n      and\n      swap1\n      dup4\n      iszero\n      iszero\n      mul\n      or\n      swap1\n      sstore\n      pop\n      pop\n      pop\n        /* \"LoanApproval.sol\":392:705  function applyLoan(uint _amount) public {... */\n      pop\n      jump\t// out\n        /* \"Bank.sol\":145:175  uint public maxLoanAmount = 10 */\n    tag_16:\n      sload(0x02)\n      dup2\n      jump\t// out\n        /* \"LoanApproval.sol\":1151:1241  function getTotalLoans() public view returns (uint) {... */\n    tag_20:\n        /* \"LoanApproval.sol\":1197:1201  uint */\n      0x00\n        /* \"LoanApproval.sol\":1221:1226  loans */\n      0x03\n        /* \"LoanApproval.sol\":1221:1233  loans.length */\n      dup1\n      sload\n      swap1\n      pop\n        /* \"LoanApproval.sol\":1214:1233  return loans.length */\n      swap1\n      pop\n        /* \"LoanApproval.sol\":1151:1241  function getTotalLoans() public view returns (uint) {... */\n      swap1\n      jump\t// out\n        /* \"Bank.sol\":81:101  address public owner */\n    tag_23:\n      0x00\n      0x00\n      swap1\n      sload\n      swap1\n      0x0100\n      exp\n      swap1\n      div\n      0xffffffffffffffffffffffffffffffffffffffff\n      and\n      dup2\n      jump\t// out\n        /* \"LoanApproval.sol\":752:1113  function approveLoan(uint _loanId) public onlyOwner {... */\n    tag_28:\n        /* \"Bank.sol\":297:302  owner */\n      0x00\n      0x00\n      swap1\n      sload\n      swap1\n      0x0100\n      exp\n      swap1\n      div\n      0xffffffffffffffffffffffffffffffffffffffff\n      and\n        /* \"Bank.sol\":283:302  msg.sender == owner */\n      0xffffffffffffffffffffffffffffffffffffffff\n      and\n        /* \"Bank.sol\":283:293  msg.sender */\n      caller\n        /* \"Bank.sol\":283:302  msg.sender == owner */\n      0xffffffffffffffffffffffffffffffffffffffff\n      and\n      eq\n        /* \"Bank.sol\":275:330  require(msg.sender == owner, \"Only bank owner allowed\") */\n      tag_45\n      jumpi\n      mload(0x40)\n      0x08c379a000000000000000000000000000000000000000000000000000000000\n      dup2\n      mstore\n      0x04\n      add\n      tag_46\n      swap1\n      tag_47\n      jump\t// in\n    tag_46:\n      mload(0x40)\n      dup1\n      swap2\n      sub\n      swap1\n      revert\n    tag_45:\n        /* \"LoanApproval.sol\":833:838  loans */\n      0x03\n        /* \"LoanApproval.sol\":833:845  loans.length */\n      dup1\n      sload\n      swap1\n      pop\n        /* \"LoanApproval.sol\":823:830  _loanId */\n      dup2\n        /* \"LoanApproval.sol\":823:845  _loanId < loans.length */\n      lt\n        /* \"LoanApproval.sol\":815:865  require(_loanId < loans.length, \"Invalid loan ID\") */\n      tag_49\n      jumpi\n      mload(0x40)\n      0x08c379a000000000000000000000000000000000000000000000000000000000\n      dup2\n      mstore\n      0x04\n      add\n      tag_50\n      swap1\n      tag_51\n      jump\t// in\n    tag_50:\n      mload(0x40)\n      dup1\n      swap2\n      sub\n      swap1\n      revert\n    tag_49:\n        /* \"LoanApproval.sol\":885:890  loans */\n      0x03\n        /* \"LoanApproval.sol\":891:898  _loanId */\n      dup2\n        /* \"LoanApproval.sol\":885:899  loans[_loanId] */\n      dup2\n      sload\n      dup2\n      lt\n      tag_52\n      jumpi\n      tag_53\n      tag_54\n      jump\t// in\n    tag_53:\n    tag_52:\n      swap1\n      0x00\n      mstore\n      keccak256(0x00, 0x20)\n      swap1\n      0x03\n      mul\n      add\n        /* \"LoanApproval.sol\":885:908  loans[_loanId].approved */\n      0x02\n      add\n      0x00\n      swap1\n      sload\n      swap1\n      0x0100\n      exp\n      swap1\n      div\n      0xff\n      and\n        /* \"LoanApproval.sol\":884:908  !loans[_loanId].approved */\n      iszero\n        /* \"LoanApproval.sol\":876:929  require(!loans[_loanId].approved, \"Already approved\") */\n      tag_56\n      jumpi\n      mload(0x40)\n      0x08c379a000000000000000000000000000000000000000000000000000000000\n      dup2\n      mstore\n      0x04\n      add\n      tag_57\n      swap1\n      tag_58\n      jump\t// in\n    tag_57:\n      mload(0x40)\n      dup1\n      swap2\n      sub\n      swap1\n      revert\n    tag_56:\n        /* \"LoanApproval.sol\":968:972  true */\n      0x01\n        /* \"LoanApproval.sol\":942:947  loans */\n      0x03\n        /* \"LoanApproval.sol\":948:955  _loanId */\n      dup3\n        /* \"LoanApproval.sol\":942:956  loans[_loanId] */\n      dup2\n      sload\n      dup2\n      lt\n      tag_59\n      jumpi\n      tag_60\n      tag_54\n      jump\t// in\n    tag_60:\n    tag_59:\n      swap1\n      0x00\n      mstore\n      keccak256(0x00, 0x20)\n      swap1\n      0x03\n      mul\n      add\n        /* \"LoanApproval.sol\":942:965  loans[_loanId].approved */\n      0x02\n      add\n      0x00\n        /* \"LoanApproval.sol\":942:972  loans[_loanId].approved = true */\n      0x0100\n      exp\n      dup2\n      sload\n      dup2\n      0xff\n      mul\n      not\n      and\n      swap1\n      dup4\n      iszero\n      iszero\n      mul\n      or\n      swap1\n      sstore\n      pop\n        /* \"LoanApproval.sol\":1017:1022  loans */\n      0x03\n        /* \"LoanApproval.sol\":1023:1030  _loanId */\n      dup2\n        /* \"LoanApproval.sol\":1017:1031  loans[_loanId] */\n      dup2\n      sload\n      dup2\n      lt\n      tag_62\n      jumpi\n      tag_63\n      tag_54\n      jump\t// in\n    tag_63:\n    tag_62:\n      swap1\n      0x00\n      mstore\n      keccak256(0x00, 0x20)\n      swap1\n      0x03\n      mul\n      add\n        /* \"LoanApproval.sol\":1017:1036  loans[_loanId].user */\n      0x00\n      add\n      0x00\n      swap1\n      sload\n      swap1\n      0x0100\n      exp\n      swap1\n      div\n      0xffffffffffffffffffffffffffffffffffffffff\n      and\n        /* \"LoanApproval.sol\":990:1105  LoanApproved(... */\n      0xffffffffffffffffffffffffffffffffffffffff\n      and\n      0x1a8ecea83cbcff0f4c46b7e42f55227161863220eb7d439fde442dfdc0ddbc4e\n        /* \"LoanApproval.sol\":1051:1056  loans */\n      0x03\n        /* \"LoanApproval.sol\":1057:1064  _loanId */\n      dup4\n        /* \"LoanApproval.sol\":1051:1065  loans[_loanId] */\n      dup2\n      sload\n      dup2\n      lt\n      tag_65\n      jumpi\n      tag_66\n      tag_54\n      jump\t// in\n    tag_66:\n    tag_65:\n      swap1\n      0x00\n      mstore\n      keccak256(0x00, 0x20)\n      swap1\n      0x03\n      mul\n      add\n        /* \"LoanApproval.sol\":1051:1072  loans[_loanId].amount */\n      0x01\n      add\n      sload\n        /* \"LoanApproval.sol\":1087:1094  _loanId */\n      dup4\n        /* \"LoanApproval.sol\":990:1105  LoanApproved(... */\n      mload(0x40)\n      tag_68\n      swap3\n      swap2\n      swap1\n      tag_69\n      jump\t// in\n    tag_68:\n      mload(0x40)\n      dup1\n      swap2\n      sub\n      swap1\n      log2\n        /* \"LoanApproval.sol\":752:1113  function approveLoan(uint _loanId) public onlyOwner {... */\n      pop\n      jump\t// out\n        /* \"Bank.sol\":108:137  uint public minLoanAmount = 1 */\n    tag_30:\n      sload(0x01)\n      dup2\n      jump\t// out\n        /* \"LoanApproval.sol\":220:239  Loan[] public loans */\n    tag_34:\n      0x03\n      dup2\n      dup2\n      sload\n      dup2\n      lt\n      tag_70\n      jumpi\n      0x00\n      dup1\n      revert\n    tag_70:\n      swap1\n      0x00\n      mstore\n      keccak256(0x00, 0x20)\n      swap1\n      0x03\n      mul\n      add\n      0x00\n      swap2\n      pop\n      swap1\n      pop\n      dup1\n      0x00\n      add\n      0x00\n      swap1\n      sload\n      swap1\n      0x0100\n      exp\n      swap1\n      div\n      0xffffffffffffffffffffffffffffffffffffffff\n      and\n      swap1\n      dup1\n      0x01\n      add\n      sload\n      swap1\n      dup1\n      0x02\n      add\n      0x00\n      swap1\n      sload\n      swap1\n      0x0100\n      exp\n      swap1\n      div\n      0xff\n      and\n      swap1\n      pop\n      dup4\n      jump\t// out\n        /* \"#utility.yul\":88:205   */\n    tag_73:\n        /* \"#utility.yul\":197:198   */\n      0x00\n        /* \"#utility.yul\":194:195   */\n      0x00\n        /* \"#utility.yul\":187:199   */\n      revert\n        /* \"#utility.yul\":334:411   */\n    tag_75:\n        /* \"#utility.yul\":371:378   */\n      0x00\n        /* \"#utility.yul\":400:405   */\n      dup2\n        /* \"#utility.yul\":389:405   */\n      swap1\n      pop\n        /* \"#utility.yul\":334:411   */\n      swap2\n      swap1\n      pop\n      jump\t// out\n        /* \"#utility.yul\":417:539   */\n    tag_76:\n        /* \"#utility.yul\":490:514   */\n      tag_99\n        /* \"#utility.yul\":508:513   */\n      dup2\n        /* \"#utility.yul\":490:514   */\n      tag_75\n      jump\t// in\n    tag_99:\n        /* \"#utility.yul\":483:488   */\n      dup2\n        /* \"#utility.yul\":480:515   */\n      eq\n        /* \"#utility.yul\":470:533   */\n      tag_100\n      jumpi\n        /* \"#utility.yul\":529:530   */\n      0x00\n        /* \"#utility.yul\":526:527   */\n      0x00\n        /* \"#utility.yul\":519:531   */\n      revert\n        /* \"#utility.yul\":470:533   */\n    tag_100:\n        /* \"#utility.yul\":417:539   */\n      pop\n      jump\t// out\n        /* \"#utility.yul\":545:684   */\n    tag_77:\n        /* \"#utility.yul\":591:596   */\n      0x00\n        /* \"#utility.yul\":629:635   */\n      dup2\n        /* \"#utility.yul\":616:636   */\n      calldataload\n        /* \"#utility.yul\":607:636   */\n      swap1\n      pop\n        /* \"#utility.yul\":645:678   */\n      tag_102\n        /* \"#utility.yul\":672:677   */\n      dup2\n        /* \"#utility.yul\":645:678   */\n      tag_76\n      jump\t// in\n    tag_102:\n        /* \"#utility.yul\":545:684   */\n      swap3\n      swap2\n      pop\n      pop\n      jump\t// out\n        /* \"#utility.yul\":690:1019   */\n    tag_13:\n        /* \"#utility.yul\":749:755   */\n      0x00\n        /* \"#utility.yul\":798:800   */\n      0x20\n        /* \"#utility.yul\":786:795   */\n      dup3\n        /* \"#utility.yul\":777:784   */\n      dup5\n        /* \"#utility.yul\":773:796   */\n      sub\n        /* \"#utility.yul\":769:801   */\n      slt\n        /* \"#utility.yul\":766:885   */\n      iszero\n      tag_104\n      jumpi\n        /* \"#utility.yul\":804:883   */\n      tag_105\n      tag_73\n      jump\t// in\n    tag_105:\n        /* \"#utility.yul\":766:885   */\n    tag_104:\n        /* \"#utility.yul\":924:925   */\n      0x00\n        /* \"#utility.yul\":949:1002   */\n      tag_106\n        /* \"#utility.yul\":994:1001   */\n      dup5\n        /* \"#utility.yul\":985:991   */\n      dup3\n        /* \"#utility.yul\":974:983   */\n      dup6\n        /* \"#utility.yul\":970:992   */\n      add\n        /* \"#utility.yul\":949:1002   */\n      tag_77\n      jump\t// in\n    tag_106:\n        /* \"#utility.yul\":939:1002   */\n      swap2\n      pop\n        /* \"#utility.yul\":895:1012   */\n      pop\n        /* \"#utility.yul\":690:1019   */\n      swap3\n      swap2\n      pop\n      pop\n      jump\t// out\n        /* \"#utility.yul\":1025:1143   */\n    tag_78:\n        /* \"#utility.yul\":1112:1136   */\n      tag_108\n        /* \"#utility.yul\":1130:1135   */\n      dup2\n        /* \"#utility.yul\":1112:1136   */\n      tag_75\n      jump\t// in\n    tag_108:\n        /* \"#utility.yul\":1107:1110   */\n      dup3\n        /* \"#utility.yul\":1100:1137   */\n      mstore\n        /* \"#utility.yul\":1025:1143   */\n      pop\n      pop\n      jump\t// out\n        /* \"#utility.yul\":1149:1371   */\n    tag_18:\n        /* \"#utility.yul\":1242:1246   */\n      0x00\n        /* \"#utility.yul\":1280:1282   */\n      0x20\n        /* \"#utility.yul\":1269:1278   */\n      dup3\n        /* \"#utility.yul\":1265:1283   */\n      add\n        /* \"#utility.yul\":1257:1283   */\n      swap1\n      pop\n        /* \"#utility.yul\":1293:1364   */\n      tag_110\n        /* \"#utility.yul\":1361:1362   */\n      0x00\n        /* \"#utility.yul\":1350:1359   */\n      dup4\n        /* \"#utility.yul\":1346:1363   */\n      add\n        /* \"#utility.yul\":1337:1343   */\n      dup5\n        /* \"#utility.yul\":1293:1364   */\n      tag_78\n      jump\t// in\n    tag_110:\n        /* \"#utility.yul\":1149:1371   */\n      swap3\n      swap2\n      pop\n      pop\n      jump\t// out\n        /* \"#utility.yul\":1377:1503   */\n    tag_79:\n        /* \"#utility.yul\":1414:1421   */\n      0x00\n        /* \"#utility.yul\":1454:1496   */\n      0xffffffffffffffffffffffffffffffffffffffff\n        /* \"#utility.yul\":1447:1452   */\n      dup3\n        /* \"#utility.yul\":1443:1497   */\n      and\n        /* \"#utility.yul\":1432:1497   */\n      swap1\n      pop\n        /* \"#utility.yul\":1377:1503   */\n      swap2\n      swap1\n      pop\n      jump\t// out\n        /* \"#utility.yul\":1509:1605   */\n    tag_80:\n        /* \"#utility.yul\":1546:1553   */\n      0x00\n        /* \"#utility.yul\":1575:1599   */\n      tag_113\n        /* \"#utility.yul\":1593:1598   */\n      dup3\n        /* \"#utility.yul\":1575:1599   */\n      tag_79\n      jump\t// in\n    tag_113:\n        /* \"#utility.yul\":1564:1599   */\n      swap1\n      pop\n        /* \"#utility.yul\":1509:1605   */\n      swap2\n      swap1\n      pop\n      jump\t// out\n        /* \"#utility.yul\":1611:1729   */\n    tag_81:\n        /* \"#utility.yul\":1698:1722   */\n      tag_115\n        /* \"#utility.yul\":1716:1721   */\n      dup2\n        /* \"#utility.yul\":1698:1722   */\n      tag_80\n      jump\t// in\n    tag_115:\n        /* \"#utility.yul\":1693:1696   */\n      dup3\n        /* \"#utility.yul\":1686:1723   */\n      mstore\n        /* \"#utility.yul\":1611:1729   */\n      pop\n      pop\n      jump\t// out\n        /* \"#utility.yul\":1735:1957   */\n    tag_25:\n        /* \"#utility.yul\":1828:1832   */\n      0x00\n        /* \"#utility.yul\":1866:1868   */\n      0x20\n        /* \"#utility.yul\":1855:1864   */\n      dup3\n        /* \"#utility.yul\":1851:1869   */\n      add\n        /* \"#utility.yul\":1843:1869   */\n      swap1\n      pop\n        /* \"#utility.yul\":1879:1950   */\n      tag_117\n        /* \"#utility.yul\":1947:1948   */\n      0x00\n        /* \"#utility.yul\":1936:1945   */\n      dup4\n        /* \"#utility.yul\":1932:1949   */\n      add\n        /* \"#utility.yul\":1923:1929   */\n      dup5\n        /* \"#utility.yul\":1879:1950   */\n      tag_81\n      jump\t// in\n    tag_117:\n        /* \"#utility.yul\":1735:1957   */\n      swap3\n      swap2\n      pop\n      pop\n      jump\t// out\n        /* \"#utility.yul\":1963:2053   */\n    tag_82:\n        /* \"#utility.yul\":1997:2004   */\n      0x00\n        /* \"#utility.yul\":2040:2045   */\n      dup2\n        /* \"#utility.yul\":2033:2046   */\n      iszero\n        /* \"#utility.yul\":2026:2047   */\n      iszero\n        /* \"#utility.yul\":2015:2047   */\n      swap1\n      pop\n        /* \"#utility.yul\":1963:2053   */\n      swap2\n      swap1\n      pop\n      jump\t// out\n        /* \"#utility.yul\":2059:2168   */\n    tag_83:\n        /* \"#utility.yul\":2140:2161   */\n      tag_120\n        /* \"#utility.yul\":2155:2160   */\n      dup2\n        /* \"#utility.yul\":2140:2161   */\n      tag_82\n      jump\t// in\n    tag_120:\n        /* \"#utility.yul\":2135:2138   */\n      dup3\n        /* \"#utility.yul\":2128:2162   */\n      mstore\n        /* \"#utility.yul\":2059:2168   */\n      pop\n      pop\n      jump\t// out\n        /* \"#utility.yul\":2174:2604   */\n    tag_36:\n        /* \"#utility.yul\":2317:2321   */\n      0x00\n        /* \"#utility.yul\":2355:2357   */\n      0x60\n        /* \"#utility.yul\":2344:2353   */\n      dup3\n        /* \"#utility.yul\":2340:2358   */\n      add\n        /* \"#utility.yul\":2332:2358   */\n      swap1\n      pop\n        /* \"#utility.yul\":2368:2439   */\n      tag_122\n        /* \"#utility.yul\":2436:2437   */\n      0x00\n        /* \"#utility.yul\":2425:2434   */\n      dup4\n        /* \"#utility.yul\":2421:2438   */\n      add\n        /* \"#utility.yul\":2412:2418   */\n      dup7\n        /* \"#utility.yul\":2368:2439   */\n      tag_81\n      jump\t// in\n    tag_122:\n        /* \"#utility.yul\":2449:2521   */\n      tag_123\n        /* \"#utility.yul\":2517:2519   */\n      0x20\n        /* \"#utility.yul\":2506:2515   */\n      dup4\n        /* \"#utility.yul\":2502:2520   */\n      add\n        /* \"#utility.yul\":2493:2499   */\n      dup6\n        /* \"#utility.yul\":2449:2521   */\n      tag_78\n      jump\t// in\n    tag_123:\n        /* \"#utility.yul\":2531:2597   */\n      tag_124\n        /* \"#utility.yul\":2593:2595   */\n      0x40\n        /* \"#utility.yul\":2582:2591   */\n      dup4\n        /* \"#utility.yul\":2578:2596   */\n      add\n        /* \"#utility.yul\":2569:2575   */\n      dup5\n        /* \"#utility.yul\":2531:2597   */\n      tag_83\n      jump\t// in\n    tag_124:\n        /* \"#utility.yul\":2174:2604   */\n      swap5\n      swap4\n      pop\n      pop\n      pop\n      pop\n      jump\t// out\n        /* \"#utility.yul\":2610:2779   */\n    tag_84:\n        /* \"#utility.yul\":2694:2705   */\n      0x00\n        /* \"#utility.yul\":2728:2734   */\n      dup3\n        /* \"#utility.yul\":2723:2726   */\n      dup3\n        /* \"#utility.yul\":2716:2735   */\n      mstore\n        /* \"#utility.yul\":2768:2772   */\n      0x20\n        /* \"#utility.yul\":2763:2766   */\n      dup3\n        /* \"#utility.yul\":2759:2773   */\n      add\n        /* \"#utility.yul\":2744:2773   */\n      swap1\n      pop\n        /* \"#utility.yul\":2610:2779   */\n      swap3\n      swap2\n      pop\n      pop\n      jump\t// out\n        /* \"#utility.yul\":2785:2954   */\n    tag_85:\n        /* \"#utility.yul\":2925:2946   */\n      0x496e76616c6964206c6f616e20616d6f756e7400000000000000000000000000\n        /* \"#utility.yul\":2921:2922   */\n      0x00\n        /* \"#utility.yul\":2913:2919   */\n      dup3\n        /* \"#utility.yul\":2909:2923   */\n      add\n        /* \"#utility.yul\":2902:2947   */\n      mstore\n        /* \"#utility.yul\":2785:2954   */\n      pop\n      jump\t// out\n        /* \"#utility.yul\":2960:3326   */\n    tag_86:\n        /* \"#utility.yul\":3102:3105   */\n      0x00\n        /* \"#utility.yul\":3123:3190   */\n      tag_128\n        /* \"#utility.yul\":3187:3189   */\n      0x13\n        /* \"#utility.yul\":3182:3185   */\n      dup4\n        /* \"#utility.yul\":3123:3190   */\n      tag_84\n      jump\t// in\n    tag_128:\n        /* \"#utility.yul\":3116:3190   */\n      swap2\n      pop\n        /* \"#utility.yul\":3199:3292   */\n      tag_129\n        /* \"#utility.yul\":3288:3291   */\n      dup3\n        /* \"#utility.yul\":3199:3292   */\n      tag_85\n      jump\t// in\n    tag_129:\n        /* \"#utility.yul\":3317:3319   */\n      0x20\n        /* \"#utility.yul\":3312:3315   */\n      dup3\n        /* \"#utility.yul\":3308:3320   */\n      add\n        /* \"#utility.yul\":3301:3320   */\n      swap1\n      pop\n        /* \"#utility.yul\":2960:3326   */\n      swap2\n      swap1\n      pop\n      jump\t// out\n        /* \"#utility.yul\":3332:3751   */\n    tag_41:\n        /* \"#utility.yul\":3498:3502   */\n      0x00\n        /* \"#utility.yul\":3536:3538   */\n      0x20\n        /* \"#utility.yul\":3525:3534   */\n      dup3\n        /* \"#utility.yul\":3521:3539   */\n      add\n        /* \"#utility.yul\":3513:3539   */\n      swap1\n      pop\n        /* \"#utility.yul\":3585:3594   */\n      dup2\n        /* \"#utility.yul\":3579:3583   */\n      dup2\n        /* \"#utility.yul\":3575:3595   */\n      sub\n        /* \"#utility.yul\":3571:3572   */\n      0x00\n        /* \"#utility.yul\":3560:3569   */\n      dup4\n        /* \"#utility.yul\":3556:3573   */\n      add\n        /* \"#utility.yul\":3549:3596   */\n      mstore\n        /* \"#utility.yul\":3613:3744   */\n      tag_131\n        /* \"#utility.yul\":3739:3743   */\n      dup2\n        /* \"#utility.yul\":3613:3744   */\n      tag_86\n      jump\t// in\n    tag_131:\n        /* \"#utility.yul\":3605:3744   */\n      swap1\n      pop\n        /* \"#utility.yul\":3332:3751   */\n      swap2\n      swap1\n      pop\n      jump\t// out\n        /* \"#utility.yul\":3757:3930   */\n    tag_87:\n        /* \"#utility.yul\":3897:3922   */\n      0x4f6e6c792062616e6b206f776e657220616c6c6f776564000000000000000000\n        /* \"#utility.yul\":3893:3894   */\n      0x00\n        /* \"#utility.yul\":3885:3891   */\n      dup3\n        /* \"#utility.yul\":3881:3895   */\n      add\n        /* \"#utility.yul\":3874:3923   */\n      mstore\n        /* \"#utility.yul\":3757:3930   */\n      pop\n      jump\t// out\n        /* \"#utility.yul\":3936:4302   */\n    tag_88:\n        /* \"#utility.yul\":4078:4081   */\n      0x00\n        /* \"#utility.yul\":4099:4166   */\n      tag_134\n        /* \"#utility.yul\":4163:4165   */\n      0x17\n        /* \"#utility.yul\":4158:4161   */\n      dup4\n        /* \"#utility.yul\":4099:4166   */\n      tag_84\n      jump\t// in\n    tag_134:\n        /* \"#utility.yul\":4092:4166   */\n      swap2\n      pop\n        /* \"#utility.yul\":4175:4268   */\n      tag_135\n        /* \"#utility.yul\":4264:4267   */\n      dup3\n        /* \"#utility.yul\":4175:4268   */\n      tag_87\n      jump\t// in\n    tag_135:\n        /* \"#utility.yul\":4293:4295   */\n      0x20\n        /* \"#utility.yul\":4288:4291   */\n      dup3\n        /* \"#utility.yul\":4284:4296   */\n      add\n        /* \"#utility.yul\":4277:4296   */\n      swap1\n      pop\n        /* \"#utility.yul\":3936:4302   */\n      swap2\n      swap1\n      pop\n      jump\t// out\n        /* \"#utility.yul\":4308:4727   */\n    tag_47:\n        /* \"#utility.yul\":4474:4478   */\n      0x00\n        /* \"#utility.yul\":4512:4514   */\n      0x20\n        /* \"#utility.yul\":4501:4510   */\n      dup3\n        /* \"#utility.yul\":4497:4515   */\n      add\n        /* \"#utility.yul\":4489:4515   */\n      swap1\n      pop\n        /* \"#utility.yul\":4561:4570   */\n      dup2\n        /* \"#utility.yul\":4555:4559   */\n      dup2\n        /* \"#utility.yul\":4551:4571   */\n      sub\n        /* \"#utility.yul\":4547:4548   */\n      0x00\n        /* \"#utility.yul\":4536:4545   */\n      dup4\n        /* \"#utility.yul\":4532:4549   */\n      add\n        /* \"#utility.yul\":4525:4572   */\n      mstore\n        /* \"#utility.yul\":4589:4720   */\n      tag_137\n        /* \"#utility.yul\":4715:4719   */\n      dup2\n        /* \"#utility.yul\":4589:4720   */\n      tag_88\n      jump\t// in\n    tag_137:\n        /* \"#utility.yul\":4581:4720   */\n      swap1\n      pop\n        /* \"#utility.yul\":4308:4727   */\n      swap2\n      swap1\n      pop\n      jump\t// out\n        /* \"#utility.yul\":4733:4898   */\n    tag_89:\n        /* \"#utility.yul\":4873:4890   */\n      0x496e76616c6964206c6f616e2049440000000000000000000000000000000000\n        /* \"#utility.yul\":4869:4870   */\n      0x00\n        /* \"#utility.yul\":4861:4867   */\n      dup3\n        /* \"#utility.yul\":4857:4871   */\n      add\n        /* \"#utility.yul\":4850:4891   */\n      mstore\n        /* \"#utility.yul\":4733:4898   */\n      pop\n      jump\t// out\n        /* \"#utility.yul\":4904:5270   */\n    tag_90:\n        /* \"#utility.yul\":5046:5049   */\n      0x00\n        /* \"#utility.yul\":5067:5134   */\n      tag_140\n        /* \"#utility.yul\":5131:5133   */\n      0x0f\n        /* \"#utility.yul\":5126:5129   */\n      dup4\n        /* \"#utility.yul\":5067:5134   */\n      tag_84\n      jump\t// in\n    tag_140:\n        /* \"#utility.yul\":5060:5134   */\n      swap2\n      pop\n        /* \"#utility.yul\":5143:5236   */\n      tag_141\n        /* \"#utility.yul\":5232:5235   */\n      dup3\n        /* \"#utility.yul\":5143:5236   */\n      tag_89\n      jump\t// in\n    tag_141:\n        /* \"#utility.yul\":5261:5263   */\n      0x20\n        /* \"#utility.yul\":5256:5259   */\n      dup3\n        /* \"#utility.yul\":5252:5264   */\n      add\n        /* \"#utility.yul\":5245:5264   */\n      swap1\n      pop\n        /* \"#utility.yul\":4904:5270   */\n      swap2\n      swap1\n      pop\n      jump\t// out\n        /* \"#utility.yul\":5276:5695   */\n    tag_51:\n        /* \"#utility.yul\":5442:5446   */\n      0x00\n        /* \"#utility.yul\":5480:5482   */\n      0x20\n        /* \"#utility.yul\":5469:5478   */\n      dup3\n        /* \"#utility.yul\":5465:5483   */\n      add\n        /* \"#utility.yul\":5457:5483   */\n      swap1\n      pop\n        /* \"#utility.yul\":5529:5538   */\n      dup2\n        /* \"#utility.yul\":5523:5527   */\n      dup2\n        /* \"#utility.yul\":5519:5539   */\n      sub\n        /* \"#utility.yul\":5515:5516   */\n      0x00\n        /* \"#utility.yul\":5504:5513   */\n      dup4\n        /* \"#utility.yul\":5500:5517   */\n      add\n        /* \"#utility.yul\":5493:5540   */\n      mstore\n        /* \"#utility.yul\":5557:5688   */\n      tag_143\n        /* \"#utility.yul\":5683:5687   */\n      dup2\n        /* \"#utility.yul\":5557:5688   */\n      tag_90\n      jump\t// in\n    tag_143:\n        /* \"#utility.yul\":5549:5688   */\n      swap1\n      pop\n        /* \"#utility.yul\":5276:5695   */\n      swap2\n      swap1\n      pop\n      jump\t// out\n        /* \"#utility.yul\":5701:5881   */\n    tag_54:\n        /* \"#utility.yul\":5749:5826   */\n      0x4e487b7100000000000000000000000000000000000000000000000000000000\n        /* \"#utility.yul\":5746:5747   */\n      0x00\n        /* \"#utility.yul\":5739:5827   */\n      mstore\n        /* \"#utility.yul\":5846:5850   */\n      0x32\n        /* \"#utility.yul\":5843:5844   */\n      0x04\n        /* \"#utility.yul\":5836:5851   */\n      mstore\n        /* \"#utility.yul\":5870:5874   */\n      0x24\n        /* \"#utility.yul\":5867:5868   */\n      0x00\n        /* \"#utility.yul\":5860:5875   */\n      revert\n        /* \"#utility.yul\":5887:6053   */\n    tag_91:\n        /* \"#utility.yul\":6027:6045   */\n      0x416c726561647920617070726f76656400000000000000000000000000000000\n        /* \"#utility.yul\":6023:6024   */\n      0x00\n        /* \"#utility.yul\":6015:6021   */\n      dup3\n        /* \"#utility.yul\":6011:6025   */\n      add\n        /* \"#utility.yul\":6004:6046   */\n      mstore\n        /* \"#utility.yul\":5887:6053   */\n      pop\n      jump\t// out\n        /* \"#utility.yul\":6059:6425   */\n    tag_92:\n        /* \"#utility.yul\":6201:6204   */\n      0x00\n        /* \"#utility.yul\":6222:6289   */\n      tag_147\n        /* \"#utility.yul\":6286:6288   */\n      0x10\n        /* \"#utility.yul\":6281:6284   */\n      dup4\n        /* \"#utility.yul\":6222:6289   */\n      tag_84\n      jump\t// in\n    tag_147:\n        /* \"#utility.yul\":6215:6289   */\n      swap2\n      pop\n        /* \"#utility.yul\":6298:6391   */\n      tag_148\n        /* \"#utility.yul\":6387:6390   */\n      dup3\n        /* \"#utility.yul\":6298:6391   */\n      tag_91\n      jump\t// in\n    tag_148:\n        /* \"#utility.yul\":6416:6418   */\n      0x20\n        /* \"#utility.yul\":6411:6414   */\n      dup3\n        /* \"#utility.yul\":6407:6419   */\n      add\n        /* \"#utility.yul\":6400:6419   */\n      swap1\n      pop\n        /* \"#utility.yul\":6059:6425   */\n      swap2\n      swap1\n      pop\n      jump\t// out\n        /* \"#utility.yul\":6431:6850   */\n    tag_58:\n        /* \"#utility.yul\":6597:6601   */\n      0x00\n        /* \"#utility.yul\":6635:6637   */\n      0x20\n        /* \"#utility.yul\":6624:6633   */\n      dup3\n        /* \"#utility.yul\":6620:6638   */\n      add\n        /* \"#utility.yul\":6612:6638   */\n      swap1\n      pop\n        /* \"#utility.yul\":6684:6693   */\n      dup2\n        /* \"#utility.yul\":6678:6682   */\n      dup2\n        /* \"#utility.yul\":6674:6694   */\n      sub\n        /* \"#utility.yul\":6670:6671   */\n      0x00\n        /* \"#utility.yul\":6659:6668   */\n      dup4\n        /* \"#utility.yul\":6655:6672   */\n      add\n        /* \"#utility.yul\":6648:6695   */\n      mstore\n        /* \"#utility.yul\":6712:6843   */\n      tag_150\n        /* \"#utility.yul\":6838:6842   */\n      dup2\n        /* \"#utility.yul\":6712:6843   */\n      tag_92\n      jump\t// in\n    tag_150:\n        /* \"#utility.yul\":6704:6843   */\n      swap1\n      pop\n        /* \"#utility.yul\":6431:6850   */\n      swap2\n      swap1\n      pop\n      jump\t// out\n        /* \"#utility.yul\":6856:7188   */\n    tag_69:\n        /* \"#utility.yul\":6977:6981   */\n      0x00\n        /* \"#utility.yul\":7015:7017   */\n      0x40\n        /* \"#utility.yul\":7004:7013   */\n      dup3\n        /* \"#utility.yul\":7000:7018   */\n      add\n        /* \"#utility.yul\":6992:7018   */\n      swap1\n      pop\n        /* \"#utility.yul\":7028:7099   */\n      tag_152\n        /* \"#utility.yul\":7096:7097   */\n      0x00\n        /* \"#utility.yul\":7085:7094   */\n      dup4\n        /* \"#utility.yul\":7081:7098   */\n      add\n        /* \"#utility.yul\":7072:7078   */\n      dup6\n        /* \"#utility.yul\":7028:7099   */\n      tag_78\n      jump\t// in\n    tag_152:\n        /* \"#utility.yul\":7109:7181   */\n      tag_153\n        /* \"#utility.yul\":7177:7179   */\n      0x20\n        /* \"#utility.yul\":7166:7175   */\n      dup4\n        /* \"#utility.yul\":7162:7180   */\n      add\n        /* \"#utility.yul\":7153:7159   */\n      dup5\n        /* \"#utility.yul\":7109:7181   */\n      tag_78\n      jump\t// in\n    tag_153:\n        /* \"#utility.yul\":6856:7188   */\n      swap4\n      swap3\n      pop\n      pop\n      pop\n      jump\t// out\n\n    auxdata: 0xa2646970667358221220224502626fd5e3d8f03027925359fb8ee0a157291dda15b376bb17c40a0ce6e864736f6c63430008220033\n}\n",
				"bytecode": {
					"linkReferences": {},
					"object": "608060405260018055600a6002553480156017575f5ffd5b50335f5f6101000a81548173ffffffffffffffffffffffffffffffffffffffff021916908373ffffffffffffffffffffffffffffffffffffffff1602179055506108bf806100645f395ff3fe608060405234801561000f575f5ffd5b506004361061007b575f3560e01c80638da5cb5b116100595780638da5cb5b146100d7578063aadc1ac1146100f5578063e06a913814610111578063e1ec3c681461012f5761007b565b80634b7253bf1461007f57806372f943651461009b578063833be5d5146100b9575b5f5ffd5b6100996004803603810190610094919061058b565b610161565b005b6100a3610281565b6040516100b091906105c5565b60405180910390f35b6100c1610287565b6040516100ce91906105c5565b60405180910390f35b6100df610293565b6040516100ec919061061d565b60405180910390f35b61010f600480360381019061010a919061058b565b6102b7565b005b6101196104ee565b60405161012691906105c5565b60405180910390f35b6101496004803603810190610144919061058b565b6104f4565b60405161015893929190610650565b60405180910390f35b600154811015801561017557506002548111155b6101b4576040517f08c379a00000000000000000000000000000000000000000000000000000000081526004016101ab906106df565b60405180910390fd5b600360405180606001604052803373ffffffffffffffffffffffffffffffffffffffff1681526020018381526020015f1515815250908060018154018082558091505060019003905f5260205f2090600302015f909190919091505f820151815f015f6101000a81548173ffffffffffffffffffffffffffffffffffffffff021916908373ffffffffffffffffffffffffffffffffffffffff160217905550602082015181600101556040820151816002015f6101000a81548160ff021916908315150217905550505050565b60025481565b5f600380549050905090565b5f5f9054906101000a900473ffffffffffffffffffffffffffffffffffffffff1681565b5f5f9054906101000a900473ffffffffffffffffffffffffffffffffffffffff1673ffffffffffffffffffffffffffffffffffffffff163373ffffffffffffffffffffffffffffffffffffffff1614610345576040517f08c379a000000000000000000000000000000000000000000000000000000000815260040161033c90610747565b60405180910390fd5b600380549050811061038c576040517f08c379a0000000000000000000000000000000000000000000000000000000008152600401610383906107af565b60405180910390fd5b600381815481106103a05761039f6107cd565b5b905f5260205f2090600302016002015f9054906101000a900460ff16156103fc576040517f08c379a00000000000000000000000000000000000000000000000000000000081526004016103f390610844565b60405180910390fd5b600160038281548110610412576104116107cd565b5b905f5260205f2090600302016002015f6101000a81548160ff0219169083151502179055506003818154811061044b5761044a6107cd565b5b905f5260205f2090600302015f015f9054906101000a900473ffffffffffffffffffffffffffffffffffffffff1673ffffffffffffffffffffffffffffffffffffffff167f1a8ecea83cbcff0f4c46b7e42f55227161863220eb7d439fde442dfdc0ddbc4e600383815481106104c4576104c36107cd565b5b905f5260205f20906003020160010154836040516104e3929190610862565b60405180910390a250565b60015481565b60038181548110610503575f80fd5b905f5260205f2090600302015f91509050805f015f9054906101000a900473ffffffffffffffffffffffffffffffffffffffff1690806001015490806002015f9054906101000a900460ff16905083565b5f5ffd5b5f819050919050565b61056a81610558565b8114610574575f5ffd5b50565b5f8135905061058581610561565b92915050565b5f602082840312156105a05761059f610554565b5b5f6105ad84828501610577565b91505092915050565b6105bf81610558565b82525050565b5f6020820190506105d85f8301846105b6565b92915050565b5f73ffffffffffffffffffffffffffffffffffffffff82169050919050565b5f610607826105de565b9050919050565b610617816105fd565b82525050565b5f6020820190506106305f83018461060e565b92915050565b5f8115159050919050565b61064a81610636565b82525050565b5f6060820190506106635f83018661060e565b61067060208301856105b6565b61067d6040830184610641565b949350505050565b5f82825260208201905092915050565b7f496e76616c6964206c6f616e20616d6f756e74000000000000000000000000005f82015250565b5f6106c9601383610685565b91506106d482610695565b602082019050919050565b5f6020820190508181035f8301526106f6816106bd565b9050919050565b7f4f6e6c792062616e6b206f776e657220616c6c6f7765640000000000000000005f82015250565b5f610731601783610685565b915061073c826106fd565b602082019050919050565b5f6020820190508181035f83015261075e81610725565b9050919050565b7f496e76616c6964206c6f616e20494400000000000000000000000000000000005f82015250565b5f610799600f83610685565b91506107a482610765565b602082019050919050565b5f6020820190508181035f8301526107c68161078d565b9050919050565b7f4e487b71000000000000000000000000000000000000000000000000000000005f52603260045260245ffd5b7f416c726561647920617070726f766564000000000000000000000000000000005f82015250565b5f61082e601083610685565b9150610839826107fa565b602082019050919050565b5f6020820190508181035f83015261085b81610822565b9050919050565b5f6040820190506108755f8301856105b6565b61088260208301846105b6565b939250505056fea2646970667358221220224502626fd5e3d8f03027925359fb8ee0a157291dda15b376bb17c40a0ce6e864736f6c63430008220033",
					"opcodes": "PUSH1 0x80 PUSH1 0x40 MSTORE PUSH1 0x1 DUP1 SSTORE PUSH1 0xA PUSH1 0x2 SSTORE CALLVALUE DUP1 ISZERO PUSH1 0x17 JUMPI PUSH0 PUSH0 REVERT JUMPDEST POP CALLER PUSH0 PUSH0 PUSH2 0x100 EXP DUP2 SLOAD DUP2 PUSH20 0xFFFFFFFFFFFFFFFFFFFFFFFFFFFFFFFFFFFFFFFF MUL NOT AND SWAP1 DUP4 PUSH20 0xFFFFFFFFFFFFFFFFFFFFFFFFFFFFFFFFFFFFFFFF AND MUL OR SWAP1 SSTORE POP PUSH2 0x8BF DUP1 PUSH2 0x64 PUSH0 CODECOPY PUSH0 RETURN INVALID PUSH1 0x80 PUSH1 0x40 MSTORE CALLVALUE DUP1 ISZERO PUSH2 0xF JUMPI PUSH0 PUSH0 REVERT JUMPDEST POP PUSH1 0x4 CALLDATASIZE LT PUSH2 0x7B JUMPI PUSH0 CALLDATALOAD PUSH1 0xE0 SHR DUP1 PUSH4 0x8DA5CB5B GT PUSH2 0x59 JUMPI DUP1 PUSH4 0x8DA5CB5B EQ PUSH2 0xD7 JUMPI DUP1 PUSH4 0xAADC1AC1 EQ PUSH2 0xF5 JUMPI DUP1 PUSH4 0xE06A9138 EQ PUSH2 0x111 JUMPI DUP1 PUSH4 0xE1EC3C68 EQ PUSH2 0x12F JUMPI PUSH2 0x7B JUMP JUMPDEST DUP1 PUSH4 0x4B7253BF EQ PUSH2 0x7F JUMPI DUP1 PUSH4 0x72F94365 EQ PUSH2 0x9B JUMPI DUP1 PUSH4 0x833BE5D5 EQ PUSH2 0xB9 JUMPI JUMPDEST PUSH0 PUSH0 REVERT JUMPDEST PUSH2 0x99 PUSH1 0x4 DUP1 CALLDATASIZE SUB DUP2 ADD SWAP1 PUSH2 0x94 SWAP2 SWAP1 PUSH2 0x58B JUMP JUMPDEST PUSH2 0x161 JUMP JUMPDEST STOP JUMPDEST PUSH2 0xA3 PUSH2 0x281 JUMP JUMPDEST PUSH1 0x40 MLOAD PUSH2 0xB0 SWAP2 SWAP1 PUSH2 0x5C5 JUMP JUMPDEST PUSH1 0x40 MLOAD DUP1 SWAP2 SUB SWAP1 RETURN JUMPDEST PUSH2 0xC1 PUSH2 0x287 JUMP JUMPDEST PUSH1 0x40 MLOAD PUSH2 0xCE SWAP2 SWAP1 PUSH2 0x5C5 JUMP JUMPDEST PUSH1 0x40 MLOAD DUP1 SWAP2 SUB SWAP1 RETURN JUMPDEST PUSH2 0xDF PUSH2 0x293 JUMP JUMPDEST PUSH1 0x40 MLOAD PUSH2 0xEC SWAP2 SWAP1 PUSH2 0x61D JUMP JUMPDEST PUSH1 0x40 MLOAD DUP1 SWAP2 SUB SWAP1 RETURN JUMPDEST PUSH2 0x10F PUSH1 0x4 DUP1 CALLDATASIZE SUB DUP2 ADD SWAP1 PUSH2 0x10A SWAP2 SWAP1 PUSH2 0x58B JUMP JUMPDEST PUSH2 0x2B7 JUMP JUMPDEST STOP JUMPDEST PUSH2 0x119 PUSH2 0x4EE JUMP JUMPDEST PUSH1 0x40 MLOAD PUSH2 0x126 SWAP2 SWAP1 PUSH2 0x5C5 JUMP JUMPDEST PUSH1 0x40 MLOAD DUP1 SWAP2 SUB SWAP1 RETURN JUMPDEST PUSH2 0x149 PUSH1 0x4 DUP1 CALLDATASIZE SUB DUP2 ADD SWAP1 PUSH2 0x144 SWAP2 SWAP1 PUSH2 0x58B JUMP JUMPDEST PUSH2 0x4F4 JUMP JUMPDEST PUSH1 0x40 MLOAD PUSH2 0x158 SWAP4 SWAP3 SWAP2 SWAP1 PUSH2 0x650 JUMP JUMPDEST PUSH1 0x40 MLOAD DUP1 SWAP2 SUB SWAP1 RETURN JUMPDEST PUSH1 0x1 SLOAD DUP2 LT ISZERO DUP1 ISZERO PUSH2 0x175 JUMPI POP PUSH1 0x2 SLOAD DUP2 GT ISZERO JUMPDEST PUSH2 0x1B4 JUMPI PUSH1 0x40 MLOAD PUSH32 0x8C379A000000000000000000000000000000000000000000000000000000000 DUP2 MSTORE PUSH1 0x4 ADD PUSH2 0x1AB SWAP1 PUSH2 0x6DF JUMP JUMPDEST PUSH1 0x40 MLOAD DUP1 SWAP2 SUB SWAP1 REVERT JUMPDEST PUSH1 0x3 PUSH1 0x40 MLOAD DUP1 PUSH1 0x60 ADD PUSH1 0x40 MSTORE DUP1 CALLER PUSH20 0xFFFFFFFFFFFFFFFFFFFFFFFFFFFFFFFFFFFFFFFF AND DUP2 MSTORE PUSH1 0x20 ADD DUP4 DUP2 MSTORE PUSH1 0x20 ADD PUSH0 ISZERO ISZERO DUP2 MSTORE POP SWAP1 DUP1 PUSH1 0x1 DUP2 SLOAD ADD DUP1 DUP3 SSTORE DUP1 SWAP2 POP POP PUSH1 0x1 SWAP1 SUB SWAP1 PUSH0 MSTORE PUSH1 0x20 PUSH0 KECCAK256 SWAP1 PUSH1 0x3 MUL ADD PUSH0 SWAP1 SWAP2 SWAP1 SWAP2 SWAP1 SWAP2 POP PUSH0 DUP3 ADD MLOAD DUP2 PUSH0 ADD PUSH0 PUSH2 0x100 EXP DUP2 SLOAD DUP2 PUSH20 0xFFFFFFFFFFFFFFFFFFFFFFFFFFFFFFFFFFFFFFFF MUL NOT AND SWAP1 DUP4 PUSH20 0xFFFFFFFFFFFFFFFFFFFFFFFFFFFFFFFFFFFFFFFF AND MUL OR SWAP1 SSTORE POP PUSH1 0x20 DUP3 ADD MLOAD DUP2 PUSH1 0x1 ADD SSTORE PUSH1 0x40 DUP3 ADD MLOAD DUP2 PUSH1 0x2 ADD PUSH0 PUSH2 0x100 EXP DUP2 SLOAD DUP2 PUSH1 0xFF MUL NOT AND SWAP1 DUP4 ISZERO ISZERO MUL OR SWAP1 SSTORE POP POP POP POP JUMP JUMPDEST PUSH1 0x2 SLOAD DUP2 JUMP JUMPDEST PUSH0 PUSH1 0x3 DUP1 SLOAD SWAP1 POP SWAP1 POP SWAP1 JUMP JUMPDEST PUSH0 PUSH0 SWAP1 SLOAD SWAP1 PUSH2 0x100 EXP SWAP1 DIV PUSH20 0xFFFFFFFFFFFFFFFFFFFFFFFFFFFFFFFFFFFFFFFF AND DUP2 JUMP JUMPDEST PUSH0 PUSH0 SWAP1 SLOAD SWAP1 PUSH2 0x100 EXP SWAP1 DIV PUSH20 0xFFFFFFFFFFFFFFFFFFFFFFFFFFFFFFFFFFFFFFFF AND PUSH20 0xFFFFFFFFFFFFFFFFFFFFFFFFFFFFFFFFFFFFFFFF AND CALLER PUSH20 0xFFFFFFFFFFFFFFFFFFFFFFFFFFFFFFFFFFFFFFFF AND EQ PUSH2 0x345 JUMPI PUSH1 0x40 MLOAD PUSH32 0x8C379A000000000000000000000000000000000000000000000000000000000 DUP2 MSTORE PUSH1 0x4 ADD PUSH2 0x33C SWAP1 PUSH2 0x747 JUMP JUMPDEST PUSH1 0x40 MLOAD DUP1 SWAP2 SUB SWAP1 REVERT JUMPDEST PUSH1 0x3 DUP1 SLOAD SWAP1 POP DUP2 LT PUSH2 0x38C JUMPI PUSH1 0x40 MLOAD PUSH32 0x8C379A000000000000000000000000000000000000000000000000000000000 DUP2 MSTORE PUSH1 0x4 ADD PUSH2 0x383 SWAP1 PUSH2 0x7AF JUMP JUMPDEST PUSH1 0x40 MLOAD DUP1 SWAP2 SUB SWAP1 REVERT JUMPDEST PUSH1 0x3 DUP2 DUP2 SLOAD DUP2 LT PUSH2 0x3A0 JUMPI PUSH2 0x39F PUSH2 0x7CD JUMP JUMPDEST JUMPDEST SWAP1 PUSH0 MSTORE PUSH1 0x20 PUSH0 KECCAK256 SWAP1 PUSH1 0x3 MUL ADD PUSH1 0x2 ADD PUSH0 SWAP1 SLOAD SWAP1 PUSH2 0x100 EXP SWAP1 DIV PUSH1 0xFF AND ISZERO PUSH2 0x3FC JUMPI PUSH1 0x40 MLOAD PUSH32 0x8C379A000000000000000000000000000000000000000000000000000000000 DUP2 MSTORE PUSH1 0x4 ADD PUSH2 0x3F3 SWAP1 PUSH2 0x844 JUMP JUMPDEST PUSH1 0x40 MLOAD DUP1 SWAP2 SUB SWAP1 REVERT JUMPDEST PUSH1 0x1 PUSH1 0x3 DUP3 DUP2 SLOAD DUP2 LT PUSH2 0x412 JUMPI PUSH2 0x411 PUSH2 0x7CD JUMP JUMPDEST JUMPDEST SWAP1 PUSH0 MSTORE PUSH1 0x20 PUSH0 KECCAK256 SWAP1 PUSH1 0x3 MUL ADD PUSH1 0x2 ADD PUSH0 PUSH2 0x100 EXP DUP2 SLOAD DUP2 PUSH1 0xFF MUL NOT AND SWAP1 DUP4 ISZERO ISZERO MUL OR SWAP1 SSTORE POP PUSH1 0x3 DUP2 DUP2 SLOAD DUP2 LT PUSH2 0x44B JUMPI PUSH2 0x44A PUSH2 0x7CD JUMP JUMPDEST JUMPDEST SWAP1 PUSH0 MSTORE PUSH1 0x20 PUSH0 KECCAK256 SWAP1 PUSH1 0x3 MUL ADD PUSH0 ADD PUSH0 SWAP1 SLOAD SWAP1 PUSH2 0x100 EXP SWAP1 DIV PUSH20 0xFFFFFFFFFFFFFFFFFFFFFFFFFFFFFFFFFFFFFFFF AND PUSH20 0xFFFFFFFFFFFFFFFFFFFFFFFFFFFFFFFFFFFFFFFF AND PUSH32 0x1A8ECEA83CBCFF0F4C46B7E42F55227161863220EB7D439FDE442DFDC0DDBC4E PUSH1 0x3 DUP4 DUP2 SLOAD DUP2 LT PUSH2 0x4C4 JUMPI PUSH2 0x4C3 PUSH2 0x7CD JUMP JUMPDEST JUMPDEST SWAP1 PUSH0 MSTORE PUSH1 0x20 PUSH0 KECCAK256 SWAP1 PUSH1 0x3 MUL ADD PUSH1 0x1 ADD SLOAD DUP4 PUSH1 0x40 MLOAD PUSH2 0x4E3 SWAP3 SWAP2 SWAP1 PUSH2 0x862 JUMP JUMPDEST PUSH1 0x40 MLOAD DUP1 SWAP2 SUB SWAP1 LOG2 POP JUMP JUMPDEST PUSH1 0x1 SLOAD DUP2 JUMP JUMPDEST PUSH1 0x3 DUP2 DUP2 SLOAD DUP2 LT PUSH2 0x503 JUMPI PUSH0 DUP1 REVERT JUMPDEST SWAP1 PUSH0 MSTORE PUSH1 0x20 PUSH0 KECCAK256 SWAP1 PUSH1 0x3 MUL ADD PUSH0 SWAP2 POP SWAP1 POP DUP1 PUSH0 ADD PUSH0 SWAP1 SLOAD SWAP1 PUSH2 0x100 EXP SWAP1 DIV PUSH20 0xFFFFFFFFFFFFFFFFFFFFFFFFFFFFFFFFFFFFFFFF AND SWAP1 DUP1 PUSH1 0x1 ADD SLOAD SWAP1 DUP1 PUSH1 0x2 ADD PUSH0 SWAP1 SLOAD SWAP1 PUSH2 0x100 EXP SWAP1 DIV PUSH1 0xFF AND SWAP1 POP DUP4 JUMP JUMPDEST PUSH0 PUSH0 REVERT JUMPDEST PUSH0 DUP2 SWAP1 POP SWAP2 SWAP1 POP JUMP JUMPDEST PUSH2 0x56A DUP2 PUSH2 0x558 JUMP JUMPDEST DUP2 EQ PUSH2 0x574 JUMPI PUSH0 PUSH0 REVERT JUMPDEST POP JUMP JUMPDEST PUSH0 DUP2 CALLDATALOAD SWAP1 POP PUSH2 0x585 DUP2 PUSH2 0x561 JUMP JUMPDEST SWAP3 SWAP2 POP POP JUMP JUMPDEST PUSH0 PUSH1 0x20 DUP3 DUP5 SUB SLT ISZERO PUSH2 0x5A0 JUMPI PUSH2 0x59F PUSH2 0x554 JUMP JUMPDEST JUMPDEST PUSH0 PUSH2 0x5AD DUP5 DUP3 DUP6 ADD PUSH2 0x577 JUMP JUMPDEST SWAP2 POP POP SWAP3 SWAP2 POP POP JUMP JUMPDEST PUSH2 0x5BF DUP2 PUSH2 0x558 JUMP JUMPDEST DUP3 MSTORE POP POP JUMP JUMPDEST PUSH0 PUSH1 0x20 DUP3 ADD SWAP1 POP PUSH2 0x5D8 PUSH0 DUP4 ADD DUP5 PUSH2 0x5B6 JUMP JUMPDEST SWAP3 SWAP2 POP POP JUMP JUMPDEST PUSH0 PUSH20 0xFFFFFFFFFFFFFFFFFFFFFFFFFFFFFFFFFFFFFFFF DUP3 AND SWAP1 POP SWAP2 SWAP1 POP JUMP JUMPDEST PUSH0 PUSH2 0x607 DUP3 PUSH2 0x5DE JUMP JUMPDEST SWAP1 POP SWAP2 SWAP1 POP JUMP JUMPDEST PUSH2 0x617 DUP2 PUSH2 0x5FD JUMP JUMPDEST DUP3 MSTORE POP POP JUMP JUMPDEST PUSH0 PUSH1 0x20 DUP3 ADD SWAP1 POP PUSH2 0x630 PUSH0 DUP4 ADD DUP5 PUSH2 0x60E JUMP JUMPDEST SWAP3 SWAP2 POP POP JUMP JUMPDEST PUSH0 DUP2 ISZERO ISZERO SWAP1 POP SWAP2 SWAP1 POP JUMP JUMPDEST PUSH2 0x64A DUP2 PUSH2 0x636 JUMP JUMPDEST DUP3 MSTORE POP POP JUMP JUMPDEST PUSH0 PUSH1 0x60 DUP3 ADD SWAP1 POP PUSH2 0x663 PUSH0 DUP4 ADD DUP7 PUSH2 0x60E JUMP JUMPDEST PUSH2 0x670 PUSH1 0x20 DUP4 ADD DUP6 PUSH2 0x5B6 JUMP JUMPDEST PUSH2 0x67D PUSH1 0x40 DUP4 ADD DUP5 PUSH2 0x641 JUMP JUMPDEST SWAP5 SWAP4 POP POP POP POP JUMP JUMPDEST PUSH0 DUP3 DUP3 MSTORE PUSH1 0x20 DUP3 ADD SWAP1 POP SWAP3 SWAP2 POP POP JUMP JUMPDEST PUSH32 0x496E76616C6964206C6F616E20616D6F756E7400000000000000000000000000 PUSH0 DUP3 ADD MSTORE POP JUMP JUMPDEST PUSH0 PUSH2 0x6C9 PUSH1 0x13 DUP4 PUSH2 0x685 JUMP JUMPDEST SWAP2 POP PUSH2 0x6D4 DUP3 PUSH2 0x695 JUMP JUMPDEST PUSH1 0x20 DUP3 ADD SWAP1 POP SWAP2 SWAP1 POP JUMP JUMPDEST PUSH0 PUSH1 0x20 DUP3 ADD SWAP1 POP DUP2 DUP2 SUB PUSH0 DUP4 ADD MSTORE PUSH2 0x6F6 DUP2 PUSH2 0x6BD JUMP JUMPDEST SWAP1 POP SWAP2 SWAP1 POP JUMP JUMPDEST PUSH32 0x4F6E6C792062616E6B206F776E657220616C6C6F776564000000000000000000 PUSH0 DUP3 ADD MSTORE POP JUMP JUMPDEST PUSH0 PUSH2 0x731 PUSH1 0x17 DUP4 PUSH2 0x685 JUMP JUMPDEST SWAP2 POP PUSH2 0x73C DUP3 PUSH2 0x6FD JUMP JUMPDEST PUSH1 0x20 DUP3 ADD SWAP1 POP SWAP2 SWAP1 POP JUMP JUMPDEST PUSH0 PUSH1 0x20 DUP3 ADD SWAP1 POP DUP2 DUP2 SUB PUSH0 DUP4 ADD MSTORE PUSH2 0x75E DUP2 PUSH2 0x725 JUMP JUMPDEST SWAP1 POP SWAP2 SWAP1 POP JUMP JUMPDEST PUSH32 0x496E76616C6964206C6F616E2049440000000000000000000000000000000000 PUSH0 DUP3 ADD MSTORE POP JUMP JUMPDEST PUSH0 PUSH2 0x799 PUSH1 0xF DUP4 PUSH2 0x685 JUMP JUMPDEST SWAP2 POP PUSH2 0x7A4 DUP3 PUSH2 0x765 JUMP JUMPDEST PUSH1 0x20 DUP3 ADD SWAP1 POP SWAP2 SWAP1 POP JUMP JUMPDEST PUSH0 PUSH1 0x20 DUP3 ADD SWAP1 POP DUP2 DUP2 SUB PUSH0 DUP4 ADD MSTORE PUSH2 0x7C6 DUP2 PUSH2 0x78D JUMP JUMPDEST SWAP1 POP SWAP2 SWAP1 POP JUMP JUMPDEST PUSH32 0x4E487B7100000000000000000000000000000000000000000000000000000000 PUSH0 MSTORE PUSH1 0x32 PUSH1 0x4 MSTORE PUSH1 0x24 PUSH0 REVERT JUMPDEST PUSH32 0x416C726561647920617070726F76656400000000000000000000000000000000 PUSH0 DUP3 ADD MSTORE POP JUMP JUMPDEST PUSH0 PUSH2 0x82E PUSH1 0x10 DUP4 PUSH2 0x685 JUMP JUMPDEST SWAP2 POP PUSH2 0x839 DUP3 PUSH2 0x7FA JUMP JUMPDEST PUSH1 0x20 DUP3 ADD SWAP1 POP SWAP2 SWAP1 POP JUMP JUMPDEST PUSH0 PUSH1 0x20 DUP3 ADD SWAP1 POP DUP2 DUP2 SUB PUSH0 DUP4 ADD MSTORE PUSH2 0x85B DUP2 PUSH2 0x822 JUMP JUMPDEST SWAP1 POP SWAP2 SWAP1 POP JUMP JUMPDEST PUSH0 PUSH1 0x40 DUP3 ADD SWAP1 POP PUSH2 0x875 PUSH0 DUP4 ADD DUP6 PUSH2 0x5B6 JUMP JUMPDEST PUSH2 0x882 PUSH1 0x20 DUP4 ADD DUP5 PUSH2 0x5B6 JUMP JUMPDEST SWAP4 SWAP3 POP POP POP JUMP INVALID LOG2 PUSH5 0x6970667358 0x22 SLT KECCAK256 0x22 GASLIMIT MUL PUSH3 0x6FD5E3 0xD8 CREATE ADDRESS 0x27 SWAP3 MSTORE8 MSIZE EXTSTATICCALL DUP15 RJUMP 0xA157 0x29 SAR 0xDA ISZERO 0xB3 PUSH23 0xBB17C40A0CE6E864736F6C634300082200330000000000 "
				},
				"gasEstimates": {
					"creation": {
						"codeDepositCost": "447800",
						"executionCost": "68954",
						"totalCost": "516754"
					},
					"external": {
						"applyLoan(uint256)": "99762",
						"approveLoan(uint256)": "infinite",
						"getTotalLoans()": "2485",
						"loans(uint256)": "infinite",
						"maxLoanAmount()": "2448",
						"minLoanAmount()": "2469",
						"owner()": "2507"
					}
				},
				"methodIdentifiers": {
					"applyLoan(uint256)": "4b7253bf",
					"approveLoan(uint256)": "aadc1ac1",
					"getTotalLoans()": "833be5d5",
					"loans(uint256)": "e1ec3c68",
					"maxLoanAmount()": "72f94365",
					"minLoanAmount()": "e06a9138",
					"owner()": "8da5cb5b"
				}
			},
			"storageLayout": {
				"storage": [
					{
						"astId": 3,
						"contract": "LoanApproval.sol:LoanApproval",
						"label": "owner",
						"offset": 0,
						"slot": "0",
						"type": "t_address"
					},
					{
						"astId": 6,
						"contract": "LoanApproval.sol:LoanApproval",
						"label": "minLoanAmount",
						"offset": 0,
						"slot": "1",
						"type": "t_uint256"
					},
					{
						"astId": 9,
						"contract": "LoanApproval.sol:LoanApproval",
						"label": "maxLoanAmount",
						"offset": 0,
						"slot": "2",
						"type": "t_uint256"
					},
					{
						"astId": 47,
						"contract": "LoanApproval.sol:LoanApproval",
						"label": "loans",
						"offset": 0,
						"slot": "3",
						"type": "t_array(t_struct(Loan)43_storage)dyn_storage"
					}
				],
				"types": {
					"t_address": {
						"encoding": "inplace",
						"label": "address",
						"numberOfBytes": "20"
					},
					"t_array(t_struct(Loan)43_storage)dyn_storage": {
						"base": "t_struct(Loan)43_storage",
						"encoding": "dynamic_array",
						"label": "struct LoanApproval.Loan[]",
						"numberOfBytes": "32"
					},
					"t_bool": {
						"encoding": "inplace",
						"label": "bool",
						"numberOfBytes": "1"
					},
					"t_struct(Loan)43_storage": {
						"encoding": "inplace",
						"label": "struct LoanApproval.Loan",
						"members": [
							{
								"astId": 38,
								"contract": "LoanApproval.sol:LoanApproval",
								"label": "user",
								"offset": 0,
								"slot": "0",
								"type": "t_address"
							},
							{
								"astId": 40,
								"contract": "LoanApproval.sol:LoanApproval",
								"label": "amount",
								"offset": 0,
								"slot": "1",
								"type": "t_uint256"
							},
							{
								"astId": 42,
								"contract": "LoanApproval.sol:LoanApproval",
								"label": "approved",
								"offset": 0,
								"slot": "2",
								"type": "t_bool"
							}
						],
						"numberOfBytes": "96"
					},
					"t_uint256": {
						"encoding": "inplace",
						"label": "uint256",
						"numberOfBytes": "32"
					}
				}
			},
			"userdoc": {
				"kind": "user",
				"methods": {},
				"version": 1
			}
		}
	}
}