{
	"interface/bank.sol": {
		"UserBank": {
			"abi": [
				{
					"inputs": [],
					"name": "Get_Balance",
					"outputs": [
						{
							"internalType": "uint256",
							"name": "",
							"type": "uint256"
						}
					],
					"stateMutability": "view",
					"type": "function"
				},
				{
					"inputs": [],
					"name": "deposit",
					"outputs": [],
					"stateMutability": "payable",
					"type": "function"
				},
				{
					"inputs": [
						{
							"internalType": "uint256",
							"name": "amount",
							"type": "uint256"
						}
					],
					"name": "withdraw_cash",
					"outputs": [],
					"stateMutability": "nonpayable",
					"type": "function"
				}
			],
			"devdoc": {
				"kind": "dev",
				"methods": {},
				"version": 1
			},
			"evm": {
				"assembly": "    /* \"interface/bank.sol\":173:860  contract UserBank {... */\n  mstore(0x40, 0x80)\n  callvalue\n  dup1\n  iszero\n  tag_1\n  jumpi\n  0x00\n  dup1\n  revert\ntag_1:\n  pop\n  dataSize(sub_0)\n  dup1\n  dataOffset(sub_0)\n  0x00\n  codecopy\n  0x00\n  return\nstop\n\nsub_0: assembly {\n        /* \"interface/bank.sol\":173:860  contract UserBank {... */\n      mstore(0x40, 0x80)\n      jumpi(tag_1, lt(calldatasize, 0x04))\n      shr(0xe0, calldataload(0x00))\n      dup1\n      0xaf328025\n      eq\n      tag_2\n      jumpi\n      dup1\n      0xb9c18f1c\n      eq\n      tag_3\n      jumpi\n      dup1\n      0xd0e30db0\n      eq\n      tag_4\n      jumpi\n    tag_1:\n      0x00\n      dup1\n      revert\n        /* \"interface/bank.sol\":756:857  function Get_Balance() external view returns (uint256) {... */\n    tag_2:\n      callvalue\n      dup1\n      iszero\n      tag_5\n      jumpi\n      0x00\n      dup1\n      revert\n    tag_5:\n      pop\n      tag_6\n      tag_7\n      jump\t// in\n    tag_6:\n      mload(0x40)\n      tag_8\n      swap2\n      swap1\n      tag_9\n      jump\t// in\n    tag_8:\n      mload(0x40)\n      dup1\n      swap2\n      sub\n      swap1\n      return\n        /* \"interface/bank.sol\":501:719  function withdraw_cash(uint256 amount) external {... */\n    tag_3:\n      callvalue\n      dup1\n      iszero\n      tag_10\n      jumpi\n      0x00\n      dup1\n      revert\n    tag_10:\n      pop\n      tag_11\n      0x04\n      dup1\n      calldatasize\n      sub\n      dup2\n      add\n      swap1\n      tag_12\n      swap2\n      swap1\n      tag_13\n      jump\t// in\n    tag_12:\n      tag_14\n      jump\t// in\n    tag_11:\n      stop\n        /* \"interface/bank.sol\":316:455  function deposit() external payable {... */\n    tag_4:\n      tag_15\n      tag_16\n      jump\t// in\n    tag_15:\n      stop\n        /* \"interface/bank.sol\":756:857  function Get_Balance() external view returns (uint256) {... */\n    tag_7:\n        /* \"interface/bank.sol\":802:809  uint256 */\n      0x00\n        /* \"interface/bank.sol\":829:837  balances */\n      dup1\n        /* \"interface/bank.sol\":829:849  balances[msg.sender] */\n      0x00\n        /* \"interface/bank.sol\":838:848  msg.sender */\n      caller\n        /* \"interface/bank.sol\":829:849  balances[msg.sender] */\n      0xffffffffffffffffffffffffffffffffffffffff\n      and\n      0xffffffffffffffffffffffffffffffffffffffff\n      and\n      dup2\n      mstore\n      0x20\n      add\n      swap1\n      dup2\n      mstore\n      0x20\n      add\n      0x00\n      keccak256\n      sload\n        /* \"interface/bank.sol\":822:849  return balances[msg.sender] */\n      swap1\n      pop\n        /* \"interface/bank.sol\":756:857  function Get_Balance() external view returns (uint256) {... */\n      swap1\n      jump\t// out\n        /* \"interface/bank.sol\":501:719  function withdraw_cash(uint256 amount) external {... */\n    tag_14:\n        /* \"interface/bank.sol\":578:586  balances */\n      0x00\n        /* \"interface/bank.sol\":578:598  balances[msg.sender] */\n      dup1\n        /* \"interface/bank.sol\":587:597  msg.sender */\n      caller\n        /* \"interface/bank.sol\":578:598  balances[msg.sender] */\n      0xffffffffffffffffffffffffffffffffffffffff\n      and\n      0xffffffffffffffffffffffffffffffffffffffff\n      and\n      dup2\n      mstore\n      0x20\n      add\n      swap1\n      dup2\n      mstore\n      0x20\n      add\n      0x00\n      keccak256\n      sload\n        /* \"interface/bank.sol\":568:574  amount */\n      dup2\n        /* \"interface/bank.sol\":568:598  amount <= balances[msg.sender] */\n      gt\n      iszero\n        /* \"interface/bank.sol\":560:623  require(amount <= balances[msg.sender], \"Insufficient balance\") */\n      tag_19\n      jumpi\n      mload(0x40)\n      0x08c379a000000000000000000000000000000000000000000000000000000000\n      dup2\n      mstore\n      0x04\n      add\n      tag_20\n      swap1\n      tag_21\n      jump\t// in\n    tag_20:\n      mload(0x40)\n      dup1\n      swap2\n      sub\n      swap1\n      revert\n    tag_19:\n        /* \"interface/bank.sol\":658:664  amount */\n      dup1\n        /* \"interface/bank.sol\":634:642  balances */\n      0x00\n        /* \"interface/bank.sol\":634:654  balances[msg.sender] */\n      dup1\n        /* \"interface/bank.sol\":643:653  msg.sender */\n      caller\n        /* \"interface/bank.sol\":634:654  balances[msg.sender] */\n      0xffffffffffffffffffffffffffffffffffffffff\n      and\n      0xffffffffffffffffffffffffffffffffffffffff\n      and\n      dup2\n      mstore\n      0x20\n      add\n      swap1\n      dup2\n      mstore\n      0x20\n      add\n      0x00\n      keccak256\n      0x00\n        /* \"interface/bank.sol\":634:664  balances[msg.sender] -= amount */\n      dup3\n      dup3\n      sload\n      tag_22\n      swap2\n      swap1\n      tag_23\n      jump\t// in\n    tag_22:\n      swap3\n      pop\n      pop\n      dup2\n      swap1\n      sstore\n      pop\n        /* \"interface/bank.sol\":683:693  msg.sender */\n      caller\n        /* \"interface/bank.sol\":675:703  payable(msg.sender).transfer */\n      0xffffffffffffffffffffffffffffffffffffffff\n      and\n        /* \"interface/bank.sol\":675:711  payable(msg.sender).transfer(amount) */\n      0x08fc\n        /* \"interface/bank.sol\":704:710  amount */\n      dup3\n        /* \"interface/bank.sol\":675:711  payable(msg.sender).transfer(amount) */\n      swap1\n      dup2\n      iszero\n      mul\n      swap1\n      mload(0x40)\n      0x00\n      mload(0x40)\n      dup1\n      dup4\n      sub\n      dup2\n      dup6\n      dup9\n      dup9\n      call\n      swap4\n      pop\n      pop\n      pop\n      pop\n      iszero\n      dup1\n      iszero\n      tag_25\n      jumpi\n      returndatasize\n      0x00\n      dup1\n      returndatacopy\n      revert(0x00, returndatasize)\n    tag_25:\n      pop\n        /* \"interface/bank.sol\":501:719  function withdraw_cash(uint256 amount) external {... */\n      pop\n      jump\t// out\n        /* \"interface/bank.sol\":316:455  function deposit() external payable {... */\n    tag_16:\n        /* \"interface/bank.sol\":383:384  0 */\n      0x00\n        /* \"interface/bank.sol\":371:380  msg.value */\n      callvalue\n        /* \"interface/bank.sol\":371:384  msg.value > 0 */\n      gt\n        /* \"interface/bank.sol\":363:403  require(msg.value > 0, \"Add some money\") */\n      tag_27\n      jumpi\n      mload(0x40)\n      0x08c379a000000000000000000000000000000000000000000000000000000000\n      dup2\n      mstore\n      0x04\n      add\n      tag_28\n      swap1\n      tag_29\n      jump\t// in\n    tag_28:\n      mload(0x40)\n      dup1\n      swap2\n      sub\n      swap1\n      revert\n    tag_27:\n        /* \"interface/bank.sol\":438:447  msg.value */\n      callvalue\n        /* \"interface/bank.sol\":414:422  balances */\n      0x00\n        /* \"interface/bank.sol\":414:434  balances[msg.sender] */\n      dup1\n        /* \"interface/bank.sol\":423:433  msg.sender */\n      caller\n        /* \"interface/bank.sol\":414:434  balances[msg.sender] */\n      0xffffffffffffffffffffffffffffffffffffffff\n      and\n      0xffffffffffffffffffffffffffffffffffffffff\n      and\n      dup2\n      mstore\n      0x20\n      add\n      swap1\n      dup2\n      mstore\n      0x20\n      add\n      0x00\n      keccak256\n      0x00\n        /* \"interface/bank.sol\":414:447  balances[msg.sender] += msg.value */\n      dup3\n      dup3\n      sload\n      tag_30\n      swap2\n      swap1\n      tag_31\n      jump\t// in\n    tag_30:\n      swap3\n      pop\n      pop\n      dup2\n      swap1\n      sstore\n      pop\n        /* \"interface/bank.sol\":316:455  function deposit() external payable {... */\n      jump\t// out\n        /* \"#utility.yul\":7:84   */\n    tag_32:\n        /* \"#utility.yul\":44:51   */\n      0x00\n        /* \"#utility.yul\":73:78   */\n      dup2\n        /* \"#utility.yul\":62:78   */\n      swap1\n      pop\n        /* \"#utility.yul\":7:84   */\n      swap2\n      swap1\n      pop\n      jump\t// out\n        /* \"#utility.yul\":90:208   */\n    tag_33:\n        /* \"#utility.yul\":177:201   */\n      tag_48\n        /* \"#utility.yul\":195:200   */\n      dup2\n        /* \"#utility.yul\":177:201   */\n      tag_32\n      jump\t// in\n    tag_48:\n        /* \"#utility.yul\":172:175   */\n      dup3\n        /* \"#utility.yul\":165:202   */\n      mstore\n        /* \"#utility.yul\":90:208   */\n      pop\n      pop\n      jump\t// out\n        /* \"#utility.yul\":214:436   */\n    tag_9:\n        /* \"#utility.yul\":307:311   */\n      0x00\n        /* \"#utility.yul\":345:347   */\n      0x20\n        /* \"#utility.yul\":334:343   */\n      dup3\n        /* \"#utility.yul\":330:348   */\n      add\n        /* \"#utility.yul\":322:348   */\n      swap1\n      pop\n        /* \"#utility.yul\":358:429   */\n      tag_50\n        /* \"#utility.yul\":426:427   */\n      0x00\n        /* \"#utility.yul\":415:424   */\n      dup4\n        /* \"#utility.yul\":411:428   */\n      add\n        /* \"#utility.yul\":402:408   */\n      dup5\n        /* \"#utility.yul\":358:429   */\n      tag_33\n      jump\t// in\n    tag_50:\n        /* \"#utility.yul\":214:436   */\n      swap3\n      swap2\n      pop\n      pop\n      jump\t// out\n        /* \"#utility.yul\":523:640   */\n    tag_35:\n        /* \"#utility.yul\":632:633   */\n      0x00\n        /* \"#utility.yul\":629:630   */\n      dup1\n        /* \"#utility.yul\":622:634   */\n      revert\n        /* \"#utility.yul\":769:891   */\n    tag_37:\n        /* \"#utility.yul\":842:866   */\n      tag_55\n        /* \"#utility.yul\":860:865   */\n      dup2\n        /* \"#utility.yul\":842:866   */\n      tag_32\n      jump\t// in\n    tag_55:\n        /* \"#utility.yul\":835:840   */\n      dup2\n        /* \"#utility.yul\":832:867   */\n      eq\n        /* \"#utility.yul\":822:885   */\n      tag_56\n      jumpi\n        /* \"#utility.yul\":881:882   */\n      0x00\n        /* \"#utility.yul\":878:879   */\n      dup1\n        /* \"#utility.yul\":871:883   */\n      revert\n        /* \"#utility.yul\":822:885   */\n    tag_56:\n        /* \"#utility.yul\":769:891   */\n      pop\n      jump\t// out\n        /* \"#utility.yul\":897:1036   */\n    tag_38:\n        /* \"#utility.yul\":943:948   */\n      0x00\n        /* \"#utility.yul\":981:987   */\n      dup2\n        /* \"#utility.yul\":968:988   */\n      calldataload\n        /* \"#utility.yul\":959:988   */\n      swap1\n      pop\n        /* \"#utility.yul\":997:1030   */\n      tag_58\n        /* \"#utility.yul\":1024:1029   */\n      dup2\n        /* \"#utility.yul\":997:1030   */\n      tag_37\n      jump\t// in\n    tag_58:\n        /* \"#utility.yul\":897:1036   */\n      swap3\n      swap2\n      pop\n      pop\n      jump\t// out\n        /* \"#utility.yul\":1042:1371   */\n    tag_13:\n        /* \"#utility.yul\":1101:1107   */\n      0x00\n        /* \"#utility.yul\":1150:1152   */\n      0x20\n        /* \"#utility.yul\":1138:1147   */\n      dup3\n        /* \"#utility.yul\":1129:1136   */\n      dup5\n        /* \"#utility.yul\":1125:1148   */\n      sub\n        /* \"#utility.yul\":1121:1153   */\n      slt\n        /* \"#utility.yul\":1118:1237   */\n      iszero\n      tag_60\n      jumpi\n        /* \"#utility.yul\":1156:1235   */\n      tag_61\n      tag_35\n      jump\t// in\n    tag_61:\n        /* \"#utility.yul\":1118:1237   */\n    tag_60:\n        /* \"#utility.yul\":1276:1277   */\n      0x00\n        /* \"#utility.yul\":1301:1354   */\n      tag_62\n        /* \"#utility.yul\":1346:1353   */\n      dup5\n        /* \"#utility.yul\":1337:1343   */\n      dup3\n        /* \"#utility.yul\":1326:1335   */\n      dup6\n        /* \"#utility.yul\":1322:1344   */\n      add\n        /* \"#utility.yul\":1301:1354   */\n      tag_38\n      jump\t// in\n    tag_62:\n        /* \"#utility.yul\":1291:1354   */\n      swap2\n      pop\n        /* \"#utility.yul\":1247:1364   */\n      pop\n        /* \"#utility.yul\":1042:1371   */\n      swap3\n      swap2\n      pop\n      pop\n      jump\t// out\n        /* \"#utility.yul\":1377:1546   */\n    tag_39:\n        /* \"#utility.yul\":1461:1472   */\n      0x00\n        /* \"#utility.yul\":1495:1501   */\n      dup3\n        /* \"#utility.yul\":1490:1493   */\n      dup3\n        /* \"#utility.yul\":1483:1502   */\n      mstore\n        /* \"#utility.yul\":1535:1539   */\n      0x20\n        /* \"#utility.yul\":1530:1533   */\n      dup3\n        /* \"#utility.yul\":1526:1540   */\n      add\n        /* \"#utility.yul\":1511:1540   */\n      swap1\n      pop\n        /* \"#utility.yul\":1377:1546   */\n      swap3\n      swap2\n      pop\n      pop\n      jump\t// out\n        /* \"#utility.yul\":1552:1722   */\n    tag_40:\n        /* \"#utility.yul\":1692:1714   */\n      0x496e73756666696369656e742062616c616e6365000000000000000000000000\n        /* \"#utility.yul\":1688:1689   */\n      0x00\n        /* \"#utility.yul\":1680:1686   */\n      dup3\n        /* \"#utility.yul\":1676:1690   */\n      add\n        /* \"#utility.yul\":1669:1715   */\n      mstore\n        /* \"#utility.yul\":1552:1722   */\n      pop\n      jump\t// out\n        /* \"#utility.yul\":1728:2094   */\n    tag_41:\n        /* \"#utility.yul\":1870:1873   */\n      0x00\n        /* \"#utility.yul\":1891:1958   */\n      tag_66\n        /* \"#utility.yul\":1955:1957   */\n      0x14\n        /* \"#utility.yul\":1950:1953   */\n      dup4\n        /* \"#utility.yul\":1891:1958   */\n      tag_39\n      jump\t// in\n    tag_66:\n        /* \"#utility.yul\":1884:1958   */\n      swap2\n      pop\n        /* \"#utility.yul\":1967:2060   */\n      tag_67\n        /* \"#utility.yul\":2056:2059   */\n      dup3\n        /* \"#utility.yul\":1967:2060   */\n      tag_40\n      jump\t// in\n    tag_67:\n        /* \"#utility.yul\":2085:2087   */\n      0x20\n        /* \"#utility.yul\":2080:2083   */\n      dup3\n        /* \"#utility.yul\":2076:2088   */\n      add\n        /* \"#utility.yul\":2069:2088   */\n      swap1\n      pop\n        /* \"#utility.yul\":1728:2094   */\n      swap2\n      swap1\n      pop\n      jump\t// out\n        /* \"#utility.yul\":2100:2519   */\n    tag_21:\n        /* \"#utility.yul\":2266:2270   */\n      0x00\n        /* \"#utility.yul\":2304:2306   */\n      0x20\n        /* \"#utility.yul\":2293:2302   */\n      dup3\n        /* \"#utility.yul\":2289:2307   */\n      add\n        /* \"#utility.yul\":2281:2307   */\n      swap1\n      pop\n        /* \"#utility.yul\":2353:2362   */\n      dup2\n        /* \"#utility.yul\":2347:2351   */\n      dup2\n        /* \"#utility.yul\":2343:2363   */\n      sub\n        /* \"#utility.yul\":2339:2340   */\n      0x00\n        /* \"#utility.yul\":2328:2337   */\n      dup4\n        /* \"#utility.yul\":2324:2341   */\n      add\n        /* \"#utility.yul\":2317:2364   */\n      mstore\n        /* \"#utility.yul\":2381:2512   */\n      tag_69\n        /* \"#utility.yul\":2507:2511   */\n      dup2\n        /* \"#utility.yul\":2381:2512   */\n      tag_41\n      jump\t// in\n    tag_69:\n        /* \"#utility.yul\":2373:2512   */\n      swap1\n      pop\n        /* \"#utility.yul\":2100:2519   */\n      swap2\n      swap1\n      pop\n      jump\t// out\n        /* \"#utility.yul\":2525:2705   */\n    tag_42:\n        /* \"#utility.yul\":2573:2650   */\n      0x4e487b7100000000000000000000000000000000000000000000000000000000\n        /* \"#utility.yul\":2570:2571   */\n      0x00\n        /* \"#utility.yul\":2563:2651   */\n      mstore\n        /* \"#utility.yul\":2670:2674   */\n      0x11\n        /* \"#utility.yul\":2667:2668   */\n      0x04\n        /* \"#utility.yul\":2660:2675   */\n      mstore\n        /* \"#utility.yul\":2694:2698   */\n      0x24\n        /* \"#utility.yul\":2691:2692   */\n      0x00\n        /* \"#utility.yul\":2684:2699   */\n      revert\n        /* \"#utility.yul\":2711:2905   */\n    tag_23:\n        /* \"#utility.yul\":2751:2755   */\n      0x00\n        /* \"#utility.yul\":2771:2791   */\n      tag_72\n        /* \"#utility.yul\":2789:2790   */\n      dup3\n        /* \"#utility.yul\":2771:2791   */\n      tag_32\n      jump\t// in\n    tag_72:\n        /* \"#utility.yul\":2766:2791   */\n      swap2\n      pop\n        /* \"#utility.yul\":2805:2825   */\n      tag_73\n        /* \"#utility.yul\":2823:2824   */\n      dup4\n        /* \"#utility.yul\":2805:2825   */\n      tag_32\n      jump\t// in\n    tag_73:\n        /* \"#utility.yul\":2800:2825   */\n      swap3\n      pop\n        /* \"#utility.yul\":2849:2850   */\n      dup3\n        /* \"#utility.yul\":2846:2847   */\n      dup3\n        /* \"#utility.yul\":2842:2851   */\n      sub\n        /* \"#utility.yul\":2834:2851   */\n      swap1\n      pop\n        /* \"#utility.yul\":2873:2874   */\n      dup2\n        /* \"#utility.yul\":2867:2871   */\n      dup2\n        /* \"#utility.yul\":2864:2875   */\n      gt\n        /* \"#utility.yul\":2861:2898   */\n      iszero\n      tag_74\n      jumpi\n        /* \"#utility.yul\":2878:2896   */\n      tag_75\n      tag_42\n      jump\t// in\n    tag_75:\n        /* \"#utility.yul\":2861:2898   */\n    tag_74:\n        /* \"#utility.yul\":2711:2905   */\n      swap3\n      swap2\n      pop\n      pop\n      jump\t// out\n        /* \"#utility.yul\":2911:3075   */\n    tag_43:\n        /* \"#utility.yul\":3051:3067   */\n      0x41646420736f6d65206d6f6e6579000000000000000000000000000000000000\n        /* \"#utility.yul\":3047:3048   */\n      0x00\n        /* \"#utility.yul\":3039:3045   */\n      dup3\n        /* \"#utility.yul\":3035:3049   */\n      add\n        /* \"#utility.yul\":3028:3068   */\n      mstore\n        /* \"#utility.yul\":2911:3075   */\n      pop\n      jump\t// out\n        /* \"#utility.yul\":3081:3447   */\n    tag_44:\n        /* \"#utility.yul\":3223:3226   */\n      0x00\n        /* \"#utility.yul\":3244:3311   */\n      tag_78\n        /* \"#utility.yul\":3308:3310   */\n      0x0e\n        /* \"#utility.yul\":3303:3306   */\n      dup4\n        /* \"#utility.yul\":3244:3311   */\n      tag_39\n      jump\t// in\n    tag_78:\n        /* \"#utility.yul\":3237:3311   */\n      swap2\n      pop\n        /* \"#utility.yul\":3320:3413   */\n      tag_79\n        /* \"#utility.yul\":3409:3412   */\n      dup3\n        /* \"#utility.yul\":3320:3413   */\n      tag_43\n      jump\t// in\n    tag_79:\n        /* \"#utility.yul\":3438:3440   */\n      0x20\n        /* \"#utility.yul\":3433:3436   */\n      dup3\n        /* \"#utility.yul\":3429:3441   */\n      add\n        /* \"#utility.yul\":3422:3441   */\n      swap1\n      pop\n        /* \"#utility.yul\":3081:3447   */\n      swap2\n      swap1\n      pop\n      jump\t// out\n        /* \"#utility.yul\":3453:3872   */\n    tag_29:\n        /* \"#utility.yul\":3619:3623   */\n      0x00\n        /* \"#utility.yul\":3657:3659   */\n      0x20\n        /* \"#utility.yul\":3646:3655   */\n      dup3\n        /* \"#utility.yul\":3642:3660   */\n      add\n        /* \"#utility.yul\":3634:3660   */\n      swap1\n      pop\n        /* \"#utility.yul\":3706:3715   */\n      dup2\n        /* \"#utility.yul\":3700:3704   */\n      dup2\n        /* \"#utility.yul\":3696:3716   */\n      sub\n        /* \"#utility.yul\":3692:3693   */\n      0x00\n        /* \"#utility.yul\":3681:3690   */\n      dup4\n        /* \"#utility.yul\":3677:3694   */\n      add\n        /* \"#utility.yul\":3670:3717   */\n      mstore\n        /* \"#utility.yul\":3734:3865   */\n      tag_81\n        /* \"#utility.yul\":3860:3864   */\n      dup2\n        /* \"#utility.yul\":3734:3865   */\n      tag_44\n      jump\t// in\n    tag_81:\n        /* \"#utility.yul\":3726:3865   */\n      swap1\n      pop\n        /* \"#utility.yul\":3453:3872   */\n      swap2\n      swap1\n      pop\n      jump\t// out\n        /* \"#utility.yul\":3878:4069   */\n    tag_31:\n        /* \"#utility.yul\":3918:3921   */\n      0x00\n        /* \"#utility.yul\":3937:3957   */\n      tag_83\n        /* \"#utility.yul\":3955:3956   */\n      dup3\n        /* \"#utility.yul\":3937:3957   */\n      tag_32\n      jump\t// in\n    tag_83:\n        /* \"#utility.yul\":3932:3957   */\n      swap2\n      pop\n        /* \"#utility.yul\":3971:3991   */\n      tag_84\n        /* \"#utility.yul\":3989:3990   */\n      dup4\n        /* \"#utility.yul\":3971:3991   */\n      tag_32\n      jump\t// in\n    tag_84:\n        /* \"#utility.yul\":3966:3991   */\n      swap3\n      pop\n        /* \"#utility.yul\":4014:4015   */\n      dup3\n        /* \"#utility.yul\":4011:4012   */\n      dup3\n        /* \"#utility.yul\":4007:4016   */\n      add\n        /* \"#utility.yul\":4000:4016   */\n      swap1\n      pop\n        /* \"#utility.yul\":4035:4038   */\n      dup1\n        /* \"#utility.yul\":4032:4033   */\n      dup3\n        /* \"#utility.yul\":4029:4039   */\n      gt\n        /* \"#utility.yul\":4026:4062   */\n      iszero\n      tag_85\n      jumpi\n        /* \"#utility.yul\":4042:4060   */\n      tag_86\n      tag_42\n      jump\t// in\n    tag_86:\n        /* \"#utility.yul\":4026:4062   */\n    tag_85:\n        /* \"#utility.yul\":3878:4069   */\n      swap3\n      swap2\n      pop\n      pop\n      jump\t// out\n\n    auxdata: 0xa264697066735822122038ddc9ea15cb5ff566987671343327d9320e900ef7a2e78e280ea122a42b762364736f6c63430008120033\n}\n",
				"bytecode": {
					"linkReferences": {},
					"object": "608060405234801561001057600080fd5b506104df806100206000396000f3fe6080604052600436106100345760003560e01c8063af32802514610039578063b9c18f1c14610064578063d0e30db01461008d575b600080fd5b34801561004557600080fd5b5061004e610097565b60405161005b91906102b0565b60405180910390f35b34801561007057600080fd5b5061008b600480360381019061008691906102fc565b6100dd565b005b6100956101fd565b005b60008060003373ffffffffffffffffffffffffffffffffffffffff1673ffffffffffffffffffffffffffffffffffffffff16815260200190815260200160002054905090565b6000803373ffffffffffffffffffffffffffffffffffffffff1673ffffffffffffffffffffffffffffffffffffffff1681526020019081526020016000205481111561015e576040517f08c379a000000000000000000000000000000000000000000000000000000000815260040161015590610386565b60405180910390fd5b806000803373ffffffffffffffffffffffffffffffffffffffff1673ffffffffffffffffffffffffffffffffffffffff16815260200190815260200160002060008282546101ac91906103d5565b925050819055503373ffffffffffffffffffffffffffffffffffffffff166108fc829081150290604051600060405180830381858888f193505050501580156101f9573d6000803e3d6000fd5b5050565b60003411610240576040517f08c379a000000000000000000000000000000000000000000000000000000000815260040161023790610455565b60405180910390fd5b346000803373ffffffffffffffffffffffffffffffffffffffff1673ffffffffffffffffffffffffffffffffffffffff168152602001908152602001600020600082825461028e9190610475565b92505081905550565b6000819050919050565b6102aa81610297565b82525050565b60006020820190506102c560008301846102a1565b92915050565b600080fd5b6102d981610297565b81146102e457600080fd5b50565b6000813590506102f6816102d0565b92915050565b600060208284031215610312576103116102cb565b5b6000610320848285016102e7565b91505092915050565b600082825260208201905092915050565b7f496e73756666696369656e742062616c616e6365000000000000000000000000600082015250565b6000610370601483610329565b915061037b8261033a565b602082019050919050565b6000602082019050818103600083015261039f81610363565b9050919050565b7f4e487b7100000000000000000000000000000000000000000000000000000000600052601160045260246000fd5b60006103e082610297565b91506103eb83610297565b9250828203905081811115610403576104026103a6565b5b92915050565b7f41646420736f6d65206d6f6e6579000000000000000000000000000000000000600082015250565b600061043f600e83610329565b915061044a82610409565b602082019050919050565b6000602082019050818103600083015261046e81610432565b9050919050565b600061048082610297565b915061048b83610297565b92508282019050808211156104a3576104a26103a6565b5b9291505056fea264697066735822122038ddc9ea15cb5ff566987671343327d9320e900ef7a2e78e280ea122a42b762364736f6c63430008120033",
					"opcodes": "PUSH1 0x80 PUSH1 0x40 MSTORE CALLVALUE DUP1 ISZERO PUSH2 0x10 JUMPI PUSH1 0x0 DUP1 REVERT JUMPDEST POP PUSH2 0x4DF DUP1 PUSH2 0x20 PUSH1 0x0 CODECOPY PUSH1 0x0 RETURN INVALID PUSH1 0x80 PUSH1 0x40 MSTORE PUSH1 0x4 CALLDATASIZE LT PUSH2 0x34 JUMPI PUSH1 0x0 CALLDATALOAD PUSH1 0xE0 SHR DUP1 PUSH4 0xAF328025 EQ PUSH2 0x39 JUMPI DUP1 PUSH4 0xB9C18F1C EQ PUSH2 0x64 JUMPI DUP1 PUSH4 0xD0E30DB0 EQ PUSH2 0x8D JUMPI JUMPDEST PUSH1 0x0 DUP1 REVERT JUMPDEST CALLVALUE DUP1 ISZERO PUSH2 0x45 JUMPI PUSH1 0x0 DUP1 REVERT JUMPDEST POP PUSH2 0x4E PUSH2 0x97 JUMP JUMPDEST PUSH1 0x40 MLOAD PUSH2 0x5B SWAP2 SWAP1 PUSH2 0x2B0 JUMP JUMPDEST PUSH1 0x40 MLOAD DUP1 SWAP2 SUB SWAP1 RETURN JUMPDEST CALLVALUE DUP1 ISZERO PUSH2 0x70 JUMPI PUSH1 0x0 DUP1 REVERT JUMPDEST POP PUSH2 0x8B PUSH1 0x4 DUP1 CALLDATASIZE SUB DUP2 ADD SWAP1 PUSH2 0x86 SWAP2 SWAP1 PUSH2 0x2FC JUMP JUMPDEST PUSH2 0xDD JUMP JUMPDEST STOP JUMPDEST PUSH2 0x95 PUSH2 0x1FD JUMP JUMPDEST STOP JUMPDEST PUSH1 0x0 DUP1 PUSH1 0x0 CALLER PUSH20 0xFFFFFFFFFFFFFFFFFFFFFFFFFFFFFFFFFFFFFFFF AND PUSH20 0xFFFFFFFFFFFFFFFFFFFFFFFFFFFFFFFFFFFFFFFF AND DUP2 MSTORE PUSH1 0x20 ADD SWAP1 DUP2 MSTORE PUSH1 0x20 ADD PUSH1 0x0 KECCAK256 SLOAD SWAP1 POP SWAP1 JUMP JUMPDEST PUSH1 0x0 DUP1 CALLER PUSH20 0xFFFFFFFFFFFFFFFFFFFFFFFFFFFFFFFFFFFFFFFF AND PUSH20 0xFFFFFFFFFFFFFFFFFFFFFFFFFFFFFFFFFFFFFFFF AND DUP2 MSTORE PUSH1 0x20 ADD SWAP1 DUP2 MSTORE PUSH1 0x20 ADD PUSH1 0x0 KECCAK256 SLOAD DUP2 GT ISZERO PUSH2 0x15E JUMPI PUSH1 0x40 MLOAD PUSH32 0x8C379A000000000000000000000000000000000000000000000000000000000 DUP2 MSTORE PUSH1 0x4 ADD PUSH2 0x155 SWAP1 PUSH2 0x386 JUMP JUMPDEST PUSH1 0x40 MLOAD DUP1 SWAP2 SUB SWAP1 REVERT JUMPDEST DUP1 PUSH1 0x0 DUP1 CALLER PUSH20 0xFFFFFFFFFFFFFFFFFFFFFFFFFFFFFFFFFFFFFFFF AND PUSH20 0xFFFFFFFFFFFFFFFFFFFFFFFFFFFFFFFFFFFFFFFF AND DUP2 MSTORE PUSH1 0x20 ADD SWAP1 DUP2 MSTORE PUSH1 0x20 ADD PUSH1 0x0 KECCAK256 PUSH1 0x0 DUP3 DUP3 SLOAD PUSH2 0x1AC SWAP2 SWAP1 PUSH2 0x3D5 JUMP JUMPDEST SWAP3 POP POP DUP2 SWAP1 SSTORE POP CALLER PUSH20 0xFFFFFFFFFFFFFFFFFFFFFFFFFFFFFFFFFFFFFFFF AND PUSH2 0x8FC DUP3 SWAP1 DUP2 ISZERO MUL SWAP1 PUSH1 0x40 MLOAD PUSH1 0x0 PUSH1 0x40 MLOAD DUP1 DUP4 SUB DUP2 DUP6 DUP9 DUP9 CALL SWAP4 POP POP POP POP ISZERO DUP1 ISZERO PUSH2 0x1F9 JUMPI RETURNDATASIZE PUSH1 0x0 DUP1 RETURNDATACOPY RETURNDATASIZE PUSH1 0x0 REVERT JUMPDEST POP POP JUMP JUMPDEST PUSH1 0x0 CALLVALUE GT PUSH2 0x240 JUMPI PUSH1 0x40 MLOAD PUSH32 0x8C379A000000000000000000000000000000000000000000000000000000000 DUP2 MSTORE PUSH1 0x4 ADD PUSH2 0x237 SWAP1 PUSH2 0x455 JUMP JUMPDEST PUSH1 0x40 MLOAD DUP1 SWAP2 SUB SWAP1 REVERT JUMPDEST CALLVALUE PUSH1 0x0 DUP1 CALLER PUSH20 0xFFFFFFFFFFFFFFFFFFFFFFFFFFFFFFFFFFFFFFFF AND PUSH20 0xFFFFFFFFFFFFFFFFFFFFFFFFFFFFFFFFFFFFFFFF AND DUP2 MSTORE PUSH1 0x20 ADD SWAP1 DUP2 MSTORE PUSH1 0x20 ADD PUSH1 0x0 KECCAK256 PUSH1 0x0 DUP3 DUP3 SLOAD PUSH2 0x28E SWAP2 SWAP1 PUSH2 0x475 JUMP JUMPDEST SWAP3 POP POP DUP2 SWAP1 SSTORE POP JUMP JUMPDEST PUSH1 0x0 DUP2 SWAP1 POP SWAP2 SWAP1 POP JUMP JUMPDEST PUSH2 0x2AA DUP2 PUSH2 0x297 JUMP JUMPDEST DUP3 MSTORE POP POP JUMP JUMPDEST PUSH1 0x0 PUSH1 0x20 DUP3 ADD SWAP1 POP PUSH2 0x2C5 PUSH1 0x0 DUP4 ADD DUP5 PUSH2 0x2A1 JUMP JUMPDEST SWAP3 SWAP2 POP POP JUMP JUMPDEST PUSH1 0x0 DUP1 REVERT JUMPDEST PUSH2 0x2D9 DUP2 PUSH2 0x297 JUMP JUMPDEST DUP2 EQ PUSH2 0x2E4 JUMPI PUSH1 0x0 DUP1 REVERT JUMPDEST POP JUMP JUMPDEST PUSH1 0x0 DUP2 CALLDATALOAD SWAP1 POP PUSH2 0x2F6 DUP2 PUSH2 0x2D0 JUMP JUMPDEST SWAP3 SWAP2 POP POP JUMP JUMPDEST PUSH1 0x0 PUSH1 0x20 DUP3 DUP5 SUB SLT ISZERO PUSH2 0x312 JUMPI PUSH2 0x311 PUSH2 0x2CB JUMP JUMPDEST JUMPDEST PUSH1 0x0 PUSH2 0x320 DUP5 DUP3 DUP6 ADD PUSH2 0x2E7 JUMP JUMPDEST SWAP2 POP POP SWAP3 SWAP2 POP POP JUMP JUMPDEST PUSH1 0x0 DUP3 DUP3 MSTORE PUSH1 0x20 DUP3 ADD SWAP1 POP SWAP3 SWAP2 POP POP JUMP JUMPDEST PUSH32 0x496E73756666696369656E742062616C616E6365000000000000000000000000 PUSH1 0x0 DUP3 ADD MSTORE POP JUMP JUMPDEST PUSH1 0x0 PUSH2 0x370 PUSH1 0x14 DUP4 PUSH2 0x329 JUMP JUMPDEST SWAP2 POP PUSH2 0x37B DUP3 PUSH2 0x33A JUMP JUMPDEST PUSH1 0x20 DUP3 ADD SWAP1 POP SWAP2 SWAP1 POP JUMP JUMPDEST PUSH1 0x0 PUSH1 0x20 DUP3 ADD SWAP1 POP DUP2 DUP2 SUB PUSH1 0x0 DUP4 ADD MSTORE PUSH2 0x39F DUP2 PUSH2 0x363 JUMP JUMPDEST SWAP1 POP SWAP2 SWAP1 POP JUMP JUMPDEST PUSH32 0x4E487B7100000000000000000000000000000000000000000000000000000000 PUSH1 0x0 MSTORE PUSH1 0x11 PUSH1 0x4 MSTORE PUSH1 0x24 PUSH1 0x0 REVERT JUMPDEST PUSH1 0x0 PUSH2 0x3E0 DUP3 PUSH2 0x297 JUMP JUMPDEST SWAP2 POP PUSH2 0x3EB DUP4 PUSH2 0x297 JUMP JUMPDEST SWAP3 POP DUP3 DUP3 SUB SWAP1 POP DUP2 DUP2 GT ISZERO PUSH2 0x403 JUMPI PUSH2 0x402 PUSH2 0x3A6 JUMP JUMPDEST JUMPDEST SWAP3 SWAP2 POP POP JUMP JUMPDEST PUSH32 0x41646420736F6D65206D6F6E6579000000000000000000000000000000000000 PUSH1 0x0 DUP3 ADD MSTORE POP JUMP JUMPDEST PUSH1 0x0 PUSH2 0x43F PUSH1 0xE DUP4 PUSH2 0x329 JUMP JUMPDEST SWAP2 POP PUSH2 0x44A DUP3 PUSH2 0x409 JUMP JUMPDEST PUSH1 0x20 DUP3 ADD SWAP1 POP SWAP2 SWAP1 POP JUMP JUMPDEST PUSH1 0x0 PUSH1 0x20 DUP3 ADD SWAP1 POP DUP2 DUP2 SUB PUSH1 0x0 DUP4 ADD MSTORE PUSH2 0x46E DUP2 PUSH2 0x432 JUMP JUMPDEST SWAP1 POP SWAP2 SWAP1 POP JUMP JUMPDEST PUSH1 0x0 PUSH2 0x480 DUP3 PUSH2 0x297 JUMP JUMPDEST SWAP2 POP PUSH2 0x48B DUP4 PUSH2 0x297 JUMP JUMPDEST SWAP3 POP DUP3 DUP3 ADD SWAP1 POP DUP1 DUP3 GT ISZERO PUSH2 0x4A3 JUMPI PUSH2 0x4A2 PUSH2 0x3A6 JUMP JUMPDEST JUMPDEST SWAP3 SWAP2 POP POP JUMP INVALID LOG2 PUSH5 0x6970667358 0x22 SLT KECCAK256 CODESIZE 0xDD 0xC9 0xEA ISZERO 0xCB 0x5F CREATE2 PUSH7 0x987671343327D9 ORIGIN 0xE SWAP1 0xE 0xF7 LOG2 0xE7 DUP15 0x28 0xE LOG1 0x22 LOG4 0x2B PUSH23 0x2364736F6C634300081200330000000000000000000000 "
				},
				"gasEstimates": {
					"creation": {
						"codeDepositCost": "249400",
						"executionCost": "287",
						"totalCost": "249687"
					},
					"external": {
						"Get_Balance()": "2504",
						"deposit()": "infinite",
						"withdraw_cash(uint256)": "infinite"
					}
				},
				"methodIdentifiers": {
					"Get_Balance()": "af328025",
					"deposit()": "d0e30db0",
					"withdraw_cash(uint256)": "b9c18f1c"
				}
			},
			"storageLayout": {
				"storage": [
					{
						"astId": 5,
						"contract": "interface/bank.sol:UserBank",
						"label": "balances",
						"offset": 0,
						"slot": "0",
						"type": "t_mapping(t_address,t_uint256)"
					}
				],
				"types": {
					"t_address": {
						"encoding": "inplace",
						"label": "address",
						"numberOfBytes": "20"
					},
					"t_mapping(t_address,t_uint256)": {
						"encoding": "mapping",
						"key": "t_address",
						"label": "mapping(address => uint256)",
						"numberOfBytes": "32",
						"value": "t_uint256"
					},
					"t_uint256": {
						"encoding": "inplace",
						"label": "uint256",
						"numberOfBytes": "32"
					}
				}
			},
			"userdoc": {
				"kind": "user",
				"methods": {},
				"version": 1
			}
		}
	}
}