{
	"ddmm.sol": {
		"NextDateCalculator": {
			"abi": [
				{
					"inputs": [
						{
							"internalType": "uint256",
							"name": "day",
							"type": "uint256"
						},
						{
							"internalType": "uint256",
							"name": "month",
							"type": "uint256"
						},
						{
							"internalType": "uint256",
							"name": "year",
							"type": "uint256"
						}
					],
					"name": "getNextDate",
					"outputs": [
						{
							"internalType": "uint256",
							"name": "",
							"type": "uint256"
						},
						{
							"internalType": "uint256",
							"name": "",
							"type": "uint256"
						},
						{
							"internalType": "uint256",
							"name": "",
							"type": "uint256"
						}
					],
					"stateMutability": "pure",
					"type": "function"
				}
			],
			"devdoc": {
				"kind": "dev",
				"methods": {},
				"version": 1
			},
			"evm": {
				"assembly": "    /* \"ddmm.sol\":60:1550  contract NextDateCalculator {... */\n  mstore(0x40, 0x80)\n  callvalue\n  dup1\n  iszero\n  tag_1\n  jumpi\n  0x00\n  dup1\n  revert\ntag_1:\n  pop\n  dataSize(sub_0)\n  dup1\n  dataOffset(sub_0)\n  0x00\n  codecopy\n  0x00\n  return\nstop\n\nsub_0: assembly {\n        /* \"ddmm.sol\":60:1550  contract NextDateCalculator {... */\n      mstore(0x40, 0x80)\n      callvalue\n      dup1\n      iszero\n      tag_1\n      jumpi\n      0x00\n      dup1\n      revert\n    tag_1:\n      pop\n      jumpi(tag_2, lt(calldatasize, 0x04))\n      shr(0xe0, calldataload(0x00))\n      dup1\n      0xa185af28\n      eq\n      tag_3\n      jumpi\n    tag_2:\n      0x00\n      dup1\n      revert\n        /* \"ddmm.sol\":999:1547  function getNextDate(uint day, uint month, uint year) public pure returns (uint, uint, uint) {... */\n    tag_3:\n      tag_4\n      0x04\n      dup1\n      calldatasize\n      sub\n      dup2\n      add\n      swap1\n      tag_5\n      swap2\n      swap1\n      tag_6\n      jump\t// in\n    tag_5:\n      tag_7\n      jump\t// in\n    tag_4:\n      mload(0x40)\n      tag_8\n      swap4\n      swap3\n      swap2\n      swap1\n      tag_9\n      jump\t// in\n    tag_8:\n      mload(0x40)\n      dup1\n      swap2\n      sub\n      swap1\n      return\n    tag_7:\n        /* \"ddmm.sol\":1074:1078  uint */\n      0x00\n        /* \"ddmm.sol\":1080:1084  uint */\n      dup1\n        /* \"ddmm.sol\":1086:1090  uint */\n      0x00\n        /* \"ddmm.sol\":1103:1121  uint daysThisMonth */\n      dup1\n        /* \"ddmm.sol\":1124:1148  daysInMonth(month, year) */\n      tag_11\n        /* \"ddmm.sol\":1136:1141  month */\n      dup7\n        /* \"ddmm.sol\":1143:1147  year */\n      dup7\n        /* \"ddmm.sol\":1124:1135  daysInMonth */\n      tag_12\n        /* \"ddmm.sol\":1124:1148  daysInMonth(month, year) */\n      jump\t// in\n    tag_11:\n        /* \"ddmm.sol\":1103:1148  uint daysThisMonth = daysInMonth(month, year) */\n      swap1\n      pop\n        /* \"ddmm.sol\":1183:1184  0 */\n      0x00\n        /* \"ddmm.sol\":1167:1180  daysThisMonth */\n      dup2\n        /* \"ddmm.sol\":1167:1184  daysThisMonth > 0 */\n      gt\n        /* \"ddmm.sol\":1159:1202  require(daysThisMonth > 0, \"Invalid month\") */\n      tag_13\n      jumpi\n      mload(0x40)\n      0x08c379a000000000000000000000000000000000000000000000000000000000\n      dup2\n      mstore\n      0x04\n      add\n      tag_14\n      swap1\n      tag_15\n      jump\t// in\n    tag_14:\n      mload(0x40)\n      dup1\n      swap2\n      sub\n      swap1\n      revert\n    tag_13:\n        /* \"ddmm.sol\":1227:1228  0 */\n      0x00\n        /* \"ddmm.sol\":1221:1224  day */\n      dup8\n        /* \"ddmm.sol\":1221:1228  day > 0 */\n      gt\n        /* \"ddmm.sol\":1221:1252  day > 0 && day <= daysThisMonth */\n      dup1\n      iszero\n      tag_16\n      jumpi\n      pop\n        /* \"ddmm.sol\":1239:1252  daysThisMonth */\n      dup1\n        /* \"ddmm.sol\":1232:1235  day */\n      dup8\n        /* \"ddmm.sol\":1232:1252  day <= daysThisMonth */\n      gt\n      iszero\n        /* \"ddmm.sol\":1221:1252  day > 0 && day <= daysThisMonth */\n    tag_16:\n        /* \"ddmm.sol\":1213:1268  require(day > 0 && day <= daysThisMonth, \"Invalid day\") */\n      tag_17\n      jumpi\n      mload(0x40)\n      0x08c379a000000000000000000000000000000000000000000000000000000000\n      dup2\n      mstore\n      0x04\n      add\n      tag_18\n      swap1\n      tag_19\n      jump\t// in\n    tag_18:\n      mload(0x40)\n      dup1\n      swap2\n      sub\n      swap1\n      revert\n    tag_17:\n        /* \"ddmm.sol\":1296:1297  1 */\n      0x01\n        /* \"ddmm.sol\":1289:1297  day += 1 */\n      dup8\n      tag_20\n      swap2\n      swap1\n      tag_21\n      jump\t// in\n    tag_20:\n      swap7\n      pop\n        /* \"ddmm.sol\":1318:1331  daysThisMonth */\n      dup1\n        /* \"ddmm.sol\":1312:1315  day */\n      dup8\n        /* \"ddmm.sol\":1312:1331  day > daysThisMonth */\n      gt\n        /* \"ddmm.sol\":1308:1494  if (day > daysThisMonth) {... */\n      iszero\n      tag_22\n      jumpi\n        /* \"ddmm.sol\":1354:1355  1 */\n      0x01\n        /* \"ddmm.sol\":1348:1355  day = 1 */\n      swap7\n      pop\n        /* \"ddmm.sol\":1379:1380  1 */\n      0x01\n        /* \"ddmm.sol\":1370:1380  month += 1 */\n      dup7\n      tag_23\n      swap2\n      swap1\n      tag_21\n      jump\t// in\n    tag_23:\n      swap6\n      pop\n        /* \"ddmm.sol\":1407:1409  12 */\n      0x0c\n        /* \"ddmm.sol\":1399:1404  month */\n      dup7\n        /* \"ddmm.sol\":1399:1409  month > 12 */\n      gt\n        /* \"ddmm.sol\":1395:1483  if (month > 12) {... */\n      iszero\n      tag_24\n      jumpi\n        /* \"ddmm.sol\":1438:1439  1 */\n      0x01\n        /* \"ddmm.sol\":1430:1439  month = 1 */\n      swap6\n      pop\n        /* \"ddmm.sol\":1466:1467  1 */\n      0x01\n        /* \"ddmm.sol\":1458:1467  year += 1 */\n      dup6\n      tag_25\n      swap2\n      swap1\n      tag_21\n      jump\t// in\n    tag_25:\n      swap5\n      pop\n        /* \"ddmm.sol\":1395:1483  if (month > 12) {... */\n    tag_24:\n        /* \"ddmm.sol\":1308:1494  if (day > daysThisMonth) {... */\n    tag_22:\n        /* \"ddmm.sol\":1522:1525  day */\n      dup7\n        /* \"ddmm.sol\":1527:1532  month */\n      dup7\n        /* \"ddmm.sol\":1534:1538  year */\n      dup7\n        /* \"ddmm.sol\":1514:1539  return (day, month, year) */\n      swap4\n      pop\n      swap4\n      pop\n      swap4\n      pop\n      pop\n        /* \"ddmm.sol\":999:1547  function getNextDate(uint day, uint month, uint year) public pure returns (uint, uint, uint) {... */\n      swap4\n      pop\n      swap4\n      pop\n      swap4\n      swap1\n      pop\n      jump\t// out\n        /* \"ddmm.sol\":411:955  function daysInMonth(uint month, uint year) internal pure returns (uint) {... */\n    tag_12:\n        /* \"ddmm.sol\":478:482  uint */\n      0x00\n        /* \"ddmm.sol\":508:509  1 */\n      0x01\n        /* \"ddmm.sol\":499:504  month */\n      dup4\n        /* \"ddmm.sol\":499:509  month == 1 */\n      eq\n        /* \"ddmm.sol\":499:523  month == 1 || month == 3 */\n      dup1\n      tag_27\n      jumpi\n      pop\n        /* \"ddmm.sol\":522:523  3 */\n      0x03\n        /* \"ddmm.sol\":513:518  month */\n      dup4\n        /* \"ddmm.sol\":513:523  month == 3 */\n      eq\n        /* \"ddmm.sol\":499:523  month == 1 || month == 3 */\n    tag_27:\n        /* \"ddmm.sol\":499:537  month == 1 || month == 3 || month == 5 */\n      dup1\n      tag_28\n      jumpi\n      pop\n        /* \"ddmm.sol\":536:537  5 */\n      0x05\n        /* \"ddmm.sol\":527:532  month */\n      dup4\n        /* \"ddmm.sol\":527:537  month == 5 */\n      eq\n        /* \"ddmm.sol\":499:537  month == 1 || month == 3 || month == 5 */\n    tag_28:\n        /* \"ddmm.sol\":499:551  month == 1 || month == 3 || month == 5 || month == 7 */\n      dup1\n      tag_29\n      jumpi\n      pop\n        /* \"ddmm.sol\":550:551  7 */\n      0x07\n        /* \"ddmm.sol\":541:546  month */\n      dup4\n        /* \"ddmm.sol\":541:551  month == 7 */\n      eq\n        /* \"ddmm.sol\":499:551  month == 1 || month == 3 || month == 5 || month == 7 */\n    tag_29:\n        /* \"ddmm.sol\":499:579  month == 1 || month == 3 || month == 5 || month == 7 || ... */\n      dup1\n      tag_30\n      jumpi\n      pop\n        /* \"ddmm.sol\":578:579  8 */\n      0x08\n        /* \"ddmm.sol\":569:574  month */\n      dup4\n        /* \"ddmm.sol\":569:579  month == 8 */\n      eq\n        /* \"ddmm.sol\":499:579  month == 1 || month == 3 || month == 5 || month == 7 || ... */\n    tag_30:\n        /* \"ddmm.sol\":499:594  month == 1 || month == 3 || month == 5 || month == 7 || ... */\n      dup1\n      tag_31\n      jumpi\n      pop\n        /* \"ddmm.sol\":592:594  10 */\n      0x0a\n        /* \"ddmm.sol\":583:588  month */\n      dup4\n        /* \"ddmm.sol\":583:594  month == 10 */\n      eq\n        /* \"ddmm.sol\":499:594  month == 1 || month == 3 || month == 5 || month == 7 || ... */\n    tag_31:\n        /* \"ddmm.sol\":499:609  month == 1 || month == 3 || month == 5 || month == 7 || ... */\n      dup1\n      tag_32\n      jumpi\n      pop\n        /* \"ddmm.sol\":607:609  12 */\n      0x0c\n        /* \"ddmm.sol\":598:603  month */\n      dup4\n        /* \"ddmm.sol\":598:609  month == 12 */\n      eq\n        /* \"ddmm.sol\":499:609  month == 1 || month == 3 || month == 5 || month == 7 || ... */\n    tag_32:\n        /* \"ddmm.sol\":495:912  if (month == 1 || month == 3 || month == 5 || month == 7 || ... */\n      iszero\n      tag_33\n      jumpi\n        /* \"ddmm.sol\":633:635  31 */\n      0x1f\n        /* \"ddmm.sol\":626:635  return 31 */\n      swap1\n      pop\n      jump(tag_26)\n        /* \"ddmm.sol\":495:912  if (month == 1 || month == 3 || month == 5 || month == 7 || ... */\n    tag_33:\n        /* \"ddmm.sol\":666:667  4 */\n      0x04\n        /* \"ddmm.sol\":657:662  month */\n      dup4\n        /* \"ddmm.sol\":657:667  month == 4 */\n      eq\n        /* \"ddmm.sol\":657:681  month == 4 || month == 6 */\n      dup1\n      tag_35\n      jumpi\n      pop\n        /* \"ddmm.sol\":680:681  6 */\n      0x06\n        /* \"ddmm.sol\":671:676  month */\n      dup4\n        /* \"ddmm.sol\":671:681  month == 6 */\n      eq\n        /* \"ddmm.sol\":657:681  month == 4 || month == 6 */\n    tag_35:\n        /* \"ddmm.sol\":657:695  month == 4 || month == 6 || month == 9 */\n      dup1\n      tag_36\n      jumpi\n      pop\n        /* \"ddmm.sol\":694:695  9 */\n      0x09\n        /* \"ddmm.sol\":685:690  month */\n      dup4\n        /* \"ddmm.sol\":685:695  month == 9 */\n      eq\n        /* \"ddmm.sol\":657:695  month == 4 || month == 6 || month == 9 */\n    tag_36:\n        /* \"ddmm.sol\":657:710  month == 4 || month == 6 || month == 9 || month == 11 */\n      dup1\n      tag_37\n      jumpi\n      pop\n        /* \"ddmm.sol\":708:710  11 */\n      0x0b\n        /* \"ddmm.sol\":699:704  month */\n      dup4\n        /* \"ddmm.sol\":699:710  month == 11 */\n      eq\n        /* \"ddmm.sol\":657:710  month == 4 || month == 6 || month == 9 || month == 11 */\n    tag_37:\n        /* \"ddmm.sol\":653:912  if (month == 4 || month == 6 || month == 9 || month == 11) {... */\n      iszero\n      tag_38\n      jumpi\n        /* \"ddmm.sol\":734:736  30 */\n      0x1e\n        /* \"ddmm.sol\":727:736  return 30 */\n      swap1\n      pop\n      jump(tag_26)\n        /* \"ddmm.sol\":653:912  if (month == 4 || month == 6 || month == 9 || month == 11) {... */\n    tag_38:\n        /* \"ddmm.sol\":767:768  2 */\n      0x02\n        /* \"ddmm.sol\":758:763  month */\n      dup4\n        /* \"ddmm.sol\":758:768  month == 2 */\n      sub\n        /* \"ddmm.sol\":754:912  if (month == 2) {... */\n      tag_40\n      jumpi\n        /* \"ddmm.sol\":789:805  isLeapYear(year) */\n      tag_41\n        /* \"ddmm.sol\":800:804  year */\n      dup3\n        /* \"ddmm.sol\":789:799  isLeapYear */\n      tag_42\n        /* \"ddmm.sol\":789:805  isLeapYear(year) */\n      jump\t// in\n    tag_41:\n        /* \"ddmm.sol\":785:901  if (isLeapYear(year)) {... */\n      iszero\n      tag_43\n      jumpi\n        /* \"ddmm.sol\":833:835  29 */\n      0x1d\n        /* \"ddmm.sol\":826:835  return 29 */\n      swap1\n      pop\n      jump(tag_26)\n        /* \"ddmm.sol\":785:901  if (isLeapYear(year)) {... */\n    tag_43:\n        /* \"ddmm.sol\":883:885  28 */\n      0x1c\n        /* \"ddmm.sol\":876:885  return 28 */\n      swap1\n      pop\n      jump(tag_26)\n        /* \"ddmm.sol\":754:912  if (month == 2) {... */\n    tag_40:\n        /* \"ddmm.sol\":929:930  0 */\n      0x00\n        /* \"ddmm.sol\":922:930  return 0 */\n      swap1\n      pop\n        /* \"ddmm.sol\":411:955  function daysInMonth(uint month, uint year) internal pure returns (uint) {... */\n    tag_26:\n      swap3\n      swap2\n      pop\n      pop\n      jump\t// out\n        /* \"ddmm.sol\":138:338  function isLeapYear(uint year) internal pure returns (bool) {... */\n    tag_42:\n        /* \"ddmm.sol\":192:196  bool */\n      0x00\n        /* \"ddmm.sol\":228:229  0 */\n      dup1\n        /* \"ddmm.sol\":221:224  400 */\n      0x0190\n        /* \"ddmm.sol\":214:218  year */\n      dup4\n        /* \"ddmm.sol\":214:224  year % 400 */\n      tag_46\n      swap2\n      swap1\n      tag_47\n      jump\t// in\n    tag_46:\n        /* \"ddmm.sol\":214:229  year % 400 == 0 */\n      eq\n        /* \"ddmm.sol\":213:268  (year % 400 == 0) || (year % 4 == 0 && year % 100 != 0) */\n      dup1\n      tag_48\n      jumpi\n      pop\n        /* \"ddmm.sol\":247:248  0 */\n      0x00\n        /* \"ddmm.sol\":242:243  4 */\n      0x04\n        /* \"ddmm.sol\":235:239  year */\n      dup4\n        /* \"ddmm.sol\":235:243  year % 4 */\n      tag_49\n      swap2\n      swap1\n      tag_47\n      jump\t// in\n    tag_49:\n        /* \"ddmm.sol\":235:248  year % 4 == 0 */\n      eq\n        /* \"ddmm.sol\":235:267  year % 4 == 0 && year % 100 != 0 */\n      dup1\n      iszero\n      tag_50\n      jumpi\n      pop\n        /* \"ddmm.sol\":266:267  0 */\n      0x00\n        /* \"ddmm.sol\":259:262  100 */\n      0x64\n        /* \"ddmm.sol\":252:256  year */\n      dup4\n        /* \"ddmm.sol\":252:262  year % 100 */\n      tag_51\n      swap2\n      swap1\n      tag_47\n      jump\t// in\n    tag_51:\n        /* \"ddmm.sol\":252:267  year % 100 != 0 */\n      eq\n      iszero\n        /* \"ddmm.sol\":235:267  year % 4 == 0 && year % 100 != 0 */\n    tag_50:\n        /* \"ddmm.sol\":213:268  (year % 400 == 0) || (year % 4 == 0 && year % 100 != 0) */\n    tag_48:\n        /* \"ddmm.sol\":209:308  if ((year % 400 == 0) || (year % 4 == 0 && year % 100 != 0)) {... */\n      iszero\n      tag_52\n      jumpi\n        /* \"ddmm.sol\":292:296  true */\n      0x01\n        /* \"ddmm.sol\":285:296  return true */\n      swap1\n      pop\n      jump(tag_45)\n        /* \"ddmm.sol\":209:308  if ((year % 400 == 0) || (year % 4 == 0 && year % 100 != 0)) {... */\n    tag_52:\n        /* \"ddmm.sol\":325:330  false */\n      0x00\n        /* \"ddmm.sol\":318:330  return false */\n      swap1\n      pop\n        /* \"ddmm.sol\":138:338  function isLeapYear(uint year) internal pure returns (bool) {... */\n    tag_45:\n      swap2\n      swap1\n      pop\n      jump\t// out\n        /* \"#utility.yul\":88:205   */\n    tag_54:\n        /* \"#utility.yul\":197:198   */\n      0x00\n        /* \"#utility.yul\":194:195   */\n      dup1\n        /* \"#utility.yul\":187:199   */\n      revert\n        /* \"#utility.yul\":334:411   */\n    tag_56:\n        /* \"#utility.yul\":371:378   */\n      0x00\n        /* \"#utility.yul\":400:405   */\n      dup2\n        /* \"#utility.yul\":389:405   */\n      swap1\n      pop\n        /* \"#utility.yul\":334:411   */\n      swap2\n      swap1\n      pop\n      jump\t// out\n        /* \"#utility.yul\":417:539   */\n    tag_57:\n        /* \"#utility.yul\":490:514   */\n      tag_73\n        /* \"#utility.yul\":508:513   */\n      dup2\n        /* \"#utility.yul\":490:514   */\n      tag_56\n      jump\t// in\n    tag_73:\n        /* \"#utility.yul\":483:488   */\n      dup2\n        /* \"#utility.yul\":480:515   */\n      eq\n        /* \"#utility.yul\":470:533   */\n      tag_74\n      jumpi\n        /* \"#utility.yul\":529:530   */\n      0x00\n        /* \"#utility.yul\":526:527   */\n      dup1\n        /* \"#utility.yul\":519:531   */\n      revert\n        /* \"#utility.yul\":470:533   */\n    tag_74:\n        /* \"#utility.yul\":417:539   */\n      pop\n      jump\t// out\n        /* \"#utility.yul\":545:684   */\n    tag_58:\n        /* \"#utility.yul\":591:596   */\n      0x00\n        /* \"#utility.yul\":629:635   */\n      dup2\n        /* \"#utility.yul\":616:636   */\n      calldataload\n        /* \"#utility.yul\":607:636   */\n      swap1\n      pop\n        /* \"#utility.yul\":645:678   */\n      tag_76\n        /* \"#utility.yul\":672:677   */\n      dup2\n        /* \"#utility.yul\":645:678   */\n      tag_57\n      jump\t// in\n    tag_76:\n        /* \"#utility.yul\":545:684   */\n      swap3\n      swap2\n      pop\n      pop\n      jump\t// out\n        /* \"#utility.yul\":690:1309   */\n    tag_6:\n        /* \"#utility.yul\":767:773   */\n      0x00\n        /* \"#utility.yul\":775:781   */\n      dup1\n        /* \"#utility.yul\":783:789   */\n      0x00\n        /* \"#utility.yul\":832:834   */\n      0x60\n        /* \"#utility.yul\":820:829   */\n      dup5\n        /* \"#utility.yul\":811:818   */\n      dup7\n        /* \"#utility.yul\":807:830   */\n      sub\n        /* \"#utility.yul\":803:835   */\n      slt\n        /* \"#utility.yul\":800:919   */\n      iszero\n      tag_78\n      jumpi\n        /* \"#utility.yul\":838:917   */\n      tag_79\n      tag_54\n      jump\t// in\n    tag_79:\n        /* \"#utility.yul\":800:919   */\n    tag_78:\n        /* \"#utility.yul\":958:959   */\n      0x00\n        /* \"#utility.yul\":983:1036   */\n      tag_80\n        /* \"#utility.yul\":1028:1035   */\n      dup7\n        /* \"#utility.yul\":1019:1025   */\n      dup3\n        /* \"#utility.yul\":1008:1017   */\n      dup8\n        /* \"#utility.yul\":1004:1026   */\n      add\n        /* \"#utility.yul\":983:1036   */\n      tag_58\n      jump\t// in\n    tag_80:\n        /* \"#utility.yul\":973:1036   */\n      swap4\n      pop\n        /* \"#utility.yul\":929:1046   */\n      pop\n        /* \"#utility.yul\":1085:1087   */\n      0x20\n        /* \"#utility.yul\":1111:1164   */\n      tag_81\n        /* \"#utility.yul\":1156:1163   */\n      dup7\n        /* \"#utility.yul\":1147:1153   */\n      dup3\n        /* \"#utility.yul\":1136:1145   */\n      dup8\n        /* \"#utility.yul\":1132:1154   */\n      add\n        /* \"#utility.yul\":1111:1164   */\n      tag_58\n      jump\t// in\n    tag_81:\n        /* \"#utility.yul\":1101:1164   */\n      swap3\n      pop\n        /* \"#utility.yul\":1056:1174   */\n      pop\n        /* \"#utility.yul\":1213:1215   */\n      0x40\n        /* \"#utility.yul\":1239:1292   */\n      tag_82\n        /* \"#utility.yul\":1284:1291   */\n      dup7\n        /* \"#utility.yul\":1275:1281   */\n      dup3\n        /* \"#utility.yul\":1264:1273   */\n      dup8\n        /* \"#utility.yul\":1260:1282   */\n      add\n        /* \"#utility.yul\":1239:1292   */\n      tag_58\n      jump\t// in\n    tag_82:\n        /* \"#utility.yul\":1229:1292   */\n      swap2\n      pop\n        /* \"#utility.yul\":1184:1302   */\n      pop\n        /* \"#utility.yul\":690:1309   */\n      swap3\n      pop\n      swap3\n      pop\n      swap3\n      jump\t// out\n        /* \"#utility.yul\":1315:1433   */\n    tag_59:\n        /* \"#utility.yul\":1402:1426   */\n      tag_84\n        /* \"#utility.yul\":1420:1425   */\n      dup2\n        /* \"#utility.yul\":1402:1426   */\n      tag_56\n      jump\t// in\n    tag_84:\n        /* \"#utility.yul\":1397:1400   */\n      dup3\n        /* \"#utility.yul\":1390:1427   */\n      mstore\n        /* \"#utility.yul\":1315:1433   */\n      pop\n      pop\n      jump\t// out\n        /* \"#utility.yul\":1439:1881   */\n    tag_9:\n        /* \"#utility.yul\":1588:1592   */\n      0x00\n        /* \"#utility.yul\":1626:1628   */\n      0x60\n        /* \"#utility.yul\":1615:1624   */\n      dup3\n        /* \"#utility.yul\":1611:1629   */\n      add\n        /* \"#utility.yul\":1603:1629   */\n      swap1\n      pop\n        /* \"#utility.yul\":1639:1710   */\n      tag_86\n        /* \"#utility.yul\":1707:1708   */\n      0x00\n        /* \"#utility.yul\":1696:1705   */\n      dup4\n        /* \"#utility.yul\":1692:1709   */\n      add\n        /* \"#utility.yul\":1683:1689   */\n      dup7\n        /* \"#utility.yul\":1639:1710   */\n      tag_59\n      jump\t// in\n    tag_86:\n        /* \"#utility.yul\":1720:1792   */\n      tag_87\n        /* \"#utility.yul\":1788:1790   */\n      0x20\n        /* \"#utility.yul\":1777:1786   */\n      dup4\n        /* \"#utility.yul\":1773:1791   */\n      add\n        /* \"#utility.yul\":1764:1770   */\n      dup6\n        /* \"#utility.yul\":1720:1792   */\n      tag_59\n      jump\t// in\n    tag_87:\n        /* \"#utility.yul\":1802:1874   */\n      tag_88\n        /* \"#utility.yul\":1870:1872   */\n      0x40\n        /* \"#utility.yul\":1859:1868   */\n      dup4\n        /* \"#utility.yul\":1855:1873   */\n      add\n        /* \"#utility.yul\":1846:1852   */\n      dup5\n        /* \"#utility.yul\":1802:1874   */\n      tag_59\n      jump\t// in\n    tag_88:\n        /* \"#utility.yul\":1439:1881   */\n      swap5\n      swap4\n      pop\n      pop\n      pop\n      pop\n      jump\t// out\n        /* \"#utility.yul\":1887:2056   */\n    tag_60:\n        /* \"#utility.yul\":1971:1982   */\n      0x00\n        /* \"#utility.yul\":2005:2011   */\n      dup3\n        /* \"#utility.yul\":2000:2003   */\n      dup3\n        /* \"#utility.yul\":1993:2012   */\n      mstore\n        /* \"#utility.yul\":2045:2049   */\n      0x20\n        /* \"#utility.yul\":2040:2043   */\n      dup3\n        /* \"#utility.yul\":2036:2050   */\n      add\n        /* \"#utility.yul\":2021:2050   */\n      swap1\n      pop\n        /* \"#utility.yul\":1887:2056   */\n      swap3\n      swap2\n      pop\n      pop\n      jump\t// out\n        /* \"#utility.yul\":2062:2225   */\n    tag_61:\n        /* \"#utility.yul\":2202:2217   */\n      0x496e76616c6964206d6f6e746800000000000000000000000000000000000000\n        /* \"#utility.yul\":2198:2199   */\n      0x00\n        /* \"#utility.yul\":2190:2196   */\n      dup3\n        /* \"#utility.yul\":2186:2200   */\n      add\n        /* \"#utility.yul\":2179:2218   */\n      mstore\n        /* \"#utility.yul\":2062:2225   */\n      pop\n      jump\t// out\n        /* \"#utility.yul\":2231:2597   */\n    tag_62:\n        /* \"#utility.yul\":2373:2376   */\n      0x00\n        /* \"#utility.yul\":2394:2461   */\n      tag_92\n        /* \"#utility.yul\":2458:2460   */\n      0x0d\n        /* \"#utility.yul\":2453:2456   */\n      dup4\n        /* \"#utility.yul\":2394:2461   */\n      tag_60\n      jump\t// in\n    tag_92:\n        /* \"#utility.yul\":2387:2461   */\n      swap2\n      pop\n        /* \"#utility.yul\":2470:2563   */\n      tag_93\n        /* \"#utility.yul\":2559:2562   */\n      dup3\n        /* \"#utility.yul\":2470:2563   */\n      tag_61\n      jump\t// in\n    tag_93:\n        /* \"#utility.yul\":2588:2590   */\n      0x20\n        /* \"#utility.yul\":2583:2586   */\n      dup3\n        /* \"#utility.yul\":2579:2591   */\n      add\n        /* \"#utility.yul\":2572:2591   */\n      swap1\n      pop\n        /* \"#utility.yul\":2231:2597   */\n      swap2\n      swap1\n      pop\n      jump\t// out\n        /* \"#utility.yul\":2603:3022   */\n    tag_15:\n        /* \"#utility.yul\":2769:2773   */\n      0x00\n        /* \"#utility.yul\":2807:2809   */\n      0x20\n        /* \"#utility.yul\":2796:2805   */\n      dup3\n        /* \"#utility.yul\":2792:2810   */\n      add\n        /* \"#utility.yul\":2784:2810   */\n      swap1\n      pop\n        /* \"#utility.yul\":2856:2865   */\n      dup2\n        /* \"#utility.yul\":2850:2854   */\n      dup2\n        /* \"#utility.yul\":2846:2866   */\n      sub\n        /* \"#utility.yul\":2842:2843   */\n      0x00\n        /* \"#utility.yul\":2831:2840   */\n      dup4\n        /* \"#utility.yul\":2827:2844   */\n      add\n        /* \"#utility.yul\":2820:2867   */\n      mstore\n        /* \"#utility.yul\":2884:3015   */\n      tag_95\n        /* \"#utility.yul\":3010:3014   */\n      dup2\n        /* \"#utility.yul\":2884:3015   */\n      tag_62\n      jump\t// in\n    tag_95:\n        /* \"#utility.yul\":2876:3015   */\n      swap1\n      pop\n        /* \"#utility.yul\":2603:3022   */\n      swap2\n      swap1\n      pop\n      jump\t// out\n        /* \"#utility.yul\":3028:3189   */\n    tag_63:\n        /* \"#utility.yul\":3168:3181   */\n      0x496e76616c696420646179000000000000000000000000000000000000000000\n        /* \"#utility.yul\":3164:3165   */\n      0x00\n        /* \"#utility.yul\":3156:3162   */\n      dup3\n        /* \"#utility.yul\":3152:3166   */\n      add\n        /* \"#utility.yul\":3145:3182   */\n      mstore\n        /* \"#utility.yul\":3028:3189   */\n      pop\n      jump\t// out\n        /* \"#utility.yul\":3195:3561   */\n    tag_64:\n        /* \"#utility.yul\":3337:3340   */\n      0x00\n        /* \"#utility.yul\":3358:3425   */\n      tag_98\n        /* \"#utility.yul\":3422:3424   */\n      0x0b\n        /* \"#utility.yul\":3417:3420   */\n      dup4\n        /* \"#utility.yul\":3358:3425   */\n      tag_60\n      jump\t// in\n    tag_98:\n        /* \"#utility.yul\":3351:3425   */\n      swap2\n      pop\n        /* \"#utility.yul\":3434:3527   */\n      tag_99\n        /* \"#utility.yul\":3523:3526   */\n      dup3\n        /* \"#utility.yul\":3434:3527   */\n      tag_63\n      jump\t// in\n    tag_99:\n        /* \"#utility.yul\":3552:3554   */\n      0x20\n        /* \"#utility.yul\":3547:3550   */\n      dup3\n        /* \"#utility.yul\":3543:3555   */\n      add\n        /* \"#utility.yul\":3536:3555   */\n      swap1\n      pop\n        /* \"#utility.yul\":3195:3561   */\n      swap2\n      swap1\n      pop\n      jump\t// out\n        /* \"#utility.yul\":3567:3986   */\n    tag_19:\n        /* \"#utility.yul\":3733:3737   */\n      0x00\n        /* \"#utility.yul\":3771:3773   */\n      0x20\n        /* \"#utility.yul\":3760:3769   */\n      dup3\n        /* \"#utility.yul\":3756:3774   */\n      add\n        /* \"#utility.yul\":3748:3774   */\n      swap1\n      pop\n        /* \"#utility.yul\":3820:3829   */\n      dup2\n        /* \"#utility.yul\":3814:3818   */\n      dup2\n        /* \"#utility.yul\":3810:3830   */\n      sub\n        /* \"#utility.yul\":3806:3807   */\n      0x00\n        /* \"#utility.yul\":3795:3804   */\n      dup4\n        /* \"#utility.yul\":3791:3808   */\n      add\n        /* \"#utility.yul\":3784:3831   */\n      mstore\n        /* \"#utility.yul\":3848:3979   */\n      tag_101\n        /* \"#utility.yul\":3974:3978   */\n      dup2\n        /* \"#utility.yul\":3848:3979   */\n      tag_64\n      jump\t// in\n    tag_101:\n        /* \"#utility.yul\":3840:3979   */\n      swap1\n      pop\n        /* \"#utility.yul\":3567:3986   */\n      swap2\n      swap1\n      pop\n      jump\t// out\n        /* \"#utility.yul\":3992:4172   */\n    tag_65:\n        /* \"#utility.yul\":4040:4117   */\n      0x4e487b7100000000000000000000000000000000000000000000000000000000\n        /* \"#utility.yul\":4037:4038   */\n      0x00\n        /* \"#utility.yul\":4030:4118   */\n      mstore\n        /* \"#utility.yul\":4137:4141   */\n      0x11\n        /* \"#utility.yul\":4134:4135   */\n      0x04\n        /* \"#utility.yul\":4127:4142   */\n      mstore\n        /* \"#utility.yul\":4161:4165   */\n      0x24\n        /* \"#utility.yul\":4158:4159   */\n      0x00\n        /* \"#utility.yul\":4151:4166   */\n      revert\n        /* \"#utility.yul\":4178:4369   */\n    tag_21:\n        /* \"#utility.yul\":4218:4221   */\n      0x00\n        /* \"#utility.yul\":4237:4257   */\n      tag_104\n        /* \"#utility.yul\":4255:4256   */\n      dup3\n        /* \"#utility.yul\":4237:4257   */\n      tag_56\n      jump\t// in\n    tag_104:\n        /* \"#utility.yul\":4232:4257   */\n      swap2\n      pop\n        /* \"#utility.yul\":4271:4291   */\n      tag_105\n        /* \"#utility.yul\":4289:4290   */\n      dup4\n        /* \"#utility.yul\":4271:4291   */\n      tag_56\n      jump\t// in\n    tag_105:\n        /* \"#utility.yul\":4266:4291   */\n      swap3\n      pop\n        /* \"#utility.yul\":4314:4315   */\n      dup3\n        /* \"#utility.yul\":4311:4312   */\n      dup3\n        /* \"#utility.yul\":4307:4316   */\n      add\n        /* \"#utility.yul\":4300:4316   */\n      swap1\n      pop\n        /* \"#utility.yul\":4335:4338   */\n      dup1\n        /* \"#utility.yul\":4332:4333   */\n      dup3\n        /* \"#utility.yul\":4329:4339   */\n      gt\n        /* \"#utility.yul\":4326:4362   */\n      iszero\n      tag_106\n      jumpi\n        /* \"#utility.yul\":4342:4360   */\n      tag_107\n      tag_65\n      jump\t// in\n    tag_107:\n        /* \"#utility.yul\":4326:4362   */\n    tag_106:\n        /* \"#utility.yul\":4178:4369   */\n      swap3\n      swap2\n      pop\n      pop\n      jump\t// out\n        /* \"#utility.yul\":4375:4555   */\n    tag_66:\n        /* \"#utility.yul\":4423:4500   */\n      0x4e487b7100000000000000000000000000000000000000000000000000000000\n        /* \"#utility.yul\":4420:4421   */\n      0x00\n        /* \"#utility.yul\":4413:4501   */\n      mstore\n        /* \"#utility.yul\":4520:4524   */\n      0x12\n        /* \"#utility.yul\":4517:4518   */\n      0x04\n        /* \"#utility.yul\":4510:4525   */\n      mstore\n        /* \"#utility.yul\":4544:4548   */\n      0x24\n        /* \"#utility.yul\":4541:4542   */\n      0x00\n        /* \"#utility.yul\":4534:4549   */\n      revert\n        /* \"#utility.yul\":4561:4737   */\n    tag_47:\n        /* \"#utility.yul\":4593:4594   */\n      0x00\n        /* \"#utility.yul\":4610:4630   */\n      tag_110\n        /* \"#utility.yul\":4628:4629   */\n      dup3\n        /* \"#utility.yul\":4610:4630   */\n      tag_56\n      jump\t// in\n    tag_110:\n        /* \"#utility.yul\":4605:4630   */\n      swap2\n      pop\n        /* \"#utility.yul\":4644:4664   */\n      tag_111\n        /* \"#utility.yul\":4662:4663   */\n      dup4\n        /* \"#utility.yul\":4644:4664   */\n      tag_56\n      jump\t// in\n    tag_111:\n        /* \"#utility.yul\":4639:4664   */\n      swap3\n      pop\n        /* \"#utility.yul\":4683:4684   */\n      dup3\n        /* \"#utility.yul\":4673:4708   */\n      tag_112\n      jumpi\n        /* \"#utility.yul\":4688:4706   */\n      tag_113\n      tag_66\n      jump\t// in\n    tag_113:\n        /* \"#utility.yul\":4673:4708   */\n    tag_112:\n        /* \"#utility.yul\":4729:4730   */\n      dup3\n        /* \"#utility.yul\":4726:4727   */\n      dup3\n        /* \"#utility.yul\":4722:4731   */\n      mod\n        /* \"#utility.yul\":4717:4731   */\n      swap1\n      pop\n        /* \"#utility.yul\":4561:4737   */\n      swap3\n      swap2\n      pop\n      pop\n      jump\t// out\n\n    auxdata: 0xa2646970667358221220f20b0e95ae9d131cd970529a59d161b75bad58e047c804b3a94da6163fa742c164736f6c63430008120033\n}\n",
				"bytecode": {
					"linkReferences": {},
					"object": "608060405234801561001057600080fd5b5061052d806100206000396000f3fe608060405234801561001057600080fd5b506004361061002b5760003560e01c8063a185af2814610030575b600080fd5b61004a600480360381019061004591906102b2565b610062565b60405161005993929190610314565b60405180910390f35b6000806000806100728686610161565b9050600081116100b7576040517f08c379a00000000000000000000000000000000000000000000000000000000081526004016100ae906103a8565b60405180910390fd5b6000871180156100c75750808711155b610106576040517f08c379a00000000000000000000000000000000000000000000000000000000081526004016100fd90610414565b60405180910390fd5b6001876101139190610463565b96508087111561014e576001965060018661012e9190610463565b9550600c86111561014d576001955060018561014a9190610463565b94505b5b8686869350935093505093509350939050565b600060018314806101725750600383145b8061017d5750600583145b806101885750600783145b806101935750600883145b8061019e5750600a83145b806101a95750600c83145b156101b757601f9050610217565b60048314806101c65750600683145b806101d15750600983145b806101dc5750600b83145b156101ea57601e9050610217565b60028303610212576101fb8261021d565b1561020957601d9050610217565b601c9050610217565b600090505b92915050565b6000806101908361022e91906104c6565b148061025f5750600060048361024491906104c6565b14801561025e5750600060648361025b91906104c6565b14155b5b1561026d5760019050610272565b600090505b919050565b600080fd5b6000819050919050565b61028f8161027c565b811461029a57600080fd5b50565b6000813590506102ac81610286565b92915050565b6000806000606084860312156102cb576102ca610277565b5b60006102d98682870161029d565b93505060206102ea8682870161029d565b92505060406102fb8682870161029d565b9150509250925092565b61030e8161027c565b82525050565b60006060820190506103296000830186610305565b6103366020830185610305565b6103436040830184610305565b949350505050565b600082825260208201905092915050565b7f496e76616c6964206d6f6e746800000000000000000000000000000000000000600082015250565b6000610392600d8361034b565b915061039d8261035c565b602082019050919050565b600060208201905081810360008301526103c181610385565b9050919050565b7f496e76616c696420646179000000000000000000000000000000000000000000600082015250565b60006103fe600b8361034b565b9150610409826103c8565b602082019050919050565b6000602082019050818103600083015261042d816103f1565b9050919050565b7f4e487b7100000000000000000000000000000000000000000000000000000000600052601160045260246000fd5b600061046e8261027c565b91506104798361027c565b925082820190508082111561049157610490610434565b5b92915050565b7f4e487b7100000000000000000000000000000000000000000000000000000000600052601260045260246000fd5b60006104d18261027c565b91506104dc8361027c565b9250826104ec576104eb610497565b5b82820690509291505056fea2646970667358221220f20b0e95ae9d131cd970529a59d161b75bad58e047c804b3a94da6163fa742c164736f6c63430008120033",
					"opcodes": "PUSH1 0x80 PUSH1 0x40 MSTORE CALLVALUE DUP1 ISZERO PUSH2 0x10 JUMPI PUSH1 0x0 DUP1 REVERT JUMPDEST POP PUSH2 0x52D DUP1 PUSH2 0x20 PUSH1 0x0 CODECOPY PUSH1 0x0 RETURN INVALID PUSH1 0x80 PUSH1 0x40 MSTORE CALLVALUE DUP1 ISZERO PUSH2 0x10 JUMPI PUSH1 0x0 DUP1 REVERT JUMPDEST POP PUSH1 0x4 CALLDATASIZE LT PUSH2 0x2B JUMPI PUSH1 0x0 CALLDATALOAD PUSH1 0xE0 SHR DUP1 PUSH4 0xA185AF28 EQ PUSH2 0x30 JUMPI JUMPDEST PUSH1 0x0 DUP1 REVERT JUMPDEST PUSH2 0x4A PUSH1 0x4 DUP1 CALLDATASIZE SUB DUP2 ADD SWAP1 PUSH2 0x45 SWAP2 SWAP1 PUSH2 0x2B2 JUMP JUMPDEST PUSH2 0x62 JUMP JUMPDEST PUSH1 0x40 MLOAD PUSH2 0x59 SWAP4 SWAP3 SWAP2 SWAP1 PUSH2 0x314 JUMP JUMPDEST PUSH1 0x40 MLOAD DUP1 SWAP2 SUB SWAP1 RETURN JUMPDEST PUSH1 0x0 DUP1 PUSH1 0x0 DUP1 PUSH2 0x72 DUP7 DUP7 PUSH2 0x161 JUMP JUMPDEST SWAP1 POP PUSH1 0x0 DUP2 GT PUSH2 0xB7 JUMPI PUSH1 0x40 MLOAD PUSH32 0x8C379A000000000000000000000000000000000000000000000000000000000 DUP2 MSTORE PUSH1 0x4 ADD PUSH2 0xAE SWAP1 PUSH2 0x3A8 JUMP JUMPDEST PUSH1 0x40 MLOAD DUP1 SWAP2 SUB SWAP1 REVERT JUMPDEST PUSH1 0x0 DUP8 GT DUP1 ISZERO PUSH2 0xC7 JUMPI POP DUP1 DUP8 GT ISZERO JUMPDEST PUSH2 0x106 JUMPI PUSH1 0x40 MLOAD PUSH32 0x8C379A000000000000000000000000000000000000000000000000000000000 DUP2 MSTORE PUSH1 0x4 ADD PUSH2 0xFD SWAP1 PUSH2 0x414 JUMP JUMPDEST PUSH1 0x40 MLOAD DUP1 SWAP2 SUB SWAP1 REVERT JUMPDEST PUSH1 0x1 DUP8 PUSH2 0x113 SWAP2 SWAP1 PUSH2 0x463 JUMP JUMPDEST SWAP7 POP DUP1 DUP8 GT ISZERO PUSH2 0x14E JUMPI PUSH1 0x1 SWAP7 POP PUSH1 0x1 DUP7 PUSH2 0x12E SWAP2 SWAP1 PUSH2 0x463 JUMP JUMPDEST SWAP6 POP PUSH1 0xC DUP7 GT ISZERO PUSH2 0x14D JUMPI PUSH1 0x1 SWAP6 POP PUSH1 0x1 DUP6 PUSH2 0x14A SWAP2 SWAP1 PUSH2 0x463 JUMP JUMPDEST SWAP5 POP JUMPDEST JUMPDEST DUP7 DUP7 DUP7 SWAP4 POP SWAP4 POP SWAP4 POP POP SWAP4 POP SWAP4 POP SWAP4 SWAP1 POP JUMP JUMPDEST PUSH1 0x0 PUSH1 0x1 DUP4 EQ DUP1 PUSH2 0x172 JUMPI POP PUSH1 0x3 DUP4 EQ JUMPDEST DUP1 PUSH2 0x17D JUMPI POP PUSH1 0x5 DUP4 EQ JUMPDEST DUP1 PUSH2 0x188 JUMPI POP PUSH1 0x7 DUP4 EQ JUMPDEST DUP1 PUSH2 0x193 JUMPI POP PUSH1 0x8 DUP4 EQ JUMPDEST DUP1 PUSH2 0x19E JUMPI POP PUSH1 0xA DUP4 EQ JUMPDEST DUP1 PUSH2 0x1A9 JUMPI POP PUSH1 0xC DUP4 EQ JUMPDEST ISZERO PUSH2 0x1B7 JUMPI PUSH1 0x1F SWAP1 POP PUSH2 0x217 JUMP JUMPDEST PUSH1 0x4 DUP4 EQ DUP1 PUSH2 0x1C6 JUMPI POP PUSH1 0x6 DUP4 EQ JUMPDEST DUP1 PUSH2 0x1D1 JUMPI POP PUSH1 0x9 DUP4 EQ JUMPDEST DUP1 PUSH2 0x1DC JUMPI POP PUSH1 0xB DUP4 EQ JUMPDEST ISZERO PUSH2 0x1EA JUMPI PUSH1 0x1E SWAP1 POP PUSH2 0x217 JUMP JUMPDEST PUSH1 0x2 DUP4 SUB PUSH2 0x212 JUMPI PUSH2 0x1FB DUP3 PUSH2 0x21D JUMP JUMPDEST ISZERO PUSH2 0x209 JUMPI PUSH1 0x1D SWAP1 POP PUSH2 0x217 JUMP JUMPDEST PUSH1 0x1C SWAP1 POP PUSH2 0x217 JUMP JUMPDEST PUSH1 0x0 SWAP1 POP JUMPDEST SWAP3 SWAP2 POP POP JUMP JUMPDEST PUSH1 0x0 DUP1 PUSH2 0x190 DUP4 PUSH2 0x22E SWAP2 SWAP1 PUSH2 0x4C6 JUMP JUMPDEST EQ DUP1 PUSH2 0x25F JUMPI POP PUSH1 0x0 PUSH1 0x4 DUP4 PUSH2 0x244 SWAP2 SWAP1 PUSH2 0x4C6 JUMP JUMPDEST EQ DUP1 ISZERO PUSH2 0x25E JUMPI POP PUSH1 0x0 PUSH1 0x64 DUP4 PUSH2 0x25B SWAP2 SWAP1 PUSH2 0x4C6 JUMP JUMPDEST EQ ISZERO JUMPDEST JUMPDEST ISZERO PUSH2 0x26D JUMPI PUSH1 0x1 SWAP1 POP PUSH2 0x272 JUMP JUMPDEST PUSH1 0x0 SWAP1 POP JUMPDEST SWAP2 SWAP1 POP JUMP JUMPDEST PUSH1 0x0 DUP1 REVERT JUMPDEST PUSH1 0x0 DUP2 SWAP1 POP SWAP2 SWAP1 POP JUMP JUMPDEST PUSH2 0x28F DUP2 PUSH2 0x27C JUMP JUMPDEST DUP2 EQ PUSH2 0x29A JUMPI PUSH1 0x0 DUP1 REVERT JUMPDEST POP JUMP JUMPDEST PUSH1 0x0 DUP2 CALLDATALOAD SWAP1 POP PUSH2 0x2AC DUP2 PUSH2 0x286 JUMP JUMPDEST SWAP3 SWAP2 POP POP JUMP JUMPDEST PUSH1 0x0 DUP1 PUSH1 0x0 PUSH1 0x60 DUP5 DUP7 SUB SLT ISZERO PUSH2 0x2CB JUMPI PUSH2 0x2CA PUSH2 0x277 JUMP JUMPDEST JUMPDEST PUSH1 0x0 PUSH2 0x2D9 DUP7 DUP3 DUP8 ADD PUSH2 0x29D JUMP JUMPDEST SWAP4 POP POP PUSH1 0x20 PUSH2 0x2EA DUP7 DUP3 DUP8 ADD PUSH2 0x29D JUMP JUMPDEST SWAP3 POP POP PUSH1 0x40 PUSH2 0x2FB DUP7 DUP3 DUP8 ADD PUSH2 0x29D JUMP JUMPDEST SWAP2 POP POP SWAP3 POP SWAP3 POP SWAP3 JUMP JUMPDEST PUSH2 0x30E DUP2 PUSH2 0x27C JUMP JUMPDEST DUP3 MSTORE POP POP JUMP JUMPDEST PUSH1 0x0 PUSH1 0x60 DUP3 ADD SWAP1 POP PUSH2 0x329 PUSH1 0x0 DUP4 ADD DUP7 PUSH2 0x305 JUMP JUMPDEST PUSH2 0x336 PUSH1 0x20 DUP4 ADD DUP6 PUSH2 0x305 JUMP JUMPDEST PUSH2 0x343 PUSH1 0x40 DUP4 ADD DUP5 PUSH2 0x305 JUMP JUMPDEST SWAP5 SWAP4 POP POP POP POP JUMP JUMPDEST PUSH1 0x0 DUP3 DUP3 MSTORE PUSH1 0x20 DUP3 ADD SWAP1 POP SWAP3 SWAP2 POP POP JUMP JUMPDEST PUSH32 0x496E76616C6964206D6F6E746800000000000000000000000000000000000000 PUSH1 0x0 DUP3 ADD MSTORE POP JUMP JUMPDEST PUSH1 0x0 PUSH2 0x392 PUSH1 0xD DUP4 PUSH2 0x34B JUMP JUMPDEST SWAP2 POP PUSH2 0x39D DUP3 PUSH2 0x35C JUMP JUMPDEST PUSH1 0x20 DUP3 ADD SWAP1 POP SWAP2 SWAP1 POP JUMP JUMPDEST PUSH1 0x0 PUSH1 0x20 DUP3 ADD SWAP1 POP DUP2 DUP2 SUB PUSH1 0x0 DUP4 ADD MSTORE PUSH2 0x3C1 DUP2 PUSH2 0x385 JUMP JUMPDEST SWAP1 POP SWAP2 SWAP1 POP JUMP JUMPDEST PUSH32 0x496E76616C696420646179000000000000000000000000000000000000000000 PUSH1 0x0 DUP3 ADD MSTORE POP JUMP JUMPDEST PUSH1 0x0 PUSH2 0x3FE PUSH1 0xB DUP4 PUSH2 0x34B JUMP JUMPDEST SWAP2 POP PUSH2 0x409 DUP3 PUSH2 0x3C8 JUMP JUMPDEST PUSH1 0x20 DUP3 ADD SWAP1 POP SWAP2 SWAP1 POP JUMP JUMPDEST PUSH1 0x0 PUSH1 0x20 DUP3 ADD SWAP1 POP DUP2 DUP2 SUB PUSH1 0x0 DUP4 ADD MSTORE PUSH2 0x42D DUP2 PUSH2 0x3F1 JUMP JUMPDEST SWAP1 POP SWAP2 SWAP1 POP JUMP JUMPDEST PUSH32 0x4E487B7100000000000000000000000000000000000000000000000000000000 PUSH1 0x0 MSTORE PUSH1 0x11 PUSH1 0x4 MSTORE PUSH1 0x24 PUSH1 0x0 REVERT JUMPDEST PUSH1 0x0 PUSH2 0x46E DUP3 PUSH2 0x27C JUMP JUMPDEST SWAP2 POP PUSH2 0x479 DUP4 PUSH2 0x27C JUMP JUMPDEST SWAP3 POP DUP3 DUP3 ADD SWAP1 POP DUP1 DUP3 GT ISZERO PUSH2 0x491 JUMPI PUSH2 0x490 PUSH2 0x434 JUMP JUMPDEST JUMPDEST SWAP3 SWAP2 POP POP JUMP JUMPDEST PUSH32 0x4E487B7100000000000000000000000000000000000000000000000000000000 PUSH1 0x0 MSTORE PUSH1 0x12 PUSH1 0x4 MSTORE PUSH1 0x24 PUSH1 0x0 REVERT JUMPDEST PUSH1 0x0 PUSH2 0x4D1 DUP3 PUSH2 0x27C JUMP JUMPDEST SWAP2 POP PUSH2 0x4DC DUP4 PUSH2 0x27C JUMP JUMPDEST SWAP3 POP DUP3 PUSH2 0x4EC JUMPI PUSH2 0x4EB PUSH2 0x497 JUMP JUMPDEST JUMPDEST DUP3 DUP3 MOD SWAP1 POP SWAP3 SWAP2 POP POP JUMP INVALID LOG2 PUSH5 0x6970667358 0x22 SLT KECCAK256 CALLCODE SIGNEXTEND 0xE SWAP6 0xAE SWAP14 SGT SHR 0xD9 PUSH17 0x529A59D161B75BAD58E047C804B3A94DA6 AND EXTCODEHASH 0xA7 TIMESTAMP 0xC1 PUSH5 0x736F6C6343 STOP ADDMOD SLT STOP CALLER "
				},
				"gasEstimates": {
					"creation": {
						"codeDepositCost": "265000",
						"executionCost": "306",
						"totalCost": "265306"
					},
					"external": {
						"getNextDate(uint256,uint256,uint256)": "infinite"
					},
					"internal": {
						"daysInMonth(uint256,uint256)": "infinite",
						"isLeapYear(uint256)": "infinite"
					}
				},
				"methodIdentifiers": {
					"getNextDate(uint256,uint256,uint256)": "a185af28"
				}
			},
			"storageLayout": {
				"storage": [],
				"types": null
			},
			"userdoc": {
				"kind": "user",
				"methods": {},
				"version": 1
			}
		}
	}
}