{
	"tp/tp2.sol": {
		"StudentData": {
			"abi": [
				{
					"inputs": [],
					"name": "getAll_student",
					"outputs": [
						{
							"components": [
								{
									"internalType": "string",
									"name": "name",
									"type": "string"
								},
								{
									"internalType": "uint256",
									"name": "age",
									"type": "uint256"
								}
							],
							"internalType": "struct StudentData.Student[]",
							"name": "",
							"type": "tuple[]"
						}
					],
					"stateMutability": "view",
					"type": "function"
				},
				{
					"inputs": [
						{
							"internalType": "uint256",
							"name": "index",
							"type": "uint256"
						}
					],
					"name": "getstudent",
					"outputs": [
						{
							"internalType": "string",
							"name": "",
							"type": "string"
						},
						{
							"internalType": "uint256",
							"name": "",
							"type": "uint256"
						}
					],
					"stateMutability": "view",
					"type": "function"
				},
				{
					"inputs": [
						{
							"internalType": "uint256",
							"name": "",
							"type": "uint256"
						}
					],
					"name": "s1",
					"outputs": [
						{
							"internalType": "string",
							"name": "name",
							"type": "string"
						},
						{
							"internalType": "uint256",
							"name": "age",
							"type": "uint256"
						}
					],
					"stateMutability": "view",
					"type": "function"
				},
				{
					"inputs": [
						{
							"internalType": "string",
							"name": "names",
							"type": "string"
						},
						{
							"internalType": "uint256",
							"name": "age",
							"type": "uint256"
						}
					],
					"name": "setStudent",
					"outputs": [],
					"stateMutability": "nonpayable",
					"type": "function"
				}
			],
			"devdoc": {
				"kind": "dev",
				"methods": {},
				"version": 1
			},
			"evm": {
				"assembly": "    /* \"tp/tp2.sol\":60:748  contract StudentData {... */\n  mstore(0x40, 0x80)\n  callvalue\n  dup1\n  iszero\n  tag_1\n  jumpi\n  0x00\n  dup1\n  revert\ntag_1:\n  pop\n  dataSize(sub_0)\n  dup1\n  dataOffset(sub_0)\n  0x00\n  codecopy\n  0x00\n  return\nstop\n\nsub_0: assembly {\n        /* \"tp/tp2.sol\":60:748  contract StudentData {... */\n      mstore(0x40, 0x80)\n      callvalue\n      dup1\n      iszero\n      tag_1\n      jumpi\n      0x00\n      dup1\n      revert\n    tag_1:\n      pop\n      jumpi(tag_2, lt(calldatasize, 0x04))\n      shr(0xe0, calldataload(0x00))\n      dup1\n      0x1ecdd9a0\n      eq\n      tag_3\n      jumpi\n      dup1\n      0x448a8e1e\n      eq\n      tag_4\n      jumpi\n      dup1\n      0x9b4d52dd\n      eq\n      tag_5\n      jumpi\n      dup1\n      0xb0f3bdc2\n      eq\n      tag_6\n      jumpi\n    tag_2:\n      0x00\n      dup1\n      revert\n        /* \"tp/tp2.sol\":658:743  function getAll_student() public view returns (Student [] memory){... */\n    tag_3:\n      tag_7\n      tag_8\n      jump\t// in\n    tag_7:\n      mload(0x40)\n      tag_9\n      swap2\n      swap1\n      tag_10\n      jump\t// in\n    tag_9:\n      mload(0x40)\n      dup1\n      swap2\n      sub\n      swap1\n      return\n        /* \"tp/tp2.sol\":162:182  Student [] public s1 */\n    tag_4:\n      tag_11\n      0x04\n      dup1\n      calldatasize\n      sub\n      dup2\n      add\n      swap1\n      tag_12\n      swap2\n      swap1\n      tag_13\n      jump\t// in\n    tag_12:\n      tag_14\n      jump\t// in\n    tag_11:\n      mload(0x40)\n      tag_15\n      swap3\n      swap2\n      swap1\n      tag_16\n      jump\t// in\n    tag_15:\n      mload(0x40)\n      dup1\n      swap2\n      sub\n      swap1\n      return\n        /* \"tp/tp2.sol\":314:420  function setStudent(string memory names, uint age) public {... */\n    tag_5:\n      tag_17\n      0x04\n      dup1\n      calldatasize\n      sub\n      dup2\n      add\n      swap1\n      tag_18\n      swap2\n      swap1\n      tag_19\n      jump\t// in\n    tag_18:\n      tag_20\n      jump\t// in\n    tag_17:\n      stop\n        /* \"tp/tp2.sol\":426:654  function getstudent (uint index) public view returns (string memory, uint){... */\n    tag_6:\n      tag_21\n      0x04\n      dup1\n      calldatasize\n      sub\n      dup2\n      add\n      swap1\n      tag_22\n      swap2\n      swap1\n      tag_13\n      jump\t// in\n    tag_22:\n      tag_23\n      jump\t// in\n    tag_21:\n      mload(0x40)\n      tag_24\n      swap3\n      swap2\n      swap1\n      tag_16\n      jump\t// in\n    tag_24:\n      mload(0x40)\n      dup1\n      swap2\n      sub\n      swap1\n      return\n        /* \"tp/tp2.sol\":658:743  function getAll_student() public view returns (Student [] memory){... */\n    tag_8:\n        /* \"tp/tp2.sol\":705:722  Student [] memory */\n      0x60\n        /* \"tp/tp2.sol\":737:739  s1 */\n      0x00\n        /* \"tp/tp2.sol\":730:739  return s1 */\n      dup1\n      sload\n      dup1\n      0x20\n      mul\n      0x20\n      add\n      mload(0x40)\n      swap1\n      dup2\n      add\n      0x40\n      mstore\n      dup1\n      swap3\n      swap2\n      swap1\n      dup2\n      dup2\n      mstore\n      0x20\n      add\n      0x00\n      swap1\n    tag_26:\n      dup3\n      dup3\n      lt\n      iszero\n      tag_27\n      jumpi\n      dup4\n      dup3\n      swap1\n      0x00\n      mstore\n      keccak256(0x00, 0x20)\n      swap1\n      0x02\n      mul\n      add\n      mload(0x40)\n      dup1\n      0x40\n      add\n      0x40\n      mstore\n      swap1\n      dup2\n      0x00\n      dup3\n      add\n      dup1\n      sload\n      tag_29\n      swap1\n      tag_30\n      jump\t// in\n    tag_29:\n      dup1\n      0x1f\n      add\n      0x20\n      dup1\n      swap2\n      div\n      mul\n      0x20\n      add\n      mload(0x40)\n      swap1\n      dup2\n      add\n      0x40\n      mstore\n      dup1\n      swap3\n      swap2\n      swap1\n      dup2\n      dup2\n      mstore\n      0x20\n      add\n      dup3\n      dup1\n      sload\n      tag_31\n      swap1\n      tag_30\n      jump\t// in\n    tag_31:\n      dup1\n      iszero\n      tag_32\n      jumpi\n      dup1\n      0x1f\n      lt\n      tag_33\n      jumpi\n      0x0100\n      dup1\n      dup4\n      sload\n      div\n      mul\n      dup4\n      mstore\n      swap2\n      0x20\n      add\n      swap2\n      jump(tag_32)\n    tag_33:\n      dup3\n      add\n      swap2\n      swap1\n      0x00\n      mstore\n      keccak256(0x00, 0x20)\n      swap1\n    tag_34:\n      dup2\n      sload\n      dup2\n      mstore\n      swap1\n      0x01\n      add\n      swap1\n      0x20\n      add\n      dup1\n      dup4\n      gt\n      tag_34\n      jumpi\n      dup3\n      swap1\n      sub\n      0x1f\n      and\n      dup3\n      add\n      swap2\n    tag_32:\n      pop\n      pop\n      pop\n      pop\n      pop\n      dup2\n      mstore\n      0x20\n      add\n      0x01\n      dup3\n      add\n      sload\n      dup2\n      mstore\n      pop\n      pop\n      dup2\n      mstore\n      0x20\n      add\n      swap1\n      0x01\n      add\n      swap1\n      jump(tag_26)\n    tag_27:\n      pop\n      pop\n      pop\n      pop\n      swap1\n      pop\n        /* \"tp/tp2.sol\":658:743  function getAll_student() public view returns (Student [] memory){... */\n      swap1\n      jump\t// out\n        /* \"tp/tp2.sol\":162:182  Student [] public s1 */\n    tag_14:\n      0x00\n      dup2\n      dup2\n      sload\n      dup2\n      lt\n      tag_35\n      jumpi\n      0x00\n      dup1\n      revert\n    tag_35:\n      swap1\n      0x00\n      mstore\n      keccak256(0x00, 0x20)\n      swap1\n      0x02\n      mul\n      add\n      0x00\n      swap2\n      pop\n      swap1\n      pop\n      dup1\n      0x00\n      add\n      dup1\n      sload\n      tag_37\n      swap1\n      tag_30\n      jump\t// in\n    tag_37:\n      dup1\n      0x1f\n      add\n      0x20\n      dup1\n      swap2\n      div\n      mul\n      0x20\n      add\n      mload(0x40)\n      swap1\n      dup2\n      add\n      0x40\n      mstore\n      dup1\n      swap3\n      swap2\n      swap1\n      dup2\n      dup2\n      mstore\n      0x20\n      add\n      dup3\n      dup1\n      sload\n      tag_38\n      swap1\n      tag_30\n      jump\t// in\n    tag_38:\n      dup1\n      iszero\n      tag_39\n      jumpi\n      dup1\n      0x1f\n      lt\n      tag_40\n      jumpi\n      0x0100\n      dup1\n      dup4\n      sload\n      div\n      mul\n      dup4\n      mstore\n      swap2\n      0x20\n      add\n      swap2\n      jump(tag_39)\n    tag_40:\n      dup3\n      add\n      swap2\n      swap1\n      0x00\n      mstore\n      keccak256(0x00, 0x20)\n      swap1\n    tag_41:\n      dup2\n      sload\n      dup2\n      mstore\n      swap1\n      0x01\n      add\n      swap1\n      0x20\n      add\n      dup1\n      dup4\n      gt\n      tag_41\n      jumpi\n      dup3\n      swap1\n      sub\n      0x1f\n      and\n      dup3\n      add\n      swap2\n    tag_39:\n      pop\n      pop\n      pop\n      pop\n      pop\n      swap1\n      dup1\n      0x01\n      add\n      sload\n      swap1\n      pop\n      dup3\n      jump\t// out\n        /* \"tp/tp2.sol\":314:420  function setStudent(string memory names, uint age) public {... */\n    tag_20:\n        /* \"tp/tp2.sol\":383:385  s1 */\n      0x00\n        /* \"tp/tp2.sol\":391:410  Student(names, age) */\n      mload(0x40)\n      dup1\n      0x40\n      add\n      0x40\n      mstore\n      dup1\n        /* \"tp/tp2.sol\":399:404  names */\n      dup5\n        /* \"tp/tp2.sol\":391:410  Student(names, age) */\n      dup2\n      mstore\n      0x20\n      add\n        /* \"tp/tp2.sol\":406:409  age */\n      dup4\n        /* \"tp/tp2.sol\":391:410  Student(names, age) */\n      dup2\n      mstore\n      pop\n        /* \"tp/tp2.sol\":383:411  s1.push(Student(names, age)) */\n      swap1\n      dup1\n      0x01\n      dup2\n      sload\n      add\n      dup1\n      dup3\n      sstore\n      dup1\n      swap2\n      pop\n      pop\n      0x01\n      swap1\n      sub\n      swap1\n      0x00\n      mstore\n      keccak256(0x00, 0x20)\n      swap1\n      0x02\n      mul\n      add\n      0x00\n      swap1\n      swap2\n      swap1\n      swap2\n      swap1\n      swap2\n      pop\n      0x00\n      dup3\n      add\n      mload\n      dup2\n      0x00\n      add\n      swap1\n      dup2\n      tag_44\n      swap2\n      swap1\n      tag_45\n      jump\t// in\n    tag_44:\n      pop\n      0x20\n      dup3\n      add\n      mload\n      dup2\n      0x01\n      add\n      sstore\n      pop\n      pop\n        /* \"tp/tp2.sol\":314:420  function setStudent(string memory names, uint age) public {... */\n      pop\n      pop\n      jump\t// out\n        /* \"tp/tp2.sol\":426:654  function getstudent (uint index) public view returns (string memory, uint){... */\n    tag_23:\n        /* \"tp/tp2.sol\":480:493  string memory */\n      0x60\n        /* \"tp/tp2.sol\":495:499  uint */\n      0x00\n        /* \"tp/tp2.sol\":527:528  0 */\n      dup1\n        /* \"tp/tp2.sol\":519:524  index */\n      dup4\n        /* \"tp/tp2.sol\":519:528  index > 0 */\n      gt\n        /* \"tp/tp2.sol\":519:550  index > 0 && index <= s1.length */\n      dup1\n      iszero\n      tag_47\n      jumpi\n      pop\n        /* \"tp/tp2.sol\":541:543  s1 */\n      0x00\n        /* \"tp/tp2.sol\":541:550  s1.length */\n      dup1\n      sload\n      swap1\n      pop\n        /* \"tp/tp2.sol\":532:537  index */\n      dup4\n        /* \"tp/tp2.sol\":532:550  index <= s1.length */\n      gt\n      iszero\n        /* \"tp/tp2.sol\":519:550  index > 0 && index <= s1.length */\n    tag_47:\n        /* \"tp/tp2.sol\":511:567  require(index > 0 && index <= s1.length,\"Invalid Index\") */\n      tag_48\n      jumpi\n      mload(0x40)\n      0x08c379a000000000000000000000000000000000000000000000000000000000\n      dup2\n      mstore\n      0x04\n      add\n      tag_49\n      swap1\n      tag_50\n      jump\t// in\n    tag_49:\n      mload(0x40)\n      dup1\n      swap2\n      sub\n      swap1\n      revert\n    tag_48:\n        /* \"tp/tp2.sol\":580:596  Student memory s */\n      0x00\n        /* \"tp/tp2.sol\":599:601  s1 */\n      dup1\n        /* \"tp/tp2.sol\":610:611  1 */\n      0x01\n        /* \"tp/tp2.sol\":602:607  index */\n      dup6\n        /* \"tp/tp2.sol\":602:611  index - 1 */\n      tag_51\n      swap2\n      swap1\n      tag_52\n      jump\t// in\n    tag_51:\n        /* \"tp/tp2.sol\":599:612  s1[index - 1] */\n      dup2\n      sload\n      dup2\n      lt\n      tag_53\n      jumpi\n      tag_54\n      tag_55\n      jump\t// in\n    tag_54:\n    tag_53:\n      swap1\n      0x00\n      mstore\n      keccak256(0x00, 0x20)\n      swap1\n      0x02\n      mul\n      add\n        /* \"tp/tp2.sol\":580:612  Student memory s = s1[index - 1] */\n      mload(0x40)\n      dup1\n      0x40\n      add\n      0x40\n      mstore\n      swap1\n      dup2\n      0x00\n      dup3\n      add\n      dup1\n      sload\n      tag_57\n      swap1\n      tag_30\n      jump\t// in\n    tag_57:\n      dup1\n      0x1f\n      add\n      0x20\n      dup1\n      swap2\n      div\n      mul\n      0x20\n      add\n      mload(0x40)\n      swap1\n      dup2\n      add\n      0x40\n      mstore\n      dup1\n      swap3\n      swap2\n      swap1\n      dup2\n      dup2\n      mstore\n      0x20\n      add\n      dup3\n      dup1\n      sload\n      tag_58\n      swap1\n      tag_30\n      jump\t// in\n    tag_58:\n      dup1\n      iszero\n      tag_59\n      jumpi\n      dup1\n      0x1f\n      lt\n      tag_60\n      jumpi\n      0x0100\n      dup1\n      dup4\n      sload\n      div\n      mul\n      dup4\n      mstore\n      swap2\n      0x20\n      add\n      swap2\n      jump(tag_59)\n    tag_60:\n      dup3\n      add\n      swap2\n      swap1\n      0x00\n      mstore\n      keccak256(0x00, 0x20)\n      swap1\n    tag_61:\n      dup2\n      sload\n      dup2\n      mstore\n      swap1\n      0x01\n      add\n      swap1\n      0x20\n      add\n      dup1\n      dup4\n      gt\n      tag_61\n      jumpi\n      dup3\n      swap1\n      sub\n      0x1f\n      and\n      dup3\n      add\n      swap2\n    tag_59:\n      pop\n      pop\n      pop\n      pop\n      pop\n      dup2\n      mstore\n      0x20\n      add\n      0x01\n      dup3\n      add\n      sload\n      dup2\n      mstore\n      pop\n      pop\n      swap1\n      pop\n        /* \"tp/tp2.sol\":631:632  s */\n      dup1\n        /* \"tp/tp2.sol\":631:637  s.name */\n      0x00\n      add\n      mload\n        /* \"tp/tp2.sol\":639:640  s */\n      dup2\n        /* \"tp/tp2.sol\":639:644  s.age */\n      0x20\n      add\n      mload\n        /* \"tp/tp2.sol\":623:645  return (s.name, s.age) */\n      swap3\n      pop\n      swap3\n      pop\n      pop\n        /* \"tp/tp2.sol\":426:654  function getstudent (uint index) public view returns (string memory, uint){... */\n      swap2\n      pop\n      swap2\n      jump\t// out\n        /* \"#utility.yul\":7:143   */\n    tag_62:\n        /* \"#utility.yul\":96:102   */\n      0x00\n        /* \"#utility.yul\":130:135   */\n      dup2\n        /* \"#utility.yul\":124:136   */\n      mload\n        /* \"#utility.yul\":114:136   */\n      swap1\n      pop\n        /* \"#utility.yul\":7:143   */\n      swap2\n      swap1\n      pop\n      jump\t// out\n        /* \"#utility.yul\":149:355   */\n    tag_63:\n        /* \"#utility.yul\":270:281   */\n      0x00\n        /* \"#utility.yul\":304:310   */\n      dup3\n        /* \"#utility.yul\":299:302   */\n      dup3\n        /* \"#utility.yul\":292:311   */\n      mstore\n        /* \"#utility.yul\":344:348   */\n      0x20\n        /* \"#utility.yul\":339:342   */\n      dup3\n        /* \"#utility.yul\":335:349   */\n      add\n        /* \"#utility.yul\":320:349   */\n      swap1\n      pop\n        /* \"#utility.yul\":149:355   */\n      swap3\n      swap2\n      pop\n      pop\n      jump\t// out\n        /* \"#utility.yul\":361:515   */\n    tag_64:\n        /* \"#utility.yul\":450:454   */\n      0x00\n        /* \"#utility.yul\":473:476   */\n      dup2\n        /* \"#utility.yul\":465:476   */\n      swap1\n      pop\n        /* \"#utility.yul\":503:507   */\n      0x20\n        /* \"#utility.yul\":498:501   */\n      dup3\n        /* \"#utility.yul\":494:508   */\n      add\n        /* \"#utility.yul\":486:508   */\n      swap1\n      pop\n        /* \"#utility.yul\":361:515   */\n      swap2\n      swap1\n      pop\n      jump\t// out\n        /* \"#utility.yul\":521:620   */\n    tag_65:\n        /* \"#utility.yul\":573:579   */\n      0x00\n        /* \"#utility.yul\":607:612   */\n      dup2\n        /* \"#utility.yul\":601:613   */\n      mload\n        /* \"#utility.yul\":591:613   */\n      swap1\n      pop\n        /* \"#utility.yul\":521:620   */\n      swap2\n      swap1\n      pop\n      jump\t// out\n        /* \"#utility.yul\":626:785   */\n    tag_66:\n        /* \"#utility.yul\":700:711   */\n      0x00\n        /* \"#utility.yul\":734:740   */\n      dup3\n        /* \"#utility.yul\":729:732   */\n      dup3\n        /* \"#utility.yul\":722:741   */\n      mstore\n        /* \"#utility.yul\":774:778   */\n      0x20\n        /* \"#utility.yul\":769:772   */\n      dup3\n        /* \"#utility.yul\":765:779   */\n      add\n        /* \"#utility.yul\":750:779   */\n      swap1\n      pop\n        /* \"#utility.yul\":626:785   */\n      swap3\n      swap2\n      pop\n      pop\n      jump\t// out\n        /* \"#utility.yul\":791:1037   */\n    tag_67:\n        /* \"#utility.yul\":872:873   */\n      0x00\n        /* \"#utility.yul\":882:995   */\n    tag_119:\n        /* \"#utility.yul\":896:902   */\n      dup4\n        /* \"#utility.yul\":893:894   */\n      dup2\n        /* \"#utility.yul\":890:903   */\n      lt\n        /* \"#utility.yul\":882:995   */\n      iszero\n      tag_121\n      jumpi\n        /* \"#utility.yul\":981:982   */\n      dup1\n        /* \"#utility.yul\":976:979   */\n      dup3\n        /* \"#utility.yul\":972:983   */\n      add\n        /* \"#utility.yul\":966:984   */\n      mload\n        /* \"#utility.yul\":962:963   */\n      dup2\n        /* \"#utility.yul\":957:960   */\n      dup5\n        /* \"#utility.yul\":953:964   */\n      add\n        /* \"#utility.yul\":946:985   */\n      mstore\n        /* \"#utility.yul\":918:920   */\n      0x20\n        /* \"#utility.yul\":915:916   */\n      dup2\n        /* \"#utility.yul\":911:921   */\n      add\n        /* \"#utility.yul\":906:921   */\n      swap1\n      pop\n        /* \"#utility.yul\":882:995   */\n      jump(tag_119)\n    tag_121:\n        /* \"#utility.yul\":1029:1030   */\n      0x00\n        /* \"#utility.yul\":1020:1026   */\n      dup5\n        /* \"#utility.yul\":1015:1018   */\n      dup5\n        /* \"#utility.yul\":1011:1027   */\n      add\n        /* \"#utility.yul\":1004:1031   */\n      mstore\n        /* \"#utility.yul\":853:1037   */\n      pop\n        /* \"#utility.yul\":791:1037   */\n      pop\n      pop\n      pop\n      jump\t// out\n        /* \"#utility.yul\":1043:1145   */\n    tag_68:\n        /* \"#utility.yul\":1084:1090   */\n      0x00\n        /* \"#utility.yul\":1135:1137   */\n      0x1f\n        /* \"#utility.yul\":1131:1138   */\n      not\n        /* \"#utility.yul\":1126:1128   */\n      0x1f\n        /* \"#utility.yul\":1119:1124   */\n      dup4\n        /* \"#utility.yul\":1115:1129   */\n      add\n        /* \"#utility.yul\":1111:1139   */\n      and\n        /* \"#utility.yul\":1101:1139   */\n      swap1\n      pop\n        /* \"#utility.yul\":1043:1145   */\n      swap2\n      swap1\n      pop\n      jump\t// out\n        /* \"#utility.yul\":1151:1508   */\n    tag_69:\n        /* \"#utility.yul\":1229:1232   */\n      0x00\n        /* \"#utility.yul\":1257:1296   */\n      tag_124\n        /* \"#utility.yul\":1290:1295   */\n      dup3\n        /* \"#utility.yul\":1257:1296   */\n      tag_65\n      jump\t// in\n    tag_124:\n        /* \"#utility.yul\":1312:1373   */\n      tag_125\n        /* \"#utility.yul\":1366:1372   */\n      dup2\n        /* \"#utility.yul\":1361:1364   */\n      dup6\n        /* \"#utility.yul\":1312:1373   */\n      tag_66\n      jump\t// in\n    tag_125:\n        /* \"#utility.yul\":1305:1373   */\n      swap4\n      pop\n        /* \"#utility.yul\":1382:1447   */\n      tag_126\n        /* \"#utility.yul\":1440:1446   */\n      dup2\n        /* \"#utility.yul\":1435:1438   */\n      dup6\n        /* \"#utility.yul\":1428:1432   */\n      0x20\n        /* \"#utility.yul\":1421:1426   */\n      dup7\n        /* \"#utility.yul\":1417:1433   */\n      add\n        /* \"#utility.yul\":1382:1447   */\n      tag_67\n      jump\t// in\n    tag_126:\n        /* \"#utility.yul\":1472:1501   */\n      tag_127\n        /* \"#utility.yul\":1494:1500   */\n      dup2\n        /* \"#utility.yul\":1472:1501   */\n      tag_68\n      jump\t// in\n    tag_127:\n        /* \"#utility.yul\":1467:1470   */\n      dup5\n        /* \"#utility.yul\":1463:1502   */\n      add\n        /* \"#utility.yul\":1456:1502   */\n      swap2\n      pop\n        /* \"#utility.yul\":1233:1508   */\n      pop\n        /* \"#utility.yul\":1151:1508   */\n      swap3\n      swap2\n      pop\n      pop\n      jump\t// out\n        /* \"#utility.yul\":1514:1591   */\n    tag_70:\n        /* \"#utility.yul\":1551:1558   */\n      0x00\n        /* \"#utility.yul\":1580:1585   */\n      dup2\n        /* \"#utility.yul\":1569:1585   */\n      swap1\n      pop\n        /* \"#utility.yul\":1514:1591   */\n      swap2\n      swap1\n      pop\n      jump\t// out\n        /* \"#utility.yul\":1597:1705   */\n    tag_71:\n        /* \"#utility.yul\":1674:1698   */\n      tag_130\n        /* \"#utility.yul\":1692:1697   */\n      dup2\n        /* \"#utility.yul\":1674:1698   */\n      tag_70\n      jump\t// in\n    tag_130:\n        /* \"#utility.yul\":1669:1672   */\n      dup3\n        /* \"#utility.yul\":1662:1699   */\n      mstore\n        /* \"#utility.yul\":1597:1705   */\n      pop\n      pop\n      jump\t// out\n        /* \"#utility.yul\":1775:2364   */\n    tag_72:\n        /* \"#utility.yul\":1878:1881   */\n      0x00\n        /* \"#utility.yul\":1914:1918   */\n      0x40\n        /* \"#utility.yul\":1909:1912   */\n      dup4\n        /* \"#utility.yul\":1905:1919   */\n      add\n        /* \"#utility.yul\":2001:2005   */\n      0x00\n        /* \"#utility.yul\":1994:1999   */\n      dup4\n        /* \"#utility.yul\":1990:2006   */\n      add\n        /* \"#utility.yul\":1984:2007   */\n      mload\n        /* \"#utility.yul\":2054:2057   */\n      dup5\n        /* \"#utility.yul\":2048:2052   */\n      dup3\n        /* \"#utility.yul\":2044:2058   */\n      sub\n        /* \"#utility.yul\":2037:2041   */\n      0x00\n        /* \"#utility.yul\":2032:2035   */\n      dup7\n        /* \"#utility.yul\":2028:2042   */\n      add\n        /* \"#utility.yul\":2021:2059   */\n      mstore\n        /* \"#utility.yul\":2080:2153   */\n      tag_132\n        /* \"#utility.yul\":2148:2152   */\n      dup3\n        /* \"#utility.yul\":2134:2146   */\n      dup3\n        /* \"#utility.yul\":2080:2153   */\n      tag_69\n      jump\t// in\n    tag_132:\n        /* \"#utility.yul\":2072:2153   */\n      swap2\n      pop\n        /* \"#utility.yul\":1929:2164   */\n      pop\n        /* \"#utility.yul\":2245:2249   */\n      0x20\n        /* \"#utility.yul\":2238:2243   */\n      dup4\n        /* \"#utility.yul\":2234:2250   */\n      add\n        /* \"#utility.yul\":2228:2251   */\n      mload\n        /* \"#utility.yul\":2264:2327   */\n      tag_133\n        /* \"#utility.yul\":2321:2325   */\n      0x20\n        /* \"#utility.yul\":2316:2319   */\n      dup7\n        /* \"#utility.yul\":2312:2326   */\n      add\n        /* \"#utility.yul\":2298:2310   */\n      dup3\n        /* \"#utility.yul\":2264:2327   */\n      tag_71\n      jump\t// in\n    tag_133:\n        /* \"#utility.yul\":2174:2337   */\n      pop\n        /* \"#utility.yul\":2354:2358   */\n      dup1\n        /* \"#utility.yul\":2347:2358   */\n      swap2\n      pop\n        /* \"#utility.yul\":1883:2364   */\n      pop\n        /* \"#utility.yul\":1775:2364   */\n      swap3\n      swap2\n      pop\n      pop\n      jump\t// out\n        /* \"#utility.yul\":2370:2614   */\n    tag_73:\n        /* \"#utility.yul\":2483:2493   */\n      0x00\n        /* \"#utility.yul\":2518:2608   */\n      tag_135\n        /* \"#utility.yul\":2604:2607   */\n      dup4\n        /* \"#utility.yul\":2596:2602   */\n      dup4\n        /* \"#utility.yul\":2518:2608   */\n      tag_72\n      jump\t// in\n    tag_135:\n        /* \"#utility.yul\":2504:2608   */\n      swap1\n      pop\n        /* \"#utility.yul\":2370:2614   */\n      swap3\n      swap2\n      pop\n      pop\n      jump\t// out\n        /* \"#utility.yul\":2620:2755   */\n    tag_74:\n        /* \"#utility.yul\":2712:2716   */\n      0x00\n        /* \"#utility.yul\":2744:2748   */\n      0x20\n        /* \"#utility.yul\":2739:2742   */\n      dup3\n        /* \"#utility.yul\":2735:2749   */\n      add\n        /* \"#utility.yul\":2727:2749   */\n      swap1\n      pop\n        /* \"#utility.yul\":2620:2755   */\n      swap2\n      swap1\n      pop\n      jump\t// out\n        /* \"#utility.yul\":2829:3916   */\n    tag_75:\n        /* \"#utility.yul\":2992:2995   */\n      0x00\n        /* \"#utility.yul\":3021:3097   */\n      tag_138\n        /* \"#utility.yul\":3091:3096   */\n      dup3\n        /* \"#utility.yul\":3021:3097   */\n      tag_62\n      jump\t// in\n    tag_138:\n        /* \"#utility.yul\":3113:3221   */\n      tag_139\n        /* \"#utility.yul\":3214:3220   */\n      dup2\n        /* \"#utility.yul\":3209:3212   */\n      dup6\n        /* \"#utility.yul\":3113:3221   */\n      tag_63\n      jump\t// in\n    tag_139:\n        /* \"#utility.yul\":3106:3221   */\n      swap4\n      pop\n        /* \"#utility.yul\":3247:3250   */\n      dup4\n        /* \"#utility.yul\":3292:3296   */\n      0x20\n        /* \"#utility.yul\":3284:3290   */\n      dup3\n        /* \"#utility.yul\":3280:3297   */\n      mul\n        /* \"#utility.yul\":3275:3278   */\n      dup6\n        /* \"#utility.yul\":3271:3298   */\n      add\n        /* \"#utility.yul\":3322:3400   */\n      tag_140\n        /* \"#utility.yul\":3394:3399   */\n      dup6\n        /* \"#utility.yul\":3322:3400   */\n      tag_64\n      jump\t// in\n    tag_140:\n        /* \"#utility.yul\":3423:3430   */\n      dup1\n        /* \"#utility.yul\":3454:3455   */\n      0x00\n        /* \"#utility.yul\":3439:3871   */\n    tag_141:\n        /* \"#utility.yul\":3464:3470   */\n      dup6\n        /* \"#utility.yul\":3461:3462   */\n      dup2\n        /* \"#utility.yul\":3458:3471   */\n      lt\n        /* \"#utility.yul\":3439:3871   */\n      iszero\n      tag_143\n      jumpi\n        /* \"#utility.yul\":3535:3544   */\n      dup5\n        /* \"#utility.yul\":3529:3533   */\n      dup5\n        /* \"#utility.yul\":3525:3545   */\n      sub\n        /* \"#utility.yul\":3520:3523   */\n      dup10\n        /* \"#utility.yul\":3513:3546   */\n      mstore\n        /* \"#utility.yul\":3586:3592   */\n      dup2\n        /* \"#utility.yul\":3580:3593   */\n      mload\n        /* \"#utility.yul\":3614:3722   */\n      tag_144\n        /* \"#utility.yul\":3717:3721   */\n      dup6\n        /* \"#utility.yul\":3702:3715   */\n      dup3\n        /* \"#utility.yul\":3614:3722   */\n      tag_73\n      jump\t// in\n    tag_144:\n        /* \"#utility.yul\":3606:3722   */\n      swap5\n      pop\n        /* \"#utility.yul\":3745:3827   */\n      tag_145\n        /* \"#utility.yul\":3820:3826   */\n      dup4\n        /* \"#utility.yul\":3745:3827   */\n      tag_74\n      jump\t// in\n    tag_145:\n        /* \"#utility.yul\":3735:3827   */\n      swap3\n      pop\n        /* \"#utility.yul\":3856:3860   */\n      0x20\n        /* \"#utility.yul\":3851:3854   */\n      dup11\n        /* \"#utility.yul\":3847:3861   */\n      add\n        /* \"#utility.yul\":3840:3861   */\n      swap10\n      pop\n        /* \"#utility.yul\":3499:3871   */\n      pop\n        /* \"#utility.yul\":3486:3487   */\n      0x01\n        /* \"#utility.yul\":3483:3484   */\n      dup2\n        /* \"#utility.yul\":3479:3488   */\n      add\n        /* \"#utility.yul\":3474:3488   */\n      swap1\n      pop\n        /* \"#utility.yul\":3439:3871   */\n      jump(tag_141)\n    tag_143:\n        /* \"#utility.yul\":3443:3457   */\n      pop\n        /* \"#utility.yul\":3887:3891   */\n      dup3\n        /* \"#utility.yul\":3880:3891   */\n      swap8\n      pop\n        /* \"#utility.yul\":3907:3910   */\n      dup8\n        /* \"#utility.yul\":3900:3910   */\n      swap6\n      pop\n        /* \"#utility.yul\":2997:3916   */\n      pop\n      pop\n      pop\n      pop\n      pop\n        /* \"#utility.yul\":2829:3916   */\n      swap3\n      swap2\n      pop\n      pop\n      jump\t// out\n        /* \"#utility.yul\":3922:4383   */\n    tag_10:\n        /* \"#utility.yul\":4109:4113   */\n      0x00\n        /* \"#utility.yul\":4147:4149   */\n      0x20\n        /* \"#utility.yul\":4136:4145   */\n      dup3\n        /* \"#utility.yul\":4132:4150   */\n      add\n        /* \"#utility.yul\":4124:4150   */\n      swap1\n      pop\n        /* \"#utility.yul\":4196:4205   */\n      dup2\n        /* \"#utility.yul\":4190:4194   */\n      dup2\n        /* \"#utility.yul\":4186:4206   */\n      sub\n        /* \"#utility.yul\":4182:4183   */\n      0x00\n        /* \"#utility.yul\":4171:4180   */\n      dup4\n        /* \"#utility.yul\":4167:4184   */\n      add\n        /* \"#utility.yul\":4160:4207   */\n      mstore\n        /* \"#utility.yul\":4224:4376   */\n      tag_147\n        /* \"#utility.yul\":4371:4375   */\n      dup2\n        /* \"#utility.yul\":4362:4368   */\n      dup5\n        /* \"#utility.yul\":4224:4376   */\n      tag_75\n      jump\t// in\n    tag_147:\n        /* \"#utility.yul\":4216:4376   */\n      swap1\n      pop\n        /* \"#utility.yul\":3922:4383   */\n      swap3\n      swap2\n      pop\n      pop\n      jump\t// out\n        /* \"#utility.yul\":4389:4464   */\n    tag_76:\n        /* \"#utility.yul\":4422:4428   */\n      0x00\n        /* \"#utility.yul\":4455:4457   */\n      0x40\n        /* \"#utility.yul\":4449:4458   */\n      mload\n        /* \"#utility.yul\":4439:4458   */\n      swap1\n      pop\n        /* \"#utility.yul\":4389:4464   */\n      swap1\n      jump\t// out\n        /* \"#utility.yul\":4470:4587   */\n    tag_77:\n        /* \"#utility.yul\":4579:4580   */\n      0x00\n        /* \"#utility.yul\":4576:4577   */\n      dup1\n        /* \"#utility.yul\":4569:4581   */\n      revert\n        /* \"#utility.yul\":4593:4710   */\n    tag_78:\n        /* \"#utility.yul\":4702:4703   */\n      0x00\n        /* \"#utility.yul\":4699:4700   */\n      dup1\n        /* \"#utility.yul\":4692:4704   */\n      revert\n        /* \"#utility.yul\":4716:4838   */\n    tag_79:\n        /* \"#utility.yul\":4789:4813   */\n      tag_152\n        /* \"#utility.yul\":4807:4812   */\n      dup2\n        /* \"#utility.yul\":4789:4813   */\n      tag_70\n      jump\t// in\n    tag_152:\n        /* \"#utility.yul\":4782:4787   */\n      dup2\n        /* \"#utility.yul\":4779:4814   */\n      eq\n        /* \"#utility.yul\":4769:4832   */\n      tag_153\n      jumpi\n        /* \"#utility.yul\":4828:4829   */\n      0x00\n        /* \"#utility.yul\":4825:4826   */\n      dup1\n        /* \"#utility.yul\":4818:4830   */\n      revert\n        /* \"#utility.yul\":4769:4832   */\n    tag_153:\n        /* \"#utility.yul\":4716:4838   */\n      pop\n      jump\t// out\n        /* \"#utility.yul\":4844:4983   */\n    tag_80:\n        /* \"#utility.yul\":4890:4895   */\n      0x00\n        /* \"#utility.yul\":4928:4934   */\n      dup2\n        /* \"#utility.yul\":4915:4935   */\n      calldataload\n        /* \"#utility.yul\":4906:4935   */\n      swap1\n      pop\n        /* \"#utility.yul\":4944:4977   */\n      tag_155\n        /* \"#utility.yul\":4971:4976   */\n      dup2\n        /* \"#utility.yul\":4944:4977   */\n      tag_79\n      jump\t// in\n    tag_155:\n        /* \"#utility.yul\":4844:4983   */\n      swap3\n      swap2\n      pop\n      pop\n      jump\t// out\n        /* \"#utility.yul\":4989:5318   */\n    tag_13:\n        /* \"#utility.yul\":5048:5054   */\n      0x00\n        /* \"#utility.yul\":5097:5099   */\n      0x20\n        /* \"#utility.yul\":5085:5094   */\n      dup3\n        /* \"#utility.yul\":5076:5083   */\n      dup5\n        /* \"#utility.yul\":5072:5095   */\n      sub\n        /* \"#utility.yul\":5068:5100   */\n      slt\n        /* \"#utility.yul\":5065:5184   */\n      iszero\n      tag_157\n      jumpi\n        /* \"#utility.yul\":5103:5182   */\n      tag_158\n      tag_77\n      jump\t// in\n    tag_158:\n        /* \"#utility.yul\":5065:5184   */\n    tag_157:\n        /* \"#utility.yul\":5223:5224   */\n      0x00\n        /* \"#utility.yul\":5248:5301   */\n      tag_159\n        /* \"#utility.yul\":5293:5300   */\n      dup5\n        /* \"#utility.yul\":5284:5290   */\n      dup3\n        /* \"#utility.yul\":5273:5282   */\n      dup6\n        /* \"#utility.yul\":5269:5291   */\n      add\n        /* \"#utility.yul\":5248:5301   */\n      tag_80\n      jump\t// in\n    tag_159:\n        /* \"#utility.yul\":5238:5301   */\n      swap2\n      pop\n        /* \"#utility.yul\":5194:5311   */\n      pop\n        /* \"#utility.yul\":4989:5318   */\n      swap3\n      swap2\n      pop\n      pop\n      jump\t// out\n        /* \"#utility.yul\":5324:5493   */\n    tag_81:\n        /* \"#utility.yul\":5408:5419   */\n      0x00\n        /* \"#utility.yul\":5442:5448   */\n      dup3\n        /* \"#utility.yul\":5437:5440   */\n      dup3\n        /* \"#utility.yul\":5430:5449   */\n      mstore\n        /* \"#utility.yul\":5482:5486   */\n      0x20\n        /* \"#utility.yul\":5477:5480   */\n      dup3\n        /* \"#utility.yul\":5473:5487   */\n      add\n        /* \"#utility.yul\":5458:5487   */\n      swap1\n      pop\n        /* \"#utility.yul\":5324:5493   */\n      swap3\n      swap2\n      pop\n      pop\n      jump\t// out\n        /* \"#utility.yul\":5499:5876   */\n    tag_82:\n        /* \"#utility.yul\":5587:5590   */\n      0x00\n        /* \"#utility.yul\":5615:5654   */\n      tag_162\n        /* \"#utility.yul\":5648:5653   */\n      dup3\n        /* \"#utility.yul\":5615:5654   */\n      tag_65\n      jump\t// in\n    tag_162:\n        /* \"#utility.yul\":5670:5741   */\n      tag_163\n        /* \"#utility.yul\":5734:5740   */\n      dup2\n        /* \"#utility.yul\":5729:5732   */\n      dup6\n        /* \"#utility.yul\":5670:5741   */\n      tag_81\n      jump\t// in\n    tag_163:\n        /* \"#utility.yul\":5663:5741   */\n      swap4\n      pop\n        /* \"#utility.yul\":5750:5815   */\n      tag_164\n        /* \"#utility.yul\":5808:5814   */\n      dup2\n        /* \"#utility.yul\":5803:5806   */\n      dup6\n        /* \"#utility.yul\":5796:5800   */\n      0x20\n        /* \"#utility.yul\":5789:5794   */\n      dup7\n        /* \"#utility.yul\":5785:5801   */\n      add\n        /* \"#utility.yul\":5750:5815   */\n      tag_67\n      jump\t// in\n    tag_164:\n        /* \"#utility.yul\":5840:5869   */\n      tag_165\n        /* \"#utility.yul\":5862:5868   */\n      dup2\n        /* \"#utility.yul\":5840:5869   */\n      tag_68\n      jump\t// in\n    tag_165:\n        /* \"#utility.yul\":5835:5838   */\n      dup5\n        /* \"#utility.yul\":5831:5870   */\n      add\n        /* \"#utility.yul\":5824:5870   */\n      swap2\n      pop\n        /* \"#utility.yul\":5591:5876   */\n      pop\n        /* \"#utility.yul\":5499:5876   */\n      swap3\n      swap2\n      pop\n      pop\n      jump\t// out\n        /* \"#utility.yul\":5882:6000   */\n    tag_83:\n        /* \"#utility.yul\":5969:5993   */\n      tag_167\n        /* \"#utility.yul\":5987:5992   */\n      dup2\n        /* \"#utility.yul\":5969:5993   */\n      tag_70\n      jump\t// in\n    tag_167:\n        /* \"#utility.yul\":5964:5967   */\n      dup3\n        /* \"#utility.yul\":5957:5994   */\n      mstore\n        /* \"#utility.yul\":5882:6000   */\n      pop\n      pop\n      jump\t// out\n        /* \"#utility.yul\":6006:6429   */\n    tag_16:\n        /* \"#utility.yul\":6147:6151   */\n      0x00\n        /* \"#utility.yul\":6185:6187   */\n      0x40\n        /* \"#utility.yul\":6174:6183   */\n      dup3\n        /* \"#utility.yul\":6170:6188   */\n      add\n        /* \"#utility.yul\":6162:6188   */\n      swap1\n      pop\n        /* \"#utility.yul\":6234:6243   */\n      dup2\n        /* \"#utility.yul\":6228:6232   */\n      dup2\n        /* \"#utility.yul\":6224:6244   */\n      sub\n        /* \"#utility.yul\":6220:6221   */\n      0x00\n        /* \"#utility.yul\":6209:6218   */\n      dup4\n        /* \"#utility.yul\":6205:6222   */\n      add\n        /* \"#utility.yul\":6198:6245   */\n      mstore\n        /* \"#utility.yul\":6262:6340   */\n      tag_169\n        /* \"#utility.yul\":6335:6339   */\n      dup2\n        /* \"#utility.yul\":6326:6332   */\n      dup6\n        /* \"#utility.yul\":6262:6340   */\n      tag_82\n      jump\t// in\n    tag_169:\n        /* \"#utility.yul\":6254:6340   */\n      swap1\n      pop\n        /* \"#utility.yul\":6350:6422   */\n      tag_170\n        /* \"#utility.yul\":6418:6420   */\n      0x20\n        /* \"#utility.yul\":6407:6416   */\n      dup4\n        /* \"#utility.yul\":6403:6421   */\n      add\n        /* \"#utility.yul\":6394:6400   */\n      dup5\n        /* \"#utility.yul\":6350:6422   */\n      tag_83\n      jump\t// in\n    tag_170:\n        /* \"#utility.yul\":6006:6429   */\n      swap4\n      swap3\n      pop\n      pop\n      pop\n      jump\t// out\n        /* \"#utility.yul\":6435:6552   */\n    tag_84:\n        /* \"#utility.yul\":6544:6545   */\n      0x00\n        /* \"#utility.yul\":6541:6542   */\n      dup1\n        /* \"#utility.yul\":6534:6546   */\n      revert\n        /* \"#utility.yul\":6558:6675   */\n    tag_85:\n        /* \"#utility.yul\":6667:6668   */\n      0x00\n        /* \"#utility.yul\":6664:6665   */\n      dup1\n        /* \"#utility.yul\":6657:6669   */\n      revert\n        /* \"#utility.yul\":6681:6861   */\n    tag_86:\n        /* \"#utility.yul\":6729:6806   */\n      0x4e487b7100000000000000000000000000000000000000000000000000000000\n        /* \"#utility.yul\":6726:6727   */\n      0x00\n        /* \"#utility.yul\":6719:6807   */\n      mstore\n        /* \"#utility.yul\":6826:6830   */\n      0x41\n        /* \"#utility.yul\":6823:6824   */\n      0x04\n        /* \"#utility.yul\":6816:6831   */\n      mstore\n        /* \"#utility.yul\":6850:6854   */\n      0x24\n        /* \"#utility.yul\":6847:6848   */\n      0x00\n        /* \"#utility.yul\":6840:6855   */\n      revert\n        /* \"#utility.yul\":6867:7148   */\n    tag_87:\n        /* \"#utility.yul\":6950:6977   */\n      tag_175\n        /* \"#utility.yul\":6972:6976   */\n      dup3\n        /* \"#utility.yul\":6950:6977   */\n      tag_68\n      jump\t// in\n    tag_175:\n        /* \"#utility.yul\":6942:6948   */\n      dup2\n        /* \"#utility.yul\":6938:6978   */\n      add\n        /* \"#utility.yul\":7080:7086   */\n      dup2\n        /* \"#utility.yul\":7068:7078   */\n      dup2\n        /* \"#utility.yul\":7065:7087   */\n      lt\n        /* \"#utility.yul\":7044:7062   */\n      0xffffffffffffffff\n        /* \"#utility.yul\":7032:7042   */\n      dup3\n        /* \"#utility.yul\":7029:7063   */\n      gt\n        /* \"#utility.yul\":7026:7088   */\n      or\n        /* \"#utility.yul\":7023:7111   */\n      iszero\n      tag_176\n      jumpi\n        /* \"#utility.yul\":7091:7109   */\n      tag_177\n      tag_86\n      jump\t// in\n    tag_177:\n        /* \"#utility.yul\":7023:7111   */\n    tag_176:\n        /* \"#utility.yul\":7131:7141   */\n      dup1\n        /* \"#utility.yul\":7127:7129   */\n      0x40\n        /* \"#utility.yul\":7120:7142   */\n      mstore\n        /* \"#utility.yul\":6910:7148   */\n      pop\n        /* \"#utility.yul\":6867:7148   */\n      pop\n      pop\n      jump\t// out\n        /* \"#utility.yul\":7154:7283   */\n    tag_88:\n        /* \"#utility.yul\":7188:7194   */\n      0x00\n        /* \"#utility.yul\":7215:7235   */\n      tag_179\n      tag_76\n      jump\t// in\n    tag_179:\n        /* \"#utility.yul\":7205:7235   */\n      swap1\n      pop\n        /* \"#utility.yul\":7244:7277   */\n      tag_180\n        /* \"#utility.yul\":7272:7276   */\n      dup3\n        /* \"#utility.yul\":7264:7270   */\n      dup3\n        /* \"#utility.yul\":7244:7277   */\n      tag_87\n      jump\t// in\n    tag_180:\n        /* \"#utility.yul\":7154:7283   */\n      swap2\n      swap1\n      pop\n      jump\t// out\n        /* \"#utility.yul\":7289:7597   */\n    tag_89:\n        /* \"#utility.yul\":7351:7355   */\n      0x00\n        /* \"#utility.yul\":7441:7459   */\n      0xffffffffffffffff\n        /* \"#utility.yul\":7433:7439   */\n      dup3\n        /* \"#utility.yul\":7430:7460   */\n      gt\n        /* \"#utility.yul\":7427:7483   */\n      iszero\n      tag_182\n      jumpi\n        /* \"#utility.yul\":7463:7481   */\n      tag_183\n      tag_86\n      jump\t// in\n    tag_183:\n        /* \"#utility.yul\":7427:7483   */\n    tag_182:\n        /* \"#utility.yul\":7501:7530   */\n      tag_184\n        /* \"#utility.yul\":7523:7529   */\n      dup3\n        /* \"#utility.yul\":7501:7530   */\n      tag_68\n      jump\t// in\n    tag_184:\n        /* \"#utility.yul\":7493:7530   */\n      swap1\n      pop\n        /* \"#utility.yul\":7585:7589   */\n      0x20\n        /* \"#utility.yul\":7579:7583   */\n      dup2\n        /* \"#utility.yul\":7575:7590   */\n      add\n        /* \"#utility.yul\":7567:7590   */\n      swap1\n      pop\n        /* \"#utility.yul\":7289:7597   */\n      swap2\n      swap1\n      pop\n      jump\t// out\n        /* \"#utility.yul\":7603:7749   */\n    tag_90:\n        /* \"#utility.yul\":7700:7706   */\n      dup3\n        /* \"#utility.yul\":7695:7698   */\n      dup2\n        /* \"#utility.yul\":7690:7693   */\n      dup4\n        /* \"#utility.yul\":7677:7707   */\n      calldatacopy\n        /* \"#utility.yul\":7741:7742   */\n      0x00\n        /* \"#utility.yul\":7732:7738   */\n      dup4\n        /* \"#utility.yul\":7727:7730   */\n      dup4\n        /* \"#utility.yul\":7723:7739   */\n      add\n        /* \"#utility.yul\":7716:7743   */\n      mstore\n        /* \"#utility.yul\":7603:7749   */\n      pop\n      pop\n      pop\n      jump\t// out\n        /* \"#utility.yul\":7755:8180   */\n    tag_91:\n        /* \"#utility.yul\":7833:7838   */\n      0x00\n        /* \"#utility.yul\":7858:7924   */\n      tag_187\n        /* \"#utility.yul\":7874:7923   */\n      tag_188\n        /* \"#utility.yul\":7916:7922   */\n      dup5\n        /* \"#utility.yul\":7874:7923   */\n      tag_89\n      jump\t// in\n    tag_188:\n        /* \"#utility.yul\":7858:7924   */\n      tag_88\n      jump\t// in\n    tag_187:\n        /* \"#utility.yul\":7849:7924   */\n      swap1\n      pop\n        /* \"#utility.yul\":7947:7953   */\n      dup3\n        /* \"#utility.yul\":7940:7945   */\n      dup2\n        /* \"#utility.yul\":7933:7954   */\n      mstore\n        /* \"#utility.yul\":7985:7989   */\n      0x20\n        /* \"#utility.yul\":7978:7983   */\n      dup2\n        /* \"#utility.yul\":7974:7990   */\n      add\n        /* \"#utility.yul\":8023:8026   */\n      dup5\n        /* \"#utility.yul\":8014:8020   */\n      dup5\n        /* \"#utility.yul\":8009:8012   */\n      dup5\n        /* \"#utility.yul\":8005:8021   */\n      add\n        /* \"#utility.yul\":8002:8027   */\n      gt\n        /* \"#utility.yul\":7999:8111   */\n      iszero\n      tag_189\n      jumpi\n        /* \"#utility.yul\":8030:8109   */\n      tag_190\n      tag_85\n      jump\t// in\n    tag_190:\n        /* \"#utility.yul\":7999:8111   */\n    tag_189:\n        /* \"#utility.yul\":8120:8174   */\n      tag_191\n        /* \"#utility.yul\":8167:8173   */\n      dup5\n        /* \"#utility.yul\":8162:8165   */\n      dup3\n        /* \"#utility.yul\":8157:8160   */\n      dup6\n        /* \"#utility.yul\":8120:8174   */\n      tag_90\n      jump\t// in\n    tag_191:\n        /* \"#utility.yul\":7839:8180   */\n      pop\n        /* \"#utility.yul\":7755:8180   */\n      swap4\n      swap3\n      pop\n      pop\n      pop\n      jump\t// out\n        /* \"#utility.yul\":8200:8540   */\n    tag_92:\n        /* \"#utility.yul\":8256:8261   */\n      0x00\n        /* \"#utility.yul\":8305:8308   */\n      dup3\n        /* \"#utility.yul\":8298:8302   */\n      0x1f\n        /* \"#utility.yul\":8290:8296   */\n      dup4\n        /* \"#utility.yul\":8286:8303   */\n      add\n        /* \"#utility.yul\":8282:8309   */\n      slt\n        /* \"#utility.yul\":8272:8394   */\n      tag_193\n      jumpi\n        /* \"#utility.yul\":8313:8392   */\n      tag_194\n      tag_84\n      jump\t// in\n    tag_194:\n        /* \"#utility.yul\":8272:8394   */\n    tag_193:\n        /* \"#utility.yul\":8430:8436   */\n      dup2\n        /* \"#utility.yul\":8417:8437   */\n      calldataload\n        /* \"#utility.yul\":8455:8534   */\n      tag_195\n        /* \"#utility.yul\":8530:8533   */\n      dup5\n        /* \"#utility.yul\":8522:8528   */\n      dup3\n        /* \"#utility.yul\":8515:8519   */\n      0x20\n        /* \"#utility.yul\":8507:8513   */\n      dup7\n        /* \"#utility.yul\":8503:8520   */\n      add\n        /* \"#utility.yul\":8455:8534   */\n      tag_91\n      jump\t// in\n    tag_195:\n        /* \"#utility.yul\":8446:8534   */\n      swap2\n      pop\n        /* \"#utility.yul\":8262:8540   */\n      pop\n        /* \"#utility.yul\":8200:8540   */\n      swap3\n      swap2\n      pop\n      pop\n      jump\t// out\n        /* \"#utility.yul\":8546:9200   */\n    tag_19:\n        /* \"#utility.yul\":8624:8630   */\n      0x00\n        /* \"#utility.yul\":8632:8638   */\n      dup1\n        /* \"#utility.yul\":8681:8683   */\n      0x40\n        /* \"#utility.yul\":8669:8678   */\n      dup4\n        /* \"#utility.yul\":8660:8667   */\n      dup6\n        /* \"#utility.yul\":8656:8679   */\n      sub\n        /* \"#utility.yul\":8652:8684   */\n      slt\n        /* \"#utility.yul\":8649:8768   */\n      iszero\n      tag_197\n      jumpi\n        /* \"#utility.yul\":8687:8766   */\n      tag_198\n      tag_77\n      jump\t// in\n    tag_198:\n        /* \"#utility.yul\":8649:8768   */\n    tag_197:\n        /* \"#utility.yul\":8835:8836   */\n      0x00\n        /* \"#utility.yul\":8824:8833   */\n      dup4\n        /* \"#utility.yul\":8820:8837   */\n      add\n        /* \"#utility.yul\":8807:8838   */\n      calldataload\n        /* \"#utility.yul\":8865:8883   */\n      0xffffffffffffffff\n        /* \"#utility.yul\":8857:8863   */\n      dup2\n        /* \"#utility.yul\":8854:8884   */\n      gt\n        /* \"#utility.yul\":8851:8968   */\n      iszero\n      tag_199\n      jumpi\n        /* \"#utility.yul\":8887:8966   */\n      tag_200\n      tag_78\n      jump\t// in\n    tag_200:\n        /* \"#utility.yul\":8851:8968   */\n    tag_199:\n        /* \"#utility.yul\":8992:9055   */\n      tag_201\n        /* \"#utility.yul\":9047:9054   */\n      dup6\n        /* \"#utility.yul\":9038:9044   */\n      dup3\n        /* \"#utility.yul\":9027:9036   */\n      dup7\n        /* \"#utility.yul\":9023:9045   */\n      add\n        /* \"#utility.yul\":8992:9055   */\n      tag_92\n      jump\t// in\n    tag_201:\n        /* \"#utility.yul\":8982:9055   */\n      swap3\n      pop\n        /* \"#utility.yul\":8778:9065   */\n      pop\n        /* \"#utility.yul\":9104:9106   */\n      0x20\n        /* \"#utility.yul\":9130:9183   */\n      tag_202\n        /* \"#utility.yul\":9175:9182   */\n      dup6\n        /* \"#utility.yul\":9166:9172   */\n      dup3\n        /* \"#utility.yul\":9155:9164   */\n      dup7\n        /* \"#utility.yul\":9151:9173   */\n      add\n        /* \"#utility.yul\":9130:9183   */\n      tag_80\n      jump\t// in\n    tag_202:\n        /* \"#utility.yul\":9120:9183   */\n      swap2\n      pop\n        /* \"#utility.yul\":9075:9193   */\n      pop\n        /* \"#utility.yul\":8546:9200   */\n      swap3\n      pop\n      swap3\n      swap1\n      pop\n      jump\t// out\n        /* \"#utility.yul\":9206:9386   */\n    tag_93:\n        /* \"#utility.yul\":9254:9331   */\n      0x4e487b7100000000000000000000000000000000000000000000000000000000\n        /* \"#utility.yul\":9251:9252   */\n      0x00\n        /* \"#utility.yul\":9244:9332   */\n      mstore\n        /* \"#utility.yul\":9351:9355   */\n      0x22\n        /* \"#utility.yul\":9348:9349   */\n      0x04\n        /* \"#utility.yul\":9341:9356   */\n      mstore\n        /* \"#utility.yul\":9375:9379   */\n      0x24\n        /* \"#utility.yul\":9372:9373   */\n      0x00\n        /* \"#utility.yul\":9365:9380   */\n      revert\n        /* \"#utility.yul\":9392:9712   */\n    tag_30:\n        /* \"#utility.yul\":9436:9442   */\n      0x00\n        /* \"#utility.yul\":9473:9474   */\n      0x02\n        /* \"#utility.yul\":9467:9471   */\n      dup3\n        /* \"#utility.yul\":9463:9475   */\n      div\n        /* \"#utility.yul\":9453:9475   */\n      swap1\n      pop\n        /* \"#utility.yul\":9520:9521   */\n      0x01\n        /* \"#utility.yul\":9514:9518   */\n      dup3\n        /* \"#utility.yul\":9510:9522   */\n      and\n        /* \"#utility.yul\":9541:9559   */\n      dup1\n        /* \"#utility.yul\":9531:9612   */\n      tag_205\n      jumpi\n        /* \"#utility.yul\":9597:9601   */\n      0x7f\n        /* \"#utility.yul\":9589:9595   */\n      dup3\n        /* \"#utility.yul\":9585:9602   */\n      and\n        /* \"#utility.yul\":9575:9602   */\n      swap2\n      pop\n        /* \"#utility.yul\":9531:9612   */\n    tag_205:\n        /* \"#utility.yul\":9659:9661   */\n      0x20\n        /* \"#utility.yul\":9651:9657   */\n      dup3\n        /* \"#utility.yul\":9648:9662   */\n      lt\n        /* \"#utility.yul\":9628:9646   */\n      dup2\n        /* \"#utility.yul\":9625:9663   */\n      sub\n        /* \"#utility.yul\":9622:9706   */\n      tag_206\n      jumpi\n        /* \"#utility.yul\":9678:9696   */\n      tag_207\n      tag_93\n      jump\t// in\n    tag_207:\n        /* \"#utility.yul\":9622:9706   */\n    tag_206:\n        /* \"#utility.yul\":9443:9712   */\n      pop\n        /* \"#utility.yul\":9392:9712   */\n      swap2\n      swap1\n      pop\n      jump\t// out\n        /* \"#utility.yul\":9718:9859   */\n    tag_94:\n        /* \"#utility.yul\":9767:9771   */\n      0x00\n        /* \"#utility.yul\":9790:9793   */\n      dup2\n        /* \"#utility.yul\":9782:9793   */\n      swap1\n      pop\n        /* \"#utility.yul\":9813:9816   */\n      dup2\n        /* \"#utility.yul\":9810:9811   */\n      0x00\n        /* \"#utility.yul\":9803:9817   */\n      mstore\n        /* \"#utility.yul\":9847:9851   */\n      0x20\n        /* \"#utility.yul\":9844:9845   */\n      0x00\n        /* \"#utility.yul\":9834:9852   */\n      keccak256\n        /* \"#utility.yul\":9826:9852   */\n      swap1\n      pop\n        /* \"#utility.yul\":9718:9859   */\n      swap2\n      swap1\n      pop\n      jump\t// out\n        /* \"#utility.yul\":9865:9958   */\n    tag_95:\n        /* \"#utility.yul\":9902:9908   */\n      0x00\n        /* \"#utility.yul\":9949:9951   */\n      0x20\n        /* \"#utility.yul\":9944:9946   */\n      0x1f\n        /* \"#utility.yul\":9937:9942   */\n      dup4\n        /* \"#utility.yul\":9933:9947   */\n      add\n        /* \"#utility.yul\":9929:9952   */\n      div\n        /* \"#utility.yul\":9919:9952   */\n      swap1\n      pop\n        /* \"#utility.yul\":9865:9958   */\n      swap2\n      swap1\n      pop\n      jump\t// out\n        /* \"#utility.yul\":9964:10071   */\n    tag_96:\n        /* \"#utility.yul\":10008:10016   */\n      0x00\n        /* \"#utility.yul\":10058:10063   */\n      dup3\n        /* \"#utility.yul\":10052:10056   */\n      dup3\n        /* \"#utility.yul\":10048:10064   */\n      shl\n        /* \"#utility.yul\":10027:10064   */\n      swap1\n      pop\n        /* \"#utility.yul\":9964:10071   */\n      swap3\n      swap2\n      pop\n      pop\n      jump\t// out\n        /* \"#utility.yul\":10077:10470   */\n    tag_97:\n        /* \"#utility.yul\":10146:10152   */\n      0x00\n        /* \"#utility.yul\":10196:10197   */\n      0x08\n        /* \"#utility.yul\":10184:10194   */\n      dup4\n        /* \"#utility.yul\":10180:10198   */\n      mul\n        /* \"#utility.yul\":10219:10316   */\n      tag_212\n        /* \"#utility.yul\":10249:10315   */\n      0xffffffffffffffffffffffffffffffffffffffffffffffffffffffffffffffff\n        /* \"#utility.yul\":10238:10247   */\n      dup3\n        /* \"#utility.yul\":10219:10316   */\n      tag_96\n      jump\t// in\n    tag_212:\n        /* \"#utility.yul\":10337:10376   */\n      tag_213\n        /* \"#utility.yul\":10367:10375   */\n      dup7\n        /* \"#utility.yul\":10356:10365   */\n      dup4\n        /* \"#utility.yul\":10337:10376   */\n      tag_96\n      jump\t// in\n    tag_213:\n        /* \"#utility.yul\":10325:10376   */\n      swap6\n      pop\n        /* \"#utility.yul\":10409:10413   */\n      dup1\n        /* \"#utility.yul\":10405:10414   */\n      not\n        /* \"#utility.yul\":10398:10403   */\n      dup5\n        /* \"#utility.yul\":10394:10415   */\n      and\n        /* \"#utility.yul\":10385:10415   */\n      swap4\n      pop\n        /* \"#utility.yul\":10458:10462   */\n      dup1\n        /* \"#utility.yul\":10448:10456   */\n      dup7\n        /* \"#utility.yul\":10444:10463   */\n      and\n        /* \"#utility.yul\":10437:10442   */\n      dup5\n        /* \"#utility.yul\":10434:10464   */\n      or\n        /* \"#utility.yul\":10424:10464   */\n      swap3\n      pop\n        /* \"#utility.yul\":10153:10470   */\n      pop\n      pop\n        /* \"#utility.yul\":10077:10470   */\n      swap4\n      swap3\n      pop\n      pop\n      pop\n      jump\t// out\n        /* \"#utility.yul\":10476:10536   */\n    tag_98:\n        /* \"#utility.yul\":10504:10507   */\n      0x00\n        /* \"#utility.yul\":10525:10530   */\n      dup2\n        /* \"#utility.yul\":10518:10530   */\n      swap1\n      pop\n        /* \"#utility.yul\":10476:10536   */\n      swap2\n      swap1\n      pop\n      jump\t// out\n        /* \"#utility.yul\":10542:10684   */\n    tag_99:\n        /* \"#utility.yul\":10592:10601   */\n      0x00\n        /* \"#utility.yul\":10625:10678   */\n      tag_216\n        /* \"#utility.yul\":10643:10677   */\n      tag_217\n        /* \"#utility.yul\":10652:10676   */\n      tag_218\n        /* \"#utility.yul\":10670:10675   */\n      dup5\n        /* \"#utility.yul\":10652:10676   */\n      tag_70\n      jump\t// in\n    tag_218:\n        /* \"#utility.yul\":10643:10677   */\n      tag_98\n      jump\t// in\n    tag_217:\n        /* \"#utility.yul\":10625:10678   */\n      tag_70\n      jump\t// in\n    tag_216:\n        /* \"#utility.yul\":10612:10678   */\n      swap1\n      pop\n        /* \"#utility.yul\":10542:10684   */\n      swap2\n      swap1\n      pop\n      jump\t// out\n        /* \"#utility.yul\":10690:10765   */\n    tag_100:\n        /* \"#utility.yul\":10733:10736   */\n      0x00\n        /* \"#utility.yul\":10754:10759   */\n      dup2\n        /* \"#utility.yul\":10747:10759   */\n      swap1\n      pop\n        /* \"#utility.yul\":10690:10765   */\n      swap2\n      swap1\n      pop\n      jump\t// out\n        /* \"#utility.yul\":10771:11040   */\n    tag_101:\n        /* \"#utility.yul\":10881:10920   */\n      tag_221\n        /* \"#utility.yul\":10912:10919   */\n      dup4\n        /* \"#utility.yul\":10881:10920   */\n      tag_99\n      jump\t// in\n    tag_221:\n        /* \"#utility.yul\":10942:11033   */\n      tag_222\n        /* \"#utility.yul\":10991:11032   */\n      tag_223\n        /* \"#utility.yul\":11015:11031   */\n      dup3\n        /* \"#utility.yul\":10991:11032   */\n      tag_100\n      jump\t// in\n    tag_223:\n        /* \"#utility.yul\":10983:10989   */\n      dup5\n        /* \"#utility.yul\":10976:10980   */\n      dup5\n        /* \"#utility.yul\":10970:10981   */\n      sload\n        /* \"#utility.yul\":10942:11033   */\n      tag_97\n      jump\t// in\n    tag_222:\n        /* \"#utility.yul\":10936:10940   */\n      dup3\n        /* \"#utility.yul\":10929:11034   */\n      sstore\n        /* \"#utility.yul\":10847:11040   */\n      pop\n        /* \"#utility.yul\":10771:11040   */\n      pop\n      pop\n      pop\n      jump\t// out\n        /* \"#utility.yul\":11046:11119   */\n    tag_102:\n        /* \"#utility.yul\":11091:11094   */\n      0x00\n        /* \"#utility.yul\":11046:11119   */\n      swap1\n      jump\t// out\n        /* \"#utility.yul\":11125:11314   */\n    tag_103:\n        /* \"#utility.yul\":11202:11234   */\n      tag_226\n      tag_102\n      jump\t// in\n    tag_226:\n        /* \"#utility.yul\":11243:11308   */\n      tag_227\n        /* \"#utility.yul\":11301:11307   */\n      dup2\n        /* \"#utility.yul\":11293:11299   */\n      dup5\n        /* \"#utility.yul\":11287:11291   */\n      dup5\n        /* \"#utility.yul\":11243:11308   */\n      tag_101\n      jump\t// in\n    tag_227:\n        /* \"#utility.yul\":11178:11314   */\n      pop\n        /* \"#utility.yul\":11125:11314   */\n      pop\n      pop\n      jump\t// out\n        /* \"#utility.yul\":11320:11506   */\n    tag_104:\n        /* \"#utility.yul\":11380:11500   */\n    tag_229:\n        /* \"#utility.yul\":11397:11400   */\n      dup2\n        /* \"#utility.yul\":11390:11395   */\n      dup2\n        /* \"#utility.yul\":11387:11401   */\n      lt\n        /* \"#utility.yul\":11380:11500   */\n      iszero\n      tag_231\n      jumpi\n        /* \"#utility.yul\":11451:11490   */\n      tag_232\n        /* \"#utility.yul\":11488:11489   */\n      0x00\n        /* \"#utility.yul\":11481:11486   */\n      dup3\n        /* \"#utility.yul\":11451:11490   */\n      tag_103\n      jump\t// in\n    tag_232:\n        /* \"#utility.yul\":11424:11425   */\n      0x01\n        /* \"#utility.yul\":11417:11422   */\n      dup2\n        /* \"#utility.yul\":11413:11426   */\n      add\n        /* \"#utility.yul\":11404:11426   */\n      swap1\n      pop\n        /* \"#utility.yul\":11380:11500   */\n      jump(tag_229)\n    tag_231:\n        /* \"#utility.yul\":11320:11506   */\n      pop\n      pop\n      jump\t// out\n        /* \"#utility.yul\":11512:12055   */\n    tag_105:\n        /* \"#utility.yul\":11613:11615   */\n      0x1f\n        /* \"#utility.yul\":11608:11611   */\n      dup3\n        /* \"#utility.yul\":11605:11616   */\n      gt\n        /* \"#utility.yul\":11602:12048   */\n      iszero\n      tag_234\n      jumpi\n        /* \"#utility.yul\":11647:11685   */\n      tag_235\n        /* \"#utility.yul\":11679:11684   */\n      dup2\n        /* \"#utility.yul\":11647:11685   */\n      tag_94\n      jump\t// in\n    tag_235:\n        /* \"#utility.yul\":11731:11760   */\n      tag_236\n        /* \"#utility.yul\":11749:11759   */\n      dup5\n        /* \"#utility.yul\":11731:11760   */\n      tag_95\n      jump\t// in\n    tag_236:\n        /* \"#utility.yul\":11721:11729   */\n      dup2\n        /* \"#utility.yul\":11717:11761   */\n      add\n        /* \"#utility.yul\":11914:11916   */\n      0x20\n        /* \"#utility.yul\":11902:11912   */\n      dup6\n        /* \"#utility.yul\":11899:11917   */\n      lt\n        /* \"#utility.yul\":11896:11945   */\n      iszero\n      tag_237\n      jumpi\n        /* \"#utility.yul\":11935:11943   */\n      dup2\n        /* \"#utility.yul\":11920:11943   */\n      swap1\n      pop\n        /* \"#utility.yul\":11896:11945   */\n    tag_237:\n        /* \"#utility.yul\":11958:12038   */\n      tag_238\n        /* \"#utility.yul\":12014:12036   */\n      tag_239\n        /* \"#utility.yul\":12032:12035   */\n      dup6\n        /* \"#utility.yul\":12014:12036   */\n      tag_95\n      jump\t// in\n    tag_239:\n        /* \"#utility.yul\":12004:12012   */\n      dup4\n        /* \"#utility.yul\":12000:12037   */\n      add\n        /* \"#utility.yul\":11987:11998   */\n      dup3\n        /* \"#utility.yul\":11958:12038   */\n      tag_104\n      jump\t// in\n    tag_238:\n        /* \"#utility.yul\":11617:12048   */\n      pop\n      pop\n        /* \"#utility.yul\":11602:12048   */\n    tag_234:\n        /* \"#utility.yul\":11512:12055   */\n      pop\n      pop\n      pop\n      jump\t// out\n        /* \"#utility.yul\":12061:12178   */\n    tag_106:\n        /* \"#utility.yul\":12115:12123   */\n      0x00\n        /* \"#utility.yul\":12165:12170   */\n      dup3\n        /* \"#utility.yul\":12159:12163   */\n      dup3\n        /* \"#utility.yul\":12155:12171   */\n      shr\n        /* \"#utility.yul\":12134:12171   */\n      swap1\n      pop\n        /* \"#utility.yul\":12061:12178   */\n      swap3\n      swap2\n      pop\n      pop\n      jump\t// out\n        /* \"#utility.yul\":12184:12353   */\n    tag_107:\n        /* \"#utility.yul\":12228:12234   */\n      0x00\n        /* \"#utility.yul\":12261:12312   */\n      tag_242\n        /* \"#utility.yul\":12309:12310   */\n      0x00\n        /* \"#utility.yul\":12305:12311   */\n      not\n        /* \"#utility.yul\":12297:12302   */\n      dup5\n        /* \"#utility.yul\":12294:12295   */\n      0x08\n        /* \"#utility.yul\":12290:12303   */\n      mul\n        /* \"#utility.yul\":12261:12312   */\n      tag_106\n      jump\t// in\n    tag_242:\n        /* \"#utility.yul\":12257:12313   */\n      not\n        /* \"#utility.yul\":12342:12346   */\n      dup1\n        /* \"#utility.yul\":12336:12340   */\n      dup4\n        /* \"#utility.yul\":12332:12347   */\n      and\n        /* \"#utility.yul\":12322:12347   */\n      swap2\n      pop\n        /* \"#utility.yul\":12235:12353   */\n      pop\n        /* \"#utility.yul\":12184:12353   */\n      swap3\n      swap2\n      pop\n      pop\n      jump\t// out\n        /* \"#utility.yul\":12358:12653   */\n    tag_108:\n        /* \"#utility.yul\":12434:12438   */\n      0x00\n        /* \"#utility.yul\":12580:12609   */\n      tag_244\n        /* \"#utility.yul\":12605:12608   */\n      dup4\n        /* \"#utility.yul\":12599:12603   */\n      dup4\n        /* \"#utility.yul\":12580:12609   */\n      tag_107\n      jump\t// in\n    tag_244:\n        /* \"#utility.yul\":12572:12609   */\n      swap2\n      pop\n        /* \"#utility.yul\":12642:12645   */\n      dup3\n        /* \"#utility.yul\":12639:12640   */\n      0x02\n        /* \"#utility.yul\":12635:12646   */\n      mul\n        /* \"#utility.yul\":12629:12633   */\n      dup3\n        /* \"#utility.yul\":12626:12647   */\n      or\n        /* \"#utility.yul\":12618:12647   */\n      swap1\n      pop\n        /* \"#utility.yul\":12358:12653   */\n      swap3\n      swap2\n      pop\n      pop\n      jump\t// out\n        /* \"#utility.yul\":12658:14053   */\n    tag_45:\n        /* \"#utility.yul\":12775:12812   */\n      tag_246\n        /* \"#utility.yul\":12808:12811   */\n      dup3\n        /* \"#utility.yul\":12775:12812   */\n      tag_65\n      jump\t// in\n    tag_246:\n        /* \"#utility.yul\":12877:12895   */\n      0xffffffffffffffff\n        /* \"#utility.yul\":12869:12875   */\n      dup2\n        /* \"#utility.yul\":12866:12896   */\n      gt\n        /* \"#utility.yul\":12863:12919   */\n      iszero\n      tag_247\n      jumpi\n        /* \"#utility.yul\":12899:12917   */\n      tag_248\n      tag_86\n      jump\t// in\n    tag_248:\n        /* \"#utility.yul\":12863:12919   */\n    tag_247:\n        /* \"#utility.yul\":12943:12981   */\n      tag_249\n        /* \"#utility.yul\":12975:12979   */\n      dup3\n        /* \"#utility.yul\":12969:12980   */\n      sload\n        /* \"#utility.yul\":12943:12981   */\n      tag_30\n      jump\t// in\n    tag_249:\n        /* \"#utility.yul\":13028:13095   */\n      tag_250\n        /* \"#utility.yul\":13088:13094   */\n      dup3\n        /* \"#utility.yul\":13080:13086   */\n      dup3\n        /* \"#utility.yul\":13074:13078   */\n      dup6\n        /* \"#utility.yul\":13028:13095   */\n      tag_105\n      jump\t// in\n    tag_250:\n        /* \"#utility.yul\":13122:13123   */\n      0x00\n        /* \"#utility.yul\":13146:13150   */\n      0x20\n        /* \"#utility.yul\":13133:13150   */\n      swap1\n      pop\n        /* \"#utility.yul\":13178:13180   */\n      0x1f\n        /* \"#utility.yul\":13170:13176   */\n      dup4\n        /* \"#utility.yul\":13167:13181   */\n      gt\n        /* \"#utility.yul\":13195:13196   */\n      0x01\n        /* \"#utility.yul\":13190:13808   */\n      dup2\n      eq\n      tag_252\n      jumpi\n        /* \"#utility.yul\":13852:13853   */\n      0x00\n        /* \"#utility.yul\":13869:13875   */\n      dup5\n        /* \"#utility.yul\":13866:13943   */\n      iszero\n      tag_253\n      jumpi\n        /* \"#utility.yul\":13918:13927   */\n      dup3\n        /* \"#utility.yul\":13913:13916   */\n      dup8\n        /* \"#utility.yul\":13909:13928   */\n      add\n        /* \"#utility.yul\":13903:13929   */\n      mload\n        /* \"#utility.yul\":13894:13929   */\n      swap1\n      pop\n        /* \"#utility.yul\":13866:13943   */\n    tag_253:\n        /* \"#utility.yul\":13969:14036   */\n      tag_254\n        /* \"#utility.yul\":14029:14035   */\n      dup6\n        /* \"#utility.yul\":14022:14027   */\n      dup3\n        /* \"#utility.yul\":13969:14036   */\n      tag_108\n      jump\t// in\n    tag_254:\n        /* \"#utility.yul\":13963:13967   */\n      dup7\n        /* \"#utility.yul\":13956:14037   */\n      sstore\n        /* \"#utility.yul\":13825:14047   */\n      pop\n        /* \"#utility.yul\":13160:14047   */\n      jump(tag_251)\n        /* \"#utility.yul\":13190:13808   */\n    tag_252:\n        /* \"#utility.yul\":13242:13246   */\n      0x1f\n        /* \"#utility.yul\":13238:13247   */\n      not\n        /* \"#utility.yul\":13230:13236   */\n      dup5\n        /* \"#utility.yul\":13226:13248   */\n      and\n        /* \"#utility.yul\":13276:13313   */\n      tag_255\n        /* \"#utility.yul\":13308:13312   */\n      dup7\n        /* \"#utility.yul\":13276:13313   */\n      tag_94\n      jump\t// in\n    tag_255:\n        /* \"#utility.yul\":13335:13336   */\n      0x00\n        /* \"#utility.yul\":13349:13557   */\n    tag_256:\n        /* \"#utility.yul\":13363:13370   */\n      dup3\n        /* \"#utility.yul\":13360:13361   */\n      dup2\n        /* \"#utility.yul\":13357:13371   */\n      lt\n        /* \"#utility.yul\":13349:13557   */\n      iszero\n      tag_258\n      jumpi\n        /* \"#utility.yul\":13442:13451   */\n      dup5\n        /* \"#utility.yul\":13437:13440   */\n      dup10\n        /* \"#utility.yul\":13433:13452   */\n      add\n        /* \"#utility.yul\":13427:13453   */\n      mload\n        /* \"#utility.yul\":13419:13425   */\n      dup3\n        /* \"#utility.yul\":13412:13454   */\n      sstore\n        /* \"#utility.yul\":13493:13494   */\n      0x01\n        /* \"#utility.yul\":13485:13491   */\n      dup3\n        /* \"#utility.yul\":13481:13495   */\n      add\n        /* \"#utility.yul\":13471:13495   */\n      swap2\n      pop\n        /* \"#utility.yul\":13540:13542   */\n      0x20\n        /* \"#utility.yul\":13529:13538   */\n      dup6\n        /* \"#utility.yul\":13525:13543   */\n      add\n        /* \"#utility.yul\":13512:13543   */\n      swap5\n      pop\n        /* \"#utility.yul\":13386:13390   */\n      0x20\n        /* \"#utility.yul\":13383:13384   */\n      dup2\n        /* \"#utility.yul\":13379:13391   */\n      add\n        /* \"#utility.yul\":13374:13391   */\n      swap1\n      pop\n        /* \"#utility.yul\":13349:13557   */\n      jump(tag_256)\n    tag_258:\n        /* \"#utility.yul\":13585:13591   */\n      dup7\n        /* \"#utility.yul\":13576:13583   */\n      dup4\n        /* \"#utility.yul\":13573:13592   */\n      lt\n        /* \"#utility.yul\":13570:13749   */\n      iszero\n      tag_259\n      jumpi\n        /* \"#utility.yul\":13643:13652   */\n      dup5\n        /* \"#utility.yul\":13638:13641   */\n      dup10\n        /* \"#utility.yul\":13634:13653   */\n      add\n        /* \"#utility.yul\":13628:13654   */\n      mload\n        /* \"#utility.yul\":13686:13734   */\n      tag_260\n        /* \"#utility.yul\":13728:13732   */\n      0x1f\n        /* \"#utility.yul\":13720:13726   */\n      dup10\n        /* \"#utility.yul\":13716:13733   */\n      and\n        /* \"#utility.yul\":13705:13714   */\n      dup3\n        /* \"#utility.yul\":13686:13734   */\n      tag_107\n      jump\t// in\n    tag_260:\n        /* \"#utility.yul\":13678:13684   */\n      dup4\n        /* \"#utility.yul\":13671:13735   */\n      sstore\n        /* \"#utility.yul\":13593:13749   */\n      pop\n        /* \"#utility.yul\":13570:13749   */\n    tag_259:\n        /* \"#utility.yul\":13795:13796   */\n      0x01\n        /* \"#utility.yul\":13791:13792   */\n      0x02\n        /* \"#utility.yul\":13783:13789   */\n      dup9\n        /* \"#utility.yul\":13779:13793   */\n      mul\n        /* \"#utility.yul\":13775:13797   */\n      add\n        /* \"#utility.yul\":13769:13773   */\n      dup9\n        /* \"#utility.yul\":13762:13798   */\n      sstore\n        /* \"#utility.yul\":13197:13808   */\n      pop\n      pop\n      pop\n        /* \"#utility.yul\":13160:14047   */\n    tag_251:\n      pop\n        /* \"#utility.yul\":12750:14053   */\n      pop\n      pop\n      pop\n        /* \"#utility.yul\":12658:14053   */\n      pop\n      pop\n      jump\t// out\n        /* \"#utility.yul\":14059:14222   */\n    tag_109:\n        /* \"#utility.yul\":14199:14214   */\n      0x496e76616c696420496e64657800000000000000000000000000000000000000\n        /* \"#utility.yul\":14195:14196   */\n      0x00\n        /* \"#utility.yul\":14187:14193   */\n      dup3\n        /* \"#utility.yul\":14183:14197   */\n      add\n        /* \"#utility.yul\":14176:14215   */\n      mstore\n        /* \"#utility.yul\":14059:14222   */\n      pop\n      jump\t// out\n        /* \"#utility.yul\":14228:14594   */\n    tag_110:\n        /* \"#utility.yul\":14370:14373   */\n      0x00\n        /* \"#utility.yul\":14391:14458   */\n      tag_263\n        /* \"#utility.yul\":14455:14457   */\n      0x0d\n        /* \"#utility.yul\":14450:14453   */\n      dup4\n        /* \"#utility.yul\":14391:14458   */\n      tag_81\n      jump\t// in\n    tag_263:\n        /* \"#utility.yul\":14384:14458   */\n      swap2\n      pop\n        /* \"#utility.yul\":14467:14560   */\n      tag_264\n        /* \"#utility.yul\":14556:14559   */\n      dup3\n        /* \"#utility.yul\":14467:14560   */\n      tag_109\n      jump\t// in\n    tag_264:\n        /* \"#utility.yul\":14585:14587   */\n      0x20\n        /* \"#utility.yul\":14580:14583   */\n      dup3\n        /* \"#utility.yul\":14576:14588   */\n      add\n        /* \"#utility.yul\":14569:14588   */\n      swap1\n      pop\n        /* \"#utility.yul\":14228:14594   */\n      swap2\n      swap1\n      pop\n      jump\t// out\n        /* \"#utility.yul\":14600:15019   */\n    tag_50:\n        /* \"#utility.yul\":14766:14770   */\n      0x00\n        /* \"#utility.yul\":14804:14806   */\n      0x20\n        /* \"#utility.yul\":14793:14802   */\n      dup3\n        /* \"#utility.yul\":14789:14807   */\n      add\n        /* \"#utility.yul\":14781:14807   */\n      swap1\n      pop\n        /* \"#utility.yul\":14853:14862   */\n      dup2\n        /* \"#utility.yul\":14847:14851   */\n      dup2\n        /* \"#utility.yul\":14843:14863   */\n      sub\n        /* \"#utility.yul\":14839:14840   */\n      0x00\n        /* \"#utility.yul\":14828:14837   */\n      dup4\n        /* \"#utility.yul\":14824:14841   */\n      add\n        /* \"#utility.yul\":14817:14864   */\n      mstore\n        /* \"#utility.yul\":14881:15012   */\n      tag_266\n        /* \"#utility.yul\":15007:15011   */\n      dup2\n        /* \"#utility.yul\":14881:15012   */\n      tag_110\n      jump\t// in\n    tag_266:\n        /* \"#utility.yul\":14873:15012   */\n      swap1\n      pop\n        /* \"#utility.yul\":14600:15019   */\n      swap2\n      swap1\n      pop\n      jump\t// out\n        /* \"#utility.yul\":15025:15205   */\n    tag_111:\n        /* \"#utility.yul\":15073:15150   */\n      0x4e487b7100000000000000000000000000000000000000000000000000000000\n        /* \"#utility.yul\":15070:15071   */\n      0x00\n        /* \"#utility.yul\":15063:15151   */\n      mstore\n        /* \"#utility.yul\":15170:15174   */\n      0x11\n        /* \"#utility.yul\":15167:15168   */\n      0x04\n        /* \"#utility.yul\":15160:15175   */\n      mstore\n        /* \"#utility.yul\":15194:15198   */\n      0x24\n        /* \"#utility.yul\":15191:15192   */\n      0x00\n        /* \"#utility.yul\":15184:15199   */\n      revert\n        /* \"#utility.yul\":15211:15405   */\n    tag_52:\n        /* \"#utility.yul\":15251:15255   */\n      0x00\n        /* \"#utility.yul\":15271:15291   */\n      tag_269\n        /* \"#utility.yul\":15289:15290   */\n      dup3\n        /* \"#utility.yul\":15271:15291   */\n      tag_70\n      jump\t// in\n    tag_269:\n        /* \"#utility.yul\":15266:15291   */\n      swap2\n      pop\n        /* \"#utility.yul\":15305:15325   */\n      tag_270\n        /* \"#utility.yul\":15323:15324   */\n      dup4\n        /* \"#utility.yul\":15305:15325   */\n      tag_70\n      jump\t// in\n    tag_270:\n        /* \"#utility.yul\":15300:15325   */\n      swap3\n      pop\n        /* \"#utility.yul\":15349:15350   */\n      dup3\n        /* \"#utility.yul\":15346:15347   */\n      dup3\n        /* \"#utility.yul\":15342:15351   */\n      sub\n        /* \"#utility.yul\":15334:15351   */\n      swap1\n      pop\n        /* \"#utility.yul\":15373:15374   */\n      dup2\n        /* \"#utility.yul\":15367:15371   */\n      dup2\n        /* \"#utility.yul\":15364:15375   */\n      gt\n        /* \"#utility.yul\":15361:15398   */\n      iszero\n      tag_271\n      jumpi\n        /* \"#utility.yul\":15378:15396   */\n      tag_272\n      tag_111\n      jump\t// in\n    tag_272:\n        /* \"#utility.yul\":15361:15398   */\n    tag_271:\n        /* \"#utility.yul\":15211:15405   */\n      swap3\n      swap2\n      pop\n      pop\n      jump\t// out\n        /* \"#utility.yul\":15411:15591   */\n    tag_55:\n        /* \"#utility.yul\":15459:15536   */\n      0x4e487b7100000000000000000000000000000000000000000000000000000000\n        /* \"#utility.yul\":15456:15457   */\n      0x00\n        /* \"#utility.yul\":15449:15537   */\n      mstore\n        /* \"#utility.yul\":15556:15560   */\n      0x32\n        /* \"#utility.yul\":15553:15554   */\n      0x04\n        /* \"#utility.yul\":15546:15561   */\n      mstore\n        /* \"#utility.yul\":15580:15584   */\n      0x24\n        /* \"#utility.yul\":15577:15578   */\n      0x00\n        /* \"#utility.yul\":15570:15585   */\n      revert\n\n    auxdata: 0xa264697066735822122031b3d846e441f9712e0a7d3a29aa3ea88d8033425dd08f43c2a146aab55dce6f64736f6c63430008120033\n}\n",
				"bytecode": {
					"linkReferences": {},
					"object": "608060405234801561001057600080fd5b50610cb0806100206000396000f3fe608060405234801561001057600080fd5b506004361061004c5760003560e01c80631ecdd9a014610051578063448a8e1e1461006f5780639b4d52dd146100a0578063b0f3bdc2146100bc575b600080fd5b6100596100ed565b60405161006691906105f5565b60405180910390f35b61008960048036038101906100849190610657565b6101e8565b6040516100979291906106dd565b60405180910390f35b6100ba60048036038101906100b59190610842565b6102a4565b005b6100d660048036038101906100d19190610657565b61030a565b6040516100e49291906106dd565b60405180910390f35b60606000805480602002602001604051908101604052809291908181526020016000905b828210156101df5783829060005260206000209060020201604051806040016040529081600082018054610144906108cd565b80601f0160208091040260200160405190810160405280929190818152602001828054610170906108cd565b80156101bd5780601f10610192576101008083540402835291602001916101bd565b820191906000526020600020905b8154815290600101906020018083116101a057829003601f168201915b5050505050815260200160018201548152505081526020019060010190610111565b50505050905090565b600081815481106101f857600080fd5b906000526020600020906002020160009150905080600001805461021b906108cd565b80601f0160208091040260200160405190810160405280929190818152602001828054610247906108cd565b80156102945780601f1061026957610100808354040283529160200191610294565b820191906000526020600020905b81548152906001019060200180831161027757829003601f168201915b5050505050908060010154905082565b6000604051806040016040528084815260200183815250908060018154018082558091505060019003906000526020600020906002020160009091909190915060008201518160000190816102f99190610aaa565b506020820151816001015550505050565b60606000808311801561032257506000805490508311155b610361576040517f08c379a000000000000000000000000000000000000000000000000000000000815260040161035890610bc8565b60405180910390fd5b6000806001856103719190610c17565b8154811061038257610381610c4b565b5b90600052602060002090600202016040518060400160405290816000820180546103ab906108cd565b80601f01602080910402602001604051908101604052809291908181526020018280546103d7906108cd565b80156104245780601f106103f957610100808354040283529160200191610424565b820191906000526020600020905b81548152906001019060200180831161040757829003601f168201915b505050505081526020016001820154815250509050806000015181602001519250925050915091565b600081519050919050565b600082825260208201905092915050565b6000819050602082019050919050565b600081519050919050565b600082825260208201905092915050565b60005b838110156104b3578082015181840152602081019050610498565b60008484015250505050565b6000601f19601f8301169050919050565b60006104db82610479565b6104e58185610484565b93506104f5818560208601610495565b6104fe816104bf565b840191505092915050565b6000819050919050565b61051c81610509565b82525050565b6000604083016000830151848203600086015261053f82826104d0565b91505060208301516105546020860182610513565b508091505092915050565b600061056b8383610522565b905092915050565b6000602082019050919050565b600061058b8261044d565b6105958185610458565b9350836020820285016105a785610469565b8060005b858110156105e357848403895281516105c4858261055f565b94506105cf83610573565b925060208a019950506001810190506105ab565b50829750879550505050505092915050565b6000602082019050818103600083015261060f8184610580565b905092915050565b6000604051905090565b600080fd5b600080fd5b61063481610509565b811461063f57600080fd5b50565b6000813590506106518161062b565b92915050565b60006020828403121561066d5761066c610621565b5b600061067b84828501610642565b91505092915050565b600082825260208201905092915050565b60006106a082610479565b6106aa8185610684565b93506106ba818560208601610495565b6106c3816104bf565b840191505092915050565b6106d781610509565b82525050565b600060408201905081810360008301526106f78185610695565b905061070660208301846106ce565b9392505050565b600080fd5b600080fd5b7f4e487b7100000000000000000000000000000000000000000000000000000000600052604160045260246000fd5b61074f826104bf565b810181811067ffffffffffffffff8211171561076e5761076d610717565b5b80604052505050565b6000610781610617565b905061078d8282610746565b919050565b600067ffffffffffffffff8211156107ad576107ac610717565b5b6107b6826104bf565b9050602081019050919050565b82818337600083830152505050565b60006107e56107e084610792565b610777565b90508281526020810184848401111561080157610800610712565b5b61080c8482856107c3565b509392505050565b600082601f8301126108295761082861070d565b5b81356108398482602086016107d2565b91505092915050565b6000806040838503121561085957610858610621565b5b600083013567ffffffffffffffff81111561087757610876610626565b5b61088385828601610814565b925050602061089485828601610642565b9150509250929050565b7f4e487b7100000000000000000000000000000000000000000000000000000000600052602260045260246000fd5b600060028204905060018216806108e557607f821691505b6020821081036108f8576108f761089e565b5b50919050565b60008190508160005260206000209050919050565b60006020601f8301049050919050565b600082821b905092915050565b6000600883026109607fffffffffffffffffffffffffffffffffffffffffffffffffffffffffffffffff82610923565b61096a8683610923565b95508019841693508086168417925050509392505050565b6000819050919050565b60006109a76109a261099d84610509565b610982565b610509565b9050919050565b6000819050919050565b6109c18361098c565b6109d56109cd826109ae565b848454610930565b825550505050565b600090565b6109ea6109dd565b6109f58184846109b8565b505050565b5b81811015610a1957610a0e6000826109e2565b6001810190506109fb565b5050565b601f821115610a5e57610a2f816108fe565b610a3884610913565b81016020851015610a47578190505b610a5b610a5385610913565b8301826109fa565b50505b505050565b600082821c905092915050565b6000610a8160001984600802610a63565b1980831691505092915050565b6000610a9a8383610a70565b9150826002028217905092915050565b610ab382610479565b67ffffffffffffffff811115610acc57610acb610717565b5b610ad682546108cd565b610ae1828285610a1d565b600060209050601f831160018114610b145760008415610b02578287015190505b610b0c8582610a8e565b865550610b74565b601f198416610b22866108fe565b60005b82811015610b4a57848901518255600182019150602085019450602081019050610b25565b86831015610b675784890151610b63601f891682610a70565b8355505b6001600288020188555050505b505050505050565b7f496e76616c696420496e64657800000000000000000000000000000000000000600082015250565b6000610bb2600d83610684565b9150610bbd82610b7c565b602082019050919050565b60006020820190508181036000830152610be181610ba5565b9050919050565b7f4e487b7100000000000000000000000000000000000000000000000000000000600052601160045260246000fd5b6000610c2282610509565b9150610c2d83610509565b9250828203905081811115610c4557610c44610be8565b5b92915050565b7f4e487b7100000000000000000000000000000000000000000000000000000000600052603260045260246000fdfea264697066735822122031b3d846e441f9712e0a7d3a29aa3ea88d8033425dd08f43c2a146aab55dce6f64736f6c63430008120033",
					"opcodes": "PUSH1 0x80 PUSH1 0x40 MSTORE CALLVALUE DUP1 ISZERO PUSH2 0x10 JUMPI PUSH1 0x0 DUP1 REVERT JUMPDEST POP PUSH2 0xCB0 DUP1 PUSH2 0x20 PUSH1 0x0 CODECOPY PUSH1 0x0 RETURN INVALID PUSH1 0x80 PUSH1 0x40 MSTORE CALLVALUE DUP1 ISZERO PUSH2 0x10 JUMPI PUSH1 0x0 DUP1 REVERT JUMPDEST POP PUSH1 0x4 CALLDATASIZE LT PUSH2 0x4C JUMPI PUSH1 0x0 CALLDATALOAD PUSH1 0xE0 SHR DUP1 PUSH4 0x1ECDD9A0 EQ PUSH2 0x51 JUMPI DUP1 PUSH4 0x448A8E1E EQ PUSH2 0x6F JUMPI DUP1 PUSH4 0x9B4D52DD EQ PUSH2 0xA0 JUMPI DUP1 PUSH4 0xB0F3BDC2 EQ PUSH2 0xBC JUMPI JUMPDEST PUSH1 0x0 DUP1 REVERT JUMPDEST PUSH2 0x59 PUSH2 0xED JUMP JUMPDEST PUSH1 0x40 MLOAD PUSH2 0x66 SWAP2 SWAP1 PUSH2 0x5F5 JUMP JUMPDEST PUSH1 0x40 MLOAD DUP1 SWAP2 SUB SWAP1 RETURN JUMPDEST PUSH2 0x89 PUSH1 0x4 DUP1 CALLDATASIZE SUB DUP2 ADD SWAP1 PUSH2 0x84 SWAP2 SWAP1 PUSH2 0x657 JUMP JUMPDEST PUSH2 0x1E8 JUMP JUMPDEST PUSH1 0x40 MLOAD PUSH2 0x97 SWAP3 SWAP2 SWAP1 PUSH2 0x6DD JUMP JUMPDEST PUSH1 0x40 MLOAD DUP1 SWAP2 SUB SWAP1 RETURN JUMPDEST PUSH2 0xBA PUSH1 0x4 DUP1 CALLDATASIZE SUB DUP2 ADD SWAP1 PUSH2 0xB5 SWAP2 SWAP1 PUSH2 0x842 JUMP JUMPDEST PUSH2 0x2A4 JUMP JUMPDEST STOP JUMPDEST PUSH2 0xD6 PUSH1 0x4 DUP1 CALLDATASIZE SUB DUP2 ADD SWAP1 PUSH2 0xD1 SWAP2 SWAP1 PUSH2 0x657 JUMP JUMPDEST PUSH2 0x30A JUMP JUMPDEST PUSH1 0x40 MLOAD PUSH2 0xE4 SWAP3 SWAP2 SWAP1 PUSH2 0x6DD JUMP JUMPDEST PUSH1 0x40 MLOAD DUP1 SWAP2 SUB SWAP1 RETURN JUMPDEST PUSH1 0x60 PUSH1 0x0 DUP1 SLOAD DUP1 PUSH1 0x20 MUL PUSH1 0x20 ADD PUSH1 0x40 MLOAD SWAP1 DUP2 ADD PUSH1 0x40 MSTORE DUP1 SWAP3 SWAP2 SWAP1 DUP2 DUP2 MSTORE PUSH1 0x20 ADD PUSH1 0x0 SWAP1 JUMPDEST DUP3 DUP3 LT ISZERO PUSH2 0x1DF JUMPI DUP4 DUP3 SWAP1 PUSH1 0x0 MSTORE PUSH1 0x20 PUSH1 0x0 KECCAK256 SWAP1 PUSH1 0x2 MUL ADD PUSH1 0x40 MLOAD DUP1 PUSH1 0x40 ADD PUSH1 0x40 MSTORE SWAP1 DUP2 PUSH1 0x0 DUP3 ADD DUP1 SLOAD PUSH2 0x144 SWAP1 PUSH2 0x8CD JUMP JUMPDEST DUP1 PUSH1 0x1F ADD PUSH1 0x20 DUP1 SWAP2 DIV MUL PUSH1 0x20 ADD PUSH1 0x40 MLOAD SWAP1 DUP2 ADD PUSH1 0x40 MSTORE DUP1 SWAP3 SWAP2 SWAP1 DUP2 DUP2 MSTORE PUSH1 0x20 ADD DUP3 DUP1 SLOAD PUSH2 0x170 SWAP1 PUSH2 0x8CD JUMP JUMPDEST DUP1 ISZERO PUSH2 0x1BD JUMPI DUP1 PUSH1 0x1F LT PUSH2 0x192 JUMPI PUSH2 0x100 DUP1 DUP4 SLOAD DIV MUL DUP4 MSTORE SWAP2 PUSH1 0x20 ADD SWAP2 PUSH2 0x1BD JUMP JUMPDEST DUP3 ADD SWAP2 SWAP1 PUSH1 0x0 MSTORE PUSH1 0x20 PUSH1 0x0 KECCAK256 SWAP1 JUMPDEST DUP2 SLOAD DUP2 MSTORE SWAP1 PUSH1 0x1 ADD SWAP1 PUSH1 0x20 ADD DUP1 DUP4 GT PUSH2 0x1A0 JUMPI DUP3 SWAP1 SUB PUSH1 0x1F AND DUP3 ADD SWAP2 JUMPDEST POP POP POP POP POP DUP2 MSTORE PUSH1 0x20 ADD PUSH1 0x1 DUP3 ADD SLOAD DUP2 MSTORE POP POP DUP2 MSTORE PUSH1 0x20 ADD SWAP1 PUSH1 0x1 ADD SWAP1 PUSH2 0x111 JUMP JUMPDEST POP POP POP POP SWAP1 POP SWAP1 JUMP JUMPDEST PUSH1 0x0 DUP2 DUP2 SLOAD DUP2 LT PUSH2 0x1F8 JUMPI PUSH1 0x0 DUP1 REVERT JUMPDEST SWAP1 PUSH1 0x0 MSTORE PUSH1 0x20 PUSH1 0x0 KECCAK256 SWAP1 PUSH1 0x2 MUL ADD PUSH1 0x0 SWAP2 POP SWAP1 POP DUP1 PUSH1 0x0 ADD DUP1 SLOAD PUSH2 0x21B SWAP1 PUSH2 0x8CD JUMP JUMPDEST DUP1 PUSH1 0x1F ADD PUSH1 0x20 DUP1 SWAP2 DIV MUL PUSH1 0x20 ADD PUSH1 0x40 MLOAD SWAP1 DUP2 ADD PUSH1 0x40 MSTORE DUP1 SWAP3 SWAP2 SWAP1 DUP2 DUP2 MSTORE PUSH1 0x20 ADD DUP3 DUP1 SLOAD PUSH2 0x247 SWAP1 PUSH2 0x8CD JUMP JUMPDEST DUP1 ISZERO PUSH2 0x294 JUMPI DUP1 PUSH1 0x1F LT PUSH2 0x269 JUMPI PUSH2 0x100 DUP1 DUP4 SLOAD DIV MUL DUP4 MSTORE SWAP2 PUSH1 0x20 ADD SWAP2 PUSH2 0x294 JUMP JUMPDEST DUP3 ADD SWAP2 SWAP1 PUSH1 0x0 MSTORE PUSH1 0x20 PUSH1 0x0 KECCAK256 SWAP1 JUMPDEST DUP2 SLOAD DUP2 MSTORE SWAP1 PUSH1 0x1 ADD SWAP1 PUSH1 0x20 ADD DUP1 DUP4 GT PUSH2 0x277 JUMPI DUP3 SWAP1 SUB PUSH1 0x1F AND DUP3 ADD SWAP2 JUMPDEST POP POP POP POP POP SWAP1 DUP1 PUSH1 0x1 ADD SLOAD SWAP1 POP DUP3 JUMP JUMPDEST PUSH1 0x0 PUSH1 0x40 MLOAD DUP1 PUSH1 0x40 ADD PUSH1 0x40 MSTORE DUP1 DUP5 DUP2 MSTORE PUSH1 0x20 ADD DUP4 DUP2 MSTORE POP SWAP1 DUP1 PUSH1 0x1 DUP2 SLOAD ADD DUP1 DUP3 SSTORE DUP1 SWAP2 POP POP PUSH1 0x1 SWAP1 SUB SWAP1 PUSH1 0x0 MSTORE PUSH1 0x20 PUSH1 0x0 KECCAK256 SWAP1 PUSH1 0x2 MUL ADD PUSH1 0x0 SWAP1 SWAP2 SWAP1 SWAP2 SWAP1 SWAP2 POP PUSH1 0x0 DUP3 ADD MLOAD DUP2 PUSH1 0x0 ADD SWAP1 DUP2 PUSH2 0x2F9 SWAP2 SWAP1 PUSH2 0xAAA JUMP JUMPDEST POP PUSH1 0x20 DUP3 ADD MLOAD DUP2 PUSH1 0x1 ADD SSTORE POP POP POP POP JUMP JUMPDEST PUSH1 0x60 PUSH1 0x0 DUP1 DUP4 GT DUP1 ISZERO PUSH2 0x322 JUMPI POP PUSH1 0x0 DUP1 SLOAD SWAP1 POP DUP4 GT ISZERO JUMPDEST PUSH2 0x361 JUMPI PUSH1 0x40 MLOAD PUSH32 0x8C379A000000000000000000000000000000000000000000000000000000000 DUP2 MSTORE PUSH1 0x4 ADD PUSH2 0x358 SWAP1 PUSH2 0xBC8 JUMP JUMPDEST PUSH1 0x40 MLOAD DUP1 SWAP2 SUB SWAP1 REVERT JUMPDEST PUSH1 0x0 DUP1 PUSH1 0x1 DUP6 PUSH2 0x371 SWAP2 SWAP1 PUSH2 0xC17 JUMP JUMPDEST DUP2 SLOAD DUP2 LT PUSH2 0x382 JUMPI PUSH2 0x381 PUSH2 0xC4B JUMP JUMPDEST JUMPDEST SWAP1 PUSH1 0x0 MSTORE PUSH1 0x20 PUSH1 0x0 KECCAK256 SWAP1 PUSH1 0x2 MUL ADD PUSH1 0x40 MLOAD DUP1 PUSH1 0x40 ADD PUSH1 0x40 MSTORE SWAP1 DUP2 PUSH1 0x0 DUP3 ADD DUP1 SLOAD PUSH2 0x3AB SWAP1 PUSH2 0x8CD JUMP JUMPDEST DUP1 PUSH1 0x1F ADD PUSH1 0x20 DUP1 SWAP2 DIV MUL PUSH1 0x20 ADD PUSH1 0x40 MLOAD SWAP1 DUP2 ADD PUSH1 0x40 MSTORE DUP1 SWAP3 SWAP2 SWAP1 DUP2 DUP2 MSTORE PUSH1 0x20 ADD DUP3 DUP1 SLOAD PUSH2 0x3D7 SWAP1 PUSH2 0x8CD JUMP JUMPDEST DUP1 ISZERO PUSH2 0x424 JUMPI DUP1 PUSH1 0x1F LT PUSH2 0x3F9 JUMPI PUSH2 0x100 DUP1 DUP4 SLOAD DIV MUL DUP4 MSTORE SWAP2 PUSH1 0x20 ADD SWAP2 PUSH2 0x424 JUMP JUMPDEST DUP3 ADD SWAP2 SWAP1 PUSH1 0x0 MSTORE PUSH1 0x20 PUSH1 0x0 KECCAK256 SWAP1 JUMPDEST DUP2 SLOAD DUP2 MSTORE SWAP1 PUSH1 0x1 ADD SWAP1 PUSH1 0x20 ADD DUP1 DUP4 GT PUSH2 0x407 JUMPI DUP3 SWAP1 SUB PUSH1 0x1F AND DUP3 ADD SWAP2 JUMPDEST POP POP POP POP POP DUP2 MSTORE PUSH1 0x20 ADD PUSH1 0x1 DUP3 ADD SLOAD DUP2 MSTORE POP POP SWAP1 POP DUP1 PUSH1 0x0 ADD MLOAD DUP2 PUSH1 0x20 ADD MLOAD SWAP3 POP SWAP3 POP POP SWAP2 POP SWAP2 JUMP JUMPDEST PUSH1 0x0 DUP2 MLOAD SWAP1 POP SWAP2 SWAP1 POP JUMP JUMPDEST PUSH1 0x0 DUP3 DUP3 MSTORE PUSH1 0x20 DUP3 ADD SWAP1 POP SWAP3 SWAP2 POP POP JUMP JUMPDEST PUSH1 0x0 DUP2 SWAP1 POP PUSH1 0x20 DUP3 ADD SWAP1 POP SWAP2 SWAP1 POP JUMP JUMPDEST PUSH1 0x0 DUP2 MLOAD SWAP1 POP SWAP2 SWAP1 POP JUMP JUMPDEST PUSH1 0x0 DUP3 DUP3 MSTORE PUSH1 0x20 DUP3 ADD SWAP1 POP SWAP3 SWAP2 POP POP JUMP JUMPDEST PUSH1 0x0 JUMPDEST DUP4 DUP2 LT ISZERO PUSH2 0x4B3 JUMPI DUP1 DUP3 ADD MLOAD DUP2 DUP5 ADD MSTORE PUSH1 0x20 DUP2 ADD SWAP1 POP PUSH2 0x498 JUMP JUMPDEST PUSH1 0x0 DUP5 DUP5 ADD MSTORE POP POP POP POP JUMP JUMPDEST PUSH1 0x0 PUSH1 0x1F NOT PUSH1 0x1F DUP4 ADD AND SWAP1 POP SWAP2 SWAP1 POP JUMP JUMPDEST PUSH1 0x0 PUSH2 0x4DB DUP3 PUSH2 0x479 JUMP JUMPDEST PUSH2 0x4E5 DUP2 DUP6 PUSH2 0x484 JUMP JUMPDEST SWAP4 POP PUSH2 0x4F5 DUP2 DUP6 PUSH1 0x20 DUP7 ADD PUSH2 0x495 JUMP JUMPDEST PUSH2 0x4FE DUP2 PUSH2 0x4BF JUMP JUMPDEST DUP5 ADD SWAP2 POP POP SWAP3 SWAP2 POP POP JUMP JUMPDEST PUSH1 0x0 DUP2 SWAP1 POP SWAP2 SWAP1 POP JUMP JUMPDEST PUSH2 0x51C DUP2 PUSH2 0x509 JUMP JUMPDEST DUP3 MSTORE POP POP JUMP JUMPDEST PUSH1 0x0 PUSH1 0x40 DUP4 ADD PUSH1 0x0 DUP4 ADD MLOAD DUP5 DUP3 SUB PUSH1 0x0 DUP7 ADD MSTORE PUSH2 0x53F DUP3 DUP3 PUSH2 0x4D0 JUMP JUMPDEST SWAP2 POP POP PUSH1 0x20 DUP4 ADD MLOAD PUSH2 0x554 PUSH1 0x20 DUP7 ADD DUP3 PUSH2 0x513 JUMP JUMPDEST POP DUP1 SWAP2 POP POP SWAP3 SWAP2 POP POP JUMP JUMPDEST PUSH1 0x0 PUSH2 0x56B DUP4 DUP4 PUSH2 0x522 JUMP JUMPDEST SWAP1 POP SWAP3 SWAP2 POP POP JUMP JUMPDEST PUSH1 0x0 PUSH1 0x20 DUP3 ADD SWAP1 POP SWAP2 SWAP1 POP JUMP JUMPDEST PUSH1 0x0 PUSH2 0x58B DUP3 PUSH2 0x44D JUMP JUMPDEST PUSH2 0x595 DUP2 DUP6 PUSH2 0x458 JUMP JUMPDEST SWAP4 POP DUP4 PUSH1 0x20 DUP3 MUL DUP6 ADD PUSH2 0x5A7 DUP6 PUSH2 0x469 JUMP JUMPDEST DUP1 PUSH1 0x0 JUMPDEST DUP6 DUP2 LT ISZERO PUSH2 0x5E3 JUMPI DUP5 DUP5 SUB DUP10 MSTORE DUP2 MLOAD PUSH2 0x5C4 DUP6 DUP3 PUSH2 0x55F JUMP JUMPDEST SWAP5 POP PUSH2 0x5CF DUP4 PUSH2 0x573 JUMP JUMPDEST SWAP3 POP PUSH1 0x20 DUP11 ADD SWAP10 POP POP PUSH1 0x1 DUP2 ADD SWAP1 POP PUSH2 0x5AB JUMP JUMPDEST POP DUP3 SWAP8 POP DUP8 SWAP6 POP POP POP POP POP POP SWAP3 SWAP2 POP POP JUMP JUMPDEST PUSH1 0x0 PUSH1 0x20 DUP3 ADD SWAP1 POP DUP2 DUP2 SUB PUSH1 0x0 DUP4 ADD MSTORE PUSH2 0x60F DUP2 DUP5 PUSH2 0x580 JUMP JUMPDEST SWAP1 POP SWAP3 SWAP2 POP POP JUMP JUMPDEST PUSH1 0x0 PUSH1 0x40 MLOAD SWAP1 POP SWAP1 JUMP JUMPDEST PUSH1 0x0 DUP1 REVERT JUMPDEST PUSH1 0x0 DUP1 REVERT JUMPDEST PUSH2 0x634 DUP2 PUSH2 0x509 JUMP JUMPDEST DUP2 EQ PUSH2 0x63F JUMPI PUSH1 0x0 DUP1 REVERT JUMPDEST POP JUMP JUMPDEST PUSH1 0x0 DUP2 CALLDATALOAD SWAP1 POP PUSH2 0x651 DUP2 PUSH2 0x62B JUMP JUMPDEST SWAP3 SWAP2 POP POP JUMP JUMPDEST PUSH1 0x0 PUSH1 0x20 DUP3 DUP5 SUB SLT ISZERO PUSH2 0x66D JUMPI PUSH2 0x66C PUSH2 0x621 JUMP JUMPDEST JUMPDEST PUSH1 0x0 PUSH2 0x67B DUP5 DUP3 DUP6 ADD PUSH2 0x642 JUMP JUMPDEST SWAP2 POP POP SWAP3 SWAP2 POP POP JUMP JUMPDEST PUSH1 0x0 DUP3 DUP3 MSTORE PUSH1 0x20 DUP3 ADD SWAP1 POP SWAP3 SWAP2 POP POP JUMP JUMPDEST PUSH1 0x0 PUSH2 0x6A0 DUP3 PUSH2 0x479 JUMP JUMPDEST PUSH2 0x6AA DUP2 DUP6 PUSH2 0x684 JUMP JUMPDEST SWAP4 POP PUSH2 0x6BA DUP2 DUP6 PUSH1 0x20 DUP7 ADD PUSH2 0x495 JUMP JUMPDEST PUSH2 0x6C3 DUP2 PUSH2 0x4BF JUMP JUMPDEST DUP5 ADD SWAP2 POP POP SWAP3 SWAP2 POP POP JUMP JUMPDEST PUSH2 0x6D7 DUP2 PUSH2 0x509 JUMP JUMPDEST DUP3 MSTORE POP POP JUMP JUMPDEST PUSH1 0x0 PUSH1 0x40 DUP3 ADD SWAP1 POP DUP2 DUP2 SUB PUSH1 0x0 DUP4 ADD MSTORE PUSH2 0x6F7 DUP2 DUP6 PUSH2 0x695 JUMP JUMPDEST SWAP1 POP PUSH2 0x706 PUSH1 0x20 DUP4 ADD DUP5 PUSH2 0x6CE JUMP JUMPDEST SWAP4 SWAP3 POP POP POP JUMP JUMPDEST PUSH1 0x0 DUP1 REVERT JUMPDEST PUSH1 0x0 DUP1 REVERT JUMPDEST PUSH32 0x4E487B7100000000000000000000000000000000000000000000000000000000 PUSH1 0x0 MSTORE PUSH1 0x41 PUSH1 0x4 MSTORE PUSH1 0x24 PUSH1 0x0 REVERT JUMPDEST PUSH2 0x74F DUP3 PUSH2 0x4BF JUMP JUMPDEST DUP2 ADD DUP2 DUP2 LT PUSH8 0xFFFFFFFFFFFFFFFF DUP3 GT OR ISZERO PUSH2 0x76E JUMPI PUSH2 0x76D PUSH2 0x717 JUMP JUMPDEST JUMPDEST DUP1 PUSH1 0x40 MSTORE POP POP POP JUMP JUMPDEST PUSH1 0x0 PUSH2 0x781 PUSH2 0x617 JUMP JUMPDEST SWAP1 POP PUSH2 0x78D DUP3 DUP3 PUSH2 0x746 JUMP JUMPDEST SWAP2 SWAP1 POP JUMP JUMPDEST PUSH1 0x0 PUSH8 0xFFFFFFFFFFFFFFFF DUP3 GT ISZERO PUSH2 0x7AD JUMPI PUSH2 0x7AC PUSH2 0x717 JUMP JUMPDEST JUMPDEST PUSH2 0x7B6 DUP3 PUSH2 0x4BF JUMP JUMPDEST SWAP1 POP PUSH1 0x20 DUP2 ADD SWAP1 POP SWAP2 SWAP1 POP JUMP JUMPDEST DUP3 DUP2 DUP4 CALLDATACOPY PUSH1 0x0 DUP4 DUP4 ADD MSTORE POP POP POP JUMP JUMPDEST PUSH1 0x0 PUSH2 0x7E5 PUSH2 0x7E0 DUP5 PUSH2 0x792 JUMP JUMPDEST PUSH2 0x777 JUMP JUMPDEST SWAP1 POP DUP3 DUP2 MSTORE PUSH1 0x20 DUP2 ADD DUP5 DUP5 DUP5 ADD GT ISZERO PUSH2 0x801 JUMPI PUSH2 0x800 PUSH2 0x712 JUMP JUMPDEST JUMPDEST PUSH2 0x80C DUP5 DUP3 DUP6 PUSH2 0x7C3 JUMP JUMPDEST POP SWAP4 SWAP3 POP POP POP JUMP JUMPDEST PUSH1 0x0 DUP3 PUSH1 0x1F DUP4 ADD SLT PUSH2 0x829 JUMPI PUSH2 0x828 PUSH2 0x70D JUMP JUMPDEST JUMPDEST DUP2 CALLDATALOAD PUSH2 0x839 DUP5 DUP3 PUSH1 0x20 DUP7 ADD PUSH2 0x7D2 JUMP JUMPDEST SWAP2 POP POP SWAP3 SWAP2 POP POP JUMP JUMPDEST PUSH1 0x0 DUP1 PUSH1 0x40 DUP4 DUP6 SUB SLT ISZERO PUSH2 0x859 JUMPI PUSH2 0x858 PUSH2 0x621 JUMP JUMPDEST JUMPDEST PUSH1 0x0 DUP4 ADD CALLDATALOAD PUSH8 0xFFFFFFFFFFFFFFFF DUP2 GT ISZERO PUSH2 0x877 JUMPI PUSH2 0x876 PUSH2 0x626 JUMP JUMPDEST JUMPDEST PUSH2 0x883 DUP6 DUP3 DUP7 ADD PUSH2 0x814 JUMP JUMPDEST SWAP3 POP POP PUSH1 0x20 PUSH2 0x894 DUP6 DUP3 DUP7 ADD PUSH2 0x642 JUMP JUMPDEST SWAP2 POP POP SWAP3 POP SWAP3 SWAP1 POP JUMP JUMPDEST PUSH32 0x4E487B7100000000000000000000000000000000000000000000000000000000 PUSH1 0x0 MSTORE PUSH1 0x22 PUSH1 0x4 MSTORE PUSH1 0x24 PUSH1 0x0 REVERT JUMPDEST PUSH1 0x0 PUSH1 0x2 DUP3 DIV SWAP1 POP PUSH1 0x1 DUP3 AND DUP1 PUSH2 0x8E5 JUMPI PUSH1 0x7F DUP3 AND SWAP2 POP JUMPDEST PUSH1 0x20 DUP3 LT DUP2 SUB PUSH2 0x8F8 JUMPI PUSH2 0x8F7 PUSH2 0x89E JUMP JUMPDEST JUMPDEST POP SWAP2 SWAP1 POP JUMP JUMPDEST PUSH1 0x0 DUP2 SWAP1 POP DUP2 PUSH1 0x0 MSTORE PUSH1 0x20 PUSH1 0x0 KECCAK256 SWAP1 POP SWAP2 SWAP1 POP JUMP JUMPDEST PUSH1 0x0 PUSH1 0x20 PUSH1 0x1F DUP4 ADD DIV SWAP1 POP SWAP2 SWAP1 POP JUMP JUMPDEST PUSH1 0x0 DUP3 DUP3 SHL SWAP1 POP SWAP3 SWAP2 POP POP JUMP JUMPDEST PUSH1 0x0 PUSH1 0x8 DUP4 MUL PUSH2 0x960 PUSH32 0xFFFFFFFFFFFFFFFFFFFFFFFFFFFFFFFFFFFFFFFFFFFFFFFFFFFFFFFFFFFFFFFF DUP3 PUSH2 0x923 JUMP JUMPDEST PUSH2 0x96A DUP7 DUP4 PUSH2 0x923 JUMP JUMPDEST SWAP6 POP DUP1 NOT DUP5 AND SWAP4 POP DUP1 DUP7 AND DUP5 OR SWAP3 POP POP POP SWAP4 SWAP3 POP POP POP JUMP JUMPDEST PUSH1 0x0 DUP2 SWAP1 POP SWAP2 SWAP1 POP JUMP JUMPDEST PUSH1 0x0 PUSH2 0x9A7 PUSH2 0x9A2 PUSH2 0x99D DUP5 PUSH2 0x509 JUMP JUMPDEST PUSH2 0x982 JUMP JUMPDEST PUSH2 0x509 JUMP JUMPDEST SWAP1 POP SWAP2 SWAP1 POP JUMP JUMPDEST PUSH1 0x0 DUP2 SWAP1 POP SWAP2 SWAP1 POP JUMP JUMPDEST PUSH2 0x9C1 DUP4 PUSH2 0x98C JUMP JUMPDEST PUSH2 0x9D5 PUSH2 0x9CD DUP3 PUSH2 0x9AE JUMP JUMPDEST DUP5 DUP5 SLOAD PUSH2 0x930 JUMP JUMPDEST DUP3 SSTORE POP POP POP POP JUMP JUMPDEST PUSH1 0x0 SWAP1 JUMP JUMPDEST PUSH2 0x9EA PUSH2 0x9DD JUMP JUMPDEST PUSH2 0x9F5 DUP2 DUP5 DUP5 PUSH2 0x9B8 JUMP JUMPDEST POP POP POP JUMP JUMPDEST JUMPDEST DUP2 DUP2 LT ISZERO PUSH2 0xA19 JUMPI PUSH2 0xA0E PUSH1 0x0 DUP3 PUSH2 0x9E2 JUMP JUMPDEST PUSH1 0x1 DUP2 ADD SWAP1 POP PUSH2 0x9FB JUMP JUMPDEST POP POP JUMP JUMPDEST PUSH1 0x1F DUP3 GT ISZERO PUSH2 0xA5E JUMPI PUSH2 0xA2F DUP2 PUSH2 0x8FE JUMP JUMPDEST PUSH2 0xA38 DUP5 PUSH2 0x913 JUMP JUMPDEST DUP2 ADD PUSH1 0x20 DUP6 LT ISZERO PUSH2 0xA47 JUMPI DUP2 SWAP1 POP JUMPDEST PUSH2 0xA5B PUSH2 0xA53 DUP6 PUSH2 0x913 JUMP JUMPDEST DUP4 ADD DUP3 PUSH2 0x9FA JUMP JUMPDEST POP POP JUMPDEST POP POP POP JUMP JUMPDEST PUSH1 0x0 DUP3 DUP3 SHR SWAP1 POP SWAP3 SWAP2 POP POP JUMP JUMPDEST PUSH1 0x0 PUSH2 0xA81 PUSH1 0x0 NOT DUP5 PUSH1 0x8 MUL PUSH2 0xA63 JUMP JUMPDEST NOT DUP1 DUP4 AND SWAP2 POP POP SWAP3 SWAP2 POP POP JUMP JUMPDEST PUSH1 0x0 PUSH2 0xA9A DUP4 DUP4 PUSH2 0xA70 JUMP JUMPDEST SWAP2 POP DUP3 PUSH1 0x2 MUL DUP3 OR SWAP1 POP SWAP3 SWAP2 POP POP JUMP JUMPDEST PUSH2 0xAB3 DUP3 PUSH2 0x479 JUMP JUMPDEST PUSH8 0xFFFFFFFFFFFFFFFF DUP2 GT ISZERO PUSH2 0xACC JUMPI PUSH2 0xACB PUSH2 0x717 JUMP JUMPDEST JUMPDEST PUSH2 0xAD6 DUP3 SLOAD PUSH2 0x8CD JUMP JUMPDEST PUSH2 0xAE1 DUP3 DUP3 DUP6 PUSH2 0xA1D JUMP JUMPDEST PUSH1 0x0 PUSH1 0x20 SWAP1 POP PUSH1 0x1F DUP4 GT PUSH1 0x1 DUP2 EQ PUSH2 0xB14 JUMPI PUSH1 0x0 DUP5 ISZERO PUSH2 0xB02 JUMPI DUP3 DUP8 ADD MLOAD SWAP1 POP JUMPDEST PUSH2 0xB0C DUP6 DUP3 PUSH2 0xA8E JUMP JUMPDEST DUP7 SSTORE POP PUSH2 0xB74 JUMP JUMPDEST PUSH1 0x1F NOT DUP5 AND PUSH2 0xB22 DUP7 PUSH2 0x8FE JUMP JUMPDEST PUSH1 0x0 JUMPDEST DUP3 DUP2 LT ISZERO PUSH2 0xB4A JUMPI DUP5 DUP10 ADD MLOAD DUP3 SSTORE PUSH1 0x1 DUP3 ADD SWAP2 POP PUSH1 0x20 DUP6 ADD SWAP5 POP PUSH1 0x20 DUP2 ADD SWAP1 POP PUSH2 0xB25 JUMP JUMPDEST DUP7 DUP4 LT ISZERO PUSH2 0xB67 JUMPI DUP5 DUP10 ADD MLOAD PUSH2 0xB63 PUSH1 0x1F DUP10 AND DUP3 PUSH2 0xA70 JUMP JUMPDEST DUP4 SSTORE POP JUMPDEST PUSH1 0x1 PUSH1 0x2 DUP9 MUL ADD DUP9 SSTORE POP POP POP JUMPDEST POP POP POP POP POP POP JUMP JUMPDEST PUSH32 0x496E76616C696420496E64657800000000000000000000000000000000000000 PUSH1 0x0 DUP3 ADD MSTORE POP JUMP JUMPDEST PUSH1 0x0 PUSH2 0xBB2 PUSH1 0xD DUP4 PUSH2 0x684 JUMP JUMPDEST SWAP2 POP PUSH2 0xBBD DUP3 PUSH2 0xB7C JUMP JUMPDEST PUSH1 0x20 DUP3 ADD SWAP1 POP SWAP2 SWAP1 POP JUMP JUMPDEST PUSH1 0x0 PUSH1 0x20 DUP3 ADD SWAP1 POP DUP2 DUP2 SUB PUSH1 0x0 DUP4 ADD MSTORE PUSH2 0xBE1 DUP2 PUSH2 0xBA5 JUMP JUMPDEST SWAP1 POP SWAP2 SWAP1 POP JUMP JUMPDEST PUSH32 0x4E487B7100000000000000000000000000000000000000000000000000000000 PUSH1 0x0 MSTORE PUSH1 0x11 PUSH1 0x4 MSTORE PUSH1 0x24 PUSH1 0x0 REVERT JUMPDEST PUSH1 0x0 PUSH2 0xC22 DUP3 PUSH2 0x509 JUMP JUMPDEST SWAP2 POP PUSH2 0xC2D DUP4 PUSH2 0x509 JUMP JUMPDEST SWAP3 POP DUP3 DUP3 SUB SWAP1 POP DUP2 DUP2 GT ISZERO PUSH2 0xC45 JUMPI PUSH2 0xC44 PUSH2 0xBE8 JUMP JUMPDEST JUMPDEST SWAP3 SWAP2 POP POP JUMP JUMPDEST PUSH32 0x4E487B7100000000000000000000000000000000000000000000000000000000 PUSH1 0x0 MSTORE PUSH1 0x32 PUSH1 0x4 MSTORE PUSH1 0x24 PUSH1 0x0 REVERT INVALID LOG2 PUSH5 0x6970667358 0x22 SLT KECCAK256 BALANCE 0xB3 0xD8 CHAINID 0xE4 COINBASE 0xF9 PUSH18 0x2E0A7D3A29AA3EA88D8033425DD08F43C2A1 CHAINID 0xAA 0xB5 0x5D 0xCE PUSH16 0x64736F6C634300081200330000000000 "
				},
				"gasEstimates": {
					"creation": {
						"codeDepositCost": "649600",
						"executionCost": "683",
						"totalCost": "650283"
					},
					"external": {
						"getAll_student()": "infinite",
						"getstudent(uint256)": "infinite",
						"s1(uint256)": "infinite",
						"setStudent(string,uint256)": "infinite"
					}
				},
				"methodIdentifiers": {
					"getAll_student()": "1ecdd9a0",
					"getstudent(uint256)": "b0f3bdc2",
					"s1(uint256)": "448a8e1e",
					"setStudent(string,uint256)": "9b4d52dd"
				}
			},
			"storageLayout": {
				"storage": [
					{
						"astId": 10,
						"contract": "tp/tp2.sol:StudentData",
						"label": "s1",
						"offset": 0,
						"slot": "0",
						"type": "t_array(t_struct(Student)6_storage)dyn_storage"
					}
				],
				"types": {
					"t_array(t_struct(Student)6_storage)dyn_storage": {
						"base": "t_struct(Student)6_storage",
						"encoding": "dynamic_array",
						"label": "struct StudentData.Student[]",
						"numberOfBytes": "32"
					},
					"t_string_storage": {
						"encoding": "bytes",
						"label": "string",
						"numberOfBytes": "32"
					},
					"t_struct(Student)6_storage": {
						"encoding": "inplace",
						"label": "struct StudentData.Student",
						"members": [
							{
								"astId": 3,
								"contract": "tp/tp2.sol:StudentData",
								"label": "name",
								"offset": 0,
								"slot": "0",
								"type": "t_string_storage"
							},
							{
								"astId": 5,
								"contract": "tp/tp2.sol:StudentData",
								"label": "age",
								"offset": 0,
								"slot": "1",
								"type": "t_uint256"
							}
						],
						"numberOfBytes": "64"
					},
					"t_uint256": {
						"encoding": "inplace",
						"label": "uint256",
						"numberOfBytes": "32"
					}
				}
			},
			"userdoc": {
				"kind": "user",
				"methods": {},
				"version": 1
			}
		}
	}
}