{
	"tpppp.sol": {
		"Counter": {
			"abi": [
				{
					"inputs": [],
					"name": "count",
					"outputs": [
						{
							"internalType": "uint256",
							"name": "",
							"type": "uint256"
						}
					],
					"stateMutability": "view",
					"type": "function"
				},
				{
					"inputs": [],
					"name": "decrement",
					"outputs": [],
					"stateMutability": "nonpayable",
					"type": "function"
				},
				{
					"inputs": [],
					"name": "getCount",
					"outputs": [
						{
							"internalType": "uint256",
							"name": "",
							"type": "uint256"
						}
					],
					"stateMutability": "view",
					"type": "function"
				},
				{
					"inputs": [],
					"name": "increment",
					"outputs": [],
					"stateMutability": "nonpayable",
					"type": "function"
				}
			],
			"devdoc": {
				"kind": "dev",
				"methods": {},
				"version": 1
			},
			"evm": {
				"assembly": "    /* \"tpppp.sol\":60:374  contract Counter {... */\n  mstore(0x40, 0x80)\n    /* \"tpppp.sol\":105:106  0 */\n  0x00\n    /* \"tpppp.sol\":85:106  uint public count = 0 */\n  dup1\n  sstore\n    /* \"tpppp.sol\":60:374  contract Counter {... */\n  callvalue\n  dup1\n  iszero\n  tag_1\n  jumpi\n  0x00\n  dup1\n  revert\ntag_1:\n  pop\n  dataSize(sub_0)\n  dup1\n  dataOffset(sub_0)\n  0x00\n  codecopy\n  0x00\n  return\nstop\n\nsub_0: assembly {\n        /* \"tpppp.sol\":60:374  contract Counter {... */\n      mstore(0x40, 0x80)\n      callvalue\n      dup1\n      iszero\n      tag_1\n      jumpi\n      0x00\n      dup1\n      revert\n    tag_1:\n      pop\n      jumpi(tag_2, lt(calldatasize, 0x04))\n      shr(0xe0, calldataload(0x00))\n      dup1\n      0x06661abd\n      eq\n      tag_3\n      jumpi\n      dup1\n      0x2baeceb7\n      eq\n      tag_4\n      jumpi\n      dup1\n      0xa87d942c\n      eq\n      tag_5\n      jumpi\n      dup1\n      0xd09de08a\n      eq\n      tag_6\n      jumpi\n    tag_2:\n      0x00\n      dup1\n      revert\n        /* \"tpppp.sol\":85:106  uint public count = 0 */\n    tag_3:\n      tag_7\n      tag_8\n      jump\t// in\n    tag_7:\n      mload(0x40)\n      tag_9\n      swap2\n      swap1\n      tag_10\n      jump\t// in\n    tag_9:\n      mload(0x40)\n      dup1\n      swap2\n      sub\n      swap1\n      return\n        /* \"tpppp.sol\":183:292  function decrement() public {... */\n    tag_4:\n      tag_11\n      tag_12\n      jump\t// in\n    tag_11:\n      stop\n        /* \"tpppp.sol\":297:371  function getCount() public view returns(uint){... */\n    tag_5:\n      tag_13\n      tag_14\n      jump\t// in\n    tag_13:\n      mload(0x40)\n      tag_15\n      swap2\n      swap1\n      tag_10\n      jump\t// in\n    tag_15:\n      mload(0x40)\n      dup1\n      swap2\n      sub\n      swap1\n      return\n        /* \"tpppp.sol\":114:176  function increment() public {... */\n    tag_6:\n      tag_16\n      tag_17\n      jump\t// in\n    tag_16:\n      stop\n        /* \"tpppp.sol\":85:106  uint public count = 0 */\n    tag_8:\n      sload(0x00)\n      dup2\n      jump\t// out\n        /* \"tpppp.sol\":183:292  function decrement() public {... */\n    tag_12:\n        /* \"tpppp.sol\":233:234  0 */\n      0x00\n        /* \"tpppp.sol\":225:230  count */\n      dup1\n      sload\n        /* \"tpppp.sol\":225:234  count > 0 */\n      gt\n        /* \"tpppp.sol\":217:265  require(count > 0, \"Counter cannot be negative\") */\n      tag_19\n      jumpi\n      mload(0x40)\n      0x08c379a000000000000000000000000000000000000000000000000000000000\n      dup2\n      mstore\n      0x04\n      add\n      tag_20\n      swap1\n      tag_21\n      jump\t// in\n    tag_20:\n      mload(0x40)\n      dup1\n      swap2\n      sub\n      swap1\n      revert\n    tag_19:\n        /* \"tpppp.sol\":287:288  1 */\n      0x01\n        /* \"tpppp.sol\":279:284  count */\n      sload(0x00)\n        /* \"tpppp.sol\":279:288  count - 1 */\n      tag_22\n      swap2\n      swap1\n      tag_23\n      jump\t// in\n    tag_22:\n        /* \"tpppp.sol\":271:276  count */\n      0x00\n        /* \"tpppp.sol\":271:288  count = count - 1 */\n      dup2\n      swap1\n      sstore\n      pop\n        /* \"tpppp.sol\":183:292  function decrement() public {... */\n      jump\t// out\n        /* \"tpppp.sol\":297:371  function getCount() public view returns(uint){... */\n    tag_14:\n        /* \"tpppp.sol\":337:341  uint */\n      0x00\n        /* \"tpppp.sol\":359:364  count */\n      dup1\n      sload\n        /* \"tpppp.sol\":352:364  return count */\n      swap1\n      pop\n        /* \"tpppp.sol\":297:371  function getCount() public view returns(uint){... */\n      swap1\n      jump\t// out\n        /* \"tpppp.sol\":114:176  function increment() public {... */\n    tag_17:\n        /* \"tpppp.sol\":168:169  1 */\n      0x01\n        /* \"tpppp.sol\":160:165  count */\n      sload(0x00)\n        /* \"tpppp.sol\":160:169  count + 1 */\n      tag_26\n      swap2\n      swap1\n      tag_27\n      jump\t// in\n    tag_26:\n        /* \"tpppp.sol\":152:157  count */\n      0x00\n        /* \"tpppp.sol\":152:169  count = count + 1 */\n      dup2\n      swap1\n      sstore\n      pop\n        /* \"tpppp.sol\":114:176  function increment() public {... */\n      jump\t// out\n        /* \"#utility.yul\":7:84   */\n    tag_28:\n        /* \"#utility.yul\":44:51   */\n      0x00\n        /* \"#utility.yul\":73:78   */\n      dup2\n        /* \"#utility.yul\":62:78   */\n      swap1\n      pop\n        /* \"#utility.yul\":7:84   */\n      swap2\n      swap1\n      pop\n      jump\t// out\n        /* \"#utility.yul\":90:208   */\n    tag_29:\n        /* \"#utility.yul\":177:201   */\n      tag_37\n        /* \"#utility.yul\":195:200   */\n      dup2\n        /* \"#utility.yul\":177:201   */\n      tag_28\n      jump\t// in\n    tag_37:\n        /* \"#utility.yul\":172:175   */\n      dup3\n        /* \"#utility.yul\":165:202   */\n      mstore\n        /* \"#utility.yul\":90:208   */\n      pop\n      pop\n      jump\t// out\n        /* \"#utility.yul\":214:436   */\n    tag_10:\n        /* \"#utility.yul\":307:311   */\n      0x00\n        /* \"#utility.yul\":345:347   */\n      0x20\n        /* \"#utility.yul\":334:343   */\n      dup3\n        /* \"#utility.yul\":330:348   */\n      add\n        /* \"#utility.yul\":322:348   */\n      swap1\n      pop\n        /* \"#utility.yul\":358:429   */\n      tag_39\n        /* \"#utility.yul\":426:427   */\n      0x00\n        /* \"#utility.yul\":415:424   */\n      dup4\n        /* \"#utility.yul\":411:428   */\n      add\n        /* \"#utility.yul\":402:408   */\n      dup5\n        /* \"#utility.yul\":358:429   */\n      tag_29\n      jump\t// in\n    tag_39:\n        /* \"#utility.yul\":214:436   */\n      swap3\n      swap2\n      pop\n      pop\n      jump\t// out\n        /* \"#utility.yul\":442:611   */\n    tag_30:\n        /* \"#utility.yul\":526:537   */\n      0x00\n        /* \"#utility.yul\":560:566   */\n      dup3\n        /* \"#utility.yul\":555:558   */\n      dup3\n        /* \"#utility.yul\":548:567   */\n      mstore\n        /* \"#utility.yul\":600:604   */\n      0x20\n        /* \"#utility.yul\":595:598   */\n      dup3\n        /* \"#utility.yul\":591:605   */\n      add\n        /* \"#utility.yul\":576:605   */\n      swap1\n      pop\n        /* \"#utility.yul\":442:611   */\n      swap3\n      swap2\n      pop\n      pop\n      jump\t// out\n        /* \"#utility.yul\":617:793   */\n    tag_31:\n        /* \"#utility.yul\":757:785   */\n      0x436f756e7465722063616e6e6f74206265206e65676174697665000000000000\n        /* \"#utility.yul\":753:754   */\n      0x00\n        /* \"#utility.yul\":745:751   */\n      dup3\n        /* \"#utility.yul\":741:755   */\n      add\n        /* \"#utility.yul\":734:786   */\n      mstore\n        /* \"#utility.yul\":617:793   */\n      pop\n      jump\t// out\n        /* \"#utility.yul\":799:1165   */\n    tag_32:\n        /* \"#utility.yul\":941:944   */\n      0x00\n        /* \"#utility.yul\":962:1029   */\n      tag_43\n        /* \"#utility.yul\":1026:1028   */\n      0x1a\n        /* \"#utility.yul\":1021:1024   */\n      dup4\n        /* \"#utility.yul\":962:1029   */\n      tag_30\n      jump\t// in\n    tag_43:\n        /* \"#utility.yul\":955:1029   */\n      swap2\n      pop\n        /* \"#utility.yul\":1038:1131   */\n      tag_44\n        /* \"#utility.yul\":1127:1130   */\n      dup3\n        /* \"#utility.yul\":1038:1131   */\n      tag_31\n      jump\t// in\n    tag_44:\n        /* \"#utility.yul\":1156:1158   */\n      0x20\n        /* \"#utility.yul\":1151:1154   */\n      dup3\n        /* \"#utility.yul\":1147:1159   */\n      add\n        /* \"#utility.yul\":1140:1159   */\n      swap1\n      pop\n        /* \"#utility.yul\":799:1165   */\n      swap2\n      swap1\n      pop\n      jump\t// out\n        /* \"#utility.yul\":1171:1590   */\n    tag_21:\n        /* \"#utility.yul\":1337:1341   */\n      0x00\n        /* \"#utility.yul\":1375:1377   */\n      0x20\n        /* \"#utility.yul\":1364:1373   */\n      dup3\n        /* \"#utility.yul\":1360:1378   */\n      add\n        /* \"#utility.yul\":1352:1378   */\n      swap1\n      pop\n        /* \"#utility.yul\":1424:1433   */\n      dup2\n        /* \"#utility.yul\":1418:1422   */\n      dup2\n        /* \"#utility.yul\":1414:1434   */\n      sub\n        /* \"#utility.yul\":1410:1411   */\n      0x00\n        /* \"#utility.yul\":1399:1408   */\n      dup4\n        /* \"#utility.yul\":1395:1412   */\n      add\n        /* \"#utility.yul\":1388:1435   */\n      mstore\n        /* \"#utility.yul\":1452:1583   */\n      tag_46\n        /* \"#utility.yul\":1578:1582   */\n      dup2\n        /* \"#utility.yul\":1452:1583   */\n      tag_32\n      jump\t// in\n    tag_46:\n        /* \"#utility.yul\":1444:1583   */\n      swap1\n      pop\n        /* \"#utility.yul\":1171:1590   */\n      swap2\n      swap1\n      pop\n      jump\t// out\n        /* \"#utility.yul\":1596:1776   */\n    tag_33:\n        /* \"#utility.yul\":1644:1721   */\n      0x4e487b7100000000000000000000000000000000000000000000000000000000\n        /* \"#utility.yul\":1641:1642   */\n      0x00\n        /* \"#utility.yul\":1634:1722   */\n      mstore\n        /* \"#utility.yul\":1741:1745   */\n      0x11\n        /* \"#utility.yul\":1738:1739   */\n      0x04\n        /* \"#utility.yul\":1731:1746   */\n      mstore\n        /* \"#utility.yul\":1765:1769   */\n      0x24\n        /* \"#utility.yul\":1762:1763   */\n      0x00\n        /* \"#utility.yul\":1755:1770   */\n      revert\n        /* \"#utility.yul\":1782:1976   */\n    tag_23:\n        /* \"#utility.yul\":1822:1826   */\n      0x00\n        /* \"#utility.yul\":1842:1862   */\n      tag_49\n        /* \"#utility.yul\":1860:1861   */\n      dup3\n        /* \"#utility.yul\":1842:1862   */\n      tag_28\n      jump\t// in\n    tag_49:\n        /* \"#utility.yul\":1837:1862   */\n      swap2\n      pop\n        /* \"#utility.yul\":1876:1896   */\n      tag_50\n        /* \"#utility.yul\":1894:1895   */\n      dup4\n        /* \"#utility.yul\":1876:1896   */\n      tag_28\n      jump\t// in\n    tag_50:\n        /* \"#utility.yul\":1871:1896   */\n      swap3\n      pop\n        /* \"#utility.yul\":1920:1921   */\n      dup3\n        /* \"#utility.yul\":1917:1918   */\n      dup3\n        /* \"#utility.yul\":1913:1922   */\n      sub\n        /* \"#utility.yul\":1905:1922   */\n      swap1\n      pop\n        /* \"#utility.yul\":1944:1945   */\n      dup2\n        /* \"#utility.yul\":1938:1942   */\n      dup2\n        /* \"#utility.yul\":1935:1946   */\n      gt\n        /* \"#utility.yul\":1932:1969   */\n      iszero\n      tag_51\n      jumpi\n        /* \"#utility.yul\":1949:1967   */\n      tag_52\n      tag_33\n      jump\t// in\n    tag_52:\n        /* \"#utility.yul\":1932:1969   */\n    tag_51:\n        /* \"#utility.yul\":1782:1976   */\n      swap3\n      swap2\n      pop\n      pop\n      jump\t// out\n        /* \"#utility.yul\":1982:2173   */\n    tag_27:\n        /* \"#utility.yul\":2022:2025   */\n      0x00\n        /* \"#utility.yul\":2041:2061   */\n      tag_54\n        /* \"#utility.yul\":2059:2060   */\n      dup3\n        /* \"#utility.yul\":2041:2061   */\n      tag_28\n      jump\t// in\n    tag_54:\n        /* \"#utility.yul\":2036:2061   */\n      swap2\n      pop\n        /* \"#utility.yul\":2075:2095   */\n      tag_55\n        /* \"#utility.yul\":2093:2094   */\n      dup4\n        /* \"#utility.yul\":2075:2095   */\n      tag_28\n      jump\t// in\n    tag_55:\n        /* \"#utility.yul\":2070:2095   */\n      swap3\n      pop\n        /* \"#utility.yul\":2118:2119   */\n      dup3\n        /* \"#utility.yul\":2115:2116   */\n      dup3\n        /* \"#utility.yul\":2111:2120   */\n      add\n        /* \"#utility.yul\":2104:2120   */\n      swap1\n      pop\n        /* \"#utility.yul\":2139:2142   */\n      dup1\n        /* \"#utility.yul\":2136:2137   */\n      dup3\n        /* \"#utility.yul\":2133:2143   */\n      gt\n        /* \"#utility.yul\":2130:2166   */\n      iszero\n      tag_56\n      jumpi\n        /* \"#utility.yul\":2146:2164   */\n      tag_57\n      tag_33\n      jump\t// in\n    tag_57:\n        /* \"#utility.yul\":2130:2166   */\n    tag_56:\n        /* \"#utility.yul\":1982:2173   */\n      swap3\n      swap2\n      pop\n      pop\n      jump\t// out\n\n    auxdata: 0xa264697066735822122090b0285245ebe85fb03848b3d7627dd2a6ce82532d935b87b0dd9e28107128bb64736f6c63430008120033\n}\n",
				"bytecode": {
					"linkReferences": {},
					"object": "60806040526000805534801561001457600080fd5b506102a0806100246000396000f3fe608060405234801561001057600080fd5b506004361061004c5760003560e01c806306661abd146100515780632baeceb71461006f578063a87d942c14610079578063d09de08a14610097575b600080fd5b6100596100a1565b604051610066919061013b565b60405180910390f35b6100776100a7565b005b610081610102565b60405161008e919061013b565b60405180910390f35b61009f61010b565b005b60005481565b60008054116100eb576040517f08c379a00000000000000000000000000000000000000000000000000000000081526004016100e2906101b3565b60405180910390fd5b60016000546100fa9190610202565b600081905550565b60008054905090565b600160005461011a9190610236565b600081905550565b6000819050919050565b61013581610122565b82525050565b6000602082019050610150600083018461012c565b92915050565b600082825260208201905092915050565b7f436f756e7465722063616e6e6f74206265206e65676174697665000000000000600082015250565b600061019d601a83610156565b91506101a882610167565b602082019050919050565b600060208201905081810360008301526101cc81610190565b9050919050565b7f4e487b7100000000000000000000000000000000000000000000000000000000600052601160045260246000fd5b600061020d82610122565b915061021883610122565b92508282039050818111156102305761022f6101d3565b5b92915050565b600061024182610122565b915061024c83610122565b9250828201905080821115610264576102636101d3565b5b9291505056fea264697066735822122090b0285245ebe85fb03848b3d7627dd2a6ce82532d935b87b0dd9e28107128bb64736f6c63430008120033",
					"opcodes": "PUSH1 0x80 PUSH1 0x40 MSTORE PUSH1 0x0 DUP1 SSTORE CALLVALUE DUP1 ISZERO PUSH2 0x14 JUMPI PUSH1 0x0 DUP1 REVERT JUMPDEST POP PUSH2 0x2A0 DUP1 PUSH2 0x24 PUSH1 0x0 CODECOPY PUSH1 0x0 RETURN INVALID PUSH1 0x80 PUSH1 0x40 MSTORE CALLVALUE DUP1 ISZERO PUSH2 0x10 JUMPI PUSH1 0x0 DUP1 REVERT JUMPDEST POP PUSH1 0x4 CALLDATASIZE LT PUSH2 0x4C JUMPI PUSH1 0x0 CALLDATALOAD PUSH1 0xE0 SHR DUP1 PUSH4 0x6661ABD EQ PUSH2 0x51 JUMPI DUP1 PUSH4 0x2BAECEB7 EQ PUSH2 0x6F JUMPI DUP1 PUSH4 0xA87D942C EQ PUSH2 0x79 JUMPI DUP1 PUSH4 0xD09DE08A EQ PUSH2 0x97 JUMPI JUMPDEST PUSH1 0x0 DUP1 REVERT JUMPDEST PUSH2 0x59 PUSH2 0xA1 JUMP JUMPDEST PUSH1 0x40 MLOAD PUSH2 0x66 SWAP2 SWAP1 PUSH2 0x13B JUMP JUMPDEST PUSH1 0x40 MLOAD DUP1 SWAP2 SUB SWAP1 RETURN JUMPDEST PUSH2 0x77 PUSH2 0xA7 JUMP JUMPDEST STOP JUMPDEST PUSH2 0x81 PUSH2 0x102 JUMP JUMPDEST PUSH1 0x40 MLOAD PUSH2 0x8E SWAP2 SWAP1 PUSH2 0x13B JUMP JUMPDEST PUSH1 0x40 MLOAD DUP1 SWAP2 SUB SWAP1 RETURN JUMPDEST PUSH2 0x9F PUSH2 0x10B JUMP JUMPDEST STOP JUMPDEST PUSH1 0x0 SLOAD DUP2 JUMP JUMPDEST PUSH1 0x0 DUP1 SLOAD GT PUSH2 0xEB JUMPI PUSH1 0x40 MLOAD PUSH32 0x8C379A000000000000000000000000000000000000000000000000000000000 DUP2 MSTORE PUSH1 0x4 ADD PUSH2 0xE2 SWAP1 PUSH2 0x1B3 JUMP JUMPDEST PUSH1 0x40 MLOAD DUP1 SWAP2 SUB SWAP1 REVERT JUMPDEST PUSH1 0x1 PUSH1 0x0 SLOAD PUSH2 0xFA SWAP2 SWAP1 PUSH2 0x202 JUMP JUMPDEST PUSH1 0x0 DUP2 SWAP1 SSTORE POP JUMP JUMPDEST PUSH1 0x0 DUP1 SLOAD SWAP1 POP SWAP1 JUMP JUMPDEST PUSH1 0x1 PUSH1 0x0 SLOAD PUSH2 0x11A SWAP2 SWAP1 PUSH2 0x236 JUMP JUMPDEST PUSH1 0x0 DUP2 SWAP1 SSTORE POP JUMP JUMPDEST PUSH1 0x0 DUP2 SWAP1 POP SWAP2 SWAP1 POP JUMP JUMPDEST PUSH2 0x135 DUP2 PUSH2 0x122 JUMP JUMPDEST DUP3 MSTORE POP POP JUMP JUMPDEST PUSH1 0x0 PUSH1 0x20 DUP3 ADD SWAP1 POP PUSH2 0x150 PUSH1 0x0 DUP4 ADD DUP5 PUSH2 0x12C JUMP JUMPDEST SWAP3 SWAP2 POP POP JUMP JUMPDEST PUSH1 0x0 DUP3 DUP3 MSTORE PUSH1 0x20 DUP3 ADD SWAP1 POP SWAP3 SWAP2 POP POP JUMP JUMPDEST PUSH32 0x436F756E7465722063616E6E6F74206265206E65676174697665000000000000 PUSH1 0x0 DUP3 ADD MSTORE POP JUMP JUMPDEST PUSH1 0x0 PUSH2 0x19D PUSH1 0x1A DUP4 PUSH2 0x156 JUMP JUMPDEST SWAP2 POP PUSH2 0x1A8 DUP3 PUSH2 0x167 JUMP JUMPDEST PUSH1 0x20 DUP3 ADD SWAP1 POP SWAP2 SWAP1 POP JUMP JUMPDEST PUSH1 0x0 PUSH1 0x20 DUP3 ADD SWAP1 POP DUP2 DUP2 SUB PUSH1 0x0 DUP4 ADD MSTORE PUSH2 0x1CC DUP2 PUSH2 0x190 JUMP JUMPDEST SWAP1 POP SWAP2 SWAP1 POP JUMP JUMPDEST PUSH32 0x4E487B7100000000000000000000000000000000000000000000000000000000 PUSH1 0x0 MSTORE PUSH1 0x11 PUSH1 0x4 MSTORE PUSH1 0x24 PUSH1 0x0 REVERT JUMPDEST PUSH1 0x0 PUSH2 0x20D DUP3 PUSH2 0x122 JUMP JUMPDEST SWAP2 POP PUSH2 0x218 DUP4 PUSH2 0x122 JUMP JUMPDEST SWAP3 POP DUP3 DUP3 SUB SWAP1 POP DUP2 DUP2 GT ISZERO PUSH2 0x230 JUMPI PUSH2 0x22F PUSH2 0x1D3 JUMP JUMPDEST JUMPDEST SWAP3 SWAP2 POP POP JUMP JUMPDEST PUSH1 0x0 PUSH2 0x241 DUP3 PUSH2 0x122 JUMP JUMPDEST SWAP2 POP PUSH2 0x24C DUP4 PUSH2 0x122 JUMP JUMPDEST SWAP3 POP DUP3 DUP3 ADD SWAP1 POP DUP1 DUP3 GT ISZERO PUSH2 0x264 JUMPI PUSH2 0x263 PUSH2 0x1D3 JUMP JUMPDEST JUMPDEST SWAP3 SWAP2 POP POP JUMP INVALID LOG2 PUSH5 0x6970667358 0x22 SLT KECCAK256 SWAP1 0xB0 0x28 MSTORE GASLIMIT 0xEB 0xE8 0x5F 0xB0 CODESIZE BASEFEE 0xB3 0xD7 PUSH3 0x7DD2A6 0xCE DUP3 MSTORE8 0x2D SWAP4 JUMPDEST DUP8 0xB0 0xDD SWAP15 0x28 LT PUSH18 0x28BB64736F6C634300081200330000000000 "
				},
				"gasEstimates": {
					"creation": {
						"codeDepositCost": "134400",
						"executionCost": "5183",
						"totalCost": "139583"
					},
					"external": {
						"count()": "2407",
						"decrement()": "infinite",
						"getCount()": "2459",
						"increment()": "infinite"
					}
				},
				"methodIdentifiers": {
					"count()": "06661abd",
					"decrement()": "2baeceb7",
					"getCount()": "a87d942c",
					"increment()": "d09de08a"
				}
			},
			"storageLayout": {
				"storage": [
					{
						"astId": 4,
						"contract": "tpppp.sol:Counter",
						"label": "count",
						"offset": 0,
						"slot": "0",
						"type": "t_uint256"
					}
				],
				"types": {
					"t_uint256": {
						"encoding": "inplace",
						"label": "uint256",
						"numberOfBytes": "32"
					}
				}
			},
			"userdoc": {
				"kind": "user",
				"methods": {},
				"version": 1
			}
		}
	}
}