{
	"multisig.sol": {
		"MultiSig": {
			"abi": [
				{
					"inputs": [
						{
							"internalType": "address[]",
							"name": "_owners",
							"type": "address[]"
						},
						{
							"internalType": "uint256",
							"name": "_numConfirmationsRequired",
							"type": "uint256"
						}
					],
					"stateMutability": "nonpayable",
					"type": "constructor"
				},
				{
					"anonymous": false,
					"inputs": [
						{
							"indexed": false,
							"internalType": "uint256",
							"name": "transactionId",
							"type": "uint256"
						}
					],
					"name": "TransactionConfirmed",
					"type": "event"
				},
				{
					"anonymous": false,
					"inputs": [
						{
							"indexed": false,
							"internalType": "uint256",
							"name": "transactionId",
							"type": "uint256"
						}
					],
					"name": "TransactionExecuted",
					"type": "event"
				},
				{
					"anonymous": false,
					"inputs": [
						{
							"indexed": false,
							"internalType": "uint256",
							"name": "transactionId",
							"type": "uint256"
						},
						{
							"indexed": false,
							"internalType": "address",
							"name": "sender",
							"type": "address"
						},
						{
							"indexed": false,
							"internalType": "address",
							"name": "receiver",
							"type": "address"
						},
						{
							"indexed": false,
							"internalType": "uint256",
							"name": "amount",
							"type": "uint256"
						}
					],
					"name": "TransactionSubmitted",
					"type": "event"
				},
				{
					"inputs": [
						{
							"internalType": "uint256",
							"name": "_transactionId",
							"type": "uint256"
						}
					],
					"name": "confirmTransaction",
					"outputs": [],
					"stateMutability": "nonpayable",
					"type": "function"
				},
				{
					"inputs": [
						{
							"internalType": "uint256",
							"name": "_transactionId",
							"type": "uint256"
						}
					],
					"name": "executeTransaction",
					"outputs": [],
					"stateMutability": "payable",
					"type": "function"
				},
				{
					"inputs": [],
					"name": "numConfirmationsRequired",
					"outputs": [
						{
							"internalType": "uint256",
							"name": "",
							"type": "uint256"
						}
					],
					"stateMutability": "view",
					"type": "function"
				},
				{
					"inputs": [
						{
							"internalType": "uint256",
							"name": "",
							"type": "uint256"
						}
					],
					"name": "owners",
					"outputs": [
						{
							"internalType": "address",
							"name": "",
							"type": "address"
						}
					],
					"stateMutability": "view",
					"type": "function"
				},
				{
					"inputs": [
						{
							"internalType": "address",
							"name": "_to",
							"type": "address"
						}
					],
					"name": "submitTransaction",
					"outputs": [],
					"stateMutability": "payable",
					"type": "function"
				},
				{
					"inputs": [
						{
							"internalType": "uint256",
							"name": "",
							"type": "uint256"
						}
					],
					"name": "transactions",
					"outputs": [
						{
							"internalType": "address",
							"name": "to",
							"type": "address"
						},
						{
							"internalType": "uint256",
							"name": "value",
							"type": "uint256"
						},
						{
							"internalType": "bool",
							"name": "executed",
							"type": "bool"
						}
					],
					"stateMutability": "view",
					"type": "function"
				}
			],
			"devdoc": {
				"kind": "dev",
				"methods": {},
				"version": 1
			},
			"evm": {
				"assembly": "    /* \"multisig.sol\":60:2977  contract MultiSig {... */\n  mstore(0x40, 0x80)\n    /* \"multisig.sol\":568:1098  constructor(address[] memory _owners,uint _numConfirmationsRequired){... */\n  callvalue\n  dup1\n  iszero\n  tag_1\n  jumpi\n  revert(0x00, 0x00)\ntag_1:\n  pop\n  mload(0x40)\n  sub(codesize, bytecodeSize)\n  dup1\n  bytecodeSize\n  dup4\n  codecopy\n  dup2\n  dup2\n  add\n  0x40\n  mstore\n  dup2\n  add\n  swap1\n  tag_2\n  swap2\n  swap1\n  tag_3\n  jump\t// in\ntag_2:\n    /* \"multisig.sol\":670:671  1 */\n  0x01\n    /* \"multisig.sol\":655:662  _owners */\n  dup3\n    /* \"multisig.sol\":655:669  _owners.length */\n  mload\n    /* \"multisig.sol\":655:671  _owners.length>1 */\n  gt\n    /* \"multisig.sol\":647:713  require(_owners.length>1,\"Onwers Required Must Be Greater than 1\") */\n  tag_6\n  jumpi\n  mload(0x40)\n  0x08c379a000000000000000000000000000000000000000000000000000000000\n  dup2\n  mstore\n  0x04\n  add\n  tag_7\n  swap1\n  tag_8\n  jump\t// in\ntag_7:\n  mload(0x40)\n  dup1\n  swap2\n  sub\n  swap1\n  revert\ntag_6:\n    /* \"multisig.sol\":759:760  2 */\n  0x02\n    /* \"multisig.sol\":732:757  _numConfirmationsRequired */\n  dup2\n    /* \"multisig.sol\":732:760  _numConfirmationsRequired>=2 */\n  lt\n  iszero\n    /* \"multisig.sol\":732:805  _numConfirmationsRequired>=2 && _numConfirmationsRequired<=_owners.length */\n  dup1\n  iszero\n  tag_9\n  jumpi\n  pop\n    /* \"multisig.sol\":791:798  _owners */\n  dup2\n    /* \"multisig.sol\":791:805  _owners.length */\n  mload\n    /* \"multisig.sol\":764:789  _numConfirmationsRequired */\n  dup2\n    /* \"multisig.sol\":764:805  _numConfirmationsRequired<=_owners.length */\n  gt\n  iszero\n    /* \"multisig.sol\":732:805  _numConfirmationsRequired>=2 && _numConfirmationsRequired<=_owners.length */\ntag_9:\n    /* \"multisig.sol\":724:871  require(_numConfirmationsRequired>=2 && _numConfirmationsRequired<=_owners.length,\"Num of confirmations are not in sync with the number of owners\") */\n  tag_10\n  jumpi\n  mload(0x40)\n  0x08c379a000000000000000000000000000000000000000000000000000000000\n  dup2\n  mstore\n  0x04\n  add\n  tag_11\n  swap1\n  tag_12\n  jump\t// in\ntag_11:\n  mload(0x40)\n  dup1\n  swap2\n  sub\n  swap1\n  revert\ntag_10:\n    /* \"multisig.sol\":888:894  uint i */\n  0x00\n    /* \"multisig.sol\":895:896  0 */\n  0x00\n    /* \"multisig.sol\":888:896  uint i=0 */\n  swap1\n  pop\n    /* \"multisig.sol\":884:1030  for(uint i=0;i<_owners.length;i++){... */\ntag_13:\n    /* \"multisig.sol\":899:906  _owners */\n  dup3\n    /* \"multisig.sol\":899:913  _owners.length */\n  mload\n    /* \"multisig.sol\":897:898  i */\n  dup2\n    /* \"multisig.sol\":897:913  i<_owners.length */\n  lt\n    /* \"multisig.sol\":884:1030  for(uint i=0;i<_owners.length;i++){... */\n  iszero\n  tag_14\n  jumpi\n    /* \"multisig.sol\":961:962  0 */\n  0x00\n    /* \"multisig.sol\":941:963  _owners[i]!=address(0) */\n  0xffffffffffffffffffffffffffffffffffffffff\n  and\n    /* \"multisig.sol\":941:948  _owners */\n  dup4\n    /* \"multisig.sol\":949:950  i */\n  dup3\n    /* \"multisig.sol\":941:951  _owners[i] */\n  dup2\n  mload\n  dup2\n  lt\n  tag_16\n  jumpi\n  tag_17\n  tag_18\n  jump\t// in\ntag_17:\ntag_16:\n  0x20\n  mul\n  0x20\n  add\n  add\n  mload\n    /* \"multisig.sol\":941:963  _owners[i]!=address(0) */\n  0xffffffffffffffffffffffffffffffffffffffff\n  and\n  sub\n    /* \"multisig.sol\":933:980  require(_owners[i]!=address(0),\"Invalid Owner\") */\n  tag_19\n  jumpi\n  mload(0x40)\n  0x08c379a000000000000000000000000000000000000000000000000000000000\n  dup2\n  mstore\n  0x04\n  add\n  tag_20\n  swap1\n  tag_21\n  jump\t// in\ntag_20:\n  mload(0x40)\n  dup1\n  swap2\n  sub\n  swap1\n  revert\ntag_19:\n    /* \"multisig.sol\":995:1001  owners */\n  0x00\n    /* \"multisig.sol\":1007:1014  _owners */\n  dup4\n    /* \"multisig.sol\":1015:1016  i */\n  dup3\n    /* \"multisig.sol\":1007:1017  _owners[i] */\n  dup2\n  mload\n  dup2\n  lt\n  tag_22\n  jumpi\n  tag_23\n  tag_18\n  jump\t// in\ntag_23:\ntag_22:\n  0x20\n  mul\n  0x20\n  add\n  add\n  mload\n    /* \"multisig.sol\":995:1018  owners.push(_owners[i]) */\n  swap1\n  dup1\n  0x01\n  dup2\n  sload\n  add\n  dup1\n  dup3\n  sstore\n  dup1\n  swap2\n  pop\n  pop\n  0x01\n  swap1\n  sub\n  swap1\n  0x00\n  mstore\n  keccak256(0x00, 0x20)\n  add\n  0x00\n  swap1\n  swap2\n  swap1\n  swap2\n  swap1\n  swap2\n  0x0100\n  exp\n  dup2\n  sload\n  dup2\n  0xffffffffffffffffffffffffffffffffffffffff\n  mul\n  not\n  and\n  swap1\n  dup4\n  0xffffffffffffffffffffffffffffffffffffffff\n  and\n  mul\n  or\n  swap1\n  sstore\n  pop\n    /* \"multisig.sol\":914:917  i++ */\n  dup1\n  dup1\n  0x01\n  add\n  swap2\n  pop\n  pop\n    /* \"multisig.sol\":884:1030  for(uint i=0;i<_owners.length;i++){... */\n  jump(tag_13)\ntag_14:\n  pop\n    /* \"multisig.sol\":1065:1090  _numConfirmationsRequired */\n  dup1\n    /* \"multisig.sol\":1040:1064  numConfirmationsRequired */\n  0x01\n    /* \"multisig.sol\":1040:1090  numConfirmationsRequired=_numConfirmationsRequired */\n  dup2\n  swap1\n  sstore\n  pop\n    /* \"multisig.sol\":568:1098  constructor(address[] memory _owners,uint _numConfirmationsRequired){... */\n  pop\n  pop\n    /* \"multisig.sol\":60:2977  contract MultiSig {... */\n  jump(tag_25)\n    /* \"#utility.yul\":7:82   */\ntag_26:\n    /* \"#utility.yul\":40:46   */\n  0x00\n    /* \"#utility.yul\":73:75   */\n  0x40\n    /* \"#utility.yul\":67:76   */\n  mload\n    /* \"#utility.yul\":57:76   */\n  swap1\n  pop\n    /* \"#utility.yul\":7:82   */\n  swap1\n  jump\t// out\n    /* \"#utility.yul\":88:205   */\ntag_27:\n    /* \"#utility.yul\":197:198   */\n  0x00\n    /* \"#utility.yul\":194:195   */\n  0x00\n    /* \"#utility.yul\":187:199   */\n  revert\n    /* \"#utility.yul\":211:328   */\ntag_28:\n    /* \"#utility.yul\":320:321   */\n  0x00\n    /* \"#utility.yul\":317:318   */\n  0x00\n    /* \"#utility.yul\":310:322   */\n  revert\n    /* \"#utility.yul\":334:451   */\ntag_29:\n    /* \"#utility.yul\":443:444   */\n  0x00\n    /* \"#utility.yul\":440:441   */\n  0x00\n    /* \"#utility.yul\":433:445   */\n  revert\n    /* \"#utility.yul\":457:559   */\ntag_30:\n    /* \"#utility.yul\":498:504   */\n  0x00\n    /* \"#utility.yul\":549:551   */\n  0x1f\n    /* \"#utility.yul\":545:552   */\n  not\n    /* \"#utility.yul\":540:542   */\n  0x1f\n    /* \"#utility.yul\":533:538   */\n  dup4\n    /* \"#utility.yul\":529:543   */\n  add\n    /* \"#utility.yul\":525:553   */\n  and\n    /* \"#utility.yul\":515:553   */\n  swap1\n  pop\n    /* \"#utility.yul\":457:559   */\n  swap2\n  swap1\n  pop\n  jump\t// out\n    /* \"#utility.yul\":565:745   */\ntag_31:\n    /* \"#utility.yul\":613:690   */\n  0x4e487b7100000000000000000000000000000000000000000000000000000000\n    /* \"#utility.yul\":610:611   */\n  0x00\n    /* \"#utility.yul\":603:691   */\n  mstore\n    /* \"#utility.yul\":710:714   */\n  0x41\n    /* \"#utility.yul\":707:708   */\n  0x04\n    /* \"#utility.yul\":700:715   */\n  mstore\n    /* \"#utility.yul\":734:738   */\n  0x24\n    /* \"#utility.yul\":731:732   */\n  0x00\n    /* \"#utility.yul\":724:739   */\n  revert\n    /* \"#utility.yul\":751:1032   */\ntag_32:\n    /* \"#utility.yul\":834:861   */\n  tag_60\n    /* \"#utility.yul\":856:860   */\n  dup3\n    /* \"#utility.yul\":834:861   */\n  tag_30\n  jump\t// in\ntag_60:\n    /* \"#utility.yul\":826:832   */\n  dup2\n    /* \"#utility.yul\":822:862   */\n  add\n    /* \"#utility.yul\":964:970   */\n  dup2\n    /* \"#utility.yul\":952:962   */\n  dup2\n    /* \"#utility.yul\":949:971   */\n  lt\n    /* \"#utility.yul\":928:946   */\n  0xffffffffffffffff\n    /* \"#utility.yul\":916:926   */\n  dup3\n    /* \"#utility.yul\":913:947   */\n  gt\n    /* \"#utility.yul\":910:972   */\n  or\n    /* \"#utility.yul\":907:995   */\n  iszero\n  tag_61\n  jumpi\n    /* \"#utility.yul\":975:993   */\n  tag_62\n  tag_31\n  jump\t// in\ntag_62:\n    /* \"#utility.yul\":907:995   */\ntag_61:\n    /* \"#utility.yul\":1015:1025   */\n  dup1\n    /* \"#utility.yul\":1011:1013   */\n  0x40\n    /* \"#utility.yul\":1004:1026   */\n  mstore\n    /* \"#utility.yul\":794:1032   */\n  pop\n    /* \"#utility.yul\":751:1032   */\n  pop\n  pop\n  jump\t// out\n    /* \"#utility.yul\":1038:1167   */\ntag_33:\n    /* \"#utility.yul\":1072:1078   */\n  0x00\n    /* \"#utility.yul\":1099:1119   */\n  tag_64\n  tag_26\n  jump\t// in\ntag_64:\n    /* \"#utility.yul\":1089:1119   */\n  swap1\n  pop\n    /* \"#utility.yul\":1128:1161   */\n  tag_65\n    /* \"#utility.yul\":1156:1160   */\n  dup3\n    /* \"#utility.yul\":1148:1154   */\n  dup3\n    /* \"#utility.yul\":1128:1161   */\n  tag_32\n  jump\t// in\ntag_65:\n    /* \"#utility.yul\":1038:1167   */\n  swap2\n  swap1\n  pop\n  jump\t// out\n    /* \"#utility.yul\":1173:1484   */\ntag_34:\n    /* \"#utility.yul\":1250:1254   */\n  0x00\n    /* \"#utility.yul\":1340:1358   */\n  0xffffffffffffffff\n    /* \"#utility.yul\":1332:1338   */\n  dup3\n    /* \"#utility.yul\":1329:1359   */\n  gt\n    /* \"#utility.yul\":1326:1382   */\n  iszero\n  tag_67\n  jumpi\n    /* \"#utility.yul\":1362:1380   */\n  tag_68\n  tag_31\n  jump\t// in\ntag_68:\n    /* \"#utility.yul\":1326:1382   */\ntag_67:\n    /* \"#utility.yul\":1412:1416   */\n  0x20\n    /* \"#utility.yul\":1404:1410   */\n  dup3\n    /* \"#utility.yul\":1400:1417   */\n  mul\n    /* \"#utility.yul\":1392:1417   */\n  swap1\n  pop\n    /* \"#utility.yul\":1472:1476   */\n  0x20\n    /* \"#utility.yul\":1466:1470   */\n  dup2\n    /* \"#utility.yul\":1462:1477   */\n  add\n    /* \"#utility.yul\":1454:1477   */\n  swap1\n  pop\n    /* \"#utility.yul\":1173:1484   */\n  swap2\n  swap1\n  pop\n  jump\t// out\n    /* \"#utility.yul\":1490:1607   */\ntag_35:\n    /* \"#utility.yul\":1599:1600   */\n  0x00\n    /* \"#utility.yul\":1596:1597   */\n  0x00\n    /* \"#utility.yul\":1589:1601   */\n  revert\n    /* \"#utility.yul\":1613:1739   */\ntag_36:\n    /* \"#utility.yul\":1650:1657   */\n  0x00\n    /* \"#utility.yul\":1690:1732   */\n  0xffffffffffffffffffffffffffffffffffffffff\n    /* \"#utility.yul\":1683:1688   */\n  dup3\n    /* \"#utility.yul\":1679:1733   */\n  and\n    /* \"#utility.yul\":1668:1733   */\n  swap1\n  pop\n    /* \"#utility.yul\":1613:1739   */\n  swap2\n  swap1\n  pop\n  jump\t// out\n    /* \"#utility.yul\":1745:1841   */\ntag_37:\n    /* \"#utility.yul\":1782:1789   */\n  0x00\n    /* \"#utility.yul\":1811:1835   */\n  tag_72\n    /* \"#utility.yul\":1829:1834   */\n  dup3\n    /* \"#utility.yul\":1811:1835   */\n  tag_36\n  jump\t// in\ntag_72:\n    /* \"#utility.yul\":1800:1835   */\n  swap1\n  pop\n    /* \"#utility.yul\":1745:1841   */\n  swap2\n  swap1\n  pop\n  jump\t// out\n    /* \"#utility.yul\":1847:1969   */\ntag_38:\n    /* \"#utility.yul\":1920:1944   */\n  tag_74\n    /* \"#utility.yul\":1938:1943   */\n  dup2\n    /* \"#utility.yul\":1920:1944   */\n  tag_37\n  jump\t// in\ntag_74:\n    /* \"#utility.yul\":1913:1918   */\n  dup2\n    /* \"#utility.yul\":1910:1945   */\n  eq\n    /* \"#utility.yul\":1900:1963   */\n  tag_75\n  jumpi\n    /* \"#utility.yul\":1959:1960   */\n  0x00\n    /* \"#utility.yul\":1956:1957   */\n  0x00\n    /* \"#utility.yul\":1949:1961   */\n  revert\n    /* \"#utility.yul\":1900:1963   */\ntag_75:\n    /* \"#utility.yul\":1847:1969   */\n  pop\n  jump\t// out\n    /* \"#utility.yul\":1975:2118   */\ntag_39:\n    /* \"#utility.yul\":2032:2037   */\n  0x00\n    /* \"#utility.yul\":2063:2069   */\n  dup2\n    /* \"#utility.yul\":2057:2070   */\n  mload\n    /* \"#utility.yul\":2048:2070   */\n  swap1\n  pop\n    /* \"#utility.yul\":2079:2112   */\n  tag_77\n    /* \"#utility.yul\":2106:2111   */\n  dup2\n    /* \"#utility.yul\":2079:2112   */\n  tag_38\n  jump\t// in\ntag_77:\n    /* \"#utility.yul\":1975:2118   */\n  swap3\n  swap2\n  pop\n  pop\n  jump\t// out\n    /* \"#utility.yul\":2141:2873   */\ntag_40:\n    /* \"#utility.yul\":2248:2253   */\n  0x00\n    /* \"#utility.yul\":2273:2354   */\n  tag_79\n    /* \"#utility.yul\":2289:2353   */\n  tag_80\n    /* \"#utility.yul\":2346:2352   */\n  dup5\n    /* \"#utility.yul\":2289:2353   */\n  tag_34\n  jump\t// in\ntag_80:\n    /* \"#utility.yul\":2273:2354   */\n  tag_33\n  jump\t// in\ntag_79:\n    /* \"#utility.yul\":2264:2354   */\n  swap1\n  pop\n    /* \"#utility.yul\":2374:2379   */\n  dup1\n    /* \"#utility.yul\":2403:2409   */\n  dup4\n    /* \"#utility.yul\":2396:2401   */\n  dup3\n    /* \"#utility.yul\":2389:2410   */\n  mstore\n    /* \"#utility.yul\":2437:2441   */\n  0x20\n    /* \"#utility.yul\":2430:2435   */\n  dup3\n    /* \"#utility.yul\":2426:2442   */\n  add\n    /* \"#utility.yul\":2419:2442   */\n  swap1\n  pop\n    /* \"#utility.yul\":2490:2494   */\n  0x20\n    /* \"#utility.yul\":2482:2488   */\n  dup5\n    /* \"#utility.yul\":2478:2495   */\n  mul\n    /* \"#utility.yul\":2470:2476   */\n  dup4\n    /* \"#utility.yul\":2466:2496   */\n  add\n    /* \"#utility.yul\":2519:2522   */\n  dup6\n    /* \"#utility.yul\":2511:2517   */\n  dup2\n    /* \"#utility.yul\":2508:2523   */\n  gt\n    /* \"#utility.yul\":2505:2627   */\n  iszero\n  tag_81\n  jumpi\n    /* \"#utility.yul\":2538:2617   */\n  tag_82\n  tag_35\n  jump\t// in\ntag_82:\n    /* \"#utility.yul\":2505:2627   */\ntag_81:\n    /* \"#utility.yul\":2653:2659   */\n  dup4\n    /* \"#utility.yul\":2636:2867   */\ntag_83:\n    /* \"#utility.yul\":2670:2676   */\n  dup2\n    /* \"#utility.yul\":2665:2668   */\n  dup2\n    /* \"#utility.yul\":2662:2677   */\n  lt\n    /* \"#utility.yul\":2636:2867   */\n  iszero\n  tag_85\n  jumpi\n    /* \"#utility.yul\":2745:2748   */\n  dup1\n    /* \"#utility.yul\":2774:2822   */\n  tag_86\n    /* \"#utility.yul\":2818:2821   */\n  dup9\n    /* \"#utility.yul\":2806:2816   */\n  dup3\n    /* \"#utility.yul\":2774:2822   */\n  tag_39\n  jump\t// in\ntag_86:\n    /* \"#utility.yul\":2769:2772   */\n  dup5\n    /* \"#utility.yul\":2762:2823   */\n  mstore\n    /* \"#utility.yul\":2852:2856   */\n  0x20\n    /* \"#utility.yul\":2847:2850   */\n  dup5\n    /* \"#utility.yul\":2843:2857   */\n  add\n    /* \"#utility.yul\":2836:2857   */\n  swap4\n  pop\n    /* \"#utility.yul\":2712:2867   */\n  pop\n    /* \"#utility.yul\":2696:2700   */\n  0x20\n    /* \"#utility.yul\":2691:2694   */\n  dup2\n    /* \"#utility.yul\":2687:2701   */\n  add\n    /* \"#utility.yul\":2680:2701   */\n  swap1\n  pop\n    /* \"#utility.yul\":2636:2867   */\n  jump(tag_83)\ntag_85:\n    /* \"#utility.yul\":2640:2661   */\n  pop\n    /* \"#utility.yul\":2254:2873   */\n  pop\n  pop\n    /* \"#utility.yul\":2141:2873   */\n  swap4\n  swap3\n  pop\n  pop\n  pop\n  jump\t// out\n    /* \"#utility.yul\":2896:3281   */\ntag_41:\n    /* \"#utility.yul\":2978:2983   */\n  0x00\n    /* \"#utility.yul\":3027:3030   */\n  dup3\n    /* \"#utility.yul\":3020:3024   */\n  0x1f\n    /* \"#utility.yul\":3012:3018   */\n  dup4\n    /* \"#utility.yul\":3008:3025   */\n  add\n    /* \"#utility.yul\":3004:3031   */\n  slt\n    /* \"#utility.yul\":2994:3116   */\n  tag_88\n  jumpi\n    /* \"#utility.yul\":3035:3114   */\n  tag_89\n  tag_29\n  jump\t// in\ntag_89:\n    /* \"#utility.yul\":2994:3116   */\ntag_88:\n    /* \"#utility.yul\":3145:3151   */\n  dup2\n    /* \"#utility.yul\":3139:3152   */\n  mload\n    /* \"#utility.yul\":3170:3275   */\n  tag_90\n    /* \"#utility.yul\":3271:3274   */\n  dup5\n    /* \"#utility.yul\":3263:3269   */\n  dup3\n    /* \"#utility.yul\":3256:3260   */\n  0x20\n    /* \"#utility.yul\":3248:3254   */\n  dup7\n    /* \"#utility.yul\":3244:3261   */\n  add\n    /* \"#utility.yul\":3170:3275   */\n  tag_40\n  jump\t// in\ntag_90:\n    /* \"#utility.yul\":3161:3275   */\n  swap2\n  pop\n    /* \"#utility.yul\":2984:3281   */\n  pop\n    /* \"#utility.yul\":2896:3281   */\n  swap3\n  swap2\n  pop\n  pop\n  jump\t// out\n    /* \"#utility.yul\":3287:3364   */\ntag_42:\n    /* \"#utility.yul\":3324:3331   */\n  0x00\n    /* \"#utility.yul\":3353:3358   */\n  dup2\n    /* \"#utility.yul\":3342:3358   */\n  swap1\n  pop\n    /* \"#utility.yul\":3287:3364   */\n  swap2\n  swap1\n  pop\n  jump\t// out\n    /* \"#utility.yul\":3370:3492   */\ntag_43:\n    /* \"#utility.yul\":3443:3467   */\n  tag_93\n    /* \"#utility.yul\":3461:3466   */\n  dup2\n    /* \"#utility.yul\":3443:3467   */\n  tag_42\n  jump\t// in\ntag_93:\n    /* \"#utility.yul\":3436:3441   */\n  dup2\n    /* \"#utility.yul\":3433:3468   */\n  eq\n    /* \"#utility.yul\":3423:3486   */\n  tag_94\n  jumpi\n    /* \"#utility.yul\":3482:3483   */\n  0x00\n    /* \"#utility.yul\":3479:3480   */\n  0x00\n    /* \"#utility.yul\":3472:3484   */\n  revert\n    /* \"#utility.yul\":3423:3486   */\ntag_94:\n    /* \"#utility.yul\":3370:3492   */\n  pop\n  jump\t// out\n    /* \"#utility.yul\":3498:3641   */\ntag_44:\n    /* \"#utility.yul\":3555:3560   */\n  0x00\n    /* \"#utility.yul\":3586:3592   */\n  dup2\n    /* \"#utility.yul\":3580:3593   */\n  mload\n    /* \"#utility.yul\":3571:3593   */\n  swap1\n  pop\n    /* \"#utility.yul\":3602:3635   */\n  tag_96\n    /* \"#utility.yul\":3629:3634   */\n  dup2\n    /* \"#utility.yul\":3602:3635   */\n  tag_43\n  jump\t// in\ntag_96:\n    /* \"#utility.yul\":3498:3641   */\n  swap3\n  swap2\n  pop\n  pop\n  jump\t// out\n    /* \"#utility.yul\":3647:4357   */\ntag_3:\n    /* \"#utility.yul\":3751:3757   */\n  0x00\n    /* \"#utility.yul\":3759:3765   */\n  0x00\n    /* \"#utility.yul\":3808:3810   */\n  0x40\n    /* \"#utility.yul\":3796:3805   */\n  dup4\n    /* \"#utility.yul\":3787:3794   */\n  dup6\n    /* \"#utility.yul\":3783:3806   */\n  sub\n    /* \"#utility.yul\":3779:3811   */\n  slt\n    /* \"#utility.yul\":3776:3895   */\n  iszero\n  tag_98\n  jumpi\n    /* \"#utility.yul\":3814:3893   */\n  tag_99\n  tag_27\n  jump\t// in\ntag_99:\n    /* \"#utility.yul\":3776:3895   */\ntag_98:\n    /* \"#utility.yul\":3955:3956   */\n  0x00\n    /* \"#utility.yul\":3944:3953   */\n  dup4\n    /* \"#utility.yul\":3940:3957   */\n  add\n    /* \"#utility.yul\":3934:3958   */\n  mload\n    /* \"#utility.yul\":3985:4003   */\n  0xffffffffffffffff\n    /* \"#utility.yul\":3977:3983   */\n  dup2\n    /* \"#utility.yul\":3974:4004   */\n  gt\n    /* \"#utility.yul\":3971:4088   */\n  iszero\n  tag_100\n  jumpi\n    /* \"#utility.yul\":4007:4086   */\n  tag_101\n  tag_28\n  jump\t// in\ntag_101:\n    /* \"#utility.yul\":3971:4088   */\ntag_100:\n    /* \"#utility.yul\":4112:4201   */\n  tag_102\n    /* \"#utility.yul\":4193:4200   */\n  dup6\n    /* \"#utility.yul\":4184:4190   */\n  dup3\n    /* \"#utility.yul\":4173:4182   */\n  dup7\n    /* \"#utility.yul\":4169:4191   */\n  add\n    /* \"#utility.yul\":4112:4201   */\n  tag_41\n  jump\t// in\ntag_102:\n    /* \"#utility.yul\":4102:4201   */\n  swap3\n  pop\n    /* \"#utility.yul\":3905:4211   */\n  pop\n    /* \"#utility.yul\":4250:4252   */\n  0x20\n    /* \"#utility.yul\":4276:4340   */\n  tag_103\n    /* \"#utility.yul\":4332:4339   */\n  dup6\n    /* \"#utility.yul\":4323:4329   */\n  dup3\n    /* \"#utility.yul\":4312:4321   */\n  dup7\n    /* \"#utility.yul\":4308:4330   */\n  add\n    /* \"#utility.yul\":4276:4340   */\n  tag_44\n  jump\t// in\ntag_103:\n    /* \"#utility.yul\":4266:4340   */\n  swap2\n  pop\n    /* \"#utility.yul\":4221:4350   */\n  pop\n    /* \"#utility.yul\":3647:4357   */\n  swap3\n  pop\n  swap3\n  swap1\n  pop\n  jump\t// out\n    /* \"#utility.yul\":4363:4532   */\ntag_45:\n    /* \"#utility.yul\":4447:4458   */\n  0x00\n    /* \"#utility.yul\":4481:4487   */\n  dup3\n    /* \"#utility.yul\":4476:4479   */\n  dup3\n    /* \"#utility.yul\":4469:4488   */\n  mstore\n    /* \"#utility.yul\":4521:4525   */\n  0x20\n    /* \"#utility.yul\":4516:4519   */\n  dup3\n    /* \"#utility.yul\":4512:4526   */\n  add\n    /* \"#utility.yul\":4497:4526   */\n  swap1\n  pop\n    /* \"#utility.yul\":4363:4532   */\n  swap3\n  swap2\n  pop\n  pop\n  jump\t// out\n    /* \"#utility.yul\":4538:4763   */\ntag_46:\n    /* \"#utility.yul\":4678:4712   */\n  0x4f6e77657273205265717569726564204d757374204265204772656174657220\n    /* \"#utility.yul\":4674:4675   */\n  0x00\n    /* \"#utility.yul\":4666:4672   */\n  dup3\n    /* \"#utility.yul\":4662:4676   */\n  add\n    /* \"#utility.yul\":4655:4713   */\n  mstore\n    /* \"#utility.yul\":4747:4755   */\n  0x7468616e20310000000000000000000000000000000000000000000000000000\n    /* \"#utility.yul\":4742:4744   */\n  0x20\n    /* \"#utility.yul\":4734:4740   */\n  dup3\n    /* \"#utility.yul\":4730:4745   */\n  add\n    /* \"#utility.yul\":4723:4756   */\n  mstore\n    /* \"#utility.yul\":4538:4763   */\n  pop\n  jump\t// out\n    /* \"#utility.yul\":4769:5135   */\ntag_47:\n    /* \"#utility.yul\":4911:4914   */\n  0x00\n    /* \"#utility.yul\":4932:4999   */\n  tag_107\n    /* \"#utility.yul\":4996:4998   */\n  0x26\n    /* \"#utility.yul\":4991:4994   */\n  dup4\n    /* \"#utility.yul\":4932:4999   */\n  tag_45\n  jump\t// in\ntag_107:\n    /* \"#utility.yul\":4925:4999   */\n  swap2\n  pop\n    /* \"#utility.yul\":5008:5101   */\n  tag_108\n    /* \"#utility.yul\":5097:5100   */\n  dup3\n    /* \"#utility.yul\":5008:5101   */\n  tag_46\n  jump\t// in\ntag_108:\n    /* \"#utility.yul\":5126:5128   */\n  0x40\n    /* \"#utility.yul\":5121:5124   */\n  dup3\n    /* \"#utility.yul\":5117:5129   */\n  add\n    /* \"#utility.yul\":5110:5129   */\n  swap1\n  pop\n    /* \"#utility.yul\":4769:5135   */\n  swap2\n  swap1\n  pop\n  jump\t// out\n    /* \"#utility.yul\":5141:5560   */\ntag_8:\n    /* \"#utility.yul\":5307:5311   */\n  0x00\n    /* \"#utility.yul\":5345:5347   */\n  0x20\n    /* \"#utility.yul\":5334:5343   */\n  dup3\n    /* \"#utility.yul\":5330:5348   */\n  add\n    /* \"#utility.yul\":5322:5348   */\n  swap1\n  pop\n    /* \"#utility.yul\":5394:5403   */\n  dup2\n    /* \"#utility.yul\":5388:5392   */\n  dup2\n    /* \"#utility.yul\":5384:5404   */\n  sub\n    /* \"#utility.yul\":5380:5381   */\n  0x00\n    /* \"#utility.yul\":5369:5378   */\n  dup4\n    /* \"#utility.yul\":5365:5382   */\n  add\n    /* \"#utility.yul\":5358:5405   */\n  mstore\n    /* \"#utility.yul\":5422:5553   */\n  tag_110\n    /* \"#utility.yul\":5548:5552   */\n  dup2\n    /* \"#utility.yul\":5422:5553   */\n  tag_47\n  jump\t// in\ntag_110:\n    /* \"#utility.yul\":5414:5553   */\n  swap1\n  pop\n    /* \"#utility.yul\":5141:5560   */\n  swap2\n  swap1\n  pop\n  jump\t// out\n    /* \"#utility.yul\":5566:5815   */\ntag_48:\n    /* \"#utility.yul\":5706:5740   */\n  0x4e756d206f6620636f6e6669726d6174696f6e7320617265206e6f7420696e20\n    /* \"#utility.yul\":5702:5703   */\n  0x00\n    /* \"#utility.yul\":5694:5700   */\n  dup3\n    /* \"#utility.yul\":5690:5704   */\n  add\n    /* \"#utility.yul\":5683:5741   */\n  mstore\n    /* \"#utility.yul\":5775:5807   */\n  0x73796e63207769746820746865206e756d626572206f66206f776e6572730000\n    /* \"#utility.yul\":5770:5772   */\n  0x20\n    /* \"#utility.yul\":5762:5768   */\n  dup3\n    /* \"#utility.yul\":5758:5773   */\n  add\n    /* \"#utility.yul\":5751:5808   */\n  mstore\n    /* \"#utility.yul\":5566:5815   */\n  pop\n  jump\t// out\n    /* \"#utility.yul\":5821:6187   */\ntag_49:\n    /* \"#utility.yul\":5963:5966   */\n  0x00\n    /* \"#utility.yul\":5984:6051   */\n  tag_113\n    /* \"#utility.yul\":6048:6050   */\n  0x3e\n    /* \"#utility.yul\":6043:6046   */\n  dup4\n    /* \"#utility.yul\":5984:6051   */\n  tag_45\n  jump\t// in\ntag_113:\n    /* \"#utility.yul\":5977:6051   */\n  swap2\n  pop\n    /* \"#utility.yul\":6060:6153   */\n  tag_114\n    /* \"#utility.yul\":6149:6152   */\n  dup3\n    /* \"#utility.yul\":6060:6153   */\n  tag_48\n  jump\t// in\ntag_114:\n    /* \"#utility.yul\":6178:6180   */\n  0x40\n    /* \"#utility.yul\":6173:6176   */\n  dup3\n    /* \"#utility.yul\":6169:6181   */\n  add\n    /* \"#utility.yul\":6162:6181   */\n  swap1\n  pop\n    /* \"#utility.yul\":5821:6187   */\n  swap2\n  swap1\n  pop\n  jump\t// out\n    /* \"#utility.yul\":6193:6612   */\ntag_12:\n    /* \"#utility.yul\":6359:6363   */\n  0x00\n    /* \"#utility.yul\":6397:6399   */\n  0x20\n    /* \"#utility.yul\":6386:6395   */\n  dup3\n    /* \"#utility.yul\":6382:6400   */\n  add\n    /* \"#utility.yul\":6374:6400   */\n  swap1\n  pop\n    /* \"#utility.yul\":6446:6455   */\n  dup2\n    /* \"#utility.yul\":6440:6444   */\n  dup2\n    /* \"#utility.yul\":6436:6456   */\n  sub\n    /* \"#utility.yul\":6432:6433   */\n  0x00\n    /* \"#utility.yul\":6421:6430   */\n  dup4\n    /* \"#utility.yul\":6417:6434   */\n  add\n    /* \"#utility.yul\":6410:6457   */\n  mstore\n    /* \"#utility.yul\":6474:6605   */\n  tag_116\n    /* \"#utility.yul\":6600:6604   */\n  dup2\n    /* \"#utility.yul\":6474:6605   */\n  tag_49\n  jump\t// in\ntag_116:\n    /* \"#utility.yul\":6466:6605   */\n  swap1\n  pop\n    /* \"#utility.yul\":6193:6612   */\n  swap2\n  swap1\n  pop\n  jump\t// out\n    /* \"#utility.yul\":6618:6798   */\ntag_18:\n    /* \"#utility.yul\":6666:6743   */\n  0x4e487b7100000000000000000000000000000000000000000000000000000000\n    /* \"#utility.yul\":6663:6664   */\n  0x00\n    /* \"#utility.yul\":6656:6744   */\n  mstore\n    /* \"#utility.yul\":6763:6767   */\n  0x32\n    /* \"#utility.yul\":6760:6761   */\n  0x04\n    /* \"#utility.yul\":6753:6768   */\n  mstore\n    /* \"#utility.yul\":6787:6791   */\n  0x24\n    /* \"#utility.yul\":6784:6785   */\n  0x00\n    /* \"#utility.yul\":6777:6792   */\n  revert\n    /* \"#utility.yul\":6804:6967   */\ntag_50:\n    /* \"#utility.yul\":6944:6959   */\n  0x496e76616c6964204f776e657200000000000000000000000000000000000000\n    /* \"#utility.yul\":6940:6941   */\n  0x00\n    /* \"#utility.yul\":6932:6938   */\n  dup3\n    /* \"#utility.yul\":6928:6942   */\n  add\n    /* \"#utility.yul\":6921:6960   */\n  mstore\n    /* \"#utility.yul\":6804:6967   */\n  pop\n  jump\t// out\n    /* \"#utility.yul\":6973:7339   */\ntag_51:\n    /* \"#utility.yul\":7115:7118   */\n  0x00\n    /* \"#utility.yul\":7136:7203   */\n  tag_120\n    /* \"#utility.yul\":7200:7202   */\n  0x0d\n    /* \"#utility.yul\":7195:7198   */\n  dup4\n    /* \"#utility.yul\":7136:7203   */\n  tag_45\n  jump\t// in\ntag_120:\n    /* \"#utility.yul\":7129:7203   */\n  swap2\n  pop\n    /* \"#utility.yul\":7212:7305   */\n  tag_121\n    /* \"#utility.yul\":7301:7304   */\n  dup3\n    /* \"#utility.yul\":7212:7305   */\n  tag_50\n  jump\t// in\ntag_121:\n    /* \"#utility.yul\":7330:7332   */\n  0x20\n    /* \"#utility.yul\":7325:7328   */\n  dup3\n    /* \"#utility.yul\":7321:7333   */\n  add\n    /* \"#utility.yul\":7314:7333   */\n  swap1\n  pop\n    /* \"#utility.yul\":6973:7339   */\n  swap2\n  swap1\n  pop\n  jump\t// out\n    /* \"#utility.yul\":7345:7764   */\ntag_21:\n    /* \"#utility.yul\":7511:7515   */\n  0x00\n    /* \"#utility.yul\":7549:7551   */\n  0x20\n    /* \"#utility.yul\":7538:7547   */\n  dup3\n    /* \"#utility.yul\":7534:7552   */\n  add\n    /* \"#utility.yul\":7526:7552   */\n  swap1\n  pop\n    /* \"#utility.yul\":7598:7607   */\n  dup2\n    /* \"#utility.yul\":7592:7596   */\n  dup2\n    /* \"#utility.yul\":7588:7608   */\n  sub\n    /* \"#utility.yul\":7584:7585   */\n  0x00\n    /* \"#utility.yul\":7573:7582   */\n  dup4\n    /* \"#utility.yul\":7569:7586   */\n  add\n    /* \"#utility.yul\":7562:7609   */\n  mstore\n    /* \"#utility.yul\":7626:7757   */\n  tag_123\n    /* \"#utility.yul\":7752:7756   */\n  dup2\n    /* \"#utility.yul\":7626:7757   */\n  tag_51\n  jump\t// in\ntag_123:\n    /* \"#utility.yul\":7618:7757   */\n  swap1\n  pop\n    /* \"#utility.yul\":7345:7764   */\n  swap2\n  swap1\n  pop\n  jump\t// out\n    /* \"multisig.sol\":60:2977  contract MultiSig {... */\ntag_25:\n  dataSize(sub_0)\n  dup1\n  dataOffset(sub_0)\n  0x00\n  codecopy\n  0x00\n  return\nstop\n\nsub_0: assembly {\n        /* \"multisig.sol\":60:2977  contract MultiSig {... */\n      mstore(0x40, 0x80)\n      jumpi(tag_1, lt(calldatasize, 0x04))\n      shr(0xe0, calldataload(0x00))\n      dup1\n      0x025e7c27\n      eq\n      tag_2\n      jumpi\n      dup1\n      0x66d651db\n      eq\n      tag_3\n      jumpi\n      dup1\n      0x9ace38c2\n      eq\n      tag_4\n      jumpi\n      dup1\n      0xc01a8c84\n      eq\n      tag_5\n      jumpi\n      dup1\n      0xd0549b85\n      eq\n      tag_6\n      jumpi\n      dup1\n      0xee22610b\n      eq\n      tag_7\n      jumpi\n    tag_1:\n      revert(0x00, 0x00)\n        /* \"multisig.sol\":89:112  address[] public owners */\n    tag_2:\n      callvalue\n      dup1\n      iszero\n      tag_8\n      jumpi\n      revert(0x00, 0x00)\n    tag_8:\n      pop\n      tag_9\n      0x04\n      dup1\n      calldatasize\n      sub\n      dup2\n      add\n      swap1\n      tag_10\n      swap2\n      swap1\n      tag_11\n      jump\t// in\n    tag_10:\n      tag_12\n      jump\t// in\n    tag_9:\n      mload(0x40)\n      tag_13\n      swap2\n      swap1\n      tag_14\n      jump\t// in\n    tag_13:\n      mload(0x40)\n      dup1\n      swap2\n      sub\n      swap1\n      return\n        /* \"multisig.sol\":1106:1513  function submitTransaction(address _to) public payable{... */\n    tag_3:\n      tag_15\n      0x04\n      dup1\n      calldatasize\n      sub\n      dup2\n      add\n      swap1\n      tag_16\n      swap2\n      swap1\n      tag_17\n      jump\t// in\n    tag_16:\n      tag_18\n      jump\t// in\n    tag_15:\n      stop\n        /* \"multisig.sol\":264:297  Transaction[] public transactions */\n    tag_4:\n      callvalue\n      dup1\n      iszero\n      tag_19\n      jumpi\n      revert(0x00, 0x00)\n    tag_19:\n      pop\n      tag_20\n      0x04\n      dup1\n      calldatasize\n      sub\n      dup2\n      add\n      swap1\n      tag_21\n      swap2\n      swap1\n      tag_11\n      jump\t// in\n    tag_21:\n      tag_22\n      jump\t// in\n    tag_20:\n      mload(0x40)\n      tag_23\n      swap4\n      swap3\n      swap2\n      swap1\n      tag_24\n      jump\t// in\n    tag_23:\n      mload(0x40)\n      dup1\n      swap2\n      sub\n      swap1\n      return\n        /* \"multisig.sol\":1521:1988  function confirmTransaction(uint _transactionId) public{... */\n    tag_5:\n      callvalue\n      dup1\n      iszero\n      tag_25\n      jumpi\n      revert(0x00, 0x00)\n    tag_25:\n      pop\n      tag_26\n      0x04\n      dup1\n      calldatasize\n      sub\n      dup2\n      add\n      swap1\n      tag_27\n      swap2\n      swap1\n      tag_11\n      jump\t// in\n    tag_27:\n      tag_28\n      jump\t// in\n    tag_26:\n      stop\n        /* \"multisig.sol\":119:155  uint public numConfirmationsRequired */\n    tag_6:\n      callvalue\n      dup1\n      iszero\n      tag_29\n      jumpi\n      revert(0x00, 0x00)\n    tag_29:\n      pop\n      tag_30\n      tag_31\n      jump\t// in\n    tag_30:\n      mload(0x40)\n      tag_32\n      swap2\n      swap1\n      tag_33\n      jump\t// in\n    tag_32:\n      mload(0x40)\n      dup1\n      swap2\n      sub\n      swap1\n      return\n        /* \"multisig.sol\":1999:2515  function executeTransaction(uint _transactionId) public payable{... */\n    tag_7:\n      tag_34\n      0x04\n      dup1\n      calldatasize\n      sub\n      dup2\n      add\n      swap1\n      tag_35\n      swap2\n      swap1\n      tag_11\n      jump\t// in\n    tag_35:\n      tag_36\n      jump\t// in\n    tag_34:\n      stop\n        /* \"multisig.sol\":89:112  address[] public owners */\n    tag_12:\n      0x00\n      dup2\n      dup2\n      sload\n      dup2\n      lt\n      tag_37\n      jumpi\n      0x00\n      dup1\n      revert\n    tag_37:\n      swap1\n      0x00\n      mstore\n      keccak256(0x00, 0x20)\n      add\n      0x00\n      swap2\n      pop\n      sload\n      swap1\n      0x0100\n      exp\n      swap1\n      div\n      0xffffffffffffffffffffffffffffffffffffffff\n      and\n      dup2\n      jump\t// out\n        /* \"multisig.sol\":1106:1513  function submitTransaction(address _to) public payable{... */\n    tag_18:\n        /* \"multisig.sol\":1192:1193  0 */\n      0x00\n        /* \"multisig.sol\":1179:1194  _to!=address(0) */\n      0xffffffffffffffffffffffffffffffffffffffff\n      and\n        /* \"multisig.sol\":1179:1182  _to */\n      dup2\n        /* \"multisig.sol\":1179:1194  _to!=address(0) */\n      0xffffffffffffffffffffffffffffffffffffffff\n      and\n      sub\n        /* \"multisig.sol\":1171:1224  require(_to!=address(0),\"Invalid Receiver's Address\") */\n      tag_40\n      jumpi\n      mload(0x40)\n      0x08c379a000000000000000000000000000000000000000000000000000000000\n      dup2\n      mstore\n      0x04\n      add\n      tag_41\n      swap1\n      tag_42\n      jump\t// in\n    tag_41:\n      mload(0x40)\n      dup1\n      swap2\n      sub\n      swap1\n      revert\n    tag_40:\n        /* \"multisig.sol\":1253:1254  0 */\n      0x00\n        /* \"multisig.sol\":1243:1252  msg.value */\n      callvalue\n        /* \"multisig.sol\":1243:1254  msg.value>0 */\n      gt\n        /* \"multisig.sol\":1235:1296  require(msg.value>0,\"Transfer Amount Must Be Greater Than 0\") */\n      tag_43\n      jumpi\n      mload(0x40)\n      0x08c379a000000000000000000000000000000000000000000000000000000000\n      dup2\n      mstore\n      0x04\n      add\n      tag_44\n      swap1\n      tag_45\n      jump\t// in\n    tag_44:\n      mload(0x40)\n      dup1\n      swap2\n      sub\n      swap1\n      revert\n    tag_43:\n        /* \"multisig.sol\":1307:1325  uint transactionId */\n      0x00\n        /* \"multisig.sol\":1328:1340  transactions */\n      0x02\n        /* \"multisig.sol\":1328:1347  transactions.length */\n      dup1\n      sload\n      swap1\n      pop\n        /* \"multisig.sol\":1307:1347  uint transactionId = transactions.length */\n      swap1\n      pop\n        /* \"multisig.sol\":1358:1370  transactions */\n      0x02\n        /* \"multisig.sol\":1376:1428  Transaction({to:_to,value:msg.value,executed:false}) */\n      mload(0x40)\n      dup1\n      0x60\n      add\n      0x40\n      mstore\n      dup1\n        /* \"multisig.sol\":1392:1395  _to */\n      dup5\n        /* \"multisig.sol\":1376:1428  Transaction({to:_to,value:msg.value,executed:false}) */\n      0xffffffffffffffffffffffffffffffffffffffff\n      and\n      dup2\n      mstore\n      0x20\n      add\n        /* \"multisig.sol\":1402:1411  msg.value */\n      callvalue\n        /* \"multisig.sol\":1376:1428  Transaction({to:_to,value:msg.value,executed:false}) */\n      dup2\n      mstore\n      0x20\n      add\n        /* \"multisig.sol\":1421:1426  false */\n      0x00\n        /* \"multisig.sol\":1376:1428  Transaction({to:_to,value:msg.value,executed:false}) */\n      iszero\n      iszero\n      dup2\n      mstore\n      pop\n        /* \"multisig.sol\":1358:1429  transactions.push(Transaction({to:_to,value:msg.value,executed:false})) */\n      swap1\n      dup1\n      0x01\n      dup2\n      sload\n      add\n      dup1\n      dup3\n      sstore\n      dup1\n      swap2\n      pop\n      pop\n      0x01\n      swap1\n      sub\n      swap1\n      0x00\n      mstore\n      keccak256(0x00, 0x20)\n      swap1\n      0x03\n      mul\n      add\n      0x00\n      swap1\n      swap2\n      swap1\n      swap2\n      swap1\n      swap2\n      pop\n      0x00\n      dup3\n      add\n      mload\n      dup2\n      0x00\n      add\n      exp(0x0100, 0x00)\n      dup2\n      sload\n      dup2\n      0xffffffffffffffffffffffffffffffffffffffff\n      mul\n      not\n      and\n      swap1\n      dup4\n      0xffffffffffffffffffffffffffffffffffffffff\n      and\n      mul\n      or\n      swap1\n      sstore\n      pop\n      0x20\n      dup3\n      add\n      mload\n      dup2\n      0x01\n      add\n      sstore\n      0x40\n      dup3\n      add\n      mload\n      dup2\n      0x02\n      add\n      exp(0x0100, 0x00)\n      dup2\n      sload\n      dup2\n      0xff\n      mul\n      not\n      and\n      swap1\n      dup4\n      iszero\n      iszero\n      mul\n      or\n      swap1\n      sstore\n      pop\n      pop\n      pop\n        /* \"multisig.sol\":1445:1505  TransactionSubmitted(transactionId,msg.sender,_to,msg.value) */\n      0x753dcda37efe0bc3675e04e24d1fb08b70681f14675eed4b6e7978495caf2ca0\n        /* \"multisig.sol\":1466:1479  transactionId */\n      dup2\n        /* \"multisig.sol\":1480:1490  msg.sender */\n      caller\n        /* \"multisig.sol\":1491:1494  _to */\n      dup5\n        /* \"multisig.sol\":1495:1504  msg.value */\n      callvalue\n        /* \"multisig.sol\":1445:1505  TransactionSubmitted(transactionId,msg.sender,_to,msg.value) */\n      mload(0x40)\n      tag_47\n      swap5\n      swap4\n      swap3\n      swap2\n      swap1\n      tag_48\n      jump\t// in\n    tag_47:\n      mload(0x40)\n      dup1\n      swap2\n      sub\n      swap1\n      log1\n        /* \"multisig.sol\":1160:1513  {... */\n      pop\n        /* \"multisig.sol\":1106:1513  function submitTransaction(address _to) public payable{... */\n      pop\n      jump\t// out\n        /* \"multisig.sol\":264:297  Transaction[] public transactions */\n    tag_22:\n      0x02\n      dup2\n      dup2\n      sload\n      dup2\n      lt\n      tag_49\n      jumpi\n      0x00\n      dup1\n      revert\n    tag_49:\n      swap1\n      0x00\n      mstore\n      keccak256(0x00, 0x20)\n      swap1\n      0x03\n      mul\n      add\n      0x00\n      swap2\n      pop\n      swap1\n      pop\n      dup1\n      0x00\n      add\n      0x00\n      swap1\n      sload\n      swap1\n      0x0100\n      exp\n      swap1\n      div\n      0xffffffffffffffffffffffffffffffffffffffff\n      and\n      swap1\n      dup1\n      0x01\n      add\n      sload\n      swap1\n      dup1\n      0x02\n      add\n      0x00\n      swap1\n      sload\n      swap1\n      0x0100\n      exp\n      swap1\n      div\n      0xff\n      and\n      swap1\n      pop\n      dup4\n      jump\t// out\n        /* \"multisig.sol\":1521:1988  function confirmTransaction(uint _transactionId) public{... */\n    tag_28:\n        /* \"multisig.sol\":1610:1622  transactions */\n      0x02\n        /* \"multisig.sol\":1610:1629  transactions.length */\n      dup1\n      sload\n      swap1\n      pop\n        /* \"multisig.sol\":1595:1609  _transactionId */\n      dup2\n        /* \"multisig.sol\":1595:1629  _transactionId<transactions.length */\n      lt\n        /* \"multisig.sol\":1587:1655  require(_transactionId<transactions.length,\"Invalid Transaction Id\") */\n      tag_52\n      jumpi\n      mload(0x40)\n      0x08c379a000000000000000000000000000000000000000000000000000000000\n      dup2\n      mstore\n      0x04\n      add\n      tag_53\n      swap1\n      tag_54\n      jump\t// in\n    tag_53:\n      mload(0x40)\n      dup1\n      swap2\n      sub\n      swap1\n      revert\n    tag_52:\n        /* \"multisig.sol\":1675:1686  isConfirmed */\n      0x03\n        /* \"multisig.sol\":1675:1702  isConfirmed[_transactionId] */\n      0x00\n        /* \"multisig.sol\":1687:1701  _transactionId */\n      dup3\n        /* \"multisig.sol\":1675:1702  isConfirmed[_transactionId] */\n      dup2\n      mstore\n      0x20\n      add\n      swap1\n      dup2\n      mstore\n      0x20\n      add\n      0x00\n      keccak256\n        /* \"multisig.sol\":1675:1714  isConfirmed[_transactionId][msg.sender] */\n      0x00\n        /* \"multisig.sol\":1703:1713  msg.sender */\n      caller\n        /* \"multisig.sol\":1675:1714  isConfirmed[_transactionId][msg.sender] */\n      0xffffffffffffffffffffffffffffffffffffffff\n      and\n      0xffffffffffffffffffffffffffffffffffffffff\n      and\n      dup2\n      mstore\n      0x20\n      add\n      swap1\n      dup2\n      mstore\n      0x20\n      add\n      0x00\n      keccak256\n      0x00\n      swap1\n      sload\n      swap1\n      0x0100\n      exp\n      swap1\n      div\n      0xff\n      and\n        /* \"multisig.sol\":1674:1714  !isConfirmed[_transactionId][msg.sender] */\n      iszero\n        /* \"multisig.sol\":1666:1763  require(!isConfirmed[_transactionId][msg.sender],\"Transaction Is Already Confirmed By The Owner\") */\n      tag_55\n      jumpi\n      mload(0x40)\n      0x08c379a000000000000000000000000000000000000000000000000000000000\n      dup2\n      mstore\n      0x04\n      add\n      tag_56\n      swap1\n      tag_57\n      jump\t// in\n    tag_56:\n      mload(0x40)\n      dup1\n      swap2\n      sub\n      swap1\n      revert\n    tag_55:\n        /* \"multisig.sol\":1814:1818  true */\n      0x01\n        /* \"multisig.sol\":1774:1785  isConfirmed */\n      0x03\n        /* \"multisig.sol\":1774:1801  isConfirmed[_transactionId] */\n      0x00\n        /* \"multisig.sol\":1786:1800  _transactionId */\n      dup4\n        /* \"multisig.sol\":1774:1801  isConfirmed[_transactionId] */\n      dup2\n      mstore\n      0x20\n      add\n      swap1\n      dup2\n      mstore\n      0x20\n      add\n      0x00\n      keccak256\n        /* \"multisig.sol\":1774:1813  isConfirmed[_transactionId][msg.sender] */\n      0x00\n        /* \"multisig.sol\":1802:1812  msg.sender */\n      caller\n        /* \"multisig.sol\":1774:1813  isConfirmed[_transactionId][msg.sender] */\n      0xffffffffffffffffffffffffffffffffffffffff\n      and\n      0xffffffffffffffffffffffffffffffffffffffff\n      and\n      dup2\n      mstore\n      0x20\n      add\n      swap1\n      dup2\n      mstore\n      0x20\n      add\n      0x00\n      keccak256\n      0x00\n        /* \"multisig.sol\":1774:1818  isConfirmed[_transactionId][msg.sender]=true */\n      0x0100\n      exp\n      dup2\n      sload\n      dup2\n      0xff\n      mul\n      not\n      and\n      swap1\n      dup4\n      iszero\n      iszero\n      mul\n      or\n      swap1\n      sstore\n      pop\n        /* \"multisig.sol\":1834:1870  TransactionConfirmed(_transactionId) */\n      0xef524c298d730e7d5714dbe2fce9d4eca7de755a12628704719170afda39678b\n        /* \"multisig.sol\":1855:1869  _transactionId */\n      dup2\n        /* \"multisig.sol\":1834:1870  TransactionConfirmed(_transactionId) */\n      mload(0x40)\n      tag_58\n      swap2\n      swap1\n      tag_33\n      jump\t// in\n    tag_58:\n      mload(0x40)\n      dup1\n      swap2\n      sub\n      swap1\n      log1\n        /* \"multisig.sol\":1883:1921  isTransactionConfirmed(_transactionId) */\n      tag_59\n        /* \"multisig.sol\":1906:1920  _transactionId */\n      dup2\n        /* \"multisig.sol\":1883:1905  isTransactionConfirmed */\n      tag_60\n        /* \"multisig.sol\":1883:1921  isTransactionConfirmed(_transactionId) */\n      jump\t// in\n    tag_59:\n        /* \"multisig.sol\":1880:1981  if(isTransactionConfirmed(_transactionId)){... */\n      iszero\n      tag_61\n      jumpi\n        /* \"multisig.sol\":1936:1970  executeTransaction(_transactionId) */\n      tag_62\n        /* \"multisig.sol\":1955:1969  _transactionId */\n      dup2\n        /* \"multisig.sol\":1936:1954  executeTransaction */\n      tag_36\n        /* \"multisig.sol\":1936:1970  executeTransaction(_transactionId) */\n      jump\t// in\n    tag_62:\n        /* \"multisig.sol\":1880:1981  if(isTransactionConfirmed(_transactionId)){... */\n    tag_61:\n        /* \"multisig.sol\":1521:1988  function confirmTransaction(uint _transactionId) public{... */\n      pop\n      jump\t// out\n        /* \"multisig.sol\":119:155  uint public numConfirmationsRequired */\n    tag_31:\n      sload(0x01)\n      dup2\n      jump\t// out\n        /* \"multisig.sol\":1999:2515  function executeTransaction(uint _transactionId) public payable{... */\n    tag_36:\n        /* \"multisig.sol\":2095:2107  transactions */\n      0x02\n        /* \"multisig.sol\":2095:2114  transactions.length */\n      dup1\n      sload\n      swap1\n      pop\n        /* \"multisig.sol\":2080:2094  _transactionId */\n      dup2\n        /* \"multisig.sol\":2080:2114  _transactionId<transactions.length */\n      lt\n        /* \"multisig.sol\":2072:2140  require(_transactionId<transactions.length,\"Invalid Transaction Id\") */\n      tag_64\n      jumpi\n      mload(0x40)\n      0x08c379a000000000000000000000000000000000000000000000000000000000\n      dup2\n      mstore\n      0x04\n      add\n      tag_65\n      swap1\n      tag_54\n      jump\t// in\n    tag_65:\n      mload(0x40)\n      dup1\n      swap2\n      sub\n      swap1\n      revert\n    tag_64:\n        /* \"multisig.sol\":2159:2171  transactions */\n      0x02\n        /* \"multisig.sol\":2172:2186  _transactionId */\n      dup2\n        /* \"multisig.sol\":2159:2187  transactions[_transactionId] */\n      dup2\n      sload\n      dup2\n      lt\n      tag_66\n      jumpi\n      tag_67\n      tag_68\n      jump\t// in\n    tag_67:\n    tag_66:\n      swap1\n      0x00\n      mstore\n      keccak256(0x00, 0x20)\n      swap1\n      0x03\n      mul\n      add\n        /* \"multisig.sol\":2159:2196  transactions[_transactionId].executed */\n      0x02\n      add\n      0x00\n      swap1\n      sload\n      swap1\n      0x0100\n      exp\n      swap1\n      div\n      0xff\n      and\n        /* \"multisig.sol\":2158:2196  !transactions[_transactionId].executed */\n      iszero\n        /* \"multisig.sol\":2150:2231  require(!transactions[_transactionId].executed,\"Transaction is already executed\") */\n      tag_70\n      jumpi\n      mload(0x40)\n      0x08c379a000000000000000000000000000000000000000000000000000000000\n      dup2\n      mstore\n      0x04\n      add\n      tag_71\n      swap1\n      tag_72\n      jump\t// in\n    tag_71:\n      mload(0x40)\n      dup1\n      swap2\n      sub\n      swap1\n      revert\n    tag_70:\n        /* \"multisig.sol\":2243:2255  bool success */\n      0x00\n        /* \"multisig.sol\":2259:2271  transactions */\n      0x02\n        /* \"multisig.sol\":2272:2286  _transactionId */\n      dup3\n        /* \"multisig.sol\":2259:2287  transactions[_transactionId] */\n      dup2\n      sload\n      dup2\n      lt\n      tag_73\n      jumpi\n      tag_74\n      tag_68\n      jump\t// in\n    tag_74:\n    tag_73:\n      swap1\n      0x00\n      mstore\n      keccak256(0x00, 0x20)\n      swap1\n      0x03\n      mul\n      add\n        /* \"multisig.sol\":2259:2290  transactions[_transactionId].to */\n      0x00\n      add\n      0x00\n      swap1\n      sload\n      swap1\n      0x0100\n      exp\n      swap1\n      div\n      0xffffffffffffffffffffffffffffffffffffffff\n      and\n        /* \"multisig.sol\":2259:2295  transactions[_transactionId].to.call */\n      0xffffffffffffffffffffffffffffffffffffffff\n      and\n        /* \"multisig.sol\":2303:2315  transactions */\n      0x02\n        /* \"multisig.sol\":2316:2330  _transactionId */\n      dup4\n        /* \"multisig.sol\":2303:2331  transactions[_transactionId] */\n      dup2\n      sload\n      dup2\n      lt\n      tag_76\n      jumpi\n      tag_77\n      tag_68\n      jump\t// in\n    tag_77:\n    tag_76:\n      swap1\n      0x00\n      mstore\n      keccak256(0x00, 0x20)\n      swap1\n      0x03\n      mul\n      add\n        /* \"multisig.sol\":2303:2337  transactions[_transactionId].value */\n      0x01\n      add\n      sload\n        /* \"multisig.sol\":2259:2342  transactions[_transactionId].to.call{value: transactions[_transactionId].value}(\"\") */\n      mload(0x40)\n      tag_79\n      swap1\n      tag_80\n      jump\t// in\n    tag_79:\n      0x00\n      mload(0x40)\n      dup1\n      dup4\n      sub\n      dup2\n      dup6\n      dup8\n      gas\n      call\n      swap3\n      pop\n      pop\n      pop\n      returndatasize\n      dup1\n      0x00\n      dup2\n      eq\n      tag_83\n      jumpi\n      mload(0x40)\n      swap2\n      pop\n      and(add(returndatasize, 0x3f), not(0x1f))\n      dup3\n      add\n      0x40\n      mstore\n      returndatasize\n      dup3\n      mstore\n      returndatasize\n      0x00\n      0x20\n      dup5\n      add\n      returndatacopy\n      jump(tag_82)\n    tag_83:\n      0x60\n      swap2\n      pop\n    tag_82:\n      pop\n        /* \"multisig.sol\":2242:2342  (bool success,) =transactions[_transactionId].to.call{value: transactions[_transactionId].value}(\"\") */\n      pop\n      swap1\n      pop\n        /* \"multisig.sol\":2362:2369  success */\n      dup1\n        /* \"multisig.sol\":2354:2401  require(success,\"Transaction Execution Failed\") */\n      tag_84\n      jumpi\n      mload(0x40)\n      0x08c379a000000000000000000000000000000000000000000000000000000000\n      dup2\n      mstore\n      0x04\n      add\n      tag_85\n      swap1\n      tag_86\n      jump\t// in\n    tag_85:\n      mload(0x40)\n      dup1\n      swap2\n      sub\n      swap1\n      revert\n    tag_84:\n        /* \"multisig.sol\":2451:2455  true */\n      0x01\n        /* \"multisig.sol\":2413:2425  transactions */\n      0x02\n        /* \"multisig.sol\":2426:2440  _transactionId */\n      dup4\n        /* \"multisig.sol\":2413:2441  transactions[_transactionId] */\n      dup2\n      sload\n      dup2\n      lt\n      tag_87\n      jumpi\n      tag_88\n      tag_68\n      jump\t// in\n    tag_88:\n    tag_87:\n      swap1\n      0x00\n      mstore\n      keccak256(0x00, 0x20)\n      swap1\n      0x03\n      mul\n      add\n        /* \"multisig.sol\":2413:2450  transactions[_transactionId].executed */\n      0x02\n      add\n      0x00\n        /* \"multisig.sol\":2413:2455  transactions[_transactionId].executed=true */\n      0x0100\n      exp\n      dup2\n      sload\n      dup2\n      0xff\n      mul\n      not\n      and\n      swap1\n      dup4\n      iszero\n      iszero\n      mul\n      or\n      swap1\n      sstore\n      pop\n        /* \"multisig.sol\":2472:2507  TransactionExecuted(_transactionId) */\n      0x15ed165a284872ea7017f03df402a0cadfbfab588320ffaf83f160c2f82781c7\n        /* \"multisig.sol\":2492:2506  _transactionId */\n      dup3\n        /* \"multisig.sol\":2472:2507  TransactionExecuted(_transactionId) */\n      mload(0x40)\n      tag_90\n      swap2\n      swap1\n      tag_33\n      jump\t// in\n    tag_90:\n      mload(0x40)\n      dup1\n      swap2\n      sub\n      swap1\n      log1\n        /* \"multisig.sol\":2062:2515  {... */\n      pop\n        /* \"multisig.sol\":1999:2515  function executeTransaction(uint _transactionId) public payable{... */\n      pop\n      jump\t// out\n        /* \"multisig.sol\":2523:2974  function isTransactionConfirmed(uint _transactionId) internal view returns(bool){... */\n    tag_60:\n        /* \"multisig.sol\":2598:2602  bool */\n      0x00\n        /* \"multisig.sol\":2638:2650  transactions */\n      0x02\n        /* \"multisig.sol\":2638:2657  transactions.length */\n      dup1\n      sload\n      swap1\n      pop\n        /* \"multisig.sol\":2623:2637  _transactionId */\n      dup3\n        /* \"multisig.sol\":2623:2657  _transactionId<transactions.length */\n      lt\n        /* \"multisig.sol\":2615:2683  require(_transactionId<transactions.length,\"Invalid Transaction Id\") */\n      tag_92\n      jumpi\n      mload(0x40)\n      0x08c379a000000000000000000000000000000000000000000000000000000000\n      dup2\n      mstore\n      0x04\n      add\n      tag_93\n      swap1\n      tag_54\n      jump\t// in\n    tag_93:\n      mload(0x40)\n      dup1\n      swap2\n      sub\n      swap1\n      revert\n    tag_92:\n        /* \"multisig.sol\":2695:2716  uint confimationCount */\n      0x00\n        /* \"multisig.sol\":2752:2758  uint i */\n      0x00\n        /* \"multisig.sol\":2759:2760  0 */\n      0x00\n        /* \"multisig.sol\":2752:2760  uint i=0 */\n      swap1\n      pop\n        /* \"multisig.sol\":2748:2906  for(uint i=0;i<owners.length;i++){... */\n    tag_94:\n        /* \"multisig.sol\":2763:2769  owners */\n      0x00\n        /* \"multisig.sol\":2763:2776  owners.length */\n      dup1\n      sload\n      swap1\n      pop\n        /* \"multisig.sol\":2761:2762  i */\n      dup2\n        /* \"multisig.sol\":2761:2776  i<owners.length */\n      lt\n        /* \"multisig.sol\":2748:2906  for(uint i=0;i<owners.length;i++){... */\n      iszero\n      tag_95\n      jumpi\n        /* \"multisig.sol\":2800:2811  isConfirmed */\n      0x03\n        /* \"multisig.sol\":2800:2827  isConfirmed[_transactionId] */\n      0x00\n        /* \"multisig.sol\":2812:2826  _transactionId */\n      dup6\n        /* \"multisig.sol\":2800:2827  isConfirmed[_transactionId] */\n      dup2\n      mstore\n      0x20\n      add\n      swap1\n      dup2\n      mstore\n      0x20\n      add\n      0x00\n      keccak256\n        /* \"multisig.sol\":2800:2838  isConfirmed[_transactionId][owners[i]] */\n      0x00\n        /* \"multisig.sol\":2828:2834  owners */\n      0x00\n        /* \"multisig.sol\":2835:2836  i */\n      dup4\n        /* \"multisig.sol\":2828:2837  owners[i] */\n      dup2\n      sload\n      dup2\n      lt\n      tag_97\n      jumpi\n      tag_98\n      tag_68\n      jump\t// in\n    tag_98:\n    tag_97:\n      swap1\n      0x00\n      mstore\n      keccak256(0x00, 0x20)\n      add\n      0x00\n      swap1\n      sload\n      swap1\n      0x0100\n      exp\n      swap1\n      div\n      0xffffffffffffffffffffffffffffffffffffffff\n      and\n        /* \"multisig.sol\":2800:2838  isConfirmed[_transactionId][owners[i]] */\n      0xffffffffffffffffffffffffffffffffffffffff\n      and\n      0xffffffffffffffffffffffffffffffffffffffff\n      and\n      dup2\n      mstore\n      0x20\n      add\n      swap1\n      dup2\n      mstore\n      0x20\n      add\n      0x00\n      keccak256\n      0x00\n      swap1\n      sload\n      swap1\n      0x0100\n      exp\n      swap1\n      div\n      0xff\n      and\n        /* \"multisig.sol\":2797:2894  if(isConfirmed[_transactionId][owners[i]]){... */\n      iszero\n      tag_100\n      jumpi\n        /* \"multisig.sol\":2859:2877  confimationCount++ */\n      dup2\n      dup1\n      tag_101\n      swap1\n      tag_102\n      jump\t// in\n    tag_101:\n      swap3\n      pop\n      pop\n        /* \"multisig.sol\":2797:2894  if(isConfirmed[_transactionId][owners[i]]){... */\n    tag_100:\n        /* \"multisig.sol\":2777:2780  i++ */\n      dup1\n      dup1\n      0x01\n      add\n      swap2\n      pop\n      pop\n        /* \"multisig.sol\":2748:2906  for(uint i=0;i<owners.length;i++){... */\n      jump(tag_94)\n    tag_95:\n      pop\n        /* \"multisig.sol\":2942:2966  numConfirmationsRequired */\n      sload(0x01)\n        /* \"multisig.sol\":2924:2940  confimationCount */\n      dup2\n        /* \"multisig.sol\":2924:2966  confimationCount>=numConfirmationsRequired */\n      lt\n      iszero\n        /* \"multisig.sol\":2917:2966  return confimationCount>=numConfirmationsRequired */\n      swap2\n      pop\n      pop\n        /* \"multisig.sol\":2523:2974  function isTransactionConfirmed(uint _transactionId) internal view returns(bool){... */\n      swap2\n      swap1\n      pop\n      jump\t// out\n        /* \"#utility.yul\":88:205   */\n    tag_104:\n        /* \"#utility.yul\":197:198   */\n      0x00\n        /* \"#utility.yul\":194:195   */\n      0x00\n        /* \"#utility.yul\":187:199   */\n      revert\n        /* \"#utility.yul\":334:411   */\n    tag_106:\n        /* \"#utility.yul\":371:378   */\n      0x00\n        /* \"#utility.yul\":400:405   */\n      dup2\n        /* \"#utility.yul\":389:405   */\n      swap1\n      pop\n        /* \"#utility.yul\":334:411   */\n      swap2\n      swap1\n      pop\n      jump\t// out\n        /* \"#utility.yul\":417:539   */\n    tag_107:\n        /* \"#utility.yul\":490:514   */\n      tag_140\n        /* \"#utility.yul\":508:513   */\n      dup2\n        /* \"#utility.yul\":490:514   */\n      tag_106\n      jump\t// in\n    tag_140:\n        /* \"#utility.yul\":483:488   */\n      dup2\n        /* \"#utility.yul\":480:515   */\n      eq\n        /* \"#utility.yul\":470:533   */\n      tag_141\n      jumpi\n        /* \"#utility.yul\":529:530   */\n      0x00\n        /* \"#utility.yul\":526:527   */\n      0x00\n        /* \"#utility.yul\":519:531   */\n      revert\n        /* \"#utility.yul\":470:533   */\n    tag_141:\n        /* \"#utility.yul\":417:539   */\n      pop\n      jump\t// out\n        /* \"#utility.yul\":545:684   */\n    tag_108:\n        /* \"#utility.yul\":591:596   */\n      0x00\n        /* \"#utility.yul\":629:635   */\n      dup2\n        /* \"#utility.yul\":616:636   */\n      calldataload\n        /* \"#utility.yul\":607:636   */\n      swap1\n      pop\n        /* \"#utility.yul\":645:678   */\n      tag_143\n        /* \"#utility.yul\":672:677   */\n      dup2\n        /* \"#utility.yul\":645:678   */\n      tag_107\n      jump\t// in\n    tag_143:\n        /* \"#utility.yul\":545:684   */\n      swap3\n      swap2\n      pop\n      pop\n      jump\t// out\n        /* \"#utility.yul\":690:1019   */\n    tag_11:\n        /* \"#utility.yul\":749:755   */\n      0x00\n        /* \"#utility.yul\":798:800   */\n      0x20\n        /* \"#utility.yul\":786:795   */\n      dup3\n        /* \"#utility.yul\":777:784   */\n      dup5\n        /* \"#utility.yul\":773:796   */\n      sub\n        /* \"#utility.yul\":769:801   */\n      slt\n        /* \"#utility.yul\":766:885   */\n      iszero\n      tag_145\n      jumpi\n        /* \"#utility.yul\":804:883   */\n      tag_146\n      tag_104\n      jump\t// in\n    tag_146:\n        /* \"#utility.yul\":766:885   */\n    tag_145:\n        /* \"#utility.yul\":924:925   */\n      0x00\n        /* \"#utility.yul\":949:1002   */\n      tag_147\n        /* \"#utility.yul\":994:1001   */\n      dup5\n        /* \"#utility.yul\":985:991   */\n      dup3\n        /* \"#utility.yul\":974:983   */\n      dup6\n        /* \"#utility.yul\":970:992   */\n      add\n        /* \"#utility.yul\":949:1002   */\n      tag_108\n      jump\t// in\n    tag_147:\n        /* \"#utility.yul\":939:1002   */\n      swap2\n      pop\n        /* \"#utility.yul\":895:1012   */\n      pop\n        /* \"#utility.yul\":690:1019   */\n      swap3\n      swap2\n      pop\n      pop\n      jump\t// out\n        /* \"#utility.yul\":1025:1151   */\n    tag_109:\n        /* \"#utility.yul\":1062:1069   */\n      0x00\n        /* \"#utility.yul\":1102:1144   */\n      0xffffffffffffffffffffffffffffffffffffffff\n        /* \"#utility.yul\":1095:1100   */\n      dup3\n        /* \"#utility.yul\":1091:1145   */\n      and\n        /* \"#utility.yul\":1080:1145   */\n      swap1\n      pop\n        /* \"#utility.yul\":1025:1151   */\n      swap2\n      swap1\n      pop\n      jump\t// out\n        /* \"#utility.yul\":1157:1253   */\n    tag_110:\n        /* \"#utility.yul\":1194:1201   */\n      0x00\n        /* \"#utility.yul\":1223:1247   */\n      tag_150\n        /* \"#utility.yul\":1241:1246   */\n      dup3\n        /* \"#utility.yul\":1223:1247   */\n      tag_109\n      jump\t// in\n    tag_150:\n        /* \"#utility.yul\":1212:1247   */\n      swap1\n      pop\n        /* \"#utility.yul\":1157:1253   */\n      swap2\n      swap1\n      pop\n      jump\t// out\n        /* \"#utility.yul\":1259:1377   */\n    tag_111:\n        /* \"#utility.yul\":1346:1370   */\n      tag_152\n        /* \"#utility.yul\":1364:1369   */\n      dup2\n        /* \"#utility.yul\":1346:1370   */\n      tag_110\n      jump\t// in\n    tag_152:\n        /* \"#utility.yul\":1341:1344   */\n      dup3\n        /* \"#utility.yul\":1334:1371   */\n      mstore\n        /* \"#utility.yul\":1259:1377   */\n      pop\n      pop\n      jump\t// out\n        /* \"#utility.yul\":1383:1605   */\n    tag_14:\n        /* \"#utility.yul\":1476:1480   */\n      0x00\n        /* \"#utility.yul\":1514:1516   */\n      0x20\n        /* \"#utility.yul\":1503:1512   */\n      dup3\n        /* \"#utility.yul\":1499:1517   */\n      add\n        /* \"#utility.yul\":1491:1517   */\n      swap1\n      pop\n        /* \"#utility.yul\":1527:1598   */\n      tag_154\n        /* \"#utility.yul\":1595:1596   */\n      0x00\n        /* \"#utility.yul\":1584:1593   */\n      dup4\n        /* \"#utility.yul\":1580:1597   */\n      add\n        /* \"#utility.yul\":1571:1577   */\n      dup5\n        /* \"#utility.yul\":1527:1598   */\n      tag_111\n      jump\t// in\n    tag_154:\n        /* \"#utility.yul\":1383:1605   */\n      swap3\n      swap2\n      pop\n      pop\n      jump\t// out\n        /* \"#utility.yul\":1611:1733   */\n    tag_112:\n        /* \"#utility.yul\":1684:1708   */\n      tag_156\n        /* \"#utility.yul\":1702:1707   */\n      dup2\n        /* \"#utility.yul\":1684:1708   */\n      tag_110\n      jump\t// in\n    tag_156:\n        /* \"#utility.yul\":1677:1682   */\n      dup2\n        /* \"#utility.yul\":1674:1709   */\n      eq\n        /* \"#utility.yul\":1664:1727   */\n      tag_157\n      jumpi\n        /* \"#utility.yul\":1723:1724   */\n      0x00\n        /* \"#utility.yul\":1720:1721   */\n      0x00\n        /* \"#utility.yul\":1713:1725   */\n      revert\n        /* \"#utility.yul\":1664:1727   */\n    tag_157:\n        /* \"#utility.yul\":1611:1733   */\n      pop\n      jump\t// out\n        /* \"#utility.yul\":1739:1878   */\n    tag_113:\n        /* \"#utility.yul\":1785:1790   */\n      0x00\n        /* \"#utility.yul\":1823:1829   */\n      dup2\n        /* \"#utility.yul\":1810:1830   */\n      calldataload\n        /* \"#utility.yul\":1801:1830   */\n      swap1\n      pop\n        /* \"#utility.yul\":1839:1872   */\n      tag_159\n        /* \"#utility.yul\":1866:1871   */\n      dup2\n        /* \"#utility.yul\":1839:1872   */\n      tag_112\n      jump\t// in\n    tag_159:\n        /* \"#utility.yul\":1739:1878   */\n      swap3\n      swap2\n      pop\n      pop\n      jump\t// out\n        /* \"#utility.yul\":1884:2213   */\n    tag_17:\n        /* \"#utility.yul\":1943:1949   */\n      0x00\n        /* \"#utility.yul\":1992:1994   */\n      0x20\n        /* \"#utility.yul\":1980:1989   */\n      dup3\n        /* \"#utility.yul\":1971:1978   */\n      dup5\n        /* \"#utility.yul\":1967:1990   */\n      sub\n        /* \"#utility.yul\":1963:1995   */\n      slt\n        /* \"#utility.yul\":1960:2079   */\n      iszero\n      tag_161\n      jumpi\n        /* \"#utility.yul\":1998:2077   */\n      tag_162\n      tag_104\n      jump\t// in\n    tag_162:\n        /* \"#utility.yul\":1960:2079   */\n    tag_161:\n        /* \"#utility.yul\":2118:2119   */\n      0x00\n        /* \"#utility.yul\":2143:2196   */\n      tag_163\n        /* \"#utility.yul\":2188:2195   */\n      dup5\n        /* \"#utility.yul\":2179:2185   */\n      dup3\n        /* \"#utility.yul\":2168:2177   */\n      dup6\n        /* \"#utility.yul\":2164:2186   */\n      add\n        /* \"#utility.yul\":2143:2196   */\n      tag_113\n      jump\t// in\n    tag_163:\n        /* \"#utility.yul\":2133:2196   */\n      swap2\n      pop\n        /* \"#utility.yul\":2089:2206   */\n      pop\n        /* \"#utility.yul\":1884:2213   */\n      swap3\n      swap2\n      pop\n      pop\n      jump\t// out\n        /* \"#utility.yul\":2219:2337   */\n    tag_114:\n        /* \"#utility.yul\":2306:2330   */\n      tag_165\n        /* \"#utility.yul\":2324:2329   */\n      dup2\n        /* \"#utility.yul\":2306:2330   */\n      tag_106\n      jump\t// in\n    tag_165:\n        /* \"#utility.yul\":2301:2304   */\n      dup3\n        /* \"#utility.yul\":2294:2331   */\n      mstore\n        /* \"#utility.yul\":2219:2337   */\n      pop\n      pop\n      jump\t// out\n        /* \"#utility.yul\":2343:2433   */\n    tag_115:\n        /* \"#utility.yul\":2377:2384   */\n      0x00\n        /* \"#utility.yul\":2420:2425   */\n      dup2\n        /* \"#utility.yul\":2413:2426   */\n      iszero\n        /* \"#utility.yul\":2406:2427   */\n      iszero\n        /* \"#utility.yul\":2395:2427   */\n      swap1\n      pop\n        /* \"#utility.yul\":2343:2433   */\n      swap2\n      swap1\n      pop\n      jump\t// out\n        /* \"#utility.yul\":2439:2548   */\n    tag_116:\n        /* \"#utility.yul\":2520:2541   */\n      tag_168\n        /* \"#utility.yul\":2535:2540   */\n      dup2\n        /* \"#utility.yul\":2520:2541   */\n      tag_115\n      jump\t// in\n    tag_168:\n        /* \"#utility.yul\":2515:2518   */\n      dup3\n        /* \"#utility.yul\":2508:2542   */\n      mstore\n        /* \"#utility.yul\":2439:2548   */\n      pop\n      pop\n      jump\t// out\n        /* \"#utility.yul\":2554:2984   */\n    tag_24:\n        /* \"#utility.yul\":2697:2701   */\n      0x00\n        /* \"#utility.yul\":2735:2737   */\n      0x60\n        /* \"#utility.yul\":2724:2733   */\n      dup3\n        /* \"#utility.yul\":2720:2738   */\n      add\n        /* \"#utility.yul\":2712:2738   */\n      swap1\n      pop\n        /* \"#utility.yul\":2748:2819   */\n      tag_170\n        /* \"#utility.yul\":2816:2817   */\n      0x00\n        /* \"#utility.yul\":2805:2814   */\n      dup4\n        /* \"#utility.yul\":2801:2818   */\n      add\n        /* \"#utility.yul\":2792:2798   */\n      dup7\n        /* \"#utility.yul\":2748:2819   */\n      tag_111\n      jump\t// in\n    tag_170:\n        /* \"#utility.yul\":2829:2901   */\n      tag_171\n        /* \"#utility.yul\":2897:2899   */\n      0x20\n        /* \"#utility.yul\":2886:2895   */\n      dup4\n        /* \"#utility.yul\":2882:2900   */\n      add\n        /* \"#utility.yul\":2873:2879   */\n      dup6\n        /* \"#utility.yul\":2829:2901   */\n      tag_114\n      jump\t// in\n    tag_171:\n        /* \"#utility.yul\":2911:2977   */\n      tag_172\n        /* \"#utility.yul\":2973:2975   */\n      0x40\n        /* \"#utility.yul\":2962:2971   */\n      dup4\n        /* \"#utility.yul\":2958:2976   */\n      add\n        /* \"#utility.yul\":2949:2955   */\n      dup5\n        /* \"#utility.yul\":2911:2977   */\n      tag_116\n      jump\t// in\n    tag_172:\n        /* \"#utility.yul\":2554:2984   */\n      swap5\n      swap4\n      pop\n      pop\n      pop\n      pop\n      jump\t// out\n        /* \"#utility.yul\":2990:3212   */\n    tag_33:\n        /* \"#utility.yul\":3083:3087   */\n      0x00\n        /* \"#utility.yul\":3121:3123   */\n      0x20\n        /* \"#utility.yul\":3110:3119   */\n      dup3\n        /* \"#utility.yul\":3106:3124   */\n      add\n        /* \"#utility.yul\":3098:3124   */\n      swap1\n      pop\n        /* \"#utility.yul\":3134:3205   */\n      tag_174\n        /* \"#utility.yul\":3202:3203   */\n      0x00\n        /* \"#utility.yul\":3191:3200   */\n      dup4\n        /* \"#utility.yul\":3187:3204   */\n      add\n        /* \"#utility.yul\":3178:3184   */\n      dup5\n        /* \"#utility.yul\":3134:3205   */\n      tag_114\n      jump\t// in\n    tag_174:\n        /* \"#utility.yul\":2990:3212   */\n      swap3\n      swap2\n      pop\n      pop\n      jump\t// out\n        /* \"#utility.yul\":3218:3387   */\n    tag_117:\n        /* \"#utility.yul\":3302:3313   */\n      0x00\n        /* \"#utility.yul\":3336:3342   */\n      dup3\n        /* \"#utility.yul\":3331:3334   */\n      dup3\n        /* \"#utility.yul\":3324:3343   */\n      mstore\n        /* \"#utility.yul\":3376:3380   */\n      0x20\n        /* \"#utility.yul\":3371:3374   */\n      dup3\n        /* \"#utility.yul\":3367:3381   */\n      add\n        /* \"#utility.yul\":3352:3381   */\n      swap1\n      pop\n        /* \"#utility.yul\":3218:3387   */\n      swap3\n      swap2\n      pop\n      pop\n      jump\t// out\n        /* \"#utility.yul\":3393:3569   */\n    tag_118:\n        /* \"#utility.yul\":3533:3561   */\n      0x496e76616c696420526563656976657227732041646472657373000000000000\n        /* \"#utility.yul\":3529:3530   */\n      0x00\n        /* \"#utility.yul\":3521:3527   */\n      dup3\n        /* \"#utility.yul\":3517:3531   */\n      add\n        /* \"#utility.yul\":3510:3562   */\n      mstore\n        /* \"#utility.yul\":3393:3569   */\n      pop\n      jump\t// out\n        /* \"#utility.yul\":3575:3941   */\n    tag_119:\n        /* \"#utility.yul\":3717:3720   */\n      0x00\n        /* \"#utility.yul\":3738:3805   */\n      tag_178\n        /* \"#utility.yul\":3802:3804   */\n      0x1a\n        /* \"#utility.yul\":3797:3800   */\n      dup4\n        /* \"#utility.yul\":3738:3805   */\n      tag_117\n      jump\t// in\n    tag_178:\n        /* \"#utility.yul\":3731:3805   */\n      swap2\n      pop\n        /* \"#utility.yul\":3814:3907   */\n      tag_179\n        /* \"#utility.yul\":3903:3906   */\n      dup3\n        /* \"#utility.yul\":3814:3907   */\n      tag_118\n      jump\t// in\n    tag_179:\n        /* \"#utility.yul\":3932:3934   */\n      0x20\n        /* \"#utility.yul\":3927:3930   */\n      dup3\n        /* \"#utility.yul\":3923:3935   */\n      add\n        /* \"#utility.yul\":3916:3935   */\n      swap1\n      pop\n        /* \"#utility.yul\":3575:3941   */\n      swap2\n      swap1\n      pop\n      jump\t// out\n        /* \"#utility.yul\":3947:4366   */\n    tag_42:\n        /* \"#utility.yul\":4113:4117   */\n      0x00\n        /* \"#utility.yul\":4151:4153   */\n      0x20\n        /* \"#utility.yul\":4140:4149   */\n      dup3\n        /* \"#utility.yul\":4136:4154   */\n      add\n        /* \"#utility.yul\":4128:4154   */\n      swap1\n      pop\n        /* \"#utility.yul\":4200:4209   */\n      dup2\n        /* \"#utility.yul\":4194:4198   */\n      dup2\n        /* \"#utility.yul\":4190:4210   */\n      sub\n        /* \"#utility.yul\":4186:4187   */\n      0x00\n        /* \"#utility.yul\":4175:4184   */\n      dup4\n        /* \"#utility.yul\":4171:4188   */\n      add\n        /* \"#utility.yul\":4164:4211   */\n      mstore\n        /* \"#utility.yul\":4228:4359   */\n      tag_181\n        /* \"#utility.yul\":4354:4358   */\n      dup2\n        /* \"#utility.yul\":4228:4359   */\n      tag_119\n      jump\t// in\n    tag_181:\n        /* \"#utility.yul\":4220:4359   */\n      swap1\n      pop\n        /* \"#utility.yul\":3947:4366   */\n      swap2\n      swap1\n      pop\n      jump\t// out\n        /* \"#utility.yul\":4372:4597   */\n    tag_120:\n        /* \"#utility.yul\":4512:4546   */\n      0x5472616e7366657220416d6f756e74204d757374204265204772656174657220\n        /* \"#utility.yul\":4508:4509   */\n      0x00\n        /* \"#utility.yul\":4500:4506   */\n      dup3\n        /* \"#utility.yul\":4496:4510   */\n      add\n        /* \"#utility.yul\":4489:4547   */\n      mstore\n        /* \"#utility.yul\":4581:4589   */\n      0x5468616e20300000000000000000000000000000000000000000000000000000\n        /* \"#utility.yul\":4576:4578   */\n      0x20\n        /* \"#utility.yul\":4568:4574   */\n      dup3\n        /* \"#utility.yul\":4564:4579   */\n      add\n        /* \"#utility.yul\":4557:4590   */\n      mstore\n        /* \"#utility.yul\":4372:4597   */\n      pop\n      jump\t// out\n        /* \"#utility.yul\":4603:4969   */\n    tag_121:\n        /* \"#utility.yul\":4745:4748   */\n      0x00\n        /* \"#utility.yul\":4766:4833   */\n      tag_184\n        /* \"#utility.yul\":4830:4832   */\n      0x26\n        /* \"#utility.yul\":4825:4828   */\n      dup4\n        /* \"#utility.yul\":4766:4833   */\n      tag_117\n      jump\t// in\n    tag_184:\n        /* \"#utility.yul\":4759:4833   */\n      swap2\n      pop\n        /* \"#utility.yul\":4842:4935   */\n      tag_185\n        /* \"#utility.yul\":4931:4934   */\n      dup3\n        /* \"#utility.yul\":4842:4935   */\n      tag_120\n      jump\t// in\n    tag_185:\n        /* \"#utility.yul\":4960:4962   */\n      0x40\n        /* \"#utility.yul\":4955:4958   */\n      dup3\n        /* \"#utility.yul\":4951:4963   */\n      add\n        /* \"#utility.yul\":4944:4963   */\n      swap1\n      pop\n        /* \"#utility.yul\":4603:4969   */\n      swap2\n      swap1\n      pop\n      jump\t// out\n        /* \"#utility.yul\":4975:5394   */\n    tag_45:\n        /* \"#utility.yul\":5141:5145   */\n      0x00\n        /* \"#utility.yul\":5179:5181   */\n      0x20\n        /* \"#utility.yul\":5168:5177   */\n      dup3\n        /* \"#utility.yul\":5164:5182   */\n      add\n        /* \"#utility.yul\":5156:5182   */\n      swap1\n      pop\n        /* \"#utility.yul\":5228:5237   */\n      dup2\n        /* \"#utility.yul\":5222:5226   */\n      dup2\n        /* \"#utility.yul\":5218:5238   */\n      sub\n        /* \"#utility.yul\":5214:5215   */\n      0x00\n        /* \"#utility.yul\":5203:5212   */\n      dup4\n        /* \"#utility.yul\":5199:5216   */\n      add\n        /* \"#utility.yul\":5192:5239   */\n      mstore\n        /* \"#utility.yul\":5256:5387   */\n      tag_187\n        /* \"#utility.yul\":5382:5386   */\n      dup2\n        /* \"#utility.yul\":5256:5387   */\n      tag_121\n      jump\t// in\n    tag_187:\n        /* \"#utility.yul\":5248:5387   */\n      swap1\n      pop\n        /* \"#utility.yul\":4975:5394   */\n      swap2\n      swap1\n      pop\n      jump\t// out\n        /* \"#utility.yul\":5400:5953   */\n    tag_48:\n        /* \"#utility.yul\":5577:5581   */\n      0x00\n        /* \"#utility.yul\":5615:5618   */\n      0x80\n        /* \"#utility.yul\":5604:5613   */\n      dup3\n        /* \"#utility.yul\":5600:5619   */\n      add\n        /* \"#utility.yul\":5592:5619   */\n      swap1\n      pop\n        /* \"#utility.yul\":5629:5700   */\n      tag_189\n        /* \"#utility.yul\":5697:5698   */\n      0x00\n        /* \"#utility.yul\":5686:5695   */\n      dup4\n        /* \"#utility.yul\":5682:5699   */\n      add\n        /* \"#utility.yul\":5673:5679   */\n      dup8\n        /* \"#utility.yul\":5629:5700   */\n      tag_114\n      jump\t// in\n    tag_189:\n        /* \"#utility.yul\":5710:5782   */\n      tag_190\n        /* \"#utility.yul\":5778:5780   */\n      0x20\n        /* \"#utility.yul\":5767:5776   */\n      dup4\n        /* \"#utility.yul\":5763:5781   */\n      add\n        /* \"#utility.yul\":5754:5760   */\n      dup7\n        /* \"#utility.yul\":5710:5782   */\n      tag_111\n      jump\t// in\n    tag_190:\n        /* \"#utility.yul\":5792:5864   */\n      tag_191\n        /* \"#utility.yul\":5860:5862   */\n      0x40\n        /* \"#utility.yul\":5849:5858   */\n      dup4\n        /* \"#utility.yul\":5845:5863   */\n      add\n        /* \"#utility.yul\":5836:5842   */\n      dup6\n        /* \"#utility.yul\":5792:5864   */\n      tag_111\n      jump\t// in\n    tag_191:\n        /* \"#utility.yul\":5874:5946   */\n      tag_192\n        /* \"#utility.yul\":5942:5944   */\n      0x60\n        /* \"#utility.yul\":5931:5940   */\n      dup4\n        /* \"#utility.yul\":5927:5945   */\n      add\n        /* \"#utility.yul\":5918:5924   */\n      dup5\n        /* \"#utility.yul\":5874:5946   */\n      tag_114\n      jump\t// in\n    tag_192:\n        /* \"#utility.yul\":5400:5953   */\n      swap6\n      swap5\n      pop\n      pop\n      pop\n      pop\n      pop\n      jump\t// out\n        /* \"#utility.yul\":5959:6131   */\n    tag_122:\n        /* \"#utility.yul\":6099:6123   */\n      0x496e76616c6964205472616e73616374696f6e20496400000000000000000000\n        /* \"#utility.yul\":6095:6096   */\n      0x00\n        /* \"#utility.yul\":6087:6093   */\n      dup3\n        /* \"#utility.yul\":6083:6097   */\n      add\n        /* \"#utility.yul\":6076:6124   */\n      mstore\n        /* \"#utility.yul\":5959:6131   */\n      pop\n      jump\t// out\n        /* \"#utility.yul\":6137:6503   */\n    tag_123:\n        /* \"#utility.yul\":6279:6282   */\n      0x00\n        /* \"#utility.yul\":6300:6367   */\n      tag_195\n        /* \"#utility.yul\":6364:6366   */\n      0x16\n        /* \"#utility.yul\":6359:6362   */\n      dup4\n        /* \"#utility.yul\":6300:6367   */\n      tag_117\n      jump\t// in\n    tag_195:\n        /* \"#utility.yul\":6293:6367   */\n      swap2\n      pop\n        /* \"#utility.yul\":6376:6469   */\n      tag_196\n        /* \"#utility.yul\":6465:6468   */\n      dup3\n        /* \"#utility.yul\":6376:6469   */\n      tag_122\n      jump\t// in\n    tag_196:\n        /* \"#utility.yul\":6494:6496   */\n      0x20\n        /* \"#utility.yul\":6489:6492   */\n      dup3\n        /* \"#utility.yul\":6485:6497   */\n      add\n        /* \"#utility.yul\":6478:6497   */\n      swap1\n      pop\n        /* \"#utility.yul\":6137:6503   */\n      swap2\n      swap1\n      pop\n      jump\t// out\n        /* \"#utility.yul\":6509:6928   */\n    tag_54:\n        /* \"#utility.yul\":6675:6679   */\n      0x00\n        /* \"#utility.yul\":6713:6715   */\n      0x20\n        /* \"#utility.yul\":6702:6711   */\n      dup3\n        /* \"#utility.yul\":6698:6716   */\n      add\n        /* \"#utility.yul\":6690:6716   */\n      swap1\n      pop\n        /* \"#utility.yul\":6762:6771   */\n      dup2\n        /* \"#utility.yul\":6756:6760   */\n      dup2\n        /* \"#utility.yul\":6752:6772   */\n      sub\n        /* \"#utility.yul\":6748:6749   */\n      0x00\n        /* \"#utility.yul\":6737:6746   */\n      dup4\n        /* \"#utility.yul\":6733:6750   */\n      add\n        /* \"#utility.yul\":6726:6773   */\n      mstore\n        /* \"#utility.yul\":6790:6921   */\n      tag_198\n        /* \"#utility.yul\":6916:6920   */\n      dup2\n        /* \"#utility.yul\":6790:6921   */\n      tag_123\n      jump\t// in\n    tag_198:\n        /* \"#utility.yul\":6782:6921   */\n      swap1\n      pop\n        /* \"#utility.yul\":6509:6928   */\n      swap2\n      swap1\n      pop\n      jump\t// out\n        /* \"#utility.yul\":6934:7166   */\n    tag_124:\n        /* \"#utility.yul\":7074:7108   */\n      0x5472616e73616374696f6e20497320416c726561647920436f6e6669726d6564\n        /* \"#utility.yul\":7070:7071   */\n      0x00\n        /* \"#utility.yul\":7062:7068   */\n      dup3\n        /* \"#utility.yul\":7058:7072   */\n      add\n        /* \"#utility.yul\":7051:7109   */\n      mstore\n        /* \"#utility.yul\":7143:7158   */\n      0x20427920546865204f776e657200000000000000000000000000000000000000\n        /* \"#utility.yul\":7138:7140   */\n      0x20\n        /* \"#utility.yul\":7130:7136   */\n      dup3\n        /* \"#utility.yul\":7126:7141   */\n      add\n        /* \"#utility.yul\":7119:7159   */\n      mstore\n        /* \"#utility.yul\":6934:7166   */\n      pop\n      jump\t// out\n        /* \"#utility.yul\":7172:7538   */\n    tag_125:\n        /* \"#utility.yul\":7314:7317   */\n      0x00\n        /* \"#utility.yul\":7335:7402   */\n      tag_201\n        /* \"#utility.yul\":7399:7401   */\n      0x2d\n        /* \"#utility.yul\":7394:7397   */\n      dup4\n        /* \"#utility.yul\":7335:7402   */\n      tag_117\n      jump\t// in\n    tag_201:\n        /* \"#utility.yul\":7328:7402   */\n      swap2\n      pop\n        /* \"#utility.yul\":7411:7504   */\n      tag_202\n        /* \"#utility.yul\":7500:7503   */\n      dup3\n        /* \"#utility.yul\":7411:7504   */\n      tag_124\n      jump\t// in\n    tag_202:\n        /* \"#utility.yul\":7529:7531   */\n      0x40\n        /* \"#utility.yul\":7524:7527   */\n      dup3\n        /* \"#utility.yul\":7520:7532   */\n      add\n        /* \"#utility.yul\":7513:7532   */\n      swap1\n      pop\n        /* \"#utility.yul\":7172:7538   */\n      swap2\n      swap1\n      pop\n      jump\t// out\n        /* \"#utility.yul\":7544:7963   */\n    tag_57:\n        /* \"#utility.yul\":7710:7714   */\n      0x00\n        /* \"#utility.yul\":7748:7750   */\n      0x20\n        /* \"#utility.yul\":7737:7746   */\n      dup3\n        /* \"#utility.yul\":7733:7751   */\n      add\n        /* \"#utility.yul\":7725:7751   */\n      swap1\n      pop\n        /* \"#utility.yul\":7797:7806   */\n      dup2\n        /* \"#utility.yul\":7791:7795   */\n      dup2\n        /* \"#utility.yul\":7787:7807   */\n      sub\n        /* \"#utility.yul\":7783:7784   */\n      0x00\n        /* \"#utility.yul\":7772:7781   */\n      dup4\n        /* \"#utility.yul\":7768:7785   */\n      add\n        /* \"#utility.yul\":7761:7808   */\n      mstore\n        /* \"#utility.yul\":7825:7956   */\n      tag_204\n        /* \"#utility.yul\":7951:7955   */\n      dup2\n        /* \"#utility.yul\":7825:7956   */\n      tag_125\n      jump\t// in\n    tag_204:\n        /* \"#utility.yul\":7817:7956   */\n      swap1\n      pop\n        /* \"#utility.yul\":7544:7963   */\n      swap2\n      swap1\n      pop\n      jump\t// out\n        /* \"#utility.yul\":7969:8149   */\n    tag_68:\n        /* \"#utility.yul\":8017:8094   */\n      0x4e487b7100000000000000000000000000000000000000000000000000000000\n        /* \"#utility.yul\":8014:8015   */\n      0x00\n        /* \"#utility.yul\":8007:8095   */\n      mstore\n        /* \"#utility.yul\":8114:8118   */\n      0x32\n        /* \"#utility.yul\":8111:8112   */\n      0x04\n        /* \"#utility.yul\":8104:8119   */\n      mstore\n        /* \"#utility.yul\":8138:8142   */\n      0x24\n        /* \"#utility.yul\":8135:8136   */\n      0x00\n        /* \"#utility.yul\":8128:8143   */\n      revert\n        /* \"#utility.yul\":8155:8336   */\n    tag_126:\n        /* \"#utility.yul\":8295:8328   */\n      0x5472616e73616374696f6e20697320616c726561647920657865637574656400\n        /* \"#utility.yul\":8291:8292   */\n      0x00\n        /* \"#utility.yul\":8283:8289   */\n      dup3\n        /* \"#utility.yul\":8279:8293   */\n      add\n        /* \"#utility.yul\":8272:8329   */\n      mstore\n        /* \"#utility.yul\":8155:8336   */\n      pop\n      jump\t// out\n        /* \"#utility.yul\":8342:8708   */\n    tag_127:\n        /* \"#utility.yul\":8484:8487   */\n      0x00\n        /* \"#utility.yul\":8505:8572   */\n      tag_208\n        /* \"#utility.yul\":8569:8571   */\n      0x1f\n        /* \"#utility.yul\":8564:8567   */\n      dup4\n        /* \"#utility.yul\":8505:8572   */\n      tag_117\n      jump\t// in\n    tag_208:\n        /* \"#utility.yul\":8498:8572   */\n      swap2\n      pop\n        /* \"#utility.yul\":8581:8674   */\n      tag_209\n        /* \"#utility.yul\":8670:8673   */\n      dup3\n        /* \"#utility.yul\":8581:8674   */\n      tag_126\n      jump\t// in\n    tag_209:\n        /* \"#utility.yul\":8699:8701   */\n      0x20\n        /* \"#utility.yul\":8694:8697   */\n      dup3\n        /* \"#utility.yul\":8690:8702   */\n      add\n        /* \"#utility.yul\":8683:8702   */\n      swap1\n      pop\n        /* \"#utility.yul\":8342:8708   */\n      swap2\n      swap1\n      pop\n      jump\t// out\n        /* \"#utility.yul\":8714:9133   */\n    tag_72:\n        /* \"#utility.yul\":8880:8884   */\n      0x00\n        /* \"#utility.yul\":8918:8920   */\n      0x20\n        /* \"#utility.yul\":8907:8916   */\n      dup3\n        /* \"#utility.yul\":8903:8921   */\n      add\n        /* \"#utility.yul\":8895:8921   */\n      swap1\n      pop\n        /* \"#utility.yul\":8967:8976   */\n      dup2\n        /* \"#utility.yul\":8961:8965   */\n      dup2\n        /* \"#utility.yul\":8957:8977   */\n      sub\n        /* \"#utility.yul\":8953:8954   */\n      0x00\n        /* \"#utility.yul\":8942:8951   */\n      dup4\n        /* \"#utility.yul\":8938:8955   */\n      add\n        /* \"#utility.yul\":8931:8978   */\n      mstore\n        /* \"#utility.yul\":8995:9126   */\n      tag_211\n        /* \"#utility.yul\":9121:9125   */\n      dup2\n        /* \"#utility.yul\":8995:9126   */\n      tag_127\n      jump\t// in\n    tag_211:\n        /* \"#utility.yul\":8987:9126   */\n      swap1\n      pop\n        /* \"#utility.yul\":8714:9133   */\n      swap2\n      swap1\n      pop\n      jump\t// out\n        /* \"#utility.yul\":9139:9286   */\n    tag_128:\n        /* \"#utility.yul\":9240:9251   */\n      0x00\n        /* \"#utility.yul\":9277:9280   */\n      dup2\n        /* \"#utility.yul\":9262:9280   */\n      swap1\n      pop\n        /* \"#utility.yul\":9139:9286   */\n      swap3\n      swap2\n      pop\n      pop\n      jump\t// out\n        /* \"#utility.yul\":9292:9406   */\n    tag_129:\n      pop\n      jump\t// out\n        /* \"#utility.yul\":9412:9810   */\n    tag_130:\n        /* \"#utility.yul\":9571:9574   */\n      0x00\n        /* \"#utility.yul\":9592:9675   */\n      tag_215\n        /* \"#utility.yul\":9673:9674   */\n      0x00\n        /* \"#utility.yul\":9668:9671   */\n      dup4\n        /* \"#utility.yul\":9592:9675   */\n      tag_128\n      jump\t// in\n    tag_215:\n        /* \"#utility.yul\":9585:9675   */\n      swap2\n      pop\n        /* \"#utility.yul\":9684:9777   */\n      tag_216\n        /* \"#utility.yul\":9773:9776   */\n      dup3\n        /* \"#utility.yul\":9684:9777   */\n      tag_129\n      jump\t// in\n    tag_216:\n        /* \"#utility.yul\":9802:9803   */\n      0x00\n        /* \"#utility.yul\":9797:9800   */\n      dup3\n        /* \"#utility.yul\":9793:9804   */\n      add\n        /* \"#utility.yul\":9786:9804   */\n      swap1\n      pop\n        /* \"#utility.yul\":9412:9810   */\n      swap2\n      swap1\n      pop\n      jump\t// out\n        /* \"#utility.yul\":9816:10195   */\n    tag_80:\n        /* \"#utility.yul\":10000:10003   */\n      0x00\n        /* \"#utility.yul\":10022:10169   */\n      tag_218\n        /* \"#utility.yul\":10165:10168   */\n      dup3\n        /* \"#utility.yul\":10022:10169   */\n      tag_130\n      jump\t// in\n    tag_218:\n        /* \"#utility.yul\":10015:10169   */\n      swap2\n      pop\n        /* \"#utility.yul\":10186:10189   */\n      dup2\n        /* \"#utility.yul\":10179:10189   */\n      swap1\n      pop\n        /* \"#utility.yul\":9816:10195   */\n      swap2\n      swap1\n      pop\n      jump\t// out\n        /* \"#utility.yul\":10201:10379   */\n    tag_131:\n        /* \"#utility.yul\":10341:10371   */\n      0x5472616e73616374696f6e20457865637574696f6e204661696c656400000000\n        /* \"#utility.yul\":10337:10338   */\n      0x00\n        /* \"#utility.yul\":10329:10335   */\n      dup3\n        /* \"#utility.yul\":10325:10339   */\n      add\n        /* \"#utility.yul\":10318:10372   */\n      mstore\n        /* \"#utility.yul\":10201:10379   */\n      pop\n      jump\t// out\n        /* \"#utility.yul\":10385:10751   */\n    tag_132:\n        /* \"#utility.yul\":10527:10530   */\n      0x00\n        /* \"#utility.yul\":10548:10615   */\n      tag_221\n        /* \"#utility.yul\":10612:10614   */\n      0x1c\n        /* \"#utility.yul\":10607:10610   */\n      dup4\n        /* \"#utility.yul\":10548:10615   */\n      tag_117\n      jump\t// in\n    tag_221:\n        /* \"#utility.yul\":10541:10615   */\n      swap2\n      pop\n        /* \"#utility.yul\":10624:10717   */\n      tag_222\n        /* \"#utility.yul\":10713:10716   */\n      dup3\n        /* \"#utility.yul\":10624:10717   */\n      tag_131\n      jump\t// in\n    tag_222:\n        /* \"#utility.yul\":10742:10744   */\n      0x20\n        /* \"#utility.yul\":10737:10740   */\n      dup3\n        /* \"#utility.yul\":10733:10745   */\n      add\n        /* \"#utility.yul\":10726:10745   */\n      swap1\n      pop\n        /* \"#utility.yul\":10385:10751   */\n      swap2\n      swap1\n      pop\n      jump\t// out\n        /* \"#utility.yul\":10757:11176   */\n    tag_86:\n        /* \"#utility.yul\":10923:10927   */\n      0x00\n        /* \"#utility.yul\":10961:10963   */\n      0x20\n        /* \"#utility.yul\":10950:10959   */\n      dup3\n        /* \"#utility.yul\":10946:10964   */\n      add\n        /* \"#utility.yul\":10938:10964   */\n      swap1\n      pop\n        /* \"#utility.yul\":11010:11019   */\n      dup2\n        /* \"#utility.yul\":11004:11008   */\n      dup2\n        /* \"#utility.yul\":11000:11020   */\n      sub\n        /* \"#utility.yul\":10996:10997   */\n      0x00\n        /* \"#utility.yul\":10985:10994   */\n      dup4\n        /* \"#utility.yul\":10981:10998   */\n      add\n        /* \"#utility.yul\":10974:11021   */\n      mstore\n        /* \"#utility.yul\":11038:11169   */\n      tag_224\n        /* \"#utility.yul\":11164:11168   */\n      dup2\n        /* \"#utility.yul\":11038:11169   */\n      tag_132\n      jump\t// in\n    tag_224:\n        /* \"#utility.yul\":11030:11169   */\n      swap1\n      pop\n        /* \"#utility.yul\":10757:11176   */\n      swap2\n      swap1\n      pop\n      jump\t// out\n        /* \"#utility.yul\":11182:11362   */\n    tag_133:\n        /* \"#utility.yul\":11230:11307   */\n      0x4e487b7100000000000000000000000000000000000000000000000000000000\n        /* \"#utility.yul\":11227:11228   */\n      0x00\n        /* \"#utility.yul\":11220:11308   */\n      mstore\n        /* \"#utility.yul\":11327:11331   */\n      0x11\n        /* \"#utility.yul\":11324:11325   */\n      0x04\n        /* \"#utility.yul\":11317:11332   */\n      mstore\n        /* \"#utility.yul\":11351:11355   */\n      0x24\n        /* \"#utility.yul\":11348:11349   */\n      0x00\n        /* \"#utility.yul\":11341:11356   */\n      revert\n        /* \"#utility.yul\":11368:11601   */\n    tag_102:\n        /* \"#utility.yul\":11407:11410   */\n      0x00\n        /* \"#utility.yul\":11430:11454   */\n      tag_227\n        /* \"#utility.yul\":11448:11453   */\n      dup3\n        /* \"#utility.yul\":11430:11454   */\n      tag_106\n      jump\t// in\n    tag_227:\n        /* \"#utility.yul\":11421:11454   */\n      swap2\n      pop\n        /* \"#utility.yul\":11476:11542   */\n      0xffffffffffffffffffffffffffffffffffffffffffffffffffffffffffffffff\n        /* \"#utility.yul\":11469:11474   */\n      dup3\n        /* \"#utility.yul\":11466:11543   */\n      sub\n        /* \"#utility.yul\":11463:11566   */\n      tag_228\n      jumpi\n        /* \"#utility.yul\":11546:11564   */\n      tag_229\n      tag_133\n      jump\t// in\n    tag_229:\n        /* \"#utility.yul\":11463:11566   */\n    tag_228:\n        /* \"#utility.yul\":11593:11594   */\n      0x01\n        /* \"#utility.yul\":11586:11591   */\n      dup3\n        /* \"#utility.yul\":11582:11595   */\n      add\n        /* \"#utility.yul\":11575:11595   */\n      swap1\n      pop\n        /* \"#utility.yul\":11368:11601   */\n      swap2\n      swap1\n      pop\n      jump\t// out\n\n    auxdata: 0xa2646970667358221220c71793526d9ec6abee2e8ed6270d83709a421efcef1c72857d9d91bace734c7764736f6c63430008220033\n}\n",
				"bytecode": {
					"linkReferences": {},
					"object": "608060405234801561000f575f5ffd5b50604051611460380380611460833981810160405281019061003191906103df565b6001825111610075576040517f08c379a000000000000000000000000000000000000000000000000000000000815260040161006c906104b9565b60405180910390fd5b60028110158015610087575081518111155b6100c6576040517f08c379a00000000000000000000000000000000000000000000000000000000081526004016100bd90610547565b60405180910390fd5b5f5f90505b82518110156101e2575f73ffffffffffffffffffffffffffffffffffffffff168382815181106100fe576100fd610565565b5b602002602001015173ffffffffffffffffffffffffffffffffffffffff160361015c576040517f08c379a0000000000000000000000000000000000000000000000000000000008152600401610153906105dc565b60405180910390fd5b5f8382815181106101705761016f610565565b5b6020026020010151908060018154018082558091505060019003905f5260205f20015f9091909190916101000a81548173ffffffffffffffffffffffffffffffffffffffff021916908373ffffffffffffffffffffffffffffffffffffffff16021790555080806001019150506100cb565b508060018190555050506105fa565b5f604051905090565b5f5ffd5b5f5ffd5b5f5ffd5b5f601f19601f8301169050919050565b7f4e487b71000000000000000000000000000000000000000000000000000000005f52604160045260245ffd5b61024c82610206565b810181811067ffffffffffffffff8211171561026b5761026a610216565b5b80604052505050565b5f61027d6101f1565b90506102898282610243565b919050565b5f67ffffffffffffffff8211156102a8576102a7610216565b5b602082029050602081019050919050565b5f5ffd5b5f73ffffffffffffffffffffffffffffffffffffffff82169050919050565b5f6102e6826102bd565b9050919050565b6102f6816102dc565b8114610300575f5ffd5b50565b5f81519050610311816102ed565b92915050565b5f6103296103248461028e565b610274565b9050808382526020820190506020840283018581111561034c5761034b6102b9565b5b835b8181101561037557806103618882610303565b84526020840193505060208101905061034e565b5050509392505050565b5f82601f83011261039357610392610202565b5b81516103a3848260208601610317565b91505092915050565b5f819050919050565b6103be816103ac565b81146103c8575f5ffd5b50565b5f815190506103d9816103b5565b92915050565b5f5f604083850312156103f5576103f46101fa565b5b5f83015167ffffffffffffffff811115610412576104116101fe565b5b61041e8582860161037f565b925050602061042f858286016103cb565b9150509250929050565b5f82825260208201905092915050565b7f4f6e77657273205265717569726564204d7573742042652047726561746572205f8201527f7468616e20310000000000000000000000000000000000000000000000000000602082015250565b5f6104a3602683610439565b91506104ae82610449565b604082019050919050565b5f6020820190508181035f8301526104d081610497565b9050919050565b7f4e756d206f6620636f6e6669726d6174696f6e7320617265206e6f7420696e205f8201527f73796e63207769746820746865206e756d626572206f66206f776e6572730000602082015250565b5f610531603e83610439565b915061053c826104d7565b604082019050919050565b5f6020820190508181035f83015261055e81610525565b9050919050565b7f4e487b71000000000000000000000000000000000000000000000000000000005f52603260045260245ffd5b7f496e76616c6964204f776e6572000000000000000000000000000000000000005f82015250565b5f6105c6600d83610439565b91506105d182610592565b602082019050919050565b5f6020820190508181035f8301526105f3816105ba565b9050919050565b610e59806106075f395ff3fe608060405260043610610054575f3560e01c8063025e7c271461005857806366d651db146100945780639ace38c2146100b0578063c01a8c84146100ee578063d0549b8514610116578063ee22610b14610140575b5f5ffd5b348015610063575f5ffd5b5061007e600480360381019061007991906108e3565b61015c565b60405161008b919061094d565b60405180910390f35b6100ae60048036038101906100a99190610990565b610196565b005b3480156100bb575f5ffd5b506100d660048036038101906100d191906108e3565b61035a565b6040516100e5939291906109e4565b60405180910390f35b3480156100f9575f5ffd5b50610114600480360381019061010f91906108e3565b6103ba565b005b348015610121575f5ffd5b5061012a610550565b6040516101379190610a19565b60405180910390f35b61015a600480360381019061015591906108e3565b610556565b005b5f818154811061016a575f80fd5b905f5260205f20015f915054906101000a900473ffffffffffffffffffffffffffffffffffffffff1681565b5f73ffffffffffffffffffffffffffffffffffffffff168173ffffffffffffffffffffffffffffffffffffffff1603610204576040517f08c379a00000000000000000000000000000000000000000000000000000000081526004016101fb90610a8c565b60405180910390fd5b5f3411610246576040517f08c379a000000000000000000000000000000000000000000000000000000000815260040161023d90610b1a565b60405180910390fd5b5f6002805490509050600260405180606001604052808473ffffffffffffffffffffffffffffffffffffffff1681526020013481526020015f1515815250908060018154018082558091505060019003905f5260205f2090600302015f909190919091505f820151815f015f6101000a81548173ffffffffffffffffffffffffffffffffffffffff021916908373ffffffffffffffffffffffffffffffffffffffff160217905550602082015181600101556040820151816002015f6101000a81548160ff02191690831515021790555050507f753dcda37efe0bc3675e04e24d1fb08b70681f14675eed4b6e7978495caf2ca08133843460405161034e9493929190610b38565b60405180910390a15050565b60028181548110610369575f80fd5b905f5260205f2090600302015f91509050805f015f9054906101000a900473ffffffffffffffffffffffffffffffffffffffff1690806001015490806002015f9054906101000a900460ff16905083565b6002805490508110610401576040517f08c379a00000000000000000000000000000000000000000000000000000000081526004016103f890610bc5565b60405180910390fd5b60035f8281526020019081526020015f205f3373ffffffffffffffffffffffffffffffffffffffff1673ffffffffffffffffffffffffffffffffffffffff1681526020019081526020015f205f9054906101000a900460ff161561049a576040517f08c379a000000000000000000000000000000000000000000000000000000000815260040161049190610c53565b60405180910390fd5b600160035f8381526020019081526020015f205f3373ffffffffffffffffffffffffffffffffffffffff1673ffffffffffffffffffffffffffffffffffffffff1681526020019081526020015f205f6101000a81548160ff0219169083151502179055507fef524c298d730e7d5714dbe2fce9d4eca7de755a12628704719170afda39678b8160405161052d9190610a19565b60405180910390a161053e8161078f565b1561054d5761054c81610556565b5b50565b60015481565b600280549050811061059d576040517f08c379a000000000000000000000000000000000000000000000000000000000815260040161059490610bc5565b60405180910390fd5b600281815481106105b1576105b0610c71565b5b905f5260205f2090600302016002015f9054906101000a900460ff161561060d576040517f08c379a000000000000000000000000000000000000000000000000000000000815260040161060490610ce8565b60405180910390fd5b5f6002828154811061062257610621610c71565b5b905f5260205f2090600302015f015f9054906101000a900473ffffffffffffffffffffffffffffffffffffffff1673ffffffffffffffffffffffffffffffffffffffff166002838154811061067a57610679610c71565b5b905f5260205f2090600302016001015460405161069690610d33565b5f6040518083038185875af1925050503d805f81146106d0576040519150601f19603f3d011682016040523d82523d5f602084013e6106d5565b606091505b5050905080610719576040517f08c379a000000000000000000000000000000000000000000000000000000000815260040161071090610d91565b60405180910390fd5b60016002838154811061072f5761072e610c71565b5b905f5260205f2090600302016002015f6101000a81548160ff0219169083151502179055507f15ed165a284872ea7017f03df402a0cadfbfab588320ffaf83f160c2f82781c7826040516107839190610a19565b60405180910390a15050565b5f60028054905082106107d7576040517f08c379a00000000000000000000000000000000000000000000000000000000081526004016107ce90610bc5565b60405180910390fd5b5f5f5f90505b5f8054905081101561089d5760035f8581526020019081526020015f205f5f838154811061080e5761080d610c71565b5b905f5260205f20015f9054906101000a900473ffffffffffffffffffffffffffffffffffffffff1673ffffffffffffffffffffffffffffffffffffffff1673ffffffffffffffffffffffffffffffffffffffff1681526020019081526020015f205f9054906101000a900460ff161561089057818061088c90610ddc565b9250505b80806001019150506107dd565b50600154811015915050919050565b5f5ffd5b5f819050919050565b6108c2816108b0565b81146108cc575f5ffd5b50565b5f813590506108dd816108b9565b92915050565b5f602082840312156108f8576108f76108ac565b5b5f610905848285016108cf565b91505092915050565b5f73ffffffffffffffffffffffffffffffffffffffff82169050919050565b5f6109378261090e565b9050919050565b6109478161092d565b82525050565b5f6020820190506109605f83018461093e565b92915050565b61096f8161092d565b8114610979575f5ffd5b50565b5f8135905061098a81610966565b92915050565b5f602082840312156109a5576109a46108ac565b5b5f6109b28482850161097c565b91505092915050565b6109c4816108b0565b82525050565b5f8115159050919050565b6109de816109ca565b82525050565b5f6060820190506109f75f83018661093e565b610a0460208301856109bb565b610a1160408301846109d5565b949350505050565b5f602082019050610a2c5f8301846109bb565b92915050565b5f82825260208201905092915050565b7f496e76616c6964205265636569766572277320416464726573730000000000005f82015250565b5f610a76601a83610a32565b9150610a8182610a42565b602082019050919050565b5f6020820190508181035f830152610aa381610a6a565b9050919050565b7f5472616e7366657220416d6f756e74204d7573742042652047726561746572205f8201527f5468616e20300000000000000000000000000000000000000000000000000000602082015250565b5f610b04602683610a32565b9150610b0f82610aaa565b604082019050919050565b5f6020820190508181035f830152610b3181610af8565b9050919050565b5f608082019050610b4b5f8301876109bb565b610b58602083018661093e565b610b65604083018561093e565b610b7260608301846109bb565b95945050505050565b7f496e76616c6964205472616e73616374696f6e204964000000000000000000005f82015250565b5f610baf601683610a32565b9150610bba82610b7b565b602082019050919050565b5f6020820190508181035f830152610bdc81610ba3565b9050919050565b7f5472616e73616374696f6e20497320416c726561647920436f6e6669726d65645f8201527f20427920546865204f776e657200000000000000000000000000000000000000602082015250565b5f610c3d602d83610a32565b9150610c4882610be3565b604082019050919050565b5f6020820190508181035f830152610c6a81610c31565b9050919050565b7f4e487b71000000000000000000000000000000000000000000000000000000005f52603260045260245ffd5b7f5472616e73616374696f6e20697320616c7265616479206578656375746564005f82015250565b5f610cd2601f83610a32565b9150610cdd82610c9e565b602082019050919050565b5f6020820190508181035f830152610cff81610cc6565b9050919050565b5f81905092915050565b50565b5f610d1e5f83610d06565b9150610d2982610d10565b5f82019050919050565b5f610d3d82610d13565b9150819050919050565b7f5472616e73616374696f6e20457865637574696f6e204661696c6564000000005f82015250565b5f610d7b601c83610a32565b9150610d8682610d47565b602082019050919050565b5f6020820190508181035f830152610da881610d6f565b9050919050565b7f4e487b71000000000000000000000000000000000000000000000000000000005f52601160045260245ffd5b5f610de6826108b0565b91507fffffffffffffffffffffffffffffffffffffffffffffffffffffffffffffffff8203610e1857610e17610daf565b5b60018201905091905056fea2646970667358221220c71793526d9ec6abee2e8ed6270d83709a421efcef1c72857d9d91bace734c7764736f6c63430008220033",
					"opcodes": "PUSH1 0x80 PUSH1 0x40 MSTORE CALLVALUE DUP1 ISZERO PUSH2 0xF JUMPI PUSH0 PUSH0 REVERT JUMPDEST POP PUSH1 0x40 MLOAD PUSH2 0x1460 CODESIZE SUB DUP1 PUSH2 0x1460 DUP4 CODECOPY DUP2 DUP2 ADD PUSH1 0x40 MSTORE DUP2 ADD SWAP1 PUSH2 0x31 SWAP2 SWAP1 PUSH2 0x3DF JUMP JUMPDEST PUSH1 0x1 DUP3 MLOAD GT PUSH2 0x75 JUMPI PUSH1 0x40 MLOAD PUSH32 0x8C379A000000000000000000000000000000000000000000000000000000000 DUP2 MSTORE PUSH1 0x4 ADD PUSH2 0x6C SWAP1 PUSH2 0x4B9 JUMP JUMPDEST PUSH1 0x40 MLOAD DUP1 SWAP2 SUB SWAP1 REVERT JUMPDEST PUSH1 0x2 DUP2 LT ISZERO DUP1 ISZERO PUSH2 0x87 JUMPI POP DUP2 MLOAD DUP2 GT ISZERO JUMPDEST PUSH2 0xC6 JUMPI PUSH1 0x40 MLOAD PUSH32 0x8C379A000000000000000000000000000000000000000000000000000000000 DUP2 MSTORE PUSH1 0x4 ADD PUSH2 0xBD SWAP1 PUSH2 0x547 JUMP JUMPDEST PUSH1 0x40 MLOAD DUP1 SWAP2 SUB SWAP1 REVERT JUMPDEST PUSH0 PUSH0 SWAP1 POP JUMPDEST DUP3 MLOAD DUP2 LT ISZERO PUSH2 0x1E2 JUMPI PUSH0 PUSH20 0xFFFFFFFFFFFFFFFFFFFFFFFFFFFFFFFFFFFFFFFF AND DUP4 DUP3 DUP2 MLOAD DUP2 LT PUSH2 0xFE JUMPI PUSH2 0xFD PUSH2 0x565 JUMP JUMPDEST JUMPDEST PUSH1 0x20 MUL PUSH1 0x20 ADD ADD MLOAD PUSH20 0xFFFFFFFFFFFFFFFFFFFFFFFFFFFFFFFFFFFFFFFF AND SUB PUSH2 0x15C JUMPI PUSH1 0x40 MLOAD PUSH32 0x8C379A000000000000000000000000000000000000000000000000000000000 DUP2 MSTORE PUSH1 0x4 ADD PUSH2 0x153 SWAP1 PUSH2 0x5DC JUMP JUMPDEST PUSH1 0x40 MLOAD DUP1 SWAP2 SUB SWAP1 REVERT JUMPDEST PUSH0 DUP4 DUP3 DUP2 MLOAD DUP2 LT PUSH2 0x170 JUMPI PUSH2 0x16F PUSH2 0x565 JUMP JUMPDEST JUMPDEST PUSH1 0x20 MUL PUSH1 0x20 ADD ADD MLOAD SWAP1 DUP1 PUSH1 0x1 DUP2 SLOAD ADD DUP1 DUP3 SSTORE DUP1 SWAP2 POP POP PUSH1 0x1 SWAP1 SUB SWAP1 PUSH0 MSTORE PUSH1 0x20 PUSH0 KECCAK256 ADD PUSH0 SWAP1 SWAP2 SWAP1 SWAP2 SWAP1 SWAP2 PUSH2 0x100 EXP DUP2 SLOAD DUP2 PUSH20 0xFFFFFFFFFFFFFFFFFFFFFFFFFFFFFFFFFFFFFFFF MUL NOT AND SWAP1 DUP4 PUSH20 0xFFFFFFFFFFFFFFFFFFFFFFFFFFFFFFFFFFFFFFFF AND MUL OR SWAP1 SSTORE POP DUP1 DUP1 PUSH1 0x1 ADD SWAP2 POP POP PUSH2 0xCB JUMP JUMPDEST POP DUP1 PUSH1 0x1 DUP2 SWAP1 SSTORE POP POP POP PUSH2 0x5FA JUMP JUMPDEST PUSH0 PUSH1 0x40 MLOAD SWAP1 POP SWAP1 JUMP JUMPDEST PUSH0 PUSH0 REVERT JUMPDEST PUSH0 PUSH0 REVERT JUMPDEST PUSH0 PUSH0 REVERT JUMPDEST PUSH0 PUSH1 0x1F NOT PUSH1 0x1F DUP4 ADD AND SWAP1 POP SWAP2 SWAP1 POP JUMP JUMPDEST PUSH32 0x4E487B7100000000000000000000000000000000000000000000000000000000 PUSH0 MSTORE PUSH1 0x41 PUSH1 0x4 MSTORE PUSH1 0x24 PUSH0 REVERT JUMPDEST PUSH2 0x24C DUP3 PUSH2 0x206 JUMP JUMPDEST DUP2 ADD DUP2 DUP2 LT PUSH8 0xFFFFFFFFFFFFFFFF DUP3 GT OR ISZERO PUSH2 0x26B JUMPI PUSH2 0x26A PUSH2 0x216 JUMP JUMPDEST JUMPDEST DUP1 PUSH1 0x40 MSTORE POP POP POP JUMP JUMPDEST PUSH0 PUSH2 0x27D PUSH2 0x1F1 JUMP JUMPDEST SWAP1 POP PUSH2 0x289 DUP3 DUP3 PUSH2 0x243 JUMP JUMPDEST SWAP2 SWAP1 POP JUMP JUMPDEST PUSH0 PUSH8 0xFFFFFFFFFFFFFFFF DUP3 GT ISZERO PUSH2 0x2A8 JUMPI PUSH2 0x2A7 PUSH2 0x216 JUMP JUMPDEST JUMPDEST PUSH1 0x20 DUP3 MUL SWAP1 POP PUSH1 0x20 DUP2 ADD SWAP1 POP SWAP2 SWAP1 POP JUMP JUMPDEST PUSH0 PUSH0 REVERT JUMPDEST PUSH0 PUSH20 0xFFFFFFFFFFFFFFFFFFFFFFFFFFFFFFFFFFFFFFFF DUP3 AND SWAP1 POP SWAP2 SWAP1 POP JUMP JUMPDEST PUSH0 PUSH2 0x2E6 DUP3 PUSH2 0x2BD JUMP JUMPDEST SWAP1 POP SWAP2 SWAP1 POP JUMP JUMPDEST PUSH2 0x2F6 DUP2 PUSH2 0x2DC JUMP JUMPDEST DUP2 EQ PUSH2 0x300 JUMPI PUSH0 PUSH0 REVERT JUMPDEST POP JUMP JUMPDEST PUSH0 DUP2 MLOAD SWAP1 POP PUSH2 0x311 DUP2 PUSH2 0x2ED JUMP JUMPDEST SWAP3 SWAP2 POP POP JUMP JUMPDEST PUSH0 PUSH2 0x329 PUSH2 0x324 DUP5 PUSH2 0x28E JUMP JUMPDEST PUSH2 0x274 JUMP JUMPDEST SWAP1 POP DUP1 DUP4 DUP3 MSTORE PUSH1 0x20 DUP3 ADD SWAP1 POP PUSH1 0x20 DUP5 MUL DUP4 ADD DUP6 DUP2 GT ISZERO PUSH2 0x34C JUMPI PUSH2 0x34B PUSH2 0x2B9 JUMP JUMPDEST JUMPDEST DUP4 JUMPDEST DUP2 DUP2 LT ISZERO PUSH2 0x375 JUMPI DUP1 PUSH2 0x361 DUP9 DUP3 PUSH2 0x303 JUMP JUMPDEST DUP5 MSTORE PUSH1 0x20 DUP5 ADD SWAP4 POP POP PUSH1 0x20 DUP2 ADD SWAP1 POP PUSH2 0x34E JUMP JUMPDEST POP POP POP SWAP4 SWAP3 POP POP POP JUMP JUMPDEST PUSH0 DUP3 PUSH1 0x1F DUP4 ADD SLT PUSH2 0x393 JUMPI PUSH2 0x392 PUSH2 0x202 JUMP JUMPDEST JUMPDEST DUP2 MLOAD PUSH2 0x3A3 DUP5 DUP3 PUSH1 0x20 DUP7 ADD PUSH2 0x317 JUMP JUMPDEST SWAP2 POP POP SWAP3 SWAP2 POP POP JUMP JUMPDEST PUSH0 DUP2 SWAP1 POP SWAP2 SWAP1 POP JUMP JUMPDEST PUSH2 0x3BE DUP2 PUSH2 0x3AC JUMP JUMPDEST DUP2 EQ PUSH2 0x3C8 JUMPI PUSH0 PUSH0 REVERT JUMPDEST POP JUMP JUMPDEST PUSH0 DUP2 MLOAD SWAP1 POP PUSH2 0x3D9 DUP2 PUSH2 0x3B5 JUMP JUMPDEST SWAP3 SWAP2 POP POP JUMP JUMPDEST PUSH0 PUSH0 PUSH1 0x40 DUP4 DUP6 SUB SLT ISZERO PUSH2 0x3F5 JUMPI PUSH2 0x3F4 PUSH2 0x1FA JUMP JUMPDEST JUMPDEST PUSH0 DUP4 ADD MLOAD PUSH8 0xFFFFFFFFFFFFFFFF DUP2 GT ISZERO PUSH2 0x412 JUMPI PUSH2 0x411 PUSH2 0x1FE JUMP JUMPDEST JUMPDEST PUSH2 0x41E DUP6 DUP3 DUP7 ADD PUSH2 0x37F JUMP JUMPDEST SWAP3 POP POP PUSH1 0x20 PUSH2 0x42F DUP6 DUP3 DUP7 ADD PUSH2 0x3CB JUMP JUMPDEST SWAP2 POP POP SWAP3 POP SWAP3 SWAP1 POP JUMP JUMPDEST PUSH0 DUP3 DUP3 MSTORE PUSH1 0x20 DUP3 ADD SWAP1 POP SWAP3 SWAP2 POP POP JUMP JUMPDEST PUSH32 0x4F6E77657273205265717569726564204D757374204265204772656174657220 PUSH0 DUP3 ADD MSTORE PUSH32 0x7468616E20310000000000000000000000000000000000000000000000000000 PUSH1 0x20 DUP3 ADD MSTORE POP JUMP JUMPDEST PUSH0 PUSH2 0x4A3 PUSH1 0x26 DUP4 PUSH2 0x439 JUMP JUMPDEST SWAP2 POP PUSH2 0x4AE DUP3 PUSH2 0x449 JUMP JUMPDEST PUSH1 0x40 DUP3 ADD SWAP1 POP SWAP2 SWAP1 POP JUMP JUMPDEST PUSH0 PUSH1 0x20 DUP3 ADD SWAP1 POP DUP2 DUP2 SUB PUSH0 DUP4 ADD MSTORE PUSH2 0x4D0 DUP2 PUSH2 0x497 JUMP JUMPDEST SWAP1 POP SWAP2 SWAP1 POP JUMP JUMPDEST PUSH32 0x4E756D206F6620636F6E6669726D6174696F6E7320617265206E6F7420696E20 PUSH0 DUP3 ADD MSTORE PUSH32 0x73796E63207769746820746865206E756D626572206F66206F776E6572730000 PUSH1 0x20 DUP3 ADD MSTORE POP JUMP JUMPDEST PUSH0 PUSH2 0x531 PUSH1 0x3E DUP4 PUSH2 0x439 JUMP JUMPDEST SWAP2 POP PUSH2 0x53C DUP3 PUSH2 0x4D7 JUMP JUMPDEST PUSH1 0x40 DUP3 ADD SWAP1 POP SWAP2 SWAP1 POP JUMP JUMPDEST PUSH0 PUSH1 0x20 DUP3 ADD SWAP1 POP DUP2 DUP2 SUB PUSH0 DUP4 ADD MSTORE PUSH2 0x55E DUP2 PUSH2 0x525 JUMP JUMPDEST SWAP1 POP SWAP2 SWAP1 POP JUMP JUMPDEST PUSH32 0x4E487B7100000000000000000000000000000000000000000000000000000000 PUSH0 MSTORE PUSH1 0x32 PUSH1 0x4 MSTORE PUSH1 0x24 PUSH0 REVERT JUMPDEST PUSH32 0x496E76616C6964204F776E657200000000000000000000000000000000000000 PUSH0 DUP3 ADD MSTORE POP JUMP JUMPDEST PUSH0 PUSH2 0x5C6 PUSH1 0xD DUP4 PUSH2 0x439 JUMP JUMPDEST SWAP2 POP PUSH2 0x5D1 DUP3 PUSH2 0x592 JUMP JUMPDEST PUSH1 0x20 DUP3 ADD SWAP1 POP SWAP2 SWAP1 POP JUMP JUMPDEST PUSH0 PUSH1 0x20 DUP3 ADD SWAP1 POP DUP2 DUP2 SUB PUSH0 DUP4 ADD MSTORE PUSH2 0x5F3 DUP2 PUSH2 0x5BA JUMP JUMPDEST SWAP1 POP SWAP2 SWAP1 POP JUMP JUMPDEST PUSH2 0xE59 DUP1 PUSH2 0x607 PUSH0 CODECOPY PUSH0 RETURN INVALID PUSH1 0x80 PUSH1 0x40 MSTORE PUSH1 0x4 CALLDATASIZE LT PUSH2 0x54 JUMPI PUSH0 CALLDATALOAD PUSH1 0xE0 SHR DUP1 PUSH4 0x25E7C27 EQ PUSH2 0x58 JUMPI DUP1 PUSH4 0x66D651DB EQ PUSH2 0x94 JUMPI DUP1 PUSH4 0x9ACE38C2 EQ PUSH2 0xB0 JUMPI DUP1 PUSH4 0xC01A8C84 EQ PUSH2 0xEE JUMPI DUP1 PUSH4 0xD0549B85 EQ PUSH2 0x116 JUMPI DUP1 PUSH4 0xEE22610B EQ PUSH2 0x140 JUMPI JUMPDEST PUSH0 PUSH0 REVERT JUMPDEST CALLVALUE DUP1 ISZERO PUSH2 0x63 JUMPI PUSH0 PUSH0 REVERT JUMPDEST POP PUSH2 0x7E PUSH1 0x4 DUP1 CALLDATASIZE SUB DUP2 ADD SWAP1 PUSH2 0x79 SWAP2 SWAP1 PUSH2 0x8E3 JUMP JUMPDEST PUSH2 0x15C JUMP JUMPDEST PUSH1 0x40 MLOAD PUSH2 0x8B SWAP2 SWAP1 PUSH2 0x94D JUMP JUMPDEST PUSH1 0x40 MLOAD DUP1 SWAP2 SUB SWAP1 RETURN JUMPDEST PUSH2 0xAE PUSH1 0x4 DUP1 CALLDATASIZE SUB DUP2 ADD SWAP1 PUSH2 0xA9 SWAP2 SWAP1 PUSH2 0x990 JUMP JUMPDEST PUSH2 0x196 JUMP JUMPDEST STOP JUMPDEST CALLVALUE DUP1 ISZERO PUSH2 0xBB JUMPI PUSH0 PUSH0 REVERT JUMPDEST POP PUSH2 0xD6 PUSH1 0x4 DUP1 CALLDATASIZE SUB DUP2 ADD SWAP1 PUSH2 0xD1 SWAP2 SWAP1 PUSH2 0x8E3 JUMP JUMPDEST PUSH2 0x35A JUMP JUMPDEST PUSH1 0x40 MLOAD PUSH2 0xE5 SWAP4 SWAP3 SWAP2 SWAP1 PUSH2 0x9E4 JUMP JUMPDEST PUSH1 0x40 MLOAD DUP1 SWAP2 SUB SWAP1 RETURN JUMPDEST CALLVALUE DUP1 ISZERO PUSH2 0xF9 JUMPI PUSH0 PUSH0 REVERT JUMPDEST POP PUSH2 0x114 PUSH1 0x4 DUP1 CALLDATASIZE SUB DUP2 ADD SWAP1 PUSH2 0x10F SWAP2 SWAP1 PUSH2 0x8E3 JUMP JUMPDEST PUSH2 0x3BA JUMP JUMPDEST STOP JUMPDEST CALLVALUE DUP1 ISZERO PUSH2 0x121 JUMPI PUSH0 PUSH0 REVERT JUMPDEST POP PUSH2 0x12A PUSH2 0x550 JUMP JUMPDEST PUSH1 0x40 MLOAD PUSH2 0x137 SWAP2 SWAP1 PUSH2 0xA19 JUMP JUMPDEST PUSH1 0x40 MLOAD DUP1 SWAP2 SUB SWAP1 RETURN JUMPDEST PUSH2 0x15A PUSH1 0x4 DUP1 CALLDATASIZE SUB DUP2 ADD SWAP1 PUSH2 0x155 SWAP2 SWAP1 PUSH2 0x8E3 JUMP JUMPDEST PUSH2 0x556 JUMP JUMPDEST STOP JUMPDEST PUSH0 DUP2 DUP2 SLOAD DUP2 LT PUSH2 0x16A JUMPI PUSH0 DUP1 REVERT JUMPDEST SWAP1 PUSH0 MSTORE PUSH1 0x20 PUSH0 KECCAK256 ADD PUSH0 SWAP2 POP SLOAD SWAP1 PUSH2 0x100 EXP SWAP1 DIV PUSH20 0xFFFFFFFFFFFFFFFFFFFFFFFFFFFFFFFFFFFFFFFF AND DUP2 JUMP JUMPDEST PUSH0 PUSH20 0xFFFFFFFFFFFFFFFFFFFFFFFFFFFFFFFFFFFFFFFF AND DUP2 PUSH20 0xFFFFFFFFFFFFFFFFFFFFFFFFFFFFFFFFFFFFFFFF AND SUB PUSH2 0x204 JUMPI PUSH1 0x40 MLOAD PUSH32 0x8C379A000000000000000000000000000000000000000000000000000000000 DUP2 MSTORE PUSH1 0x4 ADD PUSH2 0x1FB SWAP1 PUSH2 0xA8C JUMP JUMPDEST PUSH1 0x40 MLOAD DUP1 SWAP2 SUB SWAP1 REVERT JUMPDEST PUSH0 CALLVALUE GT PUSH2 0x246 JUMPI PUSH1 0x40 MLOAD PUSH32 0x8C379A000000000000000000000000000000000000000000000000000000000 DUP2 MSTORE PUSH1 0x4 ADD PUSH2 0x23D SWAP1 PUSH2 0xB1A JUMP JUMPDEST PUSH1 0x40 MLOAD DUP1 SWAP2 SUB SWAP1 REVERT JUMPDEST PUSH0 PUSH1 0x2 DUP1 SLOAD SWAP1 POP SWAP1 POP PUSH1 0x2 PUSH1 0x40 MLOAD DUP1 PUSH1 0x60 ADD PUSH1 0x40 MSTORE DUP1 DUP5 PUSH20 0xFFFFFFFFFFFFFFFFFFFFFFFFFFFFFFFFFFFFFFFF AND DUP2 MSTORE PUSH1 0x20 ADD CALLVALUE DUP2 MSTORE PUSH1 0x20 ADD PUSH0 ISZERO ISZERO DUP2 MSTORE POP SWAP1 DUP1 PUSH1 0x1 DUP2 SLOAD ADD DUP1 DUP3 SSTORE DUP1 SWAP2 POP POP PUSH1 0x1 SWAP1 SUB SWAP1 PUSH0 MSTORE PUSH1 0x20 PUSH0 KECCAK256 SWAP1 PUSH1 0x3 MUL ADD PUSH0 SWAP1 SWAP2 SWAP1 SWAP2 SWAP1 SWAP2 POP PUSH0 DUP3 ADD MLOAD DUP2 PUSH0 ADD PUSH0 PUSH2 0x100 EXP DUP2 SLOAD DUP2 PUSH20 0xFFFFFFFFFFFFFFFFFFFFFFFFFFFFFFFFFFFFFFFF MUL NOT AND SWAP1 DUP4 PUSH20 0xFFFFFFFFFFFFFFFFFFFFFFFFFFFFFFFFFFFFFFFF AND MUL OR SWAP1 SSTORE POP PUSH1 0x20 DUP3 ADD MLOAD DUP2 PUSH1 0x1 ADD SSTORE PUSH1 0x40 DUP3 ADD MLOAD DUP2 PUSH1 0x2 ADD PUSH0 PUSH2 0x100 EXP DUP2 SLOAD DUP2 PUSH1 0xFF MUL NOT AND SWAP1 DUP4 ISZERO ISZERO MUL OR SWAP1 SSTORE POP POP POP PUSH32 0x753DCDA37EFE0BC3675E04E24D1FB08B70681F14675EED4B6E7978495CAF2CA0 DUP2 CALLER DUP5 CALLVALUE PUSH1 0x40 MLOAD PUSH2 0x34E SWAP5 SWAP4 SWAP3 SWAP2 SWAP1 PUSH2 0xB38 JUMP JUMPDEST PUSH1 0x40 MLOAD DUP1 SWAP2 SUB SWAP1 LOG1 POP POP JUMP JUMPDEST PUSH1 0x2 DUP2 DUP2 SLOAD DUP2 LT PUSH2 0x369 JUMPI PUSH0 DUP1 REVERT JUMPDEST SWAP1 PUSH0 MSTORE PUSH1 0x20 PUSH0 KECCAK256 SWAP1 PUSH1 0x3 MUL ADD PUSH0 SWAP2 POP SWAP1 POP DUP1 PUSH0 ADD PUSH0 SWAP1 SLOAD SWAP1 PUSH2 0x100 EXP SWAP1 DIV PUSH20 0xFFFFFFFFFFFFFFFFFFFFFFFFFFFFFFFFFFFFFFFF AND SWAP1 DUP1 PUSH1 0x1 ADD SLOAD SWAP1 DUP1 PUSH1 0x2 ADD PUSH0 SWAP1 SLOAD SWAP1 PUSH2 0x100 EXP SWAP1 DIV PUSH1 0xFF AND SWAP1 POP DUP4 JUMP JUMPDEST PUSH1 0x2 DUP1 SLOAD SWAP1 POP DUP2 LT PUSH2 0x401 JUMPI PUSH1 0x40 MLOAD PUSH32 0x8C379A000000000000000000000000000000000000000000000000000000000 DUP2 MSTORE PUSH1 0x4 ADD PUSH2 0x3F8 SWAP1 PUSH2 0xBC5 JUMP JUMPDEST PUSH1 0x40 MLOAD DUP1 SWAP2 SUB SWAP1 REVERT JUMPDEST PUSH1 0x3 PUSH0 DUP3 DUP2 MSTORE PUSH1 0x20 ADD SWAP1 DUP2 MSTORE PUSH1 0x20 ADD PUSH0 KECCAK256 PUSH0 CALLER PUSH20 0xFFFFFFFFFFFFFFFFFFFFFFFFFFFFFFFFFFFFFFFF AND PUSH20 0xFFFFFFFFFFFFFFFFFFFFFFFFFFFFFFFFFFFFFFFF AND DUP2 MSTORE PUSH1 0x20 ADD SWAP1 DUP2 MSTORE PUSH1 0x20 ADD PUSH0 KECCAK256 PUSH0 SWAP1 SLOAD SWAP1 PUSH2 0x100 EXP SWAP1 DIV PUSH1 0xFF AND ISZERO PUSH2 0x49A JUMPI PUSH1 0x40 MLOAD PUSH32 0x8C379A000000000000000000000000000000000000000000000000000000000 DUP2 MSTORE PUSH1 0x4 ADD PUSH2 0x491 SWAP1 PUSH2 0xC53 JUMP JUMPDEST PUSH1 0x40 MLOAD DUP1 SWAP2 SUB SWAP1 REVERT JUMPDEST PUSH1 0x1 PUSH1 0x3 PUSH0 DUP4 DUP2 MSTORE PUSH1 0x20 ADD SWAP1 DUP2 MSTORE PUSH1 0x20 ADD PUSH0 KECCAK256 PUSH0 CALLER PUSH20 0xFFFFFFFFFFFFFFFFFFFFFFFFFFFFFFFFFFFFFFFF AND PUSH20 0xFFFFFFFFFFFFFFFFFFFFFFFFFFFFFFFFFFFFFFFF AND DUP2 MSTORE PUSH1 0x20 ADD SWAP1 DUP2 MSTORE PUSH1 0x20 ADD PUSH0 KECCAK256 PUSH0 PUSH2 0x100 EXP DUP2 SLOAD DUP2 PUSH1 0xFF MUL NOT AND SWAP1 DUP4 ISZERO ISZERO MUL OR SWAP1 SSTORE POP PUSH32 0xEF524C298D730E7D5714DBE2FCE9D4ECA7DE755A12628704719170AFDA39678B DUP2 PUSH1 0x40 MLOAD PUSH2 0x52D SWAP2 SWAP1 PUSH2 0xA19 JUMP JUMPDEST PUSH1 0x40 MLOAD DUP1 SWAP2 SUB SWAP1 LOG1 PUSH2 0x53E DUP2 PUSH2 0x78F JUMP JUMPDEST ISZERO PUSH2 0x54D JUMPI PUSH2 0x54C DUP2 PUSH2 0x556 JUMP JUMPDEST JUMPDEST POP JUMP JUMPDEST PUSH1 0x1 SLOAD DUP2 JUMP JUMPDEST PUSH1 0x2 DUP1 SLOAD SWAP1 POP DUP2 LT PUSH2 0x59D JUMPI PUSH1 0x40 MLOAD PUSH32 0x8C379A000000000000000000000000000000000000000000000000000000000 DUP2 MSTORE PUSH1 0x4 ADD PUSH2 0x594 SWAP1 PUSH2 0xBC5 JUMP JUMPDEST PUSH1 0x40 MLOAD DUP1 SWAP2 SUB SWAP1 REVERT JUMPDEST PUSH1 0x2 DUP2 DUP2 SLOAD DUP2 LT PUSH2 0x5B1 JUMPI PUSH2 0x5B0 PUSH2 0xC71 JUMP JUMPDEST JUMPDEST SWAP1 PUSH0 MSTORE PUSH1 0x20 PUSH0 KECCAK256 SWAP1 PUSH1 0x3 MUL ADD PUSH1 0x2 ADD PUSH0 SWAP1 SLOAD SWAP1 PUSH2 0x100 EXP SWAP1 DIV PUSH1 0xFF AND ISZERO PUSH2 0x60D JUMPI PUSH1 0x40 MLOAD PUSH32 0x8C379A000000000000000000000000000000000000000000000000000000000 DUP2 MSTORE PUSH1 0x4 ADD PUSH2 0x604 SWAP1 PUSH2 0xCE8 JUMP JUMPDEST PUSH1 0x40 MLOAD DUP1 SWAP2 SUB SWAP1 REVERT JUMPDEST PUSH0 PUSH1 0x2 DUP3 DUP2 SLOAD DUP2 LT PUSH2 0x622 JUMPI PUSH2 0x621 PUSH2 0xC71 JUMP JUMPDEST JUMPDEST SWAP1 PUSH0 MSTORE PUSH1 0x20 PUSH0 KECCAK256 SWAP1 PUSH1 0x3 MUL ADD PUSH0 ADD PUSH0 SWAP1 SLOAD SWAP1 PUSH2 0x100 EXP SWAP1 DIV PUSH20 0xFFFFFFFFFFFFFFFFFFFFFFFFFFFFFFFFFFFFFFFF AND PUSH20 0xFFFFFFFFFFFFFFFFFFFFFFFFFFFFFFFFFFFFFFFF AND PUSH1 0x2 DUP4 DUP2 SLOAD DUP2 LT PUSH2 0x67A JUMPI PUSH2 0x679 PUSH2 0xC71 JUMP JUMPDEST JUMPDEST SWAP1 PUSH0 MSTORE PUSH1 0x20 PUSH0 KECCAK256 SWAP1 PUSH1 0x3 MUL ADD PUSH1 0x1 ADD SLOAD PUSH1 0x40 MLOAD PUSH2 0x696 SWAP1 PUSH2 0xD33 JUMP JUMPDEST PUSH0 PUSH1 0x40 MLOAD DUP1 DUP4 SUB DUP2 DUP6 DUP8 GAS CALL SWAP3 POP POP POP RETURNDATASIZE DUP1 PUSH0 DUP2 EQ PUSH2 0x6D0 JUMPI PUSH1 0x40 MLOAD SWAP2 POP PUSH1 0x1F NOT PUSH1 0x3F RETURNDATASIZE ADD AND DUP3 ADD PUSH1 0x40 MSTORE RETURNDATASIZE DUP3 MSTORE RETURNDATASIZE PUSH0 PUSH1 0x20 DUP5 ADD RETURNDATACOPY PUSH2 0x6D5 JUMP JUMPDEST PUSH1 0x60 SWAP2 POP JUMPDEST POP POP SWAP1 POP DUP1 PUSH2 0x719 JUMPI PUSH1 0x40 MLOAD PUSH32 0x8C379A000000000000000000000000000000000000000000000000000000000 DUP2 MSTORE PUSH1 0x4 ADD PUSH2 0x710 SWAP1 PUSH2 0xD91 JUMP JUMPDEST PUSH1 0x40 MLOAD DUP1 SWAP2 SUB SWAP1 REVERT JUMPDEST PUSH1 0x1 PUSH1 0x2 DUP4 DUP2 SLOAD DUP2 LT PUSH2 0x72F JUMPI PUSH2 0x72E PUSH2 0xC71 JUMP JUMPDEST JUMPDEST SWAP1 PUSH0 MSTORE PUSH1 0x20 PUSH0 KECCAK256 SWAP1 PUSH1 0x3 MUL ADD PUSH1 0x2 ADD PUSH0 PUSH2 0x100 EXP DUP2 SLOAD DUP2 PUSH1 0xFF MUL NOT AND SWAP1 DUP4 ISZERO ISZERO MUL OR SWAP1 SSTORE POP PUSH32 0x15ED165A284872EA7017F03DF402A0CADFBFAB588320FFAF83F160C2F82781C7 DUP3 PUSH1 0x40 MLOAD PUSH2 0x783 SWAP2 SWAP1 PUSH2 0xA19 JUMP JUMPDEST PUSH1 0x40 MLOAD DUP1 SWAP2 SUB SWAP1 LOG1 POP POP JUMP JUMPDEST PUSH0 PUSH1 0x2 DUP1 SLOAD SWAP1 POP DUP3 LT PUSH2 0x7D7 JUMPI PUSH1 0x40 MLOAD PUSH32 0x8C379A000000000000000000000000000000000000000000000000000000000 DUP2 MSTORE PUSH1 0x4 ADD PUSH2 0x7CE SWAP1 PUSH2 0xBC5 JUMP JUMPDEST PUSH1 0x40 MLOAD DUP1 SWAP2 SUB SWAP1 REVERT JUMPDEST PUSH0 PUSH0 PUSH0 SWAP1 POP JUMPDEST PUSH0 DUP1 SLOAD SWAP1 POP DUP2 LT ISZERO PUSH2 0x89D JUMPI PUSH1 0x3 PUSH0 DUP6 DUP2 MSTORE PUSH1 0x20 ADD SWAP1 DUP2 MSTORE PUSH1 0x20 ADD PUSH0 KECCAK256 PUSH0 PUSH0 DUP4 DUP2 SLOAD DUP2 LT PUSH2 0x80E JUMPI PUSH2 0x80D PUSH2 0xC71 JUMP JUMPDEST JUMPDEST SWAP1 PUSH0 MSTORE PUSH1 0x20 PUSH0 KECCAK256 ADD PUSH0 SWAP1 SLOAD SWAP1 PUSH2 0x100 EXP SWAP1 DIV PUSH20 0xFFFFFFFFFFFFFFFFFFFFFFFFFFFFFFFFFFFFFFFF AND PUSH20 0xFFFFFFFFFFFFFFFFFFFFFFFFFFFFFFFFFFFFFFFF AND PUSH20 0xFFFFFFFFFFFFFFFFFFFFFFFFFFFFFFFFFFFFFFFF AND DUP2 MSTORE PUSH1 0x20 ADD SWAP1 DUP2 MSTORE PUSH1 0x20 ADD PUSH0 KECCAK256 PUSH0 SWAP1 SLOAD SWAP1 PUSH2 0x100 EXP SWAP1 DIV PUSH1 0xFF AND ISZERO PUSH2 0x890 JUMPI DUP2 DUP1 PUSH2 0x88C SWAP1 PUSH2 0xDDC JUMP JUMPDEST SWAP3 POP POP JUMPDEST DUP1 DUP1 PUSH1 0x1 ADD SWAP2 POP POP PUSH2 0x7DD JUMP JUMPDEST POP PUSH1 0x1 SLOAD DUP2 LT ISZERO SWAP2 POP POP SWAP2 SWAP1 POP JUMP JUMPDEST PUSH0 PUSH0 REVERT JUMPDEST PUSH0 DUP2 SWAP1 POP SWAP2 SWAP1 POP JUMP JUMPDEST PUSH2 0x8C2 DUP2 PUSH2 0x8B0 JUMP JUMPDEST DUP2 EQ PUSH2 0x8CC JUMPI PUSH0 PUSH0 REVERT JUMPDEST POP JUMP JUMPDEST PUSH0 DUP2 CALLDATALOAD SWAP1 POP PUSH2 0x8DD DUP2 PUSH2 0x8B9 JUMP JUMPDEST SWAP3 SWAP2 POP POP JUMP JUMPDEST PUSH0 PUSH1 0x20 DUP3 DUP5 SUB SLT ISZERO PUSH2 0x8F8 JUMPI PUSH2 0x8F7 PUSH2 0x8AC JUMP JUMPDEST JUMPDEST PUSH0 PUSH2 0x905 DUP5 DUP3 DUP6 ADD PUSH2 0x8CF JUMP JUMPDEST SWAP2 POP POP SWAP3 SWAP2 POP POP JUMP JUMPDEST PUSH0 PUSH20 0xFFFFFFFFFFFFFFFFFFFFFFFFFFFFFFFFFFFFFFFF DUP3 AND SWAP1 POP SWAP2 SWAP1 POP JUMP JUMPDEST PUSH0 PUSH2 0x937 DUP3 PUSH2 0x90E JUMP JUMPDEST SWAP1 POP SWAP2 SWAP1 POP JUMP JUMPDEST PUSH2 0x947 DUP2 PUSH2 0x92D JUMP JUMPDEST DUP3 MSTORE POP POP JUMP JUMPDEST PUSH0 PUSH1 0x20 DUP3 ADD SWAP1 POP PUSH2 0x960 PUSH0 DUP4 ADD DUP5 PUSH2 0x93E JUMP JUMPDEST SWAP3 SWAP2 POP POP JUMP JUMPDEST PUSH2 0x96F DUP2 PUSH2 0x92D JUMP JUMPDEST DUP2 EQ PUSH2 0x979 JUMPI PUSH0 PUSH0 REVERT JUMPDEST POP JUMP JUMPDEST PUSH0 DUP2 CALLDATALOAD SWAP1 POP PUSH2 0x98A DUP2 PUSH2 0x966 JUMP JUMPDEST SWAP3 SWAP2 POP POP JUMP JUMPDEST PUSH0 PUSH1 0x20 DUP3 DUP5 SUB SLT ISZERO PUSH2 0x9A5 JUMPI PUSH2 0x9A4 PUSH2 0x8AC JUMP JUMPDEST JUMPDEST PUSH0 PUSH2 0x9B2 DUP5 DUP3 DUP6 ADD PUSH2 0x97C JUMP JUMPDEST SWAP2 POP POP SWAP3 SWAP2 POP POP JUMP JUMPDEST PUSH2 0x9C4 DUP2 PUSH2 0x8B0 JUMP JUMPDEST DUP3 MSTORE POP POP JUMP JUMPDEST PUSH0 DUP2 ISZERO ISZERO SWAP1 POP SWAP2 SWAP1 POP JUMP JUMPDEST PUSH2 0x9DE DUP2 PUSH2 0x9CA JUMP JUMPDEST DUP3 MSTORE POP POP JUMP JUMPDEST PUSH0 PUSH1 0x60 DUP3 ADD SWAP1 POP PUSH2 0x9F7 PUSH0 DUP4 ADD DUP7 PUSH2 0x93E JUMP JUMPDEST PUSH2 0xA04 PUSH1 0x20 DUP4 ADD DUP6 PUSH2 0x9BB JUMP JUMPDEST PUSH2 0xA11 PUSH1 0x40 DUP4 ADD DUP5 PUSH2 0x9D5 JUMP JUMPDEST SWAP5 SWAP4 POP POP POP POP JUMP JUMPDEST PUSH0 PUSH1 0x20 DUP3 ADD SWAP1 POP PUSH2 0xA2C PUSH0 DUP4 ADD DUP5 PUSH2 0x9BB JUMP JUMPDEST SWAP3 SWAP2 POP POP JUMP JUMPDEST PUSH0 DUP3 DUP3 MSTORE PUSH1 0x20 DUP3 ADD SWAP1 POP SWAP3 SWAP2 POP POP JUMP JUMPDEST PUSH32 0x496E76616C696420526563656976657227732041646472657373000000000000 PUSH0 DUP3 ADD MSTORE POP JUMP JUMPDEST PUSH0 PUSH2 0xA76 PUSH1 0x1A DUP4 PUSH2 0xA32 JUMP JUMPDEST SWAP2 POP PUSH2 0xA81 DUP3 PUSH2 0xA42 JUMP JUMPDEST PUSH1 0x20 DUP3 ADD SWAP1 POP SWAP2 SWAP1 POP JUMP JUMPDEST PUSH0 PUSH1 0x20 DUP3 ADD SWAP1 POP DUP2 DUP2 SUB PUSH0 DUP4 ADD MSTORE PUSH2 0xAA3 DUP2 PUSH2 0xA6A JUMP JUMPDEST SWAP1 POP SWAP2 SWAP1 POP JUMP JUMPDEST PUSH32 0x5472616E7366657220416D6F756E74204D757374204265204772656174657220 PUSH0 DUP3 ADD MSTORE PUSH32 0x5468616E20300000000000000000000000000000000000000000000000000000 PUSH1 0x20 DUP3 ADD MSTORE POP JUMP JUMPDEST PUSH0 PUSH2 0xB04 PUSH1 0x26 DUP4 PUSH2 0xA32 JUMP JUMPDEST SWAP2 POP PUSH2 0xB0F DUP3 PUSH2 0xAAA JUMP JUMPDEST PUSH1 0x40 DUP3 ADD SWAP1 POP SWAP2 SWAP1 POP JUMP JUMPDEST PUSH0 PUSH1 0x20 DUP3 ADD SWAP1 POP DUP2 DUP2 SUB PUSH0 DUP4 ADD MSTORE PUSH2 0xB31 DUP2 PUSH2 0xAF8 JUMP JUMPDEST SWAP1 POP SWAP2 SWAP1 POP JUMP JUMPDEST PUSH0 PUSH1 0x80 DUP3 ADD SWAP1 POP PUSH2 0xB4B PUSH0 DUP4 ADD DUP8 PUSH2 0x9BB JUMP JUMPDEST PUSH2 0xB58 PUSH1 0x20 DUP4 ADD DUP7 PUSH2 0x93E JUMP JUMPDEST PUSH2 0xB65 PUSH1 0x40 DUP4 ADD DUP6 PUSH2 0x93E JUMP JUMPDEST PUSH2 0xB72 PUSH1 0x60 DUP4 ADD DUP5 PUSH2 0x9BB JUMP JUMPDEST SWAP6 SWAP5 POP POP POP POP POP JUMP JUMPDEST PUSH32 0x496E76616C6964205472616E73616374696F6E20496400000000000000000000 PUSH0 DUP3 ADD MSTORE POP JUMP JUMPDEST PUSH0 PUSH2 0xBAF PUSH1 0x16 DUP4 PUSH2 0xA32 JUMP JUMPDEST SWAP2 POP PUSH2 0xBBA DUP3 PUSH2 0xB7B JUMP JUMPDEST PUSH1 0x20 DUP3 ADD SWAP1 POP SWAP2 SWAP1 POP JUMP JUMPDEST PUSH0 PUSH1 0x20 DUP3 ADD SWAP1 POP DUP2 DUP2 SUB PUSH0 DUP4 ADD MSTORE PUSH2 0xBDC DUP2 PUSH2 0xBA3 JUMP JUMPDEST SWAP1 POP SWAP2 SWAP1 POP JUMP JUMPDEST PUSH32 0x5472616E73616374696F6E20497320416C726561647920436F6E6669726D6564 PUSH0 DUP3 ADD MSTORE PUSH32 0x20427920546865204F776E657200000000000000000000000000000000000000 PUSH1 0x20 DUP3 ADD MSTORE POP JUMP JUMPDEST PUSH0 PUSH2 0xC3D PUSH1 0x2D DUP4 PUSH2 0xA32 JUMP JUMPDEST SWAP2 POP PUSH2 0xC48 DUP3 PUSH2 0xBE3 JUMP JUMPDEST PUSH1 0x40 DUP3 ADD SWAP1 POP SWAP2 SWAP1 POP JUMP JUMPDEST PUSH0 PUSH1 0x20 DUP3 ADD SWAP1 POP DUP2 DUP2 SUB PUSH0 DUP4 ADD MSTORE PUSH2 0xC6A DUP2 PUSH2 0xC31 JUMP JUMPDEST SWAP1 POP SWAP2 SWAP1 POP JUMP JUMPDEST PUSH32 0x4E487B7100000000000000000000000000000000000000000000000000000000 PUSH0 MSTORE PUSH1 0x32 PUSH1 0x4 MSTORE PUSH1 0x24 PUSH0 REVERT JUMPDEST PUSH32 0x5472616E73616374696F6E20697320616C726561647920657865637574656400 PUSH0 DUP3 ADD MSTORE POP JUMP JUMPDEST PUSH0 PUSH2 0xCD2 PUSH1 0x1F DUP4 PUSH2 0xA32 JUMP JUMPDEST SWAP2 POP PUSH2 0xCDD DUP3 PUSH2 0xC9E JUMP JUMPDEST PUSH1 0x20 DUP3 ADD SWAP1 POP SWAP2 SWAP1 POP JUMP JUMPDEST PUSH0 PUSH1 0x20 DUP3 ADD SWAP1 POP DUP2 DUP2 SUB PUSH0 DUP4 ADD MSTORE PUSH2 0xCFF DUP2 PUSH2 0xCC6 JUMP JUMPDEST SWAP1 POP SWAP2 SWAP1 POP JUMP JUMPDEST PUSH0 DUP2 SWAP1 POP SWAP3 SWAP2 POP POP JUMP JUMPDEST POP JUMP JUMPDEST PUSH0 PUSH2 0xD1E PUSH0 DUP4 PUSH2 0xD06 JUMP JUMPDEST SWAP2 POP PUSH2 0xD29 DUP3 PUSH2 0xD10 JUMP JUMPDEST PUSH0 DUP3 ADD SWAP1 POP SWAP2 SWAP1 POP JUMP JUMPDEST PUSH0 PUSH2 0xD3D DUP3 PUSH2 0xD13 JUMP JUMPDEST SWAP2 POP DUP2 SWAP1 POP SWAP2 SWAP1 POP JUMP JUMPDEST PUSH32 0x5472616E73616374696F6E20457865637574696F6E204661696C656400000000 PUSH0 DUP3 ADD MSTORE POP JUMP JUMPDEST PUSH0 PUSH2 0xD7B PUSH1 0x1C DUP4 PUSH2 0xA32 JUMP JUMPDEST SWAP2 POP PUSH2 0xD86 DUP3 PUSH2 0xD47 JUMP JUMPDEST PUSH1 0x20 DUP3 ADD SWAP1 POP SWAP2 SWAP1 POP JUMP JUMPDEST PUSH0 PUSH1 0x20 DUP3 ADD SWAP1 POP DUP2 DUP2 SUB PUSH0 DUP4 ADD MSTORE PUSH2 0xDA8 DUP2 PUSH2 0xD6F JUMP JUMPDEST SWAP1 POP SWAP2 SWAP1 POP JUMP JUMPDEST PUSH32 0x4E487B7100000000000000000000000000000000000000000000000000000000 PUSH0 MSTORE PUSH1 0x11 PUSH1 0x4 MSTORE PUSH1 0x24 PUSH0 REVERT JUMPDEST PUSH0 PUSH2 0xDE6 DUP3 PUSH2 0x8B0 JUMP JUMPDEST SWAP2 POP PUSH32 0xFFFFFFFFFFFFFFFFFFFFFFFFFFFFFFFFFFFFFFFFFFFFFFFFFFFFFFFFFFFFFFFF DUP3 SUB PUSH2 0xE18 JUMPI PUSH2 0xE17 PUSH2 0xDAF JUMP JUMPDEST JUMPDEST PUSH1 0x1 DUP3 ADD SWAP1 POP SWAP2 SWAP1 POP JUMP INVALID LOG2 PUSH5 0x6970667358 0x22 SLT KECCAK256 0xC7 OR SWAP4 MSTORE PUSH14 0x9EC6ABEE2E8ED6270D83709A421E 0xFC 0xEF SHR PUSH19 0x857D9D91BACE734C7764736F6C634300082200 CALLER "
				},
				"gasEstimates": {
					"creation": {
						"codeDepositCost": "734600",
						"executionCost": "infinite",
						"totalCost": "infinite"
					},
					"external": {
						"confirmTransaction(uint256)": "infinite",
						"executeTransaction(uint256)": "infinite",
						"numConfirmationsRequired()": "2491",
						"owners(uint256)": "4921",
						"submitTransaction(address)": "infinite",
						"transactions(uint256)": "infinite"
					},
					"internal": {
						"isTransactionConfirmed(uint256)": "infinite"
					}
				},
				"methodIdentifiers": {
					"confirmTransaction(uint256)": "c01a8c84",
					"executeTransaction(uint256)": "ee22610b",
					"numConfirmationsRequired()": "d0549b85",
					"owners(uint256)": "025e7c27",
					"submitTransaction(address)": "66d651db",
					"transactions(uint256)": "9ace38c2"
				}
			},
			"storageLayout": {
				"storage": [
					{
						"astId": 4,
						"contract": "multisig.sol:MultiSig",
						"label": "owners",
						"offset": 0,
						"slot": "0",
						"type": "t_array(t_address)dyn_storage"
					},
					{
						"astId": 6,
						"contract": "multisig.sol:MultiSig",
						"label": "numConfirmationsRequired",
						"offset": 0,
						"slot": "1",
						"type": "t_uint256"
					},
					{
						"astId": 17,
						"contract": "multisig.sol:MultiSig",
						"label": "transactions",
						"offset": 0,
						"slot": "2",
						"type": "t_array(t_struct(Transaction)13_storage)dyn_storage"
					},
					{
						"astId": 23,
						"contract": "multisig.sol:MultiSig",
						"label": "isConfirmed",
						"offset": 0,
						"slot": "3",
						"type": "t_mapping(t_uint256,t_mapping(t_address,t_bool))"
					}
				],
				"types": {
					"t_address": {
						"encoding": "inplace",
						"label": "address",
						"numberOfBytes": "20"
					},
					"t_array(t_address)dyn_storage": {
						"base": "t_address",
						"encoding": "dynamic_array",
						"label": "address[]",
						"numberOfBytes": "32"
					},
					"t_array(t_struct(Transaction)13_storage)dyn_storage": {
						"base": "t_struct(Transaction)13_storage",
						"encoding": "dynamic_array",
						"label": "struct MultiSig.Transaction[]",
						"numberOfBytes": "32"
					},
					"t_bool": {
						"encoding": "inplace",
						"label": "bool",
						"numberOfBytes": "1"
					},
					"t_mapping(t_address,t_bool)": {
						"encoding": "mapping",
						"key": "t_address",
						"label": "mapping(address => bool)",
						"numberOfBytes": "32",
						"value": "t_bool"
					},
					"t_mapping(t_uint256,t_mapping(t_address,t_bool))": {
						"encoding": "mapping",
						"key": "t_uint256",
						"label": "mapping(uint256 => mapping(address => bool))",
						"numberOfBytes": "32",
						"value": "t_mapping(t_address,t_bool)"
					},
					"t_struct(Transaction)13_storage": {
						"encoding": "inplace",
						"label": "struct MultiSig.Transaction",
						"members": [
							{
								"astId": 8,
								"contract": "multisig.sol:MultiSig",
								"label": "to",
								"offset": 0,
								"slot": "0",
								"type": "t_address"
							},
							{
								"astId": 10,
								"contract": "multisig.sol:MultiSig",
								"label": "value",
								"offset": 0,
								"slot": "1",
								"type": "t_uint256"
							},
							{
								"astId": 12,
								"contract": "multisig.sol:MultiSig",
								"label": "executed",
								"offset": 0,
								"slot": "2",
								"type": "t_bool"
							}
						],
						"numberOfBytes": "96"
					},
					"t_uint256": {
						"encoding": "inplace",
						"label": "uint256",
						"numberOfBytes": "32"
					}
				}
			},
			"userdoc": {
				"kind": "user",
				"methods": {},
				"version": 1
			}
		}
	}
}