{
	"SimpleWallet.sol": {
		"SimpleWallet": {
			"abi": [
				{
					"anonymous": false,
					"inputs": [
						{
							"indexed": true,
							"internalType": "address",
							"name": "user",
							"type": "address"
						},
						{
							"indexed": false,
							"internalType": "uint256",
							"name": "amount",
							"type": "uint256"
						}
					],
					"name": "Deposited",
					"type": "event"
				},
				{
					"anonymous": false,
					"inputs": [
						{
							"indexed": false,
							"internalType": "address",
							"name": "sender",
							"type": "address"
						},
						{
							"indexed": false,
							"internalType": "uint256",
							"name": "amount",
							"type": "uint256"
						},
						{
							"indexed": false,
							"internalType": "bytes",
							"name": "data",
							"type": "bytes"
						}
					],
					"name": "FallbackCalled",
					"type": "event"
				},
				{
					"anonymous": false,
					"inputs": [
						{
							"indexed": false,
							"internalType": "address",
							"name": "sender",
							"type": "address"
						},
						{
							"indexed": false,
							"internalType": "uint256",
							"name": "amount",
							"type": "uint256"
						}
					],
					"name": "Received",
					"type": "event"
				},
				{
					"anonymous": false,
					"inputs": [
						{
							"indexed": true,
							"internalType": "address",
							"name": "user",
							"type": "address"
						},
						{
							"indexed": false,
							"internalType": "uint256",
							"name": "amount",
							"type": "uint256"
						}
					],
					"name": "Withdrawn",
					"type": "event"
				},
				{
					"stateMutability": "payable",
					"type": "fallback"
				},
				{
					"inputs": [
						{
							"internalType": "address",
							"name": "",
							"type": "address"
						}
					],
					"name": "balances",
					"outputs": [
						{
							"internalType": "uint256",
							"name": "",
							"type": "uint256"
						}
					],
					"stateMutability": "view",
					"type": "function"
				},
				{
					"inputs": [],
					"name": "deposit",
					"outputs": [],
					"stateMutability": "payable",
					"type": "function"
				},
				{
					"inputs": [],
					"name": "getContractBalance",
					"outputs": [
						{
							"internalType": "uint256",
							"name": "",
							"type": "uint256"
						}
					],
					"stateMutability": "view",
					"type": "function"
				},
				{
					"inputs": [
						{
							"internalType": "uint256",
							"name": "amount",
							"type": "uint256"
						}
					],
					"name": "withdrawUsingCall",
					"outputs": [],
					"stateMutability": "nonpayable",
					"type": "function"
				},
				{
					"inputs": [
						{
							"internalType": "uint256",
							"name": "amount",
							"type": "uint256"
						}
					],
					"name": "withdrawUsingSend",
					"outputs": [],
					"stateMutability": "nonpayable",
					"type": "function"
				},
				{
					"inputs": [
						{
							"internalType": "uint256",
							"name": "amount",
							"type": "uint256"
						}
					],
					"name": "withdrawUsingTransfer",
					"outputs": [],
					"stateMutability": "nonpayable",
					"type": "function"
				},
				{
					"stateMutability": "payable",
					"type": "receive"
				}
			],
			"devdoc": {
				"kind": "dev",
				"methods": {},
				"version": 1
			},
			"evm": {
				"assembly": "    /* \"SimpleWallet.sol\":58:2258  contract SimpleWallet {... */\n  mstore(0x40, 0x80)\n  callvalue\n  dup1\n  iszero\n  tag_1\n  jumpi\n  0x00\n  dup1\n  revert\ntag_1:\n  pop\n  dataSize(sub_0)\n  dup1\n  dataOffset(sub_0)\n  0x00\n  codecopy\n  0x00\n  return\nstop\n\nsub_0: assembly {\n        /* \"SimpleWallet.sol\":58:2258  contract SimpleWallet {... */\n      mstore(0x40, 0x80)\n      jumpi(tag_1, lt(calldatasize, 0x04))\n      shr(0xe0, calldataload(0x00))\n      dup1\n      0x27e235e3\n      eq\n      tag_3\n      jumpi\n      dup1\n      0x48c8c908\n      eq\n      tag_4\n      jumpi\n      dup1\n      0x53e6141f\n      eq\n      tag_5\n      jumpi\n      dup1\n      0x6f9fb98a\n      eq\n      tag_6\n      jumpi\n      dup1\n      0x911d49df\n      eq\n      tag_7\n      jumpi\n      dup1\n      0xd0e30db0\n      eq\n      tag_8\n      jumpi\n      jump(tag_2)\n    tag_1:\n      jumpi(tag_2, calldatasize)\n        /* \"SimpleWallet.sol\":2016:2025  msg.value */\n      callvalue\n        /* \"SimpleWallet.sol\":1992:2000  balances */\n      0x00\n        /* \"SimpleWallet.sol\":1992:2012  balances[msg.sender] */\n      dup1\n        /* \"SimpleWallet.sol\":2001:2011  msg.sender */\n      caller\n        /* \"SimpleWallet.sol\":1992:2012  balances[msg.sender] */\n      0xffffffffffffffffffffffffffffffffffffffff\n      and\n      0xffffffffffffffffffffffffffffffffffffffff\n      and\n      dup2\n      mstore\n      0x20\n      add\n      swap1\n      dup2\n      mstore\n      0x20\n      add\n      0x00\n      keccak256\n      0x00\n        /* \"SimpleWallet.sol\":1992:2025  balances[msg.sender] += msg.value */\n      dup3\n      dup3\n      sload\n      tag_11\n      swap2\n      swap1\n      tag_12\n      jump\t// in\n    tag_11:\n      swap3\n      pop\n      pop\n      dup2\n      swap1\n      sstore\n      pop\n        /* \"SimpleWallet.sol\":2041:2072  Received(msg.sender, msg.value) */\n      0x88a5966d370b9919b20f3e2c13ff65706f196a4e32cc2c12bf57088f88525874\n        /* \"SimpleWallet.sol\":2050:2060  msg.sender */\n      caller\n        /* \"SimpleWallet.sol\":2062:2071  msg.value */\n      callvalue\n        /* \"SimpleWallet.sol\":2041:2072  Received(msg.sender, msg.value) */\n      mload(0x40)\n      tag_13\n      swap3\n      swap2\n      swap1\n      tag_14\n      jump\t// in\n    tag_13:\n      mload(0x40)\n      dup1\n      swap2\n      sub\n      swap1\n      log1\n        /* \"SimpleWallet.sol\":58:2258  contract SimpleWallet {... */\n      stop\n    tag_2:\n        /* \"SimpleWallet.sol\":2200:2247  FallbackCalled(msg.sender, msg.value, msg.data) */\n      0xaca09dd456ca888dccf8cc966e382e6e3042bb7e4d2d7815015f844edeafce42\n        /* \"SimpleWallet.sol\":2215:2225  msg.sender */\n      caller\n        /* \"SimpleWallet.sol\":2227:2236  msg.value */\n      callvalue\n        /* \"SimpleWallet.sol\":2238:2246  msg.data */\n      0x00\n      calldatasize\n        /* \"SimpleWallet.sol\":2200:2247  FallbackCalled(msg.sender, msg.value, msg.data) */\n      mload(0x40)\n      tag_17\n      swap5\n      swap4\n      swap3\n      swap2\n      swap1\n      tag_18\n      jump\t// in\n    tag_17:\n      mload(0x40)\n      dup1\n      swap2\n      sub\n      swap1\n      log1\n        /* \"SimpleWallet.sol\":58:2258  contract SimpleWallet {... */\n      stop\n        /* \"SimpleWallet.sol\":131:171  mapping(address => uint) public balances */\n    tag_3:\n      callvalue\n      dup1\n      iszero\n      tag_19\n      jumpi\n      0x00\n      dup1\n      revert\n    tag_19:\n      pop\n      tag_20\n      0x04\n      dup1\n      calldatasize\n      sub\n      dup2\n      add\n      swap1\n      tag_21\n      swap2\n      swap1\n      tag_22\n      jump\t// in\n    tag_21:\n      tag_23\n      jump\t// in\n    tag_20:\n      mload(0x40)\n      tag_24\n      swap2\n      swap1\n      tag_25\n      jump\t// in\n    tag_24:\n      mload(0x40)\n      dup1\n      swap2\n      sub\n      swap1\n      return\n        /* \"SimpleWallet.sol\":1056:1369  function withdrawUsingSend(uint amount) public {... */\n    tag_4:\n      callvalue\n      dup1\n      iszero\n      tag_26\n      jumpi\n      0x00\n      dup1\n      revert\n    tag_26:\n      pop\n      tag_27\n      0x04\n      dup1\n      calldatasize\n      sub\n      dup2\n      add\n      swap1\n      tag_28\n      swap2\n      swap1\n      tag_29\n      jump\t// in\n    tag_28:\n      tag_30\n      jump\t// in\n    tag_27:\n      stop\n        /* \"SimpleWallet.sol\":1426:1754  function withdrawUsingCall(uint amount) public {... */\n    tag_5:\n      callvalue\n      dup1\n      iszero\n      tag_31\n      jumpi\n      0x00\n      dup1\n      revert\n    tag_31:\n      pop\n      tag_32\n      0x04\n      dup1\n      calldatasize\n      sub\n      dup2\n      add\n      swap1\n      tag_33\n      swap2\n      swap1\n      tag_29\n      jump\t// in\n    tag_33:\n      tag_34\n      jump\t// in\n    tag_32:\n      stop\n        /* \"SimpleWallet.sol\":1795:1899  function getContractBalance() public view returns (uint) {... */\n    tag_6:\n      callvalue\n      dup1\n      iszero\n      tag_35\n      jumpi\n      0x00\n      dup1\n      revert\n    tag_35:\n      pop\n      tag_36\n      tag_37\n      jump\t// in\n    tag_36:\n      mload(0x40)\n      tag_38\n      swap2\n      swap1\n      tag_25\n      jump\t// in\n    tag_38:\n      mload(0x40)\n      dup1\n      swap2\n      sub\n      swap1\n      return\n        /* \"SimpleWallet.sol\":730:998  function withdrawUsingTransfer(uint amount) public {... */\n    tag_7:\n      callvalue\n      dup1\n      iszero\n      tag_39\n      jumpi\n      0x00\n      dup1\n      revert\n    tag_39:\n      pop\n      tag_40\n      0x04\n      dup1\n      calldatasize\n      sub\n      dup2\n      add\n      swap1\n      tag_41\n      swap2\n      swap1\n      tag_29\n      jump\t// in\n    tag_41:\n      tag_42\n      jump\t// in\n    tag_40:\n      stop\n        /* \"SimpleWallet.sol\":472:662  function deposit() public payable {... */\n    tag_8:\n      tag_43\n      tag_44\n      jump\t// in\n    tag_43:\n      stop\n        /* \"SimpleWallet.sol\":131:171  mapping(address => uint) public balances */\n    tag_23:\n      mstore(0x20, 0x00)\n      dup1\n      0x00\n      mstore\n      keccak256(0x00, 0x40)\n      0x00\n      swap2\n      pop\n      swap1\n      pop\n      sload\n      dup2\n      jump\t// out\n        /* \"SimpleWallet.sol\":1056:1369  function withdrawUsingSend(uint amount) public {... */\n    tag_30:\n        /* \"SimpleWallet.sol\":1146:1152  amount */\n      dup1\n        /* \"SimpleWallet.sol\":1122:1130  balances */\n      0x00\n        /* \"SimpleWallet.sol\":1122:1142  balances[msg.sender] */\n      dup1\n        /* \"SimpleWallet.sol\":1131:1141  msg.sender */\n      caller\n        /* \"SimpleWallet.sol\":1122:1142  balances[msg.sender] */\n      0xffffffffffffffffffffffffffffffffffffffff\n      and\n      0xffffffffffffffffffffffffffffffffffffffff\n      and\n      dup2\n      mstore\n      0x20\n      add\n      swap1\n      dup2\n      mstore\n      0x20\n      add\n      0x00\n      keccak256\n      sload\n        /* \"SimpleWallet.sol\":1122:1152  balances[msg.sender] >= amount */\n      lt\n      iszero\n        /* \"SimpleWallet.sol\":1114:1175  require(balances[msg.sender] >= amount, \"Not enough balance\") */\n      tag_46\n      jumpi\n      mload(0x40)\n      0x08c379a000000000000000000000000000000000000000000000000000000000\n      dup2\n      mstore\n      0x04\n      add\n      tag_47\n      swap1\n      tag_48\n      jump\t// in\n    tag_47:\n      mload(0x40)\n      dup1\n      swap2\n      sub\n      swap1\n      revert\n    tag_46:\n        /* \"SimpleWallet.sol\":1210:1216  amount */\n      dup1\n        /* \"SimpleWallet.sol\":1186:1194  balances */\n      0x00\n        /* \"SimpleWallet.sol\":1186:1206  balances[msg.sender] */\n      dup1\n        /* \"SimpleWallet.sol\":1195:1205  msg.sender */\n      caller\n        /* \"SimpleWallet.sol\":1186:1206  balances[msg.sender] */\n      0xffffffffffffffffffffffffffffffffffffffff\n      and\n      0xffffffffffffffffffffffffffffffffffffffff\n      and\n      dup2\n      mstore\n      0x20\n      add\n      swap1\n      dup2\n      mstore\n      0x20\n      add\n      0x00\n      keccak256\n      0x00\n        /* \"SimpleWallet.sol\":1186:1216  balances[msg.sender] -= amount */\n      dup3\n      dup3\n      sload\n      tag_49\n      swap2\n      swap1\n      tag_50\n      jump\t// in\n    tag_49:\n      swap3\n      pop\n      pop\n      dup2\n      swap1\n      sstore\n      pop\n        /* \"SimpleWallet.sol\":1227:1239  bool success */\n      0x00\n        /* \"SimpleWallet.sol\":1250:1260  msg.sender */\n      caller\n        /* \"SimpleWallet.sol\":1242:1266  payable(msg.sender).send */\n      0xffffffffffffffffffffffffffffffffffffffff\n      and\n        /* \"SimpleWallet.sol\":1242:1274  payable(msg.sender).send(amount) */\n      0x08fc\n        /* \"SimpleWallet.sol\":1267:1273  amount */\n      dup4\n        /* \"SimpleWallet.sol\":1242:1274  payable(msg.sender).send(amount) */\n      swap1\n      dup2\n      iszero\n      mul\n      swap1\n      mload(0x40)\n      0x00\n      mload(0x40)\n      dup1\n      dup4\n      sub\n      dup2\n      dup6\n      dup9\n      dup9\n      call\n      swap4\n      pop\n      pop\n      pop\n      pop\n        /* \"SimpleWallet.sol\":1227:1274  bool success = payable(msg.sender).send(amount) */\n      swap1\n      pop\n        /* \"SimpleWallet.sol\":1293:1300  success */\n      dup1\n        /* \"SimpleWallet.sol\":1285:1316  require(success, \"Send failed\") */\n      tag_52\n      jumpi\n      mload(0x40)\n      0x08c379a000000000000000000000000000000000000000000000000000000000\n      dup2\n      mstore\n      0x04\n      add\n      tag_53\n      swap1\n      tag_54\n      jump\t// in\n    tag_53:\n      mload(0x40)\n      dup1\n      swap2\n      sub\n      swap1\n      revert\n    tag_52:\n        /* \"SimpleWallet.sol\":1342:1352  msg.sender */\n      caller\n        /* \"SimpleWallet.sol\":1332:1361  Withdrawn(msg.sender, amount) */\n      0xffffffffffffffffffffffffffffffffffffffff\n      and\n      0x7084f5476618d8e60b11ef0d7d3f06914655adb8793e28ff7f018d4c76d505d5\n        /* \"SimpleWallet.sol\":1354:1360  amount */\n      dup4\n        /* \"SimpleWallet.sol\":1332:1361  Withdrawn(msg.sender, amount) */\n      mload(0x40)\n      tag_55\n      swap2\n      swap1\n      tag_25\n      jump\t// in\n    tag_55:\n      mload(0x40)\n      dup1\n      swap2\n      sub\n      swap1\n      log2\n        /* \"SimpleWallet.sol\":1103:1369  {... */\n      pop\n        /* \"SimpleWallet.sol\":1056:1369  function withdrawUsingSend(uint amount) public {... */\n      pop\n      jump\t// out\n        /* \"SimpleWallet.sol\":1426:1754  function withdrawUsingCall(uint amount) public {... */\n    tag_34:\n        /* \"SimpleWallet.sol\":1516:1522  amount */\n      dup1\n        /* \"SimpleWallet.sol\":1492:1500  balances */\n      0x00\n        /* \"SimpleWallet.sol\":1492:1512  balances[msg.sender] */\n      dup1\n        /* \"SimpleWallet.sol\":1501:1511  msg.sender */\n      caller\n        /* \"SimpleWallet.sol\":1492:1512  balances[msg.sender] */\n      0xffffffffffffffffffffffffffffffffffffffff\n      and\n      0xffffffffffffffffffffffffffffffffffffffff\n      and\n      dup2\n      mstore\n      0x20\n      add\n      swap1\n      dup2\n      mstore\n      0x20\n      add\n      0x00\n      keccak256\n      sload\n        /* \"SimpleWallet.sol\":1492:1522  balances[msg.sender] >= amount */\n      lt\n      iszero\n        /* \"SimpleWallet.sol\":1484:1545  require(balances[msg.sender] >= amount, \"Not enough balance\") */\n      tag_57\n      jumpi\n      mload(0x40)\n      0x08c379a000000000000000000000000000000000000000000000000000000000\n      dup2\n      mstore\n      0x04\n      add\n      tag_58\n      swap1\n      tag_48\n      jump\t// in\n    tag_58:\n      mload(0x40)\n      dup1\n      swap2\n      sub\n      swap1\n      revert\n    tag_57:\n        /* \"SimpleWallet.sol\":1580:1586  amount */\n      dup1\n        /* \"SimpleWallet.sol\":1556:1564  balances */\n      0x00\n        /* \"SimpleWallet.sol\":1556:1576  balances[msg.sender] */\n      dup1\n        /* \"SimpleWallet.sol\":1565:1575  msg.sender */\n      caller\n        /* \"SimpleWallet.sol\":1556:1576  balances[msg.sender] */\n      0xffffffffffffffffffffffffffffffffffffffff\n      and\n      0xffffffffffffffffffffffffffffffffffffffff\n      and\n      dup2\n      mstore\n      0x20\n      add\n      swap1\n      dup2\n      mstore\n      0x20\n      add\n      0x00\n      keccak256\n      0x00\n        /* \"SimpleWallet.sol\":1556:1586  balances[msg.sender] -= amount */\n      dup3\n      dup3\n      sload\n      tag_59\n      swap2\n      swap1\n      tag_50\n      jump\t// in\n    tag_59:\n      swap3\n      pop\n      pop\n      dup2\n      swap1\n      sstore\n      pop\n        /* \"SimpleWallet.sol\":1598:1610  bool success */\n      0x00\n        /* \"SimpleWallet.sol\":1624:1634  msg.sender */\n      caller\n        /* \"SimpleWallet.sol\":1616:1640  payable(msg.sender).call */\n      0xffffffffffffffffffffffffffffffffffffffff\n      and\n        /* \"SimpleWallet.sol\":1648:1654  amount */\n      dup3\n        /* \"SimpleWallet.sol\":1616:1659  payable(msg.sender).call{value: amount}(\"\") */\n      mload(0x40)\n      tag_60\n      swap1\n      tag_61\n      jump\t// in\n    tag_60:\n      0x00\n      mload(0x40)\n      dup1\n      dup4\n      sub\n      dup2\n      dup6\n      dup8\n      gas\n      call\n      swap3\n      pop\n      pop\n      pop\n      returndatasize\n      dup1\n      0x00\n      dup2\n      eq\n      tag_64\n      jumpi\n      mload(0x40)\n      swap2\n      pop\n      and(add(returndatasize, 0x3f), not(0x1f))\n      dup3\n      add\n      0x40\n      mstore\n      returndatasize\n      dup3\n      mstore\n      returndatasize\n      0x00\n      0x20\n      dup5\n      add\n      returndatacopy\n      jump(tag_63)\n    tag_64:\n      0x60\n      swap2\n      pop\n    tag_63:\n      pop\n        /* \"SimpleWallet.sol\":1597:1659  (bool success, ) = payable(msg.sender).call{value: amount}(\"\") */\n      pop\n      swap1\n      pop\n        /* \"SimpleWallet.sol\":1678:1685  success */\n      dup1\n        /* \"SimpleWallet.sol\":1670:1701  require(success, \"Call failed\") */\n      tag_65\n      jumpi\n      mload(0x40)\n      0x08c379a000000000000000000000000000000000000000000000000000000000\n      dup2\n      mstore\n      0x04\n      add\n      tag_66\n      swap1\n      tag_67\n      jump\t// in\n    tag_66:\n      mload(0x40)\n      dup1\n      swap2\n      sub\n      swap1\n      revert\n    tag_65:\n        /* \"SimpleWallet.sol\":1727:1737  msg.sender */\n      caller\n        /* \"SimpleWallet.sol\":1717:1746  Withdrawn(msg.sender, amount) */\n      0xffffffffffffffffffffffffffffffffffffffff\n      and\n      0x7084f5476618d8e60b11ef0d7d3f06914655adb8793e28ff7f018d4c76d505d5\n        /* \"SimpleWallet.sol\":1739:1745  amount */\n      dup4\n        /* \"SimpleWallet.sol\":1717:1746  Withdrawn(msg.sender, amount) */\n      mload(0x40)\n      tag_68\n      swap2\n      swap1\n      tag_25\n      jump\t// in\n    tag_68:\n      mload(0x40)\n      dup1\n      swap2\n      sub\n      swap1\n      log2\n        /* \"SimpleWallet.sol\":1473:1754  {... */\n      pop\n        /* \"SimpleWallet.sol\":1426:1754  function withdrawUsingCall(uint amount) public {... */\n      pop\n      jump\t// out\n        /* \"SimpleWallet.sol\":1795:1899  function getContractBalance() public view returns (uint) {... */\n    tag_37:\n        /* \"SimpleWallet.sol\":1846:1850  uint */\n      0x00\n        /* \"SimpleWallet.sol\":1870:1891  address(this).balance */\n      selfbalance\n        /* \"SimpleWallet.sol\":1863:1891  return address(this).balance */\n      swap1\n      pop\n        /* \"SimpleWallet.sol\":1795:1899  function getContractBalance() public view returns (uint) {... */\n      swap1\n      jump\t// out\n        /* \"SimpleWallet.sol\":730:998  function withdrawUsingTransfer(uint amount) public {... */\n    tag_42:\n        /* \"SimpleWallet.sol\":824:830  amount */\n      dup1\n        /* \"SimpleWallet.sol\":800:808  balances */\n      0x00\n        /* \"SimpleWallet.sol\":800:820  balances[msg.sender] */\n      dup1\n        /* \"SimpleWallet.sol\":809:819  msg.sender */\n      caller\n        /* \"SimpleWallet.sol\":800:820  balances[msg.sender] */\n      0xffffffffffffffffffffffffffffffffffffffff\n      and\n      0xffffffffffffffffffffffffffffffffffffffff\n      and\n      dup2\n      mstore\n      0x20\n      add\n      swap1\n      dup2\n      mstore\n      0x20\n      add\n      0x00\n      keccak256\n      sload\n        /* \"SimpleWallet.sol\":800:830  balances[msg.sender] >= amount */\n      lt\n      iszero\n        /* \"SimpleWallet.sol\":792:853  require(balances[msg.sender] >= amount, \"Not enough balance\") */\n      tag_71\n      jumpi\n      mload(0x40)\n      0x08c379a000000000000000000000000000000000000000000000000000000000\n      dup2\n      mstore\n      0x04\n      add\n      tag_72\n      swap1\n      tag_48\n      jump\t// in\n    tag_72:\n      mload(0x40)\n      dup1\n      swap2\n      sub\n      swap1\n      revert\n    tag_71:\n        /* \"SimpleWallet.sol\":890:896  amount */\n      dup1\n        /* \"SimpleWallet.sol\":866:874  balances */\n      0x00\n        /* \"SimpleWallet.sol\":866:886  balances[msg.sender] */\n      dup1\n        /* \"SimpleWallet.sol\":875:885  msg.sender */\n      caller\n        /* \"SimpleWallet.sol\":866:886  balances[msg.sender] */\n      0xffffffffffffffffffffffffffffffffffffffff\n      and\n      0xffffffffffffffffffffffffffffffffffffffff\n      and\n      dup2\n      mstore\n      0x20\n      add\n      swap1\n      dup2\n      mstore\n      0x20\n      add\n      0x00\n      keccak256\n      0x00\n        /* \"SimpleWallet.sol\":866:896  balances[msg.sender] -= amount */\n      dup3\n      dup3\n      sload\n      tag_73\n      swap2\n      swap1\n      tag_50\n      jump\t// in\n    tag_73:\n      swap3\n      pop\n      pop\n      dup2\n      swap1\n      sstore\n      pop\n        /* \"SimpleWallet.sol\":915:925  msg.sender */\n      caller\n        /* \"SimpleWallet.sol\":907:935  payable(msg.sender).transfer */\n      0xffffffffffffffffffffffffffffffffffffffff\n      and\n        /* \"SimpleWallet.sol\":907:943  payable(msg.sender).transfer(amount) */\n      0x08fc\n        /* \"SimpleWallet.sol\":936:942  amount */\n      dup3\n        /* \"SimpleWallet.sol\":907:943  payable(msg.sender).transfer(amount) */\n      swap1\n      dup2\n      iszero\n      mul\n      swap1\n      mload(0x40)\n      0x00\n      mload(0x40)\n      dup1\n      dup4\n      sub\n      dup2\n      dup6\n      dup9\n      dup9\n      call\n      swap4\n      pop\n      pop\n      pop\n      pop\n      iszero\n      dup1\n      iszero\n      tag_75\n      jumpi\n      returndatasize\n      0x00\n      dup1\n      returndatacopy\n      revert(0x00, returndatasize)\n    tag_75:\n      pop\n        /* \"SimpleWallet.sol\":971:981  msg.sender */\n      caller\n        /* \"SimpleWallet.sol\":961:990  Withdrawn(msg.sender, amount) */\n      0xffffffffffffffffffffffffffffffffffffffff\n      and\n      0x7084f5476618d8e60b11ef0d7d3f06914655adb8793e28ff7f018d4c76d505d5\n        /* \"SimpleWallet.sol\":983:989  amount */\n      dup3\n        /* \"SimpleWallet.sol\":961:990  Withdrawn(msg.sender, amount) */\n      mload(0x40)\n      tag_76\n      swap2\n      swap1\n      tag_25\n      jump\t// in\n    tag_76:\n      mload(0x40)\n      dup1\n      swap2\n      sub\n      swap1\n      log2\n        /* \"SimpleWallet.sol\":730:998  function withdrawUsingTransfer(uint amount) public {... */\n      pop\n      jump\t// out\n        /* \"SimpleWallet.sol\":472:662  function deposit() public payable {... */\n    tag_44:\n        /* \"SimpleWallet.sol\":537:538  0 */\n      0x00\n        /* \"SimpleWallet.sol\":525:534  msg.value */\n      callvalue\n        /* \"SimpleWallet.sol\":525:538  msg.value > 0 */\n      gt\n        /* \"SimpleWallet.sol\":517:558  require(msg.value > 0, \"Send some Ether\") */\n      tag_78\n      jumpi\n      mload(0x40)\n      0x08c379a000000000000000000000000000000000000000000000000000000000\n      dup2\n      mstore\n      0x04\n      add\n      tag_79\n      swap1\n      tag_80\n      jump\t// in\n    tag_79:\n      mload(0x40)\n      dup1\n      swap2\n      sub\n      swap1\n      revert\n    tag_78:\n        /* \"SimpleWallet.sol\":595:604  msg.value */\n      callvalue\n        /* \"SimpleWallet.sol\":571:579  balances */\n      0x00\n        /* \"SimpleWallet.sol\":571:591  balances[msg.sender] */\n      dup1\n        /* \"SimpleWallet.sol\":580:590  msg.sender */\n      caller\n        /* \"SimpleWallet.sol\":571:591  balances[msg.sender] */\n      0xffffffffffffffffffffffffffffffffffffffff\n      and\n      0xffffffffffffffffffffffffffffffffffffffff\n      and\n      dup2\n      mstore\n      0x20\n      add\n      swap1\n      dup2\n      mstore\n      0x20\n      add\n      0x00\n      keccak256\n      0x00\n        /* \"SimpleWallet.sol\":571:604  balances[msg.sender] += msg.value */\n      dup3\n      dup3\n      sload\n      tag_81\n      swap2\n      swap1\n      tag_12\n      jump\t// in\n    tag_81:\n      swap3\n      pop\n      pop\n      dup2\n      swap1\n      sstore\n      pop\n        /* \"SimpleWallet.sol\":632:642  msg.sender */\n      caller\n        /* \"SimpleWallet.sol\":622:654  Deposited(msg.sender, msg.value) */\n      0xffffffffffffffffffffffffffffffffffffffff\n      and\n      0x2da466a7b24304f47e87fa2e1e5a81b9831ce54fec19055ce277ca2f39ba42c4\n        /* \"SimpleWallet.sol\":644:653  msg.value */\n      callvalue\n        /* \"SimpleWallet.sol\":622:654  Deposited(msg.sender, msg.value) */\n      mload(0x40)\n      tag_82\n      swap2\n      swap1\n      tag_25\n      jump\t// in\n    tag_82:\n      mload(0x40)\n      dup1\n      swap2\n      sub\n      swap1\n      log2\n        /* \"SimpleWallet.sol\":472:662  function deposit() public payable {... */\n      jump\t// out\n        /* \"#utility.yul\":7:84   */\n    tag_83:\n        /* \"#utility.yul\":44:51   */\n      0x00\n        /* \"#utility.yul\":73:78   */\n      dup2\n        /* \"#utility.yul\":62:78   */\n      swap1\n      pop\n        /* \"#utility.yul\":7:84   */\n      swap2\n      swap1\n      pop\n      jump\t// out\n        /* \"#utility.yul\":90:270   */\n    tag_84:\n        /* \"#utility.yul\":138:215   */\n      0x4e487b7100000000000000000000000000000000000000000000000000000000\n        /* \"#utility.yul\":135:136   */\n      0x00\n        /* \"#utility.yul\":128:216   */\n      mstore\n        /* \"#utility.yul\":235:239   */\n      0x11\n        /* \"#utility.yul\":232:233   */\n      0x04\n        /* \"#utility.yul\":225:240   */\n      mstore\n        /* \"#utility.yul\":259:263   */\n      0x24\n        /* \"#utility.yul\":256:257   */\n      0x00\n        /* \"#utility.yul\":249:264   */\n      revert\n        /* \"#utility.yul\":276:467   */\n    tag_12:\n        /* \"#utility.yul\":316:319   */\n      0x00\n        /* \"#utility.yul\":335:355   */\n      tag_116\n        /* \"#utility.yul\":353:354   */\n      dup3\n        /* \"#utility.yul\":335:355   */\n      tag_83\n      jump\t// in\n    tag_116:\n        /* \"#utility.yul\":330:355   */\n      swap2\n      pop\n        /* \"#utility.yul\":369:389   */\n      tag_117\n        /* \"#utility.yul\":387:388   */\n      dup4\n        /* \"#utility.yul\":369:389   */\n      tag_83\n      jump\t// in\n    tag_117:\n        /* \"#utility.yul\":364:389   */\n      swap3\n      pop\n        /* \"#utility.yul\":412:413   */\n      dup3\n        /* \"#utility.yul\":409:410   */\n      dup3\n        /* \"#utility.yul\":405:414   */\n      add\n        /* \"#utility.yul\":398:414   */\n      swap1\n      pop\n        /* \"#utility.yul\":433:436   */\n      dup1\n        /* \"#utility.yul\":430:431   */\n      dup3\n        /* \"#utility.yul\":427:437   */\n      gt\n        /* \"#utility.yul\":424:460   */\n      iszero\n      tag_118\n      jumpi\n        /* \"#utility.yul\":440:458   */\n      tag_119\n      tag_84\n      jump\t// in\n    tag_119:\n        /* \"#utility.yul\":424:460   */\n    tag_118:\n        /* \"#utility.yul\":276:467   */\n      swap3\n      swap2\n      pop\n      pop\n      jump\t// out\n        /* \"#utility.yul\":473:599   */\n    tag_85:\n        /* \"#utility.yul\":510:517   */\n      0x00\n        /* \"#utility.yul\":550:592   */\n      0xffffffffffffffffffffffffffffffffffffffff\n        /* \"#utility.yul\":543:548   */\n      dup3\n        /* \"#utility.yul\":539:593   */\n      and\n        /* \"#utility.yul\":528:593   */\n      swap1\n      pop\n        /* \"#utility.yul\":473:599   */\n      swap2\n      swap1\n      pop\n      jump\t// out\n        /* \"#utility.yul\":605:701   */\n    tag_86:\n        /* \"#utility.yul\":642:649   */\n      0x00\n        /* \"#utility.yul\":671:695   */\n      tag_122\n        /* \"#utility.yul\":689:694   */\n      dup3\n        /* \"#utility.yul\":671:695   */\n      tag_85\n      jump\t// in\n    tag_122:\n        /* \"#utility.yul\":660:695   */\n      swap1\n      pop\n        /* \"#utility.yul\":605:701   */\n      swap2\n      swap1\n      pop\n      jump\t// out\n        /* \"#utility.yul\":707:825   */\n    tag_87:\n        /* \"#utility.yul\":794:818   */\n      tag_124\n        /* \"#utility.yul\":812:817   */\n      dup2\n        /* \"#utility.yul\":794:818   */\n      tag_86\n      jump\t// in\n    tag_124:\n        /* \"#utility.yul\":789:792   */\n      dup3\n        /* \"#utility.yul\":782:819   */\n      mstore\n        /* \"#utility.yul\":707:825   */\n      pop\n      pop\n      jump\t// out\n        /* \"#utility.yul\":831:949   */\n    tag_88:\n        /* \"#utility.yul\":918:942   */\n      tag_126\n        /* \"#utility.yul\":936:941   */\n      dup2\n        /* \"#utility.yul\":918:942   */\n      tag_83\n      jump\t// in\n    tag_126:\n        /* \"#utility.yul\":913:916   */\n      dup3\n        /* \"#utility.yul\":906:943   */\n      mstore\n        /* \"#utility.yul\":831:949   */\n      pop\n      pop\n      jump\t// out\n        /* \"#utility.yul\":955:1287   */\n    tag_14:\n        /* \"#utility.yul\":1076:1080   */\n      0x00\n        /* \"#utility.yul\":1114:1116   */\n      0x40\n        /* \"#utility.yul\":1103:1112   */\n      dup3\n        /* \"#utility.yul\":1099:1117   */\n      add\n        /* \"#utility.yul\":1091:1117   */\n      swap1\n      pop\n        /* \"#utility.yul\":1127:1198   */\n      tag_128\n        /* \"#utility.yul\":1195:1196   */\n      0x00\n        /* \"#utility.yul\":1184:1193   */\n      dup4\n        /* \"#utility.yul\":1180:1197   */\n      add\n        /* \"#utility.yul\":1171:1177   */\n      dup6\n        /* \"#utility.yul\":1127:1198   */\n      tag_87\n      jump\t// in\n    tag_128:\n        /* \"#utility.yul\":1208:1280   */\n      tag_129\n        /* \"#utility.yul\":1276:1278   */\n      0x20\n        /* \"#utility.yul\":1265:1274   */\n      dup4\n        /* \"#utility.yul\":1261:1279   */\n      add\n        /* \"#utility.yul\":1252:1258   */\n      dup5\n        /* \"#utility.yul\":1208:1280   */\n      tag_88\n      jump\t// in\n    tag_129:\n        /* \"#utility.yul\":955:1287   */\n      swap4\n      swap3\n      pop\n      pop\n      pop\n      jump\t// out\n        /* \"#utility.yul\":1293:1461   */\n    tag_89:\n        /* \"#utility.yul\":1376:1387   */\n      0x00\n        /* \"#utility.yul\":1410:1416   */\n      dup3\n        /* \"#utility.yul\":1405:1408   */\n      dup3\n        /* \"#utility.yul\":1398:1417   */\n      mstore\n        /* \"#utility.yul\":1450:1454   */\n      0x20\n        /* \"#utility.yul\":1445:1448   */\n      dup3\n        /* \"#utility.yul\":1441:1455   */\n      add\n        /* \"#utility.yul\":1426:1455   */\n      swap1\n      pop\n        /* \"#utility.yul\":1293:1461   */\n      swap3\n      swap2\n      pop\n      pop\n      jump\t// out\n        /* \"#utility.yul\":1467:1613   */\n    tag_90:\n        /* \"#utility.yul\":1564:1570   */\n      dup3\n        /* \"#utility.yul\":1559:1562   */\n      dup2\n        /* \"#utility.yul\":1554:1557   */\n      dup4\n        /* \"#utility.yul\":1541:1571   */\n      calldatacopy\n        /* \"#utility.yul\":1605:1606   */\n      0x00\n        /* \"#utility.yul\":1596:1602   */\n      dup4\n        /* \"#utility.yul\":1591:1594   */\n      dup4\n        /* \"#utility.yul\":1587:1603   */\n      add\n        /* \"#utility.yul\":1580:1607   */\n      mstore\n        /* \"#utility.yul\":1467:1613   */\n      pop\n      pop\n      pop\n      jump\t// out\n        /* \"#utility.yul\":1619:1721   */\n    tag_91:\n        /* \"#utility.yul\":1660:1666   */\n      0x00\n        /* \"#utility.yul\":1711:1713   */\n      0x1f\n        /* \"#utility.yul\":1707:1714   */\n      not\n        /* \"#utility.yul\":1702:1704   */\n      0x1f\n        /* \"#utility.yul\":1695:1700   */\n      dup4\n        /* \"#utility.yul\":1691:1705   */\n      add\n        /* \"#utility.yul\":1687:1715   */\n      and\n        /* \"#utility.yul\":1677:1715   */\n      swap1\n      pop\n        /* \"#utility.yul\":1619:1721   */\n      swap2\n      swap1\n      pop\n      jump\t// out\n        /* \"#utility.yul\":1749:2063   */\n    tag_92:\n        /* \"#utility.yul\":1845:1848   */\n      0x00\n        /* \"#utility.yul\":1866:1936   */\n      tag_134\n        /* \"#utility.yul\":1929:1935   */\n      dup4\n        /* \"#utility.yul\":1924:1927   */\n      dup6\n        /* \"#utility.yul\":1866:1936   */\n      tag_89\n      jump\t// in\n    tag_134:\n        /* \"#utility.yul\":1859:1936   */\n      swap4\n      pop\n        /* \"#utility.yul\":1946:2002   */\n      tag_135\n        /* \"#utility.yul\":1995:2001   */\n      dup4\n        /* \"#utility.yul\":1990:1993   */\n      dup6\n        /* \"#utility.yul\":1983:1988   */\n      dup5\n        /* \"#utility.yul\":1946:2002   */\n      tag_90\n      jump\t// in\n    tag_135:\n        /* \"#utility.yul\":2027:2056   */\n      tag_136\n        /* \"#utility.yul\":2049:2055   */\n      dup4\n        /* \"#utility.yul\":2027:2056   */\n      tag_91\n      jump\t// in\n    tag_136:\n        /* \"#utility.yul\":2022:2025   */\n      dup5\n        /* \"#utility.yul\":2018:2057   */\n      add\n        /* \"#utility.yul\":2011:2057   */\n      swap1\n      pop\n        /* \"#utility.yul\":1749:2063   */\n      swap4\n      swap3\n      pop\n      pop\n      pop\n      jump\t// out\n        /* \"#utility.yul\":2069:2618   */\n    tag_18:\n        /* \"#utility.yul\":2246:2250   */\n      0x00\n        /* \"#utility.yul\":2284:2286   */\n      0x60\n        /* \"#utility.yul\":2273:2282   */\n      dup3\n        /* \"#utility.yul\":2269:2287   */\n      add\n        /* \"#utility.yul\":2261:2287   */\n      swap1\n      pop\n        /* \"#utility.yul\":2297:2368   */\n      tag_138\n        /* \"#utility.yul\":2365:2366   */\n      0x00\n        /* \"#utility.yul\":2354:2363   */\n      dup4\n        /* \"#utility.yul\":2350:2367   */\n      add\n        /* \"#utility.yul\":2341:2347   */\n      dup8\n        /* \"#utility.yul\":2297:2368   */\n      tag_87\n      jump\t// in\n    tag_138:\n        /* \"#utility.yul\":2378:2450   */\n      tag_139\n        /* \"#utility.yul\":2446:2448   */\n      0x20\n        /* \"#utility.yul\":2435:2444   */\n      dup4\n        /* \"#utility.yul\":2431:2449   */\n      add\n        /* \"#utility.yul\":2422:2428   */\n      dup7\n        /* \"#utility.yul\":2378:2450   */\n      tag_88\n      jump\t// in\n    tag_139:\n        /* \"#utility.yul\":2497:2506   */\n      dup2\n        /* \"#utility.yul\":2491:2495   */\n      dup2\n        /* \"#utility.yul\":2487:2507   */\n      sub\n        /* \"#utility.yul\":2482:2484   */\n      0x40\n        /* \"#utility.yul\":2471:2480   */\n      dup4\n        /* \"#utility.yul\":2467:2485   */\n      add\n        /* \"#utility.yul\":2460:2508   */\n      mstore\n        /* \"#utility.yul\":2525:2611   */\n      tag_140\n        /* \"#utility.yul\":2606:2610   */\n      dup2\n        /* \"#utility.yul\":2597:2603   */\n      dup5\n        /* \"#utility.yul\":2589:2595   */\n      dup7\n        /* \"#utility.yul\":2525:2611   */\n      tag_92\n      jump\t// in\n    tag_140:\n        /* \"#utility.yul\":2517:2611   */\n      swap1\n      pop\n        /* \"#utility.yul\":2069:2618   */\n      swap6\n      swap5\n      pop\n      pop\n      pop\n      pop\n      pop\n      jump\t// out\n        /* \"#utility.yul\":2705:2822   */\n    tag_94:\n        /* \"#utility.yul\":2814:2815   */\n      0x00\n        /* \"#utility.yul\":2811:2812   */\n      dup1\n        /* \"#utility.yul\":2804:2816   */\n      revert\n        /* \"#utility.yul\":2951:3073   */\n    tag_96:\n        /* \"#utility.yul\":3024:3048   */\n      tag_145\n        /* \"#utility.yul\":3042:3047   */\n      dup2\n        /* \"#utility.yul\":3024:3048   */\n      tag_86\n      jump\t// in\n    tag_145:\n        /* \"#utility.yul\":3017:3022   */\n      dup2\n        /* \"#utility.yul\":3014:3049   */\n      eq\n        /* \"#utility.yul\":3004:3067   */\n      tag_146\n      jumpi\n        /* \"#utility.yul\":3063:3064   */\n      0x00\n        /* \"#utility.yul\":3060:3061   */\n      dup1\n        /* \"#utility.yul\":3053:3065   */\n      revert\n        /* \"#utility.yul\":3004:3067   */\n    tag_146:\n        /* \"#utility.yul\":2951:3073   */\n      pop\n      jump\t// out\n        /* \"#utility.yul\":3079:3218   */\n    tag_97:\n        /* \"#utility.yul\":3125:3130   */\n      0x00\n        /* \"#utility.yul\":3163:3169   */\n      dup2\n        /* \"#utility.yul\":3150:3170   */\n      calldataload\n        /* \"#utility.yul\":3141:3170   */\n      swap1\n      pop\n        /* \"#utility.yul\":3179:3212   */\n      tag_148\n        /* \"#utility.yul\":3206:3211   */\n      dup2\n        /* \"#utility.yul\":3179:3212   */\n      tag_96\n      jump\t// in\n    tag_148:\n        /* \"#utility.yul\":3079:3218   */\n      swap3\n      swap2\n      pop\n      pop\n      jump\t// out\n        /* \"#utility.yul\":3224:3553   */\n    tag_22:\n        /* \"#utility.yul\":3283:3289   */\n      0x00\n        /* \"#utility.yul\":3332:3334   */\n      0x20\n        /* \"#utility.yul\":3320:3329   */\n      dup3\n        /* \"#utility.yul\":3311:3318   */\n      dup5\n        /* \"#utility.yul\":3307:3330   */\n      sub\n        /* \"#utility.yul\":3303:3335   */\n      slt\n        /* \"#utility.yul\":3300:3419   */\n      iszero\n      tag_150\n      jumpi\n        /* \"#utility.yul\":3338:3417   */\n      tag_151\n      tag_94\n      jump\t// in\n    tag_151:\n        /* \"#utility.yul\":3300:3419   */\n    tag_150:\n        /* \"#utility.yul\":3458:3459   */\n      0x00\n        /* \"#utility.yul\":3483:3536   */\n      tag_152\n        /* \"#utility.yul\":3528:3535   */\n      dup5\n        /* \"#utility.yul\":3519:3525   */\n      dup3\n        /* \"#utility.yul\":3508:3517   */\n      dup6\n        /* \"#utility.yul\":3504:3526   */\n      add\n        /* \"#utility.yul\":3483:3536   */\n      tag_97\n      jump\t// in\n    tag_152:\n        /* \"#utility.yul\":3473:3536   */\n      swap2\n      pop\n        /* \"#utility.yul\":3429:3546   */\n      pop\n        /* \"#utility.yul\":3224:3553   */\n      swap3\n      swap2\n      pop\n      pop\n      jump\t// out\n        /* \"#utility.yul\":3559:3781   */\n    tag_25:\n        /* \"#utility.yul\":3652:3656   */\n      0x00\n        /* \"#utility.yul\":3690:3692   */\n      0x20\n        /* \"#utility.yul\":3679:3688   */\n      dup3\n        /* \"#utility.yul\":3675:3693   */\n      add\n        /* \"#utility.yul\":3667:3693   */\n      swap1\n      pop\n        /* \"#utility.yul\":3703:3774   */\n      tag_154\n        /* \"#utility.yul\":3771:3772   */\n      0x00\n        /* \"#utility.yul\":3760:3769   */\n      dup4\n        /* \"#utility.yul\":3756:3773   */\n      add\n        /* \"#utility.yul\":3747:3753   */\n      dup5\n        /* \"#utility.yul\":3703:3774   */\n      tag_88\n      jump\t// in\n    tag_154:\n        /* \"#utility.yul\":3559:3781   */\n      swap3\n      swap2\n      pop\n      pop\n      jump\t// out\n        /* \"#utility.yul\":3787:3909   */\n    tag_98:\n        /* \"#utility.yul\":3860:3884   */\n      tag_156\n        /* \"#utility.yul\":3878:3883   */\n      dup2\n        /* \"#utility.yul\":3860:3884   */\n      tag_83\n      jump\t// in\n    tag_156:\n        /* \"#utility.yul\":3853:3858   */\n      dup2\n        /* \"#utility.yul\":3850:3885   */\n      eq\n        /* \"#utility.yul\":3840:3903   */\n      tag_157\n      jumpi\n        /* \"#utility.yul\":3899:3900   */\n      0x00\n        /* \"#utility.yul\":3896:3897   */\n      dup1\n        /* \"#utility.yul\":3889:3901   */\n      revert\n        /* \"#utility.yul\":3840:3903   */\n    tag_157:\n        /* \"#utility.yul\":3787:3909   */\n      pop\n      jump\t// out\n        /* \"#utility.yul\":3915:4054   */\n    tag_99:\n        /* \"#utility.yul\":3961:3966   */\n      0x00\n        /* \"#utility.yul\":3999:4005   */\n      dup2\n        /* \"#utility.yul\":3986:4006   */\n      calldataload\n        /* \"#utility.yul\":3977:4006   */\n      swap1\n      pop\n        /* \"#utility.yul\":4015:4048   */\n      tag_159\n        /* \"#utility.yul\":4042:4047   */\n      dup2\n        /* \"#utility.yul\":4015:4048   */\n      tag_98\n      jump\t// in\n    tag_159:\n        /* \"#utility.yul\":3915:4054   */\n      swap3\n      swap2\n      pop\n      pop\n      jump\t// out\n        /* \"#utility.yul\":4060:4389   */\n    tag_29:\n        /* \"#utility.yul\":4119:4125   */\n      0x00\n        /* \"#utility.yul\":4168:4170   */\n      0x20\n        /* \"#utility.yul\":4156:4165   */\n      dup3\n        /* \"#utility.yul\":4147:4154   */\n      dup5\n        /* \"#utility.yul\":4143:4166   */\n      sub\n        /* \"#utility.yul\":4139:4171   */\n      slt\n        /* \"#utility.yul\":4136:4255   */\n      iszero\n      tag_161\n      jumpi\n        /* \"#utility.yul\":4174:4253   */\n      tag_162\n      tag_94\n      jump\t// in\n    tag_162:\n        /* \"#utility.yul\":4136:4255   */\n    tag_161:\n        /* \"#utility.yul\":4294:4295   */\n      0x00\n        /* \"#utility.yul\":4319:4372   */\n      tag_163\n        /* \"#utility.yul\":4364:4371   */\n      dup5\n        /* \"#utility.yul\":4355:4361   */\n      dup3\n        /* \"#utility.yul\":4344:4353   */\n      dup6\n        /* \"#utility.yul\":4340:4362   */\n      add\n        /* \"#utility.yul\":4319:4372   */\n      tag_99\n      jump\t// in\n    tag_163:\n        /* \"#utility.yul\":4309:4372   */\n      swap2\n      pop\n        /* \"#utility.yul\":4265:4382   */\n      pop\n        /* \"#utility.yul\":4060:4389   */\n      swap3\n      swap2\n      pop\n      pop\n      jump\t// out\n        /* \"#utility.yul\":4395:4564   */\n    tag_100:\n        /* \"#utility.yul\":4479:4490   */\n      0x00\n        /* \"#utility.yul\":4513:4519   */\n      dup3\n        /* \"#utility.yul\":4508:4511   */\n      dup3\n        /* \"#utility.yul\":4501:4520   */\n      mstore\n        /* \"#utility.yul\":4553:4557   */\n      0x20\n        /* \"#utility.yul\":4548:4551   */\n      dup3\n        /* \"#utility.yul\":4544:4558   */\n      add\n        /* \"#utility.yul\":4529:4558   */\n      swap1\n      pop\n        /* \"#utility.yul\":4395:4564   */\n      swap3\n      swap2\n      pop\n      pop\n      jump\t// out\n        /* \"#utility.yul\":4570:4738   */\n    tag_101:\n        /* \"#utility.yul\":4710:4730   */\n      0x4e6f7420656e6f7567682062616c616e63650000000000000000000000000000\n        /* \"#utility.yul\":4706:4707   */\n      0x00\n        /* \"#utility.yul\":4698:4704   */\n      dup3\n        /* \"#utility.yul\":4694:4708   */\n      add\n        /* \"#utility.yul\":4687:4731   */\n      mstore\n        /* \"#utility.yul\":4570:4738   */\n      pop\n      jump\t// out\n        /* \"#utility.yul\":4744:5110   */\n    tag_102:\n        /* \"#utility.yul\":4886:4889   */\n      0x00\n        /* \"#utility.yul\":4907:4974   */\n      tag_167\n        /* \"#utility.yul\":4971:4973   */\n      0x12\n        /* \"#utility.yul\":4966:4969   */\n      dup4\n        /* \"#utility.yul\":4907:4974   */\n      tag_100\n      jump\t// in\n    tag_167:\n        /* \"#utility.yul\":4900:4974   */\n      swap2\n      pop\n        /* \"#utility.yul\":4983:5076   */\n      tag_168\n        /* \"#utility.yul\":5072:5075   */\n      dup3\n        /* \"#utility.yul\":4983:5076   */\n      tag_101\n      jump\t// in\n    tag_168:\n        /* \"#utility.yul\":5101:5103   */\n      0x20\n        /* \"#utility.yul\":5096:5099   */\n      dup3\n        /* \"#utility.yul\":5092:5104   */\n      add\n        /* \"#utility.yul\":5085:5104   */\n      swap1\n      pop\n        /* \"#utility.yul\":4744:5110   */\n      swap2\n      swap1\n      pop\n      jump\t// out\n        /* \"#utility.yul\":5116:5535   */\n    tag_48:\n        /* \"#utility.yul\":5282:5286   */\n      0x00\n        /* \"#utility.yul\":5320:5322   */\n      0x20\n        /* \"#utility.yul\":5309:5318   */\n      dup3\n        /* \"#utility.yul\":5305:5323   */\n      add\n        /* \"#utility.yul\":5297:5323   */\n      swap1\n      pop\n        /* \"#utility.yul\":5369:5378   */\n      dup2\n        /* \"#utility.yul\":5363:5367   */\n      dup2\n        /* \"#utility.yul\":5359:5379   */\n      sub\n        /* \"#utility.yul\":5355:5356   */\n      0x00\n        /* \"#utility.yul\":5344:5353   */\n      dup4\n        /* \"#utility.yul\":5340:5357   */\n      add\n        /* \"#utility.yul\":5333:5380   */\n      mstore\n        /* \"#utility.yul\":5397:5528   */\n      tag_170\n        /* \"#utility.yul\":5523:5527   */\n      dup2\n        /* \"#utility.yul\":5397:5528   */\n      tag_102\n      jump\t// in\n    tag_170:\n        /* \"#utility.yul\":5389:5528   */\n      swap1\n      pop\n        /* \"#utility.yul\":5116:5535   */\n      swap2\n      swap1\n      pop\n      jump\t// out\n        /* \"#utility.yul\":5541:5735   */\n    tag_50:\n        /* \"#utility.yul\":5581:5585   */\n      0x00\n        /* \"#utility.yul\":5601:5621   */\n      tag_172\n        /* \"#utility.yul\":5619:5620   */\n      dup3\n        /* \"#utility.yul\":5601:5621   */\n      tag_83\n      jump\t// in\n    tag_172:\n        /* \"#utility.yul\":5596:5621   */\n      swap2\n      pop\n        /* \"#utility.yul\":5635:5655   */\n      tag_173\n        /* \"#utility.yul\":5653:5654   */\n      dup4\n        /* \"#utility.yul\":5635:5655   */\n      tag_83\n      jump\t// in\n    tag_173:\n        /* \"#utility.yul\":5630:5655   */\n      swap3\n      pop\n        /* \"#utility.yul\":5679:5680   */\n      dup3\n        /* \"#utility.yul\":5676:5677   */\n      dup3\n        /* \"#utility.yul\":5672:5681   */\n      sub\n        /* \"#utility.yul\":5664:5681   */\n      swap1\n      pop\n        /* \"#utility.yul\":5703:5704   */\n      dup2\n        /* \"#utility.yul\":5697:5701   */\n      dup2\n        /* \"#utility.yul\":5694:5705   */\n      gt\n        /* \"#utility.yul\":5691:5728   */\n      iszero\n      tag_174\n      jumpi\n        /* \"#utility.yul\":5708:5726   */\n      tag_175\n      tag_84\n      jump\t// in\n    tag_175:\n        /* \"#utility.yul\":5691:5728   */\n    tag_174:\n        /* \"#utility.yul\":5541:5735   */\n      swap3\n      swap2\n      pop\n      pop\n      jump\t// out\n        /* \"#utility.yul\":5741:5902   */\n    tag_103:\n        /* \"#utility.yul\":5881:5894   */\n      0x53656e64206661696c6564000000000000000000000000000000000000000000\n        /* \"#utility.yul\":5877:5878   */\n      0x00\n        /* \"#utility.yul\":5869:5875   */\n      dup3\n        /* \"#utility.yul\":5865:5879   */\n      add\n        /* \"#utility.yul\":5858:5895   */\n      mstore\n        /* \"#utility.yul\":5741:5902   */\n      pop\n      jump\t// out\n        /* \"#utility.yul\":5908:6274   */\n    tag_104:\n        /* \"#utility.yul\":6050:6053   */\n      0x00\n        /* \"#utility.yul\":6071:6138   */\n      tag_178\n        /* \"#utility.yul\":6135:6137   */\n      0x0b\n        /* \"#utility.yul\":6130:6133   */\n      dup4\n        /* \"#utility.yul\":6071:6138   */\n      tag_100\n      jump\t// in\n    tag_178:\n        /* \"#utility.yul\":6064:6138   */\n      swap2\n      pop\n        /* \"#utility.yul\":6147:6240   */\n      tag_179\n        /* \"#utility.yul\":6236:6239   */\n      dup3\n        /* \"#utility.yul\":6147:6240   */\n      tag_103\n      jump\t// in\n    tag_179:\n        /* \"#utility.yul\":6265:6267   */\n      0x20\n        /* \"#utility.yul\":6260:6263   */\n      dup3\n        /* \"#utility.yul\":6256:6268   */\n      add\n        /* \"#utility.yul\":6249:6268   */\n      swap1\n      pop\n        /* \"#utility.yul\":5908:6274   */\n      swap2\n      swap1\n      pop\n      jump\t// out\n        /* \"#utility.yul\":6280:6699   */\n    tag_54:\n        /* \"#utility.yul\":6446:6450   */\n      0x00\n        /* \"#utility.yul\":6484:6486   */\n      0x20\n        /* \"#utility.yul\":6473:6482   */\n      dup3\n        /* \"#utility.yul\":6469:6487   */\n      add\n        /* \"#utility.yul\":6461:6487   */\n      swap1\n      pop\n        /* \"#utility.yul\":6533:6542   */\n      dup2\n        /* \"#utility.yul\":6527:6531   */\n      dup2\n        /* \"#utility.yul\":6523:6543   */\n      sub\n        /* \"#utility.yul\":6519:6520   */\n      0x00\n        /* \"#utility.yul\":6508:6517   */\n      dup4\n        /* \"#utility.yul\":6504:6521   */\n      add\n        /* \"#utility.yul\":6497:6544   */\n      mstore\n        /* \"#utility.yul\":6561:6692   */\n      tag_181\n        /* \"#utility.yul\":6687:6691   */\n      dup2\n        /* \"#utility.yul\":6561:6692   */\n      tag_104\n      jump\t// in\n    tag_181:\n        /* \"#utility.yul\":6553:6692   */\n      swap1\n      pop\n        /* \"#utility.yul\":6280:6699   */\n      swap2\n      swap1\n      pop\n      jump\t// out\n        /* \"#utility.yul\":6705:6852   */\n    tag_105:\n        /* \"#utility.yul\":6806:6817   */\n      0x00\n        /* \"#utility.yul\":6843:6846   */\n      dup2\n        /* \"#utility.yul\":6828:6846   */\n      swap1\n      pop\n        /* \"#utility.yul\":6705:6852   */\n      swap3\n      swap2\n      pop\n      pop\n      jump\t// out\n        /* \"#utility.yul\":6858:6972   */\n    tag_106:\n      pop\n      jump\t// out\n        /* \"#utility.yul\":6978:7376   */\n    tag_107:\n        /* \"#utility.yul\":7137:7140   */\n      0x00\n        /* \"#utility.yul\":7158:7241   */\n      tag_185\n        /* \"#utility.yul\":7239:7240   */\n      0x00\n        /* \"#utility.yul\":7234:7237   */\n      dup4\n        /* \"#utility.yul\":7158:7241   */\n      tag_105\n      jump\t// in\n    tag_185:\n        /* \"#utility.yul\":7151:7241   */\n      swap2\n      pop\n        /* \"#utility.yul\":7250:7343   */\n      tag_186\n        /* \"#utility.yul\":7339:7342   */\n      dup3\n        /* \"#utility.yul\":7250:7343   */\n      tag_106\n      jump\t// in\n    tag_186:\n        /* \"#utility.yul\":7368:7369   */\n      0x00\n        /* \"#utility.yul\":7363:7366   */\n      dup3\n        /* \"#utility.yul\":7359:7370   */\n      add\n        /* \"#utility.yul\":7352:7370   */\n      swap1\n      pop\n        /* \"#utility.yul\":6978:7376   */\n      swap2\n      swap1\n      pop\n      jump\t// out\n        /* \"#utility.yul\":7382:7761   */\n    tag_61:\n        /* \"#utility.yul\":7566:7569   */\n      0x00\n        /* \"#utility.yul\":7588:7735   */\n      tag_188\n        /* \"#utility.yul\":7731:7734   */\n      dup3\n        /* \"#utility.yul\":7588:7735   */\n      tag_107\n      jump\t// in\n    tag_188:\n        /* \"#utility.yul\":7581:7735   */\n      swap2\n      pop\n        /* \"#utility.yul\":7752:7755   */\n      dup2\n        /* \"#utility.yul\":7745:7755   */\n      swap1\n      pop\n        /* \"#utility.yul\":7382:7761   */\n      swap2\n      swap1\n      pop\n      jump\t// out\n        /* \"#utility.yul\":7767:7928   */\n    tag_108:\n        /* \"#utility.yul\":7907:7920   */\n      0x43616c6c206661696c6564000000000000000000000000000000000000000000\n        /* \"#utility.yul\":7903:7904   */\n      0x00\n        /* \"#utility.yul\":7895:7901   */\n      dup3\n        /* \"#utility.yul\":7891:7905   */\n      add\n        /* \"#utility.yul\":7884:7921   */\n      mstore\n        /* \"#utility.yul\":7767:7928   */\n      pop\n      jump\t// out\n        /* \"#utility.yul\":7934:8300   */\n    tag_109:\n        /* \"#utility.yul\":8076:8079   */\n      0x00\n        /* \"#utility.yul\":8097:8164   */\n      tag_191\n        /* \"#utility.yul\":8161:8163   */\n      0x0b\n        /* \"#utility.yul\":8156:8159   */\n      dup4\n        /* \"#utility.yul\":8097:8164   */\n      tag_100\n      jump\t// in\n    tag_191:\n        /* \"#utility.yul\":8090:8164   */\n      swap2\n      pop\n        /* \"#utility.yul\":8173:8266   */\n      tag_192\n        /* \"#utility.yul\":8262:8265   */\n      dup3\n        /* \"#utility.yul\":8173:8266   */\n      tag_108\n      jump\t// in\n    tag_192:\n        /* \"#utility.yul\":8291:8293   */\n      0x20\n        /* \"#utility.yul\":8286:8289   */\n      dup3\n        /* \"#utility.yul\":8282:8294   */\n      add\n        /* \"#utility.yul\":8275:8294   */\n      swap1\n      pop\n        /* \"#utility.yul\":7934:8300   */\n      swap2\n      swap1\n      pop\n      jump\t// out\n        /* \"#utility.yul\":8306:8725   */\n    tag_67:\n        /* \"#utility.yul\":8472:8476   */\n      0x00\n        /* \"#utility.yul\":8510:8512   */\n      0x20\n        /* \"#utility.yul\":8499:8508   */\n      dup3\n        /* \"#utility.yul\":8495:8513   */\n      add\n        /* \"#utility.yul\":8487:8513   */\n      swap1\n      pop\n        /* \"#utility.yul\":8559:8568   */\n      dup2\n        /* \"#utility.yul\":8553:8557   */\n      dup2\n        /* \"#utility.yul\":8549:8569   */\n      sub\n        /* \"#utility.yul\":8545:8546   */\n      0x00\n        /* \"#utility.yul\":8534:8543   */\n      dup4\n        /* \"#utility.yul\":8530:8547   */\n      add\n        /* \"#utility.yul\":8523:8570   */\n      mstore\n        /* \"#utility.yul\":8587:8718   */\n      tag_194\n        /* \"#utility.yul\":8713:8717   */\n      dup2\n        /* \"#utility.yul\":8587:8718   */\n      tag_109\n      jump\t// in\n    tag_194:\n        /* \"#utility.yul\":8579:8718   */\n      swap1\n      pop\n        /* \"#utility.yul\":8306:8725   */\n      swap2\n      swap1\n      pop\n      jump\t// out\n        /* \"#utility.yul\":8731:8896   */\n    tag_110:\n        /* \"#utility.yul\":8871:8888   */\n      0x53656e6420736f6d652045746865720000000000000000000000000000000000\n        /* \"#utility.yul\":8867:8868   */\n      0x00\n        /* \"#utility.yul\":8859:8865   */\n      dup3\n        /* \"#utility.yul\":8855:8869   */\n      add\n        /* \"#utility.yul\":8848:8889   */\n      mstore\n        /* \"#utility.yul\":8731:8896   */\n      pop\n      jump\t// out\n        /* \"#utility.yul\":8902:9268   */\n    tag_111:\n        /* \"#utility.yul\":9044:9047   */\n      0x00\n        /* \"#utility.yul\":9065:9132   */\n      tag_197\n        /* \"#utility.yul\":9129:9131   */\n      0x0f\n        /* \"#utility.yul\":9124:9127   */\n      dup4\n        /* \"#utility.yul\":9065:9132   */\n      tag_100\n      jump\t// in\n    tag_197:\n        /* \"#utility.yul\":9058:9132   */\n      swap2\n      pop\n        /* \"#utility.yul\":9141:9234   */\n      tag_198\n        /* \"#utility.yul\":9230:9233   */\n      dup3\n        /* \"#utility.yul\":9141:9234   */\n      tag_110\n      jump\t// in\n    tag_198:\n        /* \"#utility.yul\":9259:9261   */\n      0x20\n        /* \"#utility.yul\":9254:9257   */\n      dup3\n        /* \"#utility.yul\":9250:9262   */\n      add\n        /* \"#utility.yul\":9243:9262   */\n      swap1\n      pop\n        /* \"#utility.yul\":8902:9268   */\n      swap2\n      swap1\n      pop\n      jump\t// out\n        /* \"#utility.yul\":9274:9693   */\n    tag_80:\n        /* \"#utility.yul\":9440:9444   */\n      0x00\n        /* \"#utility.yul\":9478:9480   */\n      0x20\n        /* \"#utility.yul\":9467:9476   */\n      dup3\n        /* \"#utility.yul\":9463:9481   */\n      add\n        /* \"#utility.yul\":9455:9481   */\n      swap1\n      pop\n        /* \"#utility.yul\":9527:9536   */\n      dup2\n        /* \"#utility.yul\":9521:9525   */\n      dup2\n        /* \"#utility.yul\":9517:9537   */\n      sub\n        /* \"#utility.yul\":9513:9514   */\n      0x00\n        /* \"#utility.yul\":9502:9511   */\n      dup4\n        /* \"#utility.yul\":9498:9515   */\n      add\n        /* \"#utility.yul\":9491:9538   */\n      mstore\n        /* \"#utility.yul\":9555:9686   */\n      tag_200\n        /* \"#utility.yul\":9681:9685   */\n      dup2\n        /* \"#utility.yul\":9555:9686   */\n      tag_111\n      jump\t// in\n    tag_200:\n        /* \"#utility.yul\":9547:9686   */\n      swap1\n      pop\n        /* \"#utility.yul\":9274:9693   */\n      swap2\n      swap1\n      pop\n      jump\t// out\n\n    auxdata: 0xa26469706673582212209e63e1118cd3761ed44461e37502bac4f55071e2a898486fd368c41422279c4464736f6c63430008120033\n}\n",
				"bytecode": {
					"linkReferences": {},
					"object": "608060405234801561001057600080fd5b50610ccd806100206000396000f3fe6080604052600436106100595760003560e01c806327e235e31461012e57806348c8c9081461016b57806353e6141f146101945780636f9fb98a146101bd578063911d49df146101e8578063d0e30db014610211576100ee565b366100ee57346000803373ffffffffffffffffffffffffffffffffffffffff1673ffffffffffffffffffffffffffffffffffffffff16815260200190815260200160002060008282546100ac919061083f565b925050819055507f88a5966d370b9919b20f3e2c13ff65706f196a4e32cc2c12bf57088f8852587433346040516100e49291906108c3565b60405180910390a1005b7faca09dd456ca888dccf8cc966e382e6e3042bb7e4d2d7815015f844edeafce423334600036604051610124949392919061094a565b60405180910390a1005b34801561013a57600080fd5b50610155600480360381019061015091906109bb565b61021b565b60405161016291906109e8565b60405180910390f35b34801561017757600080fd5b50610192600480360381019061018d9190610a2f565b610233565b005b3480156101a057600080fd5b506101bb60048036038101906101b69190610a2f565b6103d4565b005b3480156101c957600080fd5b506101d26105a8565b6040516101df91906109e8565b60405180910390f35b3480156101f457600080fd5b5061020f600480360381019061020a9190610a2f565b6105b0565b005b61021961071e565b005b60006020528060005260406000206000915090505481565b806000803373ffffffffffffffffffffffffffffffffffffffff1673ffffffffffffffffffffffffffffffffffffffff1681526020019081526020016000205410156102b4576040517f08c379a00000000000000000000000000000000000000000000000000000000081526004016102ab90610ab9565b60405180910390fd5b806000803373ffffffffffffffffffffffffffffffffffffffff1673ffffffffffffffffffffffffffffffffffffffff16815260200190815260200160002060008282546103029190610ad9565b9250508190555060003373ffffffffffffffffffffffffffffffffffffffff166108fc839081150290604051600060405180830381858888f19350505050905080610382576040517f08c379a000000000000000000000000000000000000000000000000000000000815260040161037990610b59565b60405180910390fd5b3373ffffffffffffffffffffffffffffffffffffffff167f7084f5476618d8e60b11ef0d7d3f06914655adb8793e28ff7f018d4c76d505d5836040516103c891906109e8565b60405180910390a25050565b806000803373ffffffffffffffffffffffffffffffffffffffff1673ffffffffffffffffffffffffffffffffffffffff168152602001908152602001600020541015610455576040517f08c379a000000000000000000000000000000000000000000000000000000000815260040161044c90610ab9565b60405180910390fd5b806000803373ffffffffffffffffffffffffffffffffffffffff1673ffffffffffffffffffffffffffffffffffffffff16815260200190815260200160002060008282546104a39190610ad9565b9250508190555060003373ffffffffffffffffffffffffffffffffffffffff16826040516104d090610baa565b60006040518083038185875af1925050503d806000811461050d576040519150601f19603f3d011682016040523d82523d6000602084013e610512565b606091505b5050905080610556576040517f08c379a000000000000000000000000000000000000000000000000000000000815260040161054d90610c0b565b60405180910390fd5b3373ffffffffffffffffffffffffffffffffffffffff167f7084f5476618d8e60b11ef0d7d3f06914655adb8793e28ff7f018d4c76d505d58360405161059c91906109e8565b60405180910390a25050565b600047905090565b806000803373ffffffffffffffffffffffffffffffffffffffff1673ffffffffffffffffffffffffffffffffffffffff168152602001908152602001600020541015610631576040517f08c379a000000000000000000000000000000000000000000000000000000000815260040161062890610ab9565b60405180910390fd5b806000803373ffffffffffffffffffffffffffffffffffffffff1673ffffffffffffffffffffffffffffffffffffffff168152602001908152602001600020600082825461067f9190610ad9565b925050819055503373ffffffffffffffffffffffffffffffffffffffff166108fc829081150290604051600060405180830381858888f193505050501580156106cc573d6000803e3d6000fd5b503373ffffffffffffffffffffffffffffffffffffffff167f7084f5476618d8e60b11ef0d7d3f06914655adb8793e28ff7f018d4c76d505d58260405161071391906109e8565b60405180910390a250565b60003411610761576040517f08c379a000000000000000000000000000000000000000000000000000000000815260040161075890610c77565b60405180910390fd5b346000803373ffffffffffffffffffffffffffffffffffffffff1673ffffffffffffffffffffffffffffffffffffffff16815260200190815260200160002060008282546107af919061083f565b925050819055503373ffffffffffffffffffffffffffffffffffffffff167f2da466a7b24304f47e87fa2e1e5a81b9831ce54fec19055ce277ca2f39ba42c4346040516107fc91906109e8565b60405180910390a2565b6000819050919050565b7f4e487b7100000000000000000000000000000000000000000000000000000000600052601160045260246000fd5b600061084a82610806565b915061085583610806565b925082820190508082111561086d5761086c610810565b5b92915050565b600073ffffffffffffffffffffffffffffffffffffffff82169050919050565b600061089e82610873565b9050919050565b6108ae81610893565b82525050565b6108bd81610806565b82525050565b60006040820190506108d860008301856108a5565b6108e560208301846108b4565b9392505050565b600082825260208201905092915050565b82818337600083830152505050565b6000601f19601f8301169050919050565b600061092983856108ec565b93506109368385846108fd565b61093f8361090c565b840190509392505050565b600060608201905061095f60008301876108a5565b61096c60208301866108b4565b818103604083015261097f81848661091d565b905095945050505050565b600080fd5b61099881610893565b81146109a357600080fd5b50565b6000813590506109b58161098f565b92915050565b6000602082840312156109d1576109d061098a565b5b60006109df848285016109a6565b91505092915050565b60006020820190506109fd60008301846108b4565b92915050565b610a0c81610806565b8114610a1757600080fd5b50565b600081359050610a2981610a03565b92915050565b600060208284031215610a4557610a4461098a565b5b6000610a5384828501610a1a565b91505092915050565b600082825260208201905092915050565b7f4e6f7420656e6f7567682062616c616e63650000000000000000000000000000600082015250565b6000610aa3601283610a5c565b9150610aae82610a6d565b602082019050919050565b60006020820190508181036000830152610ad281610a96565b9050919050565b6000610ae482610806565b9150610aef83610806565b9250828203905081811115610b0757610b06610810565b5b92915050565b7f53656e64206661696c6564000000000000000000000000000000000000000000600082015250565b6000610b43600b83610a5c565b9150610b4e82610b0d565b602082019050919050565b60006020820190508181036000830152610b7281610b36565b9050919050565b600081905092915050565b50565b6000610b94600083610b79565b9150610b9f82610b84565b600082019050919050565b6000610bb582610b87565b9150819050919050565b7f43616c6c206661696c6564000000000000000000000000000000000000000000600082015250565b6000610bf5600b83610a5c565b9150610c0082610bbf565b602082019050919050565b60006020820190508181036000830152610c2481610be8565b9050919050565b7f53656e6420736f6d652045746865720000000000000000000000000000000000600082015250565b6000610c61600f83610a5c565b9150610c6c82610c2b565b602082019050919050565b60006020820190508181036000830152610c9081610c54565b905091905056fea26469706673582212209e63e1118cd3761ed44461e37502bac4f55071e2a898486fd368c41422279c4464736f6c63430008120033",
					"opcodes": "PUSH1 0x80 PUSH1 0x40 MSTORE CALLVALUE DUP1 ISZERO PUSH2 0x10 JUMPI PUSH1 0x0 DUP1 REVERT JUMPDEST POP PUSH2 0xCCD DUP1 PUSH2 0x20 PUSH1 0x0 CODECOPY PUSH1 0x0 RETURN INVALID PUSH1 0x80 PUSH1 0x40 MSTORE PUSH1 0x4 CALLDATASIZE LT PUSH2 0x59 JUMPI PUSH1 0x0 CALLDATALOAD PUSH1 0xE0 SHR DUP1 PUSH4 0x27E235E3 EQ PUSH2 0x12E JUMPI DUP1 PUSH4 0x48C8C908 EQ PUSH2 0x16B JUMPI DUP1 PUSH4 0x53E6141F EQ PUSH2 0x194 JUMPI DUP1 PUSH4 0x6F9FB98A EQ PUSH2 0x1BD JUMPI DUP1 PUSH4 0x911D49DF EQ PUSH2 0x1E8 JUMPI DUP1 PUSH4 0xD0E30DB0 EQ PUSH2 0x211 JUMPI PUSH2 0xEE JUMP JUMPDEST CALLDATASIZE PUSH2 0xEE JUMPI CALLVALUE PUSH1 0x0 DUP1 CALLER PUSH20 0xFFFFFFFFFFFFFFFFFFFFFFFFFFFFFFFFFFFFFFFF AND PUSH20 0xFFFFFFFFFFFFFFFFFFFFFFFFFFFFFFFFFFFFFFFF AND DUP2 MSTORE PUSH1 0x20 ADD SWAP1 DUP2 MSTORE PUSH1 0x20 ADD PUSH1 0x0 KECCAK256 PUSH1 0x0 DUP3 DUP3 SLOAD PUSH2 0xAC SWAP2 SWAP1 PUSH2 0x83F JUMP JUMPDEST SWAP3 POP POP DUP2 SWAP1 SSTORE POP PUSH32 0x88A5966D370B9919B20F3E2C13FF65706F196A4E32CC2C12BF57088F88525874 CALLER CALLVALUE PUSH1 0x40 MLOAD PUSH2 0xE4 SWAP3 SWAP2 SWAP1 PUSH2 0x8C3 JUMP JUMPDEST PUSH1 0x40 MLOAD DUP1 SWAP2 SUB SWAP1 LOG1 STOP JUMPDEST PUSH32 0xACA09DD456CA888DCCF8CC966E382E6E3042BB7E4D2D7815015F844EDEAFCE42 CALLER CALLVALUE PUSH1 0x0 CALLDATASIZE PUSH1 0x40 MLOAD PUSH2 0x124 SWAP5 SWAP4 SWAP3 SWAP2 SWAP1 PUSH2 0x94A JUMP JUMPDEST PUSH1 0x40 MLOAD DUP1 SWAP2 SUB SWAP1 LOG1 STOP JUMPDEST CALLVALUE DUP1 ISZERO PUSH2 0x13A JUMPI PUSH1 0x0 DUP1 REVERT JUMPDEST POP PUSH2 0x155 PUSH1 0x4 DUP1 CALLDATASIZE SUB DUP2 ADD SWAP1 PUSH2 0x150 SWAP2 SWAP1 PUSH2 0x9BB JUMP JUMPDEST PUSH2 0x21B JUMP JUMPDEST PUSH1 0x40 MLOAD PUSH2 0x162 SWAP2 SWAP1 PUSH2 0x9E8 JUMP JUMPDEST PUSH1 0x40 MLOAD DUP1 SWAP2 SUB SWAP1 RETURN JUMPDEST CALLVALUE DUP1 ISZERO PUSH2 0x177 JUMPI PUSH1 0x0 DUP1 REVERT JUMPDEST POP PUSH2 0x192 PUSH1 0x4 DUP1 CALLDATASIZE SUB DUP2 ADD SWAP1 PUSH2 0x18D SWAP2 SWAP1 PUSH2 0xA2F JUMP JUMPDEST PUSH2 0x233 JUMP JUMPDEST STOP JUMPDEST CALLVALUE DUP1 ISZERO PUSH2 0x1A0 JUMPI PUSH1 0x0 DUP1 REVERT JUMPDEST POP PUSH2 0x1BB PUSH1 0x4 DUP1 CALLDATASIZE SUB DUP2 ADD SWAP1 PUSH2 0x1B6 SWAP2 SWAP1 PUSH2 0xA2F JUMP JUMPDEST PUSH2 0x3D4 JUMP JUMPDEST STOP JUMPDEST CALLVALUE DUP1 ISZERO PUSH2 0x1C9 JUMPI PUSH1 0x0 DUP1 REVERT JUMPDEST POP PUSH2 0x1D2 PUSH2 0x5A8 JUMP JUMPDEST PUSH1 0x40 MLOAD PUSH2 0x1DF SWAP2 SWAP1 PUSH2 0x9E8 JUMP JUMPDEST PUSH1 0x40 MLOAD DUP1 SWAP2 SUB SWAP1 RETURN JUMPDEST CALLVALUE DUP1 ISZERO PUSH2 0x1F4 JUMPI PUSH1 0x0 DUP1 REVERT JUMPDEST POP PUSH2 0x20F PUSH1 0x4 DUP1 CALLDATASIZE SUB DUP2 ADD SWAP1 PUSH2 0x20A SWAP2 SWAP1 PUSH2 0xA2F JUMP JUMPDEST PUSH2 0x5B0 JUMP JUMPDEST STOP JUMPDEST PUSH2 0x219 PUSH2 0x71E JUMP JUMPDEST STOP JUMPDEST PUSH1 0x0 PUSH1 0x20 MSTORE DUP1 PUSH1 0x0 MSTORE PUSH1 0x40 PUSH1 0x0 KECCAK256 PUSH1 0x0 SWAP2 POP SWAP1 POP SLOAD DUP2 JUMP JUMPDEST DUP1 PUSH1 0x0 DUP1 CALLER PUSH20 0xFFFFFFFFFFFFFFFFFFFFFFFFFFFFFFFFFFFFFFFF AND PUSH20 0xFFFFFFFFFFFFFFFFFFFFFFFFFFFFFFFFFFFFFFFF AND DUP2 MSTORE PUSH1 0x20 ADD SWAP1 DUP2 MSTORE PUSH1 0x20 ADD PUSH1 0x0 KECCAK256 SLOAD LT ISZERO PUSH2 0x2B4 JUMPI PUSH1 0x40 MLOAD PUSH32 0x8C379A000000000000000000000000000000000000000000000000000000000 DUP2 MSTORE PUSH1 0x4 ADD PUSH2 0x2AB SWAP1 PUSH2 0xAB9 JUMP JUMPDEST PUSH1 0x40 MLOAD DUP1 SWAP2 SUB SWAP1 REVERT JUMPDEST DUP1 PUSH1 0x0 DUP1 CALLER PUSH20 0xFFFFFFFFFFFFFFFFFFFFFFFFFFFFFFFFFFFFFFFF AND PUSH20 0xFFFFFFFFFFFFFFFFFFFFFFFFFFFFFFFFFFFFFFFF AND DUP2 MSTORE PUSH1 0x20 ADD SWAP1 DUP2 MSTORE PUSH1 0x20 ADD PUSH1 0x0 KECCAK256 PUSH1 0x0 DUP3 DUP3 SLOAD PUSH2 0x302 SWAP2 SWAP1 PUSH2 0xAD9 JUMP JUMPDEST SWAP3 POP POP DUP2 SWAP1 SSTORE POP PUSH1 0x0 CALLER PUSH20 0xFFFFFFFFFFFFFFFFFFFFFFFFFFFFFFFFFFFFFFFF AND PUSH2 0x8FC DUP4 SWAP1 DUP2 ISZERO MUL SWAP1 PUSH1 0x40 MLOAD PUSH1 0x0 PUSH1 0x40 MLOAD DUP1 DUP4 SUB DUP2 DUP6 DUP9 DUP9 CALL SWAP4 POP POP POP POP SWAP1 POP DUP1 PUSH2 0x382 JUMPI PUSH1 0x40 MLOAD PUSH32 0x8C379A000000000000000000000000000000000000000000000000000000000 DUP2 MSTORE PUSH1 0x4 ADD PUSH2 0x379 SWAP1 PUSH2 0xB59 JUMP JUMPDEST PUSH1 0x40 MLOAD DUP1 SWAP2 SUB SWAP1 REVERT JUMPDEST CALLER PUSH20 0xFFFFFFFFFFFFFFFFFFFFFFFFFFFFFFFFFFFFFFFF AND PUSH32 0x7084F5476618D8E60B11EF0D7D3F06914655ADB8793E28FF7F018D4C76D505D5 DUP4 PUSH1 0x40 MLOAD PUSH2 0x3C8 SWAP2 SWAP1 PUSH2 0x9E8 JUMP JUMPDEST PUSH1 0x40 MLOAD DUP1 SWAP2 SUB SWAP1 LOG2 POP POP JUMP JUMPDEST DUP1 PUSH1 0x0 DUP1 CALLER PUSH20 0xFFFFFFFFFFFFFFFFFFFFFFFFFFFFFFFFFFFFFFFF AND PUSH20 0xFFFFFFFFFFFFFFFFFFFFFFFFFFFFFFFFFFFFFFFF AND DUP2 MSTORE PUSH1 0x20 ADD SWAP1 DUP2 MSTORE PUSH1 0x20 ADD PUSH1 0x0 KECCAK256 SLOAD LT ISZERO PUSH2 0x455 JUMPI PUSH1 0x40 MLOAD PUSH32 0x8C379A000000000000000000000000000000000000000000000000000000000 DUP2 MSTORE PUSH1 0x4 ADD PUSH2 0x44C SWAP1 PUSH2 0xAB9 JUMP JUMPDEST PUSH1 0x40 MLOAD DUP1 SWAP2 SUB SWAP1 REVERT JUMPDEST DUP1 PUSH1 0x0 DUP1 CALLER PUSH20 0xFFFFFFFFFFFFFFFFFFFFFFFFFFFFFFFFFFFFFFFF AND PUSH20 0xFFFFFFFFFFFFFFFFFFFFFFFFFFFFFFFFFFFFFFFF AND DUP2 MSTORE PUSH1 0x20 ADD SWAP1 DUP2 MSTORE PUSH1 0x20 ADD PUSH1 0x0 KECCAK256 PUSH1 0x0 DUP3 DUP3 SLOAD PUSH2 0x4A3 SWAP2 SWAP1 PUSH2 0xAD9 JUMP JUMPDEST SWAP3 POP POP DUP2 SWAP1 SSTORE POP PUSH1 0x0 CALLER PUSH20 0xFFFFFFFFFFFFFFFFFFFFFFFFFFFFFFFFFFFFFFFF AND DUP3 PUSH1 0x40 MLOAD PUSH2 0x4D0 SWAP1 PUSH2 0xBAA JUMP JUMPDEST PUSH1 0x0 PUSH1 0x40 MLOAD DUP1 DUP4 SUB DUP2 DUP6 DUP8 GAS CALL SWAP3 POP POP POP RETURNDATASIZE DUP1 PUSH1 0x0 DUP2 EQ PUSH2 0x50D JUMPI PUSH1 0x40 MLOAD SWAP2 POP PUSH1 0x1F NOT PUSH1 0x3F RETURNDATASIZE ADD AND DUP3 ADD PUSH1 0x40 MSTORE RETURNDATASIZE DUP3 MSTORE RETURNDATASIZE PUSH1 0x0 PUSH1 0x20 DUP5 ADD RETURNDATACOPY PUSH2 0x512 JUMP JUMPDEST PUSH1 0x60 SWAP2 POP JUMPDEST POP POP SWAP1 POP DUP1 PUSH2 0x556 JUMPI PUSH1 0x40 MLOAD PUSH32 0x8C379A000000000000000000000000000000000000000000000000000000000 DUP2 MSTORE PUSH1 0x4 ADD PUSH2 0x54D SWAP1 PUSH2 0xC0B JUMP JUMPDEST PUSH1 0x40 MLOAD DUP1 SWAP2 SUB SWAP1 REVERT JUMPDEST CALLER PUSH20 0xFFFFFFFFFFFFFFFFFFFFFFFFFFFFFFFFFFFFFFFF AND PUSH32 0x7084F5476618D8E60B11EF0D7D3F06914655ADB8793E28FF7F018D4C76D505D5 DUP4 PUSH1 0x40 MLOAD PUSH2 0x59C SWAP2 SWAP1 PUSH2 0x9E8 JUMP JUMPDEST PUSH1 0x40 MLOAD DUP1 SWAP2 SUB SWAP1 LOG2 POP POP JUMP JUMPDEST PUSH1 0x0 SELFBALANCE SWAP1 POP SWAP1 JUMP JUMPDEST DUP1 PUSH1 0x0 DUP1 CALLER PUSH20 0xFFFFFFFFFFFFFFFFFFFFFFFFFFFFFFFFFFFFFFFF AND PUSH20 0xFFFFFFFFFFFFFFFFFFFFFFFFFFFFFFFFFFFFFFFF AND DUP2 MSTORE PUSH1 0x20 ADD SWAP1 DUP2 MSTORE PUSH1 0x20 ADD PUSH1 0x0 KECCAK256 SLOAD LT ISZERO PUSH2 0x631 JUMPI PUSH1 0x40 MLOAD PUSH32 0x8C379A000000000000000000000000000000000000000000000000000000000 DUP2 MSTORE PUSH1 0x4 ADD PUSH2 0x628 SWAP1 PUSH2 0xAB9 JUMP JUMPDEST PUSH1 0x40 MLOAD DUP1 SWAP2 SUB SWAP1 REVERT JUMPDEST DUP1 PUSH1 0x0 DUP1 CALLER PUSH20 0xFFFFFFFFFFFFFFFFFFFFFFFFFFFFFFFFFFFFFFFF AND PUSH20 0xFFFFFFFFFFFFFFFFFFFFFFFFFFFFFFFFFFFFFFFF AND DUP2 MSTORE PUSH1 0x20 ADD SWAP1 DUP2 MSTORE PUSH1 0x20 ADD PUSH1 0x0 KECCAK256 PUSH1 0x0 DUP3 DUP3 SLOAD PUSH2 0x67F SWAP2 SWAP1 PUSH2 0xAD9 JUMP JUMPDEST SWAP3 POP POP DUP2 SWAP1 SSTORE POP CALLER PUSH20 0xFFFFFFFFFFFFFFFFFFFFFFFFFFFFFFFFFFFFFFFF AND PUSH2 0x8FC DUP3 SWAP1 DUP2 ISZERO MUL SWAP1 PUSH1 0x40 MLOAD PUSH1 0x0 PUSH1 0x40 MLOAD DUP1 DUP4 SUB DUP2 DUP6 DUP9 DUP9 CALL SWAP4 POP POP POP POP ISZERO DUP1 ISZERO PUSH2 0x6CC JUMPI RETURNDATASIZE PUSH1 0x0 DUP1 RETURNDATACOPY RETURNDATASIZE PUSH1 0x0 REVERT JUMPDEST POP CALLER PUSH20 0xFFFFFFFFFFFFFFFFFFFFFFFFFFFFFFFFFFFFFFFF AND PUSH32 0x7084F5476618D8E60B11EF0D7D3F06914655ADB8793E28FF7F018D4C76D505D5 DUP3 PUSH1 0x40 MLOAD PUSH2 0x713 SWAP2 SWAP1 PUSH2 0x9E8 JUMP JUMPDEST PUSH1 0x40 MLOAD DUP1 SWAP2 SUB SWAP1 LOG2 POP JUMP JUMPDEST PUSH1 0x0 CALLVALUE GT PUSH2 0x761 JUMPI PUSH1 0x40 MLOAD PUSH32 0x8C379A000000000000000000000000000000000000000000000000000000000 DUP2 MSTORE PUSH1 0x4 ADD PUSH2 0x758 SWAP1 PUSH2 0xC77 JUMP JUMPDEST PUSH1 0x40 MLOAD DUP1 SWAP2 SUB SWAP1 REVERT JUMPDEST CALLVALUE PUSH1 0x0 DUP1 CALLER PUSH20 0xFFFFFFFFFFFFFFFFFFFFFFFFFFFFFFFFFFFFFFFF AND PUSH20 0xFFFFFFFFFFFFFFFFFFFFFFFFFFFFFFFFFFFFFFFF AND DUP2 MSTORE PUSH1 0x20 ADD SWAP1 DUP2 MSTORE PUSH1 0x20 ADD PUSH1 0x0 KECCAK256 PUSH1 0x0 DUP3 DUP3 SLOAD PUSH2 0x7AF SWAP2 SWAP1 PUSH2 0x83F JUMP JUMPDEST SWAP3 POP POP DUP2 SWAP1 SSTORE POP CALLER PUSH20 0xFFFFFFFFFFFFFFFFFFFFFFFFFFFFFFFFFFFFFFFF AND PUSH32 0x2DA466A7B24304F47E87FA2E1E5A81B9831CE54FEC19055CE277CA2F39BA42C4 CALLVALUE PUSH1 0x40 MLOAD PUSH2 0x7FC SWAP2 SWAP1 PUSH2 0x9E8 JUMP JUMPDEST PUSH1 0x40 MLOAD DUP1 SWAP2 SUB SWAP1 LOG2 JUMP JUMPDEST PUSH1 0x0 DUP2 SWAP1 POP SWAP2 SWAP1 POP JUMP JUMPDEST PUSH32 0x4E487B7100000000000000000000000000000000000000000000000000000000 PUSH1 0x0 MSTORE PUSH1 0x11 PUSH1 0x4 MSTORE PUSH1 0x24 PUSH1 0x0 REVERT JUMPDEST PUSH1 0x0 PUSH2 0x84A DUP3 PUSH2 0x806 JUMP JUMPDEST SWAP2 POP PUSH2 0x855 DUP4 PUSH2 0x806 JUMP JUMPDEST SWAP3 POP DUP3 DUP3 ADD SWAP1 POP DUP1 DUP3 GT ISZERO PUSH2 0x86D JUMPI PUSH2 0x86C PUSH2 0x810 JUMP JUMPDEST JUMPDEST SWAP3 SWAP2 POP POP JUMP JUMPDEST PUSH1 0x0 PUSH20 0xFFFFFFFFFFFFFFFFFFFFFFFFFFFFFFFFFFFFFFFF DUP3 AND SWAP1 POP SWAP2 SWAP1 POP JUMP JUMPDEST PUSH1 0x0 PUSH2 0x89E DUP3 PUSH2 0x873 JUMP JUMPDEST SWAP1 POP SWAP2 SWAP1 POP JUMP JUMPDEST PUSH2 0x8AE DUP2 PUSH2 0x893 JUMP JUMPDEST DUP3 MSTORE POP POP JUMP JUMPDEST PUSH2 0x8BD DUP2 PUSH2 0x806 JUMP JUMPDEST DUP3 MSTORE POP POP JUMP JUMPDEST PUSH1 0x0 PUSH1 0x40 DUP3 ADD SWAP1 POP PUSH2 0x8D8 PUSH1 0x0 DUP4 ADD DUP6 PUSH2 0x8A5 JUMP JUMPDEST PUSH2 0x8E5 PUSH1 0x20 DUP4 ADD DUP5 PUSH2 0x8B4 JUMP JUMPDEST SWAP4 SWAP3 POP POP POP JUMP JUMPDEST PUSH1 0x0 DUP3 DUP3 MSTORE PUSH1 0x20 DUP3 ADD SWAP1 POP SWAP3 SWAP2 POP POP JUMP JUMPDEST DUP3 DUP2 DUP4 CALLDATACOPY PUSH1 0x0 DUP4 DUP4 ADD MSTORE POP POP POP JUMP JUMPDEST PUSH1 0x0 PUSH1 0x1F NOT PUSH1 0x1F DUP4 ADD AND SWAP1 POP SWAP2 SWAP1 POP JUMP JUMPDEST PUSH1 0x0 PUSH2 0x929 DUP4 DUP6 PUSH2 0x8EC JUMP JUMPDEST SWAP4 POP PUSH2 0x936 DUP4 DUP6 DUP5 PUSH2 0x8FD JUMP JUMPDEST PUSH2 0x93F DUP4 PUSH2 0x90C JUMP JUMPDEST DUP5 ADD SWAP1 POP SWAP4 SWAP3 POP POP POP JUMP JUMPDEST PUSH1 0x0 PUSH1 0x60 DUP3 ADD SWAP1 POP PUSH2 0x95F PUSH1 0x0 DUP4 ADD DUP8 PUSH2 0x8A5 JUMP JUMPDEST PUSH2 0x96C PUSH1 0x20 DUP4 ADD DUP7 PUSH2 0x8B4 JUMP JUMPDEST DUP2 DUP2 SUB PUSH1 0x40 DUP4 ADD MSTORE PUSH2 0x97F DUP2 DUP5 DUP7 PUSH2 0x91D JUMP JUMPDEST SWAP1 POP SWAP6 SWAP5 POP POP POP POP POP JUMP JUMPDEST PUSH1 0x0 DUP1 REVERT JUMPDEST PUSH2 0x998 DUP2 PUSH2 0x893 JUMP JUMPDEST DUP2 EQ PUSH2 0x9A3 JUMPI PUSH1 0x0 DUP1 REVERT JUMPDEST POP JUMP JUMPDEST PUSH1 0x0 DUP2 CALLDATALOAD SWAP1 POP PUSH2 0x9B5 DUP2 PUSH2 0x98F JUMP JUMPDEST SWAP3 SWAP2 POP POP JUMP JUMPDEST PUSH1 0x0 PUSH1 0x20 DUP3 DUP5 SUB SLT ISZERO PUSH2 0x9D1 JUMPI PUSH2 0x9D0 PUSH2 0x98A JUMP JUMPDEST JUMPDEST PUSH1 0x0 PUSH2 0x9DF DUP5 DUP3 DUP6 ADD PUSH2 0x9A6 JUMP JUMPDEST SWAP2 POP POP SWAP3 SWAP2 POP POP JUMP JUMPDEST PUSH1 0x0 PUSH1 0x20 DUP3 ADD SWAP1 POP PUSH2 0x9FD PUSH1 0x0 DUP4 ADD DUP5 PUSH2 0x8B4 JUMP JUMPDEST SWAP3 SWAP2 POP POP JUMP JUMPDEST PUSH2 0xA0C DUP2 PUSH2 0x806 JUMP JUMPDEST DUP2 EQ PUSH2 0xA17 JUMPI PUSH1 0x0 DUP1 REVERT JUMPDEST POP JUMP JUMPDEST PUSH1 0x0 DUP2 CALLDATALOAD SWAP1 POP PUSH2 0xA29 DUP2 PUSH2 0xA03 JUMP JUMPDEST SWAP3 SWAP2 POP POP JUMP JUMPDEST PUSH1 0x0 PUSH1 0x20 DUP3 DUP5 SUB SLT ISZERO PUSH2 0xA45 JUMPI PUSH2 0xA44 PUSH2 0x98A JUMP JUMPDEST JUMPDEST PUSH1 0x0 PUSH2 0xA53 DUP5 DUP3 DUP6 ADD PUSH2 0xA1A JUMP JUMPDEST SWAP2 POP POP SWAP3 SWAP2 POP POP JUMP JUMPDEST PUSH1 0x0 DUP3 DUP3 MSTORE PUSH1 0x20 DUP3 ADD SWAP1 POP SWAP3 SWAP2 POP POP JUMP JUMPDEST PUSH32 0x4E6F7420656E6F7567682062616C616E63650000000000000000000000000000 PUSH1 0x0 DUP3 ADD MSTORE POP JUMP JUMPDEST PUSH1 0x0 PUSH2 0xAA3 PUSH1 0x12 DUP4 PUSH2 0xA5C JUMP JUMPDEST SWAP2 POP PUSH2 0xAAE DUP3 PUSH2 0xA6D JUMP JUMPDEST PUSH1 0x20 DUP3 ADD SWAP1 POP SWAP2 SWAP1 POP JUMP JUMPDEST PUSH1 0x0 PUSH1 0x20 DUP3 ADD SWAP1 POP DUP2 DUP2 SUB PUSH1 0x0 DUP4 ADD MSTORE PUSH2 0xAD2 DUP2 PUSH2 0xA96 JUMP JUMPDEST SWAP1 POP SWAP2 SWAP1 POP JUMP JUMPDEST PUSH1 0x0 PUSH2 0xAE4 DUP3 PUSH2 0x806 JUMP JUMPDEST SWAP2 POP PUSH2 0xAEF DUP4 PUSH2 0x806 JUMP JUMPDEST SWAP3 POP DUP3 DUP3 SUB SWAP1 POP DUP2 DUP2 GT ISZERO PUSH2 0xB07 JUMPI PUSH2 0xB06 PUSH2 0x810 JUMP JUMPDEST JUMPDEST SWAP3 SWAP2 POP POP JUMP JUMPDEST PUSH32 0x53656E64206661696C6564000000000000000000000000000000000000000000 PUSH1 0x0 DUP3 ADD MSTORE POP JUMP JUMPDEST PUSH1 0x0 PUSH2 0xB43 PUSH1 0xB DUP4 PUSH2 0xA5C JUMP JUMPDEST SWAP2 POP PUSH2 0xB4E DUP3 PUSH2 0xB0D JUMP JUMPDEST PUSH1 0x20 DUP3 ADD SWAP1 POP SWAP2 SWAP1 POP JUMP JUMPDEST PUSH1 0x0 PUSH1 0x20 DUP3 ADD SWAP1 POP DUP2 DUP2 SUB PUSH1 0x0 DUP4 ADD MSTORE PUSH2 0xB72 DUP2 PUSH2 0xB36 JUMP JUMPDEST SWAP1 POP SWAP2 SWAP1 POP JUMP JUMPDEST PUSH1 0x0 DUP2 SWAP1 POP SWAP3 SWAP2 POP POP JUMP JUMPDEST POP JUMP JUMPDEST PUSH1 0x0 PUSH2 0xB94 PUSH1 0x0 DUP4 PUSH2 0xB79 JUMP JUMPDEST SWAP2 POP PUSH2 0xB9F DUP3 PUSH2 0xB84 JUMP JUMPDEST PUSH1 0x0 DUP3 ADD SWAP1 POP SWAP2 SWAP1 POP JUMP JUMPDEST PUSH1 0x0 PUSH2 0xBB5 DUP3 PUSH2 0xB87 JUMP JUMPDEST SWAP2 POP DUP2 SWAP1 POP SWAP2 SWAP1 POP JUMP JUMPDEST PUSH32 0x43616C6C206661696C6564000000000000000000000000000000000000000000 PUSH1 0x0 DUP3 ADD MSTORE POP JUMP JUMPDEST PUSH1 0x0 PUSH2 0xBF5 PUSH1 0xB DUP4 PUSH2 0xA5C JUMP JUMPDEST SWAP2 POP PUSH2 0xC00 DUP3 PUSH2 0xBBF JUMP JUMPDEST PUSH1 0x20 DUP3 ADD SWAP1 POP SWAP2 SWAP1 POP JUMP JUMPDEST PUSH1 0x0 PUSH1 0x20 DUP3 ADD SWAP1 POP DUP2 DUP2 SUB PUSH1 0x0 DUP4 ADD MSTORE PUSH2 0xC24 DUP2 PUSH2 0xBE8 JUMP JUMPDEST SWAP1 POP SWAP2 SWAP1 POP JUMP JUMPDEST PUSH32 0x53656E6420736F6D652045746865720000000000000000000000000000000000 PUSH1 0x0 DUP3 ADD MSTORE POP JUMP JUMPDEST PUSH1 0x0 PUSH2 0xC61 PUSH1 0xF DUP4 PUSH2 0xA5C JUMP JUMPDEST SWAP2 POP PUSH2 0xC6C DUP3 PUSH2 0xC2B JUMP JUMPDEST PUSH1 0x20 DUP3 ADD SWAP1 POP SWAP2 SWAP1 POP JUMP JUMPDEST PUSH1 0x0 PUSH1 0x20 DUP3 ADD SWAP1 POP DUP2 DUP2 SUB PUSH1 0x0 DUP4 ADD MSTORE PUSH2 0xC90 DUP2 PUSH2 0xC54 JUMP JUMPDEST SWAP1 POP SWAP2 SWAP1 POP JUMP INVALID LOG2 PUSH5 0x6970667358 0x22 SLT KECCAK256 SWAP15 PUSH4 0xE1118CD3 PUSH23 0x1ED44461E37502BAC4F55071E2A898486FD368C4142227 SWAP13 PREVRANDAO PUSH5 0x736F6C6343 STOP ADDMOD SLT STOP CALLER "
				},
				"gasEstimates": {
					"creation": {
						"codeDepositCost": "655400",
						"executionCost": "689",
						"totalCost": "656089"
					},
					"external": {
						"": "infinite",
						"balances(address)": "2792",
						"deposit()": "infinite",
						"getContractBalance()": "383",
						"withdrawUsingCall(uint256)": "infinite",
						"withdrawUsingSend(uint256)": "infinite",
						"withdrawUsingTransfer(uint256)": "infinite"
					}
				},
				"methodIdentifiers": {
					"balances(address)": "27e235e3",
					"deposit()": "d0e30db0",
					"getContractBalance()": "6f9fb98a",
					"withdrawUsingCall(uint256)": "53e6141f",
					"withdrawUsingSend(uint256)": "48c8c908",
					"withdrawUsingTransfer(uint256)": "911d49df"
				}
			},
			"storageLayout": {
				"storage": [
					{
						"astId": 5,
						"contract": "SimpleWallet.sol:SimpleWallet",
						"label": "balances",
						"offset": 0,
						"slot": "0",
						"type": "t_mapping(t_address,t_uint256)"
					}
				],
				"types": {
					"t_address": {
						"encoding": "inplace",
						"label": "address",
						"numberOfBytes": "20"
					},
					"t_mapping(t_address,t_uint256)": {
						"encoding": "mapping",
						"key": "t_address",
						"label": "mapping(address => uint256)",
						"numberOfBytes": "32",
						"value": "t_uint256"
					},
					"t_uint256": {
						"encoding": "inplace",
						"label": "uint256",
						"numberOfBytes": "32"
					}
				}
			},
			"userdoc": {
				"kind": "user",
				"methods": {},
				"version": 1
			}
		}
	}
}