{
	"voting_dapp.sol": {
		"VotingSystem": {
			"abi": [
				{
					"inputs": [
						{
							"internalType": "string[]",
							"name": "_names",
							"type": "string[]"
						}
					],
					"stateMutability": "nonpayable",
					"type": "constructor"
				},
				{
					"inputs": [
						{
							"internalType": "uint256",
							"name": "",
							"type": "uint256"
						}
					],
					"name": "candidates",
					"outputs": [
						{
							"internalType": "uint256",
							"name": "id",
							"type": "uint256"
						},
						{
							"internalType": "string",
							"name": "name",
							"type": "string"
						},
						{
							"internalType": "uint256",
							"name": "voteCount",
							"type": "uint256"
						}
					],
					"stateMutability": "view",
					"type": "function"
				},
				{
					"inputs": [],
					"name": "candidatesCount",
					"outputs": [
						{
							"internalType": "uint256",
							"name": "",
							"type": "uint256"
						}
					],
					"stateMutability": "view",
					"type": "function"
				},
				{
					"inputs": [],
					"name": "getVoters",
					"outputs": [
						{
							"internalType": "address[]",
							"name": "",
							"type": "address[]"
						}
					],
					"stateMutability": "view",
					"type": "function"
				},
				{
					"inputs": [],
					"name": "getWinner",
					"outputs": [
						{
							"internalType": "string",
							"name": "winnerName",
							"type": "string"
						},
						{
							"internalType": "uint256",
							"name": "winnerVotes",
							"type": "uint256"
						}
					],
					"stateMutability": "view",
					"type": "function"
				},
				{
					"inputs": [
						{
							"internalType": "address",
							"name": "",
							"type": "address"
						}
					],
					"name": "hasVoted",
					"outputs": [
						{
							"internalType": "bool",
							"name": "",
							"type": "bool"
						}
					],
					"stateMutability": "view",
					"type": "function"
				},
				{
					"inputs": [],
					"name": "owner",
					"outputs": [
						{
							"internalType": "address",
							"name": "",
							"type": "address"
						}
					],
					"stateMutability": "view",
					"type": "function"
				},
				{
					"inputs": [
						{
							"internalType": "uint256",
							"name": "_candidateId",
							"type": "uint256"
						}
					],
					"name": "vote",
					"outputs": [],
					"stateMutability": "nonpayable",
					"type": "function"
				},
				{
					"inputs": [
						{
							"internalType": "uint256",
							"name": "",
							"type": "uint256"
						}
					],
					"name": "voters",
					"outputs": [
						{
							"internalType": "address",
							"name": "",
							"type": "address"
						}
					],
					"stateMutability": "view",
					"type": "function"
				}
			],
			"devdoc": {
				"kind": "dev",
				"methods": {},
				"version": 1
			},
			"evm": {
				"assembly": "    /* \"voting_dapp.sol\":60:1595  contract VotingSystem {... */\n  mstore(0x40, 0x80)\n    /* \"voting_dapp.sol\":382:703  constructor(string[] memory _names) {... */\n  callvalue\n  dup1\n  iszero\n  tag_1\n  jumpi\n  0x00\n  dup1\n  revert\ntag_1:\n  pop\n  mload(0x40)\n  sub(codesize, bytecodeSize)\n  dup1\n  bytecodeSize\n  dup4\n  codecopy\n  dup2\n  dup2\n  add\n  0x40\n  mstore\n  dup2\n  add\n  swap1\n  tag_2\n  swap2\n  swap1\n  tag_3\n  jump\t// in\ntag_2:\n    /* \"voting_dapp.sol\":437:447  msg.sender */\n  caller\n    /* \"voting_dapp.sol\":429:434  owner */\n  0x04\n  0x00\n    /* \"voting_dapp.sol\":429:447  owner = msg.sender */\n  0x0100\n  exp\n  dup2\n  sload\n  dup2\n  0xffffffffffffffffffffffffffffffffffffffff\n  mul\n  not\n  and\n  swap1\n  dup4\n  0xffffffffffffffffffffffffffffffffffffffff\n  and\n  mul\n  or\n  swap1\n  sstore\n  pop\n    /* \"voting_dapp.sol\":465:471  uint i */\n  0x00\n    /* \"voting_dapp.sol\":460:696  for (uint i = 0; i < _names.length; i++) {... */\ntag_6:\n    /* \"voting_dapp.sol\":481:487  _names */\n  dup2\n    /* \"voting_dapp.sol\":481:494  _names.length */\n  mload\n    /* \"voting_dapp.sol\":477:478  i */\n  dup2\n    /* \"voting_dapp.sol\":477:494  i < _names.length */\n  lt\n    /* \"voting_dapp.sol\":460:696  for (uint i = 0; i < _names.length; i++) {... */\n  iszero\n  tag_7\n  jumpi\n    /* \"voting_dapp.sol\":516:531  candidatesCount */\n  0x03\n  0x00\n    /* \"voting_dapp.sol\":516:533  candidatesCount++ */\n  dup2\n  sload\n  dup1\n  swap3\n  swap2\n  swap1\n  tag_9\n  swap1\n  tag_10\n  jump\t// in\ntag_9:\n  swap2\n  swap1\n  pop\n  sstore\n  pop\n    /* \"voting_dapp.sol\":578:684  Candidate(... */\n  mload(0x40)\n  dup1\n  0x60\n  add\n  0x40\n  mstore\n  dup1\n    /* \"voting_dapp.sol\":606:621  candidatesCount */\n  sload(0x03)\n    /* \"voting_dapp.sol\":578:684  Candidate(... */\n  dup2\n  mstore\n  0x20\n  add\n    /* \"voting_dapp.sol\":640:646  _names */\n  dup4\n    /* \"voting_dapp.sol\":647:648  i */\n  dup4\n    /* \"voting_dapp.sol\":640:649  _names[i] */\n  dup2\n  mload\n  dup2\n  lt\n  tag_11\n  jumpi\n  tag_12\n  tag_13\n  jump\t// in\ntag_12:\ntag_11:\n  0x20\n  mul\n  0x20\n  add\n  add\n  mload\n    /* \"voting_dapp.sol\":578:684  Candidate(... */\n  dup2\n  mstore\n  0x20\n  add\n    /* \"voting_dapp.sol\":668:669  0 */\n  0x00\n    /* \"voting_dapp.sol\":578:684  Candidate(... */\n  dup2\n  mstore\n  pop\n    /* \"voting_dapp.sol\":548:558  candidates */\n  0x00\n    /* \"voting_dapp.sol\":548:575  candidates[candidatesCount] */\n  dup1\n    /* \"voting_dapp.sol\":559:574  candidatesCount */\n  sload(0x03)\n    /* \"voting_dapp.sol\":548:575  candidates[candidatesCount] */\n  dup2\n  mstore\n  0x20\n  add\n  swap1\n  dup2\n  mstore\n  0x20\n  add\n  0x00\n  keccak256\n    /* \"voting_dapp.sol\":548:684  candidates[candidatesCount] = Candidate(... */\n  0x00\n  dup3\n  add\n  mload\n  dup2\n  0x00\n  add\n  sstore\n  0x20\n  dup3\n  add\n  mload\n  dup2\n  0x01\n  add\n  swap1\n  dup2\n  tag_14\n  swap2\n  swap1\n  tag_15\n  jump\t// in\ntag_14:\n  pop\n  0x40\n  dup3\n  add\n  mload\n  dup2\n  0x02\n  add\n  sstore\n  swap1\n  pop\n  pop\n    /* \"voting_dapp.sol\":496:499  i++ */\n  dup1\n  dup1\n  tag_16\n  swap1\n  tag_10\n  jump\t// in\ntag_16:\n  swap2\n  pop\n  pop\n    /* \"voting_dapp.sol\":460:696  for (uint i = 0; i < _names.length; i++) {... */\n  jump(tag_6)\ntag_7:\n  pop\n    /* \"voting_dapp.sol\":382:703  constructor(string[] memory _names) {... */\n  pop\n    /* \"voting_dapp.sol\":60:1595  contract VotingSystem {... */\n  jump(tag_17)\n    /* \"#utility.yul\":7:82   */\ntag_18:\n    /* \"#utility.yul\":40:46   */\n  0x00\n    /* \"#utility.yul\":73:75   */\n  0x40\n    /* \"#utility.yul\":67:76   */\n  mload\n    /* \"#utility.yul\":57:76   */\n  swap1\n  pop\n    /* \"#utility.yul\":7:82   */\n  swap1\n  jump\t// out\n    /* \"#utility.yul\":88:205   */\ntag_19:\n    /* \"#utility.yul\":197:198   */\n  0x00\n    /* \"#utility.yul\":194:195   */\n  dup1\n    /* \"#utility.yul\":187:199   */\n  revert\n    /* \"#utility.yul\":211:328   */\ntag_20:\n    /* \"#utility.yul\":320:321   */\n  0x00\n    /* \"#utility.yul\":317:318   */\n  dup1\n    /* \"#utility.yul\":310:322   */\n  revert\n    /* \"#utility.yul\":334:451   */\ntag_21:\n    /* \"#utility.yul\":443:444   */\n  0x00\n    /* \"#utility.yul\":440:441   */\n  dup1\n    /* \"#utility.yul\":433:445   */\n  revert\n    /* \"#utility.yul\":457:559   */\ntag_22:\n    /* \"#utility.yul\":498:504   */\n  0x00\n    /* \"#utility.yul\":549:551   */\n  0x1f\n    /* \"#utility.yul\":545:552   */\n  not\n    /* \"#utility.yul\":540:542   */\n  0x1f\n    /* \"#utility.yul\":533:538   */\n  dup4\n    /* \"#utility.yul\":529:543   */\n  add\n    /* \"#utility.yul\":525:553   */\n  and\n    /* \"#utility.yul\":515:553   */\n  swap1\n  pop\n    /* \"#utility.yul\":457:559   */\n  swap2\n  swap1\n  pop\n  jump\t// out\n    /* \"#utility.yul\":565:745   */\ntag_23:\n    /* \"#utility.yul\":613:690   */\n  0x4e487b7100000000000000000000000000000000000000000000000000000000\n    /* \"#utility.yul\":610:611   */\n  0x00\n    /* \"#utility.yul\":603:691   */\n  mstore\n    /* \"#utility.yul\":710:714   */\n  0x41\n    /* \"#utility.yul\":707:708   */\n  0x04\n    /* \"#utility.yul\":700:715   */\n  mstore\n    /* \"#utility.yul\":734:738   */\n  0x24\n    /* \"#utility.yul\":731:732   */\n  0x00\n    /* \"#utility.yul\":724:739   */\n  revert\n    /* \"#utility.yul\":751:1032   */\ntag_24:\n    /* \"#utility.yul\":834:861   */\n  tag_63\n    /* \"#utility.yul\":856:860   */\n  dup3\n    /* \"#utility.yul\":834:861   */\n  tag_22\n  jump\t// in\ntag_63:\n    /* \"#utility.yul\":826:832   */\n  dup2\n    /* \"#utility.yul\":822:862   */\n  add\n    /* \"#utility.yul\":964:970   */\n  dup2\n    /* \"#utility.yul\":952:962   */\n  dup2\n    /* \"#utility.yul\":949:971   */\n  lt\n    /* \"#utility.yul\":928:946   */\n  0xffffffffffffffff\n    /* \"#utility.yul\":916:926   */\n  dup3\n    /* \"#utility.yul\":913:947   */\n  gt\n    /* \"#utility.yul\":910:972   */\n  or\n    /* \"#utility.yul\":907:995   */\n  iszero\n  tag_64\n  jumpi\n    /* \"#utility.yul\":975:993   */\n  tag_65\n  tag_23\n  jump\t// in\ntag_65:\n    /* \"#utility.yul\":907:995   */\ntag_64:\n    /* \"#utility.yul\":1015:1025   */\n  dup1\n    /* \"#utility.yul\":1011:1013   */\n  0x40\n    /* \"#utility.yul\":1004:1026   */\n  mstore\n    /* \"#utility.yul\":794:1032   */\n  pop\n    /* \"#utility.yul\":751:1032   */\n  pop\n  pop\n  jump\t// out\n    /* \"#utility.yul\":1038:1167   */\ntag_25:\n    /* \"#utility.yul\":1072:1078   */\n  0x00\n    /* \"#utility.yul\":1099:1119   */\n  tag_67\n  tag_18\n  jump\t// in\ntag_67:\n    /* \"#utility.yul\":1089:1119   */\n  swap1\n  pop\n    /* \"#utility.yul\":1128:1161   */\n  tag_68\n    /* \"#utility.yul\":1156:1160   */\n  dup3\n    /* \"#utility.yul\":1148:1154   */\n  dup3\n    /* \"#utility.yul\":1128:1161   */\n  tag_24\n  jump\t// in\ntag_68:\n    /* \"#utility.yul\":1038:1167   */\n  swap2\n  swap1\n  pop\n  jump\t// out\n    /* \"#utility.yul\":1173:1494   */\ntag_26:\n    /* \"#utility.yul\":1260:1264   */\n  0x00\n    /* \"#utility.yul\":1350:1368   */\n  0xffffffffffffffff\n    /* \"#utility.yul\":1342:1348   */\n  dup3\n    /* \"#utility.yul\":1339:1369   */\n  gt\n    /* \"#utility.yul\":1336:1392   */\n  iszero\n  tag_70\n  jumpi\n    /* \"#utility.yul\":1372:1390   */\n  tag_71\n  tag_23\n  jump\t// in\ntag_71:\n    /* \"#utility.yul\":1336:1392   */\ntag_70:\n    /* \"#utility.yul\":1422:1426   */\n  0x20\n    /* \"#utility.yul\":1414:1420   */\n  dup3\n    /* \"#utility.yul\":1410:1427   */\n  mul\n    /* \"#utility.yul\":1402:1427   */\n  swap1\n  pop\n    /* \"#utility.yul\":1482:1486   */\n  0x20\n    /* \"#utility.yul\":1476:1480   */\n  dup2\n    /* \"#utility.yul\":1472:1487   */\n  add\n    /* \"#utility.yul\":1464:1487   */\n  swap1\n  pop\n    /* \"#utility.yul\":1173:1494   */\n  swap2\n  swap1\n  pop\n  jump\t// out\n    /* \"#utility.yul\":1500:1617   */\ntag_27:\n    /* \"#utility.yul\":1609:1610   */\n  0x00\n    /* \"#utility.yul\":1606:1607   */\n  dup1\n    /* \"#utility.yul\":1599:1611   */\n  revert\n    /* \"#utility.yul\":1623:1740   */\ntag_28:\n    /* \"#utility.yul\":1732:1733   */\n  0x00\n    /* \"#utility.yul\":1729:1730   */\n  dup1\n    /* \"#utility.yul\":1722:1734   */\n  revert\n    /* \"#utility.yul\":1746:2054   */\ntag_29:\n    /* \"#utility.yul\":1808:1812   */\n  0x00\n    /* \"#utility.yul\":1898:1916   */\n  0xffffffffffffffff\n    /* \"#utility.yul\":1890:1896   */\n  dup3\n    /* \"#utility.yul\":1887:1917   */\n  gt\n    /* \"#utility.yul\":1884:1940   */\n  iszero\n  tag_75\n  jumpi\n    /* \"#utility.yul\":1920:1938   */\n  tag_76\n  tag_23\n  jump\t// in\ntag_76:\n    /* \"#utility.yul\":1884:1940   */\ntag_75:\n    /* \"#utility.yul\":1958:1987   */\n  tag_77\n    /* \"#utility.yul\":1980:1986   */\n  dup3\n    /* \"#utility.yul\":1958:1987   */\n  tag_22\n  jump\t// in\ntag_77:\n    /* \"#utility.yul\":1950:1987   */\n  swap1\n  pop\n    /* \"#utility.yul\":2042:2046   */\n  0x20\n    /* \"#utility.yul\":2036:2040   */\n  dup2\n    /* \"#utility.yul\":2032:2047   */\n  add\n    /* \"#utility.yul\":2024:2047   */\n  swap1\n  pop\n    /* \"#utility.yul\":1746:2054   */\n  swap2\n  swap1\n  pop\n  jump\t// out\n    /* \"#utility.yul\":2060:2306   */\ntag_30:\n    /* \"#utility.yul\":2141:2142   */\n  0x00\n    /* \"#utility.yul\":2151:2264   */\ntag_79:\n    /* \"#utility.yul\":2165:2171   */\n  dup4\n    /* \"#utility.yul\":2162:2163   */\n  dup2\n    /* \"#utility.yul\":2159:2172   */\n  lt\n    /* \"#utility.yul\":2151:2264   */\n  iszero\n  tag_81\n  jumpi\n    /* \"#utility.yul\":2250:2251   */\n  dup1\n    /* \"#utility.yul\":2245:2248   */\n  dup3\n    /* \"#utility.yul\":2241:2252   */\n  add\n    /* \"#utility.yul\":2235:2253   */\n  mload\n    /* \"#utility.yul\":2231:2232   */\n  dup2\n    /* \"#utility.yul\":2226:2229   */\n  dup5\n    /* \"#utility.yul\":2222:2233   */\n  add\n    /* \"#utility.yul\":2215:2254   */\n  mstore\n    /* \"#utility.yul\":2187:2189   */\n  0x20\n    /* \"#utility.yul\":2184:2185   */\n  dup2\n    /* \"#utility.yul\":2180:2190   */\n  add\n    /* \"#utility.yul\":2175:2190   */\n  swap1\n  pop\n    /* \"#utility.yul\":2151:2264   */\n  jump(tag_79)\ntag_81:\n    /* \"#utility.yul\":2298:2299   */\n  0x00\n    /* \"#utility.yul\":2289:2295   */\n  dup5\n    /* \"#utility.yul\":2284:2287   */\n  dup5\n    /* \"#utility.yul\":2280:2296   */\n  add\n    /* \"#utility.yul\":2273:2300   */\n  mstore\n    /* \"#utility.yul\":2122:2306   */\n  pop\n    /* \"#utility.yul\":2060:2306   */\n  pop\n  pop\n  pop\n  jump\t// out\n    /* \"#utility.yul\":2312:2746   */\ntag_31:\n    /* \"#utility.yul\":2401:2406   */\n  0x00\n    /* \"#utility.yul\":2426:2492   */\n  tag_83\n    /* \"#utility.yul\":2442:2491   */\n  tag_84\n    /* \"#utility.yul\":2484:2490   */\n  dup5\n    /* \"#utility.yul\":2442:2491   */\n  tag_29\n  jump\t// in\ntag_84:\n    /* \"#utility.yul\":2426:2492   */\n  tag_25\n  jump\t// in\ntag_83:\n    /* \"#utility.yul\":2417:2492   */\n  swap1\n  pop\n    /* \"#utility.yul\":2515:2521   */\n  dup3\n    /* \"#utility.yul\":2508:2513   */\n  dup2\n    /* \"#utility.yul\":2501:2522   */\n  mstore\n    /* \"#utility.yul\":2553:2557   */\n  0x20\n    /* \"#utility.yul\":2546:2551   */\n  dup2\n    /* \"#utility.yul\":2542:2558   */\n  add\n    /* \"#utility.yul\":2591:2594   */\n  dup5\n    /* \"#utility.yul\":2582:2588   */\n  dup5\n    /* \"#utility.yul\":2577:2580   */\n  dup5\n    /* \"#utility.yul\":2573:2589   */\n  add\n    /* \"#utility.yul\":2570:2595   */\n  gt\n    /* \"#utility.yul\":2567:2679   */\n  iszero\n  tag_85\n  jumpi\n    /* \"#utility.yul\":2598:2677   */\n  tag_86\n  tag_28\n  jump\t// in\ntag_86:\n    /* \"#utility.yul\":2567:2679   */\ntag_85:\n    /* \"#utility.yul\":2688:2740   */\n  tag_87\n    /* \"#utility.yul\":2733:2739   */\n  dup5\n    /* \"#utility.yul\":2728:2731   */\n  dup3\n    /* \"#utility.yul\":2723:2726   */\n  dup6\n    /* \"#utility.yul\":2688:2740   */\n  tag_30\n  jump\t// in\ntag_87:\n    /* \"#utility.yul\":2407:2746   */\n  pop\n    /* \"#utility.yul\":2312:2746   */\n  swap4\n  swap3\n  pop\n  pop\n  pop\n  jump\t// out\n    /* \"#utility.yul\":2766:3121   */\ntag_32:\n    /* \"#utility.yul\":2833:2838   */\n  0x00\n    /* \"#utility.yul\":2882:2885   */\n  dup3\n    /* \"#utility.yul\":2875:2879   */\n  0x1f\n    /* \"#utility.yul\":2867:2873   */\n  dup4\n    /* \"#utility.yul\":2863:2880   */\n  add\n    /* \"#utility.yul\":2859:2886   */\n  slt\n    /* \"#utility.yul\":2849:2971   */\n  tag_89\n  jumpi\n    /* \"#utility.yul\":2890:2969   */\n  tag_90\n  tag_21\n  jump\t// in\ntag_90:\n    /* \"#utility.yul\":2849:2971   */\ntag_89:\n    /* \"#utility.yul\":3000:3006   */\n  dup2\n    /* \"#utility.yul\":2994:3007   */\n  mload\n    /* \"#utility.yul\":3025:3115   */\n  tag_91\n    /* \"#utility.yul\":3111:3114   */\n  dup5\n    /* \"#utility.yul\":3103:3109   */\n  dup3\n    /* \"#utility.yul\":3096:3100   */\n  0x20\n    /* \"#utility.yul\":3088:3094   */\n  dup7\n    /* \"#utility.yul\":3084:3101   */\n  add\n    /* \"#utility.yul\":3025:3115   */\n  tag_31\n  jump\t// in\ntag_91:\n    /* \"#utility.yul\":3016:3115   */\n  swap2\n  pop\n    /* \"#utility.yul\":2839:3121   */\n  pop\n    /* \"#utility.yul\":2766:3121   */\n  swap3\n  swap2\n  pop\n  pop\n  jump\t// out\n    /* \"#utility.yul\":3143:4103   */\ntag_33:\n    /* \"#utility.yul\":3260:3265   */\n  0x00\n    /* \"#utility.yul\":3285:3376   */\n  tag_93\n    /* \"#utility.yul\":3301:3375   */\n  tag_94\n    /* \"#utility.yul\":3368:3374   */\n  dup5\n    /* \"#utility.yul\":3301:3375   */\n  tag_26\n  jump\t// in\ntag_94:\n    /* \"#utility.yul\":3285:3376   */\n  tag_25\n  jump\t// in\ntag_93:\n    /* \"#utility.yul\":3276:3376   */\n  swap1\n  pop\n    /* \"#utility.yul\":3396:3401   */\n  dup1\n    /* \"#utility.yul\":3425:3431   */\n  dup4\n    /* \"#utility.yul\":3418:3423   */\n  dup3\n    /* \"#utility.yul\":3411:3432   */\n  mstore\n    /* \"#utility.yul\":3459:3463   */\n  0x20\n    /* \"#utility.yul\":3452:3457   */\n  dup3\n    /* \"#utility.yul\":3448:3464   */\n  add\n    /* \"#utility.yul\":3441:3464   */\n  swap1\n  pop\n    /* \"#utility.yul\":3512:3516   */\n  0x20\n    /* \"#utility.yul\":3504:3510   */\n  dup5\n    /* \"#utility.yul\":3500:3517   */\n  mul\n    /* \"#utility.yul\":3492:3498   */\n  dup4\n    /* \"#utility.yul\":3488:3518   */\n  add\n    /* \"#utility.yul\":3541:3544   */\n  dup6\n    /* \"#utility.yul\":3533:3539   */\n  dup2\n    /* \"#utility.yul\":3530:3545   */\n  gt\n    /* \"#utility.yul\":3527:3649   */\n  iszero\n  tag_95\n  jumpi\n    /* \"#utility.yul\":3560:3639   */\n  tag_96\n  tag_27\n  jump\t// in\ntag_96:\n    /* \"#utility.yul\":3527:3649   */\ntag_95:\n    /* \"#utility.yul\":3675:3681   */\n  dup4\n    /* \"#utility.yul\":3658:4097   */\ntag_97:\n    /* \"#utility.yul\":3692:3698   */\n  dup2\n    /* \"#utility.yul\":3687:3690   */\n  dup2\n    /* \"#utility.yul\":3684:3699   */\n  lt\n    /* \"#utility.yul\":3658:4097   */\n  iszero\n  tag_99\n  jumpi\n    /* \"#utility.yul\":3774:3777   */\n  dup1\n    /* \"#utility.yul\":3768:3778   */\n  mload\n    /* \"#utility.yul\":3810:3828   */\n  0xffffffffffffffff\n    /* \"#utility.yul\":3797:3808   */\n  dup2\n    /* \"#utility.yul\":3794:3829   */\n  gt\n    /* \"#utility.yul\":3791:3913   */\n  iszero\n  tag_100\n  jumpi\n    /* \"#utility.yul\":3832:3911   */\n  tag_101\n  tag_21\n  jump\t// in\ntag_101:\n    /* \"#utility.yul\":3791:3913   */\ntag_100:\n    /* \"#utility.yul\":3956:3967   */\n  dup1\n    /* \"#utility.yul\":3948:3954   */\n  dup7\n    /* \"#utility.yul\":3944:3968   */\n  add\n    /* \"#utility.yul\":3994:4052   */\n  tag_102\n    /* \"#utility.yul\":4048:4051   */\n  dup10\n    /* \"#utility.yul\":4036:4046   */\n  dup3\n    /* \"#utility.yul\":3994:4052   */\n  tag_32\n  jump\t// in\ntag_102:\n    /* \"#utility.yul\":3989:3992   */\n  dup6\n    /* \"#utility.yul\":3982:4053   */\n  mstore\n    /* \"#utility.yul\":4082:4086   */\n  0x20\n    /* \"#utility.yul\":4077:4080   */\n  dup6\n    /* \"#utility.yul\":4073:4087   */\n  add\n    /* \"#utility.yul\":4066:4087   */\n  swap5\n  pop\n    /* \"#utility.yul\":3734:4097   */\n  pop\n  pop\n    /* \"#utility.yul\":3718:3722   */\n  0x20\n    /* \"#utility.yul\":3713:3716   */\n  dup2\n    /* \"#utility.yul\":3709:3723   */\n  add\n    /* \"#utility.yul\":3702:3723   */\n  swap1\n  pop\n    /* \"#utility.yul\":3658:4097   */\n  jump(tag_97)\ntag_99:\n    /* \"#utility.yul\":3662:3683   */\n  pop\n    /* \"#utility.yul\":3266:4103   */\n  pop\n  pop\n    /* \"#utility.yul\":3143:4103   */\n  swap4\n  swap3\n  pop\n  pop\n  pop\n  jump\t// out\n    /* \"#utility.yul\":4125:4530   */\ntag_34:\n    /* \"#utility.yul\":4217:4222   */\n  0x00\n    /* \"#utility.yul\":4266:4269   */\n  dup3\n    /* \"#utility.yul\":4259:4263   */\n  0x1f\n    /* \"#utility.yul\":4251:4257   */\n  dup4\n    /* \"#utility.yul\":4247:4264   */\n  add\n    /* \"#utility.yul\":4243:4270   */\n  slt\n    /* \"#utility.yul\":4233:4355   */\n  tag_104\n  jumpi\n    /* \"#utility.yul\":4274:4353   */\n  tag_105\n  tag_21\n  jump\t// in\ntag_105:\n    /* \"#utility.yul\":4233:4355   */\ntag_104:\n    /* \"#utility.yul\":4384:4390   */\n  dup2\n    /* \"#utility.yul\":4378:4391   */\n  mload\n    /* \"#utility.yul\":4409:4524   */\n  tag_106\n    /* \"#utility.yul\":4520:4523   */\n  dup5\n    /* \"#utility.yul\":4512:4518   */\n  dup3\n    /* \"#utility.yul\":4505:4509   */\n  0x20\n    /* \"#utility.yul\":4497:4503   */\n  dup7\n    /* \"#utility.yul\":4493:4510   */\n  add\n    /* \"#utility.yul\":4409:4524   */\n  tag_33\n  jump\t// in\ntag_106:\n    /* \"#utility.yul\":4400:4524   */\n  swap2\n  pop\n    /* \"#utility.yul\":4223:4530   */\n  pop\n    /* \"#utility.yul\":4125:4530   */\n  swap3\n  swap2\n  pop\n  pop\n  jump\t// out\n    /* \"#utility.yul\":4536:5110   */\ntag_3:\n    /* \"#utility.yul\":4641:4647   */\n  0x00\n    /* \"#utility.yul\":4690:4692   */\n  0x20\n    /* \"#utility.yul\":4678:4687   */\n  dup3\n    /* \"#utility.yul\":4669:4676   */\n  dup5\n    /* \"#utility.yul\":4665:4688   */\n  sub\n    /* \"#utility.yul\":4661:4693   */\n  slt\n    /* \"#utility.yul\":4658:4777   */\n  iszero\n  tag_108\n  jumpi\n    /* \"#utility.yul\":4696:4775   */\n  tag_109\n  tag_19\n  jump\t// in\ntag_109:\n    /* \"#utility.yul\":4658:4777   */\ntag_108:\n    /* \"#utility.yul\":4837:4838   */\n  0x00\n    /* \"#utility.yul\":4826:4835   */\n  dup3\n    /* \"#utility.yul\":4822:4839   */\n  add\n    /* \"#utility.yul\":4816:4840   */\n  mload\n    /* \"#utility.yul\":4867:4885   */\n  0xffffffffffffffff\n    /* \"#utility.yul\":4859:4865   */\n  dup2\n    /* \"#utility.yul\":4856:4886   */\n  gt\n    /* \"#utility.yul\":4853:4970   */\n  iszero\n  tag_110\n  jumpi\n    /* \"#utility.yul\":4889:4968   */\n  tag_111\n  tag_20\n  jump\t// in\ntag_111:\n    /* \"#utility.yul\":4853:4970   */\ntag_110:\n    /* \"#utility.yul\":4994:5093   */\n  tag_112\n    /* \"#utility.yul\":5085:5092   */\n  dup5\n    /* \"#utility.yul\":5076:5082   */\n  dup3\n    /* \"#utility.yul\":5065:5074   */\n  dup6\n    /* \"#utility.yul\":5061:5083   */\n  add\n    /* \"#utility.yul\":4994:5093   */\n  tag_34\n  jump\t// in\ntag_112:\n    /* \"#utility.yul\":4984:5093   */\n  swap2\n  pop\n    /* \"#utility.yul\":4787:5103   */\n  pop\n    /* \"#utility.yul\":4536:5110   */\n  swap3\n  swap2\n  pop\n  pop\n  jump\t// out\n    /* \"#utility.yul\":5116:5296   */\ntag_35:\n    /* \"#utility.yul\":5164:5241   */\n  0x4e487b7100000000000000000000000000000000000000000000000000000000\n    /* \"#utility.yul\":5161:5162   */\n  0x00\n    /* \"#utility.yul\":5154:5242   */\n  mstore\n    /* \"#utility.yul\":5261:5265   */\n  0x11\n    /* \"#utility.yul\":5258:5259   */\n  0x04\n    /* \"#utility.yul\":5251:5266   */\n  mstore\n    /* \"#utility.yul\":5285:5289   */\n  0x24\n    /* \"#utility.yul\":5282:5283   */\n  0x00\n    /* \"#utility.yul\":5275:5290   */\n  revert\n    /* \"#utility.yul\":5302:5379   */\ntag_36:\n    /* \"#utility.yul\":5339:5346   */\n  0x00\n    /* \"#utility.yul\":5368:5373   */\n  dup2\n    /* \"#utility.yul\":5357:5373   */\n  swap1\n  pop\n    /* \"#utility.yul\":5302:5379   */\n  swap2\n  swap1\n  pop\n  jump\t// out\n    /* \"#utility.yul\":5385:5618   */\ntag_10:\n    /* \"#utility.yul\":5424:5427   */\n  0x00\n    /* \"#utility.yul\":5447:5471   */\n  tag_116\n    /* \"#utility.yul\":5465:5470   */\n  dup3\n    /* \"#utility.yul\":5447:5471   */\n  tag_36\n  jump\t// in\ntag_116:\n    /* \"#utility.yul\":5438:5471   */\n  swap2\n  pop\n    /* \"#utility.yul\":5493:5559   */\n  0xffffffffffffffffffffffffffffffffffffffffffffffffffffffffffffffff\n    /* \"#utility.yul\":5486:5491   */\n  dup3\n    /* \"#utility.yul\":5483:5560   */\n  sub\n    /* \"#utility.yul\":5480:5583   */\n  tag_117\n  jumpi\n    /* \"#utility.yul\":5563:5581   */\n  tag_118\n  tag_35\n  jump\t// in\ntag_118:\n    /* \"#utility.yul\":5480:5583   */\ntag_117:\n    /* \"#utility.yul\":5610:5611   */\n  0x01\n    /* \"#utility.yul\":5603:5608   */\n  dup3\n    /* \"#utility.yul\":5599:5612   */\n  add\n    /* \"#utility.yul\":5592:5612   */\n  swap1\n  pop\n    /* \"#utility.yul\":5385:5618   */\n  swap2\n  swap1\n  pop\n  jump\t// out\n    /* \"#utility.yul\":5624:5804   */\ntag_13:\n    /* \"#utility.yul\":5672:5749   */\n  0x4e487b7100000000000000000000000000000000000000000000000000000000\n    /* \"#utility.yul\":5669:5670   */\n  0x00\n    /* \"#utility.yul\":5662:5750   */\n  mstore\n    /* \"#utility.yul\":5769:5773   */\n  0x32\n    /* \"#utility.yul\":5766:5767   */\n  0x04\n    /* \"#utility.yul\":5759:5774   */\n  mstore\n    /* \"#utility.yul\":5793:5797   */\n  0x24\n    /* \"#utility.yul\":5790:5791   */\n  0x00\n    /* \"#utility.yul\":5783:5798   */\n  revert\n    /* \"#utility.yul\":5810:5909   */\ntag_37:\n    /* \"#utility.yul\":5862:5868   */\n  0x00\n    /* \"#utility.yul\":5896:5901   */\n  dup2\n    /* \"#utility.yul\":5890:5902   */\n  mload\n    /* \"#utility.yul\":5880:5902   */\n  swap1\n  pop\n    /* \"#utility.yul\":5810:5909   */\n  swap2\n  swap1\n  pop\n  jump\t// out\n    /* \"#utility.yul\":5915:6095   */\ntag_38:\n    /* \"#utility.yul\":5963:6040   */\n  0x4e487b7100000000000000000000000000000000000000000000000000000000\n    /* \"#utility.yul\":5960:5961   */\n  0x00\n    /* \"#utility.yul\":5953:6041   */\n  mstore\n    /* \"#utility.yul\":6060:6064   */\n  0x22\n    /* \"#utility.yul\":6057:6058   */\n  0x04\n    /* \"#utility.yul\":6050:6065   */\n  mstore\n    /* \"#utility.yul\":6084:6088   */\n  0x24\n    /* \"#utility.yul\":6081:6082   */\n  0x00\n    /* \"#utility.yul\":6074:6089   */\n  revert\n    /* \"#utility.yul\":6101:6421   */\ntag_39:\n    /* \"#utility.yul\":6145:6151   */\n  0x00\n    /* \"#utility.yul\":6182:6183   */\n  0x02\n    /* \"#utility.yul\":6176:6180   */\n  dup3\n    /* \"#utility.yul\":6172:6184   */\n  div\n    /* \"#utility.yul\":6162:6184   */\n  swap1\n  pop\n    /* \"#utility.yul\":6229:6230   */\n  0x01\n    /* \"#utility.yul\":6223:6227   */\n  dup3\n    /* \"#utility.yul\":6219:6231   */\n  and\n    /* \"#utility.yul\":6250:6268   */\n  dup1\n    /* \"#utility.yul\":6240:6321   */\n  tag_123\n  jumpi\n    /* \"#utility.yul\":6306:6310   */\n  0x7f\n    /* \"#utility.yul\":6298:6304   */\n  dup3\n    /* \"#utility.yul\":6294:6311   */\n  and\n    /* \"#utility.yul\":6284:6311   */\n  swap2\n  pop\n    /* \"#utility.yul\":6240:6321   */\ntag_123:\n    /* \"#utility.yul\":6368:6370   */\n  0x20\n    /* \"#utility.yul\":6360:6366   */\n  dup3\n    /* \"#utility.yul\":6357:6371   */\n  lt\n    /* \"#utility.yul\":6337:6355   */\n  dup2\n    /* \"#utility.yul\":6334:6372   */\n  sub\n    /* \"#utility.yul\":6331:6415   */\n  tag_124\n  jumpi\n    /* \"#utility.yul\":6387:6405   */\n  tag_125\n  tag_38\n  jump\t// in\ntag_125:\n    /* \"#utility.yul\":6331:6415   */\ntag_124:\n    /* \"#utility.yul\":6152:6421   */\n  pop\n    /* \"#utility.yul\":6101:6421   */\n  swap2\n  swap1\n  pop\n  jump\t// out\n    /* \"#utility.yul\":6427:6568   */\ntag_40:\n    /* \"#utility.yul\":6476:6480   */\n  0x00\n    /* \"#utility.yul\":6499:6502   */\n  dup2\n    /* \"#utility.yul\":6491:6502   */\n  swap1\n  pop\n    /* \"#utility.yul\":6522:6525   */\n  dup2\n    /* \"#utility.yul\":6519:6520   */\n  0x00\n    /* \"#utility.yul\":6512:6526   */\n  mstore\n    /* \"#utility.yul\":6556:6560   */\n  0x20\n    /* \"#utility.yul\":6553:6554   */\n  0x00\n    /* \"#utility.yul\":6543:6561   */\n  keccak256\n    /* \"#utility.yul\":6535:6561   */\n  swap1\n  pop\n    /* \"#utility.yul\":6427:6568   */\n  swap2\n  swap1\n  pop\n  jump\t// out\n    /* \"#utility.yul\":6574:6667   */\ntag_41:\n    /* \"#utility.yul\":6611:6617   */\n  0x00\n    /* \"#utility.yul\":6658:6660   */\n  0x20\n    /* \"#utility.yul\":6653:6655   */\n  0x1f\n    /* \"#utility.yul\":6646:6651   */\n  dup4\n    /* \"#utility.yul\":6642:6656   */\n  add\n    /* \"#utility.yul\":6638:6661   */\n  div\n    /* \"#utility.yul\":6628:6661   */\n  swap1\n  pop\n    /* \"#utility.yul\":6574:6667   */\n  swap2\n  swap1\n  pop\n  jump\t// out\n    /* \"#utility.yul\":6673:6780   */\ntag_42:\n    /* \"#utility.yul\":6717:6725   */\n  0x00\n    /* \"#utility.yul\":6767:6772   */\n  dup3\n    /* \"#utility.yul\":6761:6765   */\n  dup3\n    /* \"#utility.yul\":6757:6773   */\n  shl\n    /* \"#utility.yul\":6736:6773   */\n  swap1\n  pop\n    /* \"#utility.yul\":6673:6780   */\n  swap3\n  swap2\n  pop\n  pop\n  jump\t// out\n    /* \"#utility.yul\":6786:7179   */\ntag_43:\n    /* \"#utility.yul\":6855:6861   */\n  0x00\n    /* \"#utility.yul\":6905:6906   */\n  0x08\n    /* \"#utility.yul\":6893:6903   */\n  dup4\n    /* \"#utility.yul\":6889:6907   */\n  mul\n    /* \"#utility.yul\":6928:7025   */\n  tag_130\n    /* \"#utility.yul\":6958:7024   */\n  0xffffffffffffffffffffffffffffffffffffffffffffffffffffffffffffffff\n    /* \"#utility.yul\":6947:6956   */\n  dup3\n    /* \"#utility.yul\":6928:7025   */\n  tag_42\n  jump\t// in\ntag_130:\n    /* \"#utility.yul\":7046:7085   */\n  tag_131\n    /* \"#utility.yul\":7076:7084   */\n  dup7\n    /* \"#utility.yul\":7065:7074   */\n  dup4\n    /* \"#utility.yul\":7046:7085   */\n  tag_42\n  jump\t// in\ntag_131:\n    /* \"#utility.yul\":7034:7085   */\n  swap6\n  pop\n    /* \"#utility.yul\":7118:7122   */\n  dup1\n    /* \"#utility.yul\":7114:7123   */\n  not\n    /* \"#utility.yul\":7107:7112   */\n  dup5\n    /* \"#utility.yul\":7103:7124   */\n  and\n    /* \"#utility.yul\":7094:7124   */\n  swap4\n  pop\n    /* \"#utility.yul\":7167:7171   */\n  dup1\n    /* \"#utility.yul\":7157:7165   */\n  dup7\n    /* \"#utility.yul\":7153:7172   */\n  and\n    /* \"#utility.yul\":7146:7151   */\n  dup5\n    /* \"#utility.yul\":7143:7173   */\n  or\n    /* \"#utility.yul\":7133:7173   */\n  swap3\n  pop\n    /* \"#utility.yul\":6862:7179   */\n  pop\n  pop\n    /* \"#utility.yul\":6786:7179   */\n  swap4\n  swap3\n  pop\n  pop\n  pop\n  jump\t// out\n    /* \"#utility.yul\":7185:7245   */\ntag_44:\n    /* \"#utility.yul\":7213:7216   */\n  0x00\n    /* \"#utility.yul\":7234:7239   */\n  dup2\n    /* \"#utility.yul\":7227:7239   */\n  swap1\n  pop\n    /* \"#utility.yul\":7185:7245   */\n  swap2\n  swap1\n  pop\n  jump\t// out\n    /* \"#utility.yul\":7251:7393   */\ntag_45:\n    /* \"#utility.yul\":7301:7310   */\n  0x00\n    /* \"#utility.yul\":7334:7387   */\n  tag_134\n    /* \"#utility.yul\":7352:7386   */\n  tag_135\n    /* \"#utility.yul\":7361:7385   */\n  tag_136\n    /* \"#utility.yul\":7379:7384   */\n  dup5\n    /* \"#utility.yul\":7361:7385   */\n  tag_36\n  jump\t// in\ntag_136:\n    /* \"#utility.yul\":7352:7386   */\n  tag_44\n  jump\t// in\ntag_135:\n    /* \"#utility.yul\":7334:7387   */\n  tag_36\n  jump\t// in\ntag_134:\n    /* \"#utility.yul\":7321:7387   */\n  swap1\n  pop\n    /* \"#utility.yul\":7251:7393   */\n  swap2\n  swap1\n  pop\n  jump\t// out\n    /* \"#utility.yul\":7399:7474   */\ntag_46:\n    /* \"#utility.yul\":7442:7445   */\n  0x00\n    /* \"#utility.yul\":7463:7468   */\n  dup2\n    /* \"#utility.yul\":7456:7468   */\n  swap1\n  pop\n    /* \"#utility.yul\":7399:7474   */\n  swap2\n  swap1\n  pop\n  jump\t// out\n    /* \"#utility.yul\":7480:7749   */\ntag_47:\n    /* \"#utility.yul\":7590:7629   */\n  tag_139\n    /* \"#utility.yul\":7621:7628   */\n  dup4\n    /* \"#utility.yul\":7590:7629   */\n  tag_45\n  jump\t// in\ntag_139:\n    /* \"#utility.yul\":7651:7742   */\n  tag_140\n    /* \"#utility.yul\":7700:7741   */\n  tag_141\n    /* \"#utility.yul\":7724:7740   */\n  dup3\n    /* \"#utility.yul\":7700:7741   */\n  tag_46\n  jump\t// in\ntag_141:\n    /* \"#utility.yul\":7692:7698   */\n  dup5\n    /* \"#utility.yul\":7685:7689   */\n  dup5\n    /* \"#utility.yul\":7679:7690   */\n  sload\n    /* \"#utility.yul\":7651:7742   */\n  tag_43\n  jump\t// in\ntag_140:\n    /* \"#utility.yul\":7645:7649   */\n  dup3\n    /* \"#utility.yul\":7638:7743   */\n  sstore\n    /* \"#utility.yul\":7556:7749   */\n  pop\n    /* \"#utility.yul\":7480:7749   */\n  pop\n  pop\n  pop\n  jump\t// out\n    /* \"#utility.yul\":7755:7828   */\ntag_48:\n    /* \"#utility.yul\":7800:7803   */\n  0x00\n    /* \"#utility.yul\":7755:7828   */\n  swap1\n  jump\t// out\n    /* \"#utility.yul\":7834:8023   */\ntag_49:\n    /* \"#utility.yul\":7911:7943   */\n  tag_144\n  tag_48\n  jump\t// in\ntag_144:\n    /* \"#utility.yul\":7952:8017   */\n  tag_145\n    /* \"#utility.yul\":8010:8016   */\n  dup2\n    /* \"#utility.yul\":8002:8008   */\n  dup5\n    /* \"#utility.yul\":7996:8000   */\n  dup5\n    /* \"#utility.yul\":7952:8017   */\n  tag_47\n  jump\t// in\ntag_145:\n    /* \"#utility.yul\":7887:8023   */\n  pop\n    /* \"#utility.yul\":7834:8023   */\n  pop\n  pop\n  jump\t// out\n    /* \"#utility.yul\":8029:8215   */\ntag_50:\n    /* \"#utility.yul\":8089:8209   */\ntag_147:\n    /* \"#utility.yul\":8106:8109   */\n  dup2\n    /* \"#utility.yul\":8099:8104   */\n  dup2\n    /* \"#utility.yul\":8096:8110   */\n  lt\n    /* \"#utility.yul\":8089:8209   */\n  iszero\n  tag_149\n  jumpi\n    /* \"#utility.yul\":8160:8199   */\n  tag_150\n    /* \"#utility.yul\":8197:8198   */\n  0x00\n    /* \"#utility.yul\":8190:8195   */\n  dup3\n    /* \"#utility.yul\":8160:8199   */\n  tag_49\n  jump\t// in\ntag_150:\n    /* \"#utility.yul\":8133:8134   */\n  0x01\n    /* \"#utility.yul\":8126:8131   */\n  dup2\n    /* \"#utility.yul\":8122:8135   */\n  add\n    /* \"#utility.yul\":8113:8135   */\n  swap1\n  pop\n    /* \"#utility.yul\":8089:8209   */\n  jump(tag_147)\ntag_149:\n    /* \"#utility.yul\":8029:8215   */\n  pop\n  pop\n  jump\t// out\n    /* \"#utility.yul\":8221:8764   */\ntag_51:\n    /* \"#utility.yul\":8322:8324   */\n  0x1f\n    /* \"#utility.yul\":8317:8320   */\n  dup3\n    /* \"#utility.yul\":8314:8325   */\n  gt\n    /* \"#utility.yul\":8311:8757   */\n  iszero\n  tag_152\n  jumpi\n    /* \"#utility.yul\":8356:8394   */\n  tag_153\n    /* \"#utility.yul\":8388:8393   */\n  dup2\n    /* \"#utility.yul\":8356:8394   */\n  tag_40\n  jump\t// in\ntag_153:\n    /* \"#utility.yul\":8440:8469   */\n  tag_154\n    /* \"#utility.yul\":8458:8468   */\n  dup5\n    /* \"#utility.yul\":8440:8469   */\n  tag_41\n  jump\t// in\ntag_154:\n    /* \"#utility.yul\":8430:8438   */\n  dup2\n    /* \"#utility.yul\":8426:8470   */\n  add\n    /* \"#utility.yul\":8623:8625   */\n  0x20\n    /* \"#utility.yul\":8611:8621   */\n  dup6\n    /* \"#utility.yul\":8608:8626   */\n  lt\n    /* \"#utility.yul\":8605:8654   */\n  iszero\n  tag_155\n  jumpi\n    /* \"#utility.yul\":8644:8652   */\n  dup2\n    /* \"#utility.yul\":8629:8652   */\n  swap1\n  pop\n    /* \"#utility.yul\":8605:8654   */\ntag_155:\n    /* \"#utility.yul\":8667:8747   */\n  tag_156\n    /* \"#utility.yul\":8723:8745   */\n  tag_157\n    /* \"#utility.yul\":8741:8744   */\n  dup6\n    /* \"#utility.yul\":8723:8745   */\n  tag_41\n  jump\t// in\ntag_157:\n    /* \"#utility.yul\":8713:8721   */\n  dup4\n    /* \"#utility.yul\":8709:8746   */\n  add\n    /* \"#utility.yul\":8696:8707   */\n  dup3\n    /* \"#utility.yul\":8667:8747   */\n  tag_50\n  jump\t// in\ntag_156:\n    /* \"#utility.yul\":8326:8757   */\n  pop\n  pop\n    /* \"#utility.yul\":8311:8757   */\ntag_152:\n    /* \"#utility.yul\":8221:8764   */\n  pop\n  pop\n  pop\n  jump\t// out\n    /* \"#utility.yul\":8770:8887   */\ntag_52:\n    /* \"#utility.yul\":8824:8832   */\n  0x00\n    /* \"#utility.yul\":8874:8879   */\n  dup3\n    /* \"#utility.yul\":8868:8872   */\n  dup3\n    /* \"#utility.yul\":8864:8880   */\n  shr\n    /* \"#utility.yul\":8843:8880   */\n  swap1\n  pop\n    /* \"#utility.yul\":8770:8887   */\n  swap3\n  swap2\n  pop\n  pop\n  jump\t// out\n    /* \"#utility.yul\":8893:9062   */\ntag_53:\n    /* \"#utility.yul\":8937:8943   */\n  0x00\n    /* \"#utility.yul\":8970:9021   */\n  tag_160\n    /* \"#utility.yul\":9018:9019   */\n  0x00\n    /* \"#utility.yul\":9014:9020   */\n  not\n    /* \"#utility.yul\":9006:9011   */\n  dup5\n    /* \"#utility.yul\":9003:9004   */\n  0x08\n    /* \"#utility.yul\":8999:9012   */\n  mul\n    /* \"#utility.yul\":8970:9021   */\n  tag_52\n  jump\t// in\ntag_160:\n    /* \"#utility.yul\":8966:9022   */\n  not\n    /* \"#utility.yul\":9051:9055   */\n  dup1\n    /* \"#utility.yul\":9045:9049   */\n  dup4\n    /* \"#utility.yul\":9041:9056   */\n  and\n    /* \"#utility.yul\":9031:9056   */\n  swap2\n  pop\n    /* \"#utility.yul\":8944:9062   */\n  pop\n    /* \"#utility.yul\":8893:9062   */\n  swap3\n  swap2\n  pop\n  pop\n  jump\t// out\n    /* \"#utility.yul\":9067:9362   */\ntag_54:\n    /* \"#utility.yul\":9143:9147   */\n  0x00\n    /* \"#utility.yul\":9289:9318   */\n  tag_162\n    /* \"#utility.yul\":9314:9317   */\n  dup4\n    /* \"#utility.yul\":9308:9312   */\n  dup4\n    /* \"#utility.yul\":9289:9318   */\n  tag_53\n  jump\t// in\ntag_162:\n    /* \"#utility.yul\":9281:9318   */\n  swap2\n  pop\n    /* \"#utility.yul\":9351:9354   */\n  dup3\n    /* \"#utility.yul\":9348:9349   */\n  0x02\n    /* \"#utility.yul\":9344:9355   */\n  mul\n    /* \"#utility.yul\":9338:9342   */\n  dup3\n    /* \"#utility.yul\":9335:9356   */\n  or\n    /* \"#utility.yul\":9327:9356   */\n  swap1\n  pop\n    /* \"#utility.yul\":9067:9362   */\n  swap3\n  swap2\n  pop\n  pop\n  jump\t// out\n    /* \"#utility.yul\":9367:10762   */\ntag_15:\n    /* \"#utility.yul\":9484:9521   */\n  tag_164\n    /* \"#utility.yul\":9517:9520   */\n  dup3\n    /* \"#utility.yul\":9484:9521   */\n  tag_37\n  jump\t// in\ntag_164:\n    /* \"#utility.yul\":9586:9604   */\n  0xffffffffffffffff\n    /* \"#utility.yul\":9578:9584   */\n  dup2\n    /* \"#utility.yul\":9575:9605   */\n  gt\n    /* \"#utility.yul\":9572:9628   */\n  iszero\n  tag_165\n  jumpi\n    /* \"#utility.yul\":9608:9626   */\n  tag_166\n  tag_23\n  jump\t// in\ntag_166:\n    /* \"#utility.yul\":9572:9628   */\ntag_165:\n    /* \"#utility.yul\":9652:9690   */\n  tag_167\n    /* \"#utility.yul\":9684:9688   */\n  dup3\n    /* \"#utility.yul\":9678:9689   */\n  sload\n    /* \"#utility.yul\":9652:9690   */\n  tag_39\n  jump\t// in\ntag_167:\n    /* \"#utility.yul\":9737:9804   */\n  tag_168\n    /* \"#utility.yul\":9797:9803   */\n  dup3\n    /* \"#utility.yul\":9789:9795   */\n  dup3\n    /* \"#utility.yul\":9783:9787   */\n  dup6\n    /* \"#utility.yul\":9737:9804   */\n  tag_51\n  jump\t// in\ntag_168:\n    /* \"#utility.yul\":9831:9832   */\n  0x00\n    /* \"#utility.yul\":9855:9859   */\n  0x20\n    /* \"#utility.yul\":9842:9859   */\n  swap1\n  pop\n    /* \"#utility.yul\":9887:9889   */\n  0x1f\n    /* \"#utility.yul\":9879:9885   */\n  dup4\n    /* \"#utility.yul\":9876:9890   */\n  gt\n    /* \"#utility.yul\":9904:9905   */\n  0x01\n    /* \"#utility.yul\":9899:10517   */\n  dup2\n  eq\n  tag_170\n  jumpi\n    /* \"#utility.yul\":10561:10562   */\n  0x00\n    /* \"#utility.yul\":10578:10584   */\n  dup5\n    /* \"#utility.yul\":10575:10652   */\n  iszero\n  tag_171\n  jumpi\n    /* \"#utility.yul\":10627:10636   */\n  dup3\n    /* \"#utility.yul\":10622:10625   */\n  dup8\n    /* \"#utility.yul\":10618:10637   */\n  add\n    /* \"#utility.yul\":10612:10638   */\n  mload\n    /* \"#utility.yul\":10603:10638   */\n  swap1\n  pop\n    /* \"#utility.yul\":10575:10652   */\ntag_171:\n    /* \"#utility.yul\":10678:10745   */\n  tag_172\n    /* \"#utility.yul\":10738:10744   */\n  dup6\n    /* \"#utility.yul\":10731:10736   */\n  dup3\n    /* \"#utility.yul\":10678:10745   */\n  tag_54\n  jump\t// in\ntag_172:\n    /* \"#utility.yul\":10672:10676   */\n  dup7\n    /* \"#utility.yul\":10665:10746   */\n  sstore\n    /* \"#utility.yul\":10534:10756   */\n  pop\n    /* \"#utility.yul\":9869:10756   */\n  jump(tag_169)\n    /* \"#utility.yul\":9899:10517   */\ntag_170:\n    /* \"#utility.yul\":9951:9955   */\n  0x1f\n    /* \"#utility.yul\":9947:9956   */\n  not\n    /* \"#utility.yul\":9939:9945   */\n  dup5\n    /* \"#utility.yul\":9935:9957   */\n  and\n    /* \"#utility.yul\":9985:10022   */\n  tag_173\n    /* \"#utility.yul\":10017:10021   */\n  dup7\n    /* \"#utility.yul\":9985:10022   */\n  tag_40\n  jump\t// in\ntag_173:\n    /* \"#utility.yul\":10044:10045   */\n  0x00\n    /* \"#utility.yul\":10058:10266   */\ntag_174:\n    /* \"#utility.yul\":10072:10079   */\n  dup3\n    /* \"#utility.yul\":10069:10070   */\n  dup2\n    /* \"#utility.yul\":10066:10080   */\n  lt\n    /* \"#utility.yul\":10058:10266   */\n  iszero\n  tag_176\n  jumpi\n    /* \"#utility.yul\":10151:10160   */\n  dup5\n    /* \"#utility.yul\":10146:10149   */\n  dup10\n    /* \"#utility.yul\":10142:10161   */\n  add\n    /* \"#utility.yul\":10136:10162   */\n  mload\n    /* \"#utility.yul\":10128:10134   */\n  dup3\n    /* \"#utility.yul\":10121:10163   */\n  sstore\n    /* \"#utility.yul\":10202:10203   */\n  0x01\n    /* \"#utility.yul\":10194:10200   */\n  dup3\n    /* \"#utility.yul\":10190:10204   */\n  add\n    /* \"#utility.yul\":10180:10204   */\n  swap2\n  pop\n    /* \"#utility.yul\":10249:10251   */\n  0x20\n    /* \"#utility.yul\":10238:10247   */\n  dup6\n    /* \"#utility.yul\":10234:10252   */\n  add\n    /* \"#utility.yul\":10221:10252   */\n  swap5\n  pop\n    /* \"#utility.yul\":10095:10099   */\n  0x20\n    /* \"#utility.yul\":10092:10093   */\n  dup2\n    /* \"#utility.yul\":10088:10100   */\n  add\n    /* \"#utility.yul\":10083:10100   */\n  swap1\n  pop\n    /* \"#utility.yul\":10058:10266   */\n  jump(tag_174)\ntag_176:\n    /* \"#utility.yul\":10294:10300   */\n  dup7\n    /* \"#utility.yul\":10285:10292   */\n  dup4\n    /* \"#utility.yul\":10282:10301   */\n  lt\n    /* \"#utility.yul\":10279:10458   */\n  iszero\n  tag_177\n  jumpi\n    /* \"#utility.yul\":10352:10361   */\n  dup5\n    /* \"#utility.yul\":10347:10350   */\n  dup10\n    /* \"#utility.yul\":10343:10362   */\n  add\n    /* \"#utility.yul\":10337:10363   */\n  mload\n    /* \"#utility.yul\":10395:10443   */\n  tag_178\n    /* \"#utility.yul\":10437:10441   */\n  0x1f\n    /* \"#utility.yul\":10429:10435   */\n  dup10\n    /* \"#utility.yul\":10425:10442   */\n  and\n    /* \"#utility.yul\":10414:10423   */\n  dup3\n    /* \"#utility.yul\":10395:10443   */\n  tag_53\n  jump\t// in\ntag_178:\n    /* \"#utility.yul\":10387:10393   */\n  dup4\n    /* \"#utility.yul\":10380:10444   */\n  sstore\n    /* \"#utility.yul\":10302:10458   */\n  pop\n    /* \"#utility.yul\":10279:10458   */\ntag_177:\n    /* \"#utility.yul\":10504:10505   */\n  0x01\n    /* \"#utility.yul\":10500:10501   */\n  0x02\n    /* \"#utility.yul\":10492:10498   */\n  dup9\n    /* \"#utility.yul\":10488:10502   */\n  mul\n    /* \"#utility.yul\":10484:10506   */\n  add\n    /* \"#utility.yul\":10478:10482   */\n  dup9\n    /* \"#utility.yul\":10471:10507   */\n  sstore\n    /* \"#utility.yul\":9906:10517   */\n  pop\n  pop\n  pop\n    /* \"#utility.yul\":9869:10756   */\ntag_169:\n  pop\n    /* \"#utility.yul\":9459:10762   */\n  pop\n  pop\n  pop\n    /* \"#utility.yul\":9367:10762   */\n  pop\n  pop\n  jump\t// out\n    /* \"voting_dapp.sol\":60:1595  contract VotingSystem {... */\ntag_17:\n  dataSize(sub_0)\n  dup1\n  dataOffset(sub_0)\n  0x00\n  codecopy\n  0x00\n  return\nstop\n\nsub_0: assembly {\n        /* \"voting_dapp.sol\":60:1595  contract VotingSystem {... */\n      mstore(0x40, 0x80)\n      callvalue\n      dup1\n      iszero\n      tag_1\n      jumpi\n      0x00\n      dup1\n      revert\n    tag_1:\n      pop\n      jumpi(tag_2, lt(calldatasize, 0x04))\n      shr(0xe0, calldataload(0x00))\n      dup1\n      0x8da5cb5b\n      gt\n      tag_11\n      jumpi\n      dup1\n      0x8da5cb5b\n      eq\n      tag_7\n      jumpi\n      dup1\n      0x8e7ea5b2\n      eq\n      tag_8\n      jumpi\n      dup1\n      0xcdd72253\n      eq\n      tag_9\n      jumpi\n      dup1\n      0xda58c7d9\n      eq\n      tag_10\n      jumpi\n      jump(tag_2)\n    tag_11:\n      dup1\n      0x0121b93f\n      eq\n      tag_3\n      jumpi\n      dup1\n      0x09eef43e\n      eq\n      tag_4\n      jumpi\n      dup1\n      0x2d35a8a2\n      eq\n      tag_5\n      jumpi\n      dup1\n      0x3477ee2e\n      eq\n      tag_6\n      jumpi\n    tag_2:\n      0x00\n      dup1\n      revert\n        /* \"voting_dapp.sol\":711:1032  function vote(uint _candidateId) public {... */\n    tag_3:\n      tag_12\n      0x04\n      dup1\n      calldatasize\n      sub\n      dup2\n      add\n      swap1\n      tag_13\n      swap2\n      swap1\n      tag_14\n      jump\t// in\n    tag_13:\n      tag_15\n      jump\t// in\n    tag_12:\n      stop\n        /* \"voting_dapp.sol\":240:280  mapping(address => bool) public hasVoted */\n    tag_4:\n      tag_16\n      0x04\n      dup1\n      calldatasize\n      sub\n      dup2\n      add\n      swap1\n      tag_17\n      swap2\n      swap1\n      tag_18\n      jump\t// in\n    tag_17:\n      tag_19\n      jump\t// in\n    tag_16:\n      mload(0x40)\n      tag_20\n      swap2\n      swap1\n      tag_21\n      jump\t// in\n    tag_20:\n      mload(0x40)\n      dup1\n      swap2\n      sub\n      swap1\n      return\n        /* \"voting_dapp.sol\":319:346  uint public candidatesCount */\n    tag_5:\n      tag_22\n      tag_23\n      jump\t// in\n    tag_22:\n      mload(0x40)\n      tag_24\n      swap2\n      swap1\n      tag_25\n      jump\t// in\n    tag_24:\n      mload(0x40)\n      dup1\n      swap2\n      sub\n      swap1\n      return\n        /* \"voting_dapp.sol\":189:233  mapping(uint => Candidate) public candidates */\n    tag_6:\n      tag_26\n      0x04\n      dup1\n      calldatasize\n      sub\n      dup2\n      add\n      swap1\n      tag_27\n      swap2\n      swap1\n      tag_14\n      jump\t// in\n    tag_27:\n      tag_28\n      jump\t// in\n    tag_26:\n      mload(0x40)\n      tag_29\n      swap4\n      swap3\n      swap2\n      swap1\n      tag_30\n      jump\t// in\n    tag_29:\n      mload(0x40)\n      dup1\n      swap2\n      sub\n      swap1\n      return\n        /* \"voting_dapp.sol\":353:373  address public owner */\n    tag_7:\n      tag_31\n      tag_32\n      jump\t// in\n    tag_31:\n      mload(0x40)\n      tag_33\n      swap2\n      swap1\n      tag_34\n      jump\t// in\n    tag_33:\n      mload(0x40)\n      dup1\n      swap2\n      sub\n      swap1\n      return\n        /* \"voting_dapp.sol\":1040:1492  function getWinner() public view returns (string memory winnerName, uint winnerVotes) {... */\n    tag_8:\n      tag_35\n      tag_36\n      jump\t// in\n    tag_35:\n      mload(0x40)\n      tag_37\n      swap3\n      swap2\n      swap1\n      tag_38\n      jump\t// in\n    tag_37:\n      mload(0x40)\n      dup1\n      swap2\n      sub\n      swap1\n      return\n        /* \"voting_dapp.sol\":1500:1592  function getVoters() public view returns (address[] memory) {... */\n    tag_9:\n      tag_39\n      tag_40\n      jump\t// in\n    tag_39:\n      mload(0x40)\n      tag_41\n      swap2\n      swap1\n      tag_42\n      jump\t// in\n    tag_41:\n      mload(0x40)\n      dup1\n      swap2\n      sub\n      swap1\n      return\n        /* \"voting_dapp.sol\":289:312  address[] public voters */\n    tag_10:\n      tag_43\n      0x04\n      dup1\n      calldatasize\n      sub\n      dup2\n      add\n      swap1\n      tag_44\n      swap2\n      swap1\n      tag_14\n      jump\t// in\n    tag_44:\n      tag_45\n      jump\t// in\n    tag_43:\n      mload(0x40)\n      tag_46\n      swap2\n      swap1\n      tag_34\n      jump\t// in\n    tag_46:\n      mload(0x40)\n      dup1\n      swap2\n      sub\n      swap1\n      return\n        /* \"voting_dapp.sol\":711:1032  function vote(uint _candidateId) public {... */\n    tag_15:\n        /* \"voting_dapp.sol\":771:779  hasVoted */\n      0x01\n        /* \"voting_dapp.sol\":771:791  hasVoted[msg.sender] */\n      0x00\n        /* \"voting_dapp.sol\":780:790  msg.sender */\n      caller\n        /* \"voting_dapp.sol\":771:791  hasVoted[msg.sender] */\n      0xffffffffffffffffffffffffffffffffffffffff\n      and\n      0xffffffffffffffffffffffffffffffffffffffff\n      and\n      dup2\n      mstore\n      0x20\n      add\n      swap1\n      dup2\n      mstore\n      0x20\n      add\n      0x00\n      keccak256\n      0x00\n      swap1\n      sload\n      swap1\n      0x0100\n      exp\n      swap1\n      div\n      0xff\n      and\n        /* \"voting_dapp.sol\":770:791  !hasVoted[msg.sender] */\n      iszero\n        /* \"voting_dapp.sol\":762:809  require(!hasVoted[msg.sender], \"Already voted\") */\n      tag_48\n      jumpi\n      mload(0x40)\n      0x08c379a000000000000000000000000000000000000000000000000000000000\n      dup2\n      mstore\n      0x04\n      add\n      tag_49\n      swap1\n      tag_50\n      jump\t// in\n    tag_49:\n      mload(0x40)\n      dup1\n      swap2\n      sub\n      swap1\n      revert\n    tag_48:\n        /* \"voting_dapp.sol\":843:844  0 */\n      0x00\n        /* \"voting_dapp.sol\":828:840  _candidateId */\n      dup2\n        /* \"voting_dapp.sol\":828:844  _candidateId > 0 */\n      gt\n        /* \"voting_dapp.sol\":828:879  _candidateId > 0 && _candidateId <= candidatesCount */\n      dup1\n      iszero\n      tag_51\n      jumpi\n      pop\n        /* \"voting_dapp.sol\":864:879  candidatesCount */\n      sload(0x03)\n        /* \"voting_dapp.sol\":848:860  _candidateId */\n      dup2\n        /* \"voting_dapp.sol\":848:879  _candidateId <= candidatesCount */\n      gt\n      iszero\n        /* \"voting_dapp.sol\":828:879  _candidateId > 0 && _candidateId <= candidatesCount */\n    tag_51:\n        /* \"voting_dapp.sol\":820:901  require(_candidateId > 0 && _candidateId <= candidatesCount, \"Invalid candidate\") */\n      tag_52\n      jumpi\n      mload(0x40)\n      0x08c379a000000000000000000000000000000000000000000000000000000000\n      dup2\n      mstore\n      0x04\n      add\n      tag_53\n      swap1\n      tag_54\n      jump\t// in\n    tag_53:\n      mload(0x40)\n      dup1\n      swap2\n      sub\n      swap1\n      revert\n    tag_52:\n        /* \"voting_dapp.sol\":937:941  true */\n      0x01\n        /* \"voting_dapp.sol\":914:922  hasVoted */\n      dup1\n        /* \"voting_dapp.sol\":914:934  hasVoted[msg.sender] */\n      0x00\n        /* \"voting_dapp.sol\":923:933  msg.sender */\n      caller\n        /* \"voting_dapp.sol\":914:934  hasVoted[msg.sender] */\n      0xffffffffffffffffffffffffffffffffffffffff\n      and\n      0xffffffffffffffffffffffffffffffffffffffff\n      and\n      dup2\n      mstore\n      0x20\n      add\n      swap1\n      dup2\n      mstore\n      0x20\n      add\n      0x00\n      keccak256\n      0x00\n        /* \"voting_dapp.sol\":914:941  hasVoted[msg.sender] = true */\n      0x0100\n      exp\n      dup2\n      sload\n      dup2\n      0xff\n      mul\n      not\n      and\n      swap1\n      dup4\n      iszero\n      iszero\n      mul\n      or\n      swap1\n      sstore\n      pop\n        /* \"voting_dapp.sol\":952:958  voters */\n      0x02\n        /* \"voting_dapp.sol\":964:974  msg.sender */\n      caller\n        /* \"voting_dapp.sol\":952:975  voters.push(msg.sender) */\n      swap1\n      dup1\n      0x01\n      dup2\n      sload\n      add\n      dup1\n      dup3\n      sstore\n      dup1\n      swap2\n      pop\n      pop\n      0x01\n      swap1\n      sub\n      swap1\n      0x00\n      mstore\n      keccak256(0x00, 0x20)\n      add\n      0x00\n      swap1\n      swap2\n      swap1\n      swap2\n      swap1\n      swap2\n      0x0100\n      exp\n      dup2\n      sload\n      dup2\n      0xffffffffffffffffffffffffffffffffffffffff\n      mul\n      not\n      and\n      swap1\n      dup4\n      0xffffffffffffffffffffffffffffffffffffffff\n      and\n      mul\n      or\n      swap1\n      sstore\n      pop\n        /* \"voting_dapp.sol\":988:998  candidates */\n      0x00\n        /* \"voting_dapp.sol\":988:1012  candidates[_candidateId] */\n      dup1\n        /* \"voting_dapp.sol\":999:1011  _candidateId */\n      dup3\n        /* \"voting_dapp.sol\":988:1012  candidates[_candidateId] */\n      dup2\n      mstore\n      0x20\n      add\n      swap1\n      dup2\n      mstore\n      0x20\n      add\n      0x00\n      keccak256\n        /* \"voting_dapp.sol\":988:1022  candidates[_candidateId].voteCount */\n      0x02\n      add\n      0x00\n        /* \"voting_dapp.sol\":988:1024  candidates[_candidateId].voteCount++ */\n      dup2\n      sload\n      dup1\n      swap3\n      swap2\n      swap1\n      tag_56\n      swap1\n      tag_57\n      jump\t// in\n    tag_56:\n      swap2\n      swap1\n      pop\n      sstore\n      pop\n        /* \"voting_dapp.sol\":711:1032  function vote(uint _candidateId) public {... */\n      pop\n      jump\t// out\n        /* \"voting_dapp.sol\":240:280  mapping(address => bool) public hasVoted */\n    tag_19:\n      mstore(0x20, 0x01)\n      dup1\n      0x00\n      mstore\n      keccak256(0x00, 0x40)\n      0x00\n      swap2\n      pop\n      sload\n      swap1\n      0x0100\n      exp\n      swap1\n      div\n      0xff\n      and\n      dup2\n      jump\t// out\n        /* \"voting_dapp.sol\":319:346  uint public candidatesCount */\n    tag_23:\n      sload(0x03)\n      dup2\n      jump\t// out\n        /* \"voting_dapp.sol\":189:233  mapping(uint => Candidate) public candidates */\n    tag_28:\n      mstore(0x20, 0x00)\n      dup1\n      0x00\n      mstore\n      keccak256(0x00, 0x40)\n      0x00\n      swap2\n      pop\n      swap1\n      pop\n      dup1\n      0x00\n      add\n      sload\n      swap1\n      dup1\n      0x01\n      add\n      dup1\n      sload\n      tag_58\n      swap1\n      tag_59\n      jump\t// in\n    tag_58:\n      dup1\n      0x1f\n      add\n      0x20\n      dup1\n      swap2\n      div\n      mul\n      0x20\n      add\n      mload(0x40)\n      swap1\n      dup2\n      add\n      0x40\n      mstore\n      dup1\n      swap3\n      swap2\n      swap1\n      dup2\n      dup2\n      mstore\n      0x20\n      add\n      dup3\n      dup1\n      sload\n      tag_60\n      swap1\n      tag_59\n      jump\t// in\n    tag_60:\n      dup1\n      iszero\n      tag_61\n      jumpi\n      dup1\n      0x1f\n      lt\n      tag_62\n      jumpi\n      0x0100\n      dup1\n      dup4\n      sload\n      div\n      mul\n      dup4\n      mstore\n      swap2\n      0x20\n      add\n      swap2\n      jump(tag_61)\n    tag_62:\n      dup3\n      add\n      swap2\n      swap1\n      0x00\n      mstore\n      keccak256(0x00, 0x20)\n      swap1\n    tag_63:\n      dup2\n      sload\n      dup2\n      mstore\n      swap1\n      0x01\n      add\n      swap1\n      0x20\n      add\n      dup1\n      dup4\n      gt\n      tag_63\n      jumpi\n      dup3\n      swap1\n      sub\n      0x1f\n      and\n      dup3\n      add\n      swap2\n    tag_61:\n      pop\n      pop\n      pop\n      pop\n      pop\n      swap1\n      dup1\n      0x02\n      add\n      sload\n      swap1\n      pop\n      dup4\n      jump\t// out\n        /* \"voting_dapp.sol\":353:373  address public owner */\n    tag_32:\n      0x04\n      0x00\n      swap1\n      sload\n      swap1\n      0x0100\n      exp\n      swap1\n      div\n      0xffffffffffffffffffffffffffffffffffffffff\n      and\n      dup2\n      jump\t// out\n        /* \"voting_dapp.sol\":1040:1492  function getWinner() public view returns (string memory winnerName, uint winnerVotes) {... */\n    tag_36:\n        /* \"voting_dapp.sol\":1082:1106  string memory winnerName */\n      0x60\n        /* \"voting_dapp.sol\":1108:1124  uint winnerVotes */\n      0x00\n        /* \"voting_dapp.sol\":1137:1149  uint highest */\n      dup1\n        /* \"voting_dapp.sol\":1152:1153  0 */\n      0x00\n        /* \"voting_dapp.sol\":1137:1153  uint highest = 0 */\n      swap1\n      pop\n        /* \"voting_dapp.sol\":1164:1177  uint winnerId */\n      0x00\n        /* \"voting_dapp.sol\":1199:1205  uint i */\n      dup1\n        /* \"voting_dapp.sol\":1208:1209  1 */\n      0x01\n        /* \"voting_dapp.sol\":1199:1209  uint i = 1 */\n      swap1\n      pop\n        /* \"voting_dapp.sol\":1194:1402  for (uint i = 1; i <= candidatesCount; i++) {... */\n    tag_65:\n        /* \"voting_dapp.sol\":1216:1231  candidatesCount */\n      sload(0x03)\n        /* \"voting_dapp.sol\":1211:1212  i */\n      dup2\n        /* \"voting_dapp.sol\":1211:1231  i <= candidatesCount */\n      gt\n        /* \"voting_dapp.sol\":1194:1402  for (uint i = 1; i <= candidatesCount; i++) {... */\n      tag_66\n      jumpi\n        /* \"voting_dapp.sol\":1283:1290  highest */\n      dup3\n        /* \"voting_dapp.sol\":1257:1267  candidates */\n      0x00\n        /* \"voting_dapp.sol\":1257:1270  candidates[i] */\n      dup1\n        /* \"voting_dapp.sol\":1268:1269  i */\n      dup4\n        /* \"voting_dapp.sol\":1257:1270  candidates[i] */\n      dup2\n      mstore\n      0x20\n      add\n      swap1\n      dup2\n      mstore\n      0x20\n      add\n      0x00\n      keccak256\n        /* \"voting_dapp.sol\":1257:1280  candidates[i].voteCount */\n      0x02\n      add\n      sload\n        /* \"voting_dapp.sol\":1257:1290  candidates[i].voteCount > highest */\n      gt\n        /* \"voting_dapp.sol\":1253:1391  if (candidates[i].voteCount > highest) {... */\n      iszero\n      tag_68\n      jumpi\n        /* \"voting_dapp.sol\":1321:1331  candidates */\n      0x00\n        /* \"voting_dapp.sol\":1321:1334  candidates[i] */\n      dup1\n        /* \"voting_dapp.sol\":1332:1333  i */\n      dup3\n        /* \"voting_dapp.sol\":1321:1334  candidates[i] */\n      dup2\n      mstore\n      0x20\n      add\n      swap1\n      dup2\n      mstore\n      0x20\n      add\n      0x00\n      keccak256\n        /* \"voting_dapp.sol\":1321:1344  candidates[i].voteCount */\n      0x02\n      add\n      sload\n        /* \"voting_dapp.sol\":1311:1344  highest = candidates[i].voteCount */\n      swap3\n      pop\n        /* \"voting_dapp.sol\":1374:1375  i */\n      dup1\n        /* \"voting_dapp.sol\":1363:1375  winnerId = i */\n      swap2\n      pop\n        /* \"voting_dapp.sol\":1253:1391  if (candidates[i].voteCount > highest) {... */\n    tag_68:\n        /* \"voting_dapp.sol\":1233:1236  i++ */\n      dup1\n      dup1\n      tag_69\n      swap1\n      tag_57\n      jump\t// in\n    tag_69:\n      swap2\n      pop\n      pop\n        /* \"voting_dapp.sol\":1194:1402  for (uint i = 1; i <= candidatesCount; i++) {... */\n      jump(tag_65)\n    tag_66:\n      pop\n        /* \"voting_dapp.sol\":1427:1437  candidates */\n      0x00\n        /* \"voting_dapp.sol\":1427:1447  candidates[winnerId] */\n      dup1\n        /* \"voting_dapp.sol\":1438:1446  winnerId */\n      dup3\n        /* \"voting_dapp.sol\":1427:1447  candidates[winnerId] */\n      dup2\n      mstore\n      0x20\n      add\n      swap1\n      dup2\n      mstore\n      0x20\n      add\n      0x00\n      keccak256\n        /* \"voting_dapp.sol\":1427:1452  candidates[winnerId].name */\n      0x01\n      add\n        /* \"voting_dapp.sol\":1414:1452  winnerName = candidates[winnerId].name */\n      dup1\n      sload\n      tag_70\n      swap1\n      tag_59\n      jump\t// in\n    tag_70:\n      dup1\n      0x1f\n      add\n      0x20\n      dup1\n      swap2\n      div\n      mul\n      0x20\n      add\n      mload(0x40)\n      swap1\n      dup2\n      add\n      0x40\n      mstore\n      dup1\n      swap3\n      swap2\n      swap1\n      dup2\n      dup2\n      mstore\n      0x20\n      add\n      dup3\n      dup1\n      sload\n      tag_71\n      swap1\n      tag_59\n      jump\t// in\n    tag_71:\n      dup1\n      iszero\n      tag_72\n      jumpi\n      dup1\n      0x1f\n      lt\n      tag_73\n      jumpi\n      0x0100\n      dup1\n      dup4\n      sload\n      div\n      mul\n      dup4\n      mstore\n      swap2\n      0x20\n      add\n      swap2\n      jump(tag_72)\n    tag_73:\n      dup3\n      add\n      swap2\n      swap1\n      0x00\n      mstore\n      keccak256(0x00, 0x20)\n      swap1\n    tag_74:\n      dup2\n      sload\n      dup2\n      mstore\n      swap1\n      0x01\n      add\n      swap1\n      0x20\n      add\n      dup1\n      dup4\n      gt\n      tag_74\n      jumpi\n      dup3\n      swap1\n      sub\n      0x1f\n      and\n      dup3\n      add\n      swap2\n    tag_72:\n      pop\n      pop\n      pop\n      pop\n      pop\n      swap4\n      pop\n        /* \"voting_dapp.sol\":1477:1484  highest */\n      dup2\n        /* \"voting_dapp.sol\":1463:1484  winnerVotes = highest */\n      swap3\n      pop\n        /* \"voting_dapp.sol\":1126:1492  {... */\n      pop\n      pop\n        /* \"voting_dapp.sol\":1040:1492  function getWinner() public view returns (string memory winnerName, uint winnerVotes) {... */\n      swap1\n      swap2\n      jump\t// out\n        /* \"voting_dapp.sol\":1500:1592  function getVoters() public view returns (address[] memory) {... */\n    tag_40:\n        /* \"voting_dapp.sol\":1542:1558  address[] memory */\n      0x60\n        /* \"voting_dapp.sol\":1578:1584  voters */\n      0x02\n        /* \"voting_dapp.sol\":1571:1584  return voters */\n      dup1\n      sload\n      dup1\n      0x20\n      mul\n      0x20\n      add\n      mload(0x40)\n      swap1\n      dup2\n      add\n      0x40\n      mstore\n      dup1\n      swap3\n      swap2\n      swap1\n      dup2\n      dup2\n      mstore\n      0x20\n      add\n      dup3\n      dup1\n      sload\n      dup1\n      iszero\n      tag_76\n      jumpi\n      0x20\n      mul\n      dup3\n      add\n      swap2\n      swap1\n      0x00\n      mstore\n      keccak256(0x00, 0x20)\n      swap1\n    tag_77:\n      dup2\n      0x00\n      swap1\n      sload\n      swap1\n      0x0100\n      exp\n      swap1\n      div\n      0xffffffffffffffffffffffffffffffffffffffff\n      and\n      0xffffffffffffffffffffffffffffffffffffffff\n      and\n      dup2\n      mstore\n      0x20\n      add\n      swap1\n      0x01\n      add\n      swap1\n      dup1\n      dup4\n      gt\n      tag_77\n      jumpi\n    tag_76:\n      pop\n      pop\n      pop\n      pop\n      pop\n      swap1\n      pop\n        /* \"voting_dapp.sol\":1500:1592  function getVoters() public view returns (address[] memory) {... */\n      swap1\n      jump\t// out\n        /* \"voting_dapp.sol\":289:312  address[] public voters */\n    tag_45:\n      0x02\n      dup2\n      dup2\n      sload\n      dup2\n      lt\n      tag_78\n      jumpi\n      0x00\n      dup1\n      revert\n    tag_78:\n      swap1\n      0x00\n      mstore\n      keccak256(0x00, 0x20)\n      add\n      0x00\n      swap2\n      pop\n      sload\n      swap1\n      0x0100\n      exp\n      swap1\n      div\n      0xffffffffffffffffffffffffffffffffffffffff\n      and\n      dup2\n      jump\t// out\n        /* \"#utility.yul\":88:205   */\n    tag_81:\n        /* \"#utility.yul\":197:198   */\n      0x00\n        /* \"#utility.yul\":194:195   */\n      dup1\n        /* \"#utility.yul\":187:199   */\n      revert\n        /* \"#utility.yul\":334:411   */\n    tag_83:\n        /* \"#utility.yul\":371:378   */\n      0x00\n        /* \"#utility.yul\":400:405   */\n      dup2\n        /* \"#utility.yul\":389:405   */\n      swap1\n      pop\n        /* \"#utility.yul\":334:411   */\n      swap2\n      swap1\n      pop\n      jump\t// out\n        /* \"#utility.yul\":417:539   */\n    tag_84:\n        /* \"#utility.yul\":490:514   */\n      tag_118\n        /* \"#utility.yul\":508:513   */\n      dup2\n        /* \"#utility.yul\":490:514   */\n      tag_83\n      jump\t// in\n    tag_118:\n        /* \"#utility.yul\":483:488   */\n      dup2\n        /* \"#utility.yul\":480:515   */\n      eq\n        /* \"#utility.yul\":470:533   */\n      tag_119\n      jumpi\n        /* \"#utility.yul\":529:530   */\n      0x00\n        /* \"#utility.yul\":526:527   */\n      dup1\n        /* \"#utility.yul\":519:531   */\n      revert\n        /* \"#utility.yul\":470:533   */\n    tag_119:\n        /* \"#utility.yul\":417:539   */\n      pop\n      jump\t// out\n        /* \"#utility.yul\":545:684   */\n    tag_85:\n        /* \"#utility.yul\":591:596   */\n      0x00\n        /* \"#utility.yul\":629:635   */\n      dup2\n        /* \"#utility.yul\":616:636   */\n      calldataload\n        /* \"#utility.yul\":607:636   */\n      swap1\n      pop\n        /* \"#utility.yul\":645:678   */\n      tag_121\n        /* \"#utility.yul\":672:677   */\n      dup2\n        /* \"#utility.yul\":645:678   */\n      tag_84\n      jump\t// in\n    tag_121:\n        /* \"#utility.yul\":545:684   */\n      swap3\n      swap2\n      pop\n      pop\n      jump\t// out\n        /* \"#utility.yul\":690:1019   */\n    tag_14:\n        /* \"#utility.yul\":749:755   */\n      0x00\n        /* \"#utility.yul\":798:800   */\n      0x20\n        /* \"#utility.yul\":786:795   */\n      dup3\n        /* \"#utility.yul\":777:784   */\n      dup5\n        /* \"#utility.yul\":773:796   */\n      sub\n        /* \"#utility.yul\":769:801   */\n      slt\n        /* \"#utility.yul\":766:885   */\n      iszero\n      tag_123\n      jumpi\n        /* \"#utility.yul\":804:883   */\n      tag_124\n      tag_81\n      jump\t// in\n    tag_124:\n        /* \"#utility.yul\":766:885   */\n    tag_123:\n        /* \"#utility.yul\":924:925   */\n      0x00\n        /* \"#utility.yul\":949:1002   */\n      tag_125\n        /* \"#utility.yul\":994:1001   */\n      dup5\n        /* \"#utility.yul\":985:991   */\n      dup3\n        /* \"#utility.yul\":974:983   */\n      dup6\n        /* \"#utility.yul\":970:992   */\n      add\n        /* \"#utility.yul\":949:1002   */\n      tag_85\n      jump\t// in\n    tag_125:\n        /* \"#utility.yul\":939:1002   */\n      swap2\n      pop\n        /* \"#utility.yul\":895:1012   */\n      pop\n        /* \"#utility.yul\":690:1019   */\n      swap3\n      swap2\n      pop\n      pop\n      jump\t// out\n        /* \"#utility.yul\":1025:1151   */\n    tag_86:\n        /* \"#utility.yul\":1062:1069   */\n      0x00\n        /* \"#utility.yul\":1102:1144   */\n      0xffffffffffffffffffffffffffffffffffffffff\n        /* \"#utility.yul\":1095:1100   */\n      dup3\n        /* \"#utility.yul\":1091:1145   */\n      and\n        /* \"#utility.yul\":1080:1145   */\n      swap1\n      pop\n        /* \"#utility.yul\":1025:1151   */\n      swap2\n      swap1\n      pop\n      jump\t// out\n        /* \"#utility.yul\":1157:1253   */\n    tag_87:\n        /* \"#utility.yul\":1194:1201   */\n      0x00\n        /* \"#utility.yul\":1223:1247   */\n      tag_128\n        /* \"#utility.yul\":1241:1246   */\n      dup3\n        /* \"#utility.yul\":1223:1247   */\n      tag_86\n      jump\t// in\n    tag_128:\n        /* \"#utility.yul\":1212:1247   */\n      swap1\n      pop\n        /* \"#utility.yul\":1157:1253   */\n      swap2\n      swap1\n      pop\n      jump\t// out\n        /* \"#utility.yul\":1259:1381   */\n    tag_88:\n        /* \"#utility.yul\":1332:1356   */\n      tag_130\n        /* \"#utility.yul\":1350:1355   */\n      dup2\n        /* \"#utility.yul\":1332:1356   */\n      tag_87\n      jump\t// in\n    tag_130:\n        /* \"#utility.yul\":1325:1330   */\n      dup2\n        /* \"#utility.yul\":1322:1357   */\n      eq\n        /* \"#utility.yul\":1312:1375   */\n      tag_131\n      jumpi\n        /* \"#utility.yul\":1371:1372   */\n      0x00\n        /* \"#utility.yul\":1368:1369   */\n      dup1\n        /* \"#utility.yul\":1361:1373   */\n      revert\n        /* \"#utility.yul\":1312:1375   */\n    tag_131:\n        /* \"#utility.yul\":1259:1381   */\n      pop\n      jump\t// out\n        /* \"#utility.yul\":1387:1526   */\n    tag_89:\n        /* \"#utility.yul\":1433:1438   */\n      0x00\n        /* \"#utility.yul\":1471:1477   */\n      dup2\n        /* \"#utility.yul\":1458:1478   */\n      calldataload\n        /* \"#utility.yul\":1449:1478   */\n      swap1\n      pop\n        /* \"#utility.yul\":1487:1520   */\n      tag_133\n        /* \"#utility.yul\":1514:1519   */\n      dup2\n        /* \"#utility.yul\":1487:1520   */\n      tag_88\n      jump\t// in\n    tag_133:\n        /* \"#utility.yul\":1387:1526   */\n      swap3\n      swap2\n      pop\n      pop\n      jump\t// out\n        /* \"#utility.yul\":1532:1861   */\n    tag_18:\n        /* \"#utility.yul\":1591:1597   */\n      0x00\n        /* \"#utility.yul\":1640:1642   */\n      0x20\n        /* \"#utility.yul\":1628:1637   */\n      dup3\n        /* \"#utility.yul\":1619:1626   */\n      dup5\n        /* \"#utility.yul\":1615:1638   */\n      sub\n        /* \"#utility.yul\":1611:1643   */\n      slt\n        /* \"#utility.yul\":1608:1727   */\n      iszero\n      tag_135\n      jumpi\n        /* \"#utility.yul\":1646:1725   */\n      tag_136\n      tag_81\n      jump\t// in\n    tag_136:\n        /* \"#utility.yul\":1608:1727   */\n    tag_135:\n        /* \"#utility.yul\":1766:1767   */\n      0x00\n        /* \"#utility.yul\":1791:1844   */\n      tag_137\n        /* \"#utility.yul\":1836:1843   */\n      dup5\n        /* \"#utility.yul\":1827:1833   */\n      dup3\n        /* \"#utility.yul\":1816:1825   */\n      dup6\n        /* \"#utility.yul\":1812:1834   */\n      add\n        /* \"#utility.yul\":1791:1844   */\n      tag_89\n      jump\t// in\n    tag_137:\n        /* \"#utility.yul\":1781:1844   */\n      swap2\n      pop\n        /* \"#utility.yul\":1737:1854   */\n      pop\n        /* \"#utility.yul\":1532:1861   */\n      swap3\n      swap2\n      pop\n      pop\n      jump\t// out\n        /* \"#utility.yul\":1867:1957   */\n    tag_90:\n        /* \"#utility.yul\":1901:1908   */\n      0x00\n        /* \"#utility.yul\":1944:1949   */\n      dup2\n        /* \"#utility.yul\":1937:1950   */\n      iszero\n        /* \"#utility.yul\":1930:1951   */\n      iszero\n        /* \"#utility.yul\":1919:1951   */\n      swap1\n      pop\n        /* \"#utility.yul\":1867:1957   */\n      swap2\n      swap1\n      pop\n      jump\t// out\n        /* \"#utility.yul\":1963:2072   */\n    tag_91:\n        /* \"#utility.yul\":2044:2065   */\n      tag_140\n        /* \"#utility.yul\":2059:2064   */\n      dup2\n        /* \"#utility.yul\":2044:2065   */\n      tag_90\n      jump\t// in\n    tag_140:\n        /* \"#utility.yul\":2039:2042   */\n      dup3\n        /* \"#utility.yul\":2032:2066   */\n      mstore\n        /* \"#utility.yul\":1963:2072   */\n      pop\n      pop\n      jump\t// out\n        /* \"#utility.yul\":2078:2288   */\n    tag_21:\n        /* \"#utility.yul\":2165:2169   */\n      0x00\n        /* \"#utility.yul\":2203:2205   */\n      0x20\n        /* \"#utility.yul\":2192:2201   */\n      dup3\n        /* \"#utility.yul\":2188:2206   */\n      add\n        /* \"#utility.yul\":2180:2206   */\n      swap1\n      pop\n        /* \"#utility.yul\":2216:2281   */\n      tag_142\n        /* \"#utility.yul\":2278:2279   */\n      0x00\n        /* \"#utility.yul\":2267:2276   */\n      dup4\n        /* \"#utility.yul\":2263:2280   */\n      add\n        /* \"#utility.yul\":2254:2260   */\n      dup5\n        /* \"#utility.yul\":2216:2281   */\n      tag_91\n      jump\t// in\n    tag_142:\n        /* \"#utility.yul\":2078:2288   */\n      swap3\n      swap2\n      pop\n      pop\n      jump\t// out\n        /* \"#utility.yul\":2294:2412   */\n    tag_92:\n        /* \"#utility.yul\":2381:2405   */\n      tag_144\n        /* \"#utility.yul\":2399:2404   */\n      dup2\n        /* \"#utility.yul\":2381:2405   */\n      tag_83\n      jump\t// in\n    tag_144:\n        /* \"#utility.yul\":2376:2379   */\n      dup3\n        /* \"#utility.yul\":2369:2406   */\n      mstore\n        /* \"#utility.yul\":2294:2412   */\n      pop\n      pop\n      jump\t// out\n        /* \"#utility.yul\":2418:2640   */\n    tag_25:\n        /* \"#utility.yul\":2511:2515   */\n      0x00\n        /* \"#utility.yul\":2549:2551   */\n      0x20\n        /* \"#utility.yul\":2538:2547   */\n      dup3\n        /* \"#utility.yul\":2534:2552   */\n      add\n        /* \"#utility.yul\":2526:2552   */\n      swap1\n      pop\n        /* \"#utility.yul\":2562:2633   */\n      tag_146\n        /* \"#utility.yul\":2630:2631   */\n      0x00\n        /* \"#utility.yul\":2619:2628   */\n      dup4\n        /* \"#utility.yul\":2615:2632   */\n      add\n        /* \"#utility.yul\":2606:2612   */\n      dup5\n        /* \"#utility.yul\":2562:2633   */\n      tag_92\n      jump\t// in\n    tag_146:\n        /* \"#utility.yul\":2418:2640   */\n      swap3\n      swap2\n      pop\n      pop\n      jump\t// out\n        /* \"#utility.yul\":2646:2745   */\n    tag_93:\n        /* \"#utility.yul\":2698:2704   */\n      0x00\n        /* \"#utility.yul\":2732:2737   */\n      dup2\n        /* \"#utility.yul\":2726:2738   */\n      mload\n        /* \"#utility.yul\":2716:2738   */\n      swap1\n      pop\n        /* \"#utility.yul\":2646:2745   */\n      swap2\n      swap1\n      pop\n      jump\t// out\n        /* \"#utility.yul\":2751:2920   */\n    tag_94:\n        /* \"#utility.yul\":2835:2846   */\n      0x00\n        /* \"#utility.yul\":2869:2875   */\n      dup3\n        /* \"#utility.yul\":2864:2867   */\n      dup3\n        /* \"#utility.yul\":2857:2876   */\n      mstore\n        /* \"#utility.yul\":2909:2913   */\n      0x20\n        /* \"#utility.yul\":2904:2907   */\n      dup3\n        /* \"#utility.yul\":2900:2914   */\n      add\n        /* \"#utility.yul\":2885:2914   */\n      swap1\n      pop\n        /* \"#utility.yul\":2751:2920   */\n      swap3\n      swap2\n      pop\n      pop\n      jump\t// out\n        /* \"#utility.yul\":2926:3172   */\n    tag_95:\n        /* \"#utility.yul\":3007:3008   */\n      0x00\n        /* \"#utility.yul\":3017:3130   */\n    tag_150:\n        /* \"#utility.yul\":3031:3037   */\n      dup4\n        /* \"#utility.yul\":3028:3029   */\n      dup2\n        /* \"#utility.yul\":3025:3038   */\n      lt\n        /* \"#utility.yul\":3017:3130   */\n      iszero\n      tag_152\n      jumpi\n        /* \"#utility.yul\":3116:3117   */\n      dup1\n        /* \"#utility.yul\":3111:3114   */\n      dup3\n        /* \"#utility.yul\":3107:3118   */\n      add\n        /* \"#utility.yul\":3101:3119   */\n      mload\n        /* \"#utility.yul\":3097:3098   */\n      dup2\n        /* \"#utility.yul\":3092:3095   */\n      dup5\n        /* \"#utility.yul\":3088:3099   */\n      add\n        /* \"#utility.yul\":3081:3120   */\n      mstore\n        /* \"#utility.yul\":3053:3055   */\n      0x20\n        /* \"#utility.yul\":3050:3051   */\n      dup2\n        /* \"#utility.yul\":3046:3056   */\n      add\n        /* \"#utility.yul\":3041:3056   */\n      swap1\n      pop\n        /* \"#utility.yul\":3017:3130   */\n      jump(tag_150)\n    tag_152:\n        /* \"#utility.yul\":3164:3165   */\n      0x00\n        /* \"#utility.yul\":3155:3161   */\n      dup5\n        /* \"#utility.yul\":3150:3153   */\n      dup5\n        /* \"#utility.yul\":3146:3162   */\n      add\n        /* \"#utility.yul\":3139:3166   */\n      mstore\n        /* \"#utility.yul\":2988:3172   */\n      pop\n        /* \"#utility.yul\":2926:3172   */\n      pop\n      pop\n      pop\n      jump\t// out\n        /* \"#utility.yul\":3178:3280   */\n    tag_96:\n        /* \"#utility.yul\":3219:3225   */\n      0x00\n        /* \"#utility.yul\":3270:3272   */\n      0x1f\n        /* \"#utility.yul\":3266:3273   */\n      not\n        /* \"#utility.yul\":3261:3263   */\n      0x1f\n        /* \"#utility.yul\":3254:3259   */\n      dup4\n        /* \"#utility.yul\":3250:3264   */\n      add\n        /* \"#utility.yul\":3246:3274   */\n      and\n        /* \"#utility.yul\":3236:3274   */\n      swap1\n      pop\n        /* \"#utility.yul\":3178:3280   */\n      swap2\n      swap1\n      pop\n      jump\t// out\n        /* \"#utility.yul\":3286:3663   */\n    tag_97:\n        /* \"#utility.yul\":3374:3377   */\n      0x00\n        /* \"#utility.yul\":3402:3441   */\n      tag_155\n        /* \"#utility.yul\":3435:3440   */\n      dup3\n        /* \"#utility.yul\":3402:3441   */\n      tag_93\n      jump\t// in\n    tag_155:\n        /* \"#utility.yul\":3457:3528   */\n      tag_156\n        /* \"#utility.yul\":3521:3527   */\n      dup2\n        /* \"#utility.yul\":3516:3519   */\n      dup6\n        /* \"#utility.yul\":3457:3528   */\n      tag_94\n      jump\t// in\n    tag_156:\n        /* \"#utility.yul\":3450:3528   */\n      swap4\n      pop\n        /* \"#utility.yul\":3537:3602   */\n      tag_157\n        /* \"#utility.yul\":3595:3601   */\n      dup2\n        /* \"#utility.yul\":3590:3593   */\n      dup6\n        /* \"#utility.yul\":3583:3587   */\n      0x20\n        /* \"#utility.yul\":3576:3581   */\n      dup7\n        /* \"#utility.yul\":3572:3588   */\n      add\n        /* \"#utility.yul\":3537:3602   */\n      tag_95\n      jump\t// in\n    tag_157:\n        /* \"#utility.yul\":3627:3656   */\n      tag_158\n        /* \"#utility.yul\":3649:3655   */\n      dup2\n        /* \"#utility.yul\":3627:3656   */\n      tag_96\n      jump\t// in\n    tag_158:\n        /* \"#utility.yul\":3622:3625   */\n      dup5\n        /* \"#utility.yul\":3618:3657   */\n      add\n        /* \"#utility.yul\":3611:3657   */\n      swap2\n      pop\n        /* \"#utility.yul\":3378:3663   */\n      pop\n        /* \"#utility.yul\":3286:3663   */\n      swap3\n      swap2\n      pop\n      pop\n      jump\t// out\n        /* \"#utility.yul\":3669:4202   */\n    tag_30:\n        /* \"#utility.yul\":3838:3842   */\n      0x00\n        /* \"#utility.yul\":3876:3878   */\n      0x60\n        /* \"#utility.yul\":3865:3874   */\n      dup3\n        /* \"#utility.yul\":3861:3879   */\n      add\n        /* \"#utility.yul\":3853:3879   */\n      swap1\n      pop\n        /* \"#utility.yul\":3889:3960   */\n      tag_160\n        /* \"#utility.yul\":3957:3958   */\n      0x00\n        /* \"#utility.yul\":3946:3955   */\n      dup4\n        /* \"#utility.yul\":3942:3959   */\n      add\n        /* \"#utility.yul\":3933:3939   */\n      dup7\n        /* \"#utility.yul\":3889:3960   */\n      tag_92\n      jump\t// in\n    tag_160:\n        /* \"#utility.yul\":4007:4016   */\n      dup2\n        /* \"#utility.yul\":4001:4005   */\n      dup2\n        /* \"#utility.yul\":3997:4017   */\n      sub\n        /* \"#utility.yul\":3992:3994   */\n      0x20\n        /* \"#utility.yul\":3981:3990   */\n      dup4\n        /* \"#utility.yul\":3977:3995   */\n      add\n        /* \"#utility.yul\":3970:4018   */\n      mstore\n        /* \"#utility.yul\":4035:4113   */\n      tag_161\n        /* \"#utility.yul\":4108:4112   */\n      dup2\n        /* \"#utility.yul\":4099:4105   */\n      dup6\n        /* \"#utility.yul\":4035:4113   */\n      tag_97\n      jump\t// in\n    tag_161:\n        /* \"#utility.yul\":4027:4113   */\n      swap1\n      pop\n        /* \"#utility.yul\":4123:4195   */\n      tag_162\n        /* \"#utility.yul\":4191:4193   */\n      0x40\n        /* \"#utility.yul\":4180:4189   */\n      dup4\n        /* \"#utility.yul\":4176:4194   */\n      add\n        /* \"#utility.yul\":4167:4173   */\n      dup5\n        /* \"#utility.yul\":4123:4195   */\n      tag_92\n      jump\t// in\n    tag_162:\n        /* \"#utility.yul\":3669:4202   */\n      swap5\n      swap4\n      pop\n      pop\n      pop\n      pop\n      jump\t// out\n        /* \"#utility.yul\":4208:4326   */\n    tag_98:\n        /* \"#utility.yul\":4295:4319   */\n      tag_164\n        /* \"#utility.yul\":4313:4318   */\n      dup2\n        /* \"#utility.yul\":4295:4319   */\n      tag_87\n      jump\t// in\n    tag_164:\n        /* \"#utility.yul\":4290:4293   */\n      dup3\n        /* \"#utility.yul\":4283:4320   */\n      mstore\n        /* \"#utility.yul\":4208:4326   */\n      pop\n      pop\n      jump\t// out\n        /* \"#utility.yul\":4332:4554   */\n    tag_34:\n        /* \"#utility.yul\":4425:4429   */\n      0x00\n        /* \"#utility.yul\":4463:4465   */\n      0x20\n        /* \"#utility.yul\":4452:4461   */\n      dup3\n        /* \"#utility.yul\":4448:4466   */\n      add\n        /* \"#utility.yul\":4440:4466   */\n      swap1\n      pop\n        /* \"#utility.yul\":4476:4547   */\n      tag_166\n        /* \"#utility.yul\":4544:4545   */\n      0x00\n        /* \"#utility.yul\":4533:4542   */\n      dup4\n        /* \"#utility.yul\":4529:4546   */\n      add\n        /* \"#utility.yul\":4520:4526   */\n      dup5\n        /* \"#utility.yul\":4476:4547   */\n      tag_98\n      jump\t// in\n    tag_166:\n        /* \"#utility.yul\":4332:4554   */\n      swap3\n      swap2\n      pop\n      pop\n      jump\t// out\n        /* \"#utility.yul\":4560:4983   */\n    tag_38:\n        /* \"#utility.yul\":4701:4705   */\n      0x00\n        /* \"#utility.yul\":4739:4741   */\n      0x40\n        /* \"#utility.yul\":4728:4737   */\n      dup3\n        /* \"#utility.yul\":4724:4742   */\n      add\n        /* \"#utility.yul\":4716:4742   */\n      swap1\n      pop\n        /* \"#utility.yul\":4788:4797   */\n      dup2\n        /* \"#utility.yul\":4782:4786   */\n      dup2\n        /* \"#utility.yul\":4778:4798   */\n      sub\n        /* \"#utility.yul\":4774:4775   */\n      0x00\n        /* \"#utility.yul\":4763:4772   */\n      dup4\n        /* \"#utility.yul\":4759:4776   */\n      add\n        /* \"#utility.yul\":4752:4799   */\n      mstore\n        /* \"#utility.yul\":4816:4894   */\n      tag_168\n        /* \"#utility.yul\":4889:4893   */\n      dup2\n        /* \"#utility.yul\":4880:4886   */\n      dup6\n        /* \"#utility.yul\":4816:4894   */\n      tag_97\n      jump\t// in\n    tag_168:\n        /* \"#utility.yul\":4808:4894   */\n      swap1\n      pop\n        /* \"#utility.yul\":4904:4976   */\n      tag_169\n        /* \"#utility.yul\":4972:4974   */\n      0x20\n        /* \"#utility.yul\":4961:4970   */\n      dup4\n        /* \"#utility.yul\":4957:4975   */\n      add\n        /* \"#utility.yul\":4948:4954   */\n      dup5\n        /* \"#utility.yul\":4904:4976   */\n      tag_92\n      jump\t// in\n    tag_169:\n        /* \"#utility.yul\":4560:4983   */\n      swap4\n      swap3\n      pop\n      pop\n      pop\n      jump\t// out\n        /* \"#utility.yul\":4989:5103   */\n    tag_99:\n        /* \"#utility.yul\":5056:5062   */\n      0x00\n        /* \"#utility.yul\":5090:5095   */\n      dup2\n        /* \"#utility.yul\":5084:5096   */\n      mload\n        /* \"#utility.yul\":5074:5096   */\n      swap1\n      pop\n        /* \"#utility.yul\":4989:5103   */\n      swap2\n      swap1\n      pop\n      jump\t// out\n        /* \"#utility.yul\":5109:5293   */\n    tag_100:\n        /* \"#utility.yul\":5208:5219   */\n      0x00\n        /* \"#utility.yul\":5242:5248   */\n      dup3\n        /* \"#utility.yul\":5237:5240   */\n      dup3\n        /* \"#utility.yul\":5230:5249   */\n      mstore\n        /* \"#utility.yul\":5282:5286   */\n      0x20\n        /* \"#utility.yul\":5277:5280   */\n      dup3\n        /* \"#utility.yul\":5273:5287   */\n      add\n        /* \"#utility.yul\":5258:5287   */\n      swap1\n      pop\n        /* \"#utility.yul\":5109:5293   */\n      swap3\n      swap2\n      pop\n      pop\n      jump\t// out\n        /* \"#utility.yul\":5299:5431   */\n    tag_101:\n        /* \"#utility.yul\":5366:5370   */\n      0x00\n        /* \"#utility.yul\":5389:5392   */\n      dup2\n        /* \"#utility.yul\":5381:5392   */\n      swap1\n      pop\n        /* \"#utility.yul\":5419:5423   */\n      0x20\n        /* \"#utility.yul\":5414:5417   */\n      dup3\n        /* \"#utility.yul\":5410:5424   */\n      add\n        /* \"#utility.yul\":5402:5424   */\n      swap1\n      pop\n        /* \"#utility.yul\":5299:5431   */\n      swap2\n      swap1\n      pop\n      jump\t// out\n        /* \"#utility.yul\":5437:5545   */\n    tag_102:\n        /* \"#utility.yul\":5514:5538   */\n      tag_174\n        /* \"#utility.yul\":5532:5537   */\n      dup2\n        /* \"#utility.yul\":5514:5538   */\n      tag_87\n      jump\t// in\n    tag_174:\n        /* \"#utility.yul\":5509:5512   */\n      dup3\n        /* \"#utility.yul\":5502:5539   */\n      mstore\n        /* \"#utility.yul\":5437:5545   */\n      pop\n      pop\n      jump\t// out\n        /* \"#utility.yul\":5551:5730   */\n    tag_103:\n        /* \"#utility.yul\":5620:5630   */\n      0x00\n        /* \"#utility.yul\":5641:5687   */\n      tag_176\n        /* \"#utility.yul\":5683:5686   */\n      dup4\n        /* \"#utility.yul\":5675:5681   */\n      dup4\n        /* \"#utility.yul\":5641:5687   */\n      tag_102\n      jump\t// in\n    tag_176:\n        /* \"#utility.yul\":5719:5723   */\n      0x20\n        /* \"#utility.yul\":5714:5717   */\n      dup4\n        /* \"#utility.yul\":5710:5724   */\n      add\n        /* \"#utility.yul\":5696:5724   */\n      swap1\n      pop\n        /* \"#utility.yul\":5551:5730   */\n      swap3\n      swap2\n      pop\n      pop\n      jump\t// out\n        /* \"#utility.yul\":5736:5849   */\n    tag_104:\n        /* \"#utility.yul\":5806:5810   */\n      0x00\n        /* \"#utility.yul\":5838:5842   */\n      0x20\n        /* \"#utility.yul\":5833:5836   */\n      dup3\n        /* \"#utility.yul\":5829:5843   */\n      add\n        /* \"#utility.yul\":5821:5843   */\n      swap1\n      pop\n        /* \"#utility.yul\":5736:5849   */\n      swap2\n      swap1\n      pop\n      jump\t// out\n        /* \"#utility.yul\":5885:6617   */\n    tag_105:\n        /* \"#utility.yul\":6004:6007   */\n      0x00\n        /* \"#utility.yul\":6033:6087   */\n      tag_179\n        /* \"#utility.yul\":6081:6086   */\n      dup3\n        /* \"#utility.yul\":6033:6087   */\n      tag_99\n      jump\t// in\n    tag_179:\n        /* \"#utility.yul\":6103:6189   */\n      tag_180\n        /* \"#utility.yul\":6182:6188   */\n      dup2\n        /* \"#utility.yul\":6177:6180   */\n      dup6\n        /* \"#utility.yul\":6103:6189   */\n      tag_100\n      jump\t// in\n    tag_180:\n        /* \"#utility.yul\":6096:6189   */\n      swap4\n      pop\n        /* \"#utility.yul\":6213:6269   */\n      tag_181\n        /* \"#utility.yul\":6263:6268   */\n      dup4\n        /* \"#utility.yul\":6213:6269   */\n      tag_101\n      jump\t// in\n    tag_181:\n        /* \"#utility.yul\":6292:6299   */\n      dup1\n        /* \"#utility.yul\":6323:6324   */\n      0x00\n        /* \"#utility.yul\":6308:6592   */\n    tag_182:\n        /* \"#utility.yul\":6333:6339   */\n      dup4\n        /* \"#utility.yul\":6330:6331   */\n      dup2\n        /* \"#utility.yul\":6327:6340   */\n      lt\n        /* \"#utility.yul\":6308:6592   */\n      iszero\n      tag_184\n      jumpi\n        /* \"#utility.yul\":6409:6415   */\n      dup2\n        /* \"#utility.yul\":6403:6416   */\n      mload\n        /* \"#utility.yul\":6436:6499   */\n      tag_185\n        /* \"#utility.yul\":6495:6498   */\n      dup9\n        /* \"#utility.yul\":6480:6493   */\n      dup3\n        /* \"#utility.yul\":6436:6499   */\n      tag_103\n      jump\t// in\n    tag_185:\n        /* \"#utility.yul\":6429:6499   */\n      swap8\n      pop\n        /* \"#utility.yul\":6522:6582   */\n      tag_186\n        /* \"#utility.yul\":6575:6581   */\n      dup4\n        /* \"#utility.yul\":6522:6582   */\n      tag_104\n      jump\t// in\n    tag_186:\n        /* \"#utility.yul\":6512:6582   */\n      swap3\n      pop\n        /* \"#utility.yul\":6368:6592   */\n      pop\n        /* \"#utility.yul\":6355:6356   */\n      0x01\n        /* \"#utility.yul\":6352:6353   */\n      dup2\n        /* \"#utility.yul\":6348:6357   */\n      add\n        /* \"#utility.yul\":6343:6357   */\n      swap1\n      pop\n        /* \"#utility.yul\":6308:6592   */\n      jump(tag_182)\n    tag_184:\n        /* \"#utility.yul\":6312:6326   */\n      pop\n        /* \"#utility.yul\":6608:6611   */\n      dup6\n        /* \"#utility.yul\":6601:6611   */\n      swap4\n      pop\n        /* \"#utility.yul\":6009:6617   */\n      pop\n      pop\n      pop\n        /* \"#utility.yul\":5885:6617   */\n      swap3\n      swap2\n      pop\n      pop\n      jump\t// out\n        /* \"#utility.yul\":6623:6996   */\n    tag_42:\n        /* \"#utility.yul\":6766:6770   */\n      0x00\n        /* \"#utility.yul\":6804:6806   */\n      0x20\n        /* \"#utility.yul\":6793:6802   */\n      dup3\n        /* \"#utility.yul\":6789:6807   */\n      add\n        /* \"#utility.yul\":6781:6807   */\n      swap1\n      pop\n        /* \"#utility.yul\":6853:6862   */\n      dup2\n        /* \"#utility.yul\":6847:6851   */\n      dup2\n        /* \"#utility.yul\":6843:6863   */\n      sub\n        /* \"#utility.yul\":6839:6840   */\n      0x00\n        /* \"#utility.yul\":6828:6837   */\n      dup4\n        /* \"#utility.yul\":6824:6841   */\n      add\n        /* \"#utility.yul\":6817:6864   */\n      mstore\n        /* \"#utility.yul\":6881:6989   */\n      tag_188\n        /* \"#utility.yul\":6984:6988   */\n      dup2\n        /* \"#utility.yul\":6975:6981   */\n      dup5\n        /* \"#utility.yul\":6881:6989   */\n      tag_105\n      jump\t// in\n    tag_188:\n        /* \"#utility.yul\":6873:6989   */\n      swap1\n      pop\n        /* \"#utility.yul\":6623:6996   */\n      swap3\n      swap2\n      pop\n      pop\n      jump\t// out\n        /* \"#utility.yul\":7002:7165   */\n    tag_106:\n        /* \"#utility.yul\":7142:7157   */\n      0x416c726561647920766f74656400000000000000000000000000000000000000\n        /* \"#utility.yul\":7138:7139   */\n      0x00\n        /* \"#utility.yul\":7130:7136   */\n      dup3\n        /* \"#utility.yul\":7126:7140   */\n      add\n        /* \"#utility.yul\":7119:7158   */\n      mstore\n        /* \"#utility.yul\":7002:7165   */\n      pop\n      jump\t// out\n        /* \"#utility.yul\":7171:7537   */\n    tag_107:\n        /* \"#utility.yul\":7313:7316   */\n      0x00\n        /* \"#utility.yul\":7334:7401   */\n      tag_191\n        /* \"#utility.yul\":7398:7400   */\n      0x0d\n        /* \"#utility.yul\":7393:7396   */\n      dup4\n        /* \"#utility.yul\":7334:7401   */\n      tag_94\n      jump\t// in\n    tag_191:\n        /* \"#utility.yul\":7327:7401   */\n      swap2\n      pop\n        /* \"#utility.yul\":7410:7503   */\n      tag_192\n        /* \"#utility.yul\":7499:7502   */\n      dup3\n        /* \"#utility.yul\":7410:7503   */\n      tag_106\n      jump\t// in\n    tag_192:\n        /* \"#utility.yul\":7528:7530   */\n      0x20\n        /* \"#utility.yul\":7523:7526   */\n      dup3\n        /* \"#utility.yul\":7519:7531   */\n      add\n        /* \"#utility.yul\":7512:7531   */\n      swap1\n      pop\n        /* \"#utility.yul\":7171:7537   */\n      swap2\n      swap1\n      pop\n      jump\t// out\n        /* \"#utility.yul\":7543:7962   */\n    tag_50:\n        /* \"#utility.yul\":7709:7713   */\n      0x00\n        /* \"#utility.yul\":7747:7749   */\n      0x20\n        /* \"#utility.yul\":7736:7745   */\n      dup3\n        /* \"#utility.yul\":7732:7750   */\n      add\n        /* \"#utility.yul\":7724:7750   */\n      swap1\n      pop\n        /* \"#utility.yul\":7796:7805   */\n      dup2\n        /* \"#utility.yul\":7790:7794   */\n      dup2\n        /* \"#utility.yul\":7786:7806   */\n      sub\n        /* \"#utility.yul\":7782:7783   */\n      0x00\n        /* \"#utility.yul\":7771:7780   */\n      dup4\n        /* \"#utility.yul\":7767:7784   */\n      add\n        /* \"#utility.yul\":7760:7807   */\n      mstore\n        /* \"#utility.yul\":7824:7955   */\n      tag_194\n        /* \"#utility.yul\":7950:7954   */\n      dup2\n        /* \"#utility.yul\":7824:7955   */\n      tag_107\n      jump\t// in\n    tag_194:\n        /* \"#utility.yul\":7816:7955   */\n      swap1\n      pop\n        /* \"#utility.yul\":7543:7962   */\n      swap2\n      swap1\n      pop\n      jump\t// out\n        /* \"#utility.yul\":7968:8135   */\n    tag_108:\n        /* \"#utility.yul\":8108:8127   */\n      0x496e76616c69642063616e646964617465000000000000000000000000000000\n        /* \"#utility.yul\":8104:8105   */\n      0x00\n        /* \"#utility.yul\":8096:8102   */\n      dup3\n        /* \"#utility.yul\":8092:8106   */\n      add\n        /* \"#utility.yul\":8085:8128   */\n      mstore\n        /* \"#utility.yul\":7968:8135   */\n      pop\n      jump\t// out\n        /* \"#utility.yul\":8141:8507   */\n    tag_109:\n        /* \"#utility.yul\":8283:8286   */\n      0x00\n        /* \"#utility.yul\":8304:8371   */\n      tag_197\n        /* \"#utility.yul\":8368:8370   */\n      0x11\n        /* \"#utility.yul\":8363:8366   */\n      dup4\n        /* \"#utility.yul\":8304:8371   */\n      tag_94\n      jump\t// in\n    tag_197:\n        /* \"#utility.yul\":8297:8371   */\n      swap2\n      pop\n        /* \"#utility.yul\":8380:8473   */\n      tag_198\n        /* \"#utility.yul\":8469:8472   */\n      dup3\n        /* \"#utility.yul\":8380:8473   */\n      tag_108\n      jump\t// in\n    tag_198:\n        /* \"#utility.yul\":8498:8500   */\n      0x20\n        /* \"#utility.yul\":8493:8496   */\n      dup3\n        /* \"#utility.yul\":8489:8501   */\n      add\n        /* \"#utility.yul\":8482:8501   */\n      swap1\n      pop\n        /* \"#utility.yul\":8141:8507   */\n      swap2\n      swap1\n      pop\n      jump\t// out\n        /* \"#utility.yul\":8513:8932   */\n    tag_54:\n        /* \"#utility.yul\":8679:8683   */\n      0x00\n        /* \"#utility.yul\":8717:8719   */\n      0x20\n        /* \"#utility.yul\":8706:8715   */\n      dup3\n        /* \"#utility.yul\":8702:8720   */\n      add\n        /* \"#utility.yul\":8694:8720   */\n      swap1\n      pop\n        /* \"#utility.yul\":8766:8775   */\n      dup2\n        /* \"#utility.yul\":8760:8764   */\n      dup2\n        /* \"#utility.yul\":8756:8776   */\n      sub\n        /* \"#utility.yul\":8752:8753   */\n      0x00\n        /* \"#utility.yul\":8741:8750   */\n      dup4\n        /* \"#utility.yul\":8737:8754   */\n      add\n        /* \"#utility.yul\":8730:8777   */\n      mstore\n        /* \"#utility.yul\":8794:8925   */\n      tag_200\n        /* \"#utility.yul\":8920:8924   */\n      dup2\n        /* \"#utility.yul\":8794:8925   */\n      tag_109\n      jump\t// in\n    tag_200:\n        /* \"#utility.yul\":8786:8925   */\n      swap1\n      pop\n        /* \"#utility.yul\":8513:8932   */\n      swap2\n      swap1\n      pop\n      jump\t// out\n        /* \"#utility.yul\":8938:9118   */\n    tag_110:\n        /* \"#utility.yul\":8986:9063   */\n      0x4e487b7100000000000000000000000000000000000000000000000000000000\n        /* \"#utility.yul\":8983:8984   */\n      0x00\n        /* \"#utility.yul\":8976:9064   */\n      mstore\n        /* \"#utility.yul\":9083:9087   */\n      0x11\n        /* \"#utility.yul\":9080:9081   */\n      0x04\n        /* \"#utility.yul\":9073:9088   */\n      mstore\n        /* \"#utility.yul\":9107:9111   */\n      0x24\n        /* \"#utility.yul\":9104:9105   */\n      0x00\n        /* \"#utility.yul\":9097:9112   */\n      revert\n        /* \"#utility.yul\":9124:9357   */\n    tag_57:\n        /* \"#utility.yul\":9163:9166   */\n      0x00\n        /* \"#utility.yul\":9186:9210   */\n      tag_203\n        /* \"#utility.yul\":9204:9209   */\n      dup3\n        /* \"#utility.yul\":9186:9210   */\n      tag_83\n      jump\t// in\n    tag_203:\n        /* \"#utility.yul\":9177:9210   */\n      swap2\n      pop\n        /* \"#utility.yul\":9232:9298   */\n      0xffffffffffffffffffffffffffffffffffffffffffffffffffffffffffffffff\n        /* \"#utility.yul\":9225:9230   */\n      dup3\n        /* \"#utility.yul\":9222:9299   */\n      sub\n        /* \"#utility.yul\":9219:9322   */\n      tag_204\n      jumpi\n        /* \"#utility.yul\":9302:9320   */\n      tag_205\n      tag_110\n      jump\t// in\n    tag_205:\n        /* \"#utility.yul\":9219:9322   */\n    tag_204:\n        /* \"#utility.yul\":9349:9350   */\n      0x01\n        /* \"#utility.yul\":9342:9347   */\n      dup3\n        /* \"#utility.yul\":9338:9351   */\n      add\n        /* \"#utility.yul\":9331:9351   */\n      swap1\n      pop\n        /* \"#utility.yul\":9124:9357   */\n      swap2\n      swap1\n      pop\n      jump\t// out\n        /* \"#utility.yul\":9363:9543   */\n    tag_111:\n        /* \"#utility.yul\":9411:9488   */\n      0x4e487b7100000000000000000000000000000000000000000000000000000000\n        /* \"#utility.yul\":9408:9409   */\n      0x00\n        /* \"#utility.yul\":9401:9489   */\n      mstore\n        /* \"#utility.yul\":9508:9512   */\n      0x22\n        /* \"#utility.yul\":9505:9506   */\n      0x04\n        /* \"#utility.yul\":9498:9513   */\n      mstore\n        /* \"#utility.yul\":9532:9536   */\n      0x24\n        /* \"#utility.yul\":9529:9530   */\n      0x00\n        /* \"#utility.yul\":9522:9537   */\n      revert\n        /* \"#utility.yul\":9549:9869   */\n    tag_59:\n        /* \"#utility.yul\":9593:9599   */\n      0x00\n        /* \"#utility.yul\":9630:9631   */\n      0x02\n        /* \"#utility.yul\":9624:9628   */\n      dup3\n        /* \"#utility.yul\":9620:9632   */\n      div\n        /* \"#utility.yul\":9610:9632   */\n      swap1\n      pop\n        /* \"#utility.yul\":9677:9678   */\n      0x01\n        /* \"#utility.yul\":9671:9675   */\n      dup3\n        /* \"#utility.yul\":9667:9679   */\n      and\n        /* \"#utility.yul\":9698:9716   */\n      dup1\n        /* \"#utility.yul\":9688:9769   */\n      tag_208\n      jumpi\n        /* \"#utility.yul\":9754:9758   */\n      0x7f\n        /* \"#utility.yul\":9746:9752   */\n      dup3\n        /* \"#utility.yul\":9742:9759   */\n      and\n        /* \"#utility.yul\":9732:9759   */\n      swap2\n      pop\n        /* \"#utility.yul\":9688:9769   */\n    tag_208:\n        /* \"#utility.yul\":9816:9818   */\n      0x20\n        /* \"#utility.yul\":9808:9814   */\n      dup3\n        /* \"#utility.yul\":9805:9819   */\n      lt\n        /* \"#utility.yul\":9785:9803   */\n      dup2\n        /* \"#utility.yul\":9782:9820   */\n      sub\n        /* \"#utility.yul\":9779:9863   */\n      tag_209\n      jumpi\n        /* \"#utility.yul\":9835:9853   */\n      tag_210\n      tag_111\n      jump\t// in\n    tag_210:\n        /* \"#utility.yul\":9779:9863   */\n    tag_209:\n        /* \"#utility.yul\":9600:9869   */\n      pop\n        /* \"#utility.yul\":9549:9869   */\n      swap2\n      swap1\n      pop\n      jump\t// out\n\n    auxdata: 0xa26469706673582212200e31d4b482eea834df06f8ba9d95899f09508e08531c7668a32cbf8fb8e1840e64736f6c63430008120033\n}\n",
				"bytecode": {
					"linkReferences": {},
					"object": "60806040523480156200001157600080fd5b506040516200139d3803806200139d8339818101604052810190620000379190620003ca565b33600460006101000a81548173ffffffffffffffffffffffffffffffffffffffff021916908373ffffffffffffffffffffffffffffffffffffffff16021790555060005b81518110156200013357600360008154809291906200009a9062000454565b919050555060405180606001604052806003548152602001838381518110620000c857620000c7620004a1565b5b60200260200101518152602001600081525060008060035481526020019081526020016000206000820151816000015560208201518160010190816200010f919062000711565b506040820151816002015590505080806200012a9062000454565b9150506200007b565b5050620007f8565b6000604051905090565b600080fd5b600080fd5b600080fd5b6000601f19601f8301169050919050565b7f4e487b7100000000000000000000000000000000000000000000000000000000600052604160045260246000fd5b6200019f8262000154565b810181811067ffffffffffffffff82111715620001c157620001c062000165565b5b80604052505050565b6000620001d66200013b565b9050620001e4828262000194565b919050565b600067ffffffffffffffff82111562000207576200020662000165565b5b602082029050602081019050919050565b600080fd5b600080fd5b600067ffffffffffffffff82111562000240576200023f62000165565b5b6200024b8262000154565b9050602081019050919050565b60005b83811015620002785780820151818401526020810190506200025b565b60008484015250505050565b60006200029b620002958462000222565b620001ca565b905082815260208101848484011115620002ba57620002b96200021d565b5b620002c784828562000258565b509392505050565b600082601f830112620002e757620002e66200014f565b5b8151620002f984826020860162000284565b91505092915050565b6000620003196200031384620001e9565b620001ca565b905080838252602082019050602084028301858111156200033f576200033e62000218565b5b835b818110156200038d57805167ffffffffffffffff8111156200036857620003676200014f565b5b808601620003778982620002cf565b8552602085019450505060208101905062000341565b5050509392505050565b600082601f830112620003af57620003ae6200014f565b5b8151620003c184826020860162000302565b91505092915050565b600060208284031215620003e357620003e262000145565b5b600082015167ffffffffffffffff8111156200040457620004036200014a565b5b620004128482850162000397565b91505092915050565b7f4e487b7100000000000000000000000000000000000000000000000000000000600052601160045260246000fd5b6000819050919050565b600062000461826200044a565b91507fffffffffffffffffffffffffffffffffffffffffffffffffffffffffffffffff82036200049657620004956200041b565b5b600182019050919050565b7f4e487b7100000000000000000000000000000000000000000000000000000000600052603260045260246000fd5b600081519050919050565b7f4e487b7100000000000000000000000000000000000000000000000000000000600052602260045260246000fd5b600060028204905060018216806200052357607f821691505b602082108103620005395762000538620004db565b5b50919050565b60008190508160005260206000209050919050565b60006020601f8301049050919050565b600082821b905092915050565b600060088302620005a37fffffffffffffffffffffffffffffffffffffffffffffffffffffffffffffffff8262000564565b620005af868362000564565b95508019841693508086168417925050509392505050565b6000819050919050565b6000620005f2620005ec620005e6846200044a565b620005c7565b6200044a565b9050919050565b6000819050919050565b6200060e83620005d1565b620006266200061d82620005f9565b84845462000571565b825550505050565b600090565b6200063d6200062e565b6200064a81848462000603565b505050565b5b8181101562000672576200066660008262000633565b60018101905062000650565b5050565b601f821115620006c1576200068b816200053f565b620006968462000554565b81016020851015620006a6578190505b620006be620006b58562000554565b8301826200064f565b50505b505050565b600082821c905092915050565b6000620006e660001984600802620006c6565b1980831691505092915050565b6000620007018383620006d3565b9150826002028217905092915050565b6200071c82620004d0565b67ffffffffffffffff81111562000738576200073762000165565b5b6200074482546200050a565b6200075182828562000676565b600060209050601f83116001811462000789576000841562000774578287015190505b620007808582620006f3565b865550620007f0565b601f19841662000799866200053f565b60005b82811015620007c3578489015182556001820191506020850194506020810190506200079c565b86831015620007e35784890151620007df601f891682620006d3565b8355505b6001600288020188555050505b505050505050565b610b9580620008086000396000f3fe608060405234801561001057600080fd5b50600436106100885760003560e01c80638da5cb5b1161005b5780638da5cb5b146101295780638e7ea5b214610147578063cdd7225314610166578063da58c7d91461018457610088565b80630121b93f1461008d57806309eef43e146100a95780632d35a8a2146100d95780633477ee2e146100f7575b600080fd5b6100a760048036038101906100a29190610690565b6101b4565b005b6100c360048036038101906100be919061071b565b61037a565b6040516100d09190610763565b60405180910390f35b6100e161039a565b6040516100ee919061078d565b60405180910390f35b610111600480360381019061010c9190610690565b6103a0565b60405161012093929190610838565b60405180910390f35b610131610452565b60405161013e9190610885565b60405180910390f35b61014f610478565b60405161015d9291906108a0565b60405180910390f35b61016e610588565b60405161017b919061098e565b60405180910390f35b61019e60048036038101906101999190610690565b610616565b6040516101ab9190610885565b60405180910390f35b600160003373ffffffffffffffffffffffffffffffffffffffff1673ffffffffffffffffffffffffffffffffffffffff16815260200190815260200160002060009054906101000a900460ff1615610241576040517f08c379a0000000000000000000000000000000000000000000000000000000008152600401610238906109fc565b60405180910390fd5b60008111801561025357506003548111155b610292576040517f08c379a000000000000000000000000000000000000000000000000000000000815260040161028990610a68565b60405180910390fd5b60018060003373ffffffffffffffffffffffffffffffffffffffff1673ffffffffffffffffffffffffffffffffffffffff16815260200190815260200160002060006101000a81548160ff0219169083151502179055506002339080600181540180825580915050600190039060005260206000200160009091909190916101000a81548173ffffffffffffffffffffffffffffffffffffffff021916908373ffffffffffffffffffffffffffffffffffffffff160217905550600080828152602001908152602001600020600201600081548092919061037290610ab7565b919050555050565b60016020528060005260406000206000915054906101000a900460ff1681565b60035481565b60006020528060005260406000206000915090508060000154908060010180546103c990610b2e565b80601f01602080910402602001604051908101604052809291908181526020018280546103f590610b2e565b80156104425780601f1061041757610100808354040283529160200191610442565b820191906000526020600020905b81548152906001019060200180831161042557829003601f168201915b5050505050908060020154905083565b600460009054906101000a900473ffffffffffffffffffffffffffffffffffffffff1681565b606060008060009050600080600190505b60035481116104de57826000808381526020019081526020016000206002015411156104cb576000808281526020019081526020016000206002015492508091505b80806104d690610ab7565b915050610489565b5060008082815260200190815260200160002060010180546104ff90610b2e565b80601f016020809104026020016040519081016040528092919081815260200182805461052b90610b2e565b80156105785780601f1061054d57610100808354040283529160200191610578565b820191906000526020600020905b81548152906001019060200180831161055b57829003601f168201915b5050505050935081925050509091565b6060600280548060200260200160405190810160405280929190818152602001828054801561060c57602002820191906000526020600020905b8160009054906101000a900473ffffffffffffffffffffffffffffffffffffffff1673ffffffffffffffffffffffffffffffffffffffff16815260200190600101908083116105c2575b5050505050905090565b6002818154811061062657600080fd5b906000526020600020016000915054906101000a900473ffffffffffffffffffffffffffffffffffffffff1681565b600080fd5b6000819050919050565b61066d8161065a565b811461067857600080fd5b50565b60008135905061068a81610664565b92915050565b6000602082840312156106a6576106a5610655565b5b60006106b48482850161067b565b91505092915050565b600073ffffffffffffffffffffffffffffffffffffffff82169050919050565b60006106e8826106bd565b9050919050565b6106f8816106dd565b811461070357600080fd5b50565b600081359050610715816106ef565b92915050565b60006020828403121561073157610730610655565b5b600061073f84828501610706565b91505092915050565b60008115159050919050565b61075d81610748565b82525050565b60006020820190506107786000830184610754565b92915050565b6107878161065a565b82525050565b60006020820190506107a2600083018461077e565b92915050565b600081519050919050565b600082825260208201905092915050565b60005b838110156107e25780820151818401526020810190506107c7565b60008484015250505050565b6000601f19601f8301169050919050565b600061080a826107a8565b61081481856107b3565b93506108248185602086016107c4565b61082d816107ee565b840191505092915050565b600060608201905061084d600083018661077e565b818103602083015261085f81856107ff565b905061086e604083018461077e565b949350505050565b61087f816106dd565b82525050565b600060208201905061089a6000830184610876565b92915050565b600060408201905081810360008301526108ba81856107ff565b90506108c9602083018461077e565b9392505050565b600081519050919050565b600082825260208201905092915050565b6000819050602082019050919050565b610905816106dd565b82525050565b600061091783836108fc565b60208301905092915050565b6000602082019050919050565b600061093b826108d0565b61094581856108db565b9350610950836108ec565b8060005b83811015610981578151610968888261090b565b975061097383610923565b925050600181019050610954565b5085935050505092915050565b600060208201905081810360008301526109a88184610930565b905092915050565b7f416c726561647920766f74656400000000000000000000000000000000000000600082015250565b60006109e6600d836107b3565b91506109f1826109b0565b602082019050919050565b60006020820190508181036000830152610a15816109d9565b9050919050565b7f496e76616c69642063616e646964617465000000000000000000000000000000600082015250565b6000610a526011836107b3565b9150610a5d82610a1c565b602082019050919050565b60006020820190508181036000830152610a8181610a45565b9050919050565b7f4e487b7100000000000000000000000000000000000000000000000000000000600052601160045260246000fd5b6000610ac28261065a565b91507fffffffffffffffffffffffffffffffffffffffffffffffffffffffffffffffff8203610af457610af3610a88565b5b600182019050919050565b7f4e487b7100000000000000000000000000000000000000000000000000000000600052602260045260246000fd5b60006002820490506001821680610b4657607f821691505b602082108103610b5957610b58610aff565b5b5091905056fea26469706673582212200e31d4b482eea834df06f8ba9d95899f09508e08531c7668a32cbf8fb8e1840e64736f6c63430008120033",
					"opcodes": "PUSH1 0x80 PUSH1 0x40 MSTORE CALLVALUE DUP1 ISZERO PUSH3 0x11 JUMPI PUSH1 0x0 DUP1 REVERT JUMPDEST POP PUSH1 0x40 MLOAD PUSH3 0x139D CODESIZE SUB DUP1 PUSH3 0x139D DUP4 CODECOPY DUP2 DUP2 ADD PUSH1 0x40 MSTORE DUP2 ADD SWAP1 PUSH3 0x37 SWAP2 SWAP1 PUSH3 0x3CA JUMP JUMPDEST CALLER PUSH1 0x4 PUSH1 0x0 PUSH2 0x100 EXP DUP2 SLOAD DUP2 PUSH20 0xFFFFFFFFFFFFFFFFFFFFFFFFFFFFFFFFFFFFFFFF MUL NOT AND SWAP1 DUP4 PUSH20 0xFFFFFFFFFFFFFFFFFFFFFFFFFFFFFFFFFFFFFFFF AND MUL OR SWAP1 SSTORE POP PUSH1 0x0 JUMPDEST DUP2 MLOAD DUP2 LT ISZERO PUSH3 0x133 JUMPI PUSH1 0x3 PUSH1 0x0 DUP2 SLOAD DUP1 SWAP3 SWAP2 SWAP1 PUSH3 0x9A SWAP1 PUSH3 0x454 JUMP JUMPDEST SWAP2 SWAP1 POP SSTORE POP PUSH1 0x40 MLOAD DUP1 PUSH1 0x60 ADD PUSH1 0x40 MSTORE DUP1 PUSH1 0x3 SLOAD DUP2 MSTORE PUSH1 0x20 ADD DUP4 DUP4 DUP2 MLOAD DUP2 LT PUSH3 0xC8 JUMPI PUSH3 0xC7 PUSH3 0x4A1 JUMP JUMPDEST JUMPDEST PUSH1 0x20 MUL PUSH1 0x20 ADD ADD MLOAD DUP2 MSTORE PUSH1 0x20 ADD PUSH1 0x0 DUP2 MSTORE POP PUSH1 0x0 DUP1 PUSH1 0x3 SLOAD DUP2 MSTORE PUSH1 0x20 ADD SWAP1 DUP2 MSTORE PUSH1 0x20 ADD PUSH1 0x0 KECCAK256 PUSH1 0x0 DUP3 ADD MLOAD DUP2 PUSH1 0x0 ADD SSTORE PUSH1 0x20 DUP3 ADD MLOAD DUP2 PUSH1 0x1 ADD SWAP1 DUP2 PUSH3 0x10F SWAP2 SWAP1 PUSH3 0x711 JUMP JUMPDEST POP PUSH1 0x40 DUP3 ADD MLOAD DUP2 PUSH1 0x2 ADD SSTORE SWAP1 POP POP DUP1 DUP1 PUSH3 0x12A SWAP1 PUSH3 0x454 JUMP JUMPDEST SWAP2 POP POP PUSH3 0x7B JUMP JUMPDEST POP POP PUSH3 0x7F8 JUMP JUMPDEST PUSH1 0x0 PUSH1 0x40 MLOAD SWAP1 POP SWAP1 JUMP JUMPDEST PUSH1 0x0 DUP1 REVERT JUMPDEST PUSH1 0x0 DUP1 REVERT JUMPDEST PUSH1 0x0 DUP1 REVERT JUMPDEST PUSH1 0x0 PUSH1 0x1F NOT PUSH1 0x1F DUP4 ADD AND SWAP1 POP SWAP2 SWAP1 POP JUMP JUMPDEST PUSH32 0x4E487B7100000000000000000000000000000000000000000000000000000000 PUSH1 0x0 MSTORE PUSH1 0x41 PUSH1 0x4 MSTORE PUSH1 0x24 PUSH1 0x0 REVERT JUMPDEST PUSH3 0x19F DUP3 PUSH3 0x154 JUMP JUMPDEST DUP2 ADD DUP2 DUP2 LT PUSH8 0xFFFFFFFFFFFFFFFF DUP3 GT OR ISZERO PUSH3 0x1C1 JUMPI PUSH3 0x1C0 PUSH3 0x165 JUMP JUMPDEST JUMPDEST DUP1 PUSH1 0x40 MSTORE POP POP POP JUMP JUMPDEST PUSH1 0x0 PUSH3 0x1D6 PUSH3 0x13B JUMP JUMPDEST SWAP1 POP PUSH3 0x1E4 DUP3 DUP3 PUSH3 0x194 JUMP JUMPDEST SWAP2 SWAP1 POP JUMP JUMPDEST PUSH1 0x0 PUSH8 0xFFFFFFFFFFFFFFFF DUP3 GT ISZERO PUSH3 0x207 JUMPI PUSH3 0x206 PUSH3 0x165 JUMP JUMPDEST JUMPDEST PUSH1 0x20 DUP3 MUL SWAP1 POP PUSH1 0x20 DUP2 ADD SWAP1 POP SWAP2 SWAP1 POP JUMP JUMPDEST PUSH1 0x0 DUP1 REVERT JUMPDEST PUSH1 0x0 DUP1 REVERT JUMPDEST PUSH1 0x0 PUSH8 0xFFFFFFFFFFFFFFFF DUP3 GT ISZERO PUSH3 0x240 JUMPI PUSH3 0x23F PUSH3 0x165 JUMP JUMPDEST JUMPDEST PUSH3 0x24B DUP3 PUSH3 0x154 JUMP JUMPDEST SWAP1 POP PUSH1 0x20 DUP2 ADD SWAP1 POP SWAP2 SWAP1 POP JUMP JUMPDEST PUSH1 0x0 JUMPDEST DUP4 DUP2 LT ISZERO PUSH3 0x278 JUMPI DUP1 DUP3 ADD MLOAD DUP2 DUP5 ADD MSTORE PUSH1 0x20 DUP2 ADD SWAP1 POP PUSH3 0x25B JUMP JUMPDEST PUSH1 0x0 DUP5 DUP5 ADD MSTORE POP POP POP POP JUMP JUMPDEST PUSH1 0x0 PUSH3 0x29B PUSH3 0x295 DUP5 PUSH3 0x222 JUMP JUMPDEST PUSH3 0x1CA JUMP JUMPDEST SWAP1 POP DUP3 DUP2 MSTORE PUSH1 0x20 DUP2 ADD DUP5 DUP5 DUP5 ADD GT ISZERO PUSH3 0x2BA JUMPI PUSH3 0x2B9 PUSH3 0x21D JUMP JUMPDEST JUMPDEST PUSH3 0x2C7 DUP5 DUP3 DUP6 PUSH3 0x258 JUMP JUMPDEST POP SWAP4 SWAP3 POP POP POP JUMP JUMPDEST PUSH1 0x0 DUP3 PUSH1 0x1F DUP4 ADD SLT PUSH3 0x2E7 JUMPI PUSH3 0x2E6 PUSH3 0x14F JUMP JUMPDEST JUMPDEST DUP2 MLOAD PUSH3 0x2F9 DUP5 DUP3 PUSH1 0x20 DUP7 ADD PUSH3 0x284 JUMP JUMPDEST SWAP2 POP POP SWAP3 SWAP2 POP POP JUMP JUMPDEST PUSH1 0x0 PUSH3 0x319 PUSH3 0x313 DUP5 PUSH3 0x1E9 JUMP JUMPDEST PUSH3 0x1CA JUMP JUMPDEST SWAP1 POP DUP1 DUP4 DUP3 MSTORE PUSH1 0x20 DUP3 ADD SWAP1 POP PUSH1 0x20 DUP5 MUL DUP4 ADD DUP6 DUP2 GT ISZERO PUSH3 0x33F JUMPI PUSH3 0x33E PUSH3 0x218 JUMP JUMPDEST JUMPDEST DUP4 JUMPDEST DUP2 DUP2 LT ISZERO PUSH3 0x38D JUMPI DUP1 MLOAD PUSH8 0xFFFFFFFFFFFFFFFF DUP2 GT ISZERO PUSH3 0x368 JUMPI PUSH3 0x367 PUSH3 0x14F JUMP JUMPDEST JUMPDEST DUP1 DUP7 ADD PUSH3 0x377 DUP10 DUP3 PUSH3 0x2CF JUMP JUMPDEST DUP6 MSTORE PUSH1 0x20 DUP6 ADD SWAP5 POP POP POP PUSH1 0x20 DUP2 ADD SWAP1 POP PUSH3 0x341 JUMP JUMPDEST POP POP POP SWAP4 SWAP3 POP POP POP JUMP JUMPDEST PUSH1 0x0 DUP3 PUSH1 0x1F DUP4 ADD SLT PUSH3 0x3AF JUMPI PUSH3 0x3AE PUSH3 0x14F JUMP JUMPDEST JUMPDEST DUP2 MLOAD PUSH3 0x3C1 DUP5 DUP3 PUSH1 0x20 DUP7 ADD PUSH3 0x302 JUMP JUMPDEST SWAP2 POP POP SWAP3 SWAP2 POP POP JUMP JUMPDEST PUSH1 0x0 PUSH1 0x20 DUP3 DUP5 SUB SLT ISZERO PUSH3 0x3E3 JUMPI PUSH3 0x3E2 PUSH3 0x145 JUMP JUMPDEST JUMPDEST PUSH1 0x0 DUP3 ADD MLOAD PUSH8 0xFFFFFFFFFFFFFFFF DUP2 GT ISZERO PUSH3 0x404 JUMPI PUSH3 0x403 PUSH3 0x14A JUMP JUMPDEST JUMPDEST PUSH3 0x412 DUP5 DUP3 DUP6 ADD PUSH3 0x397 JUMP JUMPDEST SWAP2 POP POP SWAP3 SWAP2 POP POP JUMP JUMPDEST PUSH32 0x4E487B7100000000000000000000000000000000000000000000000000000000 PUSH1 0x0 MSTORE PUSH1 0x11 PUSH1 0x4 MSTORE PUSH1 0x24 PUSH1 0x0 REVERT JUMPDEST PUSH1 0x0 DUP2 SWAP1 POP SWAP2 SWAP1 POP JUMP JUMPDEST PUSH1 0x0 PUSH3 0x461 DUP3 PUSH3 0x44A JUMP JUMPDEST SWAP2 POP PUSH32 0xFFFFFFFFFFFFFFFFFFFFFFFFFFFFFFFFFFFFFFFFFFFFFFFFFFFFFFFFFFFFFFFF DUP3 SUB PUSH3 0x496 JUMPI PUSH3 0x495 PUSH3 0x41B JUMP JUMPDEST JUMPDEST PUSH1 0x1 DUP3 ADD SWAP1 POP SWAP2 SWAP1 POP JUMP JUMPDEST PUSH32 0x4E487B7100000000000000000000000000000000000000000000000000000000 PUSH1 0x0 MSTORE PUSH1 0x32 PUSH1 0x4 MSTORE PUSH1 0x24 PUSH1 0x0 REVERT JUMPDEST PUSH1 0x0 DUP2 MLOAD SWAP1 POP SWAP2 SWAP1 POP JUMP JUMPDEST PUSH32 0x4E487B7100000000000000000000000000000000000000000000000000000000 PUSH1 0x0 MSTORE PUSH1 0x22 PUSH1 0x4 MSTORE PUSH1 0x24 PUSH1 0x0 REVERT JUMPDEST PUSH1 0x0 PUSH1 0x2 DUP3 DIV SWAP1 POP PUSH1 0x1 DUP3 AND DUP1 PUSH3 0x523 JUMPI PUSH1 0x7F DUP3 AND SWAP2 POP JUMPDEST PUSH1 0x20 DUP3 LT DUP2 SUB PUSH3 0x539 JUMPI PUSH3 0x538 PUSH3 0x4DB JUMP JUMPDEST JUMPDEST POP SWAP2 SWAP1 POP JUMP JUMPDEST PUSH1 0x0 DUP2 SWAP1 POP DUP2 PUSH1 0x0 MSTORE PUSH1 0x20 PUSH1 0x0 KECCAK256 SWAP1 POP SWAP2 SWAP1 POP JUMP JUMPDEST PUSH1 0x0 PUSH1 0x20 PUSH1 0x1F DUP4 ADD DIV SWAP1 POP SWAP2 SWAP1 POP JUMP JUMPDEST PUSH1 0x0 DUP3 DUP3 SHL SWAP1 POP SWAP3 SWAP2 POP POP JUMP JUMPDEST PUSH1 0x0 PUSH1 0x8 DUP4 MUL PUSH3 0x5A3 PUSH32 0xFFFFFFFFFFFFFFFFFFFFFFFFFFFFFFFFFFFFFFFFFFFFFFFFFFFFFFFFFFFFFFFF DUP3 PUSH3 0x564 JUMP JUMPDEST PUSH3 0x5AF DUP7 DUP4 PUSH3 0x564 JUMP JUMPDEST SWAP6 POP DUP1 NOT DUP5 AND SWAP4 POP DUP1 DUP7 AND DUP5 OR SWAP3 POP POP POP SWAP4 SWAP3 POP POP POP JUMP JUMPDEST PUSH1 0x0 DUP2 SWAP1 POP SWAP2 SWAP1 POP JUMP JUMPDEST PUSH1 0x0 PUSH3 0x5F2 PUSH3 0x5EC PUSH3 0x5E6 DUP5 PUSH3 0x44A JUMP JUMPDEST PUSH3 0x5C7 JUMP JUMPDEST PUSH3 0x44A JUMP JUMPDEST SWAP1 POP SWAP2 SWAP1 POP JUMP JUMPDEST PUSH1 0x0 DUP2 SWAP1 POP SWAP2 SWAP1 POP JUMP JUMPDEST PUSH3 0x60E DUP4 PUSH3 0x5D1 JUMP JUMPDEST PUSH3 0x626 PUSH3 0x61D DUP3 PUSH3 0x5F9 JUMP JUMPDEST DUP5 DUP5 SLOAD PUSH3 0x571 JUMP JUMPDEST DUP3 SSTORE POP POP POP POP JUMP JUMPDEST PUSH1 0x0 SWAP1 JUMP JUMPDEST PUSH3 0x63D PUSH3 0x62E JUMP JUMPDEST PUSH3 0x64A DUP2 DUP5 DUP5 PUSH3 0x603 JUMP JUMPDEST POP POP POP JUMP JUMPDEST JUMPDEST DUP2 DUP2 LT ISZERO PUSH3 0x672 JUMPI PUSH3 0x666 PUSH1 0x0 DUP3 PUSH3 0x633 JUMP JUMPDEST PUSH1 0x1 DUP2 ADD SWAP1 POP PUSH3 0x650 JUMP JUMPDEST POP POP JUMP JUMPDEST PUSH1 0x1F DUP3 GT ISZERO PUSH3 0x6C1 JUMPI PUSH3 0x68B DUP2 PUSH3 0x53F JUMP JUMPDEST PUSH3 0x696 DUP5 PUSH3 0x554 JUMP JUMPDEST DUP2 ADD PUSH1 0x20 DUP6 LT ISZERO PUSH3 0x6A6 JUMPI DUP2 SWAP1 POP JUMPDEST PUSH3 0x6BE PUSH3 0x6B5 DUP6 PUSH3 0x554 JUMP JUMPDEST DUP4 ADD DUP3 PUSH3 0x64F JUMP JUMPDEST POP POP JUMPDEST POP POP POP JUMP JUMPDEST PUSH1 0x0 DUP3 DUP3 SHR SWAP1 POP SWAP3 SWAP2 POP POP JUMP JUMPDEST PUSH1 0x0 PUSH3 0x6E6 PUSH1 0x0 NOT DUP5 PUSH1 0x8 MUL PUSH3 0x6C6 JUMP JUMPDEST NOT DUP1 DUP4 AND SWAP2 POP POP SWAP3 SWAP2 POP POP JUMP JUMPDEST PUSH1 0x0 PUSH3 0x701 DUP4 DUP4 PUSH3 0x6D3 JUMP JUMPDEST SWAP2 POP DUP3 PUSH1 0x2 MUL DUP3 OR SWAP1 POP SWAP3 SWAP2 POP POP JUMP JUMPDEST PUSH3 0x71C DUP3 PUSH3 0x4D0 JUMP JUMPDEST PUSH8 0xFFFFFFFFFFFFFFFF DUP2 GT ISZERO PUSH3 0x738 JUMPI PUSH3 0x737 PUSH3 0x165 JUMP JUMPDEST JUMPDEST PUSH3 0x744 DUP3 SLOAD PUSH3 0x50A JUMP JUMPDEST PUSH3 0x751 DUP3 DUP3 DUP6 PUSH3 0x676 JUMP JUMPDEST PUSH1 0x0 PUSH1 0x20 SWAP1 POP PUSH1 0x1F DUP4 GT PUSH1 0x1 DUP2 EQ PUSH3 0x789 JUMPI PUSH1 0x0 DUP5 ISZERO PUSH3 0x774 JUMPI DUP3 DUP8 ADD MLOAD SWAP1 POP JUMPDEST PUSH3 0x780 DUP6 DUP3 PUSH3 0x6F3 JUMP JUMPDEST DUP7 SSTORE POP PUSH3 0x7F0 JUMP JUMPDEST PUSH1 0x1F NOT DUP5 AND PUSH3 0x799 DUP7 PUSH3 0x53F JUMP JUMPDEST PUSH1 0x0 JUMPDEST DUP3 DUP2 LT ISZERO PUSH3 0x7C3 JUMPI DUP5 DUP10 ADD MLOAD DUP3 SSTORE PUSH1 0x1 DUP3 ADD SWAP2 POP PUSH1 0x20 DUP6 ADD SWAP5 POP PUSH1 0x20 DUP2 ADD SWAP1 POP PUSH3 0x79C JUMP JUMPDEST DUP7 DUP4 LT ISZERO PUSH3 0x7E3 JUMPI DUP5 DUP10 ADD MLOAD PUSH3 0x7DF PUSH1 0x1F DUP10 AND DUP3 PUSH3 0x6D3 JUMP JUMPDEST DUP4 SSTORE POP JUMPDEST PUSH1 0x1 PUSH1 0x2 DUP9 MUL ADD DUP9 SSTORE POP POP POP JUMPDEST POP POP POP POP POP POP JUMP JUMPDEST PUSH2 0xB95 DUP1 PUSH3 0x808 PUSH1 0x0 CODECOPY PUSH1 0x0 RETURN INVALID PUSH1 0x80 PUSH1 0x40 MSTORE CALLVALUE DUP1 ISZERO PUSH2 0x10 JUMPI PUSH1 0x0 DUP1 REVERT JUMPDEST POP PUSH1 0x4 CALLDATASIZE LT PUSH2 0x88 JUMPI PUSH1 0x0 CALLDATALOAD PUSH1 0xE0 SHR DUP1 PUSH4 0x8DA5CB5B GT PUSH2 0x5B JUMPI DUP1 PUSH4 0x8DA5CB5B EQ PUSH2 0x129 JUMPI DUP1 PUSH4 0x8E7EA5B2 EQ PUSH2 0x147 JUMPI DUP1 PUSH4 0xCDD72253 EQ PUSH2 0x166 JUMPI DUP1 PUSH4 0xDA58C7D9 EQ PUSH2 0x184 JUMPI PUSH2 0x88 JUMP JUMPDEST DUP1 PUSH4 0x121B93F EQ PUSH2 0x8D JUMPI DUP1 PUSH4 0x9EEF43E EQ PUSH2 0xA9 JUMPI DUP1 PUSH4 0x2D35A8A2 EQ PUSH2 0xD9 JUMPI DUP1 PUSH4 0x3477EE2E EQ PUSH2 0xF7 JUMPI JUMPDEST PUSH1 0x0 DUP1 REVERT JUMPDEST PUSH2 0xA7 PUSH1 0x4 DUP1 CALLDATASIZE SUB DUP2 ADD SWAP1 PUSH2 0xA2 SWAP2 SWAP1 PUSH2 0x690 JUMP JUMPDEST PUSH2 0x1B4 JUMP JUMPDEST STOP JUMPDEST PUSH2 0xC3 PUSH1 0x4 DUP1 CALLDATASIZE SUB DUP2 ADD SWAP1 PUSH2 0xBE SWAP2 SWAP1 PUSH2 0x71B JUMP JUMPDEST PUSH2 0x37A JUMP JUMPDEST PUSH1 0x40 MLOAD PUSH2 0xD0 SWAP2 SWAP1 PUSH2 0x763 JUMP JUMPDEST PUSH1 0x40 MLOAD DUP1 SWAP2 SUB SWAP1 RETURN JUMPDEST PUSH2 0xE1 PUSH2 0x39A JUMP JUMPDEST PUSH1 0x40 MLOAD PUSH2 0xEE SWAP2 SWAP1 PUSH2 0x78D JUMP JUMPDEST PUSH1 0x40 MLOAD DUP1 SWAP2 SUB SWAP1 RETURN JUMPDEST PUSH2 0x111 PUSH1 0x4 DUP1 CALLDATASIZE SUB DUP2 ADD SWAP1 PUSH2 0x10C SWAP2 SWAP1 PUSH2 0x690 JUMP JUMPDEST PUSH2 0x3A0 JUMP JUMPDEST PUSH1 0x40 MLOAD PUSH2 0x120 SWAP4 SWAP3 SWAP2 SWAP1 PUSH2 0x838 JUMP JUMPDEST PUSH1 0x40 MLOAD DUP1 SWAP2 SUB SWAP1 RETURN JUMPDEST PUSH2 0x131 PUSH2 0x452 JUMP JUMPDEST PUSH1 0x40 MLOAD PUSH2 0x13E SWAP2 SWAP1 PUSH2 0x885 JUMP JUMPDEST PUSH1 0x40 MLOAD DUP1 SWAP2 SUB SWAP1 RETURN JUMPDEST PUSH2 0x14F PUSH2 0x478 JUMP JUMPDEST PUSH1 0x40 MLOAD PUSH2 0x15D SWAP3 SWAP2 SWAP1 PUSH2 0x8A0 JUMP JUMPDEST PUSH1 0x40 MLOAD DUP1 SWAP2 SUB SWAP1 RETURN JUMPDEST PUSH2 0x16E PUSH2 0x588 JUMP JUMPDEST PUSH1 0x40 MLOAD PUSH2 0x17B SWAP2 SWAP1 PUSH2 0x98E JUMP JUMPDEST PUSH1 0x40 MLOAD DUP1 SWAP2 SUB SWAP1 RETURN JUMPDEST PUSH2 0x19E PUSH1 0x4 DUP1 CALLDATASIZE SUB DUP2 ADD SWAP1 PUSH2 0x199 SWAP2 SWAP1 PUSH2 0x690 JUMP JUMPDEST PUSH2 0x616 JUMP JUMPDEST PUSH1 0x40 MLOAD PUSH2 0x1AB SWAP2 SWAP1 PUSH2 0x885 JUMP JUMPDEST PUSH1 0x40 MLOAD DUP1 SWAP2 SUB SWAP1 RETURN JUMPDEST PUSH1 0x1 PUSH1 0x0 CALLER PUSH20 0xFFFFFFFFFFFFFFFFFFFFFFFFFFFFFFFFFFFFFFFF AND PUSH20 0xFFFFFFFFFFFFFFFFFFFFFFFFFFFFFFFFFFFFFFFF AND DUP2 MSTORE PUSH1 0x20 ADD SWAP1 DUP2 MSTORE PUSH1 0x20 ADD PUSH1 0x0 KECCAK256 PUSH1 0x0 SWAP1 SLOAD SWAP1 PUSH2 0x100 EXP SWAP1 DIV PUSH1 0xFF AND ISZERO PUSH2 0x241 JUMPI PUSH1 0x40 MLOAD PUSH32 0x8C379A000000000000000000000000000000000000000000000000000000000 DUP2 MSTORE PUSH1 0x4 ADD PUSH2 0x238 SWAP1 PUSH2 0x9FC JUMP JUMPDEST PUSH1 0x40 MLOAD DUP1 SWAP2 SUB SWAP1 REVERT JUMPDEST PUSH1 0x0 DUP2 GT DUP1 ISZERO PUSH2 0x253 JUMPI POP PUSH1 0x3 SLOAD DUP2 GT ISZERO JUMPDEST PUSH2 0x292 JUMPI PUSH1 0x40 MLOAD PUSH32 0x8C379A000000000000000000000000000000000000000000000000000000000 DUP2 MSTORE PUSH1 0x4 ADD PUSH2 0x289 SWAP1 PUSH2 0xA68 JUMP JUMPDEST PUSH1 0x40 MLOAD DUP1 SWAP2 SUB SWAP1 REVERT JUMPDEST PUSH1 0x1 DUP1 PUSH1 0x0 CALLER PUSH20 0xFFFFFFFFFFFFFFFFFFFFFFFFFFFFFFFFFFFFFFFF AND PUSH20 0xFFFFFFFFFFFFFFFFFFFFFFFFFFFFFFFFFFFFFFFF AND DUP2 MSTORE PUSH1 0x20 ADD SWAP1 DUP2 MSTORE PUSH1 0x20 ADD PUSH1 0x0 KECCAK256 PUSH1 0x0 PUSH2 0x100 EXP DUP2 SLOAD DUP2 PUSH1 0xFF MUL NOT AND SWAP1 DUP4 ISZERO ISZERO MUL OR SWAP1 SSTORE POP PUSH1 0x2 CALLER SWAP1 DUP1 PUSH1 0x1 DUP2 SLOAD ADD DUP1 DUP3 SSTORE DUP1 SWAP2 POP POP PUSH1 0x1 SWAP1 SUB SWAP1 PUSH1 0x0 MSTORE PUSH1 0x20 PUSH1 0x0 KECCAK256 ADD PUSH1 0x0 SWAP1 SWAP2 SWAP1 SWAP2 SWAP1 SWAP2 PUSH2 0x100 EXP DUP2 SLOAD DUP2 PUSH20 0xFFFFFFFFFFFFFFFFFFFFFFFFFFFFFFFFFFFFFFFF MUL NOT AND SWAP1 DUP4 PUSH20 0xFFFFFFFFFFFFFFFFFFFFFFFFFFFFFFFFFFFFFFFF AND MUL OR SWAP1 SSTORE POP PUSH1 0x0 DUP1 DUP3 DUP2 MSTORE PUSH1 0x20 ADD SWAP1 DUP2 MSTORE PUSH1 0x20 ADD PUSH1 0x0 KECCAK256 PUSH1 0x2 ADD PUSH1 0x0 DUP2 SLOAD DUP1 SWAP3 SWAP2 SWAP1 PUSH2 0x372 SWAP1 PUSH2 0xAB7 JUMP JUMPDEST SWAP2 SWAP1 POP SSTORE POP POP JUMP JUMPDEST PUSH1 0x1 PUSH1 0x20 MSTORE DUP1 PUSH1 0x0 MSTORE PUSH1 0x40 PUSH1 0x0 KECCAK256 PUSH1 0x0 SWAP2 POP SLOAD SWAP1 PUSH2 0x100 EXP SWAP1 DIV PUSH1 0xFF AND DUP2 JUMP JUMPDEST PUSH1 0x3 SLOAD DUP2 JUMP JUMPDEST PUSH1 0x0 PUSH1 0x20 MSTORE DUP1 PUSH1 0x0 MSTORE PUSH1 0x40 PUSH1 0x0 KECCAK256 PUSH1 0x0 SWAP2 POP SWAP1 POP DUP1 PUSH1 0x0 ADD SLOAD SWAP1 DUP1 PUSH1 0x1 ADD DUP1 SLOAD PUSH2 0x3C9 SWAP1 PUSH2 0xB2E JUMP JUMPDEST DUP1 PUSH1 0x1F ADD PUSH1 0x20 DUP1 SWAP2 DIV MUL PUSH1 0x20 ADD PUSH1 0x40 MLOAD SWAP1 DUP2 ADD PUSH1 0x40 MSTORE DUP1 SWAP3 SWAP2 SWAP1 DUP2 DUP2 MSTORE PUSH1 0x20 ADD DUP3 DUP1 SLOAD PUSH2 0x3F5 SWAP1 PUSH2 0xB2E JUMP JUMPDEST DUP1 ISZERO PUSH2 0x442 JUMPI DUP1 PUSH1 0x1F LT PUSH2 0x417 JUMPI PUSH2 0x100 DUP1 DUP4 SLOAD DIV MUL DUP4 MSTORE SWAP2 PUSH1 0x20 ADD SWAP2 PUSH2 0x442 JUMP JUMPDEST DUP3 ADD SWAP2 SWAP1 PUSH1 0x0 MSTORE PUSH1 0x20 PUSH1 0x0 KECCAK256 SWAP1 JUMPDEST DUP2 SLOAD DUP2 MSTORE SWAP1 PUSH1 0x1 ADD SWAP1 PUSH1 0x20 ADD DUP1 DUP4 GT PUSH2 0x425 JUMPI DUP3 SWAP1 SUB PUSH1 0x1F AND DUP3 ADD SWAP2 JUMPDEST POP POP POP POP POP SWAP1 DUP1 PUSH1 0x2 ADD SLOAD SWAP1 POP DUP4 JUMP JUMPDEST PUSH1 0x4 PUSH1 0x0 SWAP1 SLOAD SWAP1 PUSH2 0x100 EXP SWAP1 DIV PUSH20 0xFFFFFFFFFFFFFFFFFFFFFFFFFFFFFFFFFFFFFFFF AND DUP2 JUMP JUMPDEST PUSH1 0x60 PUSH1 0x0 DUP1 PUSH1 0x0 SWAP1 POP PUSH1 0x0 DUP1 PUSH1 0x1 SWAP1 POP JUMPDEST PUSH1 0x3 SLOAD DUP2 GT PUSH2 0x4DE JUMPI DUP3 PUSH1 0x0 DUP1 DUP4 DUP2 MSTORE PUSH1 0x20 ADD SWAP1 DUP2 MSTORE PUSH1 0x20 ADD PUSH1 0x0 KECCAK256 PUSH1 0x2 ADD SLOAD GT ISZERO PUSH2 0x4CB JUMPI PUSH1 0x0 DUP1 DUP3 DUP2 MSTORE PUSH1 0x20 ADD SWAP1 DUP2 MSTORE PUSH1 0x20 ADD PUSH1 0x0 KECCAK256 PUSH1 0x2 ADD SLOAD SWAP3 POP DUP1 SWAP2 POP JUMPDEST DUP1 DUP1 PUSH2 0x4D6 SWAP1 PUSH2 0xAB7 JUMP JUMPDEST SWAP2 POP POP PUSH2 0x489 JUMP JUMPDEST POP PUSH1 0x0 DUP1 DUP3 DUP2 MSTORE PUSH1 0x20 ADD SWAP1 DUP2 MSTORE PUSH1 0x20 ADD PUSH1 0x0 KECCAK256 PUSH1 0x1 ADD DUP1 SLOAD PUSH2 0x4FF SWAP1 PUSH2 0xB2E JUMP JUMPDEST DUP1 PUSH1 0x1F ADD PUSH1 0x20 DUP1 SWAP2 DIV MUL PUSH1 0x20 ADD PUSH1 0x40 MLOAD SWAP1 DUP2 ADD PUSH1 0x40 MSTORE DUP1 SWAP3 SWAP2 SWAP1 DUP2 DUP2 MSTORE PUSH1 0x20 ADD DUP3 DUP1 SLOAD PUSH2 0x52B SWAP1 PUSH2 0xB2E JUMP JUMPDEST DUP1 ISZERO PUSH2 0x578 JUMPI DUP1 PUSH1 0x1F LT PUSH2 0x54D JUMPI PUSH2 0x100 DUP1 DUP4 SLOAD DIV MUL DUP4 MSTORE SWAP2 PUSH1 0x20 ADD SWAP2 PUSH2 0x578 JUMP JUMPDEST DUP3 ADD SWAP2 SWAP1 PUSH1 0x0 MSTORE PUSH1 0x20 PUSH1 0x0 KECCAK256 SWAP1 JUMPDEST DUP2 SLOAD DUP2 MSTORE SWAP1 PUSH1 0x1 ADD SWAP1 PUSH1 0x20 ADD DUP1 DUP4 GT PUSH2 0x55B JUMPI DUP3 SWAP1 SUB PUSH1 0x1F AND DUP3 ADD SWAP2 JUMPDEST POP POP POP POP POP SWAP4 POP DUP2 SWAP3 POP POP POP SWAP1 SWAP2 JUMP JUMPDEST PUSH1 0x60 PUSH1 0x2 DUP1 SLOAD DUP1 PUSH1 0x20 MUL PUSH1 0x20 ADD PUSH1 0x40 MLOAD SWAP1 DUP2 ADD PUSH1 0x40 MSTORE DUP1 SWAP3 SWAP2 SWAP1 DUP2 DUP2 MSTORE PUSH1 0x20 ADD DUP3 DUP1 SLOAD DUP1 ISZERO PUSH2 0x60C JUMPI PUSH1 0x20 MUL DUP3 ADD SWAP2 SWAP1 PUSH1 0x0 MSTORE PUSH1 0x20 PUSH1 0x0 KECCAK256 SWAP1 JUMPDEST DUP2 PUSH1 0x0 SWAP1 SLOAD SWAP1 PUSH2 0x100 EXP SWAP1 DIV PUSH20 0xFFFFFFFFFFFFFFFFFFFFFFFFFFFFFFFFFFFFFFFF AND PUSH20 0xFFFFFFFFFFFFFFFFFFFFFFFFFFFFFFFFFFFFFFFF AND DUP2 MSTORE PUSH1 0x20 ADD SWAP1 PUSH1 0x1 ADD SWAP1 DUP1 DUP4 GT PUSH2 0x5C2 JUMPI JUMPDEST POP POP POP POP POP SWAP1 POP SWAP1 JUMP JUMPDEST PUSH1 0x2 DUP2 DUP2 SLOAD DUP2 LT PUSH2 0x626 JUMPI PUSH1 0x0 DUP1 REVERT JUMPDEST SWAP1 PUSH1 0x0 MSTORE PUSH1 0x20 PUSH1 0x0 KECCAK256 ADD PUSH1 0x0 SWAP2 POP SLOAD SWAP1 PUSH2 0x100 EXP SWAP1 DIV PUSH20 0xFFFFFFFFFFFFFFFFFFFFFFFFFFFFFFFFFFFFFFFF AND DUP2 JUMP JUMPDEST PUSH1 0x0 DUP1 REVERT JUMPDEST PUSH1 0x0 DUP2 SWAP1 POP SWAP2 SWAP1 POP JUMP JUMPDEST PUSH2 0x66D DUP2 PUSH2 0x65A JUMP JUMPDEST DUP2 EQ PUSH2 0x678 JUMPI PUSH1 0x0 DUP1 REVERT JUMPDEST POP JUMP JUMPDEST PUSH1 0x0 DUP2 CALLDATALOAD SWAP1 POP PUSH2 0x68A DUP2 PUSH2 0x664 JUMP JUMPDEST SWAP3 SWAP2 POP POP JUMP JUMPDEST PUSH1 0x0 PUSH1 0x20 DUP3 DUP5 SUB SLT ISZERO PUSH2 0x6A6 JUMPI PUSH2 0x6A5 PUSH2 0x655 JUMP JUMPDEST JUMPDEST PUSH1 0x0 PUSH2 0x6B4 DUP5 DUP3 DUP6 ADD PUSH2 0x67B JUMP JUMPDEST SWAP2 POP POP SWAP3 SWAP2 POP POP JUMP JUMPDEST PUSH1 0x0 PUSH20 0xFFFFFFFFFFFFFFFFFFFFFFFFFFFFFFFFFFFFFFFF DUP3 AND SWAP1 POP SWAP2 SWAP1 POP JUMP JUMPDEST PUSH1 0x0 PUSH2 0x6E8 DUP3 PUSH2 0x6BD JUMP JUMPDEST SWAP1 POP SWAP2 SWAP1 POP JUMP JUMPDEST PUSH2 0x6F8 DUP2 PUSH2 0x6DD JUMP JUMPDEST DUP2 EQ PUSH2 0x703 JUMPI PUSH1 0x0 DUP1 REVERT JUMPDEST POP JUMP JUMPDEST PUSH1 0x0 DUP2 CALLDATALOAD SWAP1 POP PUSH2 0x715 DUP2 PUSH2 0x6EF JUMP JUMPDEST SWAP3 SWAP2 POP POP JUMP JUMPDEST PUSH1 0x0 PUSH1 0x20 DUP3 DUP5 SUB SLT ISZERO PUSH2 0x731 JUMPI PUSH2 0x730 PUSH2 0x655 JUMP JUMPDEST JUMPDEST PUSH1 0x0 PUSH2 0x73F DUP5 DUP3 DUP6 ADD PUSH2 0x706 JUMP JUMPDEST SWAP2 POP POP SWAP3 SWAP2 POP POP JUMP JUMPDEST PUSH1 0x0 DUP2 ISZERO ISZERO SWAP1 POP SWAP2 SWAP1 POP JUMP JUMPDEST PUSH2 0x75D DUP2 PUSH2 0x748 JUMP JUMPDEST DUP3 MSTORE POP POP JUMP JUMPDEST PUSH1 0x0 PUSH1 0x20 DUP3 ADD SWAP1 POP PUSH2 0x778 PUSH1 0x0 DUP4 ADD DUP5 PUSH2 0x754 JUMP JUMPDEST SWAP3 SWAP2 POP POP JUMP JUMPDEST PUSH2 0x787 DUP2 PUSH2 0x65A JUMP JUMPDEST DUP3 MSTORE POP POP JUMP JUMPDEST PUSH1 0x0 PUSH1 0x20 DUP3 ADD SWAP1 POP PUSH2 0x7A2 PUSH1 0x0 DUP4 ADD DUP5 PUSH2 0x77E JUMP JUMPDEST SWAP3 SWAP2 POP POP JUMP JUMPDEST PUSH1 0x0 DUP2 MLOAD SWAP1 POP SWAP2 SWAP1 POP JUMP JUMPDEST PUSH1 0x0 DUP3 DUP3 MSTORE PUSH1 0x20 DUP3 ADD SWAP1 POP SWAP3 SWAP2 POP POP JUMP JUMPDEST PUSH1 0x0 JUMPDEST DUP4 DUP2 LT ISZERO PUSH2 0x7E2 JUMPI DUP1 DUP3 ADD MLOAD DUP2 DUP5 ADD MSTORE PUSH1 0x20 DUP2 ADD SWAP1 POP PUSH2 0x7C7 JUMP JUMPDEST PUSH1 0x0 DUP5 DUP5 ADD MSTORE POP POP POP POP JUMP JUMPDEST PUSH1 0x0 PUSH1 0x1F NOT PUSH1 0x1F DUP4 ADD AND SWAP1 POP SWAP2 SWAP1 POP JUMP JUMPDEST PUSH1 0x0 PUSH2 0x80A DUP3 PUSH2 0x7A8 JUMP JUMPDEST PUSH2 0x814 DUP2 DUP6 PUSH2 0x7B3 JUMP JUMPDEST SWAP4 POP PUSH2 0x824 DUP2 DUP6 PUSH1 0x20 DUP7 ADD PUSH2 0x7C4 JUMP JUMPDEST PUSH2 0x82D DUP2 PUSH2 0x7EE JUMP JUMPDEST DUP5 ADD SWAP2 POP POP SWAP3 SWAP2 POP POP JUMP JUMPDEST PUSH1 0x0 PUSH1 0x60 DUP3 ADD SWAP1 POP PUSH2 0x84D PUSH1 0x0 DUP4 ADD DUP7 PUSH2 0x77E JUMP JUMPDEST DUP2 DUP2 SUB PUSH1 0x20 DUP4 ADD MSTORE PUSH2 0x85F DUP2 DUP6 PUSH2 0x7FF JUMP JUMPDEST SWAP1 POP PUSH2 0x86E PUSH1 0x40 DUP4 ADD DUP5 PUSH2 0x77E JUMP JUMPDEST SWAP5 SWAP4 POP POP POP POP JUMP JUMPDEST PUSH2 0x87F DUP2 PUSH2 0x6DD JUMP JUMPDEST DUP3 MSTORE POP POP JUMP JUMPDEST PUSH1 0x0 PUSH1 0x20 DUP3 ADD SWAP1 POP PUSH2 0x89A PUSH1 0x0 DUP4 ADD DUP5 PUSH2 0x876 JUMP JUMPDEST SWAP3 SWAP2 POP POP JUMP JUMPDEST PUSH1 0x0 PUSH1 0x40 DUP3 ADD SWAP1 POP DUP2 DUP2 SUB PUSH1 0x0 DUP4 ADD MSTORE PUSH2 0x8BA DUP2 DUP6 PUSH2 0x7FF JUMP JUMPDEST SWAP1 POP PUSH2 0x8C9 PUSH1 0x20 DUP4 ADD DUP5 PUSH2 0x77E JUMP JUMPDEST SWAP4 SWAP3 POP POP POP JUMP JUMPDEST PUSH1 0x0 DUP2 MLOAD SWAP1 POP SWAP2 SWAP1 POP JUMP JUMPDEST PUSH1 0x0 DUP3 DUP3 MSTORE PUSH1 0x20 DUP3 ADD SWAP1 POP SWAP3 SWAP2 POP POP JUMP JUMPDEST PUSH1 0x0 DUP2 SWAP1 POP PUSH1 0x20 DUP3 ADD SWAP1 POP SWAP2 SWAP1 POP JUMP JUMPDEST PUSH2 0x905 DUP2 PUSH2 0x6DD JUMP JUMPDEST DUP3 MSTORE POP POP JUMP JUMPDEST PUSH1 0x0 PUSH2 0x917 DUP4 DUP4 PUSH2 0x8FC JUMP JUMPDEST PUSH1 0x20 DUP4 ADD SWAP1 POP SWAP3 SWAP2 POP POP JUMP JUMPDEST PUSH1 0x0 PUSH1 0x20 DUP3 ADD SWAP1 POP SWAP2 SWAP1 POP JUMP JUMPDEST PUSH1 0x0 PUSH2 0x93B DUP3 PUSH2 0x8D0 JUMP JUMPDEST PUSH2 0x945 DUP2 DUP6 PUSH2 0x8DB JUMP JUMPDEST SWAP4 POP PUSH2 0x950 DUP4 PUSH2 0x8EC JUMP JUMPDEST DUP1 PUSH1 0x0 JUMPDEST DUP4 DUP2 LT ISZERO PUSH2 0x981 JUMPI DUP2 MLOAD PUSH2 0x968 DUP9 DUP3 PUSH2 0x90B JUMP JUMPDEST SWAP8 POP PUSH2 0x973 DUP4 PUSH2 0x923 JUMP JUMPDEST SWAP3 POP POP PUSH1 0x1 DUP2 ADD SWAP1 POP PUSH2 0x954 JUMP JUMPDEST POP DUP6 SWAP4 POP POP POP POP SWAP3 SWAP2 POP POP JUMP JUMPDEST PUSH1 0x0 PUSH1 0x20 DUP3 ADD SWAP1 POP DUP2 DUP2 SUB PUSH1 0x0 DUP4 ADD MSTORE PUSH2 0x9A8 DUP2 DUP5 PUSH2 0x930 JUMP JUMPDEST SWAP1 POP SWAP3 SWAP2 POP POP JUMP JUMPDEST PUSH32 0x416C726561647920766F74656400000000000000000000000000000000000000 PUSH1 0x0 DUP3 ADD MSTORE POP JUMP JUMPDEST PUSH1 0x0 PUSH2 0x9E6 PUSH1 0xD DUP4 PUSH2 0x7B3 JUMP JUMPDEST SWAP2 POP PUSH2 0x9F1 DUP3 PUSH2 0x9B0 JUMP JUMPDEST PUSH1 0x20 DUP3 ADD SWAP1 POP SWAP2 SWAP1 POP JUMP JUMPDEST PUSH1 0x0 PUSH1 0x20 DUP3 ADD SWAP1 POP DUP2 DUP2 SUB PUSH1 0x0 DUP4 ADD MSTORE PUSH2 0xA15 DUP2 PUSH2 0x9D9 JUMP JUMPDEST SWAP1 POP SWAP2 SWAP1 POP JUMP JUMPDEST PUSH32 0x496E76616C69642063616E646964617465000000000000000000000000000000 PUSH1 0x0 DUP3 ADD MSTORE POP JUMP JUMPDEST PUSH1 0x0 PUSH2 0xA52 PUSH1 0x11 DUP4 PUSH2 0x7B3 JUMP JUMPDEST SWAP2 POP PUSH2 0xA5D DUP3 PUSH2 0xA1C JUMP JUMPDEST PUSH1 0x20 DUP3 ADD SWAP1 POP SWAP2 SWAP1 POP JUMP JUMPDEST PUSH1 0x0 PUSH1 0x20 DUP3 ADD SWAP1 POP DUP2 DUP2 SUB PUSH1 0x0 DUP4 ADD MSTORE PUSH2 0xA81 DUP2 PUSH2 0xA45 JUMP JUMPDEST SWAP1 POP SWAP2 SWAP1 POP JUMP JUMPDEST PUSH32 0x4E487B7100000000000000000000000000000000000000000000000000000000 PUSH1 0x0 MSTORE PUSH1 0x11 PUSH1 0x4 MSTORE PUSH1 0x24 PUSH1 0x0 REVERT JUMPDEST PUSH1 0x0 PUSH2 0xAC2 DUP3 PUSH2 0x65A JUMP JUMPDEST SWAP2 POP PUSH32 0xFFFFFFFFFFFFFFFFFFFFFFFFFFFFFFFFFFFFFFFFFFFFFFFFFFFFFFFFFFFFFFFF DUP3 SUB PUSH2 0xAF4 JUMPI PUSH2 0xAF3 PUSH2 0xA88 JUMP JUMPDEST JUMPDEST PUSH1 0x1 DUP3 ADD SWAP1 POP SWAP2 SWAP1 POP JUMP JUMPDEST PUSH32 0x4E487B7100000000000000000000000000000000000000000000000000000000 PUSH1 0x0 MSTORE PUSH1 0x22 PUSH1 0x4 MSTORE PUSH1 0x24 PUSH1 0x0 REVERT JUMPDEST PUSH1 0x0 PUSH1 0x2 DUP3 DIV SWAP1 POP PUSH1 0x1 DUP3 AND DUP1 PUSH2 0xB46 JUMPI PUSH1 0x7F DUP3 AND SWAP2 POP JUMPDEST PUSH1 0x20 DUP3 LT DUP2 SUB PUSH2 0xB59 JUMPI PUSH2 0xB58 PUSH2 0xAFF JUMP JUMPDEST JUMPDEST POP SWAP2 SWAP1 POP JUMP INVALID LOG2 PUSH5 0x6970667358 0x22 SLT KECCAK256 0xE BALANCE 0xD4 0xB4 DUP3 0xEE 0xA8 CALLVALUE 0xDF MOD 0xF8 0xBA SWAP14 SWAP6 DUP10 SWAP16 MULMOD POP DUP15 ADDMOD MSTORE8 SHR PUSH23 0x68A32CBF8FB8E1840E64736F6C63430008120033000000 "
				},
				"gasEstimates": {
					"creation": {
						"codeDepositCost": "593000",
						"executionCost": "infinite",
						"totalCost": "infinite"
					},
					"external": {
						"candidates(uint256)": "infinite",
						"candidatesCount()": "2474",
						"getVoters()": "infinite",
						"getWinner()": "infinite",
						"hasVoted(address)": "2868",
						"owner()": "2514",
						"vote(uint256)": "infinite",
						"voters(uint256)": "5022"
					}
				},
				"methodIdentifiers": {
					"candidates(uint256)": "3477ee2e",
					"candidatesCount()": "2d35a8a2",
					"getVoters()": "cdd72253",
					"getWinner()": "8e7ea5b2",
					"hasVoted(address)": "09eef43e",
					"owner()": "8da5cb5b",
					"vote(uint256)": "0121b93f",
					"voters(uint256)": "da58c7d9"
				}
			},
			"storageLayout": {
				"storage": [
					{
						"astId": 13,
						"contract": "voting_dapp.sol:VotingSystem",
						"label": "candidates",
						"offset": 0,
						"slot": "0",
						"type": "t_mapping(t_uint256,t_struct(Candidate)8_storage)"
					},
					{
						"astId": 17,
						"contract": "voting_dapp.sol:VotingSystem",
						"label": "hasVoted",
						"offset": 0,
						"slot": "1",
						"type": "t_mapping(t_address,t_bool)"
					},
					{
						"astId": 20,
						"contract": "voting_dapp.sol:VotingSystem",
						"label": "voters",
						"offset": 0,
						"slot": "2",
						"type": "t_array(t_address)dyn_storage"
					},
					{
						"astId": 22,
						"contract": "voting_dapp.sol:VotingSystem",
						"label": "candidatesCount",
						"offset": 0,
						"slot": "3",
						"type": "t_uint256"
					},
					{
						"astId": 24,
						"contract": "voting_dapp.sol:VotingSystem",
						"label": "owner",
						"offset": 0,
						"slot": "4",
						"type": "t_address"
					}
				],
				"types": {
					"t_address": {
						"encoding": "inplace",
						"label": "address",
						"numberOfBytes": "20"
					},
					"t_array(t_address)dyn_storage": {
						"base": "t_address",
						"encoding": "dynamic_array",
						"label": "address[]",
						"numberOfBytes": "32"
					},
					"t_bool": {
						"encoding": "inplace",
						"label": "bool",
						"numberOfBytes": "1"
					},
					"t_mapping(t_address,t_bool)": {
						"encoding": "mapping",
						"key": "t_address",
						"label": "mapping(address => bool)",
						"numberOfBytes": "32",
						"value": "t_bool"
					},
					"t_mapping(t_uint256,t_struct(Candidate)8_storage)": {
						"encoding": "mapping",
						"key": "t_uint256",
						"label": "mapping(uint256 => struct VotingSystem.Candidate)",
						"numberOfBytes": "32",
						"value": "t_struct(Candidate)8_storage"
					},
					"t_string_storage": {
						"encoding": "bytes",
						"label": "string",
						"numberOfBytes": "32"
					},
					"t_struct(Candidate)8_storage": {
						"encoding": "inplace",
						"label": "struct VotingSystem.Candidate",
						"members": [
							{
								"astId": 3,
								"contract": "voting_dapp.sol:VotingSystem",
								"label": "id",
								"offset": 0,
								"slot": "0",
								"type": "t_uint256"
							},
							{
								"astId": 5,
								"contract": "voting_dapp.sol:VotingSystem",
								"label": "name",
								"offset": 0,
								"slot": "1",
								"type": "t_string_storage"
							},
							{
								"astId": 7,
								"contract": "voting_dapp.sol:VotingSystem",
								"label": "voteCount",
								"offset": 0,
								"slot": "2",
								"type": "t_uint256"
							}
						],
						"numberOfBytes": "96"
					},
					"t_uint256": {
						"encoding": "inplace",
						"label": "uint256",
						"numberOfBytes": "32"
					}
				}
			},
			"userdoc": {
				"kind": "user",
				"methods": {},
				"version": 1
			}
		}
	}
}