{
	"D_Room.sol": {
		"Room": {
			"abi": [
				{
					"inputs": [],
					"name": "DURATION",
					"outputs": [
						{
							"internalType": "uint256",
							"name": "",
							"type": "uint256"
						}
					],
					"stateMutability": "view",
					"type": "function"
				},
				{
					"inputs": [],
					"name": "MAX_TWEET_LENGTH",
					"outputs": [
						{
							"internalType": "uint16",
							"name": "",
							"type": "uint16"
						}
					],
					"stateMutability": "view",
					"type": "function"
				},
				{
					"inputs": [
						{
							"internalType": "uint256",
							"name": "",
							"type": "uint256"
						}
					],
					"name": "allTweets",
					"outputs": [
						{
							"internalType": "uint256",
							"name": "id",
							"type": "uint256"
						},
						{
							"internalType": "address",
							"name": "author",
							"type": "address"
						},
						{
							"internalType": "string",
							"name": "content",
							"type": "string"
						},
						{
							"internalType": "uint256",
							"name": "timestamp",
							"type": "uint256"
						},
						{
							"internalType": "uint256",
							"name": "likes",
							"type": "uint256"
						}
					],
					"stateMutability": "view",
					"type": "function"
				},
				{
					"inputs": [
						{
							"internalType": "string",
							"name": "_tweet",
							"type": "string"
						}
					],
					"name": "createTweet",
					"outputs": [],
					"stateMutability": "nonpayable",
					"type": "function"
				},
				{
					"inputs": [
						{
							"internalType": "uint256",
							"name": "_id",
							"type": "uint256"
						}
					],
					"name": "dislikeTweet",
					"outputs": [],
					"stateMutability": "nonpayable",
					"type": "function"
				},
				{
					"inputs": [],
					"name": "endTime",
					"outputs": [
						{
							"internalType": "uint256",
							"name": "",
							"type": "uint256"
						}
					],
					"stateMutability": "view",
					"type": "function"
				},
				{
					"inputs": [],
					"name": "getAllTweets",
					"outputs": [
						{
							"components": [
								{
									"internalType": "uint256",
									"name": "id",
									"type": "uint256"
								},
								{
									"internalType": "address",
									"name": "author",
									"type": "address"
								},
								{
									"internalType": "string",
									"name": "content",
									"type": "string"
								},
								{
									"internalType": "uint256",
									"name": "timestamp",
									"type": "uint256"
								},
								{
									"internalType": "uint256",
									"name": "likes",
									"type": "uint256"
								}
							],
							"internalType": "struct Room.Tweet[]",
							"name": "",
							"type": "tuple[]"
						}
					],
					"stateMutability": "view",
					"type": "function"
				},
				{
					"inputs": [],
					"name": "getRemainingTime",
					"outputs": [
						{
							"internalType": "uint256",
							"name": "",
							"type": "uint256"
						}
					],
					"stateMutability": "view",
					"type": "function"
				},
				{
					"inputs": [],
					"name": "isRoomActive",
					"outputs": [
						{
							"internalType": "bool",
							"name": "",
							"type": "bool"
						}
					],
					"stateMutability": "view",
					"type": "function"
				},
				{
					"inputs": [
						{
							"internalType": "uint256",
							"name": "_id",
							"type": "uint256"
						}
					],
					"name": "likeTweet",
					"outputs": [],
					"stateMutability": "nonpayable",
					"type": "function"
				},
				{
					"inputs": [],
					"name": "startTime",
					"outputs": [
						{
							"internalType": "uint256",
							"name": "",
							"type": "uint256"
						}
					],
					"stateMutability": "view",
					"type": "function"
				}
			],
			"devdoc": {
				"kind": "dev",
				"methods": {},
				"version": 1
			},
			"evm": {
				"assembly": "    /* \"D_Room.sol\":60:2391  contract Room {... */\n  mstore(0x40, 0x80)\n    /* \"D_Room.sol\":116:119  280 */\n  0x0118\n    /* \"D_Room.sol\":83:119  uint16 public MAX_TWEET_LENGTH = 280 */\n  0x00\n  dup1\n  0x0100\n  exp\n  dup2\n  sload\n  dup2\n  0xffff\n  mul\n  not\n  and\n  swap1\n  dup4\n  0xffff\n  and\n  mul\n  or\n  swap1\n  sstore\n  pop\n    /* \"D_Room.sol\":60:2391  contract Room {... */\n  callvalue\n  dup1\n  iszero\n  tag_1\n  jumpi\n  0x00\n  dup1\n  revert\ntag_1:\n  pop\n  dataSize(sub_0)\n  dup1\n  dataOffset(sub_0)\n  0x00\n  codecopy\n  0x00\n  return\nstop\n\nsub_0: assembly {\n        /* \"D_Room.sol\":60:2391  contract Room {... */\n      mstore(0x40, 0x80)\n      callvalue\n      dup1\n      iszero\n      tag_1\n      jumpi\n      0x00\n      dup1\n      revert\n    tag_1:\n      pop\n      jumpi(tag_2, lt(calldatasize, 0x04))\n      shr(0xe0, calldataload(0x00))\n      dup1\n      0x6eb10797\n      gt\n      tag_14\n      jumpi\n      dup1\n      0x6eb10797\n      eq\n      tag_8\n      jumpi\n      dup1\n      0x78e97925\n      eq\n      tag_9\n      jumpi\n      dup1\n      0x7c9cd2bc\n      eq\n      tag_10\n      jumpi\n      dup1\n      0xc5dce068\n      eq\n      tag_11\n      jumpi\n      dup1\n      0xe28350b7\n      eq\n      tag_12\n      jumpi\n      dup1\n      0xefb98bcf\n      eq\n      tag_13\n      jumpi\n      jump(tag_2)\n    tag_14:\n      dup1\n      0x1be05289\n      eq\n      tag_3\n      jumpi\n      dup1\n      0x21511a44\n      eq\n      tag_4\n      jumpi\n      dup1\n      0x3197cbb6\n      eq\n      tag_5\n      jumpi\n      dup1\n      0x53256135\n      eq\n      tag_6\n      jumpi\n      dup1\n      0x5ffc6ceb\n      eq\n      tag_7\n      jumpi\n    tag_2:\n      0x00\n      dup1\n      revert\n        /* \"D_Room.sol\":188:233  uint256 public constant DURATION = 30 minutes */\n    tag_3:\n      tag_15\n      tag_16\n      jump\t// in\n    tag_15:\n      mload(0x40)\n      tag_17\n      swap2\n      swap1\n      tag_18\n      jump\t// in\n    tag_17:\n      mload(0x40)\n      dup1\n      swap2\n      sub\n      swap1\n      return\n        /* \"D_Room.sol\":2024:2242  function dislikeTweet(uint _id) public onlyActive {... */\n    tag_4:\n      tag_19\n      0x04\n      dup1\n      calldatasize\n      sub\n      dup2\n      add\n      swap1\n      tag_20\n      swap2\n      swap1\n      tag_21\n      jump\t// in\n    tag_20:\n      tag_22\n      jump\t// in\n    tag_19:\n      stop\n        /* \"D_Room.sol\":159:181  uint256 public endTime */\n    tag_5:\n      tag_23\n      tag_24\n      jump\t// in\n    tag_23:\n      mload(0x40)\n      tag_25\n      swap2\n      swap1\n      tag_18\n      jump\t// in\n    tag_25:\n      mload(0x40)\n      dup1\n      swap2\n      sub\n      swap1\n      return\n        /* \"D_Room.sol\":2292:2388  function getAllTweets() public view returns (Tweet[] memory) {... */\n    tag_6:\n      tag_26\n      tag_27\n      jump\t// in\n    tag_26:\n      mload(0x40)\n      tag_28\n      swap2\n      swap1\n      tag_29\n      jump\t// in\n    tag_28:\n      mload(0x40)\n      dup1\n      swap2\n      sub\n      swap1\n      return\n        /* \"D_Room.sol\":1833:1982  function likeTweet(uint _id) public onlyActive {... */\n    tag_7:\n      tag_30\n      0x04\n      dup1\n      calldatasize\n      sub\n      dup2\n      add\n      swap1\n      tag_31\n      swap2\n      swap1\n      tag_21\n      jump\t// in\n    tag_31:\n      tag_32\n      jump\t// in\n    tag_30:\n      stop\n        /* \"D_Room.sol\":83:119  uint16 public MAX_TWEET_LENGTH = 280 */\n    tag_8:\n      tag_33\n      tag_34\n      jump\t// in\n    tag_33:\n      mload(0x40)\n      tag_35\n      swap2\n      swap1\n      tag_36\n      jump\t// in\n    tag_35:\n      mload(0x40)\n      dup1\n      swap2\n      sub\n      swap1\n      return\n        /* \"D_Room.sol\":128:152  uint256 public startTime */\n    tag_9:\n      tag_37\n      tag_38\n      jump\t// in\n    tag_37:\n      mload(0x40)\n      tag_39\n      swap2\n      swap1\n      tag_18\n      jump\t// in\n    tag_39:\n      mload(0x40)\n      dup1\n      swap2\n      sub\n      swap1\n      return\n        /* \"D_Room.sol\":1170:1794  function createTweet(string memory _tweet) public {... */\n    tag_10:\n      tag_40\n      0x04\n      dup1\n      calldatasize\n      sub\n      dup2\n      add\n      swap1\n      tag_41\n      swap2\n      swap1\n      tag_42\n      jump\t// in\n    tag_41:\n      tag_43\n      jump\t// in\n    tag_40:\n      stop\n        /* \"D_Room.sol\":471:662  function isRoomActive() public view returns (bool) {... */\n    tag_11:\n      tag_44\n      tag_45\n      jump\t// in\n    tag_44:\n      mload(0x40)\n      tag_46\n      swap2\n      swap1\n      tag_47\n      jump\t// in\n    tag_46:\n      mload(0x40)\n      dup1\n      swap2\n      sub\n      swap1\n      return\n        /* \"D_Room.sol\":391:415  Tweet[] public allTweets */\n    tag_12:\n      tag_48\n      0x04\n      dup1\n      calldatasize\n      sub\n      dup2\n      add\n      swap1\n      tag_49\n      swap2\n      swap1\n      tag_21\n      jump\t// in\n    tag_49:\n      tag_50\n      jump\t// in\n    tag_48:\n      mload(0x40)\n      tag_51\n      swap6\n      swap5\n      swap4\n      swap3\n      swap2\n      swap1\n      tag_52\n      jump\t// in\n    tag_51:\n      mload(0x40)\n      dup1\n      swap2\n      sub\n      swap1\n      return\n        /* \"D_Room.sol\":740:1021  function getRemainingTime() public view returns (uint256) {... */\n    tag_13:\n      tag_53\n      tag_54\n      jump\t// in\n    tag_53:\n      mload(0x40)\n      tag_55\n      swap2\n      swap1\n      tag_18\n      jump\t// in\n    tag_55:\n      mload(0x40)\n      dup1\n      swap2\n      sub\n      swap1\n      return\n        /* \"D_Room.sol\":188:233  uint256 public constant DURATION = 30 minutes */\n    tag_16:\n        /* \"D_Room.sol\":223:233  30 minutes */\n      0x0708\n        /* \"D_Room.sol\":188:233  uint256 public constant DURATION = 30 minutes */\n      dup2\n      jump\t// out\n        /* \"D_Room.sol\":2024:2242  function dislikeTweet(uint _id) public onlyActive {... */\n    tag_22:\n        /* \"D_Room.sol\":1070:1084  isRoomActive() */\n      tag_57\n        /* \"D_Room.sol\":1070:1082  isRoomActive */\n      tag_45\n        /* \"D_Room.sol\":1070:1084  isRoomActive() */\n      jump\t// in\n    tag_57:\n        /* \"D_Room.sol\":1062:1103  require(isRoomActive(), \"Room is closed\") */\n      tag_58\n      jumpi\n      mload(0x40)\n      0x08c379a000000000000000000000000000000000000000000000000000000000\n      dup2\n      mstore\n      0x04\n      add\n      tag_59\n      swap1\n      tag_60\n      jump\t// in\n    tag_59:\n      mload(0x40)\n      dup1\n      swap2\n      sub\n      swap1\n      revert\n    tag_58:\n        /* \"D_Room.sol\":2099:2108  allTweets */\n      0x03\n        /* \"D_Room.sol\":2099:2115  allTweets.length */\n      dup1\n      sload\n      swap1\n      pop\n        /* \"D_Room.sol\":2093:2096  _id */\n      dup2\n        /* \"D_Room.sol\":2093:2115  _id < allTweets.length */\n      lt\n        /* \"D_Room.sol\":2085:2135  require(_id < allTweets.length, \"Tweet not found\") */\n      tag_62\n      jumpi\n      mload(0x40)\n      0x08c379a000000000000000000000000000000000000000000000000000000000\n      dup2\n      mstore\n      0x04\n      add\n      tag_63\n      swap1\n      tag_64\n      jump\t// in\n    tag_63:\n      mload(0x40)\n      dup1\n      swap2\n      sub\n      swap1\n      revert\n    tag_62:\n        /* \"D_Room.sol\":2177:2178  0 */\n      0x00\n        /* \"D_Room.sol\":2154:2163  allTweets */\n      0x03\n        /* \"D_Room.sol\":2164:2167  _id */\n      dup3\n        /* \"D_Room.sol\":2154:2168  allTweets[_id] */\n      dup2\n      sload\n      dup2\n      lt\n      tag_65\n      jumpi\n      tag_66\n      tag_67\n      jump\t// in\n    tag_66:\n    tag_65:\n      swap1\n      0x00\n      mstore\n      keccak256(0x00, 0x20)\n      swap1\n      0x05\n      mul\n      add\n        /* \"D_Room.sol\":2154:2174  allTweets[_id].likes */\n      0x04\n      add\n      sload\n        /* \"D_Room.sol\":2154:2178  allTweets[_id].likes > 0 */\n      gt\n        /* \"D_Room.sol\":2146:2201  require(allTweets[_id].likes > 0, \"No likes to remove\") */\n      tag_69\n      jumpi\n      mload(0x40)\n      0x08c379a000000000000000000000000000000000000000000000000000000000\n      dup2\n      mstore\n      0x04\n      add\n      tag_70\n      swap1\n      tag_71\n      jump\t// in\n    tag_70:\n      mload(0x40)\n      dup1\n      swap2\n      sub\n      swap1\n      revert\n    tag_69:\n        /* \"D_Room.sol\":2212:2221  allTweets */\n      0x03\n        /* \"D_Room.sol\":2222:2225  _id */\n      dup2\n        /* \"D_Room.sol\":2212:2226  allTweets[_id] */\n      dup2\n      sload\n      dup2\n      lt\n      tag_72\n      jumpi\n      tag_73\n      tag_67\n      jump\t// in\n    tag_73:\n    tag_72:\n      swap1\n      0x00\n      mstore\n      keccak256(0x00, 0x20)\n      swap1\n      0x05\n      mul\n      add\n        /* \"D_Room.sol\":2212:2232  allTweets[_id].likes */\n      0x04\n      add\n      0x00\n        /* \"D_Room.sol\":2212:2234  allTweets[_id].likes-- */\n      dup2\n      sload\n      dup1\n      swap3\n      swap2\n      swap1\n      tag_75\n      swap1\n      tag_76\n      jump\t// in\n    tag_75:\n      swap2\n      swap1\n      pop\n      sstore\n      pop\n        /* \"D_Room.sol\":2024:2242  function dislikeTweet(uint _id) public onlyActive {... */\n      pop\n      jump\t// out\n        /* \"D_Room.sol\":159:181  uint256 public endTime */\n    tag_24:\n      sload(0x02)\n      dup2\n      jump\t// out\n        /* \"D_Room.sol\":2292:2388  function getAllTweets() public view returns (Tweet[] memory) {... */\n    tag_27:\n        /* \"D_Room.sol\":2337:2351  Tweet[] memory */\n      0x60\n        /* \"D_Room.sol\":2371:2380  allTweets */\n      0x03\n        /* \"D_Room.sol\":2364:2380  return allTweets */\n      dup1\n      sload\n      dup1\n      0x20\n      mul\n      0x20\n      add\n      mload(0x40)\n      swap1\n      dup2\n      add\n      0x40\n      mstore\n      dup1\n      swap3\n      swap2\n      swap1\n      dup2\n      dup2\n      mstore\n      0x20\n      add\n      0x00\n      swap1\n    tag_78:\n      dup3\n      dup3\n      lt\n      iszero\n      tag_79\n      jumpi\n      dup4\n      dup3\n      swap1\n      0x00\n      mstore\n      keccak256(0x00, 0x20)\n      swap1\n      0x05\n      mul\n      add\n      mload(0x40)\n      dup1\n      0xa0\n      add\n      0x40\n      mstore\n      swap1\n      dup2\n      0x00\n      dup3\n      add\n      sload\n      dup2\n      mstore\n      0x20\n      add\n      0x01\n      dup3\n      add\n      0x00\n      swap1\n      sload\n      swap1\n      0x0100\n      exp\n      swap1\n      div\n      0xffffffffffffffffffffffffffffffffffffffff\n      and\n      0xffffffffffffffffffffffffffffffffffffffff\n      and\n      0xffffffffffffffffffffffffffffffffffffffff\n      and\n      dup2\n      mstore\n      0x20\n      add\n      0x02\n      dup3\n      add\n      dup1\n      sload\n      tag_81\n      swap1\n      tag_82\n      jump\t// in\n    tag_81:\n      dup1\n      0x1f\n      add\n      0x20\n      dup1\n      swap2\n      div\n      mul\n      0x20\n      add\n      mload(0x40)\n      swap1\n      dup2\n      add\n      0x40\n      mstore\n      dup1\n      swap3\n      swap2\n      swap1\n      dup2\n      dup2\n      mstore\n      0x20\n      add\n      dup3\n      dup1\n      sload\n      tag_83\n      swap1\n      tag_82\n      jump\t// in\n    tag_83:\n      dup1\n      iszero\n      tag_84\n      jumpi\n      dup1\n      0x1f\n      lt\n      tag_85\n      jumpi\n      0x0100\n      dup1\n      dup4\n      sload\n      div\n      mul\n      dup4\n      mstore\n      swap2\n      0x20\n      add\n      swap2\n      jump(tag_84)\n    tag_85:\n      dup3\n      add\n      swap2\n      swap1\n      0x00\n      mstore\n      keccak256(0x00, 0x20)\n      swap1\n    tag_86:\n      dup2\n      sload\n      dup2\n      mstore\n      swap1\n      0x01\n      add\n      swap1\n      0x20\n      add\n      dup1\n      dup4\n      gt\n      tag_86\n      jumpi\n      dup3\n      swap1\n      sub\n      0x1f\n      and\n      dup3\n      add\n      swap2\n    tag_84:\n      pop\n      pop\n      pop\n      pop\n      pop\n      dup2\n      mstore\n      0x20\n      add\n      0x03\n      dup3\n      add\n      sload\n      dup2\n      mstore\n      0x20\n      add\n      0x04\n      dup3\n      add\n      sload\n      dup2\n      mstore\n      pop\n      pop\n      dup2\n      mstore\n      0x20\n      add\n      swap1\n      0x01\n      add\n      swap1\n      jump(tag_78)\n    tag_79:\n      pop\n      pop\n      pop\n      pop\n      swap1\n      pop\n        /* \"D_Room.sol\":2292:2388  function getAllTweets() public view returns (Tweet[] memory) {... */\n      swap1\n      jump\t// out\n        /* \"D_Room.sol\":1833:1982  function likeTweet(uint _id) public onlyActive {... */\n    tag_32:\n        /* \"D_Room.sol\":1070:1084  isRoomActive() */\n      tag_88\n        /* \"D_Room.sol\":1070:1082  isRoomActive */\n      tag_45\n        /* \"D_Room.sol\":1070:1084  isRoomActive() */\n      jump\t// in\n    tag_88:\n        /* \"D_Room.sol\":1062:1103  require(isRoomActive(), \"Room is closed\") */\n      tag_89\n      jumpi\n      mload(0x40)\n      0x08c379a000000000000000000000000000000000000000000000000000000000\n      dup2\n      mstore\n      0x04\n      add\n      tag_90\n      swap1\n      tag_60\n      jump\t// in\n    tag_90:\n      mload(0x40)\n      dup1\n      swap2\n      sub\n      swap1\n      revert\n    tag_89:\n        /* \"D_Room.sol\":1905:1914  allTweets */\n      0x03\n        /* \"D_Room.sol\":1905:1921  allTweets.length */\n      dup1\n      sload\n      swap1\n      pop\n        /* \"D_Room.sol\":1899:1902  _id */\n      dup2\n        /* \"D_Room.sol\":1899:1921  _id < allTweets.length */\n      lt\n        /* \"D_Room.sol\":1891:1941  require(_id < allTweets.length, \"Tweet not found\") */\n      tag_92\n      jumpi\n      mload(0x40)\n      0x08c379a000000000000000000000000000000000000000000000000000000000\n      dup2\n      mstore\n      0x04\n      add\n      tag_93\n      swap1\n      tag_64\n      jump\t// in\n    tag_93:\n      mload(0x40)\n      dup1\n      swap2\n      sub\n      swap1\n      revert\n    tag_92:\n        /* \"D_Room.sol\":1952:1961  allTweets */\n      0x03\n        /* \"D_Room.sol\":1962:1965  _id */\n      dup2\n        /* \"D_Room.sol\":1952:1966  allTweets[_id] */\n      dup2\n      sload\n      dup2\n      lt\n      tag_94\n      jumpi\n      tag_95\n      tag_67\n      jump\t// in\n    tag_95:\n    tag_94:\n      swap1\n      0x00\n      mstore\n      keccak256(0x00, 0x20)\n      swap1\n      0x05\n      mul\n      add\n        /* \"D_Room.sol\":1952:1972  allTweets[_id].likes */\n      0x04\n      add\n      0x00\n        /* \"D_Room.sol\":1952:1974  allTweets[_id].likes++ */\n      dup2\n      sload\n      dup1\n      swap3\n      swap2\n      swap1\n      tag_97\n      swap1\n      tag_98\n      jump\t// in\n    tag_97:\n      swap2\n      swap1\n      pop\n      sstore\n      pop\n        /* \"D_Room.sol\":1833:1982  function likeTweet(uint _id) public onlyActive {... */\n      pop\n      jump\t// out\n        /* \"D_Room.sol\":83:119  uint16 public MAX_TWEET_LENGTH = 280 */\n    tag_34:\n      0x00\n      dup1\n      sload\n      swap1\n      0x0100\n      exp\n      swap1\n      div\n      0xffff\n      and\n      dup2\n      jump\t// out\n        /* \"D_Room.sol\":128:152  uint256 public startTime */\n    tag_38:\n      sload(0x01)\n      dup2\n      jump\t// out\n        /* \"D_Room.sol\":1170:1794  function createTweet(string memory _tweet) public {... */\n    tag_43:\n        /* \"D_Room.sol\":1289:1290  0 */\n      0x00\n        /* \"D_Room.sol\":1276:1285  startTime */\n      sload(0x01)\n        /* \"D_Room.sol\":1276:1290  startTime == 0 */\n      sub\n        /* \"D_Room.sol\":1272:1397  if (startTime == 0) {... */\n      tag_100\n      jumpi\n        /* \"D_Room.sol\":1319:1334  block.timestamp */\n      timestamp\n        /* \"D_Room.sol\":1307:1316  startTime */\n      0x01\n        /* \"D_Room.sol\":1307:1334  startTime = block.timestamp */\n      dup2\n      swap1\n      sstore\n      pop\n        /* \"D_Room.sol\":223:233  30 minutes */\n      0x0708\n        /* \"D_Room.sol\":1359:1374  block.timestamp */\n      timestamp\n        /* \"D_Room.sol\":1359:1385  block.timestamp + DURATION */\n      tag_101\n      swap2\n      swap1\n      tag_102\n      jump\t// in\n    tag_101:\n        /* \"D_Room.sol\":1349:1356  endTime */\n      0x02\n        /* \"D_Room.sol\":1349:1385  endTime = block.timestamp + DURATION */\n      dup2\n      swap1\n      sstore\n      pop\n        /* \"D_Room.sol\":1272:1397  if (startTime == 0) {... */\n    tag_100:\n        /* \"D_Room.sol\":1417:1431  isRoomActive() */\n      tag_103\n        /* \"D_Room.sol\":1417:1429  isRoomActive */\n      tag_45\n        /* \"D_Room.sol\":1417:1431  isRoomActive() */\n      jump\t// in\n    tag_103:\n        /* \"D_Room.sol\":1409:1450  require(isRoomActive(), \"Room is closed\") */\n      tag_104\n      jumpi\n      mload(0x40)\n      0x08c379a000000000000000000000000000000000000000000000000000000000\n      dup2\n      mstore\n      0x04\n      add\n      tag_105\n      swap1\n      tag_60\n      jump\t// in\n    tag_105:\n      mload(0x40)\n      dup1\n      swap2\n      sub\n      swap1\n      revert\n    tag_104:\n        /* \"D_Room.sol\":1493:1509  MAX_TWEET_LENGTH */\n      0x00\n      dup1\n      sload\n      swap1\n      0x0100\n      exp\n      swap1\n      div\n      0xffff\n      and\n        /* \"D_Room.sol\":1469:1509  bytes(_tweet).length <= MAX_TWEET_LENGTH */\n      0xffff\n      and\n        /* \"D_Room.sol\":1475:1481  _tweet */\n      dup2\n        /* \"D_Room.sol\":1469:1489  bytes(_tweet).length */\n      mload\n        /* \"D_Room.sol\":1469:1509  bytes(_tweet).length <= MAX_TWEET_LENGTH */\n      gt\n      iszero\n        /* \"D_Room.sol\":1461:1529  require(bytes(_tweet).length <= MAX_TWEET_LENGTH, \"Tweet too long!\") */\n      tag_106\n      jumpi\n      mload(0x40)\n      0x08c379a000000000000000000000000000000000000000000000000000000000\n      dup2\n      mstore\n      0x04\n      add\n      tag_107\n      swap1\n      tag_108\n      jump\t// in\n    tag_107:\n      mload(0x40)\n      dup1\n      swap2\n      sub\n      swap1\n      revert\n    tag_106:\n        /* \"D_Room.sol\":1542:1551  allTweets */\n      0x03\n        /* \"D_Room.sol\":1571:1775  Tweet({... */\n      mload(0x40)\n      dup1\n      0xa0\n      add\n      0x40\n      mstore\n      dup1\n        /* \"D_Room.sol\":1600:1609  allTweets */\n      0x03\n        /* \"D_Room.sol\":1600:1616  allTweets.length */\n      dup1\n      sload\n      swap1\n      pop\n        /* \"D_Room.sol\":1571:1775  Tweet({... */\n      dup2\n      mstore\n      0x20\n      add\n        /* \"D_Room.sol\":1643:1653  msg.sender */\n      caller\n        /* \"D_Room.sol\":1571:1775  Tweet({... */\n      0xffffffffffffffffffffffffffffffffffffffff\n      and\n      dup2\n      mstore\n      0x20\n      add\n        /* \"D_Room.sol\":1681:1687  _tweet */\n      dup4\n        /* \"D_Room.sol\":1571:1775  Tweet({... */\n      dup2\n      mstore\n      0x20\n      add\n        /* \"D_Room.sol\":1717:1732  block.timestamp */\n      timestamp\n        /* \"D_Room.sol\":1571:1775  Tweet({... */\n      dup2\n      mstore\n      0x20\n      add\n        /* \"D_Room.sol\":1758:1759  0 */\n      0x00\n        /* \"D_Room.sol\":1571:1775  Tweet({... */\n      dup2\n      mstore\n      pop\n        /* \"D_Room.sol\":1542:1786  allTweets.push(... */\n      swap1\n      dup1\n      0x01\n      dup2\n      sload\n      add\n      dup1\n      dup3\n      sstore\n      dup1\n      swap2\n      pop\n      pop\n      0x01\n      swap1\n      sub\n      swap1\n      0x00\n      mstore\n      keccak256(0x00, 0x20)\n      swap1\n      0x05\n      mul\n      add\n      0x00\n      swap1\n      swap2\n      swap1\n      swap2\n      swap1\n      swap2\n      pop\n      0x00\n      dup3\n      add\n      mload\n      dup2\n      0x00\n      add\n      sstore\n      0x20\n      dup3\n      add\n      mload\n      dup2\n      0x01\n      add\n      exp(0x0100, 0x00)\n      dup2\n      sload\n      dup2\n      0xffffffffffffffffffffffffffffffffffffffff\n      mul\n      not\n      and\n      swap1\n      dup4\n      0xffffffffffffffffffffffffffffffffffffffff\n      and\n      mul\n      or\n      swap1\n      sstore\n      pop\n      0x40\n      dup3\n      add\n      mload\n      dup2\n      0x02\n      add\n      swap1\n      dup2\n      tag_110\n      swap2\n      swap1\n      tag_111\n      jump\t// in\n    tag_110:\n      pop\n      0x60\n      dup3\n      add\n      mload\n      dup2\n      0x03\n      add\n      sstore\n      0x80\n      dup3\n      add\n      mload\n      dup2\n      0x04\n      add\n      sstore\n      pop\n      pop\n        /* \"D_Room.sol\":1170:1794  function createTweet(string memory _tweet) public {... */\n      pop\n      jump\t// out\n        /* \"D_Room.sol\":471:662  function isRoomActive() public view returns (bool) {... */\n    tag_45:\n        /* \"D_Room.sol\":516:520  bool */\n      0x00\n        /* \"D_Room.sol\":550:551  0 */\n      dup1\n        /* \"D_Room.sol\":537:546  startTime */\n      sload(0x01)\n        /* \"D_Room.sol\":537:551  startTime == 0 */\n      sub\n        /* \"D_Room.sol\":533:611  if (startTime == 0) {... */\n      tag_113\n      jumpi\n        /* \"D_Room.sol\":575:580  false */\n      0x00\n        /* \"D_Room.sol\":568:580  return false */\n      swap1\n      pop\n      jump(tag_112)\n        /* \"D_Room.sol\":533:611  if (startTime == 0) {... */\n    tag_113:\n        /* \"D_Room.sol\":647:654  endTime */\n      sload(0x02)\n        /* \"D_Room.sol\":628:643  block.timestamp */\n      timestamp\n        /* \"D_Room.sol\":628:654  block.timestamp <= endTime */\n      gt\n      iszero\n        /* \"D_Room.sol\":621:654  return block.timestamp <= endTime */\n      swap1\n      pop\n        /* \"D_Room.sol\":471:662  function isRoomActive() public view returns (bool) {... */\n    tag_112:\n      swap1\n      jump\t// out\n        /* \"D_Room.sol\":391:415  Tweet[] public allTweets */\n    tag_50:\n      0x03\n      dup2\n      dup2\n      sload\n      dup2\n      lt\n      tag_114\n      jumpi\n      0x00\n      dup1\n      revert\n    tag_114:\n      swap1\n      0x00\n      mstore\n      keccak256(0x00, 0x20)\n      swap1\n      0x05\n      mul\n      add\n      0x00\n      swap2\n      pop\n      swap1\n      pop\n      dup1\n      0x00\n      add\n      sload\n      swap1\n      dup1\n      0x01\n      add\n      0x00\n      swap1\n      sload\n      swap1\n      0x0100\n      exp\n      swap1\n      div\n      0xffffffffffffffffffffffffffffffffffffffff\n      and\n      swap1\n      dup1\n      0x02\n      add\n      dup1\n      sload\n      tag_116\n      swap1\n      tag_82\n      jump\t// in\n    tag_116:\n      dup1\n      0x1f\n      add\n      0x20\n      dup1\n      swap2\n      div\n      mul\n      0x20\n      add\n      mload(0x40)\n      swap1\n      dup2\n      add\n      0x40\n      mstore\n      dup1\n      swap3\n      swap2\n      swap1\n      dup2\n      dup2\n      mstore\n      0x20\n      add\n      dup3\n      dup1\n      sload\n      tag_117\n      swap1\n      tag_82\n      jump\t// in\n    tag_117:\n      dup1\n      iszero\n      tag_118\n      jumpi\n      dup1\n      0x1f\n      lt\n      tag_119\n      jumpi\n      0x0100\n      dup1\n      dup4\n      sload\n      div\n      mul\n      dup4\n      mstore\n      swap2\n      0x20\n      add\n      swap2\n      jump(tag_118)\n    tag_119:\n      dup3\n      add\n      swap2\n      swap1\n      0x00\n      mstore\n      keccak256(0x00, 0x20)\n      swap1\n    tag_120:\n      dup2\n      sload\n      dup2\n      mstore\n      swap1\n      0x01\n      add\n      swap1\n      0x20\n      add\n      dup1\n      dup4\n      gt\n      tag_120\n      jumpi\n      dup3\n      swap1\n      sub\n      0x1f\n      and\n      dup3\n      add\n      swap2\n    tag_118:\n      pop\n      pop\n      pop\n      pop\n      pop\n      swap1\n      dup1\n      0x03\n      add\n      sload\n      swap1\n      dup1\n      0x04\n      add\n      sload\n      swap1\n      pop\n      dup6\n      jump\t// out\n        /* \"D_Room.sol\":740:1021  function getRemainingTime() public view returns (uint256) {... */\n    tag_54:\n        /* \"D_Room.sol\":789:796  uint256 */\n      0x00\n        /* \"D_Room.sol\":826:827  0 */\n      dup1\n        /* \"D_Room.sol\":813:822  startTime */\n      sload(0x01)\n        /* \"D_Room.sol\":813:827  startTime == 0 */\n      sub\n        /* \"D_Room.sol\":809:879  if (startTime == 0) {... */\n      tag_122\n      jumpi\n        /* \"D_Room.sol\":851:852  0 */\n      0x00\n        /* \"D_Room.sol\":844:852  return 0 */\n      swap1\n      pop\n      jump(tag_121)\n        /* \"D_Room.sol\":809:879  if (startTime == 0) {... */\n    tag_122:\n        /* \"D_Room.sol\":914:921  endTime */\n      sload(0x02)\n        /* \"D_Room.sol\":895:910  block.timestamp */\n      timestamp\n        /* \"D_Room.sol\":895:921  block.timestamp >= endTime */\n      lt\n        /* \"D_Room.sol\":891:969  if (block.timestamp >= endTime) {... */\n      tag_123\n      jumpi\n        /* \"D_Room.sol\":945:946  0 */\n      0x00\n        /* \"D_Room.sol\":938:946  return 0 */\n      swap1\n      pop\n      jump(tag_121)\n        /* \"D_Room.sol\":891:969  if (block.timestamp >= endTime) {... */\n    tag_123:\n        /* \"D_Room.sol\":998:1013  block.timestamp */\n      timestamp\n        /* \"D_Room.sol\":988:995  endTime */\n      sload(0x02)\n        /* \"D_Room.sol\":988:1013  endTime - block.timestamp */\n      tag_124\n      swap2\n      swap1\n      tag_125\n      jump\t// in\n    tag_124:\n        /* \"D_Room.sol\":981:1013  return endTime - block.timestamp */\n      swap1\n      pop\n        /* \"D_Room.sol\":740:1021  function getRemainingTime() public view returns (uint256) {... */\n    tag_121:\n      swap1\n      jump\t// out\n        /* \"#utility.yul\":7:84   */\n    tag_126:\n        /* \"#utility.yul\":44:51   */\n      0x00\n        /* \"#utility.yul\":73:78   */\n      dup2\n        /* \"#utility.yul\":62:78   */\n      swap1\n      pop\n        /* \"#utility.yul\":7:84   */\n      swap2\n      swap1\n      pop\n      jump\t// out\n        /* \"#utility.yul\":90:208   */\n    tag_127:\n        /* \"#utility.yul\":177:201   */\n      tag_193\n        /* \"#utility.yul\":195:200   */\n      dup2\n        /* \"#utility.yul\":177:201   */\n      tag_126\n      jump\t// in\n    tag_193:\n        /* \"#utility.yul\":172:175   */\n      dup3\n        /* \"#utility.yul\":165:202   */\n      mstore\n        /* \"#utility.yul\":90:208   */\n      pop\n      pop\n      jump\t// out\n        /* \"#utility.yul\":214:436   */\n    tag_18:\n        /* \"#utility.yul\":307:311   */\n      0x00\n        /* \"#utility.yul\":345:347   */\n      0x20\n        /* \"#utility.yul\":334:343   */\n      dup3\n        /* \"#utility.yul\":330:348   */\n      add\n        /* \"#utility.yul\":322:348   */\n      swap1\n      pop\n        /* \"#utility.yul\":358:429   */\n      tag_195\n        /* \"#utility.yul\":426:427   */\n      0x00\n        /* \"#utility.yul\":415:424   */\n      dup4\n        /* \"#utility.yul\":411:428   */\n      add\n        /* \"#utility.yul\":402:408   */\n      dup5\n        /* \"#utility.yul\":358:429   */\n      tag_127\n      jump\t// in\n    tag_195:\n        /* \"#utility.yul\":214:436   */\n      swap3\n      swap2\n      pop\n      pop\n      jump\t// out\n        /* \"#utility.yul\":442:517   */\n    tag_128:\n        /* \"#utility.yul\":475:481   */\n      0x00\n        /* \"#utility.yul\":508:510   */\n      0x40\n        /* \"#utility.yul\":502:511   */\n      mload\n        /* \"#utility.yul\":492:511   */\n      swap1\n      pop\n        /* \"#utility.yul\":442:517   */\n      swap1\n      jump\t// out\n        /* \"#utility.yul\":523:640   */\n    tag_129:\n        /* \"#utility.yul\":632:633   */\n      0x00\n        /* \"#utility.yul\":629:630   */\n      dup1\n        /* \"#utility.yul\":622:634   */\n      revert\n        /* \"#utility.yul\":646:763   */\n    tag_130:\n        /* \"#utility.yul\":755:756   */\n      0x00\n        /* \"#utility.yul\":752:753   */\n      dup1\n        /* \"#utility.yul\":745:757   */\n      revert\n        /* \"#utility.yul\":769:891   */\n    tag_131:\n        /* \"#utility.yul\":842:866   */\n      tag_200\n        /* \"#utility.yul\":860:865   */\n      dup2\n        /* \"#utility.yul\":842:866   */\n      tag_126\n      jump\t// in\n    tag_200:\n        /* \"#utility.yul\":835:840   */\n      dup2\n        /* \"#utility.yul\":832:867   */\n      eq\n        /* \"#utility.yul\":822:885   */\n      tag_201\n      jumpi\n        /* \"#utility.yul\":881:882   */\n      0x00\n        /* \"#utility.yul\":878:879   */\n      dup1\n        /* \"#utility.yul\":871:883   */\n      revert\n        /* \"#utility.yul\":822:885   */\n    tag_201:\n        /* \"#utility.yul\":769:891   */\n      pop\n      jump\t// out\n        /* \"#utility.yul\":897:1036   */\n    tag_132:\n        /* \"#utility.yul\":943:948   */\n      0x00\n        /* \"#utility.yul\":981:987   */\n      dup2\n        /* \"#utility.yul\":968:988   */\n      calldataload\n        /* \"#utility.yul\":959:988   */\n      swap1\n      pop\n        /* \"#utility.yul\":997:1030   */\n      tag_203\n        /* \"#utility.yul\":1024:1029   */\n      dup2\n        /* \"#utility.yul\":997:1030   */\n      tag_131\n      jump\t// in\n    tag_203:\n        /* \"#utility.yul\":897:1036   */\n      swap3\n      swap2\n      pop\n      pop\n      jump\t// out\n        /* \"#utility.yul\":1042:1371   */\n    tag_21:\n        /* \"#utility.yul\":1101:1107   */\n      0x00\n        /* \"#utility.yul\":1150:1152   */\n      0x20\n        /* \"#utility.yul\":1138:1147   */\n      dup3\n        /* \"#utility.yul\":1129:1136   */\n      dup5\n        /* \"#utility.yul\":1125:1148   */\n      sub\n        /* \"#utility.yul\":1121:1153   */\n      slt\n        /* \"#utility.yul\":1118:1237   */\n      iszero\n      tag_205\n      jumpi\n        /* \"#utility.yul\":1156:1235   */\n      tag_206\n      tag_129\n      jump\t// in\n    tag_206:\n        /* \"#utility.yul\":1118:1237   */\n    tag_205:\n        /* \"#utility.yul\":1276:1277   */\n      0x00\n        /* \"#utility.yul\":1301:1354   */\n      tag_207\n        /* \"#utility.yul\":1346:1353   */\n      dup5\n        /* \"#utility.yul\":1337:1343   */\n      dup3\n        /* \"#utility.yul\":1326:1335   */\n      dup6\n        /* \"#utility.yul\":1322:1344   */\n      add\n        /* \"#utility.yul\":1301:1354   */\n      tag_132\n      jump\t// in\n    tag_207:\n        /* \"#utility.yul\":1291:1354   */\n      swap2\n      pop\n        /* \"#utility.yul\":1247:1364   */\n      pop\n        /* \"#utility.yul\":1042:1371   */\n      swap3\n      swap2\n      pop\n      pop\n      jump\t// out\n        /* \"#utility.yul\":1377:1512   */\n    tag_133:\n        /* \"#utility.yul\":1465:1471   */\n      0x00\n        /* \"#utility.yul\":1499:1504   */\n      dup2\n        /* \"#utility.yul\":1493:1505   */\n      mload\n        /* \"#utility.yul\":1483:1505   */\n      swap1\n      pop\n        /* \"#utility.yul\":1377:1512   */\n      swap2\n      swap1\n      pop\n      jump\t// out\n        /* \"#utility.yul\":1518:1723   */\n    tag_134:\n        /* \"#utility.yul\":1638:1649   */\n      0x00\n        /* \"#utility.yul\":1672:1678   */\n      dup3\n        /* \"#utility.yul\":1667:1670   */\n      dup3\n        /* \"#utility.yul\":1660:1679   */\n      mstore\n        /* \"#utility.yul\":1712:1716   */\n      0x20\n        /* \"#utility.yul\":1707:1710   */\n      dup3\n        /* \"#utility.yul\":1703:1717   */\n      add\n        /* \"#utility.yul\":1688:1717   */\n      swap1\n      pop\n        /* \"#utility.yul\":1518:1723   */\n      swap3\n      swap2\n      pop\n      pop\n      jump\t// out\n        /* \"#utility.yul\":1729:1882   */\n    tag_135:\n        /* \"#utility.yul\":1817:1821   */\n      0x00\n        /* \"#utility.yul\":1840:1843   */\n      dup2\n        /* \"#utility.yul\":1832:1843   */\n      swap1\n      pop\n        /* \"#utility.yul\":1870:1874   */\n      0x20\n        /* \"#utility.yul\":1865:1868   */\n      dup3\n        /* \"#utility.yul\":1861:1875   */\n      add\n        /* \"#utility.yul\":1853:1875   */\n      swap1\n      pop\n        /* \"#utility.yul\":1729:1882   */\n      swap2\n      swap1\n      pop\n      jump\t// out\n        /* \"#utility.yul\":1888:1996   */\n    tag_136:\n        /* \"#utility.yul\":1965:1989   */\n      tag_212\n        /* \"#utility.yul\":1983:1988   */\n      dup2\n        /* \"#utility.yul\":1965:1989   */\n      tag_126\n      jump\t// in\n    tag_212:\n        /* \"#utility.yul\":1960:1963   */\n      dup3\n        /* \"#utility.yul\":1953:1990   */\n      mstore\n        /* \"#utility.yul\":1888:1996   */\n      pop\n      pop\n      jump\t// out\n        /* \"#utility.yul\":2002:2128   */\n    tag_137:\n        /* \"#utility.yul\":2039:2046   */\n      0x00\n        /* \"#utility.yul\":2079:2121   */\n      0xffffffffffffffffffffffffffffffffffffffff\n        /* \"#utility.yul\":2072:2077   */\n      dup3\n        /* \"#utility.yul\":2068:2122   */\n      and\n        /* \"#utility.yul\":2057:2122   */\n      swap1\n      pop\n        /* \"#utility.yul\":2002:2128   */\n      swap2\n      swap1\n      pop\n      jump\t// out\n        /* \"#utility.yul\":2134:2230   */\n    tag_138:\n        /* \"#utility.yul\":2171:2178   */\n      0x00\n        /* \"#utility.yul\":2200:2224   */\n      tag_215\n        /* \"#utility.yul\":2218:2223   */\n      dup3\n        /* \"#utility.yul\":2200:2224   */\n      tag_137\n      jump\t// in\n    tag_215:\n        /* \"#utility.yul\":2189:2224   */\n      swap1\n      pop\n        /* \"#utility.yul\":2134:2230   */\n      swap2\n      swap1\n      pop\n      jump\t// out\n        /* \"#utility.yul\":2236:2344   */\n    tag_139:\n        /* \"#utility.yul\":2313:2337   */\n      tag_217\n        /* \"#utility.yul\":2331:2336   */\n      dup2\n        /* \"#utility.yul\":2313:2337   */\n      tag_138\n      jump\t// in\n    tag_217:\n        /* \"#utility.yul\":2308:2311   */\n      dup3\n        /* \"#utility.yul\":2301:2338   */\n      mstore\n        /* \"#utility.yul\":2236:2344   */\n      pop\n      pop\n      jump\t// out\n        /* \"#utility.yul\":2350:2449   */\n    tag_140:\n        /* \"#utility.yul\":2402:2408   */\n      0x00\n        /* \"#utility.yul\":2436:2441   */\n      dup2\n        /* \"#utility.yul\":2430:2442   */\n      mload\n        /* \"#utility.yul\":2420:2442   */\n      swap1\n      pop\n        /* \"#utility.yul\":2350:2449   */\n      swap2\n      swap1\n      pop\n      jump\t// out\n        /* \"#utility.yul\":2455:2614   */\n    tag_141:\n        /* \"#utility.yul\":2529:2540   */\n      0x00\n        /* \"#utility.yul\":2563:2569   */\n      dup3\n        /* \"#utility.yul\":2558:2561   */\n      dup3\n        /* \"#utility.yul\":2551:2570   */\n      mstore\n        /* \"#utility.yul\":2603:2607   */\n      0x20\n        /* \"#utility.yul\":2598:2601   */\n      dup3\n        /* \"#utility.yul\":2594:2608   */\n      add\n        /* \"#utility.yul\":2579:2608   */\n      swap1\n      pop\n        /* \"#utility.yul\":2455:2614   */\n      swap3\n      swap2\n      pop\n      pop\n      jump\t// out\n        /* \"#utility.yul\":2620:2866   */\n    tag_142:\n        /* \"#utility.yul\":2701:2702   */\n      0x00\n        /* \"#utility.yul\":2711:2824   */\n    tag_221:\n        /* \"#utility.yul\":2725:2731   */\n      dup4\n        /* \"#utility.yul\":2722:2723   */\n      dup2\n        /* \"#utility.yul\":2719:2732   */\n      lt\n        /* \"#utility.yul\":2711:2824   */\n      iszero\n      tag_223\n      jumpi\n        /* \"#utility.yul\":2810:2811   */\n      dup1\n        /* \"#utility.yul\":2805:2808   */\n      dup3\n        /* \"#utility.yul\":2801:2812   */\n      add\n        /* \"#utility.yul\":2795:2813   */\n      mload\n        /* \"#utility.yul\":2791:2792   */\n      dup2\n        /* \"#utility.yul\":2786:2789   */\n      dup5\n        /* \"#utility.yul\":2782:2793   */\n      add\n        /* \"#utility.yul\":2775:2814   */\n      mstore\n        /* \"#utility.yul\":2747:2749   */\n      0x20\n        /* \"#utility.yul\":2744:2745   */\n      dup2\n        /* \"#utility.yul\":2740:2750   */\n      add\n        /* \"#utility.yul\":2735:2750   */\n      swap1\n      pop\n        /* \"#utility.yul\":2711:2824   */\n      jump(tag_221)\n    tag_223:\n        /* \"#utility.yul\":2858:2859   */\n      0x00\n        /* \"#utility.yul\":2849:2855   */\n      dup5\n        /* \"#utility.yul\":2844:2847   */\n      dup5\n        /* \"#utility.yul\":2840:2856   */\n      add\n        /* \"#utility.yul\":2833:2860   */\n      mstore\n        /* \"#utility.yul\":2682:2866   */\n      pop\n        /* \"#utility.yul\":2620:2866   */\n      pop\n      pop\n      pop\n      jump\t// out\n        /* \"#utility.yul\":2872:2974   */\n    tag_143:\n        /* \"#utility.yul\":2913:2919   */\n      0x00\n        /* \"#utility.yul\":2964:2966   */\n      0x1f\n        /* \"#utility.yul\":2960:2967   */\n      not\n        /* \"#utility.yul\":2955:2957   */\n      0x1f\n        /* \"#utility.yul\":2948:2953   */\n      dup4\n        /* \"#utility.yul\":2944:2958   */\n      add\n        /* \"#utility.yul\":2940:2968   */\n      and\n        /* \"#utility.yul\":2930:2968   */\n      swap1\n      pop\n        /* \"#utility.yul\":2872:2974   */\n      swap2\n      swap1\n      pop\n      jump\t// out\n        /* \"#utility.yul\":2980:3337   */\n    tag_144:\n        /* \"#utility.yul\":3058:3061   */\n      0x00\n        /* \"#utility.yul\":3086:3125   */\n      tag_226\n        /* \"#utility.yul\":3119:3124   */\n      dup3\n        /* \"#utility.yul\":3086:3125   */\n      tag_140\n      jump\t// in\n    tag_226:\n        /* \"#utility.yul\":3141:3202   */\n      tag_227\n        /* \"#utility.yul\":3195:3201   */\n      dup2\n        /* \"#utility.yul\":3190:3193   */\n      dup6\n        /* \"#utility.yul\":3141:3202   */\n      tag_141\n      jump\t// in\n    tag_227:\n        /* \"#utility.yul\":3134:3202   */\n      swap4\n      pop\n        /* \"#utility.yul\":3211:3276   */\n      tag_228\n        /* \"#utility.yul\":3269:3275   */\n      dup2\n        /* \"#utility.yul\":3264:3267   */\n      dup6\n        /* \"#utility.yul\":3257:3261   */\n      0x20\n        /* \"#utility.yul\":3250:3255   */\n      dup7\n        /* \"#utility.yul\":3246:3262   */\n      add\n        /* \"#utility.yul\":3211:3276   */\n      tag_142\n      jump\t// in\n    tag_228:\n        /* \"#utility.yul\":3301:3330   */\n      tag_229\n        /* \"#utility.yul\":3323:3329   */\n      dup2\n        /* \"#utility.yul\":3301:3330   */\n      tag_143\n      jump\t// in\n    tag_229:\n        /* \"#utility.yul\":3296:3299   */\n      dup5\n        /* \"#utility.yul\":3292:3331   */\n      add\n        /* \"#utility.yul\":3285:3331   */\n      swap2\n      pop\n        /* \"#utility.yul\":3062:3337   */\n      pop\n        /* \"#utility.yul\":2980:3337   */\n      swap3\n      swap2\n      pop\n      pop\n      jump\t// out\n        /* \"#utility.yul\":3389:4508   */\n    tag_145:\n        /* \"#utility.yul\":3490:3493   */\n      0x00\n        /* \"#utility.yul\":3526:3530   */\n      0xa0\n        /* \"#utility.yul\":3521:3524   */\n      dup4\n        /* \"#utility.yul\":3517:3531   */\n      add\n        /* \"#utility.yul\":3611:3615   */\n      0x00\n        /* \"#utility.yul\":3604:3609   */\n      dup4\n        /* \"#utility.yul\":3600:3616   */\n      add\n        /* \"#utility.yul\":3594:3617   */\n      mload\n        /* \"#utility.yul\":3630:3693   */\n      tag_231\n        /* \"#utility.yul\":3687:3691   */\n      0x00\n        /* \"#utility.yul\":3682:3685   */\n      dup7\n        /* \"#utility.yul\":3678:3692   */\n      add\n        /* \"#utility.yul\":3664:3676   */\n      dup3\n        /* \"#utility.yul\":3630:3693   */\n      tag_136\n      jump\t// in\n    tag_231:\n        /* \"#utility.yul\":3541:3703   */\n      pop\n        /* \"#utility.yul\":3787:3791   */\n      0x20\n        /* \"#utility.yul\":3780:3785   */\n      dup4\n        /* \"#utility.yul\":3776:3792   */\n      add\n        /* \"#utility.yul\":3770:3793   */\n      mload\n        /* \"#utility.yul\":3806:3869   */\n      tag_232\n        /* \"#utility.yul\":3863:3867   */\n      0x20\n        /* \"#utility.yul\":3858:3861   */\n      dup7\n        /* \"#utility.yul\":3854:3868   */\n      add\n        /* \"#utility.yul\":3840:3852   */\n      dup3\n        /* \"#utility.yul\":3806:3869   */\n      tag_139\n      jump\t// in\n    tag_232:\n        /* \"#utility.yul\":3713:3879   */\n      pop\n        /* \"#utility.yul\":3964:3968   */\n      0x40\n        /* \"#utility.yul\":3957:3962   */\n      dup4\n        /* \"#utility.yul\":3953:3969   */\n      add\n        /* \"#utility.yul\":3947:3970   */\n      mload\n        /* \"#utility.yul\":4017:4020   */\n      dup5\n        /* \"#utility.yul\":4011:4015   */\n      dup3\n        /* \"#utility.yul\":4007:4021   */\n      sub\n        /* \"#utility.yul\":4000:4004   */\n      0x40\n        /* \"#utility.yul\":3995:3998   */\n      dup7\n        /* \"#utility.yul\":3991:4005   */\n      add\n        /* \"#utility.yul\":3984:4022   */\n      mstore\n        /* \"#utility.yul\":4043:4116   */\n      tag_233\n        /* \"#utility.yul\":4111:4115   */\n      dup3\n        /* \"#utility.yul\":4097:4109   */\n      dup3\n        /* \"#utility.yul\":4043:4116   */\n      tag_144\n      jump\t// in\n    tag_233:\n        /* \"#utility.yul\":4035:4116   */\n      swap2\n      pop\n        /* \"#utility.yul\":3889:4127   */\n      pop\n        /* \"#utility.yul\":4214:4218   */\n      0x60\n        /* \"#utility.yul\":4207:4212   */\n      dup4\n        /* \"#utility.yul\":4203:4219   */\n      add\n        /* \"#utility.yul\":4197:4220   */\n      mload\n        /* \"#utility.yul\":4233:4296   */\n      tag_234\n        /* \"#utility.yul\":4290:4294   */\n      0x60\n        /* \"#utility.yul\":4285:4288   */\n      dup7\n        /* \"#utility.yul\":4281:4295   */\n      add\n        /* \"#utility.yul\":4267:4279   */\n      dup3\n        /* \"#utility.yul\":4233:4296   */\n      tag_136\n      jump\t// in\n    tag_234:\n        /* \"#utility.yul\":4137:4306   */\n      pop\n        /* \"#utility.yul\":4389:4393   */\n      0x80\n        /* \"#utility.yul\":4382:4387   */\n      dup4\n        /* \"#utility.yul\":4378:4394   */\n      add\n        /* \"#utility.yul\":4372:4395   */\n      mload\n        /* \"#utility.yul\":4408:4471   */\n      tag_235\n        /* \"#utility.yul\":4465:4469   */\n      0x80\n        /* \"#utility.yul\":4460:4463   */\n      dup7\n        /* \"#utility.yul\":4456:4470   */\n      add\n        /* \"#utility.yul\":4442:4454   */\n      dup3\n        /* \"#utility.yul\":4408:4471   */\n      tag_136\n      jump\t// in\n    tag_235:\n        /* \"#utility.yul\":4316:4481   */\n      pop\n        /* \"#utility.yul\":4498:4502   */\n      dup1\n        /* \"#utility.yul\":4491:4502   */\n      swap2\n      pop\n        /* \"#utility.yul\":3495:4508   */\n      pop\n        /* \"#utility.yul\":3389:4508   */\n      swap3\n      swap2\n      pop\n      pop\n      jump\t// out\n        /* \"#utility.yul\":4514:4754   */\n    tag_146:\n        /* \"#utility.yul\":4625:4635   */\n      0x00\n        /* \"#utility.yul\":4660:4748   */\n      tag_237\n        /* \"#utility.yul\":4744:4747   */\n      dup4\n        /* \"#utility.yul\":4736:4742   */\n      dup4\n        /* \"#utility.yul\":4660:4748   */\n      tag_145\n      jump\t// in\n    tag_237:\n        /* \"#utility.yul\":4646:4748   */\n      swap1\n      pop\n        /* \"#utility.yul\":4514:4754   */\n      swap3\n      swap2\n      pop\n      pop\n      jump\t// out\n        /* \"#utility.yul\":4760:4894   */\n    tag_147:\n        /* \"#utility.yul\":4851:4855   */\n      0x00\n        /* \"#utility.yul\":4883:4887   */\n      0x20\n        /* \"#utility.yul\":4878:4881   */\n      dup3\n        /* \"#utility.yul\":4874:4888   */\n      add\n        /* \"#utility.yul\":4866:4888   */\n      swap1\n      pop\n        /* \"#utility.yul\":4760:4894   */\n      swap2\n      swap1\n      pop\n      jump\t// out\n        /* \"#utility.yul\":4950:6029   */\n    tag_148:\n        /* \"#utility.yul\":5111:5114   */\n      0x00\n        /* \"#utility.yul\":5140:5215   */\n      tag_240\n        /* \"#utility.yul\":5209:5214   */\n      dup3\n        /* \"#utility.yul\":5140:5215   */\n      tag_133\n      jump\t// in\n    tag_240:\n        /* \"#utility.yul\":5231:5338   */\n      tag_241\n        /* \"#utility.yul\":5331:5337   */\n      dup2\n        /* \"#utility.yul\":5326:5329   */\n      dup6\n        /* \"#utility.yul\":5231:5338   */\n      tag_134\n      jump\t// in\n    tag_241:\n        /* \"#utility.yul\":5224:5338   */\n      swap4\n      pop\n        /* \"#utility.yul\":5364:5367   */\n      dup4\n        /* \"#utility.yul\":5409:5413   */\n      0x20\n        /* \"#utility.yul\":5401:5407   */\n      dup3\n        /* \"#utility.yul\":5397:5414   */\n      mul\n        /* \"#utility.yul\":5392:5395   */\n      dup6\n        /* \"#utility.yul\":5388:5415   */\n      add\n        /* \"#utility.yul\":5439:5516   */\n      tag_242\n        /* \"#utility.yul\":5510:5515   */\n      dup6\n        /* \"#utility.yul\":5439:5516   */\n      tag_135\n      jump\t// in\n    tag_242:\n        /* \"#utility.yul\":5539:5546   */\n      dup1\n        /* \"#utility.yul\":5570:5571   */\n      0x00\n        /* \"#utility.yul\":5555:5984   */\n    tag_243:\n        /* \"#utility.yul\":5580:5586   */\n      dup6\n        /* \"#utility.yul\":5577:5578   */\n      dup2\n        /* \"#utility.yul\":5574:5587   */\n      lt\n        /* \"#utility.yul\":5555:5984   */\n      iszero\n      tag_245\n      jumpi\n        /* \"#utility.yul\":5651:5660   */\n      dup5\n        /* \"#utility.yul\":5645:5649   */\n      dup5\n        /* \"#utility.yul\":5641:5661   */\n      sub\n        /* \"#utility.yul\":5636:5639   */\n      dup10\n        /* \"#utility.yul\":5629:5662   */\n      mstore\n        /* \"#utility.yul\":5702:5708   */\n      dup2\n        /* \"#utility.yul\":5696:5709   */\n      mload\n        /* \"#utility.yul\":5730:5836   */\n      tag_246\n        /* \"#utility.yul\":5831:5835   */\n      dup6\n        /* \"#utility.yul\":5816:5829   */\n      dup3\n        /* \"#utility.yul\":5730:5836   */\n      tag_146\n      jump\t// in\n    tag_246:\n        /* \"#utility.yul\":5722:5836   */\n      swap5\n      pop\n        /* \"#utility.yul\":5859:5940   */\n      tag_247\n        /* \"#utility.yul\":5933:5939   */\n      dup4\n        /* \"#utility.yul\":5859:5940   */\n      tag_147\n      jump\t// in\n    tag_247:\n        /* \"#utility.yul\":5849:5940   */\n      swap3\n      pop\n        /* \"#utility.yul\":5969:5973   */\n      0x20\n        /* \"#utility.yul\":5964:5967   */\n      dup11\n        /* \"#utility.yul\":5960:5974   */\n      add\n        /* \"#utility.yul\":5953:5974   */\n      swap10\n      pop\n        /* \"#utility.yul\":5615:5984   */\n      pop\n        /* \"#utility.yul\":5602:5603   */\n      0x01\n        /* \"#utility.yul\":5599:5600   */\n      dup2\n        /* \"#utility.yul\":5595:5604   */\n      add\n        /* \"#utility.yul\":5590:5604   */\n      swap1\n      pop\n        /* \"#utility.yul\":5555:5984   */\n      jump(tag_243)\n    tag_245:\n        /* \"#utility.yul\":5559:5573   */\n      pop\n        /* \"#utility.yul\":6000:6004   */\n      dup3\n        /* \"#utility.yul\":5993:6004   */\n      swap8\n      pop\n        /* \"#utility.yul\":6020:6023   */\n      dup8\n        /* \"#utility.yul\":6013:6023   */\n      swap6\n      pop\n        /* \"#utility.yul\":5116:6029   */\n      pop\n      pop\n      pop\n      pop\n      pop\n        /* \"#utility.yul\":4950:6029   */\n      swap3\n      swap2\n      pop\n      pop\n      jump\t// out\n        /* \"#utility.yul\":6035:6492   */\n    tag_29:\n        /* \"#utility.yul\":6220:6224   */\n      0x00\n        /* \"#utility.yul\":6258:6260   */\n      0x20\n        /* \"#utility.yul\":6247:6256   */\n      dup3\n        /* \"#utility.yul\":6243:6261   */\n      add\n        /* \"#utility.yul\":6235:6261   */\n      swap1\n      pop\n        /* \"#utility.yul\":6307:6316   */\n      dup2\n        /* \"#utility.yul\":6301:6305   */\n      dup2\n        /* \"#utility.yul\":6297:6317   */\n      sub\n        /* \"#utility.yul\":6293:6294   */\n      0x00\n        /* \"#utility.yul\":6282:6291   */\n      dup4\n        /* \"#utility.yul\":6278:6295   */\n      add\n        /* \"#utility.yul\":6271:6318   */\n      mstore\n        /* \"#utility.yul\":6335:6485   */\n      tag_249\n        /* \"#utility.yul\":6480:6484   */\n      dup2\n        /* \"#utility.yul\":6471:6477   */\n      dup5\n        /* \"#utility.yul\":6335:6485   */\n      tag_148\n      jump\t// in\n    tag_249:\n        /* \"#utility.yul\":6327:6485   */\n      swap1\n      pop\n        /* \"#utility.yul\":6035:6492   */\n      swap3\n      swap2\n      pop\n      pop\n      jump\t// out\n        /* \"#utility.yul\":6498:6587   */\n    tag_149:\n        /* \"#utility.yul\":6534:6541   */\n      0x00\n        /* \"#utility.yul\":6574:6580   */\n      0xffff\n        /* \"#utility.yul\":6567:6572   */\n      dup3\n        /* \"#utility.yul\":6563:6581   */\n      and\n        /* \"#utility.yul\":6552:6581   */\n      swap1\n      pop\n        /* \"#utility.yul\":6498:6587   */\n      swap2\n      swap1\n      pop\n      jump\t// out\n        /* \"#utility.yul\":6593:6708   */\n    tag_150:\n        /* \"#utility.yul\":6678:6701   */\n      tag_252\n        /* \"#utility.yul\":6695:6700   */\n      dup2\n        /* \"#utility.yul\":6678:6701   */\n      tag_149\n      jump\t// in\n    tag_252:\n        /* \"#utility.yul\":6673:6676   */\n      dup3\n        /* \"#utility.yul\":6666:6702   */\n      mstore\n        /* \"#utility.yul\":6593:6708   */\n      pop\n      pop\n      jump\t// out\n        /* \"#utility.yul\":6714:6932   */\n    tag_36:\n        /* \"#utility.yul\":6805:6809   */\n      0x00\n        /* \"#utility.yul\":6843:6845   */\n      0x20\n        /* \"#utility.yul\":6832:6841   */\n      dup3\n        /* \"#utility.yul\":6828:6846   */\n      add\n        /* \"#utility.yul\":6820:6846   */\n      swap1\n      pop\n        /* \"#utility.yul\":6856:6925   */\n      tag_254\n        /* \"#utility.yul\":6922:6923   */\n      0x00\n        /* \"#utility.yul\":6911:6920   */\n      dup4\n        /* \"#utility.yul\":6907:6924   */\n      add\n        /* \"#utility.yul\":6898:6904   */\n      dup5\n        /* \"#utility.yul\":6856:6925   */\n      tag_150\n      jump\t// in\n    tag_254:\n        /* \"#utility.yul\":6714:6932   */\n      swap3\n      swap2\n      pop\n      pop\n      jump\t// out\n        /* \"#utility.yul\":6938:7055   */\n    tag_151:\n        /* \"#utility.yul\":7047:7048   */\n      0x00\n        /* \"#utility.yul\":7044:7045   */\n      dup1\n        /* \"#utility.yul\":7037:7049   */\n      revert\n        /* \"#utility.yul\":7061:7178   */\n    tag_152:\n        /* \"#utility.yul\":7170:7171   */\n      0x00\n        /* \"#utility.yul\":7167:7168   */\n      dup1\n        /* \"#utility.yul\":7160:7172   */\n      revert\n        /* \"#utility.yul\":7184:7364   */\n    tag_153:\n        /* \"#utility.yul\":7232:7309   */\n      0x4e487b7100000000000000000000000000000000000000000000000000000000\n        /* \"#utility.yul\":7229:7230   */\n      0x00\n        /* \"#utility.yul\":7222:7310   */\n      mstore\n        /* \"#utility.yul\":7329:7333   */\n      0x41\n        /* \"#utility.yul\":7326:7327   */\n      0x04\n        /* \"#utility.yul\":7319:7334   */\n      mstore\n        /* \"#utility.yul\":7353:7357   */\n      0x24\n        /* \"#utility.yul\":7350:7351   */\n      0x00\n        /* \"#utility.yul\":7343:7358   */\n      revert\n        /* \"#utility.yul\":7370:7651   */\n    tag_154:\n        /* \"#utility.yul\":7453:7480   */\n      tag_259\n        /* \"#utility.yul\":7475:7479   */\n      dup3\n        /* \"#utility.yul\":7453:7480   */\n      tag_143\n      jump\t// in\n    tag_259:\n        /* \"#utility.yul\":7445:7451   */\n      dup2\n        /* \"#utility.yul\":7441:7481   */\n      add\n        /* \"#utility.yul\":7583:7589   */\n      dup2\n        /* \"#utility.yul\":7571:7581   */\n      dup2\n        /* \"#utility.yul\":7568:7590   */\n      lt\n        /* \"#utility.yul\":7547:7565   */\n      0xffffffffffffffff\n        /* \"#utility.yul\":7535:7545   */\n      dup3\n        /* \"#utility.yul\":7532:7566   */\n      gt\n        /* \"#utility.yul\":7529:7591   */\n      or\n        /* \"#utility.yul\":7526:7614   */\n      iszero\n      tag_260\n      jumpi\n        /* \"#utility.yul\":7594:7612   */\n      tag_261\n      tag_153\n      jump\t// in\n    tag_261:\n        /* \"#utility.yul\":7526:7614   */\n    tag_260:\n        /* \"#utility.yul\":7634:7644   */\n      dup1\n        /* \"#utility.yul\":7630:7632   */\n      0x40\n        /* \"#utility.yul\":7623:7645   */\n      mstore\n        /* \"#utility.yul\":7413:7651   */\n      pop\n        /* \"#utility.yul\":7370:7651   */\n      pop\n      pop\n      jump\t// out\n        /* \"#utility.yul\":7657:7786   */\n    tag_155:\n        /* \"#utility.yul\":7691:7697   */\n      0x00\n        /* \"#utility.yul\":7718:7738   */\n      tag_263\n      tag_128\n      jump\t// in\n    tag_263:\n        /* \"#utility.yul\":7708:7738   */\n      swap1\n      pop\n        /* \"#utility.yul\":7747:7780   */\n      tag_264\n        /* \"#utility.yul\":7775:7779   */\n      dup3\n        /* \"#utility.yul\":7767:7773   */\n      dup3\n        /* \"#utility.yul\":7747:7780   */\n      tag_154\n      jump\t// in\n    tag_264:\n        /* \"#utility.yul\":7657:7786   */\n      swap2\n      swap1\n      pop\n      jump\t// out\n        /* \"#utility.yul\":7792:8100   */\n    tag_156:\n        /* \"#utility.yul\":7854:7858   */\n      0x00\n        /* \"#utility.yul\":7944:7962   */\n      0xffffffffffffffff\n        /* \"#utility.yul\":7936:7942   */\n      dup3\n        /* \"#utility.yul\":7933:7963   */\n      gt\n        /* \"#utility.yul\":7930:7986   */\n      iszero\n      tag_266\n      jumpi\n        /* \"#utility.yul\":7966:7984   */\n      tag_267\n      tag_153\n      jump\t// in\n    tag_267:\n        /* \"#utility.yul\":7930:7986   */\n    tag_266:\n        /* \"#utility.yul\":8004:8033   */\n      tag_268\n        /* \"#utility.yul\":8026:8032   */\n      dup3\n        /* \"#utility.yul\":8004:8033   */\n      tag_143\n      jump\t// in\n    tag_268:\n        /* \"#utility.yul\":7996:8033   */\n      swap1\n      pop\n        /* \"#utility.yul\":8088:8092   */\n      0x20\n        /* \"#utility.yul\":8082:8086   */\n      dup2\n        /* \"#utility.yul\":8078:8093   */\n      add\n        /* \"#utility.yul\":8070:8093   */\n      swap1\n      pop\n        /* \"#utility.yul\":7792:8100   */\n      swap2\n      swap1\n      pop\n      jump\t// out\n        /* \"#utility.yul\":8106:8252   */\n    tag_157:\n        /* \"#utility.yul\":8203:8209   */\n      dup3\n        /* \"#utility.yul\":8198:8201   */\n      dup2\n        /* \"#utility.yul\":8193:8196   */\n      dup4\n        /* \"#utility.yul\":8180:8210   */\n      calldatacopy\n        /* \"#utility.yul\":8244:8245   */\n      0x00\n        /* \"#utility.yul\":8235:8241   */\n      dup4\n        /* \"#utility.yul\":8230:8233   */\n      dup4\n        /* \"#utility.yul\":8226:8242   */\n      add\n        /* \"#utility.yul\":8219:8246   */\n      mstore\n        /* \"#utility.yul\":8106:8252   */\n      pop\n      pop\n      pop\n      jump\t// out\n        /* \"#utility.yul\":8258:8683   */\n    tag_158:\n        /* \"#utility.yul\":8336:8341   */\n      0x00\n        /* \"#utility.yul\":8361:8427   */\n      tag_271\n        /* \"#utility.yul\":8377:8426   */\n      tag_272\n        /* \"#utility.yul\":8419:8425   */\n      dup5\n        /* \"#utility.yul\":8377:8426   */\n      tag_156\n      jump\t// in\n    tag_272:\n        /* \"#utility.yul\":8361:8427   */\n      tag_155\n      jump\t// in\n    tag_271:\n        /* \"#utility.yul\":8352:8427   */\n      swap1\n      pop\n        /* \"#utility.yul\":8450:8456   */\n      dup3\n        /* \"#utility.yul\":8443:8448   */\n      dup2\n        /* \"#utility.yul\":8436:8457   */\n      mstore\n        /* \"#utility.yul\":8488:8492   */\n      0x20\n        /* \"#utility.yul\":8481:8486   */\n      dup2\n        /* \"#utility.yul\":8477:8493   */\n      add\n        /* \"#utility.yul\":8526:8529   */\n      dup5\n        /* \"#utility.yul\":8517:8523   */\n      dup5\n        /* \"#utility.yul\":8512:8515   */\n      dup5\n        /* \"#utility.yul\":8508:8524   */\n      add\n        /* \"#utility.yul\":8505:8530   */\n      gt\n        /* \"#utility.yul\":8502:8614   */\n      iszero\n      tag_273\n      jumpi\n        /* \"#utility.yul\":8533:8612   */\n      tag_274\n      tag_152\n      jump\t// in\n    tag_274:\n        /* \"#utility.yul\":8502:8614   */\n    tag_273:\n        /* \"#utility.yul\":8623:8677   */\n      tag_275\n        /* \"#utility.yul\":8670:8676   */\n      dup5\n        /* \"#utility.yul\":8665:8668   */\n      dup3\n        /* \"#utility.yul\":8660:8663   */\n      dup6\n        /* \"#utility.yul\":8623:8677   */\n      tag_157\n      jump\t// in\n    tag_275:\n        /* \"#utility.yul\":8342:8683   */\n      pop\n        /* \"#utility.yul\":8258:8683   */\n      swap4\n      swap3\n      pop\n      pop\n      pop\n      jump\t// out\n        /* \"#utility.yul\":8703:9043   */\n    tag_159:\n        /* \"#utility.yul\":8759:8764   */\n      0x00\n        /* \"#utility.yul\":8808:8811   */\n      dup3\n        /* \"#utility.yul\":8801:8805   */\n      0x1f\n        /* \"#utility.yul\":8793:8799   */\n      dup4\n        /* \"#utility.yul\":8789:8806   */\n      add\n        /* \"#utility.yul\":8785:8812   */\n      slt\n        /* \"#utility.yul\":8775:8897   */\n      tag_277\n      jumpi\n        /* \"#utility.yul\":8816:8895   */\n      tag_278\n      tag_151\n      jump\t// in\n    tag_278:\n        /* \"#utility.yul\":8775:8897   */\n    tag_277:\n        /* \"#utility.yul\":8933:8939   */\n      dup2\n        /* \"#utility.yul\":8920:8940   */\n      calldataload\n        /* \"#utility.yul\":8958:9037   */\n      tag_279\n        /* \"#utility.yul\":9033:9036   */\n      dup5\n        /* \"#utility.yul\":9025:9031   */\n      dup3\n        /* \"#utility.yul\":9018:9022   */\n      0x20\n        /* \"#utility.yul\":9010:9016   */\n      dup7\n        /* \"#utility.yul\":9006:9023   */\n      add\n        /* \"#utility.yul\":8958:9037   */\n      tag_158\n      jump\t// in\n    tag_279:\n        /* \"#utility.yul\":8949:9037   */\n      swap2\n      pop\n        /* \"#utility.yul\":8765:9043   */\n      pop\n        /* \"#utility.yul\":8703:9043   */\n      swap3\n      swap2\n      pop\n      pop\n      jump\t// out\n        /* \"#utility.yul\":9049:9558   */\n    tag_42:\n        /* \"#utility.yul\":9118:9124   */\n      0x00\n        /* \"#utility.yul\":9167:9169   */\n      0x20\n        /* \"#utility.yul\":9155:9164   */\n      dup3\n        /* \"#utility.yul\":9146:9153   */\n      dup5\n        /* \"#utility.yul\":9142:9165   */\n      sub\n        /* \"#utility.yul\":9138:9170   */\n      slt\n        /* \"#utility.yul\":9135:9254   */\n      iszero\n      tag_281\n      jumpi\n        /* \"#utility.yul\":9173:9252   */\n      tag_282\n      tag_129\n      jump\t// in\n    tag_282:\n        /* \"#utility.yul\":9135:9254   */\n    tag_281:\n        /* \"#utility.yul\":9321:9322   */\n      0x00\n        /* \"#utility.yul\":9310:9319   */\n      dup3\n        /* \"#utility.yul\":9306:9323   */\n      add\n        /* \"#utility.yul\":9293:9324   */\n      calldataload\n        /* \"#utility.yul\":9351:9369   */\n      0xffffffffffffffff\n        /* \"#utility.yul\":9343:9349   */\n      dup2\n        /* \"#utility.yul\":9340:9370   */\n      gt\n        /* \"#utility.yul\":9337:9454   */\n      iszero\n      tag_283\n      jumpi\n        /* \"#utility.yul\":9373:9452   */\n      tag_284\n      tag_130\n      jump\t// in\n    tag_284:\n        /* \"#utility.yul\":9337:9454   */\n    tag_283:\n        /* \"#utility.yul\":9478:9541   */\n      tag_285\n        /* \"#utility.yul\":9533:9540   */\n      dup5\n        /* \"#utility.yul\":9524:9530   */\n      dup3\n        /* \"#utility.yul\":9513:9522   */\n      dup6\n        /* \"#utility.yul\":9509:9531   */\n      add\n        /* \"#utility.yul\":9478:9541   */\n      tag_159\n      jump\t// in\n    tag_285:\n        /* \"#utility.yul\":9468:9541   */\n      swap2\n      pop\n        /* \"#utility.yul\":9264:9551   */\n      pop\n        /* \"#utility.yul\":9049:9558   */\n      swap3\n      swap2\n      pop\n      pop\n      jump\t// out\n        /* \"#utility.yul\":9564:9654   */\n    tag_160:\n        /* \"#utility.yul\":9598:9605   */\n      0x00\n        /* \"#utility.yul\":9641:9646   */\n      dup2\n        /* \"#utility.yul\":9634:9647   */\n      iszero\n        /* \"#utility.yul\":9627:9648   */\n      iszero\n        /* \"#utility.yul\":9616:9648   */\n      swap1\n      pop\n        /* \"#utility.yul\":9564:9654   */\n      swap2\n      swap1\n      pop\n      jump\t// out\n        /* \"#utility.yul\":9660:9769   */\n    tag_161:\n        /* \"#utility.yul\":9741:9762   */\n      tag_288\n        /* \"#utility.yul\":9756:9761   */\n      dup2\n        /* \"#utility.yul\":9741:9762   */\n      tag_160\n      jump\t// in\n    tag_288:\n        /* \"#utility.yul\":9736:9739   */\n      dup3\n        /* \"#utility.yul\":9729:9763   */\n      mstore\n        /* \"#utility.yul\":9660:9769   */\n      pop\n      pop\n      jump\t// out\n        /* \"#utility.yul\":9775:9985   */\n    tag_47:\n        /* \"#utility.yul\":9862:9866   */\n      0x00\n        /* \"#utility.yul\":9900:9902   */\n      0x20\n        /* \"#utility.yul\":9889:9898   */\n      dup3\n        /* \"#utility.yul\":9885:9903   */\n      add\n        /* \"#utility.yul\":9877:9903   */\n      swap1\n      pop\n        /* \"#utility.yul\":9913:9978   */\n      tag_290\n        /* \"#utility.yul\":9975:9976   */\n      0x00\n        /* \"#utility.yul\":9964:9973   */\n      dup4\n        /* \"#utility.yul\":9960:9977   */\n      add\n        /* \"#utility.yul\":9951:9957   */\n      dup5\n        /* \"#utility.yul\":9913:9978   */\n      tag_161\n      jump\t// in\n    tag_290:\n        /* \"#utility.yul\":9775:9985   */\n      swap3\n      swap2\n      pop\n      pop\n      jump\t// out\n        /* \"#utility.yul\":9991:10109   */\n    tag_162:\n        /* \"#utility.yul\":10078:10102   */\n      tag_292\n        /* \"#utility.yul\":10096:10101   */\n      dup2\n        /* \"#utility.yul\":10078:10102   */\n      tag_138\n      jump\t// in\n    tag_292:\n        /* \"#utility.yul\":10073:10076   */\n      dup3\n        /* \"#utility.yul\":10066:10103   */\n      mstore\n        /* \"#utility.yul\":9991:10109   */\n      pop\n      pop\n      jump\t// out\n        /* \"#utility.yul\":10115:10284   */\n    tag_163:\n        /* \"#utility.yul\":10199:10210   */\n      0x00\n        /* \"#utility.yul\":10233:10239   */\n      dup3\n        /* \"#utility.yul\":10228:10231   */\n      dup3\n        /* \"#utility.yul\":10221:10240   */\n      mstore\n        /* \"#utility.yul\":10273:10277   */\n      0x20\n        /* \"#utility.yul\":10268:10271   */\n      dup3\n        /* \"#utility.yul\":10264:10278   */\n      add\n        /* \"#utility.yul\":10249:10278   */\n      swap1\n      pop\n        /* \"#utility.yul\":10115:10284   */\n      swap3\n      swap2\n      pop\n      pop\n      jump\t// out\n        /* \"#utility.yul\":10290:10667   */\n    tag_164:\n        /* \"#utility.yul\":10378:10381   */\n      0x00\n        /* \"#utility.yul\":10406:10445   */\n      tag_295\n        /* \"#utility.yul\":10439:10444   */\n      dup3\n        /* \"#utility.yul\":10406:10445   */\n      tag_140\n      jump\t// in\n    tag_295:\n        /* \"#utility.yul\":10461:10532   */\n      tag_296\n        /* \"#utility.yul\":10525:10531   */\n      dup2\n        /* \"#utility.yul\":10520:10523   */\n      dup6\n        /* \"#utility.yul\":10461:10532   */\n      tag_163\n      jump\t// in\n    tag_296:\n        /* \"#utility.yul\":10454:10532   */\n      swap4\n      pop\n        /* \"#utility.yul\":10541:10606   */\n      tag_297\n        /* \"#utility.yul\":10599:10605   */\n      dup2\n        /* \"#utility.yul\":10594:10597   */\n      dup6\n        /* \"#utility.yul\":10587:10591   */\n      0x20\n        /* \"#utility.yul\":10580:10585   */\n      dup7\n        /* \"#utility.yul\":10576:10592   */\n      add\n        /* \"#utility.yul\":10541:10606   */\n      tag_142\n      jump\t// in\n    tag_297:\n        /* \"#utility.yul\":10631:10660   */\n      tag_298\n        /* \"#utility.yul\":10653:10659   */\n      dup2\n        /* \"#utility.yul\":10631:10660   */\n      tag_143\n      jump\t// in\n    tag_298:\n        /* \"#utility.yul\":10626:10629   */\n      dup5\n        /* \"#utility.yul\":10622:10661   */\n      add\n        /* \"#utility.yul\":10615:10661   */\n      swap2\n      pop\n        /* \"#utility.yul\":10382:10667   */\n      pop\n        /* \"#utility.yul\":10290:10667   */\n      swap3\n      swap2\n      pop\n      pop\n      jump\t// out\n        /* \"#utility.yul\":10673:11428   */\n    tag_52:\n        /* \"#utility.yul\":10898:10902   */\n      0x00\n        /* \"#utility.yul\":10936:10939   */\n      0xa0\n        /* \"#utility.yul\":10925:10934   */\n      dup3\n        /* \"#utility.yul\":10921:10940   */\n      add\n        /* \"#utility.yul\":10913:10940   */\n      swap1\n      pop\n        /* \"#utility.yul\":10950:11021   */\n      tag_300\n        /* \"#utility.yul\":11018:11019   */\n      0x00\n        /* \"#utility.yul\":11007:11016   */\n      dup4\n        /* \"#utility.yul\":11003:11020   */\n      add\n        /* \"#utility.yul\":10994:11000   */\n      dup9\n        /* \"#utility.yul\":10950:11021   */\n      tag_127\n      jump\t// in\n    tag_300:\n        /* \"#utility.yul\":11031:11103   */\n      tag_301\n        /* \"#utility.yul\":11099:11101   */\n      0x20\n        /* \"#utility.yul\":11088:11097   */\n      dup4\n        /* \"#utility.yul\":11084:11102   */\n      add\n        /* \"#utility.yul\":11075:11081   */\n      dup8\n        /* \"#utility.yul\":11031:11103   */\n      tag_162\n      jump\t// in\n    tag_301:\n        /* \"#utility.yul\":11150:11159   */\n      dup2\n        /* \"#utility.yul\":11144:11148   */\n      dup2\n        /* \"#utility.yul\":11140:11160   */\n      sub\n        /* \"#utility.yul\":11135:11137   */\n      0x40\n        /* \"#utility.yul\":11124:11133   */\n      dup4\n        /* \"#utility.yul\":11120:11138   */\n      add\n        /* \"#utility.yul\":11113:11161   */\n      mstore\n        /* \"#utility.yul\":11178:11256   */\n      tag_302\n        /* \"#utility.yul\":11251:11255   */\n      dup2\n        /* \"#utility.yul\":11242:11248   */\n      dup7\n        /* \"#utility.yul\":11178:11256   */\n      tag_164\n      jump\t// in\n    tag_302:\n        /* \"#utility.yul\":11170:11256   */\n      swap1\n      pop\n        /* \"#utility.yul\":11266:11338   */\n      tag_303\n        /* \"#utility.yul\":11334:11336   */\n      0x60\n        /* \"#utility.yul\":11323:11332   */\n      dup4\n        /* \"#utility.yul\":11319:11337   */\n      add\n        /* \"#utility.yul\":11310:11316   */\n      dup6\n        /* \"#utility.yul\":11266:11338   */\n      tag_127\n      jump\t// in\n    tag_303:\n        /* \"#utility.yul\":11348:11421   */\n      tag_304\n        /* \"#utility.yul\":11416:11419   */\n      0x80\n        /* \"#utility.yul\":11405:11414   */\n      dup4\n        /* \"#utility.yul\":11401:11420   */\n      add\n        /* \"#utility.yul\":11392:11398   */\n      dup5\n        /* \"#utility.yul\":11348:11421   */\n      tag_127\n      jump\t// in\n    tag_304:\n        /* \"#utility.yul\":10673:11428   */\n      swap7\n      swap6\n      pop\n      pop\n      pop\n      pop\n      pop\n      pop\n      jump\t// out\n        /* \"#utility.yul\":11434:11598   */\n    tag_165:\n        /* \"#utility.yul\":11574:11590   */\n      0x526f6f6d20697320636c6f736564000000000000000000000000000000000000\n        /* \"#utility.yul\":11570:11571   */\n      0x00\n        /* \"#utility.yul\":11562:11568   */\n      dup3\n        /* \"#utility.yul\":11558:11572   */\n      add\n        /* \"#utility.yul\":11551:11591   */\n      mstore\n        /* \"#utility.yul\":11434:11598   */\n      pop\n      jump\t// out\n        /* \"#utility.yul\":11604:11970   */\n    tag_166:\n        /* \"#utility.yul\":11746:11749   */\n      0x00\n        /* \"#utility.yul\":11767:11834   */\n      tag_307\n        /* \"#utility.yul\":11831:11833   */\n      0x0e\n        /* \"#utility.yul\":11826:11829   */\n      dup4\n        /* \"#utility.yul\":11767:11834   */\n      tag_163\n      jump\t// in\n    tag_307:\n        /* \"#utility.yul\":11760:11834   */\n      swap2\n      pop\n        /* \"#utility.yul\":11843:11936   */\n      tag_308\n        /* \"#utility.yul\":11932:11935   */\n      dup3\n        /* \"#utility.yul\":11843:11936   */\n      tag_165\n      jump\t// in\n    tag_308:\n        /* \"#utility.yul\":11961:11963   */\n      0x20\n        /* \"#utility.yul\":11956:11959   */\n      dup3\n        /* \"#utility.yul\":11952:11964   */\n      add\n        /* \"#utility.yul\":11945:11964   */\n      swap1\n      pop\n        /* \"#utility.yul\":11604:11970   */\n      swap2\n      swap1\n      pop\n      jump\t// out\n        /* \"#utility.yul\":11976:12395   */\n    tag_60:\n        /* \"#utility.yul\":12142:12146   */\n      0x00\n        /* \"#utility.yul\":12180:12182   */\n      0x20\n        /* \"#utility.yul\":12169:12178   */\n      dup3\n        /* \"#utility.yul\":12165:12183   */\n      add\n        /* \"#utility.yul\":12157:12183   */\n      swap1\n      pop\n        /* \"#utility.yul\":12229:12238   */\n      dup2\n        /* \"#utility.yul\":12223:12227   */\n      dup2\n        /* \"#utility.yul\":12219:12239   */\n      sub\n        /* \"#utility.yul\":12215:12216   */\n      0x00\n        /* \"#utility.yul\":12204:12213   */\n      dup4\n        /* \"#utility.yul\":12200:12217   */\n      add\n        /* \"#utility.yul\":12193:12240   */\n      mstore\n        /* \"#utility.yul\":12257:12388   */\n      tag_310\n        /* \"#utility.yul\":12383:12387   */\n      dup2\n        /* \"#utility.yul\":12257:12388   */\n      tag_166\n      jump\t// in\n    tag_310:\n        /* \"#utility.yul\":12249:12388   */\n      swap1\n      pop\n        /* \"#utility.yul\":11976:12395   */\n      swap2\n      swap1\n      pop\n      jump\t// out\n        /* \"#utility.yul\":12401:12566   */\n    tag_167:\n        /* \"#utility.yul\":12541:12558   */\n      0x5477656574206e6f7420666f756e640000000000000000000000000000000000\n        /* \"#utility.yul\":12537:12538   */\n      0x00\n        /* \"#utility.yul\":12529:12535   */\n      dup3\n        /* \"#utility.yul\":12525:12539   */\n      add\n        /* \"#utility.yul\":12518:12559   */\n      mstore\n        /* \"#utility.yul\":12401:12566   */\n      pop\n      jump\t// out\n        /* \"#utility.yul\":12572:12938   */\n    tag_168:\n        /* \"#utility.yul\":12714:12717   */\n      0x00\n        /* \"#utility.yul\":12735:12802   */\n      tag_313\n        /* \"#utility.yul\":12799:12801   */\n      0x0f\n        /* \"#utility.yul\":12794:12797   */\n      dup4\n        /* \"#utility.yul\":12735:12802   */\n      tag_163\n      jump\t// in\n    tag_313:\n        /* \"#utility.yul\":12728:12802   */\n      swap2\n      pop\n        /* \"#utility.yul\":12811:12904   */\n      tag_314\n        /* \"#utility.yul\":12900:12903   */\n      dup3\n        /* \"#utility.yul\":12811:12904   */\n      tag_167\n      jump\t// in\n    tag_314:\n        /* \"#utility.yul\":12929:12931   */\n      0x20\n        /* \"#utility.yul\":12924:12927   */\n      dup3\n        /* \"#utility.yul\":12920:12932   */\n      add\n        /* \"#utility.yul\":12913:12932   */\n      swap1\n      pop\n        /* \"#utility.yul\":12572:12938   */\n      swap2\n      swap1\n      pop\n      jump\t// out\n        /* \"#utility.yul\":12944:13363   */\n    tag_64:\n        /* \"#utility.yul\":13110:13114   */\n      0x00\n        /* \"#utility.yul\":13148:13150   */\n      0x20\n        /* \"#utility.yul\":13137:13146   */\n      dup3\n        /* \"#utility.yul\":13133:13151   */\n      add\n        /* \"#utility.yul\":13125:13151   */\n      swap1\n      pop\n        /* \"#utility.yul\":13197:13206   */\n      dup2\n        /* \"#utility.yul\":13191:13195   */\n      dup2\n        /* \"#utility.yul\":13187:13207   */\n      sub\n        /* \"#utility.yul\":13183:13184   */\n      0x00\n        /* \"#utility.yul\":13172:13181   */\n      dup4\n        /* \"#utility.yul\":13168:13185   */\n      add\n        /* \"#utility.yul\":13161:13208   */\n      mstore\n        /* \"#utility.yul\":13225:13356   */\n      tag_316\n        /* \"#utility.yul\":13351:13355   */\n      dup2\n        /* \"#utility.yul\":13225:13356   */\n      tag_168\n      jump\t// in\n    tag_316:\n        /* \"#utility.yul\":13217:13356   */\n      swap1\n      pop\n        /* \"#utility.yul\":12944:13363   */\n      swap2\n      swap1\n      pop\n      jump\t// out\n        /* \"#utility.yul\":13369:13549   */\n    tag_67:\n        /* \"#utility.yul\":13417:13494   */\n      0x4e487b7100000000000000000000000000000000000000000000000000000000\n        /* \"#utility.yul\":13414:13415   */\n      0x00\n        /* \"#utility.yul\":13407:13495   */\n      mstore\n        /* \"#utility.yul\":13514:13518   */\n      0x32\n        /* \"#utility.yul\":13511:13512   */\n      0x04\n        /* \"#utility.yul\":13504:13519   */\n      mstore\n        /* \"#utility.yul\":13538:13542   */\n      0x24\n        /* \"#utility.yul\":13535:13536   */\n      0x00\n        /* \"#utility.yul\":13528:13543   */\n      revert\n        /* \"#utility.yul\":13555:13723   */\n    tag_169:\n        /* \"#utility.yul\":13695:13715   */\n      0x4e6f206c696b657320746f2072656d6f76650000000000000000000000000000\n        /* \"#utility.yul\":13691:13692   */\n      0x00\n        /* \"#utility.yul\":13683:13689   */\n      dup3\n        /* \"#utility.yul\":13679:13693   */\n      add\n        /* \"#utility.yul\":13672:13716   */\n      mstore\n        /* \"#utility.yul\":13555:13723   */\n      pop\n      jump\t// out\n        /* \"#utility.yul\":13729:14095   */\n    tag_170:\n        /* \"#utility.yul\":13871:13874   */\n      0x00\n        /* \"#utility.yul\":13892:13959   */\n      tag_320\n        /* \"#utility.yul\":13956:13958   */\n      0x12\n        /* \"#utility.yul\":13951:13954   */\n      dup4\n        /* \"#utility.yul\":13892:13959   */\n      tag_163\n      jump\t// in\n    tag_320:\n        /* \"#utility.yul\":13885:13959   */\n      swap2\n      pop\n        /* \"#utility.yul\":13968:14061   */\n      tag_321\n        /* \"#utility.yul\":14057:14060   */\n      dup3\n        /* \"#utility.yul\":13968:14061   */\n      tag_169\n      jump\t// in\n    tag_321:\n        /* \"#utility.yul\":14086:14088   */\n      0x20\n        /* \"#utility.yul\":14081:14084   */\n      dup3\n        /* \"#utility.yul\":14077:14089   */\n      add\n        /* \"#utility.yul\":14070:14089   */\n      swap1\n      pop\n        /* \"#utility.yul\":13729:14095   */\n      swap2\n      swap1\n      pop\n      jump\t// out\n        /* \"#utility.yul\":14101:14520   */\n    tag_71:\n        /* \"#utility.yul\":14267:14271   */\n      0x00\n        /* \"#utility.yul\":14305:14307   */\n      0x20\n        /* \"#utility.yul\":14294:14303   */\n      dup3\n        /* \"#utility.yul\":14290:14308   */\n      add\n        /* \"#utility.yul\":14282:14308   */\n      swap1\n      pop\n        /* \"#utility.yul\":14354:14363   */\n      dup2\n        /* \"#utility.yul\":14348:14352   */\n      dup2\n        /* \"#utility.yul\":14344:14364   */\n      sub\n        /* \"#utility.yul\":14340:14341   */\n      0x00\n        /* \"#utility.yul\":14329:14338   */\n      dup4\n        /* \"#utility.yul\":14325:14342   */\n      add\n        /* \"#utility.yul\":14318:14365   */\n      mstore\n        /* \"#utility.yul\":14382:14513   */\n      tag_323\n        /* \"#utility.yul\":14508:14512   */\n      dup2\n        /* \"#utility.yul\":14382:14513   */\n      tag_170\n      jump\t// in\n    tag_323:\n        /* \"#utility.yul\":14374:14513   */\n      swap1\n      pop\n        /* \"#utility.yul\":14101:14520   */\n      swap2\n      swap1\n      pop\n      jump\t// out\n        /* \"#utility.yul\":14526:14706   */\n    tag_171:\n        /* \"#utility.yul\":14574:14651   */\n      0x4e487b7100000000000000000000000000000000000000000000000000000000\n        /* \"#utility.yul\":14571:14572   */\n      0x00\n        /* \"#utility.yul\":14564:14652   */\n      mstore\n        /* \"#utility.yul\":14671:14675   */\n      0x11\n        /* \"#utility.yul\":14668:14669   */\n      0x04\n        /* \"#utility.yul\":14661:14676   */\n      mstore\n        /* \"#utility.yul\":14695:14699   */\n      0x24\n        /* \"#utility.yul\":14692:14693   */\n      0x00\n        /* \"#utility.yul\":14685:14700   */\n      revert\n        /* \"#utility.yul\":14712:14883   */\n    tag_76:\n        /* \"#utility.yul\":14751:14754   */\n      0x00\n        /* \"#utility.yul\":14774:14798   */\n      tag_326\n        /* \"#utility.yul\":14792:14797   */\n      dup3\n        /* \"#utility.yul\":14774:14798   */\n      tag_126\n      jump\t// in\n    tag_326:\n        /* \"#utility.yul\":14765:14798   */\n      swap2\n      pop\n        /* \"#utility.yul\":14820:14824   */\n      0x00\n        /* \"#utility.yul\":14813:14818   */\n      dup3\n        /* \"#utility.yul\":14810:14825   */\n      sub\n        /* \"#utility.yul\":14807:14848   */\n      tag_327\n      jumpi\n        /* \"#utility.yul\":14828:14846   */\n      tag_328\n      tag_171\n      jump\t// in\n    tag_328:\n        /* \"#utility.yul\":14807:14848   */\n    tag_327:\n        /* \"#utility.yul\":14875:14876   */\n      0x01\n        /* \"#utility.yul\":14868:14873   */\n      dup3\n        /* \"#utility.yul\":14864:14877   */\n      sub\n        /* \"#utility.yul\":14857:14877   */\n      swap1\n      pop\n        /* \"#utility.yul\":14712:14883   */\n      swap2\n      swap1\n      pop\n      jump\t// out\n        /* \"#utility.yul\":14889:15069   */\n    tag_172:\n        /* \"#utility.yul\":14937:15014   */\n      0x4e487b7100000000000000000000000000000000000000000000000000000000\n        /* \"#utility.yul\":14934:14935   */\n      0x00\n        /* \"#utility.yul\":14927:15015   */\n      mstore\n        /* \"#utility.yul\":15034:15038   */\n      0x22\n        /* \"#utility.yul\":15031:15032   */\n      0x04\n        /* \"#utility.yul\":15024:15039   */\n      mstore\n        /* \"#utility.yul\":15058:15062   */\n      0x24\n        /* \"#utility.yul\":15055:15056   */\n      0x00\n        /* \"#utility.yul\":15048:15063   */\n      revert\n        /* \"#utility.yul\":15075:15395   */\n    tag_82:\n        /* \"#utility.yul\":15119:15125   */\n      0x00\n        /* \"#utility.yul\":15156:15157   */\n      0x02\n        /* \"#utility.yul\":15150:15154   */\n      dup3\n        /* \"#utility.yul\":15146:15158   */\n      div\n        /* \"#utility.yul\":15136:15158   */\n      swap1\n      pop\n        /* \"#utility.yul\":15203:15204   */\n      0x01\n        /* \"#utility.yul\":15197:15201   */\n      dup3\n        /* \"#utility.yul\":15193:15205   */\n      and\n        /* \"#utility.yul\":15224:15242   */\n      dup1\n        /* \"#utility.yul\":15214:15295   */\n      tag_331\n      jumpi\n        /* \"#utility.yul\":15280:15284   */\n      0x7f\n        /* \"#utility.yul\":15272:15278   */\n      dup3\n        /* \"#utility.yul\":15268:15285   */\n      and\n        /* \"#utility.yul\":15258:15285   */\n      swap2\n      pop\n        /* \"#utility.yul\":15214:15295   */\n    tag_331:\n        /* \"#utility.yul\":15342:15344   */\n      0x20\n        /* \"#utility.yul\":15334:15340   */\n      dup3\n        /* \"#utility.yul\":15331:15345   */\n      lt\n        /* \"#utility.yul\":15311:15329   */\n      dup2\n        /* \"#utility.yul\":15308:15346   */\n      sub\n        /* \"#utility.yul\":15305:15389   */\n      tag_332\n      jumpi\n        /* \"#utility.yul\":15361:15379   */\n      tag_333\n      tag_172\n      jump\t// in\n    tag_333:\n        /* \"#utility.yul\":15305:15389   */\n    tag_332:\n        /* \"#utility.yul\":15126:15395   */\n      pop\n        /* \"#utility.yul\":15075:15395   */\n      swap2\n      swap1\n      pop\n      jump\t// out\n        /* \"#utility.yul\":15401:15634   */\n    tag_98:\n        /* \"#utility.yul\":15440:15443   */\n      0x00\n        /* \"#utility.yul\":15463:15487   */\n      tag_335\n        /* \"#utility.yul\":15481:15486   */\n      dup3\n        /* \"#utility.yul\":15463:15487   */\n      tag_126\n      jump\t// in\n    tag_335:\n        /* \"#utility.yul\":15454:15487   */\n      swap2\n      pop\n        /* \"#utility.yul\":15509:15575   */\n      0xffffffffffffffffffffffffffffffffffffffffffffffffffffffffffffffff\n        /* \"#utility.yul\":15502:15507   */\n      dup3\n        /* \"#utility.yul\":15499:15576   */\n      sub\n        /* \"#utility.yul\":15496:15599   */\n      tag_336\n      jumpi\n        /* \"#utility.yul\":15579:15597   */\n      tag_337\n      tag_171\n      jump\t// in\n    tag_337:\n        /* \"#utility.yul\":15496:15599   */\n    tag_336:\n        /* \"#utility.yul\":15626:15627   */\n      0x01\n        /* \"#utility.yul\":15619:15624   */\n      dup3\n        /* \"#utility.yul\":15615:15628   */\n      add\n        /* \"#utility.yul\":15608:15628   */\n      swap1\n      pop\n        /* \"#utility.yul\":15401:15634   */\n      swap2\n      swap1\n      pop\n      jump\t// out\n        /* \"#utility.yul\":15640:15831   */\n    tag_102:\n        /* \"#utility.yul\":15680:15683   */\n      0x00\n        /* \"#utility.yul\":15699:15719   */\n      tag_339\n        /* \"#utility.yul\":15717:15718   */\n      dup3\n        /* \"#utility.yul\":15699:15719   */\n      tag_126\n      jump\t// in\n    tag_339:\n        /* \"#utility.yul\":15694:15719   */\n      swap2\n      pop\n        /* \"#utility.yul\":15733:15753   */\n      tag_340\n        /* \"#utility.yul\":15751:15752   */\n      dup4\n        /* \"#utility.yul\":15733:15753   */\n      tag_126\n      jump\t// in\n    tag_340:\n        /* \"#utility.yul\":15728:15753   */\n      swap3\n      pop\n        /* \"#utility.yul\":15776:15777   */\n      dup3\n        /* \"#utility.yul\":15773:15774   */\n      dup3\n        /* \"#utility.yul\":15769:15778   */\n      add\n        /* \"#utility.yul\":15762:15778   */\n      swap1\n      pop\n        /* \"#utility.yul\":15797:15800   */\n      dup1\n        /* \"#utility.yul\":15794:15795   */\n      dup3\n        /* \"#utility.yul\":15791:15801   */\n      gt\n        /* \"#utility.yul\":15788:15824   */\n      iszero\n      tag_341\n      jumpi\n        /* \"#utility.yul\":15804:15822   */\n      tag_342\n      tag_171\n      jump\t// in\n    tag_342:\n        /* \"#utility.yul\":15788:15824   */\n    tag_341:\n        /* \"#utility.yul\":15640:15831   */\n      swap3\n      swap2\n      pop\n      pop\n      jump\t// out\n        /* \"#utility.yul\":15837:16002   */\n    tag_173:\n        /* \"#utility.yul\":15977:15994   */\n      0x547765657420746f6f206c6f6e67210000000000000000000000000000000000\n        /* \"#utility.yul\":15973:15974   */\n      0x00\n        /* \"#utility.yul\":15965:15971   */\n      dup3\n        /* \"#utility.yul\":15961:15975   */\n      add\n        /* \"#utility.yul\":15954:15995   */\n      mstore\n        /* \"#utility.yul\":15837:16002   */\n      pop\n      jump\t// out\n        /* \"#utility.yul\":16008:16374   */\n    tag_174:\n        /* \"#utility.yul\":16150:16153   */\n      0x00\n        /* \"#utility.yul\":16171:16238   */\n      tag_345\n        /* \"#utility.yul\":16235:16237   */\n      0x0f\n        /* \"#utility.yul\":16230:16233   */\n      dup4\n        /* \"#utility.yul\":16171:16238   */\n      tag_163\n      jump\t// in\n    tag_345:\n        /* \"#utility.yul\":16164:16238   */\n      swap2\n      pop\n        /* \"#utility.yul\":16247:16340   */\n      tag_346\n        /* \"#utility.yul\":16336:16339   */\n      dup3\n        /* \"#utility.yul\":16247:16340   */\n      tag_173\n      jump\t// in\n    tag_346:\n        /* \"#utility.yul\":16365:16367   */\n      0x20\n        /* \"#utility.yul\":16360:16363   */\n      dup3\n        /* \"#utility.yul\":16356:16368   */\n      add\n        /* \"#utility.yul\":16349:16368   */\n      swap1\n      pop\n        /* \"#utility.yul\":16008:16374   */\n      swap2\n      swap1\n      pop\n      jump\t// out\n        /* \"#utility.yul\":16380:16799   */\n    tag_108:\n        /* \"#utility.yul\":16546:16550   */\n      0x00\n        /* \"#utility.yul\":16584:16586   */\n      0x20\n        /* \"#utility.yul\":16573:16582   */\n      dup3\n        /* \"#utility.yul\":16569:16587   */\n      add\n        /* \"#utility.yul\":16561:16587   */\n      swap1\n      pop\n        /* \"#utility.yul\":16633:16642   */\n      dup2\n        /* \"#utility.yul\":16627:16631   */\n      dup2\n        /* \"#utility.yul\":16623:16643   */\n      sub\n        /* \"#utility.yul\":16619:16620   */\n      0x00\n        /* \"#utility.yul\":16608:16617   */\n      dup4\n        /* \"#utility.yul\":16604:16621   */\n      add\n        /* \"#utility.yul\":16597:16644   */\n      mstore\n        /* \"#utility.yul\":16661:16792   */\n      tag_348\n        /* \"#utility.yul\":16787:16791   */\n      dup2\n        /* \"#utility.yul\":16661:16792   */\n      tag_174\n      jump\t// in\n    tag_348:\n        /* \"#utility.yul\":16653:16792   */\n      swap1\n      pop\n        /* \"#utility.yul\":16380:16799   */\n      swap2\n      swap1\n      pop\n      jump\t// out\n        /* \"#utility.yul\":16805:16946   */\n    tag_175:\n        /* \"#utility.yul\":16854:16858   */\n      0x00\n        /* \"#utility.yul\":16877:16880   */\n      dup2\n        /* \"#utility.yul\":16869:16880   */\n      swap1\n      pop\n        /* \"#utility.yul\":16900:16903   */\n      dup2\n        /* \"#utility.yul\":16897:16898   */\n      0x00\n        /* \"#utility.yul\":16890:16904   */\n      mstore\n        /* \"#utility.yul\":16934:16938   */\n      0x20\n        /* \"#utility.yul\":16931:16932   */\n      0x00\n        /* \"#utility.yul\":16921:16939   */\n      keccak256\n        /* \"#utility.yul\":16913:16939   */\n      swap1\n      pop\n        /* \"#utility.yul\":16805:16946   */\n      swap2\n      swap1\n      pop\n      jump\t// out\n        /* \"#utility.yul\":16952:17045   */\n    tag_176:\n        /* \"#utility.yul\":16989:16995   */\n      0x00\n        /* \"#utility.yul\":17036:17038   */\n      0x20\n        /* \"#utility.yul\":17031:17033   */\n      0x1f\n        /* \"#utility.yul\":17024:17029   */\n      dup4\n        /* \"#utility.yul\":17020:17034   */\n      add\n        /* \"#utility.yul\":17016:17039   */\n      div\n        /* \"#utility.yul\":17006:17039   */\n      swap1\n      pop\n        /* \"#utility.yul\":16952:17045   */\n      swap2\n      swap1\n      pop\n      jump\t// out\n        /* \"#utility.yul\":17051:17158   */\n    tag_177:\n        /* \"#utility.yul\":17095:17103   */\n      0x00\n        /* \"#utility.yul\":17145:17150   */\n      dup3\n        /* \"#utility.yul\":17139:17143   */\n      dup3\n        /* \"#utility.yul\":17135:17151   */\n      shl\n        /* \"#utility.yul\":17114:17151   */\n      swap1\n      pop\n        /* \"#utility.yul\":17051:17158   */\n      swap3\n      swap2\n      pop\n      pop\n      jump\t// out\n        /* \"#utility.yul\":17164:17557   */\n    tag_178:\n        /* \"#utility.yul\":17233:17239   */\n      0x00\n        /* \"#utility.yul\":17283:17284   */\n      0x08\n        /* \"#utility.yul\":17271:17281   */\n      dup4\n        /* \"#utility.yul\":17267:17285   */\n      mul\n        /* \"#utility.yul\":17306:17403   */\n      tag_353\n        /* \"#utility.yul\":17336:17402   */\n      0xffffffffffffffffffffffffffffffffffffffffffffffffffffffffffffffff\n        /* \"#utility.yul\":17325:17334   */\n      dup3\n        /* \"#utility.yul\":17306:17403   */\n      tag_177\n      jump\t// in\n    tag_353:\n        /* \"#utility.yul\":17424:17463   */\n      tag_354\n        /* \"#utility.yul\":17454:17462   */\n      dup7\n        /* \"#utility.yul\":17443:17452   */\n      dup4\n        /* \"#utility.yul\":17424:17463   */\n      tag_177\n      jump\t// in\n    tag_354:\n        /* \"#utility.yul\":17412:17463   */\n      swap6\n      pop\n        /* \"#utility.yul\":17496:17500   */\n      dup1\n        /* \"#utility.yul\":17492:17501   */\n      not\n        /* \"#utility.yul\":17485:17490   */\n      dup5\n        /* \"#utility.yul\":17481:17502   */\n      and\n        /* \"#utility.yul\":17472:17502   */\n      swap4\n      pop\n        /* \"#utility.yul\":17545:17549   */\n      dup1\n        /* \"#utility.yul\":17535:17543   */\n      dup7\n        /* \"#utility.yul\":17531:17550   */\n      and\n        /* \"#utility.yul\":17524:17529   */\n      dup5\n        /* \"#utility.yul\":17521:17551   */\n      or\n        /* \"#utility.yul\":17511:17551   */\n      swap3\n      pop\n        /* \"#utility.yul\":17240:17557   */\n      pop\n      pop\n        /* \"#utility.yul\":17164:17557   */\n      swap4\n      swap3\n      pop\n      pop\n      pop\n      jump\t// out\n        /* \"#utility.yul\":17563:17623   */\n    tag_179:\n        /* \"#utility.yul\":17591:17594   */\n      0x00\n        /* \"#utility.yul\":17612:17617   */\n      dup2\n        /* \"#utility.yul\":17605:17617   */\n      swap1\n      pop\n        /* \"#utility.yul\":17563:17623   */\n      swap2\n      swap1\n      pop\n      jump\t// out\n        /* \"#utility.yul\":17629:17771   */\n    tag_180:\n        /* \"#utility.yul\":17679:17688   */\n      0x00\n        /* \"#utility.yul\":17712:17765   */\n      tag_357\n        /* \"#utility.yul\":17730:17764   */\n      tag_358\n        /* \"#utility.yul\":17739:17763   */\n      tag_359\n        /* \"#utility.yul\":17757:17762   */\n      dup5\n        /* \"#utility.yul\":17739:17763   */\n      tag_126\n      jump\t// in\n    tag_359:\n        /* \"#utility.yul\":17730:17764   */\n      tag_179\n      jump\t// in\n    tag_358:\n        /* \"#utility.yul\":17712:17765   */\n      tag_126\n      jump\t// in\n    tag_357:\n        /* \"#utility.yul\":17699:17765   */\n      swap1\n      pop\n        /* \"#utility.yul\":17629:17771   */\n      swap2\n      swap1\n      pop\n      jump\t// out\n        /* \"#utility.yul\":17777:17852   */\n    tag_181:\n        /* \"#utility.yul\":17820:17823   */\n      0x00\n        /* \"#utility.yul\":17841:17846   */\n      dup2\n        /* \"#utility.yul\":17834:17846   */\n      swap1\n      pop\n        /* \"#utility.yul\":17777:17852   */\n      swap2\n      swap1\n      pop\n      jump\t// out\n        /* \"#utility.yul\":17858:18127   */\n    tag_182:\n        /* \"#utility.yul\":17968:18007   */\n      tag_362\n        /* \"#utility.yul\":17999:18006   */\n      dup4\n        /* \"#utility.yul\":17968:18007   */\n      tag_180\n      jump\t// in\n    tag_362:\n        /* \"#utility.yul\":18029:18120   */\n      tag_363\n        /* \"#utility.yul\":18078:18119   */\n      tag_364\n        /* \"#utility.yul\":18102:18118   */\n      dup3\n        /* \"#utility.yul\":18078:18119   */\n      tag_181\n      jump\t// in\n    tag_364:\n        /* \"#utility.yul\":18070:18076   */\n      dup5\n        /* \"#utility.yul\":18063:18067   */\n      dup5\n        /* \"#utility.yul\":18057:18068   */\n      sload\n        /* \"#utility.yul\":18029:18120   */\n      tag_178\n      jump\t// in\n    tag_363:\n        /* \"#utility.yul\":18023:18027   */\n      dup3\n        /* \"#utility.yul\":18016:18121   */\n      sstore\n        /* \"#utility.yul\":17934:18127   */\n      pop\n        /* \"#utility.yul\":17858:18127   */\n      pop\n      pop\n      pop\n      jump\t// out\n        /* \"#utility.yul\":18133:18206   */\n    tag_183:\n        /* \"#utility.yul\":18178:18181   */\n      0x00\n        /* \"#utility.yul\":18133:18206   */\n      swap1\n      jump\t// out\n        /* \"#utility.yul\":18212:18401   */\n    tag_184:\n        /* \"#utility.yul\":18289:18321   */\n      tag_367\n      tag_183\n      jump\t// in\n    tag_367:\n        /* \"#utility.yul\":18330:18395   */\n      tag_368\n        /* \"#utility.yul\":18388:18394   */\n      dup2\n        /* \"#utility.yul\":18380:18386   */\n      dup5\n        /* \"#utility.yul\":18374:18378   */\n      dup5\n        /* \"#utility.yul\":18330:18395   */\n      tag_182\n      jump\t// in\n    tag_368:\n        /* \"#utility.yul\":18265:18401   */\n      pop\n        /* \"#utility.yul\":18212:18401   */\n      pop\n      pop\n      jump\t// out\n        /* \"#utility.yul\":18407:18593   */\n    tag_185:\n        /* \"#utility.yul\":18467:18587   */\n    tag_370:\n        /* \"#utility.yul\":18484:18487   */\n      dup2\n        /* \"#utility.yul\":18477:18482   */\n      dup2\n        /* \"#utility.yul\":18474:18488   */\n      lt\n        /* \"#utility.yul\":18467:18587   */\n      iszero\n      tag_372\n      jumpi\n        /* \"#utility.yul\":18538:18577   */\n      tag_373\n        /* \"#utility.yul\":18575:18576   */\n      0x00\n        /* \"#utility.yul\":18568:18573   */\n      dup3\n        /* \"#utility.yul\":18538:18577   */\n      tag_184\n      jump\t// in\n    tag_373:\n        /* \"#utility.yul\":18511:18512   */\n      0x01\n        /* \"#utility.yul\":18504:18509   */\n      dup2\n        /* \"#utility.yul\":18500:18513   */\n      add\n        /* \"#utility.yul\":18491:18513   */\n      swap1\n      pop\n        /* \"#utility.yul\":18467:18587   */\n      jump(tag_370)\n    tag_372:\n        /* \"#utility.yul\":18407:18593   */\n      pop\n      pop\n      jump\t// out\n        /* \"#utility.yul\":18599:19142   */\n    tag_186:\n        /* \"#utility.yul\":18700:18702   */\n      0x1f\n        /* \"#utility.yul\":18695:18698   */\n      dup3\n        /* \"#utility.yul\":18692:18703   */\n      gt\n        /* \"#utility.yul\":18689:19135   */\n      iszero\n      tag_375\n      jumpi\n        /* \"#utility.yul\":18734:18772   */\n      tag_376\n        /* \"#utility.yul\":18766:18771   */\n      dup2\n        /* \"#utility.yul\":18734:18772   */\n      tag_175\n      jump\t// in\n    tag_376:\n        /* \"#utility.yul\":18818:18847   */\n      tag_377\n        /* \"#utility.yul\":18836:18846   */\n      dup5\n        /* \"#utility.yul\":18818:18847   */\n      tag_176\n      jump\t// in\n    tag_377:\n        /* \"#utility.yul\":18808:18816   */\n      dup2\n        /* \"#utility.yul\":18804:18848   */\n      add\n        /* \"#utility.yul\":19001:19003   */\n      0x20\n        /* \"#utility.yul\":18989:18999   */\n      dup6\n        /* \"#utility.yul\":18986:19004   */\n      lt\n        /* \"#utility.yul\":18983:19032   */\n      iszero\n      tag_378\n      jumpi\n        /* \"#utility.yul\":19022:19030   */\n      dup2\n        /* \"#utility.yul\":19007:19030   */\n      swap1\n      pop\n        /* \"#utility.yul\":18983:19032   */\n    tag_378:\n        /* \"#utility.yul\":19045:19125   */\n      tag_379\n        /* \"#utility.yul\":19101:19123   */\n      tag_380\n        /* \"#utility.yul\":19119:19122   */\n      dup6\n        /* \"#utility.yul\":19101:19123   */\n      tag_176\n      jump\t// in\n    tag_380:\n        /* \"#utility.yul\":19091:19099   */\n      dup4\n        /* \"#utility.yul\":19087:19124   */\n      add\n        /* \"#utility.yul\":19074:19085   */\n      dup3\n        /* \"#utility.yul\":19045:19125   */\n      tag_185\n      jump\t// in\n    tag_379:\n        /* \"#utility.yul\":18704:19135   */\n      pop\n      pop\n        /* \"#utility.yul\":18689:19135   */\n    tag_375:\n        /* \"#utility.yul\":18599:19142   */\n      pop\n      pop\n      pop\n      jump\t// out\n        /* \"#utility.yul\":19148:19265   */\n    tag_187:\n        /* \"#utility.yul\":19202:19210   */\n      0x00\n        /* \"#utility.yul\":19252:19257   */\n      dup3\n        /* \"#utility.yul\":19246:19250   */\n      dup3\n        /* \"#utility.yul\":19242:19258   */\n      shr\n        /* \"#utility.yul\":19221:19258   */\n      swap1\n      pop\n        /* \"#utility.yul\":19148:19265   */\n      swap3\n      swap2\n      pop\n      pop\n      jump\t// out\n        /* \"#utility.yul\":19271:19440   */\n    tag_188:\n        /* \"#utility.yul\":19315:19321   */\n      0x00\n        /* \"#utility.yul\":19348:19399   */\n      tag_383\n        /* \"#utility.yul\":19396:19397   */\n      0x00\n        /* \"#utility.yul\":19392:19398   */\n      not\n        /* \"#utility.yul\":19384:19389   */\n      dup5\n        /* \"#utility.yul\":19381:19382   */\n      0x08\n        /* \"#utility.yul\":19377:19390   */\n      mul\n        /* \"#utility.yul\":19348:19399   */\n      tag_187\n      jump\t// in\n    tag_383:\n        /* \"#utility.yul\":19344:19400   */\n      not\n        /* \"#utility.yul\":19429:19433   */\n      dup1\n        /* \"#utility.yul\":19423:19427   */\n      dup4\n        /* \"#utility.yul\":19419:19434   */\n      and\n        /* \"#utility.yul\":19409:19434   */\n      swap2\n      pop\n        /* \"#utility.yul\":19322:19440   */\n      pop\n        /* \"#utility.yul\":19271:19440   */\n      swap3\n      swap2\n      pop\n      pop\n      jump\t// out\n        /* \"#utility.yul\":19445:19740   */\n    tag_189:\n        /* \"#utility.yul\":19521:19525   */\n      0x00\n        /* \"#utility.yul\":19667:19696   */\n      tag_385\n        /* \"#utility.yul\":19692:19695   */\n      dup4\n        /* \"#utility.yul\":19686:19690   */\n      dup4\n        /* \"#utility.yul\":19667:19696   */\n      tag_188\n      jump\t// in\n    tag_385:\n        /* \"#utility.yul\":19659:19696   */\n      swap2\n      pop\n        /* \"#utility.yul\":19729:19732   */\n      dup3\n        /* \"#utility.yul\":19726:19727   */\n      0x02\n        /* \"#utility.yul\":19722:19733   */\n      mul\n        /* \"#utility.yul\":19716:19720   */\n      dup3\n        /* \"#utility.yul\":19713:19734   */\n      or\n        /* \"#utility.yul\":19705:19734   */\n      swap1\n      pop\n        /* \"#utility.yul\":19445:19740   */\n      swap3\n      swap2\n      pop\n      pop\n      jump\t// out\n        /* \"#utility.yul\":19745:21140   */\n    tag_111:\n        /* \"#utility.yul\":19862:19899   */\n      tag_387\n        /* \"#utility.yul\":19895:19898   */\n      dup3\n        /* \"#utility.yul\":19862:19899   */\n      tag_140\n      jump\t// in\n    tag_387:\n        /* \"#utility.yul\":19964:19982   */\n      0xffffffffffffffff\n        /* \"#utility.yul\":19956:19962   */\n      dup2\n        /* \"#utility.yul\":19953:19983   */\n      gt\n        /* \"#utility.yul\":19950:20006   */\n      iszero\n      tag_388\n      jumpi\n        /* \"#utility.yul\":19986:20004   */\n      tag_389\n      tag_153\n      jump\t// in\n    tag_389:\n        /* \"#utility.yul\":19950:20006   */\n    tag_388:\n        /* \"#utility.yul\":20030:20068   */\n      tag_390\n        /* \"#utility.yul\":20062:20066   */\n      dup3\n        /* \"#utility.yul\":20056:20067   */\n      sload\n        /* \"#utility.yul\":20030:20068   */\n      tag_82\n      jump\t// in\n    tag_390:\n        /* \"#utility.yul\":20115:20182   */\n      tag_391\n        /* \"#utility.yul\":20175:20181   */\n      dup3\n        /* \"#utility.yul\":20167:20173   */\n      dup3\n        /* \"#utility.yul\":20161:20165   */\n      dup6\n        /* \"#utility.yul\":20115:20182   */\n      tag_186\n      jump\t// in\n    tag_391:\n        /* \"#utility.yul\":20209:20210   */\n      0x00\n        /* \"#utility.yul\":20233:20237   */\n      0x20\n        /* \"#utility.yul\":20220:20237   */\n      swap1\n      pop\n        /* \"#utility.yul\":20265:20267   */\n      0x1f\n        /* \"#utility.yul\":20257:20263   */\n      dup4\n        /* \"#utility.yul\":20254:20268   */\n      gt\n        /* \"#utility.yul\":20282:20283   */\n      0x01\n        /* \"#utility.yul\":20277:20895   */\n      dup2\n      eq\n      tag_393\n      jumpi\n        /* \"#utility.yul\":20939:20940   */\n      0x00\n        /* \"#utility.yul\":20956:20962   */\n      dup5\n        /* \"#utility.yul\":20953:21030   */\n      iszero\n      tag_394\n      jumpi\n        /* \"#utility.yul\":21005:21014   */\n      dup3\n        /* \"#utility.yul\":21000:21003   */\n      dup8\n        /* \"#utility.yul\":20996:21015   */\n      add\n        /* \"#utility.yul\":20990:21016   */\n      mload\n        /* \"#utility.yul\":20981:21016   */\n      swap1\n      pop\n        /* \"#utility.yul\":20953:21030   */\n    tag_394:\n        /* \"#utility.yul\":21056:21123   */\n      tag_395\n        /* \"#utility.yul\":21116:21122   */\n      dup6\n        /* \"#utility.yul\":21109:21114   */\n      dup3\n        /* \"#utility.yul\":21056:21123   */\n      tag_189\n      jump\t// in\n    tag_395:\n        /* \"#utility.yul\":21050:21054   */\n      dup7\n        /* \"#utility.yul\":21043:21124   */\n      sstore\n        /* \"#utility.yul\":20912:21134   */\n      pop\n        /* \"#utility.yul\":20247:21134   */\n      jump(tag_392)\n        /* \"#utility.yul\":20277:20895   */\n    tag_393:\n        /* \"#utility.yul\":20329:20333   */\n      0x1f\n        /* \"#utility.yul\":20325:20334   */\n      not\n        /* \"#utility.yul\":20317:20323   */\n      dup5\n        /* \"#utility.yul\":20313:20335   */\n      and\n        /* \"#utility.yul\":20363:20400   */\n      tag_396\n        /* \"#utility.yul\":20395:20399   */\n      dup7\n        /* \"#utility.yul\":20363:20400   */\n      tag_175\n      jump\t// in\n    tag_396:\n        /* \"#utility.yul\":20422:20423   */\n      0x00\n        /* \"#utility.yul\":20436:20644   */\n    tag_397:\n        /* \"#utility.yul\":20450:20457   */\n      dup3\n        /* \"#utility.yul\":20447:20448   */\n      dup2\n        /* \"#utility.yul\":20444:20458   */\n      lt\n        /* \"#utility.yul\":20436:20644   */\n      iszero\n      tag_399\n      jumpi\n        /* \"#utility.yul\":20529:20538   */\n      dup5\n        /* \"#utility.yul\":20524:20527   */\n      dup10\n        /* \"#utility.yul\":20520:20539   */\n      add\n        /* \"#utility.yul\":20514:20540   */\n      mload\n        /* \"#utility.yul\":20506:20512   */\n      dup3\n        /* \"#utility.yul\":20499:20541   */\n      sstore\n        /* \"#utility.yul\":20580:20581   */\n      0x01\n        /* \"#utility.yul\":20572:20578   */\n      dup3\n        /* \"#utility.yul\":20568:20582   */\n      add\n        /* \"#utility.yul\":20558:20582   */\n      swap2\n      pop\n        /* \"#utility.yul\":20627:20629   */\n      0x20\n        /* \"#utility.yul\":20616:20625   */\n      dup6\n        /* \"#utility.yul\":20612:20630   */\n      add\n        /* \"#utility.yul\":20599:20630   */\n      swap5\n      pop\n        /* \"#utility.yul\":20473:20477   */\n      0x20\n        /* \"#utility.yul\":20470:20471   */\n      dup2\n        /* \"#utility.yul\":20466:20478   */\n      add\n        /* \"#utility.yul\":20461:20478   */\n      swap1\n      pop\n        /* \"#utility.yul\":20436:20644   */\n      jump(tag_397)\n    tag_399:\n        /* \"#utility.yul\":20672:20678   */\n      dup7\n        /* \"#utility.yul\":20663:20670   */\n      dup4\n        /* \"#utility.yul\":20660:20679   */\n      lt\n        /* \"#utility.yul\":20657:20836   */\n      iszero\n      tag_400\n      jumpi\n        /* \"#utility.yul\":20730:20739   */\n      dup5\n        /* \"#utility.yul\":20725:20728   */\n      dup10\n        /* \"#utility.yul\":20721:20740   */\n      add\n        /* \"#utility.yul\":20715:20741   */\n      mload\n        /* \"#utility.yul\":20773:20821   */\n      tag_401\n        /* \"#utility.yul\":20815:20819   */\n      0x1f\n        /* \"#utility.yul\":20807:20813   */\n      dup10\n        /* \"#utility.yul\":20803:20820   */\n      and\n        /* \"#utility.yul\":20792:20801   */\n      dup3\n        /* \"#utility.yul\":20773:20821   */\n      tag_188\n      jump\t// in\n    tag_401:\n        /* \"#utility.yul\":20765:20771   */\n      dup4\n        /* \"#utility.yul\":20758:20822   */\n      sstore\n        /* \"#utility.yul\":20680:20836   */\n      pop\n        /* \"#utility.yul\":20657:20836   */\n    tag_400:\n        /* \"#utility.yul\":20882:20883   */\n      0x01\n        /* \"#utility.yul\":20878:20879   */\n      0x02\n        /* \"#utility.yul\":20870:20876   */\n      dup9\n        /* \"#utility.yul\":20866:20880   */\n      mul\n        /* \"#utility.yul\":20862:20884   */\n      add\n        /* \"#utility.yul\":20856:20860   */\n      dup9\n        /* \"#utility.yul\":20849:20885   */\n      sstore\n        /* \"#utility.yul\":20284:20895   */\n      pop\n      pop\n      pop\n        /* \"#utility.yul\":20247:21134   */\n    tag_392:\n      pop\n        /* \"#utility.yul\":19837:21140   */\n      pop\n      pop\n      pop\n        /* \"#utility.yul\":19745:21140   */\n      pop\n      pop\n      jump\t// out\n        /* \"#utility.yul\":21146:21340   */\n    tag_125:\n        /* \"#utility.yul\":21186:21190   */\n      0x00\n        /* \"#utility.yul\":21206:21226   */\n      tag_403\n        /* \"#utility.yul\":21224:21225   */\n      dup3\n        /* \"#utility.yul\":21206:21226   */\n      tag_126\n      jump\t// in\n    tag_403:\n        /* \"#utility.yul\":21201:21226   */\n      swap2\n      pop\n        /* \"#utility.yul\":21240:21260   */\n      tag_404\n        /* \"#utility.yul\":21258:21259   */\n      dup4\n        /* \"#utility.yul\":21240:21260   */\n      tag_126\n      jump\t// in\n    tag_404:\n        /* \"#utility.yul\":21235:21260   */\n      swap3\n      pop\n        /* \"#utility.yul\":21284:21285   */\n      dup3\n        /* \"#utility.yul\":21281:21282   */\n      dup3\n        /* \"#utility.yul\":21277:21286   */\n      sub\n        /* \"#utility.yul\":21269:21286   */\n      swap1\n      pop\n        /* \"#utility.yul\":21308:21309   */\n      dup2\n        /* \"#utility.yul\":21302:21306   */\n      dup2\n        /* \"#utility.yul\":21299:21310   */\n      gt\n        /* \"#utility.yul\":21296:21333   */\n      iszero\n      tag_405\n      jumpi\n        /* \"#utility.yul\":21313:21331   */\n      tag_406\n      tag_171\n      jump\t// in\n    tag_406:\n        /* \"#utility.yul\":21296:21333   */\n    tag_405:\n        /* \"#utility.yul\":21146:21340   */\n      swap3\n      swap2\n      pop\n      pop\n      jump\t// out\n\n    auxdata: 0xa2646970667358221220a9fec6770d7bea0f8c575be7fe07c645c7fa0cb54de5bc37c9274de8007052ea64736f6c63430008120033\n}\n",
				"bytecode": {
					"linkReferences": {},
					"object": "60806040526101186000806101000a81548161ffff021916908361ffff16021790555034801561002e57600080fd5b506113ff8061003e6000396000f3fe608060405234801561001057600080fd5b50600436106100a95760003560e01c80636eb10797116100715780636eb107971461014057806378e979251461015e5780637c9cd2bc1461017c578063c5dce06814610198578063e28350b7146101b6578063efb98bcf146101ea576100a9565b80631be05289146100ae57806321511a44146100cc5780633197cbb6146100e857806353256135146101065780635ffc6ceb14610124575b600080fd5b6100b6610208565b6040516100c391906108a3565b60405180910390f35b6100e660048036038101906100e191906108fe565b61020e565b005b6100f0610342565b6040516100fd91906108a3565b60405180910390f35b61010e610348565b60405161011b9190610b43565b60405180910390f35b61013e600480360381019061013991906108fe565b6104ad565b005b610148610579565b6040516101559190610b82565b60405180910390f35b61016661058b565b60405161017391906108a3565b60405180910390f35b61019660048036038101906101919190610cd2565b610591565b005b6101a0610742565b6040516101ad9190610d36565b60405180910390f35b6101d060048036038101906101cb91906108fe565b610762565b6040516101e1959493929190610daa565b60405180910390f35b6101f2610850565b6040516101ff91906108a3565b60405180910390f35b61070881565b610216610742565b610255576040517f08c379a000000000000000000000000000000000000000000000000000000000815260040161024c90610e50565b60405180910390fd5b600380549050811061029c576040517f08c379a000000000000000000000000000000000000000000000000000000000815260040161029390610ebc565b60405180910390fd5b6000600382815481106102b2576102b1610edc565b5b90600052602060002090600502016004015411610304576040517f08c379a00000000000000000000000000000000000000000000000000000000081526004016102fb90610f57565b60405180910390fd5b6003818154811061031857610317610edc565b5b9060005260206000209060050201600401600081548092919061033a90610fa6565b919050555050565b60025481565b60606003805480602002602001604051908101604052809291908181526020016000905b828210156104a457838290600052602060002090600502016040518060a0016040529081600082015481526020016001820160009054906101000a900473ffffffffffffffffffffffffffffffffffffffff1673ffffffffffffffffffffffffffffffffffffffff1673ffffffffffffffffffffffffffffffffffffffff1681526020016002820180546103ff90610ffe565b80601f016020809104026020016040519081016040528092919081815260200182805461042b90610ffe565b80156104785780601f1061044d57610100808354040283529160200191610478565b820191906000526020600020905b81548152906001019060200180831161045b57829003601f168201915b50505050508152602001600382015481526020016004820154815250508152602001906001019061036c565b50505050905090565b6104b5610742565b6104f4576040517f08c379a00000000000000000000000000000000000000000000000000000000081526004016104eb90610e50565b60405180910390fd5b600380549050811061053b576040517f08c379a000000000000000000000000000000000000000000000000000000000815260040161053290610ebc565b60405180910390fd5b6003818154811061054f5761054e610edc565b5b906000526020600020906005020160040160008154809291906105719061102f565b919050555050565b60008054906101000a900461ffff1681565b60015481565b6000600154036105b75742600181905550610708426105b09190611077565b6002819055505b6105bf610742565b6105fe576040517f08c379a00000000000000000000000000000000000000000000000000000000081526004016105f590610e50565b60405180910390fd5b60008054906101000a900461ffff1661ffff1681511115610654576040517f08c379a000000000000000000000000000000000000000000000000000000000815260040161064b906110f7565b60405180910390fd5b60036040518060a0016040528060038054905081526020013373ffffffffffffffffffffffffffffffffffffffff168152602001838152602001428152602001600081525090806001815401808255809150506001900390600052602060002090600502016000909190919091506000820151816000015560208201518160010160006101000a81548173ffffffffffffffffffffffffffffffffffffffff021916908373ffffffffffffffffffffffffffffffffffffffff160217905550604082015181600201908161072891906112c3565b506060820151816003015560808201518160040155505050565b60008060015403610756576000905061075f565b60025442111590505b90565b6003818154811061077257600080fd5b90600052602060002090600502016000915090508060000154908060010160009054906101000a900473ffffffffffffffffffffffffffffffffffffffff16908060020180546107c190610ffe565b80601f01602080910402602001604051908101604052809291908181526020018280546107ed90610ffe565b801561083a5780601f1061080f5761010080835404028352916020019161083a565b820191906000526020600020905b81548152906001019060200180831161081d57829003601f168201915b5050505050908060030154908060040154905085565b600080600154036108645760009050610887565b60025442106108765760009050610887565b426002546108849190611395565b90505b90565b6000819050919050565b61089d8161088a565b82525050565b60006020820190506108b86000830184610894565b92915050565b6000604051905090565b600080fd5b600080fd5b6108db8161088a565b81146108e657600080fd5b50565b6000813590506108f8816108d2565b92915050565b600060208284031215610914576109136108c8565b5b6000610922848285016108e9565b91505092915050565b600081519050919050565b600082825260208201905092915050565b6000819050602082019050919050565b6109608161088a565b82525050565b600073ffffffffffffffffffffffffffffffffffffffff82169050919050565b600061099182610966565b9050919050565b6109a181610986565b82525050565b600081519050919050565b600082825260208201905092915050565b60005b838110156109e15780820151818401526020810190506109c6565b60008484015250505050565b6000601f19601f8301169050919050565b6000610a09826109a7565b610a1381856109b2565b9350610a238185602086016109c3565b610a2c816109ed565b840191505092915050565b600060a083016000830151610a4f6000860182610957565b506020830151610a626020860182610998565b5060408301518482036040860152610a7a82826109fe565b9150506060830151610a8f6060860182610957565b506080830151610aa26080860182610957565b508091505092915050565b6000610ab98383610a37565b905092915050565b6000602082019050919050565b6000610ad98261092b565b610ae38185610936565b935083602082028501610af585610947565b8060005b85811015610b315784840389528151610b128582610aad565b9450610b1d83610ac1565b925060208a01995050600181019050610af9565b50829750879550505050505092915050565b60006020820190508181036000830152610b5d8184610ace565b905092915050565b600061ffff82169050919050565b610b7c81610b65565b82525050565b6000602082019050610b976000830184610b73565b92915050565b600080fd5b600080fd5b7f4e487b7100000000000000000000000000000000000000000000000000000000600052604160045260246000fd5b610bdf826109ed565b810181811067ffffffffffffffff82111715610bfe57610bfd610ba7565b5b80604052505050565b6000610c116108be565b9050610c1d8282610bd6565b919050565b600067ffffffffffffffff821115610c3d57610c3c610ba7565b5b610c46826109ed565b9050602081019050919050565b82818337600083830152505050565b6000610c75610c7084610c22565b610c07565b905082815260208101848484011115610c9157610c90610ba2565b5b610c9c848285610c53565b509392505050565b600082601f830112610cb957610cb8610b9d565b5b8135610cc9848260208601610c62565b91505092915050565b600060208284031215610ce857610ce76108c8565b5b600082013567ffffffffffffffff811115610d0657610d056108cd565b5b610d1284828501610ca4565b91505092915050565b60008115159050919050565b610d3081610d1b565b82525050565b6000602082019050610d4b6000830184610d27565b92915050565b610d5a81610986565b82525050565b600082825260208201905092915050565b6000610d7c826109a7565b610d868185610d60565b9350610d968185602086016109c3565b610d9f816109ed565b840191505092915050565b600060a082019050610dbf6000830188610894565b610dcc6020830187610d51565b8181036040830152610dde8186610d71565b9050610ded6060830185610894565b610dfa6080830184610894565b9695505050505050565b7f526f6f6d20697320636c6f736564000000000000000000000000000000000000600082015250565b6000610e3a600e83610d60565b9150610e4582610e04565b602082019050919050565b60006020820190508181036000830152610e6981610e2d565b9050919050565b7f5477656574206e6f7420666f756e640000000000000000000000000000000000600082015250565b6000610ea6600f83610d60565b9150610eb182610e70565b602082019050919050565b60006020820190508181036000830152610ed581610e99565b9050919050565b7f4e487b7100000000000000000000000000000000000000000000000000000000600052603260045260246000fd5b7f4e6f206c696b657320746f2072656d6f76650000000000000000000000000000600082015250565b6000610f41601283610d60565b9150610f4c82610f0b565b602082019050919050565b60006020820190508181036000830152610f7081610f34565b9050919050565b7f4e487b7100000000000000000000000000000000000000000000000000000000600052601160045260246000fd5b6000610fb18261088a565b915060008203610fc457610fc3610f77565b5b600182039050919050565b7f4e487b7100000000000000000000000000000000000000000000000000000000600052602260045260246000fd5b6000600282049050600182168061101657607f821691505b60208210810361102957611028610fcf565b5b50919050565b600061103a8261088a565b91507fffffffffffffffffffffffffffffffffffffffffffffffffffffffffffffffff820361106c5761106b610f77565b5b600182019050919050565b60006110828261088a565b915061108d8361088a565b92508282019050808211156110a5576110a4610f77565b5b92915050565b7f547765657420746f6f206c6f6e67210000000000000000000000000000000000600082015250565b60006110e1600f83610d60565b91506110ec826110ab565b602082019050919050565b60006020820190508181036000830152611110816110d4565b9050919050565b60008190508160005260206000209050919050565b60006020601f8301049050919050565b600082821b905092915050565b6000600883026111797fffffffffffffffffffffffffffffffffffffffffffffffffffffffffffffffff8261113c565b611183868361113c565b95508019841693508086168417925050509392505050565b6000819050919050565b60006111c06111bb6111b68461088a565b61119b565b61088a565b9050919050565b6000819050919050565b6111da836111a5565b6111ee6111e6826111c7565b848454611149565b825550505050565b600090565b6112036111f6565b61120e8184846111d1565b505050565b5b81811015611232576112276000826111fb565b600181019050611214565b5050565b601f8211156112775761124881611117565b6112518461112c565b81016020851015611260578190505b61127461126c8561112c565b830182611213565b50505b505050565b600082821c905092915050565b600061129a6000198460080261127c565b1980831691505092915050565b60006112b38383611289565b9150826002028217905092915050565b6112cc826109a7565b67ffffffffffffffff8111156112e5576112e4610ba7565b5b6112ef8254610ffe565b6112fa828285611236565b600060209050601f83116001811461132d576000841561131b578287015190505b61132585826112a7565b86555061138d565b601f19841661133b86611117565b60005b828110156113635784890151825560018201915060208501945060208101905061133e565b86831015611380578489015161137c601f891682611289565b8355505b6001600288020188555050505b505050505050565b60006113a08261088a565b91506113ab8361088a565b92508282039050818111156113c3576113c2610f77565b5b9291505056fea2646970667358221220a9fec6770d7bea0f8c575be7fe07c645c7fa0cb54de5bc37c9274de8007052ea64736f6c63430008120033",
					"opcodes": "PUSH1 0x80 PUSH1 0x40 MSTORE PUSH2 0x118 PUSH1 0x0 DUP1 PUSH2 0x100 EXP DUP2 SLOAD DUP2 PUSH2 0xFFFF MUL NOT AND SWAP1 DUP4 PUSH2 0xFFFF AND MUL OR SWAP1 SSTORE POP CALLVALUE DUP1 ISZERO PUSH2 0x2E JUMPI PUSH1 0x0 DUP1 REVERT JUMPDEST POP PUSH2 0x13FF DUP1 PUSH2 0x3E PUSH1 0x0 CODECOPY PUSH1 0x0 RETURN INVALID PUSH1 0x80 PUSH1 0x40 MSTORE CALLVALUE DUP1 ISZERO PUSH2 0x10 JUMPI PUSH1 0x0 DUP1 REVERT JUMPDEST POP PUSH1 0x4 CALLDATASIZE LT PUSH2 0xA9 JUMPI PUSH1 0x0 CALLDATALOAD PUSH1 0xE0 SHR DUP1 PUSH4 0x6EB10797 GT PUSH2 0x71 JUMPI DUP1 PUSH4 0x6EB10797 EQ PUSH2 0x140 JUMPI DUP1 PUSH4 0x78E97925 EQ PUSH2 0x15E JUMPI DUP1 PUSH4 0x7C9CD2BC EQ PUSH2 0x17C JUMPI DUP1 PUSH4 0xC5DCE068 EQ PUSH2 0x198 JUMPI DUP1 PUSH4 0xE28350B7 EQ PUSH2 0x1B6 JUMPI DUP1 PUSH4 0xEFB98BCF EQ PUSH2 0x1EA JUMPI PUSH2 0xA9 JUMP JUMPDEST DUP1 PUSH4 0x1BE05289 EQ PUSH2 0xAE JUMPI DUP1 PUSH4 0x21511A44 EQ PUSH2 0xCC JUMPI DUP1 PUSH4 0x3197CBB6 EQ PUSH2 0xE8 JUMPI DUP1 PUSH4 0x53256135 EQ PUSH2 0x106 JUMPI DUP1 PUSH4 0x5FFC6CEB EQ PUSH2 0x124 JUMPI JUMPDEST PUSH1 0x0 DUP1 REVERT JUMPDEST PUSH2 0xB6 PUSH2 0x208 JUMP JUMPDEST PUSH1 0x40 MLOAD PUSH2 0xC3 SWAP2 SWAP1 PUSH2 0x8A3 JUMP JUMPDEST PUSH1 0x40 MLOAD DUP1 SWAP2 SUB SWAP1 RETURN JUMPDEST PUSH2 0xE6 PUSH1 0x4 DUP1 CALLDATASIZE SUB DUP2 ADD SWAP1 PUSH2 0xE1 SWAP2 SWAP1 PUSH2 0x8FE JUMP JUMPDEST PUSH2 0x20E JUMP JUMPDEST STOP JUMPDEST PUSH2 0xF0 PUSH2 0x342 JUMP JUMPDEST PUSH1 0x40 MLOAD PUSH2 0xFD SWAP2 SWAP1 PUSH2 0x8A3 JUMP JUMPDEST PUSH1 0x40 MLOAD DUP1 SWAP2 SUB SWAP1 RETURN JUMPDEST PUSH2 0x10E PUSH2 0x348 JUMP JUMPDEST PUSH1 0x40 MLOAD PUSH2 0x11B SWAP2 SWAP1 PUSH2 0xB43 JUMP JUMPDEST PUSH1 0x40 MLOAD DUP1 SWAP2 SUB SWAP1 RETURN JUMPDEST PUSH2 0x13E PUSH1 0x4 DUP1 CALLDATASIZE SUB DUP2 ADD SWAP1 PUSH2 0x139 SWAP2 SWAP1 PUSH2 0x8FE JUMP JUMPDEST PUSH2 0x4AD JUMP JUMPDEST STOP JUMPDEST PUSH2 0x148 PUSH2 0x579 JUMP JUMPDEST PUSH1 0x40 MLOAD PUSH2 0x155 SWAP2 SWAP1 PUSH2 0xB82 JUMP JUMPDEST PUSH1 0x40 MLOAD DUP1 SWAP2 SUB SWAP1 RETURN JUMPDEST PUSH2 0x166 PUSH2 0x58B JUMP JUMPDEST PUSH1 0x40 MLOAD PUSH2 0x173 SWAP2 SWAP1 PUSH2 0x8A3 JUMP JUMPDEST PUSH1 0x40 MLOAD DUP1 SWAP2 SUB SWAP1 RETURN JUMPDEST PUSH2 0x196 PUSH1 0x4 DUP1 CALLDATASIZE SUB DUP2 ADD SWAP1 PUSH2 0x191 SWAP2 SWAP1 PUSH2 0xCD2 JUMP JUMPDEST PUSH2 0x591 JUMP JUMPDEST STOP JUMPDEST PUSH2 0x1A0 PUSH2 0x742 JUMP JUMPDEST PUSH1 0x40 MLOAD PUSH2 0x1AD SWAP2 SWAP1 PUSH2 0xD36 JUMP JUMPDEST PUSH1 0x40 MLOAD DUP1 SWAP2 SUB SWAP1 RETURN JUMPDEST PUSH2 0x1D0 PUSH1 0x4 DUP1 CALLDATASIZE SUB DUP2 ADD SWAP1 PUSH2 0x1CB SWAP2 SWAP1 PUSH2 0x8FE JUMP JUMPDEST PUSH2 0x762 JUMP JUMPDEST PUSH1 0x40 MLOAD PUSH2 0x1E1 SWAP6 SWAP5 SWAP4 SWAP3 SWAP2 SWAP1 PUSH2 0xDAA JUMP JUMPDEST PUSH1 0x40 MLOAD DUP1 SWAP2 SUB SWAP1 RETURN JUMPDEST PUSH2 0x1F2 PUSH2 0x850 JUMP JUMPDEST PUSH1 0x40 MLOAD PUSH2 0x1FF SWAP2 SWAP1 PUSH2 0x8A3 JUMP JUMPDEST PUSH1 0x40 MLOAD DUP1 SWAP2 SUB SWAP1 RETURN JUMPDEST PUSH2 0x708 DUP2 JUMP JUMPDEST PUSH2 0x216 PUSH2 0x742 JUMP JUMPDEST PUSH2 0x255 JUMPI PUSH1 0x40 MLOAD PUSH32 0x8C379A000000000000000000000000000000000000000000000000000000000 DUP2 MSTORE PUSH1 0x4 ADD PUSH2 0x24C SWAP1 PUSH2 0xE50 JUMP JUMPDEST PUSH1 0x40 MLOAD DUP1 SWAP2 SUB SWAP1 REVERT JUMPDEST PUSH1 0x3 DUP1 SLOAD SWAP1 POP DUP2 LT PUSH2 0x29C JUMPI PUSH1 0x40 MLOAD PUSH32 0x8C379A000000000000000000000000000000000000000000000000000000000 DUP2 MSTORE PUSH1 0x4 ADD PUSH2 0x293 SWAP1 PUSH2 0xEBC JUMP JUMPDEST PUSH1 0x40 MLOAD DUP1 SWAP2 SUB SWAP1 REVERT JUMPDEST PUSH1 0x0 PUSH1 0x3 DUP3 DUP2 SLOAD DUP2 LT PUSH2 0x2B2 JUMPI PUSH2 0x2B1 PUSH2 0xEDC JUMP JUMPDEST JUMPDEST SWAP1 PUSH1 0x0 MSTORE PUSH1 0x20 PUSH1 0x0 KECCAK256 SWAP1 PUSH1 0x5 MUL ADD PUSH1 0x4 ADD SLOAD GT PUSH2 0x304 JUMPI PUSH1 0x40 MLOAD PUSH32 0x8C379A000000000000000000000000000000000000000000000000000000000 DUP2 MSTORE PUSH1 0x4 ADD PUSH2 0x2FB SWAP1 PUSH2 0xF57 JUMP JUMPDEST PUSH1 0x40 MLOAD DUP1 SWAP2 SUB SWAP1 REVERT JUMPDEST PUSH1 0x3 DUP2 DUP2 SLOAD DUP2 LT PUSH2 0x318 JUMPI PUSH2 0x317 PUSH2 0xEDC JUMP JUMPDEST JUMPDEST SWAP1 PUSH1 0x0 MSTORE PUSH1 0x20 PUSH1 0x0 KECCAK256 SWAP1 PUSH1 0x5 MUL ADD PUSH1 0x4 ADD PUSH1 0x0 DUP2 SLOAD DUP1 SWAP3 SWAP2 SWAP1 PUSH2 0x33A SWAP1 PUSH2 0xFA6 JUMP JUMPDEST SWAP2 SWAP1 POP SSTORE POP POP JUMP JUMPDEST PUSH1 0x2 SLOAD DUP2 JUMP JUMPDEST PUSH1 0x60 PUSH1 0x3 DUP1 SLOAD DUP1 PUSH1 0x20 MUL PUSH1 0x20 ADD PUSH1 0x40 MLOAD SWAP1 DUP2 ADD PUSH1 0x40 MSTORE DUP1 SWAP3 SWAP2 SWAP1 DUP2 DUP2 MSTORE PUSH1 0x20 ADD PUSH1 0x0 SWAP1 JUMPDEST DUP3 DUP3 LT ISZERO PUSH2 0x4A4 JUMPI DUP4 DUP3 SWAP1 PUSH1 0x0 MSTORE PUSH1 0x20 PUSH1 0x0 KECCAK256 SWAP1 PUSH1 0x5 MUL ADD PUSH1 0x40 MLOAD DUP1 PUSH1 0xA0 ADD PUSH1 0x40 MSTORE SWAP1 DUP2 PUSH1 0x0 DUP3 ADD SLOAD DUP2 MSTORE PUSH1 0x20 ADD PUSH1 0x1 DUP3 ADD PUSH1 0x0 SWAP1 SLOAD SWAP1 PUSH2 0x100 EXP SWAP1 DIV PUSH20 0xFFFFFFFFFFFFFFFFFFFFFFFFFFFFFFFFFFFFFFFF AND PUSH20 0xFFFFFFFFFFFFFFFFFFFFFFFFFFFFFFFFFFFFFFFF AND PUSH20 0xFFFFFFFFFFFFFFFFFFFFFFFFFFFFFFFFFFFFFFFF AND DUP2 MSTORE PUSH1 0x20 ADD PUSH1 0x2 DUP3 ADD DUP1 SLOAD PUSH2 0x3FF SWAP1 PUSH2 0xFFE JUMP JUMPDEST DUP1 PUSH1 0x1F ADD PUSH1 0x20 DUP1 SWAP2 DIV MUL PUSH1 0x20 ADD PUSH1 0x40 MLOAD SWAP1 DUP2 ADD PUSH1 0x40 MSTORE DUP1 SWAP3 SWAP2 SWAP1 DUP2 DUP2 MSTORE PUSH1 0x20 ADD DUP3 DUP1 SLOAD PUSH2 0x42B SWAP1 PUSH2 0xFFE JUMP JUMPDEST DUP1 ISZERO PUSH2 0x478 JUMPI DUP1 PUSH1 0x1F LT PUSH2 0x44D JUMPI PUSH2 0x100 DUP1 DUP4 SLOAD DIV MUL DUP4 MSTORE SWAP2 PUSH1 0x20 ADD SWAP2 PUSH2 0x478 JUMP JUMPDEST DUP3 ADD SWAP2 SWAP1 PUSH1 0x0 MSTORE PUSH1 0x20 PUSH1 0x0 KECCAK256 SWAP1 JUMPDEST DUP2 SLOAD DUP2 MSTORE SWAP1 PUSH1 0x1 ADD SWAP1 PUSH1 0x20 ADD DUP1 DUP4 GT PUSH2 0x45B JUMPI DUP3 SWAP1 SUB PUSH1 0x1F AND DUP3 ADD SWAP2 JUMPDEST POP POP POP POP POP DUP2 MSTORE PUSH1 0x20 ADD PUSH1 0x3 DUP3 ADD SLOAD DUP2 MSTORE PUSH1 0x20 ADD PUSH1 0x4 DUP3 ADD SLOAD DUP2 MSTORE POP POP DUP2 MSTORE PUSH1 0x20 ADD SWAP1 PUSH1 0x1 ADD SWAP1 PUSH2 0x36C JUMP JUMPDEST POP POP POP POP SWAP1 POP SWAP1 JUMP JUMPDEST PUSH2 0x4B5 PUSH2 0x742 JUMP JUMPDEST PUSH2 0x4F4 JUMPI PUSH1 0x40 MLOAD PUSH32 0x8C379A000000000000000000000000000000000000000000000000000000000 DUP2 MSTORE PUSH1 0x4 ADD PUSH2 0x4EB SWAP1 PUSH2 0xE50 JUMP JUMPDEST PUSH1 0x40 MLOAD DUP1 SWAP2 SUB SWAP1 REVERT JUMPDEST PUSH1 0x3 DUP1 SLOAD SWAP1 POP DUP2 LT PUSH2 0x53B JUMPI PUSH1 0x40 MLOAD PUSH32 0x8C379A000000000000000000000000000000000000000000000000000000000 DUP2 MSTORE PUSH1 0x4 ADD PUSH2 0x532 SWAP1 PUSH2 0xEBC JUMP JUMPDEST PUSH1 0x40 MLOAD DUP1 SWAP2 SUB SWAP1 REVERT JUMPDEST PUSH1 0x3 DUP2 DUP2 SLOAD DUP2 LT PUSH2 0x54F JUMPI PUSH2 0x54E PUSH2 0xEDC JUMP JUMPDEST JUMPDEST SWAP1 PUSH1 0x0 MSTORE PUSH1 0x20 PUSH1 0x0 KECCAK256 SWAP1 PUSH1 0x5 MUL ADD PUSH1 0x4 ADD PUSH1 0x0 DUP2 SLOAD DUP1 SWAP3 SWAP2 SWAP1 PUSH2 0x571 SWAP1 PUSH2 0x102F JUMP JUMPDEST SWAP2 SWAP1 POP SSTORE POP POP JUMP JUMPDEST PUSH1 0x0 DUP1 SLOAD SWAP1 PUSH2 0x100 EXP SWAP1 DIV PUSH2 0xFFFF AND DUP2 JUMP JUMPDEST PUSH1 0x1 SLOAD DUP2 JUMP JUMPDEST PUSH1 0x0 PUSH1 0x1 SLOAD SUB PUSH2 0x5B7 JUMPI TIMESTAMP PUSH1 0x1 DUP2 SWAP1 SSTORE POP PUSH2 0x708 TIMESTAMP PUSH2 0x5B0 SWAP2 SWAP1 PUSH2 0x1077 JUMP JUMPDEST PUSH1 0x2 DUP2 SWAP1 SSTORE POP JUMPDEST PUSH2 0x5BF PUSH2 0x742 JUMP JUMPDEST PUSH2 0x5FE JUMPI PUSH1 0x40 MLOAD PUSH32 0x8C379A000000000000000000000000000000000000000000000000000000000 DUP2 MSTORE PUSH1 0x4 ADD PUSH2 0x5F5 SWAP1 PUSH2 0xE50 JUMP JUMPDEST PUSH1 0x40 MLOAD DUP1 SWAP2 SUB SWAP1 REVERT JUMPDEST PUSH1 0x0 DUP1 SLOAD SWAP1 PUSH2 0x100 EXP SWAP1 DIV PUSH2 0xFFFF AND PUSH2 0xFFFF AND DUP2 MLOAD GT ISZERO PUSH2 0x654 JUMPI PUSH1 0x40 MLOAD PUSH32 0x8C379A000000000000000000000000000000000000000000000000000000000 DUP2 MSTORE PUSH1 0x4 ADD PUSH2 0x64B SWAP1 PUSH2 0x10F7 JUMP JUMPDEST PUSH1 0x40 MLOAD DUP1 SWAP2 SUB SWAP1 REVERT JUMPDEST PUSH1 0x3 PUSH1 0x40 MLOAD DUP1 PUSH1 0xA0 ADD PUSH1 0x40 MSTORE DUP1 PUSH1 0x3 DUP1 SLOAD SWAP1 POP DUP2 MSTORE PUSH1 0x20 ADD CALLER PUSH20 0xFFFFFFFFFFFFFFFFFFFFFFFFFFFFFFFFFFFFFFFF AND DUP2 MSTORE PUSH1 0x20 ADD DUP4 DUP2 MSTORE PUSH1 0x20 ADD TIMESTAMP DUP2 MSTORE PUSH1 0x20 ADD PUSH1 0x0 DUP2 MSTORE POP SWAP1 DUP1 PUSH1 0x1 DUP2 SLOAD ADD DUP1 DUP3 SSTORE DUP1 SWAP2 POP POP PUSH1 0x1 SWAP1 SUB SWAP1 PUSH1 0x0 MSTORE PUSH1 0x20 PUSH1 0x0 KECCAK256 SWAP1 PUSH1 0x5 MUL ADD PUSH1 0x0 SWAP1 SWAP2 SWAP1 SWAP2 SWAP1 SWAP2 POP PUSH1 0x0 DUP3 ADD MLOAD DUP2 PUSH1 0x0 ADD SSTORE PUSH1 0x20 DUP3 ADD MLOAD DUP2 PUSH1 0x1 ADD PUSH1 0x0 PUSH2 0x100 EXP DUP2 SLOAD DUP2 PUSH20 0xFFFFFFFFFFFFFFFFFFFFFFFFFFFFFFFFFFFFFFFF MUL NOT AND SWAP1 DUP4 PUSH20 0xFFFFFFFFFFFFFFFFFFFFFFFFFFFFFFFFFFFFFFFF AND MUL OR SWAP1 SSTORE POP PUSH1 0x40 DUP3 ADD MLOAD DUP2 PUSH1 0x2 ADD SWAP1 DUP2 PUSH2 0x728 SWAP2 SWAP1 PUSH2 0x12C3 JUMP JUMPDEST POP PUSH1 0x60 DUP3 ADD MLOAD DUP2 PUSH1 0x3 ADD SSTORE PUSH1 0x80 DUP3 ADD MLOAD DUP2 PUSH1 0x4 ADD SSTORE POP POP POP JUMP JUMPDEST PUSH1 0x0 DUP1 PUSH1 0x1 SLOAD SUB PUSH2 0x756 JUMPI PUSH1 0x0 SWAP1 POP PUSH2 0x75F JUMP JUMPDEST PUSH1 0x2 SLOAD TIMESTAMP GT ISZERO SWAP1 POP JUMPDEST SWAP1 JUMP JUMPDEST PUSH1 0x3 DUP2 DUP2 SLOAD DUP2 LT PUSH2 0x772 JUMPI PUSH1 0x0 DUP1 REVERT JUMPDEST SWAP1 PUSH1 0x0 MSTORE PUSH1 0x20 PUSH1 0x0 KECCAK256 SWAP1 PUSH1 0x5 MUL ADD PUSH1 0x0 SWAP2 POP SWAP1 POP DUP1 PUSH1 0x0 ADD SLOAD SWAP1 DUP1 PUSH1 0x1 ADD PUSH1 0x0 SWAP1 SLOAD SWAP1 PUSH2 0x100 EXP SWAP1 DIV PUSH20 0xFFFFFFFFFFFFFFFFFFFFFFFFFFFFFFFFFFFFFFFF AND SWAP1 DUP1 PUSH1 0x2 ADD DUP1 SLOAD PUSH2 0x7C1 SWAP1 PUSH2 0xFFE JUMP JUMPDEST DUP1 PUSH1 0x1F ADD PUSH1 0x20 DUP1 SWAP2 DIV MUL PUSH1 0x20 ADD PUSH1 0x40 MLOAD SWAP1 DUP2 ADD PUSH1 0x40 MSTORE DUP1 SWAP3 SWAP2 SWAP1 DUP2 DUP2 MSTORE PUSH1 0x20 ADD DUP3 DUP1 SLOAD PUSH2 0x7ED SWAP1 PUSH2 0xFFE JUMP JUMPDEST DUP1 ISZERO PUSH2 0x83A JUMPI DUP1 PUSH1 0x1F LT PUSH2 0x80F JUMPI PUSH2 0x100 DUP1 DUP4 SLOAD DIV MUL DUP4 MSTORE SWAP2 PUSH1 0x20 ADD SWAP2 PUSH2 0x83A JUMP JUMPDEST DUP3 ADD SWAP2 SWAP1 PUSH1 0x0 MSTORE PUSH1 0x20 PUSH1 0x0 KECCAK256 SWAP1 JUMPDEST DUP2 SLOAD DUP2 MSTORE SWAP1 PUSH1 0x1 ADD SWAP1 PUSH1 0x20 ADD DUP1 DUP4 GT PUSH2 0x81D JUMPI DUP3 SWAP1 SUB PUSH1 0x1F AND DUP3 ADD SWAP2 JUMPDEST POP POP POP POP POP SWAP1 DUP1 PUSH1 0x3 ADD SLOAD SWAP1 DUP1 PUSH1 0x4 ADD SLOAD SWAP1 POP DUP6 JUMP JUMPDEST PUSH1 0x0 DUP1 PUSH1 0x1 SLOAD SUB PUSH2 0x864 JUMPI PUSH1 0x0 SWAP1 POP PUSH2 0x887 JUMP JUMPDEST PUSH1 0x2 SLOAD TIMESTAMP LT PUSH2 0x876 JUMPI PUSH1 0x0 SWAP1 POP PUSH2 0x887 JUMP JUMPDEST TIMESTAMP PUSH1 0x2 SLOAD PUSH2 0x884 SWAP2 SWAP1 PUSH2 0x1395 JUMP JUMPDEST SWAP1 POP JUMPDEST SWAP1 JUMP JUMPDEST PUSH1 0x0 DUP2 SWAP1 POP SWAP2 SWAP1 POP JUMP JUMPDEST PUSH2 0x89D DUP2 PUSH2 0x88A JUMP JUMPDEST DUP3 MSTORE POP POP JUMP JUMPDEST PUSH1 0x0 PUSH1 0x20 DUP3 ADD SWAP1 POP PUSH2 0x8B8 PUSH1 0x0 DUP4 ADD DUP5 PUSH2 0x894 JUMP JUMPDEST SWAP3 SWAP2 POP POP JUMP JUMPDEST PUSH1 0x0 PUSH1 0x40 MLOAD SWAP1 POP SWAP1 JUMP JUMPDEST PUSH1 0x0 DUP1 REVERT JUMPDEST PUSH1 0x0 DUP1 REVERT JUMPDEST PUSH2 0x8DB DUP2 PUSH2 0x88A JUMP JUMPDEST DUP2 EQ PUSH2 0x8E6 JUMPI PUSH1 0x0 DUP1 REVERT JUMPDEST POP JUMP JUMPDEST PUSH1 0x0 DUP2 CALLDATALOAD SWAP1 POP PUSH2 0x8F8 DUP2 PUSH2 0x8D2 JUMP JUMPDEST SWAP3 SWAP2 POP POP JUMP JUMPDEST PUSH1 0x0 PUSH1 0x20 DUP3 DUP5 SUB SLT ISZERO PUSH2 0x914 JUMPI PUSH2 0x913 PUSH2 0x8C8 JUMP JUMPDEST JUMPDEST PUSH1 0x0 PUSH2 0x922 DUP5 DUP3 DUP6 ADD PUSH2 0x8E9 JUMP JUMPDEST SWAP2 POP POP SWAP3 SWAP2 POP POP JUMP JUMPDEST PUSH1 0x0 DUP2 MLOAD SWAP1 POP SWAP2 SWAP1 POP JUMP JUMPDEST PUSH1 0x0 DUP3 DUP3 MSTORE PUSH1 0x20 DUP3 ADD SWAP1 POP SWAP3 SWAP2 POP POP JUMP JUMPDEST PUSH1 0x0 DUP2 SWAP1 POP PUSH1 0x20 DUP3 ADD SWAP1 POP SWAP2 SWAP1 POP JUMP JUMPDEST PUSH2 0x960 DUP2 PUSH2 0x88A JUMP JUMPDEST DUP3 MSTORE POP POP JUMP JUMPDEST PUSH1 0x0 PUSH20 0xFFFFFFFFFFFFFFFFFFFFFFFFFFFFFFFFFFFFFFFF DUP3 AND SWAP1 POP SWAP2 SWAP1 POP JUMP JUMPDEST PUSH1 0x0 PUSH2 0x991 DUP3 PUSH2 0x966 JUMP JUMPDEST SWAP1 POP SWAP2 SWAP1 POP JUMP JUMPDEST PUSH2 0x9A1 DUP2 PUSH2 0x986 JUMP JUMPDEST DUP3 MSTORE POP POP JUMP JUMPDEST PUSH1 0x0 DUP2 MLOAD SWAP1 POP SWAP2 SWAP1 POP JUMP JUMPDEST PUSH1 0x0 DUP3 DUP3 MSTORE PUSH1 0x20 DUP3 ADD SWAP1 POP SWAP3 SWAP2 POP POP JUMP JUMPDEST PUSH1 0x0 JUMPDEST DUP4 DUP2 LT ISZERO PUSH2 0x9E1 JUMPI DUP1 DUP3 ADD MLOAD DUP2 DUP5 ADD MSTORE PUSH1 0x20 DUP2 ADD SWAP1 POP PUSH2 0x9C6 JUMP JUMPDEST PUSH1 0x0 DUP5 DUP5 ADD MSTORE POP POP POP POP JUMP JUMPDEST PUSH1 0x0 PUSH1 0x1F NOT PUSH1 0x1F DUP4 ADD AND SWAP1 POP SWAP2 SWAP1 POP JUMP JUMPDEST PUSH1 0x0 PUSH2 0xA09 DUP3 PUSH2 0x9A7 JUMP JUMPDEST PUSH2 0xA13 DUP2 DUP6 PUSH2 0x9B2 JUMP JUMPDEST SWAP4 POP PUSH2 0xA23 DUP2 DUP6 PUSH1 0x20 DUP7 ADD PUSH2 0x9C3 JUMP JUMPDEST PUSH2 0xA2C DUP2 PUSH2 0x9ED JUMP JUMPDEST DUP5 ADD SWAP2 POP POP SWAP3 SWAP2 POP POP JUMP JUMPDEST PUSH1 0x0 PUSH1 0xA0 DUP4 ADD PUSH1 0x0 DUP4 ADD MLOAD PUSH2 0xA4F PUSH1 0x0 DUP7 ADD DUP3 PUSH2 0x957 JUMP JUMPDEST POP PUSH1 0x20 DUP4 ADD MLOAD PUSH2 0xA62 PUSH1 0x20 DUP7 ADD DUP3 PUSH2 0x998 JUMP JUMPDEST POP PUSH1 0x40 DUP4 ADD MLOAD DUP5 DUP3 SUB PUSH1 0x40 DUP7 ADD MSTORE PUSH2 0xA7A DUP3 DUP3 PUSH2 0x9FE JUMP JUMPDEST SWAP2 POP POP PUSH1 0x60 DUP4 ADD MLOAD PUSH2 0xA8F PUSH1 0x60 DUP7 ADD DUP3 PUSH2 0x957 JUMP JUMPDEST POP PUSH1 0x80 DUP4 ADD MLOAD PUSH2 0xAA2 PUSH1 0x80 DUP7 ADD DUP3 PUSH2 0x957 JUMP JUMPDEST POP DUP1 SWAP2 POP POP SWAP3 SWAP2 POP POP JUMP JUMPDEST PUSH1 0x0 PUSH2 0xAB9 DUP4 DUP4 PUSH2 0xA37 JUMP JUMPDEST SWAP1 POP SWAP3 SWAP2 POP POP JUMP JUMPDEST PUSH1 0x0 PUSH1 0x20 DUP3 ADD SWAP1 POP SWAP2 SWAP1 POP JUMP JUMPDEST PUSH1 0x0 PUSH2 0xAD9 DUP3 PUSH2 0x92B JUMP JUMPDEST PUSH2 0xAE3 DUP2 DUP6 PUSH2 0x936 JUMP JUMPDEST SWAP4 POP DUP4 PUSH1 0x20 DUP3 MUL DUP6 ADD PUSH2 0xAF5 DUP6 PUSH2 0x947 JUMP JUMPDEST DUP1 PUSH1 0x0 JUMPDEST DUP6 DUP2 LT ISZERO PUSH2 0xB31 JUMPI DUP5 DUP5 SUB DUP10 MSTORE DUP2 MLOAD PUSH2 0xB12 DUP6 DUP3 PUSH2 0xAAD JUMP JUMPDEST SWAP5 POP PUSH2 0xB1D DUP4 PUSH2 0xAC1 JUMP JUMPDEST SWAP3 POP PUSH1 0x20 DUP11 ADD SWAP10 POP POP PUSH1 0x1 DUP2 ADD SWAP1 POP PUSH2 0xAF9 JUMP JUMPDEST POP DUP3 SWAP8 POP DUP8 SWAP6 POP POP POP POP POP POP SWAP3 SWAP2 POP POP JUMP JUMPDEST PUSH1 0x0 PUSH1 0x20 DUP3 ADD SWAP1 POP DUP2 DUP2 SUB PUSH1 0x0 DUP4 ADD MSTORE PUSH2 0xB5D DUP2 DUP5 PUSH2 0xACE JUMP JUMPDEST SWAP1 POP SWAP3 SWAP2 POP POP JUMP JUMPDEST PUSH1 0x0 PUSH2 0xFFFF DUP3 AND SWAP1 POP SWAP2 SWAP1 POP JUMP JUMPDEST PUSH2 0xB7C DUP2 PUSH2 0xB65 JUMP JUMPDEST DUP3 MSTORE POP POP JUMP JUMPDEST PUSH1 0x0 PUSH1 0x20 DUP3 ADD SWAP1 POP PUSH2 0xB97 PUSH1 0x0 DUP4 ADD DUP5 PUSH2 0xB73 JUMP JUMPDEST SWAP3 SWAP2 POP POP JUMP JUMPDEST PUSH1 0x0 DUP1 REVERT JUMPDEST PUSH1 0x0 DUP1 REVERT JUMPDEST PUSH32 0x4E487B7100000000000000000000000000000000000000000000000000000000 PUSH1 0x0 MSTORE PUSH1 0x41 PUSH1 0x4 MSTORE PUSH1 0x24 PUSH1 0x0 REVERT JUMPDEST PUSH2 0xBDF DUP3 PUSH2 0x9ED JUMP JUMPDEST DUP2 ADD DUP2 DUP2 LT PUSH8 0xFFFFFFFFFFFFFFFF DUP3 GT OR ISZERO PUSH2 0xBFE JUMPI PUSH2 0xBFD PUSH2 0xBA7 JUMP JUMPDEST JUMPDEST DUP1 PUSH1 0x40 MSTORE POP POP POP JUMP JUMPDEST PUSH1 0x0 PUSH2 0xC11 PUSH2 0x8BE JUMP JUMPDEST SWAP1 POP PUSH2 0xC1D DUP3 DUP3 PUSH2 0xBD6 JUMP JUMPDEST SWAP2 SWAP1 POP JUMP JUMPDEST PUSH1 0x0 PUSH8 0xFFFFFFFFFFFFFFFF DUP3 GT ISZERO PUSH2 0xC3D JUMPI PUSH2 0xC3C PUSH2 0xBA7 JUMP JUMPDEST JUMPDEST PUSH2 0xC46 DUP3 PUSH2 0x9ED JUMP JUMPDEST SWAP1 POP PUSH1 0x20 DUP2 ADD SWAP1 POP SWAP2 SWAP1 POP JUMP JUMPDEST DUP3 DUP2 DUP4 CALLDATACOPY PUSH1 0x0 DUP4 DUP4 ADD MSTORE POP POP POP JUMP JUMPDEST PUSH1 0x0 PUSH2 0xC75 PUSH2 0xC70 DUP5 PUSH2 0xC22 JUMP JUMPDEST PUSH2 0xC07 JUMP JUMPDEST SWAP1 POP DUP3 DUP2 MSTORE PUSH1 0x20 DUP2 ADD DUP5 DUP5 DUP5 ADD GT ISZERO PUSH2 0xC91 JUMPI PUSH2 0xC90 PUSH2 0xBA2 JUMP JUMPDEST JUMPDEST PUSH2 0xC9C DUP5 DUP3 DUP6 PUSH2 0xC53 JUMP JUMPDEST POP SWAP4 SWAP3 POP POP POP JUMP JUMPDEST PUSH1 0x0 DUP3 PUSH1 0x1F DUP4 ADD SLT PUSH2 0xCB9 JUMPI PUSH2 0xCB8 PUSH2 0xB9D JUMP JUMPDEST JUMPDEST DUP2 CALLDATALOAD PUSH2 0xCC9 DUP5 DUP3 PUSH1 0x20 DUP7 ADD PUSH2 0xC62 JUMP JUMPDEST SWAP2 POP POP SWAP3 SWAP2 POP POP JUMP JUMPDEST PUSH1 0x0 PUSH1 0x20 DUP3 DUP5 SUB SLT ISZERO PUSH2 0xCE8 JUMPI PUSH2 0xCE7 PUSH2 0x8C8 JUMP JUMPDEST JUMPDEST PUSH1 0x0 DUP3 ADD CALLDATALOAD PUSH8 0xFFFFFFFFFFFFFFFF DUP2 GT ISZERO PUSH2 0xD06 JUMPI PUSH2 0xD05 PUSH2 0x8CD JUMP JUMPDEST JUMPDEST PUSH2 0xD12 DUP5 DUP3 DUP6 ADD PUSH2 0xCA4 JUMP JUMPDEST SWAP2 POP POP SWAP3 SWAP2 POP POP JUMP JUMPDEST PUSH1 0x0 DUP2 ISZERO ISZERO SWAP1 POP SWAP2 SWAP1 POP JUMP JUMPDEST PUSH2 0xD30 DUP2 PUSH2 0xD1B JUMP JUMPDEST DUP3 MSTORE POP POP JUMP JUMPDEST PUSH1 0x0 PUSH1 0x20 DUP3 ADD SWAP1 POP PUSH2 0xD4B PUSH1 0x0 DUP4 ADD DUP5 PUSH2 0xD27 JUMP JUMPDEST SWAP3 SWAP2 POP POP JUMP JUMPDEST PUSH2 0xD5A DUP2 PUSH2 0x986 JUMP JUMPDEST DUP3 MSTORE POP POP JUMP JUMPDEST PUSH1 0x0 DUP3 DUP3 MSTORE PUSH1 0x20 DUP3 ADD SWAP1 POP SWAP3 SWAP2 POP POP JUMP JUMPDEST PUSH1 0x0 PUSH2 0xD7C DUP3 PUSH2 0x9A7 JUMP JUMPDEST PUSH2 0xD86 DUP2 DUP6 PUSH2 0xD60 JUMP JUMPDEST SWAP4 POP PUSH2 0xD96 DUP2 DUP6 PUSH1 0x20 DUP7 ADD PUSH2 0x9C3 JUMP JUMPDEST PUSH2 0xD9F DUP2 PUSH2 0x9ED JUMP JUMPDEST DUP5 ADD SWAP2 POP POP SWAP3 SWAP2 POP POP JUMP JUMPDEST PUSH1 0x0 PUSH1 0xA0 DUP3 ADD SWAP1 POP PUSH2 0xDBF PUSH1 0x0 DUP4 ADD DUP9 PUSH2 0x894 JUMP JUMPDEST PUSH2 0xDCC PUSH1 0x20 DUP4 ADD DUP8 PUSH2 0xD51 JUMP JUMPDEST DUP2 DUP2 SUB PUSH1 0x40 DUP4 ADD MSTORE PUSH2 0xDDE DUP2 DUP7 PUSH2 0xD71 JUMP JUMPDEST SWAP1 POP PUSH2 0xDED PUSH1 0x60 DUP4 ADD DUP6 PUSH2 0x894 JUMP JUMPDEST PUSH2 0xDFA PUSH1 0x80 DUP4 ADD DUP5 PUSH2 0x894 JUMP JUMPDEST SWAP7 SWAP6 POP POP POP POP POP POP JUMP JUMPDEST PUSH32 0x526F6F6D20697320636C6F736564000000000000000000000000000000000000 PUSH1 0x0 DUP3 ADD MSTORE POP JUMP JUMPDEST PUSH1 0x0 PUSH2 0xE3A PUSH1 0xE DUP4 PUSH2 0xD60 JUMP JUMPDEST SWAP2 POP PUSH2 0xE45 DUP3 PUSH2 0xE04 JUMP JUMPDEST PUSH1 0x20 DUP3 ADD SWAP1 POP SWAP2 SWAP1 POP JUMP JUMPDEST PUSH1 0x0 PUSH1 0x20 DUP3 ADD SWAP1 POP DUP2 DUP2 SUB PUSH1 0x0 DUP4 ADD MSTORE PUSH2 0xE69 DUP2 PUSH2 0xE2D JUMP JUMPDEST SWAP1 POP SWAP2 SWAP1 POP JUMP JUMPDEST PUSH32 0x5477656574206E6F7420666F756E640000000000000000000000000000000000 PUSH1 0x0 DUP3 ADD MSTORE POP JUMP JUMPDEST PUSH1 0x0 PUSH2 0xEA6 PUSH1 0xF DUP4 PUSH2 0xD60 JUMP JUMPDEST SWAP2 POP PUSH2 0xEB1 DUP3 PUSH2 0xE70 JUMP JUMPDEST PUSH1 0x20 DUP3 ADD SWAP1 POP SWAP2 SWAP1 POP JUMP JUMPDEST PUSH1 0x0 PUSH1 0x20 DUP3 ADD SWAP1 POP DUP2 DUP2 SUB PUSH1 0x0 DUP4 ADD MSTORE PUSH2 0xED5 DUP2 PUSH2 0xE99 JUMP JUMPDEST SWAP1 POP SWAP2 SWAP1 POP JUMP JUMPDEST PUSH32 0x4E487B7100000000000000000000000000000000000000000000000000000000 PUSH1 0x0 MSTORE PUSH1 0x32 PUSH1 0x4 MSTORE PUSH1 0x24 PUSH1 0x0 REVERT JUMPDEST PUSH32 0x4E6F206C696B657320746F2072656D6F76650000000000000000000000000000 PUSH1 0x0 DUP3 ADD MSTORE POP JUMP JUMPDEST PUSH1 0x0 PUSH2 0xF41 PUSH1 0x12 DUP4 PUSH2 0xD60 JUMP JUMPDEST SWAP2 POP PUSH2 0xF4C DUP3 PUSH2 0xF0B JUMP JUMPDEST PUSH1 0x20 DUP3 ADD SWAP1 POP SWAP2 SWAP1 POP JUMP JUMPDEST PUSH1 0x0 PUSH1 0x20 DUP3 ADD SWAP1 POP DUP2 DUP2 SUB PUSH1 0x0 DUP4 ADD MSTORE PUSH2 0xF70 DUP2 PUSH2 0xF34 JUMP JUMPDEST SWAP1 POP SWAP2 SWAP1 POP JUMP JUMPDEST PUSH32 0x4E487B7100000000000000000000000000000000000000000000000000000000 PUSH1 0x0 MSTORE PUSH1 0x11 PUSH1 0x4 MSTORE PUSH1 0x24 PUSH1 0x0 REVERT JUMPDEST PUSH1 0x0 PUSH2 0xFB1 DUP3 PUSH2 0x88A JUMP JUMPDEST SWAP2 POP PUSH1 0x0 DUP3 SUB PUSH2 0xFC4 JUMPI PUSH2 0xFC3 PUSH2 0xF77 JUMP JUMPDEST JUMPDEST PUSH1 0x1 DUP3 SUB SWAP1 POP SWAP2 SWAP1 POP JUMP JUMPDEST PUSH32 0x4E487B7100000000000000000000000000000000000000000000000000000000 PUSH1 0x0 MSTORE PUSH1 0x22 PUSH1 0x4 MSTORE PUSH1 0x24 PUSH1 0x0 REVERT JUMPDEST PUSH1 0x0 PUSH1 0x2 DUP3 DIV SWAP1 POP PUSH1 0x1 DUP3 AND DUP1 PUSH2 0x1016 JUMPI PUSH1 0x7F DUP3 AND SWAP2 POP JUMPDEST PUSH1 0x20 DUP3 LT DUP2 SUB PUSH2 0x1029 JUMPI PUSH2 0x1028 PUSH2 0xFCF JUMP JUMPDEST JUMPDEST POP SWAP2 SWAP1 POP JUMP JUMPDEST PUSH1 0x0 PUSH2 0x103A DUP3 PUSH2 0x88A JUMP JUMPDEST SWAP2 POP PUSH32 0xFFFFFFFFFFFFFFFFFFFFFFFFFFFFFFFFFFFFFFFFFFFFFFFFFFFFFFFFFFFFFFFF DUP3 SUB PUSH2 0x106C JUMPI PUSH2 0x106B PUSH2 0xF77 JUMP JUMPDEST JUMPDEST PUSH1 0x1 DUP3 ADD SWAP1 POP SWAP2 SWAP1 POP JUMP JUMPDEST PUSH1 0x0 PUSH2 0x1082 DUP3 PUSH2 0x88A JUMP JUMPDEST SWAP2 POP PUSH2 0x108D DUP4 PUSH2 0x88A JUMP JUMPDEST SWAP3 POP DUP3 DUP3 ADD SWAP1 POP DUP1 DUP3 GT ISZERO PUSH2 0x10A5 JUMPI PUSH2 0x10A4 PUSH2 0xF77 JUMP JUMPDEST JUMPDEST SWAP3 SWAP2 POP POP JUMP JUMPDEST PUSH32 0x547765657420746F6F206C6F6E67210000000000000000000000000000000000 PUSH1 0x0 DUP3 ADD MSTORE POP JUMP JUMPDEST PUSH1 0x0 PUSH2 0x10E1 PUSH1 0xF DUP4 PUSH2 0xD60 JUMP JUMPDEST SWAP2 POP PUSH2 0x10EC DUP3 PUSH2 0x10AB JUMP JUMPDEST PUSH1 0x20 DUP3 ADD SWAP1 POP SWAP2 SWAP1 POP JUMP JUMPDEST PUSH1 0x0 PUSH1 0x20 DUP3 ADD SWAP1 POP DUP2 DUP2 SUB PUSH1 0x0 DUP4 ADD MSTORE PUSH2 0x1110 DUP2 PUSH2 0x10D4 JUMP JUMPDEST SWAP1 POP SWAP2 SWAP1 POP JUMP JUMPDEST PUSH1 0x0 DUP2 SWAP1 POP DUP2 PUSH1 0x0 MSTORE PUSH1 0x20 PUSH1 0x0 KECCAK256 SWAP1 POP SWAP2 SWAP1 POP JUMP JUMPDEST PUSH1 0x0 PUSH1 0x20 PUSH1 0x1F DUP4 ADD DIV SWAP1 POP SWAP2 SWAP1 POP JUMP JUMPDEST PUSH1 0x0 DUP3 DUP3 SHL SWAP1 POP SWAP3 SWAP2 POP POP JUMP JUMPDEST PUSH1 0x0 PUSH1 0x8 DUP4 MUL PUSH2 0x1179 PUSH32 0xFFFFFFFFFFFFFFFFFFFFFFFFFFFFFFFFFFFFFFFFFFFFFFFFFFFFFFFFFFFFFFFF DUP3 PUSH2 0x113C JUMP JUMPDEST PUSH2 0x1183 DUP7 DUP4 PUSH2 0x113C JUMP JUMPDEST SWAP6 POP DUP1 NOT DUP5 AND SWAP4 POP DUP1 DUP7 AND DUP5 OR SWAP3 POP POP POP SWAP4 SWAP3 POP POP POP JUMP JUMPDEST PUSH1 0x0 DUP2 SWAP1 POP SWAP2 SWAP1 POP JUMP JUMPDEST PUSH1 0x0 PUSH2 0x11C0 PUSH2 0x11BB PUSH2 0x11B6 DUP5 PUSH2 0x88A JUMP JUMPDEST PUSH2 0x119B JUMP JUMPDEST PUSH2 0x88A JUMP JUMPDEST SWAP1 POP SWAP2 SWAP1 POP JUMP JUMPDEST PUSH1 0x0 DUP2 SWAP1 POP SWAP2 SWAP1 POP JUMP JUMPDEST PUSH2 0x11DA DUP4 PUSH2 0x11A5 JUMP JUMPDEST PUSH2 0x11EE PUSH2 0x11E6 DUP3 PUSH2 0x11C7 JUMP JUMPDEST DUP5 DUP5 SLOAD PUSH2 0x1149 JUMP JUMPDEST DUP3 SSTORE POP POP POP POP JUMP JUMPDEST PUSH1 0x0 SWAP1 JUMP JUMPDEST PUSH2 0x1203 PUSH2 0x11F6 JUMP JUMPDEST PUSH2 0x120E DUP2 DUP5 DUP5 PUSH2 0x11D1 JUMP JUMPDEST POP POP POP JUMP JUMPDEST JUMPDEST DUP2 DUP2 LT ISZERO PUSH2 0x1232 JUMPI PUSH2 0x1227 PUSH1 0x0 DUP3 PUSH2 0x11FB JUMP JUMPDEST PUSH1 0x1 DUP2 ADD SWAP1 POP PUSH2 0x1214 JUMP JUMPDEST POP POP JUMP JUMPDEST PUSH1 0x1F DUP3 GT ISZERO PUSH2 0x1277 JUMPI PUSH2 0x1248 DUP2 PUSH2 0x1117 JUMP JUMPDEST PUSH2 0x1251 DUP5 PUSH2 0x112C JUMP JUMPDEST DUP2 ADD PUSH1 0x20 DUP6 LT ISZERO PUSH2 0x1260 JUMPI DUP2 SWAP1 POP JUMPDEST PUSH2 0x1274 PUSH2 0x126C DUP6 PUSH2 0x112C JUMP JUMPDEST DUP4 ADD DUP3 PUSH2 0x1213 JUMP JUMPDEST POP POP JUMPDEST POP POP POP JUMP JUMPDEST PUSH1 0x0 DUP3 DUP3 SHR SWAP1 POP SWAP3 SWAP2 POP POP JUMP JUMPDEST PUSH1 0x0 PUSH2 0x129A PUSH1 0x0 NOT DUP5 PUSH1 0x8 MUL PUSH2 0x127C JUMP JUMPDEST NOT DUP1 DUP4 AND SWAP2 POP POP SWAP3 SWAP2 POP POP JUMP JUMPDEST PUSH1 0x0 PUSH2 0x12B3 DUP4 DUP4 PUSH2 0x1289 JUMP JUMPDEST SWAP2 POP DUP3 PUSH1 0x2 MUL DUP3 OR SWAP1 POP SWAP3 SWAP2 POP POP JUMP JUMPDEST PUSH2 0x12CC DUP3 PUSH2 0x9A7 JUMP JUMPDEST PUSH8 0xFFFFFFFFFFFFFFFF DUP2 GT ISZERO PUSH2 0x12E5 JUMPI PUSH2 0x12E4 PUSH2 0xBA7 JUMP JUMPDEST JUMPDEST PUSH2 0x12EF DUP3 SLOAD PUSH2 0xFFE JUMP JUMPDEST PUSH2 0x12FA DUP3 DUP3 DUP6 PUSH2 0x1236 JUMP JUMPDEST PUSH1 0x0 PUSH1 0x20 SWAP1 POP PUSH1 0x1F DUP4 GT PUSH1 0x1 DUP2 EQ PUSH2 0x132D JUMPI PUSH1 0x0 DUP5 ISZERO PUSH2 0x131B JUMPI DUP3 DUP8 ADD MLOAD SWAP1 POP JUMPDEST PUSH2 0x1325 DUP6 DUP3 PUSH2 0x12A7 JUMP JUMPDEST DUP7 SSTORE POP PUSH2 0x138D JUMP JUMPDEST PUSH1 0x1F NOT DUP5 AND PUSH2 0x133B DUP7 PUSH2 0x1117 JUMP JUMPDEST PUSH1 0x0 JUMPDEST DUP3 DUP2 LT ISZERO PUSH2 0x1363 JUMPI DUP5 DUP10 ADD MLOAD DUP3 SSTORE PUSH1 0x1 DUP3 ADD SWAP2 POP PUSH1 0x20 DUP6 ADD SWAP5 POP PUSH1 0x20 DUP2 ADD SWAP1 POP PUSH2 0x133E JUMP JUMPDEST DUP7 DUP4 LT ISZERO PUSH2 0x1380 JUMPI DUP5 DUP10 ADD MLOAD PUSH2 0x137C PUSH1 0x1F DUP10 AND DUP3 PUSH2 0x1289 JUMP JUMPDEST DUP4 SSTORE POP JUMPDEST PUSH1 0x1 PUSH1 0x2 DUP9 MUL ADD DUP9 SSTORE POP POP POP JUMPDEST POP POP POP POP POP POP JUMP JUMPDEST PUSH1 0x0 PUSH2 0x13A0 DUP3 PUSH2 0x88A JUMP JUMPDEST SWAP2 POP PUSH2 0x13AB DUP4 PUSH2 0x88A JUMP JUMPDEST SWAP3 POP DUP3 DUP3 SUB SWAP1 POP DUP2 DUP2 GT ISZERO PUSH2 0x13C3 JUMPI PUSH2 0x13C2 PUSH2 0xF77 JUMP JUMPDEST JUMPDEST SWAP3 SWAP2 POP POP JUMP INVALID LOG2 PUSH5 0x6970667358 0x22 SLT KECCAK256 0xA9 INVALID 0xC6 PUSH24 0xD7BEA0F8C575BE7FE07C645C7FA0CB54DE5BC37C9274DE8 STOP PUSH17 0x52EA64736F6C6343000812003300000000 "
				},
				"gasEstimates": {
					"creation": {
						"codeDepositCost": "1023800",
						"executionCost": "25328",
						"totalCost": "1049128"
					},
					"external": {
						"DURATION()": "330",
						"MAX_TWEET_LENGTH()": "2468",
						"allTweets(uint256)": "infinite",
						"createTweet(string)": "infinite",
						"dislikeTweet(uint256)": "infinite",
						"endTime()": "2474",
						"getAllTweets()": "infinite",
						"getRemainingTime()": "infinite",
						"isRoomActive()": "4641",
						"likeTweet(uint256)": "infinite",
						"startTime()": "2451"
					}
				},
				"methodIdentifiers": {
					"DURATION()": "1be05289",
					"MAX_TWEET_LENGTH()": "6eb10797",
					"allTweets(uint256)": "e28350b7",
					"createTweet(string)": "7c9cd2bc",
					"dislikeTweet(uint256)": "21511a44",
					"endTime()": "3197cbb6",
					"getAllTweets()": "53256135",
					"getRemainingTime()": "efb98bcf",
					"isRoomActive()": "c5dce068",
					"likeTweet(uint256)": "5ffc6ceb",
					"startTime()": "78e97925"
				}
			},
			"storageLayout": {
				"storage": [
					{
						"astId": 4,
						"contract": "D_Room.sol:Room",
						"label": "MAX_TWEET_LENGTH",
						"offset": 0,
						"slot": "0",
						"type": "t_uint16"
					},
					{
						"astId": 6,
						"contract": "D_Room.sol:Room",
						"label": "startTime",
						"offset": 0,
						"slot": "1",
						"type": "t_uint256"
					},
					{
						"astId": 8,
						"contract": "D_Room.sol:Room",
						"label": "endTime",
						"offset": 0,
						"slot": "2",
						"type": "t_uint256"
					},
					{
						"astId": 26,
						"contract": "D_Room.sol:Room",
						"label": "allTweets",
						"offset": 0,
						"slot": "3",
						"type": "t_array(t_struct(Tweet)22_storage)dyn_storage"
					}
				],
				"types": {
					"t_address": {
						"encoding": "inplace",
						"label": "address",
						"numberOfBytes": "20"
					},
					"t_array(t_struct(Tweet)22_storage)dyn_storage": {
						"base": "t_struct(Tweet)22_storage",
						"encoding": "dynamic_array",
						"label": "struct Room.Tweet[]",
						"numberOfBytes": "32"
					},
					"t_string_storage": {
						"encoding": "bytes",
						"label": "string",
						"numberOfBytes": "32"
					},
					"t_struct(Tweet)22_storage": {
						"encoding": "inplace",
						"label": "struct Room.Tweet",
						"members": [
							{
								"astId": 13,
								"contract": "D_Room.sol:Room",
								"label": "id",
								"offset": 0,
								"slot": "0",
								"type": "t_uint256"
							},
							{
								"astId": 15,
								"contract": "D_Room.sol:Room",
								"label": "author",
								"offset": 0,
								"slot": "1",
								"type": "t_address"
							},
							{
								"astId": 17,
								"contract": "D_Room.sol:Room",
								"label": "content",
								"offset": 0,
								"slot": "2",
								"type": "t_string_storage"
							},
							{
								"astId": 19,
								"contract": "D_Room.sol:Room",
								"label": "timestamp",
								"offset": 0,
								"slot": "3",
								"type": "t_uint256"
							},
							{
								"astId": 21,
								"contract": "D_Room.sol:Room",
								"label": "likes",
								"offset": 0,
								"slot": "4",
								"type": "t_uint256"
							}
						],
						"numberOfBytes": "160"
					},
					"t_uint16": {
						"encoding": "inplace",
						"label": "uint16",
						"numberOfBytes": "2"
					},
					"t_uint256": {
						"encoding": "inplace",
						"label": "uint256",
						"numberOfBytes": "32"
					}
				}
			},
			"userdoc": {
				"kind": "user",
				"methods": {},
				"version": 1
			}
		}
	}
}