{
	"arr_delete.sol": {
		"Delete_array": {
			"abi": [
				{
					"inputs": [
						{
							"internalType": "uint256",
							"name": "",
							"type": "uint256"
						}
					],
					"name": "arr",
					"outputs": [
						{
							"internalType": "uint256",
							"name": "",
							"type": "uint256"
						}
					],
					"stateMutability": "view",
					"type": "function"
				},
				{
					"inputs": [
						{
							"internalType": "uint256",
							"name": "index",
							"type": "uint256"
						}
					],
					"name": "del_arr",
					"outputs": [],
					"stateMutability": "nonpayable",
					"type": "function"
				},
				{
					"inputs": [],
					"name": "get_arr",
					"outputs": [
						{
							"internalType": "uint256[]",
							"name": "",
							"type": "uint256[]"
						}
					],
					"stateMutability": "view",
					"type": "function"
				}
			],
			"devdoc": {
				"kind": "dev",
				"methods": {},
				"version": 1
			},
			"evm": {
				"assembly": "    /* \"arr_delete.sol\":60:446  contract Delete_array{... */\n  mstore(0x40, 0x80)\n    /* \"arr_delete.sol\":88:123  uint [] public arr=[10,20,30,40,50] */\n  mload(0x40)\n  dup1\n  0xa0\n  add\n  0x40\n  mstore\n  dup1\n    /* \"arr_delete.sol\":108:110  10 */\n  0x0a\n    /* \"arr_delete.sol\":88:123  uint [] public arr=[10,20,30,40,50] */\n  0xff\n  and\n  dup2\n  mstore\n  0x20\n  add\n    /* \"arr_delete.sol\":111:113  20 */\n  0x14\n    /* \"arr_delete.sol\":88:123  uint [] public arr=[10,20,30,40,50] */\n  0xff\n  and\n  dup2\n  mstore\n  0x20\n  add\n    /* \"arr_delete.sol\":114:116  30 */\n  0x1e\n    /* \"arr_delete.sol\":88:123  uint [] public arr=[10,20,30,40,50] */\n  0xff\n  and\n  dup2\n  mstore\n  0x20\n  add\n    /* \"arr_delete.sol\":117:119  40 */\n  0x28\n    /* \"arr_delete.sol\":88:123  uint [] public arr=[10,20,30,40,50] */\n  0xff\n  and\n  dup2\n  mstore\n  0x20\n  add\n    /* \"arr_delete.sol\":120:122  50 */\n  0x32\n    /* \"arr_delete.sol\":88:123  uint [] public arr=[10,20,30,40,50] */\n  0xff\n  and\n  dup2\n  mstore\n  pop\n  0x00\n  swap1\n  0x05\n  tag_1\n  swap3\n  swap2\n  swap1\n  tag_2\n  jump\t// in\ntag_1:\n  pop\n    /* \"arr_delete.sol\":60:446  contract Delete_array{... */\n  callvalue\n  dup1\n  iszero\n  tag_3\n  jumpi\n  0x00\n  dup1\n  revert\ntag_3:\n  pop\n  jump(tag_4)\ntag_2:\n  dup3\n  dup1\n  sload\n  dup3\n  dup3\n  sstore\n  swap1\n  0x00\n  mstore\n  keccak256(0x00, 0x20)\n  swap1\n  dup2\n  add\n  swap3\n  dup3\n  iszero\n  tag_5\n  jumpi\n  swap2\n  0x20\n  mul\n  dup3\n  add\ntag_6:\n  dup3\n  dup2\n  gt\n  iszero\n  tag_7\n  jumpi\n  dup3\n  mload\n  dup3\n  swap1\n  0xff\n  and\n  swap1\n  sstore\n  swap2\n  0x20\n  add\n  swap2\n  swap1\n  0x01\n  add\n  swap1\n  jump(tag_6)\ntag_7:\ntag_5:\n  pop\n  swap1\n  pop\n  tag_8\n  swap2\n  swap1\n  tag_9\n  jump\t// in\ntag_8:\n  pop\n  swap1\n  jump\t// out\ntag_9:\ntag_10:\n  dup1\n  dup3\n  gt\n  iszero\n  tag_11\n  jumpi\n  0x00\n  dup2\n  0x00\n  swap1\n  sstore\n  pop\n  0x01\n  add\n  jump(tag_10)\ntag_11:\n  pop\n  swap1\n  jump\t// out\ntag_4:\n  dataSize(sub_0)\n  dup1\n  dataOffset(sub_0)\n  0x00\n  codecopy\n  0x00\n  return\nstop\n\nsub_0: assembly {\n        /* \"arr_delete.sol\":60:446  contract Delete_array{... */\n      mstore(0x40, 0x80)\n      callvalue\n      dup1\n      iszero\n      tag_1\n      jumpi\n      0x00\n      dup1\n      revert\n    tag_1:\n      pop\n      jumpi(tag_2, lt(calldatasize, 0x04))\n      shr(0xe0, calldataload(0x00))\n      dup1\n      0x71e5ee5f\n      eq\n      tag_3\n      jumpi\n      dup1\n      0x82855c78\n      eq\n      tag_4\n      jumpi\n      dup1\n      0x970f17bd\n      eq\n      tag_5\n      jumpi\n    tag_2:\n      0x00\n      dup1\n      revert\n        /* \"arr_delete.sol\":88:123  uint [] public arr=[10,20,30,40,50] */\n    tag_3:\n      tag_6\n      0x04\n      dup1\n      calldatasize\n      sub\n      dup2\n      add\n      swap1\n      tag_7\n      swap2\n      swap1\n      tag_8\n      jump\t// in\n    tag_7:\n      tag_9\n      jump\t// in\n    tag_6:\n      mload(0x40)\n      tag_10\n      swap2\n      swap1\n      tag_11\n      jump\t// in\n    tag_10:\n      mload(0x40)\n      dup1\n      swap2\n      sub\n      swap1\n      return\n        /* \"arr_delete.sol\":132:354  function del_arr(uint index) public {... */\n    tag_4:\n      tag_12\n      0x04\n      dup1\n      calldatasize\n      sub\n      dup2\n      add\n      swap1\n      tag_13\n      swap2\n      swap1\n      tag_8\n      jump\t// in\n    tag_13:\n      tag_14\n      jump\t// in\n    tag_12:\n      stop\n        /* \"arr_delete.sol\":360:443  function get_arr() public view returns (uint[] memory){... */\n    tag_5:\n      tag_15\n      tag_16\n      jump\t// in\n    tag_15:\n      mload(0x40)\n      tag_17\n      swap2\n      swap1\n      tag_18\n      jump\t// in\n    tag_17:\n      mload(0x40)\n      dup1\n      swap2\n      sub\n      swap1\n      return\n        /* \"arr_delete.sol\":88:123  uint [] public arr=[10,20,30,40,50] */\n    tag_9:\n      0x00\n      dup2\n      dup2\n      sload\n      dup2\n      lt\n      tag_19\n      jumpi\n      0x00\n      dup1\n      revert\n    tag_19:\n      swap1\n      0x00\n      mstore\n      keccak256(0x00, 0x20)\n      add\n      0x00\n      swap2\n      pop\n      swap1\n      pop\n      sload\n      dup2\n      jump\t// out\n        /* \"arr_delete.sol\":132:354  function del_arr(uint index) public {... */\n    tag_14:\n        /* \"arr_delete.sol\":193:196  arr */\n      0x00\n        /* \"arr_delete.sol\":193:203  arr.length */\n      dup1\n      sload\n      swap1\n      pop\n        /* \"arr_delete.sol\":187:192  index */\n      dup2\n        /* \"arr_delete.sol\":187:203  index<arr.length */\n      lt\n        /* \"arr_delete.sol\":179:230  require(index<arr.length,\"Index are not available\") */\n      tag_22\n      jumpi\n      mload(0x40)\n      0x08c379a000000000000000000000000000000000000000000000000000000000\n      dup2\n      mstore\n      0x04\n      add\n      tag_23\n      swap1\n      tag_24\n      jump\t// in\n    tag_23:\n      mload(0x40)\n      dup1\n      swap2\n      sub\n      swap1\n      revert\n    tag_22:\n        /* \"arr_delete.sol\":246:252  uint i */\n      0x00\n        /* \"arr_delete.sol\":253:258  index */\n      dup2\n        /* \"arr_delete.sol\":246:258  uint i=index */\n      swap1\n      pop\n        /* \"arr_delete.sol\":241:327  for (uint i=index; i<arr.length-1;i++)... */\n    tag_25:\n        /* \"arr_delete.sol\":273:274  1 */\n      0x01\n        /* \"arr_delete.sol\":262:265  arr */\n      0x00\n        /* \"arr_delete.sol\":262:272  arr.length */\n      dup1\n      sload\n      swap1\n      pop\n        /* \"arr_delete.sol\":262:274  arr.length-1 */\n      tag_28\n      swap2\n      swap1\n      tag_29\n      jump\t// in\n    tag_28:\n        /* \"arr_delete.sol\":260:261  i */\n      dup2\n        /* \"arr_delete.sol\":260:274  i<arr.length-1 */\n      lt\n        /* \"arr_delete.sol\":241:327  for (uint i=index; i<arr.length-1;i++)... */\n      iszero\n      tag_26\n      jumpi\n        /* \"arr_delete.sol\":307:310  arr */\n      0x00\n        /* \"arr_delete.sol\":313:314  1 */\n      0x01\n        /* \"arr_delete.sol\":311:312  i */\n      dup3\n        /* \"arr_delete.sol\":311:314  i+1 */\n      tag_30\n      swap2\n      swap1\n      tag_31\n      jump\t// in\n    tag_30:\n        /* \"arr_delete.sol\":307:315  arr[i+1] */\n      dup2\n      sload\n      dup2\n      lt\n      tag_32\n      jumpi\n      tag_33\n      tag_34\n      jump\t// in\n    tag_33:\n    tag_32:\n      swap1\n      0x00\n      mstore\n      keccak256(0x00, 0x20)\n      add\n      sload\n        /* \"arr_delete.sol\":300:303  arr */\n      0x00\n        /* \"arr_delete.sol\":304:305  i */\n      dup3\n        /* \"arr_delete.sol\":300:306  arr[i] */\n      dup2\n      sload\n      dup2\n      lt\n      tag_36\n      jumpi\n      tag_37\n      tag_34\n      jump\t// in\n    tag_37:\n    tag_36:\n      swap1\n      0x00\n      mstore\n      keccak256(0x00, 0x20)\n      add\n        /* \"arr_delete.sol\":300:315  arr[i]=arr[i+1] */\n      dup2\n      swap1\n      sstore\n      pop\n        /* \"arr_delete.sol\":275:278  i++ */\n      dup1\n      dup1\n      tag_39\n      swap1\n      tag_40\n      jump\t// in\n    tag_39:\n      swap2\n      pop\n      pop\n        /* \"arr_delete.sol\":241:327  for (uint i=index; i<arr.length-1;i++)... */\n      jump(tag_25)\n    tag_26:\n      pop\n        /* \"arr_delete.sol\":337:340  arr */\n      0x00\n        /* \"arr_delete.sol\":337:346  arr.pop() */\n      dup1\n      sload\n      dup1\n      tag_41\n      jumpi\n      tag_42\n      tag_43\n      jump\t// in\n    tag_42:\n    tag_41:\n      0x01\n      swap1\n      sub\n      dup2\n      dup2\n      swap1\n      0x00\n      mstore\n      keccak256(0x00, 0x20)\n      add\n      0x00\n      swap1\n      sstore\n      swap1\n      sstore\n        /* \"arr_delete.sol\":132:354  function del_arr(uint index) public {... */\n      pop\n      jump\t// out\n        /* \"arr_delete.sol\":360:443  function get_arr() public view returns (uint[] memory){... */\n    tag_16:\n        /* \"arr_delete.sol\":400:413  uint[] memory */\n      0x60\n        /* \"arr_delete.sol\":432:435  arr */\n      0x00\n        /* \"arr_delete.sol\":425:435  return arr */\n      dup1\n      sload\n      dup1\n      0x20\n      mul\n      0x20\n      add\n      mload(0x40)\n      swap1\n      dup2\n      add\n      0x40\n      mstore\n      dup1\n      swap3\n      swap2\n      swap1\n      dup2\n      dup2\n      mstore\n      0x20\n      add\n      dup3\n      dup1\n      sload\n      dup1\n      iszero\n      tag_46\n      jumpi\n      0x20\n      mul\n      dup3\n      add\n      swap2\n      swap1\n      0x00\n      mstore\n      keccak256(0x00, 0x20)\n      swap1\n    tag_47:\n      dup2\n      sload\n      dup2\n      mstore\n      0x20\n      add\n      swap1\n      0x01\n      add\n      swap1\n      dup1\n      dup4\n      gt\n      tag_47\n      jumpi\n    tag_46:\n      pop\n      pop\n      pop\n      pop\n      pop\n      swap1\n      pop\n        /* \"arr_delete.sol\":360:443  function get_arr() public view returns (uint[] memory){... */\n      swap1\n      jump\t// out\n        /* \"#utility.yul\":88:205   */\n    tag_49:\n        /* \"#utility.yul\":197:198   */\n      0x00\n        /* \"#utility.yul\":194:195   */\n      dup1\n        /* \"#utility.yul\":187:199   */\n      revert\n        /* \"#utility.yul\":334:411   */\n    tag_51:\n        /* \"#utility.yul\":371:378   */\n      0x00\n        /* \"#utility.yul\":400:405   */\n      dup2\n        /* \"#utility.yul\":389:405   */\n      swap1\n      pop\n        /* \"#utility.yul\":334:411   */\n      swap2\n      swap1\n      pop\n      jump\t// out\n        /* \"#utility.yul\":417:539   */\n    tag_52:\n        /* \"#utility.yul\":490:514   */\n      tag_72\n        /* \"#utility.yul\":508:513   */\n      dup2\n        /* \"#utility.yul\":490:514   */\n      tag_51\n      jump\t// in\n    tag_72:\n        /* \"#utility.yul\":483:488   */\n      dup2\n        /* \"#utility.yul\":480:515   */\n      eq\n        /* \"#utility.yul\":470:533   */\n      tag_73\n      jumpi\n        /* \"#utility.yul\":529:530   */\n      0x00\n        /* \"#utility.yul\":526:527   */\n      dup1\n        /* \"#utility.yul\":519:531   */\n      revert\n        /* \"#utility.yul\":470:533   */\n    tag_73:\n        /* \"#utility.yul\":417:539   */\n      pop\n      jump\t// out\n        /* \"#utility.yul\":545:684   */\n    tag_53:\n        /* \"#utility.yul\":591:596   */\n      0x00\n        /* \"#utility.yul\":629:635   */\n      dup2\n        /* \"#utility.yul\":616:636   */\n      calldataload\n        /* \"#utility.yul\":607:636   */\n      swap1\n      pop\n        /* \"#utility.yul\":645:678   */\n      tag_75\n        /* \"#utility.yul\":672:677   */\n      dup2\n        /* \"#utility.yul\":645:678   */\n      tag_52\n      jump\t// in\n    tag_75:\n        /* \"#utility.yul\":545:684   */\n      swap3\n      swap2\n      pop\n      pop\n      jump\t// out\n        /* \"#utility.yul\":690:1019   */\n    tag_8:\n        /* \"#utility.yul\":749:755   */\n      0x00\n        /* \"#utility.yul\":798:800   */\n      0x20\n        /* \"#utility.yul\":786:795   */\n      dup3\n        /* \"#utility.yul\":777:784   */\n      dup5\n        /* \"#utility.yul\":773:796   */\n      sub\n        /* \"#utility.yul\":769:801   */\n      slt\n        /* \"#utility.yul\":766:885   */\n      iszero\n      tag_77\n      jumpi\n        /* \"#utility.yul\":804:883   */\n      tag_78\n      tag_49\n      jump\t// in\n    tag_78:\n        /* \"#utility.yul\":766:885   */\n    tag_77:\n        /* \"#utility.yul\":924:925   */\n      0x00\n        /* \"#utility.yul\":949:1002   */\n      tag_79\n        /* \"#utility.yul\":994:1001   */\n      dup5\n        /* \"#utility.yul\":985:991   */\n      dup3\n        /* \"#utility.yul\":974:983   */\n      dup6\n        /* \"#utility.yul\":970:992   */\n      add\n        /* \"#utility.yul\":949:1002   */\n      tag_53\n      jump\t// in\n    tag_79:\n        /* \"#utility.yul\":939:1002   */\n      swap2\n      pop\n        /* \"#utility.yul\":895:1012   */\n      pop\n        /* \"#utility.yul\":690:1019   */\n      swap3\n      swap2\n      pop\n      pop\n      jump\t// out\n        /* \"#utility.yul\":1025:1143   */\n    tag_54:\n        /* \"#utility.yul\":1112:1136   */\n      tag_81\n        /* \"#utility.yul\":1130:1135   */\n      dup2\n        /* \"#utility.yul\":1112:1136   */\n      tag_51\n      jump\t// in\n    tag_81:\n        /* \"#utility.yul\":1107:1110   */\n      dup3\n        /* \"#utility.yul\":1100:1137   */\n      mstore\n        /* \"#utility.yul\":1025:1143   */\n      pop\n      pop\n      jump\t// out\n        /* \"#utility.yul\":1149:1371   */\n    tag_11:\n        /* \"#utility.yul\":1242:1246   */\n      0x00\n        /* \"#utility.yul\":1280:1282   */\n      0x20\n        /* \"#utility.yul\":1269:1278   */\n      dup3\n        /* \"#utility.yul\":1265:1283   */\n      add\n        /* \"#utility.yul\":1257:1283   */\n      swap1\n      pop\n        /* \"#utility.yul\":1293:1364   */\n      tag_83\n        /* \"#utility.yul\":1361:1362   */\n      0x00\n        /* \"#utility.yul\":1350:1359   */\n      dup4\n        /* \"#utility.yul\":1346:1363   */\n      add\n        /* \"#utility.yul\":1337:1343   */\n      dup5\n        /* \"#utility.yul\":1293:1364   */\n      tag_54\n      jump\t// in\n    tag_83:\n        /* \"#utility.yul\":1149:1371   */\n      swap3\n      swap2\n      pop\n      pop\n      jump\t// out\n        /* \"#utility.yul\":1377:1491   */\n    tag_55:\n        /* \"#utility.yul\":1444:1450   */\n      0x00\n        /* \"#utility.yul\":1478:1483   */\n      dup2\n        /* \"#utility.yul\":1472:1484   */\n      mload\n        /* \"#utility.yul\":1462:1484   */\n      swap1\n      pop\n        /* \"#utility.yul\":1377:1491   */\n      swap2\n      swap1\n      pop\n      jump\t// out\n        /* \"#utility.yul\":1497:1681   */\n    tag_56:\n        /* \"#utility.yul\":1596:1607   */\n      0x00\n        /* \"#utility.yul\":1630:1636   */\n      dup3\n        /* \"#utility.yul\":1625:1628   */\n      dup3\n        /* \"#utility.yul\":1618:1637   */\n      mstore\n        /* \"#utility.yul\":1670:1674   */\n      0x20\n        /* \"#utility.yul\":1665:1668   */\n      dup3\n        /* \"#utility.yul\":1661:1675   */\n      add\n        /* \"#utility.yul\":1646:1675   */\n      swap1\n      pop\n        /* \"#utility.yul\":1497:1681   */\n      swap3\n      swap2\n      pop\n      pop\n      jump\t// out\n        /* \"#utility.yul\":1687:1819   */\n    tag_57:\n        /* \"#utility.yul\":1754:1758   */\n      0x00\n        /* \"#utility.yul\":1777:1780   */\n      dup2\n        /* \"#utility.yul\":1769:1780   */\n      swap1\n      pop\n        /* \"#utility.yul\":1807:1811   */\n      0x20\n        /* \"#utility.yul\":1802:1805   */\n      dup3\n        /* \"#utility.yul\":1798:1812   */\n      add\n        /* \"#utility.yul\":1790:1812   */\n      swap1\n      pop\n        /* \"#utility.yul\":1687:1819   */\n      swap2\n      swap1\n      pop\n      jump\t// out\n        /* \"#utility.yul\":1825:1933   */\n    tag_58:\n        /* \"#utility.yul\":1902:1926   */\n      tag_88\n        /* \"#utility.yul\":1920:1925   */\n      dup2\n        /* \"#utility.yul\":1902:1926   */\n      tag_51\n      jump\t// in\n    tag_88:\n        /* \"#utility.yul\":1897:1900   */\n      dup3\n        /* \"#utility.yul\":1890:1927   */\n      mstore\n        /* \"#utility.yul\":1825:1933   */\n      pop\n      pop\n      jump\t// out\n        /* \"#utility.yul\":1939:2118   */\n    tag_59:\n        /* \"#utility.yul\":2008:2018   */\n      0x00\n        /* \"#utility.yul\":2029:2075   */\n      tag_90\n        /* \"#utility.yul\":2071:2074   */\n      dup4\n        /* \"#utility.yul\":2063:2069   */\n      dup4\n        /* \"#utility.yul\":2029:2075   */\n      tag_58\n      jump\t// in\n    tag_90:\n        /* \"#utility.yul\":2107:2111   */\n      0x20\n        /* \"#utility.yul\":2102:2105   */\n      dup4\n        /* \"#utility.yul\":2098:2112   */\n      add\n        /* \"#utility.yul\":2084:2112   */\n      swap1\n      pop\n        /* \"#utility.yul\":1939:2118   */\n      swap3\n      swap2\n      pop\n      pop\n      jump\t// out\n        /* \"#utility.yul\":2124:2237   */\n    tag_60:\n        /* \"#utility.yul\":2194:2198   */\n      0x00\n        /* \"#utility.yul\":2226:2230   */\n      0x20\n        /* \"#utility.yul\":2221:2224   */\n      dup3\n        /* \"#utility.yul\":2217:2231   */\n      add\n        /* \"#utility.yul\":2209:2231   */\n      swap1\n      pop\n        /* \"#utility.yul\":2124:2237   */\n      swap2\n      swap1\n      pop\n      jump\t// out\n        /* \"#utility.yul\":2273:3005   */\n    tag_61:\n        /* \"#utility.yul\":2392:2395   */\n      0x00\n        /* \"#utility.yul\":2421:2475   */\n      tag_93\n        /* \"#utility.yul\":2469:2474   */\n      dup3\n        /* \"#utility.yul\":2421:2475   */\n      tag_55\n      jump\t// in\n    tag_93:\n        /* \"#utility.yul\":2491:2577   */\n      tag_94\n        /* \"#utility.yul\":2570:2576   */\n      dup2\n        /* \"#utility.yul\":2565:2568   */\n      dup6\n        /* \"#utility.yul\":2491:2577   */\n      tag_56\n      jump\t// in\n    tag_94:\n        /* \"#utility.yul\":2484:2577   */\n      swap4\n      pop\n        /* \"#utility.yul\":2601:2657   */\n      tag_95\n        /* \"#utility.yul\":2651:2656   */\n      dup4\n        /* \"#utility.yul\":2601:2657   */\n      tag_57\n      jump\t// in\n    tag_95:\n        /* \"#utility.yul\":2680:2687   */\n      dup1\n        /* \"#utility.yul\":2711:2712   */\n      0x00\n        /* \"#utility.yul\":2696:2980   */\n    tag_96:\n        /* \"#utility.yul\":2721:2727   */\n      dup4\n        /* \"#utility.yul\":2718:2719   */\n      dup2\n        /* \"#utility.yul\":2715:2728   */\n      lt\n        /* \"#utility.yul\":2696:2980   */\n      iszero\n      tag_98\n      jumpi\n        /* \"#utility.yul\":2797:2803   */\n      dup2\n        /* \"#utility.yul\":2791:2804   */\n      mload\n        /* \"#utility.yul\":2824:2887   */\n      tag_99\n        /* \"#utility.yul\":2883:2886   */\n      dup9\n        /* \"#utility.yul\":2868:2881   */\n      dup3\n        /* \"#utility.yul\":2824:2887   */\n      tag_59\n      jump\t// in\n    tag_99:\n        /* \"#utility.yul\":2817:2887   */\n      swap8\n      pop\n        /* \"#utility.yul\":2910:2970   */\n      tag_100\n        /* \"#utility.yul\":2963:2969   */\n      dup4\n        /* \"#utility.yul\":2910:2970   */\n      tag_60\n      jump\t// in\n    tag_100:\n        /* \"#utility.yul\":2900:2970   */\n      swap3\n      pop\n        /* \"#utility.yul\":2756:2980   */\n      pop\n        /* \"#utility.yul\":2743:2744   */\n      0x01\n        /* \"#utility.yul\":2740:2741   */\n      dup2\n        /* \"#utility.yul\":2736:2745   */\n      add\n        /* \"#utility.yul\":2731:2745   */\n      swap1\n      pop\n        /* \"#utility.yul\":2696:2980   */\n      jump(tag_96)\n    tag_98:\n        /* \"#utility.yul\":2700:2714   */\n      pop\n        /* \"#utility.yul\":2996:2999   */\n      dup6\n        /* \"#utility.yul\":2989:2999   */\n      swap4\n      pop\n        /* \"#utility.yul\":2397:3005   */\n      pop\n      pop\n      pop\n        /* \"#utility.yul\":2273:3005   */\n      swap3\n      swap2\n      pop\n      pop\n      jump\t// out\n        /* \"#utility.yul\":3011:3384   */\n    tag_18:\n        /* \"#utility.yul\":3154:3158   */\n      0x00\n        /* \"#utility.yul\":3192:3194   */\n      0x20\n        /* \"#utility.yul\":3181:3190   */\n      dup3\n        /* \"#utility.yul\":3177:3195   */\n      add\n        /* \"#utility.yul\":3169:3195   */\n      swap1\n      pop\n        /* \"#utility.yul\":3241:3250   */\n      dup2\n        /* \"#utility.yul\":3235:3239   */\n      dup2\n        /* \"#utility.yul\":3231:3251   */\n      sub\n        /* \"#utility.yul\":3227:3228   */\n      0x00\n        /* \"#utility.yul\":3216:3225   */\n      dup4\n        /* \"#utility.yul\":3212:3229   */\n      add\n        /* \"#utility.yul\":3205:3252   */\n      mstore\n        /* \"#utility.yul\":3269:3377   */\n      tag_102\n        /* \"#utility.yul\":3372:3376   */\n      dup2\n        /* \"#utility.yul\":3363:3369   */\n      dup5\n        /* \"#utility.yul\":3269:3377   */\n      tag_61\n      jump\t// in\n    tag_102:\n        /* \"#utility.yul\":3261:3377   */\n      swap1\n      pop\n        /* \"#utility.yul\":3011:3384   */\n      swap3\n      swap2\n      pop\n      pop\n      jump\t// out\n        /* \"#utility.yul\":3390:3559   */\n    tag_62:\n        /* \"#utility.yul\":3474:3485   */\n      0x00\n        /* \"#utility.yul\":3508:3514   */\n      dup3\n        /* \"#utility.yul\":3503:3506   */\n      dup3\n        /* \"#utility.yul\":3496:3515   */\n      mstore\n        /* \"#utility.yul\":3548:3552   */\n      0x20\n        /* \"#utility.yul\":3543:3546   */\n      dup3\n        /* \"#utility.yul\":3539:3553   */\n      add\n        /* \"#utility.yul\":3524:3553   */\n      swap1\n      pop\n        /* \"#utility.yul\":3390:3559   */\n      swap3\n      swap2\n      pop\n      pop\n      jump\t// out\n        /* \"#utility.yul\":3565:3738   */\n    tag_63:\n        /* \"#utility.yul\":3705:3730   */\n      0x496e64657820617265206e6f7420617661696c61626c65000000000000000000\n        /* \"#utility.yul\":3701:3702   */\n      0x00\n        /* \"#utility.yul\":3693:3699   */\n      dup3\n        /* \"#utility.yul\":3689:3703   */\n      add\n        /* \"#utility.yul\":3682:3731   */\n      mstore\n        /* \"#utility.yul\":3565:3738   */\n      pop\n      jump\t// out\n        /* \"#utility.yul\":3744:4110   */\n    tag_64:\n        /* \"#utility.yul\":3886:3889   */\n      0x00\n        /* \"#utility.yul\":3907:3974   */\n      tag_106\n        /* \"#utility.yul\":3971:3973   */\n      0x17\n        /* \"#utility.yul\":3966:3969   */\n      dup4\n        /* \"#utility.yul\":3907:3974   */\n      tag_62\n      jump\t// in\n    tag_106:\n        /* \"#utility.yul\":3900:3974   */\n      swap2\n      pop\n        /* \"#utility.yul\":3983:4076   */\n      tag_107\n        /* \"#utility.yul\":4072:4075   */\n      dup3\n        /* \"#utility.yul\":3983:4076   */\n      tag_63\n      jump\t// in\n    tag_107:\n        /* \"#utility.yul\":4101:4103   */\n      0x20\n        /* \"#utility.yul\":4096:4099   */\n      dup3\n        /* \"#utility.yul\":4092:4104   */\n      add\n        /* \"#utility.yul\":4085:4104   */\n      swap1\n      pop\n        /* \"#utility.yul\":3744:4110   */\n      swap2\n      swap1\n      pop\n      jump\t// out\n        /* \"#utility.yul\":4116:4535   */\n    tag_24:\n        /* \"#utility.yul\":4282:4286   */\n      0x00\n        /* \"#utility.yul\":4320:4322   */\n      0x20\n        /* \"#utility.yul\":4309:4318   */\n      dup3\n        /* \"#utility.yul\":4305:4323   */\n      add\n        /* \"#utility.yul\":4297:4323   */\n      swap1\n      pop\n        /* \"#utility.yul\":4369:4378   */\n      dup2\n        /* \"#utility.yul\":4363:4367   */\n      dup2\n        /* \"#utility.yul\":4359:4379   */\n      sub\n        /* \"#utility.yul\":4355:4356   */\n      0x00\n        /* \"#utility.yul\":4344:4353   */\n      dup4\n        /* \"#utility.yul\":4340:4357   */\n      add\n        /* \"#utility.yul\":4333:4380   */\n      mstore\n        /* \"#utility.yul\":4397:4528   */\n      tag_109\n        /* \"#utility.yul\":4523:4527   */\n      dup2\n        /* \"#utility.yul\":4397:4528   */\n      tag_64\n      jump\t// in\n    tag_109:\n        /* \"#utility.yul\":4389:4528   */\n      swap1\n      pop\n        /* \"#utility.yul\":4116:4535   */\n      swap2\n      swap1\n      pop\n      jump\t// out\n        /* \"#utility.yul\":4541:4721   */\n    tag_65:\n        /* \"#utility.yul\":4589:4666   */\n      0x4e487b7100000000000000000000000000000000000000000000000000000000\n        /* \"#utility.yul\":4586:4587   */\n      0x00\n        /* \"#utility.yul\":4579:4667   */\n      mstore\n        /* \"#utility.yul\":4686:4690   */\n      0x11\n        /* \"#utility.yul\":4683:4684   */\n      0x04\n        /* \"#utility.yul\":4676:4691   */\n      mstore\n        /* \"#utility.yul\":4710:4714   */\n      0x24\n        /* \"#utility.yul\":4707:4708   */\n      0x00\n        /* \"#utility.yul\":4700:4715   */\n      revert\n        /* \"#utility.yul\":4727:4921   */\n    tag_29:\n        /* \"#utility.yul\":4767:4771   */\n      0x00\n        /* \"#utility.yul\":4787:4807   */\n      tag_112\n        /* \"#utility.yul\":4805:4806   */\n      dup3\n        /* \"#utility.yul\":4787:4807   */\n      tag_51\n      jump\t// in\n    tag_112:\n        /* \"#utility.yul\":4782:4807   */\n      swap2\n      pop\n        /* \"#utility.yul\":4821:4841   */\n      tag_113\n        /* \"#utility.yul\":4839:4840   */\n      dup4\n        /* \"#utility.yul\":4821:4841   */\n      tag_51\n      jump\t// in\n    tag_113:\n        /* \"#utility.yul\":4816:4841   */\n      swap3\n      pop\n        /* \"#utility.yul\":4865:4866   */\n      dup3\n        /* \"#utility.yul\":4862:4863   */\n      dup3\n        /* \"#utility.yul\":4858:4867   */\n      sub\n        /* \"#utility.yul\":4850:4867   */\n      swap1\n      pop\n        /* \"#utility.yul\":4889:4890   */\n      dup2\n        /* \"#utility.yul\":4883:4887   */\n      dup2\n        /* \"#utility.yul\":4880:4891   */\n      gt\n        /* \"#utility.yul\":4877:4914   */\n      iszero\n      tag_114\n      jumpi\n        /* \"#utility.yul\":4894:4912   */\n      tag_115\n      tag_65\n      jump\t// in\n    tag_115:\n        /* \"#utility.yul\":4877:4914   */\n    tag_114:\n        /* \"#utility.yul\":4727:4921   */\n      swap3\n      swap2\n      pop\n      pop\n      jump\t// out\n        /* \"#utility.yul\":4927:5118   */\n    tag_31:\n        /* \"#utility.yul\":4967:4970   */\n      0x00\n        /* \"#utility.yul\":4986:5006   */\n      tag_117\n        /* \"#utility.yul\":5004:5005   */\n      dup3\n        /* \"#utility.yul\":4986:5006   */\n      tag_51\n      jump\t// in\n    tag_117:\n        /* \"#utility.yul\":4981:5006   */\n      swap2\n      pop\n        /* \"#utility.yul\":5020:5040   */\n      tag_118\n        /* \"#utility.yul\":5038:5039   */\n      dup4\n        /* \"#utility.yul\":5020:5040   */\n      tag_51\n      jump\t// in\n    tag_118:\n        /* \"#utility.yul\":5015:5040   */\n      swap3\n      pop\n        /* \"#utility.yul\":5063:5064   */\n      dup3\n        /* \"#utility.yul\":5060:5061   */\n      dup3\n        /* \"#utility.yul\":5056:5065   */\n      add\n        /* \"#utility.yul\":5049:5065   */\n      swap1\n      pop\n        /* \"#utility.yul\":5084:5087   */\n      dup1\n        /* \"#utility.yul\":5081:5082   */\n      dup3\n        /* \"#utility.yul\":5078:5088   */\n      gt\n        /* \"#utility.yul\":5075:5111   */\n      iszero\n      tag_119\n      jumpi\n        /* \"#utility.yul\":5091:5109   */\n      tag_120\n      tag_65\n      jump\t// in\n    tag_120:\n        /* \"#utility.yul\":5075:5111   */\n    tag_119:\n        /* \"#utility.yul\":4927:5118   */\n      swap3\n      swap2\n      pop\n      pop\n      jump\t// out\n        /* \"#utility.yul\":5124:5304   */\n    tag_34:\n        /* \"#utility.yul\":5172:5249   */\n      0x4e487b7100000000000000000000000000000000000000000000000000000000\n        /* \"#utility.yul\":5169:5170   */\n      0x00\n        /* \"#utility.yul\":5162:5250   */\n      mstore\n        /* \"#utility.yul\":5269:5273   */\n      0x32\n        /* \"#utility.yul\":5266:5267   */\n      0x04\n        /* \"#utility.yul\":5259:5274   */\n      mstore\n        /* \"#utility.yul\":5293:5297   */\n      0x24\n        /* \"#utility.yul\":5290:5291   */\n      0x00\n        /* \"#utility.yul\":5283:5298   */\n      revert\n        /* \"#utility.yul\":5310:5543   */\n    tag_40:\n        /* \"#utility.yul\":5349:5352   */\n      0x00\n        /* \"#utility.yul\":5372:5396   */\n      tag_123\n        /* \"#utility.yul\":5390:5395   */\n      dup3\n        /* \"#utility.yul\":5372:5396   */\n      tag_51\n      jump\t// in\n    tag_123:\n        /* \"#utility.yul\":5363:5396   */\n      swap2\n      pop\n        /* \"#utility.yul\":5418:5484   */\n      0xffffffffffffffffffffffffffffffffffffffffffffffffffffffffffffffff\n        /* \"#utility.yul\":5411:5416   */\n      dup3\n        /* \"#utility.yul\":5408:5485   */\n      sub\n        /* \"#utility.yul\":5405:5508   */\n      tag_124\n      jumpi\n        /* \"#utility.yul\":5488:5506   */\n      tag_125\n      tag_65\n      jump\t// in\n    tag_125:\n        /* \"#utility.yul\":5405:5508   */\n    tag_124:\n        /* \"#utility.yul\":5535:5536   */\n      0x01\n        /* \"#utility.yul\":5528:5533   */\n      dup3\n        /* \"#utility.yul\":5524:5537   */\n      add\n        /* \"#utility.yul\":5517:5537   */\n      swap1\n      pop\n        /* \"#utility.yul\":5310:5543   */\n      swap2\n      swap1\n      pop\n      jump\t// out\n        /* \"#utility.yul\":5549:5729   */\n    tag_43:\n        /* \"#utility.yul\":5597:5674   */\n      0x4e487b7100000000000000000000000000000000000000000000000000000000\n        /* \"#utility.yul\":5594:5595   */\n      0x00\n        /* \"#utility.yul\":5587:5675   */\n      mstore\n        /* \"#utility.yul\":5694:5698   */\n      0x31\n        /* \"#utility.yul\":5691:5692   */\n      0x04\n        /* \"#utility.yul\":5684:5699   */\n      mstore\n        /* \"#utility.yul\":5718:5722   */\n      0x24\n        /* \"#utility.yul\":5715:5716   */\n      0x00\n        /* \"#utility.yul\":5708:5723   */\n      revert\n\n    auxdata: 0xa2646970667358221220c8c153ef06821fe2f8dac24ecd0b4cc236cc5e0bea8685408567b80e6364b34564736f6c63430008120033\n}\n",
				"bytecode": {
					"linkReferences": {},
					"object": "60806040526040518060a00160405280600a60ff168152602001601460ff168152602001601e60ff168152602001602860ff168152602001603260ff16815250600090600561004f929190610062565b5034801561005c57600080fd5b506100d1565b8280548282559060005260206000209081019282156100a3579160200282015b828111156100a2578251829060ff16905591602001919060010190610082565b5b5090506100b091906100b4565b5090565b5b808211156100cd5760008160009055506001016100b5565b5090565b610580806100e06000396000f3fe608060405234801561001057600080fd5b50600436106100415760003560e01c806371e5ee5f1461004657806382855c7814610076578063970f17bd14610092575b600080fd5b610060600480360381019061005b9190610259565b6100b0565b60405161006d9190610295565b60405180910390f35b610090600480360381019061008b9190610259565b6100d4565b005b61009a6101c6565b6040516100a7919061036e565b60405180910390f35b600081815481106100c057600080fd5b906000526020600020016000915090505481565b600080549050811061011b576040517f08c379a0000000000000000000000000000000000000000000000000000000008152600401610112906103ed565b60405180910390fd5b60008190505b6001600080549050610133919061043c565b81101561019a5760006001826101499190610470565b8154811061015a576101596104a4565b5b906000526020600020015460008281548110610179576101786104a4565b5b90600052602060002001819055508080610192906104d3565b915050610121565b5060008054806101ad576101ac61051b565b5b6001900381819060005260206000200160009055905550565b6060600080548060200260200160405190810160405280929190818152602001828054801561021457602002820191906000526020600020905b815481526020019060010190808311610200575b5050505050905090565b600080fd5b6000819050919050565b61023681610223565b811461024157600080fd5b50565b6000813590506102538161022d565b92915050565b60006020828403121561026f5761026e61021e565b5b600061027d84828501610244565b91505092915050565b61028f81610223565b82525050565b60006020820190506102aa6000830184610286565b92915050565b600081519050919050565b600082825260208201905092915050565b6000819050602082019050919050565b6102e581610223565b82525050565b60006102f783836102dc565b60208301905092915050565b6000602082019050919050565b600061031b826102b0565b61032581856102bb565b9350610330836102cc565b8060005b8381101561036157815161034888826102eb565b975061035383610303565b925050600181019050610334565b5085935050505092915050565b600060208201905081810360008301526103888184610310565b905092915050565b600082825260208201905092915050565b7f496e64657820617265206e6f7420617661696c61626c65000000000000000000600082015250565b60006103d7601783610390565b91506103e2826103a1565b602082019050919050565b60006020820190508181036000830152610406816103ca565b9050919050565b7f4e487b7100000000000000000000000000000000000000000000000000000000600052601160045260246000fd5b600061044782610223565b915061045283610223565b925082820390508181111561046a5761046961040d565b5b92915050565b600061047b82610223565b915061048683610223565b925082820190508082111561049e5761049d61040d565b5b92915050565b7f4e487b7100000000000000000000000000000000000000000000000000000000600052603260045260246000fd5b60006104de82610223565b91507fffffffffffffffffffffffffffffffffffffffffffffffffffffffffffffffff82036105105761050f61040d565b5b600182019050919050565b7f4e487b7100000000000000000000000000000000000000000000000000000000600052603160045260246000fdfea2646970667358221220c8c153ef06821fe2f8dac24ecd0b4cc236cc5e0bea8685408567b80e6364b34564736f6c63430008120033",
					"opcodes": "PUSH1 0x80 PUSH1 0x40 MSTORE PUSH1 0x40 MLOAD DUP1 PUSH1 0xA0 ADD PUSH1 0x40 MSTORE DUP1 PUSH1 0xA PUSH1 0xFF AND DUP2 MSTORE PUSH1 0x20 ADD PUSH1 0x14 PUSH1 0xFF AND DUP2 MSTORE PUSH1 0x20 ADD PUSH1 0x1E PUSH1 0xFF AND DUP2 MSTORE PUSH1 0x20 ADD PUSH1 0x28 PUSH1 0xFF AND DUP2 MSTORE PUSH1 0x20 ADD PUSH1 0x32 PUSH1 0xFF AND DUP2 MSTORE POP PUSH1 0x0 SWAP1 PUSH1 0x5 PUSH2 0x4F SWAP3 SWAP2 SWAP1 PUSH2 0x62 JUMP JUMPDEST POP CALLVALUE DUP1 ISZERO PUSH2 0x5C JUMPI PUSH1 0x0 DUP1 REVERT JUMPDEST POP PUSH2 0xD1 JUMP JUMPDEST DUP3 DUP1 SLOAD DUP3 DUP3 SSTORE SWAP1 PUSH1 0x0 MSTORE PUSH1 0x20 PUSH1 0x0 KECCAK256 SWAP1 DUP2 ADD SWAP3 DUP3 ISZERO PUSH2 0xA3 JUMPI SWAP2 PUSH1 0x20 MUL DUP3 ADD JUMPDEST DUP3 DUP2 GT ISZERO PUSH2 0xA2 JUMPI DUP3 MLOAD DUP3 SWAP1 PUSH1 0xFF AND SWAP1 SSTORE SWAP2 PUSH1 0x20 ADD SWAP2 SWAP1 PUSH1 0x1 ADD SWAP1 PUSH2 0x82 JUMP JUMPDEST JUMPDEST POP SWAP1 POP PUSH2 0xB0 SWAP2 SWAP1 PUSH2 0xB4 JUMP JUMPDEST POP SWAP1 JUMP JUMPDEST JUMPDEST DUP1 DUP3 GT ISZERO PUSH2 0xCD JUMPI PUSH1 0x0 DUP2 PUSH1 0x0 SWAP1 SSTORE POP PUSH1 0x1 ADD PUSH2 0xB5 JUMP JUMPDEST POP SWAP1 JUMP JUMPDEST PUSH2 0x580 DUP1 PUSH2 0xE0 PUSH1 0x0 CODECOPY PUSH1 0x0 RETURN INVALID PUSH1 0x80 PUSH1 0x40 MSTORE CALLVALUE DUP1 ISZERO PUSH2 0x10 JUMPI PUSH1 0x0 DUP1 REVERT JUMPDEST POP PUSH1 0x4 CALLDATASIZE LT PUSH2 0x41 JUMPI PUSH1 0x0 CALLDATALOAD PUSH1 0xE0 SHR DUP1 PUSH4 0x71E5EE5F EQ PUSH2 0x46 JUMPI DUP1 PUSH4 0x82855C78 EQ PUSH2 0x76 JUMPI DUP1 PUSH4 0x970F17BD EQ PUSH2 0x92 JUMPI JUMPDEST PUSH1 0x0 DUP1 REVERT JUMPDEST PUSH2 0x60 PUSH1 0x4 DUP1 CALLDATASIZE SUB DUP2 ADD SWAP1 PUSH2 0x5B SWAP2 SWAP1 PUSH2 0x259 JUMP JUMPDEST PUSH2 0xB0 JUMP JUMPDEST PUSH1 0x40 MLOAD PUSH2 0x6D SWAP2 SWAP1 PUSH2 0x295 JUMP JUMPDEST PUSH1 0x40 MLOAD DUP1 SWAP2 SUB SWAP1 RETURN JUMPDEST PUSH2 0x90 PUSH1 0x4 DUP1 CALLDATASIZE SUB DUP2 ADD SWAP1 PUSH2 0x8B SWAP2 SWAP1 PUSH2 0x259 JUMP JUMPDEST PUSH2 0xD4 JUMP JUMPDEST STOP JUMPDEST PUSH2 0x9A PUSH2 0x1C6 JUMP JUMPDEST PUSH1 0x40 MLOAD PUSH2 0xA7 SWAP2 SWAP1 PUSH2 0x36E JUMP JUMPDEST PUSH1 0x40 MLOAD DUP1 SWAP2 SUB SWAP1 RETURN JUMPDEST PUSH1 0x0 DUP2 DUP2 SLOAD DUP2 LT PUSH2 0xC0 JUMPI PUSH1 0x0 DUP1 REVERT JUMPDEST SWAP1 PUSH1 0x0 MSTORE PUSH1 0x20 PUSH1 0x0 KECCAK256 ADD PUSH1 0x0 SWAP2 POP SWAP1 POP SLOAD DUP2 JUMP JUMPDEST PUSH1 0x0 DUP1 SLOAD SWAP1 POP DUP2 LT PUSH2 0x11B JUMPI PUSH1 0x40 MLOAD PUSH32 0x8C379A000000000000000000000000000000000000000000000000000000000 DUP2 MSTORE PUSH1 0x4 ADD PUSH2 0x112 SWAP1 PUSH2 0x3ED JUMP JUMPDEST PUSH1 0x40 MLOAD DUP1 SWAP2 SUB SWAP1 REVERT JUMPDEST PUSH1 0x0 DUP2 SWAP1 POP JUMPDEST PUSH1 0x1 PUSH1 0x0 DUP1 SLOAD SWAP1 POP PUSH2 0x133 SWAP2 SWAP1 PUSH2 0x43C JUMP JUMPDEST DUP2 LT ISZERO PUSH2 0x19A JUMPI PUSH1 0x0 PUSH1 0x1 DUP3 PUSH2 0x149 SWAP2 SWAP1 PUSH2 0x470 JUMP JUMPDEST DUP2 SLOAD DUP2 LT PUSH2 0x15A JUMPI PUSH2 0x159 PUSH2 0x4A4 JUMP JUMPDEST JUMPDEST SWAP1 PUSH1 0x0 MSTORE PUSH1 0x20 PUSH1 0x0 KECCAK256 ADD SLOAD PUSH1 0x0 DUP3 DUP2 SLOAD DUP2 LT PUSH2 0x179 JUMPI PUSH2 0x178 PUSH2 0x4A4 JUMP JUMPDEST JUMPDEST SWAP1 PUSH1 0x0 MSTORE PUSH1 0x20 PUSH1 0x0 KECCAK256 ADD DUP2 SWAP1 SSTORE POP DUP1 DUP1 PUSH2 0x192 SWAP1 PUSH2 0x4D3 JUMP JUMPDEST SWAP2 POP POP PUSH2 0x121 JUMP JUMPDEST POP PUSH1 0x0 DUP1 SLOAD DUP1 PUSH2 0x1AD JUMPI PUSH2 0x1AC PUSH2 0x51B JUMP JUMPDEST JUMPDEST PUSH1 0x1 SWAP1 SUB DUP2 DUP2 SWAP1 PUSH1 0x0 MSTORE PUSH1 0x20 PUSH1 0x0 KECCAK256 ADD PUSH1 0x0 SWAP1 SSTORE SWAP1 SSTORE POP JUMP JUMPDEST PUSH1 0x60 PUSH1 0x0 DUP1 SLOAD DUP1 PUSH1 0x20 MUL PUSH1 0x20 ADD PUSH1 0x40 MLOAD SWAP1 DUP2 ADD PUSH1 0x40 MSTORE DUP1 SWAP3 SWAP2 SWAP1 DUP2 DUP2 MSTORE PUSH1 0x20 ADD DUP3 DUP1 SLOAD DUP1 ISZERO PUSH2 0x214 JUMPI PUSH1 0x20 MUL DUP3 ADD SWAP2 SWAP1 PUSH1 0x0 MSTORE PUSH1 0x20 PUSH1 0x0 KECCAK256 SWAP1 JUMPDEST DUP2 SLOAD DUP2 MSTORE PUSH1 0x20 ADD SWAP1 PUSH1 0x1 ADD SWAP1 DUP1 DUP4 GT PUSH2 0x200 JUMPI JUMPDEST POP POP POP POP POP SWAP1 POP SWAP1 JUMP JUMPDEST PUSH1 0x0 DUP1 REVERT JUMPDEST PUSH1 0x0 DUP2 SWAP1 POP SWAP2 SWAP1 POP JUMP JUMPDEST PUSH2 0x236 DUP2 PUSH2 0x223 JUMP JUMPDEST DUP2 EQ PUSH2 0x241 JUMPI PUSH1 0x0 DUP1 REVERT JUMPDEST POP JUMP JUMPDEST PUSH1 0x0 DUP2 CALLDATALOAD SWAP1 POP PUSH2 0x253 DUP2 PUSH2 0x22D JUMP JUMPDEST SWAP3 SWAP2 POP POP JUMP JUMPDEST PUSH1 0x0 PUSH1 0x20 DUP3 DUP5 SUB SLT ISZERO PUSH2 0x26F JUMPI PUSH2 0x26E PUSH2 0x21E JUMP JUMPDEST JUMPDEST PUSH1 0x0 PUSH2 0x27D DUP5 DUP3 DUP6 ADD PUSH2 0x244 JUMP JUMPDEST SWAP2 POP POP SWAP3 SWAP2 POP POP JUMP JUMPDEST PUSH2 0x28F DUP2 PUSH2 0x223 JUMP JUMPDEST DUP3 MSTORE POP POP JUMP JUMPDEST PUSH1 0x0 PUSH1 0x20 DUP3 ADD SWAP1 POP PUSH2 0x2AA PUSH1 0x0 DUP4 ADD DUP5 PUSH2 0x286 JUMP JUMPDEST SWAP3 SWAP2 POP POP JUMP JUMPDEST PUSH1 0x0 DUP2 MLOAD SWAP1 POP SWAP2 SWAP1 POP JUMP JUMPDEST PUSH1 0x0 DUP3 DUP3 MSTORE PUSH1 0x20 DUP3 ADD SWAP1 POP SWAP3 SWAP2 POP POP JUMP JUMPDEST PUSH1 0x0 DUP2 SWAP1 POP PUSH1 0x20 DUP3 ADD SWAP1 POP SWAP2 SWAP1 POP JUMP JUMPDEST PUSH2 0x2E5 DUP2 PUSH2 0x223 JUMP JUMPDEST DUP3 MSTORE POP POP JUMP JUMPDEST PUSH1 0x0 PUSH2 0x2F7 DUP4 DUP4 PUSH2 0x2DC JUMP JUMPDEST PUSH1 0x20 DUP4 ADD SWAP1 POP SWAP3 SWAP2 POP POP JUMP JUMPDEST PUSH1 0x0 PUSH1 0x20 DUP3 ADD SWAP1 POP SWAP2 SWAP1 POP JUMP JUMPDEST PUSH1 0x0 PUSH2 0x31B DUP3 PUSH2 0x2B0 JUMP JUMPDEST PUSH2 0x325 DUP2 DUP6 PUSH2 0x2BB JUMP JUMPDEST SWAP4 POP PUSH2 0x330 DUP4 PUSH2 0x2CC JUMP JUMPDEST DUP1 PUSH1 0x0 JUMPDEST DUP4 DUP2 LT ISZERO PUSH2 0x361 JUMPI DUP2 MLOAD PUSH2 0x348 DUP9 DUP3 PUSH2 0x2EB JUMP JUMPDEST SWAP8 POP PUSH2 0x353 DUP4 PUSH2 0x303 JUMP JUMPDEST SWAP3 POP POP PUSH1 0x1 DUP2 ADD SWAP1 POP PUSH2 0x334 JUMP JUMPDEST POP DUP6 SWAP4 POP POP POP POP SWAP3 SWAP2 POP POP JUMP JUMPDEST PUSH1 0x0 PUSH1 0x20 DUP3 ADD SWAP1 POP DUP2 DUP2 SUB PUSH1 0x0 DUP4 ADD MSTORE PUSH2 0x388 DUP2 DUP5 PUSH2 0x310 JUMP JUMPDEST SWAP1 POP SWAP3 SWAP2 POP POP JUMP JUMPDEST PUSH1 0x0 DUP3 DUP3 MSTORE PUSH1 0x20 DUP3 ADD SWAP1 POP SWAP3 SWAP2 POP POP JUMP JUMPDEST PUSH32 0x496E64657820617265206E6F7420617661696C61626C65000000000000000000 PUSH1 0x0 DUP3 ADD MSTORE POP JUMP JUMPDEST PUSH1 0x0 PUSH2 0x3D7 PUSH1 0x17 DUP4 PUSH2 0x390 JUMP JUMPDEST SWAP2 POP PUSH2 0x3E2 DUP3 PUSH2 0x3A1 JUMP JUMPDEST PUSH1 0x20 DUP3 ADD SWAP1 POP SWAP2 SWAP1 POP JUMP JUMPDEST PUSH1 0x0 PUSH1 0x20 DUP3 ADD SWAP1 POP DUP2 DUP2 SUB PUSH1 0x0 DUP4 ADD MSTORE PUSH2 0x406 DUP2 PUSH2 0x3CA JUMP JUMPDEST SWAP1 POP SWAP2 SWAP1 POP JUMP JUMPDEST PUSH32 0x4E487B7100000000000000000000000000000000000000000000000000000000 PUSH1 0x0 MSTORE PUSH1 0x11 PUSH1 0x4 MSTORE PUSH1 0x24 PUSH1 0x0 REVERT JUMPDEST PUSH1 0x0 PUSH2 0x447 DUP3 PUSH2 0x223 JUMP JUMPDEST SWAP2 POP PUSH2 0x452 DUP4 PUSH2 0x223 JUMP JUMPDEST SWAP3 POP DUP3 DUP3 SUB SWAP1 POP DUP2 DUP2 GT ISZERO PUSH2 0x46A JUMPI PUSH2 0x469 PUSH2 0x40D JUMP JUMPDEST JUMPDEST SWAP3 SWAP2 POP POP JUMP JUMPDEST PUSH1 0x0 PUSH2 0x47B DUP3 PUSH2 0x223 JUMP JUMPDEST SWAP2 POP PUSH2 0x486 DUP4 PUSH2 0x223 JUMP JUMPDEST SWAP3 POP DUP3 DUP3 ADD SWAP1 POP DUP1 DUP3 GT ISZERO PUSH2 0x49E JUMPI PUSH2 0x49D PUSH2 0x40D JUMP JUMPDEST JUMPDEST SWAP3 SWAP2 POP POP JUMP JUMPDEST PUSH32 0x4E487B7100000000000000000000000000000000000000000000000000000000 PUSH1 0x0 MSTORE PUSH1 0x32 PUSH1 0x4 MSTORE PUSH1 0x24 PUSH1 0x0 REVERT JUMPDEST PUSH1 0x0 PUSH2 0x4DE DUP3 PUSH2 0x223 JUMP JUMPDEST SWAP2 POP PUSH32 0xFFFFFFFFFFFFFFFFFFFFFFFFFFFFFFFFFFFFFFFFFFFFFFFFFFFFFFFFFFFFFFFF DUP3 SUB PUSH2 0x510 JUMPI PUSH2 0x50F PUSH2 0x40D JUMP JUMPDEST JUMPDEST PUSH1 0x1 DUP3 ADD SWAP1 POP SWAP2 SWAP1 POP JUMP JUMPDEST PUSH32 0x4E487B7100000000000000000000000000000000000000000000000000000000 PUSH1 0x0 MSTORE PUSH1 0x31 PUSH1 0x4 MSTORE PUSH1 0x24 PUSH1 0x0 REVERT INVALID LOG2 PUSH5 0x6970667358 0x22 SLT KECCAK256 0xC8 0xC1 MSTORE8 0xEF MOD DUP3 0x1F 0xE2 0xF8 0xDA 0xC2 0x4E 0xCD SIGNEXTEND 0x4C 0xC2 CALLDATASIZE 0xCC 0x5E SIGNEXTEND 0xEA DUP7 DUP6 BLOCKHASH DUP6 PUSH8 0xB80E6364B3456473 PUSH16 0x6C634300081200330000000000000000 "
				},
				"gasEstimates": {
					"creation": {
						"codeDepositCost": "281600",
						"executionCost": "infinite",
						"totalCost": "infinite"
					},
					"external": {
						"arr(uint256)": "infinite",
						"del_arr(uint256)": "infinite",
						"get_arr()": "infinite"
					}
				},
				"methodIdentifiers": {
					"arr(uint256)": "71e5ee5f",
					"del_arr(uint256)": "82855c78",
					"get_arr()": "970f17bd"
				}
			},
			"storageLayout": {
				"storage": [
					{
						"astId": 10,
						"contract": "arr_delete.sol:Delete_array",
						"label": "arr",
						"offset": 0,
						"slot": "0",
						"type": "t_array(t_uint256)dyn_storage"
					}
				],
				"types": {
					"t_array(t_uint256)dyn_storage": {
						"base": "t_uint256",
						"encoding": "dynamic_array",
						"label": "uint256[]",
						"numberOfBytes": "32"
					},
					"t_uint256": {
						"encoding": "inplace",
						"label": "uint256",
						"numberOfBytes": "32"
					}
				}
			},
			"userdoc": {
				"kind": "user",
				"methods": {},
				"version": 1
			}
		}
	}
}