{
	"userlist.sol": {
		"UserArray": {
			"abi": [
				{
					"inputs": [
						{
							"internalType": "string",
							"name": "_name",
							"type": "string"
						},
						{
							"internalType": "string",
							"name": "_email",
							"type": "string"
						}
					],
					"name": "addUser",
					"outputs": [],
					"stateMutability": "nonpayable",
					"type": "function"
				},
				{
					"inputs": [
						{
							"internalType": "uint256",
							"name": "",
							"type": "uint256"
						}
					],
					"name": "emails",
					"outputs": [
						{
							"internalType": "string",
							"name": "",
							"type": "string"
						}
					],
					"stateMutability": "view",
					"type": "function"
				},
				{
					"inputs": [
						{
							"internalType": "uint256",
							"name": "_index",
							"type": "uint256"
						}
					],
					"name": "getUser",
					"outputs": [
						{
							"internalType": "string",
							"name": "",
							"type": "string"
						},
						{
							"internalType": "string",
							"name": "",
							"type": "string"
						}
					],
					"stateMutability": "view",
					"type": "function"
				},
				{
					"inputs": [
						{
							"internalType": "uint256",
							"name": "",
							"type": "uint256"
						}
					],
					"name": "names",
					"outputs": [
						{
							"internalType": "string",
							"name": "",
							"type": "string"
						}
					],
					"stateMutability": "view",
					"type": "function"
				}
			],
			"devdoc": {
				"kind": "dev",
				"methods": {},
				"version": 1
			},
			"evm": {
				"assembly": "    /* \"userlist.sol\":60:422  contract UserArray{... */\n  mstore(0x40, 0x80)\n  callvalue\n  dup1\n  iszero\n  tag_1\n  jumpi\n  revert(0x00, 0x00)\ntag_1:\n  pop\n  dataSize(sub_0)\n  dup1\n  dataOffset(sub_0)\n  0x00\n  codecopy\n  0x00\n  return\nstop\n\nsub_0: assembly {\n        /* \"userlist.sol\":60:422  contract UserArray{... */\n      mstore(0x40, 0x80)\n      callvalue\n      dup1\n      iszero\n      tag_1\n      jumpi\n      revert(0x00, 0x00)\n    tag_1:\n      pop\n      jumpi(tag_2, lt(calldatasize, 0x04))\n      shr(0xe0, calldataload(0x00))\n      dup1\n      0x079eaf34\n      eq\n      tag_3\n      jumpi\n      dup1\n      0x4622ab03\n      eq\n      tag_4\n      jumpi\n      dup1\n      0x695a7d49\n      eq\n      tag_5\n      jumpi\n      dup1\n      0xb0467deb\n      eq\n      tag_6\n      jumpi\n    tag_2:\n      revert(0x00, 0x00)\n        /* \"userlist.sol\":144:277  function addUser(string memory _name, string memory _email) public {... */\n    tag_3:\n      tag_7\n      0x04\n      dup1\n      calldatasize\n      sub\n      dup2\n      add\n      swap1\n      tag_8\n      swap2\n      swap1\n      tag_9\n      jump\t// in\n    tag_8:\n      tag_10\n      jump\t// in\n    tag_7:\n      stop\n        /* \"userlist.sol\":85:106  string[] public names */\n    tag_4:\n      tag_11\n      0x04\n      dup1\n      calldatasize\n      sub\n      dup2\n      add\n      swap1\n      tag_12\n      swap2\n      swap1\n      tag_13\n      jump\t// in\n    tag_12:\n      tag_14\n      jump\t// in\n    tag_11:\n      mload(0x40)\n      tag_15\n      swap2\n      swap1\n      tag_16\n      jump\t// in\n    tag_15:\n      mload(0x40)\n      dup1\n      swap2\n      sub\n      swap1\n      return\n        /* \"userlist.sol\":113:135  string[] public emails */\n    tag_5:\n      tag_17\n      0x04\n      dup1\n      calldatasize\n      sub\n      dup2\n      add\n      swap1\n      tag_18\n      swap2\n      swap1\n      tag_13\n      jump\t// in\n    tag_18:\n      tag_19\n      jump\t// in\n    tag_17:\n      mload(0x40)\n      tag_20\n      swap2\n      swap1\n      tag_16\n      jump\t// in\n    tag_20:\n      mload(0x40)\n      dup1\n      swap2\n      sub\n      swap1\n      return\n        /* \"userlist.sol\":283:419  function getUser(uint _index) public view returns (string memory, string memory){... */\n    tag_6:\n      tag_21\n      0x04\n      dup1\n      calldatasize\n      sub\n      dup2\n      add\n      swap1\n      tag_22\n      swap2\n      swap1\n      tag_13\n      jump\t// in\n    tag_22:\n      tag_23\n      jump\t// in\n    tag_21:\n      mload(0x40)\n      tag_24\n      swap3\n      swap2\n      swap1\n      tag_25\n      jump\t// in\n    tag_24:\n      mload(0x40)\n      dup1\n      swap2\n      sub\n      swap1\n      return\n        /* \"userlist.sol\":144:277  function addUser(string memory _name, string memory _email) public {... */\n    tag_10:\n        /* \"userlist.sol\":222:227  names */\n      0x00\n        /* \"userlist.sol\":233:238  _name */\n      dup3\n        /* \"userlist.sol\":222:239  names.push(_name) */\n      swap1\n      dup1\n      0x01\n      dup2\n      sload\n      add\n      dup1\n      dup3\n      sstore\n      dup1\n      swap2\n      pop\n      pop\n      0x01\n      swap1\n      sub\n      swap1\n      0x00\n      mstore\n      keccak256(0x00, 0x20)\n      add\n      0x00\n      swap1\n      swap2\n      swap1\n      swap2\n      swap1\n      swap2\n      pop\n      swap1\n      dup2\n      tag_28\n      swap2\n      swap1\n      tag_29\n      jump\t// in\n    tag_28:\n      pop\n        /* \"userlist.sol\":250:256  emails */\n      0x01\n        /* \"userlist.sol\":262:268  _email */\n      dup2\n        /* \"userlist.sol\":250:269  emails.push(_email) */\n      swap1\n      dup1\n      0x01\n      dup2\n      sload\n      add\n      dup1\n      dup3\n      sstore\n      dup1\n      swap2\n      pop\n      pop\n      0x01\n      swap1\n      sub\n      swap1\n      0x00\n      mstore\n      keccak256(0x00, 0x20)\n      add\n      0x00\n      swap1\n      swap2\n      swap1\n      swap2\n      swap1\n      swap2\n      pop\n      swap1\n      dup2\n      tag_31\n      swap2\n      swap1\n      tag_29\n      jump\t// in\n    tag_31:\n      pop\n        /* \"userlist.sol\":144:277  function addUser(string memory _name, string memory _email) public {... */\n      pop\n      pop\n      jump\t// out\n        /* \"userlist.sol\":85:106  string[] public names */\n    tag_14:\n      0x00\n      dup2\n      dup2\n      sload\n      dup2\n      lt\n      tag_32\n      jumpi\n      0x00\n      dup1\n      revert\n    tag_32:\n      swap1\n      0x00\n      mstore\n      keccak256(0x00, 0x20)\n      add\n      0x00\n      swap2\n      pop\n      swap1\n      pop\n      dup1\n      sload\n      tag_34\n      swap1\n      tag_35\n      jump\t// in\n    tag_34:\n      dup1\n      0x1f\n      add\n      0x20\n      dup1\n      swap2\n      div\n      mul\n      0x20\n      add\n      mload(0x40)\n      swap1\n      dup2\n      add\n      0x40\n      mstore\n      dup1\n      swap3\n      swap2\n      swap1\n      dup2\n      dup2\n      mstore\n      0x20\n      add\n      dup3\n      dup1\n      sload\n      tag_36\n      swap1\n      tag_35\n      jump\t// in\n    tag_36:\n      dup1\n      iszero\n      tag_37\n      jumpi\n      dup1\n      0x1f\n      lt\n      tag_38\n      jumpi\n      0x0100\n      dup1\n      dup4\n      sload\n      div\n      mul\n      dup4\n      mstore\n      swap2\n      0x20\n      add\n      swap2\n      jump(tag_37)\n    tag_38:\n      dup3\n      add\n      swap2\n      swap1\n      0x00\n      mstore\n      keccak256(0x00, 0x20)\n      swap1\n    tag_39:\n      dup2\n      sload\n      dup2\n      mstore\n      swap1\n      0x01\n      add\n      swap1\n      0x20\n      add\n      dup1\n      dup4\n      gt\n      tag_39\n      jumpi\n      dup3\n      swap1\n      sub\n      0x1f\n      and\n      dup3\n      add\n      swap2\n    tag_37:\n      pop\n      pop\n      pop\n      pop\n      pop\n      dup2\n      jump\t// out\n        /* \"userlist.sol\":113:135  string[] public emails */\n    tag_19:\n      0x01\n      dup2\n      dup2\n      sload\n      dup2\n      lt\n      tag_40\n      jumpi\n      0x00\n      dup1\n      revert\n    tag_40:\n      swap1\n      0x00\n      mstore\n      keccak256(0x00, 0x20)\n      add\n      0x00\n      swap2\n      pop\n      swap1\n      pop\n      dup1\n      sload\n      tag_42\n      swap1\n      tag_35\n      jump\t// in\n    tag_42:\n      dup1\n      0x1f\n      add\n      0x20\n      dup1\n      swap2\n      div\n      mul\n      0x20\n      add\n      mload(0x40)\n      swap1\n      dup2\n      add\n      0x40\n      mstore\n      dup1\n      swap3\n      swap2\n      swap1\n      dup2\n      dup2\n      mstore\n      0x20\n      add\n      dup3\n      dup1\n      sload\n      tag_43\n      swap1\n      tag_35\n      jump\t// in\n    tag_43:\n      dup1\n      iszero\n      tag_44\n      jumpi\n      dup1\n      0x1f\n      lt\n      tag_45\n      jumpi\n      0x0100\n      dup1\n      dup4\n      sload\n      div\n      mul\n      dup4\n      mstore\n      swap2\n      0x20\n      add\n      swap2\n      jump(tag_44)\n    tag_45:\n      dup3\n      add\n      swap2\n      swap1\n      0x00\n      mstore\n      keccak256(0x00, 0x20)\n      swap1\n    tag_46:\n      dup2\n      sload\n      dup2\n      mstore\n      swap1\n      0x01\n      add\n      swap1\n      0x20\n      add\n      dup1\n      dup4\n      gt\n      tag_46\n      jumpi\n      dup3\n      swap1\n      sub\n      0x1f\n      and\n      dup3\n      add\n      swap2\n    tag_44:\n      pop\n      pop\n      pop\n      pop\n      pop\n      dup2\n      jump\t// out\n        /* \"userlist.sol\":283:419  function getUser(uint _index) public view returns (string memory, string memory){... */\n    tag_23:\n        /* \"userlist.sol\":334:347  string memory */\n      0x60\n        /* \"userlist.sol\":349:362  string memory */\n      dup1\n        /* \"userlist.sol\":382:387  names */\n      0x00\n        /* \"userlist.sol\":388:394  _index */\n      dup4\n        /* \"userlist.sol\":382:395  names[_index] */\n      dup2\n      sload\n      dup2\n      lt\n      tag_48\n      jumpi\n      tag_49\n      tag_50\n      jump\t// in\n    tag_49:\n    tag_48:\n      swap1\n      0x00\n      mstore\n      keccak256(0x00, 0x20)\n      add\n        /* \"userlist.sol\":396:402  emails */\n      0x01\n        /* \"userlist.sol\":403:409  _index */\n      dup5\n        /* \"userlist.sol\":396:410  emails[_index] */\n      dup2\n      sload\n      dup2\n      lt\n      tag_52\n      jumpi\n      tag_53\n      tag_50\n      jump\t// in\n    tag_53:\n    tag_52:\n      swap1\n      0x00\n      mstore\n      keccak256(0x00, 0x20)\n      add\n        /* \"userlist.sol\":374:411  return (names[_index],emails[_index]) */\n      dup2\n      dup1\n      sload\n      tag_55\n      swap1\n      tag_35\n      jump\t// in\n    tag_55:\n      dup1\n      0x1f\n      add\n      0x20\n      dup1\n      swap2\n      div\n      mul\n      0x20\n      add\n      mload(0x40)\n      swap1\n      dup2\n      add\n      0x40\n      mstore\n      dup1\n      swap3\n      swap2\n      swap1\n      dup2\n      dup2\n      mstore\n      0x20\n      add\n      dup3\n      dup1\n      sload\n      tag_56\n      swap1\n      tag_35\n      jump\t// in\n    tag_56:\n      dup1\n      iszero\n      tag_57\n      jumpi\n      dup1\n      0x1f\n      lt\n      tag_58\n      jumpi\n      0x0100\n      dup1\n      dup4\n      sload\n      div\n      mul\n      dup4\n      mstore\n      swap2\n      0x20\n      add\n      swap2\n      jump(tag_57)\n    tag_58:\n      dup3\n      add\n      swap2\n      swap1\n      0x00\n      mstore\n      keccak256(0x00, 0x20)\n      swap1\n    tag_59:\n      dup2\n      sload\n      dup2\n      mstore\n      swap1\n      0x01\n      add\n      swap1\n      0x20\n      add\n      dup1\n      dup4\n      gt\n      tag_59\n      jumpi\n      dup3\n      swap1\n      sub\n      0x1f\n      and\n      dup3\n      add\n      swap2\n    tag_57:\n      pop\n      pop\n      pop\n      pop\n      pop\n      swap2\n      pop\n      dup1\n      dup1\n      sload\n      tag_60\n      swap1\n      tag_35\n      jump\t// in\n    tag_60:\n      dup1\n      0x1f\n      add\n      0x20\n      dup1\n      swap2\n      div\n      mul\n      0x20\n      add\n      mload(0x40)\n      swap1\n      dup2\n      add\n      0x40\n      mstore\n      dup1\n      swap3\n      swap2\n      swap1\n      dup2\n      dup2\n      mstore\n      0x20\n      add\n      dup3\n      dup1\n      sload\n      tag_61\n      swap1\n      tag_35\n      jump\t// in\n    tag_61:\n      dup1\n      iszero\n      tag_62\n      jumpi\n      dup1\n      0x1f\n      lt\n      tag_63\n      jumpi\n      0x0100\n      dup1\n      dup4\n      sload\n      div\n      mul\n      dup4\n      mstore\n      swap2\n      0x20\n      add\n      swap2\n      jump(tag_62)\n    tag_63:\n      dup3\n      add\n      swap2\n      swap1\n      0x00\n      mstore\n      keccak256(0x00, 0x20)\n      swap1\n    tag_64:\n      dup2\n      sload\n      dup2\n      mstore\n      swap1\n      0x01\n      add\n      swap1\n      0x20\n      add\n      dup1\n      dup4\n      gt\n      tag_64\n      jumpi\n      dup3\n      swap1\n      sub\n      0x1f\n      and\n      dup3\n      add\n      swap2\n    tag_62:\n      pop\n      pop\n      pop\n      pop\n      pop\n      swap1\n      pop\n      swap2\n      pop\n      swap2\n      pop\n        /* \"userlist.sol\":283:419  function getUser(uint _index) public view returns (string memory, string memory){... */\n      swap2\n      pop\n      swap2\n      jump\t// out\n        /* \"#utility.yul\":7:82   */\n    tag_65:\n        /* \"#utility.yul\":40:46   */\n      0x00\n        /* \"#utility.yul\":73:75   */\n      0x40\n        /* \"#utility.yul\":67:76   */\n      mload\n        /* \"#utility.yul\":57:76   */\n      swap1\n      pop\n        /* \"#utility.yul\":7:82   */\n      swap1\n      jump\t// out\n        /* \"#utility.yul\":88:205   */\n    tag_66:\n        /* \"#utility.yul\":197:198   */\n      0x00\n        /* \"#utility.yul\":194:195   */\n      0x00\n        /* \"#utility.yul\":187:199   */\n      revert\n        /* \"#utility.yul\":211:328   */\n    tag_67:\n        /* \"#utility.yul\":320:321   */\n      0x00\n        /* \"#utility.yul\":317:318   */\n      0x00\n        /* \"#utility.yul\":310:322   */\n      revert\n        /* \"#utility.yul\":334:451   */\n    tag_68:\n        /* \"#utility.yul\":443:444   */\n      0x00\n        /* \"#utility.yul\":440:441   */\n      0x00\n        /* \"#utility.yul\":433:445   */\n      revert\n        /* \"#utility.yul\":457:574   */\n    tag_69:\n        /* \"#utility.yul\":566:567   */\n      0x00\n        /* \"#utility.yul\":563:564   */\n      0x00\n        /* \"#utility.yul\":556:568   */\n      revert\n        /* \"#utility.yul\":580:682   */\n    tag_70:\n        /* \"#utility.yul\":621:627   */\n      0x00\n        /* \"#utility.yul\":672:674   */\n      0x1f\n        /* \"#utility.yul\":668:675   */\n      not\n        /* \"#utility.yul\":663:665   */\n      0x1f\n        /* \"#utility.yul\":656:661   */\n      dup4\n        /* \"#utility.yul\":652:666   */\n      add\n        /* \"#utility.yul\":648:676   */\n      and\n        /* \"#utility.yul\":638:676   */\n      swap1\n      pop\n        /* \"#utility.yul\":580:682   */\n      swap2\n      swap1\n      pop\n      jump\t// out\n        /* \"#utility.yul\":688:868   */\n    tag_71:\n        /* \"#utility.yul\":736:813   */\n      0x4e487b7100000000000000000000000000000000000000000000000000000000\n        /* \"#utility.yul\":733:734   */\n      0x00\n        /* \"#utility.yul\":726:814   */\n      mstore\n        /* \"#utility.yul\":833:837   */\n      0x41\n        /* \"#utility.yul\":830:831   */\n      0x04\n        /* \"#utility.yul\":823:838   */\n      mstore\n        /* \"#utility.yul\":857:861   */\n      0x24\n        /* \"#utility.yul\":854:855   */\n      0x00\n        /* \"#utility.yul\":847:862   */\n      revert\n        /* \"#utility.yul\":874:1155   */\n    tag_72:\n        /* \"#utility.yul\":957:984   */\n      tag_110\n        /* \"#utility.yul\":979:983   */\n      dup3\n        /* \"#utility.yul\":957:984   */\n      tag_70\n      jump\t// in\n    tag_110:\n        /* \"#utility.yul\":949:955   */\n      dup2\n        /* \"#utility.yul\":945:985   */\n      add\n        /* \"#utility.yul\":1087:1093   */\n      dup2\n        /* \"#utility.yul\":1075:1085   */\n      dup2\n        /* \"#utility.yul\":1072:1094   */\n      lt\n        /* \"#utility.yul\":1051:1069   */\n      0xffffffffffffffff\n        /* \"#utility.yul\":1039:1049   */\n      dup3\n        /* \"#utility.yul\":1036:1070   */\n      gt\n        /* \"#utility.yul\":1033:1095   */\n      or\n        /* \"#utility.yul\":1030:1118   */\n      iszero\n      tag_111\n      jumpi\n        /* \"#utility.yul\":1098:1116   */\n      tag_112\n      tag_71\n      jump\t// in\n    tag_112:\n        /* \"#utility.yul\":1030:1118   */\n    tag_111:\n        /* \"#utility.yul\":1138:1148   */\n      dup1\n        /* \"#utility.yul\":1134:1136   */\n      0x40\n        /* \"#utility.yul\":1127:1149   */\n      mstore\n        /* \"#utility.yul\":917:1155   */\n      pop\n        /* \"#utility.yul\":874:1155   */\n      pop\n      pop\n      jump\t// out\n        /* \"#utility.yul\":1161:1290   */\n    tag_73:\n        /* \"#utility.yul\":1195:1201   */\n      0x00\n        /* \"#utility.yul\":1222:1242   */\n      tag_114\n      tag_65\n      jump\t// in\n    tag_114:\n        /* \"#utility.yul\":1212:1242   */\n      swap1\n      pop\n        /* \"#utility.yul\":1251:1284   */\n      tag_115\n        /* \"#utility.yul\":1279:1283   */\n      dup3\n        /* \"#utility.yul\":1271:1277   */\n      dup3\n        /* \"#utility.yul\":1251:1284   */\n      tag_72\n      jump\t// in\n    tag_115:\n        /* \"#utility.yul\":1161:1290   */\n      swap2\n      swap1\n      pop\n      jump\t// out\n        /* \"#utility.yul\":1296:1604   */\n    tag_74:\n        /* \"#utility.yul\":1358:1362   */\n      0x00\n        /* \"#utility.yul\":1448:1466   */\n      0xffffffffffffffff\n        /* \"#utility.yul\":1440:1446   */\n      dup3\n        /* \"#utility.yul\":1437:1467   */\n      gt\n        /* \"#utility.yul\":1434:1490   */\n      iszero\n      tag_117\n      jumpi\n        /* \"#utility.yul\":1470:1488   */\n      tag_118\n      tag_71\n      jump\t// in\n    tag_118:\n        /* \"#utility.yul\":1434:1490   */\n    tag_117:\n        /* \"#utility.yul\":1508:1537   */\n      tag_119\n        /* \"#utility.yul\":1530:1536   */\n      dup3\n        /* \"#utility.yul\":1508:1537   */\n      tag_70\n      jump\t// in\n    tag_119:\n        /* \"#utility.yul\":1500:1537   */\n      swap1\n      pop\n        /* \"#utility.yul\":1592:1596   */\n      0x20\n        /* \"#utility.yul\":1586:1590   */\n      dup2\n        /* \"#utility.yul\":1582:1597   */\n      add\n        /* \"#utility.yul\":1574:1597   */\n      swap1\n      pop\n        /* \"#utility.yul\":1296:1604   */\n      swap2\n      swap1\n      pop\n      jump\t// out\n        /* \"#utility.yul\":1610:1758   */\n    tag_75:\n        /* \"#utility.yul\":1708:1714   */\n      dup3\n        /* \"#utility.yul\":1703:1706   */\n      dup2\n        /* \"#utility.yul\":1698:1701   */\n      dup4\n        /* \"#utility.yul\":1685:1715   */\n      calldatacopy\n        /* \"#utility.yul\":1749:1750   */\n      0x00\n        /* \"#utility.yul\":1740:1746   */\n      dup4\n        /* \"#utility.yul\":1735:1738   */\n      dup4\n        /* \"#utility.yul\":1731:1747   */\n      add\n        /* \"#utility.yul\":1724:1751   */\n      mstore\n        /* \"#utility.yul\":1610:1758   */\n      pop\n      pop\n      pop\n      jump\t// out\n        /* \"#utility.yul\":1764:2189   */\n    tag_76:\n        /* \"#utility.yul\":1842:1847   */\n      0x00\n        /* \"#utility.yul\":1867:1933   */\n      tag_122\n        /* \"#utility.yul\":1883:1932   */\n      tag_123\n        /* \"#utility.yul\":1925:1931   */\n      dup5\n        /* \"#utility.yul\":1883:1932   */\n      tag_74\n      jump\t// in\n    tag_123:\n        /* \"#utility.yul\":1867:1933   */\n      tag_73\n      jump\t// in\n    tag_122:\n        /* \"#utility.yul\":1858:1933   */\n      swap1\n      pop\n        /* \"#utility.yul\":1956:1962   */\n      dup3\n        /* \"#utility.yul\":1949:1954   */\n      dup2\n        /* \"#utility.yul\":1942:1963   */\n      mstore\n        /* \"#utility.yul\":1994:1998   */\n      0x20\n        /* \"#utility.yul\":1987:1992   */\n      dup2\n        /* \"#utility.yul\":1983:1999   */\n      add\n        /* \"#utility.yul\":2032:2035   */\n      dup5\n        /* \"#utility.yul\":2023:2029   */\n      dup5\n        /* \"#utility.yul\":2018:2021   */\n      dup5\n        /* \"#utility.yul\":2014:2030   */\n      add\n        /* \"#utility.yul\":2011:2036   */\n      gt\n        /* \"#utility.yul\":2008:2120   */\n      iszero\n      tag_124\n      jumpi\n        /* \"#utility.yul\":2039:2118   */\n      tag_125\n      tag_69\n      jump\t// in\n    tag_125:\n        /* \"#utility.yul\":2008:2120   */\n    tag_124:\n        /* \"#utility.yul\":2129:2183   */\n      tag_126\n        /* \"#utility.yul\":2176:2182   */\n      dup5\n        /* \"#utility.yul\":2171:2174   */\n      dup3\n        /* \"#utility.yul\":2166:2169   */\n      dup6\n        /* \"#utility.yul\":2129:2183   */\n      tag_75\n      jump\t// in\n    tag_126:\n        /* \"#utility.yul\":1848:2189   */\n      pop\n        /* \"#utility.yul\":1764:2189   */\n      swap4\n      swap3\n      pop\n      pop\n      pop\n      jump\t// out\n        /* \"#utility.yul\":2209:2549   */\n    tag_77:\n        /* \"#utility.yul\":2265:2270   */\n      0x00\n        /* \"#utility.yul\":2314:2317   */\n      dup3\n        /* \"#utility.yul\":2307:2311   */\n      0x1f\n        /* \"#utility.yul\":2299:2305   */\n      dup4\n        /* \"#utility.yul\":2295:2312   */\n      add\n        /* \"#utility.yul\":2291:2318   */\n      slt\n        /* \"#utility.yul\":2281:2403   */\n      tag_128\n      jumpi\n        /* \"#utility.yul\":2322:2401   */\n      tag_129\n      tag_68\n      jump\t// in\n    tag_129:\n        /* \"#utility.yul\":2281:2403   */\n    tag_128:\n        /* \"#utility.yul\":2439:2445   */\n      dup2\n        /* \"#utility.yul\":2426:2446   */\n      calldataload\n        /* \"#utility.yul\":2464:2543   */\n      tag_130\n        /* \"#utility.yul\":2539:2542   */\n      dup5\n        /* \"#utility.yul\":2531:2537   */\n      dup3\n        /* \"#utility.yul\":2524:2528   */\n      0x20\n        /* \"#utility.yul\":2516:2522   */\n      dup7\n        /* \"#utility.yul\":2512:2529   */\n      add\n        /* \"#utility.yul\":2464:2543   */\n      tag_76\n      jump\t// in\n    tag_130:\n        /* \"#utility.yul\":2455:2543   */\n      swap2\n      pop\n        /* \"#utility.yul\":2271:2549   */\n      pop\n        /* \"#utility.yul\":2209:2549   */\n      swap3\n      swap2\n      pop\n      pop\n      jump\t// out\n        /* \"#utility.yul\":2555:3389   */\n    tag_9:\n        /* \"#utility.yul\":2643:2649   */\n      0x00\n        /* \"#utility.yul\":2651:2657   */\n      0x00\n        /* \"#utility.yul\":2700:2702   */\n      0x40\n        /* \"#utility.yul\":2688:2697   */\n      dup4\n        /* \"#utility.yul\":2679:2686   */\n      dup6\n        /* \"#utility.yul\":2675:2698   */\n      sub\n        /* \"#utility.yul\":2671:2703   */\n      slt\n        /* \"#utility.yul\":2668:2787   */\n      iszero\n      tag_132\n      jumpi\n        /* \"#utility.yul\":2706:2785   */\n      tag_133\n      tag_66\n      jump\t// in\n    tag_133:\n        /* \"#utility.yul\":2668:2787   */\n    tag_132:\n        /* \"#utility.yul\":2854:2855   */\n      0x00\n        /* \"#utility.yul\":2843:2852   */\n      dup4\n        /* \"#utility.yul\":2839:2856   */\n      add\n        /* \"#utility.yul\":2826:2857   */\n      calldataload\n        /* \"#utility.yul\":2884:2902   */\n      0xffffffffffffffff\n        /* \"#utility.yul\":2876:2882   */\n      dup2\n        /* \"#utility.yul\":2873:2903   */\n      gt\n        /* \"#utility.yul\":2870:2987   */\n      iszero\n      tag_134\n      jumpi\n        /* \"#utility.yul\":2906:2985   */\n      tag_135\n      tag_67\n      jump\t// in\n    tag_135:\n        /* \"#utility.yul\":2870:2987   */\n    tag_134:\n        /* \"#utility.yul\":3011:3074   */\n      tag_136\n        /* \"#utility.yul\":3066:3073   */\n      dup6\n        /* \"#utility.yul\":3057:3063   */\n      dup3\n        /* \"#utility.yul\":3046:3055   */\n      dup7\n        /* \"#utility.yul\":3042:3064   */\n      add\n        /* \"#utility.yul\":3011:3074   */\n      tag_77\n      jump\t// in\n    tag_136:\n        /* \"#utility.yul\":3001:3074   */\n      swap3\n      pop\n        /* \"#utility.yul\":2797:3084   */\n      pop\n        /* \"#utility.yul\":3151:3153   */\n      0x20\n        /* \"#utility.yul\":3140:3149   */\n      dup4\n        /* \"#utility.yul\":3136:3154   */\n      add\n        /* \"#utility.yul\":3123:3155   */\n      calldataload\n        /* \"#utility.yul\":3182:3200   */\n      0xffffffffffffffff\n        /* \"#utility.yul\":3174:3180   */\n      dup2\n        /* \"#utility.yul\":3171:3201   */\n      gt\n        /* \"#utility.yul\":3168:3285   */\n      iszero\n      tag_137\n      jumpi\n        /* \"#utility.yul\":3204:3283   */\n      tag_138\n      tag_67\n      jump\t// in\n    tag_138:\n        /* \"#utility.yul\":3168:3285   */\n    tag_137:\n        /* \"#utility.yul\":3309:3372   */\n      tag_139\n        /* \"#utility.yul\":3364:3371   */\n      dup6\n        /* \"#utility.yul\":3355:3361   */\n      dup3\n        /* \"#utility.yul\":3344:3353   */\n      dup7\n        /* \"#utility.yul\":3340:3362   */\n      add\n        /* \"#utility.yul\":3309:3372   */\n      tag_77\n      jump\t// in\n    tag_139:\n        /* \"#utility.yul\":3299:3372   */\n      swap2\n      pop\n        /* \"#utility.yul\":3094:3382   */\n      pop\n        /* \"#utility.yul\":2555:3389   */\n      swap3\n      pop\n      swap3\n      swap1\n      pop\n      jump\t// out\n        /* \"#utility.yul\":3395:3472   */\n    tag_78:\n        /* \"#utility.yul\":3432:3439   */\n      0x00\n        /* \"#utility.yul\":3461:3466   */\n      dup2\n        /* \"#utility.yul\":3450:3466   */\n      swap1\n      pop\n        /* \"#utility.yul\":3395:3472   */\n      swap2\n      swap1\n      pop\n      jump\t// out\n        /* \"#utility.yul\":3478:3600   */\n    tag_79:\n        /* \"#utility.yul\":3551:3575   */\n      tag_142\n        /* \"#utility.yul\":3569:3574   */\n      dup2\n        /* \"#utility.yul\":3551:3575   */\n      tag_78\n      jump\t// in\n    tag_142:\n        /* \"#utility.yul\":3544:3549   */\n      dup2\n        /* \"#utility.yul\":3541:3576   */\n      eq\n        /* \"#utility.yul\":3531:3594   */\n      tag_143\n      jumpi\n        /* \"#utility.yul\":3590:3591   */\n      0x00\n        /* \"#utility.yul\":3587:3588   */\n      0x00\n        /* \"#utility.yul\":3580:3592   */\n      revert\n        /* \"#utility.yul\":3531:3594   */\n    tag_143:\n        /* \"#utility.yul\":3478:3600   */\n      pop\n      jump\t// out\n        /* \"#utility.yul\":3606:3745   */\n    tag_80:\n        /* \"#utility.yul\":3652:3657   */\n      0x00\n        /* \"#utility.yul\":3690:3696   */\n      dup2\n        /* \"#utility.yul\":3677:3697   */\n      calldataload\n        /* \"#utility.yul\":3668:3697   */\n      swap1\n      pop\n        /* \"#utility.yul\":3706:3739   */\n      tag_145\n        /* \"#utility.yul\":3733:3738   */\n      dup2\n        /* \"#utility.yul\":3706:3739   */\n      tag_79\n      jump\t// in\n    tag_145:\n        /* \"#utility.yul\":3606:3745   */\n      swap3\n      swap2\n      pop\n      pop\n      jump\t// out\n        /* \"#utility.yul\":3751:4080   */\n    tag_13:\n        /* \"#utility.yul\":3810:3816   */\n      0x00\n        /* \"#utility.yul\":3859:3861   */\n      0x20\n        /* \"#utility.yul\":3847:3856   */\n      dup3\n        /* \"#utility.yul\":3838:3845   */\n      dup5\n        /* \"#utility.yul\":3834:3857   */\n      sub\n        /* \"#utility.yul\":3830:3862   */\n      slt\n        /* \"#utility.yul\":3827:3946   */\n      iszero\n      tag_147\n      jumpi\n        /* \"#utility.yul\":3865:3944   */\n      tag_148\n      tag_66\n      jump\t// in\n    tag_148:\n        /* \"#utility.yul\":3827:3946   */\n    tag_147:\n        /* \"#utility.yul\":3985:3986   */\n      0x00\n        /* \"#utility.yul\":4010:4063   */\n      tag_149\n        /* \"#utility.yul\":4055:4062   */\n      dup5\n        /* \"#utility.yul\":4046:4052   */\n      dup3\n        /* \"#utility.yul\":4035:4044   */\n      dup6\n        /* \"#utility.yul\":4031:4053   */\n      add\n        /* \"#utility.yul\":4010:4063   */\n      tag_80\n      jump\t// in\n    tag_149:\n        /* \"#utility.yul\":4000:4063   */\n      swap2\n      pop\n        /* \"#utility.yul\":3956:4073   */\n      pop\n        /* \"#utility.yul\":3751:4080   */\n      swap3\n      swap2\n      pop\n      pop\n      jump\t// out\n        /* \"#utility.yul\":4086:4185   */\n    tag_81:\n        /* \"#utility.yul\":4138:4144   */\n      0x00\n        /* \"#utility.yul\":4172:4177   */\n      dup2\n        /* \"#utility.yul\":4166:4178   */\n      mload\n        /* \"#utility.yul\":4156:4178   */\n      swap1\n      pop\n        /* \"#utility.yul\":4086:4185   */\n      swap2\n      swap1\n      pop\n      jump\t// out\n        /* \"#utility.yul\":4191:4360   */\n    tag_82:\n        /* \"#utility.yul\":4275:4286   */\n      0x00\n        /* \"#utility.yul\":4309:4315   */\n      dup3\n        /* \"#utility.yul\":4304:4307   */\n      dup3\n        /* \"#utility.yul\":4297:4316   */\n      mstore\n        /* \"#utility.yul\":4349:4353   */\n      0x20\n        /* \"#utility.yul\":4344:4347   */\n      dup3\n        /* \"#utility.yul\":4340:4354   */\n      add\n        /* \"#utility.yul\":4325:4354   */\n      swap1\n      pop\n        /* \"#utility.yul\":4191:4360   */\n      swap3\n      swap2\n      pop\n      pop\n      jump\t// out\n        /* \"#utility.yul\":4366:4505   */\n    tag_83:\n        /* \"#utility.yul\":4455:4461   */\n      dup3\n        /* \"#utility.yul\":4450:4453   */\n      dup2\n        /* \"#utility.yul\":4445:4448   */\n      dup4\n        /* \"#utility.yul\":4439:4462   */\n      mcopy\n        /* \"#utility.yul\":4496:4497   */\n      0x00\n        /* \"#utility.yul\":4487:4493   */\n      dup4\n        /* \"#utility.yul\":4482:4485   */\n      dup4\n        /* \"#utility.yul\":4478:4494   */\n      add\n        /* \"#utility.yul\":4471:4498   */\n      mstore\n        /* \"#utility.yul\":4366:4505   */\n      pop\n      pop\n      pop\n      jump\t// out\n        /* \"#utility.yul\":4511:4888   */\n    tag_84:\n        /* \"#utility.yul\":4599:4602   */\n      0x00\n        /* \"#utility.yul\":4627:4666   */\n      tag_154\n        /* \"#utility.yul\":4660:4665   */\n      dup3\n        /* \"#utility.yul\":4627:4666   */\n      tag_81\n      jump\t// in\n    tag_154:\n        /* \"#utility.yul\":4682:4753   */\n      tag_155\n        /* \"#utility.yul\":4746:4752   */\n      dup2\n        /* \"#utility.yul\":4741:4744   */\n      dup6\n        /* \"#utility.yul\":4682:4753   */\n      tag_82\n      jump\t// in\n    tag_155:\n        /* \"#utility.yul\":4675:4753   */\n      swap4\n      pop\n        /* \"#utility.yul\":4762:4827   */\n      tag_156\n        /* \"#utility.yul\":4820:4826   */\n      dup2\n        /* \"#utility.yul\":4815:4818   */\n      dup6\n        /* \"#utility.yul\":4808:4812   */\n      0x20\n        /* \"#utility.yul\":4801:4806   */\n      dup7\n        /* \"#utility.yul\":4797:4813   */\n      add\n        /* \"#utility.yul\":4762:4827   */\n      tag_83\n      jump\t// in\n    tag_156:\n        /* \"#utility.yul\":4852:4881   */\n      tag_157\n        /* \"#utility.yul\":4874:4880   */\n      dup2\n        /* \"#utility.yul\":4852:4881   */\n      tag_70\n      jump\t// in\n    tag_157:\n        /* \"#utility.yul\":4847:4850   */\n      dup5\n        /* \"#utility.yul\":4843:4882   */\n      add\n        /* \"#utility.yul\":4836:4882   */\n      swap2\n      pop\n        /* \"#utility.yul\":4603:4888   */\n      pop\n        /* \"#utility.yul\":4511:4888   */\n      swap3\n      swap2\n      pop\n      pop\n      jump\t// out\n        /* \"#utility.yul\":4894:5207   */\n    tag_16:\n        /* \"#utility.yul\":5007:5011   */\n      0x00\n        /* \"#utility.yul\":5045:5047   */\n      0x20\n        /* \"#utility.yul\":5034:5043   */\n      dup3\n        /* \"#utility.yul\":5030:5048   */\n      add\n        /* \"#utility.yul\":5022:5048   */\n      swap1\n      pop\n        /* \"#utility.yul\":5094:5103   */\n      dup2\n        /* \"#utility.yul\":5088:5092   */\n      dup2\n        /* \"#utility.yul\":5084:5104   */\n      sub\n        /* \"#utility.yul\":5080:5081   */\n      0x00\n        /* \"#utility.yul\":5069:5078   */\n      dup4\n        /* \"#utility.yul\":5065:5082   */\n      add\n        /* \"#utility.yul\":5058:5105   */\n      mstore\n        /* \"#utility.yul\":5122:5200   */\n      tag_159\n        /* \"#utility.yul\":5195:5199   */\n      dup2\n        /* \"#utility.yul\":5186:5192   */\n      dup5\n        /* \"#utility.yul\":5122:5200   */\n      tag_84\n      jump\t// in\n    tag_159:\n        /* \"#utility.yul\":5114:5200   */\n      swap1\n      pop\n        /* \"#utility.yul\":4894:5207   */\n      swap3\n      swap2\n      pop\n      pop\n      jump\t// out\n        /* \"#utility.yul\":5213:5727   */\n    tag_25:\n        /* \"#utility.yul\":5374:5378   */\n      0x00\n        /* \"#utility.yul\":5412:5414   */\n      0x40\n        /* \"#utility.yul\":5401:5410   */\n      dup3\n        /* \"#utility.yul\":5397:5415   */\n      add\n        /* \"#utility.yul\":5389:5415   */\n      swap1\n      pop\n        /* \"#utility.yul\":5461:5470   */\n      dup2\n        /* \"#utility.yul\":5455:5459   */\n      dup2\n        /* \"#utility.yul\":5451:5471   */\n      sub\n        /* \"#utility.yul\":5447:5448   */\n      0x00\n        /* \"#utility.yul\":5436:5445   */\n      dup4\n        /* \"#utility.yul\":5432:5449   */\n      add\n        /* \"#utility.yul\":5425:5472   */\n      mstore\n        /* \"#utility.yul\":5489:5567   */\n      tag_161\n        /* \"#utility.yul\":5562:5566   */\n      dup2\n        /* \"#utility.yul\":5553:5559   */\n      dup6\n        /* \"#utility.yul\":5489:5567   */\n      tag_84\n      jump\t// in\n    tag_161:\n        /* \"#utility.yul\":5481:5567   */\n      swap1\n      pop\n        /* \"#utility.yul\":5614:5623   */\n      dup2\n        /* \"#utility.yul\":5608:5612   */\n      dup2\n        /* \"#utility.yul\":5604:5624   */\n      sub\n        /* \"#utility.yul\":5599:5601   */\n      0x20\n        /* \"#utility.yul\":5588:5597   */\n      dup4\n        /* \"#utility.yul\":5584:5602   */\n      add\n        /* \"#utility.yul\":5577:5625   */\n      mstore\n        /* \"#utility.yul\":5642:5720   */\n      tag_162\n        /* \"#utility.yul\":5715:5719   */\n      dup2\n        /* \"#utility.yul\":5706:5712   */\n      dup5\n        /* \"#utility.yul\":5642:5720   */\n      tag_84\n      jump\t// in\n    tag_162:\n        /* \"#utility.yul\":5634:5720   */\n      swap1\n      pop\n        /* \"#utility.yul\":5213:5727   */\n      swap4\n      swap3\n      pop\n      pop\n      pop\n      jump\t// out\n        /* \"#utility.yul\":5733:5913   */\n    tag_85:\n        /* \"#utility.yul\":5781:5858   */\n      0x4e487b7100000000000000000000000000000000000000000000000000000000\n        /* \"#utility.yul\":5778:5779   */\n      0x00\n        /* \"#utility.yul\":5771:5859   */\n      mstore\n        /* \"#utility.yul\":5878:5882   */\n      0x22\n        /* \"#utility.yul\":5875:5876   */\n      0x04\n        /* \"#utility.yul\":5868:5883   */\n      mstore\n        /* \"#utility.yul\":5902:5906   */\n      0x24\n        /* \"#utility.yul\":5899:5900   */\n      0x00\n        /* \"#utility.yul\":5892:5907   */\n      revert\n        /* \"#utility.yul\":5919:6239   */\n    tag_35:\n        /* \"#utility.yul\":5963:5969   */\n      0x00\n        /* \"#utility.yul\":6000:6001   */\n      0x02\n        /* \"#utility.yul\":5994:5998   */\n      dup3\n        /* \"#utility.yul\":5990:6002   */\n      div\n        /* \"#utility.yul\":5980:6002   */\n      swap1\n      pop\n        /* \"#utility.yul\":6047:6048   */\n      0x01\n        /* \"#utility.yul\":6041:6045   */\n      dup3\n        /* \"#utility.yul\":6037:6049   */\n      and\n        /* \"#utility.yul\":6068:6086   */\n      dup1\n        /* \"#utility.yul\":6058:6139   */\n      tag_165\n      jumpi\n        /* \"#utility.yul\":6124:6128   */\n      0x7f\n        /* \"#utility.yul\":6116:6122   */\n      dup3\n        /* \"#utility.yul\":6112:6129   */\n      and\n        /* \"#utility.yul\":6102:6129   */\n      swap2\n      pop\n        /* \"#utility.yul\":6058:6139   */\n    tag_165:\n        /* \"#utility.yul\":6186:6188   */\n      0x20\n        /* \"#utility.yul\":6178:6184   */\n      dup3\n        /* \"#utility.yul\":6175:6189   */\n      lt\n        /* \"#utility.yul\":6155:6173   */\n      dup2\n        /* \"#utility.yul\":6152:6190   */\n      sub\n        /* \"#utility.yul\":6149:6233   */\n      tag_166\n      jumpi\n        /* \"#utility.yul\":6205:6223   */\n      tag_167\n      tag_85\n      jump\t// in\n    tag_167:\n        /* \"#utility.yul\":6149:6233   */\n    tag_166:\n        /* \"#utility.yul\":5970:6239   */\n      pop\n        /* \"#utility.yul\":5919:6239   */\n      swap2\n      swap1\n      pop\n      jump\t// out\n        /* \"#utility.yul\":6245:6386   */\n    tag_86:\n        /* \"#utility.yul\":6294:6298   */\n      0x00\n        /* \"#utility.yul\":6317:6320   */\n      dup2\n        /* \"#utility.yul\":6309:6320   */\n      swap1\n      pop\n        /* \"#utility.yul\":6340:6343   */\n      dup2\n        /* \"#utility.yul\":6337:6338   */\n      0x00\n        /* \"#utility.yul\":6330:6344   */\n      mstore\n        /* \"#utility.yul\":6374:6378   */\n      0x20\n        /* \"#utility.yul\":6371:6372   */\n      0x00\n        /* \"#utility.yul\":6361:6379   */\n      keccak256\n        /* \"#utility.yul\":6353:6379   */\n      swap1\n      pop\n        /* \"#utility.yul\":6245:6386   */\n      swap2\n      swap1\n      pop\n      jump\t// out\n        /* \"#utility.yul\":6392:6485   */\n    tag_87:\n        /* \"#utility.yul\":6429:6435   */\n      0x00\n        /* \"#utility.yul\":6476:6478   */\n      0x20\n        /* \"#utility.yul\":6471:6473   */\n      0x1f\n        /* \"#utility.yul\":6464:6469   */\n      dup4\n        /* \"#utility.yul\":6460:6474   */\n      add\n        /* \"#utility.yul\":6456:6479   */\n      div\n        /* \"#utility.yul\":6446:6479   */\n      swap1\n      pop\n        /* \"#utility.yul\":6392:6485   */\n      swap2\n      swap1\n      pop\n      jump\t// out\n        /* \"#utility.yul\":6491:6598   */\n    tag_88:\n        /* \"#utility.yul\":6535:6543   */\n      0x00\n        /* \"#utility.yul\":6585:6590   */\n      dup3\n        /* \"#utility.yul\":6579:6583   */\n      dup3\n        /* \"#utility.yul\":6575:6591   */\n      shl\n        /* \"#utility.yul\":6554:6591   */\n      swap1\n      pop\n        /* \"#utility.yul\":6491:6598   */\n      swap3\n      swap2\n      pop\n      pop\n      jump\t// out\n        /* \"#utility.yul\":6604:6997   */\n    tag_89:\n        /* \"#utility.yul\":6673:6679   */\n      0x00\n        /* \"#utility.yul\":6723:6724   */\n      0x08\n        /* \"#utility.yul\":6711:6721   */\n      dup4\n        /* \"#utility.yul\":6707:6725   */\n      mul\n        /* \"#utility.yul\":6746:6843   */\n      tag_172\n        /* \"#utility.yul\":6776:6842   */\n      0xffffffffffffffffffffffffffffffffffffffffffffffffffffffffffffffff\n        /* \"#utility.yul\":6765:6774   */\n      dup3\n        /* \"#utility.yul\":6746:6843   */\n      tag_88\n      jump\t// in\n    tag_172:\n        /* \"#utility.yul\":6864:6903   */\n      tag_173\n        /* \"#utility.yul\":6894:6902   */\n      dup7\n        /* \"#utility.yul\":6883:6892   */\n      dup4\n        /* \"#utility.yul\":6864:6903   */\n      tag_88\n      jump\t// in\n    tag_173:\n        /* \"#utility.yul\":6852:6903   */\n      swap6\n      pop\n        /* \"#utility.yul\":6936:6940   */\n      dup1\n        /* \"#utility.yul\":6932:6941   */\n      not\n        /* \"#utility.yul\":6925:6930   */\n      dup5\n        /* \"#utility.yul\":6921:6942   */\n      and\n        /* \"#utility.yul\":6912:6942   */\n      swap4\n      pop\n        /* \"#utility.yul\":6985:6989   */\n      dup1\n        /* \"#utility.yul\":6975:6983   */\n      dup7\n        /* \"#utility.yul\":6971:6990   */\n      and\n        /* \"#utility.yul\":6964:6969   */\n      dup5\n        /* \"#utility.yul\":6961:6991   */\n      or\n        /* \"#utility.yul\":6951:6991   */\n      swap3\n      pop\n        /* \"#utility.yul\":6680:6997   */\n      pop\n      pop\n        /* \"#utility.yul\":6604:6997   */\n      swap4\n      swap3\n      pop\n      pop\n      pop\n      jump\t// out\n        /* \"#utility.yul\":7003:7063   */\n    tag_90:\n        /* \"#utility.yul\":7031:7034   */\n      0x00\n        /* \"#utility.yul\":7052:7057   */\n      dup2\n        /* \"#utility.yul\":7045:7057   */\n      swap1\n      pop\n        /* \"#utility.yul\":7003:7063   */\n      swap2\n      swap1\n      pop\n      jump\t// out\n        /* \"#utility.yul\":7069:7211   */\n    tag_91:\n        /* \"#utility.yul\":7119:7128   */\n      0x00\n        /* \"#utility.yul\":7152:7205   */\n      tag_176\n        /* \"#utility.yul\":7170:7204   */\n      tag_177\n        /* \"#utility.yul\":7179:7203   */\n      tag_178\n        /* \"#utility.yul\":7197:7202   */\n      dup5\n        /* \"#utility.yul\":7179:7203   */\n      tag_78\n      jump\t// in\n    tag_178:\n        /* \"#utility.yul\":7170:7204   */\n      tag_90\n      jump\t// in\n    tag_177:\n        /* \"#utility.yul\":7152:7205   */\n      tag_78\n      jump\t// in\n    tag_176:\n        /* \"#utility.yul\":7139:7205   */\n      swap1\n      pop\n        /* \"#utility.yul\":7069:7211   */\n      swap2\n      swap1\n      pop\n      jump\t// out\n        /* \"#utility.yul\":7217:7292   */\n    tag_92:\n        /* \"#utility.yul\":7260:7263   */\n      0x00\n        /* \"#utility.yul\":7281:7286   */\n      dup2\n        /* \"#utility.yul\":7274:7286   */\n      swap1\n      pop\n        /* \"#utility.yul\":7217:7292   */\n      swap2\n      swap1\n      pop\n      jump\t// out\n        /* \"#utility.yul\":7298:7567   */\n    tag_93:\n        /* \"#utility.yul\":7408:7447   */\n      tag_181\n        /* \"#utility.yul\":7439:7446   */\n      dup4\n        /* \"#utility.yul\":7408:7447   */\n      tag_91\n      jump\t// in\n    tag_181:\n        /* \"#utility.yul\":7469:7560   */\n      tag_182\n        /* \"#utility.yul\":7518:7559   */\n      tag_183\n        /* \"#utility.yul\":7542:7558   */\n      dup3\n        /* \"#utility.yul\":7518:7559   */\n      tag_92\n      jump\t// in\n    tag_183:\n        /* \"#utility.yul\":7510:7516   */\n      dup5\n        /* \"#utility.yul\":7503:7507   */\n      dup5\n        /* \"#utility.yul\":7497:7508   */\n      sload\n        /* \"#utility.yul\":7469:7560   */\n      tag_89\n      jump\t// in\n    tag_182:\n        /* \"#utility.yul\":7463:7467   */\n      dup3\n        /* \"#utility.yul\":7456:7561   */\n      sstore\n        /* \"#utility.yul\":7374:7567   */\n      pop\n        /* \"#utility.yul\":7298:7567   */\n      pop\n      pop\n      pop\n      jump\t// out\n        /* \"#utility.yul\":7573:7646   */\n    tag_94:\n        /* \"#utility.yul\":7618:7621   */\n      0x00\n        /* \"#utility.yul\":7639:7640   */\n      0x00\n        /* \"#utility.yul\":7632:7640   */\n      swap1\n      pop\n        /* \"#utility.yul\":7573:7646   */\n      swap1\n      jump\t// out\n        /* \"#utility.yul\":7652:7841   */\n    tag_95:\n        /* \"#utility.yul\":7729:7761   */\n      tag_186\n      tag_94\n      jump\t// in\n    tag_186:\n        /* \"#utility.yul\":7770:7835   */\n      tag_187\n        /* \"#utility.yul\":7828:7834   */\n      dup2\n        /* \"#utility.yul\":7820:7826   */\n      dup5\n        /* \"#utility.yul\":7814:7818   */\n      dup5\n        /* \"#utility.yul\":7770:7835   */\n      tag_93\n      jump\t// in\n    tag_187:\n        /* \"#utility.yul\":7705:7841   */\n      pop\n        /* \"#utility.yul\":7652:7841   */\n      pop\n      pop\n      jump\t// out\n        /* \"#utility.yul\":7847:8061   */\n    tag_96:\n        /* \"#utility.yul\":7932:7933   */\n      0x00\n        /* \"#utility.yul\":7917:8055   */\n    tag_189:\n        /* \"#utility.yul\":7942:7951   */\n      dup3\n        /* \"#utility.yul\":7939:7940   */\n      dup2\n        /* \"#utility.yul\":7936:7952   */\n      lt\n        /* \"#utility.yul\":7917:8055   */\n      iszero\n      tag_191\n      jumpi\n        /* \"#utility.yul\":7994:8045   */\n      tag_192\n        /* \"#utility.yul\":8043:8044   */\n      0x00\n        /* \"#utility.yul\":8039:8040   */\n      dup3\n        /* \"#utility.yul\":8028:8037   */\n      dup5\n        /* \"#utility.yul\":8024:8041   */\n      add\n        /* \"#utility.yul\":7994:8045   */\n      tag_95\n      jump\t// in\n    tag_192:\n        /* \"#utility.yul\":7967:7968   */\n      0x01\n        /* \"#utility.yul\":7964:7965   */\n      dup2\n        /* \"#utility.yul\":7960:7969   */\n      add\n        /* \"#utility.yul\":7955:7969   */\n      swap1\n      pop\n        /* \"#utility.yul\":7917:8055   */\n      jump(tag_189)\n    tag_191:\n        /* \"#utility.yul\":7921:7935   */\n      pop\n        /* \"#utility.yul\":7847:8061   */\n      pop\n      pop\n      jump\t// out\n        /* \"#utility.yul\":8067:8813   */\n    tag_97:\n        /* \"#utility.yul\":8168:8170   */\n      0x1f\n        /* \"#utility.yul\":8163:8166   */\n      dup3\n        /* \"#utility.yul\":8160:8171   */\n      gt\n        /* \"#utility.yul\":8157:8806   */\n      iszero\n      tag_194\n      jumpi\n        /* \"#utility.yul\":8197:8207   */\n      dup3\n        /* \"#utility.yul\":8192:8195   */\n      dup3\n        /* \"#utility.yul\":8189:8208   */\n      gt\n        /* \"#utility.yul\":8186:8796   */\n      iszero\n      tag_195\n      jumpi\n        /* \"#utility.yul\":8243:8281   */\n      tag_196\n        /* \"#utility.yul\":8275:8280   */\n      dup2\n        /* \"#utility.yul\":8243:8281   */\n      tag_86\n      jump\t// in\n    tag_196:\n        /* \"#utility.yul\":8318:8340   */\n      tag_197\n        /* \"#utility.yul\":8336:8339   */\n      dup4\n        /* \"#utility.yul\":8318:8340   */\n      tag_87\n      jump\t// in\n    tag_197:\n        /* \"#utility.yul\":8377:8406   */\n      tag_198\n        /* \"#utility.yul\":8395:8405   */\n      dup6\n        /* \"#utility.yul\":8377:8406   */\n      tag_87\n      jump\t// in\n    tag_198:\n        /* \"#utility.yul\":8567:8569   */\n      0x20\n        /* \"#utility.yul\":8555:8565   */\n      dup7\n        /* \"#utility.yul\":8552:8570   */\n      lt\n        /* \"#utility.yul\":8549:8628   */\n      iszero\n      tag_199\n      jumpi\n        /* \"#utility.yul\":8609:8610   */\n      0x00\n        /* \"#utility.yul\":8593:8610   */\n      swap1\n      pop\n        /* \"#utility.yul\":8549:8628   */\n    tag_199:\n        /* \"#utility.yul\":8678:8690   */\n      dup1\n        /* \"#utility.yul\":8668:8676   */\n      dup4\n        /* \"#utility.yul\":8664:8691   */\n      add\n        /* \"#utility.yul\":8708:8782   */\n      tag_200\n        /* \"#utility.yul\":8768:8780   */\n      dup3\n        /* \"#utility.yul\":8754:8766   */\n      dup5\n        /* \"#utility.yul\":8750:8781   */\n      sub\n        /* \"#utility.yul\":8737:8748   */\n      dup3\n        /* \"#utility.yul\":8708:8782   */\n      tag_96\n      jump\t// in\n    tag_200:\n        /* \"#utility.yul\":8209:8796   */\n      pop\n      pop\n      pop\n      pop\n        /* \"#utility.yul\":8186:8796   */\n    tag_195:\n        /* \"#utility.yul\":8157:8806   */\n    tag_194:\n        /* \"#utility.yul\":8067:8813   */\n      pop\n      pop\n      pop\n      jump\t// out\n        /* \"#utility.yul\":8819:8936   */\n    tag_98:\n        /* \"#utility.yul\":8873:8881   */\n      0x00\n        /* \"#utility.yul\":8923:8928   */\n      dup3\n        /* \"#utility.yul\":8917:8921   */\n      dup3\n        /* \"#utility.yul\":8913:8929   */\n      shr\n        /* \"#utility.yul\":8892:8929   */\n      swap1\n      pop\n        /* \"#utility.yul\":8819:8936   */\n      swap3\n      swap2\n      pop\n      pop\n      jump\t// out\n        /* \"#utility.yul\":8942:9111   */\n    tag_99:\n        /* \"#utility.yul\":8986:8992   */\n      0x00\n        /* \"#utility.yul\":9019:9070   */\n      tag_203\n        /* \"#utility.yul\":9067:9068   */\n      0x00\n        /* \"#utility.yul\":9063:9069   */\n      not\n        /* \"#utility.yul\":9055:9060   */\n      dup5\n        /* \"#utility.yul\":9052:9053   */\n      0x08\n        /* \"#utility.yul\":9048:9061   */\n      mul\n        /* \"#utility.yul\":9019:9070   */\n      tag_98\n      jump\t// in\n    tag_203:\n        /* \"#utility.yul\":9015:9071   */\n      not\n        /* \"#utility.yul\":9100:9104   */\n      dup1\n        /* \"#utility.yul\":9094:9098   */\n      dup4\n        /* \"#utility.yul\":9090:9105   */\n      and\n        /* \"#utility.yul\":9080:9105   */\n      swap2\n      pop\n        /* \"#utility.yul\":8993:9111   */\n      pop\n        /* \"#utility.yul\":8942:9111   */\n      swap3\n      swap2\n      pop\n      pop\n      jump\t// out\n        /* \"#utility.yul\":9116:9411   */\n    tag_100:\n        /* \"#utility.yul\":9192:9196   */\n      0x00\n        /* \"#utility.yul\":9338:9367   */\n      tag_205\n        /* \"#utility.yul\":9363:9366   */\n      dup4\n        /* \"#utility.yul\":9357:9361   */\n      dup4\n        /* \"#utility.yul\":9338:9367   */\n      tag_99\n      jump\t// in\n    tag_205:\n        /* \"#utility.yul\":9330:9367   */\n      swap2\n      pop\n        /* \"#utility.yul\":9400:9403   */\n      dup3\n        /* \"#utility.yul\":9397:9398   */\n      0x02\n        /* \"#utility.yul\":9393:9404   */\n      mul\n        /* \"#utility.yul\":9387:9391   */\n      dup3\n        /* \"#utility.yul\":9384:9405   */\n      or\n        /* \"#utility.yul\":9376:9405   */\n      swap1\n      pop\n        /* \"#utility.yul\":9116:9411   */\n      swap3\n      swap2\n      pop\n      pop\n      jump\t// out\n        /* \"#utility.yul\":9416:10811   */\n    tag_29:\n        /* \"#utility.yul\":9533:9570   */\n      tag_207\n        /* \"#utility.yul\":9566:9569   */\n      dup3\n        /* \"#utility.yul\":9533:9570   */\n      tag_81\n      jump\t// in\n    tag_207:\n        /* \"#utility.yul\":9635:9653   */\n      0xffffffffffffffff\n        /* \"#utility.yul\":9627:9633   */\n      dup2\n        /* \"#utility.yul\":9624:9654   */\n      gt\n        /* \"#utility.yul\":9621:9677   */\n      iszero\n      tag_208\n      jumpi\n        /* \"#utility.yul\":9657:9675   */\n      tag_209\n      tag_71\n      jump\t// in\n    tag_209:\n        /* \"#utility.yul\":9621:9677   */\n    tag_208:\n        /* \"#utility.yul\":9701:9739   */\n      tag_210\n        /* \"#utility.yul\":9733:9737   */\n      dup3\n        /* \"#utility.yul\":9727:9738   */\n      sload\n        /* \"#utility.yul\":9701:9739   */\n      tag_35\n      jump\t// in\n    tag_210:\n        /* \"#utility.yul\":9786:9853   */\n      tag_211\n        /* \"#utility.yul\":9846:9852   */\n      dup3\n        /* \"#utility.yul\":9838:9844   */\n      dup3\n        /* \"#utility.yul\":9832:9836   */\n      dup6\n        /* \"#utility.yul\":9786:9853   */\n      tag_97\n      jump\t// in\n    tag_211:\n        /* \"#utility.yul\":9880:9881   */\n      0x00\n        /* \"#utility.yul\":9904:9908   */\n      0x20\n        /* \"#utility.yul\":9891:9908   */\n      swap1\n      pop\n        /* \"#utility.yul\":9936:9938   */\n      0x1f\n        /* \"#utility.yul\":9928:9934   */\n      dup4\n        /* \"#utility.yul\":9925:9939   */\n      gt\n        /* \"#utility.yul\":9953:9954   */\n      0x01\n        /* \"#utility.yul\":9948:10566   */\n      dup2\n      eq\n      tag_213\n      jumpi\n        /* \"#utility.yul\":10610:10611   */\n      0x00\n        /* \"#utility.yul\":10627:10633   */\n      dup5\n        /* \"#utility.yul\":10624:10701   */\n      iszero\n      tag_214\n      jumpi\n        /* \"#utility.yul\":10676:10685   */\n      dup3\n        /* \"#utility.yul\":10671:10674   */\n      dup8\n        /* \"#utility.yul\":10667:10686   */\n      add\n        /* \"#utility.yul\":10661:10687   */\n      mload\n        /* \"#utility.yul\":10652:10687   */\n      swap1\n      pop\n        /* \"#utility.yul\":10624:10701   */\n    tag_214:\n        /* \"#utility.yul\":10727:10794   */\n      tag_215\n        /* \"#utility.yul\":10787:10793   */\n      dup6\n        /* \"#utility.yul\":10780:10785   */\n      dup3\n        /* \"#utility.yul\":10727:10794   */\n      tag_100\n      jump\t// in\n    tag_215:\n        /* \"#utility.yul\":10721:10725   */\n      dup7\n        /* \"#utility.yul\":10714:10795   */\n      sstore\n        /* \"#utility.yul\":10583:10805   */\n      pop\n        /* \"#utility.yul\":9918:10805   */\n      jump(tag_212)\n        /* \"#utility.yul\":9948:10566   */\n    tag_213:\n        /* \"#utility.yul\":10000:10004   */\n      0x1f\n        /* \"#utility.yul\":9996:10005   */\n      not\n        /* \"#utility.yul\":9988:9994   */\n      dup5\n        /* \"#utility.yul\":9984:10006   */\n      and\n        /* \"#utility.yul\":10034:10071   */\n      tag_216\n        /* \"#utility.yul\":10066:10070   */\n      dup7\n        /* \"#utility.yul\":10034:10071   */\n      tag_86\n      jump\t// in\n    tag_216:\n        /* \"#utility.yul\":10093:10094   */\n      0x00\n        /* \"#utility.yul\":10107:10315   */\n    tag_217:\n        /* \"#utility.yul\":10121:10128   */\n      dup3\n        /* \"#utility.yul\":10118:10119   */\n      dup2\n        /* \"#utility.yul\":10115:10129   */\n      lt\n        /* \"#utility.yul\":10107:10315   */\n      iszero\n      tag_219\n      jumpi\n        /* \"#utility.yul\":10200:10209   */\n      dup5\n        /* \"#utility.yul\":10195:10198   */\n      dup10\n        /* \"#utility.yul\":10191:10210   */\n      add\n        /* \"#utility.yul\":10185:10211   */\n      mload\n        /* \"#utility.yul\":10177:10183   */\n      dup3\n        /* \"#utility.yul\":10170:10212   */\n      sstore\n        /* \"#utility.yul\":10251:10252   */\n      0x01\n        /* \"#utility.yul\":10243:10249   */\n      dup3\n        /* \"#utility.yul\":10239:10253   */\n      add\n        /* \"#utility.yul\":10229:10253   */\n      swap2\n      pop\n        /* \"#utility.yul\":10298:10300   */\n      0x20\n        /* \"#utility.yul\":10287:10296   */\n      dup6\n        /* \"#utility.yul\":10283:10301   */\n      add\n        /* \"#utility.yul\":10270:10301   */\n      swap5\n      pop\n        /* \"#utility.yul\":10144:10148   */\n      0x20\n        /* \"#utility.yul\":10141:10142   */\n      dup2\n        /* \"#utility.yul\":10137:10149   */\n      add\n        /* \"#utility.yul\":10132:10149   */\n      swap1\n      pop\n        /* \"#utility.yul\":10107:10315   */\n      jump(tag_217)\n    tag_219:\n        /* \"#utility.yul\":10343:10349   */\n      dup7\n        /* \"#utility.yul\":10334:10341   */\n      dup4\n        /* \"#utility.yul\":10331:10350   */\n      lt\n        /* \"#utility.yul\":10328:10507   */\n      iszero\n      tag_220\n      jumpi\n        /* \"#utility.yul\":10401:10410   */\n      dup5\n        /* \"#utility.yul\":10396:10399   */\n      dup10\n        /* \"#utility.yul\":10392:10411   */\n      add\n        /* \"#utility.yul\":10386:10412   */\n      mload\n        /* \"#utility.yul\":10444:10492   */\n      tag_221\n        /* \"#utility.yul\":10486:10490   */\n      0x1f\n        /* \"#utility.yul\":10478:10484   */\n      dup10\n        /* \"#utility.yul\":10474:10491   */\n      and\n        /* \"#utility.yul\":10463:10472   */\n      dup3\n        /* \"#utility.yul\":10444:10492   */\n      tag_99\n      jump\t// in\n    tag_221:\n        /* \"#utility.yul\":10436:10442   */\n      dup4\n        /* \"#utility.yul\":10429:10493   */\n      sstore\n        /* \"#utility.yul\":10351:10507   */\n      pop\n        /* \"#utility.yul\":10328:10507   */\n    tag_220:\n        /* \"#utility.yul\":10553:10554   */\n      0x01\n        /* \"#utility.yul\":10549:10550   */\n      0x02\n        /* \"#utility.yul\":10541:10547   */\n      dup9\n        /* \"#utility.yul\":10537:10551   */\n      mul\n        /* \"#utility.yul\":10533:10555   */\n      add\n        /* \"#utility.yul\":10527:10531   */\n      dup9\n        /* \"#utility.yul\":10520:10556   */\n      sstore\n        /* \"#utility.yul\":9955:10566   */\n      pop\n      pop\n      pop\n        /* \"#utility.yul\":9918:10805   */\n    tag_212:\n      pop\n        /* \"#utility.yul\":9508:10811   */\n      pop\n      pop\n      pop\n        /* \"#utility.yul\":9416:10811   */\n      pop\n      pop\n      jump\t// out\n        /* \"#utility.yul\":10817:10997   */\n    tag_50:\n        /* \"#utility.yul\":10865:10942   */\n      0x4e487b7100000000000000000000000000000000000000000000000000000000\n        /* \"#utility.yul\":10862:10863   */\n      0x00\n        /* \"#utility.yul\":10855:10943   */\n      mstore\n        /* \"#utility.yul\":10962:10966   */\n      0x32\n        /* \"#utility.yul\":10959:10960   */\n      0x04\n        /* \"#utility.yul\":10952:10967   */\n      mstore\n        /* \"#utility.yul\":10986:10990   */\n      0x24\n        /* \"#utility.yul\":10983:10984   */\n      0x00\n        /* \"#utility.yul\":10976:10991   */\n      revert\n\n    auxdata: 0xa2646970667358221220356014e55d95c3740bfbd1866c400db86df5cd4c0500d37e8a6334ef108db8b664736f6c63430008220033\n}\n",
				"bytecode": {
					"linkReferences": {},
					"object": "6080604052348015600e575f5ffd5b50610a1a8061001c5f395ff3fe608060405234801561000f575f5ffd5b506004361061004a575f3560e01c8063079eaf341461004e5780634622ab031461006a578063695a7d491461009a578063b0467deb146100ca575b5f5ffd5b61006860048036038101906100639190610551565b6100fb565b005b610084600480360381019061007f91906105fa565b610162565b6040516100919190610685565b60405180910390f35b6100b460048036038101906100af91906105fa565b610207565b6040516100c19190610685565b60405180910390f35b6100e460048036038101906100df91906105fa565b6102ad565b6040516100f29291906106a5565b60405180910390f35b5f82908060018154018082558091505060019003905f5260205f20015f90919091909150908161012b91906108e8565b50600181908060018154018082558091505060019003905f5260205f20015f90919091909150908161015d91906108e8565b505050565b5f8181548110610170575f80fd5b905f5260205f20015f91509050805461018890610707565b80601f01602080910402602001604051908101604052809291908181526020018280546101b490610707565b80156101ff5780601f106101d6576101008083540402835291602001916101ff565b820191905f5260205f20905b8154815290600101906020018083116101e257829003601f168201915b505050505081565b60018181548110610216575f80fd5b905f5260205f20015f91509050805461022e90610707565b80601f016020809104026020016040519081016040528092919081815260200182805461025a90610707565b80156102a55780601f1061027c576101008083540402835291602001916102a5565b820191905f5260205f20905b81548152906001019060200180831161028857829003601f168201915b505050505081565b6060805f83815481106102c3576102c26109b7565b5b905f5260205f2001600184815481106102df576102de6109b7565b5b905f5260205f20018180546102f390610707565b80601f016020809104026020016040519081016040528092919081815260200182805461031f90610707565b801561036a5780601f106103415761010080835404028352916020019161036a565b820191905f5260205f20905b81548152906001019060200180831161034d57829003601f168201915b5050505050915080805461037d90610707565b80601f01602080910402602001604051908101604052809291908181526020018280546103a990610707565b80156103f45780601f106103cb576101008083540402835291602001916103f4565b820191905f5260205f20905b8154815290600101906020018083116103d757829003601f168201915b5050505050905091509150915091565b5f604051905090565b5f5ffd5b5f5ffd5b5f5ffd5b5f5ffd5b5f601f19601f8301169050919050565b7f4e487b71000000000000000000000000000000000000000000000000000000005f52604160045260245ffd5b6104638261041d565b810181811067ffffffffffffffff821117156104825761048161042d565b5b80604052505050565b5f610494610404565b90506104a0828261045a565b919050565b5f67ffffffffffffffff8211156104bf576104be61042d565b5b6104c88261041d565b9050602081019050919050565b828183375f83830152505050565b5f6104f56104f0846104a5565b61048b565b90508281526020810184848401111561051157610510610419565b5b61051c8482856104d5565b509392505050565b5f82601f83011261053857610537610415565b5b81356105488482602086016104e3565b91505092915050565b5f5f604083850312156105675761056661040d565b5b5f83013567ffffffffffffffff81111561058457610583610411565b5b61059085828601610524565b925050602083013567ffffffffffffffff8111156105b1576105b0610411565b5b6105bd85828601610524565b9150509250929050565b5f819050919050565b6105d9816105c7565b81146105e3575f5ffd5b50565b5f813590506105f4816105d0565b92915050565b5f6020828403121561060f5761060e61040d565b5b5f61061c848285016105e6565b91505092915050565b5f81519050919050565b5f82825260208201905092915050565b8281835e5f83830152505050565b5f61065782610625565b610661818561062f565b935061067181856020860161063f565b61067a8161041d565b840191505092915050565b5f6020820190508181035f83015261069d818461064d565b905092915050565b5f6040820190508181035f8301526106bd818561064d565b905081810360208301526106d1818461064d565b90509392505050565b7f4e487b71000000000000000000000000000000000000000000000000000000005f52602260045260245ffd5b5f600282049050600182168061071e57607f821691505b602082108103610731576107306106da565b5b50919050565b5f819050815f5260205f209050919050565b5f6020601f8301049050919050565b5f82821b905092915050565b5f600883026107937fffffffffffffffffffffffffffffffffffffffffffffffffffffffffffffffff82610758565b61079d8683610758565b95508019841693508086168417925050509392505050565b5f819050919050565b5f6107d86107d36107ce846105c7565b6107b5565b6105c7565b9050919050565b5f819050919050565b6107f1836107be565b6108056107fd826107df565b848454610764565b825550505050565b5f5f905090565b61081c61080d565b6108278184846107e8565b505050565b5f5b8281101561084d576108425f828401610814565b60018101905061082e565b505050565b601f8211156108a0578282111561089f5761086c81610737565b61087583610749565b61087e85610749565b602086101561088b575f90505b80830161089a8284038261082c565b505050505b5b505050565b5f82821c905092915050565b5f6108c05f19846008026108a5565b1980831691505092915050565b5f6108d883836108b1565b9150826002028217905092915050565b6108f182610625565b67ffffffffffffffff81111561090a5761090961042d565b5b6109148254610707565b61091f828285610852565b5f60209050601f831160018114610950575f841561093e578287015190505b61094885826108cd565b8655506109af565b601f19841661095e86610737565b5f5b8281101561098557848901518255600182019150602085019450602081019050610960565b868310156109a2578489015161099e601f8916826108b1565b8355505b6001600288020188555050505b505050505050565b7f4e487b71000000000000000000000000000000000000000000000000000000005f52603260045260245ffdfea2646970667358221220356014e55d95c3740bfbd1866c400db86df5cd4c0500d37e8a6334ef108db8b664736f6c63430008220033",
					"opcodes": "PUSH1 0x80 PUSH1 0x40 MSTORE CALLVALUE DUP1 ISZERO PUSH1 0xE JUMPI PUSH0 PUSH0 REVERT JUMPDEST POP PUSH2 0xA1A DUP1 PUSH2 0x1C PUSH0 CODECOPY PUSH0 RETURN INVALID PUSH1 0x80 PUSH1 0x40 MSTORE CALLVALUE DUP1 ISZERO PUSH2 0xF JUMPI PUSH0 PUSH0 REVERT JUMPDEST POP PUSH1 0x4 CALLDATASIZE LT PUSH2 0x4A JUMPI PUSH0 CALLDATALOAD PUSH1 0xE0 SHR DUP1 PUSH4 0x79EAF34 EQ PUSH2 0x4E JUMPI DUP1 PUSH4 0x4622AB03 EQ PUSH2 0x6A JUMPI DUP1 PUSH4 0x695A7D49 EQ PUSH2 0x9A JUMPI DUP1 PUSH4 0xB0467DEB EQ PUSH2 0xCA JUMPI JUMPDEST PUSH0 PUSH0 REVERT JUMPDEST PUSH2 0x68 PUSH1 0x4 DUP1 CALLDATASIZE SUB DUP2 ADD SWAP1 PUSH2 0x63 SWAP2 SWAP1 PUSH2 0x551 JUMP JUMPDEST PUSH2 0xFB JUMP JUMPDEST STOP JUMPDEST PUSH2 0x84 PUSH1 0x4 DUP1 CALLDATASIZE SUB DUP2 ADD SWAP1 PUSH2 0x7F SWAP2 SWAP1 PUSH2 0x5FA JUMP JUMPDEST PUSH2 0x162 JUMP JUMPDEST PUSH1 0x40 MLOAD PUSH2 0x91 SWAP2 SWAP1 PUSH2 0x685 JUMP JUMPDEST PUSH1 0x40 MLOAD DUP1 SWAP2 SUB SWAP1 RETURN JUMPDEST PUSH2 0xB4 PUSH1 0x4 DUP1 CALLDATASIZE SUB DUP2 ADD SWAP1 PUSH2 0xAF SWAP2 SWAP1 PUSH2 0x5FA JUMP JUMPDEST PUSH2 0x207 JUMP JUMPDEST PUSH1 0x40 MLOAD PUSH2 0xC1 SWAP2 SWAP1 PUSH2 0x685 JUMP JUMPDEST PUSH1 0x40 MLOAD DUP1 SWAP2 SUB SWAP1 RETURN JUMPDEST PUSH2 0xE4 PUSH1 0x4 DUP1 CALLDATASIZE SUB DUP2 ADD SWAP1 PUSH2 0xDF SWAP2 SWAP1 PUSH2 0x5FA JUMP JUMPDEST PUSH2 0x2AD JUMP JUMPDEST PUSH1 0x40 MLOAD PUSH2 0xF2 SWAP3 SWAP2 SWAP1 PUSH2 0x6A5 JUMP JUMPDEST PUSH1 0x40 MLOAD DUP1 SWAP2 SUB SWAP1 RETURN JUMPDEST PUSH0 DUP3 SWAP1 DUP1 PUSH1 0x1 DUP2 SLOAD ADD DUP1 DUP3 SSTORE DUP1 SWAP2 POP POP PUSH1 0x1 SWAP1 SUB SWAP1 PUSH0 MSTORE PUSH1 0x20 PUSH0 KECCAK256 ADD PUSH0 SWAP1 SWAP2 SWAP1 SWAP2 SWAP1 SWAP2 POP SWAP1 DUP2 PUSH2 0x12B SWAP2 SWAP1 PUSH2 0x8E8 JUMP JUMPDEST POP PUSH1 0x1 DUP2 SWAP1 DUP1 PUSH1 0x1 DUP2 SLOAD ADD DUP1 DUP3 SSTORE DUP1 SWAP2 POP POP PUSH1 0x1 SWAP1 SUB SWAP1 PUSH0 MSTORE PUSH1 0x20 PUSH0 KECCAK256 ADD PUSH0 SWAP1 SWAP2 SWAP1 SWAP2 SWAP1 SWAP2 POP SWAP1 DUP2 PUSH2 0x15D SWAP2 SWAP1 PUSH2 0x8E8 JUMP JUMPDEST POP POP POP JUMP JUMPDEST PUSH0 DUP2 DUP2 SLOAD DUP2 LT PUSH2 0x170 JUMPI PUSH0 DUP1 REVERT JUMPDEST SWAP1 PUSH0 MSTORE PUSH1 0x20 PUSH0 KECCAK256 ADD PUSH0 SWAP2 POP SWAP1 POP DUP1 SLOAD PUSH2 0x188 SWAP1 PUSH2 0x707 JUMP JUMPDEST DUP1 PUSH1 0x1F ADD PUSH1 0x20 DUP1 SWAP2 DIV MUL PUSH1 0x20 ADD PUSH1 0x40 MLOAD SWAP1 DUP2 ADD PUSH1 0x40 MSTORE DUP1 SWAP3 SWAP2 SWAP1 DUP2 DUP2 MSTORE PUSH1 0x20 ADD DUP3 DUP1 SLOAD PUSH2 0x1B4 SWAP1 PUSH2 0x707 JUMP JUMPDEST DUP1 ISZERO PUSH2 0x1FF JUMPI DUP1 PUSH1 0x1F LT PUSH2 0x1D6 JUMPI PUSH2 0x100 DUP1 DUP4 SLOAD DIV MUL DUP4 MSTORE SWAP2 PUSH1 0x20 ADD SWAP2 PUSH2 0x1FF JUMP JUMPDEST DUP3 ADD SWAP2 SWAP1 PUSH0 MSTORE PUSH1 0x20 PUSH0 KECCAK256 SWAP1 JUMPDEST DUP2 SLOAD DUP2 MSTORE SWAP1 PUSH1 0x1 ADD SWAP1 PUSH1 0x20 ADD DUP1 DUP4 GT PUSH2 0x1E2 JUMPI DUP3 SWAP1 SUB PUSH1 0x1F AND DUP3 ADD SWAP2 JUMPDEST POP POP POP POP POP DUP2 JUMP JUMPDEST PUSH1 0x1 DUP2 DUP2 SLOAD DUP2 LT PUSH2 0x216 JUMPI PUSH0 DUP1 REVERT JUMPDEST SWAP1 PUSH0 MSTORE PUSH1 0x20 PUSH0 KECCAK256 ADD PUSH0 SWAP2 POP SWAP1 POP DUP1 SLOAD PUSH2 0x22E SWAP1 PUSH2 0x707 JUMP JUMPDEST DUP1 PUSH1 0x1F ADD PUSH1 0x20 DUP1 SWAP2 DIV MUL PUSH1 0x20 ADD PUSH1 0x40 MLOAD SWAP1 DUP2 ADD PUSH1 0x40 MSTORE DUP1 SWAP3 SWAP2 SWAP1 DUP2 DUP2 MSTORE PUSH1 0x20 ADD DUP3 DUP1 SLOAD PUSH2 0x25A SWAP1 PUSH2 0x707 JUMP JUMPDEST DUP1 ISZERO PUSH2 0x2A5 JUMPI DUP1 PUSH1 0x1F LT PUSH2 0x27C JUMPI PUSH2 0x100 DUP1 DUP4 SLOAD DIV MUL DUP4 MSTORE SWAP2 PUSH1 0x20 ADD SWAP2 PUSH2 0x2A5 JUMP JUMPDEST DUP3 ADD SWAP2 SWAP1 PUSH0 MSTORE PUSH1 0x20 PUSH0 KECCAK256 SWAP1 JUMPDEST DUP2 SLOAD DUP2 MSTORE SWAP1 PUSH1 0x1 ADD SWAP1 PUSH1 0x20 ADD DUP1 DUP4 GT PUSH2 0x288 JUMPI DUP3 SWAP1 SUB PUSH1 0x1F AND DUP3 ADD SWAP2 JUMPDEST POP POP POP POP POP DUP2 JUMP JUMPDEST PUSH1 0x60 DUP1 PUSH0 DUP4 DUP2 SLOAD DUP2 LT PUSH2 0x2C3 JUMPI PUSH2 0x2C2 PUSH2 0x9B7 JUMP JUMPDEST JUMPDEST SWAP1 PUSH0 MSTORE PUSH1 0x20 PUSH0 KECCAK256 ADD PUSH1 0x1 DUP5 DUP2 SLOAD DUP2 LT PUSH2 0x2DF JUMPI PUSH2 0x2DE PUSH2 0x9B7 JUMP JUMPDEST JUMPDEST SWAP1 PUSH0 MSTORE PUSH1 0x20 PUSH0 KECCAK256 ADD DUP2 DUP1 SLOAD PUSH2 0x2F3 SWAP1 PUSH2 0x707 JUMP JUMPDEST DUP1 PUSH1 0x1F ADD PUSH1 0x20 DUP1 SWAP2 DIV MUL PUSH1 0x20 ADD PUSH1 0x40 MLOAD SWAP1 DUP2 ADD PUSH1 0x40 MSTORE DUP1 SWAP3 SWAP2 SWAP1 DUP2 DUP2 MSTORE PUSH1 0x20 ADD DUP3 DUP1 SLOAD PUSH2 0x31F SWAP1 PUSH2 0x707 JUMP JUMPDEST DUP1 ISZERO PUSH2 0x36A JUMPI DUP1 PUSH1 0x1F LT PUSH2 0x341 JUMPI PUSH2 0x100 DUP1 DUP4 SLOAD DIV MUL DUP4 MSTORE SWAP2 PUSH1 0x20 ADD SWAP2 PUSH2 0x36A JUMP JUMPDEST DUP3 ADD SWAP2 SWAP1 PUSH0 MSTORE PUSH1 0x20 PUSH0 KECCAK256 SWAP1 JUMPDEST DUP2 SLOAD DUP2 MSTORE SWAP1 PUSH1 0x1 ADD SWAP1 PUSH1 0x20 ADD DUP1 DUP4 GT PUSH2 0x34D JUMPI DUP3 SWAP1 SUB PUSH1 0x1F AND DUP3 ADD SWAP2 JUMPDEST POP POP POP POP POP SWAP2 POP DUP1 DUP1 SLOAD PUSH2 0x37D SWAP1 PUSH2 0x707 JUMP JUMPDEST DUP1 PUSH1 0x1F ADD PUSH1 0x20 DUP1 SWAP2 DIV MUL PUSH1 0x20 ADD PUSH1 0x40 MLOAD SWAP1 DUP2 ADD PUSH1 0x40 MSTORE DUP1 SWAP3 SWAP2 SWAP1 DUP2 DUP2 MSTORE PUSH1 0x20 ADD DUP3 DUP1 SLOAD PUSH2 0x3A9 SWAP1 PUSH2 0x707 JUMP JUMPDEST DUP1 ISZERO PUSH2 0x3F4 JUMPI DUP1 PUSH1 0x1F LT PUSH2 0x3CB JUMPI PUSH2 0x100 DUP1 DUP4 SLOAD DIV MUL DUP4 MSTORE SWAP2 PUSH1 0x20 ADD SWAP2 PUSH2 0x3F4 JUMP JUMPDEST DUP3 ADD SWAP2 SWAP1 PUSH0 MSTORE PUSH1 0x20 PUSH0 KECCAK256 SWAP1 JUMPDEST DUP2 SLOAD DUP2 MSTORE SWAP1 PUSH1 0x1 ADD SWAP1 PUSH1 0x20 ADD DUP1 DUP4 GT PUSH2 0x3D7 JUMPI DUP3 SWAP1 SUB PUSH1 0x1F AND DUP3 ADD SWAP2 JUMPDEST POP POP POP POP POP SWAP1 POP SWAP2 POP SWAP2 POP SWAP2 POP SWAP2 JUMP JUMPDEST PUSH0 PUSH1 0x40 MLOAD SWAP1 POP SWAP1 JUMP JUMPDEST PUSH0 PUSH0 REVERT JUMPDEST PUSH0 PUSH0 REVERT JUMPDEST PUSH0 PUSH0 REVERT JUMPDEST PUSH0 PUSH0 REVERT JUMPDEST PUSH0 PUSH1 0x1F NOT PUSH1 0x1F DUP4 ADD AND SWAP1 POP SWAP2 SWAP1 POP JUMP JUMPDEST PUSH32 0x4E487B7100000000000000000000000000000000000000000000000000000000 PUSH0 MSTORE PUSH1 0x41 PUSH1 0x4 MSTORE PUSH1 0x24 PUSH0 REVERT JUMPDEST PUSH2 0x463 DUP3 PUSH2 0x41D JUMP JUMPDEST DUP2 ADD DUP2 DUP2 LT PUSH8 0xFFFFFFFFFFFFFFFF DUP3 GT OR ISZERO PUSH2 0x482 JUMPI PUSH2 0x481 PUSH2 0x42D JUMP JUMPDEST JUMPDEST DUP1 PUSH1 0x40 MSTORE POP POP POP JUMP JUMPDEST PUSH0 PUSH2 0x494 PUSH2 0x404 JUMP JUMPDEST SWAP1 POP PUSH2 0x4A0 DUP3 DUP3 PUSH2 0x45A JUMP JUMPDEST SWAP2 SWAP1 POP JUMP JUMPDEST PUSH0 PUSH8 0xFFFFFFFFFFFFFFFF DUP3 GT ISZERO PUSH2 0x4BF JUMPI PUSH2 0x4BE PUSH2 0x42D JUMP JUMPDEST JUMPDEST PUSH2 0x4C8 DUP3 PUSH2 0x41D JUMP JUMPDEST SWAP1 POP PUSH1 0x20 DUP2 ADD SWAP1 POP SWAP2 SWAP1 POP JUMP JUMPDEST DUP3 DUP2 DUP4 CALLDATACOPY PUSH0 DUP4 DUP4 ADD MSTORE POP POP POP JUMP JUMPDEST PUSH0 PUSH2 0x4F5 PUSH2 0x4F0 DUP5 PUSH2 0x4A5 JUMP JUMPDEST PUSH2 0x48B JUMP JUMPDEST SWAP1 POP DUP3 DUP2 MSTORE PUSH1 0x20 DUP2 ADD DUP5 DUP5 DUP5 ADD GT ISZERO PUSH2 0x511 JUMPI PUSH2 0x510 PUSH2 0x419 JUMP JUMPDEST JUMPDEST PUSH2 0x51C DUP5 DUP3 DUP6 PUSH2 0x4D5 JUMP JUMPDEST POP SWAP4 SWAP3 POP POP POP JUMP JUMPDEST PUSH0 DUP3 PUSH1 0x1F DUP4 ADD SLT PUSH2 0x538 JUMPI PUSH2 0x537 PUSH2 0x415 JUMP JUMPDEST JUMPDEST DUP2 CALLDATALOAD PUSH2 0x548 DUP5 DUP3 PUSH1 0x20 DUP7 ADD PUSH2 0x4E3 JUMP JUMPDEST SWAP2 POP POP SWAP3 SWAP2 POP POP JUMP JUMPDEST PUSH0 PUSH0 PUSH1 0x40 DUP4 DUP6 SUB SLT ISZERO PUSH2 0x567 JUMPI PUSH2 0x566 PUSH2 0x40D JUMP JUMPDEST JUMPDEST PUSH0 DUP4 ADD CALLDATALOAD PUSH8 0xFFFFFFFFFFFFFFFF DUP2 GT ISZERO PUSH2 0x584 JUMPI PUSH2 0x583 PUSH2 0x411 JUMP JUMPDEST JUMPDEST PUSH2 0x590 DUP6 DUP3 DUP7 ADD PUSH2 0x524 JUMP JUMPDEST SWAP3 POP POP PUSH1 0x20 DUP4 ADD CALLDATALOAD PUSH8 0xFFFFFFFFFFFFFFFF DUP2 GT ISZERO PUSH2 0x5B1 JUMPI PUSH2 0x5B0 PUSH2 0x411 JUMP JUMPDEST JUMPDEST PUSH2 0x5BD DUP6 DUP3 DUP7 ADD PUSH2 0x524 JUMP JUMPDEST SWAP2 POP POP SWAP3 POP SWAP3 SWAP1 POP JUMP JUMPDEST PUSH0 DUP2 SWAP1 POP SWAP2 SWAP1 POP JUMP JUMPDEST PUSH2 0x5D9 DUP2 PUSH2 0x5C7 JUMP JUMPDEST DUP2 EQ PUSH2 0x5E3 JUMPI PUSH0 PUSH0 REVERT JUMPDEST POP JUMP JUMPDEST PUSH0 DUP2 CALLDATALOAD SWAP1 POP PUSH2 0x5F4 DUP2 PUSH2 0x5D0 JUMP JUMPDEST SWAP3 SWAP2 POP POP JUMP JUMPDEST PUSH0 PUSH1 0x20 DUP3 DUP5 SUB SLT ISZERO PUSH2 0x60F JUMPI PUSH2 0x60E PUSH2 0x40D JUMP JUMPDEST JUMPDEST PUSH0 PUSH2 0x61C DUP5 DUP3 DUP6 ADD PUSH2 0x5E6 JUMP JUMPDEST SWAP2 POP POP SWAP3 SWAP2 POP POP JUMP JUMPDEST PUSH0 DUP2 MLOAD SWAP1 POP SWAP2 SWAP1 POP JUMP JUMPDEST PUSH0 DUP3 DUP3 MSTORE PUSH1 0x20 DUP3 ADD SWAP1 POP SWAP3 SWAP2 POP POP JUMP JUMPDEST DUP3 DUP2 DUP4 MCOPY PUSH0 DUP4 DUP4 ADD MSTORE POP POP POP JUMP JUMPDEST PUSH0 PUSH2 0x657 DUP3 PUSH2 0x625 JUMP JUMPDEST PUSH2 0x661 DUP2 DUP6 PUSH2 0x62F JUMP JUMPDEST SWAP4 POP PUSH2 0x671 DUP2 DUP6 PUSH1 0x20 DUP7 ADD PUSH2 0x63F JUMP JUMPDEST PUSH2 0x67A DUP2 PUSH2 0x41D JUMP JUMPDEST DUP5 ADD SWAP2 POP POP SWAP3 SWAP2 POP POP JUMP JUMPDEST PUSH0 PUSH1 0x20 DUP3 ADD SWAP1 POP DUP2 DUP2 SUB PUSH0 DUP4 ADD MSTORE PUSH2 0x69D DUP2 DUP5 PUSH2 0x64D JUMP JUMPDEST SWAP1 POP SWAP3 SWAP2 POP POP JUMP JUMPDEST PUSH0 PUSH1 0x40 DUP3 ADD SWAP1 POP DUP2 DUP2 SUB PUSH0 DUP4 ADD MSTORE PUSH2 0x6BD DUP2 DUP6 PUSH2 0x64D JUMP JUMPDEST SWAP1 POP DUP2 DUP2 SUB PUSH1 0x20 DUP4 ADD MSTORE PUSH2 0x6D1 DUP2 DUP5 PUSH2 0x64D JUMP JUMPDEST SWAP1 POP SWAP4 SWAP3 POP POP POP JUMP JUMPDEST PUSH32 0x4E487B7100000000000000000000000000000000000000000000000000000000 PUSH0 MSTORE PUSH1 0x22 PUSH1 0x4 MSTORE PUSH1 0x24 PUSH0 REVERT JUMPDEST PUSH0 PUSH1 0x2 DUP3 DIV SWAP1 POP PUSH1 0x1 DUP3 AND DUP1 PUSH2 0x71E JUMPI PUSH1 0x7F DUP3 AND SWAP2 POP JUMPDEST PUSH1 0x20 DUP3 LT DUP2 SUB PUSH2 0x731 JUMPI PUSH2 0x730 PUSH2 0x6DA JUMP JUMPDEST JUMPDEST POP SWAP2 SWAP1 POP JUMP JUMPDEST PUSH0 DUP2 SWAP1 POP DUP2 PUSH0 MSTORE PUSH1 0x20 PUSH0 KECCAK256 SWAP1 POP SWAP2 SWAP1 POP JUMP JUMPDEST PUSH0 PUSH1 0x20 PUSH1 0x1F DUP4 ADD DIV SWAP1 POP SWAP2 SWAP1 POP JUMP JUMPDEST PUSH0 DUP3 DUP3 SHL SWAP1 POP SWAP3 SWAP2 POP POP JUMP JUMPDEST PUSH0 PUSH1 0x8 DUP4 MUL PUSH2 0x793 PUSH32 0xFFFFFFFFFFFFFFFFFFFFFFFFFFFFFFFFFFFFFFFFFFFFFFFFFFFFFFFFFFFFFFFF DUP3 PUSH2 0x758 JUMP JUMPDEST PUSH2 0x79D DUP7 DUP4 PUSH2 0x758 JUMP JUMPDEST SWAP6 POP DUP1 NOT DUP5 AND SWAP4 POP DUP1 DUP7 AND DUP5 OR SWAP3 POP POP POP SWAP4 SWAP3 POP POP POP JUMP JUMPDEST PUSH0 DUP2 SWAP1 POP SWAP2 SWAP1 POP JUMP JUMPDEST PUSH0 PUSH2 0x7D8 PUSH2 0x7D3 PUSH2 0x7CE DUP5 PUSH2 0x5C7 JUMP JUMPDEST PUSH2 0x7B5 JUMP JUMPDEST PUSH2 0x5C7 JUMP JUMPDEST SWAP1 POP SWAP2 SWAP1 POP JUMP JUMPDEST PUSH0 DUP2 SWAP1 POP SWAP2 SWAP1 POP JUMP JUMPDEST PUSH2 0x7F1 DUP4 PUSH2 0x7BE JUMP JUMPDEST PUSH2 0x805 PUSH2 0x7FD DUP3 PUSH2 0x7DF JUMP JUMPDEST DUP5 DUP5 SLOAD PUSH2 0x764 JUMP JUMPDEST DUP3 SSTORE POP POP POP POP JUMP JUMPDEST PUSH0 PUSH0 SWAP1 POP SWAP1 JUMP JUMPDEST PUSH2 0x81C PUSH2 0x80D JUMP JUMPDEST PUSH2 0x827 DUP2 DUP5 DUP5 PUSH2 0x7E8 JUMP JUMPDEST POP POP POP JUMP JUMPDEST PUSH0 JUMPDEST DUP3 DUP2 LT ISZERO PUSH2 0x84D JUMPI PUSH2 0x842 PUSH0 DUP3 DUP5 ADD PUSH2 0x814 JUMP JUMPDEST PUSH1 0x1 DUP2 ADD SWAP1 POP PUSH2 0x82E JUMP JUMPDEST POP POP POP JUMP JUMPDEST PUSH1 0x1F DUP3 GT ISZERO PUSH2 0x8A0 JUMPI DUP3 DUP3 GT ISZERO PUSH2 0x89F JUMPI PUSH2 0x86C DUP2 PUSH2 0x737 JUMP JUMPDEST PUSH2 0x875 DUP4 PUSH2 0x749 JUMP JUMPDEST PUSH2 0x87E DUP6 PUSH2 0x749 JUMP JUMPDEST PUSH1 0x20 DUP7 LT ISZERO PUSH2 0x88B JUMPI PUSH0 SWAP1 POP JUMPDEST DUP1 DUP4 ADD PUSH2 0x89A DUP3 DUP5 SUB DUP3 PUSH2 0x82C JUMP JUMPDEST POP POP POP POP JUMPDEST JUMPDEST POP POP POP JUMP JUMPDEST PUSH0 DUP3 DUP3 SHR SWAP1 POP SWAP3 SWAP2 POP POP JUMP JUMPDEST PUSH0 PUSH2 0x8C0 PUSH0 NOT DUP5 PUSH1 0x8 MUL PUSH2 0x8A5 JUMP JUMPDEST NOT DUP1 DUP4 AND SWAP2 POP POP SWAP3 SWAP2 POP POP JUMP JUMPDEST PUSH0 PUSH2 0x8D8 DUP4 DUP4 PUSH2 0x8B1 JUMP JUMPDEST SWAP2 POP DUP3 PUSH1 0x2 MUL DUP3 OR SWAP1 POP SWAP3 SWAP2 POP POP JUMP JUMPDEST PUSH2 0x8F1 DUP3 PUSH2 0x625 JUMP JUMPDEST PUSH8 0xFFFFFFFFFFFFFFFF DUP2 GT ISZERO PUSH2 0x90A JUMPI PUSH2 0x909 PUSH2 0x42D JUMP JUMPDEST JUMPDEST PUSH2 0x914 DUP3 SLOAD PUSH2 0x707 JUMP JUMPDEST PUSH2 0x91F DUP3 DUP3 DUP6 PUSH2 0x852 JUMP JUMPDEST PUSH0 PUSH1 0x20 SWAP1 POP PUSH1 0x1F DUP4 GT PUSH1 0x1 DUP2 EQ PUSH2 0x950 JUMPI PUSH0 DUP5 ISZERO PUSH2 0x93E JUMPI DUP3 DUP8 ADD MLOAD SWAP1 POP JUMPDEST PUSH2 0x948 DUP6 DUP3 PUSH2 0x8CD JUMP JUMPDEST DUP7 SSTORE POP PUSH2 0x9AF JUMP JUMPDEST PUSH1 0x1F NOT DUP5 AND PUSH2 0x95E DUP7 PUSH2 0x737 JUMP JUMPDEST PUSH0 JUMPDEST DUP3 DUP2 LT ISZERO PUSH2 0x985 JUMPI DUP5 DUP10 ADD MLOAD DUP3 SSTORE PUSH1 0x1 DUP3 ADD SWAP2 POP PUSH1 0x20 DUP6 ADD SWAP5 POP PUSH1 0x20 DUP2 ADD SWAP1 POP PUSH2 0x960 JUMP JUMPDEST DUP7 DUP4 LT ISZERO PUSH2 0x9A2 JUMPI DUP5 DUP10 ADD MLOAD PUSH2 0x99E PUSH1 0x1F DUP10 AND DUP3 PUSH2 0x8B1 JUMP JUMPDEST DUP4 SSTORE POP JUMPDEST PUSH1 0x1 PUSH1 0x2 DUP9 MUL ADD DUP9 SSTORE POP POP POP JUMPDEST POP POP POP POP POP POP JUMP JUMPDEST PUSH32 0x4E487B7100000000000000000000000000000000000000000000000000000000 PUSH0 MSTORE PUSH1 0x32 PUSH1 0x4 MSTORE PUSH1 0x24 PUSH0 REVERT INVALID LOG2 PUSH5 0x6970667358 0x22 SLT KECCAK256 CALLDATALOAD PUSH1 0x14 JUMPF 0x5D95 0xC3 PUSH21 0xBFBD1866C400DB86DF5CD4C0500D37E8A6334EF10 DUP14 0xB8 0xB6 PUSH5 0x736F6C6343 STOP ADDMOD 0x22 STOP CALLER "
				},
				"gasEstimates": {
					"creation": {
						"codeDepositCost": "517200",
						"executionCost": "547",
						"totalCost": "517747"
					},
					"external": {
						"addUser(string,string)": "infinite",
						"emails(uint256)": "infinite",
						"getUser(uint256)": "infinite",
						"names(uint256)": "infinite"
					}
				},
				"methodIdentifiers": {
					"addUser(string,string)": "079eaf34",
					"emails(uint256)": "695a7d49",
					"getUser(uint256)": "b0467deb",
					"names(uint256)": "4622ab03"
				}
			},
			"storageLayout": {
				"storage": [
					{
						"astId": 4,
						"contract": "userlist.sol:UserArray",
						"label": "names",
						"offset": 0,
						"slot": "0",
						"type": "t_array(t_string_storage)dyn_storage"
					},
					{
						"astId": 7,
						"contract": "userlist.sol:UserArray",
						"label": "emails",
						"offset": 0,
						"slot": "1",
						"type": "t_array(t_string_storage)dyn_storage"
					}
				],
				"types": {
					"t_array(t_string_storage)dyn_storage": {
						"base": "t_string_storage",
						"encoding": "dynamic_array",
						"label": "string[]",
						"numberOfBytes": "32"
					},
					"t_string_storage": {
						"encoding": "bytes",
						"label": "string",
						"numberOfBytes": "32"
					}
				}
			},
			"userdoc": {
				"kind": "user",
				"methods": {},
				"version": 1
			}
		}
	}
}