{
	"D_Blog.sol": {
		"Twitter": {
			"abi": [
				{
					"inputs": [],
					"name": "MAX_TWEET_LENGTH",
					"outputs": [
						{
							"internalType": "uint16",
							"name": "",
							"type": "uint16"
						}
					],
					"stateMutability": "view",
					"type": "function"
				},
				{
					"inputs": [
						{
							"internalType": "uint256",
							"name": "",
							"type": "uint256"
						}
					],
					"name": "allTweets",
					"outputs": [
						{
							"internalType": "uint256",
							"name": "id",
							"type": "uint256"
						},
						{
							"internalType": "address",
							"name": "author",
							"type": "address"
						},
						{
							"internalType": "string",
							"name": "content",
							"type": "string"
						},
						{
							"internalType": "uint256",
							"name": "timestamp",
							"type": "uint256"
						},
						{
							"internalType": "uint256",
							"name": "likes",
							"type": "uint256"
						}
					],
					"stateMutability": "view",
					"type": "function"
				},
				{
					"inputs": [
						{
							"internalType": "string",
							"name": "_tweet",
							"type": "string"
						}
					],
					"name": "createTweet",
					"outputs": [],
					"stateMutability": "nonpayable",
					"type": "function"
				},
				{
					"inputs": [
						{
							"internalType": "uint256",
							"name": "_id",
							"type": "uint256"
						}
					],
					"name": "dislikeTweet",
					"outputs": [],
					"stateMutability": "nonpayable",
					"type": "function"
				},
				{
					"inputs": [],
					"name": "getAllTweets",
					"outputs": [
						{
							"components": [
								{
									"internalType": "uint256",
									"name": "id",
									"type": "uint256"
								},
								{
									"internalType": "address",
									"name": "author",
									"type": "address"
								},
								{
									"internalType": "string",
									"name": "content",
									"type": "string"
								},
								{
									"internalType": "uint256",
									"name": "timestamp",
									"type": "uint256"
								},
								{
									"internalType": "uint256",
									"name": "likes",
									"type": "uint256"
								}
							],
							"internalType": "struct Twitter.Tweet[]",
							"name": "",
							"type": "tuple[]"
						}
					],
					"stateMutability": "view",
					"type": "function"
				},
				{
					"inputs": [
						{
							"internalType": "uint256",
							"name": "_id",
							"type": "uint256"
						}
					],
					"name": "likeTweet",
					"outputs": [],
					"stateMutability": "nonpayable",
					"type": "function"
				}
			],
			"devdoc": {
				"kind": "dev",
				"methods": {},
				"version": 1
			},
			"evm": {
				"assembly": "    /* \"D_Blog.sol\":60:1175  contract Twitter {... */\n  mstore(0x40, 0x80)\n    /* \"D_Blog.sol\":119:122  280 */\n  0x0118\n    /* \"D_Blog.sol\":86:122  uint16 public MAX_TWEET_LENGTH = 280 */\n  0x00\n  dup1\n  0x0100\n  exp\n  dup2\n  sload\n  dup2\n  0xffff\n  mul\n  not\n  and\n  swap1\n  dup4\n  0xffff\n  and\n  mul\n  or\n  swap1\n  sstore\n  pop\n    /* \"D_Blog.sol\":60:1175  contract Twitter {... */\n  callvalue\n  dup1\n  iszero\n  tag_1\n  jumpi\n  0x00\n  dup1\n  revert\ntag_1:\n  pop\n  dataSize(sub_0)\n  dup1\n  dataOffset(sub_0)\n  0x00\n  codecopy\n  0x00\n  return\nstop\n\nsub_0: assembly {\n        /* \"D_Blog.sol\":60:1175  contract Twitter {... */\n      mstore(0x40, 0x80)\n      callvalue\n      dup1\n      iszero\n      tag_1\n      jumpi\n      0x00\n      dup1\n      revert\n    tag_1:\n      pop\n      jumpi(tag_2, lt(calldatasize, 0x04))\n      shr(0xe0, calldataload(0x00))\n      dup1\n      0x21511a44\n      eq\n      tag_3\n      jumpi\n      dup1\n      0x53256135\n      eq\n      tag_4\n      jumpi\n      dup1\n      0x5ffc6ceb\n      eq\n      tag_5\n      jumpi\n      dup1\n      0x6eb10797\n      eq\n      tag_6\n      jumpi\n      dup1\n      0x7c9cd2bc\n      eq\n      tag_7\n      jumpi\n      dup1\n      0xe28350b7\n      eq\n      tag_8\n      jumpi\n    tag_2:\n      0x00\n      dup1\n      revert\n        /* \"D_Blog.sol\":861:1068  function dislikeTweet(uint _id) public {... */\n    tag_3:\n      tag_9\n      0x04\n      dup1\n      calldatasize\n      sub\n      dup2\n      add\n      swap1\n      tag_10\n      swap2\n      swap1\n      tag_11\n      jump\t// in\n    tag_10:\n      tag_12\n      jump\t// in\n    tag_9:\n      stop\n        /* \"D_Blog.sol\":1076:1172  function getAllTweets() public view returns (Tweet[] memory) {... */\n    tag_4:\n      tag_13\n      tag_14\n      jump\t// in\n    tag_13:\n      mload(0x40)\n      tag_15\n      swap2\n      swap1\n      tag_16\n      jump\t// in\n    tag_15:\n      mload(0x40)\n      dup1\n      swap2\n      sub\n      swap1\n      return\n        /* \"D_Blog.sol\":715:853  function likeTweet(uint _id) public {... */\n    tag_5:\n      tag_17\n      0x04\n      dup1\n      calldatasize\n      sub\n      dup2\n      add\n      swap1\n      tag_18\n      swap2\n      swap1\n      tag_11\n      jump\t// in\n    tag_18:\n      tag_19\n      jump\t// in\n    tag_17:\n      stop\n        /* \"D_Blog.sol\":86:122  uint16 public MAX_TWEET_LENGTH = 280 */\n    tag_6:\n      tag_20\n      tag_21\n      jump\t// in\n    tag_20:\n      mload(0x40)\n      tag_22\n      swap2\n      swap1\n      tag_23\n      jump\t// in\n    tag_22:\n      mload(0x40)\n      dup1\n      swap2\n      sub\n      swap1\n      return\n        /* \"D_Blog.sol\":313:707  function createTweet(string memory _tweet) public {... */\n    tag_7:\n      tag_24\n      0x04\n      dup1\n      calldatasize\n      sub\n      dup2\n      add\n      swap1\n      tag_25\n      swap2\n      swap1\n      tag_26\n      jump\t// in\n    tag_25:\n      tag_27\n      jump\t// in\n    tag_24:\n      stop\n        /* \"D_Blog.sol\":280:304  Tweet[] public allTweets */\n    tag_8:\n      tag_28\n      0x04\n      dup1\n      calldatasize\n      sub\n      dup2\n      add\n      swap1\n      tag_29\n      swap2\n      swap1\n      tag_11\n      jump\t// in\n    tag_29:\n      tag_30\n      jump\t// in\n    tag_28:\n      mload(0x40)\n      tag_31\n      swap6\n      swap5\n      swap4\n      swap3\n      swap2\n      swap1\n      tag_32\n      jump\t// in\n    tag_31:\n      mload(0x40)\n      dup1\n      swap2\n      sub\n      swap1\n      return\n        /* \"D_Blog.sol\":861:1068  function dislikeTweet(uint _id) public {... */\n    tag_12:\n        /* \"D_Blog.sol\":925:934  allTweets */\n      0x01\n        /* \"D_Blog.sol\":925:941  allTweets.length */\n      dup1\n      sload\n      swap1\n      pop\n        /* \"D_Blog.sol\":919:922  _id */\n      dup2\n        /* \"D_Blog.sol\":919:941  _id < allTweets.length */\n      lt\n        /* \"D_Blog.sol\":911:961  require(_id < allTweets.length, \"Tweet not found\") */\n      tag_34\n      jumpi\n      mload(0x40)\n      0x08c379a000000000000000000000000000000000000000000000000000000000\n      dup2\n      mstore\n      0x04\n      add\n      tag_35\n      swap1\n      tag_36\n      jump\t// in\n    tag_35:\n      mload(0x40)\n      dup1\n      swap2\n      sub\n      swap1\n      revert\n    tag_34:\n        /* \"D_Blog.sol\":1003:1004  0 */\n      0x00\n        /* \"D_Blog.sol\":980:989  allTweets */\n      0x01\n        /* \"D_Blog.sol\":990:993  _id */\n      dup3\n        /* \"D_Blog.sol\":980:994  allTweets[_id] */\n      dup2\n      sload\n      dup2\n      lt\n      tag_37\n      jumpi\n      tag_38\n      tag_39\n      jump\t// in\n    tag_38:\n    tag_37:\n      swap1\n      0x00\n      mstore\n      keccak256(0x00, 0x20)\n      swap1\n      0x05\n      mul\n      add\n        /* \"D_Blog.sol\":980:1000  allTweets[_id].likes */\n      0x04\n      add\n      sload\n        /* \"D_Blog.sol\":980:1004  allTweets[_id].likes > 0 */\n      gt\n        /* \"D_Blog.sol\":972:1027  require(allTweets[_id].likes > 0, \"No likes to remove\") */\n      tag_41\n      jumpi\n      mload(0x40)\n      0x08c379a000000000000000000000000000000000000000000000000000000000\n      dup2\n      mstore\n      0x04\n      add\n      tag_42\n      swap1\n      tag_43\n      jump\t// in\n    tag_42:\n      mload(0x40)\n      dup1\n      swap2\n      sub\n      swap1\n      revert\n    tag_41:\n        /* \"D_Blog.sol\":1038:1047  allTweets */\n      0x01\n        /* \"D_Blog.sol\":1048:1051  _id */\n      dup2\n        /* \"D_Blog.sol\":1038:1052  allTweets[_id] */\n      dup2\n      sload\n      dup2\n      lt\n      tag_44\n      jumpi\n      tag_45\n      tag_39\n      jump\t// in\n    tag_45:\n    tag_44:\n      swap1\n      0x00\n      mstore\n      keccak256(0x00, 0x20)\n      swap1\n      0x05\n      mul\n      add\n        /* \"D_Blog.sol\":1038:1058  allTweets[_id].likes */\n      0x04\n      add\n      0x00\n        /* \"D_Blog.sol\":1038:1060  allTweets[_id].likes-- */\n      dup2\n      sload\n      dup1\n      swap3\n      swap2\n      swap1\n      tag_47\n      swap1\n      tag_48\n      jump\t// in\n    tag_47:\n      swap2\n      swap1\n      pop\n      sstore\n      pop\n        /* \"D_Blog.sol\":861:1068  function dislikeTweet(uint _id) public {... */\n      pop\n      jump\t// out\n        /* \"D_Blog.sol\":1076:1172  function getAllTweets() public view returns (Tweet[] memory) {... */\n    tag_14:\n        /* \"D_Blog.sol\":1121:1135  Tweet[] memory */\n      0x60\n        /* \"D_Blog.sol\":1155:1164  allTweets */\n      0x01\n        /* \"D_Blog.sol\":1148:1164  return allTweets */\n      dup1\n      sload\n      dup1\n      0x20\n      mul\n      0x20\n      add\n      mload(0x40)\n      swap1\n      dup2\n      add\n      0x40\n      mstore\n      dup1\n      swap3\n      swap2\n      swap1\n      dup2\n      dup2\n      mstore\n      0x20\n      add\n      0x00\n      swap1\n    tag_50:\n      dup3\n      dup3\n      lt\n      iszero\n      tag_51\n      jumpi\n      dup4\n      dup3\n      swap1\n      0x00\n      mstore\n      keccak256(0x00, 0x20)\n      swap1\n      0x05\n      mul\n      add\n      mload(0x40)\n      dup1\n      0xa0\n      add\n      0x40\n      mstore\n      swap1\n      dup2\n      0x00\n      dup3\n      add\n      sload\n      dup2\n      mstore\n      0x20\n      add\n      0x01\n      dup3\n      add\n      0x00\n      swap1\n      sload\n      swap1\n      0x0100\n      exp\n      swap1\n      div\n      0xffffffffffffffffffffffffffffffffffffffff\n      and\n      0xffffffffffffffffffffffffffffffffffffffff\n      and\n      0xffffffffffffffffffffffffffffffffffffffff\n      and\n      dup2\n      mstore\n      0x20\n      add\n      0x02\n      dup3\n      add\n      dup1\n      sload\n      tag_53\n      swap1\n      tag_54\n      jump\t// in\n    tag_53:\n      dup1\n      0x1f\n      add\n      0x20\n      dup1\n      swap2\n      div\n      mul\n      0x20\n      add\n      mload(0x40)\n      swap1\n      dup2\n      add\n      0x40\n      mstore\n      dup1\n      swap3\n      swap2\n      swap1\n      dup2\n      dup2\n      mstore\n      0x20\n      add\n      dup3\n      dup1\n      sload\n      tag_55\n      swap1\n      tag_54\n      jump\t// in\n    tag_55:\n      dup1\n      iszero\n      tag_56\n      jumpi\n      dup1\n      0x1f\n      lt\n      tag_57\n      jumpi\n      0x0100\n      dup1\n      dup4\n      sload\n      div\n      mul\n      dup4\n      mstore\n      swap2\n      0x20\n      add\n      swap2\n      jump(tag_56)\n    tag_57:\n      dup3\n      add\n      swap2\n      swap1\n      0x00\n      mstore\n      keccak256(0x00, 0x20)\n      swap1\n    tag_58:\n      dup2\n      sload\n      dup2\n      mstore\n      swap1\n      0x01\n      add\n      swap1\n      0x20\n      add\n      dup1\n      dup4\n      gt\n      tag_58\n      jumpi\n      dup3\n      swap1\n      sub\n      0x1f\n      and\n      dup3\n      add\n      swap2\n    tag_56:\n      pop\n      pop\n      pop\n      pop\n      pop\n      dup2\n      mstore\n      0x20\n      add\n      0x03\n      dup3\n      add\n      sload\n      dup2\n      mstore\n      0x20\n      add\n      0x04\n      dup3\n      add\n      sload\n      dup2\n      mstore\n      pop\n      pop\n      dup2\n      mstore\n      0x20\n      add\n      swap1\n      0x01\n      add\n      swap1\n      jump(tag_50)\n    tag_51:\n      pop\n      pop\n      pop\n      pop\n      swap1\n      pop\n        /* \"D_Blog.sol\":1076:1172  function getAllTweets() public view returns (Tweet[] memory) {... */\n      swap1\n      jump\t// out\n        /* \"D_Blog.sol\":715:853  function likeTweet(uint _id) public {... */\n    tag_19:\n        /* \"D_Blog.sol\":776:785  allTweets */\n      0x01\n        /* \"D_Blog.sol\":776:792  allTweets.length */\n      dup1\n      sload\n      swap1\n      pop\n        /* \"D_Blog.sol\":770:773  _id */\n      dup2\n        /* \"D_Blog.sol\":770:792  _id < allTweets.length */\n      lt\n        /* \"D_Blog.sol\":762:812  require(_id < allTweets.length, \"Tweet not found\") */\n      tag_60\n      jumpi\n      mload(0x40)\n      0x08c379a000000000000000000000000000000000000000000000000000000000\n      dup2\n      mstore\n      0x04\n      add\n      tag_61\n      swap1\n      tag_36\n      jump\t// in\n    tag_61:\n      mload(0x40)\n      dup1\n      swap2\n      sub\n      swap1\n      revert\n    tag_60:\n        /* \"D_Blog.sol\":823:832  allTweets */\n      0x01\n        /* \"D_Blog.sol\":833:836  _id */\n      dup2\n        /* \"D_Blog.sol\":823:837  allTweets[_id] */\n      dup2\n      sload\n      dup2\n      lt\n      tag_62\n      jumpi\n      tag_63\n      tag_39\n      jump\t// in\n    tag_63:\n    tag_62:\n      swap1\n      0x00\n      mstore\n      keccak256(0x00, 0x20)\n      swap1\n      0x05\n      mul\n      add\n        /* \"D_Blog.sol\":823:843  allTweets[_id].likes */\n      0x04\n      add\n      0x00\n        /* \"D_Blog.sol\":823:845  allTweets[_id].likes++ */\n      dup2\n      sload\n      dup1\n      swap3\n      swap2\n      swap1\n      tag_65\n      swap1\n      tag_66\n      jump\t// in\n    tag_65:\n      swap2\n      swap1\n      pop\n      sstore\n      pop\n        /* \"D_Blog.sol\":715:853  function likeTweet(uint _id) public {... */\n      pop\n      jump\t// out\n        /* \"D_Blog.sol\":86:122  uint16 public MAX_TWEET_LENGTH = 280 */\n    tag_21:\n      0x00\n      dup1\n      sload\n      swap1\n      0x0100\n      exp\n      swap1\n      div\n      0xffff\n      and\n      dup2\n      jump\t// out\n        /* \"D_Blog.sol\":313:707  function createTweet(string memory _tweet) public {... */\n    tag_27:\n        /* \"D_Blog.sol\":406:422  MAX_TWEET_LENGTH */\n      0x00\n      dup1\n      sload\n      swap1\n      0x0100\n      exp\n      swap1\n      div\n      0xffff\n      and\n        /* \"D_Blog.sol\":382:422  bytes(_tweet).length <= MAX_TWEET_LENGTH */\n      0xffff\n      and\n        /* \"D_Blog.sol\":388:394  _tweet */\n      dup2\n        /* \"D_Blog.sol\":382:402  bytes(_tweet).length */\n      mload\n        /* \"D_Blog.sol\":382:422  bytes(_tweet).length <= MAX_TWEET_LENGTH */\n      gt\n      iszero\n        /* \"D_Blog.sol\":374:442  require(bytes(_tweet).length <= MAX_TWEET_LENGTH, \"Tweet too long!\") */\n      tag_68\n      jumpi\n      mload(0x40)\n      0x08c379a000000000000000000000000000000000000000000000000000000000\n      dup2\n      mstore\n      0x04\n      add\n      tag_69\n      swap1\n      tag_70\n      jump\t// in\n    tag_69:\n      mload(0x40)\n      dup1\n      swap2\n      sub\n      swap1\n      revert\n    tag_68:\n        /* \"D_Blog.sol\":455:464  allTweets */\n      0x01\n        /* \"D_Blog.sol\":484:688  Tweet({... */\n      mload(0x40)\n      dup1\n      0xa0\n      add\n      0x40\n      mstore\n      dup1\n        /* \"D_Blog.sol\":513:522  allTweets */\n      0x01\n        /* \"D_Blog.sol\":513:529  allTweets.length */\n      dup1\n      sload\n      swap1\n      pop\n        /* \"D_Blog.sol\":484:688  Tweet({... */\n      dup2\n      mstore\n      0x20\n      add\n        /* \"D_Blog.sol\":556:566  msg.sender */\n      caller\n        /* \"D_Blog.sol\":484:688  Tweet({... */\n      0xffffffffffffffffffffffffffffffffffffffff\n      and\n      dup2\n      mstore\n      0x20\n      add\n        /* \"D_Blog.sol\":594:600  _tweet */\n      dup4\n        /* \"D_Blog.sol\":484:688  Tweet({... */\n      dup2\n      mstore\n      0x20\n      add\n        /* \"D_Blog.sol\":630:645  block.timestamp */\n      timestamp\n        /* \"D_Blog.sol\":484:688  Tweet({... */\n      dup2\n      mstore\n      0x20\n      add\n        /* \"D_Blog.sol\":671:672  0 */\n      0x00\n        /* \"D_Blog.sol\":484:688  Tweet({... */\n      dup2\n      mstore\n      pop\n        /* \"D_Blog.sol\":455:699  allTweets.push(... */\n      swap1\n      dup1\n      0x01\n      dup2\n      sload\n      add\n      dup1\n      dup3\n      sstore\n      dup1\n      swap2\n      pop\n      pop\n      0x01\n      swap1\n      sub\n      swap1\n      0x00\n      mstore\n      keccak256(0x00, 0x20)\n      swap1\n      0x05\n      mul\n      add\n      0x00\n      swap1\n      swap2\n      swap1\n      swap2\n      swap1\n      swap2\n      pop\n      0x00\n      dup3\n      add\n      mload\n      dup2\n      0x00\n      add\n      sstore\n      0x20\n      dup3\n      add\n      mload\n      dup2\n      0x01\n      add\n      exp(0x0100, 0x00)\n      dup2\n      sload\n      dup2\n      0xffffffffffffffffffffffffffffffffffffffff\n      mul\n      not\n      and\n      swap1\n      dup4\n      0xffffffffffffffffffffffffffffffffffffffff\n      and\n      mul\n      or\n      swap1\n      sstore\n      pop\n      0x40\n      dup3\n      add\n      mload\n      dup2\n      0x02\n      add\n      swap1\n      dup2\n      tag_72\n      swap2\n      swap1\n      tag_73\n      jump\t// in\n    tag_72:\n      pop\n      0x60\n      dup3\n      add\n      mload\n      dup2\n      0x03\n      add\n      sstore\n      0x80\n      dup3\n      add\n      mload\n      dup2\n      0x04\n      add\n      sstore\n      pop\n      pop\n        /* \"D_Blog.sol\":313:707  function createTweet(string memory _tweet) public {... */\n      pop\n      jump\t// out\n        /* \"D_Blog.sol\":280:304  Tweet[] public allTweets */\n    tag_30:\n      0x01\n      dup2\n      dup2\n      sload\n      dup2\n      lt\n      tag_74\n      jumpi\n      0x00\n      dup1\n      revert\n    tag_74:\n      swap1\n      0x00\n      mstore\n      keccak256(0x00, 0x20)\n      swap1\n      0x05\n      mul\n      add\n      0x00\n      swap2\n      pop\n      swap1\n      pop\n      dup1\n      0x00\n      add\n      sload\n      swap1\n      dup1\n      0x01\n      add\n      0x00\n      swap1\n      sload\n      swap1\n      0x0100\n      exp\n      swap1\n      div\n      0xffffffffffffffffffffffffffffffffffffffff\n      and\n      swap1\n      dup1\n      0x02\n      add\n      dup1\n      sload\n      tag_76\n      swap1\n      tag_54\n      jump\t// in\n    tag_76:\n      dup1\n      0x1f\n      add\n      0x20\n      dup1\n      swap2\n      div\n      mul\n      0x20\n      add\n      mload(0x40)\n      swap1\n      dup2\n      add\n      0x40\n      mstore\n      dup1\n      swap3\n      swap2\n      swap1\n      dup2\n      dup2\n      mstore\n      0x20\n      add\n      dup3\n      dup1\n      sload\n      tag_77\n      swap1\n      tag_54\n      jump\t// in\n    tag_77:\n      dup1\n      iszero\n      tag_78\n      jumpi\n      dup1\n      0x1f\n      lt\n      tag_79\n      jumpi\n      0x0100\n      dup1\n      dup4\n      sload\n      div\n      mul\n      dup4\n      mstore\n      swap2\n      0x20\n      add\n      swap2\n      jump(tag_78)\n    tag_79:\n      dup3\n      add\n      swap2\n      swap1\n      0x00\n      mstore\n      keccak256(0x00, 0x20)\n      swap1\n    tag_80:\n      dup2\n      sload\n      dup2\n      mstore\n      swap1\n      0x01\n      add\n      swap1\n      0x20\n      add\n      dup1\n      dup4\n      gt\n      tag_80\n      jumpi\n      dup3\n      swap1\n      sub\n      0x1f\n      and\n      dup3\n      add\n      swap2\n    tag_78:\n      pop\n      pop\n      pop\n      pop\n      pop\n      swap1\n      dup1\n      0x03\n      add\n      sload\n      swap1\n      dup1\n      0x04\n      add\n      sload\n      swap1\n      pop\n      dup6\n      jump\t// out\n        /* \"#utility.yul\":7:82   */\n    tag_81:\n        /* \"#utility.yul\":40:46   */\n      0x00\n        /* \"#utility.yul\":73:75   */\n      0x40\n        /* \"#utility.yul\":67:76   */\n      mload\n        /* \"#utility.yul\":57:76   */\n      swap1\n      pop\n        /* \"#utility.yul\":7:82   */\n      swap1\n      jump\t// out\n        /* \"#utility.yul\":88:205   */\n    tag_82:\n        /* \"#utility.yul\":197:198   */\n      0x00\n        /* \"#utility.yul\":194:195   */\n      dup1\n        /* \"#utility.yul\":187:199   */\n      revert\n        /* \"#utility.yul\":211:328   */\n    tag_83:\n        /* \"#utility.yul\":320:321   */\n      0x00\n        /* \"#utility.yul\":317:318   */\n      dup1\n        /* \"#utility.yul\":310:322   */\n      revert\n        /* \"#utility.yul\":334:411   */\n    tag_84:\n        /* \"#utility.yul\":371:378   */\n      0x00\n        /* \"#utility.yul\":400:405   */\n      dup2\n        /* \"#utility.yul\":389:405   */\n      swap1\n      pop\n        /* \"#utility.yul\":334:411   */\n      swap2\n      swap1\n      pop\n      jump\t// out\n        /* \"#utility.yul\":417:539   */\n    tag_85:\n        /* \"#utility.yul\":490:514   */\n      tag_147\n        /* \"#utility.yul\":508:513   */\n      dup2\n        /* \"#utility.yul\":490:514   */\n      tag_84\n      jump\t// in\n    tag_147:\n        /* \"#utility.yul\":483:488   */\n      dup2\n        /* \"#utility.yul\":480:515   */\n      eq\n        /* \"#utility.yul\":470:533   */\n      tag_148\n      jumpi\n        /* \"#utility.yul\":529:530   */\n      0x00\n        /* \"#utility.yul\":526:527   */\n      dup1\n        /* \"#utility.yul\":519:531   */\n      revert\n        /* \"#utility.yul\":470:533   */\n    tag_148:\n        /* \"#utility.yul\":417:539   */\n      pop\n      jump\t// out\n        /* \"#utility.yul\":545:684   */\n    tag_86:\n        /* \"#utility.yul\":591:596   */\n      0x00\n        /* \"#utility.yul\":629:635   */\n      dup2\n        /* \"#utility.yul\":616:636   */\n      calldataload\n        /* \"#utility.yul\":607:636   */\n      swap1\n      pop\n        /* \"#utility.yul\":645:678   */\n      tag_150\n        /* \"#utility.yul\":672:677   */\n      dup2\n        /* \"#utility.yul\":645:678   */\n      tag_85\n      jump\t// in\n    tag_150:\n        /* \"#utility.yul\":545:684   */\n      swap3\n      swap2\n      pop\n      pop\n      jump\t// out\n        /* \"#utility.yul\":690:1019   */\n    tag_11:\n        /* \"#utility.yul\":749:755   */\n      0x00\n        /* \"#utility.yul\":798:800   */\n      0x20\n        /* \"#utility.yul\":786:795   */\n      dup3\n        /* \"#utility.yul\":777:784   */\n      dup5\n        /* \"#utility.yul\":773:796   */\n      sub\n        /* \"#utility.yul\":769:801   */\n      slt\n        /* \"#utility.yul\":766:885   */\n      iszero\n      tag_152\n      jumpi\n        /* \"#utility.yul\":804:883   */\n      tag_153\n      tag_82\n      jump\t// in\n    tag_153:\n        /* \"#utility.yul\":766:885   */\n    tag_152:\n        /* \"#utility.yul\":924:925   */\n      0x00\n        /* \"#utility.yul\":949:1002   */\n      tag_154\n        /* \"#utility.yul\":994:1001   */\n      dup5\n        /* \"#utility.yul\":985:991   */\n      dup3\n        /* \"#utility.yul\":974:983   */\n      dup6\n        /* \"#utility.yul\":970:992   */\n      add\n        /* \"#utility.yul\":949:1002   */\n      tag_86\n      jump\t// in\n    tag_154:\n        /* \"#utility.yul\":939:1002   */\n      swap2\n      pop\n        /* \"#utility.yul\":895:1012   */\n      pop\n        /* \"#utility.yul\":690:1019   */\n      swap3\n      swap2\n      pop\n      pop\n      jump\t// out\n        /* \"#utility.yul\":1025:1160   */\n    tag_87:\n        /* \"#utility.yul\":1113:1119   */\n      0x00\n        /* \"#utility.yul\":1147:1152   */\n      dup2\n        /* \"#utility.yul\":1141:1153   */\n      mload\n        /* \"#utility.yul\":1131:1153   */\n      swap1\n      pop\n        /* \"#utility.yul\":1025:1160   */\n      swap2\n      swap1\n      pop\n      jump\t// out\n        /* \"#utility.yul\":1166:1371   */\n    tag_88:\n        /* \"#utility.yul\":1286:1297   */\n      0x00\n        /* \"#utility.yul\":1320:1326   */\n      dup3\n        /* \"#utility.yul\":1315:1318   */\n      dup3\n        /* \"#utility.yul\":1308:1327   */\n      mstore\n        /* \"#utility.yul\":1360:1364   */\n      0x20\n        /* \"#utility.yul\":1355:1358   */\n      dup3\n        /* \"#utility.yul\":1351:1365   */\n      add\n        /* \"#utility.yul\":1336:1365   */\n      swap1\n      pop\n        /* \"#utility.yul\":1166:1371   */\n      swap3\n      swap2\n      pop\n      pop\n      jump\t// out\n        /* \"#utility.yul\":1377:1530   */\n    tag_89:\n        /* \"#utility.yul\":1465:1469   */\n      0x00\n        /* \"#utility.yul\":1488:1491   */\n      dup2\n        /* \"#utility.yul\":1480:1491   */\n      swap1\n      pop\n        /* \"#utility.yul\":1518:1522   */\n      0x20\n        /* \"#utility.yul\":1513:1516   */\n      dup3\n        /* \"#utility.yul\":1509:1523   */\n      add\n        /* \"#utility.yul\":1501:1523   */\n      swap1\n      pop\n        /* \"#utility.yul\":1377:1530   */\n      swap2\n      swap1\n      pop\n      jump\t// out\n        /* \"#utility.yul\":1536:1644   */\n    tag_90:\n        /* \"#utility.yul\":1613:1637   */\n      tag_159\n        /* \"#utility.yul\":1631:1636   */\n      dup2\n        /* \"#utility.yul\":1613:1637   */\n      tag_84\n      jump\t// in\n    tag_159:\n        /* \"#utility.yul\":1608:1611   */\n      dup3\n        /* \"#utility.yul\":1601:1638   */\n      mstore\n        /* \"#utility.yul\":1536:1644   */\n      pop\n      pop\n      jump\t// out\n        /* \"#utility.yul\":1650:1776   */\n    tag_91:\n        /* \"#utility.yul\":1687:1694   */\n      0x00\n        /* \"#utility.yul\":1727:1769   */\n      0xffffffffffffffffffffffffffffffffffffffff\n        /* \"#utility.yul\":1720:1725   */\n      dup3\n        /* \"#utility.yul\":1716:1770   */\n      and\n        /* \"#utility.yul\":1705:1770   */\n      swap1\n      pop\n        /* \"#utility.yul\":1650:1776   */\n      swap2\n      swap1\n      pop\n      jump\t// out\n        /* \"#utility.yul\":1782:1878   */\n    tag_92:\n        /* \"#utility.yul\":1819:1826   */\n      0x00\n        /* \"#utility.yul\":1848:1872   */\n      tag_162\n        /* \"#utility.yul\":1866:1871   */\n      dup3\n        /* \"#utility.yul\":1848:1872   */\n      tag_91\n      jump\t// in\n    tag_162:\n        /* \"#utility.yul\":1837:1872   */\n      swap1\n      pop\n        /* \"#utility.yul\":1782:1878   */\n      swap2\n      swap1\n      pop\n      jump\t// out\n        /* \"#utility.yul\":1884:1992   */\n    tag_93:\n        /* \"#utility.yul\":1961:1985   */\n      tag_164\n        /* \"#utility.yul\":1979:1984   */\n      dup2\n        /* \"#utility.yul\":1961:1985   */\n      tag_92\n      jump\t// in\n    tag_164:\n        /* \"#utility.yul\":1956:1959   */\n      dup3\n        /* \"#utility.yul\":1949:1986   */\n      mstore\n        /* \"#utility.yul\":1884:1992   */\n      pop\n      pop\n      jump\t// out\n        /* \"#utility.yul\":1998:2097   */\n    tag_94:\n        /* \"#utility.yul\":2050:2056   */\n      0x00\n        /* \"#utility.yul\":2084:2089   */\n      dup2\n        /* \"#utility.yul\":2078:2090   */\n      mload\n        /* \"#utility.yul\":2068:2090   */\n      swap1\n      pop\n        /* \"#utility.yul\":1998:2097   */\n      swap2\n      swap1\n      pop\n      jump\t// out\n        /* \"#utility.yul\":2103:2262   */\n    tag_95:\n        /* \"#utility.yul\":2177:2188   */\n      0x00\n        /* \"#utility.yul\":2211:2217   */\n      dup3\n        /* \"#utility.yul\":2206:2209   */\n      dup3\n        /* \"#utility.yul\":2199:2218   */\n      mstore\n        /* \"#utility.yul\":2251:2255   */\n      0x20\n        /* \"#utility.yul\":2246:2249   */\n      dup3\n        /* \"#utility.yul\":2242:2256   */\n      add\n        /* \"#utility.yul\":2227:2256   */\n      swap1\n      pop\n        /* \"#utility.yul\":2103:2262   */\n      swap3\n      swap2\n      pop\n      pop\n      jump\t// out\n        /* \"#utility.yul\":2268:2514   */\n    tag_96:\n        /* \"#utility.yul\":2349:2350   */\n      0x00\n        /* \"#utility.yul\":2359:2472   */\n    tag_168:\n        /* \"#utility.yul\":2373:2379   */\n      dup4\n        /* \"#utility.yul\":2370:2371   */\n      dup2\n        /* \"#utility.yul\":2367:2380   */\n      lt\n        /* \"#utility.yul\":2359:2472   */\n      iszero\n      tag_170\n      jumpi\n        /* \"#utility.yul\":2458:2459   */\n      dup1\n        /* \"#utility.yul\":2453:2456   */\n      dup3\n        /* \"#utility.yul\":2449:2460   */\n      add\n        /* \"#utility.yul\":2443:2461   */\n      mload\n        /* \"#utility.yul\":2439:2440   */\n      dup2\n        /* \"#utility.yul\":2434:2437   */\n      dup5\n        /* \"#utility.yul\":2430:2441   */\n      add\n        /* \"#utility.yul\":2423:2462   */\n      mstore\n        /* \"#utility.yul\":2395:2397   */\n      0x20\n        /* \"#utility.yul\":2392:2393   */\n      dup2\n        /* \"#utility.yul\":2388:2398   */\n      add\n        /* \"#utility.yul\":2383:2398   */\n      swap1\n      pop\n        /* \"#utility.yul\":2359:2472   */\n      jump(tag_168)\n    tag_170:\n        /* \"#utility.yul\":2506:2507   */\n      0x00\n        /* \"#utility.yul\":2497:2503   */\n      dup5\n        /* \"#utility.yul\":2492:2495   */\n      dup5\n        /* \"#utility.yul\":2488:2504   */\n      add\n        /* \"#utility.yul\":2481:2508   */\n      mstore\n        /* \"#utility.yul\":2330:2514   */\n      pop\n        /* \"#utility.yul\":2268:2514   */\n      pop\n      pop\n      pop\n      jump\t// out\n        /* \"#utility.yul\":2520:2622   */\n    tag_97:\n        /* \"#utility.yul\":2561:2567   */\n      0x00\n        /* \"#utility.yul\":2612:2614   */\n      0x1f\n        /* \"#utility.yul\":2608:2615   */\n      not\n        /* \"#utility.yul\":2603:2605   */\n      0x1f\n        /* \"#utility.yul\":2596:2601   */\n      dup4\n        /* \"#utility.yul\":2592:2606   */\n      add\n        /* \"#utility.yul\":2588:2616   */\n      and\n        /* \"#utility.yul\":2578:2616   */\n      swap1\n      pop\n        /* \"#utility.yul\":2520:2622   */\n      swap2\n      swap1\n      pop\n      jump\t// out\n        /* \"#utility.yul\":2628:2985   */\n    tag_98:\n        /* \"#utility.yul\":2706:2709   */\n      0x00\n        /* \"#utility.yul\":2734:2773   */\n      tag_173\n        /* \"#utility.yul\":2767:2772   */\n      dup3\n        /* \"#utility.yul\":2734:2773   */\n      tag_94\n      jump\t// in\n    tag_173:\n        /* \"#utility.yul\":2789:2850   */\n      tag_174\n        /* \"#utility.yul\":2843:2849   */\n      dup2\n        /* \"#utility.yul\":2838:2841   */\n      dup6\n        /* \"#utility.yul\":2789:2850   */\n      tag_95\n      jump\t// in\n    tag_174:\n        /* \"#utility.yul\":2782:2850   */\n      swap4\n      pop\n        /* \"#utility.yul\":2859:2924   */\n      tag_175\n        /* \"#utility.yul\":2917:2923   */\n      dup2\n        /* \"#utility.yul\":2912:2915   */\n      dup6\n        /* \"#utility.yul\":2905:2909   */\n      0x20\n        /* \"#utility.yul\":2898:2903   */\n      dup7\n        /* \"#utility.yul\":2894:2910   */\n      add\n        /* \"#utility.yul\":2859:2924   */\n      tag_96\n      jump\t// in\n    tag_175:\n        /* \"#utility.yul\":2949:2978   */\n      tag_176\n        /* \"#utility.yul\":2971:2977   */\n      dup2\n        /* \"#utility.yul\":2949:2978   */\n      tag_97\n      jump\t// in\n    tag_176:\n        /* \"#utility.yul\":2944:2947   */\n      dup5\n        /* \"#utility.yul\":2940:2979   */\n      add\n        /* \"#utility.yul\":2933:2979   */\n      swap2\n      pop\n        /* \"#utility.yul\":2710:2985   */\n      pop\n        /* \"#utility.yul\":2628:2985   */\n      swap3\n      swap2\n      pop\n      pop\n      jump\t// out\n        /* \"#utility.yul\":3043:4162   */\n    tag_99:\n        /* \"#utility.yul\":3144:3147   */\n      0x00\n        /* \"#utility.yul\":3180:3184   */\n      0xa0\n        /* \"#utility.yul\":3175:3178   */\n      dup4\n        /* \"#utility.yul\":3171:3185   */\n      add\n        /* \"#utility.yul\":3265:3269   */\n      0x00\n        /* \"#utility.yul\":3258:3263   */\n      dup4\n        /* \"#utility.yul\":3254:3270   */\n      add\n        /* \"#utility.yul\":3248:3271   */\n      mload\n        /* \"#utility.yul\":3284:3347   */\n      tag_178\n        /* \"#utility.yul\":3341:3345   */\n      0x00\n        /* \"#utility.yul\":3336:3339   */\n      dup7\n        /* \"#utility.yul\":3332:3346   */\n      add\n        /* \"#utility.yul\":3318:3330   */\n      dup3\n        /* \"#utility.yul\":3284:3347   */\n      tag_90\n      jump\t// in\n    tag_178:\n        /* \"#utility.yul\":3195:3357   */\n      pop\n        /* \"#utility.yul\":3441:3445   */\n      0x20\n        /* \"#utility.yul\":3434:3439   */\n      dup4\n        /* \"#utility.yul\":3430:3446   */\n      add\n        /* \"#utility.yul\":3424:3447   */\n      mload\n        /* \"#utility.yul\":3460:3523   */\n      tag_179\n        /* \"#utility.yul\":3517:3521   */\n      0x20\n        /* \"#utility.yul\":3512:3515   */\n      dup7\n        /* \"#utility.yul\":3508:3522   */\n      add\n        /* \"#utility.yul\":3494:3506   */\n      dup3\n        /* \"#utility.yul\":3460:3523   */\n      tag_93\n      jump\t// in\n    tag_179:\n        /* \"#utility.yul\":3367:3533   */\n      pop\n        /* \"#utility.yul\":3618:3622   */\n      0x40\n        /* \"#utility.yul\":3611:3616   */\n      dup4\n        /* \"#utility.yul\":3607:3623   */\n      add\n        /* \"#utility.yul\":3601:3624   */\n      mload\n        /* \"#utility.yul\":3671:3674   */\n      dup5\n        /* \"#utility.yul\":3665:3669   */\n      dup3\n        /* \"#utility.yul\":3661:3675   */\n      sub\n        /* \"#utility.yul\":3654:3658   */\n      0x40\n        /* \"#utility.yul\":3649:3652   */\n      dup7\n        /* \"#utility.yul\":3645:3659   */\n      add\n        /* \"#utility.yul\":3638:3676   */\n      mstore\n        /* \"#utility.yul\":3697:3770   */\n      tag_180\n        /* \"#utility.yul\":3765:3769   */\n      dup3\n        /* \"#utility.yul\":3751:3763   */\n      dup3\n        /* \"#utility.yul\":3697:3770   */\n      tag_98\n      jump\t// in\n    tag_180:\n        /* \"#utility.yul\":3689:3770   */\n      swap2\n      pop\n        /* \"#utility.yul\":3543:3781   */\n      pop\n        /* \"#utility.yul\":3868:3872   */\n      0x60\n        /* \"#utility.yul\":3861:3866   */\n      dup4\n        /* \"#utility.yul\":3857:3873   */\n      add\n        /* \"#utility.yul\":3851:3874   */\n      mload\n        /* \"#utility.yul\":3887:3950   */\n      tag_181\n        /* \"#utility.yul\":3944:3948   */\n      0x60\n        /* \"#utility.yul\":3939:3942   */\n      dup7\n        /* \"#utility.yul\":3935:3949   */\n      add\n        /* \"#utility.yul\":3921:3933   */\n      dup3\n        /* \"#utility.yul\":3887:3950   */\n      tag_90\n      jump\t// in\n    tag_181:\n        /* \"#utility.yul\":3791:3960   */\n      pop\n        /* \"#utility.yul\":4043:4047   */\n      0x80\n        /* \"#utility.yul\":4036:4041   */\n      dup4\n        /* \"#utility.yul\":4032:4048   */\n      add\n        /* \"#utility.yul\":4026:4049   */\n      mload\n        /* \"#utility.yul\":4062:4125   */\n      tag_182\n        /* \"#utility.yul\":4119:4123   */\n      0x80\n        /* \"#utility.yul\":4114:4117   */\n      dup7\n        /* \"#utility.yul\":4110:4124   */\n      add\n        /* \"#utility.yul\":4096:4108   */\n      dup3\n        /* \"#utility.yul\":4062:4125   */\n      tag_90\n      jump\t// in\n    tag_182:\n        /* \"#utility.yul\":3970:4135   */\n      pop\n        /* \"#utility.yul\":4152:4156   */\n      dup1\n        /* \"#utility.yul\":4145:4156   */\n      swap2\n      pop\n        /* \"#utility.yul\":3149:4162   */\n      pop\n        /* \"#utility.yul\":3043:4162   */\n      swap3\n      swap2\n      pop\n      pop\n      jump\t// out\n        /* \"#utility.yul\":4168:4408   */\n    tag_100:\n        /* \"#utility.yul\":4279:4289   */\n      0x00\n        /* \"#utility.yul\":4314:4402   */\n      tag_184\n        /* \"#utility.yul\":4398:4401   */\n      dup4\n        /* \"#utility.yul\":4390:4396   */\n      dup4\n        /* \"#utility.yul\":4314:4402   */\n      tag_99\n      jump\t// in\n    tag_184:\n        /* \"#utility.yul\":4300:4402   */\n      swap1\n      pop\n        /* \"#utility.yul\":4168:4408   */\n      swap3\n      swap2\n      pop\n      pop\n      jump\t// out\n        /* \"#utility.yul\":4414:4548   */\n    tag_101:\n        /* \"#utility.yul\":4505:4509   */\n      0x00\n        /* \"#utility.yul\":4537:4541   */\n      0x20\n        /* \"#utility.yul\":4532:4535   */\n      dup3\n        /* \"#utility.yul\":4528:4542   */\n      add\n        /* \"#utility.yul\":4520:4542   */\n      swap1\n      pop\n        /* \"#utility.yul\":4414:4548   */\n      swap2\n      swap1\n      pop\n      jump\t// out\n        /* \"#utility.yul\":4610:5689   */\n    tag_102:\n        /* \"#utility.yul\":4771:4774   */\n      0x00\n        /* \"#utility.yul\":4800:4875   */\n      tag_187\n        /* \"#utility.yul\":4869:4874   */\n      dup3\n        /* \"#utility.yul\":4800:4875   */\n      tag_87\n      jump\t// in\n    tag_187:\n        /* \"#utility.yul\":4891:4998   */\n      tag_188\n        /* \"#utility.yul\":4991:4997   */\n      dup2\n        /* \"#utility.yul\":4986:4989   */\n      dup6\n        /* \"#utility.yul\":4891:4998   */\n      tag_88\n      jump\t// in\n    tag_188:\n        /* \"#utility.yul\":4884:4998   */\n      swap4\n      pop\n        /* \"#utility.yul\":5024:5027   */\n      dup4\n        /* \"#utility.yul\":5069:5073   */\n      0x20\n        /* \"#utility.yul\":5061:5067   */\n      dup3\n        /* \"#utility.yul\":5057:5074   */\n      mul\n        /* \"#utility.yul\":5052:5055   */\n      dup6\n        /* \"#utility.yul\":5048:5075   */\n      add\n        /* \"#utility.yul\":5099:5176   */\n      tag_189\n        /* \"#utility.yul\":5170:5175   */\n      dup6\n        /* \"#utility.yul\":5099:5176   */\n      tag_89\n      jump\t// in\n    tag_189:\n        /* \"#utility.yul\":5199:5206   */\n      dup1\n        /* \"#utility.yul\":5230:5231   */\n      0x00\n        /* \"#utility.yul\":5215:5644   */\n    tag_190:\n        /* \"#utility.yul\":5240:5246   */\n      dup6\n        /* \"#utility.yul\":5237:5238   */\n      dup2\n        /* \"#utility.yul\":5234:5247   */\n      lt\n        /* \"#utility.yul\":5215:5644   */\n      iszero\n      tag_192\n      jumpi\n        /* \"#utility.yul\":5311:5320   */\n      dup5\n        /* \"#utility.yul\":5305:5309   */\n      dup5\n        /* \"#utility.yul\":5301:5321   */\n      sub\n        /* \"#utility.yul\":5296:5299   */\n      dup10\n        /* \"#utility.yul\":5289:5322   */\n      mstore\n        /* \"#utility.yul\":5362:5368   */\n      dup2\n        /* \"#utility.yul\":5356:5369   */\n      mload\n        /* \"#utility.yul\":5390:5496   */\n      tag_193\n        /* \"#utility.yul\":5491:5495   */\n      dup6\n        /* \"#utility.yul\":5476:5489   */\n      dup3\n        /* \"#utility.yul\":5390:5496   */\n      tag_100\n      jump\t// in\n    tag_193:\n        /* \"#utility.yul\":5382:5496   */\n      swap5\n      pop\n        /* \"#utility.yul\":5519:5600   */\n      tag_194\n        /* \"#utility.yul\":5593:5599   */\n      dup4\n        /* \"#utility.yul\":5519:5600   */\n      tag_101\n      jump\t// in\n    tag_194:\n        /* \"#utility.yul\":5509:5600   */\n      swap3\n      pop\n        /* \"#utility.yul\":5629:5633   */\n      0x20\n        /* \"#utility.yul\":5624:5627   */\n      dup11\n        /* \"#utility.yul\":5620:5634   */\n      add\n        /* \"#utility.yul\":5613:5634   */\n      swap10\n      pop\n        /* \"#utility.yul\":5275:5644   */\n      pop\n        /* \"#utility.yul\":5262:5263   */\n      0x01\n        /* \"#utility.yul\":5259:5260   */\n      dup2\n        /* \"#utility.yul\":5255:5264   */\n      add\n        /* \"#utility.yul\":5250:5264   */\n      swap1\n      pop\n        /* \"#utility.yul\":5215:5644   */\n      jump(tag_190)\n    tag_192:\n        /* \"#utility.yul\":5219:5233   */\n      pop\n        /* \"#utility.yul\":5660:5664   */\n      dup3\n        /* \"#utility.yul\":5653:5664   */\n      swap8\n      pop\n        /* \"#utility.yul\":5680:5683   */\n      dup8\n        /* \"#utility.yul\":5673:5683   */\n      swap6\n      pop\n        /* \"#utility.yul\":4776:5689   */\n      pop\n      pop\n      pop\n      pop\n      pop\n        /* \"#utility.yul\":4610:5689   */\n      swap3\n      swap2\n      pop\n      pop\n      jump\t// out\n        /* \"#utility.yul\":5695:6152   */\n    tag_16:\n        /* \"#utility.yul\":5880:5884   */\n      0x00\n        /* \"#utility.yul\":5918:5920   */\n      0x20\n        /* \"#utility.yul\":5907:5916   */\n      dup3\n        /* \"#utility.yul\":5903:5921   */\n      add\n        /* \"#utility.yul\":5895:5921   */\n      swap1\n      pop\n        /* \"#utility.yul\":5967:5976   */\n      dup2\n        /* \"#utility.yul\":5961:5965   */\n      dup2\n        /* \"#utility.yul\":5957:5977   */\n      sub\n        /* \"#utility.yul\":5953:5954   */\n      0x00\n        /* \"#utility.yul\":5942:5951   */\n      dup4\n        /* \"#utility.yul\":5938:5955   */\n      add\n        /* \"#utility.yul\":5931:5978   */\n      mstore\n        /* \"#utility.yul\":5995:6145   */\n      tag_196\n        /* \"#utility.yul\":6140:6144   */\n      dup2\n        /* \"#utility.yul\":6131:6137   */\n      dup5\n        /* \"#utility.yul\":5995:6145   */\n      tag_102\n      jump\t// in\n    tag_196:\n        /* \"#utility.yul\":5987:6145   */\n      swap1\n      pop\n        /* \"#utility.yul\":5695:6152   */\n      swap3\n      swap2\n      pop\n      pop\n      jump\t// out\n        /* \"#utility.yul\":6158:6247   */\n    tag_103:\n        /* \"#utility.yul\":6194:6201   */\n      0x00\n        /* \"#utility.yul\":6234:6240   */\n      0xffff\n        /* \"#utility.yul\":6227:6232   */\n      dup3\n        /* \"#utility.yul\":6223:6241   */\n      and\n        /* \"#utility.yul\":6212:6241   */\n      swap1\n      pop\n        /* \"#utility.yul\":6158:6247   */\n      swap2\n      swap1\n      pop\n      jump\t// out\n        /* \"#utility.yul\":6253:6368   */\n    tag_104:\n        /* \"#utility.yul\":6338:6361   */\n      tag_199\n        /* \"#utility.yul\":6355:6360   */\n      dup2\n        /* \"#utility.yul\":6338:6361   */\n      tag_103\n      jump\t// in\n    tag_199:\n        /* \"#utility.yul\":6333:6336   */\n      dup3\n        /* \"#utility.yul\":6326:6362   */\n      mstore\n        /* \"#utility.yul\":6253:6368   */\n      pop\n      pop\n      jump\t// out\n        /* \"#utility.yul\":6374:6592   */\n    tag_23:\n        /* \"#utility.yul\":6465:6469   */\n      0x00\n        /* \"#utility.yul\":6503:6505   */\n      0x20\n        /* \"#utility.yul\":6492:6501   */\n      dup3\n        /* \"#utility.yul\":6488:6506   */\n      add\n        /* \"#utility.yul\":6480:6506   */\n      swap1\n      pop\n        /* \"#utility.yul\":6516:6585   */\n      tag_201\n        /* \"#utility.yul\":6582:6583   */\n      0x00\n        /* \"#utility.yul\":6571:6580   */\n      dup4\n        /* \"#utility.yul\":6567:6584   */\n      add\n        /* \"#utility.yul\":6558:6564   */\n      dup5\n        /* \"#utility.yul\":6516:6585   */\n      tag_104\n      jump\t// in\n    tag_201:\n        /* \"#utility.yul\":6374:6592   */\n      swap3\n      swap2\n      pop\n      pop\n      jump\t// out\n        /* \"#utility.yul\":6598:6715   */\n    tag_105:\n        /* \"#utility.yul\":6707:6708   */\n      0x00\n        /* \"#utility.yul\":6704:6705   */\n      dup1\n        /* \"#utility.yul\":6697:6709   */\n      revert\n        /* \"#utility.yul\":6721:6838   */\n    tag_106:\n        /* \"#utility.yul\":6830:6831   */\n      0x00\n        /* \"#utility.yul\":6827:6828   */\n      dup1\n        /* \"#utility.yul\":6820:6832   */\n      revert\n        /* \"#utility.yul\":6844:7024   */\n    tag_107:\n        /* \"#utility.yul\":6892:6969   */\n      0x4e487b7100000000000000000000000000000000000000000000000000000000\n        /* \"#utility.yul\":6889:6890   */\n      0x00\n        /* \"#utility.yul\":6882:6970   */\n      mstore\n        /* \"#utility.yul\":6989:6993   */\n      0x41\n        /* \"#utility.yul\":6986:6987   */\n      0x04\n        /* \"#utility.yul\":6979:6994   */\n      mstore\n        /* \"#utility.yul\":7013:7017   */\n      0x24\n        /* \"#utility.yul\":7010:7011   */\n      0x00\n        /* \"#utility.yul\":7003:7018   */\n      revert\n        /* \"#utility.yul\":7030:7311   */\n    tag_108:\n        /* \"#utility.yul\":7113:7140   */\n      tag_206\n        /* \"#utility.yul\":7135:7139   */\n      dup3\n        /* \"#utility.yul\":7113:7140   */\n      tag_97\n      jump\t// in\n    tag_206:\n        /* \"#utility.yul\":7105:7111   */\n      dup2\n        /* \"#utility.yul\":7101:7141   */\n      add\n        /* \"#utility.yul\":7243:7249   */\n      dup2\n        /* \"#utility.yul\":7231:7241   */\n      dup2\n        /* \"#utility.yul\":7228:7250   */\n      lt\n        /* \"#utility.yul\":7207:7225   */\n      0xffffffffffffffff\n        /* \"#utility.yul\":7195:7205   */\n      dup3\n        /* \"#utility.yul\":7192:7226   */\n      gt\n        /* \"#utility.yul\":7189:7251   */\n      or\n        /* \"#utility.yul\":7186:7274   */\n      iszero\n      tag_207\n      jumpi\n        /* \"#utility.yul\":7254:7272   */\n      tag_208\n      tag_107\n      jump\t// in\n    tag_208:\n        /* \"#utility.yul\":7186:7274   */\n    tag_207:\n        /* \"#utility.yul\":7294:7304   */\n      dup1\n        /* \"#utility.yul\":7290:7292   */\n      0x40\n        /* \"#utility.yul\":7283:7305   */\n      mstore\n        /* \"#utility.yul\":7073:7311   */\n      pop\n        /* \"#utility.yul\":7030:7311   */\n      pop\n      pop\n      jump\t// out\n        /* \"#utility.yul\":7317:7446   */\n    tag_109:\n        /* \"#utility.yul\":7351:7357   */\n      0x00\n        /* \"#utility.yul\":7378:7398   */\n      tag_210\n      tag_81\n      jump\t// in\n    tag_210:\n        /* \"#utility.yul\":7368:7398   */\n      swap1\n      pop\n        /* \"#utility.yul\":7407:7440   */\n      tag_211\n        /* \"#utility.yul\":7435:7439   */\n      dup3\n        /* \"#utility.yul\":7427:7433   */\n      dup3\n        /* \"#utility.yul\":7407:7440   */\n      tag_108\n      jump\t// in\n    tag_211:\n        /* \"#utility.yul\":7317:7446   */\n      swap2\n      swap1\n      pop\n      jump\t// out\n        /* \"#utility.yul\":7452:7760   */\n    tag_110:\n        /* \"#utility.yul\":7514:7518   */\n      0x00\n        /* \"#utility.yul\":7604:7622   */\n      0xffffffffffffffff\n        /* \"#utility.yul\":7596:7602   */\n      dup3\n        /* \"#utility.yul\":7593:7623   */\n      gt\n        /* \"#utility.yul\":7590:7646   */\n      iszero\n      tag_213\n      jumpi\n        /* \"#utility.yul\":7626:7644   */\n      tag_214\n      tag_107\n      jump\t// in\n    tag_214:\n        /* \"#utility.yul\":7590:7646   */\n    tag_213:\n        /* \"#utility.yul\":7664:7693   */\n      tag_215\n        /* \"#utility.yul\":7686:7692   */\n      dup3\n        /* \"#utility.yul\":7664:7693   */\n      tag_97\n      jump\t// in\n    tag_215:\n        /* \"#utility.yul\":7656:7693   */\n      swap1\n      pop\n        /* \"#utility.yul\":7748:7752   */\n      0x20\n        /* \"#utility.yul\":7742:7746   */\n      dup2\n        /* \"#utility.yul\":7738:7753   */\n      add\n        /* \"#utility.yul\":7730:7753   */\n      swap1\n      pop\n        /* \"#utility.yul\":7452:7760   */\n      swap2\n      swap1\n      pop\n      jump\t// out\n        /* \"#utility.yul\":7766:7912   */\n    tag_111:\n        /* \"#utility.yul\":7863:7869   */\n      dup3\n        /* \"#utility.yul\":7858:7861   */\n      dup2\n        /* \"#utility.yul\":7853:7856   */\n      dup4\n        /* \"#utility.yul\":7840:7870   */\n      calldatacopy\n        /* \"#utility.yul\":7904:7905   */\n      0x00\n        /* \"#utility.yul\":7895:7901   */\n      dup4\n        /* \"#utility.yul\":7890:7893   */\n      dup4\n        /* \"#utility.yul\":7886:7902   */\n      add\n        /* \"#utility.yul\":7879:7906   */\n      mstore\n        /* \"#utility.yul\":7766:7912   */\n      pop\n      pop\n      pop\n      jump\t// out\n        /* \"#utility.yul\":7918:8343   */\n    tag_112:\n        /* \"#utility.yul\":7996:8001   */\n      0x00\n        /* \"#utility.yul\":8021:8087   */\n      tag_218\n        /* \"#utility.yul\":8037:8086   */\n      tag_219\n        /* \"#utility.yul\":8079:8085   */\n      dup5\n        /* \"#utility.yul\":8037:8086   */\n      tag_110\n      jump\t// in\n    tag_219:\n        /* \"#utility.yul\":8021:8087   */\n      tag_109\n      jump\t// in\n    tag_218:\n        /* \"#utility.yul\":8012:8087   */\n      swap1\n      pop\n        /* \"#utility.yul\":8110:8116   */\n      dup3\n        /* \"#utility.yul\":8103:8108   */\n      dup2\n        /* \"#utility.yul\":8096:8117   */\n      mstore\n        /* \"#utility.yul\":8148:8152   */\n      0x20\n        /* \"#utility.yul\":8141:8146   */\n      dup2\n        /* \"#utility.yul\":8137:8153   */\n      add\n        /* \"#utility.yul\":8186:8189   */\n      dup5\n        /* \"#utility.yul\":8177:8183   */\n      dup5\n        /* \"#utility.yul\":8172:8175   */\n      dup5\n        /* \"#utility.yul\":8168:8184   */\n      add\n        /* \"#utility.yul\":8165:8190   */\n      gt\n        /* \"#utility.yul\":8162:8274   */\n      iszero\n      tag_220\n      jumpi\n        /* \"#utility.yul\":8193:8272   */\n      tag_221\n      tag_106\n      jump\t// in\n    tag_221:\n        /* \"#utility.yul\":8162:8274   */\n    tag_220:\n        /* \"#utility.yul\":8283:8337   */\n      tag_222\n        /* \"#utility.yul\":8330:8336   */\n      dup5\n        /* \"#utility.yul\":8325:8328   */\n      dup3\n        /* \"#utility.yul\":8320:8323   */\n      dup6\n        /* \"#utility.yul\":8283:8337   */\n      tag_111\n      jump\t// in\n    tag_222:\n        /* \"#utility.yul\":8002:8343   */\n      pop\n        /* \"#utility.yul\":7918:8343   */\n      swap4\n      swap3\n      pop\n      pop\n      pop\n      jump\t// out\n        /* \"#utility.yul\":8363:8703   */\n    tag_113:\n        /* \"#utility.yul\":8419:8424   */\n      0x00\n        /* \"#utility.yul\":8468:8471   */\n      dup3\n        /* \"#utility.yul\":8461:8465   */\n      0x1f\n        /* \"#utility.yul\":8453:8459   */\n      dup4\n        /* \"#utility.yul\":8449:8466   */\n      add\n        /* \"#utility.yul\":8445:8472   */\n      slt\n        /* \"#utility.yul\":8435:8557   */\n      tag_224\n      jumpi\n        /* \"#utility.yul\":8476:8555   */\n      tag_225\n      tag_105\n      jump\t// in\n    tag_225:\n        /* \"#utility.yul\":8435:8557   */\n    tag_224:\n        /* \"#utility.yul\":8593:8599   */\n      dup2\n        /* \"#utility.yul\":8580:8600   */\n      calldataload\n        /* \"#utility.yul\":8618:8697   */\n      tag_226\n        /* \"#utility.yul\":8693:8696   */\n      dup5\n        /* \"#utility.yul\":8685:8691   */\n      dup3\n        /* \"#utility.yul\":8678:8682   */\n      0x20\n        /* \"#utility.yul\":8670:8676   */\n      dup7\n        /* \"#utility.yul\":8666:8683   */\n      add\n        /* \"#utility.yul\":8618:8697   */\n      tag_112\n      jump\t// in\n    tag_226:\n        /* \"#utility.yul\":8609:8697   */\n      swap2\n      pop\n        /* \"#utility.yul\":8425:8703   */\n      pop\n        /* \"#utility.yul\":8363:8703   */\n      swap3\n      swap2\n      pop\n      pop\n      jump\t// out\n        /* \"#utility.yul\":8709:9218   */\n    tag_26:\n        /* \"#utility.yul\":8778:8784   */\n      0x00\n        /* \"#utility.yul\":8827:8829   */\n      0x20\n        /* \"#utility.yul\":8815:8824   */\n      dup3\n        /* \"#utility.yul\":8806:8813   */\n      dup5\n        /* \"#utility.yul\":8802:8825   */\n      sub\n        /* \"#utility.yul\":8798:8830   */\n      slt\n        /* \"#utility.yul\":8795:8914   */\n      iszero\n      tag_228\n      jumpi\n        /* \"#utility.yul\":8833:8912   */\n      tag_229\n      tag_82\n      jump\t// in\n    tag_229:\n        /* \"#utility.yul\":8795:8914   */\n    tag_228:\n        /* \"#utility.yul\":8981:8982   */\n      0x00\n        /* \"#utility.yul\":8970:8979   */\n      dup3\n        /* \"#utility.yul\":8966:8983   */\n      add\n        /* \"#utility.yul\":8953:8984   */\n      calldataload\n        /* \"#utility.yul\":9011:9029   */\n      0xffffffffffffffff\n        /* \"#utility.yul\":9003:9009   */\n      dup2\n        /* \"#utility.yul\":9000:9030   */\n      gt\n        /* \"#utility.yul\":8997:9114   */\n      iszero\n      tag_230\n      jumpi\n        /* \"#utility.yul\":9033:9112   */\n      tag_231\n      tag_83\n      jump\t// in\n    tag_231:\n        /* \"#utility.yul\":8997:9114   */\n    tag_230:\n        /* \"#utility.yul\":9138:9201   */\n      tag_232\n        /* \"#utility.yul\":9193:9200   */\n      dup5\n        /* \"#utility.yul\":9184:9190   */\n      dup3\n        /* \"#utility.yul\":9173:9182   */\n      dup6\n        /* \"#utility.yul\":9169:9191   */\n      add\n        /* \"#utility.yul\":9138:9201   */\n      tag_113\n      jump\t// in\n    tag_232:\n        /* \"#utility.yul\":9128:9201   */\n      swap2\n      pop\n        /* \"#utility.yul\":8924:9211   */\n      pop\n        /* \"#utility.yul\":8709:9218   */\n      swap3\n      swap2\n      pop\n      pop\n      jump\t// out\n        /* \"#utility.yul\":9224:9342   */\n    tag_114:\n        /* \"#utility.yul\":9311:9335   */\n      tag_234\n        /* \"#utility.yul\":9329:9334   */\n      dup2\n        /* \"#utility.yul\":9311:9335   */\n      tag_84\n      jump\t// in\n    tag_234:\n        /* \"#utility.yul\":9306:9309   */\n      dup3\n        /* \"#utility.yul\":9299:9336   */\n      mstore\n        /* \"#utility.yul\":9224:9342   */\n      pop\n      pop\n      jump\t// out\n        /* \"#utility.yul\":9348:9466   */\n    tag_115:\n        /* \"#utility.yul\":9435:9459   */\n      tag_236\n        /* \"#utility.yul\":9453:9458   */\n      dup2\n        /* \"#utility.yul\":9435:9459   */\n      tag_92\n      jump\t// in\n    tag_236:\n        /* \"#utility.yul\":9430:9433   */\n      dup3\n        /* \"#utility.yul\":9423:9460   */\n      mstore\n        /* \"#utility.yul\":9348:9466   */\n      pop\n      pop\n      jump\t// out\n        /* \"#utility.yul\":9472:9641   */\n    tag_116:\n        /* \"#utility.yul\":9556:9567   */\n      0x00\n        /* \"#utility.yul\":9590:9596   */\n      dup3\n        /* \"#utility.yul\":9585:9588   */\n      dup3\n        /* \"#utility.yul\":9578:9597   */\n      mstore\n        /* \"#utility.yul\":9630:9634   */\n      0x20\n        /* \"#utility.yul\":9625:9628   */\n      dup3\n        /* \"#utility.yul\":9621:9635   */\n      add\n        /* \"#utility.yul\":9606:9635   */\n      swap1\n      pop\n        /* \"#utility.yul\":9472:9641   */\n      swap3\n      swap2\n      pop\n      pop\n      jump\t// out\n        /* \"#utility.yul\":9647:10024   */\n    tag_117:\n        /* \"#utility.yul\":9735:9738   */\n      0x00\n        /* \"#utility.yul\":9763:9802   */\n      tag_239\n        /* \"#utility.yul\":9796:9801   */\n      dup3\n        /* \"#utility.yul\":9763:9802   */\n      tag_94\n      jump\t// in\n    tag_239:\n        /* \"#utility.yul\":9818:9889   */\n      tag_240\n        /* \"#utility.yul\":9882:9888   */\n      dup2\n        /* \"#utility.yul\":9877:9880   */\n      dup6\n        /* \"#utility.yul\":9818:9889   */\n      tag_116\n      jump\t// in\n    tag_240:\n        /* \"#utility.yul\":9811:9889   */\n      swap4\n      pop\n        /* \"#utility.yul\":9898:9963   */\n      tag_241\n        /* \"#utility.yul\":9956:9962   */\n      dup2\n        /* \"#utility.yul\":9951:9954   */\n      dup6\n        /* \"#utility.yul\":9944:9948   */\n      0x20\n        /* \"#utility.yul\":9937:9942   */\n      dup7\n        /* \"#utility.yul\":9933:9949   */\n      add\n        /* \"#utility.yul\":9898:9963   */\n      tag_96\n      jump\t// in\n    tag_241:\n        /* \"#utility.yul\":9988:10017   */\n      tag_242\n        /* \"#utility.yul\":10010:10016   */\n      dup2\n        /* \"#utility.yul\":9988:10017   */\n      tag_97\n      jump\t// in\n    tag_242:\n        /* \"#utility.yul\":9983:9986   */\n      dup5\n        /* \"#utility.yul\":9979:10018   */\n      add\n        /* \"#utility.yul\":9972:10018   */\n      swap2\n      pop\n        /* \"#utility.yul\":9739:10024   */\n      pop\n        /* \"#utility.yul\":9647:10024   */\n      swap3\n      swap2\n      pop\n      pop\n      jump\t// out\n        /* \"#utility.yul\":10030:10785   */\n    tag_32:\n        /* \"#utility.yul\":10255:10259   */\n      0x00\n        /* \"#utility.yul\":10293:10296   */\n      0xa0\n        /* \"#utility.yul\":10282:10291   */\n      dup3\n        /* \"#utility.yul\":10278:10297   */\n      add\n        /* \"#utility.yul\":10270:10297   */\n      swap1\n      pop\n        /* \"#utility.yul\":10307:10378   */\n      tag_244\n        /* \"#utility.yul\":10375:10376   */\n      0x00\n        /* \"#utility.yul\":10364:10373   */\n      dup4\n        /* \"#utility.yul\":10360:10377   */\n      add\n        /* \"#utility.yul\":10351:10357   */\n      dup9\n        /* \"#utility.yul\":10307:10378   */\n      tag_114\n      jump\t// in\n    tag_244:\n        /* \"#utility.yul\":10388:10460   */\n      tag_245\n        /* \"#utility.yul\":10456:10458   */\n      0x20\n        /* \"#utility.yul\":10445:10454   */\n      dup4\n        /* \"#utility.yul\":10441:10459   */\n      add\n        /* \"#utility.yul\":10432:10438   */\n      dup8\n        /* \"#utility.yul\":10388:10460   */\n      tag_115\n      jump\t// in\n    tag_245:\n        /* \"#utility.yul\":10507:10516   */\n      dup2\n        /* \"#utility.yul\":10501:10505   */\n      dup2\n        /* \"#utility.yul\":10497:10517   */\n      sub\n        /* \"#utility.yul\":10492:10494   */\n      0x40\n        /* \"#utility.yul\":10481:10490   */\n      dup4\n        /* \"#utility.yul\":10477:10495   */\n      add\n        /* \"#utility.yul\":10470:10518   */\n      mstore\n        /* \"#utility.yul\":10535:10613   */\n      tag_246\n        /* \"#utility.yul\":10608:10612   */\n      dup2\n        /* \"#utility.yul\":10599:10605   */\n      dup7\n        /* \"#utility.yul\":10535:10613   */\n      tag_117\n      jump\t// in\n    tag_246:\n        /* \"#utility.yul\":10527:10613   */\n      swap1\n      pop\n        /* \"#utility.yul\":10623:10695   */\n      tag_247\n        /* \"#utility.yul\":10691:10693   */\n      0x60\n        /* \"#utility.yul\":10680:10689   */\n      dup4\n        /* \"#utility.yul\":10676:10694   */\n      add\n        /* \"#utility.yul\":10667:10673   */\n      dup6\n        /* \"#utility.yul\":10623:10695   */\n      tag_114\n      jump\t// in\n    tag_247:\n        /* \"#utility.yul\":10705:10778   */\n      tag_248\n        /* \"#utility.yul\":10773:10776   */\n      0x80\n        /* \"#utility.yul\":10762:10771   */\n      dup4\n        /* \"#utility.yul\":10758:10777   */\n      add\n        /* \"#utility.yul\":10749:10755   */\n      dup5\n        /* \"#utility.yul\":10705:10778   */\n      tag_114\n      jump\t// in\n    tag_248:\n        /* \"#utility.yul\":10030:10785   */\n      swap7\n      swap6\n      pop\n      pop\n      pop\n      pop\n      pop\n      pop\n      jump\t// out\n        /* \"#utility.yul\":10791:10956   */\n    tag_118:\n        /* \"#utility.yul\":10931:10948   */\n      0x5477656574206e6f7420666f756e640000000000000000000000000000000000\n        /* \"#utility.yul\":10927:10928   */\n      0x00\n        /* \"#utility.yul\":10919:10925   */\n      dup3\n        /* \"#utility.yul\":10915:10929   */\n      add\n        /* \"#utility.yul\":10908:10949   */\n      mstore\n        /* \"#utility.yul\":10791:10956   */\n      pop\n      jump\t// out\n        /* \"#utility.yul\":10962:11328   */\n    tag_119:\n        /* \"#utility.yul\":11104:11107   */\n      0x00\n        /* \"#utility.yul\":11125:11192   */\n      tag_251\n        /* \"#utility.yul\":11189:11191   */\n      0x0f\n        /* \"#utility.yul\":11184:11187   */\n      dup4\n        /* \"#utility.yul\":11125:11192   */\n      tag_116\n      jump\t// in\n    tag_251:\n        /* \"#utility.yul\":11118:11192   */\n      swap2\n      pop\n        /* \"#utility.yul\":11201:11294   */\n      tag_252\n        /* \"#utility.yul\":11290:11293   */\n      dup3\n        /* \"#utility.yul\":11201:11294   */\n      tag_118\n      jump\t// in\n    tag_252:\n        /* \"#utility.yul\":11319:11321   */\n      0x20\n        /* \"#utility.yul\":11314:11317   */\n      dup3\n        /* \"#utility.yul\":11310:11322   */\n      add\n        /* \"#utility.yul\":11303:11322   */\n      swap1\n      pop\n        /* \"#utility.yul\":10962:11328   */\n      swap2\n      swap1\n      pop\n      jump\t// out\n        /* \"#utility.yul\":11334:11753   */\n    tag_36:\n        /* \"#utility.yul\":11500:11504   */\n      0x00\n        /* \"#utility.yul\":11538:11540   */\n      0x20\n        /* \"#utility.yul\":11527:11536   */\n      dup3\n        /* \"#utility.yul\":11523:11541   */\n      add\n        /* \"#utility.yul\":11515:11541   */\n      swap1\n      pop\n        /* \"#utility.yul\":11587:11596   */\n      dup2\n        /* \"#utility.yul\":11581:11585   */\n      dup2\n        /* \"#utility.yul\":11577:11597   */\n      sub\n        /* \"#utility.yul\":11573:11574   */\n      0x00\n        /* \"#utility.yul\":11562:11571   */\n      dup4\n        /* \"#utility.yul\":11558:11575   */\n      add\n        /* \"#utility.yul\":11551:11598   */\n      mstore\n        /* \"#utility.yul\":11615:11746   */\n      tag_254\n        /* \"#utility.yul\":11741:11745   */\n      dup2\n        /* \"#utility.yul\":11615:11746   */\n      tag_119\n      jump\t// in\n    tag_254:\n        /* \"#utility.yul\":11607:11746   */\n      swap1\n      pop\n        /* \"#utility.yul\":11334:11753   */\n      swap2\n      swap1\n      pop\n      jump\t// out\n        /* \"#utility.yul\":11759:11939   */\n    tag_39:\n        /* \"#utility.yul\":11807:11884   */\n      0x4e487b7100000000000000000000000000000000000000000000000000000000\n        /* \"#utility.yul\":11804:11805   */\n      0x00\n        /* \"#utility.yul\":11797:11885   */\n      mstore\n        /* \"#utility.yul\":11904:11908   */\n      0x32\n        /* \"#utility.yul\":11901:11902   */\n      0x04\n        /* \"#utility.yul\":11894:11909   */\n      mstore\n        /* \"#utility.yul\":11928:11932   */\n      0x24\n        /* \"#utility.yul\":11925:11926   */\n      0x00\n        /* \"#utility.yul\":11918:11933   */\n      revert\n        /* \"#utility.yul\":11945:12113   */\n    tag_120:\n        /* \"#utility.yul\":12085:12105   */\n      0x4e6f206c696b657320746f2072656d6f76650000000000000000000000000000\n        /* \"#utility.yul\":12081:12082   */\n      0x00\n        /* \"#utility.yul\":12073:12079   */\n      dup3\n        /* \"#utility.yul\":12069:12083   */\n      add\n        /* \"#utility.yul\":12062:12106   */\n      mstore\n        /* \"#utility.yul\":11945:12113   */\n      pop\n      jump\t// out\n        /* \"#utility.yul\":12119:12485   */\n    tag_121:\n        /* \"#utility.yul\":12261:12264   */\n      0x00\n        /* \"#utility.yul\":12282:12349   */\n      tag_258\n        /* \"#utility.yul\":12346:12348   */\n      0x12\n        /* \"#utility.yul\":12341:12344   */\n      dup4\n        /* \"#utility.yul\":12282:12349   */\n      tag_116\n      jump\t// in\n    tag_258:\n        /* \"#utility.yul\":12275:12349   */\n      swap2\n      pop\n        /* \"#utility.yul\":12358:12451   */\n      tag_259\n        /* \"#utility.yul\":12447:12450   */\n      dup3\n        /* \"#utility.yul\":12358:12451   */\n      tag_120\n      jump\t// in\n    tag_259:\n        /* \"#utility.yul\":12476:12478   */\n      0x20\n        /* \"#utility.yul\":12471:12474   */\n      dup3\n        /* \"#utility.yul\":12467:12479   */\n      add\n        /* \"#utility.yul\":12460:12479   */\n      swap1\n      pop\n        /* \"#utility.yul\":12119:12485   */\n      swap2\n      swap1\n      pop\n      jump\t// out\n        /* \"#utility.yul\":12491:12910   */\n    tag_43:\n        /* \"#utility.yul\":12657:12661   */\n      0x00\n        /* \"#utility.yul\":12695:12697   */\n      0x20\n        /* \"#utility.yul\":12684:12693   */\n      dup3\n        /* \"#utility.yul\":12680:12698   */\n      add\n        /* \"#utility.yul\":12672:12698   */\n      swap1\n      pop\n        /* \"#utility.yul\":12744:12753   */\n      dup2\n        /* \"#utility.yul\":12738:12742   */\n      dup2\n        /* \"#utility.yul\":12734:12754   */\n      sub\n        /* \"#utility.yul\":12730:12731   */\n      0x00\n        /* \"#utility.yul\":12719:12728   */\n      dup4\n        /* \"#utility.yul\":12715:12732   */\n      add\n        /* \"#utility.yul\":12708:12755   */\n      mstore\n        /* \"#utility.yul\":12772:12903   */\n      tag_261\n        /* \"#utility.yul\":12898:12902   */\n      dup2\n        /* \"#utility.yul\":12772:12903   */\n      tag_121\n      jump\t// in\n    tag_261:\n        /* \"#utility.yul\":12764:12903   */\n      swap1\n      pop\n        /* \"#utility.yul\":12491:12910   */\n      swap2\n      swap1\n      pop\n      jump\t// out\n        /* \"#utility.yul\":12916:13096   */\n    tag_122:\n        /* \"#utility.yul\":12964:13041   */\n      0x4e487b7100000000000000000000000000000000000000000000000000000000\n        /* \"#utility.yul\":12961:12962   */\n      0x00\n        /* \"#utility.yul\":12954:13042   */\n      mstore\n        /* \"#utility.yul\":13061:13065   */\n      0x11\n        /* \"#utility.yul\":13058:13059   */\n      0x04\n        /* \"#utility.yul\":13051:13066   */\n      mstore\n        /* \"#utility.yul\":13085:13089   */\n      0x24\n        /* \"#utility.yul\":13082:13083   */\n      0x00\n        /* \"#utility.yul\":13075:13090   */\n      revert\n        /* \"#utility.yul\":13102:13273   */\n    tag_48:\n        /* \"#utility.yul\":13141:13144   */\n      0x00\n        /* \"#utility.yul\":13164:13188   */\n      tag_264\n        /* \"#utility.yul\":13182:13187   */\n      dup3\n        /* \"#utility.yul\":13164:13188   */\n      tag_84\n      jump\t// in\n    tag_264:\n        /* \"#utility.yul\":13155:13188   */\n      swap2\n      pop\n        /* \"#utility.yul\":13210:13214   */\n      0x00\n        /* \"#utility.yul\":13203:13208   */\n      dup3\n        /* \"#utility.yul\":13200:13215   */\n      sub\n        /* \"#utility.yul\":13197:13238   */\n      tag_265\n      jumpi\n        /* \"#utility.yul\":13218:13236   */\n      tag_266\n      tag_122\n      jump\t// in\n    tag_266:\n        /* \"#utility.yul\":13197:13238   */\n    tag_265:\n        /* \"#utility.yul\":13265:13266   */\n      0x01\n        /* \"#utility.yul\":13258:13263   */\n      dup3\n        /* \"#utility.yul\":13254:13267   */\n      sub\n        /* \"#utility.yul\":13247:13267   */\n      swap1\n      pop\n        /* \"#utility.yul\":13102:13273   */\n      swap2\n      swap1\n      pop\n      jump\t// out\n        /* \"#utility.yul\":13279:13459   */\n    tag_123:\n        /* \"#utility.yul\":13327:13404   */\n      0x4e487b7100000000000000000000000000000000000000000000000000000000\n        /* \"#utility.yul\":13324:13325   */\n      0x00\n        /* \"#utility.yul\":13317:13405   */\n      mstore\n        /* \"#utility.yul\":13424:13428   */\n      0x22\n        /* \"#utility.yul\":13421:13422   */\n      0x04\n        /* \"#utility.yul\":13414:13429   */\n      mstore\n        /* \"#utility.yul\":13448:13452   */\n      0x24\n        /* \"#utility.yul\":13445:13446   */\n      0x00\n        /* \"#utility.yul\":13438:13453   */\n      revert\n        /* \"#utility.yul\":13465:13785   */\n    tag_54:\n        /* \"#utility.yul\":13509:13515   */\n      0x00\n        /* \"#utility.yul\":13546:13547   */\n      0x02\n        /* \"#utility.yul\":13540:13544   */\n      dup3\n        /* \"#utility.yul\":13536:13548   */\n      div\n        /* \"#utility.yul\":13526:13548   */\n      swap1\n      pop\n        /* \"#utility.yul\":13593:13594   */\n      0x01\n        /* \"#utility.yul\":13587:13591   */\n      dup3\n        /* \"#utility.yul\":13583:13595   */\n      and\n        /* \"#utility.yul\":13614:13632   */\n      dup1\n        /* \"#utility.yul\":13604:13685   */\n      tag_269\n      jumpi\n        /* \"#utility.yul\":13670:13674   */\n      0x7f\n        /* \"#utility.yul\":13662:13668   */\n      dup3\n        /* \"#utility.yul\":13658:13675   */\n      and\n        /* \"#utility.yul\":13648:13675   */\n      swap2\n      pop\n        /* \"#utility.yul\":13604:13685   */\n    tag_269:\n        /* \"#utility.yul\":13732:13734   */\n      0x20\n        /* \"#utility.yul\":13724:13730   */\n      dup3\n        /* \"#utility.yul\":13721:13735   */\n      lt\n        /* \"#utility.yul\":13701:13719   */\n      dup2\n        /* \"#utility.yul\":13698:13736   */\n      sub\n        /* \"#utility.yul\":13695:13779   */\n      tag_270\n      jumpi\n        /* \"#utility.yul\":13751:13769   */\n      tag_271\n      tag_123\n      jump\t// in\n    tag_271:\n        /* \"#utility.yul\":13695:13779   */\n    tag_270:\n        /* \"#utility.yul\":13516:13785   */\n      pop\n        /* \"#utility.yul\":13465:13785   */\n      swap2\n      swap1\n      pop\n      jump\t// out\n        /* \"#utility.yul\":13791:14024   */\n    tag_66:\n        /* \"#utility.yul\":13830:13833   */\n      0x00\n        /* \"#utility.yul\":13853:13877   */\n      tag_273\n        /* \"#utility.yul\":13871:13876   */\n      dup3\n        /* \"#utility.yul\":13853:13877   */\n      tag_84\n      jump\t// in\n    tag_273:\n        /* \"#utility.yul\":13844:13877   */\n      swap2\n      pop\n        /* \"#utility.yul\":13899:13965   */\n      0xffffffffffffffffffffffffffffffffffffffffffffffffffffffffffffffff\n        /* \"#utility.yul\":13892:13897   */\n      dup3\n        /* \"#utility.yul\":13889:13966   */\n      sub\n        /* \"#utility.yul\":13886:13989   */\n      tag_274\n      jumpi\n        /* \"#utility.yul\":13969:13987   */\n      tag_275\n      tag_122\n      jump\t// in\n    tag_275:\n        /* \"#utility.yul\":13886:13989   */\n    tag_274:\n        /* \"#utility.yul\":14016:14017   */\n      0x01\n        /* \"#utility.yul\":14009:14014   */\n      dup3\n        /* \"#utility.yul\":14005:14018   */\n      add\n        /* \"#utility.yul\":13998:14018   */\n      swap1\n      pop\n        /* \"#utility.yul\":13791:14024   */\n      swap2\n      swap1\n      pop\n      jump\t// out\n        /* \"#utility.yul\":14030:14195   */\n    tag_124:\n        /* \"#utility.yul\":14170:14187   */\n      0x547765657420746f6f206c6f6e67210000000000000000000000000000000000\n        /* \"#utility.yul\":14166:14167   */\n      0x00\n        /* \"#utility.yul\":14158:14164   */\n      dup3\n        /* \"#utility.yul\":14154:14168   */\n      add\n        /* \"#utility.yul\":14147:14188   */\n      mstore\n        /* \"#utility.yul\":14030:14195   */\n      pop\n      jump\t// out\n        /* \"#utility.yul\":14201:14567   */\n    tag_125:\n        /* \"#utility.yul\":14343:14346   */\n      0x00\n        /* \"#utility.yul\":14364:14431   */\n      tag_278\n        /* \"#utility.yul\":14428:14430   */\n      0x0f\n        /* \"#utility.yul\":14423:14426   */\n      dup4\n        /* \"#utility.yul\":14364:14431   */\n      tag_116\n      jump\t// in\n    tag_278:\n        /* \"#utility.yul\":14357:14431   */\n      swap2\n      pop\n        /* \"#utility.yul\":14440:14533   */\n      tag_279\n        /* \"#utility.yul\":14529:14532   */\n      dup3\n        /* \"#utility.yul\":14440:14533   */\n      tag_124\n      jump\t// in\n    tag_279:\n        /* \"#utility.yul\":14558:14560   */\n      0x20\n        /* \"#utility.yul\":14553:14556   */\n      dup3\n        /* \"#utility.yul\":14549:14561   */\n      add\n        /* \"#utility.yul\":14542:14561   */\n      swap1\n      pop\n        /* \"#utility.yul\":14201:14567   */\n      swap2\n      swap1\n      pop\n      jump\t// out\n        /* \"#utility.yul\":14573:14992   */\n    tag_70:\n        /* \"#utility.yul\":14739:14743   */\n      0x00\n        /* \"#utility.yul\":14777:14779   */\n      0x20\n        /* \"#utility.yul\":14766:14775   */\n      dup3\n        /* \"#utility.yul\":14762:14780   */\n      add\n        /* \"#utility.yul\":14754:14780   */\n      swap1\n      pop\n        /* \"#utility.yul\":14826:14835   */\n      dup2\n        /* \"#utility.yul\":14820:14824   */\n      dup2\n        /* \"#utility.yul\":14816:14836   */\n      sub\n        /* \"#utility.yul\":14812:14813   */\n      0x00\n        /* \"#utility.yul\":14801:14810   */\n      dup4\n        /* \"#utility.yul\":14797:14814   */\n      add\n        /* \"#utility.yul\":14790:14837   */\n      mstore\n        /* \"#utility.yul\":14854:14985   */\n      tag_281\n        /* \"#utility.yul\":14980:14984   */\n      dup2\n        /* \"#utility.yul\":14854:14985   */\n      tag_125\n      jump\t// in\n    tag_281:\n        /* \"#utility.yul\":14846:14985   */\n      swap1\n      pop\n        /* \"#utility.yul\":14573:14992   */\n      swap2\n      swap1\n      pop\n      jump\t// out\n        /* \"#utility.yul\":14998:15139   */\n    tag_126:\n        /* \"#utility.yul\":15047:15051   */\n      0x00\n        /* \"#utility.yul\":15070:15073   */\n      dup2\n        /* \"#utility.yul\":15062:15073   */\n      swap1\n      pop\n        /* \"#utility.yul\":15093:15096   */\n      dup2\n        /* \"#utility.yul\":15090:15091   */\n      0x00\n        /* \"#utility.yul\":15083:15097   */\n      mstore\n        /* \"#utility.yul\":15127:15131   */\n      0x20\n        /* \"#utility.yul\":15124:15125   */\n      0x00\n        /* \"#utility.yul\":15114:15132   */\n      keccak256\n        /* \"#utility.yul\":15106:15132   */\n      swap1\n      pop\n        /* \"#utility.yul\":14998:15139   */\n      swap2\n      swap1\n      pop\n      jump\t// out\n        /* \"#utility.yul\":15145:15238   */\n    tag_127:\n        /* \"#utility.yul\":15182:15188   */\n      0x00\n        /* \"#utility.yul\":15229:15231   */\n      0x20\n        /* \"#utility.yul\":15224:15226   */\n      0x1f\n        /* \"#utility.yul\":15217:15222   */\n      dup4\n        /* \"#utility.yul\":15213:15227   */\n      add\n        /* \"#utility.yul\":15209:15232   */\n      div\n        /* \"#utility.yul\":15199:15232   */\n      swap1\n      pop\n        /* \"#utility.yul\":15145:15238   */\n      swap2\n      swap1\n      pop\n      jump\t// out\n        /* \"#utility.yul\":15244:15351   */\n    tag_128:\n        /* \"#utility.yul\":15288:15296   */\n      0x00\n        /* \"#utility.yul\":15338:15343   */\n      dup3\n        /* \"#utility.yul\":15332:15336   */\n      dup3\n        /* \"#utility.yul\":15328:15344   */\n      shl\n        /* \"#utility.yul\":15307:15344   */\n      swap1\n      pop\n        /* \"#utility.yul\":15244:15351   */\n      swap3\n      swap2\n      pop\n      pop\n      jump\t// out\n        /* \"#utility.yul\":15357:15750   */\n    tag_129:\n        /* \"#utility.yul\":15426:15432   */\n      0x00\n        /* \"#utility.yul\":15476:15477   */\n      0x08\n        /* \"#utility.yul\":15464:15474   */\n      dup4\n        /* \"#utility.yul\":15460:15478   */\n      mul\n        /* \"#utility.yul\":15499:15596   */\n      tag_286\n        /* \"#utility.yul\":15529:15595   */\n      0xffffffffffffffffffffffffffffffffffffffffffffffffffffffffffffffff\n        /* \"#utility.yul\":15518:15527   */\n      dup3\n        /* \"#utility.yul\":15499:15596   */\n      tag_128\n      jump\t// in\n    tag_286:\n        /* \"#utility.yul\":15617:15656   */\n      tag_287\n        /* \"#utility.yul\":15647:15655   */\n      dup7\n        /* \"#utility.yul\":15636:15645   */\n      dup4\n        /* \"#utility.yul\":15617:15656   */\n      tag_128\n      jump\t// in\n    tag_287:\n        /* \"#utility.yul\":15605:15656   */\n      swap6\n      pop\n        /* \"#utility.yul\":15689:15693   */\n      dup1\n        /* \"#utility.yul\":15685:15694   */\n      not\n        /* \"#utility.yul\":15678:15683   */\n      dup5\n        /* \"#utility.yul\":15674:15695   */\n      and\n        /* \"#utility.yul\":15665:15695   */\n      swap4\n      pop\n        /* \"#utility.yul\":15738:15742   */\n      dup1\n        /* \"#utility.yul\":15728:15736   */\n      dup7\n        /* \"#utility.yul\":15724:15743   */\n      and\n        /* \"#utility.yul\":15717:15722   */\n      dup5\n        /* \"#utility.yul\":15714:15744   */\n      or\n        /* \"#utility.yul\":15704:15744   */\n      swap3\n      pop\n        /* \"#utility.yul\":15433:15750   */\n      pop\n      pop\n        /* \"#utility.yul\":15357:15750   */\n      swap4\n      swap3\n      pop\n      pop\n      pop\n      jump\t// out\n        /* \"#utility.yul\":15756:15816   */\n    tag_130:\n        /* \"#utility.yul\":15784:15787   */\n      0x00\n        /* \"#utility.yul\":15805:15810   */\n      dup2\n        /* \"#utility.yul\":15798:15810   */\n      swap1\n      pop\n        /* \"#utility.yul\":15756:15816   */\n      swap2\n      swap1\n      pop\n      jump\t// out\n        /* \"#utility.yul\":15822:15964   */\n    tag_131:\n        /* \"#utility.yul\":15872:15881   */\n      0x00\n        /* \"#utility.yul\":15905:15958   */\n      tag_290\n        /* \"#utility.yul\":15923:15957   */\n      tag_291\n        /* \"#utility.yul\":15932:15956   */\n      tag_292\n        /* \"#utility.yul\":15950:15955   */\n      dup5\n        /* \"#utility.yul\":15932:15956   */\n      tag_84\n      jump\t// in\n    tag_292:\n        /* \"#utility.yul\":15923:15957   */\n      tag_130\n      jump\t// in\n    tag_291:\n        /* \"#utility.yul\":15905:15958   */\n      tag_84\n      jump\t// in\n    tag_290:\n        /* \"#utility.yul\":15892:15958   */\n      swap1\n      pop\n        /* \"#utility.yul\":15822:15964   */\n      swap2\n      swap1\n      pop\n      jump\t// out\n        /* \"#utility.yul\":15970:16045   */\n    tag_132:\n        /* \"#utility.yul\":16013:16016   */\n      0x00\n        /* \"#utility.yul\":16034:16039   */\n      dup2\n        /* \"#utility.yul\":16027:16039   */\n      swap1\n      pop\n        /* \"#utility.yul\":15970:16045   */\n      swap2\n      swap1\n      pop\n      jump\t// out\n        /* \"#utility.yul\":16051:16320   */\n    tag_133:\n        /* \"#utility.yul\":16161:16200   */\n      tag_295\n        /* \"#utility.yul\":16192:16199   */\n      dup4\n        /* \"#utility.yul\":16161:16200   */\n      tag_131\n      jump\t// in\n    tag_295:\n        /* \"#utility.yul\":16222:16313   */\n      tag_296\n        /* \"#utility.yul\":16271:16312   */\n      tag_297\n        /* \"#utility.yul\":16295:16311   */\n      dup3\n        /* \"#utility.yul\":16271:16312   */\n      tag_132\n      jump\t// in\n    tag_297:\n        /* \"#utility.yul\":16263:16269   */\n      dup5\n        /* \"#utility.yul\":16256:16260   */\n      dup5\n        /* \"#utility.yul\":16250:16261   */\n      sload\n        /* \"#utility.yul\":16222:16313   */\n      tag_129\n      jump\t// in\n    tag_296:\n        /* \"#utility.yul\":16216:16220   */\n      dup3\n        /* \"#utility.yul\":16209:16314   */\n      sstore\n        /* \"#utility.yul\":16127:16320   */\n      pop\n        /* \"#utility.yul\":16051:16320   */\n      pop\n      pop\n      pop\n      jump\t// out\n        /* \"#utility.yul\":16326:16399   */\n    tag_134:\n        /* \"#utility.yul\":16371:16374   */\n      0x00\n        /* \"#utility.yul\":16326:16399   */\n      swap1\n      jump\t// out\n        /* \"#utility.yul\":16405:16594   */\n    tag_135:\n        /* \"#utility.yul\":16482:16514   */\n      tag_300\n      tag_134\n      jump\t// in\n    tag_300:\n        /* \"#utility.yul\":16523:16588   */\n      tag_301\n        /* \"#utility.yul\":16581:16587   */\n      dup2\n        /* \"#utility.yul\":16573:16579   */\n      dup5\n        /* \"#utility.yul\":16567:16571   */\n      dup5\n        /* \"#utility.yul\":16523:16588   */\n      tag_133\n      jump\t// in\n    tag_301:\n        /* \"#utility.yul\":16458:16594   */\n      pop\n        /* \"#utility.yul\":16405:16594   */\n      pop\n      pop\n      jump\t// out\n        /* \"#utility.yul\":16600:16786   */\n    tag_136:\n        /* \"#utility.yul\":16660:16780   */\n    tag_303:\n        /* \"#utility.yul\":16677:16680   */\n      dup2\n        /* \"#utility.yul\":16670:16675   */\n      dup2\n        /* \"#utility.yul\":16667:16681   */\n      lt\n        /* \"#utility.yul\":16660:16780   */\n      iszero\n      tag_305\n      jumpi\n        /* \"#utility.yul\":16731:16770   */\n      tag_306\n        /* \"#utility.yul\":16768:16769   */\n      0x00\n        /* \"#utility.yul\":16761:16766   */\n      dup3\n        /* \"#utility.yul\":16731:16770   */\n      tag_135\n      jump\t// in\n    tag_306:\n        /* \"#utility.yul\":16704:16705   */\n      0x01\n        /* \"#utility.yul\":16697:16702   */\n      dup2\n        /* \"#utility.yul\":16693:16706   */\n      add\n        /* \"#utility.yul\":16684:16706   */\n      swap1\n      pop\n        /* \"#utility.yul\":16660:16780   */\n      jump(tag_303)\n    tag_305:\n        /* \"#utility.yul\":16600:16786   */\n      pop\n      pop\n      jump\t// out\n        /* \"#utility.yul\":16792:17335   */\n    tag_137:\n        /* \"#utility.yul\":16893:16895   */\n      0x1f\n        /* \"#utility.yul\":16888:16891   */\n      dup3\n        /* \"#utility.yul\":16885:16896   */\n      gt\n        /* \"#utility.yul\":16882:17328   */\n      iszero\n      tag_308\n      jumpi\n        /* \"#utility.yul\":16927:16965   */\n      tag_309\n        /* \"#utility.yul\":16959:16964   */\n      dup2\n        /* \"#utility.yul\":16927:16965   */\n      tag_126\n      jump\t// in\n    tag_309:\n        /* \"#utility.yul\":17011:17040   */\n      tag_310\n        /* \"#utility.yul\":17029:17039   */\n      dup5\n        /* \"#utility.yul\":17011:17040   */\n      tag_127\n      jump\t// in\n    tag_310:\n        /* \"#utility.yul\":17001:17009   */\n      dup2\n        /* \"#utility.yul\":16997:17041   */\n      add\n        /* \"#utility.yul\":17194:17196   */\n      0x20\n        /* \"#utility.yul\":17182:17192   */\n      dup6\n        /* \"#utility.yul\":17179:17197   */\n      lt\n        /* \"#utility.yul\":17176:17225   */\n      iszero\n      tag_311\n      jumpi\n        /* \"#utility.yul\":17215:17223   */\n      dup2\n        /* \"#utility.yul\":17200:17223   */\n      swap1\n      pop\n        /* \"#utility.yul\":17176:17225   */\n    tag_311:\n        /* \"#utility.yul\":17238:17318   */\n      tag_312\n        /* \"#utility.yul\":17294:17316   */\n      tag_313\n        /* \"#utility.yul\":17312:17315   */\n      dup6\n        /* \"#utility.yul\":17294:17316   */\n      tag_127\n      jump\t// in\n    tag_313:\n        /* \"#utility.yul\":17284:17292   */\n      dup4\n        /* \"#utility.yul\":17280:17317   */\n      add\n        /* \"#utility.yul\":17267:17278   */\n      dup3\n        /* \"#utility.yul\":17238:17318   */\n      tag_136\n      jump\t// in\n    tag_312:\n        /* \"#utility.yul\":16897:17328   */\n      pop\n      pop\n        /* \"#utility.yul\":16882:17328   */\n    tag_308:\n        /* \"#utility.yul\":16792:17335   */\n      pop\n      pop\n      pop\n      jump\t// out\n        /* \"#utility.yul\":17341:17458   */\n    tag_138:\n        /* \"#utility.yul\":17395:17403   */\n      0x00\n        /* \"#utility.yul\":17445:17450   */\n      dup3\n        /* \"#utility.yul\":17439:17443   */\n      dup3\n        /* \"#utility.yul\":17435:17451   */\n      shr\n        /* \"#utility.yul\":17414:17451   */\n      swap1\n      pop\n        /* \"#utility.yul\":17341:17458   */\n      swap3\n      swap2\n      pop\n      pop\n      jump\t// out\n        /* \"#utility.yul\":17464:17633   */\n    tag_139:\n        /* \"#utility.yul\":17508:17514   */\n      0x00\n        /* \"#utility.yul\":17541:17592   */\n      tag_316\n        /* \"#utility.yul\":17589:17590   */\n      0x00\n        /* \"#utility.yul\":17585:17591   */\n      not\n        /* \"#utility.yul\":17577:17582   */\n      dup5\n        /* \"#utility.yul\":17574:17575   */\n      0x08\n        /* \"#utility.yul\":17570:17583   */\n      mul\n        /* \"#utility.yul\":17541:17592   */\n      tag_138\n      jump\t// in\n    tag_316:\n        /* \"#utility.yul\":17537:17593   */\n      not\n        /* \"#utility.yul\":17622:17626   */\n      dup1\n        /* \"#utility.yul\":17616:17620   */\n      dup4\n        /* \"#utility.yul\":17612:17627   */\n      and\n        /* \"#utility.yul\":17602:17627   */\n      swap2\n      pop\n        /* \"#utility.yul\":17515:17633   */\n      pop\n        /* \"#utility.yul\":17464:17633   */\n      swap3\n      swap2\n      pop\n      pop\n      jump\t// out\n        /* \"#utility.yul\":17638:17933   */\n    tag_140:\n        /* \"#utility.yul\":17714:17718   */\n      0x00\n        /* \"#utility.yul\":17860:17889   */\n      tag_318\n        /* \"#utility.yul\":17885:17888   */\n      dup4\n        /* \"#utility.yul\":17879:17883   */\n      dup4\n        /* \"#utility.yul\":17860:17889   */\n      tag_139\n      jump\t// in\n    tag_318:\n        /* \"#utility.yul\":17852:17889   */\n      swap2\n      pop\n        /* \"#utility.yul\":17922:17925   */\n      dup3\n        /* \"#utility.yul\":17919:17920   */\n      0x02\n        /* \"#utility.yul\":17915:17926   */\n      mul\n        /* \"#utility.yul\":17909:17913   */\n      dup3\n        /* \"#utility.yul\":17906:17927   */\n      or\n        /* \"#utility.yul\":17898:17927   */\n      swap1\n      pop\n        /* \"#utility.yul\":17638:17933   */\n      swap3\n      swap2\n      pop\n      pop\n      jump\t// out\n        /* \"#utility.yul\":17938:19333   */\n    tag_73:\n        /* \"#utility.yul\":18055:18092   */\n      tag_320\n        /* \"#utility.yul\":18088:18091   */\n      dup3\n        /* \"#utility.yul\":18055:18092   */\n      tag_94\n      jump\t// in\n    tag_320:\n        /* \"#utility.yul\":18157:18175   */\n      0xffffffffffffffff\n        /* \"#utility.yul\":18149:18155   */\n      dup2\n        /* \"#utility.yul\":18146:18176   */\n      gt\n        /* \"#utility.yul\":18143:18199   */\n      iszero\n      tag_321\n      jumpi\n        /* \"#utility.yul\":18179:18197   */\n      tag_322\n      tag_107\n      jump\t// in\n    tag_322:\n        /* \"#utility.yul\":18143:18199   */\n    tag_321:\n        /* \"#utility.yul\":18223:18261   */\n      tag_323\n        /* \"#utility.yul\":18255:18259   */\n      dup3\n        /* \"#utility.yul\":18249:18260   */\n      sload\n        /* \"#utility.yul\":18223:18261   */\n      tag_54\n      jump\t// in\n    tag_323:\n        /* \"#utility.yul\":18308:18375   */\n      tag_324\n        /* \"#utility.yul\":18368:18374   */\n      dup3\n        /* \"#utility.yul\":18360:18366   */\n      dup3\n        /* \"#utility.yul\":18354:18358   */\n      dup6\n        /* \"#utility.yul\":18308:18375   */\n      tag_137\n      jump\t// in\n    tag_324:\n        /* \"#utility.yul\":18402:18403   */\n      0x00\n        /* \"#utility.yul\":18426:18430   */\n      0x20\n        /* \"#utility.yul\":18413:18430   */\n      swap1\n      pop\n        /* \"#utility.yul\":18458:18460   */\n      0x1f\n        /* \"#utility.yul\":18450:18456   */\n      dup4\n        /* \"#utility.yul\":18447:18461   */\n      gt\n        /* \"#utility.yul\":18475:18476   */\n      0x01\n        /* \"#utility.yul\":18470:19088   */\n      dup2\n      eq\n      tag_326\n      jumpi\n        /* \"#utility.yul\":19132:19133   */\n      0x00\n        /* \"#utility.yul\":19149:19155   */\n      dup5\n        /* \"#utility.yul\":19146:19223   */\n      iszero\n      tag_327\n      jumpi\n        /* \"#utility.yul\":19198:19207   */\n      dup3\n        /* \"#utility.yul\":19193:19196   */\n      dup8\n        /* \"#utility.yul\":19189:19208   */\n      add\n        /* \"#utility.yul\":19183:19209   */\n      mload\n        /* \"#utility.yul\":19174:19209   */\n      swap1\n      pop\n        /* \"#utility.yul\":19146:19223   */\n    tag_327:\n        /* \"#utility.yul\":19249:19316   */\n      tag_328\n        /* \"#utility.yul\":19309:19315   */\n      dup6\n        /* \"#utility.yul\":19302:19307   */\n      dup3\n        /* \"#utility.yul\":19249:19316   */\n      tag_140\n      jump\t// in\n    tag_328:\n        /* \"#utility.yul\":19243:19247   */\n      dup7\n        /* \"#utility.yul\":19236:19317   */\n      sstore\n        /* \"#utility.yul\":19105:19327   */\n      pop\n        /* \"#utility.yul\":18440:19327   */\n      jump(tag_325)\n        /* \"#utility.yul\":18470:19088   */\n    tag_326:\n        /* \"#utility.yul\":18522:18526   */\n      0x1f\n        /* \"#utility.yul\":18518:18527   */\n      not\n        /* \"#utility.yul\":18510:18516   */\n      dup5\n        /* \"#utility.yul\":18506:18528   */\n      and\n        /* \"#utility.yul\":18556:18593   */\n      tag_329\n        /* \"#utility.yul\":18588:18592   */\n      dup7\n        /* \"#utility.yul\":18556:18593   */\n      tag_126\n      jump\t// in\n    tag_329:\n        /* \"#utility.yul\":18615:18616   */\n      0x00\n        /* \"#utility.yul\":18629:18837   */\n    tag_330:\n        /* \"#utility.yul\":18643:18650   */\n      dup3\n        /* \"#utility.yul\":18640:18641   */\n      dup2\n        /* \"#utility.yul\":18637:18651   */\n      lt\n        /* \"#utility.yul\":18629:18837   */\n      iszero\n      tag_332\n      jumpi\n        /* \"#utility.yul\":18722:18731   */\n      dup5\n        /* \"#utility.yul\":18717:18720   */\n      dup10\n        /* \"#utility.yul\":18713:18732   */\n      add\n        /* \"#utility.yul\":18707:18733   */\n      mload\n        /* \"#utility.yul\":18699:18705   */\n      dup3\n        /* \"#utility.yul\":18692:18734   */\n      sstore\n        /* \"#utility.yul\":18773:18774   */\n      0x01\n        /* \"#utility.yul\":18765:18771   */\n      dup3\n        /* \"#utility.yul\":18761:18775   */\n      add\n        /* \"#utility.yul\":18751:18775   */\n      swap2\n      pop\n        /* \"#utility.yul\":18820:18822   */\n      0x20\n        /* \"#utility.yul\":18809:18818   */\n      dup6\n        /* \"#utility.yul\":18805:18823   */\n      add\n        /* \"#utility.yul\":18792:18823   */\n      swap5\n      pop\n        /* \"#utility.yul\":18666:18670   */\n      0x20\n        /* \"#utility.yul\":18663:18664   */\n      dup2\n        /* \"#utility.yul\":18659:18671   */\n      add\n        /* \"#utility.yul\":18654:18671   */\n      swap1\n      pop\n        /* \"#utility.yul\":18629:18837   */\n      jump(tag_330)\n    tag_332:\n        /* \"#utility.yul\":18865:18871   */\n      dup7\n        /* \"#utility.yul\":18856:18863   */\n      dup4\n        /* \"#utility.yul\":18853:18872   */\n      lt\n        /* \"#utility.yul\":18850:19029   */\n      iszero\n      tag_333\n      jumpi\n        /* \"#utility.yul\":18923:18932   */\n      dup5\n        /* \"#utility.yul\":18918:18921   */\n      dup10\n        /* \"#utility.yul\":18914:18933   */\n      add\n        /* \"#utility.yul\":18908:18934   */\n      mload\n        /* \"#utility.yul\":18966:19014   */\n      tag_334\n        /* \"#utility.yul\":19008:19012   */\n      0x1f\n        /* \"#utility.yul\":19000:19006   */\n      dup10\n        /* \"#utility.yul\":18996:19013   */\n      and\n        /* \"#utility.yul\":18985:18994   */\n      dup3\n        /* \"#utility.yul\":18966:19014   */\n      tag_139\n      jump\t// in\n    tag_334:\n        /* \"#utility.yul\":18958:18964   */\n      dup4\n        /* \"#utility.yul\":18951:19015   */\n      sstore\n        /* \"#utility.yul\":18873:19029   */\n      pop\n        /* \"#utility.yul\":18850:19029   */\n    tag_333:\n        /* \"#utility.yul\":19075:19076   */\n      0x01\n        /* \"#utility.yul\":19071:19072   */\n      0x02\n        /* \"#utility.yul\":19063:19069   */\n      dup9\n        /* \"#utility.yul\":19059:19073   */\n      mul\n        /* \"#utility.yul\":19055:19077   */\n      add\n        /* \"#utility.yul\":19049:19053   */\n      dup9\n        /* \"#utility.yul\":19042:19078   */\n      sstore\n        /* \"#utility.yul\":18477:19088   */\n      pop\n      pop\n      pop\n        /* \"#utility.yul\":18440:19327   */\n    tag_325:\n      pop\n        /* \"#utility.yul\":18030:19333   */\n      pop\n      pop\n      pop\n        /* \"#utility.yul\":17938:19333   */\n      pop\n      pop\n      jump\t// out\n\n    auxdata: 0xa2646970667358221220a8613f038666d50e46ada9e9a4d0b451d17866aadec4084f53b7e1d8ce710d7c64736f6c63430008120033\n}\n",
				"bytecode": {
					"linkReferences": {},
					"object": "60806040526101186000806101000a81548161ffff021916908361ffff16021790555034801561002e57600080fd5b506110968061003e6000396000f3fe608060405234801561001057600080fd5b50600436106100625760003560e01c806321511a441461006757806353256135146100835780635ffc6ceb146100a15780636eb10797146100bd5780637c9cd2bc146100db578063e28350b7146100f7575b600080fd5b610081600480360381019061007c9190610690565b61012b565b005b61008b610218565b60405161009891906108d5565b60405180910390f35b6100bb60048036038101906100b69190610690565b61037d565b005b6100c5610402565b6040516100d29190610914565b60405180910390f35b6100f560048036038101906100f09190610a64565b610414565b005b610111600480360381019061010c9190610690565b610558565b604051610122959493929190610b15565b60405180910390f35b6001805490508110610172576040517f08c379a000000000000000000000000000000000000000000000000000000000815260040161016990610bbb565b60405180910390fd5b60006001828154811061018857610187610bdb565b5b906000526020600020906005020160040154116101da576040517f08c379a00000000000000000000000000000000000000000000000000000000081526004016101d190610c56565b60405180910390fd5b600181815481106101ee576101ed610bdb565b5b9060005260206000209060050201600401600081548092919061021090610ca5565b919050555050565b60606001805480602002602001604051908101604052809291908181526020016000905b8282101561037457838290600052602060002090600502016040518060a0016040529081600082015481526020016001820160009054906101000a900473ffffffffffffffffffffffffffffffffffffffff1673ffffffffffffffffffffffffffffffffffffffff1673ffffffffffffffffffffffffffffffffffffffff1681526020016002820180546102cf90610cfd565b80601f01602080910402602001604051908101604052809291908181526020018280546102fb90610cfd565b80156103485780601f1061031d57610100808354040283529160200191610348565b820191906000526020600020905b81548152906001019060200180831161032b57829003601f168201915b50505050508152602001600382015481526020016004820154815250508152602001906001019061023c565b50505050905090565b60018054905081106103c4576040517f08c379a00000000000000000000000000000000000000000000000000000000081526004016103bb90610bbb565b60405180910390fd5b600181815481106103d8576103d7610bdb565b5b906000526020600020906005020160040160008154809291906103fa90610d2e565b919050555050565b60008054906101000a900461ffff1681565b60008054906101000a900461ffff1661ffff168151111561046a576040517f08c379a000000000000000000000000000000000000000000000000000000000815260040161046190610dc2565b60405180910390fd5b60016040518060a0016040528060018054905081526020013373ffffffffffffffffffffffffffffffffffffffff168152602001838152602001428152602001600081525090806001815401808255809150506001900390600052602060002090600502016000909190919091506000820151816000015560208201518160010160006101000a81548173ffffffffffffffffffffffffffffffffffffffff021916908373ffffffffffffffffffffffffffffffffffffffff160217905550604082015181600201908161053e9190610f8e565b506060820151816003015560808201518160040155505050565b6001818154811061056857600080fd5b90600052602060002090600502016000915090508060000154908060010160009054906101000a900473ffffffffffffffffffffffffffffffffffffffff16908060020180546105b790610cfd565b80601f01602080910402602001604051908101604052809291908181526020018280546105e390610cfd565b80156106305780601f1061060557610100808354040283529160200191610630565b820191906000526020600020905b81548152906001019060200180831161061357829003601f168201915b5050505050908060030154908060040154905085565b6000604051905090565b600080fd5b600080fd5b6000819050919050565b61066d8161065a565b811461067857600080fd5b50565b60008135905061068a81610664565b92915050565b6000602082840312156106a6576106a5610650565b5b60006106b48482850161067b565b91505092915050565b600081519050919050565b600082825260208201905092915050565b6000819050602082019050919050565b6106f28161065a565b82525050565b600073ffffffffffffffffffffffffffffffffffffffff82169050919050565b6000610723826106f8565b9050919050565b61073381610718565b82525050565b600081519050919050565b600082825260208201905092915050565b60005b83811015610773578082015181840152602081019050610758565b60008484015250505050565b6000601f19601f8301169050919050565b600061079b82610739565b6107a58185610744565b93506107b5818560208601610755565b6107be8161077f565b840191505092915050565b600060a0830160008301516107e160008601826106e9565b5060208301516107f4602086018261072a565b506040830151848203604086015261080c8282610790565b915050606083015161082160608601826106e9565b50608083015161083460808601826106e9565b508091505092915050565b600061084b83836107c9565b905092915050565b6000602082019050919050565b600061086b826106bd565b61087581856106c8565b935083602082028501610887856106d9565b8060005b858110156108c357848403895281516108a4858261083f565b94506108af83610853565b925060208a0199505060018101905061088b565b50829750879550505050505092915050565b600060208201905081810360008301526108ef8184610860565b905092915050565b600061ffff82169050919050565b61090e816108f7565b82525050565b60006020820190506109296000830184610905565b92915050565b600080fd5b600080fd5b7f4e487b7100000000000000000000000000000000000000000000000000000000600052604160045260246000fd5b6109718261077f565b810181811067ffffffffffffffff821117156109905761098f610939565b5b80604052505050565b60006109a3610646565b90506109af8282610968565b919050565b600067ffffffffffffffff8211156109cf576109ce610939565b5b6109d88261077f565b9050602081019050919050565b82818337600083830152505050565b6000610a07610a02846109b4565b610999565b905082815260208101848484011115610a2357610a22610934565b5b610a2e8482856109e5565b509392505050565b600082601f830112610a4b57610a4a61092f565b5b8135610a5b8482602086016109f4565b91505092915050565b600060208284031215610a7a57610a79610650565b5b600082013567ffffffffffffffff811115610a9857610a97610655565b5b610aa484828501610a36565b91505092915050565b610ab68161065a565b82525050565b610ac581610718565b82525050565b600082825260208201905092915050565b6000610ae782610739565b610af18185610acb565b9350610b01818560208601610755565b610b0a8161077f565b840191505092915050565b600060a082019050610b2a6000830188610aad565b610b376020830187610abc565b8181036040830152610b498186610adc565b9050610b586060830185610aad565b610b656080830184610aad565b9695505050505050565b7f5477656574206e6f7420666f756e640000000000000000000000000000000000600082015250565b6000610ba5600f83610acb565b9150610bb082610b6f565b602082019050919050565b60006020820190508181036000830152610bd481610b98565b9050919050565b7f4e487b7100000000000000000000000000000000000000000000000000000000600052603260045260246000fd5b7f4e6f206c696b657320746f2072656d6f76650000000000000000000000000000600082015250565b6000610c40601283610acb565b9150610c4b82610c0a565b602082019050919050565b60006020820190508181036000830152610c6f81610c33565b9050919050565b7f4e487b7100000000000000000000000000000000000000000000000000000000600052601160045260246000fd5b6000610cb08261065a565b915060008203610cc357610cc2610c76565b5b600182039050919050565b7f4e487b7100000000000000000000000000000000000000000000000000000000600052602260045260246000fd5b60006002820490506001821680610d1557607f821691505b602082108103610d2857610d27610cce565b5b50919050565b6000610d398261065a565b91507fffffffffffffffffffffffffffffffffffffffffffffffffffffffffffffffff8203610d6b57610d6a610c76565b5b600182019050919050565b7f547765657420746f6f206c6f6e67210000000000000000000000000000000000600082015250565b6000610dac600f83610acb565b9150610db782610d76565b602082019050919050565b60006020820190508181036000830152610ddb81610d9f565b9050919050565b60008190508160005260206000209050919050565b60006020601f8301049050919050565b600082821b905092915050565b600060088302610e447fffffffffffffffffffffffffffffffffffffffffffffffffffffffffffffffff82610e07565b610e4e8683610e07565b95508019841693508086168417925050509392505050565b6000819050919050565b6000610e8b610e86610e818461065a565b610e66565b61065a565b9050919050565b6000819050919050565b610ea583610e70565b610eb9610eb182610e92565b848454610e14565b825550505050565b600090565b610ece610ec1565b610ed9818484610e9c565b505050565b5b81811015610efd57610ef2600082610ec6565b600181019050610edf565b5050565b601f821115610f4257610f1381610de2565b610f1c84610df7565b81016020851015610f2b578190505b610f3f610f3785610df7565b830182610ede565b50505b505050565b600082821c905092915050565b6000610f6560001984600802610f47565b1980831691505092915050565b6000610f7e8383610f54565b9150826002028217905092915050565b610f9782610739565b67ffffffffffffffff811115610fb057610faf610939565b5b610fba8254610cfd565b610fc5828285610f01565b600060209050601f831160018114610ff85760008415610fe6578287015190505b610ff08582610f72565b865550611058565b601f19841661100686610de2565b60005b8281101561102e57848901518255600182019150602085019450602081019050611009565b8683101561104b5784890151611047601f891682610f54565b8355505b6001600288020188555050505b50505050505056fea2646970667358221220a8613f038666d50e46ada9e9a4d0b451d17866aadec4084f53b7e1d8ce710d7c64736f6c63430008120033",
					"opcodes": "PUSH1 0x80 PUSH1 0x40 MSTORE PUSH2 0x118 PUSH1 0x0 DUP1 PUSH2 0x100 EXP DUP2 SLOAD DUP2 PUSH2 0xFFFF MUL NOT AND SWAP1 DUP4 PUSH2 0xFFFF AND MUL OR SWAP1 SSTORE POP CALLVALUE DUP1 ISZERO PUSH2 0x2E JUMPI PUSH1 0x0 DUP1 REVERT JUMPDEST POP PUSH2 0x1096 DUP1 PUSH2 0x3E PUSH1 0x0 CODECOPY PUSH1 0x0 RETURN INVALID PUSH1 0x80 PUSH1 0x40 MSTORE CALLVALUE DUP1 ISZERO PUSH2 0x10 JUMPI PUSH1 0x0 DUP1 REVERT JUMPDEST POP PUSH1 0x4 CALLDATASIZE LT PUSH2 0x62 JUMPI PUSH1 0x0 CALLDATALOAD PUSH1 0xE0 SHR DUP1 PUSH4 0x21511A44 EQ PUSH2 0x67 JUMPI DUP1 PUSH4 0x53256135 EQ PUSH2 0x83 JUMPI DUP1 PUSH4 0x5FFC6CEB EQ PUSH2 0xA1 JUMPI DUP1 PUSH4 0x6EB10797 EQ PUSH2 0xBD JUMPI DUP1 PUSH4 0x7C9CD2BC EQ PUSH2 0xDB JUMPI DUP1 PUSH4 0xE28350B7 EQ PUSH2 0xF7 JUMPI JUMPDEST PUSH1 0x0 DUP1 REVERT JUMPDEST PUSH2 0x81 PUSH1 0x4 DUP1 CALLDATASIZE SUB DUP2 ADD SWAP1 PUSH2 0x7C SWAP2 SWAP1 PUSH2 0x690 JUMP JUMPDEST PUSH2 0x12B JUMP JUMPDEST STOP JUMPDEST PUSH2 0x8B PUSH2 0x218 JUMP JUMPDEST PUSH1 0x40 MLOAD PUSH2 0x98 SWAP2 SWAP1 PUSH2 0x8D5 JUMP JUMPDEST PUSH1 0x40 MLOAD DUP1 SWAP2 SUB SWAP1 RETURN JUMPDEST PUSH2 0xBB PUSH1 0x4 DUP1 CALLDATASIZE SUB DUP2 ADD SWAP1 PUSH2 0xB6 SWAP2 SWAP1 PUSH2 0x690 JUMP JUMPDEST PUSH2 0x37D JUMP JUMPDEST STOP JUMPDEST PUSH2 0xC5 PUSH2 0x402 JUMP JUMPDEST PUSH1 0x40 MLOAD PUSH2 0xD2 SWAP2 SWAP1 PUSH2 0x914 JUMP JUMPDEST PUSH1 0x40 MLOAD DUP1 SWAP2 SUB SWAP1 RETURN JUMPDEST PUSH2 0xF5 PUSH1 0x4 DUP1 CALLDATASIZE SUB DUP2 ADD SWAP1 PUSH2 0xF0 SWAP2 SWAP1 PUSH2 0xA64 JUMP JUMPDEST PUSH2 0x414 JUMP JUMPDEST STOP JUMPDEST PUSH2 0x111 PUSH1 0x4 DUP1 CALLDATASIZE SUB DUP2 ADD SWAP1 PUSH2 0x10C SWAP2 SWAP1 PUSH2 0x690 JUMP JUMPDEST PUSH2 0x558 JUMP JUMPDEST PUSH1 0x40 MLOAD PUSH2 0x122 SWAP6 SWAP5 SWAP4 SWAP3 SWAP2 SWAP1 PUSH2 0xB15 JUMP JUMPDEST PUSH1 0x40 MLOAD DUP1 SWAP2 SUB SWAP1 RETURN JUMPDEST PUSH1 0x1 DUP1 SLOAD SWAP1 POP DUP2 LT PUSH2 0x172 JUMPI PUSH1 0x40 MLOAD PUSH32 0x8C379A000000000000000000000000000000000000000000000000000000000 DUP2 MSTORE PUSH1 0x4 ADD PUSH2 0x169 SWAP1 PUSH2 0xBBB JUMP JUMPDEST PUSH1 0x40 MLOAD DUP1 SWAP2 SUB SWAP1 REVERT JUMPDEST PUSH1 0x0 PUSH1 0x1 DUP3 DUP2 SLOAD DUP2 LT PUSH2 0x188 JUMPI PUSH2 0x187 PUSH2 0xBDB JUMP JUMPDEST JUMPDEST SWAP1 PUSH1 0x0 MSTORE PUSH1 0x20 PUSH1 0x0 KECCAK256 SWAP1 PUSH1 0x5 MUL ADD PUSH1 0x4 ADD SLOAD GT PUSH2 0x1DA JUMPI PUSH1 0x40 MLOAD PUSH32 0x8C379A000000000000000000000000000000000000000000000000000000000 DUP2 MSTORE PUSH1 0x4 ADD PUSH2 0x1D1 SWAP1 PUSH2 0xC56 JUMP JUMPDEST PUSH1 0x40 MLOAD DUP1 SWAP2 SUB SWAP1 REVERT JUMPDEST PUSH1 0x1 DUP2 DUP2 SLOAD DUP2 LT PUSH2 0x1EE JUMPI PUSH2 0x1ED PUSH2 0xBDB JUMP JUMPDEST JUMPDEST SWAP1 PUSH1 0x0 MSTORE PUSH1 0x20 PUSH1 0x0 KECCAK256 SWAP1 PUSH1 0x5 MUL ADD PUSH1 0x4 ADD PUSH1 0x0 DUP2 SLOAD DUP1 SWAP3 SWAP2 SWAP1 PUSH2 0x210 SWAP1 PUSH2 0xCA5 JUMP JUMPDEST SWAP2 SWAP1 POP SSTORE POP POP JUMP JUMPDEST PUSH1 0x60 PUSH1 0x1 DUP1 SLOAD DUP1 PUSH1 0x20 MUL PUSH1 0x20 ADD PUSH1 0x40 MLOAD SWAP1 DUP2 ADD PUSH1 0x40 MSTORE DUP1 SWAP3 SWAP2 SWAP1 DUP2 DUP2 MSTORE PUSH1 0x20 ADD PUSH1 0x0 SWAP1 JUMPDEST DUP3 DUP3 LT ISZERO PUSH2 0x374 JUMPI DUP4 DUP3 SWAP1 PUSH1 0x0 MSTORE PUSH1 0x20 PUSH1 0x0 KECCAK256 SWAP1 PUSH1 0x5 MUL ADD PUSH1 0x40 MLOAD DUP1 PUSH1 0xA0 ADD PUSH1 0x40 MSTORE SWAP1 DUP2 PUSH1 0x0 DUP3 ADD SLOAD DUP2 MSTORE PUSH1 0x20 ADD PUSH1 0x1 DUP3 ADD PUSH1 0x0 SWAP1 SLOAD SWAP1 PUSH2 0x100 EXP SWAP1 DIV PUSH20 0xFFFFFFFFFFFFFFFFFFFFFFFFFFFFFFFFFFFFFFFF AND PUSH20 0xFFFFFFFFFFFFFFFFFFFFFFFFFFFFFFFFFFFFFFFF AND PUSH20 0xFFFFFFFFFFFFFFFFFFFFFFFFFFFFFFFFFFFFFFFF AND DUP2 MSTORE PUSH1 0x20 ADD PUSH1 0x2 DUP3 ADD DUP1 SLOAD PUSH2 0x2CF SWAP1 PUSH2 0xCFD JUMP JUMPDEST DUP1 PUSH1 0x1F ADD PUSH1 0x20 DUP1 SWAP2 DIV MUL PUSH1 0x20 ADD PUSH1 0x40 MLOAD SWAP1 DUP2 ADD PUSH1 0x40 MSTORE DUP1 SWAP3 SWAP2 SWAP1 DUP2 DUP2 MSTORE PUSH1 0x20 ADD DUP3 DUP1 SLOAD PUSH2 0x2FB SWAP1 PUSH2 0xCFD JUMP JUMPDEST DUP1 ISZERO PUSH2 0x348 JUMPI DUP1 PUSH1 0x1F LT PUSH2 0x31D JUMPI PUSH2 0x100 DUP1 DUP4 SLOAD DIV MUL DUP4 MSTORE SWAP2 PUSH1 0x20 ADD SWAP2 PUSH2 0x348 JUMP JUMPDEST DUP3 ADD SWAP2 SWAP1 PUSH1 0x0 MSTORE PUSH1 0x20 PUSH1 0x0 KECCAK256 SWAP1 JUMPDEST DUP2 SLOAD DUP2 MSTORE SWAP1 PUSH1 0x1 ADD SWAP1 PUSH1 0x20 ADD DUP1 DUP4 GT PUSH2 0x32B JUMPI DUP3 SWAP1 SUB PUSH1 0x1F AND DUP3 ADD SWAP2 JUMPDEST POP POP POP POP POP DUP2 MSTORE PUSH1 0x20 ADD PUSH1 0x3 DUP3 ADD SLOAD DUP2 MSTORE PUSH1 0x20 ADD PUSH1 0x4 DUP3 ADD SLOAD DUP2 MSTORE POP POP DUP2 MSTORE PUSH1 0x20 ADD SWAP1 PUSH1 0x1 ADD SWAP1 PUSH2 0x23C JUMP JUMPDEST POP POP POP POP SWAP1 POP SWAP1 JUMP JUMPDEST PUSH1 0x1 DUP1 SLOAD SWAP1 POP DUP2 LT PUSH2 0x3C4 JUMPI PUSH1 0x40 MLOAD PUSH32 0x8C379A000000000000000000000000000000000000000000000000000000000 DUP2 MSTORE PUSH1 0x4 ADD PUSH2 0x3BB SWAP1 PUSH2 0xBBB JUMP JUMPDEST PUSH1 0x40 MLOAD DUP1 SWAP2 SUB SWAP1 REVERT JUMPDEST PUSH1 0x1 DUP2 DUP2 SLOAD DUP2 LT PUSH2 0x3D8 JUMPI PUSH2 0x3D7 PUSH2 0xBDB JUMP JUMPDEST JUMPDEST SWAP1 PUSH1 0x0 MSTORE PUSH1 0x20 PUSH1 0x0 KECCAK256 SWAP1 PUSH1 0x5 MUL ADD PUSH1 0x4 ADD PUSH1 0x0 DUP2 SLOAD DUP1 SWAP3 SWAP2 SWAP1 PUSH2 0x3FA SWAP1 PUSH2 0xD2E JUMP JUMPDEST SWAP2 SWAP1 POP SSTORE POP POP JUMP JUMPDEST PUSH1 0x0 DUP1 SLOAD SWAP1 PUSH2 0x100 EXP SWAP1 DIV PUSH2 0xFFFF AND DUP2 JUMP JUMPDEST PUSH1 0x0 DUP1 SLOAD SWAP1 PUSH2 0x100 EXP SWAP1 DIV PUSH2 0xFFFF AND PUSH2 0xFFFF AND DUP2 MLOAD GT ISZERO PUSH2 0x46A JUMPI PUSH1 0x40 MLOAD PUSH32 0x8C379A000000000000000000000000000000000000000000000000000000000 DUP2 MSTORE PUSH1 0x4 ADD PUSH2 0x461 SWAP1 PUSH2 0xDC2 JUMP JUMPDEST PUSH1 0x40 MLOAD DUP1 SWAP2 SUB SWAP1 REVERT JUMPDEST PUSH1 0x1 PUSH1 0x40 MLOAD DUP1 PUSH1 0xA0 ADD PUSH1 0x40 MSTORE DUP1 PUSH1 0x1 DUP1 SLOAD SWAP1 POP DUP2 MSTORE PUSH1 0x20 ADD CALLER PUSH20 0xFFFFFFFFFFFFFFFFFFFFFFFFFFFFFFFFFFFFFFFF AND DUP2 MSTORE PUSH1 0x20 ADD DUP4 DUP2 MSTORE PUSH1 0x20 ADD TIMESTAMP DUP2 MSTORE PUSH1 0x20 ADD PUSH1 0x0 DUP2 MSTORE POP SWAP1 DUP1 PUSH1 0x1 DUP2 SLOAD ADD DUP1 DUP3 SSTORE DUP1 SWAP2 POP POP PUSH1 0x1 SWAP1 SUB SWAP1 PUSH1 0x0 MSTORE PUSH1 0x20 PUSH1 0x0 KECCAK256 SWAP1 PUSH1 0x5 MUL ADD PUSH1 0x0 SWAP1 SWAP2 SWAP1 SWAP2 SWAP1 SWAP2 POP PUSH1 0x0 DUP3 ADD MLOAD DUP2 PUSH1 0x0 ADD SSTORE PUSH1 0x20 DUP3 ADD MLOAD DUP2 PUSH1 0x1 ADD PUSH1 0x0 PUSH2 0x100 EXP DUP2 SLOAD DUP2 PUSH20 0xFFFFFFFFFFFFFFFFFFFFFFFFFFFFFFFFFFFFFFFF MUL NOT AND SWAP1 DUP4 PUSH20 0xFFFFFFFFFFFFFFFFFFFFFFFFFFFFFFFFFFFFFFFF AND MUL OR SWAP1 SSTORE POP PUSH1 0x40 DUP3 ADD MLOAD DUP2 PUSH1 0x2 ADD SWAP1 DUP2 PUSH2 0x53E SWAP2 SWAP1 PUSH2 0xF8E JUMP JUMPDEST POP PUSH1 0x60 DUP3 ADD MLOAD DUP2 PUSH1 0x3 ADD SSTORE PUSH1 0x80 DUP3 ADD MLOAD DUP2 PUSH1 0x4 ADD SSTORE POP POP POP JUMP JUMPDEST PUSH1 0x1 DUP2 DUP2 SLOAD DUP2 LT PUSH2 0x568 JUMPI PUSH1 0x0 DUP1 REVERT JUMPDEST SWAP1 PUSH1 0x0 MSTORE PUSH1 0x20 PUSH1 0x0 KECCAK256 SWAP1 PUSH1 0x5 MUL ADD PUSH1 0x0 SWAP2 POP SWAP1 POP DUP1 PUSH1 0x0 ADD SLOAD SWAP1 DUP1 PUSH1 0x1 ADD PUSH1 0x0 SWAP1 SLOAD SWAP1 PUSH2 0x100 EXP SWAP1 DIV PUSH20 0xFFFFFFFFFFFFFFFFFFFFFFFFFFFFFFFFFFFFFFFF AND SWAP1 DUP1 PUSH1 0x2 ADD DUP1 SLOAD PUSH2 0x5B7 SWAP1 PUSH2 0xCFD JUMP JUMPDEST DUP1 PUSH1 0x1F ADD PUSH1 0x20 DUP1 SWAP2 DIV MUL PUSH1 0x20 ADD PUSH1 0x40 MLOAD SWAP1 DUP2 ADD PUSH1 0x40 MSTORE DUP1 SWAP3 SWAP2 SWAP1 DUP2 DUP2 MSTORE PUSH1 0x20 ADD DUP3 DUP1 SLOAD PUSH2 0x5E3 SWAP1 PUSH2 0xCFD JUMP JUMPDEST DUP1 ISZERO PUSH2 0x630 JUMPI DUP1 PUSH1 0x1F LT PUSH2 0x605 JUMPI PUSH2 0x100 DUP1 DUP4 SLOAD DIV MUL DUP4 MSTORE SWAP2 PUSH1 0x20 ADD SWAP2 PUSH2 0x630 JUMP JUMPDEST DUP3 ADD SWAP2 SWAP1 PUSH1 0x0 MSTORE PUSH1 0x20 PUSH1 0x0 KECCAK256 SWAP1 JUMPDEST DUP2 SLOAD DUP2 MSTORE SWAP1 PUSH1 0x1 ADD SWAP1 PUSH1 0x20 ADD DUP1 DUP4 GT PUSH2 0x613 JUMPI DUP3 SWAP1 SUB PUSH1 0x1F AND DUP3 ADD SWAP2 JUMPDEST POP POP POP POP POP SWAP1 DUP1 PUSH1 0x3 ADD SLOAD SWAP1 DUP1 PUSH1 0x4 ADD SLOAD SWAP1 POP DUP6 JUMP JUMPDEST PUSH1 0x0 PUSH1 0x40 MLOAD SWAP1 POP SWAP1 JUMP JUMPDEST PUSH1 0x0 DUP1 REVERT JUMPDEST PUSH1 0x0 DUP1 REVERT JUMPDEST PUSH1 0x0 DUP2 SWAP1 POP SWAP2 SWAP1 POP JUMP JUMPDEST PUSH2 0x66D DUP2 PUSH2 0x65A JUMP JUMPDEST DUP2 EQ PUSH2 0x678 JUMPI PUSH1 0x0 DUP1 REVERT JUMPDEST POP JUMP JUMPDEST PUSH1 0x0 DUP2 CALLDATALOAD SWAP1 POP PUSH2 0x68A DUP2 PUSH2 0x664 JUMP JUMPDEST SWAP3 SWAP2 POP POP JUMP JUMPDEST PUSH1 0x0 PUSH1 0x20 DUP3 DUP5 SUB SLT ISZERO PUSH2 0x6A6 JUMPI PUSH2 0x6A5 PUSH2 0x650 JUMP JUMPDEST JUMPDEST PUSH1 0x0 PUSH2 0x6B4 DUP5 DUP3 DUP6 ADD PUSH2 0x67B JUMP JUMPDEST SWAP2 POP POP SWAP3 SWAP2 POP POP JUMP JUMPDEST PUSH1 0x0 DUP2 MLOAD SWAP1 POP SWAP2 SWAP1 POP JUMP JUMPDEST PUSH1 0x0 DUP3 DUP3 MSTORE PUSH1 0x20 DUP3 ADD SWAP1 POP SWAP3 SWAP2 POP POP JUMP JUMPDEST PUSH1 0x0 DUP2 SWAP1 POP PUSH1 0x20 DUP3 ADD SWAP1 POP SWAP2 SWAP1 POP JUMP JUMPDEST PUSH2 0x6F2 DUP2 PUSH2 0x65A JUMP JUMPDEST DUP3 MSTORE POP POP JUMP JUMPDEST PUSH1 0x0 PUSH20 0xFFFFFFFFFFFFFFFFFFFFFFFFFFFFFFFFFFFFFFFF DUP3 AND SWAP1 POP SWAP2 SWAP1 POP JUMP JUMPDEST PUSH1 0x0 PUSH2 0x723 DUP3 PUSH2 0x6F8 JUMP JUMPDEST SWAP1 POP SWAP2 SWAP1 POP JUMP JUMPDEST PUSH2 0x733 DUP2 PUSH2 0x718 JUMP JUMPDEST DUP3 MSTORE POP POP JUMP JUMPDEST PUSH1 0x0 DUP2 MLOAD SWAP1 POP SWAP2 SWAP1 POP JUMP JUMPDEST PUSH1 0x0 DUP3 DUP3 MSTORE PUSH1 0x20 DUP3 ADD SWAP1 POP SWAP3 SWAP2 POP POP JUMP JUMPDEST PUSH1 0x0 JUMPDEST DUP4 DUP2 LT ISZERO PUSH2 0x773 JUMPI DUP1 DUP3 ADD MLOAD DUP2 DUP5 ADD MSTORE PUSH1 0x20 DUP2 ADD SWAP1 POP PUSH2 0x758 JUMP JUMPDEST PUSH1 0x0 DUP5 DUP5 ADD MSTORE POP POP POP POP JUMP JUMPDEST PUSH1 0x0 PUSH1 0x1F NOT PUSH1 0x1F DUP4 ADD AND SWAP1 POP SWAP2 SWAP1 POP JUMP JUMPDEST PUSH1 0x0 PUSH2 0x79B DUP3 PUSH2 0x739 JUMP JUMPDEST PUSH2 0x7A5 DUP2 DUP6 PUSH2 0x744 JUMP JUMPDEST SWAP4 POP PUSH2 0x7B5 DUP2 DUP6 PUSH1 0x20 DUP7 ADD PUSH2 0x755 JUMP JUMPDEST PUSH2 0x7BE DUP2 PUSH2 0x77F JUMP JUMPDEST DUP5 ADD SWAP2 POP POP SWAP3 SWAP2 POP POP JUMP JUMPDEST PUSH1 0x0 PUSH1 0xA0 DUP4 ADD PUSH1 0x0 DUP4 ADD MLOAD PUSH2 0x7E1 PUSH1 0x0 DUP7 ADD DUP3 PUSH2 0x6E9 JUMP JUMPDEST POP PUSH1 0x20 DUP4 ADD MLOAD PUSH2 0x7F4 PUSH1 0x20 DUP7 ADD DUP3 PUSH2 0x72A JUMP JUMPDEST POP PUSH1 0x40 DUP4 ADD MLOAD DUP5 DUP3 SUB PUSH1 0x40 DUP7 ADD MSTORE PUSH2 0x80C DUP3 DUP3 PUSH2 0x790 JUMP JUMPDEST SWAP2 POP POP PUSH1 0x60 DUP4 ADD MLOAD PUSH2 0x821 PUSH1 0x60 DUP7 ADD DUP3 PUSH2 0x6E9 JUMP JUMPDEST POP PUSH1 0x80 DUP4 ADD MLOAD PUSH2 0x834 PUSH1 0x80 DUP7 ADD DUP3 PUSH2 0x6E9 JUMP JUMPDEST POP DUP1 SWAP2 POP POP SWAP3 SWAP2 POP POP JUMP JUMPDEST PUSH1 0x0 PUSH2 0x84B DUP4 DUP4 PUSH2 0x7C9 JUMP JUMPDEST SWAP1 POP SWAP3 SWAP2 POP POP JUMP JUMPDEST PUSH1 0x0 PUSH1 0x20 DUP3 ADD SWAP1 POP SWAP2 SWAP1 POP JUMP JUMPDEST PUSH1 0x0 PUSH2 0x86B DUP3 PUSH2 0x6BD JUMP JUMPDEST PUSH2 0x875 DUP2 DUP6 PUSH2 0x6C8 JUMP JUMPDEST SWAP4 POP DUP4 PUSH1 0x20 DUP3 MUL DUP6 ADD PUSH2 0x887 DUP6 PUSH2 0x6D9 JUMP JUMPDEST DUP1 PUSH1 0x0 JUMPDEST DUP6 DUP2 LT ISZERO PUSH2 0x8C3 JUMPI DUP5 DUP5 SUB DUP10 MSTORE DUP2 MLOAD PUSH2 0x8A4 DUP6 DUP3 PUSH2 0x83F JUMP JUMPDEST SWAP5 POP PUSH2 0x8AF DUP4 PUSH2 0x853 JUMP JUMPDEST SWAP3 POP PUSH1 0x20 DUP11 ADD SWAP10 POP POP PUSH1 0x1 DUP2 ADD SWAP1 POP PUSH2 0x88B JUMP JUMPDEST POP DUP3 SWAP8 POP DUP8 SWAP6 POP POP POP POP POP POP SWAP3 SWAP2 POP POP JUMP JUMPDEST PUSH1 0x0 PUSH1 0x20 DUP3 ADD SWAP1 POP DUP2 DUP2 SUB PUSH1 0x0 DUP4 ADD MSTORE PUSH2 0x8EF DUP2 DUP5 PUSH2 0x860 JUMP JUMPDEST SWAP1 POP SWAP3 SWAP2 POP POP JUMP JUMPDEST PUSH1 0x0 PUSH2 0xFFFF DUP3 AND SWAP1 POP SWAP2 SWAP1 POP JUMP JUMPDEST PUSH2 0x90E DUP2 PUSH2 0x8F7 JUMP JUMPDEST DUP3 MSTORE POP POP JUMP JUMPDEST PUSH1 0x0 PUSH1 0x20 DUP3 ADD SWAP1 POP PUSH2 0x929 PUSH1 0x0 DUP4 ADD DUP5 PUSH2 0x905 JUMP JUMPDEST SWAP3 SWAP2 POP POP JUMP JUMPDEST PUSH1 0x0 DUP1 REVERT JUMPDEST PUSH1 0x0 DUP1 REVERT JUMPDEST PUSH32 0x4E487B7100000000000000000000000000000000000000000000000000000000 PUSH1 0x0 MSTORE PUSH1 0x41 PUSH1 0x4 MSTORE PUSH1 0x24 PUSH1 0x0 REVERT JUMPDEST PUSH2 0x971 DUP3 PUSH2 0x77F JUMP JUMPDEST DUP2 ADD DUP2 DUP2 LT PUSH8 0xFFFFFFFFFFFFFFFF DUP3 GT OR ISZERO PUSH2 0x990 JUMPI PUSH2 0x98F PUSH2 0x939 JUMP JUMPDEST JUMPDEST DUP1 PUSH1 0x40 MSTORE POP POP POP JUMP JUMPDEST PUSH1 0x0 PUSH2 0x9A3 PUSH2 0x646 JUMP JUMPDEST SWAP1 POP PUSH2 0x9AF DUP3 DUP3 PUSH2 0x968 JUMP JUMPDEST SWAP2 SWAP1 POP JUMP JUMPDEST PUSH1 0x0 PUSH8 0xFFFFFFFFFFFFFFFF DUP3 GT ISZERO PUSH2 0x9CF JUMPI PUSH2 0x9CE PUSH2 0x939 JUMP JUMPDEST JUMPDEST PUSH2 0x9D8 DUP3 PUSH2 0x77F JUMP JUMPDEST SWAP1 POP PUSH1 0x20 DUP2 ADD SWAP1 POP SWAP2 SWAP1 POP JUMP JUMPDEST DUP3 DUP2 DUP4 CALLDATACOPY PUSH1 0x0 DUP4 DUP4 ADD MSTORE POP POP POP JUMP JUMPDEST PUSH1 0x0 PUSH2 0xA07 PUSH2 0xA02 DUP5 PUSH2 0x9B4 JUMP JUMPDEST PUSH2 0x999 JUMP JUMPDEST SWAP1 POP DUP3 DUP2 MSTORE PUSH1 0x20 DUP2 ADD DUP5 DUP5 DUP5 ADD GT ISZERO PUSH2 0xA23 JUMPI PUSH2 0xA22 PUSH2 0x934 JUMP JUMPDEST JUMPDEST PUSH2 0xA2E DUP5 DUP3 DUP6 PUSH2 0x9E5 JUMP JUMPDEST POP SWAP4 SWAP3 POP POP POP JUMP JUMPDEST PUSH1 0x0 DUP3 PUSH1 0x1F DUP4 ADD SLT PUSH2 0xA4B JUMPI PUSH2 0xA4A PUSH2 0x92F JUMP JUMPDEST JUMPDEST DUP2 CALLDATALOAD PUSH2 0xA5B DUP5 DUP3 PUSH1 0x20 DUP7 ADD PUSH2 0x9F4 JUMP JUMPDEST SWAP2 POP POP SWAP3 SWAP2 POP POP JUMP JUMPDEST PUSH1 0x0 PUSH1 0x20 DUP3 DUP5 SUB SLT ISZERO PUSH2 0xA7A JUMPI PUSH2 0xA79 PUSH2 0x650 JUMP JUMPDEST JUMPDEST PUSH1 0x0 DUP3 ADD CALLDATALOAD PUSH8 0xFFFFFFFFFFFFFFFF DUP2 GT ISZERO PUSH2 0xA98 JUMPI PUSH2 0xA97 PUSH2 0x655 JUMP JUMPDEST JUMPDEST PUSH2 0xAA4 DUP5 DUP3 DUP6 ADD PUSH2 0xA36 JUMP JUMPDEST SWAP2 POP POP SWAP3 SWAP2 POP POP JUMP JUMPDEST PUSH2 0xAB6 DUP2 PUSH2 0x65A JUMP JUMPDEST DUP3 MSTORE POP POP JUMP JUMPDEST PUSH2 0xAC5 DUP2 PUSH2 0x718 JUMP JUMPDEST DUP3 MSTORE POP POP JUMP JUMPDEST PUSH1 0x0 DUP3 DUP3 MSTORE PUSH1 0x20 DUP3 ADD SWAP1 POP SWAP3 SWAP2 POP POP JUMP JUMPDEST PUSH1 0x0 PUSH2 0xAE7 DUP3 PUSH2 0x739 JUMP JUMPDEST PUSH2 0xAF1 DUP2 DUP6 PUSH2 0xACB JUMP JUMPDEST SWAP4 POP PUSH2 0xB01 DUP2 DUP6 PUSH1 0x20 DUP7 ADD PUSH2 0x755 JUMP JUMPDEST PUSH2 0xB0A DUP2 PUSH2 0x77F JUMP JUMPDEST DUP5 ADD SWAP2 POP POP SWAP3 SWAP2 POP POP JUMP JUMPDEST PUSH1 0x0 PUSH1 0xA0 DUP3 ADD SWAP1 POP PUSH2 0xB2A PUSH1 0x0 DUP4 ADD DUP9 PUSH2 0xAAD JUMP JUMPDEST PUSH2 0xB37 PUSH1 0x20 DUP4 ADD DUP8 PUSH2 0xABC JUMP JUMPDEST DUP2 DUP2 SUB PUSH1 0x40 DUP4 ADD MSTORE PUSH2 0xB49 DUP2 DUP7 PUSH2 0xADC JUMP JUMPDEST SWAP1 POP PUSH2 0xB58 PUSH1 0x60 DUP4 ADD DUP6 PUSH2 0xAAD JUMP JUMPDEST PUSH2 0xB65 PUSH1 0x80 DUP4 ADD DUP5 PUSH2 0xAAD JUMP JUMPDEST SWAP7 SWAP6 POP POP POP POP POP POP JUMP JUMPDEST PUSH32 0x5477656574206E6F7420666F756E640000000000000000000000000000000000 PUSH1 0x0 DUP3 ADD MSTORE POP JUMP JUMPDEST PUSH1 0x0 PUSH2 0xBA5 PUSH1 0xF DUP4 PUSH2 0xACB JUMP JUMPDEST SWAP2 POP PUSH2 0xBB0 DUP3 PUSH2 0xB6F JUMP JUMPDEST PUSH1 0x20 DUP3 ADD SWAP1 POP SWAP2 SWAP1 POP JUMP JUMPDEST PUSH1 0x0 PUSH1 0x20 DUP3 ADD SWAP1 POP DUP2 DUP2 SUB PUSH1 0x0 DUP4 ADD MSTORE PUSH2 0xBD4 DUP2 PUSH2 0xB98 JUMP JUMPDEST SWAP1 POP SWAP2 SWAP1 POP JUMP JUMPDEST PUSH32 0x4E487B7100000000000000000000000000000000000000000000000000000000 PUSH1 0x0 MSTORE PUSH1 0x32 PUSH1 0x4 MSTORE PUSH1 0x24 PUSH1 0x0 REVERT JUMPDEST PUSH32 0x4E6F206C696B657320746F2072656D6F76650000000000000000000000000000 PUSH1 0x0 DUP3 ADD MSTORE POP JUMP JUMPDEST PUSH1 0x0 PUSH2 0xC40 PUSH1 0x12 DUP4 PUSH2 0xACB JUMP JUMPDEST SWAP2 POP PUSH2 0xC4B DUP3 PUSH2 0xC0A JUMP JUMPDEST PUSH1 0x20 DUP3 ADD SWAP1 POP SWAP2 SWAP1 POP JUMP JUMPDEST PUSH1 0x0 PUSH1 0x20 DUP3 ADD SWAP1 POP DUP2 DUP2 SUB PUSH1 0x0 DUP4 ADD MSTORE PUSH2 0xC6F DUP2 PUSH2 0xC33 JUMP JUMPDEST SWAP1 POP SWAP2 SWAP1 POP JUMP JUMPDEST PUSH32 0x4E487B7100000000000000000000000000000000000000000000000000000000 PUSH1 0x0 MSTORE PUSH1 0x11 PUSH1 0x4 MSTORE PUSH1 0x24 PUSH1 0x0 REVERT JUMPDEST PUSH1 0x0 PUSH2 0xCB0 DUP3 PUSH2 0x65A JUMP JUMPDEST SWAP2 POP PUSH1 0x0 DUP3 SUB PUSH2 0xCC3 JUMPI PUSH2 0xCC2 PUSH2 0xC76 JUMP JUMPDEST JUMPDEST PUSH1 0x1 DUP3 SUB SWAP1 POP SWAP2 SWAP1 POP JUMP JUMPDEST PUSH32 0x4E487B7100000000000000000000000000000000000000000000000000000000 PUSH1 0x0 MSTORE PUSH1 0x22 PUSH1 0x4 MSTORE PUSH1 0x24 PUSH1 0x0 REVERT JUMPDEST PUSH1 0x0 PUSH1 0x2 DUP3 DIV SWAP1 POP PUSH1 0x1 DUP3 AND DUP1 PUSH2 0xD15 JUMPI PUSH1 0x7F DUP3 AND SWAP2 POP JUMPDEST PUSH1 0x20 DUP3 LT DUP2 SUB PUSH2 0xD28 JUMPI PUSH2 0xD27 PUSH2 0xCCE JUMP JUMPDEST JUMPDEST POP SWAP2 SWAP1 POP JUMP JUMPDEST PUSH1 0x0 PUSH2 0xD39 DUP3 PUSH2 0x65A JUMP JUMPDEST SWAP2 POP PUSH32 0xFFFFFFFFFFFFFFFFFFFFFFFFFFFFFFFFFFFFFFFFFFFFFFFFFFFFFFFFFFFFFFFF DUP3 SUB PUSH2 0xD6B JUMPI PUSH2 0xD6A PUSH2 0xC76 JUMP JUMPDEST JUMPDEST PUSH1 0x1 DUP3 ADD SWAP1 POP SWAP2 SWAP1 POP JUMP JUMPDEST PUSH32 0x547765657420746F6F206C6F6E67210000000000000000000000000000000000 PUSH1 0x0 DUP3 ADD MSTORE POP JUMP JUMPDEST PUSH1 0x0 PUSH2 0xDAC PUSH1 0xF DUP4 PUSH2 0xACB JUMP JUMPDEST SWAP2 POP PUSH2 0xDB7 DUP3 PUSH2 0xD76 JUMP JUMPDEST PUSH1 0x20 DUP3 ADD SWAP1 POP SWAP2 SWAP1 POP JUMP JUMPDEST PUSH1 0x0 PUSH1 0x20 DUP3 ADD SWAP1 POP DUP2 DUP2 SUB PUSH1 0x0 DUP4 ADD MSTORE PUSH2 0xDDB DUP2 PUSH2 0xD9F JUMP JUMPDEST SWAP1 POP SWAP2 SWAP1 POP JUMP JUMPDEST PUSH1 0x0 DUP2 SWAP1 POP DUP2 PUSH1 0x0 MSTORE PUSH1 0x20 PUSH1 0x0 KECCAK256 SWAP1 POP SWAP2 SWAP1 POP JUMP JUMPDEST PUSH1 0x0 PUSH1 0x20 PUSH1 0x1F DUP4 ADD DIV SWAP1 POP SWAP2 SWAP1 POP JUMP JUMPDEST PUSH1 0x0 DUP3 DUP3 SHL SWAP1 POP SWAP3 SWAP2 POP POP JUMP JUMPDEST PUSH1 0x0 PUSH1 0x8 DUP4 MUL PUSH2 0xE44 PUSH32 0xFFFFFFFFFFFFFFFFFFFFFFFFFFFFFFFFFFFFFFFFFFFFFFFFFFFFFFFFFFFFFFFF DUP3 PUSH2 0xE07 JUMP JUMPDEST PUSH2 0xE4E DUP7 DUP4 PUSH2 0xE07 JUMP JUMPDEST SWAP6 POP DUP1 NOT DUP5 AND SWAP4 POP DUP1 DUP7 AND DUP5 OR SWAP3 POP POP POP SWAP4 SWAP3 POP POP POP JUMP JUMPDEST PUSH1 0x0 DUP2 SWAP1 POP SWAP2 SWAP1 POP JUMP JUMPDEST PUSH1 0x0 PUSH2 0xE8B PUSH2 0xE86 PUSH2 0xE81 DUP5 PUSH2 0x65A JUMP JUMPDEST PUSH2 0xE66 JUMP JUMPDEST PUSH2 0x65A JUMP JUMPDEST SWAP1 POP SWAP2 SWAP1 POP JUMP JUMPDEST PUSH1 0x0 DUP2 SWAP1 POP SWAP2 SWAP1 POP JUMP JUMPDEST PUSH2 0xEA5 DUP4 PUSH2 0xE70 JUMP JUMPDEST PUSH2 0xEB9 PUSH2 0xEB1 DUP3 PUSH2 0xE92 JUMP JUMPDEST DUP5 DUP5 SLOAD PUSH2 0xE14 JUMP JUMPDEST DUP3 SSTORE POP POP POP POP JUMP JUMPDEST PUSH1 0x0 SWAP1 JUMP JUMPDEST PUSH2 0xECE PUSH2 0xEC1 JUMP JUMPDEST PUSH2 0xED9 DUP2 DUP5 DUP5 PUSH2 0xE9C JUMP JUMPDEST POP POP POP JUMP JUMPDEST JUMPDEST DUP2 DUP2 LT ISZERO PUSH2 0xEFD JUMPI PUSH2 0xEF2 PUSH1 0x0 DUP3 PUSH2 0xEC6 JUMP JUMPDEST PUSH1 0x1 DUP2 ADD SWAP1 POP PUSH2 0xEDF JUMP JUMPDEST POP POP JUMP JUMPDEST PUSH1 0x1F DUP3 GT ISZERO PUSH2 0xF42 JUMPI PUSH2 0xF13 DUP2 PUSH2 0xDE2 JUMP JUMPDEST PUSH2 0xF1C DUP5 PUSH2 0xDF7 JUMP JUMPDEST DUP2 ADD PUSH1 0x20 DUP6 LT ISZERO PUSH2 0xF2B JUMPI DUP2 SWAP1 POP JUMPDEST PUSH2 0xF3F PUSH2 0xF37 DUP6 PUSH2 0xDF7 JUMP JUMPDEST DUP4 ADD DUP3 PUSH2 0xEDE JUMP JUMPDEST POP POP JUMPDEST POP POP POP JUMP JUMPDEST PUSH1 0x0 DUP3 DUP3 SHR SWAP1 POP SWAP3 SWAP2 POP POP JUMP JUMPDEST PUSH1 0x0 PUSH2 0xF65 PUSH1 0x0 NOT DUP5 PUSH1 0x8 MUL PUSH2 0xF47 JUMP JUMPDEST NOT DUP1 DUP4 AND SWAP2 POP POP SWAP3 SWAP2 POP POP JUMP JUMPDEST PUSH1 0x0 PUSH2 0xF7E DUP4 DUP4 PUSH2 0xF54 JUMP JUMPDEST SWAP2 POP DUP3 PUSH1 0x2 MUL DUP3 OR SWAP1 POP SWAP3 SWAP2 POP POP JUMP JUMPDEST PUSH2 0xF97 DUP3 PUSH2 0x739 JUMP JUMPDEST PUSH8 0xFFFFFFFFFFFFFFFF DUP2 GT ISZERO PUSH2 0xFB0 JUMPI PUSH2 0xFAF PUSH2 0x939 JUMP JUMPDEST JUMPDEST PUSH2 0xFBA DUP3 SLOAD PUSH2 0xCFD JUMP JUMPDEST PUSH2 0xFC5 DUP3 DUP3 DUP6 PUSH2 0xF01 JUMP JUMPDEST PUSH1 0x0 PUSH1 0x20 SWAP1 POP PUSH1 0x1F DUP4 GT PUSH1 0x1 DUP2 EQ PUSH2 0xFF8 JUMPI PUSH1 0x0 DUP5 ISZERO PUSH2 0xFE6 JUMPI DUP3 DUP8 ADD MLOAD SWAP1 POP JUMPDEST PUSH2 0xFF0 DUP6 DUP3 PUSH2 0xF72 JUMP JUMPDEST DUP7 SSTORE POP PUSH2 0x1058 JUMP JUMPDEST PUSH1 0x1F NOT DUP5 AND PUSH2 0x1006 DUP7 PUSH2 0xDE2 JUMP JUMPDEST PUSH1 0x0 JUMPDEST DUP3 DUP2 LT ISZERO PUSH2 0x102E JUMPI DUP5 DUP10 ADD MLOAD DUP3 SSTORE PUSH1 0x1 DUP3 ADD SWAP2 POP PUSH1 0x20 DUP6 ADD SWAP5 POP PUSH1 0x20 DUP2 ADD SWAP1 POP PUSH2 0x1009 JUMP JUMPDEST DUP7 DUP4 LT ISZERO PUSH2 0x104B JUMPI DUP5 DUP10 ADD MLOAD PUSH2 0x1047 PUSH1 0x1F DUP10 AND DUP3 PUSH2 0xF54 JUMP JUMPDEST DUP4 SSTORE POP JUMPDEST PUSH1 0x1 PUSH1 0x2 DUP9 MUL ADD DUP9 SSTORE POP POP POP JUMPDEST POP POP POP POP POP POP JUMP INVALID LOG2 PUSH5 0x6970667358 0x22 SLT KECCAK256 0xA8 PUSH2 0x3F03 DUP7 PUSH7 0xD50E46ADA9E9A4 0xD0 0xB4 MLOAD 0xD1 PUSH25 0x66AADEC4084F53B7E1D8CE710D7C64736F6C63430008120033 "
				},
				"gasEstimates": {
					"creation": {
						"codeDepositCost": "849200",
						"executionCost": "25150",
						"totalCost": "874350"
					},
					"external": {
						"MAX_TWEET_LENGTH()": "2512",
						"allTweets(uint256)": "infinite",
						"createTweet(string)": "infinite",
						"dislikeTweet(uint256)": "infinite",
						"getAllTweets()": "infinite",
						"likeTweet(uint256)": "infinite"
					}
				},
				"methodIdentifiers": {
					"MAX_TWEET_LENGTH()": "6eb10797",
					"allTweets(uint256)": "e28350b7",
					"createTweet(string)": "7c9cd2bc",
					"dislikeTweet(uint256)": "21511a44",
					"getAllTweets()": "53256135",
					"likeTweet(uint256)": "5ffc6ceb"
				}
			},
			"storageLayout": {
				"storage": [
					{
						"astId": 4,
						"contract": "D_Blog.sol:Twitter",
						"label": "MAX_TWEET_LENGTH",
						"offset": 0,
						"slot": "0",
						"type": "t_uint16"
					},
					{
						"astId": 19,
						"contract": "D_Blog.sol:Twitter",
						"label": "allTweets",
						"offset": 0,
						"slot": "1",
						"type": "t_array(t_struct(Tweet)15_storage)dyn_storage"
					}
				],
				"types": {
					"t_address": {
						"encoding": "inplace",
						"label": "address",
						"numberOfBytes": "20"
					},
					"t_array(t_struct(Tweet)15_storage)dyn_storage": {
						"base": "t_struct(Tweet)15_storage",
						"encoding": "dynamic_array",
						"label": "struct Twitter.Tweet[]",
						"numberOfBytes": "32"
					},
					"t_string_storage": {
						"encoding": "bytes",
						"label": "string",
						"numberOfBytes": "32"
					},
					"t_struct(Tweet)15_storage": {
						"encoding": "inplace",
						"label": "struct Twitter.Tweet",
						"members": [
							{
								"astId": 6,
								"contract": "D_Blog.sol:Twitter",
								"label": "id",
								"offset": 0,
								"slot": "0",
								"type": "t_uint256"
							},
							{
								"astId": 8,
								"contract": "D_Blog.sol:Twitter",
								"label": "author",
								"offset": 0,
								"slot": "1",
								"type": "t_address"
							},
							{
								"astId": 10,
								"contract": "D_Blog.sol:Twitter",
								"label": "content",
								"offset": 0,
								"slot": "2",
								"type": "t_string_storage"
							},
							{
								"astId": 12,
								"contract": "D_Blog.sol:Twitter",
								"label": "timestamp",
								"offset": 0,
								"slot": "3",
								"type": "t_uint256"
							},
							{
								"astId": 14,
								"contract": "D_Blog.sol:Twitter",
								"label": "likes",
								"offset": 0,
								"slot": "4",
								"type": "t_uint256"
							}
						],
						"numberOfBytes": "160"
					},
					"t_uint16": {
						"encoding": "inplace",
						"label": "uint16",
						"numberOfBytes": "2"
					},
					"t_uint256": {
						"encoding": "inplace",
						"label": "uint256",
						"numberOfBytes": "32"
					}
				}
			},
			"userdoc": {
				"kind": "user",
				"methods": {},
				"version": 1
			}
		}
	}
}