{
	"Enum.sol": {
		"Car_Rental": {
			"abi": [
				{
					"inputs": [],
					"name": "EV",
					"outputs": [],
					"stateMutability": "nonpayable",
					"type": "function"
				},
				{
					"inputs": [],
					"name": "Premium_Car",
					"outputs": [
						{
							"internalType": "uint256",
							"name": "",
							"type": "uint256"
						}
					],
					"stateMutability": "pure",
					"type": "function"
				},
				{
					"inputs": [],
					"name": "car_showroom",
					"outputs": [
						{
							"internalType": "enum Car_Rental.Car_Type",
							"name": "",
							"type": "uint8"
						}
					],
					"stateMutability": "view",
					"type": "function"
				},
				{
					"inputs": [
						{
							"internalType": "enum Car_Rental.Car_Type",
							"name": "enter_sq",
							"type": "uint8"
						}
					],
					"name": "getcar",
					"outputs": [],
					"stateMutability": "nonpayable",
					"type": "function"
				},
				{
					"inputs": [],
					"name": "reset_choice",
					"outputs": [],
					"stateMutability": "nonpayable",
					"type": "function"
				}
			],
			"devdoc": {
				"kind": "dev",
				"methods": {},
				"version": 1
			},
			"evm": {
				"assembly": "    /* \"Enum.sol\":60:661  contract Car_Rental{... */\n  mstore(0x40, 0x80)\n  callvalue\n  dup1\n  iszero\n  tag_1\n  jumpi\n  0x00\n  dup1\n  revert\ntag_1:\n  pop\n  dataSize(sub_0)\n  dup1\n  dataOffset(sub_0)\n  0x00\n  codecopy\n  0x00\n  return\nstop\n\nsub_0: assembly {\n        /* \"Enum.sol\":60:661  contract Car_Rental{... */\n      mstore(0x40, 0x80)\n      callvalue\n      dup1\n      iszero\n      tag_1\n      jumpi\n      0x00\n      dup1\n      revert\n    tag_1:\n      pop\n      jumpi(tag_2, lt(calldatasize, 0x04))\n      shr(0xe0, calldataload(0x00))\n      dup1\n      0x3651b286\n      eq\n      tag_3\n      jumpi\n      dup1\n      0x4d0ea00e\n      eq\n      tag_4\n      jumpi\n      dup1\n      0x5ccc1d29\n      eq\n      tag_5\n      jumpi\n      dup1\n      0x96b2041f\n      eq\n      tag_6\n      jumpi\n      dup1\n      0xcfd4558c\n      eq\n      tag_7\n      jumpi\n    tag_2:\n      0x00\n      dup1\n      revert\n        /* \"Enum.sol\":258:337  function getcar (Car_Type enter_sq) public {... */\n    tag_3:\n      tag_8\n      0x04\n      dup1\n      calldatasize\n      sub\n      dup2\n      add\n      swap1\n      tag_9\n      swap2\n      swap1\n      tag_10\n      jump\t// in\n    tag_9:\n      tag_11\n      jump\t// in\n    tag_8:\n      stop\n        /* \"Enum.sol\":164:192  Car_Type public car_showroom */\n    tag_4:\n      tag_12\n      tag_13\n      jump\t// in\n    tag_12:\n      mload(0x40)\n      tag_14\n      swap2\n      swap1\n      tag_15\n      jump\t// in\n    tag_14:\n      mload(0x40)\n      dup1\n      swap2\n      sub\n      swap1\n      return\n        /* \"Enum.sol\":428:495  function EV () public {... */\n    tag_5:\n      tag_16\n      tag_17\n      jump\t// in\n    tag_16:\n      stop\n        /* \"Enum.sol\":593:658  function reset_choice () public {... */\n    tag_6:\n      tag_18\n      tag_19\n      jump\t// in\n    tag_18:\n      stop\n        /* \"Enum.sol\":501:587  function Premium_Car() public pure returns (uint){... */\n    tag_7:\n      tag_20\n      tag_21\n      jump\t// in\n    tag_20:\n      mload(0x40)\n      tag_22\n      swap2\n      swap1\n      tag_23\n      jump\t// in\n    tag_22:\n      mload(0x40)\n      dup1\n      swap2\n      sub\n      swap1\n      return\n        /* \"Enum.sol\":258:337  function getcar (Car_Type enter_sq) public {... */\n    tag_11:\n        /* \"Enum.sol\":323:331  enter_sq */\n      dup1\n        /* \"Enum.sol\":308:320  car_showroom */\n      0x00\n      dup1\n        /* \"Enum.sol\":308:331  car_showroom = enter_sq */\n      0x0100\n      exp\n      dup2\n      sload\n      dup2\n      0xff\n      mul\n      not\n      and\n      swap1\n      dup4\n      0x06\n      dup2\n      gt\n      iszero\n      tag_25\n      jumpi\n      tag_26\n      tag_27\n      jump\t// in\n    tag_26:\n    tag_25:\n      mul\n      or\n      swap1\n      sstore\n      pop\n        /* \"Enum.sol\":258:337  function getcar (Car_Type enter_sq) public {... */\n      pop\n      jump\t// out\n        /* \"Enum.sol\":164:192  Car_Type public car_showroom */\n    tag_13:\n      0x00\n      dup1\n      sload\n      swap1\n      0x0100\n      exp\n      swap1\n      div\n      0xff\n      and\n      dup2\n      jump\t// out\n        /* \"Enum.sol\":428:495  function EV () public {... */\n    tag_17:\n        /* \"Enum.sol\":472:489  Car_Type.Electric */\n      0x06\n        /* \"Enum.sol\":457:469  car_showroom */\n      0x00\n      dup1\n        /* \"Enum.sol\":457:489  car_showroom = Car_Type.Electric */\n      0x0100\n      exp\n      dup2\n      sload\n      dup2\n      0xff\n      mul\n      not\n      and\n      swap1\n      dup4\n      0x06\n      dup2\n      gt\n      iszero\n      tag_29\n      jumpi\n      tag_30\n      tag_27\n      jump\t// in\n    tag_30:\n    tag_29:\n      mul\n      or\n      swap1\n      sstore\n      pop\n        /* \"Enum.sol\":428:495  function EV () public {... */\n      jump\t// out\n        /* \"Enum.sol\":593:658  function reset_choice () public {... */\n    tag_19:\n        /* \"Enum.sol\":639:651  car_showroom */\n      0x00\n      dup1\n        /* \"Enum.sol\":632:651  delete car_showroom */\n      0x0100\n      exp\n      dup2\n      sload\n      swap1\n      0xff\n      mul\n      not\n      and\n      swap1\n      sstore\n        /* \"Enum.sol\":593:658  function reset_choice () public {... */\n      jump\t// out\n        /* \"Enum.sol\":501:587  function Premium_Car() public pure returns (uint){... */\n    tag_21:\n        /* \"Enum.sol\":545:549  uint */\n      0x00\n        /* \"Enum.sol\":229:249  Car_Type.Convertible */\n      0x05\n        /* \"Enum.sol\":564:581  uint(Premium_car) */\n      0x06\n      dup2\n      gt\n      iszero\n      tag_33\n      jumpi\n      tag_34\n      tag_27\n      jump\t// in\n    tag_34:\n    tag_33:\n        /* \"Enum.sol\":557:581  return uint(Premium_car) */\n      swap1\n      pop\n        /* \"Enum.sol\":501:587  function Premium_Car() public pure returns (uint){... */\n      swap1\n      jump\t// out\n        /* \"#utility.yul\":88:205   */\n    tag_36:\n        /* \"#utility.yul\":197:198   */\n      0x00\n        /* \"#utility.yul\":194:195   */\n      dup1\n        /* \"#utility.yul\":187:199   */\n      revert\n        /* \"#utility.yul\":334:443   */\n    tag_38:\n        /* \"#utility.yul\":417:418   */\n      0x07\n        /* \"#utility.yul\":410:415   */\n      dup2\n        /* \"#utility.yul\":407:419   */\n      lt\n        /* \"#utility.yul\":397:437   */\n      tag_51\n      jumpi\n        /* \"#utility.yul\":433:434   */\n      0x00\n        /* \"#utility.yul\":430:431   */\n      dup1\n        /* \"#utility.yul\":423:435   */\n      revert\n        /* \"#utility.yul\":397:437   */\n    tag_51:\n        /* \"#utility.yul\":334:443   */\n      pop\n      jump\t// out\n        /* \"#utility.yul\":449:608   */\n    tag_39:\n        /* \"#utility.yul\":505:510   */\n      0x00\n        /* \"#utility.yul\":543:549   */\n      dup2\n        /* \"#utility.yul\":530:550   */\n      calldataload\n        /* \"#utility.yul\":521:550   */\n      swap1\n      pop\n        /* \"#utility.yul\":559:602   */\n      tag_53\n        /* \"#utility.yul\":596:601   */\n      dup2\n        /* \"#utility.yul\":559:602   */\n      tag_38\n      jump\t// in\n    tag_53:\n        /* \"#utility.yul\":449:608   */\n      swap3\n      swap2\n      pop\n      pop\n      jump\t// out\n        /* \"#utility.yul\":614:963   */\n    tag_10:\n        /* \"#utility.yul\":683:689   */\n      0x00\n        /* \"#utility.yul\":732:734   */\n      0x20\n        /* \"#utility.yul\":720:729   */\n      dup3\n        /* \"#utility.yul\":711:718   */\n      dup5\n        /* \"#utility.yul\":707:730   */\n      sub\n        /* \"#utility.yul\":703:735   */\n      slt\n        /* \"#utility.yul\":700:819   */\n      iszero\n      tag_55\n      jumpi\n        /* \"#utility.yul\":738:817   */\n      tag_56\n      tag_36\n      jump\t// in\n    tag_56:\n        /* \"#utility.yul\":700:819   */\n    tag_55:\n        /* \"#utility.yul\":858:859   */\n      0x00\n        /* \"#utility.yul\":883:946   */\n      tag_57\n        /* \"#utility.yul\":938:945   */\n      dup5\n        /* \"#utility.yul\":929:935   */\n      dup3\n        /* \"#utility.yul\":918:927   */\n      dup6\n        /* \"#utility.yul\":914:936   */\n      add\n        /* \"#utility.yul\":883:946   */\n      tag_39\n      jump\t// in\n    tag_57:\n        /* \"#utility.yul\":873:946   */\n      swap2\n      pop\n        /* \"#utility.yul\":829:956   */\n      pop\n        /* \"#utility.yul\":614:963   */\n      swap3\n      swap2\n      pop\n      pop\n      jump\t// out\n        /* \"#utility.yul\":969:1149   */\n    tag_27:\n        /* \"#utility.yul\":1017:1094   */\n      0x4e487b7100000000000000000000000000000000000000000000000000000000\n        /* \"#utility.yul\":1014:1015   */\n      0x00\n        /* \"#utility.yul\":1007:1095   */\n      mstore\n        /* \"#utility.yul\":1114:1118   */\n      0x21\n        /* \"#utility.yul\":1111:1112   */\n      0x04\n        /* \"#utility.yul\":1104:1119   */\n      mstore\n        /* \"#utility.yul\":1138:1142   */\n      0x24\n        /* \"#utility.yul\":1135:1136   */\n      0x00\n        /* \"#utility.yul\":1128:1143   */\n      revert\n        /* \"#utility.yul\":1155:1270   */\n    tag_40:\n        /* \"#utility.yul\":1238:1239   */\n      0x07\n        /* \"#utility.yul\":1231:1236   */\n      dup2\n        /* \"#utility.yul\":1228:1240   */\n      lt\n        /* \"#utility.yul\":1218:1264   */\n      tag_60\n      jumpi\n        /* \"#utility.yul\":1244:1262   */\n      tag_61\n      tag_27\n      jump\t// in\n    tag_61:\n        /* \"#utility.yul\":1218:1264   */\n    tag_60:\n        /* \"#utility.yul\":1155:1270   */\n      pop\n      jump\t// out\n        /* \"#utility.yul\":1276:1407   */\n    tag_41:\n        /* \"#utility.yul\":1323:1330   */\n      0x00\n        /* \"#utility.yul\":1352:1357   */\n      dup2\n        /* \"#utility.yul\":1341:1357   */\n      swap1\n      pop\n        /* \"#utility.yul\":1358:1401   */\n      tag_63\n        /* \"#utility.yul\":1395:1400   */\n      dup3\n        /* \"#utility.yul\":1358:1401   */\n      tag_40\n      jump\t// in\n    tag_63:\n        /* \"#utility.yul\":1276:1407   */\n      swap2\n      swap1\n      pop\n      jump\t// out\n        /* \"#utility.yul\":1413:1544   */\n    tag_42:\n        /* \"#utility.yul\":1471:1480   */\n      0x00\n        /* \"#utility.yul\":1504:1538   */\n      tag_65\n        /* \"#utility.yul\":1532:1537   */\n      dup3\n        /* \"#utility.yul\":1504:1538   */\n      tag_41\n      jump\t// in\n    tag_65:\n        /* \"#utility.yul\":1491:1538   */\n      swap1\n      pop\n        /* \"#utility.yul\":1413:1544   */\n      swap2\n      swap1\n      pop\n      jump\t// out\n        /* \"#utility.yul\":1550:1697   */\n    tag_43:\n        /* \"#utility.yul\":1645:1690   */\n      tag_67\n        /* \"#utility.yul\":1684:1689   */\n      dup2\n        /* \"#utility.yul\":1645:1690   */\n      tag_42\n      jump\t// in\n    tag_67:\n        /* \"#utility.yul\":1640:1643   */\n      dup3\n        /* \"#utility.yul\":1633:1691   */\n      mstore\n        /* \"#utility.yul\":1550:1697   */\n      pop\n      pop\n      jump\t// out\n        /* \"#utility.yul\":1703:1941   */\n    tag_15:\n        /* \"#utility.yul\":1804:1808   */\n      0x00\n        /* \"#utility.yul\":1842:1844   */\n      0x20\n        /* \"#utility.yul\":1831:1840   */\n      dup3\n        /* \"#utility.yul\":1827:1845   */\n      add\n        /* \"#utility.yul\":1819:1845   */\n      swap1\n      pop\n        /* \"#utility.yul\":1855:1934   */\n      tag_69\n        /* \"#utility.yul\":1931:1932   */\n      0x00\n        /* \"#utility.yul\":1920:1929   */\n      dup4\n        /* \"#utility.yul\":1916:1933   */\n      add\n        /* \"#utility.yul\":1907:1913   */\n      dup5\n        /* \"#utility.yul\":1855:1934   */\n      tag_43\n      jump\t// in\n    tag_69:\n        /* \"#utility.yul\":1703:1941   */\n      swap3\n      swap2\n      pop\n      pop\n      jump\t// out\n        /* \"#utility.yul\":1947:2024   */\n    tag_44:\n        /* \"#utility.yul\":1984:1991   */\n      0x00\n        /* \"#utility.yul\":2013:2018   */\n      dup2\n        /* \"#utility.yul\":2002:2018   */\n      swap1\n      pop\n        /* \"#utility.yul\":1947:2024   */\n      swap2\n      swap1\n      pop\n      jump\t// out\n        /* \"#utility.yul\":2030:2148   */\n    tag_45:\n        /* \"#utility.yul\":2117:2141   */\n      tag_72\n        /* \"#utility.yul\":2135:2140   */\n      dup2\n        /* \"#utility.yul\":2117:2141   */\n      tag_44\n      jump\t// in\n    tag_72:\n        /* \"#utility.yul\":2112:2115   */\n      dup3\n        /* \"#utility.yul\":2105:2142   */\n      mstore\n        /* \"#utility.yul\":2030:2148   */\n      pop\n      pop\n      jump\t// out\n        /* \"#utility.yul\":2154:2376   */\n    tag_23:\n        /* \"#utility.yul\":2247:2251   */\n      0x00\n        /* \"#utility.yul\":2285:2287   */\n      0x20\n        /* \"#utility.yul\":2274:2283   */\n      dup3\n        /* \"#utility.yul\":2270:2288   */\n      add\n        /* \"#utility.yul\":2262:2288   */\n      swap1\n      pop\n        /* \"#utility.yul\":2298:2369   */\n      tag_74\n        /* \"#utility.yul\":2366:2367   */\n      0x00\n        /* \"#utility.yul\":2355:2364   */\n      dup4\n        /* \"#utility.yul\":2351:2368   */\n      add\n        /* \"#utility.yul\":2342:2348   */\n      dup5\n        /* \"#utility.yul\":2298:2369   */\n      tag_45\n      jump\t// in\n    tag_74:\n        /* \"#utility.yul\":2154:2376   */\n      swap3\n      swap2\n      pop\n      pop\n      jump\t// out\n\n    auxdata: 0xa26469706673582212207c07bafdd4b545d808df497e3655a3fbda25f4d5d8dedb65dabc0a2e403e188b64736f6c63430008120033\n}\n",
				"bytecode": {
					"linkReferences": {},
					"object": "608060405234801561001057600080fd5b506102b2806100206000396000f3fe608060405234801561001057600080fd5b50600436106100575760003560e01c80633651b2861461005c5780634d0ea00e146100785780635ccc1d291461009657806396b2041f146100a0578063cfd4558c146100aa575b600080fd5b61007660048036038101906100719190610189565b6100c8565b005b6100806100f4565b60405161008d919061022d565b60405180910390f35b61009e610105565b005b6100a8610131565b005b6100b2610144565b6040516100bf9190610261565b60405180910390f35b806000806101000a81548160ff021916908360068111156100ec576100eb6101b6565b5b021790555050565b60008054906101000a900460ff1681565b60066000806101000a81548160ff0219169083600681111561012a576101296101b6565b5b0217905550565b6000806101000a81549060ff0219169055565b60006005600681111561015a576101596101b6565b5b905090565b600080fd5b6007811061017157600080fd5b50565b60008135905061018381610164565b92915050565b60006020828403121561019f5761019e61015f565b5b60006101ad84828501610174565b91505092915050565b7f4e487b7100000000000000000000000000000000000000000000000000000000600052602160045260246000fd5b600781106101f6576101f56101b6565b5b50565b6000819050610207826101e5565b919050565b6000610217826101f9565b9050919050565b6102278161020c565b82525050565b6000602082019050610242600083018461021e565b92915050565b6000819050919050565b61025b81610248565b82525050565b60006020820190506102766000830184610252565b9291505056fea26469706673582212207c07bafdd4b545d808df497e3655a3fbda25f4d5d8dedb65dabc0a2e403e188b64736f6c63430008120033",
					"opcodes": "PUSH1 0x80 PUSH1 0x40 MSTORE CALLVALUE DUP1 ISZERO PUSH2 0x10 JUMPI PUSH1 0x0 DUP1 REVERT JUMPDEST POP PUSH2 0x2B2 DUP1 PUSH2 0x20 PUSH1 0x0 CODECOPY PUSH1 0x0 RETURN INVALID PUSH1 0x80 PUSH1 0x40 MSTORE CALLVALUE DUP1 ISZERO PUSH2 0x10 JUMPI PUSH1 0x0 DUP1 REVERT JUMPDEST POP PUSH1 0x4 CALLDATASIZE LT PUSH2 0x57 JUMPI PUSH1 0x0 CALLDATALOAD PUSH1 0xE0 SHR DUP1 PUSH4 0x3651B286 EQ PUSH2 0x5C JUMPI DUP1 PUSH4 0x4D0EA00E EQ PUSH2 0x78 JUMPI DUP1 PUSH4 0x5CCC1D29 EQ PUSH2 0x96 JUMPI DUP1 PUSH4 0x96B2041F EQ PUSH2 0xA0 JUMPI DUP1 PUSH4 0xCFD4558C EQ PUSH2 0xAA JUMPI JUMPDEST PUSH1 0x0 DUP1 REVERT JUMPDEST PUSH2 0x76 PUSH1 0x4 DUP1 CALLDATASIZE SUB DUP2 ADD SWAP1 PUSH2 0x71 SWAP2 SWAP1 PUSH2 0x189 JUMP JUMPDEST PUSH2 0xC8 JUMP JUMPDEST STOP JUMPDEST PUSH2 0x80 PUSH2 0xF4 JUMP JUMPDEST PUSH1 0x40 MLOAD PUSH2 0x8D SWAP2 SWAP1 PUSH2 0x22D JUMP JUMPDEST PUSH1 0x40 MLOAD DUP1 SWAP2 SUB SWAP1 RETURN JUMPDEST PUSH2 0x9E PUSH2 0x105 JUMP JUMPDEST STOP JUMPDEST PUSH2 0xA8 PUSH2 0x131 JUMP JUMPDEST STOP JUMPDEST PUSH2 0xB2 PUSH2 0x144 JUMP JUMPDEST PUSH1 0x40 MLOAD PUSH2 0xBF SWAP2 SWAP1 PUSH2 0x261 JUMP JUMPDEST PUSH1 0x40 MLOAD DUP1 SWAP2 SUB SWAP1 RETURN JUMPDEST DUP1 PUSH1 0x0 DUP1 PUSH2 0x100 EXP DUP2 SLOAD DUP2 PUSH1 0xFF MUL NOT AND SWAP1 DUP4 PUSH1 0x6 DUP2 GT ISZERO PUSH2 0xEC JUMPI PUSH2 0xEB PUSH2 0x1B6 JUMP JUMPDEST JUMPDEST MUL OR SWAP1 SSTORE POP POP JUMP JUMPDEST PUSH1 0x0 DUP1 SLOAD SWAP1 PUSH2 0x100 EXP SWAP1 DIV PUSH1 0xFF AND DUP2 JUMP JUMPDEST PUSH1 0x6 PUSH1 0x0 DUP1 PUSH2 0x100 EXP DUP2 SLOAD DUP2 PUSH1 0xFF MUL NOT AND SWAP1 DUP4 PUSH1 0x6 DUP2 GT ISZERO PUSH2 0x12A JUMPI PUSH2 0x129 PUSH2 0x1B6 JUMP JUMPDEST JUMPDEST MUL OR SWAP1 SSTORE POP JUMP JUMPDEST PUSH1 0x0 DUP1 PUSH2 0x100 EXP DUP2 SLOAD SWAP1 PUSH1 0xFF MUL NOT AND SWAP1 SSTORE JUMP JUMPDEST PUSH1 0x0 PUSH1 0x5 PUSH1 0x6 DUP2 GT ISZERO PUSH2 0x15A JUMPI PUSH2 0x159 PUSH2 0x1B6 JUMP JUMPDEST JUMPDEST SWAP1 POP SWAP1 JUMP JUMPDEST PUSH1 0x0 DUP1 REVERT JUMPDEST PUSH1 0x7 DUP2 LT PUSH2 0x171 JUMPI PUSH1 0x0 DUP1 REVERT JUMPDEST POP JUMP JUMPDEST PUSH1 0x0 DUP2 CALLDATALOAD SWAP1 POP PUSH2 0x183 DUP2 PUSH2 0x164 JUMP JUMPDEST SWAP3 SWAP2 POP POP JUMP JUMPDEST PUSH1 0x0 PUSH1 0x20 DUP3 DUP5 SUB SLT ISZERO PUSH2 0x19F JUMPI PUSH2 0x19E PUSH2 0x15F JUMP JUMPDEST JUMPDEST PUSH1 0x0 PUSH2 0x1AD DUP5 DUP3 DUP6 ADD PUSH2 0x174 JUMP JUMPDEST SWAP2 POP POP SWAP3 SWAP2 POP POP JUMP JUMPDEST PUSH32 0x4E487B7100000000000000000000000000000000000000000000000000000000 PUSH1 0x0 MSTORE PUSH1 0x21 PUSH1 0x4 MSTORE PUSH1 0x24 PUSH1 0x0 REVERT JUMPDEST PUSH1 0x7 DUP2 LT PUSH2 0x1F6 JUMPI PUSH2 0x1F5 PUSH2 0x1B6 JUMP JUMPDEST JUMPDEST POP JUMP JUMPDEST PUSH1 0x0 DUP2 SWAP1 POP PUSH2 0x207 DUP3 PUSH2 0x1E5 JUMP JUMPDEST SWAP2 SWAP1 POP JUMP JUMPDEST PUSH1 0x0 PUSH2 0x217 DUP3 PUSH2 0x1F9 JUMP JUMPDEST SWAP1 POP SWAP2 SWAP1 POP JUMP JUMPDEST PUSH2 0x227 DUP2 PUSH2 0x20C JUMP JUMPDEST DUP3 MSTORE POP POP JUMP JUMPDEST PUSH1 0x0 PUSH1 0x20 DUP3 ADD SWAP1 POP PUSH2 0x242 PUSH1 0x0 DUP4 ADD DUP5 PUSH2 0x21E JUMP JUMPDEST SWAP3 SWAP2 POP POP JUMP JUMPDEST PUSH1 0x0 DUP2 SWAP1 POP SWAP2 SWAP1 POP JUMP JUMPDEST PUSH2 0x25B DUP2 PUSH2 0x248 JUMP JUMPDEST DUP3 MSTORE POP POP JUMP JUMPDEST PUSH1 0x0 PUSH1 0x20 DUP3 ADD SWAP1 POP PUSH2 0x276 PUSH1 0x0 DUP4 ADD DUP5 PUSH2 0x252 JUMP JUMPDEST SWAP3 SWAP2 POP POP JUMP INVALID LOG2 PUSH5 0x6970667358 0x22 SLT KECCAK256 PUSH29 0x7BAFDD4B545D808DF497E3655A3FBDA25F4D5D8DEDB65DABC0A2E403E XOR DUP12 PUSH5 0x736F6C6343 STOP ADDMOD SLT STOP CALLER "
				},
				"gasEstimates": {
					"creation": {
						"codeDepositCost": "138000",
						"executionCost": "183",
						"totalCost": "138183"
					},
					"external": {
						"EV()": "24453",
						"Premium_Car()": "429",
						"car_showroom()": "2557",
						"getcar(uint8)": "24628",
						"reset_choice()": "24430"
					}
				},
				"methodIdentifiers": {
					"EV()": "5ccc1d29",
					"Premium_Car()": "cfd4558c",
					"car_showroom()": "4d0ea00e",
					"getcar(uint8)": "3651b286",
					"reset_choice()": "96b2041f"
				}
			},
			"storageLayout": {
				"storage": [
					{
						"astId": 12,
						"contract": "Enum.sol:Car_Rental",
						"label": "car_showroom",
						"offset": 0,
						"slot": "0",
						"type": "t_enum(Car_Type)9"
					}
				],
				"types": {
					"t_enum(Car_Type)9": {
						"encoding": "inplace",
						"label": "enum Car_Rental.Car_Type",
						"numberOfBytes": "1"
					}
				}
			},
			"userdoc": {
				"kind": "user",
				"methods": {},
				"version": 1
			}
		}
	}
}