{
	"balance_sort.sol": {
		"BalanceRanking": {
			"abi": [
				{
					"inputs": [],
					"stateMutability": "nonpayable",
					"type": "constructor"
				},
				{
					"anonymous": false,
					"inputs": [
						{
							"indexed": true,
							"internalType": "address",
							"name": "winner",
							"type": "address"
						},
						{
							"indexed": false,
							"internalType": "uint256",
							"name": "rewardAmount",
							"type": "uint256"
						}
					],
					"name": "LowestBalanceRewarded",
					"type": "event"
				},
				{
					"anonymous": false,
					"inputs": [
						{
							"indexed": true,
							"internalType": "address",
							"name": "user",
							"type": "address"
						}
					],
					"name": "OwnerAdded",
					"type": "event"
				},
				{
					"anonymous": false,
					"inputs": [
						{
							"indexed": true,
							"internalType": "address",
							"name": "user",
							"type": "address"
						},
						{
							"indexed": false,
							"internalType": "uint256",
							"name": "amount",
							"type": "uint256"
						}
					],
					"name": "ValueAdded",
					"type": "event"
				},
				{
					"inputs": [],
					"name": "addValue",
					"outputs": [],
					"stateMutability": "payable",
					"type": "function"
				},
				{
					"inputs": [
						{
							"internalType": "address",
							"name": "",
							"type": "address"
						}
					],
					"name": "balances",
					"outputs": [
						{
							"internalType": "uint256",
							"name": "",
							"type": "uint256"
						}
					],
					"stateMutability": "view",
					"type": "function"
				},
				{
					"inputs": [],
					"name": "getSortedOwners",
					"outputs": [
						{
							"internalType": "address[]",
							"name": "",
							"type": "address[]"
						}
					],
					"stateMutability": "view",
					"type": "function"
				},
				{
					"inputs": [],
					"name": "owner",
					"outputs": [
						{
							"internalType": "address",
							"name": "",
							"type": "address"
						}
					],
					"stateMutability": "view",
					"type": "function"
				},
				{
					"inputs": [
						{
							"internalType": "uint256",
							"name": "",
							"type": "uint256"
						}
					],
					"name": "owners",
					"outputs": [
						{
							"internalType": "address",
							"name": "",
							"type": "address"
						}
					],
					"stateMutability": "view",
					"type": "function"
				},
				{
					"inputs": [],
					"name": "rewardLowestBalanceOwner",
					"outputs": [],
					"stateMutability": "nonpayable",
					"type": "function"
				},
				{
					"inputs": [],
					"name": "totalOwners",
					"outputs": [
						{
							"internalType": "uint256",
							"name": "",
							"type": "uint256"
						}
					],
					"stateMutability": "view",
					"type": "function"
				}
			],
			"devdoc": {
				"kind": "dev",
				"methods": {},
				"version": 1
			},
			"evm": {
				"assembly": "    /* \"balance_sort.sol\":61:2755  contract BalanceRanking {... */\n  mstore(0x40, 0x80)\n    /* \"balance_sort.sol\":481:532  constructor() {... */\n  callvalue\n  dup1\n  iszero\n  tag_1\n  jumpi\n  revert(0x00, 0x00)\ntag_1:\n  pop\n    /* \"balance_sort.sol\":514:524  msg.sender */\n  caller\n    /* \"balance_sort.sol\":506:511  owner */\n  0x00\n  0x00\n    /* \"balance_sort.sol\":506:524  owner = msg.sender */\n  0x0100\n  exp\n  dup2\n  sload\n  dup2\n  0xffffffffffffffffffffffffffffffffffffffff\n  mul\n  not\n  and\n  swap1\n  dup4\n  0xffffffffffffffffffffffffffffffffffffffff\n  and\n  mul\n  or\n  swap1\n  sstore\n  pop\n    /* \"balance_sort.sol\":61:2755  contract BalanceRanking {... */\n  dataSize(sub_0)\n  dup1\n  dataOffset(sub_0)\n  0x00\n  codecopy\n  0x00\n  return\nstop\n\nsub_0: assembly {\n        /* \"balance_sort.sol\":61:2755  contract BalanceRanking {... */\n      mstore(0x40, 0x80)\n      jumpi(tag_1, lt(calldatasize, 0x04))\n      shr(0xe0, calldataload(0x00))\n      dup1\n      0x243669ad\n      gt\n      tag_9\n      jumpi\n      dup1\n      0x243669ad\n      eq\n      tag_5\n      jumpi\n      dup1\n      0x27e235e3\n      eq\n      tag_6\n      jumpi\n      dup1\n      0x8da5cb5b\n      eq\n      tag_7\n      jumpi\n      dup1\n      0x9f462716\n      eq\n      tag_8\n      jumpi\n      jump(tag_1)\n    tag_9:\n      dup1\n      0x025e7c27\n      eq\n      tag_2\n      jumpi\n      dup1\n      0x040f0aee\n      eq\n      tag_3\n      jumpi\n      dup1\n      0x09c49f04\n      eq\n      tag_4\n      jumpi\n    tag_1:\n      revert(0x00, 0x00)\n        /* \"balance_sort.sol\":119:142  address[] public owners */\n    tag_2:\n      callvalue\n      dup1\n      iszero\n      tag_10\n      jumpi\n      revert(0x00, 0x00)\n    tag_10:\n      pop\n      tag_11\n      0x04\n      dup1\n      calldatasize\n      sub\n      dup2\n      add\n      swap1\n      tag_12\n      swap2\n      swap1\n      tag_13\n      jump\t// in\n    tag_12:\n      tag_14\n      jump\t// in\n    tag_11:\n      mload(0x40)\n      tag_15\n      swap2\n      swap1\n      tag_16\n      jump\t// in\n    tag_15:\n      mload(0x40)\n      dup1\n      swap2\n      sub\n      swap1\n      return\n        /* \"balance_sort.sol\":699:1092  function addValue() external payable {... */\n    tag_3:\n      tag_17\n      tag_18\n      jump\t// in\n    tag_17:\n      stop\n        /* \"balance_sort.sol\":1806:2624  function rewardLowestBalanceOwner() external onlyOwner {... */\n    tag_4:\n      callvalue\n      dup1\n      iszero\n      tag_19\n      jumpi\n      revert(0x00, 0x00)\n    tag_19:\n      pop\n      tag_20\n      tag_21\n      jump\t// in\n    tag_20:\n      stop\n        /* \"balance_sort.sol\":2658:2752  function totalOwners() external view returns (uint256) {... */\n    tag_5:\n      callvalue\n      dup1\n      iszero\n      tag_22\n      jumpi\n      revert(0x00, 0x00)\n    tag_22:\n      pop\n      tag_23\n      tag_24\n      jump\t// in\n    tag_23:\n      mload(0x40)\n      tag_25\n      swap2\n      swap1\n      tag_26\n      jump\t// in\n    tag_25:\n      mload(0x40)\n      dup1\n      swap2\n      sub\n      swap1\n      return\n        /* \"balance_sort.sol\":149:192  mapping(address => uint256) public balances */\n    tag_6:\n      callvalue\n      dup1\n      iszero\n      tag_27\n      jumpi\n      revert(0x00, 0x00)\n    tag_27:\n      pop\n      tag_28\n      0x04\n      dup1\n      calldatasize\n      sub\n      dup2\n      add\n      swap1\n      tag_29\n      swap2\n      swap1\n      tag_30\n      jump\t// in\n    tag_29:\n      tag_31\n      jump\t// in\n    tag_28:\n      mload(0x40)\n      tag_32\n      swap2\n      swap1\n      tag_26\n      jump\t// in\n    tag_32:\n      mload(0x40)\n      dup1\n      swap2\n      sub\n      swap1\n      return\n        /* \"balance_sort.sol\":92:112  address public owner */\n    tag_7:\n      callvalue\n      dup1\n      iszero\n      tag_33\n      jumpi\n      revert(0x00, 0x00)\n    tag_33:\n      pop\n      tag_34\n      tag_35\n      jump\t// in\n    tag_34:\n      mload(0x40)\n      tag_36\n      swap2\n      swap1\n      tag_16\n      jump\t// in\n    tag_36:\n      mload(0x40)\n      dup1\n      swap2\n      sub\n      swap1\n      return\n        /* \"balance_sort.sol\":1163:1740  function getSortedOwners() external view onlyOwner returns (address[] memory) {... */\n    tag_8:\n      callvalue\n      dup1\n      iszero\n      tag_37\n      jumpi\n      revert(0x00, 0x00)\n    tag_37:\n      pop\n      tag_38\n      tag_39\n      jump\t// in\n    tag_38:\n      mload(0x40)\n      tag_40\n      swap2\n      swap1\n      tag_41\n      jump\t// in\n    tag_40:\n      mload(0x40)\n      dup1\n      swap2\n      sub\n      swap1\n      return\n        /* \"balance_sort.sol\":119:142  address[] public owners */\n    tag_14:\n      0x01\n      dup2\n      dup2\n      sload\n      dup2\n      lt\n      tag_42\n      jumpi\n      0x00\n      dup1\n      revert\n    tag_42:\n      swap1\n      0x00\n      mstore\n      keccak256(0x00, 0x20)\n      add\n      0x00\n      swap2\n      pop\n      sload\n      swap1\n      0x0100\n      exp\n      swap1\n      div\n      0xffffffffffffffffffffffffffffffffffffffff\n      and\n      dup2\n      jump\t// out\n        /* \"balance_sort.sol\":699:1092  function addValue() external payable {... */\n    tag_18:\n        /* \"balance_sort.sol\":767:768  0 */\n      0x00\n        /* \"balance_sort.sol\":755:764  msg.value */\n      callvalue\n        /* \"balance_sort.sol\":755:768  msg.value > 0 */\n      gt\n        /* \"balance_sort.sol\":747:786  require(msg.value > 0, \"Send some ETH\") */\n      tag_45\n      jumpi\n      mload(0x40)\n      0x08c379a000000000000000000000000000000000000000000000000000000000\n      dup2\n      mstore\n      0x04\n      add\n      tag_46\n      swap1\n      tag_47\n      jump\t// in\n    tag_46:\n      mload(0x40)\n      dup1\n      swap2\n      sub\n      swap1\n      revert\n    tag_45:\n        /* \"balance_sort.sol\":824:831  isOwner */\n      0x03\n        /* \"balance_sort.sol\":824:843  isOwner[msg.sender] */\n      0x00\n        /* \"balance_sort.sol\":832:842  msg.sender */\n      caller\n        /* \"balance_sort.sol\":824:843  isOwner[msg.sender] */\n      0xffffffffffffffffffffffffffffffffffffffff\n      and\n      0xffffffffffffffffffffffffffffffffffffffff\n      and\n      dup2\n      mstore\n      0x20\n      add\n      swap1\n      dup2\n      mstore\n      0x20\n      add\n      0x00\n      keccak256\n      0x00\n      swap1\n      sload\n      swap1\n      0x0100\n      exp\n      swap1\n      div\n      0xff\n      and\n        /* \"balance_sort.sol\":819:992  if (!isOwner[msg.sender]) {... */\n      tag_48\n      jumpi\n        /* \"balance_sort.sol\":860:866  owners */\n      0x01\n        /* \"balance_sort.sol\":872:882  msg.sender */\n      caller\n        /* \"balance_sort.sol\":860:883  owners.push(msg.sender) */\n      swap1\n      dup1\n      0x01\n      dup2\n      sload\n      add\n      dup1\n      dup3\n      sstore\n      dup1\n      swap2\n      pop\n      pop\n      0x01\n      swap1\n      sub\n      swap1\n      0x00\n      mstore\n      keccak256(0x00, 0x20)\n      add\n      0x00\n      swap1\n      swap2\n      swap1\n      swap2\n      swap1\n      swap2\n      0x0100\n      exp\n      dup2\n      sload\n      dup2\n      0xffffffffffffffffffffffffffffffffffffffff\n      mul\n      not\n      and\n      swap1\n      dup4\n      0xffffffffffffffffffffffffffffffffffffffff\n      and\n      mul\n      or\n      swap1\n      sstore\n      pop\n        /* \"balance_sort.sol\":934:938  true */\n      0x01\n        /* \"balance_sort.sol\":912:919  isOwner */\n      0x03\n        /* \"balance_sort.sol\":912:931  isOwner[msg.sender] */\n      0x00\n        /* \"balance_sort.sol\":920:930  msg.sender */\n      caller\n        /* \"balance_sort.sol\":912:931  isOwner[msg.sender] */\n      0xffffffffffffffffffffffffffffffffffffffff\n      and\n      0xffffffffffffffffffffffffffffffffffffffff\n      and\n      dup2\n      mstore\n      0x20\n      add\n      swap1\n      dup2\n      mstore\n      0x20\n      add\n      0x00\n      keccak256\n      0x00\n        /* \"balance_sort.sol\":912:938  isOwner[msg.sender] = true */\n      0x0100\n      exp\n      dup2\n      sload\n      dup2\n      0xff\n      mul\n      not\n      and\n      swap1\n      dup4\n      iszero\n      iszero\n      mul\n      or\n      swap1\n      sstore\n      pop\n        /* \"balance_sort.sol\":969:979  msg.sender */\n      caller\n        /* \"balance_sort.sol\":958:980  OwnerAdded(msg.sender) */\n      0xffffffffffffffffffffffffffffffffffffffff\n      and\n      0x994a936646fe87ffe4f1e469d3d6aa417d6b855598397f323de5b449f765f0c3\n      mload(0x40)\n      mload(0x40)\n      dup1\n      swap2\n      sub\n      swap1\n      log2\n        /* \"balance_sort.sol\":819:992  if (!isOwner[msg.sender]) {... */\n    tag_48:\n        /* \"balance_sort.sol\":1026:1035  msg.value */\n      callvalue\n        /* \"balance_sort.sol\":1002:1010  balances */\n      0x02\n        /* \"balance_sort.sol\":1002:1022  balances[msg.sender] */\n      0x00\n        /* \"balance_sort.sol\":1011:1021  msg.sender */\n      caller\n        /* \"balance_sort.sol\":1002:1022  balances[msg.sender] */\n      0xffffffffffffffffffffffffffffffffffffffff\n      and\n      0xffffffffffffffffffffffffffffffffffffffff\n      and\n      dup2\n      mstore\n      0x20\n      add\n      swap1\n      dup2\n      mstore\n      0x20\n      add\n      0x00\n      keccak256\n      0x00\n        /* \"balance_sort.sol\":1002:1035  balances[msg.sender] += msg.value */\n      dup3\n      dup3\n      sload\n      tag_50\n      swap2\n      swap1\n      tag_51\n      jump\t// in\n    tag_50:\n      swap3\n      pop\n      pop\n      dup2\n      swap1\n      sstore\n      pop\n        /* \"balance_sort.sol\":1062:1072  msg.sender */\n      caller\n        /* \"balance_sort.sol\":1051:1084  ValueAdded(msg.sender, msg.value) */\n      0xffffffffffffffffffffffffffffffffffffffff\n      and\n      0xe1d95dcfba9d7b8018a7269ed1485c9e65f81d520213216942c2f8a4c6f4f8e7\n        /* \"balance_sort.sol\":1074:1083  msg.value */\n      callvalue\n        /* \"balance_sort.sol\":1051:1084  ValueAdded(msg.sender, msg.value) */\n      mload(0x40)\n      tag_52\n      swap2\n      swap1\n      tag_26\n      jump\t// in\n    tag_52:\n      mload(0x40)\n      dup1\n      swap2\n      sub\n      swap1\n      log2\n        /* \"balance_sort.sol\":699:1092  function addValue() external payable {... */\n      jump\t// out\n        /* \"balance_sort.sol\":1806:2624  function rewardLowestBalanceOwner() external onlyOwner {... */\n    tag_21:\n        /* \"balance_sort.sol\":616:621  owner */\n      0x00\n      0x00\n      swap1\n      sload\n      swap1\n      0x0100\n      exp\n      swap1\n      div\n      0xffffffffffffffffffffffffffffffffffffffff\n      and\n        /* \"balance_sort.sol\":602:621  msg.sender == owner */\n      0xffffffffffffffffffffffffffffffffffffffff\n      and\n        /* \"balance_sort.sol\":602:612  msg.sender */\n      caller\n        /* \"balance_sort.sol\":602:621  msg.sender == owner */\n      0xffffffffffffffffffffffffffffffffffffffff\n      and\n      eq\n        /* \"balance_sort.sol\":594:644  require(msg.sender == owner, \"Not contract owner\") */\n      tag_54\n      jumpi\n      mload(0x40)\n      0x08c379a000000000000000000000000000000000000000000000000000000000\n      dup2\n      mstore\n      0x04\n      add\n      tag_55\n      swap1\n      tag_56\n      jump\t// in\n    tag_55:\n      mload(0x40)\n      dup1\n      swap2\n      sub\n      swap1\n      revert\n    tag_54:\n        /* \"balance_sort.sol\":1896:1897  0 */\n      0x00\n        /* \"balance_sort.sol\":1880:1886  owners */\n      0x01\n        /* \"balance_sort.sol\":1880:1893  owners.length */\n      dup1\n      sload\n      swap1\n      pop\n        /* \"balance_sort.sol\":1880:1897  owners.length > 0 */\n      gt\n        /* \"balance_sort.sol\":1872:1911  require(owners.length > 0, \"No owners\") */\n      tag_58\n      jumpi\n      mload(0x40)\n      0x08c379a000000000000000000000000000000000000000000000000000000000\n      dup2\n      mstore\n      0x04\n      add\n      tag_59\n      swap1\n      tag_60\n      jump\t// in\n    tag_59:\n      mload(0x40)\n      dup1\n      swap2\n      sub\n      swap1\n      revert\n    tag_58:\n        /* \"balance_sort.sol\":1954:1955  0 */\n      0x00\n        /* \"balance_sort.sol\":1930:1951  address(this).balance */\n      selfbalance\n        /* \"balance_sort.sol\":1930:1955  address(this).balance > 0 */\n      gt\n        /* \"balance_sort.sol\":1922:1978  require(address(this).balance > 0, \"No ETH in contract\") */\n      tag_61\n      jumpi\n      mload(0x40)\n      0x08c379a000000000000000000000000000000000000000000000000000000000\n      dup2\n      mstore\n      0x04\n      add\n      tag_62\n      swap1\n      tag_63\n      jump\t// in\n    tag_62:\n      mload(0x40)\n      dup1\n      swap2\n      sub\n      swap1\n      revert\n    tag_61:\n        /* \"balance_sort.sol\":1989:2008  address lowestOwner */\n      0x00\n        /* \"balance_sort.sol\":2011:2017  owners */\n      0x01\n        /* \"balance_sort.sol\":2018:2019  0 */\n      0x00\n        /* \"balance_sort.sol\":2011:2020  owners[0] */\n      dup2\n      sload\n      dup2\n      lt\n      tag_64\n      jumpi\n      tag_65\n      tag_66\n      jump\t// in\n    tag_65:\n    tag_64:\n      swap1\n      0x00\n      mstore\n      keccak256(0x00, 0x20)\n      add\n      0x00\n      swap1\n      sload\n      swap1\n      0x0100\n      exp\n      swap1\n      div\n      0xffffffffffffffffffffffffffffffffffffffff\n      and\n        /* \"balance_sort.sol\":1989:2020  address lowestOwner = owners[0] */\n      swap1\n      pop\n        /* \"balance_sort.sol\":2031:2052  uint256 lowestBalance */\n      0x00\n        /* \"balance_sort.sol\":2055:2063  balances */\n      0x02\n        /* \"balance_sort.sol\":2055:2076  balances[lowestOwner] */\n      0x00\n        /* \"balance_sort.sol\":2064:2075  lowestOwner */\n      dup4\n        /* \"balance_sort.sol\":2055:2076  balances[lowestOwner] */\n      0xffffffffffffffffffffffffffffffffffffffff\n      and\n      0xffffffffffffffffffffffffffffffffffffffff\n      and\n      dup2\n      mstore\n      0x20\n      add\n      swap1\n      dup2\n      mstore\n      0x20\n      add\n      0x00\n      keccak256\n      sload\n        /* \"balance_sort.sol\":2031:2076  uint256 lowestBalance = balances[lowestOwner] */\n      swap1\n      pop\n        /* \"balance_sort.sol\":2092:2101  uint256 i */\n      0x00\n        /* \"balance_sort.sol\":2104:2105  1 */\n      0x01\n        /* \"balance_sort.sol\":2092:2105  uint256 i = 1 */\n      swap1\n      pop\n        /* \"balance_sort.sol\":2087:2328  for (uint256 i = 1;... */\n    tag_68:\n        /* \"balance_sort.sol\":2120:2126  owners */\n      0x01\n        /* \"balance_sort.sol\":2120:2133  owners.length */\n      dup1\n      sload\n      swap1\n      pop\n        /* \"balance_sort.sol\":2116:2117  i */\n      dup2\n        /* \"balance_sort.sol\":2116:2133  i < owners.length */\n      lt\n        /* \"balance_sort.sol\":2087:2328  for (uint256 i = 1;... */\n      iszero\n      tag_69\n      jumpi\n        /* \"balance_sort.sol\":2190:2203  lowestBalance */\n      dup2\n        /* \"balance_sort.sol\":2168:2176  balances */\n      0x02\n        /* \"balance_sort.sol\":2168:2187  balances[owners[i]] */\n      0x00\n        /* \"balance_sort.sol\":2177:2183  owners */\n      0x01\n        /* \"balance_sort.sol\":2184:2185  i */\n      dup5\n        /* \"balance_sort.sol\":2177:2186  owners[i] */\n      dup2\n      sload\n      dup2\n      lt\n      tag_71\n      jumpi\n      tag_72\n      tag_66\n      jump\t// in\n    tag_72:\n    tag_71:\n      swap1\n      0x00\n      mstore\n      keccak256(0x00, 0x20)\n      add\n      0x00\n      swap1\n      sload\n      swap1\n      0x0100\n      exp\n      swap1\n      div\n      0xffffffffffffffffffffffffffffffffffffffff\n      and\n        /* \"balance_sort.sol\":2168:2187  balances[owners[i]] */\n      0xffffffffffffffffffffffffffffffffffffffff\n      and\n      0xffffffffffffffffffffffffffffffffffffffff\n      and\n      dup2\n      mstore\n      0x20\n      add\n      swap1\n      dup2\n      mstore\n      0x20\n      add\n      0x00\n      keccak256\n      sload\n        /* \"balance_sort.sol\":2168:2203  balances[owners[i]] < lowestBalance */\n      lt\n        /* \"balance_sort.sol\":2164:2317  if (balances[owners[i]] < lowestBalance) {... */\n      iszero\n      tag_74\n      jumpi\n        /* \"balance_sort.sol\":2240:2248  balances */\n      0x02\n        /* \"balance_sort.sol\":2240:2259  balances[owners[i]] */\n      0x00\n        /* \"balance_sort.sol\":2249:2255  owners */\n      0x01\n        /* \"balance_sort.sol\":2256:2257  i */\n      dup4\n        /* \"balance_sort.sol\":2249:2258  owners[i] */\n      dup2\n      sload\n      dup2\n      lt\n      tag_75\n      jumpi\n      tag_76\n      tag_66\n      jump\t// in\n    tag_76:\n    tag_75:\n      swap1\n      0x00\n      mstore\n      keccak256(0x00, 0x20)\n      add\n      0x00\n      swap1\n      sload\n      swap1\n      0x0100\n      exp\n      swap1\n      div\n      0xffffffffffffffffffffffffffffffffffffffff\n      and\n        /* \"balance_sort.sol\":2240:2259  balances[owners[i]] */\n      0xffffffffffffffffffffffffffffffffffffffff\n      and\n      0xffffffffffffffffffffffffffffffffffffffff\n      and\n      dup2\n      mstore\n      0x20\n      add\n      swap1\n      dup2\n      mstore\n      0x20\n      add\n      0x00\n      keccak256\n      sload\n        /* \"balance_sort.sol\":2224:2259  lowestBalance = balances[owners[i]] */\n      swap2\n      pop\n        /* \"balance_sort.sol\":2292:2298  owners */\n      0x01\n        /* \"balance_sort.sol\":2299:2300  i */\n      dup2\n        /* \"balance_sort.sol\":2292:2301  owners[i] */\n      dup2\n      sload\n      dup2\n      lt\n      tag_78\n      jumpi\n      tag_79\n      tag_66\n      jump\t// in\n    tag_79:\n    tag_78:\n      swap1\n      0x00\n      mstore\n      keccak256(0x00, 0x20)\n      add\n      0x00\n      swap1\n      sload\n      swap1\n      0x0100\n      exp\n      swap1\n      div\n      0xffffffffffffffffffffffffffffffffffffffff\n      and\n        /* \"balance_sort.sol\":2278:2301  lowestOwner = owners[i] */\n      swap3\n      pop\n        /* \"balance_sort.sol\":2164:2317  if (balances[owners[i]] < lowestBalance) {... */\n    tag_74:\n        /* \"balance_sort.sol\":2144:2147  i++ */\n      dup1\n      dup1\n      0x01\n      add\n      swap2\n      pop\n      pop\n        /* \"balance_sort.sol\":2087:2328  for (uint256 i = 1;... */\n      jump(tag_68)\n    tag_69:\n      pop\n        /* \"balance_sort.sol\":2338:2361  uint256 contractBalance */\n      0x00\n        /* \"balance_sort.sol\":2364:2385  address(this).balance */\n      selfbalance\n        /* \"balance_sort.sol\":2338:2385  uint256 contractBalance = address(this).balance */\n      swap1\n      pop\n        /* \"balance_sort.sol\":2397:2409  bool success */\n      0x00\n        /* \"balance_sort.sol\":2423:2434  lowestOwner */\n      dup4\n        /* \"balance_sort.sol\":2415:2440  payable(lowestOwner).call */\n      0xffffffffffffffffffffffffffffffffffffffff\n      and\n        /* \"balance_sort.sol\":2463:2478  contractBalance */\n      dup3\n        /* \"balance_sort.sol\":2415:2503  payable(lowestOwner).call {... */\n      mload(0x40)\n      tag_81\n      swap1\n      tag_82\n      jump\t// in\n    tag_81:\n      0x00\n      mload(0x40)\n      dup1\n      dup4\n      sub\n      dup2\n      dup6\n      dup8\n      gas\n      call\n      swap3\n      pop\n      pop\n      pop\n      returndatasize\n      dup1\n      0x00\n      dup2\n      eq\n      tag_85\n      jumpi\n      mload(0x40)\n      swap2\n      pop\n      and(add(returndatasize, 0x3f), not(0x1f))\n      dup3\n      add\n      0x40\n      mstore\n      returndatasize\n      dup3\n      mstore\n      returndatasize\n      0x00\n      0x20\n      dup5\n      add\n      returndatacopy\n      jump(tag_84)\n    tag_85:\n      0x60\n      swap2\n      pop\n    tag_84:\n      pop\n        /* \"balance_sort.sol\":2396:2503  (bool success, ) = payable(lowestOwner).call {... */\n      pop\n      swap1\n      pop\n        /* \"balance_sort.sol\":2522:2529  success */\n      dup1\n        /* \"balance_sort.sol\":2514:2549  require(success, \"Transfer failed\") */\n      tag_86\n      jumpi\n      mload(0x40)\n      0x08c379a000000000000000000000000000000000000000000000000000000000\n      dup2\n      mstore\n      0x04\n      add\n      tag_87\n      swap1\n      tag_88\n      jump\t// in\n    tag_87:\n      mload(0x40)\n      dup1\n      swap2\n      sub\n      swap1\n      revert\n    tag_86:\n        /* \"balance_sort.sol\":2587:2598  lowestOwner */\n      dup4\n        /* \"balance_sort.sol\":2565:2616  LowestBalanceRewarded(lowestOwner, contractBalance) */\n      0xffffffffffffffffffffffffffffffffffffffff\n      and\n      0x351eb0cececa94d1f6d13a1d6e260ae7da1515ae47fcc4014537c120670a6e0c\n        /* \"balance_sort.sol\":2600:2615  contractBalance */\n      dup4\n        /* \"balance_sort.sol\":2565:2616  LowestBalanceRewarded(lowestOwner, contractBalance) */\n      mload(0x40)\n      tag_89\n      swap2\n      swap1\n      tag_26\n      jump\t// in\n    tag_89:\n      mload(0x40)\n      dup1\n      swap2\n      sub\n      swap1\n      log2\n        /* \"balance_sort.sol\":1861:2624  {... */\n      pop\n      pop\n      pop\n      pop\n        /* \"balance_sort.sol\":1806:2624  function rewardLowestBalanceOwner() external onlyOwner {... */\n      jump\t// out\n        /* \"balance_sort.sol\":2658:2752  function totalOwners() external view returns (uint256) {... */\n    tag_24:\n        /* \"balance_sort.sol\":2704:2711  uint256 */\n      0x00\n        /* \"balance_sort.sol\":2731:2737  owners */\n      0x01\n        /* \"balance_sort.sol\":2731:2744  owners.length */\n      dup1\n      sload\n      swap1\n      pop\n        /* \"balance_sort.sol\":2724:2744  return owners.length */\n      swap1\n      pop\n        /* \"balance_sort.sol\":2658:2752  function totalOwners() external view returns (uint256) {... */\n      swap1\n      jump\t// out\n        /* \"balance_sort.sol\":149:192  mapping(address => uint256) public balances */\n    tag_31:\n      mstore(0x20, 0x02)\n      dup1\n      0x00\n      mstore\n      keccak256(0x00, 0x40)\n      0x00\n      swap2\n      pop\n      swap1\n      pop\n      sload\n      dup2\n      jump\t// out\n        /* \"balance_sort.sol\":92:112  address public owner */\n    tag_35:\n      0x00\n      0x00\n      swap1\n      sload\n      swap1\n      0x0100\n      exp\n      swap1\n      div\n      0xffffffffffffffffffffffffffffffffffffffff\n      and\n      dup2\n      jump\t// out\n        /* \"balance_sort.sol\":1163:1740  function getSortedOwners() external view onlyOwner returns (address[] memory) {... */\n    tag_39:\n        /* \"balance_sort.sol\":1223:1239  address[] memory */\n      0x60\n        /* \"balance_sort.sol\":616:621  owner */\n      0x00\n      0x00\n      swap1\n      sload\n      swap1\n      0x0100\n      exp\n      swap1\n      div\n      0xffffffffffffffffffffffffffffffffffffffff\n      and\n        /* \"balance_sort.sol\":602:621  msg.sender == owner */\n      0xffffffffffffffffffffffffffffffffffffffff\n      and\n        /* \"balance_sort.sol\":602:612  msg.sender */\n      caller\n        /* \"balance_sort.sol\":602:621  msg.sender == owner */\n      0xffffffffffffffffffffffffffffffffffffffff\n      and\n      eq\n        /* \"balance_sort.sol\":594:644  require(msg.sender == owner, \"Not contract owner\") */\n      tag_92\n      jumpi\n      mload(0x40)\n      0x08c379a000000000000000000000000000000000000000000000000000000000\n      dup2\n      mstore\n      0x04\n      add\n      tag_93\n      swap1\n      tag_56\n      jump\t// in\n    tag_93:\n      mload(0x40)\n      dup1\n      swap2\n      sub\n      swap1\n      revert\n    tag_92:\n        /* \"balance_sort.sol\":1252:1281  address[] memory sortedOwners */\n      0x00\n        /* \"balance_sort.sol\":1284:1290  owners */\n      0x01\n        /* \"balance_sort.sol\":1252:1290  address[] memory sortedOwners = owners */\n      dup1\n      sload\n      dup1\n      0x20\n      mul\n      0x20\n      add\n      mload(0x40)\n      swap1\n      dup2\n      add\n      0x40\n      mstore\n      dup1\n      swap3\n      swap2\n      swap1\n      dup2\n      dup2\n      mstore\n      0x20\n      add\n      dup3\n      dup1\n      sload\n      dup1\n      iszero\n      tag_95\n      jumpi\n      0x20\n      mul\n      dup3\n      add\n      swap2\n      swap1\n      0x00\n      mstore\n      keccak256(0x00, 0x20)\n      swap1\n    tag_96:\n      dup2\n      0x00\n      swap1\n      sload\n      swap1\n      0x0100\n      exp\n      swap1\n      div\n      0xffffffffffffffffffffffffffffffffffffffff\n      and\n      0xffffffffffffffffffffffffffffffffffffffff\n      and\n      dup2\n      mstore\n      0x20\n      add\n      swap1\n      0x01\n      add\n      swap1\n      dup1\n      dup4\n      gt\n      tag_96\n      jumpi\n    tag_95:\n      pop\n      pop\n      pop\n      pop\n      pop\n      swap1\n      pop\n        /* \"balance_sort.sol\":1306:1315  uint256 i */\n      0x00\n        /* \"balance_sort.sol\":1318:1319  0 */\n      0x00\n        /* \"balance_sort.sol\":1306:1319  uint256 i = 0 */\n      swap1\n      pop\n        /* \"balance_sort.sol\":1301:1703  for (uint256 i = 0;... */\n    tag_97:\n        /* \"balance_sort.sol\":1334:1346  sortedOwners */\n      dup2\n        /* \"balance_sort.sol\":1334:1353  sortedOwners.length */\n      mload\n        /* \"balance_sort.sol\":1330:1331  i */\n      dup2\n        /* \"balance_sort.sol\":1330:1353  i < sortedOwners.length */\n      lt\n        /* \"balance_sort.sol\":1301:1703  for (uint256 i = 0;... */\n      iszero\n      tag_98\n      jumpi\n        /* \"balance_sort.sol\":1389:1398  uint256 j */\n      0x00\n        /* \"balance_sort.sol\":1405:1406  1 */\n      0x01\n        /* \"balance_sort.sol\":1401:1402  i */\n      dup3\n        /* \"balance_sort.sol\":1401:1406  i + 1 */\n      tag_103\n      swap2\n      swap1\n      tag_51\n      jump\t// in\n    tag_103:\n        /* \"balance_sort.sol\":1389:1406  uint256 j = i + 1 */\n      swap1\n      pop\n        /* \"balance_sort.sol\":1384:1692  for (uint256 j = i + 1;... */\n    tag_100:\n        /* \"balance_sort.sol\":1425:1437  sortedOwners */\n      dup3\n        /* \"balance_sort.sol\":1425:1444  sortedOwners.length */\n      mload\n        /* \"balance_sort.sol\":1421:1422  j */\n      dup2\n        /* \"balance_sort.sol\":1421:1444  j < sortedOwners.length */\n      lt\n        /* \"balance_sort.sol\":1384:1692  for (uint256 j = i + 1;... */\n      iszero\n      tag_101\n      jumpi\n        /* \"balance_sort.sol\":1515:1523  balances */\n      0x02\n        /* \"balance_sort.sol\":1515:1540  balances[sortedOwners[i]] */\n      0x00\n        /* \"balance_sort.sol\":1524:1536  sortedOwners */\n      dup5\n        /* \"balance_sort.sol\":1537:1538  i */\n      dup5\n        /* \"balance_sort.sol\":1524:1539  sortedOwners[i] */\n      dup2\n      mload\n      dup2\n      lt\n      tag_104\n      jumpi\n      tag_105\n      tag_66\n      jump\t// in\n    tag_105:\n    tag_104:\n      0x20\n      mul\n      0x20\n      add\n      add\n      mload\n        /* \"balance_sort.sol\":1515:1540  balances[sortedOwners[i]] */\n      0xffffffffffffffffffffffffffffffffffffffff\n      and\n      0xffffffffffffffffffffffffffffffffffffffff\n      and\n      dup2\n      mstore\n      0x20\n      add\n      swap1\n      dup2\n      mstore\n      0x20\n      add\n      0x00\n      keccak256\n      sload\n        /* \"balance_sort.sol\":1487:1495  balances */\n      0x02\n        /* \"balance_sort.sol\":1487:1512  balances[sortedOwners[j]] */\n      0x00\n        /* \"balance_sort.sol\":1496:1508  sortedOwners */\n      dup6\n        /* \"balance_sort.sol\":1509:1510  j */\n      dup5\n        /* \"balance_sort.sol\":1496:1511  sortedOwners[j] */\n      dup2\n      mload\n      dup2\n      lt\n      tag_106\n      jumpi\n      tag_107\n      tag_66\n      jump\t// in\n    tag_107:\n    tag_106:\n      0x20\n      mul\n      0x20\n      add\n      add\n      mload\n        /* \"balance_sort.sol\":1487:1512  balances[sortedOwners[j]] */\n      0xffffffffffffffffffffffffffffffffffffffff\n      and\n      0xffffffffffffffffffffffffffffffffffffffff\n      and\n      dup2\n      mstore\n      0x20\n      add\n      swap1\n      dup2\n      mstore\n      0x20\n      add\n      0x00\n      keccak256\n      sload\n        /* \"balance_sort.sol\":1487:1540  balances[sortedOwners[j]] > balances[sortedOwners[i]] */\n      gt\n        /* \"balance_sort.sol\":1483:1677  if (balances[sortedOwners[j]] > balances[sortedOwners[i]]) {... */\n      iszero\n      tag_108\n      jumpi\n        /* \"balance_sort.sol\":1624:1636  sortedOwners */\n      dup3\n        /* \"balance_sort.sol\":1637:1638  j */\n      dup2\n        /* \"balance_sort.sol\":1624:1639  sortedOwners[j] */\n      dup2\n      mload\n      dup2\n      lt\n      tag_109\n      jumpi\n      tag_110\n      tag_66\n      jump\t// in\n    tag_110:\n    tag_109:\n      0x20\n      mul\n      0x20\n      add\n      add\n      mload\n        /* \"balance_sort.sol\":1641:1653  sortedOwners */\n      dup4\n        /* \"balance_sort.sol\":1654:1655  i */\n      dup4\n        /* \"balance_sort.sol\":1641:1656  sortedOwners[i] */\n      dup2\n      mload\n      dup2\n      lt\n      tag_111\n      jumpi\n      tag_112\n      tag_66\n      jump\t// in\n    tag_112:\n    tag_111:\n      0x20\n      mul\n      0x20\n      add\n      add\n      mload\n        /* \"balance_sort.sol\":1566:1578  sortedOwners */\n      dup5\n        /* \"balance_sort.sol\":1579:1580  i */\n      dup5\n        /* \"balance_sort.sol\":1566:1581  sortedOwners[i] */\n      dup2\n      mload\n      dup2\n      lt\n      tag_113\n      jumpi\n      tag_114\n      tag_66\n      jump\t// in\n    tag_114:\n    tag_113:\n      0x20\n      mul\n      0x20\n      add\n      add\n        /* \"balance_sort.sol\":1583:1595  sortedOwners */\n      dup6\n        /* \"balance_sort.sol\":1596:1597  j */\n      dup5\n        /* \"balance_sort.sol\":1583:1598  sortedOwners[j] */\n      dup2\n      mload\n      dup2\n      lt\n      tag_115\n      jumpi\n      tag_116\n      tag_66\n      jump\t// in\n    tag_116:\n    tag_115:\n      0x20\n      mul\n      0x20\n      add\n      add\n        /* \"balance_sort.sol\":1565:1657  (sortedOwners[i], sortedOwners[j]) =... */\n      dup3\n      0xffffffffffffffffffffffffffffffffffffffff\n      and\n      0xffffffffffffffffffffffffffffffffffffffff\n      and\n      dup2\n      mstore\n      pop\n      dup3\n      0xffffffffffffffffffffffffffffffffffffffff\n      and\n      0xffffffffffffffffffffffffffffffffffffffff\n      and\n      dup2\n      mstore\n      pop\n      pop\n      pop\n        /* \"balance_sort.sol\":1483:1677  if (balances[sortedOwners[j]] > balances[sortedOwners[i]]) {... */\n    tag_108:\n        /* \"balance_sort.sol\":1459:1462  j++ */\n      dup1\n      dup1\n      0x01\n      add\n      swap2\n      pop\n      pop\n        /* \"balance_sort.sol\":1384:1692  for (uint256 j = i + 1;... */\n      jump(tag_100)\n    tag_101:\n      pop\n        /* \"balance_sort.sol\":1364:1367  i++ */\n      dup1\n      dup1\n      0x01\n      add\n      swap2\n      pop\n      pop\n        /* \"balance_sort.sol\":1301:1703  for (uint256 i = 0;... */\n      jump(tag_97)\n    tag_98:\n      pop\n        /* \"balance_sort.sol\":1720:1732  sortedOwners */\n      dup1\n        /* \"balance_sort.sol\":1713:1732  return sortedOwners */\n      swap2\n      pop\n      pop\n        /* \"balance_sort.sol\":1163:1740  function getSortedOwners() external view onlyOwner returns (address[] memory) {... */\n      swap1\n      jump\t// out\n        /* \"#utility.yul\":88:205   */\n    tag_118:\n        /* \"#utility.yul\":197:198   */\n      0x00\n        /* \"#utility.yul\":194:195   */\n      0x00\n        /* \"#utility.yul\":187:199   */\n      revert\n        /* \"#utility.yul\":334:411   */\n    tag_120:\n        /* \"#utility.yul\":371:378   */\n      0x00\n        /* \"#utility.yul\":400:405   */\n      dup2\n        /* \"#utility.yul\":389:405   */\n      swap1\n      pop\n        /* \"#utility.yul\":334:411   */\n      swap2\n      swap1\n      pop\n      jump\t// out\n        /* \"#utility.yul\":417:539   */\n    tag_121:\n        /* \"#utility.yul\":490:514   */\n      tag_157\n        /* \"#utility.yul\":508:513   */\n      dup2\n        /* \"#utility.yul\":490:514   */\n      tag_120\n      jump\t// in\n    tag_157:\n        /* \"#utility.yul\":483:488   */\n      dup2\n        /* \"#utility.yul\":480:515   */\n      eq\n        /* \"#utility.yul\":470:533   */\n      tag_158\n      jumpi\n        /* \"#utility.yul\":529:530   */\n      0x00\n        /* \"#utility.yul\":526:527   */\n      0x00\n        /* \"#utility.yul\":519:531   */\n      revert\n        /* \"#utility.yul\":470:533   */\n    tag_158:\n        /* \"#utility.yul\":417:539   */\n      pop\n      jump\t// out\n        /* \"#utility.yul\":545:684   */\n    tag_122:\n        /* \"#utility.yul\":591:596   */\n      0x00\n        /* \"#utility.yul\":629:635   */\n      dup2\n        /* \"#utility.yul\":616:636   */\n      calldataload\n        /* \"#utility.yul\":607:636   */\n      swap1\n      pop\n        /* \"#utility.yul\":645:678   */\n      tag_160\n        /* \"#utility.yul\":672:677   */\n      dup2\n        /* \"#utility.yul\":645:678   */\n      tag_121\n      jump\t// in\n    tag_160:\n        /* \"#utility.yul\":545:684   */\n      swap3\n      swap2\n      pop\n      pop\n      jump\t// out\n        /* \"#utility.yul\":690:1019   */\n    tag_13:\n        /* \"#utility.yul\":749:755   */\n      0x00\n        /* \"#utility.yul\":798:800   */\n      0x20\n        /* \"#utility.yul\":786:795   */\n      dup3\n        /* \"#utility.yul\":777:784   */\n      dup5\n        /* \"#utility.yul\":773:796   */\n      sub\n        /* \"#utility.yul\":769:801   */\n      slt\n        /* \"#utility.yul\":766:885   */\n      iszero\n      tag_162\n      jumpi\n        /* \"#utility.yul\":804:883   */\n      tag_163\n      tag_118\n      jump\t// in\n    tag_163:\n        /* \"#utility.yul\":766:885   */\n    tag_162:\n        /* \"#utility.yul\":924:925   */\n      0x00\n        /* \"#utility.yul\":949:1002   */\n      tag_164\n        /* \"#utility.yul\":994:1001   */\n      dup5\n        /* \"#utility.yul\":985:991   */\n      dup3\n        /* \"#utility.yul\":974:983   */\n      dup6\n        /* \"#utility.yul\":970:992   */\n      add\n        /* \"#utility.yul\":949:1002   */\n      tag_122\n      jump\t// in\n    tag_164:\n        /* \"#utility.yul\":939:1002   */\n      swap2\n      pop\n        /* \"#utility.yul\":895:1012   */\n      pop\n        /* \"#utility.yul\":690:1019   */\n      swap3\n      swap2\n      pop\n      pop\n      jump\t// out\n        /* \"#utility.yul\":1025:1151   */\n    tag_123:\n        /* \"#utility.yul\":1062:1069   */\n      0x00\n        /* \"#utility.yul\":1102:1144   */\n      0xffffffffffffffffffffffffffffffffffffffff\n        /* \"#utility.yul\":1095:1100   */\n      dup3\n        /* \"#utility.yul\":1091:1145   */\n      and\n        /* \"#utility.yul\":1080:1145   */\n      swap1\n      pop\n        /* \"#utility.yul\":1025:1151   */\n      swap2\n      swap1\n      pop\n      jump\t// out\n        /* \"#utility.yul\":1157:1253   */\n    tag_124:\n        /* \"#utility.yul\":1194:1201   */\n      0x00\n        /* \"#utility.yul\":1223:1247   */\n      tag_167\n        /* \"#utility.yul\":1241:1246   */\n      dup3\n        /* \"#utility.yul\":1223:1247   */\n      tag_123\n      jump\t// in\n    tag_167:\n        /* \"#utility.yul\":1212:1247   */\n      swap1\n      pop\n        /* \"#utility.yul\":1157:1253   */\n      swap2\n      swap1\n      pop\n      jump\t// out\n        /* \"#utility.yul\":1259:1377   */\n    tag_125:\n        /* \"#utility.yul\":1346:1370   */\n      tag_169\n        /* \"#utility.yul\":1364:1369   */\n      dup2\n        /* \"#utility.yul\":1346:1370   */\n      tag_124\n      jump\t// in\n    tag_169:\n        /* \"#utility.yul\":1341:1344   */\n      dup3\n        /* \"#utility.yul\":1334:1371   */\n      mstore\n        /* \"#utility.yul\":1259:1377   */\n      pop\n      pop\n      jump\t// out\n        /* \"#utility.yul\":1383:1605   */\n    tag_16:\n        /* \"#utility.yul\":1476:1480   */\n      0x00\n        /* \"#utility.yul\":1514:1516   */\n      0x20\n        /* \"#utility.yul\":1503:1512   */\n      dup3\n        /* \"#utility.yul\":1499:1517   */\n      add\n        /* \"#utility.yul\":1491:1517   */\n      swap1\n      pop\n        /* \"#utility.yul\":1527:1598   */\n      tag_171\n        /* \"#utility.yul\":1595:1596   */\n      0x00\n        /* \"#utility.yul\":1584:1593   */\n      dup4\n        /* \"#utility.yul\":1580:1597   */\n      add\n        /* \"#utility.yul\":1571:1577   */\n      dup5\n        /* \"#utility.yul\":1527:1598   */\n      tag_125\n      jump\t// in\n    tag_171:\n        /* \"#utility.yul\":1383:1605   */\n      swap3\n      swap2\n      pop\n      pop\n      jump\t// out\n        /* \"#utility.yul\":1611:1729   */\n    tag_126:\n        /* \"#utility.yul\":1698:1722   */\n      tag_173\n        /* \"#utility.yul\":1716:1721   */\n      dup2\n        /* \"#utility.yul\":1698:1722   */\n      tag_120\n      jump\t// in\n    tag_173:\n        /* \"#utility.yul\":1693:1696   */\n      dup3\n        /* \"#utility.yul\":1686:1723   */\n      mstore\n        /* \"#utility.yul\":1611:1729   */\n      pop\n      pop\n      jump\t// out\n        /* \"#utility.yul\":1735:1957   */\n    tag_26:\n        /* \"#utility.yul\":1828:1832   */\n      0x00\n        /* \"#utility.yul\":1866:1868   */\n      0x20\n        /* \"#utility.yul\":1855:1864   */\n      dup3\n        /* \"#utility.yul\":1851:1869   */\n      add\n        /* \"#utility.yul\":1843:1869   */\n      swap1\n      pop\n        /* \"#utility.yul\":1879:1950   */\n      tag_175\n        /* \"#utility.yul\":1947:1948   */\n      0x00\n        /* \"#utility.yul\":1936:1945   */\n      dup4\n        /* \"#utility.yul\":1932:1949   */\n      add\n        /* \"#utility.yul\":1923:1929   */\n      dup5\n        /* \"#utility.yul\":1879:1950   */\n      tag_126\n      jump\t// in\n    tag_175:\n        /* \"#utility.yul\":1735:1957   */\n      swap3\n      swap2\n      pop\n      pop\n      jump\t// out\n        /* \"#utility.yul\":1963:2085   */\n    tag_127:\n        /* \"#utility.yul\":2036:2060   */\n      tag_177\n        /* \"#utility.yul\":2054:2059   */\n      dup2\n        /* \"#utility.yul\":2036:2060   */\n      tag_124\n      jump\t// in\n    tag_177:\n        /* \"#utility.yul\":2029:2034   */\n      dup2\n        /* \"#utility.yul\":2026:2061   */\n      eq\n        /* \"#utility.yul\":2016:2079   */\n      tag_178\n      jumpi\n        /* \"#utility.yul\":2075:2076   */\n      0x00\n        /* \"#utility.yul\":2072:2073   */\n      0x00\n        /* \"#utility.yul\":2065:2077   */\n      revert\n        /* \"#utility.yul\":2016:2079   */\n    tag_178:\n        /* \"#utility.yul\":1963:2085   */\n      pop\n      jump\t// out\n        /* \"#utility.yul\":2091:2230   */\n    tag_128:\n        /* \"#utility.yul\":2137:2142   */\n      0x00\n        /* \"#utility.yul\":2175:2181   */\n      dup2\n        /* \"#utility.yul\":2162:2182   */\n      calldataload\n        /* \"#utility.yul\":2153:2182   */\n      swap1\n      pop\n        /* \"#utility.yul\":2191:2224   */\n      tag_180\n        /* \"#utility.yul\":2218:2223   */\n      dup2\n        /* \"#utility.yul\":2191:2224   */\n      tag_127\n      jump\t// in\n    tag_180:\n        /* \"#utility.yul\":2091:2230   */\n      swap3\n      swap2\n      pop\n      pop\n      jump\t// out\n        /* \"#utility.yul\":2236:2565   */\n    tag_30:\n        /* \"#utility.yul\":2295:2301   */\n      0x00\n        /* \"#utility.yul\":2344:2346   */\n      0x20\n        /* \"#utility.yul\":2332:2341   */\n      dup3\n        /* \"#utility.yul\":2323:2330   */\n      dup5\n        /* \"#utility.yul\":2319:2342   */\n      sub\n        /* \"#utility.yul\":2315:2347   */\n      slt\n        /* \"#utility.yul\":2312:2431   */\n      iszero\n      tag_182\n      jumpi\n        /* \"#utility.yul\":2350:2429   */\n      tag_183\n      tag_118\n      jump\t// in\n    tag_183:\n        /* \"#utility.yul\":2312:2431   */\n    tag_182:\n        /* \"#utility.yul\":2470:2471   */\n      0x00\n        /* \"#utility.yul\":2495:2548   */\n      tag_184\n        /* \"#utility.yul\":2540:2547   */\n      dup5\n        /* \"#utility.yul\":2531:2537   */\n      dup3\n        /* \"#utility.yul\":2520:2529   */\n      dup6\n        /* \"#utility.yul\":2516:2538   */\n      add\n        /* \"#utility.yul\":2495:2548   */\n      tag_128\n      jump\t// in\n    tag_184:\n        /* \"#utility.yul\":2485:2548   */\n      swap2\n      pop\n        /* \"#utility.yul\":2441:2558   */\n      pop\n        /* \"#utility.yul\":2236:2565   */\n      swap3\n      swap2\n      pop\n      pop\n      jump\t// out\n        /* \"#utility.yul\":2571:2685   */\n    tag_129:\n        /* \"#utility.yul\":2638:2644   */\n      0x00\n        /* \"#utility.yul\":2672:2677   */\n      dup2\n        /* \"#utility.yul\":2666:2678   */\n      mload\n        /* \"#utility.yul\":2656:2678   */\n      swap1\n      pop\n        /* \"#utility.yul\":2571:2685   */\n      swap2\n      swap1\n      pop\n      jump\t// out\n        /* \"#utility.yul\":2691:2875   */\n    tag_130:\n        /* \"#utility.yul\":2790:2801   */\n      0x00\n        /* \"#utility.yul\":2824:2830   */\n      dup3\n        /* \"#utility.yul\":2819:2822   */\n      dup3\n        /* \"#utility.yul\":2812:2831   */\n      mstore\n        /* \"#utility.yul\":2864:2868   */\n      0x20\n        /* \"#utility.yul\":2859:2862   */\n      dup3\n        /* \"#utility.yul\":2855:2869   */\n      add\n        /* \"#utility.yul\":2840:2869   */\n      swap1\n      pop\n        /* \"#utility.yul\":2691:2875   */\n      swap3\n      swap2\n      pop\n      pop\n      jump\t// out\n        /* \"#utility.yul\":2881:3013   */\n    tag_131:\n        /* \"#utility.yul\":2948:2952   */\n      0x00\n        /* \"#utility.yul\":2971:2974   */\n      dup2\n        /* \"#utility.yul\":2963:2974   */\n      swap1\n      pop\n        /* \"#utility.yul\":3001:3005   */\n      0x20\n        /* \"#utility.yul\":2996:2999   */\n      dup3\n        /* \"#utility.yul\":2992:3006   */\n      add\n        /* \"#utility.yul\":2984:3006   */\n      swap1\n      pop\n        /* \"#utility.yul\":2881:3013   */\n      swap2\n      swap1\n      pop\n      jump\t// out\n        /* \"#utility.yul\":3019:3127   */\n    tag_132:\n        /* \"#utility.yul\":3096:3120   */\n      tag_189\n        /* \"#utility.yul\":3114:3119   */\n      dup2\n        /* \"#utility.yul\":3096:3120   */\n      tag_124\n      jump\t// in\n    tag_189:\n        /* \"#utility.yul\":3091:3094   */\n      dup3\n        /* \"#utility.yul\":3084:3121   */\n      mstore\n        /* \"#utility.yul\":3019:3127   */\n      pop\n      pop\n      jump\t// out\n        /* \"#utility.yul\":3133:3312   */\n    tag_133:\n        /* \"#utility.yul\":3202:3212   */\n      0x00\n        /* \"#utility.yul\":3223:3269   */\n      tag_191\n        /* \"#utility.yul\":3265:3268   */\n      dup4\n        /* \"#utility.yul\":3257:3263   */\n      dup4\n        /* \"#utility.yul\":3223:3269   */\n      tag_132\n      jump\t// in\n    tag_191:\n        /* \"#utility.yul\":3301:3305   */\n      0x20\n        /* \"#utility.yul\":3296:3299   */\n      dup4\n        /* \"#utility.yul\":3292:3306   */\n      add\n        /* \"#utility.yul\":3278:3306   */\n      swap1\n      pop\n        /* \"#utility.yul\":3133:3312   */\n      swap3\n      swap2\n      pop\n      pop\n      jump\t// out\n        /* \"#utility.yul\":3318:3431   */\n    tag_134:\n        /* \"#utility.yul\":3388:3392   */\n      0x00\n        /* \"#utility.yul\":3420:3424   */\n      0x20\n        /* \"#utility.yul\":3415:3418   */\n      dup3\n        /* \"#utility.yul\":3411:3425   */\n      add\n        /* \"#utility.yul\":3403:3425   */\n      swap1\n      pop\n        /* \"#utility.yul\":3318:3431   */\n      swap2\n      swap1\n      pop\n      jump\t// out\n        /* \"#utility.yul\":3467:4199   */\n    tag_135:\n        /* \"#utility.yul\":3586:3589   */\n      0x00\n        /* \"#utility.yul\":3615:3669   */\n      tag_194\n        /* \"#utility.yul\":3663:3668   */\n      dup3\n        /* \"#utility.yul\":3615:3669   */\n      tag_129\n      jump\t// in\n    tag_194:\n        /* \"#utility.yul\":3685:3771   */\n      tag_195\n        /* \"#utility.yul\":3764:3770   */\n      dup2\n        /* \"#utility.yul\":3759:3762   */\n      dup6\n        /* \"#utility.yul\":3685:3771   */\n      tag_130\n      jump\t// in\n    tag_195:\n        /* \"#utility.yul\":3678:3771   */\n      swap4\n      pop\n        /* \"#utility.yul\":3795:3851   */\n      tag_196\n        /* \"#utility.yul\":3845:3850   */\n      dup4\n        /* \"#utility.yul\":3795:3851   */\n      tag_131\n      jump\t// in\n    tag_196:\n        /* \"#utility.yul\":3874:3881   */\n      dup1\n        /* \"#utility.yul\":3905:3906   */\n      0x00\n        /* \"#utility.yul\":3890:4174   */\n    tag_197:\n        /* \"#utility.yul\":3915:3921   */\n      dup4\n        /* \"#utility.yul\":3912:3913   */\n      dup2\n        /* \"#utility.yul\":3909:3922   */\n      lt\n        /* \"#utility.yul\":3890:4174   */\n      iszero\n      tag_199\n      jumpi\n        /* \"#utility.yul\":3991:3997   */\n      dup2\n        /* \"#utility.yul\":3985:3998   */\n      mload\n        /* \"#utility.yul\":4018:4081   */\n      tag_200\n        /* \"#utility.yul\":4077:4080   */\n      dup9\n        /* \"#utility.yul\":4062:4075   */\n      dup3\n        /* \"#utility.yul\":4018:4081   */\n      tag_133\n      jump\t// in\n    tag_200:\n        /* \"#utility.yul\":4011:4081   */\n      swap8\n      pop\n        /* \"#utility.yul\":4104:4164   */\n      tag_201\n        /* \"#utility.yul\":4157:4163   */\n      dup4\n        /* \"#utility.yul\":4104:4164   */\n      tag_134\n      jump\t// in\n    tag_201:\n        /* \"#utility.yul\":4094:4164   */\n      swap3\n      pop\n        /* \"#utility.yul\":3950:4174   */\n      pop\n        /* \"#utility.yul\":3937:3938   */\n      0x01\n        /* \"#utility.yul\":3934:3935   */\n      dup2\n        /* \"#utility.yul\":3930:3939   */\n      add\n        /* \"#utility.yul\":3925:3939   */\n      swap1\n      pop\n        /* \"#utility.yul\":3890:4174   */\n      jump(tag_197)\n    tag_199:\n        /* \"#utility.yul\":3894:3908   */\n      pop\n        /* \"#utility.yul\":4190:4193   */\n      dup6\n        /* \"#utility.yul\":4183:4193   */\n      swap4\n      pop\n        /* \"#utility.yul\":3591:4199   */\n      pop\n      pop\n      pop\n        /* \"#utility.yul\":3467:4199   */\n      swap3\n      swap2\n      pop\n      pop\n      jump\t// out\n        /* \"#utility.yul\":4205:4578   */\n    tag_41:\n        /* \"#utility.yul\":4348:4352   */\n      0x00\n        /* \"#utility.yul\":4386:4388   */\n      0x20\n        /* \"#utility.yul\":4375:4384   */\n      dup3\n        /* \"#utility.yul\":4371:4389   */\n      add\n        /* \"#utility.yul\":4363:4389   */\n      swap1\n      pop\n        /* \"#utility.yul\":4435:4444   */\n      dup2\n        /* \"#utility.yul\":4429:4433   */\n      dup2\n        /* \"#utility.yul\":4425:4445   */\n      sub\n        /* \"#utility.yul\":4421:4422   */\n      0x00\n        /* \"#utility.yul\":4410:4419   */\n      dup4\n        /* \"#utility.yul\":4406:4423   */\n      add\n        /* \"#utility.yul\":4399:4446   */\n      mstore\n        /* \"#utility.yul\":4463:4571   */\n      tag_203\n        /* \"#utility.yul\":4566:4570   */\n      dup2\n        /* \"#utility.yul\":4557:4563   */\n      dup5\n        /* \"#utility.yul\":4463:4571   */\n      tag_135\n      jump\t// in\n    tag_203:\n        /* \"#utility.yul\":4455:4571   */\n      swap1\n      pop\n        /* \"#utility.yul\":4205:4578   */\n      swap3\n      swap2\n      pop\n      pop\n      jump\t// out\n        /* \"#utility.yul\":4584:4753   */\n    tag_136:\n        /* \"#utility.yul\":4668:4679   */\n      0x00\n        /* \"#utility.yul\":4702:4708   */\n      dup3\n        /* \"#utility.yul\":4697:4700   */\n      dup3\n        /* \"#utility.yul\":4690:4709   */\n      mstore\n        /* \"#utility.yul\":4742:4746   */\n      0x20\n        /* \"#utility.yul\":4737:4740   */\n      dup3\n        /* \"#utility.yul\":4733:4747   */\n      add\n        /* \"#utility.yul\":4718:4747   */\n      swap1\n      pop\n        /* \"#utility.yul\":4584:4753   */\n      swap3\n      swap2\n      pop\n      pop\n      jump\t// out\n        /* \"#utility.yul\":4759:4922   */\n    tag_137:\n        /* \"#utility.yul\":4899:4914   */\n      0x53656e6420736f6d652045544800000000000000000000000000000000000000\n        /* \"#utility.yul\":4895:4896   */\n      0x00\n        /* \"#utility.yul\":4887:4893   */\n      dup3\n        /* \"#utility.yul\":4883:4897   */\n      add\n        /* \"#utility.yul\":4876:4915   */\n      mstore\n        /* \"#utility.yul\":4759:4922   */\n      pop\n      jump\t// out\n        /* \"#utility.yul\":4928:5294   */\n    tag_138:\n        /* \"#utility.yul\":5070:5073   */\n      0x00\n        /* \"#utility.yul\":5091:5158   */\n      tag_207\n        /* \"#utility.yul\":5155:5157   */\n      0x0d\n        /* \"#utility.yul\":5150:5153   */\n      dup4\n        /* \"#utility.yul\":5091:5158   */\n      tag_136\n      jump\t// in\n    tag_207:\n        /* \"#utility.yul\":5084:5158   */\n      swap2\n      pop\n        /* \"#utility.yul\":5167:5260   */\n      tag_208\n        /* \"#utility.yul\":5256:5259   */\n      dup3\n        /* \"#utility.yul\":5167:5260   */\n      tag_137\n      jump\t// in\n    tag_208:\n        /* \"#utility.yul\":5285:5287   */\n      0x20\n        /* \"#utility.yul\":5280:5283   */\n      dup3\n        /* \"#utility.yul\":5276:5288   */\n      add\n        /* \"#utility.yul\":5269:5288   */\n      swap1\n      pop\n        /* \"#utility.yul\":4928:5294   */\n      swap2\n      swap1\n      pop\n      jump\t// out\n        /* \"#utility.yul\":5300:5719   */\n    tag_47:\n        /* \"#utility.yul\":5466:5470   */\n      0x00\n        /* \"#utility.yul\":5504:5506   */\n      0x20\n        /* \"#utility.yul\":5493:5502   */\n      dup3\n        /* \"#utility.yul\":5489:5507   */\n      add\n        /* \"#utility.yul\":5481:5507   */\n      swap1\n      pop\n        /* \"#utility.yul\":5553:5562   */\n      dup2\n        /* \"#utility.yul\":5547:5551   */\n      dup2\n        /* \"#utility.yul\":5543:5563   */\n      sub\n        /* \"#utility.yul\":5539:5540   */\n      0x00\n        /* \"#utility.yul\":5528:5537   */\n      dup4\n        /* \"#utility.yul\":5524:5541   */\n      add\n        /* \"#utility.yul\":5517:5564   */\n      mstore\n        /* \"#utility.yul\":5581:5712   */\n      tag_210\n        /* \"#utility.yul\":5707:5711   */\n      dup2\n        /* \"#utility.yul\":5581:5712   */\n      tag_138\n      jump\t// in\n    tag_210:\n        /* \"#utility.yul\":5573:5712   */\n      swap1\n      pop\n        /* \"#utility.yul\":5300:5719   */\n      swap2\n      swap1\n      pop\n      jump\t// out\n        /* \"#utility.yul\":5725:5905   */\n    tag_139:\n        /* \"#utility.yul\":5773:5850   */\n      0x4e487b7100000000000000000000000000000000000000000000000000000000\n        /* \"#utility.yul\":5770:5771   */\n      0x00\n        /* \"#utility.yul\":5763:5851   */\n      mstore\n        /* \"#utility.yul\":5870:5874   */\n      0x11\n        /* \"#utility.yul\":5867:5868   */\n      0x04\n        /* \"#utility.yul\":5860:5875   */\n      mstore\n        /* \"#utility.yul\":5894:5898   */\n      0x24\n        /* \"#utility.yul\":5891:5892   */\n      0x00\n        /* \"#utility.yul\":5884:5899   */\n      revert\n        /* \"#utility.yul\":5911:6102   */\n    tag_51:\n        /* \"#utility.yul\":5951:5954   */\n      0x00\n        /* \"#utility.yul\":5970:5990   */\n      tag_213\n        /* \"#utility.yul\":5988:5989   */\n      dup3\n        /* \"#utility.yul\":5970:5990   */\n      tag_120\n      jump\t// in\n    tag_213:\n        /* \"#utility.yul\":5965:5990   */\n      swap2\n      pop\n        /* \"#utility.yul\":6004:6024   */\n      tag_214\n        /* \"#utility.yul\":6022:6023   */\n      dup4\n        /* \"#utility.yul\":6004:6024   */\n      tag_120\n      jump\t// in\n    tag_214:\n        /* \"#utility.yul\":5999:6024   */\n      swap3\n      pop\n        /* \"#utility.yul\":6047:6048   */\n      dup3\n        /* \"#utility.yul\":6044:6045   */\n      dup3\n        /* \"#utility.yul\":6040:6049   */\n      add\n        /* \"#utility.yul\":6033:6049   */\n      swap1\n      pop\n        /* \"#utility.yul\":6068:6071   */\n      dup1\n        /* \"#utility.yul\":6065:6066   */\n      dup3\n        /* \"#utility.yul\":6062:6072   */\n      gt\n        /* \"#utility.yul\":6059:6095   */\n      iszero\n      tag_215\n      jumpi\n        /* \"#utility.yul\":6075:6093   */\n      tag_216\n      tag_139\n      jump\t// in\n    tag_216:\n        /* \"#utility.yul\":6059:6095   */\n    tag_215:\n        /* \"#utility.yul\":5911:6102   */\n      swap3\n      swap2\n      pop\n      pop\n      jump\t// out\n        /* \"#utility.yul\":6108:6276   */\n    tag_140:\n        /* \"#utility.yul\":6248:6268   */\n      0x4e6f7420636f6e7472616374206f776e65720000000000000000000000000000\n        /* \"#utility.yul\":6244:6245   */\n      0x00\n        /* \"#utility.yul\":6236:6242   */\n      dup3\n        /* \"#utility.yul\":6232:6246   */\n      add\n        /* \"#utility.yul\":6225:6269   */\n      mstore\n        /* \"#utility.yul\":6108:6276   */\n      pop\n      jump\t// out\n        /* \"#utility.yul\":6282:6648   */\n    tag_141:\n        /* \"#utility.yul\":6424:6427   */\n      0x00\n        /* \"#utility.yul\":6445:6512   */\n      tag_219\n        /* \"#utility.yul\":6509:6511   */\n      0x12\n        /* \"#utility.yul\":6504:6507   */\n      dup4\n        /* \"#utility.yul\":6445:6512   */\n      tag_136\n      jump\t// in\n    tag_219:\n        /* \"#utility.yul\":6438:6512   */\n      swap2\n      pop\n        /* \"#utility.yul\":6521:6614   */\n      tag_220\n        /* \"#utility.yul\":6610:6613   */\n      dup3\n        /* \"#utility.yul\":6521:6614   */\n      tag_140\n      jump\t// in\n    tag_220:\n        /* \"#utility.yul\":6639:6641   */\n      0x20\n        /* \"#utility.yul\":6634:6637   */\n      dup3\n        /* \"#utility.yul\":6630:6642   */\n      add\n        /* \"#utility.yul\":6623:6642   */\n      swap1\n      pop\n        /* \"#utility.yul\":6282:6648   */\n      swap2\n      swap1\n      pop\n      jump\t// out\n        /* \"#utility.yul\":6654:7073   */\n    tag_56:\n        /* \"#utility.yul\":6820:6824   */\n      0x00\n        /* \"#utility.yul\":6858:6860   */\n      0x20\n        /* \"#utility.yul\":6847:6856   */\n      dup3\n        /* \"#utility.yul\":6843:6861   */\n      add\n        /* \"#utility.yul\":6835:6861   */\n      swap1\n      pop\n        /* \"#utility.yul\":6907:6916   */\n      dup2\n        /* \"#utility.yul\":6901:6905   */\n      dup2\n        /* \"#utility.yul\":6897:6917   */\n      sub\n        /* \"#utility.yul\":6893:6894   */\n      0x00\n        /* \"#utility.yul\":6882:6891   */\n      dup4\n        /* \"#utility.yul\":6878:6895   */\n      add\n        /* \"#utility.yul\":6871:6918   */\n      mstore\n        /* \"#utility.yul\":6935:7066   */\n      tag_222\n        /* \"#utility.yul\":7061:7065   */\n      dup2\n        /* \"#utility.yul\":6935:7066   */\n      tag_141\n      jump\t// in\n    tag_222:\n        /* \"#utility.yul\":6927:7066   */\n      swap1\n      pop\n        /* \"#utility.yul\":6654:7073   */\n      swap2\n      swap1\n      pop\n      jump\t// out\n        /* \"#utility.yul\":7079:7238   */\n    tag_142:\n        /* \"#utility.yul\":7219:7230   */\n      0x4e6f206f776e6572730000000000000000000000000000000000000000000000\n        /* \"#utility.yul\":7215:7216   */\n      0x00\n        /* \"#utility.yul\":7207:7213   */\n      dup3\n        /* \"#utility.yul\":7203:7217   */\n      add\n        /* \"#utility.yul\":7196:7231   */\n      mstore\n        /* \"#utility.yul\":7079:7238   */\n      pop\n      jump\t// out\n        /* \"#utility.yul\":7244:7609   */\n    tag_143:\n        /* \"#utility.yul\":7386:7389   */\n      0x00\n        /* \"#utility.yul\":7407:7473   */\n      tag_225\n        /* \"#utility.yul\":7471:7472   */\n      0x09\n        /* \"#utility.yul\":7466:7469   */\n      dup4\n        /* \"#utility.yul\":7407:7473   */\n      tag_136\n      jump\t// in\n    tag_225:\n        /* \"#utility.yul\":7400:7473   */\n      swap2\n      pop\n        /* \"#utility.yul\":7482:7575   */\n      tag_226\n        /* \"#utility.yul\":7571:7574   */\n      dup3\n        /* \"#utility.yul\":7482:7575   */\n      tag_142\n      jump\t// in\n    tag_226:\n        /* \"#utility.yul\":7600:7602   */\n      0x20\n        /* \"#utility.yul\":7595:7598   */\n      dup3\n        /* \"#utility.yul\":7591:7603   */\n      add\n        /* \"#utility.yul\":7584:7603   */\n      swap1\n      pop\n        /* \"#utility.yul\":7244:7609   */\n      swap2\n      swap1\n      pop\n      jump\t// out\n        /* \"#utility.yul\":7615:8034   */\n    tag_60:\n        /* \"#utility.yul\":7781:7785   */\n      0x00\n        /* \"#utility.yul\":7819:7821   */\n      0x20\n        /* \"#utility.yul\":7808:7817   */\n      dup3\n        /* \"#utility.yul\":7804:7822   */\n      add\n        /* \"#utility.yul\":7796:7822   */\n      swap1\n      pop\n        /* \"#utility.yul\":7868:7877   */\n      dup2\n        /* \"#utility.yul\":7862:7866   */\n      dup2\n        /* \"#utility.yul\":7858:7878   */\n      sub\n        /* \"#utility.yul\":7854:7855   */\n      0x00\n        /* \"#utility.yul\":7843:7852   */\n      dup4\n        /* \"#utility.yul\":7839:7856   */\n      add\n        /* \"#utility.yul\":7832:7879   */\n      mstore\n        /* \"#utility.yul\":7896:8027   */\n      tag_228\n        /* \"#utility.yul\":8022:8026   */\n      dup2\n        /* \"#utility.yul\":7896:8027   */\n      tag_143\n      jump\t// in\n    tag_228:\n        /* \"#utility.yul\":7888:8027   */\n      swap1\n      pop\n        /* \"#utility.yul\":7615:8034   */\n      swap2\n      swap1\n      pop\n      jump\t// out\n        /* \"#utility.yul\":8040:8208   */\n    tag_144:\n        /* \"#utility.yul\":8180:8200   */\n      0x4e6f2045544820696e20636f6e74726163740000000000000000000000000000\n        /* \"#utility.yul\":8176:8177   */\n      0x00\n        /* \"#utility.yul\":8168:8174   */\n      dup3\n        /* \"#utility.yul\":8164:8178   */\n      add\n        /* \"#utility.yul\":8157:8201   */\n      mstore\n        /* \"#utility.yul\":8040:8208   */\n      pop\n      jump\t// out\n        /* \"#utility.yul\":8214:8580   */\n    tag_145:\n        /* \"#utility.yul\":8356:8359   */\n      0x00\n        /* \"#utility.yul\":8377:8444   */\n      tag_231\n        /* \"#utility.yul\":8441:8443   */\n      0x12\n        /* \"#utility.yul\":8436:8439   */\n      dup4\n        /* \"#utility.yul\":8377:8444   */\n      tag_136\n      jump\t// in\n    tag_231:\n        /* \"#utility.yul\":8370:8444   */\n      swap2\n      pop\n        /* \"#utility.yul\":8453:8546   */\n      tag_232\n        /* \"#utility.yul\":8542:8545   */\n      dup3\n        /* \"#utility.yul\":8453:8546   */\n      tag_144\n      jump\t// in\n    tag_232:\n        /* \"#utility.yul\":8571:8573   */\n      0x20\n        /* \"#utility.yul\":8566:8569   */\n      dup3\n        /* \"#utility.yul\":8562:8574   */\n      add\n        /* \"#utility.yul\":8555:8574   */\n      swap1\n      pop\n        /* \"#utility.yul\":8214:8580   */\n      swap2\n      swap1\n      pop\n      jump\t// out\n        /* \"#utility.yul\":8586:9005   */\n    tag_63:\n        /* \"#utility.yul\":8752:8756   */\n      0x00\n        /* \"#utility.yul\":8790:8792   */\n      0x20\n        /* \"#utility.yul\":8779:8788   */\n      dup3\n        /* \"#utility.yul\":8775:8793   */\n      add\n        /* \"#utility.yul\":8767:8793   */\n      swap1\n      pop\n        /* \"#utility.yul\":8839:8848   */\n      dup2\n        /* \"#utility.yul\":8833:8837   */\n      dup2\n        /* \"#utility.yul\":8829:8849   */\n      sub\n        /* \"#utility.yul\":8825:8826   */\n      0x00\n        /* \"#utility.yul\":8814:8823   */\n      dup4\n        /* \"#utility.yul\":8810:8827   */\n      add\n        /* \"#utility.yul\":8803:8850   */\n      mstore\n        /* \"#utility.yul\":8867:8998   */\n      tag_234\n        /* \"#utility.yul\":8993:8997   */\n      dup2\n        /* \"#utility.yul\":8867:8998   */\n      tag_145\n      jump\t// in\n    tag_234:\n        /* \"#utility.yul\":8859:8998   */\n      swap1\n      pop\n        /* \"#utility.yul\":8586:9005   */\n      swap2\n      swap1\n      pop\n      jump\t// out\n        /* \"#utility.yul\":9011:9191   */\n    tag_66:\n        /* \"#utility.yul\":9059:9136   */\n      0x4e487b7100000000000000000000000000000000000000000000000000000000\n        /* \"#utility.yul\":9056:9057   */\n      0x00\n        /* \"#utility.yul\":9049:9137   */\n      mstore\n        /* \"#utility.yul\":9156:9160   */\n      0x32\n        /* \"#utility.yul\":9153:9154   */\n      0x04\n        /* \"#utility.yul\":9146:9161   */\n      mstore\n        /* \"#utility.yul\":9180:9184   */\n      0x24\n        /* \"#utility.yul\":9177:9178   */\n      0x00\n        /* \"#utility.yul\":9170:9185   */\n      revert\n        /* \"#utility.yul\":9197:9344   */\n    tag_146:\n        /* \"#utility.yul\":9298:9309   */\n      0x00\n        /* \"#utility.yul\":9335:9338   */\n      dup2\n        /* \"#utility.yul\":9320:9338   */\n      swap1\n      pop\n        /* \"#utility.yul\":9197:9344   */\n      swap3\n      swap2\n      pop\n      pop\n      jump\t// out\n        /* \"#utility.yul\":9350:9464   */\n    tag_147:\n      pop\n      jump\t// out\n        /* \"#utility.yul\":9470:9868   */\n    tag_148:\n        /* \"#utility.yul\":9629:9632   */\n      0x00\n        /* \"#utility.yul\":9650:9733   */\n      tag_239\n        /* \"#utility.yul\":9731:9732   */\n      0x00\n        /* \"#utility.yul\":9726:9729   */\n      dup4\n        /* \"#utility.yul\":9650:9733   */\n      tag_146\n      jump\t// in\n    tag_239:\n        /* \"#utility.yul\":9643:9733   */\n      swap2\n      pop\n        /* \"#utility.yul\":9742:9835   */\n      tag_240\n        /* \"#utility.yul\":9831:9834   */\n      dup3\n        /* \"#utility.yul\":9742:9835   */\n      tag_147\n      jump\t// in\n    tag_240:\n        /* \"#utility.yul\":9860:9861   */\n      0x00\n        /* \"#utility.yul\":9855:9858   */\n      dup3\n        /* \"#utility.yul\":9851:9862   */\n      add\n        /* \"#utility.yul\":9844:9862   */\n      swap1\n      pop\n        /* \"#utility.yul\":9470:9868   */\n      swap2\n      swap1\n      pop\n      jump\t// out\n        /* \"#utility.yul\":9874:10253   */\n    tag_82:\n        /* \"#utility.yul\":10058:10061   */\n      0x00\n        /* \"#utility.yul\":10080:10227   */\n      tag_242\n        /* \"#utility.yul\":10223:10226   */\n      dup3\n        /* \"#utility.yul\":10080:10227   */\n      tag_148\n      jump\t// in\n    tag_242:\n        /* \"#utility.yul\":10073:10227   */\n      swap2\n      pop\n        /* \"#utility.yul\":10244:10247   */\n      dup2\n        /* \"#utility.yul\":10237:10247   */\n      swap1\n      pop\n        /* \"#utility.yul\":9874:10253   */\n      swap2\n      swap1\n      pop\n      jump\t// out\n        /* \"#utility.yul\":10259:10424   */\n    tag_149:\n        /* \"#utility.yul\":10399:10416   */\n      0x5472616e73666572206661696c65640000000000000000000000000000000000\n        /* \"#utility.yul\":10395:10396   */\n      0x00\n        /* \"#utility.yul\":10387:10393   */\n      dup3\n        /* \"#utility.yul\":10383:10397   */\n      add\n        /* \"#utility.yul\":10376:10417   */\n      mstore\n        /* \"#utility.yul\":10259:10424   */\n      pop\n      jump\t// out\n        /* \"#utility.yul\":10430:10796   */\n    tag_150:\n        /* \"#utility.yul\":10572:10575   */\n      0x00\n        /* \"#utility.yul\":10593:10660   */\n      tag_245\n        /* \"#utility.yul\":10657:10659   */\n      0x0f\n        /* \"#utility.yul\":10652:10655   */\n      dup4\n        /* \"#utility.yul\":10593:10660   */\n      tag_136\n      jump\t// in\n    tag_245:\n        /* \"#utility.yul\":10586:10660   */\n      swap2\n      pop\n        /* \"#utility.yul\":10669:10762   */\n      tag_246\n        /* \"#utility.yul\":10758:10761   */\n      dup3\n        /* \"#utility.yul\":10669:10762   */\n      tag_149\n      jump\t// in\n    tag_246:\n        /* \"#utility.yul\":10787:10789   */\n      0x20\n        /* \"#utility.yul\":10782:10785   */\n      dup3\n        /* \"#utility.yul\":10778:10790   */\n      add\n        /* \"#utility.yul\":10771:10790   */\n      swap1\n      pop\n        /* \"#utility.yul\":10430:10796   */\n      swap2\n      swap1\n      pop\n      jump\t// out\n        /* \"#utility.yul\":10802:11221   */\n    tag_88:\n        /* \"#utility.yul\":10968:10972   */\n      0x00\n        /* \"#utility.yul\":11006:11008   */\n      0x20\n        /* \"#utility.yul\":10995:11004   */\n      dup3\n        /* \"#utility.yul\":10991:11009   */\n      add\n        /* \"#utility.yul\":10983:11009   */\n      swap1\n      pop\n        /* \"#utility.yul\":11055:11064   */\n      dup2\n        /* \"#utility.yul\":11049:11053   */\n      dup2\n        /* \"#utility.yul\":11045:11065   */\n      sub\n        /* \"#utility.yul\":11041:11042   */\n      0x00\n        /* \"#utility.yul\":11030:11039   */\n      dup4\n        /* \"#utility.yul\":11026:11043   */\n      add\n        /* \"#utility.yul\":11019:11066   */\n      mstore\n        /* \"#utility.yul\":11083:11214   */\n      tag_248\n        /* \"#utility.yul\":11209:11213   */\n      dup2\n        /* \"#utility.yul\":11083:11214   */\n      tag_150\n      jump\t// in\n    tag_248:\n        /* \"#utility.yul\":11075:11214   */\n      swap1\n      pop\n        /* \"#utility.yul\":10802:11221   */\n      swap2\n      swap1\n      pop\n      jump\t// out\n\n    auxdata: 0xa2646970667358221220be14274ad812c4b6fc511f961bb66c9770e89cfa9635889c59bcb2e14de5b09664736f6c63430008220033\n}\n",
				"bytecode": {
					"linkReferences": {},
					"object": "6080604052348015600e575f5ffd5b50335f5f6101000a81548173ffffffffffffffffffffffffffffffffffffffff021916908373ffffffffffffffffffffffffffffffffffffffff1602179055506110368061005b5f395ff3fe60806040526004361061006f575f3560e01c8063243669ad1161004d578063243669ad146100cf57806327e235e3146100f95780638da5cb5b146101355780639f4627161461015f5761006f565b8063025e7c2714610073578063040f0aee146100af57806309c49f04146100b9575b5f5ffd5b34801561007e575f5ffd5b5061009960048036038101906100949190610b43565b610189565b6040516100a69190610bad565b60405180910390f35b6100b76101c4565b005b3480156100c4575f5ffd5b506100cd6103f0565b005b3480156100da575f5ffd5b506100e36107e2565b6040516100f09190610bd5565b60405180910390f35b348015610104575f5ffd5b5061011f600480360381019061011a9190610c18565b6107ee565b60405161012c9190610bd5565b60405180910390f35b348015610140575f5ffd5b50610149610803565b6040516101569190610bad565b60405180910390f35b34801561016a575f5ffd5b50610173610827565b6040516101809190610cfa565b60405180910390f35b60018181548110610198575f80fd5b905f5260205f20015f915054906101000a900473ffffffffffffffffffffffffffffffffffffffff1681565b5f3411610206576040517f08c379a00000000000000000000000000000000000000000000000000000000081526004016101fd90610d74565b60405180910390fd5b60035f3373ffffffffffffffffffffffffffffffffffffffff1673ffffffffffffffffffffffffffffffffffffffff1681526020019081526020015f205f9054906101000a900460ff1661034d57600133908060018154018082558091505060019003905f5260205f20015f9091909190916101000a81548173ffffffffffffffffffffffffffffffffffffffff021916908373ffffffffffffffffffffffffffffffffffffffff160217905550600160035f3373ffffffffffffffffffffffffffffffffffffffff1673ffffffffffffffffffffffffffffffffffffffff1681526020019081526020015f205f6101000a81548160ff0219169083151502179055503373ffffffffffffffffffffffffffffffffffffffff167f994a936646fe87ffe4f1e469d3d6aa417d6b855598397f323de5b449f765f0c360405160405180910390a25b3460025f3373ffffffffffffffffffffffffffffffffffffffff1673ffffffffffffffffffffffffffffffffffffffff1681526020019081526020015f205f8282546103999190610dbf565b925050819055503373ffffffffffffffffffffffffffffffffffffffff167fe1d95dcfba9d7b8018a7269ed1485c9e65f81d520213216942c2f8a4c6f4f8e7346040516103e69190610bd5565b60405180910390a2565b5f5f9054906101000a900473ffffffffffffffffffffffffffffffffffffffff1673ffffffffffffffffffffffffffffffffffffffff163373ffffffffffffffffffffffffffffffffffffffff161461047e576040517f08c379a000000000000000000000000000000000000000000000000000000000815260040161047590610e3c565b60405180910390fd5b5f600180549050116104c5576040517f08c379a00000000000000000000000000000000000000000000000000000000081526004016104bc90610ea4565b60405180910390fd5b5f4711610507576040517f08c379a00000000000000000000000000000000000000000000000000000000081526004016104fe90610f0c565b60405180910390fd5b5f60015f8154811061051c5761051b610f2a565b5b905f5260205f20015f9054906101000a900473ffffffffffffffffffffffffffffffffffffffff1690505f60025f8373ffffffffffffffffffffffffffffffffffffffff1673ffffffffffffffffffffffffffffffffffffffff1681526020019081526020015f205490505f600190505b6001805490508110156106e1578160025f600184815481106105b2576105b1610f2a565b5b905f5260205f20015f9054906101000a900473ffffffffffffffffffffffffffffffffffffffff1673ffffffffffffffffffffffffffffffffffffffff1673ffffffffffffffffffffffffffffffffffffffff1681526020019081526020015f205410156106d45760025f6001838154811061063157610630610f2a565b5b905f5260205f20015f9054906101000a900473ffffffffffffffffffffffffffffffffffffffff1673ffffffffffffffffffffffffffffffffffffffff1673ffffffffffffffffffffffffffffffffffffffff1681526020019081526020015f20549150600181815481106106a9576106a8610f2a565b5b905f5260205f20015f9054906101000a900473ffffffffffffffffffffffffffffffffffffffff1692505b808060010191505061058d565b505f4790505f8373ffffffffffffffffffffffffffffffffffffffff168260405161070b90610f84565b5f6040518083038185875af1925050503d805f8114610745576040519150601f19603f3d011682016040523d82523d5f602084013e61074a565b606091505b505090508061078e576040517f08c379a000000000000000000000000000000000000000000000000000000000815260040161078590610fe2565b60405180910390fd5b8373ffffffffffffffffffffffffffffffffffffffff167f351eb0cececa94d1f6d13a1d6e260ae7da1515ae47fcc4014537c120670a6e0c836040516107d49190610bd5565b60405180910390a250505050565b5f600180549050905090565b6002602052805f5260405f205f915090505481565b5f5f9054906101000a900473ffffffffffffffffffffffffffffffffffffffff1681565b60605f5f9054906101000a900473ffffffffffffffffffffffffffffffffffffffff1673ffffffffffffffffffffffffffffffffffffffff163373ffffffffffffffffffffffffffffffffffffffff16146108b7576040517f08c379a00000000000000000000000000000000000000000000000000000000081526004016108ae90610e3c565b60405180910390fd5b5f600180548060200260200160405190810160405280929190818152602001828054801561093757602002820191905f5260205f20905b815f9054906101000a900473ffffffffffffffffffffffffffffffffffffffff1673ffffffffffffffffffffffffffffffffffffffff16815260200190600101908083116108ee575b505050505090505f5f90505b8151811015610b04575f60018261095a9190610dbf565b90505b8251811015610af65760025f84848151811061097c5761097b610f2a565b5b602002602001015173ffffffffffffffffffffffffffffffffffffffff1673ffffffffffffffffffffffffffffffffffffffff1681526020019081526020015f205460025f8584815181106109d4576109d3610f2a565b5b602002602001015173ffffffffffffffffffffffffffffffffffffffff1673ffffffffffffffffffffffffffffffffffffffff1681526020019081526020015f20541115610ae957828181518110610a2f57610a2e610f2a565b5b6020026020010151838381518110610a4a57610a49610f2a565b5b6020026020010151848481518110610a6557610a64610f2a565b5b60200260200101858481518110610a7f57610a7e610f2a565b5b602002602001018273ffffffffffffffffffffffffffffffffffffffff1673ffffffffffffffffffffffffffffffffffffffff168152508273ffffffffffffffffffffffffffffffffffffffff1673ffffffffffffffffffffffffffffffffffffffff1681525050505b808060010191505061095d565b508080600101915050610943565b508091505090565b5f5ffd5b5f819050919050565b610b2281610b10565b8114610b2c575f5ffd5b50565b5f81359050610b3d81610b19565b92915050565b5f60208284031215610b5857610b57610b0c565b5b5f610b6584828501610b2f565b91505092915050565b5f73ffffffffffffffffffffffffffffffffffffffff82169050919050565b5f610b9782610b6e565b9050919050565b610ba781610b8d565b82525050565b5f602082019050610bc05f830184610b9e565b92915050565b610bcf81610b10565b82525050565b5f602082019050610be85f830184610bc6565b92915050565b610bf781610b8d565b8114610c01575f5ffd5b50565b5f81359050610c1281610bee565b92915050565b5f60208284031215610c2d57610c2c610b0c565b5b5f610c3a84828501610c04565b91505092915050565b5f81519050919050565b5f82825260208201905092915050565b5f819050602082019050919050565b610c7581610b8d565b82525050565b5f610c868383610c6c565b60208301905092915050565b5f602082019050919050565b5f610ca882610c43565b610cb28185610c4d565b9350610cbd83610c5d565b805f5b83811015610ced578151610cd48882610c7b565b9750610cdf83610c92565b925050600181019050610cc0565b5085935050505092915050565b5f6020820190508181035f830152610d128184610c9e565b905092915050565b5f82825260208201905092915050565b7f53656e6420736f6d6520455448000000000000000000000000000000000000005f82015250565b5f610d5e600d83610d1a565b9150610d6982610d2a565b602082019050919050565b5f6020820190508181035f830152610d8b81610d52565b9050919050565b7f4e487b71000000000000000000000000000000000000000000000000000000005f52601160045260245ffd5b5f610dc982610b10565b9150610dd483610b10565b9250828201905080821115610dec57610deb610d92565b5b92915050565b7f4e6f7420636f6e7472616374206f776e657200000000000000000000000000005f82015250565b5f610e26601283610d1a565b9150610e3182610df2565b602082019050919050565b5f6020820190508181035f830152610e5381610e1a565b9050919050565b7f4e6f206f776e65727300000000000000000000000000000000000000000000005f82015250565b5f610e8e600983610d1a565b9150610e9982610e5a565b602082019050919050565b5f6020820190508181035f830152610ebb81610e82565b9050919050565b7f4e6f2045544820696e20636f6e747261637400000000000000000000000000005f82015250565b5f610ef6601283610d1a565b9150610f0182610ec2565b602082019050919050565b5f6020820190508181035f830152610f2381610eea565b9050919050565b7f4e487b71000000000000000000000000000000000000000000000000000000005f52603260045260245ffd5b5f81905092915050565b50565b5f610f6f5f83610f57565b9150610f7a82610f61565b5f82019050919050565b5f610f8e82610f64565b9150819050919050565b7f5472616e73666572206661696c656400000000000000000000000000000000005f82015250565b5f610fcc600f83610d1a565b9150610fd782610f98565b602082019050919050565b5f6020820190508181035f830152610ff981610fc0565b905091905056fea2646970667358221220be14274ad812c4b6fc511f961bb66c9770e89cfa9635889c59bcb2e14de5b09664736f6c63430008220033",
					"opcodes": "PUSH1 0x80 PUSH1 0x40 MSTORE CALLVALUE DUP1 ISZERO PUSH1 0xE JUMPI PUSH0 PUSH0 REVERT JUMPDEST POP CALLER PUSH0 PUSH0 PUSH2 0x100 EXP DUP2 SLOAD DUP2 PUSH20 0xFFFFFFFFFFFFFFFFFFFFFFFFFFFFFFFFFFFFFFFF MUL NOT AND SWAP1 DUP4 PUSH20 0xFFFFFFFFFFFFFFFFFFFFFFFFFFFFFFFFFFFFFFFF AND MUL OR SWAP1 SSTORE POP PUSH2 0x1036 DUP1 PUSH2 0x5B PUSH0 CODECOPY PUSH0 RETURN INVALID PUSH1 0x80 PUSH1 0x40 MSTORE PUSH1 0x4 CALLDATASIZE LT PUSH2 0x6F JUMPI PUSH0 CALLDATALOAD PUSH1 0xE0 SHR DUP1 PUSH4 0x243669AD GT PUSH2 0x4D JUMPI DUP1 PUSH4 0x243669AD EQ PUSH2 0xCF JUMPI DUP1 PUSH4 0x27E235E3 EQ PUSH2 0xF9 JUMPI DUP1 PUSH4 0x8DA5CB5B EQ PUSH2 0x135 JUMPI DUP1 PUSH4 0x9F462716 EQ PUSH2 0x15F JUMPI PUSH2 0x6F JUMP JUMPDEST DUP1 PUSH4 0x25E7C27 EQ PUSH2 0x73 JUMPI DUP1 PUSH4 0x40F0AEE EQ PUSH2 0xAF JUMPI DUP1 PUSH4 0x9C49F04 EQ PUSH2 0xB9 JUMPI JUMPDEST PUSH0 PUSH0 REVERT JUMPDEST CALLVALUE DUP1 ISZERO PUSH2 0x7E JUMPI PUSH0 PUSH0 REVERT JUMPDEST POP PUSH2 0x99 PUSH1 0x4 DUP1 CALLDATASIZE SUB DUP2 ADD SWAP1 PUSH2 0x94 SWAP2 SWAP1 PUSH2 0xB43 JUMP JUMPDEST PUSH2 0x189 JUMP JUMPDEST PUSH1 0x40 MLOAD PUSH2 0xA6 SWAP2 SWAP1 PUSH2 0xBAD JUMP JUMPDEST PUSH1 0x40 MLOAD DUP1 SWAP2 SUB SWAP1 RETURN JUMPDEST PUSH2 0xB7 PUSH2 0x1C4 JUMP JUMPDEST STOP JUMPDEST CALLVALUE DUP1 ISZERO PUSH2 0xC4 JUMPI PUSH0 PUSH0 REVERT JUMPDEST POP PUSH2 0xCD PUSH2 0x3F0 JUMP JUMPDEST STOP JUMPDEST CALLVALUE DUP1 ISZERO PUSH2 0xDA JUMPI PUSH0 PUSH0 REVERT JUMPDEST POP PUSH2 0xE3 PUSH2 0x7E2 JUMP JUMPDEST PUSH1 0x40 MLOAD PUSH2 0xF0 SWAP2 SWAP1 PUSH2 0xBD5 JUMP JUMPDEST PUSH1 0x40 MLOAD DUP1 SWAP2 SUB SWAP1 RETURN JUMPDEST CALLVALUE DUP1 ISZERO PUSH2 0x104 JUMPI PUSH0 PUSH0 REVERT JUMPDEST POP PUSH2 0x11F PUSH1 0x4 DUP1 CALLDATASIZE SUB DUP2 ADD SWAP1 PUSH2 0x11A SWAP2 SWAP1 PUSH2 0xC18 JUMP JUMPDEST PUSH2 0x7EE JUMP JUMPDEST PUSH1 0x40 MLOAD PUSH2 0x12C SWAP2 SWAP1 PUSH2 0xBD5 JUMP JUMPDEST PUSH1 0x40 MLOAD DUP1 SWAP2 SUB SWAP1 RETURN JUMPDEST CALLVALUE DUP1 ISZERO PUSH2 0x140 JUMPI PUSH0 PUSH0 REVERT JUMPDEST POP PUSH2 0x149 PUSH2 0x803 JUMP JUMPDEST PUSH1 0x40 MLOAD PUSH2 0x156 SWAP2 SWAP1 PUSH2 0xBAD JUMP JUMPDEST PUSH1 0x40 MLOAD DUP1 SWAP2 SUB SWAP1 RETURN JUMPDEST CALLVALUE DUP1 ISZERO PUSH2 0x16A JUMPI PUSH0 PUSH0 REVERT JUMPDEST POP PUSH2 0x173 PUSH2 0x827 JUMP JUMPDEST PUSH1 0x40 MLOAD PUSH2 0x180 SWAP2 SWAP1 PUSH2 0xCFA JUMP JUMPDEST PUSH1 0x40 MLOAD DUP1 SWAP2 SUB SWAP1 RETURN JUMPDEST PUSH1 0x1 DUP2 DUP2 SLOAD DUP2 LT PUSH2 0x198 JUMPI PUSH0 DUP1 REVERT JUMPDEST SWAP1 PUSH0 MSTORE PUSH1 0x20 PUSH0 KECCAK256 ADD PUSH0 SWAP2 POP SLOAD SWAP1 PUSH2 0x100 EXP SWAP1 DIV PUSH20 0xFFFFFFFFFFFFFFFFFFFFFFFFFFFFFFFFFFFFFFFF AND DUP2 JUMP JUMPDEST PUSH0 CALLVALUE GT PUSH2 0x206 JUMPI PUSH1 0x40 MLOAD PUSH32 0x8C379A000000000000000000000000000000000000000000000000000000000 DUP2 MSTORE PUSH1 0x4 ADD PUSH2 0x1FD SWAP1 PUSH2 0xD74 JUMP JUMPDEST PUSH1 0x40 MLOAD DUP1 SWAP2 SUB SWAP1 REVERT JUMPDEST PUSH1 0x3 PUSH0 CALLER PUSH20 0xFFFFFFFFFFFFFFFFFFFFFFFFFFFFFFFFFFFFFFFF AND PUSH20 0xFFFFFFFFFFFFFFFFFFFFFFFFFFFFFFFFFFFFFFFF AND DUP2 MSTORE PUSH1 0x20 ADD SWAP1 DUP2 MSTORE PUSH1 0x20 ADD PUSH0 KECCAK256 PUSH0 SWAP1 SLOAD SWAP1 PUSH2 0x100 EXP SWAP1 DIV PUSH1 0xFF AND PUSH2 0x34D JUMPI PUSH1 0x1 CALLER SWAP1 DUP1 PUSH1 0x1 DUP2 SLOAD ADD DUP1 DUP3 SSTORE DUP1 SWAP2 POP POP PUSH1 0x1 SWAP1 SUB SWAP1 PUSH0 MSTORE PUSH1 0x20 PUSH0 KECCAK256 ADD PUSH0 SWAP1 SWAP2 SWAP1 SWAP2 SWAP1 SWAP2 PUSH2 0x100 EXP DUP2 SLOAD DUP2 PUSH20 0xFFFFFFFFFFFFFFFFFFFFFFFFFFFFFFFFFFFFFFFF MUL NOT AND SWAP1 DUP4 PUSH20 0xFFFFFFFFFFFFFFFFFFFFFFFFFFFFFFFFFFFFFFFF AND MUL OR SWAP1 SSTORE POP PUSH1 0x1 PUSH1 0x3 PUSH0 CALLER PUSH20 0xFFFFFFFFFFFFFFFFFFFFFFFFFFFFFFFFFFFFFFFF AND PUSH20 0xFFFFFFFFFFFFFFFFFFFFFFFFFFFFFFFFFFFFFFFF AND DUP2 MSTORE PUSH1 0x20 ADD SWAP1 DUP2 MSTORE PUSH1 0x20 ADD PUSH0 KECCAK256 PUSH0 PUSH2 0x100 EXP DUP2 SLOAD DUP2 PUSH1 0xFF MUL NOT AND SWAP1 DUP4 ISZERO ISZERO MUL OR SWAP1 SSTORE POP CALLER PUSH20 0xFFFFFFFFFFFFFFFFFFFFFFFFFFFFFFFFFFFFFFFF AND PUSH32 0x994A936646FE87FFE4F1E469D3D6AA417D6B855598397F323DE5B449F765F0C3 PUSH1 0x40 MLOAD PUSH1 0x40 MLOAD DUP1 SWAP2 SUB SWAP1 LOG2 JUMPDEST CALLVALUE PUSH1 0x2 PUSH0 CALLER PUSH20 0xFFFFFFFFFFFFFFFFFFFFFFFFFFFFFFFFFFFFFFFF AND PUSH20 0xFFFFFFFFFFFFFFFFFFFFFFFFFFFFFFFFFFFFFFFF AND DUP2 MSTORE PUSH1 0x20 ADD SWAP1 DUP2 MSTORE PUSH1 0x20 ADD PUSH0 KECCAK256 PUSH0 DUP3 DUP3 SLOAD PUSH2 0x399 SWAP2 SWAP1 PUSH2 0xDBF JUMP JUMPDEST SWAP3 POP POP DUP2 SWAP1 SSTORE POP CALLER PUSH20 0xFFFFFFFFFFFFFFFFFFFFFFFFFFFFFFFFFFFFFFFF AND PUSH32 0xE1D95DCFBA9D7B8018A7269ED1485C9E65F81D520213216942C2F8A4C6F4F8E7 CALLVALUE PUSH1 0x40 MLOAD PUSH2 0x3E6 SWAP2 SWAP1 PUSH2 0xBD5 JUMP JUMPDEST PUSH1 0x40 MLOAD DUP1 SWAP2 SUB SWAP1 LOG2 JUMP JUMPDEST PUSH0 PUSH0 SWAP1 SLOAD SWAP1 PUSH2 0x100 EXP SWAP1 DIV PUSH20 0xFFFFFFFFFFFFFFFFFFFFFFFFFFFFFFFFFFFFFFFF AND PUSH20 0xFFFFFFFFFFFFFFFFFFFFFFFFFFFFFFFFFFFFFFFF AND CALLER PUSH20 0xFFFFFFFFFFFFFFFFFFFFFFFFFFFFFFFFFFFFFFFF AND EQ PUSH2 0x47E JUMPI PUSH1 0x40 MLOAD PUSH32 0x8C379A000000000000000000000000000000000000000000000000000000000 DUP2 MSTORE PUSH1 0x4 ADD PUSH2 0x475 SWAP1 PUSH2 0xE3C JUMP JUMPDEST PUSH1 0x40 MLOAD DUP1 SWAP2 SUB SWAP1 REVERT JUMPDEST PUSH0 PUSH1 0x1 DUP1 SLOAD SWAP1 POP GT PUSH2 0x4C5 JUMPI PUSH1 0x40 MLOAD PUSH32 0x8C379A000000000000000000000000000000000000000000000000000000000 DUP2 MSTORE PUSH1 0x4 ADD PUSH2 0x4BC SWAP1 PUSH2 0xEA4 JUMP JUMPDEST PUSH1 0x40 MLOAD DUP1 SWAP2 SUB SWAP1 REVERT JUMPDEST PUSH0 SELFBALANCE GT PUSH2 0x507 JUMPI PUSH1 0x40 MLOAD PUSH32 0x8C379A000000000000000000000000000000000000000000000000000000000 DUP2 MSTORE PUSH1 0x4 ADD PUSH2 0x4FE SWAP1 PUSH2 0xF0C JUMP JUMPDEST PUSH1 0x40 MLOAD DUP1 SWAP2 SUB SWAP1 REVERT JUMPDEST PUSH0 PUSH1 0x1 PUSH0 DUP2 SLOAD DUP2 LT PUSH2 0x51C JUMPI PUSH2 0x51B PUSH2 0xF2A JUMP JUMPDEST JUMPDEST SWAP1 PUSH0 MSTORE PUSH1 0x20 PUSH0 KECCAK256 ADD PUSH0 SWAP1 SLOAD SWAP1 PUSH2 0x100 EXP SWAP1 DIV PUSH20 0xFFFFFFFFFFFFFFFFFFFFFFFFFFFFFFFFFFFFFFFF AND SWAP1 POP PUSH0 PUSH1 0x2 PUSH0 DUP4 PUSH20 0xFFFFFFFFFFFFFFFFFFFFFFFFFFFFFFFFFFFFFFFF AND PUSH20 0xFFFFFFFFFFFFFFFFFFFFFFFFFFFFFFFFFFFFFFFF AND DUP2 MSTORE PUSH1 0x20 ADD SWAP1 DUP2 MSTORE PUSH1 0x20 ADD PUSH0 KECCAK256 SLOAD SWAP1 POP PUSH0 PUSH1 0x1 SWAP1 POP JUMPDEST PUSH1 0x1 DUP1 SLOAD SWAP1 POP DUP2 LT ISZERO PUSH2 0x6E1 JUMPI DUP2 PUSH1 0x2 PUSH0 PUSH1 0x1 DUP5 DUP2 SLOAD DUP2 LT PUSH2 0x5B2 JUMPI PUSH2 0x5B1 PUSH2 0xF2A JUMP JUMPDEST JUMPDEST SWAP1 PUSH0 MSTORE PUSH1 0x20 PUSH0 KECCAK256 ADD PUSH0 SWAP1 SLOAD SWAP1 PUSH2 0x100 EXP SWAP1 DIV PUSH20 0xFFFFFFFFFFFFFFFFFFFFFFFFFFFFFFFFFFFFFFFF AND PUSH20 0xFFFFFFFFFFFFFFFFFFFFFFFFFFFFFFFFFFFFFFFF AND PUSH20 0xFFFFFFFFFFFFFFFFFFFFFFFFFFFFFFFFFFFFFFFF AND DUP2 MSTORE PUSH1 0x20 ADD SWAP1 DUP2 MSTORE PUSH1 0x20 ADD PUSH0 KECCAK256 SLOAD LT ISZERO PUSH2 0x6D4 JUMPI PUSH1 0x2 PUSH0 PUSH1 0x1 DUP4 DUP2 SLOAD DUP2 LT PUSH2 0x631 JUMPI PUSH2 0x630 PUSH2 0xF2A JUMP JUMPDEST JUMPDEST SWAP1 PUSH0 MSTORE PUSH1 0x20 PUSH0 KECCAK256 ADD PUSH0 SWAP1 SLOAD SWAP1 PUSH2 0x100 EXP SWAP1 DIV PUSH20 0xFFFFFFFFFFFFFFFFFFFFFFFFFFFFFFFFFFFFFFFF AND PUSH20 0xFFFFFFFFFFFFFFFFFFFFFFFFFFFFFFFFFFFFFFFF AND PUSH20 0xFFFFFFFFFFFFFFFFFFFFFFFFFFFFFFFFFFFFFFFF AND DUP2 MSTORE PUSH1 0x20 ADD SWAP1 DUP2 MSTORE PUSH1 0x20 ADD PUSH0 KECCAK256 SLOAD SWAP2 POP PUSH1 0x1 DUP2 DUP2 SLOAD DUP2 LT PUSH2 0x6A9 JUMPI PUSH2 0x6A8 PUSH2 0xF2A JUMP JUMPDEST JUMPDEST SWAP1 PUSH0 MSTORE PUSH1 0x20 PUSH0 KECCAK256 ADD PUSH0 SWAP1 SLOAD SWAP1 PUSH2 0x100 EXP SWAP1 DIV PUSH20 0xFFFFFFFFFFFFFFFFFFFFFFFFFFFFFFFFFFFFFFFF AND SWAP3 POP JUMPDEST DUP1 DUP1 PUSH1 0x1 ADD SWAP2 POP POP PUSH2 0x58D JUMP JUMPDEST POP PUSH0 SELFBALANCE SWAP1 POP PUSH0 DUP4 PUSH20 0xFFFFFFFFFFFFFFFFFFFFFFFFFFFFFFFFFFFFFFFF AND DUP3 PUSH1 0x40 MLOAD PUSH2 0x70B SWAP1 PUSH2 0xF84 JUMP JUMPDEST PUSH0 PUSH1 0x40 MLOAD DUP1 DUP4 SUB DUP2 DUP6 DUP8 GAS CALL SWAP3 POP POP POP RETURNDATASIZE DUP1 PUSH0 DUP2 EQ PUSH2 0x745 JUMPI PUSH1 0x40 MLOAD SWAP2 POP PUSH1 0x1F NOT PUSH1 0x3F RETURNDATASIZE ADD AND DUP3 ADD PUSH1 0x40 MSTORE RETURNDATASIZE DUP3 MSTORE RETURNDATASIZE PUSH0 PUSH1 0x20 DUP5 ADD RETURNDATACOPY PUSH2 0x74A JUMP JUMPDEST PUSH1 0x60 SWAP2 POP JUMPDEST POP POP SWAP1 POP DUP1 PUSH2 0x78E JUMPI PUSH1 0x40 MLOAD PUSH32 0x8C379A000000000000000000000000000000000000000000000000000000000 DUP2 MSTORE PUSH1 0x4 ADD PUSH2 0x785 SWAP1 PUSH2 0xFE2 JUMP JUMPDEST PUSH1 0x40 MLOAD DUP1 SWAP2 SUB SWAP1 REVERT JUMPDEST DUP4 PUSH20 0xFFFFFFFFFFFFFFFFFFFFFFFFFFFFFFFFFFFFFFFF AND PUSH32 0x351EB0CECECA94D1F6D13A1D6E260AE7DA1515AE47FCC4014537C120670A6E0C DUP4 PUSH1 0x40 MLOAD PUSH2 0x7D4 SWAP2 SWAP1 PUSH2 0xBD5 JUMP JUMPDEST PUSH1 0x40 MLOAD DUP1 SWAP2 SUB SWAP1 LOG2 POP POP POP POP JUMP JUMPDEST PUSH0 PUSH1 0x1 DUP1 SLOAD SWAP1 POP SWAP1 POP SWAP1 JUMP JUMPDEST PUSH1 0x2 PUSH1 0x20 MSTORE DUP1 PUSH0 MSTORE PUSH1 0x40 PUSH0 KECCAK256 PUSH0 SWAP2 POP SWAP1 POP SLOAD DUP2 JUMP JUMPDEST PUSH0 PUSH0 SWAP1 SLOAD SWAP1 PUSH2 0x100 EXP SWAP1 DIV PUSH20 0xFFFFFFFFFFFFFFFFFFFFFFFFFFFFFFFFFFFFFFFF AND DUP2 JUMP JUMPDEST PUSH1 0x60 PUSH0 PUSH0 SWAP1 SLOAD SWAP1 PUSH2 0x100 EXP SWAP1 DIV PUSH20 0xFFFFFFFFFFFFFFFFFFFFFFFFFFFFFFFFFFFFFFFF AND PUSH20 0xFFFFFFFFFFFFFFFFFFFFFFFFFFFFFFFFFFFFFFFF AND CALLER PUSH20 0xFFFFFFFFFFFFFFFFFFFFFFFFFFFFFFFFFFFFFFFF AND EQ PUSH2 0x8B7 JUMPI PUSH1 0x40 MLOAD PUSH32 0x8C379A000000000000000000000000000000000000000000000000000000000 DUP2 MSTORE PUSH1 0x4 ADD PUSH2 0x8AE SWAP1 PUSH2 0xE3C JUMP JUMPDEST PUSH1 0x40 MLOAD DUP1 SWAP2 SUB SWAP1 REVERT JUMPDEST PUSH0 PUSH1 0x1 DUP1 SLOAD DUP1 PUSH1 0x20 MUL PUSH1 0x20 ADD PUSH1 0x40 MLOAD SWAP1 DUP2 ADD PUSH1 0x40 MSTORE DUP1 SWAP3 SWAP2 SWAP1 DUP2 DUP2 MSTORE PUSH1 0x20 ADD DUP3 DUP1 SLOAD DUP1 ISZERO PUSH2 0x937 JUMPI PUSH1 0x20 MUL DUP3 ADD SWAP2 SWAP1 PUSH0 MSTORE PUSH1 0x20 PUSH0 KECCAK256 SWAP1 JUMPDEST DUP2 PUSH0 SWAP1 SLOAD SWAP1 PUSH2 0x100 EXP SWAP1 DIV PUSH20 0xFFFFFFFFFFFFFFFFFFFFFFFFFFFFFFFFFFFFFFFF AND PUSH20 0xFFFFFFFFFFFFFFFFFFFFFFFFFFFFFFFFFFFFFFFF AND DUP2 MSTORE PUSH1 0x20 ADD SWAP1 PUSH1 0x1 ADD SWAP1 DUP1 DUP4 GT PUSH2 0x8EE JUMPI JUMPDEST POP POP POP POP POP SWAP1 POP PUSH0 PUSH0 SWAP1 POP JUMPDEST DUP2 MLOAD DUP2 LT ISZERO PUSH2 0xB04 JUMPI PUSH0 PUSH1 0x1 DUP3 PUSH2 0x95A SWAP2 SWAP1 PUSH2 0xDBF JUMP JUMPDEST SWAP1 POP JUMPDEST DUP3 MLOAD DUP2 LT ISZERO PUSH2 0xAF6 JUMPI PUSH1 0x2 PUSH0 DUP5 DUP5 DUP2 MLOAD DUP2 LT PUSH2 0x97C JUMPI PUSH2 0x97B PUSH2 0xF2A JUMP JUMPDEST JUMPDEST PUSH1 0x20 MUL PUSH1 0x20 ADD ADD MLOAD PUSH20 0xFFFFFFFFFFFFFFFFFFFFFFFFFFFFFFFFFFFFFFFF AND PUSH20 0xFFFFFFFFFFFFFFFFFFFFFFFFFFFFFFFFFFFFFFFF AND DUP2 MSTORE PUSH1 0x20 ADD SWAP1 DUP2 MSTORE PUSH1 0x20 ADD PUSH0 KECCAK256 SLOAD PUSH1 0x2 PUSH0 DUP6 DUP5 DUP2 MLOAD DUP2 LT PUSH2 0x9D4 JUMPI PUSH2 0x9D3 PUSH2 0xF2A JUMP JUMPDEST JUMPDEST PUSH1 0x20 MUL PUSH1 0x20 ADD ADD MLOAD PUSH20 0xFFFFFFFFFFFFFFFFFFFFFFFFFFFFFFFFFFFFFFFF AND PUSH20 0xFFFFFFFFFFFFFFFFFFFFFFFFFFFFFFFFFFFFFFFF AND DUP2 MSTORE PUSH1 0x20 ADD SWAP1 DUP2 MSTORE PUSH1 0x20 ADD PUSH0 KECCAK256 SLOAD GT ISZERO PUSH2 0xAE9 JUMPI DUP3 DUP2 DUP2 MLOAD DUP2 LT PUSH2 0xA2F JUMPI PUSH2 0xA2E PUSH2 0xF2A JUMP JUMPDEST JUMPDEST PUSH1 0x20 MUL PUSH1 0x20 ADD ADD MLOAD DUP4 DUP4 DUP2 MLOAD DUP2 LT PUSH2 0xA4A JUMPI PUSH2 0xA49 PUSH2 0xF2A JUMP JUMPDEST JUMPDEST PUSH1 0x20 MUL PUSH1 0x20 ADD ADD MLOAD DUP5 DUP5 DUP2 MLOAD DUP2 LT PUSH2 0xA65 JUMPI PUSH2 0xA64 PUSH2 0xF2A JUMP JUMPDEST JUMPDEST PUSH1 0x20 MUL PUSH1 0x20 ADD ADD DUP6 DUP5 DUP2 MLOAD DUP2 LT PUSH2 0xA7F JUMPI PUSH2 0xA7E PUSH2 0xF2A JUMP JUMPDEST JUMPDEST PUSH1 0x20 MUL PUSH1 0x20 ADD ADD DUP3 PUSH20 0xFFFFFFFFFFFFFFFFFFFFFFFFFFFFFFFFFFFFFFFF AND PUSH20 0xFFFFFFFFFFFFFFFFFFFFFFFFFFFFFFFFFFFFFFFF AND DUP2 MSTORE POP DUP3 PUSH20 0xFFFFFFFFFFFFFFFFFFFFFFFFFFFFFFFFFFFFFFFF AND PUSH20 0xFFFFFFFFFFFFFFFFFFFFFFFFFFFFFFFFFFFFFFFF AND DUP2 MSTORE POP POP POP JUMPDEST DUP1 DUP1 PUSH1 0x1 ADD SWAP2 POP POP PUSH2 0x95D JUMP JUMPDEST POP DUP1 DUP1 PUSH1 0x1 ADD SWAP2 POP POP PUSH2 0x943 JUMP JUMPDEST POP DUP1 SWAP2 POP POP SWAP1 JUMP JUMPDEST PUSH0 PUSH0 REVERT JUMPDEST PUSH0 DUP2 SWAP1 POP SWAP2 SWAP1 POP JUMP JUMPDEST PUSH2 0xB22 DUP2 PUSH2 0xB10 JUMP JUMPDEST DUP2 EQ PUSH2 0xB2C JUMPI PUSH0 PUSH0 REVERT JUMPDEST POP JUMP JUMPDEST PUSH0 DUP2 CALLDATALOAD SWAP1 POP PUSH2 0xB3D DUP2 PUSH2 0xB19 JUMP JUMPDEST SWAP3 SWAP2 POP POP JUMP JUMPDEST PUSH0 PUSH1 0x20 DUP3 DUP5 SUB SLT ISZERO PUSH2 0xB58 JUMPI PUSH2 0xB57 PUSH2 0xB0C JUMP JUMPDEST JUMPDEST PUSH0 PUSH2 0xB65 DUP5 DUP3 DUP6 ADD PUSH2 0xB2F JUMP JUMPDEST SWAP2 POP POP SWAP3 SWAP2 POP POP JUMP JUMPDEST PUSH0 PUSH20 0xFFFFFFFFFFFFFFFFFFFFFFFFFFFFFFFFFFFFFFFF DUP3 AND SWAP1 POP SWAP2 SWAP1 POP JUMP JUMPDEST PUSH0 PUSH2 0xB97 DUP3 PUSH2 0xB6E JUMP JUMPDEST SWAP1 POP SWAP2 SWAP1 POP JUMP JUMPDEST PUSH2 0xBA7 DUP2 PUSH2 0xB8D JUMP JUMPDEST DUP3 MSTORE POP POP JUMP JUMPDEST PUSH0 PUSH1 0x20 DUP3 ADD SWAP1 POP PUSH2 0xBC0 PUSH0 DUP4 ADD DUP5 PUSH2 0xB9E JUMP JUMPDEST SWAP3 SWAP2 POP POP JUMP JUMPDEST PUSH2 0xBCF DUP2 PUSH2 0xB10 JUMP JUMPDEST DUP3 MSTORE POP POP JUMP JUMPDEST PUSH0 PUSH1 0x20 DUP3 ADD SWAP1 POP PUSH2 0xBE8 PUSH0 DUP4 ADD DUP5 PUSH2 0xBC6 JUMP JUMPDEST SWAP3 SWAP2 POP POP JUMP JUMPDEST PUSH2 0xBF7 DUP2 PUSH2 0xB8D JUMP JUMPDEST DUP2 EQ PUSH2 0xC01 JUMPI PUSH0 PUSH0 REVERT JUMPDEST POP JUMP JUMPDEST PUSH0 DUP2 CALLDATALOAD SWAP1 POP PUSH2 0xC12 DUP2 PUSH2 0xBEE JUMP JUMPDEST SWAP3 SWAP2 POP POP JUMP JUMPDEST PUSH0 PUSH1 0x20 DUP3 DUP5 SUB SLT ISZERO PUSH2 0xC2D JUMPI PUSH2 0xC2C PUSH2 0xB0C JUMP JUMPDEST JUMPDEST PUSH0 PUSH2 0xC3A DUP5 DUP3 DUP6 ADD PUSH2 0xC04 JUMP JUMPDEST SWAP2 POP POP SWAP3 SWAP2 POP POP JUMP JUMPDEST PUSH0 DUP2 MLOAD SWAP1 POP SWAP2 SWAP1 POP JUMP JUMPDEST PUSH0 DUP3 DUP3 MSTORE PUSH1 0x20 DUP3 ADD SWAP1 POP SWAP3 SWAP2 POP POP JUMP JUMPDEST PUSH0 DUP2 SWAP1 POP PUSH1 0x20 DUP3 ADD SWAP1 POP SWAP2 SWAP1 POP JUMP JUMPDEST PUSH2 0xC75 DUP2 PUSH2 0xB8D JUMP JUMPDEST DUP3 MSTORE POP POP JUMP JUMPDEST PUSH0 PUSH2 0xC86 DUP4 DUP4 PUSH2 0xC6C JUMP JUMPDEST PUSH1 0x20 DUP4 ADD SWAP1 POP SWAP3 SWAP2 POP POP JUMP JUMPDEST PUSH0 PUSH1 0x20 DUP3 ADD SWAP1 POP SWAP2 SWAP1 POP JUMP JUMPDEST PUSH0 PUSH2 0xCA8 DUP3 PUSH2 0xC43 JUMP JUMPDEST PUSH2 0xCB2 DUP2 DUP6 PUSH2 0xC4D JUMP JUMPDEST SWAP4 POP PUSH2 0xCBD DUP4 PUSH2 0xC5D JUMP JUMPDEST DUP1 PUSH0 JUMPDEST DUP4 DUP2 LT ISZERO PUSH2 0xCED JUMPI DUP2 MLOAD PUSH2 0xCD4 DUP9 DUP3 PUSH2 0xC7B JUMP JUMPDEST SWAP8 POP PUSH2 0xCDF DUP4 PUSH2 0xC92 JUMP JUMPDEST SWAP3 POP POP PUSH1 0x1 DUP2 ADD SWAP1 POP PUSH2 0xCC0 JUMP JUMPDEST POP DUP6 SWAP4 POP POP POP POP SWAP3 SWAP2 POP POP JUMP JUMPDEST PUSH0 PUSH1 0x20 DUP3 ADD SWAP1 POP DUP2 DUP2 SUB PUSH0 DUP4 ADD MSTORE PUSH2 0xD12 DUP2 DUP5 PUSH2 0xC9E JUMP JUMPDEST SWAP1 POP SWAP3 SWAP2 POP POP JUMP JUMPDEST PUSH0 DUP3 DUP3 MSTORE PUSH1 0x20 DUP3 ADD SWAP1 POP SWAP3 SWAP2 POP POP JUMP JUMPDEST PUSH32 0x53656E6420736F6D652045544800000000000000000000000000000000000000 PUSH0 DUP3 ADD MSTORE POP JUMP JUMPDEST PUSH0 PUSH2 0xD5E PUSH1 0xD DUP4 PUSH2 0xD1A JUMP JUMPDEST SWAP2 POP PUSH2 0xD69 DUP3 PUSH2 0xD2A JUMP JUMPDEST PUSH1 0x20 DUP3 ADD SWAP1 POP SWAP2 SWAP1 POP JUMP JUMPDEST PUSH0 PUSH1 0x20 DUP3 ADD SWAP1 POP DUP2 DUP2 SUB PUSH0 DUP4 ADD MSTORE PUSH2 0xD8B DUP2 PUSH2 0xD52 JUMP JUMPDEST SWAP1 POP SWAP2 SWAP1 POP JUMP JUMPDEST PUSH32 0x4E487B7100000000000000000000000000000000000000000000000000000000 PUSH0 MSTORE PUSH1 0x11 PUSH1 0x4 MSTORE PUSH1 0x24 PUSH0 REVERT JUMPDEST PUSH0 PUSH2 0xDC9 DUP3 PUSH2 0xB10 JUMP JUMPDEST SWAP2 POP PUSH2 0xDD4 DUP4 PUSH2 0xB10 JUMP JUMPDEST SWAP3 POP DUP3 DUP3 ADD SWAP1 POP DUP1 DUP3 GT ISZERO PUSH2 0xDEC JUMPI PUSH2 0xDEB PUSH2 0xD92 JUMP JUMPDEST JUMPDEST SWAP3 SWAP2 POP POP JUMP JUMPDEST PUSH32 0x4E6F7420636F6E7472616374206F776E65720000000000000000000000000000 PUSH0 DUP3 ADD MSTORE POP JUMP JUMPDEST PUSH0 PUSH2 0xE26 PUSH1 0x12 DUP4 PUSH2 0xD1A JUMP JUMPDEST SWAP2 POP PUSH2 0xE31 DUP3 PUSH2 0xDF2 JUMP JUMPDEST PUSH1 0x20 DUP3 ADD SWAP1 POP SWAP2 SWAP1 POP JUMP JUMPDEST PUSH0 PUSH1 0x20 DUP3 ADD SWAP1 POP DUP2 DUP2 SUB PUSH0 DUP4 ADD MSTORE PUSH2 0xE53 DUP2 PUSH2 0xE1A JUMP JUMPDEST SWAP1 POP SWAP2 SWAP1 POP JUMP JUMPDEST PUSH32 0x4E6F206F776E6572730000000000000000000000000000000000000000000000 PUSH0 DUP3 ADD MSTORE POP JUMP JUMPDEST PUSH0 PUSH2 0xE8E PUSH1 0x9 DUP4 PUSH2 0xD1A JUMP JUMPDEST SWAP2 POP PUSH2 0xE99 DUP3 PUSH2 0xE5A JUMP JUMPDEST PUSH1 0x20 DUP3 ADD SWAP1 POP SWAP2 SWAP1 POP JUMP JUMPDEST PUSH0 PUSH1 0x20 DUP3 ADD SWAP1 POP DUP2 DUP2 SUB PUSH0 DUP4 ADD MSTORE PUSH2 0xEBB DUP2 PUSH2 0xE82 JUMP JUMPDEST SWAP1 POP SWAP2 SWAP1 POP JUMP JUMPDEST PUSH32 0x4E6F2045544820696E20636F6E74726163740000000000000000000000000000 PUSH0 DUP3 ADD MSTORE POP JUMP JUMPDEST PUSH0 PUSH2 0xEF6 PUSH1 0x12 DUP4 PUSH2 0xD1A JUMP JUMPDEST SWAP2 POP PUSH2 0xF01 DUP3 PUSH2 0xEC2 JUMP JUMPDEST PUSH1 0x20 DUP3 ADD SWAP1 POP SWAP2 SWAP1 POP JUMP JUMPDEST PUSH0 PUSH1 0x20 DUP3 ADD SWAP1 POP DUP2 DUP2 SUB PUSH0 DUP4 ADD MSTORE PUSH2 0xF23 DUP2 PUSH2 0xEEA JUMP JUMPDEST SWAP1 POP SWAP2 SWAP1 POP JUMP JUMPDEST PUSH32 0x4E487B7100000000000000000000000000000000000000000000000000000000 PUSH0 MSTORE PUSH1 0x32 PUSH1 0x4 MSTORE PUSH1 0x24 PUSH0 REVERT JUMPDEST PUSH0 DUP2 SWAP1 POP SWAP3 SWAP2 POP POP JUMP JUMPDEST POP JUMP JUMPDEST PUSH0 PUSH2 0xF6F PUSH0 DUP4 PUSH2 0xF57 JUMP JUMPDEST SWAP2 POP PUSH2 0xF7A DUP3 PUSH2 0xF61 JUMP JUMPDEST PUSH0 DUP3 ADD SWAP1 POP SWAP2 SWAP1 POP JUMP JUMPDEST PUSH0 PUSH2 0xF8E DUP3 PUSH2 0xF64 JUMP JUMPDEST SWAP2 POP DUP2 SWAP1 POP SWAP2 SWAP1 POP JUMP JUMPDEST PUSH32 0x5472616E73666572206661696C65640000000000000000000000000000000000 PUSH0 DUP3 ADD MSTORE POP JUMP JUMPDEST PUSH0 PUSH2 0xFCC PUSH1 0xF DUP4 PUSH2 0xD1A JUMP JUMPDEST SWAP2 POP PUSH2 0xFD7 DUP3 PUSH2 0xF98 JUMP JUMPDEST PUSH1 0x20 DUP3 ADD SWAP1 POP SWAP2 SWAP1 POP JUMP JUMPDEST PUSH0 PUSH1 0x20 DUP3 ADD SWAP1 POP DUP2 DUP2 SUB PUSH0 DUP4 ADD MSTORE PUSH2 0xFF9 DUP2 PUSH2 0xFC0 JUMP JUMPDEST SWAP1 POP SWAP2 SWAP1 POP JUMP INVALID LOG2 PUSH5 0x6970667358 0x22 SLT KECCAK256 0xBE EQ 0x27 BLOBBASEFEE 0xD8 SLT 0xC4 0xB6 0xFC MLOAD 0x1F SWAP7 SHL 0xB6 PUSH13 0x9770E89CFA9635889C59BCB2E1 0x4D JUMPF 0xB096 PUSH5 0x736F6C6343 STOP ADDMOD 0x22 STOP CALLER "
				},
				"gasEstimates": {
					"creation": {
						"codeDepositCost": "830000",
						"executionCost": "25126",
						"totalCost": "855126"
					},
					"external": {
						"addValue()": "infinite",
						"balances(address)": "2824",
						"getSortedOwners()": "infinite",
						"owner()": "2551",
						"owners(uint256)": "4945",
						"rewardLowestBalanceOwner()": "infinite",
						"totalOwners()": "2440"
					}
				},
				"methodIdentifiers": {
					"addValue()": "040f0aee",
					"balances(address)": "27e235e3",
					"getSortedOwners()": "9f462716",
					"owner()": "8da5cb5b",
					"owners(uint256)": "025e7c27",
					"rewardLowestBalanceOwner()": "09c49f04",
					"totalOwners()": "243669ad"
				}
			},
			"storageLayout": {
				"storage": [
					{
						"astId": 3,
						"contract": "balance_sort.sol:BalanceRanking",
						"label": "owner",
						"offset": 0,
						"slot": "0",
						"type": "t_address"
					},
					{
						"astId": 6,
						"contract": "balance_sort.sol:BalanceRanking",
						"label": "owners",
						"offset": 0,
						"slot": "1",
						"type": "t_array(t_address)dyn_storage"
					},
					{
						"astId": 10,
						"contract": "balance_sort.sol:BalanceRanking",
						"label": "balances",
						"offset": 0,
						"slot": "2",
						"type": "t_mapping(t_address,t_uint256)"
					},
					{
						"astId": 14,
						"contract": "balance_sort.sol:BalanceRanking",
						"label": "isOwner",
						"offset": 0,
						"slot": "3",
						"type": "t_mapping(t_address,t_bool)"
					}
				],
				"types": {
					"t_address": {
						"encoding": "inplace",
						"label": "address",
						"numberOfBytes": "20"
					},
					"t_array(t_address)dyn_storage": {
						"base": "t_address",
						"encoding": "dynamic_array",
						"label": "address[]",
						"numberOfBytes": "32"
					},
					"t_bool": {
						"encoding": "inplace",
						"label": "bool",
						"numberOfBytes": "1"
					},
					"t_mapping(t_address,t_bool)": {
						"encoding": "mapping",
						"key": "t_address",
						"label": "mapping(address => bool)",
						"numberOfBytes": "32",
						"value": "t_bool"
					},
					"t_mapping(t_address,t_uint256)": {
						"encoding": "mapping",
						"key": "t_address",
						"label": "mapping(address => uint256)",
						"numberOfBytes": "32",
						"value": "t_uint256"
					},
					"t_uint256": {
						"encoding": "inplace",
						"label": "uint256",
						"numberOfBytes": "32"
					}
				}
			},
			"userdoc": {
				"kind": "user",
				"methods": {},
				"version": 1
			}
		}
	}
}