{
	"twitter.sol": {
		"Twitter": {
			"abi": [
				{
					"inputs": [],
					"stateMutability": "nonpayable",
					"type": "constructor"
				},
				{
					"inputs": [],
					"name": "MAX_TWEET_LENGTH",
					"outputs": [
						{
							"internalType": "uint16",
							"name": "",
							"type": "uint16"
						}
					],
					"stateMutability": "view",
					"type": "function"
				},
				{
					"inputs": [
						{
							"internalType": "uint16",
							"name": "newTweetLength",
							"type": "uint16"
						}
					],
					"name": "changeTweetLength",
					"outputs": [],
					"stateMutability": "nonpayable",
					"type": "function"
				},
				{
					"inputs": [
						{
							"internalType": "string",
							"name": "_tweet",
							"type": "string"
						}
					],
					"name": "createTweet",
					"outputs": [],
					"stateMutability": "nonpayable",
					"type": "function"
				},
				{
					"inputs": [
						{
							"internalType": "address",
							"name": "_owner",
							"type": "address"
						}
					],
					"name": "getAllTweets",
					"outputs": [
						{
							"components": [
								{
									"internalType": "address",
									"name": "author",
									"type": "address"
								},
								{
									"internalType": "string",
									"name": "content",
									"type": "string"
								},
								{
									"internalType": "uint256",
									"name": "timestamp",
									"type": "uint256"
								},
								{
									"internalType": "uint256",
									"name": "likes",
									"type": "uint256"
								}
							],
							"internalType": "struct Twitter.Tweet[]",
							"name": "",
							"type": "tuple[]"
						}
					],
					"stateMutability": "view",
					"type": "function"
				},
				{
					"inputs": [
						{
							"internalType": "uint256",
							"name": "_i",
							"type": "uint256"
						}
					],
					"name": "getTweet",
					"outputs": [
						{
							"components": [
								{
									"internalType": "address",
									"name": "author",
									"type": "address"
								},
								{
									"internalType": "string",
									"name": "content",
									"type": "string"
								},
								{
									"internalType": "uint256",
									"name": "timestamp",
									"type": "uint256"
								},
								{
									"internalType": "uint256",
									"name": "likes",
									"type": "uint256"
								}
							],
							"internalType": "struct Twitter.Tweet",
							"name": "",
							"type": "tuple"
						}
					],
					"stateMutability": "view",
					"type": "function"
				},
				{
					"inputs": [],
					"name": "owner",
					"outputs": [
						{
							"internalType": "address",
							"name": "",
							"type": "address"
						}
					],
					"stateMutability": "view",
					"type": "function"
				},
				{
					"inputs": [
						{
							"internalType": "address",
							"name": "",
							"type": "address"
						},
						{
							"internalType": "uint256",
							"name": "",
							"type": "uint256"
						}
					],
					"name": "tweets",
					"outputs": [
						{
							"internalType": "address",
							"name": "author",
							"type": "address"
						},
						{
							"internalType": "string",
							"name": "content",
							"type": "string"
						},
						{
							"internalType": "uint256",
							"name": "timestamp",
							"type": "uint256"
						},
						{
							"internalType": "uint256",
							"name": "likes",
							"type": "uint256"
						}
					],
					"stateMutability": "view",
					"type": "function"
				}
			],
			"devdoc": {
				"kind": "dev",
				"methods": {},
				"version": 1
			},
			"evm": {
				"assembly": "    /* \"twitter.sol\":58:1327  contract Twitter {\r... */\n  mstore(0x40, 0x80)\n    /* \"twitter.sol\":117:120  280 */\n  0x0118\n    /* \"twitter.sol\":84:120  uint16 public MAX_TWEET_LENGTH = 280 */\n  0x00\n  dup1\n  0x0100\n  exp\n  dup2\n  sload\n  dup2\n  0xffff\n  mul\n  not\n  and\n  swap1\n  dup4\n  0xffff\n  and\n  mul\n  or\n  swap1\n  sstore\n  pop\n    /* \"twitter.sol\":409:460  constructor() {\r... */\n  callvalue\n  dup1\n  iszero\n  tag_1\n  jumpi\n  0x00\n  dup1\n  revert\ntag_1:\n  pop\n    /* \"twitter.sol\":442:452  msg.sender */\n  caller\n    /* \"twitter.sol\":434:439  owner */\n  0x02\n  0x00\n    /* \"twitter.sol\":434:452  owner = msg.sender */\n  0x0100\n  exp\n  dup2\n  sload\n  dup2\n  0xffffffffffffffffffffffffffffffffffffffff\n  mul\n  not\n  and\n  swap1\n  dup4\n  0xffffffffffffffffffffffffffffffffffffffff\n  and\n  mul\n  or\n  swap1\n  sstore\n  pop\n    /* \"twitter.sol\":58:1327  contract Twitter {\r... */\n  dataSize(sub_0)\n  dup1\n  dataOffset(sub_0)\n  0x00\n  codecopy\n  0x00\n  return\nstop\n\nsub_0: assembly {\n        /* \"twitter.sol\":58:1327  contract Twitter {\r... */\n      mstore(0x40, 0x80)\n      callvalue\n      dup1\n      iszero\n      tag_1\n      jumpi\n      0x00\n      dup1\n      revert\n    tag_1:\n      pop\n      jumpi(tag_2, lt(calldatasize, 0x04))\n      shr(0xe0, calldataload(0x00))\n      dup1\n      0x6eb10797\n      gt\n      tag_10\n      jumpi\n      dup1\n      0x6eb10797\n      eq\n      tag_6\n      jumpi\n      dup1\n      0x7c9cd2bc\n      eq\n      tag_7\n      jumpi\n      dup1\n      0x8da5cb5b\n      eq\n      tag_8\n      jumpi\n      dup1\n      0xc3ad5ecb\n      eq\n      tag_9\n      jumpi\n      jump(tag_2)\n    tag_10:\n      dup1\n      0x05a1b4a9\n      eq\n      tag_3\n      jumpi\n      dup1\n      0x12e7ee1c\n      eq\n      tag_4\n      jumpi\n      dup1\n      0x58bfa4ab\n      eq\n      tag_5\n      jumpi\n    tag_2:\n      0x00\n      dup1\n      revert\n        /* \"twitter.sol\":331:373  mapping(address => Tweet[] ) public tweets */\n    tag_3:\n      tag_11\n      0x04\n      dup1\n      calldatasize\n      sub\n      dup2\n      add\n      swap1\n      tag_12\n      swap2\n      swap1\n      tag_13\n      jump\t// in\n    tag_12:\n      tag_14\n      jump\t// in\n    tag_11:\n      mload(0x40)\n      tag_15\n      swap5\n      swap4\n      swap3\n      swap2\n      swap1\n      tag_16\n      jump\t// in\n    tag_15:\n      mload(0x40)\n      dup1\n      swap2\n      sub\n      swap1\n      return\n        /* \"twitter.sol\":1209:1324  function getAllTweets(address _owner) public view returns (Tweet[] memory ){\r... */\n    tag_4:\n      tag_17\n      0x04\n      dup1\n      calldatasize\n      sub\n      dup2\n      add\n      swap1\n      tag_18\n      swap2\n      swap1\n      tag_19\n      jump\t// in\n    tag_18:\n      tag_20\n      jump\t// in\n    tag_17:\n      mload(0x40)\n      tag_21\n      swap2\n      swap1\n      tag_22\n      jump\t// in\n    tag_21:\n      mload(0x40)\n      dup1\n      swap2\n      sub\n      swap1\n      return\n        /* \"twitter.sol\":582:701  function changeTweetLength(uint16 newTweetLength) public onlyOwner {\r... */\n    tag_5:\n      tag_23\n      0x04\n      dup1\n      calldatasize\n      sub\n      dup2\n      add\n      swap1\n      tag_24\n      swap2\n      swap1\n      tag_25\n      jump\t// in\n    tag_24:\n      tag_26\n      jump\t// in\n    tag_23:\n      stop\n        /* \"twitter.sol\":84:120  uint16 public MAX_TWEET_LENGTH = 280 */\n    tag_6:\n      tag_27\n      tag_28\n      jump\t// in\n    tag_27:\n      mload(0x40)\n      tag_29\n      swap2\n      swap1\n      tag_30\n      jump\t// in\n    tag_29:\n      mload(0x40)\n      dup1\n      swap2\n      sub\n      swap1\n      return\n        /* \"twitter.sol\":709:1082  function createTweet(string memory _tweet) public {\r... */\n    tag_7:\n      tag_31\n      0x04\n      dup1\n      calldatasize\n      sub\n      dup2\n      add\n      swap1\n      tag_32\n      swap2\n      swap1\n      tag_33\n      jump\t// in\n    tag_32:\n      tag_34\n      jump\t// in\n    tag_31:\n      stop\n        /* \"twitter.sol\":380:400  address public owner */\n    tag_8:\n      tag_35\n      tag_36\n      jump\t// in\n    tag_35:\n      mload(0x40)\n      tag_37\n      swap2\n      swap1\n      tag_38\n      jump\t// in\n    tag_37:\n      mload(0x40)\n      dup1\n      swap2\n      sub\n      swap1\n      return\n        /* \"twitter.sol\":1090:1201  function getTweet( uint _i) public view returns (Tweet memory) {\r... */\n    tag_9:\n      tag_39\n      0x04\n      dup1\n      calldatasize\n      sub\n      dup2\n      add\n      swap1\n      tag_40\n      swap2\n      swap1\n      tag_41\n      jump\t// in\n    tag_40:\n      tag_42\n      jump\t// in\n    tag_39:\n      mload(0x40)\n      tag_43\n      swap2\n      swap1\n      tag_44\n      jump\t// in\n    tag_43:\n      mload(0x40)\n      dup1\n      swap2\n      sub\n      swap1\n      return\n        /* \"twitter.sol\":331:373  mapping(address => Tweet[] ) public tweets */\n    tag_14:\n      mstore(0x20, 0x01)\n      dup2\n      0x00\n      mstore\n      keccak256(0x00, 0x40)\n      dup2\n      dup2\n      sload\n      dup2\n      lt\n      tag_45\n      jumpi\n      0x00\n      dup1\n      revert\n    tag_45:\n      swap1\n      0x00\n      mstore\n      keccak256(0x00, 0x20)\n      swap1\n      0x04\n      mul\n      add\n      0x00\n      swap2\n      pop\n      swap2\n      pop\n      pop\n      dup1\n      0x00\n      add\n      0x00\n      swap1\n      sload\n      swap1\n      0x0100\n      exp\n      swap1\n      div\n      0xffffffffffffffffffffffffffffffffffffffff\n      and\n      swap1\n      dup1\n      0x01\n      add\n      dup1\n      sload\n      tag_47\n      swap1\n      tag_48\n      jump\t// in\n    tag_47:\n      dup1\n      0x1f\n      add\n      0x20\n      dup1\n      swap2\n      div\n      mul\n      0x20\n      add\n      mload(0x40)\n      swap1\n      dup2\n      add\n      0x40\n      mstore\n      dup1\n      swap3\n      swap2\n      swap1\n      dup2\n      dup2\n      mstore\n      0x20\n      add\n      dup3\n      dup1\n      sload\n      tag_49\n      swap1\n      tag_48\n      jump\t// in\n    tag_49:\n      dup1\n      iszero\n      tag_50\n      jumpi\n      dup1\n      0x1f\n      lt\n      tag_51\n      jumpi\n      0x0100\n      dup1\n      dup4\n      sload\n      div\n      mul\n      dup4\n      mstore\n      swap2\n      0x20\n      add\n      swap2\n      jump(tag_50)\n    tag_51:\n      dup3\n      add\n      swap2\n      swap1\n      0x00\n      mstore\n      keccak256(0x00, 0x20)\n      swap1\n    tag_52:\n      dup2\n      sload\n      dup2\n      mstore\n      swap1\n      0x01\n      add\n      swap1\n      0x20\n      add\n      dup1\n      dup4\n      gt\n      tag_52\n      jumpi\n      dup3\n      swap1\n      sub\n      0x1f\n      and\n      dup3\n      add\n      swap2\n    tag_50:\n      pop\n      pop\n      pop\n      pop\n      pop\n      swap1\n      dup1\n      0x02\n      add\n      sload\n      swap1\n      dup1\n      0x03\n      add\n      sload\n      swap1\n      pop\n      dup5\n      jump\t// out\n        /* \"twitter.sol\":1209:1324  function getAllTweets(address _owner) public view returns (Tweet[] memory ){\r... */\n    tag_20:\n        /* \"twitter.sol\":1268:1282  Tweet[] memory */\n      0x60\n        /* \"twitter.sol\":1302:1308  tweets */\n      0x01\n        /* \"twitter.sol\":1302:1316  tweets[_owner] */\n      0x00\n        /* \"twitter.sol\":1309:1315  _owner */\n      dup4\n        /* \"twitter.sol\":1302:1316  tweets[_owner] */\n      0xffffffffffffffffffffffffffffffffffffffff\n      and\n      0xffffffffffffffffffffffffffffffffffffffff\n      and\n      dup2\n      mstore\n      0x20\n      add\n      swap1\n      dup2\n      mstore\n      0x20\n      add\n      0x00\n      keccak256\n        /* \"twitter.sol\":1295:1316  return tweets[_owner] */\n      dup1\n      sload\n      dup1\n      0x20\n      mul\n      0x20\n      add\n      mload(0x40)\n      swap1\n      dup2\n      add\n      0x40\n      mstore\n      dup1\n      swap3\n      swap2\n      swap1\n      dup2\n      dup2\n      mstore\n      0x20\n      add\n      0x00\n      swap1\n    tag_54:\n      dup3\n      dup3\n      lt\n      iszero\n      tag_55\n      jumpi\n      dup4\n      dup3\n      swap1\n      0x00\n      mstore\n      keccak256(0x00, 0x20)\n      swap1\n      0x04\n      mul\n      add\n      mload(0x40)\n      dup1\n      0x80\n      add\n      0x40\n      mstore\n      swap1\n      dup2\n      0x00\n      dup3\n      add\n      0x00\n      swap1\n      sload\n      swap1\n      0x0100\n      exp\n      swap1\n      div\n      0xffffffffffffffffffffffffffffffffffffffff\n      and\n      0xffffffffffffffffffffffffffffffffffffffff\n      and\n      0xffffffffffffffffffffffffffffffffffffffff\n      and\n      dup2\n      mstore\n      0x20\n      add\n      0x01\n      dup3\n      add\n      dup1\n      sload\n      tag_57\n      swap1\n      tag_48\n      jump\t// in\n    tag_57:\n      dup1\n      0x1f\n      add\n      0x20\n      dup1\n      swap2\n      div\n      mul\n      0x20\n      add\n      mload(0x40)\n      swap1\n      dup2\n      add\n      0x40\n      mstore\n      dup1\n      swap3\n      swap2\n      swap1\n      dup2\n      dup2\n      mstore\n      0x20\n      add\n      dup3\n      dup1\n      sload\n      tag_58\n      swap1\n      tag_48\n      jump\t// in\n    tag_58:\n      dup1\n      iszero\n      tag_59\n      jumpi\n      dup1\n      0x1f\n      lt\n      tag_60\n      jumpi\n      0x0100\n      dup1\n      dup4\n      sload\n      div\n      mul\n      dup4\n      mstore\n      swap2\n      0x20\n      add\n      swap2\n      jump(tag_59)\n    tag_60:\n      dup3\n      add\n      swap2\n      swap1\n      0x00\n      mstore\n      keccak256(0x00, 0x20)\n      swap1\n    tag_61:\n      dup2\n      sload\n      dup2\n      mstore\n      swap1\n      0x01\n      add\n      swap1\n      0x20\n      add\n      dup1\n      dup4\n      gt\n      tag_61\n      jumpi\n      dup3\n      swap1\n      sub\n      0x1f\n      and\n      dup3\n      add\n      swap2\n    tag_59:\n      pop\n      pop\n      pop\n      pop\n      pop\n      dup2\n      mstore\n      0x20\n      add\n      0x02\n      dup3\n      add\n      sload\n      dup2\n      mstore\n      0x20\n      add\n      0x03\n      dup3\n      add\n      sload\n      dup2\n      mstore\n      pop\n      pop\n      dup2\n      mstore\n      0x20\n      add\n      swap1\n      0x01\n      add\n      swap1\n      jump(tag_54)\n    tag_55:\n      pop\n      pop\n      pop\n      pop\n      swap1\n      pop\n        /* \"twitter.sol\":1209:1324  function getAllTweets(address _owner) public view returns (Tweet[] memory ){\r... */\n      swap2\n      swap1\n      pop\n      jump\t// out\n        /* \"twitter.sol\":582:701  function changeTweetLength(uint16 newTweetLength) public onlyOwner {\r... */\n    tag_26:\n        /* \"twitter.sol\":522:527  owner */\n      0x02\n      0x00\n      swap1\n      sload\n      swap1\n      0x0100\n      exp\n      swap1\n      div\n      0xffffffffffffffffffffffffffffffffffffffff\n      and\n        /* \"twitter.sol\":508:527  msg.sender == owner */\n      0xffffffffffffffffffffffffffffffffffffffff\n      and\n        /* \"twitter.sol\":508:518  msg.sender */\n      caller\n        /* \"twitter.sol\":508:527  msg.sender == owner */\n      0xffffffffffffffffffffffffffffffffffffffff\n      and\n      eq\n        /* \"twitter.sol\":500:554  require(msg.sender == owner, \"YOU ARE NOT THE OWNER!\") */\n      tag_63\n      jumpi\n      mload(0x40)\n      0x08c379a000000000000000000000000000000000000000000000000000000000\n      dup2\n      mstore\n      0x04\n      add\n      tag_64\n      swap1\n      tag_65\n      jump\t// in\n    tag_64:\n      mload(0x40)\n      dup1\n      swap2\n      sub\n      swap1\n      revert\n    tag_63:\n        /* \"twitter.sol\":679:693  newTweetLength */\n      dup1\n        /* \"twitter.sol\":660:676  MAX_TWEET_LENGTH */\n      0x00\n      dup1\n        /* \"twitter.sol\":660:693  MAX_TWEET_LENGTH = newTweetLength */\n      0x0100\n      exp\n      dup2\n      sload\n      dup2\n      0xffff\n      mul\n      not\n      and\n      swap1\n      dup4\n      0xffff\n      and\n      mul\n      or\n      swap1\n      sstore\n      pop\n        /* \"twitter.sol\":582:701  function changeTweetLength(uint16 newTweetLength) public onlyOwner {\r... */\n      pop\n      jump\t// out\n        /* \"twitter.sol\":84:120  uint16 public MAX_TWEET_LENGTH = 280 */\n    tag_28:\n      0x00\n      dup1\n      sload\n      swap1\n      0x0100\n      exp\n      swap1\n      div\n      0xffff\n      and\n      dup2\n      jump\t// out\n        /* \"twitter.sol\":709:1082  function createTweet(string memory _tweet) public {\r... */\n    tag_34:\n        /* \"twitter.sol\":802:818  MAX_TWEET_LENGTH */\n      0x00\n      dup1\n      sload\n      swap1\n      0x0100\n      exp\n      swap1\n      div\n      0xffff\n      and\n        /* \"twitter.sol\":778:818  bytes(_tweet).length <= MAX_TWEET_LENGTH */\n      0xffff\n      and\n        /* \"twitter.sol\":784:790  _tweet */\n      dup2\n        /* \"twitter.sol\":778:798  bytes(_tweet).length */\n      mload\n        /* \"twitter.sol\":778:818  bytes(_tweet).length <= MAX_TWEET_LENGTH */\n      gt\n      iszero\n        /* \"twitter.sol\":770:846  require(bytes(_tweet).length <= MAX_TWEET_LENGTH, \"Tweet is too long bro!\" ) */\n      tag_68\n      jumpi\n      mload(0x40)\n      0x08c379a000000000000000000000000000000000000000000000000000000000\n      dup2\n      mstore\n      0x04\n      add\n      tag_69\n      swap1\n      tag_70\n      jump\t// in\n    tag_69:\n      mload(0x40)\n      dup1\n      swap2\n      sub\n      swap1\n      revert\n    tag_68:\n        /* \"twitter.sol\":859:880  Tweet memory newTweet */\n      0x00\n        /* \"twitter.sol\":883:1028  Tweet({\r... */\n      mload(0x40)\n      dup1\n      0x80\n      add\n      0x40\n      mstore\n      dup1\n        /* \"twitter.sol\":912:922  msg.sender */\n      caller\n        /* \"twitter.sol\":883:1028  Tweet({\r... */\n      0xffffffffffffffffffffffffffffffffffffffff\n      and\n      dup2\n      mstore\n      0x20\n      add\n        /* \"twitter.sol\":946:952  _tweet */\n      dup4\n        /* \"twitter.sol\":883:1028  Tweet({\r... */\n      dup2\n      mstore\n      0x20\n      add\n        /* \"twitter.sol\":978:993  block.timestamp */\n      timestamp\n        /* \"twitter.sol\":883:1028  Tweet({\r... */\n      dup2\n      mstore\n      0x20\n      add\n        /* \"twitter.sol\":1015:1016  0 */\n      0x00\n        /* \"twitter.sol\":883:1028  Tweet({\r... */\n      dup2\n      mstore\n      pop\n        /* \"twitter.sol\":859:1028  Tweet memory newTweet = Tweet({\r... */\n      swap1\n      pop\n        /* \"twitter.sol\":1041:1047  tweets */\n      0x01\n        /* \"twitter.sol\":1041:1059  tweets[msg.sender] */\n      0x00\n        /* \"twitter.sol\":1048:1058  msg.sender */\n      caller\n        /* \"twitter.sol\":1041:1059  tweets[msg.sender] */\n      0xffffffffffffffffffffffffffffffffffffffff\n      and\n      0xffffffffffffffffffffffffffffffffffffffff\n      and\n      dup2\n      mstore\n      0x20\n      add\n      swap1\n      dup2\n      mstore\n      0x20\n      add\n      0x00\n      keccak256\n        /* \"twitter.sol\":1065:1073  newTweet */\n      dup2\n        /* \"twitter.sol\":1041:1074  tweets[msg.sender].push(newTweet) */\n      swap1\n      dup1\n      0x01\n      dup2\n      sload\n      add\n      dup1\n      dup3\n      sstore\n      dup1\n      swap2\n      pop\n      pop\n      0x01\n      swap1\n      sub\n      swap1\n      0x00\n      mstore\n      keccak256(0x00, 0x20)\n      swap1\n      0x04\n      mul\n      add\n      0x00\n      swap1\n      swap2\n      swap1\n      swap2\n      swap1\n      swap2\n      pop\n      0x00\n      dup3\n      add\n      mload\n      dup2\n      0x00\n      add\n      exp(0x0100, 0x00)\n      dup2\n      sload\n      dup2\n      0xffffffffffffffffffffffffffffffffffffffff\n      mul\n      not\n      and\n      swap1\n      dup4\n      0xffffffffffffffffffffffffffffffffffffffff\n      and\n      mul\n      or\n      swap1\n      sstore\n      pop\n      0x20\n      dup3\n      add\n      mload\n      dup2\n      0x01\n      add\n      swap1\n      dup1\n      mload\n      swap1\n      0x20\n      add\n      swap1\n      tag_72\n      swap3\n      swap2\n      swap1\n      tag_73\n      jump\t// in\n    tag_72:\n      pop\n      0x40\n      dup3\n      add\n      mload\n      dup2\n      0x02\n      add\n      sstore\n      0x60\n      dup3\n      add\n      mload\n      dup2\n      0x03\n      add\n      sstore\n      pop\n      pop\n        /* \"twitter.sol\":709:1082  function createTweet(string memory _tweet) public {\r... */\n      pop\n      pop\n      jump\t// out\n        /* \"twitter.sol\":380:400  address public owner */\n    tag_36:\n      0x02\n      0x00\n      swap1\n      sload\n      swap1\n      0x0100\n      exp\n      swap1\n      div\n      0xffffffffffffffffffffffffffffffffffffffff\n      and\n      dup2\n      jump\t// out\n        /* \"twitter.sol\":1090:1201  function getTweet( uint _i) public view returns (Tweet memory) {\r... */\n    tag_42:\n        /* \"twitter.sol\":1139:1151  Tweet memory */\n      tag_74\n      tag_75\n      jump\t// in\n    tag_74:\n        /* \"twitter.sol\":1171:1177  tweets */\n      0x01\n        /* \"twitter.sol\":1171:1189  tweets[msg.sender] */\n      0x00\n        /* \"twitter.sol\":1178:1188  msg.sender */\n      caller\n        /* \"twitter.sol\":1171:1189  tweets[msg.sender] */\n      0xffffffffffffffffffffffffffffffffffffffff\n      and\n      0xffffffffffffffffffffffffffffffffffffffff\n      and\n      dup2\n      mstore\n      0x20\n      add\n      swap1\n      dup2\n      mstore\n      0x20\n      add\n      0x00\n      keccak256\n        /* \"twitter.sol\":1190:1192  _i */\n      dup3\n        /* \"twitter.sol\":1171:1193  tweets[msg.sender][_i] */\n      dup2\n      sload\n      dup2\n      lt\n      tag_77\n      jumpi\n      mstore(0x00, 0x4e487b7100000000000000000000000000000000000000000000000000000000)\n      mstore(0x04, 0x32)\n      revert(0x00, 0x24)\n    tag_77:\n      swap1\n      0x00\n      mstore\n      keccak256(0x00, 0x20)\n      swap1\n      0x04\n      mul\n      add\n        /* \"twitter.sol\":1164:1193  return tweets[msg.sender][_i] */\n      mload(0x40)\n      dup1\n      0x80\n      add\n      0x40\n      mstore\n      swap1\n      dup2\n      0x00\n      dup3\n      add\n      0x00\n      swap1\n      sload\n      swap1\n      0x0100\n      exp\n      swap1\n      div\n      0xffffffffffffffffffffffffffffffffffffffff\n      and\n      0xffffffffffffffffffffffffffffffffffffffff\n      and\n      0xffffffffffffffffffffffffffffffffffffffff\n      and\n      dup2\n      mstore\n      0x20\n      add\n      0x01\n      dup3\n      add\n      dup1\n      sload\n      tag_79\n      swap1\n      tag_48\n      jump\t// in\n    tag_79:\n      dup1\n      0x1f\n      add\n      0x20\n      dup1\n      swap2\n      div\n      mul\n      0x20\n      add\n      mload(0x40)\n      swap1\n      dup2\n      add\n      0x40\n      mstore\n      dup1\n      swap3\n      swap2\n      swap1\n      dup2\n      dup2\n      mstore\n      0x20\n      add\n      dup3\n      dup1\n      sload\n      tag_80\n      swap1\n      tag_48\n      jump\t// in\n    tag_80:\n      dup1\n      iszero\n      tag_81\n      jumpi\n      dup1\n      0x1f\n      lt\n      tag_82\n      jumpi\n      0x0100\n      dup1\n      dup4\n      sload\n      div\n      mul\n      dup4\n      mstore\n      swap2\n      0x20\n      add\n      swap2\n      jump(tag_81)\n    tag_82:\n      dup3\n      add\n      swap2\n      swap1\n      0x00\n      mstore\n      keccak256(0x00, 0x20)\n      swap1\n    tag_83:\n      dup2\n      sload\n      dup2\n      mstore\n      swap1\n      0x01\n      add\n      swap1\n      0x20\n      add\n      dup1\n      dup4\n      gt\n      tag_83\n      jumpi\n      dup3\n      swap1\n      sub\n      0x1f\n      and\n      dup3\n      add\n      swap2\n    tag_81:\n      pop\n      pop\n      pop\n      pop\n      pop\n      dup2\n      mstore\n      0x20\n      add\n      0x02\n      dup3\n      add\n      sload\n      dup2\n      mstore\n      0x20\n      add\n      0x03\n      dup3\n      add\n      sload\n      dup2\n      mstore\n      pop\n      pop\n      swap1\n      pop\n        /* \"twitter.sol\":1090:1201  function getTweet( uint _i) public view returns (Tweet memory) {\r... */\n      swap2\n      swap1\n      pop\n      jump\t// out\n    tag_73:\n      dup3\n      dup1\n      sload\n      tag_84\n      swap1\n      tag_48\n      jump\t// in\n    tag_84:\n      swap1\n      0x00\n      mstore\n      keccak256(0x00, 0x20)\n      swap1\n      0x1f\n      add\n      0x20\n      swap1\n      div\n      dup2\n      add\n      swap3\n      dup3\n      tag_86\n      jumpi\n      0x00\n      dup6\n      sstore\n      jump(tag_85)\n    tag_86:\n      dup3\n      0x1f\n      lt\n      tag_87\n      jumpi\n      dup1\n      mload\n      not(0xff)\n      and\n      dup4\n      dup1\n      add\n      or\n      dup6\n      sstore\n      jump(tag_85)\n    tag_87:\n      dup3\n      dup1\n      add\n      0x01\n      add\n      dup6\n      sstore\n      dup3\n      iszero\n      tag_85\n      jumpi\n      swap2\n      dup3\n      add\n    tag_88:\n      dup3\n      dup2\n      gt\n      iszero\n      tag_89\n      jumpi\n      dup3\n      mload\n      dup3\n      sstore\n      swap2\n      0x20\n      add\n      swap2\n      swap1\n      0x01\n      add\n      swap1\n      jump(tag_88)\n    tag_89:\n    tag_85:\n      pop\n      swap1\n      pop\n      tag_90\n      swap2\n      swap1\n      tag_91\n      jump\t// in\n    tag_90:\n      pop\n      swap1\n      jump\t// out\n    tag_75:\n      mload(0x40)\n      dup1\n      0x80\n      add\n      0x40\n      mstore\n      dup1\n      and(0xffffffffffffffffffffffffffffffffffffffff, 0x00)\n      dup2\n      mstore\n      0x20\n      add\n      0x60\n      dup2\n      mstore\n      0x20\n      add\n      0x00\n      dup2\n      mstore\n      0x20\n      add\n      0x00\n      dup2\n      mstore\n      pop\n      swap1\n      jump\t// out\n    tag_91:\n    tag_92:\n      dup1\n      dup3\n      gt\n      iszero\n      tag_93\n      jumpi\n      0x00\n      dup2\n      0x00\n      swap1\n      sstore\n      pop\n      0x01\n      add\n      jump(tag_92)\n    tag_93:\n      pop\n      swap1\n      jump\t// out\n        /* \"#utility.yul\":7:351   */\n    tag_95:\n      0x00\n        /* \"#utility.yul\":110:175   */\n      tag_97\n        /* \"#utility.yul\":125:174   */\n      tag_98\n        /* \"#utility.yul\":167:173   */\n      dup5\n        /* \"#utility.yul\":125:174   */\n      tag_99\n      jump\t// in\n    tag_98:\n        /* \"#utility.yul\":110:175   */\n      tag_100\n      jump\t// in\n    tag_97:\n        /* \"#utility.yul\":101:175   */\n      swap1\n      pop\n        /* \"#utility.yul\":198:204   */\n      dup3\n        /* \"#utility.yul\":191:196   */\n      dup2\n        /* \"#utility.yul\":184:205   */\n      mstore\n        /* \"#utility.yul\":236:240   */\n      0x20\n        /* \"#utility.yul\":229:234   */\n      dup2\n        /* \"#utility.yul\":225:241   */\n      add\n        /* \"#utility.yul\":274:277   */\n      dup5\n        /* \"#utility.yul\":265:271   */\n      dup5\n        /* \"#utility.yul\":260:263   */\n      dup5\n        /* \"#utility.yul\":256:272   */\n      add\n        /* \"#utility.yul\":253:278   */\n      gt\n        /* \"#utility.yul\":250:252   */\n      iszero\n      tag_101\n      jumpi\n        /* \"#utility.yul\":291:292   */\n      0x00\n        /* \"#utility.yul\":288:289   */\n      dup1\n        /* \"#utility.yul\":281:293   */\n      revert\n        /* \"#utility.yul\":250:252   */\n    tag_101:\n        /* \"#utility.yul\":304:345   */\n      tag_102\n        /* \"#utility.yul\":338:344   */\n      dup5\n        /* \"#utility.yul\":333:336   */\n      dup3\n        /* \"#utility.yul\":328:331   */\n      dup6\n        /* \"#utility.yul\":304:345   */\n      tag_103\n      jump\t// in\n    tag_102:\n        /* \"#utility.yul\":91:351   */\n      pop\n      swap4\n      swap3\n      pop\n      pop\n      pop\n      jump\t// out\n        /* \"#utility.yul\":357:496   */\n    tag_104:\n      0x00\n        /* \"#utility.yul\":441:447   */\n      dup2\n        /* \"#utility.yul\":428:448   */\n      calldataload\n        /* \"#utility.yul\":419:448   */\n      swap1\n      pop\n        /* \"#utility.yul\":457:490   */\n      tag_106\n        /* \"#utility.yul\":484:489   */\n      dup2\n        /* \"#utility.yul\":457:490   */\n      tag_107\n      jump\t// in\n    tag_106:\n        /* \"#utility.yul\":409:496   */\n      swap3\n      swap2\n      pop\n      pop\n      jump\t// out\n        /* \"#utility.yul\":516:789   */\n    tag_108:\n      0x00\n        /* \"#utility.yul\":621:624   */\n      dup3\n        /* \"#utility.yul\":614:618   */\n      0x1f\n        /* \"#utility.yul\":606:612   */\n      dup4\n        /* \"#utility.yul\":602:619   */\n      add\n        /* \"#utility.yul\":598:625   */\n      slt\n        /* \"#utility.yul\":588:590   */\n      tag_110\n      jumpi\n        /* \"#utility.yul\":639:640   */\n      0x00\n        /* \"#utility.yul\":636:637   */\n      dup1\n        /* \"#utility.yul\":629:641   */\n      revert\n        /* \"#utility.yul\":588:590   */\n    tag_110:\n        /* \"#utility.yul\":679:685   */\n      dup2\n        /* \"#utility.yul\":666:686   */\n      calldataload\n        /* \"#utility.yul\":704:783   */\n      tag_111\n        /* \"#utility.yul\":779:782   */\n      dup5\n        /* \"#utility.yul\":771:777   */\n      dup3\n        /* \"#utility.yul\":764:768   */\n      0x20\n        /* \"#utility.yul\":756:762   */\n      dup7\n        /* \"#utility.yul\":752:769   */\n      add\n        /* \"#utility.yul\":704:783   */\n      tag_95\n      jump\t// in\n    tag_111:\n        /* \"#utility.yul\":695:783   */\n      swap2\n      pop\n        /* \"#utility.yul\":578:789   */\n      pop\n      swap3\n      swap2\n      pop\n      pop\n      jump\t// out\n        /* \"#utility.yul\":795:932   */\n    tag_112:\n      0x00\n        /* \"#utility.yul\":878:884   */\n      dup2\n        /* \"#utility.yul\":865:885   */\n      calldataload\n        /* \"#utility.yul\":856:885   */\n      swap1\n      pop\n        /* \"#utility.yul\":894:926   */\n      tag_114\n        /* \"#utility.yul\":920:925   */\n      dup2\n        /* \"#utility.yul\":894:926   */\n      tag_115\n      jump\t// in\n    tag_114:\n        /* \"#utility.yul\":846:932   */\n      swap3\n      swap2\n      pop\n      pop\n      jump\t// out\n        /* \"#utility.yul\":938:1077   */\n    tag_116:\n      0x00\n        /* \"#utility.yul\":1022:1028   */\n      dup2\n        /* \"#utility.yul\":1009:1029   */\n      calldataload\n        /* \"#utility.yul\":1000:1029   */\n      swap1\n      pop\n        /* \"#utility.yul\":1038:1071   */\n      tag_118\n        /* \"#utility.yul\":1065:1070   */\n      dup2\n        /* \"#utility.yul\":1038:1071   */\n      tag_119\n      jump\t// in\n    tag_118:\n        /* \"#utility.yul\":990:1077   */\n      swap3\n      swap2\n      pop\n      pop\n      jump\t// out\n        /* \"#utility.yul\":1083:1345   */\n    tag_19:\n      0x00\n        /* \"#utility.yul\":1191:1193   */\n      0x20\n        /* \"#utility.yul\":1179:1188   */\n      dup3\n        /* \"#utility.yul\":1170:1177   */\n      dup5\n        /* \"#utility.yul\":1166:1189   */\n      sub\n        /* \"#utility.yul\":1162:1194   */\n      slt\n        /* \"#utility.yul\":1159:1161   */\n      iszero\n      tag_121\n      jumpi\n        /* \"#utility.yul\":1207:1208   */\n      0x00\n        /* \"#utility.yul\":1204:1205   */\n      dup1\n        /* \"#utility.yul\":1197:1209   */\n      revert\n        /* \"#utility.yul\":1159:1161   */\n    tag_121:\n        /* \"#utility.yul\":1250:1251   */\n      0x00\n        /* \"#utility.yul\":1275:1328   */\n      tag_122\n        /* \"#utility.yul\":1320:1327   */\n      dup5\n        /* \"#utility.yul\":1311:1317   */\n      dup3\n        /* \"#utility.yul\":1300:1309   */\n      dup6\n        /* \"#utility.yul\":1296:1318   */\n      add\n        /* \"#utility.yul\":1275:1328   */\n      tag_104\n      jump\t// in\n    tag_122:\n        /* \"#utility.yul\":1265:1328   */\n      swap2\n      pop\n        /* \"#utility.yul\":1221:1338   */\n      pop\n        /* \"#utility.yul\":1149:1345   */\n      swap3\n      swap2\n      pop\n      pop\n      jump\t// out\n        /* \"#utility.yul\":1351:1758   */\n    tag_13:\n      0x00\n      dup1\n        /* \"#utility.yul\":1476:1478   */\n      0x40\n        /* \"#utility.yul\":1464:1473   */\n      dup4\n        /* \"#utility.yul\":1455:1462   */\n      dup6\n        /* \"#utility.yul\":1451:1474   */\n      sub\n        /* \"#utility.yul\":1447:1479   */\n      slt\n        /* \"#utility.yul\":1444:1446   */\n      iszero\n      tag_124\n      jumpi\n        /* \"#utility.yul\":1492:1493   */\n      0x00\n        /* \"#utility.yul\":1489:1490   */\n      dup1\n        /* \"#utility.yul\":1482:1494   */\n      revert\n        /* \"#utility.yul\":1444:1446   */\n    tag_124:\n        /* \"#utility.yul\":1535:1536   */\n      0x00\n        /* \"#utility.yul\":1560:1613   */\n      tag_125\n        /* \"#utility.yul\":1605:1612   */\n      dup6\n        /* \"#utility.yul\":1596:1602   */\n      dup3\n        /* \"#utility.yul\":1585:1594   */\n      dup7\n        /* \"#utility.yul\":1581:1603   */\n      add\n        /* \"#utility.yul\":1560:1613   */\n      tag_104\n      jump\t// in\n    tag_125:\n        /* \"#utility.yul\":1550:1613   */\n      swap3\n      pop\n        /* \"#utility.yul\":1506:1623   */\n      pop\n        /* \"#utility.yul\":1662:1664   */\n      0x20\n        /* \"#utility.yul\":1688:1741   */\n      tag_126\n        /* \"#utility.yul\":1733:1740   */\n      dup6\n        /* \"#utility.yul\":1724:1730   */\n      dup3\n        /* \"#utility.yul\":1713:1722   */\n      dup7\n        /* \"#utility.yul\":1709:1731   */\n      add\n        /* \"#utility.yul\":1688:1741   */\n      tag_116\n      jump\t// in\n    tag_126:\n        /* \"#utility.yul\":1678:1741   */\n      swap2\n      pop\n        /* \"#utility.yul\":1633:1751   */\n      pop\n        /* \"#utility.yul\":1434:1758   */\n      swap3\n      pop\n      swap3\n      swap1\n      pop\n      jump\t// out\n        /* \"#utility.yul\":1764:2139   */\n    tag_33:\n      0x00\n        /* \"#utility.yul\":1882:1884   */\n      0x20\n        /* \"#utility.yul\":1870:1879   */\n      dup3\n        /* \"#utility.yul\":1861:1868   */\n      dup5\n        /* \"#utility.yul\":1857:1880   */\n      sub\n        /* \"#utility.yul\":1853:1885   */\n      slt\n        /* \"#utility.yul\":1850:1852   */\n      iszero\n      tag_128\n      jumpi\n        /* \"#utility.yul\":1898:1899   */\n      0x00\n        /* \"#utility.yul\":1895:1896   */\n      dup1\n        /* \"#utility.yul\":1888:1900   */\n      revert\n        /* \"#utility.yul\":1850:1852   */\n    tag_128:\n        /* \"#utility.yul\":1969:1970   */\n      0x00\n        /* \"#utility.yul\":1958:1967   */\n      dup3\n        /* \"#utility.yul\":1954:1971   */\n      add\n        /* \"#utility.yul\":1941:1972   */\n      calldataload\n        /* \"#utility.yul\":1999:2017   */\n      0xffffffffffffffff\n        /* \"#utility.yul\":1991:1997   */\n      dup2\n        /* \"#utility.yul\":1988:2018   */\n      gt\n        /* \"#utility.yul\":1985:1987   */\n      iszero\n      tag_129\n      jumpi\n        /* \"#utility.yul\":2031:2032   */\n      0x00\n        /* \"#utility.yul\":2028:2029   */\n      dup1\n        /* \"#utility.yul\":2021:2033   */\n      revert\n        /* \"#utility.yul\":1985:1987   */\n    tag_129:\n        /* \"#utility.yul\":2059:2122   */\n      tag_130\n        /* \"#utility.yul\":2114:2121   */\n      dup5\n        /* \"#utility.yul\":2105:2111   */\n      dup3\n        /* \"#utility.yul\":2094:2103   */\n      dup6\n        /* \"#utility.yul\":2090:2112   */\n      add\n        /* \"#utility.yul\":2059:2122   */\n      tag_108\n      jump\t// in\n    tag_130:\n        /* \"#utility.yul\":2049:2122   */\n      swap2\n      pop\n        /* \"#utility.yul\":1912:2132   */\n      pop\n        /* \"#utility.yul\":1840:2139   */\n      swap3\n      swap2\n      pop\n      pop\n      jump\t// out\n        /* \"#utility.yul\":2145:2405   */\n    tag_25:\n      0x00\n        /* \"#utility.yul\":2252:2254   */\n      0x20\n        /* \"#utility.yul\":2240:2249   */\n      dup3\n        /* \"#utility.yul\":2231:2238   */\n      dup5\n        /* \"#utility.yul\":2227:2250   */\n      sub\n        /* \"#utility.yul\":2223:2255   */\n      slt\n        /* \"#utility.yul\":2220:2222   */\n      iszero\n      tag_132\n      jumpi\n        /* \"#utility.yul\":2268:2269   */\n      0x00\n        /* \"#utility.yul\":2265:2266   */\n      dup1\n        /* \"#utility.yul\":2258:2270   */\n      revert\n        /* \"#utility.yul\":2220:2222   */\n    tag_132:\n        /* \"#utility.yul\":2311:2312   */\n      0x00\n        /* \"#utility.yul\":2336:2388   */\n      tag_133\n        /* \"#utility.yul\":2380:2387   */\n      dup5\n        /* \"#utility.yul\":2371:2377   */\n      dup3\n        /* \"#utility.yul\":2360:2369   */\n      dup6\n        /* \"#utility.yul\":2356:2378   */\n      add\n        /* \"#utility.yul\":2336:2388   */\n      tag_112\n      jump\t// in\n    tag_133:\n        /* \"#utility.yul\":2326:2388   */\n      swap2\n      pop\n        /* \"#utility.yul\":2282:2398   */\n      pop\n        /* \"#utility.yul\":2210:2405   */\n      swap3\n      swap2\n      pop\n      pop\n      jump\t// out\n        /* \"#utility.yul\":2411:2673   */\n    tag_41:\n      0x00\n        /* \"#utility.yul\":2519:2521   */\n      0x20\n        /* \"#utility.yul\":2507:2516   */\n      dup3\n        /* \"#utility.yul\":2498:2505   */\n      dup5\n        /* \"#utility.yul\":2494:2517   */\n      sub\n        /* \"#utility.yul\":2490:2522   */\n      slt\n        /* \"#utility.yul\":2487:2489   */\n      iszero\n      tag_135\n      jumpi\n        /* \"#utility.yul\":2535:2536   */\n      0x00\n        /* \"#utility.yul\":2532:2533   */\n      dup1\n        /* \"#utility.yul\":2525:2537   */\n      revert\n        /* \"#utility.yul\":2487:2489   */\n    tag_135:\n        /* \"#utility.yul\":2578:2579   */\n      0x00\n        /* \"#utility.yul\":2603:2656   */\n      tag_136\n        /* \"#utility.yul\":2648:2655   */\n      dup5\n        /* \"#utility.yul\":2639:2645   */\n      dup3\n        /* \"#utility.yul\":2628:2637   */\n      dup6\n        /* \"#utility.yul\":2624:2646   */\n      add\n        /* \"#utility.yul\":2603:2656   */\n      tag_116\n      jump\t// in\n    tag_136:\n        /* \"#utility.yul\":2593:2656   */\n      swap2\n      pop\n        /* \"#utility.yul\":2549:2666   */\n      pop\n        /* \"#utility.yul\":2477:2673   */\n      swap3\n      swap2\n      pop\n      pop\n      jump\t// out\n        /* \"#utility.yul\":2679:2919   */\n    tag_137:\n      0x00\n        /* \"#utility.yul\":2825:2913   */\n      tag_139\n        /* \"#utility.yul\":2909:2912   */\n      dup4\n        /* \"#utility.yul\":2901:2907   */\n      dup4\n        /* \"#utility.yul\":2825:2913   */\n      tag_140\n      jump\t// in\n    tag_139:\n        /* \"#utility.yul\":2811:2913   */\n      swap1\n      pop\n        /* \"#utility.yul\":2801:2919   */\n      swap3\n      swap2\n      pop\n      pop\n      jump\t// out\n        /* \"#utility.yul\":2925:3033   */\n    tag_141:\n        /* \"#utility.yul\":3002:3026   */\n      tag_143\n        /* \"#utility.yul\":3020:3025   */\n      dup2\n        /* \"#utility.yul\":3002:3026   */\n      tag_144\n      jump\t// in\n    tag_143:\n        /* \"#utility.yul\":2997:3000   */\n      dup3\n        /* \"#utility.yul\":2990:3027   */\n      mstore\n        /* \"#utility.yul\":2980:3033   */\n      pop\n      pop\n      jump\t// out\n        /* \"#utility.yul\":3039:3157   */\n    tag_145:\n        /* \"#utility.yul\":3126:3150   */\n      tag_147\n        /* \"#utility.yul\":3144:3149   */\n      dup2\n        /* \"#utility.yul\":3126:3150   */\n      tag_144\n      jump\t// in\n    tag_147:\n        /* \"#utility.yul\":3121:3124   */\n      dup3\n        /* \"#utility.yul\":3114:3151   */\n      mstore\n        /* \"#utility.yul\":3104:3157   */\n      pop\n      pop\n      jump\t// out\n        /* \"#utility.yul\":3219:4298   */\n    tag_148:\n      0x00\n        /* \"#utility.yul\":3409:3484   */\n      tag_150\n        /* \"#utility.yul\":3478:3483   */\n      dup3\n        /* \"#utility.yul\":3409:3484   */\n      tag_151\n      jump\t// in\n    tag_150:\n        /* \"#utility.yul\":3500:3607   */\n      tag_152\n        /* \"#utility.yul\":3600:3606   */\n      dup2\n        /* \"#utility.yul\":3595:3598   */\n      dup6\n        /* \"#utility.yul\":3500:3607   */\n      tag_153\n      jump\t// in\n    tag_152:\n        /* \"#utility.yul\":3493:3607   */\n      swap4\n      pop\n        /* \"#utility.yul\":3633:3636   */\n      dup4\n        /* \"#utility.yul\":3678:3682   */\n      0x20\n        /* \"#utility.yul\":3670:3676   */\n      dup3\n        /* \"#utility.yul\":3666:3683   */\n      mul\n        /* \"#utility.yul\":3661:3664   */\n      dup6\n        /* \"#utility.yul\":3657:3684   */\n      add\n        /* \"#utility.yul\":3708:3785   */\n      tag_154\n        /* \"#utility.yul\":3779:3784   */\n      dup6\n        /* \"#utility.yul\":3708:3785   */\n      tag_155\n      jump\t// in\n    tag_154:\n        /* \"#utility.yul\":3808:3815   */\n      dup1\n        /* \"#utility.yul\":3839:3840   */\n      0x00\n        /* \"#utility.yul\":3824:4253   */\n    tag_156:\n        /* \"#utility.yul\":3849:3855   */\n      dup6\n        /* \"#utility.yul\":3846:3847   */\n      dup2\n        /* \"#utility.yul\":3843:3856   */\n      lt\n        /* \"#utility.yul\":3824:4253   */\n      iszero\n      tag_158\n      jumpi\n        /* \"#utility.yul\":3920:3929   */\n      dup5\n        /* \"#utility.yul\":3914:3918   */\n      dup5\n        /* \"#utility.yul\":3910:3930   */\n      sub\n        /* \"#utility.yul\":3905:3908   */\n      dup10\n        /* \"#utility.yul\":3898:3931   */\n      mstore\n        /* \"#utility.yul\":3971:3977   */\n      dup2\n        /* \"#utility.yul\":3965:3978   */\n      mload\n        /* \"#utility.yul\":3999:4105   */\n      tag_159\n        /* \"#utility.yul\":4100:4104   */\n      dup6\n        /* \"#utility.yul\":4085:4098   */\n      dup3\n        /* \"#utility.yul\":3999:4105   */\n      tag_137\n      jump\t// in\n    tag_159:\n        /* \"#utility.yul\":3991:4105   */\n      swap5\n      pop\n        /* \"#utility.yul\":4128:4209   */\n      tag_160\n        /* \"#utility.yul\":4202:4208   */\n      dup4\n        /* \"#utility.yul\":4128:4209   */\n      tag_161\n      jump\t// in\n    tag_160:\n        /* \"#utility.yul\":4118:4209   */\n      swap3\n      pop\n        /* \"#utility.yul\":4238:4242   */\n      0x20\n        /* \"#utility.yul\":4233:4236   */\n      dup11\n        /* \"#utility.yul\":4229:4243   */\n      add\n        /* \"#utility.yul\":4222:4243   */\n      swap10\n      pop\n        /* \"#utility.yul\":3884:4253   */\n      pop\n        /* \"#utility.yul\":3871:3872   */\n      0x01\n        /* \"#utility.yul\":3868:3869   */\n      dup2\n        /* \"#utility.yul\":3864:3873   */\n      add\n        /* \"#utility.yul\":3859:3873   */\n      swap1\n      pop\n        /* \"#utility.yul\":3824:4253   */\n      jump(tag_156)\n    tag_158:\n        /* \"#utility.yul\":3828:3842   */\n      pop\n        /* \"#utility.yul\":4269:4273   */\n      dup3\n        /* \"#utility.yul\":4262:4273   */\n      swap8\n      pop\n        /* \"#utility.yul\":4289:4292   */\n      dup8\n        /* \"#utility.yul\":4282:4292   */\n      swap6\n      pop\n        /* \"#utility.yul\":3385:4298   */\n      pop\n      pop\n      pop\n      pop\n      pop\n      swap3\n      swap2\n      pop\n      pop\n      jump\t// out\n        /* \"#utility.yul\":4304:4648   */\n    tag_162:\n      0x00\n        /* \"#utility.yul\":4410:4449   */\n      tag_164\n        /* \"#utility.yul\":4443:4448   */\n      dup3\n        /* \"#utility.yul\":4410:4449   */\n      tag_165\n      jump\t// in\n    tag_164:\n        /* \"#utility.yul\":4465:4526   */\n      tag_166\n        /* \"#utility.yul\":4519:4525   */\n      dup2\n        /* \"#utility.yul\":4514:4517   */\n      dup6\n        /* \"#utility.yul\":4465:4526   */\n      tag_167\n      jump\t// in\n    tag_166:\n        /* \"#utility.yul\":4458:4526   */\n      swap4\n      pop\n        /* \"#utility.yul\":4535:4587   */\n      tag_168\n        /* \"#utility.yul\":4580:4586   */\n      dup2\n        /* \"#utility.yul\":4575:4578   */\n      dup6\n        /* \"#utility.yul\":4568:4572   */\n      0x20\n        /* \"#utility.yul\":4561:4566   */\n      dup7\n        /* \"#utility.yul\":4557:4573   */\n      add\n        /* \"#utility.yul\":4535:4587   */\n      tag_169\n      jump\t// in\n    tag_168:\n        /* \"#utility.yul\":4612:4641   */\n      tag_170\n        /* \"#utility.yul\":4634:4640   */\n      dup2\n        /* \"#utility.yul\":4612:4641   */\n      tag_171\n      jump\t// in\n    tag_170:\n        /* \"#utility.yul\":4607:4610   */\n      dup5\n        /* \"#utility.yul\":4603:4642   */\n      add\n        /* \"#utility.yul\":4596:4642   */\n      swap2\n      pop\n        /* \"#utility.yul\":4386:4648   */\n      pop\n      swap3\n      swap2\n      pop\n      pop\n      jump\t// out\n        /* \"#utility.yul\":4654:5018   */\n    tag_172:\n      0x00\n        /* \"#utility.yul\":4770:4809   */\n      tag_174\n        /* \"#utility.yul\":4803:4808   */\n      dup3\n        /* \"#utility.yul\":4770:4809   */\n      tag_165\n      jump\t// in\n    tag_174:\n        /* \"#utility.yul\":4825:4896   */\n      tag_175\n        /* \"#utility.yul\":4889:4895   */\n      dup2\n        /* \"#utility.yul\":4884:4887   */\n      dup6\n        /* \"#utility.yul\":4825:4896   */\n      tag_176\n      jump\t// in\n    tag_175:\n        /* \"#utility.yul\":4818:4896   */\n      swap4\n      pop\n        /* \"#utility.yul\":4905:4957   */\n      tag_177\n        /* \"#utility.yul\":4950:4956   */\n      dup2\n        /* \"#utility.yul\":4945:4948   */\n      dup6\n        /* \"#utility.yul\":4938:4942   */\n      0x20\n        /* \"#utility.yul\":4931:4936   */\n      dup7\n        /* \"#utility.yul\":4927:4943   */\n      add\n        /* \"#utility.yul\":4905:4957   */\n      tag_169\n      jump\t// in\n    tag_177:\n        /* \"#utility.yul\":4982:5011   */\n      tag_178\n        /* \"#utility.yul\":5004:5010   */\n      dup2\n        /* \"#utility.yul\":4982:5011   */\n      tag_171\n      jump\t// in\n    tag_178:\n        /* \"#utility.yul\":4977:4980   */\n      dup5\n        /* \"#utility.yul\":4973:5012   */\n      add\n        /* \"#utility.yul\":4966:5012   */\n      swap2\n      pop\n        /* \"#utility.yul\":4746:5018   */\n      pop\n      swap3\n      swap2\n      pop\n      pop\n      jump\t// out\n        /* \"#utility.yul\":5024:5344   */\n    tag_179:\n      0x00\n        /* \"#utility.yul\":5187:5254   */\n      tag_181\n        /* \"#utility.yul\":5251:5253   */\n      0x16\n        /* \"#utility.yul\":5246:5249   */\n      dup4\n        /* \"#utility.yul\":5187:5254   */\n      tag_176\n      jump\t// in\n    tag_181:\n        /* \"#utility.yul\":5180:5254   */\n      swap2\n      pop\n        /* \"#utility.yul\":5284:5308   */\n      0x547765657420697320746f6f206c6f6e672062726f2100000000000000000000\n        /* \"#utility.yul\":5280:5281   */\n      0x00\n        /* \"#utility.yul\":5275:5278   */\n      dup4\n        /* \"#utility.yul\":5271:5282   */\n      add\n        /* \"#utility.yul\":5264:5309   */\n      mstore\n        /* \"#utility.yul\":5335:5337   */\n      0x20\n        /* \"#utility.yul\":5330:5333   */\n      dup3\n        /* \"#utility.yul\":5326:5338   */\n      add\n        /* \"#utility.yul\":5319:5338   */\n      swap1\n      pop\n        /* \"#utility.yul\":5170:5344   */\n      swap2\n      swap1\n      pop\n      jump\t// out\n        /* \"#utility.yul\":5350:5670   */\n    tag_182:\n      0x00\n        /* \"#utility.yul\":5513:5580   */\n      tag_184\n        /* \"#utility.yul\":5577:5579   */\n      0x16\n        /* \"#utility.yul\":5572:5575   */\n      dup4\n        /* \"#utility.yul\":5513:5580   */\n      tag_176\n      jump\t// in\n    tag_184:\n        /* \"#utility.yul\":5506:5580   */\n      swap2\n      pop\n        /* \"#utility.yul\":5610:5634   */\n      0x594f5520415245204e4f5420544845204f574e45522100000000000000000000\n        /* \"#utility.yul\":5606:5607   */\n      0x00\n        /* \"#utility.yul\":5601:5604   */\n      dup4\n        /* \"#utility.yul\":5597:5608   */\n      add\n        /* \"#utility.yul\":5590:5635   */\n      mstore\n        /* \"#utility.yul\":5661:5663   */\n      0x20\n        /* \"#utility.yul\":5656:5659   */\n      dup3\n        /* \"#utility.yul\":5652:5664   */\n      add\n        /* \"#utility.yul\":5645:5664   */\n      swap1\n      pop\n        /* \"#utility.yul\":5496:5670   */\n      swap2\n      swap1\n      pop\n      jump\t// out\n        /* \"#utility.yul\":5728:6675   */\n    tag_140:\n      0x00\n        /* \"#utility.yul\":5865:5869   */\n      0x80\n        /* \"#utility.yul\":5860:5863   */\n      dup4\n        /* \"#utility.yul\":5856:5870   */\n      add\n        /* \"#utility.yul\":5954:5958   */\n      0x00\n        /* \"#utility.yul\":5947:5952   */\n      dup4\n        /* \"#utility.yul\":5943:5959   */\n      add\n        /* \"#utility.yul\":5937:5960   */\n      mload\n        /* \"#utility.yul\":5973:6036   */\n      tag_186\n        /* \"#utility.yul\":6030:6034   */\n      0x00\n        /* \"#utility.yul\":6025:6028   */\n      dup7\n        /* \"#utility.yul\":6021:6035   */\n      add\n        /* \"#utility.yul\":6007:6019   */\n      dup3\n        /* \"#utility.yul\":5973:6036   */\n      tag_141\n      jump\t// in\n    tag_186:\n        /* \"#utility.yul\":5880:6046   */\n      pop\n        /* \"#utility.yul\":6131:6135   */\n      0x20\n        /* \"#utility.yul\":6124:6129   */\n      dup4\n        /* \"#utility.yul\":6120:6136   */\n      add\n        /* \"#utility.yul\":6114:6137   */\n      mload\n        /* \"#utility.yul\":6184:6187   */\n      dup5\n        /* \"#utility.yul\":6178:6182   */\n      dup3\n        /* \"#utility.yul\":6174:6188   */\n      sub\n        /* \"#utility.yul\":6167:6171   */\n      0x20\n        /* \"#utility.yul\":6162:6165   */\n      dup7\n        /* \"#utility.yul\":6158:6172   */\n      add\n        /* \"#utility.yul\":6151:6189   */\n      mstore\n        /* \"#utility.yul\":6210:6283   */\n      tag_187\n        /* \"#utility.yul\":6278:6282   */\n      dup3\n        /* \"#utility.yul\":6264:6276   */\n      dup3\n        /* \"#utility.yul\":6210:6283   */\n      tag_162\n      jump\t// in\n    tag_187:\n        /* \"#utility.yul\":6202:6283   */\n      swap2\n      pop\n        /* \"#utility.yul\":6056:6294   */\n      pop\n        /* \"#utility.yul\":6381:6385   */\n      0x40\n        /* \"#utility.yul\":6374:6379   */\n      dup4\n        /* \"#utility.yul\":6370:6386   */\n      add\n        /* \"#utility.yul\":6364:6387   */\n      mload\n        /* \"#utility.yul\":6400:6463   */\n      tag_188\n        /* \"#utility.yul\":6457:6461   */\n      0x40\n        /* \"#utility.yul\":6452:6455   */\n      dup7\n        /* \"#utility.yul\":6448:6462   */\n      add\n        /* \"#utility.yul\":6434:6446   */\n      dup3\n        /* \"#utility.yul\":6400:6463   */\n      tag_189\n      jump\t// in\n    tag_188:\n        /* \"#utility.yul\":6304:6473   */\n      pop\n        /* \"#utility.yul\":6556:6560   */\n      0x60\n        /* \"#utility.yul\":6549:6554   */\n      dup4\n        /* \"#utility.yul\":6545:6561   */\n      add\n        /* \"#utility.yul\":6539:6562   */\n      mload\n        /* \"#utility.yul\":6575:6638   */\n      tag_190\n        /* \"#utility.yul\":6632:6636   */\n      0x60\n        /* \"#utility.yul\":6627:6630   */\n      dup7\n        /* \"#utility.yul\":6623:6637   */\n      add\n        /* \"#utility.yul\":6609:6621   */\n      dup3\n        /* \"#utility.yul\":6575:6638   */\n      tag_189\n      jump\t// in\n    tag_190:\n        /* \"#utility.yul\":6483:6648   */\n      pop\n        /* \"#utility.yul\":6665:6669   */\n      dup1\n        /* \"#utility.yul\":6658:6669   */\n      swap2\n      pop\n        /* \"#utility.yul\":5834:6675   */\n      pop\n      swap3\n      swap2\n      pop\n      pop\n      jump\t// out\n        /* \"#utility.yul\":6733:7690   */\n    tag_191:\n      0x00\n        /* \"#utility.yul\":6880:6884   */\n      0x80\n        /* \"#utility.yul\":6875:6878   */\n      dup4\n        /* \"#utility.yul\":6871:6885   */\n      add\n        /* \"#utility.yul\":6969:6973   */\n      0x00\n        /* \"#utility.yul\":6962:6967   */\n      dup4\n        /* \"#utility.yul\":6958:6974   */\n      add\n        /* \"#utility.yul\":6952:6975   */\n      mload\n        /* \"#utility.yul\":6988:7051   */\n      tag_193\n        /* \"#utility.yul\":7045:7049   */\n      0x00\n        /* \"#utility.yul\":7040:7043   */\n      dup7\n        /* \"#utility.yul\":7036:7050   */\n      add\n        /* \"#utility.yul\":7022:7034   */\n      dup3\n        /* \"#utility.yul\":6988:7051   */\n      tag_141\n      jump\t// in\n    tag_193:\n        /* \"#utility.yul\":6895:7061   */\n      pop\n        /* \"#utility.yul\":7146:7150   */\n      0x20\n        /* \"#utility.yul\":7139:7144   */\n      dup4\n        /* \"#utility.yul\":7135:7151   */\n      add\n        /* \"#utility.yul\":7129:7152   */\n      mload\n        /* \"#utility.yul\":7199:7202   */\n      dup5\n        /* \"#utility.yul\":7193:7197   */\n      dup3\n        /* \"#utility.yul\":7189:7203   */\n      sub\n        /* \"#utility.yul\":7182:7186   */\n      0x20\n        /* \"#utility.yul\":7177:7180   */\n      dup7\n        /* \"#utility.yul\":7173:7187   */\n      add\n        /* \"#utility.yul\":7166:7204   */\n      mstore\n        /* \"#utility.yul\":7225:7298   */\n      tag_194\n        /* \"#utility.yul\":7293:7297   */\n      dup3\n        /* \"#utility.yul\":7279:7291   */\n      dup3\n        /* \"#utility.yul\":7225:7298   */\n      tag_162\n      jump\t// in\n    tag_194:\n        /* \"#utility.yul\":7217:7298   */\n      swap2\n      pop\n        /* \"#utility.yul\":7071:7309   */\n      pop\n        /* \"#utility.yul\":7396:7400   */\n      0x40\n        /* \"#utility.yul\":7389:7394   */\n      dup4\n        /* \"#utility.yul\":7385:7401   */\n      add\n        /* \"#utility.yul\":7379:7402   */\n      mload\n        /* \"#utility.yul\":7415:7478   */\n      tag_195\n        /* \"#utility.yul\":7472:7476   */\n      0x40\n        /* \"#utility.yul\":7467:7470   */\n      dup7\n        /* \"#utility.yul\":7463:7477   */\n      add\n        /* \"#utility.yul\":7449:7461   */\n      dup3\n        /* \"#utility.yul\":7415:7478   */\n      tag_189\n      jump\t// in\n    tag_195:\n        /* \"#utility.yul\":7319:7488   */\n      pop\n        /* \"#utility.yul\":7571:7575   */\n      0x60\n        /* \"#utility.yul\":7564:7569   */\n      dup4\n        /* \"#utility.yul\":7560:7576   */\n      add\n        /* \"#utility.yul\":7554:7577   */\n      mload\n        /* \"#utility.yul\":7590:7653   */\n      tag_196\n        /* \"#utility.yul\":7647:7651   */\n      0x60\n        /* \"#utility.yul\":7642:7645   */\n      dup7\n        /* \"#utility.yul\":7638:7652   */\n      add\n        /* \"#utility.yul\":7624:7636   */\n      dup3\n        /* \"#utility.yul\":7590:7653   */\n      tag_189\n      jump\t// in\n    tag_196:\n        /* \"#utility.yul\":7498:7663   */\n      pop\n        /* \"#utility.yul\":7680:7684   */\n      dup1\n        /* \"#utility.yul\":7673:7684   */\n      swap2\n      pop\n        /* \"#utility.yul\":6849:7690   */\n      pop\n      swap3\n      swap2\n      pop\n      pop\n      jump\t// out\n        /* \"#utility.yul\":7696:7811   */\n    tag_197:\n        /* \"#utility.yul\":7781:7804   */\n      tag_199\n        /* \"#utility.yul\":7798:7803   */\n      dup2\n        /* \"#utility.yul\":7781:7804   */\n      tag_200\n      jump\t// in\n    tag_199:\n        /* \"#utility.yul\":7776:7779   */\n      dup3\n        /* \"#utility.yul\":7769:7805   */\n      mstore\n        /* \"#utility.yul\":7759:7811   */\n      pop\n      pop\n      jump\t// out\n        /* \"#utility.yul\":7817:7925   */\n    tag_189:\n        /* \"#utility.yul\":7894:7918   */\n      tag_202\n        /* \"#utility.yul\":7912:7917   */\n      dup2\n        /* \"#utility.yul\":7894:7918   */\n      tag_203\n      jump\t// in\n    tag_202:\n        /* \"#utility.yul\":7889:7892   */\n      dup3\n        /* \"#utility.yul\":7882:7919   */\n      mstore\n        /* \"#utility.yul\":7872:7925   */\n      pop\n      pop\n      jump\t// out\n        /* \"#utility.yul\":7931:8049   */\n    tag_204:\n        /* \"#utility.yul\":8018:8042   */\n      tag_206\n        /* \"#utility.yul\":8036:8041   */\n      dup2\n        /* \"#utility.yul\":8018:8042   */\n      tag_203\n      jump\t// in\n    tag_206:\n        /* \"#utility.yul\":8013:8016   */\n      dup3\n        /* \"#utility.yul\":8006:8043   */\n      mstore\n        /* \"#utility.yul\":7996:8049   */\n      pop\n      pop\n      jump\t// out\n        /* \"#utility.yul\":8055:8277   */\n    tag_38:\n      0x00\n        /* \"#utility.yul\":8186:8188   */\n      0x20\n        /* \"#utility.yul\":8175:8184   */\n      dup3\n        /* \"#utility.yul\":8171:8189   */\n      add\n        /* \"#utility.yul\":8163:8189   */\n      swap1\n      pop\n        /* \"#utility.yul\":8199:8270   */\n      tag_208\n        /* \"#utility.yul\":8267:8268   */\n      0x00\n        /* \"#utility.yul\":8256:8265   */\n      dup4\n        /* \"#utility.yul\":8252:8269   */\n      add\n        /* \"#utility.yul\":8243:8249   */\n      dup5\n        /* \"#utility.yul\":8199:8270   */\n      tag_145\n      jump\t// in\n    tag_208:\n        /* \"#utility.yul\":8153:8277   */\n      swap3\n      swap2\n      pop\n      pop\n      jump\t// out\n        /* \"#utility.yul\":8283:8927   */\n    tag_16:\n      0x00\n        /* \"#utility.yul\":8518:8521   */\n      0x80\n        /* \"#utility.yul\":8507:8516   */\n      dup3\n        /* \"#utility.yul\":8503:8522   */\n      add\n        /* \"#utility.yul\":8495:8522   */\n      swap1\n      pop\n        /* \"#utility.yul\":8532:8603   */\n      tag_210\n        /* \"#utility.yul\":8600:8601   */\n      0x00\n        /* \"#utility.yul\":8589:8598   */\n      dup4\n        /* \"#utility.yul\":8585:8602   */\n      add\n        /* \"#utility.yul\":8576:8582   */\n      dup8\n        /* \"#utility.yul\":8532:8603   */\n      tag_145\n      jump\t// in\n    tag_210:\n        /* \"#utility.yul\":8650:8659   */\n      dup2\n        /* \"#utility.yul\":8644:8648   */\n      dup2\n        /* \"#utility.yul\":8640:8660   */\n      sub\n        /* \"#utility.yul\":8635:8637   */\n      0x20\n        /* \"#utility.yul\":8624:8633   */\n      dup4\n        /* \"#utility.yul\":8620:8638   */\n      add\n        /* \"#utility.yul\":8613:8661   */\n      mstore\n        /* \"#utility.yul\":8678:8756   */\n      tag_211\n        /* \"#utility.yul\":8751:8755   */\n      dup2\n        /* \"#utility.yul\":8742:8748   */\n      dup7\n        /* \"#utility.yul\":8678:8756   */\n      tag_172\n      jump\t// in\n    tag_211:\n        /* \"#utility.yul\":8670:8756   */\n      swap1\n      pop\n        /* \"#utility.yul\":8766:8838   */\n      tag_212\n        /* \"#utility.yul\":8834:8836   */\n      0x40\n        /* \"#utility.yul\":8823:8832   */\n      dup4\n        /* \"#utility.yul\":8819:8837   */\n      add\n        /* \"#utility.yul\":8810:8816   */\n      dup6\n        /* \"#utility.yul\":8766:8838   */\n      tag_204\n      jump\t// in\n    tag_212:\n        /* \"#utility.yul\":8848:8920   */\n      tag_213\n        /* \"#utility.yul\":8916:8918   */\n      0x60\n        /* \"#utility.yul\":8905:8914   */\n      dup4\n        /* \"#utility.yul\":8901:8919   */\n      add\n        /* \"#utility.yul\":8892:8898   */\n      dup5\n        /* \"#utility.yul\":8848:8920   */\n      tag_204\n      jump\t// in\n    tag_213:\n        /* \"#utility.yul\":8485:8927   */\n      swap6\n      swap5\n      pop\n      pop\n      pop\n      pop\n      pop\n      jump\t// out\n        /* \"#utility.yul\":8933:9390   */\n    tag_22:\n      0x00\n        /* \"#utility.yul\":9156:9158   */\n      0x20\n        /* \"#utility.yul\":9145:9154   */\n      dup3\n        /* \"#utility.yul\":9141:9159   */\n      add\n        /* \"#utility.yul\":9133:9159   */\n      swap1\n      pop\n        /* \"#utility.yul\":9205:9214   */\n      dup2\n        /* \"#utility.yul\":9199:9203   */\n      dup2\n        /* \"#utility.yul\":9195:9215   */\n      sub\n        /* \"#utility.yul\":9191:9192   */\n      0x00\n        /* \"#utility.yul\":9180:9189   */\n      dup4\n        /* \"#utility.yul\":9176:9193   */\n      add\n        /* \"#utility.yul\":9169:9216   */\n      mstore\n        /* \"#utility.yul\":9233:9383   */\n      tag_215\n        /* \"#utility.yul\":9378:9382   */\n      dup2\n        /* \"#utility.yul\":9369:9375   */\n      dup5\n        /* \"#utility.yul\":9233:9383   */\n      tag_148\n      jump\t// in\n    tag_215:\n        /* \"#utility.yul\":9225:9383   */\n      swap1\n      pop\n        /* \"#utility.yul\":9123:9390   */\n      swap3\n      swap2\n      pop\n      pop\n      jump\t// out\n        /* \"#utility.yul\":9396:9815   */\n    tag_70:\n      0x00\n        /* \"#utility.yul\":9600:9602   */\n      0x20\n        /* \"#utility.yul\":9589:9598   */\n      dup3\n        /* \"#utility.yul\":9585:9603   */\n      add\n        /* \"#utility.yul\":9577:9603   */\n      swap1\n      pop\n        /* \"#utility.yul\":9649:9658   */\n      dup2\n        /* \"#utility.yul\":9643:9647   */\n      dup2\n        /* \"#utility.yul\":9639:9659   */\n      sub\n        /* \"#utility.yul\":9635:9636   */\n      0x00\n        /* \"#utility.yul\":9624:9633   */\n      dup4\n        /* \"#utility.yul\":9620:9637   */\n      add\n        /* \"#utility.yul\":9613:9660   */\n      mstore\n        /* \"#utility.yul\":9677:9808   */\n      tag_217\n        /* \"#utility.yul\":9803:9807   */\n      dup2\n        /* \"#utility.yul\":9677:9808   */\n      tag_179\n      jump\t// in\n    tag_217:\n        /* \"#utility.yul\":9669:9808   */\n      swap1\n      pop\n        /* \"#utility.yul\":9567:9815   */\n      swap2\n      swap1\n      pop\n      jump\t// out\n        /* \"#utility.yul\":9821:10240   */\n    tag_65:\n      0x00\n        /* \"#utility.yul\":10025:10027   */\n      0x20\n        /* \"#utility.yul\":10014:10023   */\n      dup3\n        /* \"#utility.yul\":10010:10028   */\n      add\n        /* \"#utility.yul\":10002:10028   */\n      swap1\n      pop\n        /* \"#utility.yul\":10074:10083   */\n      dup2\n        /* \"#utility.yul\":10068:10072   */\n      dup2\n        /* \"#utility.yul\":10064:10084   */\n      sub\n        /* \"#utility.yul\":10060:10061   */\n      0x00\n        /* \"#utility.yul\":10049:10058   */\n      dup4\n        /* \"#utility.yul\":10045:10062   */\n      add\n        /* \"#utility.yul\":10038:10085   */\n      mstore\n        /* \"#utility.yul\":10102:10233   */\n      tag_219\n        /* \"#utility.yul\":10228:10232   */\n      dup2\n        /* \"#utility.yul\":10102:10233   */\n      tag_182\n      jump\t// in\n    tag_219:\n        /* \"#utility.yul\":10094:10233   */\n      swap1\n      pop\n        /* \"#utility.yul\":9992:10240   */\n      swap2\n      swap1\n      pop\n      jump\t// out\n        /* \"#utility.yul\":10246:10603   */\n    tag_44:\n      0x00\n        /* \"#utility.yul\":10419:10421   */\n      0x20\n        /* \"#utility.yul\":10408:10417   */\n      dup3\n        /* \"#utility.yul\":10404:10422   */\n      add\n        /* \"#utility.yul\":10396:10422   */\n      swap1\n      pop\n        /* \"#utility.yul\":10468:10477   */\n      dup2\n        /* \"#utility.yul\":10462:10466   */\n      dup2\n        /* \"#utility.yul\":10458:10478   */\n      sub\n        /* \"#utility.yul\":10454:10455   */\n      0x00\n        /* \"#utility.yul\":10443:10452   */\n      dup4\n        /* \"#utility.yul\":10439:10456   */\n      add\n        /* \"#utility.yul\":10432:10479   */\n      mstore\n        /* \"#utility.yul\":10496:10596   */\n      tag_221\n        /* \"#utility.yul\":10591:10595   */\n      dup2\n        /* \"#utility.yul\":10582:10588   */\n      dup5\n        /* \"#utility.yul\":10496:10596   */\n      tag_191\n      jump\t// in\n    tag_221:\n        /* \"#utility.yul\":10488:10596   */\n      swap1\n      pop\n        /* \"#utility.yul\":10386:10603   */\n      swap3\n      swap2\n      pop\n      pop\n      jump\t// out\n        /* \"#utility.yul\":10609:10827   */\n    tag_30:\n      0x00\n        /* \"#utility.yul\":10738:10740   */\n      0x20\n        /* \"#utility.yul\":10727:10736   */\n      dup3\n        /* \"#utility.yul\":10723:10741   */\n      add\n        /* \"#utility.yul\":10715:10741   */\n      swap1\n      pop\n        /* \"#utility.yul\":10751:10820   */\n      tag_223\n        /* \"#utility.yul\":10817:10818   */\n      0x00\n        /* \"#utility.yul\":10806:10815   */\n      dup4\n        /* \"#utility.yul\":10802:10819   */\n      add\n        /* \"#utility.yul\":10793:10799   */\n      dup5\n        /* \"#utility.yul\":10751:10820   */\n      tag_197\n      jump\t// in\n    tag_223:\n        /* \"#utility.yul\":10705:10827   */\n      swap3\n      swap2\n      pop\n      pop\n      jump\t// out\n        /* \"#utility.yul\":10833:11116   */\n    tag_100:\n      0x00\n        /* \"#utility.yul\":10899:10901   */\n      0x40\n        /* \"#utility.yul\":10893:10902   */\n      mload\n        /* \"#utility.yul\":10883:10902   */\n      swap1\n      pop\n        /* \"#utility.yul\":10941:10945   */\n      dup2\n        /* \"#utility.yul\":10933:10939   */\n      dup2\n        /* \"#utility.yul\":10929:10946   */\n      add\n        /* \"#utility.yul\":11048:11054   */\n      dup2\n        /* \"#utility.yul\":11036:11046   */\n      dup2\n        /* \"#utility.yul\":11033:11055   */\n      lt\n        /* \"#utility.yul\":11012:11030   */\n      0xffffffffffffffff\n        /* \"#utility.yul\":11000:11010   */\n      dup3\n        /* \"#utility.yul\":10997:11031   */\n      gt\n        /* \"#utility.yul\":10994:11056   */\n      or\n        /* \"#utility.yul\":10991:10993   */\n      iszero\n      tag_225\n      jumpi\n        /* \"#utility.yul\":11059:11077   */\n      tag_226\n      tag_227\n      jump\t// in\n    tag_226:\n        /* \"#utility.yul\":10991:10993   */\n    tag_225:\n        /* \"#utility.yul\":11099:11109   */\n      dup1\n        /* \"#utility.yul\":11095:11097   */\n      0x40\n        /* \"#utility.yul\":11088:11110   */\n      mstore\n        /* \"#utility.yul\":10873:11116   */\n      pop\n      swap2\n      swap1\n      pop\n      jump\t// out\n        /* \"#utility.yul\":11122:11454   */\n    tag_99:\n      0x00\n        /* \"#utility.yul\":11274:11292   */\n      0xffffffffffffffff\n        /* \"#utility.yul\":11266:11272   */\n      dup3\n        /* \"#utility.yul\":11263:11293   */\n      gt\n        /* \"#utility.yul\":11260:11262   */\n      iszero\n      tag_229\n      jumpi\n        /* \"#utility.yul\":11296:11314   */\n      tag_230\n      tag_227\n      jump\t// in\n    tag_230:\n        /* \"#utility.yul\":11260:11262   */\n    tag_229:\n        /* \"#utility.yul\":11381:11385   */\n      0x1f\n        /* \"#utility.yul\":11377:11386   */\n      not\n        /* \"#utility.yul\":11370:11374   */\n      0x1f\n        /* \"#utility.yul\":11362:11368   */\n      dup4\n        /* \"#utility.yul\":11358:11375   */\n      add\n        /* \"#utility.yul\":11354:11387   */\n      and\n        /* \"#utility.yul\":11346:11387   */\n      swap1\n      pop\n        /* \"#utility.yul\":11442:11446   */\n      0x20\n        /* \"#utility.yul\":11436:11440   */\n      dup2\n        /* \"#utility.yul\":11432:11447   */\n      add\n        /* \"#utility.yul\":11424:11447   */\n      swap1\n      pop\n        /* \"#utility.yul\":11189:11454   */\n      swap2\n      swap1\n      pop\n      jump\t// out\n        /* \"#utility.yul\":11460:11613   */\n    tag_155:\n      0x00\n        /* \"#utility.yul\":11571:11574   */\n      dup2\n        /* \"#utility.yul\":11563:11574   */\n      swap1\n      pop\n        /* \"#utility.yul\":11601:11605   */\n      0x20\n        /* \"#utility.yul\":11596:11599   */\n      dup3\n        /* \"#utility.yul\":11592:11606   */\n      add\n        /* \"#utility.yul\":11584:11606   */\n      swap1\n      pop\n        /* \"#utility.yul\":11553:11613   */\n      swap2\n      swap1\n      pop\n      jump\t// out\n        /* \"#utility.yul\":11619:11754   */\n    tag_151:\n      0x00\n        /* \"#utility.yul\":11741:11746   */\n      dup2\n        /* \"#utility.yul\":11735:11747   */\n      mload\n        /* \"#utility.yul\":11725:11747   */\n      swap1\n      pop\n        /* \"#utility.yul\":11714:11754   */\n      swap2\n      swap1\n      pop\n      jump\t// out\n        /* \"#utility.yul\":11760:11859   */\n    tag_165:\n      0x00\n        /* \"#utility.yul\":11846:11851   */\n      dup2\n        /* \"#utility.yul\":11840:11852   */\n      mload\n        /* \"#utility.yul\":11830:11852   */\n      swap1\n      pop\n        /* \"#utility.yul\":11819:11859   */\n      swap2\n      swap1\n      pop\n      jump\t// out\n        /* \"#utility.yul\":11865:11999   */\n    tag_161:\n      0x00\n        /* \"#utility.yul\":11988:11992   */\n      0x20\n        /* \"#utility.yul\":11983:11986   */\n      dup3\n        /* \"#utility.yul\":11979:11993   */\n      add\n        /* \"#utility.yul\":11971:11993   */\n      swap1\n      pop\n        /* \"#utility.yul\":11961:11999   */\n      swap2\n      swap1\n      pop\n      jump\t// out\n        /* \"#utility.yul\":12005:12210   */\n    tag_153:\n      0x00\n        /* \"#utility.yul\":12159:12165   */\n      dup3\n        /* \"#utility.yul\":12154:12157   */\n      dup3\n        /* \"#utility.yul\":12147:12166   */\n      mstore\n        /* \"#utility.yul\":12199:12203   */\n      0x20\n        /* \"#utility.yul\":12194:12197   */\n      dup3\n        /* \"#utility.yul\":12190:12204   */\n      add\n        /* \"#utility.yul\":12175:12204   */\n      swap1\n      pop\n        /* \"#utility.yul\":12137:12210   */\n      swap3\n      swap2\n      pop\n      pop\n      jump\t// out\n        /* \"#utility.yul\":12216:12375   */\n    tag_167:\n      0x00\n        /* \"#utility.yul\":12324:12330   */\n      dup3\n        /* \"#utility.yul\":12319:12322   */\n      dup3\n        /* \"#utility.yul\":12312:12331   */\n      mstore\n        /* \"#utility.yul\":12364:12368   */\n      0x20\n        /* \"#utility.yul\":12359:12362   */\n      dup3\n        /* \"#utility.yul\":12355:12369   */\n      add\n        /* \"#utility.yul\":12340:12369   */\n      swap1\n      pop\n        /* \"#utility.yul\":12302:12375   */\n      swap3\n      swap2\n      pop\n      pop\n      jump\t// out\n        /* \"#utility.yul\":12381:12550   */\n    tag_176:\n      0x00\n        /* \"#utility.yul\":12499:12505   */\n      dup3\n        /* \"#utility.yul\":12494:12497   */\n      dup3\n        /* \"#utility.yul\":12487:12506   */\n      mstore\n        /* \"#utility.yul\":12539:12543   */\n      0x20\n        /* \"#utility.yul\":12534:12537   */\n      dup3\n        /* \"#utility.yul\":12530:12544   */\n      add\n        /* \"#utility.yul\":12515:12544   */\n      swap1\n      pop\n        /* \"#utility.yul\":12477:12550   */\n      swap3\n      swap2\n      pop\n      pop\n      jump\t// out\n        /* \"#utility.yul\":12556:12652   */\n    tag_144:\n      0x00\n        /* \"#utility.yul\":12622:12646   */\n      tag_239\n        /* \"#utility.yul\":12640:12645   */\n      dup3\n        /* \"#utility.yul\":12622:12646   */\n      tag_240\n      jump\t// in\n    tag_239:\n        /* \"#utility.yul\":12611:12646   */\n      swap1\n      pop\n        /* \"#utility.yul\":12601:12652   */\n      swap2\n      swap1\n      pop\n      jump\t// out\n        /* \"#utility.yul\":12658:12747   */\n    tag_200:\n      0x00\n        /* \"#utility.yul\":12734:12740   */\n      0xffff\n        /* \"#utility.yul\":12727:12732   */\n      dup3\n        /* \"#utility.yul\":12723:12741   */\n      and\n        /* \"#utility.yul\":12712:12741   */\n      swap1\n      pop\n        /* \"#utility.yul\":12702:12747   */\n      swap2\n      swap1\n      pop\n      jump\t// out\n        /* \"#utility.yul\":12753:12879   */\n    tag_240:\n      0x00\n        /* \"#utility.yul\":12830:12872   */\n      0xffffffffffffffffffffffffffffffffffffffff\n        /* \"#utility.yul\":12823:12828   */\n      dup3\n        /* \"#utility.yul\":12819:12873   */\n      and\n        /* \"#utility.yul\":12808:12873   */\n      swap1\n      pop\n        /* \"#utility.yul\":12798:12879   */\n      swap2\n      swap1\n      pop\n      jump\t// out\n        /* \"#utility.yul\":12885:12962   */\n    tag_203:\n      0x00\n        /* \"#utility.yul\":12951:12956   */\n      dup2\n        /* \"#utility.yul\":12940:12956   */\n      swap1\n      pop\n        /* \"#utility.yul\":12930:12962   */\n      swap2\n      swap1\n      pop\n      jump\t// out\n        /* \"#utility.yul\":12968:13122   */\n    tag_103:\n        /* \"#utility.yul\":13052:13058   */\n      dup3\n        /* \"#utility.yul\":13047:13050   */\n      dup2\n        /* \"#utility.yul\":13042:13045   */\n      dup4\n        /* \"#utility.yul\":13029:13059   */\n      calldatacopy\n        /* \"#utility.yul\":13114:13115   */\n      0x00\n        /* \"#utility.yul\":13105:13111   */\n      dup4\n        /* \"#utility.yul\":13100:13103   */\n      dup4\n        /* \"#utility.yul\":13096:13112   */\n      add\n        /* \"#utility.yul\":13089:13116   */\n      mstore\n        /* \"#utility.yul\":13019:13122   */\n      pop\n      pop\n      pop\n      jump\t// out\n        /* \"#utility.yul\":13128:13435   */\n    tag_169:\n        /* \"#utility.yul\":13196:13197   */\n      0x00\n        /* \"#utility.yul\":13206:13319   */\n    tag_246:\n        /* \"#utility.yul\":13220:13226   */\n      dup4\n        /* \"#utility.yul\":13217:13218   */\n      dup2\n        /* \"#utility.yul\":13214:13227   */\n      lt\n        /* \"#utility.yul\":13206:13319   */\n      iszero\n      tag_248\n      jumpi\n        /* \"#utility.yul\":13305:13306   */\n      dup1\n        /* \"#utility.yul\":13300:13303   */\n      dup3\n        /* \"#utility.yul\":13296:13307   */\n      add\n        /* \"#utility.yul\":13290:13308   */\n      mload\n        /* \"#utility.yul\":13286:13287   */\n      dup2\n        /* \"#utility.yul\":13281:13284   */\n      dup5\n        /* \"#utility.yul\":13277:13288   */\n      add\n        /* \"#utility.yul\":13270:13309   */\n      mstore\n        /* \"#utility.yul\":13242:13244   */\n      0x20\n        /* \"#utility.yul\":13239:13240   */\n      dup2\n        /* \"#utility.yul\":13235:13245   */\n      add\n        /* \"#utility.yul\":13230:13245   */\n      swap1\n      pop\n        /* \"#utility.yul\":13206:13319   */\n      jump(tag_246)\n    tag_248:\n        /* \"#utility.yul\":13337:13343   */\n      dup4\n        /* \"#utility.yul\":13334:13335   */\n      dup2\n        /* \"#utility.yul\":13331:13344   */\n      gt\n        /* \"#utility.yul\":13328:13330   */\n      iszero\n      tag_249\n      jumpi\n        /* \"#utility.yul\":13417:13418   */\n      0x00\n        /* \"#utility.yul\":13408:13414   */\n      dup5\n        /* \"#utility.yul\":13403:13406   */\n      dup5\n        /* \"#utility.yul\":13399:13415   */\n      add\n        /* \"#utility.yul\":13392:13419   */\n      mstore\n        /* \"#utility.yul\":13328:13330   */\n    tag_249:\n        /* \"#utility.yul\":13177:13435   */\n      pop\n      pop\n      pop\n      pop\n      jump\t// out\n        /* \"#utility.yul\":13441:13761   */\n    tag_48:\n      0x00\n        /* \"#utility.yul\":13522:13523   */\n      0x02\n        /* \"#utility.yul\":13516:13520   */\n      dup3\n        /* \"#utility.yul\":13512:13524   */\n      div\n        /* \"#utility.yul\":13502:13524   */\n      swap1\n      pop\n        /* \"#utility.yul\":13569:13570   */\n      0x01\n        /* \"#utility.yul\":13563:13567   */\n      dup3\n        /* \"#utility.yul\":13559:13571   */\n      and\n        /* \"#utility.yul\":13590:13608   */\n      dup1\n        /* \"#utility.yul\":13580:13582   */\n      tag_251\n      jumpi\n        /* \"#utility.yul\":13646:13650   */\n      0x7f\n        /* \"#utility.yul\":13638:13644   */\n      dup3\n        /* \"#utility.yul\":13634:13651   */\n      and\n        /* \"#utility.yul\":13624:13651   */\n      swap2\n      pop\n        /* \"#utility.yul\":13580:13582   */\n    tag_251:\n        /* \"#utility.yul\":13708:13710   */\n      0x20\n        /* \"#utility.yul\":13700:13706   */\n      dup3\n        /* \"#utility.yul\":13697:13711   */\n      lt\n        /* \"#utility.yul\":13677:13695   */\n      dup2\n        /* \"#utility.yul\":13674:13712   */\n      eq\n        /* \"#utility.yul\":13671:13673   */\n      iszero\n      tag_252\n      jumpi\n        /* \"#utility.yul\":13727:13745   */\n      tag_253\n      tag_254\n      jump\t// in\n    tag_253:\n        /* \"#utility.yul\":13671:13673   */\n    tag_252:\n        /* \"#utility.yul\":13492:13761   */\n      pop\n      swap2\n      swap1\n      pop\n      jump\t// out\n        /* \"#utility.yul\":13767:13947   */\n    tag_254:\n        /* \"#utility.yul\":13815:13892   */\n      0x4e487b7100000000000000000000000000000000000000000000000000000000\n        /* \"#utility.yul\":13812:13813   */\n      0x00\n        /* \"#utility.yul\":13805:13893   */\n      mstore\n        /* \"#utility.yul\":13912:13916   */\n      0x22\n        /* \"#utility.yul\":13909:13910   */\n      0x04\n        /* \"#utility.yul\":13902:13917   */\n      mstore\n        /* \"#utility.yul\":13936:13940   */\n      0x24\n        /* \"#utility.yul\":13933:13934   */\n      0x00\n        /* \"#utility.yul\":13926:13941   */\n      revert\n        /* \"#utility.yul\":13953:14133   */\n    tag_227:\n        /* \"#utility.yul\":14001:14078   */\n      0x4e487b7100000000000000000000000000000000000000000000000000000000\n        /* \"#utility.yul\":13998:13999   */\n      0x00\n        /* \"#utility.yul\":13991:14079   */\n      mstore\n        /* \"#utility.yul\":14098:14102   */\n      0x41\n        /* \"#utility.yul\":14095:14096   */\n      0x04\n        /* \"#utility.yul\":14088:14103   */\n      mstore\n        /* \"#utility.yul\":14122:14126   */\n      0x24\n        /* \"#utility.yul\":14119:14120   */\n      0x00\n        /* \"#utility.yul\":14112:14127   */\n      revert\n        /* \"#utility.yul\":14139:14241   */\n    tag_171:\n      0x00\n        /* \"#utility.yul\":14231:14233   */\n      0x1f\n        /* \"#utility.yul\":14227:14234   */\n      not\n        /* \"#utility.yul\":14222:14224   */\n      0x1f\n        /* \"#utility.yul\":14215:14220   */\n      dup4\n        /* \"#utility.yul\":14211:14225   */\n      add\n        /* \"#utility.yul\":14207:14235   */\n      and\n        /* \"#utility.yul\":14197:14235   */\n      swap1\n      pop\n        /* \"#utility.yul\":14187:14241   */\n      swap2\n      swap1\n      pop\n      jump\t// out\n        /* \"#utility.yul\":14247:14369   */\n    tag_107:\n        /* \"#utility.yul\":14320:14344   */\n      tag_259\n        /* \"#utility.yul\":14338:14343   */\n      dup2\n        /* \"#utility.yul\":14320:14344   */\n      tag_144\n      jump\t// in\n    tag_259:\n        /* \"#utility.yul\":14313:14318   */\n      dup2\n        /* \"#utility.yul\":14310:14345   */\n      eq\n        /* \"#utility.yul\":14300:14302   */\n      tag_260\n      jumpi\n        /* \"#utility.yul\":14359:14360   */\n      0x00\n        /* \"#utility.yul\":14356:14357   */\n      dup1\n        /* \"#utility.yul\":14349:14361   */\n      revert\n        /* \"#utility.yul\":14300:14302   */\n    tag_260:\n        /* \"#utility.yul\":14290:14369   */\n      pop\n      jump\t// out\n        /* \"#utility.yul\":14375:14495   */\n    tag_115:\n        /* \"#utility.yul\":14447:14470   */\n      tag_262\n        /* \"#utility.yul\":14464:14469   */\n      dup2\n        /* \"#utility.yul\":14447:14470   */\n      tag_200\n      jump\t// in\n    tag_262:\n        /* \"#utility.yul\":14440:14445   */\n      dup2\n        /* \"#utility.yul\":14437:14471   */\n      eq\n        /* \"#utility.yul\":14427:14429   */\n      tag_263\n      jumpi\n        /* \"#utility.yul\":14485:14486   */\n      0x00\n        /* \"#utility.yul\":14482:14483   */\n      dup1\n        /* \"#utility.yul\":14475:14487   */\n      revert\n        /* \"#utility.yul\":14427:14429   */\n    tag_263:\n        /* \"#utility.yul\":14417:14495   */\n      pop\n      jump\t// out\n        /* \"#utility.yul\":14501:14623   */\n    tag_119:\n        /* \"#utility.yul\":14574:14598   */\n      tag_265\n        /* \"#utility.yul\":14592:14597   */\n      dup2\n        /* \"#utility.yul\":14574:14598   */\n      tag_203\n      jump\t// in\n    tag_265:\n        /* \"#utility.yul\":14567:14572   */\n      dup2\n        /* \"#utility.yul\":14564:14599   */\n      eq\n        /* \"#utility.yul\":14554:14556   */\n      tag_266\n      jumpi\n        /* \"#utility.yul\":14613:14614   */\n      0x00\n        /* \"#utility.yul\":14610:14611   */\n      dup1\n        /* \"#utility.yul\":14603:14615   */\n      revert\n        /* \"#utility.yul\":14554:14556   */\n    tag_266:\n        /* \"#utility.yul\":14544:14623   */\n      pop\n      jump\t// out\n\n    auxdata: 0xa26469706673582212206ce6b9148167e969f16df41621cc316bf27e937b983136283e9e0fa53c56060964736f6c63430008000033\n}\n",
				"bytecode": {
					"linkReferences": {},
					"object": "60806040526101186000806101000a81548161ffff021916908361ffff16021790555034801561002e57600080fd5b5033600260006101000a81548173ffffffffffffffffffffffffffffffffffffffff021916908373ffffffffffffffffffffffffffffffffffffffff1602179055506110948061007f6000396000f3fe608060405234801561001057600080fd5b506004361061007d5760003560e01c80636eb107971161005b5780636eb10797146101015780637c9cd2bc1461011f5780638da5cb5b1461013b578063c3ad5ecb146101595761007d565b806305a1b4a91461008257806312e7ee1c146100b557806358bfa4ab146100e5575b600080fd5b61009c600480360381019061009791906109c4565b610189565b6040516100ac9493929190610d3a565b60405180910390f35b6100cf60048036038101906100ca919061099b565b61027e565b6040516100dc9190610d86565b60405180910390f35b6100ff60048036038101906100fa9190610a41565b610418565b005b6101096104c7565b6040516101169190610e0a565b60405180910390f35b61013960048036038101906101349190610a00565b6104d9565b005b610143610652565b6040516101509190610d1f565b60405180910390f35b610173600480360381019061016e9190610a6a565b610678565b6040516101809190610de8565b60405180910390f35b600160205281600052604060002081815481106101a557600080fd5b9060005260206000209060040201600091509150508060000160009054906101000a900473ffffffffffffffffffffffffffffffffffffffff16908060010180546101ef90610f78565b80601f016020809104026020016040519081016040528092919081815260200182805461021b90610f78565b80156102685780601f1061023d57610100808354040283529160200191610268565b820191906000526020600020905b81548152906001019060200180831161024b57829003601f168201915b5050505050908060020154908060030154905084565b6060600160008373ffffffffffffffffffffffffffffffffffffffff1673ffffffffffffffffffffffffffffffffffffffff168152602001908152602001600020805480602002602001604051908101604052809291908181526020016000905b8282101561040d57838290600052602060002090600402016040518060800160405290816000820160009054906101000a900473ffffffffffffffffffffffffffffffffffffffff1673ffffffffffffffffffffffffffffffffffffffff1673ffffffffffffffffffffffffffffffffffffffff16815260200160018201805461036890610f78565b80601f016020809104026020016040519081016040528092919081815260200182805461039490610f78565b80156103e15780601f106103b6576101008083540402835291602001916103e1565b820191906000526020600020905b8154815290600101906020018083116103c457829003601f168201915b5050505050815260200160028201548152602001600382015481525050815260200190600101906102df565b505050509050919050565b600260009054906101000a900473ffffffffffffffffffffffffffffffffffffffff1673ffffffffffffffffffffffffffffffffffffffff163373ffffffffffffffffffffffffffffffffffffffff16146104a8576040517f08c379a000000000000000000000000000000000000000000000000000000000815260040161049f90610dc8565b60405180910390fd5b806000806101000a81548161ffff021916908361ffff16021790555050565b60008054906101000a900461ffff1681565b60008054906101000a900461ffff1661ffff168151111561052f576040517f08c379a000000000000000000000000000000000000000000000000000000000815260040161052690610da8565b60405180910390fd5b600060405180608001604052803373ffffffffffffffffffffffffffffffffffffffff16815260200183815260200142815260200160008152509050600160003373ffffffffffffffffffffffffffffffffffffffff1673ffffffffffffffffffffffffffffffffffffffff16815260200190815260200160002081908060018154018082558091505060019003906000526020600020906004020160009091909190915060008201518160000160006101000a81548173ffffffffffffffffffffffffffffffffffffffff021916908373ffffffffffffffffffffffffffffffffffffffff1602179055506020820151816001019080519060200190610637929190610813565b50604082015181600201556060820151816003015550505050565b600260009054906101000a900473ffffffffffffffffffffffffffffffffffffffff1681565b610680610899565b600160003373ffffffffffffffffffffffffffffffffffffffff1673ffffffffffffffffffffffffffffffffffffffff16815260200190815260200160002082815481106106f7577f4e487b7100000000000000000000000000000000000000000000000000000000600052603260045260246000fd5b90600052602060002090600402016040518060800160405290816000820160009054906101000a900473ffffffffffffffffffffffffffffffffffffffff1673ffffffffffffffffffffffffffffffffffffffff1673ffffffffffffffffffffffffffffffffffffffff16815260200160018201805461077690610f78565b80601f01602080910402602001604051908101604052809291908181526020018280546107a290610f78565b80156107ef5780601f106107c4576101008083540402835291602001916107ef565b820191906000526020600020905b8154815290600101906020018083116107d257829003601f168201915b50505050508152602001600282015481526020016003820154815250509050919050565b82805461081f90610f78565b90600052602060002090601f0160209004810192826108415760008555610888565b82601f1061085a57805160ff1916838001178555610888565b82800160010185558215610888579182015b8281111561088757825182559160200191906001019061086c565b5b50905061089591906108d7565b5090565b6040518060800160405280600073ffffffffffffffffffffffffffffffffffffffff1681526020016060815260200160008152602001600081525090565b5b808211156108f05760008160009055506001016108d8565b5090565b600061090761090284610e56565b610e25565b90508281526020810184848401111561091f57600080fd5b61092a848285610f36565b509392505050565b60008135905061094181611019565b92915050565b600082601f83011261095857600080fd5b81356109688482602086016108f4565b91505092915050565b60008135905061098081611030565b92915050565b60008135905061099581611047565b92915050565b6000602082840312156109ad57600080fd5b60006109bb84828501610932565b91505092915050565b600080604083850312156109d757600080fd5b60006109e585828601610932565b92505060206109f685828601610986565b9150509250929050565b600060208284031215610a1257600080fd5b600082013567ffffffffffffffff811115610a2c57600080fd5b610a3884828501610947565b91505092915050565b600060208284031215610a5357600080fd5b6000610a6184828501610971565b91505092915050565b600060208284031215610a7c57600080fd5b6000610a8a84828501610986565b91505092915050565b6000610a9f8383610c2c565b905092915050565b610ab081610eec565b82525050565b610abf81610eec565b82525050565b6000610ad082610e96565b610ada8185610eb9565b935083602082028501610aec85610e86565b8060005b85811015610b285784840389528151610b098582610a93565b9450610b1483610eac565b925060208a01995050600181019050610af0565b50829750879550505050505092915050565b6000610b4582610ea1565b610b4f8185610eca565b9350610b5f818560208601610f45565b610b6881611008565b840191505092915050565b6000610b7e82610ea1565b610b888185610edb565b9350610b98818560208601610f45565b610ba181611008565b840191505092915050565b6000610bb9601683610edb565b91507f547765657420697320746f6f206c6f6e672062726f21000000000000000000006000830152602082019050919050565b6000610bf9601683610edb565b91507f594f5520415245204e4f5420544845204f574e455221000000000000000000006000830152602082019050919050565b6000608083016000830151610c446000860182610aa7565b5060208301518482036020860152610c5c8282610b3a565b9150506040830151610c716040860182610d01565b506060830151610c846060860182610d01565b508091505092915050565b6000608083016000830151610ca76000860182610aa7565b5060208301518482036020860152610cbf8282610b3a565b9150506040830151610cd46040860182610d01565b506060830151610ce76060860182610d01565b508091505092915050565b610cfb81610efe565b82525050565b610d0a81610f2c565b82525050565b610d1981610f2c565b82525050565b6000602082019050610d346000830184610ab6565b92915050565b6000608082019050610d4f6000830187610ab6565b8181036020830152610d618186610b73565b9050610d706040830185610d10565b610d7d6060830184610d10565b95945050505050565b60006020820190508181036000830152610da08184610ac5565b905092915050565b60006020820190508181036000830152610dc181610bac565b9050919050565b60006020820190508181036000830152610de181610bec565b9050919050565b60006020820190508181036000830152610e028184610c8f565b905092915050565b6000602082019050610e1f6000830184610cf2565b92915050565b6000604051905081810181811067ffffffffffffffff82111715610e4c57610e4b610fd9565b5b8060405250919050565b600067ffffffffffffffff821115610e7157610e70610fd9565b5b601f19601f8301169050602081019050919050565b6000819050602082019050919050565b600081519050919050565b600081519050919050565b6000602082019050919050565b600082825260208201905092915050565b600082825260208201905092915050565b600082825260208201905092915050565b6000610ef782610f0c565b9050919050565b600061ffff82169050919050565b600073ffffffffffffffffffffffffffffffffffffffff82169050919050565b6000819050919050565b82818337600083830152505050565b60005b83811015610f63578082015181840152602081019050610f48565b83811115610f72576000848401525b50505050565b60006002820490506001821680610f9057607f821691505b60208210811415610fa457610fa3610faa565b5b50919050565b7f4e487b7100000000000000000000000000000000000000000000000000000000600052602260045260246000fd5b7f4e487b7100000000000000000000000000000000000000000000000000000000600052604160045260246000fd5b6000601f19601f8301169050919050565b61102281610eec565b811461102d57600080fd5b50565b61103981610efe565b811461104457600080fd5b50565b61105081610f2c565b811461105b57600080fd5b5056fea26469706673582212206ce6b9148167e969f16df41621cc316bf27e937b983136283e9e0fa53c56060964736f6c63430008000033",
					"opcodes": "PUSH1 0x80 PUSH1 0x40 MSTORE PUSH2 0x118 PUSH1 0x0 DUP1 PUSH2 0x100 EXP DUP2 SLOAD DUP2 PUSH2 0xFFFF MUL NOT AND SWAP1 DUP4 PUSH2 0xFFFF AND MUL OR SWAP1 SSTORE POP CALLVALUE DUP1 ISZERO PUSH2 0x2E JUMPI PUSH1 0x0 DUP1 REVERT JUMPDEST POP CALLER PUSH1 0x2 PUSH1 0x0 PUSH2 0x100 EXP DUP2 SLOAD DUP2 PUSH20 0xFFFFFFFFFFFFFFFFFFFFFFFFFFFFFFFFFFFFFFFF MUL NOT AND SWAP1 DUP4 PUSH20 0xFFFFFFFFFFFFFFFFFFFFFFFFFFFFFFFFFFFFFFFF AND MUL OR SWAP1 SSTORE POP PUSH2 0x1094 DUP1 PUSH2 0x7F PUSH1 0x0 CODECOPY PUSH1 0x0 RETURN INVALID PUSH1 0x80 PUSH1 0x40 MSTORE CALLVALUE DUP1 ISZERO PUSH2 0x10 JUMPI PUSH1 0x0 DUP1 REVERT JUMPDEST POP PUSH1 0x4 CALLDATASIZE LT PUSH2 0x7D JUMPI PUSH1 0x0 CALLDATALOAD PUSH1 0xE0 SHR DUP1 PUSH4 0x6EB10797 GT PUSH2 0x5B JUMPI DUP1 PUSH4 0x6EB10797 EQ PUSH2 0x101 JUMPI DUP1 PUSH4 0x7C9CD2BC EQ PUSH2 0x11F JUMPI DUP1 PUSH4 0x8DA5CB5B EQ PUSH2 0x13B JUMPI DUP1 PUSH4 0xC3AD5ECB EQ PUSH2 0x159 JUMPI PUSH2 0x7D JUMP JUMPDEST DUP1 PUSH4 0x5A1B4A9 EQ PUSH2 0x82 JUMPI DUP1 PUSH4 0x12E7EE1C EQ PUSH2 0xB5 JUMPI DUP1 PUSH4 0x58BFA4AB EQ PUSH2 0xE5 JUMPI JUMPDEST PUSH1 0x0 DUP1 REVERT JUMPDEST PUSH2 0x9C PUSH1 0x4 DUP1 CALLDATASIZE SUB DUP2 ADD SWAP1 PUSH2 0x97 SWAP2 SWAP1 PUSH2 0x9C4 JUMP JUMPDEST PUSH2 0x189 JUMP JUMPDEST PUSH1 0x40 MLOAD PUSH2 0xAC SWAP5 SWAP4 SWAP3 SWAP2 SWAP1 PUSH2 0xD3A JUMP JUMPDEST PUSH1 0x40 MLOAD DUP1 SWAP2 SUB SWAP1 RETURN JUMPDEST PUSH2 0xCF PUSH1 0x4 DUP1 CALLDATASIZE SUB DUP2 ADD SWAP1 PUSH2 0xCA SWAP2 SWAP1 PUSH2 0x99B JUMP JUMPDEST PUSH2 0x27E JUMP JUMPDEST PUSH1 0x40 MLOAD PUSH2 0xDC SWAP2 SWAP1 PUSH2 0xD86 JUMP JUMPDEST PUSH1 0x40 MLOAD DUP1 SWAP2 SUB SWAP1 RETURN JUMPDEST PUSH2 0xFF PUSH1 0x4 DUP1 CALLDATASIZE SUB DUP2 ADD SWAP1 PUSH2 0xFA SWAP2 SWAP1 PUSH2 0xA41 JUMP JUMPDEST PUSH2 0x418 JUMP JUMPDEST STOP JUMPDEST PUSH2 0x109 PUSH2 0x4C7 JUMP JUMPDEST PUSH1 0x40 MLOAD PUSH2 0x116 SWAP2 SWAP1 PUSH2 0xE0A JUMP JUMPDEST PUSH1 0x40 MLOAD DUP1 SWAP2 SUB SWAP1 RETURN JUMPDEST PUSH2 0x139 PUSH1 0x4 DUP1 CALLDATASIZE SUB DUP2 ADD SWAP1 PUSH2 0x134 SWAP2 SWAP1 PUSH2 0xA00 JUMP JUMPDEST PUSH2 0x4D9 JUMP JUMPDEST STOP JUMPDEST PUSH2 0x143 PUSH2 0x652 JUMP JUMPDEST PUSH1 0x40 MLOAD PUSH2 0x150 SWAP2 SWAP1 PUSH2 0xD1F JUMP JUMPDEST PUSH1 0x40 MLOAD DUP1 SWAP2 SUB SWAP1 RETURN JUMPDEST PUSH2 0x173 PUSH1 0x4 DUP1 CALLDATASIZE SUB DUP2 ADD SWAP1 PUSH2 0x16E SWAP2 SWAP1 PUSH2 0xA6A JUMP JUMPDEST PUSH2 0x678 JUMP JUMPDEST PUSH1 0x40 MLOAD PUSH2 0x180 SWAP2 SWAP1 PUSH2 0xDE8 JUMP JUMPDEST PUSH1 0x40 MLOAD DUP1 SWAP2 SUB SWAP1 RETURN JUMPDEST PUSH1 0x1 PUSH1 0x20 MSTORE DUP2 PUSH1 0x0 MSTORE PUSH1 0x40 PUSH1 0x0 KECCAK256 DUP2 DUP2 SLOAD DUP2 LT PUSH2 0x1A5 JUMPI PUSH1 0x0 DUP1 REVERT JUMPDEST SWAP1 PUSH1 0x0 MSTORE PUSH1 0x20 PUSH1 0x0 KECCAK256 SWAP1 PUSH1 0x4 MUL ADD PUSH1 0x0 SWAP2 POP SWAP2 POP POP DUP1 PUSH1 0x0 ADD PUSH1 0x0 SWAP1 SLOAD SWAP1 PUSH2 0x100 EXP SWAP1 DIV PUSH20 0xFFFFFFFFFFFFFFFFFFFFFFFFFFFFFFFFFFFFFFFF AND SWAP1 DUP1 PUSH1 0x1 ADD DUP1 SLOAD PUSH2 0x1EF SWAP1 PUSH2 0xF78 JUMP JUMPDEST DUP1 PUSH1 0x1F ADD PUSH1 0x20 DUP1 SWAP2 DIV MUL PUSH1 0x20 ADD PUSH1 0x40 MLOAD SWAP1 DUP2 ADD PUSH1 0x40 MSTORE DUP1 SWAP3 SWAP2 SWAP1 DUP2 DUP2 MSTORE PUSH1 0x20 ADD DUP3 DUP1 SLOAD PUSH2 0x21B SWAP1 PUSH2 0xF78 JUMP JUMPDEST DUP1 ISZERO PUSH2 0x268 JUMPI DUP1 PUSH1 0x1F LT PUSH2 0x23D JUMPI PUSH2 0x100 DUP1 DUP4 SLOAD DIV MUL DUP4 MSTORE SWAP2 PUSH1 0x20 ADD SWAP2 PUSH2 0x268 JUMP JUMPDEST DUP3 ADD SWAP2 SWAP1 PUSH1 0x0 MSTORE PUSH1 0x20 PUSH1 0x0 KECCAK256 SWAP1 JUMPDEST DUP2 SLOAD DUP2 MSTORE SWAP1 PUSH1 0x1 ADD SWAP1 PUSH1 0x20 ADD DUP1 DUP4 GT PUSH2 0x24B JUMPI DUP3 SWAP1 SUB PUSH1 0x1F AND DUP3 ADD SWAP2 JUMPDEST POP POP POP POP POP SWAP1 DUP1 PUSH1 0x2 ADD SLOAD SWAP1 DUP1 PUSH1 0x3 ADD SLOAD SWAP1 POP DUP5 JUMP JUMPDEST PUSH1 0x60 PUSH1 0x1 PUSH1 0x0 DUP4 PUSH20 0xFFFFFFFFFFFFFFFFFFFFFFFFFFFFFFFFFFFFFFFF AND PUSH20 0xFFFFFFFFFFFFFFFFFFFFFFFFFFFFFFFFFFFFFFFF AND DUP2 MSTORE PUSH1 0x20 ADD SWAP1 DUP2 MSTORE PUSH1 0x20 ADD PUSH1 0x0 KECCAK256 DUP1 SLOAD DUP1 PUSH1 0x20 MUL PUSH1 0x20 ADD PUSH1 0x40 MLOAD SWAP1 DUP2 ADD PUSH1 0x40 MSTORE DUP1 SWAP3 SWAP2 SWAP1 DUP2 DUP2 MSTORE PUSH1 0x20 ADD PUSH1 0x0 SWAP1 JUMPDEST DUP3 DUP3 LT ISZERO PUSH2 0x40D JUMPI DUP4 DUP3 SWAP1 PUSH1 0x0 MSTORE PUSH1 0x20 PUSH1 0x0 KECCAK256 SWAP1 PUSH1 0x4 MUL ADD PUSH1 0x40 MLOAD DUP1 PUSH1 0x80 ADD PUSH1 0x40 MSTORE SWAP1 DUP2 PUSH1 0x0 DUP3 ADD PUSH1 0x0 SWAP1 SLOAD SWAP1 PUSH2 0x100 EXP SWAP1 DIV PUSH20 0xFFFFFFFFFFFFFFFFFFFFFFFFFFFFFFFFFFFFFFFF AND PUSH20 0xFFFFFFFFFFFFFFFFFFFFFFFFFFFFFFFFFFFFFFFF AND PUSH20 0xFFFFFFFFFFFFFFFFFFFFFFFFFFFFFFFFFFFFFFFF AND DUP2 MSTORE PUSH1 0x20 ADD PUSH1 0x1 DUP3 ADD DUP1 SLOAD PUSH2 0x368 SWAP1 PUSH2 0xF78 JUMP JUMPDEST DUP1 PUSH1 0x1F ADD PUSH1 0x20 DUP1 SWAP2 DIV MUL PUSH1 0x20 ADD PUSH1 0x40 MLOAD SWAP1 DUP2 ADD PUSH1 0x40 MSTORE DUP1 SWAP3 SWAP2 SWAP1 DUP2 DUP2 MSTORE PUSH1 0x20 ADD DUP3 DUP1 SLOAD PUSH2 0x394 SWAP1 PUSH2 0xF78 JUMP JUMPDEST DUP1 ISZERO PUSH2 0x3E1 JUMPI DUP1 PUSH1 0x1F LT PUSH2 0x3B6 JUMPI PUSH2 0x100 DUP1 DUP4 SLOAD DIV MUL DUP4 MSTORE SWAP2 PUSH1 0x20 ADD SWAP2 PUSH2 0x3E1 JUMP JUMPDEST DUP3 ADD SWAP2 SWAP1 PUSH1 0x0 MSTORE PUSH1 0x20 PUSH1 0x0 KECCAK256 SWAP1 JUMPDEST DUP2 SLOAD DUP2 MSTORE SWAP1 PUSH1 0x1 ADD SWAP1 PUSH1 0x20 ADD DUP1 DUP4 GT PUSH2 0x3C4 JUMPI DUP3 SWAP1 SUB PUSH1 0x1F AND DUP3 ADD SWAP2 JUMPDEST POP POP POP POP POP DUP2 MSTORE PUSH1 0x20 ADD PUSH1 0x2 DUP3 ADD SLOAD DUP2 MSTORE PUSH1 0x20 ADD PUSH1 0x3 DUP3 ADD SLOAD DUP2 MSTORE POP POP DUP2 MSTORE PUSH1 0x20 ADD SWAP1 PUSH1 0x1 ADD SWAP1 PUSH2 0x2DF JUMP JUMPDEST POP POP POP POP SWAP1 POP SWAP2 SWAP1 POP JUMP JUMPDEST PUSH1 0x2 PUSH1 0x0 SWAP1 SLOAD SWAP1 PUSH2 0x100 EXP SWAP1 DIV PUSH20 0xFFFFFFFFFFFFFFFFFFFFFFFFFFFFFFFFFFFFFFFF AND PUSH20 0xFFFFFFFFFFFFFFFFFFFFFFFFFFFFFFFFFFFFFFFF AND CALLER PUSH20 0xFFFFFFFFFFFFFFFFFFFFFFFFFFFFFFFFFFFFFFFF AND EQ PUSH2 0x4A8 JUMPI PUSH1 0x40 MLOAD PUSH32 0x8C379A000000000000000000000000000000000000000000000000000000000 DUP2 MSTORE PUSH1 0x4 ADD PUSH2 0x49F SWAP1 PUSH2 0xDC8 JUMP JUMPDEST PUSH1 0x40 MLOAD DUP1 SWAP2 SUB SWAP1 REVERT JUMPDEST DUP1 PUSH1 0x0 DUP1 PUSH2 0x100 EXP DUP2 SLOAD DUP2 PUSH2 0xFFFF MUL NOT AND SWAP1 DUP4 PUSH2 0xFFFF AND MUL OR SWAP1 SSTORE POP POP JUMP JUMPDEST PUSH1 0x0 DUP1 SLOAD SWAP1 PUSH2 0x100 EXP SWAP1 DIV PUSH2 0xFFFF AND DUP2 JUMP JUMPDEST PUSH1 0x0 DUP1 SLOAD SWAP1 PUSH2 0x100 EXP SWAP1 DIV PUSH2 0xFFFF AND PUSH2 0xFFFF AND DUP2 MLOAD GT ISZERO PUSH2 0x52F JUMPI PUSH1 0x40 MLOAD PUSH32 0x8C379A000000000000000000000000000000000000000000000000000000000 DUP2 MSTORE PUSH1 0x4 ADD PUSH2 0x526 SWAP1 PUSH2 0xDA8 JUMP JUMPDEST PUSH1 0x40 MLOAD DUP1 SWAP2 SUB SWAP1 REVERT JUMPDEST PUSH1 0x0 PUSH1 0x40 MLOAD DUP1 PUSH1 0x80 ADD PUSH1 0x40 MSTORE DUP1 CALLER PUSH20 0xFFFFFFFFFFFFFFFFFFFFFFFFFFFFFFFFFFFFFFFF AND DUP2 MSTORE PUSH1 0x20 ADD DUP4 DUP2 MSTORE PUSH1 0x20 ADD TIMESTAMP DUP2 MSTORE PUSH1 0x20 ADD PUSH1 0x0 DUP2 MSTORE POP SWAP1 POP PUSH1 0x1 PUSH1 0x0 CALLER PUSH20 0xFFFFFFFFFFFFFFFFFFFFFFFFFFFFFFFFFFFFFFFF AND PUSH20 0xFFFFFFFFFFFFFFFFFFFFFFFFFFFFFFFFFFFFFFFF AND DUP2 MSTORE PUSH1 0x20 ADD SWAP1 DUP2 MSTORE PUSH1 0x20 ADD PUSH1 0x0 KECCAK256 DUP2 SWAP1 DUP1 PUSH1 0x1 DUP2 SLOAD ADD DUP1 DUP3 SSTORE DUP1 SWAP2 POP POP PUSH1 0x1 SWAP1 SUB SWAP1 PUSH1 0x0 MSTORE PUSH1 0x20 PUSH1 0x0 KECCAK256 SWAP1 PUSH1 0x4 MUL ADD PUSH1 0x0 SWAP1 SWAP2 SWAP1 SWAP2 SWAP1 SWAP2 POP PUSH1 0x0 DUP3 ADD MLOAD DUP2 PUSH1 0x0 ADD PUSH1 0x0 PUSH2 0x100 EXP DUP2 SLOAD DUP2 PUSH20 0xFFFFFFFFFFFFFFFFFFFFFFFFFFFFFFFFFFFFFFFF MUL NOT AND SWAP1 DUP4 PUSH20 0xFFFFFFFFFFFFFFFFFFFFFFFFFFFFFFFFFFFFFFFF AND MUL OR SWAP1 SSTORE POP PUSH1 0x20 DUP3 ADD MLOAD DUP2 PUSH1 0x1 ADD SWAP1 DUP1 MLOAD SWAP1 PUSH1 0x20 ADD SWAP1 PUSH2 0x637 SWAP3 SWAP2 SWAP1 PUSH2 0x813 JUMP JUMPDEST POP PUSH1 0x40 DUP3 ADD MLOAD DUP2 PUSH1 0x2 ADD SSTORE PUSH1 0x60 DUP3 ADD MLOAD DUP2 PUSH1 0x3 ADD SSTORE POP POP POP POP JUMP JUMPDEST PUSH1 0x2 PUSH1 0x0 SWAP1 SLOAD SWAP1 PUSH2 0x100 EXP SWAP1 DIV PUSH20 0xFFFFFFFFFFFFFFFFFFFFFFFFFFFFFFFFFFFFFFFF AND DUP2 JUMP JUMPDEST PUSH2 0x680 PUSH2 0x899 JUMP JUMPDEST PUSH1 0x1 PUSH1 0x0 CALLER PUSH20 0xFFFFFFFFFFFFFFFFFFFFFFFFFFFFFFFFFFFFFFFF AND PUSH20 0xFFFFFFFFFFFFFFFFFFFFFFFFFFFFFFFFFFFFFFFF AND DUP2 MSTORE PUSH1 0x20 ADD SWAP1 DUP2 MSTORE PUSH1 0x20 ADD PUSH1 0x0 KECCAK256 DUP3 DUP2 SLOAD DUP2 LT PUSH2 0x6F7 JUMPI PUSH32 0x4E487B7100000000000000000000000000000000000000000000000000000000 PUSH1 0x0 MSTORE PUSH1 0x32 PUSH1 0x4 MSTORE PUSH1 0x24 PUSH1 0x0 REVERT JUMPDEST SWAP1 PUSH1 0x0 MSTORE PUSH1 0x20 PUSH1 0x0 KECCAK256 SWAP1 PUSH1 0x4 MUL ADD PUSH1 0x40 MLOAD DUP1 PUSH1 0x80 ADD PUSH1 0x40 MSTORE SWAP1 DUP2 PUSH1 0x0 DUP3 ADD PUSH1 0x0 SWAP1 SLOAD SWAP1 PUSH2 0x100 EXP SWAP1 DIV PUSH20 0xFFFFFFFFFFFFFFFFFFFFFFFFFFFFFFFFFFFFFFFF AND PUSH20 0xFFFFFFFFFFFFFFFFFFFFFFFFFFFFFFFFFFFFFFFF AND PUSH20 0xFFFFFFFFFFFFFFFFFFFFFFFFFFFFFFFFFFFFFFFF AND DUP2 MSTORE PUSH1 0x20 ADD PUSH1 0x1 DUP3 ADD DUP1 SLOAD PUSH2 0x776 SWAP1 PUSH2 0xF78 JUMP JUMPDEST DUP1 PUSH1 0x1F ADD PUSH1 0x20 DUP1 SWAP2 DIV MUL PUSH1 0x20 ADD PUSH1 0x40 MLOAD SWAP1 DUP2 ADD PUSH1 0x40 MSTORE DUP1 SWAP3 SWAP2 SWAP1 DUP2 DUP2 MSTORE PUSH1 0x20 ADD DUP3 DUP1 SLOAD PUSH2 0x7A2 SWAP1 PUSH2 0xF78 JUMP JUMPDEST DUP1 ISZERO PUSH2 0x7EF JUMPI DUP1 PUSH1 0x1F LT PUSH2 0x7C4 JUMPI PUSH2 0x100 DUP1 DUP4 SLOAD DIV MUL DUP4 MSTORE SWAP2 PUSH1 0x20 ADD SWAP2 PUSH2 0x7EF JUMP JUMPDEST DUP3 ADD SWAP2 SWAP1 PUSH1 0x0 MSTORE PUSH1 0x20 PUSH1 0x0 KECCAK256 SWAP1 JUMPDEST DUP2 SLOAD DUP2 MSTORE SWAP1 PUSH1 0x1 ADD SWAP1 PUSH1 0x20 ADD DUP1 DUP4 GT PUSH2 0x7D2 JUMPI DUP3 SWAP1 SUB PUSH1 0x1F AND DUP3 ADD SWAP2 JUMPDEST POP POP POP POP POP DUP2 MSTORE PUSH1 0x20 ADD PUSH1 0x2 DUP3 ADD SLOAD DUP2 MSTORE PUSH1 0x20 ADD PUSH1 0x3 DUP3 ADD SLOAD DUP2 MSTORE POP POP SWAP1 POP SWAP2 SWAP1 POP JUMP JUMPDEST DUP3 DUP1 SLOAD PUSH2 0x81F SWAP1 PUSH2 0xF78 JUMP JUMPDEST SWAP1 PUSH1 0x0 MSTORE PUSH1 0x20 PUSH1 0x0 KECCAK256 SWAP1 PUSH1 0x1F ADD PUSH1 0x20 SWAP1 DIV DUP2 ADD SWAP3 DUP3 PUSH2 0x841 JUMPI PUSH1 0x0 DUP6 SSTORE PUSH2 0x888 JUMP JUMPDEST DUP3 PUSH1 0x1F LT PUSH2 0x85A JUMPI DUP1 MLOAD PUSH1 0xFF NOT AND DUP4 DUP1 ADD OR DUP6 SSTORE PUSH2 0x888 JUMP JUMPDEST DUP3 DUP1 ADD PUSH1 0x1 ADD DUP6 SSTORE DUP3 ISZERO PUSH2 0x888 JUMPI SWAP2 DUP3 ADD JUMPDEST DUP3 DUP2 GT ISZERO PUSH2 0x887 JUMPI DUP3 MLOAD DUP3 SSTORE SWAP2 PUSH1 0x20 ADD SWAP2 SWAP1 PUSH1 0x1 ADD SWAP1 PUSH2 0x86C JUMP JUMPDEST JUMPDEST POP SWAP1 POP PUSH2 0x895 SWAP2 SWAP1 PUSH2 0x8D7 JUMP JUMPDEST POP SWAP1 JUMP JUMPDEST PUSH1 0x40 MLOAD DUP1 PUSH1 0x80 ADD PUSH1 0x40 MSTORE DUP1 PUSH1 0x0 PUSH20 0xFFFFFFFFFFFFFFFFFFFFFFFFFFFFFFFFFFFFFFFF AND DUP2 MSTORE PUSH1 0x20 ADD PUSH1 0x60 DUP2 MSTORE PUSH1 0x20 ADD PUSH1 0x0 DUP2 MSTORE PUSH1 0x20 ADD PUSH1 0x0 DUP2 MSTORE POP SWAP1 JUMP JUMPDEST JUMPDEST DUP1 DUP3 GT ISZERO PUSH2 0x8F0 JUMPI PUSH1 0x0 DUP2 PUSH1 0x0 SWAP1 SSTORE POP PUSH1 0x1 ADD PUSH2 0x8D8 JUMP JUMPDEST POP SWAP1 JUMP JUMPDEST PUSH1 0x0 PUSH2 0x907 PUSH2 0x902 DUP5 PUSH2 0xE56 JUMP JUMPDEST PUSH2 0xE25 JUMP JUMPDEST SWAP1 POP DUP3 DUP2 MSTORE PUSH1 0x20 DUP2 ADD DUP5 DUP5 DUP5 ADD GT ISZERO PUSH2 0x91F JUMPI PUSH1 0x0 DUP1 REVERT JUMPDEST PUSH2 0x92A DUP5 DUP3 DUP6 PUSH2 0xF36 JUMP JUMPDEST POP SWAP4 SWAP3 POP POP POP JUMP JUMPDEST PUSH1 0x0 DUP2 CALLDATALOAD SWAP1 POP PUSH2 0x941 DUP2 PUSH2 0x1019 JUMP JUMPDEST SWAP3 SWAP2 POP POP JUMP JUMPDEST PUSH1 0x0 DUP3 PUSH1 0x1F DUP4 ADD SLT PUSH2 0x958 JUMPI PUSH1 0x0 DUP1 REVERT JUMPDEST DUP2 CALLDATALOAD PUSH2 0x968 DUP5 DUP3 PUSH1 0x20 DUP7 ADD PUSH2 0x8F4 JUMP JUMPDEST SWAP2 POP POP SWAP3 SWAP2 POP POP JUMP JUMPDEST PUSH1 0x0 DUP2 CALLDATALOAD SWAP1 POP PUSH2 0x980 DUP2 PUSH2 0x1030 JUMP JUMPDEST SWAP3 SWAP2 POP POP JUMP JUMPDEST PUSH1 0x0 DUP2 CALLDATALOAD SWAP1 POP PUSH2 0x995 DUP2 PUSH2 0x1047 JUMP JUMPDEST SWAP3 SWAP2 POP POP JUMP JUMPDEST PUSH1 0x0 PUSH1 0x20 DUP3 DUP5 SUB SLT ISZERO PUSH2 0x9AD JUMPI PUSH1 0x0 DUP1 REVERT JUMPDEST PUSH1 0x0 PUSH2 0x9BB DUP5 DUP3 DUP6 ADD PUSH2 0x932 JUMP JUMPDEST SWAP2 POP POP SWAP3 SWAP2 POP POP JUMP JUMPDEST PUSH1 0x0 DUP1 PUSH1 0x40 DUP4 DUP6 SUB SLT ISZERO PUSH2 0x9D7 JUMPI PUSH1 0x0 DUP1 REVERT JUMPDEST PUSH1 0x0 PUSH2 0x9E5 DUP6 DUP3 DUP7 ADD PUSH2 0x932 JUMP JUMPDEST SWAP3 POP POP PUSH1 0x20 PUSH2 0x9F6 DUP6 DUP3 DUP7 ADD PUSH2 0x986 JUMP JUMPDEST SWAP2 POP POP SWAP3 POP SWAP3 SWAP1 POP JUMP JUMPDEST PUSH1 0x0 PUSH1 0x20 DUP3 DUP5 SUB SLT ISZERO PUSH2 0xA12 JUMPI PUSH1 0x0 DUP1 REVERT JUMPDEST PUSH1 0x0 DUP3 ADD CALLDATALOAD PUSH8 0xFFFFFFFFFFFFFFFF DUP2 GT ISZERO PUSH2 0xA2C JUMPI PUSH1 0x0 DUP1 REVERT JUMPDEST PUSH2 0xA38 DUP5 DUP3 DUP6 ADD PUSH2 0x947 JUMP JUMPDEST SWAP2 POP POP SWAP3 SWAP2 POP POP JUMP JUMPDEST PUSH1 0x0 PUSH1 0x20 DUP3 DUP5 SUB SLT ISZERO PUSH2 0xA53 JUMPI PUSH1 0x0 DUP1 REVERT JUMPDEST PUSH1 0x0 PUSH2 0xA61 DUP5 DUP3 DUP6 ADD PUSH2 0x971 JUMP JUMPDEST SWAP2 POP POP SWAP3 SWAP2 POP POP JUMP JUMPDEST PUSH1 0x0 PUSH1 0x20 DUP3 DUP5 SUB SLT ISZERO PUSH2 0xA7C JUMPI PUSH1 0x0 DUP1 REVERT JUMPDEST PUSH1 0x0 PUSH2 0xA8A DUP5 DUP3 DUP6 ADD PUSH2 0x986 JUMP JUMPDEST SWAP2 POP POP SWAP3 SWAP2 POP POP JUMP JUMPDEST PUSH1 0x0 PUSH2 0xA9F DUP4 DUP4 PUSH2 0xC2C JUMP JUMPDEST SWAP1 POP SWAP3 SWAP2 POP POP JUMP JUMPDEST PUSH2 0xAB0 DUP2 PUSH2 0xEEC JUMP JUMPDEST DUP3 MSTORE POP POP JUMP JUMPDEST PUSH2 0xABF DUP2 PUSH2 0xEEC JUMP JUMPDEST DUP3 MSTORE POP POP JUMP JUMPDEST PUSH1 0x0 PUSH2 0xAD0 DUP3 PUSH2 0xE96 JUMP JUMPDEST PUSH2 0xADA DUP2 DUP6 PUSH2 0xEB9 JUMP JUMPDEST SWAP4 POP DUP4 PUSH1 0x20 DUP3 MUL DUP6 ADD PUSH2 0xAEC DUP6 PUSH2 0xE86 JUMP JUMPDEST DUP1 PUSH1 0x0 JUMPDEST DUP6 DUP2 LT ISZERO PUSH2 0xB28 JUMPI DUP5 DUP5 SUB DUP10 MSTORE DUP2 MLOAD PUSH2 0xB09 DUP6 DUP3 PUSH2 0xA93 JUMP JUMPDEST SWAP5 POP PUSH2 0xB14 DUP4 PUSH2 0xEAC JUMP JUMPDEST SWAP3 POP PUSH1 0x20 DUP11 ADD SWAP10 POP POP PUSH1 0x1 DUP2 ADD SWAP1 POP PUSH2 0xAF0 JUMP JUMPDEST POP DUP3 SWAP8 POP DUP8 SWAP6 POP POP POP POP POP POP SWAP3 SWAP2 POP POP JUMP JUMPDEST PUSH1 0x0 PUSH2 0xB45 DUP3 PUSH2 0xEA1 JUMP JUMPDEST PUSH2 0xB4F DUP2 DUP6 PUSH2 0xECA JUMP JUMPDEST SWAP4 POP PUSH2 0xB5F DUP2 DUP6 PUSH1 0x20 DUP7 ADD PUSH2 0xF45 JUMP JUMPDEST PUSH2 0xB68 DUP2 PUSH2 0x1008 JUMP JUMPDEST DUP5 ADD SWAP2 POP POP SWAP3 SWAP2 POP POP JUMP JUMPDEST PUSH1 0x0 PUSH2 0xB7E DUP3 PUSH2 0xEA1 JUMP JUMPDEST PUSH2 0xB88 DUP2 DUP6 PUSH2 0xEDB JUMP JUMPDEST SWAP4 POP PUSH2 0xB98 DUP2 DUP6 PUSH1 0x20 DUP7 ADD PUSH2 0xF45 JUMP JUMPDEST PUSH2 0xBA1 DUP2 PUSH2 0x1008 JUMP JUMPDEST DUP5 ADD SWAP2 POP POP SWAP3 SWAP2 POP POP JUMP JUMPDEST PUSH1 0x0 PUSH2 0xBB9 PUSH1 0x16 DUP4 PUSH2 0xEDB JUMP JUMPDEST SWAP2 POP PUSH32 0x547765657420697320746F6F206C6F6E672062726F2100000000000000000000 PUSH1 0x0 DUP4 ADD MSTORE PUSH1 0x20 DUP3 ADD SWAP1 POP SWAP2 SWAP1 POP JUMP JUMPDEST PUSH1 0x0 PUSH2 0xBF9 PUSH1 0x16 DUP4 PUSH2 0xEDB JUMP JUMPDEST SWAP2 POP PUSH32 0x594F5520415245204E4F5420544845204F574E45522100000000000000000000 PUSH1 0x0 DUP4 ADD MSTORE PUSH1 0x20 DUP3 ADD SWAP1 POP SWAP2 SWAP1 POP JUMP JUMPDEST PUSH1 0x0 PUSH1 0x80 DUP4 ADD PUSH1 0x0 DUP4 ADD MLOAD PUSH2 0xC44 PUSH1 0x0 DUP7 ADD DUP3 PUSH2 0xAA7 JUMP JUMPDEST POP PUSH1 0x20 DUP4 ADD MLOAD DUP5 DUP3 SUB PUSH1 0x20 DUP7 ADD MSTORE PUSH2 0xC5C DUP3 DUP3 PUSH2 0xB3A JUMP JUMPDEST SWAP2 POP POP PUSH1 0x40 DUP4 ADD MLOAD PUSH2 0xC71 PUSH1 0x40 DUP7 ADD DUP3 PUSH2 0xD01 JUMP JUMPDEST POP PUSH1 0x60 DUP4 ADD MLOAD PUSH2 0xC84 PUSH1 0x60 DUP7 ADD DUP3 PUSH2 0xD01 JUMP JUMPDEST POP DUP1 SWAP2 POP POP SWAP3 SWAP2 POP POP JUMP JUMPDEST PUSH1 0x0 PUSH1 0x80 DUP4 ADD PUSH1 0x0 DUP4 ADD MLOAD PUSH2 0xCA7 PUSH1 0x0 DUP7 ADD DUP3 PUSH2 0xAA7 JUMP JUMPDEST POP PUSH1 0x20 DUP4 ADD MLOAD DUP5 DUP3 SUB PUSH1 0x20 DUP7 ADD MSTORE PUSH2 0xCBF DUP3 DUP3 PUSH2 0xB3A JUMP JUMPDEST SWAP2 POP POP PUSH1 0x40 DUP4 ADD MLOAD PUSH2 0xCD4 PUSH1 0x40 DUP7 ADD DUP3 PUSH2 0xD01 JUMP JUMPDEST POP PUSH1 0x60 DUP4 ADD MLOAD PUSH2 0xCE7 PUSH1 0x60 DUP7 ADD DUP3 PUSH2 0xD01 JUMP JUMPDEST POP DUP1 SWAP2 POP POP SWAP3 SWAP2 POP POP JUMP JUMPDEST PUSH2 0xCFB DUP2 PUSH2 0xEFE JUMP JUMPDEST DUP3 MSTORE POP POP JUMP JUMPDEST PUSH2 0xD0A DUP2 PUSH2 0xF2C JUMP JUMPDEST DUP3 MSTORE POP POP JUMP JUMPDEST PUSH2 0xD19 DUP2 PUSH2 0xF2C JUMP JUMPDEST DUP3 MSTORE POP POP JUMP JUMPDEST PUSH1 0x0 PUSH1 0x20 DUP3 ADD SWAP1 POP PUSH2 0xD34 PUSH1 0x0 DUP4 ADD DUP5 PUSH2 0xAB6 JUMP JUMPDEST SWAP3 SWAP2 POP POP JUMP JUMPDEST PUSH1 0x0 PUSH1 0x80 DUP3 ADD SWAP1 POP PUSH2 0xD4F PUSH1 0x0 DUP4 ADD DUP8 PUSH2 0xAB6 JUMP JUMPDEST DUP2 DUP2 SUB PUSH1 0x20 DUP4 ADD MSTORE PUSH2 0xD61 DUP2 DUP7 PUSH2 0xB73 JUMP JUMPDEST SWAP1 POP PUSH2 0xD70 PUSH1 0x40 DUP4 ADD DUP6 PUSH2 0xD10 JUMP JUMPDEST PUSH2 0xD7D PUSH1 0x60 DUP4 ADD DUP5 PUSH2 0xD10 JUMP JUMPDEST SWAP6 SWAP5 POP POP POP POP POP JUMP JUMPDEST PUSH1 0x0 PUSH1 0x20 DUP3 ADD SWAP1 POP DUP2 DUP2 SUB PUSH1 0x0 DUP4 ADD MSTORE PUSH2 0xDA0 DUP2 DUP5 PUSH2 0xAC5 JUMP JUMPDEST SWAP1 POP SWAP3 SWAP2 POP POP JUMP JUMPDEST PUSH1 0x0 PUSH1 0x20 DUP3 ADD SWAP1 POP DUP2 DUP2 SUB PUSH1 0x0 DUP4 ADD MSTORE PUSH2 0xDC1 DUP2 PUSH2 0xBAC JUMP JUMPDEST SWAP1 POP SWAP2 SWAP1 POP JUMP JUMPDEST PUSH1 0x0 PUSH1 0x20 DUP3 ADD SWAP1 POP DUP2 DUP2 SUB PUSH1 0x0 DUP4 ADD MSTORE PUSH2 0xDE1 DUP2 PUSH2 0xBEC JUMP JUMPDEST SWAP1 POP SWAP2 SWAP1 POP JUMP JUMPDEST PUSH1 0x0 PUSH1 0x20 DUP3 ADD SWAP1 POP DUP2 DUP2 SUB PUSH1 0x0 DUP4 ADD MSTORE PUSH2 0xE02 DUP2 DUP5 PUSH2 0xC8F JUMP JUMPDEST SWAP1 POP SWAP3 SWAP2 POP POP JUMP JUMPDEST PUSH1 0x0 PUSH1 0x20 DUP3 ADD SWAP1 POP PUSH2 0xE1F PUSH1 0x0 DUP4 ADD DUP5 PUSH2 0xCF2 JUMP JUMPDEST SWAP3 SWAP2 POP POP JUMP JUMPDEST PUSH1 0x0 PUSH1 0x40 MLOAD SWAP1 POP DUP2 DUP2 ADD DUP2 DUP2 LT PUSH8 0xFFFFFFFFFFFFFFFF DUP3 GT OR ISZERO PUSH2 0xE4C JUMPI PUSH2 0xE4B PUSH2 0xFD9 JUMP JUMPDEST JUMPDEST DUP1 PUSH1 0x40 MSTORE POP SWAP2 SWAP1 POP JUMP JUMPDEST PUSH1 0x0 PUSH8 0xFFFFFFFFFFFFFFFF DUP3 GT ISZERO PUSH2 0xE71 JUMPI PUSH2 0xE70 PUSH2 0xFD9 JUMP JUMPDEST JUMPDEST PUSH1 0x1F NOT PUSH1 0x1F DUP4 ADD AND SWAP1 POP PUSH1 0x20 DUP2 ADD SWAP1 POP SWAP2 SWAP1 POP JUMP JUMPDEST PUSH1 0x0 DUP2 SWAP1 POP PUSH1 0x20 DUP3 ADD SWAP1 POP SWAP2 SWAP1 POP JUMP JUMPDEST PUSH1 0x0 DUP2 MLOAD SWAP1 POP SWAP2 SWAP1 POP JUMP JUMPDEST PUSH1 0x0 DUP2 MLOAD SWAP1 POP SWAP2 SWAP1 POP JUMP JUMPDEST PUSH1 0x0 PUSH1 0x20 DUP3 ADD SWAP1 POP SWAP2 SWAP1 POP JUMP JUMPDEST PUSH1 0x0 DUP3 DUP3 MSTORE PUSH1 0x20 DUP3 ADD SWAP1 POP SWAP3 SWAP2 POP POP JUMP JUMPDEST PUSH1 0x0 DUP3 DUP3 MSTORE PUSH1 0x20 DUP3 ADD SWAP1 POP SWAP3 SWAP2 POP POP JUMP JUMPDEST PUSH1 0x0 DUP3 DUP3 MSTORE PUSH1 0x20 DUP3 ADD SWAP1 POP SWAP3 SWAP2 POP POP JUMP JUMPDEST PUSH1 0x0 PUSH2 0xEF7 DUP3 PUSH2 0xF0C JUMP JUMPDEST SWAP1 POP SWAP2 SWAP1 POP JUMP JUMPDEST PUSH1 0x0 PUSH2 0xFFFF DUP3 AND SWAP1 POP SWAP2 SWAP1 POP JUMP JUMPDEST PUSH1 0x0 PUSH20 0xFFFFFFFFFFFFFFFFFFFFFFFFFFFFFFFFFFFFFFFF DUP3 AND SWAP1 POP SWAP2 SWAP1 POP JUMP JUMPDEST PUSH1 0x0 DUP2 SWAP1 POP SWAP2 SWAP1 POP JUMP JUMPDEST DUP3 DUP2 DUP4 CALLDATACOPY PUSH1 0x0 DUP4 DUP4 ADD MSTORE POP POP POP JUMP JUMPDEST PUSH1 0x0 JUMPDEST DUP4 DUP2 LT ISZERO PUSH2 0xF63 JUMPI DUP1 DUP3 ADD MLOAD DUP2 DUP5 ADD MSTORE PUSH1 0x20 DUP2 ADD SWAP1 POP PUSH2 0xF48 JUMP JUMPDEST DUP4 DUP2 GT ISZERO PUSH2 0xF72 JUMPI PUSH1 0x0 DUP5 DUP5 ADD MSTORE JUMPDEST POP POP POP POP JUMP JUMPDEST PUSH1 0x0 PUSH1 0x2 DUP3 DIV SWAP1 POP PUSH1 0x1 DUP3 AND DUP1 PUSH2 0xF90 JUMPI PUSH1 0x7F DUP3 AND SWAP2 POP JUMPDEST PUSH1 0x20 DUP3 LT DUP2 EQ ISZERO PUSH2 0xFA4 JUMPI PUSH2 0xFA3 PUSH2 0xFAA JUMP JUMPDEST JUMPDEST POP SWAP2 SWAP1 POP JUMP JUMPDEST PUSH32 0x4E487B7100000000000000000000000000000000000000000000000000000000 PUSH1 0x0 MSTORE PUSH1 0x22 PUSH1 0x4 MSTORE PUSH1 0x24 PUSH1 0x0 REVERT JUMPDEST PUSH32 0x4E487B7100000000000000000000000000000000000000000000000000000000 PUSH1 0x0 MSTORE PUSH1 0x41 PUSH1 0x4 MSTORE PUSH1 0x24 PUSH1 0x0 REVERT JUMPDEST PUSH1 0x0 PUSH1 0x1F NOT PUSH1 0x1F DUP4 ADD AND SWAP1 POP SWAP2 SWAP1 POP JUMP JUMPDEST PUSH2 0x1022 DUP2 PUSH2 0xEEC JUMP JUMPDEST DUP2 EQ PUSH2 0x102D JUMPI PUSH1 0x0 DUP1 REVERT JUMPDEST POP JUMP JUMPDEST PUSH2 0x1039 DUP2 PUSH2 0xEFE JUMP JUMPDEST DUP2 EQ PUSH2 0x1044 JUMPI PUSH1 0x0 DUP1 REVERT JUMPDEST POP JUMP JUMPDEST PUSH2 0x1050 DUP2 PUSH2 0xF2C JUMP JUMPDEST DUP2 EQ PUSH2 0x105B JUMPI PUSH1 0x0 DUP1 REVERT JUMPDEST POP JUMP INVALID LOG2 PUSH5 0x6970667358 0x22 SLT KECCAK256 PUSH13 0xE6B9148167E969F16DF41621CC BALANCE PUSH12 0xF27E937B983136283E9E0FA5 EXTCODECOPY JUMP MOD MULMOD PUSH5 0x736F6C6343 STOP ADDMOD STOP STOP CALLER "
				},
				"gasEstimates": {
					"creation": {
						"codeDepositCost": "848800",
						"executionCost": "42616",
						"totalCost": "891416"
					},
					"external": {
						"MAX_TWEET_LENGTH()": "1168",
						"changeTweetLength(uint16)": "22194",
						"createTweet(string)": "infinite",
						"getAllTweets(address)": "infinite",
						"getTweet(uint256)": "infinite",
						"owner()": "1258",
						"tweets(address,uint256)": "infinite"
					}
				},
				"methodIdentifiers": {
					"MAX_TWEET_LENGTH()": "6eb10797",
					"changeTweetLength(uint16)": "58bfa4ab",
					"createTweet(string)": "7c9cd2bc",
					"getAllTweets(address)": "12e7ee1c",
					"getTweet(uint256)": "c3ad5ecb",
					"owner()": "8da5cb5b",
					"tweets(address,uint256)": "05a1b4a9"
				}
			},
			"storageLayout": {
				"storage": [
					{
						"astId": 4,
						"contract": "twitter.sol:Twitter",
						"label": "MAX_TWEET_LENGTH",
						"offset": 0,
						"slot": "0",
						"type": "t_uint16"
					},
					{
						"astId": 19,
						"contract": "twitter.sol:Twitter",
						"label": "tweets",
						"offset": 0,
						"slot": "1",
						"type": "t_mapping(t_address,t_array(t_struct(Tweet)13_storage)dyn_storage)"
					},
					{
						"astId": 21,
						"contract": "twitter.sol:Twitter",
						"label": "owner",
						"offset": 0,
						"slot": "2",
						"type": "t_address"
					}
				],
				"types": {
					"t_address": {
						"encoding": "inplace",
						"label": "address",
						"numberOfBytes": "20"
					},
					"t_array(t_struct(Tweet)13_storage)dyn_storage": {
						"base": "t_struct(Tweet)13_storage",
						"encoding": "dynamic_array",
						"label": "struct Twitter.Tweet[]",
						"numberOfBytes": "32"
					},
					"t_mapping(t_address,t_array(t_struct(Tweet)13_storage)dyn_storage)": {
						"encoding": "mapping",
						"key": "t_address",
						"label": "mapping(address => struct Twitter.Tweet[])",
						"numberOfBytes": "32",
						"value": "t_array(t_struct(Tweet)13_storage)dyn_storage"
					},
					"t_string_storage": {
						"encoding": "bytes",
						"label": "string",
						"numberOfBytes": "32"
					},
					"t_struct(Tweet)13_storage": {
						"encoding": "inplace",
						"label": "struct Twitter.Tweet",
						"members": [
							{
								"astId": 6,
								"contract": "twitter.sol:Twitter",
								"label": "author",
								"offset": 0,
								"slot": "0",
								"type": "t_address"
							},
							{
								"astId": 8,
								"contract": "twitter.sol:Twitter",
								"label": "content",
								"offset": 0,
								"slot": "1",
								"type": "t_string_storage"
							},
							{
								"astId": 10,
								"contract": "twitter.sol:Twitter",
								"label": "timestamp",
								"offset": 0,
								"slot": "2",
								"type": "t_uint256"
							},
							{
								"astId": 12,
								"contract": "twitter.sol:Twitter",
								"label": "likes",
								"offset": 0,
								"slot": "3",
								"type": "t_uint256"
							}
						],
						"numberOfBytes": "128"
					},
					"t_uint16": {
						"encoding": "inplace",
						"label": "uint16",
						"numberOfBytes": "2"
					},
					"t_uint256": {
						"encoding": "inplace",
						"label": "uint256",
						"numberOfBytes": "32"
					}
				}
			},
			"userdoc": {
				"kind": "user",
				"methods": {},
				"version": 1
			}
		}
	}
}