{
	"tp/empl.sol": {
		"Salary_manager": {
			"abi": [
				{
					"inputs": [],
					"name": "deductions",
					"outputs": [
						{
							"internalType": "uint256",
							"name": "pf",
							"type": "uint256"
						},
						{
							"internalType": "uint256",
							"name": "tds",
							"type": "uint256"
						}
					],
					"stateMutability": "nonpayable",
					"type": "function"
				},
				{
					"inputs": [
						{
							"internalType": "address",
							"name": "",
							"type": "address"
						}
					],
					"name": "employee_address",
					"outputs": [
						{
							"internalType": "string",
							"name": "name",
							"type": "string"
						},
						{
							"internalType": "uint256",
							"name": "salary",
							"type": "uint256"
						},
						{
							"internalType": "uint256",
							"name": "increment",
							"type": "uint256"
						},
						{
							"internalType": "uint256",
							"name": "pf",
							"type": "uint256"
						},
						{
							"internalType": "uint256",
							"name": "tds",
							"type": "uint256"
						}
					],
					"stateMutability": "view",
					"type": "function"
				},
				{
					"inputs": [],
					"name": "get_details",
					"outputs": [
						{
							"internalType": "string",
							"name": "",
							"type": "string"
						},
						{
							"internalType": "uint256",
							"name": "",
							"type": "uint256"
						},
						{
							"internalType": "uint256",
							"name": "",
							"type": "uint256"
						},
						{
							"internalType": "uint256",
							"name": "",
							"type": "uint256"
						}
					],
					"stateMutability": "view",
					"type": "function"
				},
				{
					"inputs": [
						{
							"internalType": "string",
							"name": "name",
							"type": "string"
						},
						{
							"internalType": "uint256",
							"name": "salary",
							"type": "uint256"
						},
						{
							"internalType": "uint256",
							"name": "increment",
							"type": "uint256"
						}
					],
					"name": "set_details",
					"outputs": [],
					"stateMutability": "nonpayable",
					"type": "function"
				}
			],
			"devdoc": {
				"kind": "dev",
				"methods": {},
				"version": 1
			},
			"evm": {
				"assembly": "    /* \"tp/empl.sol\":60:1104  contract Salary_manager {... */\n  mstore(0x40, 0x80)\n  callvalue\n  dup1\n  iszero\n  tag_1\n  jumpi\n  0x00\n  dup1\n  revert\ntag_1:\n  pop\n  dataSize(sub_0)\n  dup1\n  dataOffset(sub_0)\n  0x00\n  codecopy\n  0x00\n  return\nstop\n\nsub_0: assembly {\n        /* \"tp/empl.sol\":60:1104  contract Salary_manager {... */\n      mstore(0x40, 0x80)\n      callvalue\n      dup1\n      iszero\n      tag_1\n      jumpi\n      0x00\n      dup1\n      revert\n    tag_1:\n      pop\n      jumpi(tag_2, lt(calldatasize, 0x04))\n      shr(0xe0, calldataload(0x00))\n      dup1\n      0x71d4bc9c\n      eq\n      tag_3\n      jumpi\n      dup1\n      0xa4efde08\n      eq\n      tag_4\n      jumpi\n      dup1\n      0xb87f86b7\n      eq\n      tag_5\n      jumpi\n      dup1\n      0xc27c30df\n      eq\n      tag_6\n      jumpi\n    tag_2:\n      0x00\n      dup1\n      revert\n        /* \"tp/empl.sol\":295:472  function set_details(string memory name, uint salary, uint increment) public{... */\n    tag_3:\n      tag_7\n      0x04\n      dup1\n      calldatasize\n      sub\n      dup2\n      add\n      swap1\n      tag_8\n      swap2\n      swap1\n      tag_9\n      jump\t// in\n    tag_8:\n      tag_10\n      jump\t// in\n    tag_7:\n      stop\n        /* \"tp/empl.sol\":232:286  mapping(address => all_detail) public employee_address */\n    tag_4:\n      tag_11\n      0x04\n      dup1\n      calldatasize\n      sub\n      dup2\n      add\n      swap1\n      tag_12\n      swap2\n      swap1\n      tag_13\n      jump\t// in\n    tag_12:\n      tag_14\n      jump\t// in\n    tag_11:\n      mload(0x40)\n      tag_15\n      swap6\n      swap5\n      swap4\n      swap3\n      swap2\n      swap1\n      tag_16\n      jump\t// in\n    tag_15:\n      mload(0x40)\n      dup1\n      swap2\n      sub\n      swap1\n      return\n        /* \"tp/empl.sol\":484:789  function get_details() public view returns(string memory, uint, uint, uint){... */\n    tag_5:\n      tag_17\n      tag_18\n      jump\t// in\n    tag_17:\n      mload(0x40)\n      tag_19\n      swap5\n      swap4\n      swap3\n      swap2\n      swap1\n      tag_20\n      jump\t// in\n    tag_19:\n      mload(0x40)\n      dup1\n      swap2\n      sub\n      swap1\n      return\n        /* \"tp/empl.sol\":797:1101  function deductions() public returns(uint pf, uint tds){... */\n    tag_6:\n      tag_21\n      tag_22\n      jump\t// in\n    tag_21:\n      mload(0x40)\n      tag_23\n      swap3\n      swap2\n      swap1\n      tag_24\n      jump\t// in\n    tag_23:\n      mload(0x40)\n      dup1\n      swap2\n      sub\n      swap1\n      return\n        /* \"tp/empl.sol\":295:472  function set_details(string memory name, uint salary, uint increment) public{... */\n    tag_10:\n        /* \"tp/empl.sol\":413:464  all_detail(name, salary + increment, increment,0,0) */\n      mload(0x40)\n      dup1\n      0xa0\n      add\n      0x40\n      mstore\n      dup1\n        /* \"tp/empl.sol\":424:428  name */\n      dup5\n        /* \"tp/empl.sol\":413:464  all_detail(name, salary + increment, increment,0,0) */\n      dup2\n      mstore\n      0x20\n      add\n        /* \"tp/empl.sol\":439:448  increment */\n      dup3\n        /* \"tp/empl.sol\":430:436  salary */\n      dup5\n        /* \"tp/empl.sol\":430:448  salary + increment */\n      tag_26\n      swap2\n      swap1\n      tag_27\n      jump\t// in\n    tag_26:\n        /* \"tp/empl.sol\":413:464  all_detail(name, salary + increment, increment,0,0) */\n      dup2\n      mstore\n      0x20\n      add\n        /* \"tp/empl.sol\":450:459  increment */\n      dup3\n        /* \"tp/empl.sol\":413:464  all_detail(name, salary + increment, increment,0,0) */\n      dup2\n      mstore\n      0x20\n      add\n        /* \"tp/empl.sol\":460:461  0 */\n      0x00\n        /* \"tp/empl.sol\":413:464  all_detail(name, salary + increment, increment,0,0) */\n      dup2\n      mstore\n      0x20\n      add\n        /* \"tp/empl.sol\":462:463  0 */\n      0x00\n        /* \"tp/empl.sol\":413:464  all_detail(name, salary + increment, increment,0,0) */\n      dup2\n      mstore\n      pop\n        /* \"tp/empl.sol\":382:398  employee_address */\n      0x00\n        /* \"tp/empl.sol\":382:410  employee_address[msg.sender] */\n      dup1\n        /* \"tp/empl.sol\":399:409  msg.sender */\n      caller\n        /* \"tp/empl.sol\":382:410  employee_address[msg.sender] */\n      0xffffffffffffffffffffffffffffffffffffffff\n      and\n      0xffffffffffffffffffffffffffffffffffffffff\n      and\n      dup2\n      mstore\n      0x20\n      add\n      swap1\n      dup2\n      mstore\n      0x20\n      add\n      0x00\n      keccak256\n        /* \"tp/empl.sol\":382:464  employee_address[msg.sender] = all_detail(name, salary + increment, increment,0,0) */\n      0x00\n      dup3\n      add\n      mload\n      dup2\n      0x00\n      add\n      swap1\n      dup2\n      tag_28\n      swap2\n      swap1\n      tag_29\n      jump\t// in\n    tag_28:\n      pop\n      0x20\n      dup3\n      add\n      mload\n      dup2\n      0x01\n      add\n      sstore\n      0x40\n      dup3\n      add\n      mload\n      dup2\n      0x02\n      add\n      sstore\n      0x60\n      dup3\n      add\n      mload\n      dup2\n      0x03\n      add\n      sstore\n      0x80\n      dup3\n      add\n      mload\n      dup2\n      0x04\n      add\n      sstore\n      swap1\n      pop\n      pop\n        /* \"tp/empl.sol\":295:472  function set_details(string memory name, uint salary, uint increment) public{... */\n      pop\n      pop\n      pop\n      jump\t// out\n        /* \"tp/empl.sol\":232:286  mapping(address => all_detail) public employee_address */\n    tag_14:\n      mstore(0x20, 0x00)\n      dup1\n      0x00\n      mstore\n      keccak256(0x00, 0x40)\n      0x00\n      swap2\n      pop\n      swap1\n      pop\n      dup1\n      0x00\n      add\n      dup1\n      sload\n      tag_30\n      swap1\n      tag_31\n      jump\t// in\n    tag_30:\n      dup1\n      0x1f\n      add\n      0x20\n      dup1\n      swap2\n      div\n      mul\n      0x20\n      add\n      mload(0x40)\n      swap1\n      dup2\n      add\n      0x40\n      mstore\n      dup1\n      swap3\n      swap2\n      swap1\n      dup2\n      dup2\n      mstore\n      0x20\n      add\n      dup3\n      dup1\n      sload\n      tag_32\n      swap1\n      tag_31\n      jump\t// in\n    tag_32:\n      dup1\n      iszero\n      tag_33\n      jumpi\n      dup1\n      0x1f\n      lt\n      tag_34\n      jumpi\n      0x0100\n      dup1\n      dup4\n      sload\n      div\n      mul\n      dup4\n      mstore\n      swap2\n      0x20\n      add\n      swap2\n      jump(tag_33)\n    tag_34:\n      dup3\n      add\n      swap2\n      swap1\n      0x00\n      mstore\n      keccak256(0x00, 0x20)\n      swap1\n    tag_35:\n      dup2\n      sload\n      dup2\n      mstore\n      swap1\n      0x01\n      add\n      swap1\n      0x20\n      add\n      dup1\n      dup4\n      gt\n      tag_35\n      jumpi\n      dup3\n      swap1\n      sub\n      0x1f\n      and\n      dup3\n      add\n      swap2\n    tag_33:\n      pop\n      pop\n      pop\n      pop\n      pop\n      swap1\n      dup1\n      0x01\n      add\n      sload\n      swap1\n      dup1\n      0x02\n      add\n      sload\n      swap1\n      dup1\n      0x03\n      add\n      sload\n      swap1\n      dup1\n      0x04\n      add\n      sload\n      swap1\n      pop\n      dup6\n      jump\t// out\n        /* \"tp/empl.sol\":484:789  function get_details() public view returns(string memory, uint, uint, uint){... */\n    tag_18:\n        /* \"tp/empl.sol\":527:540  string memory */\n      0x60\n        /* \"tp/empl.sol\":542:546  uint */\n      0x00\n        /* \"tp/empl.sol\":548:552  uint */\n      dup1\n        /* \"tp/empl.sol\":554:558  uint */\n      0x00\n        /* \"tp/empl.sol\":570:591  all_detail memory emp */\n      dup1\n        /* \"tp/empl.sol\":594:610  employee_address */\n      0x00\n        /* \"tp/empl.sol\":594:622  employee_address[msg.sender] */\n      dup1\n        /* \"tp/empl.sol\":611:621  msg.sender */\n      caller\n        /* \"tp/empl.sol\":594:622  employee_address[msg.sender] */\n      0xffffffffffffffffffffffffffffffffffffffff\n      and\n      0xffffffffffffffffffffffffffffffffffffffff\n      and\n      dup2\n      mstore\n      0x20\n      add\n      swap1\n      dup2\n      mstore\n      0x20\n      add\n      0x00\n      keccak256\n        /* \"tp/empl.sol\":570:622  all_detail memory emp = employee_address[msg.sender] */\n      mload(0x40)\n      dup1\n      0xa0\n      add\n      0x40\n      mstore\n      swap1\n      dup2\n      0x00\n      dup3\n      add\n      dup1\n      sload\n      tag_37\n      swap1\n      tag_31\n      jump\t// in\n    tag_37:\n      dup1\n      0x1f\n      add\n      0x20\n      dup1\n      swap2\n      div\n      mul\n      0x20\n      add\n      mload(0x40)\n      swap1\n      dup2\n      add\n      0x40\n      mstore\n      dup1\n      swap3\n      swap2\n      swap1\n      dup2\n      dup2\n      mstore\n      0x20\n      add\n      dup3\n      dup1\n      sload\n      tag_38\n      swap1\n      tag_31\n      jump\t// in\n    tag_38:\n      dup1\n      iszero\n      tag_39\n      jumpi\n      dup1\n      0x1f\n      lt\n      tag_40\n      jumpi\n      0x0100\n      dup1\n      dup4\n      sload\n      div\n      mul\n      dup4\n      mstore\n      swap2\n      0x20\n      add\n      swap2\n      jump(tag_39)\n    tag_40:\n      dup3\n      add\n      swap2\n      swap1\n      0x00\n      mstore\n      keccak256(0x00, 0x20)\n      swap1\n    tag_41:\n      dup2\n      sload\n      dup2\n      mstore\n      swap1\n      0x01\n      add\n      swap1\n      0x20\n      add\n      dup1\n      dup4\n      gt\n      tag_41\n      jumpi\n      dup3\n      swap1\n      sub\n      0x1f\n      and\n      dup3\n      add\n      swap2\n    tag_39:\n      pop\n      pop\n      pop\n      pop\n      pop\n      dup2\n      mstore\n      0x20\n      add\n      0x01\n      dup3\n      add\n      sload\n      dup2\n      mstore\n      0x20\n      add\n      0x02\n      dup3\n      add\n      sload\n      dup2\n      mstore\n      0x20\n      add\n      0x03\n      dup3\n      add\n      sload\n      dup2\n      mstore\n      0x20\n      add\n      0x04\n      dup3\n      add\n      sload\n      dup2\n      mstore\n      pop\n      pop\n      swap1\n      pop\n        /* \"tp/empl.sol\":635:645  uint bonus */\n      0x00\n        /* \"tp/empl.sol\":667:670  100 */\n      0x64\n        /* \"tp/empl.sol\":662:663  5 */\n      0x05\n        /* \"tp/empl.sol\":649:652  emp */\n      dup4\n        /* \"tp/empl.sol\":649:659  emp.salary */\n      0x20\n      add\n      mload\n        /* \"tp/empl.sol\":649:663  emp.salary * 5 */\n      tag_42\n      swap2\n      swap1\n      tag_43\n      jump\t// in\n    tag_42:\n        /* \"tp/empl.sol\":648:670  (emp.salary * 5) / 100 */\n      tag_44\n      swap2\n      swap1\n      tag_45\n      jump\t// in\n    tag_44:\n        /* \"tp/empl.sol\":635:670  uint bonus = (emp.salary * 5) / 100 */\n      swap1\n      pop\n        /* \"tp/empl.sol\":695:703  uint hra */\n      0x00\n        /* \"tp/empl.sol\":726:729  100 */\n      0x64\n        /* \"tp/empl.sol\":720:722  40 */\n      0x28\n        /* \"tp/empl.sol\":707:710  emp */\n      dup5\n        /* \"tp/empl.sol\":707:717  emp.salary */\n      0x20\n      add\n      mload\n        /* \"tp/empl.sol\":707:722  emp.salary * 40 */\n      tag_46\n      swap2\n      swap1\n      tag_43\n      jump\t// in\n    tag_46:\n        /* \"tp/empl.sol\":706:729  (emp.salary * 40) / 100 */\n      tag_47\n      swap2\n      swap1\n      tag_45\n      jump\t// in\n    tag_47:\n        /* \"tp/empl.sol\":695:729  uint hra = (emp.salary * 40) / 100 */\n      swap1\n      pop\n        /* \"tp/empl.sol\":748:751  emp */\n      dup3\n        /* \"tp/empl.sol\":748:756  emp.name */\n      0x00\n      add\n      mload\n        /* \"tp/empl.sol\":758:761  emp */\n      dup4\n        /* \"tp/empl.sol\":758:768  emp.salary */\n      0x20\n      add\n      mload\n        /* \"tp/empl.sol\":770:775  bonus */\n      dup4\n        /* \"tp/empl.sol\":777:780  hra */\n      dup4\n        /* \"tp/empl.sol\":741:781  return(emp.name, emp.salary, bonus, hra) */\n      swap7\n      pop\n      swap7\n      pop\n      swap7\n      pop\n      swap7\n      pop\n      pop\n      pop\n      pop\n        /* \"tp/empl.sol\":484:789  function get_details() public view returns(string memory, uint, uint, uint){... */\n      swap1\n      swap2\n      swap3\n      swap4\n      jump\t// out\n        /* \"tp/empl.sol\":797:1101  function deductions() public returns(uint pf, uint tds){... */\n    tag_22:\n        /* \"tp/empl.sol\":834:841  uint pf */\n      0x00\n        /* \"tp/empl.sol\":843:851  uint tds */\n      dup1\n        /* \"tp/empl.sol\":863:885  all_detail storage emp */\n      0x00\n        /* \"tp/empl.sol\":888:904  employee_address */\n      dup1\n        /* \"tp/empl.sol\":888:916  employee_address[msg.sender] */\n      0x00\n        /* \"tp/empl.sol\":905:915  msg.sender */\n      caller\n        /* \"tp/empl.sol\":888:916  employee_address[msg.sender] */\n      0xffffffffffffffffffffffffffffffffffffffff\n      and\n      0xffffffffffffffffffffffffffffffffffffffff\n      and\n      dup2\n      mstore\n      0x20\n      add\n      swap1\n      dup2\n      mstore\n      0x20\n      add\n      0x00\n      keccak256\n        /* \"tp/empl.sol\":863:916  all_detail storage emp = employee_address[msg.sender] */\n      swap1\n      pop\n        /* \"tp/empl.sol\":952:955  100 */\n      0x64\n        /* \"tp/empl.sol\":946:948  12 */\n      0x0c\n        /* \"tp/empl.sol\":933:936  emp */\n      dup3\n        /* \"tp/empl.sol\":933:943  emp.salary */\n      0x01\n      add\n      sload\n        /* \"tp/empl.sol\":933:948  emp.salary * 12 */\n      tag_49\n      swap2\n      swap1\n      tag_43\n      jump\t// in\n    tag_49:\n        /* \"tp/empl.sol\":932:955  (emp.salary * 12) / 100 */\n      tag_50\n      swap2\n      swap1\n      tag_45\n      jump\t// in\n    tag_50:\n        /* \"tp/empl.sol\":927:955  pf = (emp.salary * 12) / 100 */\n      swap3\n      pop\n        /* \"tp/empl.sol\":993:996  100 */\n      0x64\n        /* \"tp/empl.sol\":988:989  7 */\n      0x07\n        /* \"tp/empl.sol\":975:978  emp */\n      dup3\n        /* \"tp/empl.sol\":975:985  emp.salary */\n      0x01\n      add\n      sload\n        /* \"tp/empl.sol\":975:989  emp.salary * 7 */\n      tag_51\n      swap2\n      swap1\n      tag_43\n      jump\t// in\n    tag_51:\n        /* \"tp/empl.sol\":974:996  (emp.salary * 7) / 100 */\n      tag_52\n      swap2\n      swap1\n      tag_45\n      jump\t// in\n    tag_52:\n        /* \"tp/empl.sol\":968:996  tds = (emp.salary * 7) / 100 */\n      swap2\n      pop\n        /* \"tp/empl.sol\":1041:1044  tds */\n      dup2\n        /* \"tp/empl.sol\":1036:1038  pf */\n      dup4\n        /* \"tp/empl.sol\":1036:1044  pf + tds */\n      tag_53\n      swap2\n      swap1\n      tag_27\n      jump\t// in\n    tag_53:\n        /* \"tp/empl.sol\":1022:1025  emp */\n      dup2\n        /* \"tp/empl.sol\":1022:1032  emp.salary */\n      0x01\n      add\n      sload\n        /* \"tp/empl.sol\":1022:1045  emp.salary - (pf + tds) */\n      tag_54\n      swap2\n      swap1\n      tag_55\n      jump\t// in\n    tag_54:\n        /* \"tp/empl.sol\":1009:1012  emp */\n      dup2\n        /* \"tp/empl.sol\":1009:1019  emp.salary */\n      0x01\n      add\n        /* \"tp/empl.sol\":1009:1045  emp.salary = emp.salary - (pf + tds) */\n      dup2\n      swap1\n      sstore\n      pop\n        /* \"tp/empl.sol\":1067:1069  pf */\n      dup3\n        /* \"tp/empl.sol\":1058:1061  emp */\n      dup2\n        /* \"tp/empl.sol\":1058:1064  emp.pf */\n      0x03\n      add\n        /* \"tp/empl.sol\":1058:1069  emp.pf = pf */\n      dup2\n      swap1\n      sstore\n      pop\n        /* \"tp/empl.sol\":1090:1093  tds */\n      dup2\n        /* \"tp/empl.sol\":1080:1083  emp */\n      dup2\n        /* \"tp/empl.sol\":1080:1087  emp.tds */\n      0x04\n      add\n        /* \"tp/empl.sol\":1080:1093  emp.tds = tds */\n      dup2\n      swap1\n      sstore\n      pop\n        /* \"tp/empl.sol\":852:1101  {... */\n      pop\n        /* \"tp/empl.sol\":797:1101  function deductions() public returns(uint pf, uint tds){... */\n      swap1\n      swap2\n      jump\t// out\n        /* \"#utility.yul\":7:82   */\n    tag_56:\n        /* \"#utility.yul\":40:46   */\n      0x00\n        /* \"#utility.yul\":73:75   */\n      0x40\n        /* \"#utility.yul\":67:76   */\n      mload\n        /* \"#utility.yul\":57:76   */\n      swap1\n      pop\n        /* \"#utility.yul\":7:82   */\n      swap1\n      jump\t// out\n        /* \"#utility.yul\":88:205   */\n    tag_57:\n        /* \"#utility.yul\":197:198   */\n      0x00\n        /* \"#utility.yul\":194:195   */\n      dup1\n        /* \"#utility.yul\":187:199   */\n      revert\n        /* \"#utility.yul\":211:328   */\n    tag_58:\n        /* \"#utility.yul\":320:321   */\n      0x00\n        /* \"#utility.yul\":317:318   */\n      dup1\n        /* \"#utility.yul\":310:322   */\n      revert\n        /* \"#utility.yul\":334:451   */\n    tag_59:\n        /* \"#utility.yul\":443:444   */\n      0x00\n        /* \"#utility.yul\":440:441   */\n      dup1\n        /* \"#utility.yul\":433:445   */\n      revert\n        /* \"#utility.yul\":457:574   */\n    tag_60:\n        /* \"#utility.yul\":566:567   */\n      0x00\n        /* \"#utility.yul\":563:564   */\n      dup1\n        /* \"#utility.yul\":556:568   */\n      revert\n        /* \"#utility.yul\":580:682   */\n    tag_61:\n        /* \"#utility.yul\":621:627   */\n      0x00\n        /* \"#utility.yul\":672:674   */\n      0x1f\n        /* \"#utility.yul\":668:675   */\n      not\n        /* \"#utility.yul\":663:665   */\n      0x1f\n        /* \"#utility.yul\":656:661   */\n      dup4\n        /* \"#utility.yul\":652:666   */\n      add\n        /* \"#utility.yul\":648:676   */\n      and\n        /* \"#utility.yul\":638:676   */\n      swap1\n      pop\n        /* \"#utility.yul\":580:682   */\n      swap2\n      swap1\n      pop\n      jump\t// out\n        /* \"#utility.yul\":688:868   */\n    tag_62:\n        /* \"#utility.yul\":736:813   */\n      0x4e487b7100000000000000000000000000000000000000000000000000000000\n        /* \"#utility.yul\":733:734   */\n      0x00\n        /* \"#utility.yul\":726:814   */\n      mstore\n        /* \"#utility.yul\":833:837   */\n      0x41\n        /* \"#utility.yul\":830:831   */\n      0x04\n        /* \"#utility.yul\":823:838   */\n      mstore\n        /* \"#utility.yul\":857:861   */\n      0x24\n        /* \"#utility.yul\":854:855   */\n      0x00\n        /* \"#utility.yul\":847:862   */\n      revert\n        /* \"#utility.yul\":874:1155   */\n    tag_63:\n        /* \"#utility.yul\":957:984   */\n      tag_108\n        /* \"#utility.yul\":979:983   */\n      dup3\n        /* \"#utility.yul\":957:984   */\n      tag_61\n      jump\t// in\n    tag_108:\n        /* \"#utility.yul\":949:955   */\n      dup2\n        /* \"#utility.yul\":945:985   */\n      add\n        /* \"#utility.yul\":1087:1093   */\n      dup2\n        /* \"#utility.yul\":1075:1085   */\n      dup2\n        /* \"#utility.yul\":1072:1094   */\n      lt\n        /* \"#utility.yul\":1051:1069   */\n      0xffffffffffffffff\n        /* \"#utility.yul\":1039:1049   */\n      dup3\n        /* \"#utility.yul\":1036:1070   */\n      gt\n        /* \"#utility.yul\":1033:1095   */\n      or\n        /* \"#utility.yul\":1030:1118   */\n      iszero\n      tag_109\n      jumpi\n        /* \"#utility.yul\":1098:1116   */\n      tag_110\n      tag_62\n      jump\t// in\n    tag_110:\n        /* \"#utility.yul\":1030:1118   */\n    tag_109:\n        /* \"#utility.yul\":1138:1148   */\n      dup1\n        /* \"#utility.yul\":1134:1136   */\n      0x40\n        /* \"#utility.yul\":1127:1149   */\n      mstore\n        /* \"#utility.yul\":917:1155   */\n      pop\n        /* \"#utility.yul\":874:1155   */\n      pop\n      pop\n      jump\t// out\n        /* \"#utility.yul\":1161:1290   */\n    tag_64:\n        /* \"#utility.yul\":1195:1201   */\n      0x00\n        /* \"#utility.yul\":1222:1242   */\n      tag_112\n      tag_56\n      jump\t// in\n    tag_112:\n        /* \"#utility.yul\":1212:1242   */\n      swap1\n      pop\n        /* \"#utility.yul\":1251:1284   */\n      tag_113\n        /* \"#utility.yul\":1279:1283   */\n      dup3\n        /* \"#utility.yul\":1271:1277   */\n      dup3\n        /* \"#utility.yul\":1251:1284   */\n      tag_63\n      jump\t// in\n    tag_113:\n        /* \"#utility.yul\":1161:1290   */\n      swap2\n      swap1\n      pop\n      jump\t// out\n        /* \"#utility.yul\":1296:1604   */\n    tag_65:\n        /* \"#utility.yul\":1358:1362   */\n      0x00\n        /* \"#utility.yul\":1448:1466   */\n      0xffffffffffffffff\n        /* \"#utility.yul\":1440:1446   */\n      dup3\n        /* \"#utility.yul\":1437:1467   */\n      gt\n        /* \"#utility.yul\":1434:1490   */\n      iszero\n      tag_115\n      jumpi\n        /* \"#utility.yul\":1470:1488   */\n      tag_116\n      tag_62\n      jump\t// in\n    tag_116:\n        /* \"#utility.yul\":1434:1490   */\n    tag_115:\n        /* \"#utility.yul\":1508:1537   */\n      tag_117\n        /* \"#utility.yul\":1530:1536   */\n      dup3\n        /* \"#utility.yul\":1508:1537   */\n      tag_61\n      jump\t// in\n    tag_117:\n        /* \"#utility.yul\":1500:1537   */\n      swap1\n      pop\n        /* \"#utility.yul\":1592:1596   */\n      0x20\n        /* \"#utility.yul\":1586:1590   */\n      dup2\n        /* \"#utility.yul\":1582:1597   */\n      add\n        /* \"#utility.yul\":1574:1597   */\n      swap1\n      pop\n        /* \"#utility.yul\":1296:1604   */\n      swap2\n      swap1\n      pop\n      jump\t// out\n        /* \"#utility.yul\":1610:1756   */\n    tag_66:\n        /* \"#utility.yul\":1707:1713   */\n      dup3\n        /* \"#utility.yul\":1702:1705   */\n      dup2\n        /* \"#utility.yul\":1697:1700   */\n      dup4\n        /* \"#utility.yul\":1684:1714   */\n      calldatacopy\n        /* \"#utility.yul\":1748:1749   */\n      0x00\n        /* \"#utility.yul\":1739:1745   */\n      dup4\n        /* \"#utility.yul\":1734:1737   */\n      dup4\n        /* \"#utility.yul\":1730:1746   */\n      add\n        /* \"#utility.yul\":1723:1750   */\n      mstore\n        /* \"#utility.yul\":1610:1756   */\n      pop\n      pop\n      pop\n      jump\t// out\n        /* \"#utility.yul\":1762:2187   */\n    tag_67:\n        /* \"#utility.yul\":1840:1845   */\n      0x00\n        /* \"#utility.yul\":1865:1931   */\n      tag_120\n        /* \"#utility.yul\":1881:1930   */\n      tag_121\n        /* \"#utility.yul\":1923:1929   */\n      dup5\n        /* \"#utility.yul\":1881:1930   */\n      tag_65\n      jump\t// in\n    tag_121:\n        /* \"#utility.yul\":1865:1931   */\n      tag_64\n      jump\t// in\n    tag_120:\n        /* \"#utility.yul\":1856:1931   */\n      swap1\n      pop\n        /* \"#utility.yul\":1954:1960   */\n      dup3\n        /* \"#utility.yul\":1947:1952   */\n      dup2\n        /* \"#utility.yul\":1940:1961   */\n      mstore\n        /* \"#utility.yul\":1992:1996   */\n      0x20\n        /* \"#utility.yul\":1985:1990   */\n      dup2\n        /* \"#utility.yul\":1981:1997   */\n      add\n        /* \"#utility.yul\":2030:2033   */\n      dup5\n        /* \"#utility.yul\":2021:2027   */\n      dup5\n        /* \"#utility.yul\":2016:2019   */\n      dup5\n        /* \"#utility.yul\":2012:2028   */\n      add\n        /* \"#utility.yul\":2009:2034   */\n      gt\n        /* \"#utility.yul\":2006:2118   */\n      iszero\n      tag_122\n      jumpi\n        /* \"#utility.yul\":2037:2116   */\n      tag_123\n      tag_60\n      jump\t// in\n    tag_123:\n        /* \"#utility.yul\":2006:2118   */\n    tag_122:\n        /* \"#utility.yul\":2127:2181   */\n      tag_124\n        /* \"#utility.yul\":2174:2180   */\n      dup5\n        /* \"#utility.yul\":2169:2172   */\n      dup3\n        /* \"#utility.yul\":2164:2167   */\n      dup6\n        /* \"#utility.yul\":2127:2181   */\n      tag_66\n      jump\t// in\n    tag_124:\n        /* \"#utility.yul\":1846:2187   */\n      pop\n        /* \"#utility.yul\":1762:2187   */\n      swap4\n      swap3\n      pop\n      pop\n      pop\n      jump\t// out\n        /* \"#utility.yul\":2207:2547   */\n    tag_68:\n        /* \"#utility.yul\":2263:2268   */\n      0x00\n        /* \"#utility.yul\":2312:2315   */\n      dup3\n        /* \"#utility.yul\":2305:2309   */\n      0x1f\n        /* \"#utility.yul\":2297:2303   */\n      dup4\n        /* \"#utility.yul\":2293:2310   */\n      add\n        /* \"#utility.yul\":2289:2316   */\n      slt\n        /* \"#utility.yul\":2279:2401   */\n      tag_126\n      jumpi\n        /* \"#utility.yul\":2320:2399   */\n      tag_127\n      tag_59\n      jump\t// in\n    tag_127:\n        /* \"#utility.yul\":2279:2401   */\n    tag_126:\n        /* \"#utility.yul\":2437:2443   */\n      dup2\n        /* \"#utility.yul\":2424:2444   */\n      calldataload\n        /* \"#utility.yul\":2462:2541   */\n      tag_128\n        /* \"#utility.yul\":2537:2540   */\n      dup5\n        /* \"#utility.yul\":2529:2535   */\n      dup3\n        /* \"#utility.yul\":2522:2526   */\n      0x20\n        /* \"#utility.yul\":2514:2520   */\n      dup7\n        /* \"#utility.yul\":2510:2527   */\n      add\n        /* \"#utility.yul\":2462:2541   */\n      tag_67\n      jump\t// in\n    tag_128:\n        /* \"#utility.yul\":2453:2541   */\n      swap2\n      pop\n        /* \"#utility.yul\":2269:2547   */\n      pop\n        /* \"#utility.yul\":2207:2547   */\n      swap3\n      swap2\n      pop\n      pop\n      jump\t// out\n        /* \"#utility.yul\":2553:2630   */\n    tag_69:\n        /* \"#utility.yul\":2590:2597   */\n      0x00\n        /* \"#utility.yul\":2619:2624   */\n      dup2\n        /* \"#utility.yul\":2608:2624   */\n      swap1\n      pop\n        /* \"#utility.yul\":2553:2630   */\n      swap2\n      swap1\n      pop\n      jump\t// out\n        /* \"#utility.yul\":2636:2758   */\n    tag_70:\n        /* \"#utility.yul\":2709:2733   */\n      tag_131\n        /* \"#utility.yul\":2727:2732   */\n      dup2\n        /* \"#utility.yul\":2709:2733   */\n      tag_69\n      jump\t// in\n    tag_131:\n        /* \"#utility.yul\":2702:2707   */\n      dup2\n        /* \"#utility.yul\":2699:2734   */\n      eq\n        /* \"#utility.yul\":2689:2752   */\n      tag_132\n      jumpi\n        /* \"#utility.yul\":2748:2749   */\n      0x00\n        /* \"#utility.yul\":2745:2746   */\n      dup1\n        /* \"#utility.yul\":2738:2750   */\n      revert\n        /* \"#utility.yul\":2689:2752   */\n    tag_132:\n        /* \"#utility.yul\":2636:2758   */\n      pop\n      jump\t// out\n        /* \"#utility.yul\":2764:2903   */\n    tag_71:\n        /* \"#utility.yul\":2810:2815   */\n      0x00\n        /* \"#utility.yul\":2848:2854   */\n      dup2\n        /* \"#utility.yul\":2835:2855   */\n      calldataload\n        /* \"#utility.yul\":2826:2855   */\n      swap1\n      pop\n        /* \"#utility.yul\":2864:2897   */\n      tag_134\n        /* \"#utility.yul\":2891:2896   */\n      dup2\n        /* \"#utility.yul\":2864:2897   */\n      tag_70\n      jump\t// in\n    tag_134:\n        /* \"#utility.yul\":2764:2903   */\n      swap3\n      swap2\n      pop\n      pop\n      jump\t// out\n        /* \"#utility.yul\":2909:3708   */\n    tag_9:\n        /* \"#utility.yul\":2996:3002   */\n      0x00\n        /* \"#utility.yul\":3004:3010   */\n      dup1\n        /* \"#utility.yul\":3012:3018   */\n      0x00\n        /* \"#utility.yul\":3061:3063   */\n      0x60\n        /* \"#utility.yul\":3049:3058   */\n      dup5\n        /* \"#utility.yul\":3040:3047   */\n      dup7\n        /* \"#utility.yul\":3036:3059   */\n      sub\n        /* \"#utility.yul\":3032:3064   */\n      slt\n        /* \"#utility.yul\":3029:3148   */\n      iszero\n      tag_136\n      jumpi\n        /* \"#utility.yul\":3067:3146   */\n      tag_137\n      tag_57\n      jump\t// in\n    tag_137:\n        /* \"#utility.yul\":3029:3148   */\n    tag_136:\n        /* \"#utility.yul\":3215:3216   */\n      0x00\n        /* \"#utility.yul\":3204:3213   */\n      dup5\n        /* \"#utility.yul\":3200:3217   */\n      add\n        /* \"#utility.yul\":3187:3218   */\n      calldataload\n        /* \"#utility.yul\":3245:3263   */\n      0xffffffffffffffff\n        /* \"#utility.yul\":3237:3243   */\n      dup2\n        /* \"#utility.yul\":3234:3264   */\n      gt\n        /* \"#utility.yul\":3231:3348   */\n      iszero\n      tag_138\n      jumpi\n        /* \"#utility.yul\":3267:3346   */\n      tag_139\n      tag_58\n      jump\t// in\n    tag_139:\n        /* \"#utility.yul\":3231:3348   */\n    tag_138:\n        /* \"#utility.yul\":3372:3435   */\n      tag_140\n        /* \"#utility.yul\":3427:3434   */\n      dup7\n        /* \"#utility.yul\":3418:3424   */\n      dup3\n        /* \"#utility.yul\":3407:3416   */\n      dup8\n        /* \"#utility.yul\":3403:3425   */\n      add\n        /* \"#utility.yul\":3372:3435   */\n      tag_68\n      jump\t// in\n    tag_140:\n        /* \"#utility.yul\":3362:3435   */\n      swap4\n      pop\n        /* \"#utility.yul\":3158:3445   */\n      pop\n        /* \"#utility.yul\":3484:3486   */\n      0x20\n        /* \"#utility.yul\":3510:3563   */\n      tag_141\n        /* \"#utility.yul\":3555:3562   */\n      dup7\n        /* \"#utility.yul\":3546:3552   */\n      dup3\n        /* \"#utility.yul\":3535:3544   */\n      dup8\n        /* \"#utility.yul\":3531:3553   */\n      add\n        /* \"#utility.yul\":3510:3563   */\n      tag_71\n      jump\t// in\n    tag_141:\n        /* \"#utility.yul\":3500:3563   */\n      swap3\n      pop\n        /* \"#utility.yul\":3455:3573   */\n      pop\n        /* \"#utility.yul\":3612:3614   */\n      0x40\n        /* \"#utility.yul\":3638:3691   */\n      tag_142\n        /* \"#utility.yul\":3683:3690   */\n      dup7\n        /* \"#utility.yul\":3674:3680   */\n      dup3\n        /* \"#utility.yul\":3663:3672   */\n      dup8\n        /* \"#utility.yul\":3659:3681   */\n      add\n        /* \"#utility.yul\":3638:3691   */\n      tag_71\n      jump\t// in\n    tag_142:\n        /* \"#utility.yul\":3628:3691   */\n      swap2\n      pop\n        /* \"#utility.yul\":3583:3701   */\n      pop\n        /* \"#utility.yul\":2909:3708   */\n      swap3\n      pop\n      swap3\n      pop\n      swap3\n      jump\t// out\n        /* \"#utility.yul\":3714:3840   */\n    tag_72:\n        /* \"#utility.yul\":3751:3758   */\n      0x00\n        /* \"#utility.yul\":3791:3833   */\n      0xffffffffffffffffffffffffffffffffffffffff\n        /* \"#utility.yul\":3784:3789   */\n      dup3\n        /* \"#utility.yul\":3780:3834   */\n      and\n        /* \"#utility.yul\":3769:3834   */\n      swap1\n      pop\n        /* \"#utility.yul\":3714:3840   */\n      swap2\n      swap1\n      pop\n      jump\t// out\n        /* \"#utility.yul\":3846:3942   */\n    tag_73:\n        /* \"#utility.yul\":3883:3890   */\n      0x00\n        /* \"#utility.yul\":3912:3936   */\n      tag_145\n        /* \"#utility.yul\":3930:3935   */\n      dup3\n        /* \"#utility.yul\":3912:3936   */\n      tag_72\n      jump\t// in\n    tag_145:\n        /* \"#utility.yul\":3901:3936   */\n      swap1\n      pop\n        /* \"#utility.yul\":3846:3942   */\n      swap2\n      swap1\n      pop\n      jump\t// out\n        /* \"#utility.yul\":3948:4070   */\n    tag_74:\n        /* \"#utility.yul\":4021:4045   */\n      tag_147\n        /* \"#utility.yul\":4039:4044   */\n      dup2\n        /* \"#utility.yul\":4021:4045   */\n      tag_73\n      jump\t// in\n    tag_147:\n        /* \"#utility.yul\":4014:4019   */\n      dup2\n        /* \"#utility.yul\":4011:4046   */\n      eq\n        /* \"#utility.yul\":4001:4064   */\n      tag_148\n      jumpi\n        /* \"#utility.yul\":4060:4061   */\n      0x00\n        /* \"#utility.yul\":4057:4058   */\n      dup1\n        /* \"#utility.yul\":4050:4062   */\n      revert\n        /* \"#utility.yul\":4001:4064   */\n    tag_148:\n        /* \"#utility.yul\":3948:4070   */\n      pop\n      jump\t// out\n        /* \"#utility.yul\":4076:4215   */\n    tag_75:\n        /* \"#utility.yul\":4122:4127   */\n      0x00\n        /* \"#utility.yul\":4160:4166   */\n      dup2\n        /* \"#utility.yul\":4147:4167   */\n      calldataload\n        /* \"#utility.yul\":4138:4167   */\n      swap1\n      pop\n        /* \"#utility.yul\":4176:4209   */\n      tag_150\n        /* \"#utility.yul\":4203:4208   */\n      dup2\n        /* \"#utility.yul\":4176:4209   */\n      tag_74\n      jump\t// in\n    tag_150:\n        /* \"#utility.yul\":4076:4215   */\n      swap3\n      swap2\n      pop\n      pop\n      jump\t// out\n        /* \"#utility.yul\":4221:4550   */\n    tag_13:\n        /* \"#utility.yul\":4280:4286   */\n      0x00\n        /* \"#utility.yul\":4329:4331   */\n      0x20\n        /* \"#utility.yul\":4317:4326   */\n      dup3\n        /* \"#utility.yul\":4308:4315   */\n      dup5\n        /* \"#utility.yul\":4304:4327   */\n      sub\n        /* \"#utility.yul\":4300:4332   */\n      slt\n        /* \"#utility.yul\":4297:4416   */\n      iszero\n      tag_152\n      jumpi\n        /* \"#utility.yul\":4335:4414   */\n      tag_153\n      tag_57\n      jump\t// in\n    tag_153:\n        /* \"#utility.yul\":4297:4416   */\n    tag_152:\n        /* \"#utility.yul\":4455:4456   */\n      0x00\n        /* \"#utility.yul\":4480:4533   */\n      tag_154\n        /* \"#utility.yul\":4525:4532   */\n      dup5\n        /* \"#utility.yul\":4516:4522   */\n      dup3\n        /* \"#utility.yul\":4505:4514   */\n      dup6\n        /* \"#utility.yul\":4501:4523   */\n      add\n        /* \"#utility.yul\":4480:4533   */\n      tag_75\n      jump\t// in\n    tag_154:\n        /* \"#utility.yul\":4470:4533   */\n      swap2\n      pop\n        /* \"#utility.yul\":4426:4543   */\n      pop\n        /* \"#utility.yul\":4221:4550   */\n      swap3\n      swap2\n      pop\n      pop\n      jump\t// out\n        /* \"#utility.yul\":4556:4655   */\n    tag_76:\n        /* \"#utility.yul\":4608:4614   */\n      0x00\n        /* \"#utility.yul\":4642:4647   */\n      dup2\n        /* \"#utility.yul\":4636:4648   */\n      mload\n        /* \"#utility.yul\":4626:4648   */\n      swap1\n      pop\n        /* \"#utility.yul\":4556:4655   */\n      swap2\n      swap1\n      pop\n      jump\t// out\n        /* \"#utility.yul\":4661:4830   */\n    tag_77:\n        /* \"#utility.yul\":4745:4756   */\n      0x00\n        /* \"#utility.yul\":4779:4785   */\n      dup3\n        /* \"#utility.yul\":4774:4777   */\n      dup3\n        /* \"#utility.yul\":4767:4786   */\n      mstore\n        /* \"#utility.yul\":4819:4823   */\n      0x20\n        /* \"#utility.yul\":4814:4817   */\n      dup3\n        /* \"#utility.yul\":4810:4824   */\n      add\n        /* \"#utility.yul\":4795:4824   */\n      swap1\n      pop\n        /* \"#utility.yul\":4661:4830   */\n      swap3\n      swap2\n      pop\n      pop\n      jump\t// out\n        /* \"#utility.yul\":4836:5082   */\n    tag_78:\n        /* \"#utility.yul\":4917:4918   */\n      0x00\n        /* \"#utility.yul\":4927:5040   */\n    tag_158:\n        /* \"#utility.yul\":4941:4947   */\n      dup4\n        /* \"#utility.yul\":4938:4939   */\n      dup2\n        /* \"#utility.yul\":4935:4948   */\n      lt\n        /* \"#utility.yul\":4927:5040   */\n      iszero\n      tag_160\n      jumpi\n        /* \"#utility.yul\":5026:5027   */\n      dup1\n        /* \"#utility.yul\":5021:5024   */\n      dup3\n        /* \"#utility.yul\":5017:5028   */\n      add\n        /* \"#utility.yul\":5011:5029   */\n      mload\n        /* \"#utility.yul\":5007:5008   */\n      dup2\n        /* \"#utility.yul\":5002:5005   */\n      dup5\n        /* \"#utility.yul\":4998:5009   */\n      add\n        /* \"#utility.yul\":4991:5030   */\n      mstore\n        /* \"#utility.yul\":4963:4965   */\n      0x20\n        /* \"#utility.yul\":4960:4961   */\n      dup2\n        /* \"#utility.yul\":4956:4966   */\n      add\n        /* \"#utility.yul\":4951:4966   */\n      swap1\n      pop\n        /* \"#utility.yul\":4927:5040   */\n      jump(tag_158)\n    tag_160:\n        /* \"#utility.yul\":5074:5075   */\n      0x00\n        /* \"#utility.yul\":5065:5071   */\n      dup5\n        /* \"#utility.yul\":5060:5063   */\n      dup5\n        /* \"#utility.yul\":5056:5072   */\n      add\n        /* \"#utility.yul\":5049:5076   */\n      mstore\n        /* \"#utility.yul\":4898:5082   */\n      pop\n        /* \"#utility.yul\":4836:5082   */\n      pop\n      pop\n      pop\n      jump\t// out\n        /* \"#utility.yul\":5088:5465   */\n    tag_79:\n        /* \"#utility.yul\":5176:5179   */\n      0x00\n        /* \"#utility.yul\":5204:5243   */\n      tag_162\n        /* \"#utility.yul\":5237:5242   */\n      dup3\n        /* \"#utility.yul\":5204:5243   */\n      tag_76\n      jump\t// in\n    tag_162:\n        /* \"#utility.yul\":5259:5330   */\n      tag_163\n        /* \"#utility.yul\":5323:5329   */\n      dup2\n        /* \"#utility.yul\":5318:5321   */\n      dup6\n        /* \"#utility.yul\":5259:5330   */\n      tag_77\n      jump\t// in\n    tag_163:\n        /* \"#utility.yul\":5252:5330   */\n      swap4\n      pop\n        /* \"#utility.yul\":5339:5404   */\n      tag_164\n        /* \"#utility.yul\":5397:5403   */\n      dup2\n        /* \"#utility.yul\":5392:5395   */\n      dup6\n        /* \"#utility.yul\":5385:5389   */\n      0x20\n        /* \"#utility.yul\":5378:5383   */\n      dup7\n        /* \"#utility.yul\":5374:5390   */\n      add\n        /* \"#utility.yul\":5339:5404   */\n      tag_78\n      jump\t// in\n    tag_164:\n        /* \"#utility.yul\":5429:5458   */\n      tag_165\n        /* \"#utility.yul\":5451:5457   */\n      dup2\n        /* \"#utility.yul\":5429:5458   */\n      tag_61\n      jump\t// in\n    tag_165:\n        /* \"#utility.yul\":5424:5427   */\n      dup5\n        /* \"#utility.yul\":5420:5459   */\n      add\n        /* \"#utility.yul\":5413:5459   */\n      swap2\n      pop\n        /* \"#utility.yul\":5180:5465   */\n      pop\n        /* \"#utility.yul\":5088:5465   */\n      swap3\n      swap2\n      pop\n      pop\n      jump\t// out\n        /* \"#utility.yul\":5471:5589   */\n    tag_80:\n        /* \"#utility.yul\":5558:5582   */\n      tag_167\n        /* \"#utility.yul\":5576:5581   */\n      dup2\n        /* \"#utility.yul\":5558:5582   */\n      tag_69\n      jump\t// in\n    tag_167:\n        /* \"#utility.yul\":5553:5556   */\n      dup3\n        /* \"#utility.yul\":5546:5583   */\n      mstore\n        /* \"#utility.yul\":5471:5589   */\n      pop\n      pop\n      jump\t// out\n        /* \"#utility.yul\":5595:6350   */\n    tag_16:\n        /* \"#utility.yul\":5820:5824   */\n      0x00\n        /* \"#utility.yul\":5858:5861   */\n      0xa0\n        /* \"#utility.yul\":5847:5856   */\n      dup3\n        /* \"#utility.yul\":5843:5862   */\n      add\n        /* \"#utility.yul\":5835:5862   */\n      swap1\n      pop\n        /* \"#utility.yul\":5908:5917   */\n      dup2\n        /* \"#utility.yul\":5902:5906   */\n      dup2\n        /* \"#utility.yul\":5898:5918   */\n      sub\n        /* \"#utility.yul\":5894:5895   */\n      0x00\n        /* \"#utility.yul\":5883:5892   */\n      dup4\n        /* \"#utility.yul\":5879:5896   */\n      add\n        /* \"#utility.yul\":5872:5919   */\n      mstore\n        /* \"#utility.yul\":5936:6014   */\n      tag_169\n        /* \"#utility.yul\":6009:6013   */\n      dup2\n        /* \"#utility.yul\":6000:6006   */\n      dup9\n        /* \"#utility.yul\":5936:6014   */\n      tag_79\n      jump\t// in\n    tag_169:\n        /* \"#utility.yul\":5928:6014   */\n      swap1\n      pop\n        /* \"#utility.yul\":6024:6096   */\n      tag_170\n        /* \"#utility.yul\":6092:6094   */\n      0x20\n        /* \"#utility.yul\":6081:6090   */\n      dup4\n        /* \"#utility.yul\":6077:6095   */\n      add\n        /* \"#utility.yul\":6068:6074   */\n      dup8\n        /* \"#utility.yul\":6024:6096   */\n      tag_80\n      jump\t// in\n    tag_170:\n        /* \"#utility.yul\":6106:6178   */\n      tag_171\n        /* \"#utility.yul\":6174:6176   */\n      0x40\n        /* \"#utility.yul\":6163:6172   */\n      dup4\n        /* \"#utility.yul\":6159:6177   */\n      add\n        /* \"#utility.yul\":6150:6156   */\n      dup7\n        /* \"#utility.yul\":6106:6178   */\n      tag_80\n      jump\t// in\n    tag_171:\n        /* \"#utility.yul\":6188:6260   */\n      tag_172\n        /* \"#utility.yul\":6256:6258   */\n      0x60\n        /* \"#utility.yul\":6245:6254   */\n      dup4\n        /* \"#utility.yul\":6241:6259   */\n      add\n        /* \"#utility.yul\":6232:6238   */\n      dup6\n        /* \"#utility.yul\":6188:6260   */\n      tag_80\n      jump\t// in\n    tag_172:\n        /* \"#utility.yul\":6270:6343   */\n      tag_173\n        /* \"#utility.yul\":6338:6341   */\n      0x80\n        /* \"#utility.yul\":6327:6336   */\n      dup4\n        /* \"#utility.yul\":6323:6342   */\n      add\n        /* \"#utility.yul\":6314:6320   */\n      dup5\n        /* \"#utility.yul\":6270:6343   */\n      tag_80\n      jump\t// in\n    tag_173:\n        /* \"#utility.yul\":5595:6350   */\n      swap7\n      swap6\n      pop\n      pop\n      pop\n      pop\n      pop\n      pop\n      jump\t// out\n        /* \"#utility.yul\":6356:7000   */\n    tag_20:\n        /* \"#utility.yul\":6553:6557   */\n      0x00\n        /* \"#utility.yul\":6591:6594   */\n      0x80\n        /* \"#utility.yul\":6580:6589   */\n      dup3\n        /* \"#utility.yul\":6576:6595   */\n      add\n        /* \"#utility.yul\":6568:6595   */\n      swap1\n      pop\n        /* \"#utility.yul\":6641:6650   */\n      dup2\n        /* \"#utility.yul\":6635:6639   */\n      dup2\n        /* \"#utility.yul\":6631:6651   */\n      sub\n        /* \"#utility.yul\":6627:6628   */\n      0x00\n        /* \"#utility.yul\":6616:6625   */\n      dup4\n        /* \"#utility.yul\":6612:6629   */\n      add\n        /* \"#utility.yul\":6605:6652   */\n      mstore\n        /* \"#utility.yul\":6669:6747   */\n      tag_175\n        /* \"#utility.yul\":6742:6746   */\n      dup2\n        /* \"#utility.yul\":6733:6739   */\n      dup8\n        /* \"#utility.yul\":6669:6747   */\n      tag_79\n      jump\t// in\n    tag_175:\n        /* \"#utility.yul\":6661:6747   */\n      swap1\n      pop\n        /* \"#utility.yul\":6757:6829   */\n      tag_176\n        /* \"#utility.yul\":6825:6827   */\n      0x20\n        /* \"#utility.yul\":6814:6823   */\n      dup4\n        /* \"#utility.yul\":6810:6828   */\n      add\n        /* \"#utility.yul\":6801:6807   */\n      dup7\n        /* \"#utility.yul\":6757:6829   */\n      tag_80\n      jump\t// in\n    tag_176:\n        /* \"#utility.yul\":6839:6911   */\n      tag_177\n        /* \"#utility.yul\":6907:6909   */\n      0x40\n        /* \"#utility.yul\":6896:6905   */\n      dup4\n        /* \"#utility.yul\":6892:6910   */\n      add\n        /* \"#utility.yul\":6883:6889   */\n      dup6\n        /* \"#utility.yul\":6839:6911   */\n      tag_80\n      jump\t// in\n    tag_177:\n        /* \"#utility.yul\":6921:6993   */\n      tag_178\n        /* \"#utility.yul\":6989:6991   */\n      0x60\n        /* \"#utility.yul\":6978:6987   */\n      dup4\n        /* \"#utility.yul\":6974:6992   */\n      add\n        /* \"#utility.yul\":6965:6971   */\n      dup5\n        /* \"#utility.yul\":6921:6993   */\n      tag_80\n      jump\t// in\n    tag_178:\n        /* \"#utility.yul\":6356:7000   */\n      swap6\n      swap5\n      pop\n      pop\n      pop\n      pop\n      pop\n      jump\t// out\n        /* \"#utility.yul\":7006:7338   */\n    tag_24:\n        /* \"#utility.yul\":7127:7131   */\n      0x00\n        /* \"#utility.yul\":7165:7167   */\n      0x40\n        /* \"#utility.yul\":7154:7163   */\n      dup3\n        /* \"#utility.yul\":7150:7168   */\n      add\n        /* \"#utility.yul\":7142:7168   */\n      swap1\n      pop\n        /* \"#utility.yul\":7178:7249   */\n      tag_180\n        /* \"#utility.yul\":7246:7247   */\n      0x00\n        /* \"#utility.yul\":7235:7244   */\n      dup4\n        /* \"#utility.yul\":7231:7248   */\n      add\n        /* \"#utility.yul\":7222:7228   */\n      dup6\n        /* \"#utility.yul\":7178:7249   */\n      tag_80\n      jump\t// in\n    tag_180:\n        /* \"#utility.yul\":7259:7331   */\n      tag_181\n        /* \"#utility.yul\":7327:7329   */\n      0x20\n        /* \"#utility.yul\":7316:7325   */\n      dup4\n        /* \"#utility.yul\":7312:7330   */\n      add\n        /* \"#utility.yul\":7303:7309   */\n      dup5\n        /* \"#utility.yul\":7259:7331   */\n      tag_80\n      jump\t// in\n    tag_181:\n        /* \"#utility.yul\":7006:7338   */\n      swap4\n      swap3\n      pop\n      pop\n      pop\n      jump\t// out\n        /* \"#utility.yul\":7344:7524   */\n    tag_81:\n        /* \"#utility.yul\":7392:7469   */\n      0x4e487b7100000000000000000000000000000000000000000000000000000000\n        /* \"#utility.yul\":7389:7390   */\n      0x00\n        /* \"#utility.yul\":7382:7470   */\n      mstore\n        /* \"#utility.yul\":7489:7493   */\n      0x11\n        /* \"#utility.yul\":7486:7487   */\n      0x04\n        /* \"#utility.yul\":7479:7494   */\n      mstore\n        /* \"#utility.yul\":7513:7517   */\n      0x24\n        /* \"#utility.yul\":7510:7511   */\n      0x00\n        /* \"#utility.yul\":7503:7518   */\n      revert\n        /* \"#utility.yul\":7530:7721   */\n    tag_27:\n        /* \"#utility.yul\":7570:7573   */\n      0x00\n        /* \"#utility.yul\":7589:7609   */\n      tag_184\n        /* \"#utility.yul\":7607:7608   */\n      dup3\n        /* \"#utility.yul\":7589:7609   */\n      tag_69\n      jump\t// in\n    tag_184:\n        /* \"#utility.yul\":7584:7609   */\n      swap2\n      pop\n        /* \"#utility.yul\":7623:7643   */\n      tag_185\n        /* \"#utility.yul\":7641:7642   */\n      dup4\n        /* \"#utility.yul\":7623:7643   */\n      tag_69\n      jump\t// in\n    tag_185:\n        /* \"#utility.yul\":7618:7643   */\n      swap3\n      pop\n        /* \"#utility.yul\":7666:7667   */\n      dup3\n        /* \"#utility.yul\":7663:7664   */\n      dup3\n        /* \"#utility.yul\":7659:7668   */\n      add\n        /* \"#utility.yul\":7652:7668   */\n      swap1\n      pop\n        /* \"#utility.yul\":7687:7690   */\n      dup1\n        /* \"#utility.yul\":7684:7685   */\n      dup3\n        /* \"#utility.yul\":7681:7691   */\n      gt\n        /* \"#utility.yul\":7678:7714   */\n      iszero\n      tag_186\n      jumpi\n        /* \"#utility.yul\":7694:7712   */\n      tag_187\n      tag_81\n      jump\t// in\n    tag_187:\n        /* \"#utility.yul\":7678:7714   */\n    tag_186:\n        /* \"#utility.yul\":7530:7721   */\n      swap3\n      swap2\n      pop\n      pop\n      jump\t// out\n        /* \"#utility.yul\":7727:7907   */\n    tag_82:\n        /* \"#utility.yul\":7775:7852   */\n      0x4e487b7100000000000000000000000000000000000000000000000000000000\n        /* \"#utility.yul\":7772:7773   */\n      0x00\n        /* \"#utility.yul\":7765:7853   */\n      mstore\n        /* \"#utility.yul\":7872:7876   */\n      0x22\n        /* \"#utility.yul\":7869:7870   */\n      0x04\n        /* \"#utility.yul\":7862:7877   */\n      mstore\n        /* \"#utility.yul\":7896:7900   */\n      0x24\n        /* \"#utility.yul\":7893:7894   */\n      0x00\n        /* \"#utility.yul\":7886:7901   */\n      revert\n        /* \"#utility.yul\":7913:8233   */\n    tag_31:\n        /* \"#utility.yul\":7957:7963   */\n      0x00\n        /* \"#utility.yul\":7994:7995   */\n      0x02\n        /* \"#utility.yul\":7988:7992   */\n      dup3\n        /* \"#utility.yul\":7984:7996   */\n      div\n        /* \"#utility.yul\":7974:7996   */\n      swap1\n      pop\n        /* \"#utility.yul\":8041:8042   */\n      0x01\n        /* \"#utility.yul\":8035:8039   */\n      dup3\n        /* \"#utility.yul\":8031:8043   */\n      and\n        /* \"#utility.yul\":8062:8080   */\n      dup1\n        /* \"#utility.yul\":8052:8133   */\n      tag_190\n      jumpi\n        /* \"#utility.yul\":8118:8122   */\n      0x7f\n        /* \"#utility.yul\":8110:8116   */\n      dup3\n        /* \"#utility.yul\":8106:8123   */\n      and\n        /* \"#utility.yul\":8096:8123   */\n      swap2\n      pop\n        /* \"#utility.yul\":8052:8133   */\n    tag_190:\n        /* \"#utility.yul\":8180:8182   */\n      0x20\n        /* \"#utility.yul\":8172:8178   */\n      dup3\n        /* \"#utility.yul\":8169:8183   */\n      lt\n        /* \"#utility.yul\":8149:8167   */\n      dup2\n        /* \"#utility.yul\":8146:8184   */\n      sub\n        /* \"#utility.yul\":8143:8227   */\n      tag_191\n      jumpi\n        /* \"#utility.yul\":8199:8217   */\n      tag_192\n      tag_82\n      jump\t// in\n    tag_192:\n        /* \"#utility.yul\":8143:8227   */\n    tag_191:\n        /* \"#utility.yul\":7964:8233   */\n      pop\n        /* \"#utility.yul\":7913:8233   */\n      swap2\n      swap1\n      pop\n      jump\t// out\n        /* \"#utility.yul\":8239:8380   */\n    tag_83:\n        /* \"#utility.yul\":8288:8292   */\n      0x00\n        /* \"#utility.yul\":8311:8314   */\n      dup2\n        /* \"#utility.yul\":8303:8314   */\n      swap1\n      pop\n        /* \"#utility.yul\":8334:8337   */\n      dup2\n        /* \"#utility.yul\":8331:8332   */\n      0x00\n        /* \"#utility.yul\":8324:8338   */\n      mstore\n        /* \"#utility.yul\":8368:8372   */\n      0x20\n        /* \"#utility.yul\":8365:8366   */\n      0x00\n        /* \"#utility.yul\":8355:8373   */\n      keccak256\n        /* \"#utility.yul\":8347:8373   */\n      swap1\n      pop\n        /* \"#utility.yul\":8239:8380   */\n      swap2\n      swap1\n      pop\n      jump\t// out\n        /* \"#utility.yul\":8386:8479   */\n    tag_84:\n        /* \"#utility.yul\":8423:8429   */\n      0x00\n        /* \"#utility.yul\":8470:8472   */\n      0x20\n        /* \"#utility.yul\":8465:8467   */\n      0x1f\n        /* \"#utility.yul\":8458:8463   */\n      dup4\n        /* \"#utility.yul\":8454:8468   */\n      add\n        /* \"#utility.yul\":8450:8473   */\n      div\n        /* \"#utility.yul\":8440:8473   */\n      swap1\n      pop\n        /* \"#utility.yul\":8386:8479   */\n      swap2\n      swap1\n      pop\n      jump\t// out\n        /* \"#utility.yul\":8485:8592   */\n    tag_85:\n        /* \"#utility.yul\":8529:8537   */\n      0x00\n        /* \"#utility.yul\":8579:8584   */\n      dup3\n        /* \"#utility.yul\":8573:8577   */\n      dup3\n        /* \"#utility.yul\":8569:8585   */\n      shl\n        /* \"#utility.yul\":8548:8585   */\n      swap1\n      pop\n        /* \"#utility.yul\":8485:8592   */\n      swap3\n      swap2\n      pop\n      pop\n      jump\t// out\n        /* \"#utility.yul\":8598:8991   */\n    tag_86:\n        /* \"#utility.yul\":8667:8673   */\n      0x00\n        /* \"#utility.yul\":8717:8718   */\n      0x08\n        /* \"#utility.yul\":8705:8715   */\n      dup4\n        /* \"#utility.yul\":8701:8719   */\n      mul\n        /* \"#utility.yul\":8740:8837   */\n      tag_197\n        /* \"#utility.yul\":8770:8836   */\n      0xffffffffffffffffffffffffffffffffffffffffffffffffffffffffffffffff\n        /* \"#utility.yul\":8759:8768   */\n      dup3\n        /* \"#utility.yul\":8740:8837   */\n      tag_85\n      jump\t// in\n    tag_197:\n        /* \"#utility.yul\":8858:8897   */\n      tag_198\n        /* \"#utility.yul\":8888:8896   */\n      dup7\n        /* \"#utility.yul\":8877:8886   */\n      dup4\n        /* \"#utility.yul\":8858:8897   */\n      tag_85\n      jump\t// in\n    tag_198:\n        /* \"#utility.yul\":8846:8897   */\n      swap6\n      pop\n        /* \"#utility.yul\":8930:8934   */\n      dup1\n        /* \"#utility.yul\":8926:8935   */\n      not\n        /* \"#utility.yul\":8919:8924   */\n      dup5\n        /* \"#utility.yul\":8915:8936   */\n      and\n        /* \"#utility.yul\":8906:8936   */\n      swap4\n      pop\n        /* \"#utility.yul\":8979:8983   */\n      dup1\n        /* \"#utility.yul\":8969:8977   */\n      dup7\n        /* \"#utility.yul\":8965:8984   */\n      and\n        /* \"#utility.yul\":8958:8963   */\n      dup5\n        /* \"#utility.yul\":8955:8985   */\n      or\n        /* \"#utility.yul\":8945:8985   */\n      swap3\n      pop\n        /* \"#utility.yul\":8674:8991   */\n      pop\n      pop\n        /* \"#utility.yul\":8598:8991   */\n      swap4\n      swap3\n      pop\n      pop\n      pop\n      jump\t// out\n        /* \"#utility.yul\":8997:9057   */\n    tag_87:\n        /* \"#utility.yul\":9025:9028   */\n      0x00\n        /* \"#utility.yul\":9046:9051   */\n      dup2\n        /* \"#utility.yul\":9039:9051   */\n      swap1\n      pop\n        /* \"#utility.yul\":8997:9057   */\n      swap2\n      swap1\n      pop\n      jump\t// out\n        /* \"#utility.yul\":9063:9205   */\n    tag_88:\n        /* \"#utility.yul\":9113:9122   */\n      0x00\n        /* \"#utility.yul\":9146:9199   */\n      tag_201\n        /* \"#utility.yul\":9164:9198   */\n      tag_202\n        /* \"#utility.yul\":9173:9197   */\n      tag_203\n        /* \"#utility.yul\":9191:9196   */\n      dup5\n        /* \"#utility.yul\":9173:9197   */\n      tag_69\n      jump\t// in\n    tag_203:\n        /* \"#utility.yul\":9164:9198   */\n      tag_87\n      jump\t// in\n    tag_202:\n        /* \"#utility.yul\":9146:9199   */\n      tag_69\n      jump\t// in\n    tag_201:\n        /* \"#utility.yul\":9133:9199   */\n      swap1\n      pop\n        /* \"#utility.yul\":9063:9205   */\n      swap2\n      swap1\n      pop\n      jump\t// out\n        /* \"#utility.yul\":9211:9286   */\n    tag_89:\n        /* \"#utility.yul\":9254:9257   */\n      0x00\n        /* \"#utility.yul\":9275:9280   */\n      dup2\n        /* \"#utility.yul\":9268:9280   */\n      swap1\n      pop\n        /* \"#utility.yul\":9211:9286   */\n      swap2\n      swap1\n      pop\n      jump\t// out\n        /* \"#utility.yul\":9292:9561   */\n    tag_90:\n        /* \"#utility.yul\":9402:9441   */\n      tag_206\n        /* \"#utility.yul\":9433:9440   */\n      dup4\n        /* \"#utility.yul\":9402:9441   */\n      tag_88\n      jump\t// in\n    tag_206:\n        /* \"#utility.yul\":9463:9554   */\n      tag_207\n        /* \"#utility.yul\":9512:9553   */\n      tag_208\n        /* \"#utility.yul\":9536:9552   */\n      dup3\n        /* \"#utility.yul\":9512:9553   */\n      tag_89\n      jump\t// in\n    tag_208:\n        /* \"#utility.yul\":9504:9510   */\n      dup5\n        /* \"#utility.yul\":9497:9501   */\n      dup5\n        /* \"#utility.yul\":9491:9502   */\n      sload\n        /* \"#utility.yul\":9463:9554   */\n      tag_86\n      jump\t// in\n    tag_207:\n        /* \"#utility.yul\":9457:9461   */\n      dup3\n        /* \"#utility.yul\":9450:9555   */\n      sstore\n        /* \"#utility.yul\":9368:9561   */\n      pop\n        /* \"#utility.yul\":9292:9561   */\n      pop\n      pop\n      pop\n      jump\t// out\n        /* \"#utility.yul\":9567:9640   */\n    tag_91:\n        /* \"#utility.yul\":9612:9615   */\n      0x00\n        /* \"#utility.yul\":9567:9640   */\n      swap1\n      jump\t// out\n        /* \"#utility.yul\":9646:9835   */\n    tag_92:\n        /* \"#utility.yul\":9723:9755   */\n      tag_211\n      tag_91\n      jump\t// in\n    tag_211:\n        /* \"#utility.yul\":9764:9829   */\n      tag_212\n        /* \"#utility.yul\":9822:9828   */\n      dup2\n        /* \"#utility.yul\":9814:9820   */\n      dup5\n        /* \"#utility.yul\":9808:9812   */\n      dup5\n        /* \"#utility.yul\":9764:9829   */\n      tag_90\n      jump\t// in\n    tag_212:\n        /* \"#utility.yul\":9699:9835   */\n      pop\n        /* \"#utility.yul\":9646:9835   */\n      pop\n      pop\n      jump\t// out\n        /* \"#utility.yul\":9841:10027   */\n    tag_93:\n        /* \"#utility.yul\":9901:10021   */\n    tag_214:\n        /* \"#utility.yul\":9918:9921   */\n      dup2\n        /* \"#utility.yul\":9911:9916   */\n      dup2\n        /* \"#utility.yul\":9908:9922   */\n      lt\n        /* \"#utility.yul\":9901:10021   */\n      iszero\n      tag_216\n      jumpi\n        /* \"#utility.yul\":9972:10011   */\n      tag_217\n        /* \"#utility.yul\":10009:10010   */\n      0x00\n        /* \"#utility.yul\":10002:10007   */\n      dup3\n        /* \"#utility.yul\":9972:10011   */\n      tag_92\n      jump\t// in\n    tag_217:\n        /* \"#utility.yul\":9945:9946   */\n      0x01\n        /* \"#utility.yul\":9938:9943   */\n      dup2\n        /* \"#utility.yul\":9934:9947   */\n      add\n        /* \"#utility.yul\":9925:9947   */\n      swap1\n      pop\n        /* \"#utility.yul\":9901:10021   */\n      jump(tag_214)\n    tag_216:\n        /* \"#utility.yul\":9841:10027   */\n      pop\n      pop\n      jump\t// out\n        /* \"#utility.yul\":10033:10576   */\n    tag_94:\n        /* \"#utility.yul\":10134:10136   */\n      0x1f\n        /* \"#utility.yul\":10129:10132   */\n      dup3\n        /* \"#utility.yul\":10126:10137   */\n      gt\n        /* \"#utility.yul\":10123:10569   */\n      iszero\n      tag_219\n      jumpi\n        /* \"#utility.yul\":10168:10206   */\n      tag_220\n        /* \"#utility.yul\":10200:10205   */\n      dup2\n        /* \"#utility.yul\":10168:10206   */\n      tag_83\n      jump\t// in\n    tag_220:\n        /* \"#utility.yul\":10252:10281   */\n      tag_221\n        /* \"#utility.yul\":10270:10280   */\n      dup5\n        /* \"#utility.yul\":10252:10281   */\n      tag_84\n      jump\t// in\n    tag_221:\n        /* \"#utility.yul\":10242:10250   */\n      dup2\n        /* \"#utility.yul\":10238:10282   */\n      add\n        /* \"#utility.yul\":10435:10437   */\n      0x20\n        /* \"#utility.yul\":10423:10433   */\n      dup6\n        /* \"#utility.yul\":10420:10438   */\n      lt\n        /* \"#utility.yul\":10417:10466   */\n      iszero\n      tag_222\n      jumpi\n        /* \"#utility.yul\":10456:10464   */\n      dup2\n        /* \"#utility.yul\":10441:10464   */\n      swap1\n      pop\n        /* \"#utility.yul\":10417:10466   */\n    tag_222:\n        /* \"#utility.yul\":10479:10559   */\n      tag_223\n        /* \"#utility.yul\":10535:10557   */\n      tag_224\n        /* \"#utility.yul\":10553:10556   */\n      dup6\n        /* \"#utility.yul\":10535:10557   */\n      tag_84\n      jump\t// in\n    tag_224:\n        /* \"#utility.yul\":10525:10533   */\n      dup4\n        /* \"#utility.yul\":10521:10558   */\n      add\n        /* \"#utility.yul\":10508:10519   */\n      dup3\n        /* \"#utility.yul\":10479:10559   */\n      tag_93\n      jump\t// in\n    tag_223:\n        /* \"#utility.yul\":10138:10569   */\n      pop\n      pop\n        /* \"#utility.yul\":10123:10569   */\n    tag_219:\n        /* \"#utility.yul\":10033:10576   */\n      pop\n      pop\n      pop\n      jump\t// out\n        /* \"#utility.yul\":10582:10699   */\n    tag_95:\n        /* \"#utility.yul\":10636:10644   */\n      0x00\n        /* \"#utility.yul\":10686:10691   */\n      dup3\n        /* \"#utility.yul\":10680:10684   */\n      dup3\n        /* \"#utility.yul\":10676:10692   */\n      shr\n        /* \"#utility.yul\":10655:10692   */\n      swap1\n      pop\n        /* \"#utility.yul\":10582:10699   */\n      swap3\n      swap2\n      pop\n      pop\n      jump\t// out\n        /* \"#utility.yul\":10705:10874   */\n    tag_96:\n        /* \"#utility.yul\":10749:10755   */\n      0x00\n        /* \"#utility.yul\":10782:10833   */\n      tag_227\n        /* \"#utility.yul\":10830:10831   */\n      0x00\n        /* \"#utility.yul\":10826:10832   */\n      not\n        /* \"#utility.yul\":10818:10823   */\n      dup5\n        /* \"#utility.yul\":10815:10816   */\n      0x08\n        /* \"#utility.yul\":10811:10824   */\n      mul\n        /* \"#utility.yul\":10782:10833   */\n      tag_95\n      jump\t// in\n    tag_227:\n        /* \"#utility.yul\":10778:10834   */\n      not\n        /* \"#utility.yul\":10863:10867   */\n      dup1\n        /* \"#utility.yul\":10857:10861   */\n      dup4\n        /* \"#utility.yul\":10853:10868   */\n      and\n        /* \"#utility.yul\":10843:10868   */\n      swap2\n      pop\n        /* \"#utility.yul\":10756:10874   */\n      pop\n        /* \"#utility.yul\":10705:10874   */\n      swap3\n      swap2\n      pop\n      pop\n      jump\t// out\n        /* \"#utility.yul\":10879:11174   */\n    tag_97:\n        /* \"#utility.yul\":10955:10959   */\n      0x00\n        /* \"#utility.yul\":11101:11130   */\n      tag_229\n        /* \"#utility.yul\":11126:11129   */\n      dup4\n        /* \"#utility.yul\":11120:11124   */\n      dup4\n        /* \"#utility.yul\":11101:11130   */\n      tag_96\n      jump\t// in\n    tag_229:\n        /* \"#utility.yul\":11093:11130   */\n      swap2\n      pop\n        /* \"#utility.yul\":11163:11166   */\n      dup3\n        /* \"#utility.yul\":11160:11161   */\n      0x02\n        /* \"#utility.yul\":11156:11167   */\n      mul\n        /* \"#utility.yul\":11150:11154   */\n      dup3\n        /* \"#utility.yul\":11147:11168   */\n      or\n        /* \"#utility.yul\":11139:11168   */\n      swap1\n      pop\n        /* \"#utility.yul\":10879:11174   */\n      swap3\n      swap2\n      pop\n      pop\n      jump\t// out\n        /* \"#utility.yul\":11179:12574   */\n    tag_29:\n        /* \"#utility.yul\":11296:11333   */\n      tag_231\n        /* \"#utility.yul\":11329:11332   */\n      dup3\n        /* \"#utility.yul\":11296:11333   */\n      tag_76\n      jump\t// in\n    tag_231:\n        /* \"#utility.yul\":11398:11416   */\n      0xffffffffffffffff\n        /* \"#utility.yul\":11390:11396   */\n      dup2\n        /* \"#utility.yul\":11387:11417   */\n      gt\n        /* \"#utility.yul\":11384:11440   */\n      iszero\n      tag_232\n      jumpi\n        /* \"#utility.yul\":11420:11438   */\n      tag_233\n      tag_62\n      jump\t// in\n    tag_233:\n        /* \"#utility.yul\":11384:11440   */\n    tag_232:\n        /* \"#utility.yul\":11464:11502   */\n      tag_234\n        /* \"#utility.yul\":11496:11500   */\n      dup3\n        /* \"#utility.yul\":11490:11501   */\n      sload\n        /* \"#utility.yul\":11464:11502   */\n      tag_31\n      jump\t// in\n    tag_234:\n        /* \"#utility.yul\":11549:11616   */\n      tag_235\n        /* \"#utility.yul\":11609:11615   */\n      dup3\n        /* \"#utility.yul\":11601:11607   */\n      dup3\n        /* \"#utility.yul\":11595:11599   */\n      dup6\n        /* \"#utility.yul\":11549:11616   */\n      tag_94\n      jump\t// in\n    tag_235:\n        /* \"#utility.yul\":11643:11644   */\n      0x00\n        /* \"#utility.yul\":11667:11671   */\n      0x20\n        /* \"#utility.yul\":11654:11671   */\n      swap1\n      pop\n        /* \"#utility.yul\":11699:11701   */\n      0x1f\n        /* \"#utility.yul\":11691:11697   */\n      dup4\n        /* \"#utility.yul\":11688:11702   */\n      gt\n        /* \"#utility.yul\":11716:11717   */\n      0x01\n        /* \"#utility.yul\":11711:12329   */\n      dup2\n      eq\n      tag_237\n      jumpi\n        /* \"#utility.yul\":12373:12374   */\n      0x00\n        /* \"#utility.yul\":12390:12396   */\n      dup5\n        /* \"#utility.yul\":12387:12464   */\n      iszero\n      tag_238\n      jumpi\n        /* \"#utility.yul\":12439:12448   */\n      dup3\n        /* \"#utility.yul\":12434:12437   */\n      dup8\n        /* \"#utility.yul\":12430:12449   */\n      add\n        /* \"#utility.yul\":12424:12450   */\n      mload\n        /* \"#utility.yul\":12415:12450   */\n      swap1\n      pop\n        /* \"#utility.yul\":12387:12464   */\n    tag_238:\n        /* \"#utility.yul\":12490:12557   */\n      tag_239\n        /* \"#utility.yul\":12550:12556   */\n      dup6\n        /* \"#utility.yul\":12543:12548   */\n      dup3\n        /* \"#utility.yul\":12490:12557   */\n      tag_97\n      jump\t// in\n    tag_239:\n        /* \"#utility.yul\":12484:12488   */\n      dup7\n        /* \"#utility.yul\":12477:12558   */\n      sstore\n        /* \"#utility.yul\":12346:12568   */\n      pop\n        /* \"#utility.yul\":11681:12568   */\n      jump(tag_236)\n        /* \"#utility.yul\":11711:12329   */\n    tag_237:\n        /* \"#utility.yul\":11763:11767   */\n      0x1f\n        /* \"#utility.yul\":11759:11768   */\n      not\n        /* \"#utility.yul\":11751:11757   */\n      dup5\n        /* \"#utility.yul\":11747:11769   */\n      and\n        /* \"#utility.yul\":11797:11834   */\n      tag_240\n        /* \"#utility.yul\":11829:11833   */\n      dup7\n        /* \"#utility.yul\":11797:11834   */\n      tag_83\n      jump\t// in\n    tag_240:\n        /* \"#utility.yul\":11856:11857   */\n      0x00\n        /* \"#utility.yul\":11870:12078   */\n    tag_241:\n        /* \"#utility.yul\":11884:11891   */\n      dup3\n        /* \"#utility.yul\":11881:11882   */\n      dup2\n        /* \"#utility.yul\":11878:11892   */\n      lt\n        /* \"#utility.yul\":11870:12078   */\n      iszero\n      tag_243\n      jumpi\n        /* \"#utility.yul\":11963:11972   */\n      dup5\n        /* \"#utility.yul\":11958:11961   */\n      dup10\n        /* \"#utility.yul\":11954:11973   */\n      add\n        /* \"#utility.yul\":11948:11974   */\n      mload\n        /* \"#utility.yul\":11940:11946   */\n      dup3\n        /* \"#utility.yul\":11933:11975   */\n      sstore\n        /* \"#utility.yul\":12014:12015   */\n      0x01\n        /* \"#utility.yul\":12006:12012   */\n      dup3\n        /* \"#utility.yul\":12002:12016   */\n      add\n        /* \"#utility.yul\":11992:12016   */\n      swap2\n      pop\n        /* \"#utility.yul\":12061:12063   */\n      0x20\n        /* \"#utility.yul\":12050:12059   */\n      dup6\n        /* \"#utility.yul\":12046:12064   */\n      add\n        /* \"#utility.yul\":12033:12064   */\n      swap5\n      pop\n        /* \"#utility.yul\":11907:11911   */\n      0x20\n        /* \"#utility.yul\":11904:11905   */\n      dup2\n        /* \"#utility.yul\":11900:11912   */\n      add\n        /* \"#utility.yul\":11895:11912   */\n      swap1\n      pop\n        /* \"#utility.yul\":11870:12078   */\n      jump(tag_241)\n    tag_243:\n        /* \"#utility.yul\":12106:12112   */\n      dup7\n        /* \"#utility.yul\":12097:12104   */\n      dup4\n        /* \"#utility.yul\":12094:12113   */\n      lt\n        /* \"#utility.yul\":12091:12270   */\n      iszero\n      tag_244\n      jumpi\n        /* \"#utility.yul\":12164:12173   */\n      dup5\n        /* \"#utility.yul\":12159:12162   */\n      dup10\n        /* \"#utility.yul\":12155:12174   */\n      add\n        /* \"#utility.yul\":12149:12175   */\n      mload\n        /* \"#utility.yul\":12207:12255   */\n      tag_245\n        /* \"#utility.yul\":12249:12253   */\n      0x1f\n        /* \"#utility.yul\":12241:12247   */\n      dup10\n        /* \"#utility.yul\":12237:12254   */\n      and\n        /* \"#utility.yul\":12226:12235   */\n      dup3\n        /* \"#utility.yul\":12207:12255   */\n      tag_96\n      jump\t// in\n    tag_245:\n        /* \"#utility.yul\":12199:12205   */\n      dup4\n        /* \"#utility.yul\":12192:12256   */\n      sstore\n        /* \"#utility.yul\":12114:12270   */\n      pop\n        /* \"#utility.yul\":12091:12270   */\n    tag_244:\n        /* \"#utility.yul\":12316:12317   */\n      0x01\n        /* \"#utility.yul\":12312:12313   */\n      0x02\n        /* \"#utility.yul\":12304:12310   */\n      dup9\n        /* \"#utility.yul\":12300:12314   */\n      mul\n        /* \"#utility.yul\":12296:12318   */\n      add\n        /* \"#utility.yul\":12290:12294   */\n      dup9\n        /* \"#utility.yul\":12283:12319   */\n      sstore\n        /* \"#utility.yul\":11718:12329   */\n      pop\n      pop\n      pop\n        /* \"#utility.yul\":11681:12568   */\n    tag_236:\n      pop\n        /* \"#utility.yul\":11271:12574   */\n      pop\n      pop\n      pop\n        /* \"#utility.yul\":11179:12574   */\n      pop\n      pop\n      jump\t// out\n        /* \"#utility.yul\":12580:12990   */\n    tag_43:\n        /* \"#utility.yul\":12620:12627   */\n      0x00\n        /* \"#utility.yul\":12643:12663   */\n      tag_247\n        /* \"#utility.yul\":12661:12662   */\n      dup3\n        /* \"#utility.yul\":12643:12663   */\n      tag_69\n      jump\t// in\n    tag_247:\n        /* \"#utility.yul\":12638:12663   */\n      swap2\n      pop\n        /* \"#utility.yul\":12677:12697   */\n      tag_248\n        /* \"#utility.yul\":12695:12696   */\n      dup4\n        /* \"#utility.yul\":12677:12697   */\n      tag_69\n      jump\t// in\n    tag_248:\n        /* \"#utility.yul\":12672:12697   */\n      swap3\n      pop\n        /* \"#utility.yul\":12732:12733   */\n      dup3\n        /* \"#utility.yul\":12729:12730   */\n      dup3\n        /* \"#utility.yul\":12725:12734   */\n      mul\n        /* \"#utility.yul\":12754:12784   */\n      tag_249\n        /* \"#utility.yul\":12772:12783   */\n      dup2\n        /* \"#utility.yul\":12754:12784   */\n      tag_69\n      jump\t// in\n    tag_249:\n        /* \"#utility.yul\":12743:12784   */\n      swap2\n      pop\n        /* \"#utility.yul\":12933:12934   */\n      dup3\n        /* \"#utility.yul\":12924:12931   */\n      dup3\n        /* \"#utility.yul\":12920:12935   */\n      div\n        /* \"#utility.yul\":12917:12918   */\n      dup5\n        /* \"#utility.yul\":12914:12936   */\n      eq\n        /* \"#utility.yul\":12894:12895   */\n      dup4\n        /* \"#utility.yul\":12887:12896   */\n      iszero\n        /* \"#utility.yul\":12867:12950   */\n      or\n        /* \"#utility.yul\":12844:12983   */\n      tag_250\n      jumpi\n        /* \"#utility.yul\":12963:12981   */\n      tag_251\n      tag_81\n      jump\t// in\n    tag_251:\n        /* \"#utility.yul\":12844:12983   */\n    tag_250:\n        /* \"#utility.yul\":12628:12990   */\n      pop\n        /* \"#utility.yul\":12580:12990   */\n      swap3\n      swap2\n      pop\n      pop\n      jump\t// out\n        /* \"#utility.yul\":12996:13176   */\n    tag_98:\n        /* \"#utility.yul\":13044:13121   */\n      0x4e487b7100000000000000000000000000000000000000000000000000000000\n        /* \"#utility.yul\":13041:13042   */\n      0x00\n        /* \"#utility.yul\":13034:13122   */\n      mstore\n        /* \"#utility.yul\":13141:13145   */\n      0x12\n        /* \"#utility.yul\":13138:13139   */\n      0x04\n        /* \"#utility.yul\":13131:13146   */\n      mstore\n        /* \"#utility.yul\":13165:13169   */\n      0x24\n        /* \"#utility.yul\":13162:13163   */\n      0x00\n        /* \"#utility.yul\":13155:13170   */\n      revert\n        /* \"#utility.yul\":13182:13367   */\n    tag_45:\n        /* \"#utility.yul\":13222:13223   */\n      0x00\n        /* \"#utility.yul\":13239:13259   */\n      tag_254\n        /* \"#utility.yul\":13257:13258   */\n      dup3\n        /* \"#utility.yul\":13239:13259   */\n      tag_69\n      jump\t// in\n    tag_254:\n        /* \"#utility.yul\":13234:13259   */\n      swap2\n      pop\n        /* \"#utility.yul\":13273:13293   */\n      tag_255\n        /* \"#utility.yul\":13291:13292   */\n      dup4\n        /* \"#utility.yul\":13273:13293   */\n      tag_69\n      jump\t// in\n    tag_255:\n        /* \"#utility.yul\":13268:13293   */\n      swap3\n      pop\n        /* \"#utility.yul\":13312:13313   */\n      dup3\n        /* \"#utility.yul\":13302:13337   */\n      tag_256\n      jumpi\n        /* \"#utility.yul\":13317:13335   */\n      tag_257\n      tag_98\n      jump\t// in\n    tag_257:\n        /* \"#utility.yul\":13302:13337   */\n    tag_256:\n        /* \"#utility.yul\":13359:13360   */\n      dup3\n        /* \"#utility.yul\":13356:13357   */\n      dup3\n        /* \"#utility.yul\":13352:13361   */\n      div\n        /* \"#utility.yul\":13347:13361   */\n      swap1\n      pop\n        /* \"#utility.yul\":13182:13367   */\n      swap3\n      swap2\n      pop\n      pop\n      jump\t// out\n        /* \"#utility.yul\":13373:13567   */\n    tag_55:\n        /* \"#utility.yul\":13413:13417   */\n      0x00\n        /* \"#utility.yul\":13433:13453   */\n      tag_259\n        /* \"#utility.yul\":13451:13452   */\n      dup3\n        /* \"#utility.yul\":13433:13453   */\n      tag_69\n      jump\t// in\n    tag_259:\n        /* \"#utility.yul\":13428:13453   */\n      swap2\n      pop\n        /* \"#utility.yul\":13467:13487   */\n      tag_260\n        /* \"#utility.yul\":13485:13486   */\n      dup4\n        /* \"#utility.yul\":13467:13487   */\n      tag_69\n      jump\t// in\n    tag_260:\n        /* \"#utility.yul\":13462:13487   */\n      swap3\n      pop\n        /* \"#utility.yul\":13511:13512   */\n      dup3\n        /* \"#utility.yul\":13508:13509   */\n      dup3\n        /* \"#utility.yul\":13504:13513   */\n      sub\n        /* \"#utility.yul\":13496:13513   */\n      swap1\n      pop\n        /* \"#utility.yul\":13535:13536   */\n      dup2\n        /* \"#utility.yul\":13529:13533   */\n      dup2\n        /* \"#utility.yul\":13526:13537   */\n      gt\n        /* \"#utility.yul\":13523:13560   */\n      iszero\n      tag_261\n      jumpi\n        /* \"#utility.yul\":13540:13558   */\n      tag_262\n      tag_81\n      jump\t// in\n    tag_262:\n        /* \"#utility.yul\":13523:13560   */\n    tag_261:\n        /* \"#utility.yul\":13373:13567   */\n      swap3\n      swap2\n      pop\n      pop\n      jump\t// out\n\n    auxdata: 0xa2646970667358221220a36f4aeae4645e4fb4066815b72abdb0b3968124b924c952f5a3dd05b5da8a2764736f6c63430008120033\n}\n",
				"bytecode": {
					"linkReferences": {},
					"object": "608060405234801561001057600080fd5b50610cb4806100206000396000f3fe608060405234801561001057600080fd5b506004361061004c5760003560e01c806371d4bc9c14610051578063a4efde081461006d578063b87f86b7146100a1578063c27c30df146100c2575b600080fd5b61006b60048036038101906100669190610610565b6100e1565b005b610087600480360381019061008291906106dd565b610199565b604051610098959493929190610798565b60405180910390f35b6100a9610257565b6040516100b994939291906107f2565b60405180910390f35b6100ca6103c3565b6040516100d892919061083e565b60405180910390f35b6040518060a0016040528084815260200182846100fe9190610896565b81526020018281526020016000815260200160008152506000803373ffffffffffffffffffffffffffffffffffffffff1673ffffffffffffffffffffffffffffffffffffffff16815260200190815260200160002060008201518160000190816101689190610ad6565b5060208201518160010155604082015181600201556060820151816003015560808201518160040155905050505050565b60006020528060005260406000206000915090508060000180546101bc906108f9565b80601f01602080910402602001604051908101604052809291908181526020018280546101e8906108f9565b80156102355780601f1061020a57610100808354040283529160200191610235565b820191906000526020600020905b81548152906001019060200180831161021857829003601f168201915b5050505050908060010154908060020154908060030154908060040154905085565b60606000806000806000803373ffffffffffffffffffffffffffffffffffffffff1673ffffffffffffffffffffffffffffffffffffffff1681526020019081526020016000206040518060a00160405290816000820180546102b8906108f9565b80601f01602080910402602001604051908101604052809291908181526020018280546102e4906108f9565b80156103315780601f1061030657610100808354040283529160200191610331565b820191906000526020600020905b81548152906001019060200180831161031457829003601f168201915b50505050508152602001600182015481526020016002820154815260200160038201548152602001600482015481525050905060006064600583602001516103799190610ba8565b6103839190610c19565b9050600060646028846020015161039a9190610ba8565b6103a49190610c19565b9050826000015183602001518383965096509650965050505090919293565b60008060008060003373ffffffffffffffffffffffffffffffffffffffff1673ffffffffffffffffffffffffffffffffffffffff16815260200190815260200160002090506064600c826001015461041b9190610ba8565b6104259190610c19565b925060646007826001015461043a9190610ba8565b6104449190610c19565b915081836104529190610896565b81600101546104619190610c4a565b8160010181905550828160030181905550818160040181905550509091565b6000604051905090565b600080fd5b600080fd5b600080fd5b600080fd5b6000601f19601f8301169050919050565b7f4e487b7100000000000000000000000000000000000000000000000000000000600052604160045260246000fd5b6104e78261049e565b810181811067ffffffffffffffff82111715610506576105056104af565b5b80604052505050565b6000610519610480565b905061052582826104de565b919050565b600067ffffffffffffffff821115610545576105446104af565b5b61054e8261049e565b9050602081019050919050565b82818337600083830152505050565b600061057d6105788461052a565b61050f565b90508281526020810184848401111561059957610598610499565b5b6105a484828561055b565b509392505050565b600082601f8301126105c1576105c0610494565b5b81356105d184826020860161056a565b91505092915050565b6000819050919050565b6105ed816105da565b81146105f857600080fd5b50565b60008135905061060a816105e4565b92915050565b6000806000606084860312156106295761062861048a565b5b600084013567ffffffffffffffff8111156106475761064661048f565b5b610653868287016105ac565b9350506020610664868287016105fb565b9250506040610675868287016105fb565b9150509250925092565b600073ffffffffffffffffffffffffffffffffffffffff82169050919050565b60006106aa8261067f565b9050919050565b6106ba8161069f565b81146106c557600080fd5b50565b6000813590506106d7816106b1565b92915050565b6000602082840312156106f3576106f261048a565b5b6000610701848285016106c8565b91505092915050565b600081519050919050565b600082825260208201905092915050565b60005b83811015610744578082015181840152602081019050610729565b60008484015250505050565b600061075b8261070a565b6107658185610715565b9350610775818560208601610726565b61077e8161049e565b840191505092915050565b610792816105da565b82525050565b600060a08201905081810360008301526107b28188610750565b90506107c16020830187610789565b6107ce6040830186610789565b6107db6060830185610789565b6107e86080830184610789565b9695505050505050565b6000608082019050818103600083015261080c8187610750565b905061081b6020830186610789565b6108286040830185610789565b6108356060830184610789565b95945050505050565b60006040820190506108536000830185610789565b6108606020830184610789565b9392505050565b7f4e487b7100000000000000000000000000000000000000000000000000000000600052601160045260246000fd5b60006108a1826105da565b91506108ac836105da565b92508282019050808211156108c4576108c3610867565b5b92915050565b7f4e487b7100000000000000000000000000000000000000000000000000000000600052602260045260246000fd5b6000600282049050600182168061091157607f821691505b602082108103610924576109236108ca565b5b50919050565b60008190508160005260206000209050919050565b60006020601f8301049050919050565b600082821b905092915050565b60006008830261098c7fffffffffffffffffffffffffffffffffffffffffffffffffffffffffffffffff8261094f565b610996868361094f565b95508019841693508086168417925050509392505050565b6000819050919050565b60006109d36109ce6109c9846105da565b6109ae565b6105da565b9050919050565b6000819050919050565b6109ed836109b8565b610a016109f9826109da565b84845461095c565b825550505050565b600090565b610a16610a09565b610a218184846109e4565b505050565b5b81811015610a4557610a3a600082610a0e565b600181019050610a27565b5050565b601f821115610a8a57610a5b8161092a565b610a648461093f565b81016020851015610a73578190505b610a87610a7f8561093f565b830182610a26565b50505b505050565b600082821c905092915050565b6000610aad60001984600802610a8f565b1980831691505092915050565b6000610ac68383610a9c565b9150826002028217905092915050565b610adf8261070a565b67ffffffffffffffff811115610af857610af76104af565b5b610b0282546108f9565b610b0d828285610a49565b600060209050601f831160018114610b405760008415610b2e578287015190505b610b388582610aba565b865550610ba0565b601f198416610b4e8661092a565b60005b82811015610b7657848901518255600182019150602085019450602081019050610b51565b86831015610b935784890151610b8f601f891682610a9c565b8355505b6001600288020188555050505b505050505050565b6000610bb3826105da565b9150610bbe836105da565b9250828202610bcc816105da565b91508282048414831517610be357610be2610867565b5b5092915050565b7f4e487b7100000000000000000000000000000000000000000000000000000000600052601260045260246000fd5b6000610c24826105da565b9150610c2f836105da565b925082610c3f57610c3e610bea565b5b828204905092915050565b6000610c55826105da565b9150610c60836105da565b9250828203905081811115610c7857610c77610867565b5b9291505056fea2646970667358221220a36f4aeae4645e4fb4066815b72abdb0b3968124b924c952f5a3dd05b5da8a2764736f6c63430008120033",
					"opcodes": "PUSH1 0x80 PUSH1 0x40 MSTORE CALLVALUE DUP1 ISZERO PUSH2 0x10 JUMPI PUSH1 0x0 DUP1 REVERT JUMPDEST POP PUSH2 0xCB4 DUP1 PUSH2 0x20 PUSH1 0x0 CODECOPY PUSH1 0x0 RETURN INVALID PUSH1 0x80 PUSH1 0x40 MSTORE CALLVALUE DUP1 ISZERO PUSH2 0x10 JUMPI PUSH1 0x0 DUP1 REVERT JUMPDEST POP PUSH1 0x4 CALLDATASIZE LT PUSH2 0x4C JUMPI PUSH1 0x0 CALLDATALOAD PUSH1 0xE0 SHR DUP1 PUSH4 0x71D4BC9C EQ PUSH2 0x51 JUMPI DUP1 PUSH4 0xA4EFDE08 EQ PUSH2 0x6D JUMPI DUP1 PUSH4 0xB87F86B7 EQ PUSH2 0xA1 JUMPI DUP1 PUSH4 0xC27C30DF EQ PUSH2 0xC2 JUMPI JUMPDEST PUSH1 0x0 DUP1 REVERT JUMPDEST PUSH2 0x6B PUSH1 0x4 DUP1 CALLDATASIZE SUB DUP2 ADD SWAP1 PUSH2 0x66 SWAP2 SWAP1 PUSH2 0x610 JUMP JUMPDEST PUSH2 0xE1 JUMP JUMPDEST STOP JUMPDEST PUSH2 0x87 PUSH1 0x4 DUP1 CALLDATASIZE SUB DUP2 ADD SWAP1 PUSH2 0x82 SWAP2 SWAP1 PUSH2 0x6DD JUMP JUMPDEST PUSH2 0x199 JUMP JUMPDEST PUSH1 0x40 MLOAD PUSH2 0x98 SWAP6 SWAP5 SWAP4 SWAP3 SWAP2 SWAP1 PUSH2 0x798 JUMP JUMPDEST PUSH1 0x40 MLOAD DUP1 SWAP2 SUB SWAP1 RETURN JUMPDEST PUSH2 0xA9 PUSH2 0x257 JUMP JUMPDEST PUSH1 0x40 MLOAD PUSH2 0xB9 SWAP5 SWAP4 SWAP3 SWAP2 SWAP1 PUSH2 0x7F2 JUMP JUMPDEST PUSH1 0x40 MLOAD DUP1 SWAP2 SUB SWAP1 RETURN JUMPDEST PUSH2 0xCA PUSH2 0x3C3 JUMP JUMPDEST PUSH1 0x40 MLOAD PUSH2 0xD8 SWAP3 SWAP2 SWAP1 PUSH2 0x83E JUMP JUMPDEST PUSH1 0x40 MLOAD DUP1 SWAP2 SUB SWAP1 RETURN JUMPDEST PUSH1 0x40 MLOAD DUP1 PUSH1 0xA0 ADD PUSH1 0x40 MSTORE DUP1 DUP5 DUP2 MSTORE PUSH1 0x20 ADD DUP3 DUP5 PUSH2 0xFE SWAP2 SWAP1 PUSH2 0x896 JUMP JUMPDEST DUP2 MSTORE PUSH1 0x20 ADD DUP3 DUP2 MSTORE PUSH1 0x20 ADD PUSH1 0x0 DUP2 MSTORE PUSH1 0x20 ADD PUSH1 0x0 DUP2 MSTORE POP PUSH1 0x0 DUP1 CALLER PUSH20 0xFFFFFFFFFFFFFFFFFFFFFFFFFFFFFFFFFFFFFFFF AND PUSH20 0xFFFFFFFFFFFFFFFFFFFFFFFFFFFFFFFFFFFFFFFF AND DUP2 MSTORE PUSH1 0x20 ADD SWAP1 DUP2 MSTORE PUSH1 0x20 ADD PUSH1 0x0 KECCAK256 PUSH1 0x0 DUP3 ADD MLOAD DUP2 PUSH1 0x0 ADD SWAP1 DUP2 PUSH2 0x168 SWAP2 SWAP1 PUSH2 0xAD6 JUMP JUMPDEST POP PUSH1 0x20 DUP3 ADD MLOAD DUP2 PUSH1 0x1 ADD SSTORE PUSH1 0x40 DUP3 ADD MLOAD DUP2 PUSH1 0x2 ADD SSTORE PUSH1 0x60 DUP3 ADD MLOAD DUP2 PUSH1 0x3 ADD SSTORE PUSH1 0x80 DUP3 ADD MLOAD DUP2 PUSH1 0x4 ADD SSTORE SWAP1 POP POP POP POP POP JUMP JUMPDEST PUSH1 0x0 PUSH1 0x20 MSTORE DUP1 PUSH1 0x0 MSTORE PUSH1 0x40 PUSH1 0x0 KECCAK256 PUSH1 0x0 SWAP2 POP SWAP1 POP DUP1 PUSH1 0x0 ADD DUP1 SLOAD PUSH2 0x1BC SWAP1 PUSH2 0x8F9 JUMP JUMPDEST DUP1 PUSH1 0x1F ADD PUSH1 0x20 DUP1 SWAP2 DIV MUL PUSH1 0x20 ADD PUSH1 0x40 MLOAD SWAP1 DUP2 ADD PUSH1 0x40 MSTORE DUP1 SWAP3 SWAP2 SWAP1 DUP2 DUP2 MSTORE PUSH1 0x20 ADD DUP3 DUP1 SLOAD PUSH2 0x1E8 SWAP1 PUSH2 0x8F9 JUMP JUMPDEST DUP1 ISZERO PUSH2 0x235 JUMPI DUP1 PUSH1 0x1F LT PUSH2 0x20A JUMPI PUSH2 0x100 DUP1 DUP4 SLOAD DIV MUL DUP4 MSTORE SWAP2 PUSH1 0x20 ADD SWAP2 PUSH2 0x235 JUMP JUMPDEST DUP3 ADD SWAP2 SWAP1 PUSH1 0x0 MSTORE PUSH1 0x20 PUSH1 0x0 KECCAK256 SWAP1 JUMPDEST DUP2 SLOAD DUP2 MSTORE SWAP1 PUSH1 0x1 ADD SWAP1 PUSH1 0x20 ADD DUP1 DUP4 GT PUSH2 0x218 JUMPI DUP3 SWAP1 SUB PUSH1 0x1F AND DUP3 ADD SWAP2 JUMPDEST POP POP POP POP POP SWAP1 DUP1 PUSH1 0x1 ADD SLOAD SWAP1 DUP1 PUSH1 0x2 ADD SLOAD SWAP1 DUP1 PUSH1 0x3 ADD SLOAD SWAP1 DUP1 PUSH1 0x4 ADD SLOAD SWAP1 POP DUP6 JUMP JUMPDEST PUSH1 0x60 PUSH1 0x0 DUP1 PUSH1 0x0 DUP1 PUSH1 0x0 DUP1 CALLER PUSH20 0xFFFFFFFFFFFFFFFFFFFFFFFFFFFFFFFFFFFFFFFF AND PUSH20 0xFFFFFFFFFFFFFFFFFFFFFFFFFFFFFFFFFFFFFFFF AND DUP2 MSTORE PUSH1 0x20 ADD SWAP1 DUP2 MSTORE PUSH1 0x20 ADD PUSH1 0x0 KECCAK256 PUSH1 0x40 MLOAD DUP1 PUSH1 0xA0 ADD PUSH1 0x40 MSTORE SWAP1 DUP2 PUSH1 0x0 DUP3 ADD DUP1 SLOAD PUSH2 0x2B8 SWAP1 PUSH2 0x8F9 JUMP JUMPDEST DUP1 PUSH1 0x1F ADD PUSH1 0x20 DUP1 SWAP2 DIV MUL PUSH1 0x20 ADD PUSH1 0x40 MLOAD SWAP1 DUP2 ADD PUSH1 0x40 MSTORE DUP1 SWAP3 SWAP2 SWAP1 DUP2 DUP2 MSTORE PUSH1 0x20 ADD DUP3 DUP1 SLOAD PUSH2 0x2E4 SWAP1 PUSH2 0x8F9 JUMP JUMPDEST DUP1 ISZERO PUSH2 0x331 JUMPI DUP1 PUSH1 0x1F LT PUSH2 0x306 JUMPI PUSH2 0x100 DUP1 DUP4 SLOAD DIV MUL DUP4 MSTORE SWAP2 PUSH1 0x20 ADD SWAP2 PUSH2 0x331 JUMP JUMPDEST DUP3 ADD SWAP2 SWAP1 PUSH1 0x0 MSTORE PUSH1 0x20 PUSH1 0x0 KECCAK256 SWAP1 JUMPDEST DUP2 SLOAD DUP2 MSTORE SWAP1 PUSH1 0x1 ADD SWAP1 PUSH1 0x20 ADD DUP1 DUP4 GT PUSH2 0x314 JUMPI DUP3 SWAP1 SUB PUSH1 0x1F AND DUP3 ADD SWAP2 JUMPDEST POP POP POP POP POP DUP2 MSTORE PUSH1 0x20 ADD PUSH1 0x1 DUP3 ADD SLOAD DUP2 MSTORE PUSH1 0x20 ADD PUSH1 0x2 DUP3 ADD SLOAD DUP2 MSTORE PUSH1 0x20 ADD PUSH1 0x3 DUP3 ADD SLOAD DUP2 MSTORE PUSH1 0x20 ADD PUSH1 0x4 DUP3 ADD SLOAD DUP2 MSTORE POP POP SWAP1 POP PUSH1 0x0 PUSH1 0x64 PUSH1 0x5 DUP4 PUSH1 0x20 ADD MLOAD PUSH2 0x379 SWAP2 SWAP1 PUSH2 0xBA8 JUMP JUMPDEST PUSH2 0x383 SWAP2 SWAP1 PUSH2 0xC19 JUMP JUMPDEST SWAP1 POP PUSH1 0x0 PUSH1 0x64 PUSH1 0x28 DUP5 PUSH1 0x20 ADD MLOAD PUSH2 0x39A SWAP2 SWAP1 PUSH2 0xBA8 JUMP JUMPDEST PUSH2 0x3A4 SWAP2 SWAP1 PUSH2 0xC19 JUMP JUMPDEST SWAP1 POP DUP3 PUSH1 0x0 ADD MLOAD DUP4 PUSH1 0x20 ADD MLOAD DUP4 DUP4 SWAP7 POP SWAP7 POP SWAP7 POP SWAP7 POP POP POP POP SWAP1 SWAP2 SWAP3 SWAP4 JUMP JUMPDEST PUSH1 0x0 DUP1 PUSH1 0x0 DUP1 PUSH1 0x0 CALLER PUSH20 0xFFFFFFFFFFFFFFFFFFFFFFFFFFFFFFFFFFFFFFFF AND PUSH20 0xFFFFFFFFFFFFFFFFFFFFFFFFFFFFFFFFFFFFFFFF AND DUP2 MSTORE PUSH1 0x20 ADD SWAP1 DUP2 MSTORE PUSH1 0x20 ADD PUSH1 0x0 KECCAK256 SWAP1 POP PUSH1 0x64 PUSH1 0xC DUP3 PUSH1 0x1 ADD SLOAD PUSH2 0x41B SWAP2 SWAP1 PUSH2 0xBA8 JUMP JUMPDEST PUSH2 0x425 SWAP2 SWAP1 PUSH2 0xC19 JUMP JUMPDEST SWAP3 POP PUSH1 0x64 PUSH1 0x7 DUP3 PUSH1 0x1 ADD SLOAD PUSH2 0x43A SWAP2 SWAP1 PUSH2 0xBA8 JUMP JUMPDEST PUSH2 0x444 SWAP2 SWAP1 PUSH2 0xC19 JUMP JUMPDEST SWAP2 POP DUP2 DUP4 PUSH2 0x452 SWAP2 SWAP1 PUSH2 0x896 JUMP JUMPDEST DUP2 PUSH1 0x1 ADD SLOAD PUSH2 0x461 SWAP2 SWAP1 PUSH2 0xC4A JUMP JUMPDEST DUP2 PUSH1 0x1 ADD DUP2 SWAP1 SSTORE POP DUP3 DUP2 PUSH1 0x3 ADD DUP2 SWAP1 SSTORE POP DUP2 DUP2 PUSH1 0x4 ADD DUP2 SWAP1 SSTORE POP POP SWAP1 SWAP2 JUMP JUMPDEST PUSH1 0x0 PUSH1 0x40 MLOAD SWAP1 POP SWAP1 JUMP JUMPDEST PUSH1 0x0 DUP1 REVERT JUMPDEST PUSH1 0x0 DUP1 REVERT JUMPDEST PUSH1 0x0 DUP1 REVERT JUMPDEST PUSH1 0x0 DUP1 REVERT JUMPDEST PUSH1 0x0 PUSH1 0x1F NOT PUSH1 0x1F DUP4 ADD AND SWAP1 POP SWAP2 SWAP1 POP JUMP JUMPDEST PUSH32 0x4E487B7100000000000000000000000000000000000000000000000000000000 PUSH1 0x0 MSTORE PUSH1 0x41 PUSH1 0x4 MSTORE PUSH1 0x24 PUSH1 0x0 REVERT JUMPDEST PUSH2 0x4E7 DUP3 PUSH2 0x49E JUMP JUMPDEST DUP2 ADD DUP2 DUP2 LT PUSH8 0xFFFFFFFFFFFFFFFF DUP3 GT OR ISZERO PUSH2 0x506 JUMPI PUSH2 0x505 PUSH2 0x4AF JUMP JUMPDEST JUMPDEST DUP1 PUSH1 0x40 MSTORE POP POP POP JUMP JUMPDEST PUSH1 0x0 PUSH2 0x519 PUSH2 0x480 JUMP JUMPDEST SWAP1 POP PUSH2 0x525 DUP3 DUP3 PUSH2 0x4DE JUMP JUMPDEST SWAP2 SWAP1 POP JUMP JUMPDEST PUSH1 0x0 PUSH8 0xFFFFFFFFFFFFFFFF DUP3 GT ISZERO PUSH2 0x545 JUMPI PUSH2 0x544 PUSH2 0x4AF JUMP JUMPDEST JUMPDEST PUSH2 0x54E DUP3 PUSH2 0x49E JUMP JUMPDEST SWAP1 POP PUSH1 0x20 DUP2 ADD SWAP1 POP SWAP2 SWAP1 POP JUMP JUMPDEST DUP3 DUP2 DUP4 CALLDATACOPY PUSH1 0x0 DUP4 DUP4 ADD MSTORE POP POP POP JUMP JUMPDEST PUSH1 0x0 PUSH2 0x57D PUSH2 0x578 DUP5 PUSH2 0x52A JUMP JUMPDEST PUSH2 0x50F JUMP JUMPDEST SWAP1 POP DUP3 DUP2 MSTORE PUSH1 0x20 DUP2 ADD DUP5 DUP5 DUP5 ADD GT ISZERO PUSH2 0x599 JUMPI PUSH2 0x598 PUSH2 0x499 JUMP JUMPDEST JUMPDEST PUSH2 0x5A4 DUP5 DUP3 DUP6 PUSH2 0x55B JUMP JUMPDEST POP SWAP4 SWAP3 POP POP POP JUMP JUMPDEST PUSH1 0x0 DUP3 PUSH1 0x1F DUP4 ADD SLT PUSH2 0x5C1 JUMPI PUSH2 0x5C0 PUSH2 0x494 JUMP JUMPDEST JUMPDEST DUP2 CALLDATALOAD PUSH2 0x5D1 DUP5 DUP3 PUSH1 0x20 DUP7 ADD PUSH2 0x56A JUMP JUMPDEST SWAP2 POP POP SWAP3 SWAP2 POP POP JUMP JUMPDEST PUSH1 0x0 DUP2 SWAP1 POP SWAP2 SWAP1 POP JUMP JUMPDEST PUSH2 0x5ED DUP2 PUSH2 0x5DA JUMP JUMPDEST DUP2 EQ PUSH2 0x5F8 JUMPI PUSH1 0x0 DUP1 REVERT JUMPDEST POP JUMP JUMPDEST PUSH1 0x0 DUP2 CALLDATALOAD SWAP1 POP PUSH2 0x60A DUP2 PUSH2 0x5E4 JUMP JUMPDEST SWAP3 SWAP2 POP POP JUMP JUMPDEST PUSH1 0x0 DUP1 PUSH1 0x0 PUSH1 0x60 DUP5 DUP7 SUB SLT ISZERO PUSH2 0x629 JUMPI PUSH2 0x628 PUSH2 0x48A JUMP JUMPDEST JUMPDEST PUSH1 0x0 DUP5 ADD CALLDATALOAD PUSH8 0xFFFFFFFFFFFFFFFF DUP2 GT ISZERO PUSH2 0x647 JUMPI PUSH2 0x646 PUSH2 0x48F JUMP JUMPDEST JUMPDEST PUSH2 0x653 DUP7 DUP3 DUP8 ADD PUSH2 0x5AC JUMP JUMPDEST SWAP4 POP POP PUSH1 0x20 PUSH2 0x664 DUP7 DUP3 DUP8 ADD PUSH2 0x5FB JUMP JUMPDEST SWAP3 POP POP PUSH1 0x40 PUSH2 0x675 DUP7 DUP3 DUP8 ADD PUSH2 0x5FB JUMP JUMPDEST SWAP2 POP POP SWAP3 POP SWAP3 POP SWAP3 JUMP JUMPDEST PUSH1 0x0 PUSH20 0xFFFFFFFFFFFFFFFFFFFFFFFFFFFFFFFFFFFFFFFF DUP3 AND SWAP1 POP SWAP2 SWAP1 POP JUMP JUMPDEST PUSH1 0x0 PUSH2 0x6AA DUP3 PUSH2 0x67F JUMP JUMPDEST SWAP1 POP SWAP2 SWAP1 POP JUMP JUMPDEST PUSH2 0x6BA DUP2 PUSH2 0x69F JUMP JUMPDEST DUP2 EQ PUSH2 0x6C5 JUMPI PUSH1 0x0 DUP1 REVERT JUMPDEST POP JUMP JUMPDEST PUSH1 0x0 DUP2 CALLDATALOAD SWAP1 POP PUSH2 0x6D7 DUP2 PUSH2 0x6B1 JUMP JUMPDEST SWAP3 SWAP2 POP POP JUMP JUMPDEST PUSH1 0x0 PUSH1 0x20 DUP3 DUP5 SUB SLT ISZERO PUSH2 0x6F3 JUMPI PUSH2 0x6F2 PUSH2 0x48A JUMP JUMPDEST JUMPDEST PUSH1 0x0 PUSH2 0x701 DUP5 DUP3 DUP6 ADD PUSH2 0x6C8 JUMP JUMPDEST SWAP2 POP POP SWAP3 SWAP2 POP POP JUMP JUMPDEST PUSH1 0x0 DUP2 MLOAD SWAP1 POP SWAP2 SWAP1 POP JUMP JUMPDEST PUSH1 0x0 DUP3 DUP3 MSTORE PUSH1 0x20 DUP3 ADD SWAP1 POP SWAP3 SWAP2 POP POP JUMP JUMPDEST PUSH1 0x0 JUMPDEST DUP4 DUP2 LT ISZERO PUSH2 0x744 JUMPI DUP1 DUP3 ADD MLOAD DUP2 DUP5 ADD MSTORE PUSH1 0x20 DUP2 ADD SWAP1 POP PUSH2 0x729 JUMP JUMPDEST PUSH1 0x0 DUP5 DUP5 ADD MSTORE POP POP POP POP JUMP JUMPDEST PUSH1 0x0 PUSH2 0x75B DUP3 PUSH2 0x70A JUMP JUMPDEST PUSH2 0x765 DUP2 DUP6 PUSH2 0x715 JUMP JUMPDEST SWAP4 POP PUSH2 0x775 DUP2 DUP6 PUSH1 0x20 DUP7 ADD PUSH2 0x726 JUMP JUMPDEST PUSH2 0x77E DUP2 PUSH2 0x49E JUMP JUMPDEST DUP5 ADD SWAP2 POP POP SWAP3 SWAP2 POP POP JUMP JUMPDEST PUSH2 0x792 DUP2 PUSH2 0x5DA JUMP JUMPDEST DUP3 MSTORE POP POP JUMP JUMPDEST PUSH1 0x0 PUSH1 0xA0 DUP3 ADD SWAP1 POP DUP2 DUP2 SUB PUSH1 0x0 DUP4 ADD MSTORE PUSH2 0x7B2 DUP2 DUP9 PUSH2 0x750 JUMP JUMPDEST SWAP1 POP PUSH2 0x7C1 PUSH1 0x20 DUP4 ADD DUP8 PUSH2 0x789 JUMP JUMPDEST PUSH2 0x7CE PUSH1 0x40 DUP4 ADD DUP7 PUSH2 0x789 JUMP JUMPDEST PUSH2 0x7DB PUSH1 0x60 DUP4 ADD DUP6 PUSH2 0x789 JUMP JUMPDEST PUSH2 0x7E8 PUSH1 0x80 DUP4 ADD DUP5 PUSH2 0x789 JUMP JUMPDEST SWAP7 SWAP6 POP POP POP POP POP POP JUMP JUMPDEST PUSH1 0x0 PUSH1 0x80 DUP3 ADD SWAP1 POP DUP2 DUP2 SUB PUSH1 0x0 DUP4 ADD MSTORE PUSH2 0x80C DUP2 DUP8 PUSH2 0x750 JUMP JUMPDEST SWAP1 POP PUSH2 0x81B PUSH1 0x20 DUP4 ADD DUP7 PUSH2 0x789 JUMP JUMPDEST PUSH2 0x828 PUSH1 0x40 DUP4 ADD DUP6 PUSH2 0x789 JUMP JUMPDEST PUSH2 0x835 PUSH1 0x60 DUP4 ADD DUP5 PUSH2 0x789 JUMP JUMPDEST SWAP6 SWAP5 POP POP POP POP POP JUMP JUMPDEST PUSH1 0x0 PUSH1 0x40 DUP3 ADD SWAP1 POP PUSH2 0x853 PUSH1 0x0 DUP4 ADD DUP6 PUSH2 0x789 JUMP JUMPDEST PUSH2 0x860 PUSH1 0x20 DUP4 ADD DUP5 PUSH2 0x789 JUMP JUMPDEST SWAP4 SWAP3 POP POP POP JUMP JUMPDEST PUSH32 0x4E487B7100000000000000000000000000000000000000000000000000000000 PUSH1 0x0 MSTORE PUSH1 0x11 PUSH1 0x4 MSTORE PUSH1 0x24 PUSH1 0x0 REVERT JUMPDEST PUSH1 0x0 PUSH2 0x8A1 DUP3 PUSH2 0x5DA JUMP JUMPDEST SWAP2 POP PUSH2 0x8AC DUP4 PUSH2 0x5DA JUMP JUMPDEST SWAP3 POP DUP3 DUP3 ADD SWAP1 POP DUP1 DUP3 GT ISZERO PUSH2 0x8C4 JUMPI PUSH2 0x8C3 PUSH2 0x867 JUMP JUMPDEST JUMPDEST SWAP3 SWAP2 POP POP JUMP JUMPDEST PUSH32 0x4E487B7100000000000000000000000000000000000000000000000000000000 PUSH1 0x0 MSTORE PUSH1 0x22 PUSH1 0x4 MSTORE PUSH1 0x24 PUSH1 0x0 REVERT JUMPDEST PUSH1 0x0 PUSH1 0x2 DUP3 DIV SWAP1 POP PUSH1 0x1 DUP3 AND DUP1 PUSH2 0x911 JUMPI PUSH1 0x7F DUP3 AND SWAP2 POP JUMPDEST PUSH1 0x20 DUP3 LT DUP2 SUB PUSH2 0x924 JUMPI PUSH2 0x923 PUSH2 0x8CA JUMP JUMPDEST JUMPDEST POP SWAP2 SWAP1 POP JUMP JUMPDEST PUSH1 0x0 DUP2 SWAP1 POP DUP2 PUSH1 0x0 MSTORE PUSH1 0x20 PUSH1 0x0 KECCAK256 SWAP1 POP SWAP2 SWAP1 POP JUMP JUMPDEST PUSH1 0x0 PUSH1 0x20 PUSH1 0x1F DUP4 ADD DIV SWAP1 POP SWAP2 SWAP1 POP JUMP JUMPDEST PUSH1 0x0 DUP3 DUP3 SHL SWAP1 POP SWAP3 SWAP2 POP POP JUMP JUMPDEST PUSH1 0x0 PUSH1 0x8 DUP4 MUL PUSH2 0x98C PUSH32 0xFFFFFFFFFFFFFFFFFFFFFFFFFFFFFFFFFFFFFFFFFFFFFFFFFFFFFFFFFFFFFFFF DUP3 PUSH2 0x94F JUMP JUMPDEST PUSH2 0x996 DUP7 DUP4 PUSH2 0x94F JUMP JUMPDEST SWAP6 POP DUP1 NOT DUP5 AND SWAP4 POP DUP1 DUP7 AND DUP5 OR SWAP3 POP POP POP SWAP4 SWAP3 POP POP POP JUMP JUMPDEST PUSH1 0x0 DUP2 SWAP1 POP SWAP2 SWAP1 POP JUMP JUMPDEST PUSH1 0x0 PUSH2 0x9D3 PUSH2 0x9CE PUSH2 0x9C9 DUP5 PUSH2 0x5DA JUMP JUMPDEST PUSH2 0x9AE JUMP JUMPDEST PUSH2 0x5DA JUMP JUMPDEST SWAP1 POP SWAP2 SWAP1 POP JUMP JUMPDEST PUSH1 0x0 DUP2 SWAP1 POP SWAP2 SWAP1 POP JUMP JUMPDEST PUSH2 0x9ED DUP4 PUSH2 0x9B8 JUMP JUMPDEST PUSH2 0xA01 PUSH2 0x9F9 DUP3 PUSH2 0x9DA JUMP JUMPDEST DUP5 DUP5 SLOAD PUSH2 0x95C JUMP JUMPDEST DUP3 SSTORE POP POP POP POP JUMP JUMPDEST PUSH1 0x0 SWAP1 JUMP JUMPDEST PUSH2 0xA16 PUSH2 0xA09 JUMP JUMPDEST PUSH2 0xA21 DUP2 DUP5 DUP5 PUSH2 0x9E4 JUMP JUMPDEST POP POP POP JUMP JUMPDEST JUMPDEST DUP2 DUP2 LT ISZERO PUSH2 0xA45 JUMPI PUSH2 0xA3A PUSH1 0x0 DUP3 PUSH2 0xA0E JUMP JUMPDEST PUSH1 0x1 DUP2 ADD SWAP1 POP PUSH2 0xA27 JUMP JUMPDEST POP POP JUMP JUMPDEST PUSH1 0x1F DUP3 GT ISZERO PUSH2 0xA8A JUMPI PUSH2 0xA5B DUP2 PUSH2 0x92A JUMP JUMPDEST PUSH2 0xA64 DUP5 PUSH2 0x93F JUMP JUMPDEST DUP2 ADD PUSH1 0x20 DUP6 LT ISZERO PUSH2 0xA73 JUMPI DUP2 SWAP1 POP JUMPDEST PUSH2 0xA87 PUSH2 0xA7F DUP6 PUSH2 0x93F JUMP JUMPDEST DUP4 ADD DUP3 PUSH2 0xA26 JUMP JUMPDEST POP POP JUMPDEST POP POP POP JUMP JUMPDEST PUSH1 0x0 DUP3 DUP3 SHR SWAP1 POP SWAP3 SWAP2 POP POP JUMP JUMPDEST PUSH1 0x0 PUSH2 0xAAD PUSH1 0x0 NOT DUP5 PUSH1 0x8 MUL PUSH2 0xA8F JUMP JUMPDEST NOT DUP1 DUP4 AND SWAP2 POP POP SWAP3 SWAP2 POP POP JUMP JUMPDEST PUSH1 0x0 PUSH2 0xAC6 DUP4 DUP4 PUSH2 0xA9C JUMP JUMPDEST SWAP2 POP DUP3 PUSH1 0x2 MUL DUP3 OR SWAP1 POP SWAP3 SWAP2 POP POP JUMP JUMPDEST PUSH2 0xADF DUP3 PUSH2 0x70A JUMP JUMPDEST PUSH8 0xFFFFFFFFFFFFFFFF DUP2 GT ISZERO PUSH2 0xAF8 JUMPI PUSH2 0xAF7 PUSH2 0x4AF JUMP JUMPDEST JUMPDEST PUSH2 0xB02 DUP3 SLOAD PUSH2 0x8F9 JUMP JUMPDEST PUSH2 0xB0D DUP3 DUP3 DUP6 PUSH2 0xA49 JUMP JUMPDEST PUSH1 0x0 PUSH1 0x20 SWAP1 POP PUSH1 0x1F DUP4 GT PUSH1 0x1 DUP2 EQ PUSH2 0xB40 JUMPI PUSH1 0x0 DUP5 ISZERO PUSH2 0xB2E JUMPI DUP3 DUP8 ADD MLOAD SWAP1 POP JUMPDEST PUSH2 0xB38 DUP6 DUP3 PUSH2 0xABA JUMP JUMPDEST DUP7 SSTORE POP PUSH2 0xBA0 JUMP JUMPDEST PUSH1 0x1F NOT DUP5 AND PUSH2 0xB4E DUP7 PUSH2 0x92A JUMP JUMPDEST PUSH1 0x0 JUMPDEST DUP3 DUP2 LT ISZERO PUSH2 0xB76 JUMPI DUP5 DUP10 ADD MLOAD DUP3 SSTORE PUSH1 0x1 DUP3 ADD SWAP2 POP PUSH1 0x20 DUP6 ADD SWAP5 POP PUSH1 0x20 DUP2 ADD SWAP1 POP PUSH2 0xB51 JUMP JUMPDEST DUP7 DUP4 LT ISZERO PUSH2 0xB93 JUMPI DUP5 DUP10 ADD MLOAD PUSH2 0xB8F PUSH1 0x1F DUP10 AND DUP3 PUSH2 0xA9C JUMP JUMPDEST DUP4 SSTORE POP JUMPDEST PUSH1 0x1 PUSH1 0x2 DUP9 MUL ADD DUP9 SSTORE POP POP POP JUMPDEST POP POP POP POP POP POP JUMP JUMPDEST PUSH1 0x0 PUSH2 0xBB3 DUP3 PUSH2 0x5DA JUMP JUMPDEST SWAP2 POP PUSH2 0xBBE DUP4 PUSH2 0x5DA JUMP JUMPDEST SWAP3 POP DUP3 DUP3 MUL PUSH2 0xBCC DUP2 PUSH2 0x5DA JUMP JUMPDEST SWAP2 POP DUP3 DUP3 DIV DUP5 EQ DUP4 ISZERO OR PUSH2 0xBE3 JUMPI PUSH2 0xBE2 PUSH2 0x867 JUMP JUMPDEST JUMPDEST POP SWAP3 SWAP2 POP POP JUMP JUMPDEST PUSH32 0x4E487B7100000000000000000000000000000000000000000000000000000000 PUSH1 0x0 MSTORE PUSH1 0x12 PUSH1 0x4 MSTORE PUSH1 0x24 PUSH1 0x0 REVERT JUMPDEST PUSH1 0x0 PUSH2 0xC24 DUP3 PUSH2 0x5DA JUMP JUMPDEST SWAP2 POP PUSH2 0xC2F DUP4 PUSH2 0x5DA JUMP JUMPDEST SWAP3 POP DUP3 PUSH2 0xC3F JUMPI PUSH2 0xC3E PUSH2 0xBEA JUMP JUMPDEST JUMPDEST DUP3 DUP3 DIV SWAP1 POP SWAP3 SWAP2 POP POP JUMP JUMPDEST PUSH1 0x0 PUSH2 0xC55 DUP3 PUSH2 0x5DA JUMP JUMPDEST SWAP2 POP PUSH2 0xC60 DUP4 PUSH2 0x5DA JUMP JUMPDEST SWAP3 POP DUP3 DUP3 SUB SWAP1 POP DUP2 DUP2 GT ISZERO PUSH2 0xC78 JUMPI PUSH2 0xC77 PUSH2 0x867 JUMP JUMPDEST JUMPDEST SWAP3 SWAP2 POP POP JUMP INVALID LOG2 PUSH5 0x6970667358 0x22 SLT KECCAK256 LOG3 PUSH16 0x4AEAE4645E4FB4066815B72ABDB0B396 DUP2 0x24 0xB9 0x24 0xC9 MSTORE CREATE2 LOG3 0xDD SDIV 0xB5 0xDA DUP11 0x27 PUSH5 0x736F6C6343 STOP ADDMOD SLT STOP CALLER "
				},
				"gasEstimates": {
					"creation": {
						"codeDepositCost": "650400",
						"executionCost": "683",
						"totalCost": "651083"
					},
					"external": {
						"deductions()": "infinite",
						"employee_address(address)": "infinite",
						"get_details()": "infinite",
						"set_details(string,uint256,uint256)": "infinite"
					}
				},
				"methodIdentifiers": {
					"deductions()": "c27c30df",
					"employee_address(address)": "a4efde08",
					"get_details()": "b87f86b7",
					"set_details(string,uint256,uint256)": "71d4bc9c"
				}
			},
			"storageLayout": {
				"storage": [
					{
						"astId": 17,
						"contract": "tp/empl.sol:Salary_manager",
						"label": "employee_address",
						"offset": 0,
						"slot": "0",
						"type": "t_mapping(t_address,t_struct(all_detail)12_storage)"
					}
				],
				"types": {
					"t_address": {
						"encoding": "inplace",
						"label": "address",
						"numberOfBytes": "20"
					},
					"t_mapping(t_address,t_struct(all_detail)12_storage)": {
						"encoding": "mapping",
						"key": "t_address",
						"label": "mapping(address => struct Salary_manager.all_detail)",
						"numberOfBytes": "32",
						"value": "t_struct(all_detail)12_storage"
					},
					"t_string_storage": {
						"encoding": "bytes",
						"label": "string",
						"numberOfBytes": "32"
					},
					"t_struct(all_detail)12_storage": {
						"encoding": "inplace",
						"label": "struct Salary_manager.all_detail",
						"members": [
							{
								"astId": 3,
								"contract": "tp/empl.sol:Salary_manager",
								"label": "name",
								"offset": 0,
								"slot": "0",
								"type": "t_string_storage"
							},
							{
								"astId": 5,
								"contract": "tp/empl.sol:Salary_manager",
								"label": "salary",
								"offset": 0,
								"slot": "1",
								"type": "t_uint256"
							},
							{
								"astId": 7,
								"contract": "tp/empl.sol:Salary_manager",
								"label": "increment",
								"offset": 0,
								"slot": "2",
								"type": "t_uint256"
							},
							{
								"astId": 9,
								"contract": "tp/empl.sol:Salary_manager",
								"label": "pf",
								"offset": 0,
								"slot": "3",
								"type": "t_uint256"
							},
							{
								"astId": 11,
								"contract": "tp/empl.sol:Salary_manager",
								"label": "tds",
								"offset": 0,
								"slot": "4",
								"type": "t_uint256"
							}
						],
						"numberOfBytes": "160"
					},
					"t_uint256": {
						"encoding": "inplace",
						"label": "uint256",
						"numberOfBytes": "32"
					}
				}
			},
			"userdoc": {
				"kind": "user",
				"methods": {},
				"version": 1
			}
		}
	}
}