{
	"count.sol": {
		"Counter": {
			"abi": [
				{
					"inputs": [],
					"name": "decrement",
					"outputs": [],
					"stateMutability": "nonpayable",
					"type": "function"
				},
				{
					"inputs": [],
					"name": "getcount",
					"outputs": [
						{
							"internalType": "uint256",
							"name": "",
							"type": "uint256"
						}
					],
					"stateMutability": "view",
					"type": "function"
				},
				{
					"inputs": [],
					"name": "increment",
					"outputs": [],
					"stateMutability": "nonpayable",
					"type": "function"
				}
			],
			"devdoc": {
				"kind": "dev",
				"methods": {},
				"version": 1
			},
			"evm": {
				"assembly": "    /* \"count.sol\":60:421  contract Counter {... */\n  mstore(0x40, 0x80)\n  callvalue\n  dup1\n  iszero\n  tag_1\n  jumpi\n  0x00\n  dup1\n  revert\ntag_1:\n  pop\n  dataSize(sub_0)\n  dup1\n  dataOffset(sub_0)\n  0x00\n  codecopy\n  0x00\n  return\nstop\n\nsub_0: assembly {\n        /* \"count.sol\":60:421  contract Counter {... */\n      mstore(0x40, 0x80)\n      callvalue\n      dup1\n      iszero\n      tag_1\n      jumpi\n      0x00\n      dup1\n      revert\n    tag_1:\n      pop\n      jumpi(tag_2, lt(calldatasize, 0x04))\n      shr(0xe0, calldataload(0x00))\n      dup1\n      0x146af82b\n      eq\n      tag_3\n      jumpi\n      dup1\n      0x2baeceb7\n      eq\n      tag_4\n      jumpi\n      dup1\n      0xd09de08a\n      eq\n      tag_5\n      jumpi\n    tag_2:\n      0x00\n      dup1\n      revert\n        /* \"count.sol\":342:418  function getcount() public view returns(uint){... */\n    tag_3:\n      tag_6\n      tag_7\n      jump\t// in\n    tag_6:\n      mload(0x40)\n      tag_8\n      swap2\n      swap1\n      tag_9\n      jump\t// in\n    tag_8:\n      mload(0x40)\n      dup1\n      swap2\n      sub\n      swap1\n      return\n        /* \"count.sol\":199:334  function decrement() public {... */\n    tag_4:\n      tag_10\n      tag_11\n      jump\t// in\n    tag_10:\n      stop\n        /* \"count.sol\":103:191  function increment() public {... */\n    tag_5:\n      tag_12\n      tag_13\n      jump\t// in\n    tag_12:\n      stop\n        /* \"count.sol\":342:418  function getcount() public view returns(uint){... */\n    tag_7:\n        /* \"count.sol\":382:386  uint */\n      0x00\n        /* \"count.sol\":405:410  count */\n      dup1\n      sload\n        /* \"count.sol\":398:410  return count */\n      swap1\n      pop\n        /* \"count.sol\":342:418  function getcount() public view returns(uint){... */\n      swap1\n      jump\t// out\n        /* \"count.sol\":199:334  function decrement() public {... */\n    tag_11:\n        /* \"count.sol\":255:256  5 */\n      0x05\n        /* \"count.sol\":246:251  count */\n      sload(0x00)\n        /* \"count.sol\":246:256  count >= 5 */\n      lt\n      iszero\n        /* \"count.sol\":238:274  require(count >= 5, \"Count is zero\") */\n      tag_16\n      jumpi\n      mload(0x40)\n      0x08c379a000000000000000000000000000000000000000000000000000000000\n      dup2\n      mstore\n      0x04\n      add\n      tag_17\n      swap1\n      tag_18\n      jump\t// in\n    tag_17:\n      mload(0x40)\n      dup1\n      swap2\n      sub\n      swap1\n      revert\n    tag_16:\n        /* \"count.sol\":294:295  1 */\n      0x01\n        /* \"count.sol\":285:290  count */\n      0x00\n      dup1\n        /* \"count.sol\":285:295  count -= 1 */\n      dup3\n      dup3\n      sload\n      tag_19\n      swap2\n      swap1\n      tag_20\n      jump\t// in\n    tag_19:\n      swap3\n      pop\n      pop\n      dup2\n      swap1\n      sstore\n      pop\n        /* \"count.sol\":199:334  function decrement() public {... */\n      jump\t// out\n        /* \"count.sol\":103:191  function increment() public {... */\n    tag_13:\n        /* \"count.sol\":151:152  1 */\n      0x01\n        /* \"count.sol\":142:147  count */\n      0x00\n      dup1\n        /* \"count.sol\":142:152  count += 1 */\n      dup3\n      dup3\n      sload\n      tag_22\n      swap2\n      swap1\n      tag_23\n      jump\t// in\n    tag_22:\n      swap3\n      pop\n      pop\n      dup2\n      swap1\n      sstore\n      pop\n        /* \"count.sol\":103:191  function increment() public {... */\n      jump\t// out\n        /* \"#utility.yul\":7:84   */\n    tag_24:\n        /* \"#utility.yul\":44:51   */\n      0x00\n        /* \"#utility.yul\":73:78   */\n      dup2\n        /* \"#utility.yul\":62:78   */\n      swap1\n      pop\n        /* \"#utility.yul\":7:84   */\n      swap2\n      swap1\n      pop\n      jump\t// out\n        /* \"#utility.yul\":90:208   */\n    tag_25:\n        /* \"#utility.yul\":177:201   */\n      tag_33\n        /* \"#utility.yul\":195:200   */\n      dup2\n        /* \"#utility.yul\":177:201   */\n      tag_24\n      jump\t// in\n    tag_33:\n        /* \"#utility.yul\":172:175   */\n      dup3\n        /* \"#utility.yul\":165:202   */\n      mstore\n        /* \"#utility.yul\":90:208   */\n      pop\n      pop\n      jump\t// out\n        /* \"#utility.yul\":214:436   */\n    tag_9:\n        /* \"#utility.yul\":307:311   */\n      0x00\n        /* \"#utility.yul\":345:347   */\n      0x20\n        /* \"#utility.yul\":334:343   */\n      dup3\n        /* \"#utility.yul\":330:348   */\n      add\n        /* \"#utility.yul\":322:348   */\n      swap1\n      pop\n        /* \"#utility.yul\":358:429   */\n      tag_35\n        /* \"#utility.yul\":426:427   */\n      0x00\n        /* \"#utility.yul\":415:424   */\n      dup4\n        /* \"#utility.yul\":411:428   */\n      add\n        /* \"#utility.yul\":402:408   */\n      dup5\n        /* \"#utility.yul\":358:429   */\n      tag_25\n      jump\t// in\n    tag_35:\n        /* \"#utility.yul\":214:436   */\n      swap3\n      swap2\n      pop\n      pop\n      jump\t// out\n        /* \"#utility.yul\":442:611   */\n    tag_26:\n        /* \"#utility.yul\":526:537   */\n      0x00\n        /* \"#utility.yul\":560:566   */\n      dup3\n        /* \"#utility.yul\":555:558   */\n      dup3\n        /* \"#utility.yul\":548:567   */\n      mstore\n        /* \"#utility.yul\":600:604   */\n      0x20\n        /* \"#utility.yul\":595:598   */\n      dup3\n        /* \"#utility.yul\":591:605   */\n      add\n        /* \"#utility.yul\":576:605   */\n      swap1\n      pop\n        /* \"#utility.yul\":442:611   */\n      swap3\n      swap2\n      pop\n      pop\n      jump\t// out\n        /* \"#utility.yul\":617:780   */\n    tag_27:\n        /* \"#utility.yul\":757:772   */\n      0x436f756e74206973207a65726f00000000000000000000000000000000000000\n        /* \"#utility.yul\":753:754   */\n      0x00\n        /* \"#utility.yul\":745:751   */\n      dup3\n        /* \"#utility.yul\":741:755   */\n      add\n        /* \"#utility.yul\":734:773   */\n      mstore\n        /* \"#utility.yul\":617:780   */\n      pop\n      jump\t// out\n        /* \"#utility.yul\":786:1152   */\n    tag_28:\n        /* \"#utility.yul\":928:931   */\n      0x00\n        /* \"#utility.yul\":949:1016   */\n      tag_39\n        /* \"#utility.yul\":1013:1015   */\n      0x0d\n        /* \"#utility.yul\":1008:1011   */\n      dup4\n        /* \"#utility.yul\":949:1016   */\n      tag_26\n      jump\t// in\n    tag_39:\n        /* \"#utility.yul\":942:1016   */\n      swap2\n      pop\n        /* \"#utility.yul\":1025:1118   */\n      tag_40\n        /* \"#utility.yul\":1114:1117   */\n      dup3\n        /* \"#utility.yul\":1025:1118   */\n      tag_27\n      jump\t// in\n    tag_40:\n        /* \"#utility.yul\":1143:1145   */\n      0x20\n        /* \"#utility.yul\":1138:1141   */\n      dup3\n        /* \"#utility.yul\":1134:1146   */\n      add\n        /* \"#utility.yul\":1127:1146   */\n      swap1\n      pop\n        /* \"#utility.yul\":786:1152   */\n      swap2\n      swap1\n      pop\n      jump\t// out\n        /* \"#utility.yul\":1158:1577   */\n    tag_18:\n        /* \"#utility.yul\":1324:1328   */\n      0x00\n        /* \"#utility.yul\":1362:1364   */\n      0x20\n        /* \"#utility.yul\":1351:1360   */\n      dup3\n        /* \"#utility.yul\":1347:1365   */\n      add\n        /* \"#utility.yul\":1339:1365   */\n      swap1\n      pop\n        /* \"#utility.yul\":1411:1420   */\n      dup2\n        /* \"#utility.yul\":1405:1409   */\n      dup2\n        /* \"#utility.yul\":1401:1421   */\n      sub\n        /* \"#utility.yul\":1397:1398   */\n      0x00\n        /* \"#utility.yul\":1386:1395   */\n      dup4\n        /* \"#utility.yul\":1382:1399   */\n      add\n        /* \"#utility.yul\":1375:1422   */\n      mstore\n        /* \"#utility.yul\":1439:1570   */\n      tag_42\n        /* \"#utility.yul\":1565:1569   */\n      dup2\n        /* \"#utility.yul\":1439:1570   */\n      tag_28\n      jump\t// in\n    tag_42:\n        /* \"#utility.yul\":1431:1570   */\n      swap1\n      pop\n        /* \"#utility.yul\":1158:1577   */\n      swap2\n      swap1\n      pop\n      jump\t// out\n        /* \"#utility.yul\":1583:1763   */\n    tag_29:\n        /* \"#utility.yul\":1631:1708   */\n      0x4e487b7100000000000000000000000000000000000000000000000000000000\n        /* \"#utility.yul\":1628:1629   */\n      0x00\n        /* \"#utility.yul\":1621:1709   */\n      mstore\n        /* \"#utility.yul\":1728:1732   */\n      0x11\n        /* \"#utility.yul\":1725:1726   */\n      0x04\n        /* \"#utility.yul\":1718:1733   */\n      mstore\n        /* \"#utility.yul\":1752:1756   */\n      0x24\n        /* \"#utility.yul\":1749:1750   */\n      0x00\n        /* \"#utility.yul\":1742:1757   */\n      revert\n        /* \"#utility.yul\":1769:1963   */\n    tag_20:\n        /* \"#utility.yul\":1809:1813   */\n      0x00\n        /* \"#utility.yul\":1829:1849   */\n      tag_45\n        /* \"#utility.yul\":1847:1848   */\n      dup3\n        /* \"#utility.yul\":1829:1849   */\n      tag_24\n      jump\t// in\n    tag_45:\n        /* \"#utility.yul\":1824:1849   */\n      swap2\n      pop\n        /* \"#utility.yul\":1863:1883   */\n      tag_46\n        /* \"#utility.yul\":1881:1882   */\n      dup4\n        /* \"#utility.yul\":1863:1883   */\n      tag_24\n      jump\t// in\n    tag_46:\n        /* \"#utility.yul\":1858:1883   */\n      swap3\n      pop\n        /* \"#utility.yul\":1907:1908   */\n      dup3\n        /* \"#utility.yul\":1904:1905   */\n      dup3\n        /* \"#utility.yul\":1900:1909   */\n      sub\n        /* \"#utility.yul\":1892:1909   */\n      swap1\n      pop\n        /* \"#utility.yul\":1931:1932   */\n      dup2\n        /* \"#utility.yul\":1925:1929   */\n      dup2\n        /* \"#utility.yul\":1922:1933   */\n      gt\n        /* \"#utility.yul\":1919:1956   */\n      iszero\n      tag_47\n      jumpi\n        /* \"#utility.yul\":1936:1954   */\n      tag_48\n      tag_29\n      jump\t// in\n    tag_48:\n        /* \"#utility.yul\":1919:1956   */\n    tag_47:\n        /* \"#utility.yul\":1769:1963   */\n      swap3\n      swap2\n      pop\n      pop\n      jump\t// out\n        /* \"#utility.yul\":1969:2160   */\n    tag_23:\n        /* \"#utility.yul\":2009:2012   */\n      0x00\n        /* \"#utility.yul\":2028:2048   */\n      tag_50\n        /* \"#utility.yul\":2046:2047   */\n      dup3\n        /* \"#utility.yul\":2028:2048   */\n      tag_24\n      jump\t// in\n    tag_50:\n        /* \"#utility.yul\":2023:2048   */\n      swap2\n      pop\n        /* \"#utility.yul\":2062:2082   */\n      tag_51\n        /* \"#utility.yul\":2080:2081   */\n      dup4\n        /* \"#utility.yul\":2062:2082   */\n      tag_24\n      jump\t// in\n    tag_51:\n        /* \"#utility.yul\":2057:2082   */\n      swap3\n      pop\n        /* \"#utility.yul\":2105:2106   */\n      dup3\n        /* \"#utility.yul\":2102:2103   */\n      dup3\n        /* \"#utility.yul\":2098:2107   */\n      add\n        /* \"#utility.yul\":2091:2107   */\n      swap1\n      pop\n        /* \"#utility.yul\":2126:2129   */\n      dup1\n        /* \"#utility.yul\":2123:2124   */\n      dup3\n        /* \"#utility.yul\":2120:2130   */\n      gt\n        /* \"#utility.yul\":2117:2153   */\n      iszero\n      tag_52\n      jumpi\n        /* \"#utility.yul\":2133:2151   */\n      tag_53\n      tag_29\n      jump\t// in\n    tag_53:\n        /* \"#utility.yul\":2117:2153   */\n    tag_52:\n        /* \"#utility.yul\":1969:2160   */\n      swap3\n      swap2\n      pop\n      pop\n      jump\t// out\n\n    auxdata: 0xa2646970667358221220f8bf8d8a0bfd61ce87b14ee89bd7d4d84f8dc9333c4bd3a042084a554be3b8e564736f6c63430008120033\n}\n",
				"bytecode": {
					"linkReferences": {},
					"object": "608060405234801561001057600080fd5b5061027b806100206000396000f3fe608060405234801561001057600080fd5b50600436106100415760003560e01c8063146af82b146100465780632baeceb714610064578063d09de08a1461006e575b600080fd5b61004e610078565b60405161005b9190610116565b60405180910390f35b61006c610081565b005b6100766100e2565b005b60008054905090565b600560005410156100c7576040517f08c379a00000000000000000000000000000000000000000000000000000000081526004016100be9061018e565b60405180910390fd5b60016000808282546100d991906101dd565b92505081905550565b60016000808282546100f49190610211565b92505081905550565b6000819050919050565b610110816100fd565b82525050565b600060208201905061012b6000830184610107565b92915050565b600082825260208201905092915050565b7f436f756e74206973207a65726f00000000000000000000000000000000000000600082015250565b6000610178600d83610131565b915061018382610142565b602082019050919050565b600060208201905081810360008301526101a78161016b565b9050919050565b7f4e487b7100000000000000000000000000000000000000000000000000000000600052601160045260246000fd5b60006101e8826100fd565b91506101f3836100fd565b925082820390508181111561020b5761020a6101ae565b5b92915050565b600061021c826100fd565b9150610227836100fd565b925082820190508082111561023f5761023e6101ae565b5b9291505056fea2646970667358221220f8bf8d8a0bfd61ce87b14ee89bd7d4d84f8dc9333c4bd3a042084a554be3b8e564736f6c63430008120033",
					"opcodes": "PUSH1 0x80 PUSH1 0x40 MSTORE CALLVALUE DUP1 ISZERO PUSH2 0x10 JUMPI PUSH1 0x0 DUP1 REVERT JUMPDEST POP PUSH2 0x27B DUP1 PUSH2 0x20 PUSH1 0x0 CODECOPY PUSH1 0x0 RETURN INVALID PUSH1 0x80 PUSH1 0x40 MSTORE CALLVALUE DUP1 ISZERO PUSH2 0x10 JUMPI PUSH1 0x0 DUP1 REVERT JUMPDEST POP PUSH1 0x4 CALLDATASIZE LT PUSH2 0x41 JUMPI PUSH1 0x0 CALLDATALOAD PUSH1 0xE0 SHR DUP1 PUSH4 0x146AF82B EQ PUSH2 0x46 JUMPI DUP1 PUSH4 0x2BAECEB7 EQ PUSH2 0x64 JUMPI DUP1 PUSH4 0xD09DE08A EQ PUSH2 0x6E JUMPI JUMPDEST PUSH1 0x0 DUP1 REVERT JUMPDEST PUSH2 0x4E PUSH2 0x78 JUMP JUMPDEST PUSH1 0x40 MLOAD PUSH2 0x5B SWAP2 SWAP1 PUSH2 0x116 JUMP JUMPDEST PUSH1 0x40 MLOAD DUP1 SWAP2 SUB SWAP1 RETURN JUMPDEST PUSH2 0x6C PUSH2 0x81 JUMP JUMPDEST STOP JUMPDEST PUSH2 0x76 PUSH2 0xE2 JUMP JUMPDEST STOP JUMPDEST PUSH1 0x0 DUP1 SLOAD SWAP1 POP SWAP1 JUMP JUMPDEST PUSH1 0x5 PUSH1 0x0 SLOAD LT ISZERO PUSH2 0xC7 JUMPI PUSH1 0x40 MLOAD PUSH32 0x8C379A000000000000000000000000000000000000000000000000000000000 DUP2 MSTORE PUSH1 0x4 ADD PUSH2 0xBE SWAP1 PUSH2 0x18E JUMP JUMPDEST PUSH1 0x40 MLOAD DUP1 SWAP2 SUB SWAP1 REVERT JUMPDEST PUSH1 0x1 PUSH1 0x0 DUP1 DUP3 DUP3 SLOAD PUSH2 0xD9 SWAP2 SWAP1 PUSH2 0x1DD JUMP JUMPDEST SWAP3 POP POP DUP2 SWAP1 SSTORE POP JUMP JUMPDEST PUSH1 0x1 PUSH1 0x0 DUP1 DUP3 DUP3 SLOAD PUSH2 0xF4 SWAP2 SWAP1 PUSH2 0x211 JUMP JUMPDEST SWAP3 POP POP DUP2 SWAP1 SSTORE POP JUMP JUMPDEST PUSH1 0x0 DUP2 SWAP1 POP SWAP2 SWAP1 POP JUMP JUMPDEST PUSH2 0x110 DUP2 PUSH2 0xFD JUMP JUMPDEST DUP3 MSTORE POP POP JUMP JUMPDEST PUSH1 0x0 PUSH1 0x20 DUP3 ADD SWAP1 POP PUSH2 0x12B PUSH1 0x0 DUP4 ADD DUP5 PUSH2 0x107 JUMP JUMPDEST SWAP3 SWAP2 POP POP JUMP JUMPDEST PUSH1 0x0 DUP3 DUP3 MSTORE PUSH1 0x20 DUP3 ADD SWAP1 POP SWAP3 SWAP2 POP POP JUMP JUMPDEST PUSH32 0x436F756E74206973207A65726F00000000000000000000000000000000000000 PUSH1 0x0 DUP3 ADD MSTORE POP JUMP JUMPDEST PUSH1 0x0 PUSH2 0x178 PUSH1 0xD DUP4 PUSH2 0x131 JUMP JUMPDEST SWAP2 POP PUSH2 0x183 DUP3 PUSH2 0x142 JUMP JUMPDEST PUSH1 0x20 DUP3 ADD SWAP1 POP SWAP2 SWAP1 POP JUMP JUMPDEST PUSH1 0x0 PUSH1 0x20 DUP3 ADD SWAP1 POP DUP2 DUP2 SUB PUSH1 0x0 DUP4 ADD MSTORE PUSH2 0x1A7 DUP2 PUSH2 0x16B JUMP JUMPDEST SWAP1 POP SWAP2 SWAP1 POP JUMP JUMPDEST PUSH32 0x4E487B7100000000000000000000000000000000000000000000000000000000 PUSH1 0x0 MSTORE PUSH1 0x11 PUSH1 0x4 MSTORE PUSH1 0x24 PUSH1 0x0 REVERT JUMPDEST PUSH1 0x0 PUSH2 0x1E8 DUP3 PUSH2 0xFD JUMP JUMPDEST SWAP2 POP PUSH2 0x1F3 DUP4 PUSH2 0xFD JUMP JUMPDEST SWAP3 POP DUP3 DUP3 SUB SWAP1 POP DUP2 DUP2 GT ISZERO PUSH2 0x20B JUMPI PUSH2 0x20A PUSH2 0x1AE JUMP JUMPDEST JUMPDEST SWAP3 SWAP2 POP POP JUMP JUMPDEST PUSH1 0x0 PUSH2 0x21C DUP3 PUSH2 0xFD JUMP JUMPDEST SWAP2 POP PUSH2 0x227 DUP4 PUSH2 0xFD JUMP JUMPDEST SWAP3 POP DUP3 DUP3 ADD SWAP1 POP DUP1 DUP3 GT ISZERO PUSH2 0x23F JUMPI PUSH2 0x23E PUSH2 0x1AE JUMP JUMPDEST JUMPDEST SWAP3 SWAP2 POP POP JUMP INVALID LOG2 PUSH5 0x6970667358 0x22 SLT KECCAK256 0xF8 0xBF DUP14 DUP11 SIGNEXTEND REVERT PUSH2 0xCE87 0xB1 0x4E 0xE8 SWAP12 0xD7 0xD4 0xD8 0x4F DUP14 0xC9 CALLER EXTCODECOPY 0x4B 0xD3 LOG0 TIMESTAMP ADDMOD 0x4A SSTORE 0x4B 0xE3 0xB8 0xE5 PUSH5 0x736F6C6343 STOP ADDMOD SLT STOP CALLER "
				},
				"gasEstimates": {
					"creation": {
						"codeDepositCost": "127000",
						"executionCost": "171",
						"totalCost": "127171"
					},
					"external": {
						"decrement()": "infinite",
						"getcount()": "2415",
						"increment()": "infinite"
					}
				},
				"methodIdentifiers": {
					"decrement()": "2baeceb7",
					"getcount()": "146af82b",
					"increment()": "d09de08a"
				}
			},
			"storageLayout": {
				"storage": [
					{
						"astId": 3,
						"contract": "count.sol:Counter",
						"label": "count",
						"offset": 0,
						"slot": "0",
						"type": "t_uint256"
					}
				],
				"types": {
					"t_uint256": {
						"encoding": "inplace",
						"label": "uint256",
						"numberOfBytes": "32"
					}
				}
			},
			"userdoc": {
				"kind": "user",
				"methods": {},
				"version": 1
			}
		}
	}
}