{
	"D_Voting_app.sol": {
		"Voting": {
			"abi": [
				{
					"inputs": [],
					"stateMutability": "nonpayable",
					"type": "constructor"
				},
				{
					"anonymous": false,
					"inputs": [
						{
							"indexed": false,
							"internalType": "string",
							"name": "first",
							"type": "string"
						},
						{
							"indexed": false,
							"internalType": "string",
							"name": "second",
							"type": "string"
						},
						{
							"indexed": false,
							"internalType": "string",
							"name": "third",
							"type": "string"
						}
					],
					"name": "ResultDeclared",
					"type": "event"
				},
				{
					"anonymous": false,
					"inputs": [
						{
							"indexed": true,
							"internalType": "uint256",
							"name": "candidateId",
							"type": "uint256"
						}
					],
					"name": "Voted",
					"type": "event"
				},
				{
					"inputs": [],
					"name": "candidatesCount",
					"outputs": [
						{
							"internalType": "uint256",
							"name": "",
							"type": "uint256"
						}
					],
					"stateMutability": "view",
					"type": "function"
				},
				{
					"inputs": [],
					"name": "declareResult",
					"outputs": [],
					"stateMutability": "nonpayable",
					"type": "function"
				},
				{
					"inputs": [
						{
							"internalType": "uint256",
							"name": "_candidateId",
							"type": "uint256"
						}
					],
					"name": "getCandidate",
					"outputs": [
						{
							"internalType": "uint256",
							"name": "",
							"type": "uint256"
						},
						{
							"internalType": "string",
							"name": "",
							"type": "string"
						},
						{
							"internalType": "uint256",
							"name": "",
							"type": "uint256"
						}
					],
					"stateMutability": "view",
					"type": "function"
				},
				{
					"inputs": [
						{
							"internalType": "uint256",
							"name": "_candidateId",
							"type": "uint256"
						}
					],
					"name": "getCandidateBasic",
					"outputs": [
						{
							"internalType": "uint256",
							"name": "",
							"type": "uint256"
						},
						{
							"internalType": "string",
							"name": "",
							"type": "string"
						}
					],
					"stateMutability": "view",
					"type": "function"
				},
				{
					"inputs": [],
					"name": "getTopWinners",
					"outputs": [
						{
							"internalType": "uint256",
							"name": "",
							"type": "uint256"
						},
						{
							"internalType": "string",
							"name": "",
							"type": "string"
						},
						{
							"internalType": "uint256",
							"name": "",
							"type": "uint256"
						},
						{
							"internalType": "uint256",
							"name": "",
							"type": "uint256"
						},
						{
							"internalType": "string",
							"name": "",
							"type": "string"
						},
						{
							"internalType": "uint256",
							"name": "",
							"type": "uint256"
						},
						{
							"internalType": "uint256",
							"name": "",
							"type": "uint256"
						},
						{
							"internalType": "string",
							"name": "",
							"type": "string"
						},
						{
							"internalType": "uint256",
							"name": "",
							"type": "uint256"
						}
					],
					"stateMutability": "view",
					"type": "function"
				},
				{
					"inputs": [],
					"name": "getTotalVoters",
					"outputs": [
						{
							"internalType": "uint256",
							"name": "",
							"type": "uint256"
						}
					],
					"stateMutability": "view",
					"type": "function"
				},
				{
					"inputs": [],
					"name": "owner",
					"outputs": [
						{
							"internalType": "address",
							"name": "",
							"type": "address"
						}
					],
					"stateMutability": "view",
					"type": "function"
				},
				{
					"inputs": [],
					"name": "resultDeclared",
					"outputs": [
						{
							"internalType": "bool",
							"name": "",
							"type": "bool"
						}
					],
					"stateMutability": "view",
					"type": "function"
				},
				{
					"inputs": [
						{
							"internalType": "uint256",
							"name": "_candidateId",
							"type": "uint256"
						}
					],
					"name": "vote",
					"outputs": [],
					"stateMutability": "nonpayable",
					"type": "function"
				}
			],
			"devdoc": {
				"kind": "dev",
				"methods": {},
				"version": 1
			},
			"evm": {
				"assembly": "    /* \"D_Voting_app.sol\":60:3895  contract Voting {... */\n  mstore(0x40, 0x80)\n    /* \"D_Voting_app.sol\":817:1042  constructor() {... */\n  callvalue\n  dup1\n  iszero\n  tag_1\n  jumpi\n  0x00\n  dup1\n  revert\ntag_1:\n  pop\n    /* \"D_Voting_app.sol\":850:860  msg.sender */\n  caller\n    /* \"D_Voting_app.sol\":842:847  owner */\n  0x00\n  dup1\n    /* \"D_Voting_app.sol\":842:860  owner = msg.sender */\n  0x0100\n  exp\n  dup2\n  sload\n  dup2\n  0xffffffffffffffffffffffffffffffffffffffff\n  mul\n  not\n  and\n  swap1\n  dup4\n  0xffffffffffffffffffffffffffffffffffffffff\n  and\n  mul\n  or\n  swap1\n  sstore\n  pop\n    /* \"D_Voting_app.sol\":873:910  addCandidate(\"Bengaluru (Bangalore)\") */\n  tag_4\n  mload(0x40)\n  dup1\n  0x40\n  add\n  0x40\n  mstore\n  dup1\n  0x15\n  dup2\n  mstore\n  0x20\n  add\n  0x42656e67616c757275202842616e67616c6f7265290000000000000000000000\n  dup2\n  mstore\n  pop\n    /* \"D_Voting_app.sol\":873:885  addCandidate */\n  shl(0x20, tag_5)\n    /* \"D_Voting_app.sol\":873:910  addCandidate(\"Bengaluru (Bangalore)\") */\n  0x20\n  shr\n  jump\t// in\ntag_4:\n    /* \"D_Voting_app.sol\":921:943  addCandidate(\"Mohali\") */\n  tag_6\n  mload(0x40)\n  dup1\n  0x40\n  add\n  0x40\n  mstore\n  dup1\n  0x06\n  dup2\n  mstore\n  0x20\n  add\n  0x4d6f68616c690000000000000000000000000000000000000000000000000000\n  dup2\n  mstore\n  pop\n    /* \"D_Voting_app.sol\":921:933  addCandidate */\n  shl(0x20, tag_5)\n    /* \"D_Voting_app.sol\":921:943  addCandidate(\"Mohali\") */\n  0x20\n  shr\n  jump\t// in\ntag_6:\n    /* \"D_Voting_app.sol\":954:979  addCandidate(\"Hyderabad\") */\n  tag_7\n  mload(0x40)\n  dup1\n  0x40\n  add\n  0x40\n  mstore\n  dup1\n  0x09\n  dup2\n  mstore\n  0x20\n  add\n  0x4879646572616261640000000000000000000000000000000000000000000000\n  dup2\n  mstore\n  pop\n    /* \"D_Voting_app.sol\":954:966  addCandidate */\n  shl(0x20, tag_5)\n    /* \"D_Voting_app.sol\":954:979  addCandidate(\"Hyderabad\") */\n  0x20\n  shr\n  jump\t// in\ntag_7:\n    /* \"D_Voting_app.sol\":990:1034  addCandidate(\"Delhi-NCR (Gurugram & Noida)\") */\n  tag_8\n  mload(0x40)\n  dup1\n  0x40\n  add\n  0x40\n  mstore\n  dup1\n  0x1c\n  dup2\n  mstore\n  0x20\n  add\n  0x44656c68692d4e43522028477572756772616d2026204e6f6964612900000000\n  dup2\n  mstore\n  pop\n    /* \"D_Voting_app.sol\":990:1002  addCandidate */\n  shl(0x20, tag_5)\n    /* \"D_Voting_app.sol\":990:1034  addCandidate(\"Delhi-NCR (Gurugram & Noida)\") */\n  0x20\n  shr\n  jump\t// in\ntag_8:\n    /* \"D_Voting_app.sol\":60:3895  contract Voting {... */\n  jump(tag_9)\n    /* \"D_Voting_app.sol\":1050:1214  function addCandidate(string memory _name) private {... */\ntag_5:\n    /* \"D_Voting_app.sol\":1112:1127  candidatesCount */\n  0x03\n  0x00\n    /* \"D_Voting_app.sol\":1112:1129  candidatesCount++ */\n  dup2\n  sload\n  dup1\n  swap3\n  swap2\n  swap1\n  tag_11\n  swap1\n  tag_12\n  jump\t// in\ntag_11:\n  swap2\n  swap1\n  pop\n  sstore\n  pop\n    /* \"D_Voting_app.sol\":1170:1206  Candidate(candidatesCount, _name, 0) */\n  mload(0x40)\n  dup1\n  0x60\n  add\n  0x40\n  mstore\n  dup1\n    /* \"D_Voting_app.sol\":1180:1195  candidatesCount */\n  sload(0x03)\n    /* \"D_Voting_app.sol\":1170:1206  Candidate(candidatesCount, _name, 0) */\n  dup2\n  mstore\n  0x20\n  add\n    /* \"D_Voting_app.sol\":1197:1202  _name */\n  dup3\n    /* \"D_Voting_app.sol\":1170:1206  Candidate(candidatesCount, _name, 0) */\n  dup2\n  mstore\n  0x20\n  add\n    /* \"D_Voting_app.sol\":1204:1205  0 */\n  0x00\n    /* \"D_Voting_app.sol\":1170:1206  Candidate(candidatesCount, _name, 0) */\n  dup2\n  mstore\n  pop\n    /* \"D_Voting_app.sol\":1140:1150  candidates */\n  0x01\n    /* \"D_Voting_app.sol\":1140:1167  candidates[candidatesCount] */\n  0x00\n    /* \"D_Voting_app.sol\":1151:1166  candidatesCount */\n  sload(0x03)\n    /* \"D_Voting_app.sol\":1140:1167  candidates[candidatesCount] */\n  dup2\n  mstore\n  0x20\n  add\n  swap1\n  dup2\n  mstore\n  0x20\n  add\n  0x00\n  keccak256\n    /* \"D_Voting_app.sol\":1140:1206  candidates[candidatesCount] = Candidate(candidatesCount, _name, 0) */\n  0x00\n  dup3\n  add\n  mload\n  dup2\n  0x00\n  add\n  sstore\n  0x20\n  dup3\n  add\n  mload\n  dup2\n  0x01\n  add\n  swap1\n  dup2\n  tag_13\n  swap2\n  swap1\n  tag_14\n  jump\t// in\ntag_13:\n  pop\n  0x40\n  dup3\n  add\n  mload\n  dup2\n  0x02\n  add\n  sstore\n  swap1\n  pop\n  pop\n    /* \"D_Voting_app.sol\":1050:1214  function addCandidate(string memory _name) private {... */\n  pop\n  jump\t// out\n    /* \"#utility.yul\":7:187   */\ntag_15:\n    /* \"#utility.yul\":55:132   */\n  0x4e487b7100000000000000000000000000000000000000000000000000000000\n    /* \"#utility.yul\":52:53   */\n  0x00\n    /* \"#utility.yul\":45:133   */\n  mstore\n    /* \"#utility.yul\":152:156   */\n  0x11\n    /* \"#utility.yul\":149:150   */\n  0x04\n    /* \"#utility.yul\":142:157   */\n  mstore\n    /* \"#utility.yul\":176:180   */\n  0x24\n    /* \"#utility.yul\":173:174   */\n  0x00\n    /* \"#utility.yul\":166:181   */\n  revert\n    /* \"#utility.yul\":193:270   */\ntag_16:\n    /* \"#utility.yul\":230:237   */\n  0x00\n    /* \"#utility.yul\":259:264   */\n  dup2\n    /* \"#utility.yul\":248:264   */\n  swap1\n  pop\n    /* \"#utility.yul\":193:270   */\n  swap2\n  swap1\n  pop\n  jump\t// out\n    /* \"#utility.yul\":276:509   */\ntag_12:\n    /* \"#utility.yul\":315:318   */\n  0x00\n    /* \"#utility.yul\":338:362   */\n  tag_40\n    /* \"#utility.yul\":356:361   */\n  dup3\n    /* \"#utility.yul\":338:362   */\n  tag_16\n  jump\t// in\ntag_40:\n    /* \"#utility.yul\":329:362   */\n  swap2\n  pop\n    /* \"#utility.yul\":384:450   */\n  0xffffffffffffffffffffffffffffffffffffffffffffffffffffffffffffffff\n    /* \"#utility.yul\":377:382   */\n  dup3\n    /* \"#utility.yul\":374:451   */\n  sub\n    /* \"#utility.yul\":371:474   */\n  tag_41\n  jumpi\n    /* \"#utility.yul\":454:472   */\n  tag_42\n  tag_15\n  jump\t// in\ntag_42:\n    /* \"#utility.yul\":371:474   */\ntag_41:\n    /* \"#utility.yul\":501:502   */\n  0x01\n    /* \"#utility.yul\":494:499   */\n  dup3\n    /* \"#utility.yul\":490:503   */\n  add\n    /* \"#utility.yul\":483:503   */\n  swap1\n  pop\n    /* \"#utility.yul\":276:509   */\n  swap2\n  swap1\n  pop\n  jump\t// out\n    /* \"#utility.yul\":515:614   */\ntag_17:\n    /* \"#utility.yul\":567:573   */\n  0x00\n    /* \"#utility.yul\":601:606   */\n  dup2\n    /* \"#utility.yul\":595:607   */\n  mload\n    /* \"#utility.yul\":585:607   */\n  swap1\n  pop\n    /* \"#utility.yul\":515:614   */\n  swap2\n  swap1\n  pop\n  jump\t// out\n    /* \"#utility.yul\":620:800   */\ntag_18:\n    /* \"#utility.yul\":668:745   */\n  0x4e487b7100000000000000000000000000000000000000000000000000000000\n    /* \"#utility.yul\":665:666   */\n  0x00\n    /* \"#utility.yul\":658:746   */\n  mstore\n    /* \"#utility.yul\":765:769   */\n  0x41\n    /* \"#utility.yul\":762:763   */\n  0x04\n    /* \"#utility.yul\":755:770   */\n  mstore\n    /* \"#utility.yul\":789:793   */\n  0x24\n    /* \"#utility.yul\":786:787   */\n  0x00\n    /* \"#utility.yul\":779:794   */\n  revert\n    /* \"#utility.yul\":806:986   */\ntag_19:\n    /* \"#utility.yul\":854:931   */\n  0x4e487b7100000000000000000000000000000000000000000000000000000000\n    /* \"#utility.yul\":851:852   */\n  0x00\n    /* \"#utility.yul\":844:932   */\n  mstore\n    /* \"#utility.yul\":951:955   */\n  0x22\n    /* \"#utility.yul\":948:949   */\n  0x04\n    /* \"#utility.yul\":941:956   */\n  mstore\n    /* \"#utility.yul\":975:979   */\n  0x24\n    /* \"#utility.yul\":972:973   */\n  0x00\n    /* \"#utility.yul\":965:980   */\n  revert\n    /* \"#utility.yul\":992:1312   */\ntag_20:\n    /* \"#utility.yul\":1036:1042   */\n  0x00\n    /* \"#utility.yul\":1073:1074   */\n  0x02\n    /* \"#utility.yul\":1067:1071   */\n  dup3\n    /* \"#utility.yul\":1063:1075   */\n  div\n    /* \"#utility.yul\":1053:1075   */\n  swap1\n  pop\n    /* \"#utility.yul\":1120:1121   */\n  0x01\n    /* \"#utility.yul\":1114:1118   */\n  dup3\n    /* \"#utility.yul\":1110:1122   */\n  and\n    /* \"#utility.yul\":1141:1159   */\n  dup1\n    /* \"#utility.yul\":1131:1212   */\n  tag_47\n  jumpi\n    /* \"#utility.yul\":1197:1201   */\n  0x7f\n    /* \"#utility.yul\":1189:1195   */\n  dup3\n    /* \"#utility.yul\":1185:1202   */\n  and\n    /* \"#utility.yul\":1175:1202   */\n  swap2\n  pop\n    /* \"#utility.yul\":1131:1212   */\ntag_47:\n    /* \"#utility.yul\":1259:1261   */\n  0x20\n    /* \"#utility.yul\":1251:1257   */\n  dup3\n    /* \"#utility.yul\":1248:1262   */\n  lt\n    /* \"#utility.yul\":1228:1246   */\n  dup2\n    /* \"#utility.yul\":1225:1263   */\n  sub\n    /* \"#utility.yul\":1222:1306   */\n  tag_48\n  jumpi\n    /* \"#utility.yul\":1278:1296   */\n  tag_49\n  tag_19\n  jump\t// in\ntag_49:\n    /* \"#utility.yul\":1222:1306   */\ntag_48:\n    /* \"#utility.yul\":1043:1312   */\n  pop\n    /* \"#utility.yul\":992:1312   */\n  swap2\n  swap1\n  pop\n  jump\t// out\n    /* \"#utility.yul\":1318:1459   */\ntag_21:\n    /* \"#utility.yul\":1367:1371   */\n  0x00\n    /* \"#utility.yul\":1390:1393   */\n  dup2\n    /* \"#utility.yul\":1382:1393   */\n  swap1\n  pop\n    /* \"#utility.yul\":1413:1416   */\n  dup2\n    /* \"#utility.yul\":1410:1411   */\n  0x00\n    /* \"#utility.yul\":1403:1417   */\n  mstore\n    /* \"#utility.yul\":1447:1451   */\n  0x20\n    /* \"#utility.yul\":1444:1445   */\n  0x00\n    /* \"#utility.yul\":1434:1452   */\n  keccak256\n    /* \"#utility.yul\":1426:1452   */\n  swap1\n  pop\n    /* \"#utility.yul\":1318:1459   */\n  swap2\n  swap1\n  pop\n  jump\t// out\n    /* \"#utility.yul\":1465:1558   */\ntag_22:\n    /* \"#utility.yul\":1502:1508   */\n  0x00\n    /* \"#utility.yul\":1549:1551   */\n  0x20\n    /* \"#utility.yul\":1544:1546   */\n  0x1f\n    /* \"#utility.yul\":1537:1542   */\n  dup4\n    /* \"#utility.yul\":1533:1547   */\n  add\n    /* \"#utility.yul\":1529:1552   */\n  div\n    /* \"#utility.yul\":1519:1552   */\n  swap1\n  pop\n    /* \"#utility.yul\":1465:1558   */\n  swap2\n  swap1\n  pop\n  jump\t// out\n    /* \"#utility.yul\":1564:1671   */\ntag_23:\n    /* \"#utility.yul\":1608:1616   */\n  0x00\n    /* \"#utility.yul\":1658:1663   */\n  dup3\n    /* \"#utility.yul\":1652:1656   */\n  dup3\n    /* \"#utility.yul\":1648:1664   */\n  shl\n    /* \"#utility.yul\":1627:1664   */\n  swap1\n  pop\n    /* \"#utility.yul\":1564:1671   */\n  swap3\n  swap2\n  pop\n  pop\n  jump\t// out\n    /* \"#utility.yul\":1677:2070   */\ntag_24:\n    /* \"#utility.yul\":1746:1752   */\n  0x00\n    /* \"#utility.yul\":1796:1797   */\n  0x08\n    /* \"#utility.yul\":1784:1794   */\n  dup4\n    /* \"#utility.yul\":1780:1798   */\n  mul\n    /* \"#utility.yul\":1819:1916   */\n  tag_54\n    /* \"#utility.yul\":1849:1915   */\n  0xffffffffffffffffffffffffffffffffffffffffffffffffffffffffffffffff\n    /* \"#utility.yul\":1838:1847   */\n  dup3\n    /* \"#utility.yul\":1819:1916   */\n  tag_23\n  jump\t// in\ntag_54:\n    /* \"#utility.yul\":1937:1976   */\n  tag_55\n    /* \"#utility.yul\":1967:1975   */\n  dup7\n    /* \"#utility.yul\":1956:1965   */\n  dup4\n    /* \"#utility.yul\":1937:1976   */\n  tag_23\n  jump\t// in\ntag_55:\n    /* \"#utility.yul\":1925:1976   */\n  swap6\n  pop\n    /* \"#utility.yul\":2009:2013   */\n  dup1\n    /* \"#utility.yul\":2005:2014   */\n  not\n    /* \"#utility.yul\":1998:2003   */\n  dup5\n    /* \"#utility.yul\":1994:2015   */\n  and\n    /* \"#utility.yul\":1985:2015   */\n  swap4\n  pop\n    /* \"#utility.yul\":2058:2062   */\n  dup1\n    /* \"#utility.yul\":2048:2056   */\n  dup7\n    /* \"#utility.yul\":2044:2063   */\n  and\n    /* \"#utility.yul\":2037:2042   */\n  dup5\n    /* \"#utility.yul\":2034:2064   */\n  or\n    /* \"#utility.yul\":2024:2064   */\n  swap3\n  pop\n    /* \"#utility.yul\":1753:2070   */\n  pop\n  pop\n    /* \"#utility.yul\":1677:2070   */\n  swap4\n  swap3\n  pop\n  pop\n  pop\n  jump\t// out\n    /* \"#utility.yul\":2076:2136   */\ntag_25:\n    /* \"#utility.yul\":2104:2107   */\n  0x00\n    /* \"#utility.yul\":2125:2130   */\n  dup2\n    /* \"#utility.yul\":2118:2130   */\n  swap1\n  pop\n    /* \"#utility.yul\":2076:2136   */\n  swap2\n  swap1\n  pop\n  jump\t// out\n    /* \"#utility.yul\":2142:2284   */\ntag_26:\n    /* \"#utility.yul\":2192:2201   */\n  0x00\n    /* \"#utility.yul\":2225:2278   */\n  tag_58\n    /* \"#utility.yul\":2243:2277   */\n  tag_59\n    /* \"#utility.yul\":2252:2276   */\n  tag_60\n    /* \"#utility.yul\":2270:2275   */\n  dup5\n    /* \"#utility.yul\":2252:2276   */\n  tag_16\n  jump\t// in\ntag_60:\n    /* \"#utility.yul\":2243:2277   */\n  tag_25\n  jump\t// in\ntag_59:\n    /* \"#utility.yul\":2225:2278   */\n  tag_16\n  jump\t// in\ntag_58:\n    /* \"#utility.yul\":2212:2278   */\n  swap1\n  pop\n    /* \"#utility.yul\":2142:2284   */\n  swap2\n  swap1\n  pop\n  jump\t// out\n    /* \"#utility.yul\":2290:2365   */\ntag_27:\n    /* \"#utility.yul\":2333:2336   */\n  0x00\n    /* \"#utility.yul\":2354:2359   */\n  dup2\n    /* \"#utility.yul\":2347:2359   */\n  swap1\n  pop\n    /* \"#utility.yul\":2290:2365   */\n  swap2\n  swap1\n  pop\n  jump\t// out\n    /* \"#utility.yul\":2371:2640   */\ntag_28:\n    /* \"#utility.yul\":2481:2520   */\n  tag_63\n    /* \"#utility.yul\":2512:2519   */\n  dup4\n    /* \"#utility.yul\":2481:2520   */\n  tag_26\n  jump\t// in\ntag_63:\n    /* \"#utility.yul\":2542:2633   */\n  tag_64\n    /* \"#utility.yul\":2591:2632   */\n  tag_65\n    /* \"#utility.yul\":2615:2631   */\n  dup3\n    /* \"#utility.yul\":2591:2632   */\n  tag_27\n  jump\t// in\ntag_65:\n    /* \"#utility.yul\":2583:2589   */\n  dup5\n    /* \"#utility.yul\":2576:2580   */\n  dup5\n    /* \"#utility.yul\":2570:2581   */\n  sload\n    /* \"#utility.yul\":2542:2633   */\n  tag_24\n  jump\t// in\ntag_64:\n    /* \"#utility.yul\":2536:2540   */\n  dup3\n    /* \"#utility.yul\":2529:2634   */\n  sstore\n    /* \"#utility.yul\":2447:2640   */\n  pop\n    /* \"#utility.yul\":2371:2640   */\n  pop\n  pop\n  pop\n  jump\t// out\n    /* \"#utility.yul\":2646:2719   */\ntag_29:\n    /* \"#utility.yul\":2691:2694   */\n  0x00\n    /* \"#utility.yul\":2646:2719   */\n  swap1\n  jump\t// out\n    /* \"#utility.yul\":2725:2914   */\ntag_30:\n    /* \"#utility.yul\":2802:2834   */\n  tag_68\n  tag_29\n  jump\t// in\ntag_68:\n    /* \"#utility.yul\":2843:2908   */\n  tag_69\n    /* \"#utility.yul\":2901:2907   */\n  dup2\n    /* \"#utility.yul\":2893:2899   */\n  dup5\n    /* \"#utility.yul\":2887:2891   */\n  dup5\n    /* \"#utility.yul\":2843:2908   */\n  tag_28\n  jump\t// in\ntag_69:\n    /* \"#utility.yul\":2778:2914   */\n  pop\n    /* \"#utility.yul\":2725:2914   */\n  pop\n  pop\n  jump\t// out\n    /* \"#utility.yul\":2920:3106   */\ntag_31:\n    /* \"#utility.yul\":2980:3100   */\ntag_71:\n    /* \"#utility.yul\":2997:3000   */\n  dup2\n    /* \"#utility.yul\":2990:2995   */\n  dup2\n    /* \"#utility.yul\":2987:3001   */\n  lt\n    /* \"#utility.yul\":2980:3100   */\n  iszero\n  tag_73\n  jumpi\n    /* \"#utility.yul\":3051:3090   */\n  tag_74\n    /* \"#utility.yul\":3088:3089   */\n  0x00\n    /* \"#utility.yul\":3081:3086   */\n  dup3\n    /* \"#utility.yul\":3051:3090   */\n  tag_30\n  jump\t// in\ntag_74:\n    /* \"#utility.yul\":3024:3025   */\n  0x01\n    /* \"#utility.yul\":3017:3022   */\n  dup2\n    /* \"#utility.yul\":3013:3026   */\n  add\n    /* \"#utility.yul\":3004:3026   */\n  swap1\n  pop\n    /* \"#utility.yul\":2980:3100   */\n  jump(tag_71)\ntag_73:\n    /* \"#utility.yul\":2920:3106   */\n  pop\n  pop\n  jump\t// out\n    /* \"#utility.yul\":3112:3655   */\ntag_32:\n    /* \"#utility.yul\":3213:3215   */\n  0x1f\n    /* \"#utility.yul\":3208:3211   */\n  dup3\n    /* \"#utility.yul\":3205:3216   */\n  gt\n    /* \"#utility.yul\":3202:3648   */\n  iszero\n  tag_76\n  jumpi\n    /* \"#utility.yul\":3247:3285   */\n  tag_77\n    /* \"#utility.yul\":3279:3284   */\n  dup2\n    /* \"#utility.yul\":3247:3285   */\n  tag_21\n  jump\t// in\ntag_77:\n    /* \"#utility.yul\":3331:3360   */\n  tag_78\n    /* \"#utility.yul\":3349:3359   */\n  dup5\n    /* \"#utility.yul\":3331:3360   */\n  tag_22\n  jump\t// in\ntag_78:\n    /* \"#utility.yul\":3321:3329   */\n  dup2\n    /* \"#utility.yul\":3317:3361   */\n  add\n    /* \"#utility.yul\":3514:3516   */\n  0x20\n    /* \"#utility.yul\":3502:3512   */\n  dup6\n    /* \"#utility.yul\":3499:3517   */\n  lt\n    /* \"#utility.yul\":3496:3545   */\n  iszero\n  tag_79\n  jumpi\n    /* \"#utility.yul\":3535:3543   */\n  dup2\n    /* \"#utility.yul\":3520:3543   */\n  swap1\n  pop\n    /* \"#utility.yul\":3496:3545   */\ntag_79:\n    /* \"#utility.yul\":3558:3638   */\n  tag_80\n    /* \"#utility.yul\":3614:3636   */\n  tag_81\n    /* \"#utility.yul\":3632:3635   */\n  dup6\n    /* \"#utility.yul\":3614:3636   */\n  tag_22\n  jump\t// in\ntag_81:\n    /* \"#utility.yul\":3604:3612   */\n  dup4\n    /* \"#utility.yul\":3600:3637   */\n  add\n    /* \"#utility.yul\":3587:3598   */\n  dup3\n    /* \"#utility.yul\":3558:3638   */\n  tag_31\n  jump\t// in\ntag_80:\n    /* \"#utility.yul\":3217:3648   */\n  pop\n  pop\n    /* \"#utility.yul\":3202:3648   */\ntag_76:\n    /* \"#utility.yul\":3112:3655   */\n  pop\n  pop\n  pop\n  jump\t// out\n    /* \"#utility.yul\":3661:3778   */\ntag_33:\n    /* \"#utility.yul\":3715:3723   */\n  0x00\n    /* \"#utility.yul\":3765:3770   */\n  dup3\n    /* \"#utility.yul\":3759:3763   */\n  dup3\n    /* \"#utility.yul\":3755:3771   */\n  shr\n    /* \"#utility.yul\":3734:3771   */\n  swap1\n  pop\n    /* \"#utility.yul\":3661:3778   */\n  swap3\n  swap2\n  pop\n  pop\n  jump\t// out\n    /* \"#utility.yul\":3784:3953   */\ntag_34:\n    /* \"#utility.yul\":3828:3834   */\n  0x00\n    /* \"#utility.yul\":3861:3912   */\n  tag_84\n    /* \"#utility.yul\":3909:3910   */\n  0x00\n    /* \"#utility.yul\":3905:3911   */\n  not\n    /* \"#utility.yul\":3897:3902   */\n  dup5\n    /* \"#utility.yul\":3894:3895   */\n  0x08\n    /* \"#utility.yul\":3890:3903   */\n  mul\n    /* \"#utility.yul\":3861:3912   */\n  tag_33\n  jump\t// in\ntag_84:\n    /* \"#utility.yul\":3857:3913   */\n  not\n    /* \"#utility.yul\":3942:3946   */\n  dup1\n    /* \"#utility.yul\":3936:3940   */\n  dup4\n    /* \"#utility.yul\":3932:3947   */\n  and\n    /* \"#utility.yul\":3922:3947   */\n  swap2\n  pop\n    /* \"#utility.yul\":3835:3953   */\n  pop\n    /* \"#utility.yul\":3784:3953   */\n  swap3\n  swap2\n  pop\n  pop\n  jump\t// out\n    /* \"#utility.yul\":3958:4253   */\ntag_35:\n    /* \"#utility.yul\":4034:4038   */\n  0x00\n    /* \"#utility.yul\":4180:4209   */\n  tag_86\n    /* \"#utility.yul\":4205:4208   */\n  dup4\n    /* \"#utility.yul\":4199:4203   */\n  dup4\n    /* \"#utility.yul\":4180:4209   */\n  tag_34\n  jump\t// in\ntag_86:\n    /* \"#utility.yul\":4172:4209   */\n  swap2\n  pop\n    /* \"#utility.yul\":4242:4245   */\n  dup3\n    /* \"#utility.yul\":4239:4240   */\n  0x02\n    /* \"#utility.yul\":4235:4246   */\n  mul\n    /* \"#utility.yul\":4229:4233   */\n  dup3\n    /* \"#utility.yul\":4226:4247   */\n  or\n    /* \"#utility.yul\":4218:4247   */\n  swap1\n  pop\n    /* \"#utility.yul\":3958:4253   */\n  swap3\n  swap2\n  pop\n  pop\n  jump\t// out\n    /* \"#utility.yul\":4258:5653   */\ntag_14:\n    /* \"#utility.yul\":4375:4412   */\n  tag_88\n    /* \"#utility.yul\":4408:4411   */\n  dup3\n    /* \"#utility.yul\":4375:4412   */\n  tag_17\n  jump\t// in\ntag_88:\n    /* \"#utility.yul\":4477:4495   */\n  0xffffffffffffffff\n    /* \"#utility.yul\":4469:4475   */\n  dup2\n    /* \"#utility.yul\":4466:4496   */\n  gt\n    /* \"#utility.yul\":4463:4519   */\n  iszero\n  tag_89\n  jumpi\n    /* \"#utility.yul\":4499:4517   */\n  tag_90\n  tag_18\n  jump\t// in\ntag_90:\n    /* \"#utility.yul\":4463:4519   */\ntag_89:\n    /* \"#utility.yul\":4543:4581   */\n  tag_91\n    /* \"#utility.yul\":4575:4579   */\n  dup3\n    /* \"#utility.yul\":4569:4580   */\n  sload\n    /* \"#utility.yul\":4543:4581   */\n  tag_20\n  jump\t// in\ntag_91:\n    /* \"#utility.yul\":4628:4695   */\n  tag_92\n    /* \"#utility.yul\":4688:4694   */\n  dup3\n    /* \"#utility.yul\":4680:4686   */\n  dup3\n    /* \"#utility.yul\":4674:4678   */\n  dup6\n    /* \"#utility.yul\":4628:4695   */\n  tag_32\n  jump\t// in\ntag_92:\n    /* \"#utility.yul\":4722:4723   */\n  0x00\n    /* \"#utility.yul\":4746:4750   */\n  0x20\n    /* \"#utility.yul\":4733:4750   */\n  swap1\n  pop\n    /* \"#utility.yul\":4778:4780   */\n  0x1f\n    /* \"#utility.yul\":4770:4776   */\n  dup4\n    /* \"#utility.yul\":4767:4781   */\n  gt\n    /* \"#utility.yul\":4795:4796   */\n  0x01\n    /* \"#utility.yul\":4790:5408   */\n  dup2\n  eq\n  tag_94\n  jumpi\n    /* \"#utility.yul\":5452:5453   */\n  0x00\n    /* \"#utility.yul\":5469:5475   */\n  dup5\n    /* \"#utility.yul\":5466:5543   */\n  iszero\n  tag_95\n  jumpi\n    /* \"#utility.yul\":5518:5527   */\n  dup3\n    /* \"#utility.yul\":5513:5516   */\n  dup8\n    /* \"#utility.yul\":5509:5528   */\n  add\n    /* \"#utility.yul\":5503:5529   */\n  mload\n    /* \"#utility.yul\":5494:5529   */\n  swap1\n  pop\n    /* \"#utility.yul\":5466:5543   */\ntag_95:\n    /* \"#utility.yul\":5569:5636   */\n  tag_96\n    /* \"#utility.yul\":5629:5635   */\n  dup6\n    /* \"#utility.yul\":5622:5627   */\n  dup3\n    /* \"#utility.yul\":5569:5636   */\n  tag_35\n  jump\t// in\ntag_96:\n    /* \"#utility.yul\":5563:5567   */\n  dup7\n    /* \"#utility.yul\":5556:5637   */\n  sstore\n    /* \"#utility.yul\":5425:5647   */\n  pop\n    /* \"#utility.yul\":4760:5647   */\n  jump(tag_93)\n    /* \"#utility.yul\":4790:5408   */\ntag_94:\n    /* \"#utility.yul\":4842:4846   */\n  0x1f\n    /* \"#utility.yul\":4838:4847   */\n  not\n    /* \"#utility.yul\":4830:4836   */\n  dup5\n    /* \"#utility.yul\":4826:4848   */\n  and\n    /* \"#utility.yul\":4876:4913   */\n  tag_97\n    /* \"#utility.yul\":4908:4912   */\n  dup7\n    /* \"#utility.yul\":4876:4913   */\n  tag_21\n  jump\t// in\ntag_97:\n    /* \"#utility.yul\":4935:4936   */\n  0x00\n    /* \"#utility.yul\":4949:5157   */\ntag_98:\n    /* \"#utility.yul\":4963:4970   */\n  dup3\n    /* \"#utility.yul\":4960:4961   */\n  dup2\n    /* \"#utility.yul\":4957:4971   */\n  lt\n    /* \"#utility.yul\":4949:5157   */\n  iszero\n  tag_100\n  jumpi\n    /* \"#utility.yul\":5042:5051   */\n  dup5\n    /* \"#utility.yul\":5037:5040   */\n  dup10\n    /* \"#utility.yul\":5033:5052   */\n  add\n    /* \"#utility.yul\":5027:5053   */\n  mload\n    /* \"#utility.yul\":5019:5025   */\n  dup3\n    /* \"#utility.yul\":5012:5054   */\n  sstore\n    /* \"#utility.yul\":5093:5094   */\n  0x01\n    /* \"#utility.yul\":5085:5091   */\n  dup3\n    /* \"#utility.yul\":5081:5095   */\n  add\n    /* \"#utility.yul\":5071:5095   */\n  swap2\n  pop\n    /* \"#utility.yul\":5140:5142   */\n  0x20\n    /* \"#utility.yul\":5129:5138   */\n  dup6\n    /* \"#utility.yul\":5125:5143   */\n  add\n    /* \"#utility.yul\":5112:5143   */\n  swap5\n  pop\n    /* \"#utility.yul\":4986:4990   */\n  0x20\n    /* \"#utility.yul\":4983:4984   */\n  dup2\n    /* \"#utility.yul\":4979:4991   */\n  add\n    /* \"#utility.yul\":4974:4991   */\n  swap1\n  pop\n    /* \"#utility.yul\":4949:5157   */\n  jump(tag_98)\ntag_100:\n    /* \"#utility.yul\":5185:5191   */\n  dup7\n    /* \"#utility.yul\":5176:5183   */\n  dup4\n    /* \"#utility.yul\":5173:5192   */\n  lt\n    /* \"#utility.yul\":5170:5349   */\n  iszero\n  tag_101\n  jumpi\n    /* \"#utility.yul\":5243:5252   */\n  dup5\n    /* \"#utility.yul\":5238:5241   */\n  dup10\n    /* \"#utility.yul\":5234:5253   */\n  add\n    /* \"#utility.yul\":5228:5254   */\n  mload\n    /* \"#utility.yul\":5286:5334   */\n  tag_102\n    /* \"#utility.yul\":5328:5332   */\n  0x1f\n    /* \"#utility.yul\":5320:5326   */\n  dup10\n    /* \"#utility.yul\":5316:5333   */\n  and\n    /* \"#utility.yul\":5305:5314   */\n  dup3\n    /* \"#utility.yul\":5286:5334   */\n  tag_34\n  jump\t// in\ntag_102:\n    /* \"#utility.yul\":5278:5284   */\n  dup4\n    /* \"#utility.yul\":5271:5335   */\n  sstore\n    /* \"#utility.yul\":5193:5349   */\n  pop\n    /* \"#utility.yul\":5170:5349   */\ntag_101:\n    /* \"#utility.yul\":5395:5396   */\n  0x01\n    /* \"#utility.yul\":5391:5392   */\n  0x02\n    /* \"#utility.yul\":5383:5389   */\n  dup9\n    /* \"#utility.yul\":5379:5393   */\n  mul\n    /* \"#utility.yul\":5375:5397   */\n  add\n    /* \"#utility.yul\":5369:5373   */\n  dup9\n    /* \"#utility.yul\":5362:5398   */\n  sstore\n    /* \"#utility.yul\":4797:5408   */\n  pop\n  pop\n  pop\n    /* \"#utility.yul\":4760:5647   */\ntag_93:\n  pop\n    /* \"#utility.yul\":4350:5653   */\n  pop\n  pop\n  pop\n    /* \"#utility.yul\":4258:5653   */\n  pop\n  pop\n  jump\t// out\n    /* \"D_Voting_app.sol\":60:3895  contract Voting {... */\ntag_9:\n  dataSize(sub_0)\n  dup1\n  dataOffset(sub_0)\n  0x00\n  codecopy\n  0x00\n  return\nstop\n\nsub_0: assembly {\n        /* \"D_Voting_app.sol\":60:3895  contract Voting {... */\n      mstore(0x40, 0x80)\n      callvalue\n      dup1\n      iszero\n      tag_1\n      jumpi\n      0x00\n      dup1\n      revert\n    tag_1:\n      pop\n      jumpi(tag_2, lt(calldatasize, 0x04))\n      shr(0xe0, calldataload(0x00))\n      dup1\n      0x8574c296\n      gt\n      tag_12\n      jumpi\n      dup1\n      0x8574c296\n      eq\n      tag_7\n      jumpi\n      dup1\n      0x86526299\n      eq\n      tag_8\n      jumpi\n      dup1\n      0x8da5cb5b\n      eq\n      tag_9\n      jumpi\n      dup1\n      0xc6a02cc9\n      eq\n      tag_10\n      jumpi\n      dup1\n      0xfdbc0b29\n      eq\n      tag_11\n      jumpi\n      jump(tag_2)\n    tag_12:\n      dup1\n      0x0121b93f\n      eq\n      tag_3\n      jumpi\n      dup1\n      0x2d35a8a2\n      eq\n      tag_4\n      jumpi\n      dup1\n      0x35b8e820\n      eq\n      tag_5\n      jumpi\n      dup1\n      0x793cf218\n      eq\n      tag_6\n      jumpi\n    tag_2:\n      0x00\n      dup1\n      revert\n        /* \"D_Voting_app.sol\":1222:1598  function vote(uint _candidateId) public resultNotDeclared {... */\n    tag_3:\n      tag_13\n      0x04\n      dup1\n      calldatasize\n      sub\n      dup2\n      add\n      swap1\n      tag_14\n      swap2\n      swap1\n      tag_15\n      jump\t// in\n    tag_14:\n      tag_16\n      jump\t// in\n    tag_13:\n      stop\n        /* \"D_Voting_app.sol\":314:341  uint public candidatesCount */\n    tag_4:\n      tag_17\n      tag_18\n      jump\t// in\n    tag_17:\n      mload(0x40)\n      tag_19\n      swap2\n      swap1\n      tag_20\n      jump\t// in\n    tag_19:\n      mload(0x40)\n      dup1\n      swap2\n      sub\n      swap1\n      return\n        /* \"D_Voting_app.sol\":3245:3581  function getCandidate(uint _candidateId)... */\n    tag_5:\n      tag_21\n      0x04\n      dup1\n      calldatasize\n      sub\n      dup2\n      add\n      swap1\n      tag_22\n      swap2\n      swap1\n      tag_15\n      jump\t// in\n    tag_22:\n      tag_23\n      jump\t// in\n    tag_21:\n      mload(0x40)\n      tag_24\n      swap4\n      swap3\n      swap2\n      swap1\n      tag_25\n      jump\t// in\n    tag_24:\n      mload(0x40)\n      dup1\n      swap2\n      sub\n      swap1\n      return\n        /* \"D_Voting_app.sol\":3137:3237  function getTotalVoters() public view onlyOwner returns (uint) {... */\n    tag_6:\n      tag_26\n      tag_27\n      jump\t// in\n    tag_26:\n      mload(0x40)\n      tag_28\n      swap2\n      swap1\n      tag_20\n      jump\t// in\n    tag_28:\n      mload(0x40)\n      dup1\n      swap2\n      sub\n      swap1\n      return\n        /* \"D_Voting_app.sol\":1606:2503  function declareResult() public onlyOwner resultNotDeclared {... */\n    tag_7:\n      tag_29\n      tag_30\n      jump\t// in\n    tag_29:\n      stop\n        /* \"D_Voting_app.sol\":3589:3892  function getCandidateBasic(uint _candidateId)... */\n    tag_8:\n      tag_31\n      0x04\n      dup1\n      calldatasize\n      sub\n      dup2\n      add\n      swap1\n      tag_32\n      swap2\n      swap1\n      tag_15\n      jump\t// in\n    tag_32:\n      tag_33\n      jump\t// in\n    tag_31:\n      mload(0x40)\n      tag_34\n      swap3\n      swap2\n      swap1\n      tag_35\n      jump\t// in\n    tag_34:\n      mload(0x40)\n      dup1\n      swap2\n      sub\n      swap1\n      return\n        /* \"D_Voting_app.sol\":183:203  address public owner */\n    tag_9:\n      tag_36\n      tag_37\n      jump\t// in\n    tag_36:\n      mload(0x40)\n      tag_38\n      swap2\n      swap1\n      tag_39\n      jump\t// in\n    tag_38:\n      mload(0x40)\n      dup1\n      swap2\n      sub\n      swap1\n      return\n        /* \"D_Voting_app.sol\":381:407  bool public resultDeclared */\n    tag_10:\n      tag_40\n      tag_41\n      jump\t// in\n    tag_40:\n      mload(0x40)\n      tag_42\n      swap2\n      swap1\n      tag_43\n      jump\t// in\n    tag_42:\n      mload(0x40)\n      dup1\n      swap2\n      sub\n      swap1\n      return\n        /* \"D_Voting_app.sol\":2511:3129  function getTopWinners()... */\n    tag_11:\n      tag_44\n      tag_45\n      jump\t// in\n    tag_44:\n      mload(0x40)\n      tag_46\n      swap10\n      swap9\n      swap8\n      swap7\n      swap6\n      swap5\n      swap4\n      swap3\n      swap2\n      swap1\n      tag_47\n      jump\t// in\n    tag_46:\n      mload(0x40)\n      dup1\n      swap2\n      sub\n      swap1\n      return\n        /* \"D_Voting_app.sol\":1222:1598  function vote(uint _candidateId) public resultNotDeclared {... */\n    tag_16:\n        /* \"D_Voting_app.sol\":747:761  resultDeclared */\n      0x05\n      0x00\n      swap1\n      sload\n      swap1\n      0x0100\n      exp\n      swap1\n      div\n      0xff\n      and\n        /* \"D_Voting_app.sol\":746:761  !resultDeclared */\n      iszero\n        /* \"D_Voting_app.sol\":738:789  require(!resultDeclared, \"Result already declared\") */\n      tag_49\n      jumpi\n      mload(0x40)\n      0x08c379a000000000000000000000000000000000000000000000000000000000\n      dup2\n      mstore\n      0x04\n      add\n      tag_50\n      swap1\n      tag_51\n      jump\t// in\n    tag_50:\n      mload(0x40)\n      dup1\n      swap2\n      sub\n      swap1\n      revert\n    tag_49:\n        /* \"D_Voting_app.sol\":1300:1308  hasVoted */\n      0x02\n        /* \"D_Voting_app.sol\":1300:1320  hasVoted[msg.sender] */\n      0x00\n        /* \"D_Voting_app.sol\":1309:1319  msg.sender */\n      caller\n        /* \"D_Voting_app.sol\":1300:1320  hasVoted[msg.sender] */\n      0xffffffffffffffffffffffffffffffffffffffff\n      and\n      0xffffffffffffffffffffffffffffffffffffffff\n      and\n      dup2\n      mstore\n      0x20\n      add\n      swap1\n      dup2\n      mstore\n      0x20\n      add\n      0x00\n      keccak256\n      0x00\n      swap1\n      sload\n      swap1\n      0x0100\n      exp\n      swap1\n      div\n      0xff\n      and\n        /* \"D_Voting_app.sol\":1299:1320  !hasVoted[msg.sender] */\n      iszero\n        /* \"D_Voting_app.sol\":1291:1347  require(!hasVoted[msg.sender], \"You have already voted\") */\n      tag_53\n      jumpi\n      mload(0x40)\n      0x08c379a000000000000000000000000000000000000000000000000000000000\n      dup2\n      mstore\n      0x04\n      add\n      tag_54\n      swap1\n      tag_55\n      jump\t// in\n    tag_54:\n      mload(0x40)\n      dup1\n      swap2\n      sub\n      swap1\n      revert\n    tag_53:\n        /* \"D_Voting_app.sol\":1381:1382  0 */\n      0x00\n        /* \"D_Voting_app.sol\":1366:1378  _candidateId */\n      dup2\n        /* \"D_Voting_app.sol\":1366:1382  _candidateId > 0 */\n      gt\n        /* \"D_Voting_app.sol\":1366:1417  _candidateId > 0 && _candidateId <= candidatesCount */\n      dup1\n      iszero\n      tag_56\n      jumpi\n      pop\n        /* \"D_Voting_app.sol\":1402:1417  candidatesCount */\n      sload(0x03)\n        /* \"D_Voting_app.sol\":1386:1398  _candidateId */\n      dup2\n        /* \"D_Voting_app.sol\":1386:1417  _candidateId <= candidatesCount */\n      gt\n      iszero\n        /* \"D_Voting_app.sol\":1366:1417  _candidateId > 0 && _candidateId <= candidatesCount */\n    tag_56:\n        /* \"D_Voting_app.sol\":1358:1442  require(_candidateId > 0 && _candidateId <= candidatesCount, \"Invalid candidate ID\") */\n      tag_57\n      jumpi\n      mload(0x40)\n      0x08c379a000000000000000000000000000000000000000000000000000000000\n      dup2\n      mstore\n      0x04\n      add\n      tag_58\n      swap1\n      tag_59\n      jump\t// in\n    tag_58:\n      mload(0x40)\n      dup1\n      swap2\n      sub\n      swap1\n      revert\n    tag_57:\n        /* \"D_Voting_app.sol\":1478:1482  true */\n      0x01\n        /* \"D_Voting_app.sol\":1455:1463  hasVoted */\n      0x02\n        /* \"D_Voting_app.sol\":1455:1475  hasVoted[msg.sender] */\n      0x00\n        /* \"D_Voting_app.sol\":1464:1474  msg.sender */\n      caller\n        /* \"D_Voting_app.sol\":1455:1475  hasVoted[msg.sender] */\n      0xffffffffffffffffffffffffffffffffffffffff\n      and\n      0xffffffffffffffffffffffffffffffffffffffff\n      and\n      dup2\n      mstore\n      0x20\n      add\n      swap1\n      dup2\n      mstore\n      0x20\n      add\n      0x00\n      keccak256\n      0x00\n        /* \"D_Voting_app.sol\":1455:1482  hasVoted[msg.sender] = true */\n      0x0100\n      exp\n      dup2\n      sload\n      dup2\n      0xff\n      mul\n      not\n      and\n      swap1\n      dup4\n      iszero\n      iszero\n      mul\n      or\n      swap1\n      sstore\n      pop\n        /* \"D_Voting_app.sol\":1493:1503  candidates */\n      0x01\n        /* \"D_Voting_app.sol\":1493:1517  candidates[_candidateId] */\n      0x00\n        /* \"D_Voting_app.sol\":1504:1516  _candidateId */\n      dup3\n        /* \"D_Voting_app.sol\":1493:1517  candidates[_candidateId] */\n      dup2\n      mstore\n      0x20\n      add\n      swap1\n      dup2\n      mstore\n      0x20\n      add\n      0x00\n      keccak256\n        /* \"D_Voting_app.sol\":1493:1527  candidates[_candidateId].voteCount */\n      0x02\n      add\n      0x00\n        /* \"D_Voting_app.sol\":1493:1529  candidates[_candidateId].voteCount++ */\n      dup2\n      sload\n      dup1\n      swap3\n      swap2\n      swap1\n      tag_60\n      swap1\n      tag_61\n      jump\t// in\n    tag_60:\n      swap2\n      swap1\n      pop\n      sstore\n      pop\n        /* \"D_Voting_app.sol\":1540:1551  totalVoters */\n      0x04\n      0x00\n        /* \"D_Voting_app.sol\":1540:1553  totalVoters++ */\n      dup2\n      sload\n      dup1\n      swap3\n      swap2\n      swap1\n      tag_62\n      swap1\n      tag_61\n      jump\t// in\n    tag_62:\n      swap2\n      swap1\n      pop\n      sstore\n      pop\n        /* \"D_Voting_app.sol\":1577:1589  _candidateId */\n      dup1\n        /* \"D_Voting_app.sol\":1571:1590  Voted(_candidateId) */\n      0x7f511e347bf51eed3be100b3194247d5207f05f3b33de7d31e3e8ee73199a049\n      mload(0x40)\n      mload(0x40)\n      dup1\n      swap2\n      sub\n      swap1\n      log2\n        /* \"D_Voting_app.sol\":1222:1598  function vote(uint _candidateId) public resultNotDeclared {... */\n      pop\n      jump\t// out\n        /* \"D_Voting_app.sol\":314:341  uint public candidatesCount */\n    tag_18:\n      sload(0x03)\n      dup2\n      jump\t// out\n        /* \"D_Voting_app.sol\":3245:3581  function getCandidate(uint _candidateId)... */\n    tag_23:\n        /* \"D_Voting_app.sol\":3353:3357  uint */\n      0x00\n        /* \"D_Voting_app.sol\":3359:3372  string memory */\n      0x60\n        /* \"D_Voting_app.sol\":3374:3378  uint */\n      0x00\n        /* \"D_Voting_app.sol\":626:631  owner */\n      dup1\n      0x00\n      swap1\n      sload\n      swap1\n      0x0100\n      exp\n      swap1\n      div\n      0xffffffffffffffffffffffffffffffffffffffff\n      and\n        /* \"D_Voting_app.sol\":612:631  msg.sender == owner */\n      0xffffffffffffffffffffffffffffffffffffffff\n      and\n        /* \"D_Voting_app.sol\":612:622  msg.sender */\n      caller\n        /* \"D_Voting_app.sol\":612:631  msg.sender == owner */\n      0xffffffffffffffffffffffffffffffffffffffff\n      and\n      eq\n        /* \"D_Voting_app.sol\":604:670  require(msg.sender == owner, \"Only owner can perform this action\") */\n      tag_64\n      jumpi\n      mload(0x40)\n      0x08c379a000000000000000000000000000000000000000000000000000000000\n      dup2\n      mstore\n      0x04\n      add\n      tag_65\n      swap1\n      tag_66\n      jump\t// in\n    tag_65:\n      mload(0x40)\n      dup1\n      swap2\n      sub\n      swap1\n      revert\n    tag_64:\n        /* \"D_Voting_app.sol\":3419:3420  0 */\n      0x00\n        /* \"D_Voting_app.sol\":3404:3416  _candidateId */\n      dup5\n        /* \"D_Voting_app.sol\":3404:3420  _candidateId > 0 */\n      gt\n        /* \"D_Voting_app.sol\":3404:3455  _candidateId > 0 && _candidateId <= candidatesCount */\n      dup1\n      iszero\n      tag_68\n      jumpi\n      pop\n        /* \"D_Voting_app.sol\":3440:3455  candidatesCount */\n      sload(0x03)\n        /* \"D_Voting_app.sol\":3424:3436  _candidateId */\n      dup5\n        /* \"D_Voting_app.sol\":3424:3455  _candidateId <= candidatesCount */\n      gt\n      iszero\n        /* \"D_Voting_app.sol\":3404:3455  _candidateId > 0 && _candidateId <= candidatesCount */\n    tag_68:\n        /* \"D_Voting_app.sol\":3396:3470  require(_candidateId > 0 && _candidateId <= candidatesCount, \"Invalid ID\") */\n      tag_69\n      jumpi\n      mload(0x40)\n      0x08c379a000000000000000000000000000000000000000000000000000000000\n      dup2\n      mstore\n      0x04\n      add\n      tag_70\n      swap1\n      tag_71\n      jump\t// in\n    tag_70:\n      mload(0x40)\n      dup1\n      swap2\n      sub\n      swap1\n      revert\n    tag_69:\n        /* \"D_Voting_app.sol\":3483:3501  Candidate memory c */\n      0x00\n        /* \"D_Voting_app.sol\":3504:3514  candidates */\n      0x01\n        /* \"D_Voting_app.sol\":3504:3528  candidates[_candidateId] */\n      0x00\n        /* \"D_Voting_app.sol\":3515:3527  _candidateId */\n      dup7\n        /* \"D_Voting_app.sol\":3504:3528  candidates[_candidateId] */\n      dup2\n      mstore\n      0x20\n      add\n      swap1\n      dup2\n      mstore\n      0x20\n      add\n      0x00\n      keccak256\n        /* \"D_Voting_app.sol\":3483:3528  Candidate memory c = candidates[_candidateId] */\n      mload(0x40)\n      dup1\n      0x60\n      add\n      0x40\n      mstore\n      swap1\n      dup2\n      0x00\n      dup3\n      add\n      sload\n      dup2\n      mstore\n      0x20\n      add\n      0x01\n      dup3\n      add\n      dup1\n      sload\n      tag_72\n      swap1\n      tag_73\n      jump\t// in\n    tag_72:\n      dup1\n      0x1f\n      add\n      0x20\n      dup1\n      swap2\n      div\n      mul\n      0x20\n      add\n      mload(0x40)\n      swap1\n      dup2\n      add\n      0x40\n      mstore\n      dup1\n      swap3\n      swap2\n      swap1\n      dup2\n      dup2\n      mstore\n      0x20\n      add\n      dup3\n      dup1\n      sload\n      tag_74\n      swap1\n      tag_73\n      jump\t// in\n    tag_74:\n      dup1\n      iszero\n      tag_75\n      jumpi\n      dup1\n      0x1f\n      lt\n      tag_76\n      jumpi\n      0x0100\n      dup1\n      dup4\n      sload\n      div\n      mul\n      dup4\n      mstore\n      swap2\n      0x20\n      add\n      swap2\n      jump(tag_75)\n    tag_76:\n      dup3\n      add\n      swap2\n      swap1\n      0x00\n      mstore\n      keccak256(0x00, 0x20)\n      swap1\n    tag_77:\n      dup2\n      sload\n      dup2\n      mstore\n      swap1\n      0x01\n      add\n      swap1\n      0x20\n      add\n      dup1\n      dup4\n      gt\n      tag_77\n      jumpi\n      dup3\n      swap1\n      sub\n      0x1f\n      and\n      dup3\n      add\n      swap2\n    tag_75:\n      pop\n      pop\n      pop\n      pop\n      pop\n      dup2\n      mstore\n      0x20\n      add\n      0x02\n      dup3\n      add\n      sload\n      dup2\n      mstore\n      pop\n      pop\n      swap1\n      pop\n        /* \"D_Voting_app.sol\":3547:3548  c */\n      dup1\n        /* \"D_Voting_app.sol\":3547:3551  c.id */\n      0x00\n      add\n      mload\n        /* \"D_Voting_app.sol\":3553:3554  c */\n      dup2\n        /* \"D_Voting_app.sol\":3553:3559  c.name */\n      0x20\n      add\n      mload\n        /* \"D_Voting_app.sol\":3561:3562  c */\n      dup3\n        /* \"D_Voting_app.sol\":3561:3572  c.voteCount */\n      0x40\n      add\n      mload\n        /* \"D_Voting_app.sol\":3539:3573  return (c.id, c.name, c.voteCount) */\n      swap4\n      pop\n      swap4\n      pop\n      swap4\n      pop\n      pop\n        /* \"D_Voting_app.sol\":3245:3581  function getCandidate(uint _candidateId)... */\n      swap2\n      swap4\n      swap1\n      swap3\n      pop\n      jump\t// out\n        /* \"D_Voting_app.sol\":3137:3237  function getTotalVoters() public view onlyOwner returns (uint) {... */\n    tag_27:\n        /* \"D_Voting_app.sol\":3194:3198  uint */\n      0x00\n        /* \"D_Voting_app.sol\":626:631  owner */\n      dup1\n      0x00\n      swap1\n      sload\n      swap1\n      0x0100\n      exp\n      swap1\n      div\n      0xffffffffffffffffffffffffffffffffffffffff\n      and\n        /* \"D_Voting_app.sol\":612:631  msg.sender == owner */\n      0xffffffffffffffffffffffffffffffffffffffff\n      and\n        /* \"D_Voting_app.sol\":612:622  msg.sender */\n      caller\n        /* \"D_Voting_app.sol\":612:631  msg.sender == owner */\n      0xffffffffffffffffffffffffffffffffffffffff\n      and\n      eq\n        /* \"D_Voting_app.sol\":604:670  require(msg.sender == owner, \"Only owner can perform this action\") */\n      tag_79\n      jumpi\n      mload(0x40)\n      0x08c379a000000000000000000000000000000000000000000000000000000000\n      dup2\n      mstore\n      0x04\n      add\n      tag_80\n      swap1\n      tag_66\n      jump\t// in\n    tag_80:\n      mload(0x40)\n      dup1\n      swap2\n      sub\n      swap1\n      revert\n    tag_79:\n        /* \"D_Voting_app.sol\":3218:3229  totalVoters */\n      sload(0x04)\n        /* \"D_Voting_app.sol\":3211:3229  return totalVoters */\n      swap1\n      pop\n        /* \"D_Voting_app.sol\":3137:3237  function getTotalVoters() public view onlyOwner returns (uint) {... */\n      swap1\n      jump\t// out\n        /* \"D_Voting_app.sol\":1606:2503  function declareResult() public onlyOwner resultNotDeclared {... */\n    tag_30:\n        /* \"D_Voting_app.sol\":626:631  owner */\n      0x00\n      dup1\n      sload\n      swap1\n      0x0100\n      exp\n      swap1\n      div\n      0xffffffffffffffffffffffffffffffffffffffff\n      and\n        /* \"D_Voting_app.sol\":612:631  msg.sender == owner */\n      0xffffffffffffffffffffffffffffffffffffffff\n      and\n        /* \"D_Voting_app.sol\":612:622  msg.sender */\n      caller\n        /* \"D_Voting_app.sol\":612:631  msg.sender == owner */\n      0xffffffffffffffffffffffffffffffffffffffff\n      and\n      eq\n        /* \"D_Voting_app.sol\":604:670  require(msg.sender == owner, \"Only owner can perform this action\") */\n      tag_83\n      jumpi\n      mload(0x40)\n      0x08c379a000000000000000000000000000000000000000000000000000000000\n      dup2\n      mstore\n      0x04\n      add\n      tag_84\n      swap1\n      tag_66\n      jump\t// in\n    tag_84:\n      mload(0x40)\n      dup1\n      swap2\n      sub\n      swap1\n      revert\n    tag_83:\n        /* \"D_Voting_app.sol\":747:761  resultDeclared */\n      0x05\n      0x00\n      swap1\n      sload\n      swap1\n      0x0100\n      exp\n      swap1\n      div\n      0xff\n      and\n        /* \"D_Voting_app.sol\":746:761  !resultDeclared */\n      iszero\n        /* \"D_Voting_app.sol\":738:789  require(!resultDeclared, \"Result already declared\") */\n      tag_86\n      jumpi\n      mload(0x40)\n      0x08c379a000000000000000000000000000000000000000000000000000000000\n      dup2\n      mstore\n      0x04\n      add\n      tag_87\n      swap1\n      tag_51\n      jump\t// in\n    tag_87:\n      mload(0x40)\n      dup1\n      swap2\n      sub\n      swap1\n      revert\n    tag_86:\n        /* \"D_Voting_app.sol\":1679:1701  Candidate memory first */\n      tag_89\n      tag_90\n      jump\t// in\n    tag_89:\n        /* \"D_Voting_app.sol\":1712:1735  Candidate memory second */\n      tag_91\n      tag_90\n      jump\t// in\n    tag_91:\n        /* \"D_Voting_app.sol\":1746:1768  Candidate memory third */\n      tag_92\n      tag_90\n      jump\t// in\n    tag_92:\n        /* \"D_Voting_app.sol\":1786:1792  uint i */\n      0x00\n        /* \"D_Voting_app.sol\":1795:1796  1 */\n      0x01\n        /* \"D_Voting_app.sol\":1786:1796  uint i = 1 */\n      swap1\n      pop\n        /* \"D_Voting_app.sol\":1781:2294  for (uint i = 1; i <= candidatesCount; i++) {... */\n    tag_93:\n        /* \"D_Voting_app.sol\":1803:1818  candidatesCount */\n      sload(0x03)\n        /* \"D_Voting_app.sol\":1798:1799  i */\n      dup2\n        /* \"D_Voting_app.sol\":1798:1818  i <= candidatesCount */\n      gt\n        /* \"D_Voting_app.sol\":1781:2294  for (uint i = 1; i <= candidatesCount; i++) {... */\n      tag_94\n      jumpi\n        /* \"D_Voting_app.sol\":1840:1864  Candidate memory current */\n      0x00\n        /* \"D_Voting_app.sol\":1867:1877  candidates */\n      0x01\n        /* \"D_Voting_app.sol\":1867:1880  candidates[i] */\n      0x00\n        /* \"D_Voting_app.sol\":1878:1879  i */\n      dup4\n        /* \"D_Voting_app.sol\":1867:1880  candidates[i] */\n      dup2\n      mstore\n      0x20\n      add\n      swap1\n      dup2\n      mstore\n      0x20\n      add\n      0x00\n      keccak256\n        /* \"D_Voting_app.sol\":1840:1880  Candidate memory current = candidates[i] */\n      mload(0x40)\n      dup1\n      0x60\n      add\n      0x40\n      mstore\n      swap1\n      dup2\n      0x00\n      dup3\n      add\n      sload\n      dup2\n      mstore\n      0x20\n      add\n      0x01\n      dup3\n      add\n      dup1\n      sload\n      tag_96\n      swap1\n      tag_73\n      jump\t// in\n    tag_96:\n      dup1\n      0x1f\n      add\n      0x20\n      dup1\n      swap2\n      div\n      mul\n      0x20\n      add\n      mload(0x40)\n      swap1\n      dup2\n      add\n      0x40\n      mstore\n      dup1\n      swap3\n      swap2\n      swap1\n      dup2\n      dup2\n      mstore\n      0x20\n      add\n      dup3\n      dup1\n      sload\n      tag_97\n      swap1\n      tag_73\n      jump\t// in\n    tag_97:\n      dup1\n      iszero\n      tag_98\n      jumpi\n      dup1\n      0x1f\n      lt\n      tag_99\n      jumpi\n      0x0100\n      dup1\n      dup4\n      sload\n      div\n      mul\n      dup4\n      mstore\n      swap2\n      0x20\n      add\n      swap2\n      jump(tag_98)\n    tag_99:\n      dup3\n      add\n      swap2\n      swap1\n      0x00\n      mstore\n      keccak256(0x00, 0x20)\n      swap1\n    tag_100:\n      dup2\n      sload\n      dup2\n      mstore\n      swap1\n      0x01\n      add\n      swap1\n      0x20\n      add\n      dup1\n      dup4\n      gt\n      tag_100\n      jumpi\n      dup3\n      swap1\n      sub\n      0x1f\n      and\n      dup3\n      add\n      swap2\n    tag_98:\n      pop\n      pop\n      pop\n      pop\n      pop\n      dup2\n      mstore\n      0x20\n      add\n      0x02\n      dup3\n      add\n      sload\n      dup2\n      mstore\n      pop\n      pop\n      swap1\n      pop\n        /* \"D_Voting_app.sol\":1921:1926  first */\n      dup5\n        /* \"D_Voting_app.sol\":1921:1936  first.voteCount */\n      0x40\n      add\n      mload\n        /* \"D_Voting_app.sol\":1901:1908  current */\n      dup2\n        /* \"D_Voting_app.sol\":1901:1918  current.voteCount */\n      0x40\n      add\n      mload\n        /* \"D_Voting_app.sol\":1901:1936  current.voteCount > first.voteCount */\n      gt\n        /* \"D_Voting_app.sol\":1897:2283  if (current.voteCount > first.voteCount) {... */\n      iszero\n      tag_101\n      jumpi\n        /* \"D_Voting_app.sol\":1965:1971  second */\n      dup4\n        /* \"D_Voting_app.sol\":1957:1971  third = second */\n      swap3\n      pop\n        /* \"D_Voting_app.sol\":1999:2004  first */\n      dup5\n        /* \"D_Voting_app.sol\":1990:2004  second = first */\n      swap4\n      pop\n        /* \"D_Voting_app.sol\":2031:2038  current */\n      dup1\n        /* \"D_Voting_app.sol\":2023:2038  first = current */\n      swap5\n      pop\n        /* \"D_Voting_app.sol\":1897:2283  if (current.voteCount > first.voteCount) {... */\n      jump(tag_102)\n    tag_101:\n        /* \"D_Voting_app.sol\":2084:2090  second */\n      dup4\n        /* \"D_Voting_app.sol\":2084:2100  second.voteCount */\n      0x40\n      add\n      mload\n        /* \"D_Voting_app.sol\":2064:2071  current */\n      dup2\n        /* \"D_Voting_app.sol\":2064:2081  current.voteCount */\n      0x40\n      add\n      mload\n        /* \"D_Voting_app.sol\":2064:2100  current.voteCount > second.voteCount */\n      gt\n        /* \"D_Voting_app.sol\":2060:2283  if (current.voteCount > second.voteCount) {... */\n      iszero\n      tag_103\n      jumpi\n        /* \"D_Voting_app.sol\":2129:2135  second */\n      dup4\n        /* \"D_Voting_app.sol\":2121:2135  third = second */\n      swap3\n      pop\n        /* \"D_Voting_app.sol\":2163:2170  current */\n      dup1\n        /* \"D_Voting_app.sol\":2154:2170  second = current */\n      swap4\n      pop\n        /* \"D_Voting_app.sol\":2060:2283  if (current.voteCount > second.voteCount) {... */\n      jump(tag_104)\n    tag_103:\n        /* \"D_Voting_app.sol\":2216:2221  third */\n      dup3\n        /* \"D_Voting_app.sol\":2216:2231  third.voteCount */\n      0x40\n      add\n      mload\n        /* \"D_Voting_app.sol\":2196:2203  current */\n      dup2\n        /* \"D_Voting_app.sol\":2196:2213  current.voteCount */\n      0x40\n      add\n      mload\n        /* \"D_Voting_app.sol\":2196:2231  current.voteCount > third.voteCount */\n      gt\n        /* \"D_Voting_app.sol\":2192:2283  if (current.voteCount > third.voteCount) {... */\n      iszero\n      tag_105\n      jumpi\n        /* \"D_Voting_app.sol\":2260:2267  current */\n      dup1\n        /* \"D_Voting_app.sol\":2252:2267  third = current */\n      swap3\n      pop\n        /* \"D_Voting_app.sol\":2192:2283  if (current.voteCount > third.voteCount) {... */\n    tag_105:\n        /* \"D_Voting_app.sol\":2060:2283  if (current.voteCount > second.voteCount) {... */\n    tag_104:\n        /* \"D_Voting_app.sol\":1897:2283  if (current.voteCount > first.voteCount) {... */\n    tag_102:\n        /* \"D_Voting_app.sol\":1825:2294  {... */\n      pop\n        /* \"D_Voting_app.sol\":1820:1823  i++ */\n      dup1\n      dup1\n      tag_106\n      swap1\n      tag_61\n      jump\t// in\n    tag_106:\n      swap2\n      pop\n      pop\n        /* \"D_Voting_app.sol\":1781:2294  for (uint i = 1; i <= candidatesCount; i++) {... */\n      jump(tag_93)\n    tag_94:\n      pop\n        /* \"D_Voting_app.sol\":2322:2327  first */\n      dup3\n        /* \"D_Voting_app.sol\":2306:2316  topWinners */\n      0x06\n        /* \"D_Voting_app.sol\":2317:2318  0 */\n      0x00\n        /* \"D_Voting_app.sol\":2306:2319  topWinners[0] */\n      0x03\n      dup2\n      lt\n      tag_107\n      jumpi\n      tag_108\n      tag_109\n      jump\t// in\n    tag_108:\n    tag_107:\n      0x03\n      mul\n      add\n        /* \"D_Voting_app.sol\":2306:2327  topWinners[0] = first */\n      0x00\n      dup3\n      add\n      mload\n      dup2\n      0x00\n      add\n      sstore\n      0x20\n      dup3\n      add\n      mload\n      dup2\n      0x01\n      add\n      swap1\n      dup2\n      tag_111\n      swap2\n      swap1\n      tag_112\n      jump\t// in\n    tag_111:\n      pop\n      0x40\n      dup3\n      add\n      mload\n      dup2\n      0x02\n      add\n      sstore\n      swap1\n      pop\n      pop\n        /* \"D_Voting_app.sol\":2354:2360  second */\n      dup2\n        /* \"D_Voting_app.sol\":2338:2348  topWinners */\n      0x06\n        /* \"D_Voting_app.sol\":2349:2350  1 */\n      0x01\n        /* \"D_Voting_app.sol\":2338:2351  topWinners[1] */\n      0x03\n      dup2\n      lt\n      tag_113\n      jumpi\n      tag_114\n      tag_109\n      jump\t// in\n    tag_114:\n    tag_113:\n      0x03\n      mul\n      add\n        /* \"D_Voting_app.sol\":2338:2360  topWinners[1] = second */\n      0x00\n      dup3\n      add\n      mload\n      dup2\n      0x00\n      add\n      sstore\n      0x20\n      dup3\n      add\n      mload\n      dup2\n      0x01\n      add\n      swap1\n      dup2\n      tag_116\n      swap2\n      swap1\n      tag_112\n      jump\t// in\n    tag_116:\n      pop\n      0x40\n      dup3\n      add\n      mload\n      dup2\n      0x02\n      add\n      sstore\n      swap1\n      pop\n      pop\n        /* \"D_Voting_app.sol\":2387:2392  third */\n      dup1\n        /* \"D_Voting_app.sol\":2371:2381  topWinners */\n      0x06\n        /* \"D_Voting_app.sol\":2382:2383  2 */\n      0x02\n        /* \"D_Voting_app.sol\":2371:2384  topWinners[2] */\n      0x03\n      dup2\n      lt\n      tag_117\n      jumpi\n      tag_118\n      tag_109\n      jump\t// in\n    tag_118:\n    tag_117:\n      0x03\n      mul\n      add\n        /* \"D_Voting_app.sol\":2371:2392  topWinners[2] = third */\n      0x00\n      dup3\n      add\n      mload\n      dup2\n      0x00\n      add\n      sstore\n      0x20\n      dup3\n      add\n      mload\n      dup2\n      0x01\n      add\n      swap1\n      dup2\n      tag_120\n      swap2\n      swap1\n      tag_112\n      jump\t// in\n    tag_120:\n      pop\n      0x40\n      dup3\n      add\n      mload\n      dup2\n      0x02\n      add\n      sstore\n      swap1\n      pop\n      pop\n        /* \"D_Voting_app.sol\":2422:2426  true */\n      0x01\n        /* \"D_Voting_app.sol\":2405:2419  resultDeclared */\n      0x05\n      0x00\n        /* \"D_Voting_app.sol\":2405:2426  resultDeclared = true */\n      0x0100\n      exp\n      dup2\n      sload\n      dup2\n      0xff\n      mul\n      not\n      and\n      swap1\n      dup4\n      iszero\n      iszero\n      mul\n      or\n      swap1\n      sstore\n      pop\n        /* \"D_Voting_app.sol\":2444:2495  ResultDeclared(first.name, second.name, third.name) */\n      0x1d56f04d58109dd7114a0821b58ac867fbae782e8937f942086716708170b336\n        /* \"D_Voting_app.sol\":2459:2464  first */\n      dup4\n        /* \"D_Voting_app.sol\":2459:2469  first.name */\n      0x20\n      add\n      mload\n        /* \"D_Voting_app.sol\":2471:2477  second */\n      dup4\n        /* \"D_Voting_app.sol\":2471:2482  second.name */\n      0x20\n      add\n      mload\n        /* \"D_Voting_app.sol\":2484:2489  third */\n      dup4\n        /* \"D_Voting_app.sol\":2484:2494  third.name */\n      0x20\n      add\n      mload\n        /* \"D_Voting_app.sol\":2444:2495  ResultDeclared(first.name, second.name, third.name) */\n      mload(0x40)\n      tag_121\n      swap4\n      swap3\n      swap2\n      swap1\n      tag_122\n      jump\t// in\n    tag_121:\n      mload(0x40)\n      dup1\n      swap2\n      sub\n      swap1\n      log1\n        /* \"D_Voting_app.sol\":1666:2503  {... */\n      pop\n      pop\n      pop\n        /* \"D_Voting_app.sol\":1606:2503  function declareResult() public onlyOwner resultNotDeclared {... */\n      jump\t// out\n        /* \"D_Voting_app.sol\":3589:3892  function getCandidateBasic(uint _candidateId)... */\n    tag_33:\n        /* \"D_Voting_app.sol\":3683:3687  uint */\n      0x00\n        /* \"D_Voting_app.sol\":3689:3702  string memory */\n      0x60\n        /* \"D_Voting_app.sol\":3743:3744  0 */\n      0x00\n        /* \"D_Voting_app.sol\":3728:3740  _candidateId */\n      dup4\n        /* \"D_Voting_app.sol\":3728:3744  _candidateId > 0 */\n      gt\n        /* \"D_Voting_app.sol\":3728:3779  _candidateId > 0 && _candidateId <= candidatesCount */\n      dup1\n      iszero\n      tag_124\n      jumpi\n      pop\n        /* \"D_Voting_app.sol\":3764:3779  candidatesCount */\n      sload(0x03)\n        /* \"D_Voting_app.sol\":3748:3760  _candidateId */\n      dup4\n        /* \"D_Voting_app.sol\":3748:3779  _candidateId <= candidatesCount */\n      gt\n      iszero\n        /* \"D_Voting_app.sol\":3728:3779  _candidateId > 0 && _candidateId <= candidatesCount */\n    tag_124:\n        /* \"D_Voting_app.sol\":3720:3794  require(_candidateId > 0 && _candidateId <= candidatesCount, \"Invalid ID\") */\n      tag_125\n      jumpi\n      mload(0x40)\n      0x08c379a000000000000000000000000000000000000000000000000000000000\n      dup2\n      mstore\n      0x04\n      add\n      tag_126\n      swap1\n      tag_71\n      jump\t// in\n    tag_126:\n      mload(0x40)\n      dup1\n      swap2\n      sub\n      swap1\n      revert\n    tag_125:\n        /* \"D_Voting_app.sol\":3807:3825  Candidate memory c */\n      0x00\n        /* \"D_Voting_app.sol\":3828:3838  candidates */\n      0x01\n        /* \"D_Voting_app.sol\":3828:3852  candidates[_candidateId] */\n      0x00\n        /* \"D_Voting_app.sol\":3839:3851  _candidateId */\n      dup6\n        /* \"D_Voting_app.sol\":3828:3852  candidates[_candidateId] */\n      dup2\n      mstore\n      0x20\n      add\n      swap1\n      dup2\n      mstore\n      0x20\n      add\n      0x00\n      keccak256\n        /* \"D_Voting_app.sol\":3807:3852  Candidate memory c = candidates[_candidateId] */\n      mload(0x40)\n      dup1\n      0x60\n      add\n      0x40\n      mstore\n      swap1\n      dup2\n      0x00\n      dup3\n      add\n      sload\n      dup2\n      mstore\n      0x20\n      add\n      0x01\n      dup3\n      add\n      dup1\n      sload\n      tag_127\n      swap1\n      tag_73\n      jump\t// in\n    tag_127:\n      dup1\n      0x1f\n      add\n      0x20\n      dup1\n      swap2\n      div\n      mul\n      0x20\n      add\n      mload(0x40)\n      swap1\n      dup2\n      add\n      0x40\n      mstore\n      dup1\n      swap3\n      swap2\n      swap1\n      dup2\n      dup2\n      mstore\n      0x20\n      add\n      dup3\n      dup1\n      sload\n      tag_128\n      swap1\n      tag_73\n      jump\t// in\n    tag_128:\n      dup1\n      iszero\n      tag_129\n      jumpi\n      dup1\n      0x1f\n      lt\n      tag_130\n      jumpi\n      0x0100\n      dup1\n      dup4\n      sload\n      div\n      mul\n      dup4\n      mstore\n      swap2\n      0x20\n      add\n      swap2\n      jump(tag_129)\n    tag_130:\n      dup3\n      add\n      swap2\n      swap1\n      0x00\n      mstore\n      keccak256(0x00, 0x20)\n      swap1\n    tag_131:\n      dup2\n      sload\n      dup2\n      mstore\n      swap1\n      0x01\n      add\n      swap1\n      0x20\n      add\n      dup1\n      dup4\n      gt\n      tag_131\n      jumpi\n      dup3\n      swap1\n      sub\n      0x1f\n      and\n      dup3\n      add\n      swap2\n    tag_129:\n      pop\n      pop\n      pop\n      pop\n      pop\n      dup2\n      mstore\n      0x20\n      add\n      0x02\n      dup3\n      add\n      sload\n      dup2\n      mstore\n      pop\n      pop\n      swap1\n      pop\n        /* \"D_Voting_app.sol\":3871:3872  c */\n      dup1\n        /* \"D_Voting_app.sol\":3871:3875  c.id */\n      0x00\n      add\n      mload\n        /* \"D_Voting_app.sol\":3877:3878  c */\n      dup2\n        /* \"D_Voting_app.sol\":3877:3883  c.name */\n      0x20\n      add\n      mload\n        /* \"D_Voting_app.sol\":3863:3884  return (c.id, c.name) */\n      swap3\n      pop\n      swap3\n      pop\n      pop\n        /* \"D_Voting_app.sol\":3589:3892  function getCandidateBasic(uint _candidateId)... */\n      swap2\n      pop\n      swap2\n      jump\t// out\n        /* \"D_Voting_app.sol\":183:203  address public owner */\n    tag_37:\n      0x00\n      dup1\n      sload\n      swap1\n      0x0100\n      exp\n      swap1\n      div\n      0xffffffffffffffffffffffffffffffffffffffff\n      and\n      dup2\n      jump\t// out\n        /* \"D_Voting_app.sol\":381:407  bool public resultDeclared */\n    tag_41:\n      0x05\n      0x00\n      swap1\n      sload\n      swap1\n      0x0100\n      exp\n      swap1\n      div\n      0xff\n      and\n      dup2\n      jump\t// out\n        /* \"D_Voting_app.sol\":2511:3129  function getTopWinners()... */\n    tag_45:\n        /* \"D_Voting_app.sol\":2598:2602  uint */\n      0x00\n        /* \"D_Voting_app.sol\":2604:2617  string memory */\n      0x60\n        /* \"D_Voting_app.sol\":2619:2623  uint */\n      0x00\n        /* \"D_Voting_app.sol\":2638:2642  uint */\n      dup1\n        /* \"D_Voting_app.sol\":2644:2657  string memory */\n      0x60\n        /* \"D_Voting_app.sol\":2659:2663  uint */\n      0x00\n        /* \"D_Voting_app.sol\":2678:2682  uint */\n      dup1\n        /* \"D_Voting_app.sol\":2684:2697  string memory */\n      0x60\n        /* \"D_Voting_app.sol\":2699:2703  uint */\n      0x00\n        /* \"D_Voting_app.sol\":2739:2753  resultDeclared */\n      0x05\n      0x00\n      swap1\n      sload\n      swap1\n      0x0100\n      exp\n      swap1\n      div\n      0xff\n      and\n        /* \"D_Voting_app.sol\":2731:2781  require(resultDeclared, \"Result not declared yet\") */\n      tag_133\n      jumpi\n      mload(0x40)\n      0x08c379a000000000000000000000000000000000000000000000000000000000\n      dup2\n      mstore\n      0x04\n      add\n      tag_134\n      swap1\n      tag_135\n      jump\t// in\n    tag_134:\n      mload(0x40)\n      dup1\n      swap2\n      sub\n      swap1\n      revert\n    tag_133:\n        /* \"D_Voting_app.sol\":2794:2816  Candidate memory first */\n      0x00\n        /* \"D_Voting_app.sol\":2819:2829  topWinners */\n      0x06\n        /* \"D_Voting_app.sol\":2830:2831  0 */\n      0x00\n        /* \"D_Voting_app.sol\":2819:2832  topWinners[0] */\n      0x03\n      dup2\n      lt\n      tag_136\n      jumpi\n      tag_137\n      tag_109\n      jump\t// in\n    tag_137:\n    tag_136:\n      0x03\n      mul\n      add\n        /* \"D_Voting_app.sol\":2794:2832  Candidate memory first = topWinners[0] */\n      mload(0x40)\n      dup1\n      0x60\n      add\n      0x40\n      mstore\n      swap1\n      dup2\n      0x00\n      dup3\n      add\n      sload\n      dup2\n      mstore\n      0x20\n      add\n      0x01\n      dup3\n      add\n      dup1\n      sload\n      tag_139\n      swap1\n      tag_73\n      jump\t// in\n    tag_139:\n      dup1\n      0x1f\n      add\n      0x20\n      dup1\n      swap2\n      div\n      mul\n      0x20\n      add\n      mload(0x40)\n      swap1\n      dup2\n      add\n      0x40\n      mstore\n      dup1\n      swap3\n      swap2\n      swap1\n      dup2\n      dup2\n      mstore\n      0x20\n      add\n      dup3\n      dup1\n      sload\n      tag_140\n      swap1\n      tag_73\n      jump\t// in\n    tag_140:\n      dup1\n      iszero\n      tag_141\n      jumpi\n      dup1\n      0x1f\n      lt\n      tag_142\n      jumpi\n      0x0100\n      dup1\n      dup4\n      sload\n      div\n      mul\n      dup4\n      mstore\n      swap2\n      0x20\n      add\n      swap2\n      jump(tag_141)\n    tag_142:\n      dup3\n      add\n      swap2\n      swap1\n      0x00\n      mstore\n      keccak256(0x00, 0x20)\n      swap1\n    tag_143:\n      dup2\n      sload\n      dup2\n      mstore\n      swap1\n      0x01\n      add\n      swap1\n      0x20\n      add\n      dup1\n      dup4\n      gt\n      tag_143\n      jumpi\n      dup3\n      swap1\n      sub\n      0x1f\n      and\n      dup3\n      add\n      swap2\n    tag_141:\n      pop\n      pop\n      pop\n      pop\n      pop\n      dup2\n      mstore\n      0x20\n      add\n      0x02\n      dup3\n      add\n      sload\n      dup2\n      mstore\n      pop\n      pop\n      swap1\n      pop\n        /* \"D_Voting_app.sol\":2843:2866  Candidate memory second */\n      0x00\n        /* \"D_Voting_app.sol\":2869:2879  topWinners */\n      0x06\n        /* \"D_Voting_app.sol\":2880:2881  1 */\n      0x01\n        /* \"D_Voting_app.sol\":2869:2882  topWinners[1] */\n      0x03\n      dup2\n      lt\n      tag_144\n      jumpi\n      tag_145\n      tag_109\n      jump\t// in\n    tag_145:\n    tag_144:\n      0x03\n      mul\n      add\n        /* \"D_Voting_app.sol\":2843:2882  Candidate memory second = topWinners[1] */\n      mload(0x40)\n      dup1\n      0x60\n      add\n      0x40\n      mstore\n      swap1\n      dup2\n      0x00\n      dup3\n      add\n      sload\n      dup2\n      mstore\n      0x20\n      add\n      0x01\n      dup3\n      add\n      dup1\n      sload\n      tag_147\n      swap1\n      tag_73\n      jump\t// in\n    tag_147:\n      dup1\n      0x1f\n      add\n      0x20\n      dup1\n      swap2\n      div\n      mul\n      0x20\n      add\n      mload(0x40)\n      swap1\n      dup2\n      add\n      0x40\n      mstore\n      dup1\n      swap3\n      swap2\n      swap1\n      dup2\n      dup2\n      mstore\n      0x20\n      add\n      dup3\n      dup1\n      sload\n      tag_148\n      swap1\n      tag_73\n      jump\t// in\n    tag_148:\n      dup1\n      iszero\n      tag_149\n      jumpi\n      dup1\n      0x1f\n      lt\n      tag_150\n      jumpi\n      0x0100\n      dup1\n      dup4\n      sload\n      div\n      mul\n      dup4\n      mstore\n      swap2\n      0x20\n      add\n      swap2\n      jump(tag_149)\n    tag_150:\n      dup3\n      add\n      swap2\n      swap1\n      0x00\n      mstore\n      keccak256(0x00, 0x20)\n      swap1\n    tag_151:\n      dup2\n      sload\n      dup2\n      mstore\n      swap1\n      0x01\n      add\n      swap1\n      0x20\n      add\n      dup1\n      dup4\n      gt\n      tag_151\n      jumpi\n      dup3\n      swap1\n      sub\n      0x1f\n      and\n      dup3\n      add\n      swap2\n    tag_149:\n      pop\n      pop\n      pop\n      pop\n      pop\n      dup2\n      mstore\n      0x20\n      add\n      0x02\n      dup3\n      add\n      sload\n      dup2\n      mstore\n      pop\n      pop\n      swap1\n      pop\n        /* \"D_Voting_app.sol\":2893:2915  Candidate memory third */\n      0x00\n        /* \"D_Voting_app.sol\":2918:2928  topWinners */\n      0x06\n        /* \"D_Voting_app.sol\":2929:2930  2 */\n      0x02\n        /* \"D_Voting_app.sol\":2918:2931  topWinners[2] */\n      0x03\n      dup2\n      lt\n      tag_152\n      jumpi\n      tag_153\n      tag_109\n      jump\t// in\n    tag_153:\n    tag_152:\n      0x03\n      mul\n      add\n        /* \"D_Voting_app.sol\":2893:2931  Candidate memory third = topWinners[2] */\n      mload(0x40)\n      dup1\n      0x60\n      add\n      0x40\n      mstore\n      swap1\n      dup2\n      0x00\n      dup3\n      add\n      sload\n      dup2\n      mstore\n      0x20\n      add\n      0x01\n      dup3\n      add\n      dup1\n      sload\n      tag_155\n      swap1\n      tag_73\n      jump\t// in\n    tag_155:\n      dup1\n      0x1f\n      add\n      0x20\n      dup1\n      swap2\n      div\n      mul\n      0x20\n      add\n      mload(0x40)\n      swap1\n      dup2\n      add\n      0x40\n      mstore\n      dup1\n      swap3\n      swap2\n      swap1\n      dup2\n      dup2\n      mstore\n      0x20\n      add\n      dup3\n      dup1\n      sload\n      tag_156\n      swap1\n      tag_73\n      jump\t// in\n    tag_156:\n      dup1\n      iszero\n      tag_157\n      jumpi\n      dup1\n      0x1f\n      lt\n      tag_158\n      jumpi\n      0x0100\n      dup1\n      dup4\n      sload\n      div\n      mul\n      dup4\n      mstore\n      swap2\n      0x20\n      add\n      swap2\n      jump(tag_157)\n    tag_158:\n      dup3\n      add\n      swap2\n      swap1\n      0x00\n      mstore\n      keccak256(0x00, 0x20)\n      swap1\n    tag_159:\n      dup2\n      sload\n      dup2\n      mstore\n      swap1\n      0x01\n      add\n      swap1\n      0x20\n      add\n      dup1\n      dup4\n      gt\n      tag_159\n      jumpi\n      dup3\n      swap1\n      sub\n      0x1f\n      and\n      dup3\n      add\n      swap2\n    tag_157:\n      pop\n      pop\n      pop\n      pop\n      pop\n      dup2\n      mstore\n      0x20\n      add\n      0x02\n      dup3\n      add\n      sload\n      dup2\n      mstore\n      pop\n      pop\n      swap1\n      pop\n        /* \"D_Voting_app.sol\":2966:2971  first */\n      dup3\n        /* \"D_Voting_app.sol\":2966:2974  first.id */\n      0x00\n      add\n      mload\n        /* \"D_Voting_app.sol\":2976:2981  first */\n      dup4\n        /* \"D_Voting_app.sol\":2976:2986  first.name */\n      0x20\n      add\n      mload\n        /* \"D_Voting_app.sol\":2988:2993  first */\n      dup5\n        /* \"D_Voting_app.sol\":2988:3003  first.voteCount */\n      0x40\n      add\n      mload\n        /* \"D_Voting_app.sol\":3018:3024  second */\n      dup5\n        /* \"D_Voting_app.sol\":3018:3027  second.id */\n      0x00\n      add\n      mload\n        /* \"D_Voting_app.sol\":3029:3035  second */\n      dup6\n        /* \"D_Voting_app.sol\":3029:3040  second.name */\n      0x20\n      add\n      mload\n        /* \"D_Voting_app.sol\":3042:3048  second */\n      dup7\n        /* \"D_Voting_app.sol\":3042:3058  second.voteCount */\n      0x40\n      add\n      mload\n        /* \"D_Voting_app.sol\":3073:3078  third */\n      dup7\n        /* \"D_Voting_app.sol\":3073:3081  third.id */\n      0x00\n      add\n      mload\n        /* \"D_Voting_app.sol\":3083:3088  third */\n      dup8\n        /* \"D_Voting_app.sol\":3083:3093  third.name */\n      0x20\n      add\n      mload\n        /* \"D_Voting_app.sol\":3095:3100  third */\n      dup9\n        /* \"D_Voting_app.sol\":3095:3110  third.voteCount */\n      0x40\n      add\n      mload\n        /* \"D_Voting_app.sol\":2944:3121  return (... */\n      swap12\n      pop\n      swap12\n      pop\n      swap12\n      pop\n      swap12\n      pop\n      swap12\n      pop\n      swap12\n      pop\n      swap12\n      pop\n      swap12\n      pop\n      swap12\n      pop\n      pop\n      pop\n      pop\n        /* \"D_Voting_app.sol\":2511:3129  function getTopWinners()... */\n      swap1\n      swap2\n      swap3\n      swap4\n      swap5\n      swap6\n      swap7\n      swap8\n      swap9\n      jump\t// out\n    tag_90:\n      mload(0x40)\n      dup1\n      0x60\n      add\n      0x40\n      mstore\n      dup1\n      0x00\n      dup2\n      mstore\n      0x20\n      add\n      0x60\n      dup2\n      mstore\n      0x20\n      add\n      0x00\n      dup2\n      mstore\n      pop\n      swap1\n      jump\t// out\n        /* \"#utility.yul\":88:205   */\n    tag_161:\n        /* \"#utility.yul\":197:198   */\n      0x00\n        /* \"#utility.yul\":194:195   */\n      dup1\n        /* \"#utility.yul\":187:199   */\n      revert\n        /* \"#utility.yul\":334:411   */\n    tag_163:\n        /* \"#utility.yul\":371:378   */\n      0x00\n        /* \"#utility.yul\":400:405   */\n      dup2\n        /* \"#utility.yul\":389:405   */\n      swap1\n      pop\n        /* \"#utility.yul\":334:411   */\n      swap2\n      swap1\n      pop\n      jump\t// out\n        /* \"#utility.yul\":417:539   */\n    tag_164:\n        /* \"#utility.yul\":490:514   */\n      tag_213\n        /* \"#utility.yul\":508:513   */\n      dup2\n        /* \"#utility.yul\":490:514   */\n      tag_163\n      jump\t// in\n    tag_213:\n        /* \"#utility.yul\":483:488   */\n      dup2\n        /* \"#utility.yul\":480:515   */\n      eq\n        /* \"#utility.yul\":470:533   */\n      tag_214\n      jumpi\n        /* \"#utility.yul\":529:530   */\n      0x00\n        /* \"#utility.yul\":526:527   */\n      dup1\n        /* \"#utility.yul\":519:531   */\n      revert\n        /* \"#utility.yul\":470:533   */\n    tag_214:\n        /* \"#utility.yul\":417:539   */\n      pop\n      jump\t// out\n        /* \"#utility.yul\":545:684   */\n    tag_165:\n        /* \"#utility.yul\":591:596   */\n      0x00\n        /* \"#utility.yul\":629:635   */\n      dup2\n        /* \"#utility.yul\":616:636   */\n      calldataload\n        /* \"#utility.yul\":607:636   */\n      swap1\n      pop\n        /* \"#utility.yul\":645:678   */\n      tag_216\n        /* \"#utility.yul\":672:677   */\n      dup2\n        /* \"#utility.yul\":645:678   */\n      tag_164\n      jump\t// in\n    tag_216:\n        /* \"#utility.yul\":545:684   */\n      swap3\n      swap2\n      pop\n      pop\n      jump\t// out\n        /* \"#utility.yul\":690:1019   */\n    tag_15:\n        /* \"#utility.yul\":749:755   */\n      0x00\n        /* \"#utility.yul\":798:800   */\n      0x20\n        /* \"#utility.yul\":786:795   */\n      dup3\n        /* \"#utility.yul\":777:784   */\n      dup5\n        /* \"#utility.yul\":773:796   */\n      sub\n        /* \"#utility.yul\":769:801   */\n      slt\n        /* \"#utility.yul\":766:885   */\n      iszero\n      tag_218\n      jumpi\n        /* \"#utility.yul\":804:883   */\n      tag_219\n      tag_161\n      jump\t// in\n    tag_219:\n        /* \"#utility.yul\":766:885   */\n    tag_218:\n        /* \"#utility.yul\":924:925   */\n      0x00\n        /* \"#utility.yul\":949:1002   */\n      tag_220\n        /* \"#utility.yul\":994:1001   */\n      dup5\n        /* \"#utility.yul\":985:991   */\n      dup3\n        /* \"#utility.yul\":974:983   */\n      dup6\n        /* \"#utility.yul\":970:992   */\n      add\n        /* \"#utility.yul\":949:1002   */\n      tag_165\n      jump\t// in\n    tag_220:\n        /* \"#utility.yul\":939:1002   */\n      swap2\n      pop\n        /* \"#utility.yul\":895:1012   */\n      pop\n        /* \"#utility.yul\":690:1019   */\n      swap3\n      swap2\n      pop\n      pop\n      jump\t// out\n        /* \"#utility.yul\":1025:1143   */\n    tag_166:\n        /* \"#utility.yul\":1112:1136   */\n      tag_222\n        /* \"#utility.yul\":1130:1135   */\n      dup2\n        /* \"#utility.yul\":1112:1136   */\n      tag_163\n      jump\t// in\n    tag_222:\n        /* \"#utility.yul\":1107:1110   */\n      dup3\n        /* \"#utility.yul\":1100:1137   */\n      mstore\n        /* \"#utility.yul\":1025:1143   */\n      pop\n      pop\n      jump\t// out\n        /* \"#utility.yul\":1149:1371   */\n    tag_20:\n        /* \"#utility.yul\":1242:1246   */\n      0x00\n        /* \"#utility.yul\":1280:1282   */\n      0x20\n        /* \"#utility.yul\":1269:1278   */\n      dup3\n        /* \"#utility.yul\":1265:1283   */\n      add\n        /* \"#utility.yul\":1257:1283   */\n      swap1\n      pop\n        /* \"#utility.yul\":1293:1364   */\n      tag_224\n        /* \"#utility.yul\":1361:1362   */\n      0x00\n        /* \"#utility.yul\":1350:1359   */\n      dup4\n        /* \"#utility.yul\":1346:1363   */\n      add\n        /* \"#utility.yul\":1337:1343   */\n      dup5\n        /* \"#utility.yul\":1293:1364   */\n      tag_166\n      jump\t// in\n    tag_224:\n        /* \"#utility.yul\":1149:1371   */\n      swap3\n      swap2\n      pop\n      pop\n      jump\t// out\n        /* \"#utility.yul\":1377:1476   */\n    tag_167:\n        /* \"#utility.yul\":1429:1435   */\n      0x00\n        /* \"#utility.yul\":1463:1468   */\n      dup2\n        /* \"#utility.yul\":1457:1469   */\n      mload\n        /* \"#utility.yul\":1447:1469   */\n      swap1\n      pop\n        /* \"#utility.yul\":1377:1476   */\n      swap2\n      swap1\n      pop\n      jump\t// out\n        /* \"#utility.yul\":1482:1651   */\n    tag_168:\n        /* \"#utility.yul\":1566:1577   */\n      0x00\n        /* \"#utility.yul\":1600:1606   */\n      dup3\n        /* \"#utility.yul\":1595:1598   */\n      dup3\n        /* \"#utility.yul\":1588:1607   */\n      mstore\n        /* \"#utility.yul\":1640:1644   */\n      0x20\n        /* \"#utility.yul\":1635:1638   */\n      dup3\n        /* \"#utility.yul\":1631:1645   */\n      add\n        /* \"#utility.yul\":1616:1645   */\n      swap1\n      pop\n        /* \"#utility.yul\":1482:1651   */\n      swap3\n      swap2\n      pop\n      pop\n      jump\t// out\n        /* \"#utility.yul\":1657:1903   */\n    tag_169:\n        /* \"#utility.yul\":1738:1739   */\n      0x00\n        /* \"#utility.yul\":1748:1861   */\n    tag_228:\n        /* \"#utility.yul\":1762:1768   */\n      dup4\n        /* \"#utility.yul\":1759:1760   */\n      dup2\n        /* \"#utility.yul\":1756:1769   */\n      lt\n        /* \"#utility.yul\":1748:1861   */\n      iszero\n      tag_230\n      jumpi\n        /* \"#utility.yul\":1847:1848   */\n      dup1\n        /* \"#utility.yul\":1842:1845   */\n      dup3\n        /* \"#utility.yul\":1838:1849   */\n      add\n        /* \"#utility.yul\":1832:1850   */\n      mload\n        /* \"#utility.yul\":1828:1829   */\n      dup2\n        /* \"#utility.yul\":1823:1826   */\n      dup5\n        /* \"#utility.yul\":1819:1830   */\n      add\n        /* \"#utility.yul\":1812:1851   */\n      mstore\n        /* \"#utility.yul\":1784:1786   */\n      0x20\n        /* \"#utility.yul\":1781:1782   */\n      dup2\n        /* \"#utility.yul\":1777:1787   */\n      add\n        /* \"#utility.yul\":1772:1787   */\n      swap1\n      pop\n        /* \"#utility.yul\":1748:1861   */\n      jump(tag_228)\n    tag_230:\n        /* \"#utility.yul\":1895:1896   */\n      0x00\n        /* \"#utility.yul\":1886:1892   */\n      dup5\n        /* \"#utility.yul\":1881:1884   */\n      dup5\n        /* \"#utility.yul\":1877:1893   */\n      add\n        /* \"#utility.yul\":1870:1897   */\n      mstore\n        /* \"#utility.yul\":1719:1903   */\n      pop\n        /* \"#utility.yul\":1657:1903   */\n      pop\n      pop\n      pop\n      jump\t// out\n        /* \"#utility.yul\":1909:2011   */\n    tag_170:\n        /* \"#utility.yul\":1950:1956   */\n      0x00\n        /* \"#utility.yul\":2001:2003   */\n      0x1f\n        /* \"#utility.yul\":1997:2004   */\n      not\n        /* \"#utility.yul\":1992:1994   */\n      0x1f\n        /* \"#utility.yul\":1985:1990   */\n      dup4\n        /* \"#utility.yul\":1981:1995   */\n      add\n        /* \"#utility.yul\":1977:2005   */\n      and\n        /* \"#utility.yul\":1967:2005   */\n      swap1\n      pop\n        /* \"#utility.yul\":1909:2011   */\n      swap2\n      swap1\n      pop\n      jump\t// out\n        /* \"#utility.yul\":2017:2394   */\n    tag_171:\n        /* \"#utility.yul\":2105:2108   */\n      0x00\n        /* \"#utility.yul\":2133:2172   */\n      tag_233\n        /* \"#utility.yul\":2166:2171   */\n      dup3\n        /* \"#utility.yul\":2133:2172   */\n      tag_167\n      jump\t// in\n    tag_233:\n        /* \"#utility.yul\":2188:2259   */\n      tag_234\n        /* \"#utility.yul\":2252:2258   */\n      dup2\n        /* \"#utility.yul\":2247:2250   */\n      dup6\n        /* \"#utility.yul\":2188:2259   */\n      tag_168\n      jump\t// in\n    tag_234:\n        /* \"#utility.yul\":2181:2259   */\n      swap4\n      pop\n        /* \"#utility.yul\":2268:2333   */\n      tag_235\n        /* \"#utility.yul\":2326:2332   */\n      dup2\n        /* \"#utility.yul\":2321:2324   */\n      dup6\n        /* \"#utility.yul\":2314:2318   */\n      0x20\n        /* \"#utility.yul\":2307:2312   */\n      dup7\n        /* \"#utility.yul\":2303:2319   */\n      add\n        /* \"#utility.yul\":2268:2333   */\n      tag_169\n      jump\t// in\n    tag_235:\n        /* \"#utility.yul\":2358:2387   */\n      tag_236\n        /* \"#utility.yul\":2380:2386   */\n      dup2\n        /* \"#utility.yul\":2358:2387   */\n      tag_170\n      jump\t// in\n    tag_236:\n        /* \"#utility.yul\":2353:2356   */\n      dup5\n        /* \"#utility.yul\":2349:2388   */\n      add\n        /* \"#utility.yul\":2342:2388   */\n      swap2\n      pop\n        /* \"#utility.yul\":2109:2394   */\n      pop\n        /* \"#utility.yul\":2017:2394   */\n      swap3\n      swap2\n      pop\n      pop\n      jump\t// out\n        /* \"#utility.yul\":2400:2933   */\n    tag_25:\n        /* \"#utility.yul\":2569:2573   */\n      0x00\n        /* \"#utility.yul\":2607:2609   */\n      0x60\n        /* \"#utility.yul\":2596:2605   */\n      dup3\n        /* \"#utility.yul\":2592:2610   */\n      add\n        /* \"#utility.yul\":2584:2610   */\n      swap1\n      pop\n        /* \"#utility.yul\":2620:2691   */\n      tag_238\n        /* \"#utility.yul\":2688:2689   */\n      0x00\n        /* \"#utility.yul\":2677:2686   */\n      dup4\n        /* \"#utility.yul\":2673:2690   */\n      add\n        /* \"#utility.yul\":2664:2670   */\n      dup7\n        /* \"#utility.yul\":2620:2691   */\n      tag_166\n      jump\t// in\n    tag_238:\n        /* \"#utility.yul\":2738:2747   */\n      dup2\n        /* \"#utility.yul\":2732:2736   */\n      dup2\n        /* \"#utility.yul\":2728:2748   */\n      sub\n        /* \"#utility.yul\":2723:2725   */\n      0x20\n        /* \"#utility.yul\":2712:2721   */\n      dup4\n        /* \"#utility.yul\":2708:2726   */\n      add\n        /* \"#utility.yul\":2701:2749   */\n      mstore\n        /* \"#utility.yul\":2766:2844   */\n      tag_239\n        /* \"#utility.yul\":2839:2843   */\n      dup2\n        /* \"#utility.yul\":2830:2836   */\n      dup6\n        /* \"#utility.yul\":2766:2844   */\n      tag_171\n      jump\t// in\n    tag_239:\n        /* \"#utility.yul\":2758:2844   */\n      swap1\n      pop\n        /* \"#utility.yul\":2854:2926   */\n      tag_240\n        /* \"#utility.yul\":2922:2924   */\n      0x40\n        /* \"#utility.yul\":2911:2920   */\n      dup4\n        /* \"#utility.yul\":2907:2925   */\n      add\n        /* \"#utility.yul\":2898:2904   */\n      dup5\n        /* \"#utility.yul\":2854:2926   */\n      tag_166\n      jump\t// in\n    tag_240:\n        /* \"#utility.yul\":2400:2933   */\n      swap5\n      swap4\n      pop\n      pop\n      pop\n      pop\n      jump\t// out\n        /* \"#utility.yul\":2939:3362   */\n    tag_35:\n        /* \"#utility.yul\":3080:3084   */\n      0x00\n        /* \"#utility.yul\":3118:3120   */\n      0x40\n        /* \"#utility.yul\":3107:3116   */\n      dup3\n        /* \"#utility.yul\":3103:3121   */\n      add\n        /* \"#utility.yul\":3095:3121   */\n      swap1\n      pop\n        /* \"#utility.yul\":3131:3202   */\n      tag_242\n        /* \"#utility.yul\":3199:3200   */\n      0x00\n        /* \"#utility.yul\":3188:3197   */\n      dup4\n        /* \"#utility.yul\":3184:3201   */\n      add\n        /* \"#utility.yul\":3175:3181   */\n      dup6\n        /* \"#utility.yul\":3131:3202   */\n      tag_166\n      jump\t// in\n    tag_242:\n        /* \"#utility.yul\":3249:3258   */\n      dup2\n        /* \"#utility.yul\":3243:3247   */\n      dup2\n        /* \"#utility.yul\":3239:3259   */\n      sub\n        /* \"#utility.yul\":3234:3236   */\n      0x20\n        /* \"#utility.yul\":3223:3232   */\n      dup4\n        /* \"#utility.yul\":3219:3237   */\n      add\n        /* \"#utility.yul\":3212:3260   */\n      mstore\n        /* \"#utility.yul\":3277:3355   */\n      tag_243\n        /* \"#utility.yul\":3350:3354   */\n      dup2\n        /* \"#utility.yul\":3341:3347   */\n      dup5\n        /* \"#utility.yul\":3277:3355   */\n      tag_171\n      jump\t// in\n    tag_243:\n        /* \"#utility.yul\":3269:3355   */\n      swap1\n      pop\n        /* \"#utility.yul\":2939:3362   */\n      swap4\n      swap3\n      pop\n      pop\n      pop\n      jump\t// out\n        /* \"#utility.yul\":3368:3494   */\n    tag_172:\n        /* \"#utility.yul\":3405:3412   */\n      0x00\n        /* \"#utility.yul\":3445:3487   */\n      0xffffffffffffffffffffffffffffffffffffffff\n        /* \"#utility.yul\":3438:3443   */\n      dup3\n        /* \"#utility.yul\":3434:3488   */\n      and\n        /* \"#utility.yul\":3423:3488   */\n      swap1\n      pop\n        /* \"#utility.yul\":3368:3494   */\n      swap2\n      swap1\n      pop\n      jump\t// out\n        /* \"#utility.yul\":3500:3596   */\n    tag_173:\n        /* \"#utility.yul\":3537:3544   */\n      0x00\n        /* \"#utility.yul\":3566:3590   */\n      tag_246\n        /* \"#utility.yul\":3584:3589   */\n      dup3\n        /* \"#utility.yul\":3566:3590   */\n      tag_172\n      jump\t// in\n    tag_246:\n        /* \"#utility.yul\":3555:3590   */\n      swap1\n      pop\n        /* \"#utility.yul\":3500:3596   */\n      swap2\n      swap1\n      pop\n      jump\t// out\n        /* \"#utility.yul\":3602:3720   */\n    tag_174:\n        /* \"#utility.yul\":3689:3713   */\n      tag_248\n        /* \"#utility.yul\":3707:3712   */\n      dup2\n        /* \"#utility.yul\":3689:3713   */\n      tag_173\n      jump\t// in\n    tag_248:\n        /* \"#utility.yul\":3684:3687   */\n      dup3\n        /* \"#utility.yul\":3677:3714   */\n      mstore\n        /* \"#utility.yul\":3602:3720   */\n      pop\n      pop\n      jump\t// out\n        /* \"#utility.yul\":3726:3948   */\n    tag_39:\n        /* \"#utility.yul\":3819:3823   */\n      0x00\n        /* \"#utility.yul\":3857:3859   */\n      0x20\n        /* \"#utility.yul\":3846:3855   */\n      dup3\n        /* \"#utility.yul\":3842:3860   */\n      add\n        /* \"#utility.yul\":3834:3860   */\n      swap1\n      pop\n        /* \"#utility.yul\":3870:3941   */\n      tag_250\n        /* \"#utility.yul\":3938:3939   */\n      0x00\n        /* \"#utility.yul\":3927:3936   */\n      dup4\n        /* \"#utility.yul\":3923:3940   */\n      add\n        /* \"#utility.yul\":3914:3920   */\n      dup5\n        /* \"#utility.yul\":3870:3941   */\n      tag_174\n      jump\t// in\n    tag_250:\n        /* \"#utility.yul\":3726:3948   */\n      swap3\n      swap2\n      pop\n      pop\n      jump\t// out\n        /* \"#utility.yul\":3954:4044   */\n    tag_175:\n        /* \"#utility.yul\":3988:3995   */\n      0x00\n        /* \"#utility.yul\":4031:4036   */\n      dup2\n        /* \"#utility.yul\":4024:4037   */\n      iszero\n        /* \"#utility.yul\":4017:4038   */\n      iszero\n        /* \"#utility.yul\":4006:4038   */\n      swap1\n      pop\n        /* \"#utility.yul\":3954:4044   */\n      swap2\n      swap1\n      pop\n      jump\t// out\n        /* \"#utility.yul\":4050:4159   */\n    tag_176:\n        /* \"#utility.yul\":4131:4152   */\n      tag_253\n        /* \"#utility.yul\":4146:4151   */\n      dup2\n        /* \"#utility.yul\":4131:4152   */\n      tag_175\n      jump\t// in\n    tag_253:\n        /* \"#utility.yul\":4126:4129   */\n      dup3\n        /* \"#utility.yul\":4119:4153   */\n      mstore\n        /* \"#utility.yul\":4050:4159   */\n      pop\n      pop\n      jump\t// out\n        /* \"#utility.yul\":4165:4375   */\n    tag_43:\n        /* \"#utility.yul\":4252:4256   */\n      0x00\n        /* \"#utility.yul\":4290:4292   */\n      0x20\n        /* \"#utility.yul\":4279:4288   */\n      dup3\n        /* \"#utility.yul\":4275:4293   */\n      add\n        /* \"#utility.yul\":4267:4293   */\n      swap1\n      pop\n        /* \"#utility.yul\":4303:4368   */\n      tag_255\n        /* \"#utility.yul\":4365:4366   */\n      0x00\n        /* \"#utility.yul\":4354:4363   */\n      dup4\n        /* \"#utility.yul\":4350:4367   */\n      add\n        /* \"#utility.yul\":4341:4347   */\n      dup5\n        /* \"#utility.yul\":4303:4368   */\n      tag_176\n      jump\t// in\n    tag_255:\n        /* \"#utility.yul\":4165:4375   */\n      swap3\n      swap2\n      pop\n      pop\n      jump\t// out\n        /* \"#utility.yul\":4381:5762   */\n    tag_47:\n        /* \"#utility.yul\":4758:4762   */\n      0x00\n        /* \"#utility.yul\":4796:4799   */\n      0x0120\n        /* \"#utility.yul\":4785:4794   */\n      dup3\n        /* \"#utility.yul\":4781:4800   */\n      add\n        /* \"#utility.yul\":4773:4800   */\n      swap1\n      pop\n        /* \"#utility.yul\":4810:4881   */\n      tag_257\n        /* \"#utility.yul\":4878:4879   */\n      0x00\n        /* \"#utility.yul\":4867:4876   */\n      dup4\n        /* \"#utility.yul\":4863:4880   */\n      add\n        /* \"#utility.yul\":4854:4860   */\n      dup13\n        /* \"#utility.yul\":4810:4881   */\n      tag_166\n      jump\t// in\n    tag_257:\n        /* \"#utility.yul\":4928:4937   */\n      dup2\n        /* \"#utility.yul\":4922:4926   */\n      dup2\n        /* \"#utility.yul\":4918:4938   */\n      sub\n        /* \"#utility.yul\":4913:4915   */\n      0x20\n        /* \"#utility.yul\":4902:4911   */\n      dup4\n        /* \"#utility.yul\":4898:4916   */\n      add\n        /* \"#utility.yul\":4891:4939   */\n      mstore\n        /* \"#utility.yul\":4956:5034   */\n      tag_258\n        /* \"#utility.yul\":5029:5033   */\n      dup2\n        /* \"#utility.yul\":5020:5026   */\n      dup12\n        /* \"#utility.yul\":4956:5034   */\n      tag_171\n      jump\t// in\n    tag_258:\n        /* \"#utility.yul\":4948:5034   */\n      swap1\n      pop\n        /* \"#utility.yul\":5044:5116   */\n      tag_259\n        /* \"#utility.yul\":5112:5114   */\n      0x40\n        /* \"#utility.yul\":5101:5110   */\n      dup4\n        /* \"#utility.yul\":5097:5115   */\n      add\n        /* \"#utility.yul\":5088:5094   */\n      dup11\n        /* \"#utility.yul\":5044:5116   */\n      tag_166\n      jump\t// in\n    tag_259:\n        /* \"#utility.yul\":5126:5198   */\n      tag_260\n        /* \"#utility.yul\":5194:5196   */\n      0x60\n        /* \"#utility.yul\":5183:5192   */\n      dup4\n        /* \"#utility.yul\":5179:5197   */\n      add\n        /* \"#utility.yul\":5170:5176   */\n      dup10\n        /* \"#utility.yul\":5126:5198   */\n      tag_166\n      jump\t// in\n    tag_260:\n        /* \"#utility.yul\":5246:5255   */\n      dup2\n        /* \"#utility.yul\":5240:5244   */\n      dup2\n        /* \"#utility.yul\":5236:5256   */\n      sub\n        /* \"#utility.yul\":5230:5233   */\n      0x80\n        /* \"#utility.yul\":5219:5228   */\n      dup4\n        /* \"#utility.yul\":5215:5234   */\n      add\n        /* \"#utility.yul\":5208:5257   */\n      mstore\n        /* \"#utility.yul\":5274:5352   */\n      tag_261\n        /* \"#utility.yul\":5347:5351   */\n      dup2\n        /* \"#utility.yul\":5338:5344   */\n      dup9\n        /* \"#utility.yul\":5274:5352   */\n      tag_171\n      jump\t// in\n    tag_261:\n        /* \"#utility.yul\":5266:5352   */\n      swap1\n      pop\n        /* \"#utility.yul\":5362:5435   */\n      tag_262\n        /* \"#utility.yul\":5430:5433   */\n      0xa0\n        /* \"#utility.yul\":5419:5428   */\n      dup4\n        /* \"#utility.yul\":5415:5434   */\n      add\n        /* \"#utility.yul\":5406:5412   */\n      dup8\n        /* \"#utility.yul\":5362:5435   */\n      tag_166\n      jump\t// in\n    tag_262:\n        /* \"#utility.yul\":5445:5518   */\n      tag_263\n        /* \"#utility.yul\":5513:5516   */\n      0xc0\n        /* \"#utility.yul\":5502:5511   */\n      dup4\n        /* \"#utility.yul\":5498:5517   */\n      add\n        /* \"#utility.yul\":5489:5495   */\n      dup7\n        /* \"#utility.yul\":5445:5518   */\n      tag_166\n      jump\t// in\n    tag_263:\n        /* \"#utility.yul\":5566:5575   */\n      dup2\n        /* \"#utility.yul\":5560:5564   */\n      dup2\n        /* \"#utility.yul\":5556:5576   */\n      sub\n        /* \"#utility.yul\":5550:5553   */\n      0xe0\n        /* \"#utility.yul\":5539:5548   */\n      dup4\n        /* \"#utility.yul\":5535:5554   */\n      add\n        /* \"#utility.yul\":5528:5577   */\n      mstore\n        /* \"#utility.yul\":5594:5672   */\n      tag_264\n        /* \"#utility.yul\":5667:5671   */\n      dup2\n        /* \"#utility.yul\":5658:5664   */\n      dup6\n        /* \"#utility.yul\":5594:5672   */\n      tag_171\n      jump\t// in\n    tag_264:\n        /* \"#utility.yul\":5586:5672   */\n      swap1\n      pop\n        /* \"#utility.yul\":5682:5755   */\n      tag_265\n        /* \"#utility.yul\":5750:5753   */\n      0x0100\n        /* \"#utility.yul\":5739:5748   */\n      dup4\n        /* \"#utility.yul\":5735:5754   */\n      add\n        /* \"#utility.yul\":5726:5732   */\n      dup5\n        /* \"#utility.yul\":5682:5755   */\n      tag_166\n      jump\t// in\n    tag_265:\n        /* \"#utility.yul\":4381:5762   */\n      swap11\n      swap10\n      pop\n      pop\n      pop\n      pop\n      pop\n      pop\n      pop\n      pop\n      pop\n      pop\n      jump\t// out\n        /* \"#utility.yul\":5768:5941   */\n    tag_177:\n        /* \"#utility.yul\":5908:5933   */\n      0x526573756c7420616c7265616479206465636c61726564000000000000000000\n        /* \"#utility.yul\":5904:5905   */\n      0x00\n        /* \"#utility.yul\":5896:5902   */\n      dup3\n        /* \"#utility.yul\":5892:5906   */\n      add\n        /* \"#utility.yul\":5885:5934   */\n      mstore\n        /* \"#utility.yul\":5768:5941   */\n      pop\n      jump\t// out\n        /* \"#utility.yul\":5947:6313   */\n    tag_178:\n        /* \"#utility.yul\":6089:6092   */\n      0x00\n        /* \"#utility.yul\":6110:6177   */\n      tag_268\n        /* \"#utility.yul\":6174:6176   */\n      0x17\n        /* \"#utility.yul\":6169:6172   */\n      dup4\n        /* \"#utility.yul\":6110:6177   */\n      tag_168\n      jump\t// in\n    tag_268:\n        /* \"#utility.yul\":6103:6177   */\n      swap2\n      pop\n        /* \"#utility.yul\":6186:6279   */\n      tag_269\n        /* \"#utility.yul\":6275:6278   */\n      dup3\n        /* \"#utility.yul\":6186:6279   */\n      tag_177\n      jump\t// in\n    tag_269:\n        /* \"#utility.yul\":6304:6306   */\n      0x20\n        /* \"#utility.yul\":6299:6302   */\n      dup3\n        /* \"#utility.yul\":6295:6307   */\n      add\n        /* \"#utility.yul\":6288:6307   */\n      swap1\n      pop\n        /* \"#utility.yul\":5947:6313   */\n      swap2\n      swap1\n      pop\n      jump\t// out\n        /* \"#utility.yul\":6319:6738   */\n    tag_51:\n        /* \"#utility.yul\":6485:6489   */\n      0x00\n        /* \"#utility.yul\":6523:6525   */\n      0x20\n        /* \"#utility.yul\":6512:6521   */\n      dup3\n        /* \"#utility.yul\":6508:6526   */\n      add\n        /* \"#utility.yul\":6500:6526   */\n      swap1\n      pop\n        /* \"#utility.yul\":6572:6581   */\n      dup2\n        /* \"#utility.yul\":6566:6570   */\n      dup2\n        /* \"#utility.yul\":6562:6582   */\n      sub\n        /* \"#utility.yul\":6558:6559   */\n      0x00\n        /* \"#utility.yul\":6547:6556   */\n      dup4\n        /* \"#utility.yul\":6543:6560   */\n      add\n        /* \"#utility.yul\":6536:6583   */\n      mstore\n        /* \"#utility.yul\":6600:6731   */\n      tag_271\n        /* \"#utility.yul\":6726:6730   */\n      dup2\n        /* \"#utility.yul\":6600:6731   */\n      tag_178\n      jump\t// in\n    tag_271:\n        /* \"#utility.yul\":6592:6731   */\n      swap1\n      pop\n        /* \"#utility.yul\":6319:6738   */\n      swap2\n      swap1\n      pop\n      jump\t// out\n        /* \"#utility.yul\":6744:6916   */\n    tag_179:\n        /* \"#utility.yul\":6884:6908   */\n      0x596f75206861766520616c726561647920766f74656400000000000000000000\n        /* \"#utility.yul\":6880:6881   */\n      0x00\n        /* \"#utility.yul\":6872:6878   */\n      dup3\n        /* \"#utility.yul\":6868:6882   */\n      add\n        /* \"#utility.yul\":6861:6909   */\n      mstore\n        /* \"#utility.yul\":6744:6916   */\n      pop\n      jump\t// out\n        /* \"#utility.yul\":6922:7288   */\n    tag_180:\n        /* \"#utility.yul\":7064:7067   */\n      0x00\n        /* \"#utility.yul\":7085:7152   */\n      tag_274\n        /* \"#utility.yul\":7149:7151   */\n      0x16\n        /* \"#utility.yul\":7144:7147   */\n      dup4\n        /* \"#utility.yul\":7085:7152   */\n      tag_168\n      jump\t// in\n    tag_274:\n        /* \"#utility.yul\":7078:7152   */\n      swap2\n      pop\n        /* \"#utility.yul\":7161:7254   */\n      tag_275\n        /* \"#utility.yul\":7250:7253   */\n      dup3\n        /* \"#utility.yul\":7161:7254   */\n      tag_179\n      jump\t// in\n    tag_275:\n        /* \"#utility.yul\":7279:7281   */\n      0x20\n        /* \"#utility.yul\":7274:7277   */\n      dup3\n        /* \"#utility.yul\":7270:7282   */\n      add\n        /* \"#utility.yul\":7263:7282   */\n      swap1\n      pop\n        /* \"#utility.yul\":6922:7288   */\n      swap2\n      swap1\n      pop\n      jump\t// out\n        /* \"#utility.yul\":7294:7713   */\n    tag_55:\n        /* \"#utility.yul\":7460:7464   */\n      0x00\n        /* \"#utility.yul\":7498:7500   */\n      0x20\n        /* \"#utility.yul\":7487:7496   */\n      dup3\n        /* \"#utility.yul\":7483:7501   */\n      add\n        /* \"#utility.yul\":7475:7501   */\n      swap1\n      pop\n        /* \"#utility.yul\":7547:7556   */\n      dup2\n        /* \"#utility.yul\":7541:7545   */\n      dup2\n        /* \"#utility.yul\":7537:7557   */\n      sub\n        /* \"#utility.yul\":7533:7534   */\n      0x00\n        /* \"#utility.yul\":7522:7531   */\n      dup4\n        /* \"#utility.yul\":7518:7535   */\n      add\n        /* \"#utility.yul\":7511:7558   */\n      mstore\n        /* \"#utility.yul\":7575:7706   */\n      tag_277\n        /* \"#utility.yul\":7701:7705   */\n      dup2\n        /* \"#utility.yul\":7575:7706   */\n      tag_180\n      jump\t// in\n    tag_277:\n        /* \"#utility.yul\":7567:7706   */\n      swap1\n      pop\n        /* \"#utility.yul\":7294:7713   */\n      swap2\n      swap1\n      pop\n      jump\t// out\n        /* \"#utility.yul\":7719:7889   */\n    tag_181:\n        /* \"#utility.yul\":7859:7881   */\n      0x496e76616c69642063616e646964617465204944000000000000000000000000\n        /* \"#utility.yul\":7855:7856   */\n      0x00\n        /* \"#utility.yul\":7847:7853   */\n      dup3\n        /* \"#utility.yul\":7843:7857   */\n      add\n        /* \"#utility.yul\":7836:7882   */\n      mstore\n        /* \"#utility.yul\":7719:7889   */\n      pop\n      jump\t// out\n        /* \"#utility.yul\":7895:8261   */\n    tag_182:\n        /* \"#utility.yul\":8037:8040   */\n      0x00\n        /* \"#utility.yul\":8058:8125   */\n      tag_280\n        /* \"#utility.yul\":8122:8124   */\n      0x14\n        /* \"#utility.yul\":8117:8120   */\n      dup4\n        /* \"#utility.yul\":8058:8125   */\n      tag_168\n      jump\t// in\n    tag_280:\n        /* \"#utility.yul\":8051:8125   */\n      swap2\n      pop\n        /* \"#utility.yul\":8134:8227   */\n      tag_281\n        /* \"#utility.yul\":8223:8226   */\n      dup3\n        /* \"#utility.yul\":8134:8227   */\n      tag_181\n      jump\t// in\n    tag_281:\n        /* \"#utility.yul\":8252:8254   */\n      0x20\n        /* \"#utility.yul\":8247:8250   */\n      dup3\n        /* \"#utility.yul\":8243:8255   */\n      add\n        /* \"#utility.yul\":8236:8255   */\n      swap1\n      pop\n        /* \"#utility.yul\":7895:8261   */\n      swap2\n      swap1\n      pop\n      jump\t// out\n        /* \"#utility.yul\":8267:8686   */\n    tag_59:\n        /* \"#utility.yul\":8433:8437   */\n      0x00\n        /* \"#utility.yul\":8471:8473   */\n      0x20\n        /* \"#utility.yul\":8460:8469   */\n      dup3\n        /* \"#utility.yul\":8456:8474   */\n      add\n        /* \"#utility.yul\":8448:8474   */\n      swap1\n      pop\n        /* \"#utility.yul\":8520:8529   */\n      dup2\n        /* \"#utility.yul\":8514:8518   */\n      dup2\n        /* \"#utility.yul\":8510:8530   */\n      sub\n        /* \"#utility.yul\":8506:8507   */\n      0x00\n        /* \"#utility.yul\":8495:8504   */\n      dup4\n        /* \"#utility.yul\":8491:8508   */\n      add\n        /* \"#utility.yul\":8484:8531   */\n      mstore\n        /* \"#utility.yul\":8548:8679   */\n      tag_283\n        /* \"#utility.yul\":8674:8678   */\n      dup2\n        /* \"#utility.yul\":8548:8679   */\n      tag_182\n      jump\t// in\n    tag_283:\n        /* \"#utility.yul\":8540:8679   */\n      swap1\n      pop\n        /* \"#utility.yul\":8267:8686   */\n      swap2\n      swap1\n      pop\n      jump\t// out\n        /* \"#utility.yul\":8692:8872   */\n    tag_183:\n        /* \"#utility.yul\":8740:8817   */\n      0x4e487b7100000000000000000000000000000000000000000000000000000000\n        /* \"#utility.yul\":8737:8738   */\n      0x00\n        /* \"#utility.yul\":8730:8818   */\n      mstore\n        /* \"#utility.yul\":8837:8841   */\n      0x11\n        /* \"#utility.yul\":8834:8835   */\n      0x04\n        /* \"#utility.yul\":8827:8842   */\n      mstore\n        /* \"#utility.yul\":8861:8865   */\n      0x24\n        /* \"#utility.yul\":8858:8859   */\n      0x00\n        /* \"#utility.yul\":8851:8866   */\n      revert\n        /* \"#utility.yul\":8878:9111   */\n    tag_61:\n        /* \"#utility.yul\":8917:8920   */\n      0x00\n        /* \"#utility.yul\":8940:8964   */\n      tag_286\n        /* \"#utility.yul\":8958:8963   */\n      dup3\n        /* \"#utility.yul\":8940:8964   */\n      tag_163\n      jump\t// in\n    tag_286:\n        /* \"#utility.yul\":8931:8964   */\n      swap2\n      pop\n        /* \"#utility.yul\":8986:9052   */\n      0xffffffffffffffffffffffffffffffffffffffffffffffffffffffffffffffff\n        /* \"#utility.yul\":8979:8984   */\n      dup3\n        /* \"#utility.yul\":8976:9053   */\n      sub\n        /* \"#utility.yul\":8973:9076   */\n      tag_287\n      jumpi\n        /* \"#utility.yul\":9056:9074   */\n      tag_288\n      tag_183\n      jump\t// in\n    tag_288:\n        /* \"#utility.yul\":8973:9076   */\n    tag_287:\n        /* \"#utility.yul\":9103:9104   */\n      0x01\n        /* \"#utility.yul\":9096:9101   */\n      dup3\n        /* \"#utility.yul\":9092:9105   */\n      add\n        /* \"#utility.yul\":9085:9105   */\n      swap1\n      pop\n        /* \"#utility.yul\":8878:9111   */\n      swap2\n      swap1\n      pop\n      jump\t// out\n        /* \"#utility.yul\":9117:9338   */\n    tag_184:\n        /* \"#utility.yul\":9257:9291   */\n      0x4f6e6c79206f776e65722063616e20706572666f726d20746869732061637469\n        /* \"#utility.yul\":9253:9254   */\n      0x00\n        /* \"#utility.yul\":9245:9251   */\n      dup3\n        /* \"#utility.yul\":9241:9255   */\n      add\n        /* \"#utility.yul\":9234:9292   */\n      mstore\n        /* \"#utility.yul\":9326:9330   */\n      0x6f6e000000000000000000000000000000000000000000000000000000000000\n        /* \"#utility.yul\":9321:9323   */\n      0x20\n        /* \"#utility.yul\":9313:9319   */\n      dup3\n        /* \"#utility.yul\":9309:9324   */\n      add\n        /* \"#utility.yul\":9302:9331   */\n      mstore\n        /* \"#utility.yul\":9117:9338   */\n      pop\n      jump\t// out\n        /* \"#utility.yul\":9344:9710   */\n    tag_185:\n        /* \"#utility.yul\":9486:9489   */\n      0x00\n        /* \"#utility.yul\":9507:9574   */\n      tag_291\n        /* \"#utility.yul\":9571:9573   */\n      0x22\n        /* \"#utility.yul\":9566:9569   */\n      dup4\n        /* \"#utility.yul\":9507:9574   */\n      tag_168\n      jump\t// in\n    tag_291:\n        /* \"#utility.yul\":9500:9574   */\n      swap2\n      pop\n        /* \"#utility.yul\":9583:9676   */\n      tag_292\n        /* \"#utility.yul\":9672:9675   */\n      dup3\n        /* \"#utility.yul\":9583:9676   */\n      tag_184\n      jump\t// in\n    tag_292:\n        /* \"#utility.yul\":9701:9703   */\n      0x40\n        /* \"#utility.yul\":9696:9699   */\n      dup3\n        /* \"#utility.yul\":9692:9704   */\n      add\n        /* \"#utility.yul\":9685:9704   */\n      swap1\n      pop\n        /* \"#utility.yul\":9344:9710   */\n      swap2\n      swap1\n      pop\n      jump\t// out\n        /* \"#utility.yul\":9716:10135   */\n    tag_66:\n        /* \"#utility.yul\":9882:9886   */\n      0x00\n        /* \"#utility.yul\":9920:9922   */\n      0x20\n        /* \"#utility.yul\":9909:9918   */\n      dup3\n        /* \"#utility.yul\":9905:9923   */\n      add\n        /* \"#utility.yul\":9897:9923   */\n      swap1\n      pop\n        /* \"#utility.yul\":9969:9978   */\n      dup2\n        /* \"#utility.yul\":9963:9967   */\n      dup2\n        /* \"#utility.yul\":9959:9979   */\n      sub\n        /* \"#utility.yul\":9955:9956   */\n      0x00\n        /* \"#utility.yul\":9944:9953   */\n      dup4\n        /* \"#utility.yul\":9940:9957   */\n      add\n        /* \"#utility.yul\":9933:9980   */\n      mstore\n        /* \"#utility.yul\":9997:10128   */\n      tag_294\n        /* \"#utility.yul\":10123:10127   */\n      dup2\n        /* \"#utility.yul\":9997:10128   */\n      tag_185\n      jump\t// in\n    tag_294:\n        /* \"#utility.yul\":9989:10128   */\n      swap1\n      pop\n        /* \"#utility.yul\":9716:10135   */\n      swap2\n      swap1\n      pop\n      jump\t// out\n        /* \"#utility.yul\":10141:10301   */\n    tag_186:\n        /* \"#utility.yul\":10281:10293   */\n      0x496e76616c696420494400000000000000000000000000000000000000000000\n        /* \"#utility.yul\":10277:10278   */\n      0x00\n        /* \"#utility.yul\":10269:10275   */\n      dup3\n        /* \"#utility.yul\":10265:10279   */\n      add\n        /* \"#utility.yul\":10258:10294   */\n      mstore\n        /* \"#utility.yul\":10141:10301   */\n      pop\n      jump\t// out\n        /* \"#utility.yul\":10307:10673   */\n    tag_187:\n        /* \"#utility.yul\":10449:10452   */\n      0x00\n        /* \"#utility.yul\":10470:10537   */\n      tag_297\n        /* \"#utility.yul\":10534:10536   */\n      0x0a\n        /* \"#utility.yul\":10529:10532   */\n      dup4\n        /* \"#utility.yul\":10470:10537   */\n      tag_168\n      jump\t// in\n    tag_297:\n        /* \"#utility.yul\":10463:10537   */\n      swap2\n      pop\n        /* \"#utility.yul\":10546:10639   */\n      tag_298\n        /* \"#utility.yul\":10635:10638   */\n      dup3\n        /* \"#utility.yul\":10546:10639   */\n      tag_186\n      jump\t// in\n    tag_298:\n        /* \"#utility.yul\":10664:10666   */\n      0x20\n        /* \"#utility.yul\":10659:10662   */\n      dup3\n        /* \"#utility.yul\":10655:10667   */\n      add\n        /* \"#utility.yul\":10648:10667   */\n      swap1\n      pop\n        /* \"#utility.yul\":10307:10673   */\n      swap2\n      swap1\n      pop\n      jump\t// out\n        /* \"#utility.yul\":10679:11098   */\n    tag_71:\n        /* \"#utility.yul\":10845:10849   */\n      0x00\n        /* \"#utility.yul\":10883:10885   */\n      0x20\n        /* \"#utility.yul\":10872:10881   */\n      dup3\n        /* \"#utility.yul\":10868:10886   */\n      add\n        /* \"#utility.yul\":10860:10886   */\n      swap1\n      pop\n        /* \"#utility.yul\":10932:10941   */\n      dup2\n        /* \"#utility.yul\":10926:10930   */\n      dup2\n        /* \"#utility.yul\":10922:10942   */\n      sub\n        /* \"#utility.yul\":10918:10919   */\n      0x00\n        /* \"#utility.yul\":10907:10916   */\n      dup4\n        /* \"#utility.yul\":10903:10920   */\n      add\n        /* \"#utility.yul\":10896:10943   */\n      mstore\n        /* \"#utility.yul\":10960:11091   */\n      tag_300\n        /* \"#utility.yul\":11086:11090   */\n      dup2\n        /* \"#utility.yul\":10960:11091   */\n      tag_187\n      jump\t// in\n    tag_300:\n        /* \"#utility.yul\":10952:11091   */\n      swap1\n      pop\n        /* \"#utility.yul\":10679:11098   */\n      swap2\n      swap1\n      pop\n      jump\t// out\n        /* \"#utility.yul\":11104:11284   */\n    tag_188:\n        /* \"#utility.yul\":11152:11229   */\n      0x4e487b7100000000000000000000000000000000000000000000000000000000\n        /* \"#utility.yul\":11149:11150   */\n      0x00\n        /* \"#utility.yul\":11142:11230   */\n      mstore\n        /* \"#utility.yul\":11249:11253   */\n      0x22\n        /* \"#utility.yul\":11246:11247   */\n      0x04\n        /* \"#utility.yul\":11239:11254   */\n      mstore\n        /* \"#utility.yul\":11273:11277   */\n      0x24\n        /* \"#utility.yul\":11270:11271   */\n      0x00\n        /* \"#utility.yul\":11263:11278   */\n      revert\n        /* \"#utility.yul\":11290:11610   */\n    tag_73:\n        /* \"#utility.yul\":11334:11340   */\n      0x00\n        /* \"#utility.yul\":11371:11372   */\n      0x02\n        /* \"#utility.yul\":11365:11369   */\n      dup3\n        /* \"#utility.yul\":11361:11373   */\n      div\n        /* \"#utility.yul\":11351:11373   */\n      swap1\n      pop\n        /* \"#utility.yul\":11418:11419   */\n      0x01\n        /* \"#utility.yul\":11412:11416   */\n      dup3\n        /* \"#utility.yul\":11408:11420   */\n      and\n        /* \"#utility.yul\":11439:11457   */\n      dup1\n        /* \"#utility.yul\":11429:11510   */\n      tag_303\n      jumpi\n        /* \"#utility.yul\":11495:11499   */\n      0x7f\n        /* \"#utility.yul\":11487:11493   */\n      dup3\n        /* \"#utility.yul\":11483:11500   */\n      and\n        /* \"#utility.yul\":11473:11500   */\n      swap2\n      pop\n        /* \"#utility.yul\":11429:11510   */\n    tag_303:\n        /* \"#utility.yul\":11557:11559   */\n      0x20\n        /* \"#utility.yul\":11549:11555   */\n      dup3\n        /* \"#utility.yul\":11546:11560   */\n      lt\n        /* \"#utility.yul\":11526:11544   */\n      dup2\n        /* \"#utility.yul\":11523:11561   */\n      sub\n        /* \"#utility.yul\":11520:11604   */\n      tag_304\n      jumpi\n        /* \"#utility.yul\":11576:11594   */\n      tag_305\n      tag_188\n      jump\t// in\n    tag_305:\n        /* \"#utility.yul\":11520:11604   */\n    tag_304:\n        /* \"#utility.yul\":11341:11610   */\n      pop\n        /* \"#utility.yul\":11290:11610   */\n      swap2\n      swap1\n      pop\n      jump\t// out\n        /* \"#utility.yul\":11616:11796   */\n    tag_109:\n        /* \"#utility.yul\":11664:11741   */\n      0x4e487b7100000000000000000000000000000000000000000000000000000000\n        /* \"#utility.yul\":11661:11662   */\n      0x00\n        /* \"#utility.yul\":11654:11742   */\n      mstore\n        /* \"#utility.yul\":11761:11765   */\n      0x32\n        /* \"#utility.yul\":11758:11759   */\n      0x04\n        /* \"#utility.yul\":11751:11766   */\n      mstore\n        /* \"#utility.yul\":11785:11789   */\n      0x24\n        /* \"#utility.yul\":11782:11783   */\n      0x00\n        /* \"#utility.yul\":11775:11790   */\n      revert\n        /* \"#utility.yul\":11802:11982   */\n    tag_189:\n        /* \"#utility.yul\":11850:11927   */\n      0x4e487b7100000000000000000000000000000000000000000000000000000000\n        /* \"#utility.yul\":11847:11848   */\n      0x00\n        /* \"#utility.yul\":11840:11928   */\n      mstore\n        /* \"#utility.yul\":11947:11951   */\n      0x41\n        /* \"#utility.yul\":11944:11945   */\n      0x04\n        /* \"#utility.yul\":11937:11952   */\n      mstore\n        /* \"#utility.yul\":11971:11975   */\n      0x24\n        /* \"#utility.yul\":11968:11969   */\n      0x00\n        /* \"#utility.yul\":11961:11976   */\n      revert\n        /* \"#utility.yul\":11988:12129   */\n    tag_190:\n        /* \"#utility.yul\":12037:12041   */\n      0x00\n        /* \"#utility.yul\":12060:12063   */\n      dup2\n        /* \"#utility.yul\":12052:12063   */\n      swap1\n      pop\n        /* \"#utility.yul\":12083:12086   */\n      dup2\n        /* \"#utility.yul\":12080:12081   */\n      0x00\n        /* \"#utility.yul\":12073:12087   */\n      mstore\n        /* \"#utility.yul\":12117:12121   */\n      0x20\n        /* \"#utility.yul\":12114:12115   */\n      0x00\n        /* \"#utility.yul\":12104:12122   */\n      keccak256\n        /* \"#utility.yul\":12096:12122   */\n      swap1\n      pop\n        /* \"#utility.yul\":11988:12129   */\n      swap2\n      swap1\n      pop\n      jump\t// out\n        /* \"#utility.yul\":12135:12228   */\n    tag_191:\n        /* \"#utility.yul\":12172:12178   */\n      0x00\n        /* \"#utility.yul\":12219:12221   */\n      0x20\n        /* \"#utility.yul\":12214:12216   */\n      0x1f\n        /* \"#utility.yul\":12207:12212   */\n      dup4\n        /* \"#utility.yul\":12203:12217   */\n      add\n        /* \"#utility.yul\":12199:12222   */\n      div\n        /* \"#utility.yul\":12189:12222   */\n      swap1\n      pop\n        /* \"#utility.yul\":12135:12228   */\n      swap2\n      swap1\n      pop\n      jump\t// out\n        /* \"#utility.yul\":12234:12341   */\n    tag_192:\n        /* \"#utility.yul\":12278:12286   */\n      0x00\n        /* \"#utility.yul\":12328:12333   */\n      dup3\n        /* \"#utility.yul\":12322:12326   */\n      dup3\n        /* \"#utility.yul\":12318:12334   */\n      shl\n        /* \"#utility.yul\":12297:12334   */\n      swap1\n      pop\n        /* \"#utility.yul\":12234:12341   */\n      swap3\n      swap2\n      pop\n      pop\n      jump\t// out\n        /* \"#utility.yul\":12347:12740   */\n    tag_193:\n        /* \"#utility.yul\":12416:12422   */\n      0x00\n        /* \"#utility.yul\":12466:12467   */\n      0x08\n        /* \"#utility.yul\":12454:12464   */\n      dup4\n        /* \"#utility.yul\":12450:12468   */\n      mul\n        /* \"#utility.yul\":12489:12586   */\n      tag_312\n        /* \"#utility.yul\":12519:12585   */\n      0xffffffffffffffffffffffffffffffffffffffffffffffffffffffffffffffff\n        /* \"#utility.yul\":12508:12517   */\n      dup3\n        /* \"#utility.yul\":12489:12586   */\n      tag_192\n      jump\t// in\n    tag_312:\n        /* \"#utility.yul\":12607:12646   */\n      tag_313\n        /* \"#utility.yul\":12637:12645   */\n      dup7\n        /* \"#utility.yul\":12626:12635   */\n      dup4\n        /* \"#utility.yul\":12607:12646   */\n      tag_192\n      jump\t// in\n    tag_313:\n        /* \"#utility.yul\":12595:12646   */\n      swap6\n      pop\n        /* \"#utility.yul\":12679:12683   */\n      dup1\n        /* \"#utility.yul\":12675:12684   */\n      not\n        /* \"#utility.yul\":12668:12673   */\n      dup5\n        /* \"#utility.yul\":12664:12685   */\n      and\n        /* \"#utility.yul\":12655:12685   */\n      swap4\n      pop\n        /* \"#utility.yul\":12728:12732   */\n      dup1\n        /* \"#utility.yul\":12718:12726   */\n      dup7\n        /* \"#utility.yul\":12714:12733   */\n      and\n        /* \"#utility.yul\":12707:12712   */\n      dup5\n        /* \"#utility.yul\":12704:12734   */\n      or\n        /* \"#utility.yul\":12694:12734   */\n      swap3\n      pop\n        /* \"#utility.yul\":12423:12740   */\n      pop\n      pop\n        /* \"#utility.yul\":12347:12740   */\n      swap4\n      swap3\n      pop\n      pop\n      pop\n      jump\t// out\n        /* \"#utility.yul\":12746:12806   */\n    tag_194:\n        /* \"#utility.yul\":12774:12777   */\n      0x00\n        /* \"#utility.yul\":12795:12800   */\n      dup2\n        /* \"#utility.yul\":12788:12800   */\n      swap1\n      pop\n        /* \"#utility.yul\":12746:12806   */\n      swap2\n      swap1\n      pop\n      jump\t// out\n        /* \"#utility.yul\":12812:12954   */\n    tag_195:\n        /* \"#utility.yul\":12862:12871   */\n      0x00\n        /* \"#utility.yul\":12895:12948   */\n      tag_316\n        /* \"#utility.yul\":12913:12947   */\n      tag_317\n        /* \"#utility.yul\":12922:12946   */\n      tag_318\n        /* \"#utility.yul\":12940:12945   */\n      dup5\n        /* \"#utility.yul\":12922:12946   */\n      tag_163\n      jump\t// in\n    tag_318:\n        /* \"#utility.yul\":12913:12947   */\n      tag_194\n      jump\t// in\n    tag_317:\n        /* \"#utility.yul\":12895:12948   */\n      tag_163\n      jump\t// in\n    tag_316:\n        /* \"#utility.yul\":12882:12948   */\n      swap1\n      pop\n        /* \"#utility.yul\":12812:12954   */\n      swap2\n      swap1\n      pop\n      jump\t// out\n        /* \"#utility.yul\":12960:13035   */\n    tag_196:\n        /* \"#utility.yul\":13003:13006   */\n      0x00\n        /* \"#utility.yul\":13024:13029   */\n      dup2\n        /* \"#utility.yul\":13017:13029   */\n      swap1\n      pop\n        /* \"#utility.yul\":12960:13035   */\n      swap2\n      swap1\n      pop\n      jump\t// out\n        /* \"#utility.yul\":13041:13310   */\n    tag_197:\n        /* \"#utility.yul\":13151:13190   */\n      tag_321\n        /* \"#utility.yul\":13182:13189   */\n      dup4\n        /* \"#utility.yul\":13151:13190   */\n      tag_195\n      jump\t// in\n    tag_321:\n        /* \"#utility.yul\":13212:13303   */\n      tag_322\n        /* \"#utility.yul\":13261:13302   */\n      tag_323\n        /* \"#utility.yul\":13285:13301   */\n      dup3\n        /* \"#utility.yul\":13261:13302   */\n      tag_196\n      jump\t// in\n    tag_323:\n        /* \"#utility.yul\":13253:13259   */\n      dup5\n        /* \"#utility.yul\":13246:13250   */\n      dup5\n        /* \"#utility.yul\":13240:13251   */\n      sload\n        /* \"#utility.yul\":13212:13303   */\n      tag_193\n      jump\t// in\n    tag_322:\n        /* \"#utility.yul\":13206:13210   */\n      dup3\n        /* \"#utility.yul\":13199:13304   */\n      sstore\n        /* \"#utility.yul\":13117:13310   */\n      pop\n        /* \"#utility.yul\":13041:13310   */\n      pop\n      pop\n      pop\n      jump\t// out\n        /* \"#utility.yul\":13316:13389   */\n    tag_198:\n        /* \"#utility.yul\":13361:13364   */\n      0x00\n        /* \"#utility.yul\":13316:13389   */\n      swap1\n      jump\t// out\n        /* \"#utility.yul\":13395:13584   */\n    tag_199:\n        /* \"#utility.yul\":13472:13504   */\n      tag_326\n      tag_198\n      jump\t// in\n    tag_326:\n        /* \"#utility.yul\":13513:13578   */\n      tag_327\n        /* \"#utility.yul\":13571:13577   */\n      dup2\n        /* \"#utility.yul\":13563:13569   */\n      dup5\n        /* \"#utility.yul\":13557:13561   */\n      dup5\n        /* \"#utility.yul\":13513:13578   */\n      tag_197\n      jump\t// in\n    tag_327:\n        /* \"#utility.yul\":13448:13584   */\n      pop\n        /* \"#utility.yul\":13395:13584   */\n      pop\n      pop\n      jump\t// out\n        /* \"#utility.yul\":13590:13776   */\n    tag_200:\n        /* \"#utility.yul\":13650:13770   */\n    tag_329:\n        /* \"#utility.yul\":13667:13670   */\n      dup2\n        /* \"#utility.yul\":13660:13665   */\n      dup2\n        /* \"#utility.yul\":13657:13671   */\n      lt\n        /* \"#utility.yul\":13650:13770   */\n      iszero\n      tag_331\n      jumpi\n        /* \"#utility.yul\":13721:13760   */\n      tag_332\n        /* \"#utility.yul\":13758:13759   */\n      0x00\n        /* \"#utility.yul\":13751:13756   */\n      dup3\n        /* \"#utility.yul\":13721:13760   */\n      tag_199\n      jump\t// in\n    tag_332:\n        /* \"#utility.yul\":13694:13695   */\n      0x01\n        /* \"#utility.yul\":13687:13692   */\n      dup2\n        /* \"#utility.yul\":13683:13696   */\n      add\n        /* \"#utility.yul\":13674:13696   */\n      swap1\n      pop\n        /* \"#utility.yul\":13650:13770   */\n      jump(tag_329)\n    tag_331:\n        /* \"#utility.yul\":13590:13776   */\n      pop\n      pop\n      jump\t// out\n        /* \"#utility.yul\":13782:14325   */\n    tag_201:\n        /* \"#utility.yul\":13883:13885   */\n      0x1f\n        /* \"#utility.yul\":13878:13881   */\n      dup3\n        /* \"#utility.yul\":13875:13886   */\n      gt\n        /* \"#utility.yul\":13872:14318   */\n      iszero\n      tag_334\n      jumpi\n        /* \"#utility.yul\":13917:13955   */\n      tag_335\n        /* \"#utility.yul\":13949:13954   */\n      dup2\n        /* \"#utility.yul\":13917:13955   */\n      tag_190\n      jump\t// in\n    tag_335:\n        /* \"#utility.yul\":14001:14030   */\n      tag_336\n        /* \"#utility.yul\":14019:14029   */\n      dup5\n        /* \"#utility.yul\":14001:14030   */\n      tag_191\n      jump\t// in\n    tag_336:\n        /* \"#utility.yul\":13991:13999   */\n      dup2\n        /* \"#utility.yul\":13987:14031   */\n      add\n        /* \"#utility.yul\":14184:14186   */\n      0x20\n        /* \"#utility.yul\":14172:14182   */\n      dup6\n        /* \"#utility.yul\":14169:14187   */\n      lt\n        /* \"#utility.yul\":14166:14215   */\n      iszero\n      tag_337\n      jumpi\n        /* \"#utility.yul\":14205:14213   */\n      dup2\n        /* \"#utility.yul\":14190:14213   */\n      swap1\n      pop\n        /* \"#utility.yul\":14166:14215   */\n    tag_337:\n        /* \"#utility.yul\":14228:14308   */\n      tag_338\n        /* \"#utility.yul\":14284:14306   */\n      tag_339\n        /* \"#utility.yul\":14302:14305   */\n      dup6\n        /* \"#utility.yul\":14284:14306   */\n      tag_191\n      jump\t// in\n    tag_339:\n        /* \"#utility.yul\":14274:14282   */\n      dup4\n        /* \"#utility.yul\":14270:14307   */\n      add\n        /* \"#utility.yul\":14257:14268   */\n      dup3\n        /* \"#utility.yul\":14228:14308   */\n      tag_200\n      jump\t// in\n    tag_338:\n        /* \"#utility.yul\":13887:14318   */\n      pop\n      pop\n        /* \"#utility.yul\":13872:14318   */\n    tag_334:\n        /* \"#utility.yul\":13782:14325   */\n      pop\n      pop\n      pop\n      jump\t// out\n        /* \"#utility.yul\":14331:14448   */\n    tag_202:\n        /* \"#utility.yul\":14385:14393   */\n      0x00\n        /* \"#utility.yul\":14435:14440   */\n      dup3\n        /* \"#utility.yul\":14429:14433   */\n      dup3\n        /* \"#utility.yul\":14425:14441   */\n      shr\n        /* \"#utility.yul\":14404:14441   */\n      swap1\n      pop\n        /* \"#utility.yul\":14331:14448   */\n      swap3\n      swap2\n      pop\n      pop\n      jump\t// out\n        /* \"#utility.yul\":14454:14623   */\n    tag_203:\n        /* \"#utility.yul\":14498:14504   */\n      0x00\n        /* \"#utility.yul\":14531:14582   */\n      tag_342\n        /* \"#utility.yul\":14579:14580   */\n      0x00\n        /* \"#utility.yul\":14575:14581   */\n      not\n        /* \"#utility.yul\":14567:14572   */\n      dup5\n        /* \"#utility.yul\":14564:14565   */\n      0x08\n        /* \"#utility.yul\":14560:14573   */\n      mul\n        /* \"#utility.yul\":14531:14582   */\n      tag_202\n      jump\t// in\n    tag_342:\n        /* \"#utility.yul\":14527:14583   */\n      not\n        /* \"#utility.yul\":14612:14616   */\n      dup1\n        /* \"#utility.yul\":14606:14610   */\n      dup4\n        /* \"#utility.yul\":14602:14617   */\n      and\n        /* \"#utility.yul\":14592:14617   */\n      swap2\n      pop\n        /* \"#utility.yul\":14505:14623   */\n      pop\n        /* \"#utility.yul\":14454:14623   */\n      swap3\n      swap2\n      pop\n      pop\n      jump\t// out\n        /* \"#utility.yul\":14628:14923   */\n    tag_204:\n        /* \"#utility.yul\":14704:14708   */\n      0x00\n        /* \"#utility.yul\":14850:14879   */\n      tag_344\n        /* \"#utility.yul\":14875:14878   */\n      dup4\n        /* \"#utility.yul\":14869:14873   */\n      dup4\n        /* \"#utility.yul\":14850:14879   */\n      tag_203\n      jump\t// in\n    tag_344:\n        /* \"#utility.yul\":14842:14879   */\n      swap2\n      pop\n        /* \"#utility.yul\":14912:14915   */\n      dup3\n        /* \"#utility.yul\":14909:14910   */\n      0x02\n        /* \"#utility.yul\":14905:14916   */\n      mul\n        /* \"#utility.yul\":14899:14903   */\n      dup3\n        /* \"#utility.yul\":14896:14917   */\n      or\n        /* \"#utility.yul\":14888:14917   */\n      swap1\n      pop\n        /* \"#utility.yul\":14628:14923   */\n      swap3\n      swap2\n      pop\n      pop\n      jump\t// out\n        /* \"#utility.yul\":14928:16323   */\n    tag_112:\n        /* \"#utility.yul\":15045:15082   */\n      tag_346\n        /* \"#utility.yul\":15078:15081   */\n      dup3\n        /* \"#utility.yul\":15045:15082   */\n      tag_167\n      jump\t// in\n    tag_346:\n        /* \"#utility.yul\":15147:15165   */\n      0xffffffffffffffff\n        /* \"#utility.yul\":15139:15145   */\n      dup2\n        /* \"#utility.yul\":15136:15166   */\n      gt\n        /* \"#utility.yul\":15133:15189   */\n      iszero\n      tag_347\n      jumpi\n        /* \"#utility.yul\":15169:15187   */\n      tag_348\n      tag_189\n      jump\t// in\n    tag_348:\n        /* \"#utility.yul\":15133:15189   */\n    tag_347:\n        /* \"#utility.yul\":15213:15251   */\n      tag_349\n        /* \"#utility.yul\":15245:15249   */\n      dup3\n        /* \"#utility.yul\":15239:15250   */\n      sload\n        /* \"#utility.yul\":15213:15251   */\n      tag_73\n      jump\t// in\n    tag_349:\n        /* \"#utility.yul\":15298:15365   */\n      tag_350\n        /* \"#utility.yul\":15358:15364   */\n      dup3\n        /* \"#utility.yul\":15350:15356   */\n      dup3\n        /* \"#utility.yul\":15344:15348   */\n      dup6\n        /* \"#utility.yul\":15298:15365   */\n      tag_201\n      jump\t// in\n    tag_350:\n        /* \"#utility.yul\":15392:15393   */\n      0x00\n        /* \"#utility.yul\":15416:15420   */\n      0x20\n        /* \"#utility.yul\":15403:15420   */\n      swap1\n      pop\n        /* \"#utility.yul\":15448:15450   */\n      0x1f\n        /* \"#utility.yul\":15440:15446   */\n      dup4\n        /* \"#utility.yul\":15437:15451   */\n      gt\n        /* \"#utility.yul\":15465:15466   */\n      0x01\n        /* \"#utility.yul\":15460:16078   */\n      dup2\n      eq\n      tag_352\n      jumpi\n        /* \"#utility.yul\":16122:16123   */\n      0x00\n        /* \"#utility.yul\":16139:16145   */\n      dup5\n        /* \"#utility.yul\":16136:16213   */\n      iszero\n      tag_353\n      jumpi\n        /* \"#utility.yul\":16188:16197   */\n      dup3\n        /* \"#utility.yul\":16183:16186   */\n      dup8\n        /* \"#utility.yul\":16179:16198   */\n      add\n        /* \"#utility.yul\":16173:16199   */\n      mload\n        /* \"#utility.yul\":16164:16199   */\n      swap1\n      pop\n        /* \"#utility.yul\":16136:16213   */\n    tag_353:\n        /* \"#utility.yul\":16239:16306   */\n      tag_354\n        /* \"#utility.yul\":16299:16305   */\n      dup6\n        /* \"#utility.yul\":16292:16297   */\n      dup3\n        /* \"#utility.yul\":16239:16306   */\n      tag_204\n      jump\t// in\n    tag_354:\n        /* \"#utility.yul\":16233:16237   */\n      dup7\n        /* \"#utility.yul\":16226:16307   */\n      sstore\n        /* \"#utility.yul\":16095:16317   */\n      pop\n        /* \"#utility.yul\":15430:16317   */\n      jump(tag_351)\n        /* \"#utility.yul\":15460:16078   */\n    tag_352:\n        /* \"#utility.yul\":15512:15516   */\n      0x1f\n        /* \"#utility.yul\":15508:15517   */\n      not\n        /* \"#utility.yul\":15500:15506   */\n      dup5\n        /* \"#utility.yul\":15496:15518   */\n      and\n        /* \"#utility.yul\":15546:15583   */\n      tag_355\n        /* \"#utility.yul\":15578:15582   */\n      dup7\n        /* \"#utility.yul\":15546:15583   */\n      tag_190\n      jump\t// in\n    tag_355:\n        /* \"#utility.yul\":15605:15606   */\n      0x00\n        /* \"#utility.yul\":15619:15827   */\n    tag_356:\n        /* \"#utility.yul\":15633:15640   */\n      dup3\n        /* \"#utility.yul\":15630:15631   */\n      dup2\n        /* \"#utility.yul\":15627:15641   */\n      lt\n        /* \"#utility.yul\":15619:15827   */\n      iszero\n      tag_358\n      jumpi\n        /* \"#utility.yul\":15712:15721   */\n      dup5\n        /* \"#utility.yul\":15707:15710   */\n      dup10\n        /* \"#utility.yul\":15703:15722   */\n      add\n        /* \"#utility.yul\":15697:15723   */\n      mload\n        /* \"#utility.yul\":15689:15695   */\n      dup3\n        /* \"#utility.yul\":15682:15724   */\n      sstore\n        /* \"#utility.yul\":15763:15764   */\n      0x01\n        /* \"#utility.yul\":15755:15761   */\n      dup3\n        /* \"#utility.yul\":15751:15765   */\n      add\n        /* \"#utility.yul\":15741:15765   */\n      swap2\n      pop\n        /* \"#utility.yul\":15810:15812   */\n      0x20\n        /* \"#utility.yul\":15799:15808   */\n      dup6\n        /* \"#utility.yul\":15795:15813   */\n      add\n        /* \"#utility.yul\":15782:15813   */\n      swap5\n      pop\n        /* \"#utility.yul\":15656:15660   */\n      0x20\n        /* \"#utility.yul\":15653:15654   */\n      dup2\n        /* \"#utility.yul\":15649:15661   */\n      add\n        /* \"#utility.yul\":15644:15661   */\n      swap1\n      pop\n        /* \"#utility.yul\":15619:15827   */\n      jump(tag_356)\n    tag_358:\n        /* \"#utility.yul\":15855:15861   */\n      dup7\n        /* \"#utility.yul\":15846:15853   */\n      dup4\n        /* \"#utility.yul\":15843:15862   */\n      lt\n        /* \"#utility.yul\":15840:16019   */\n      iszero\n      tag_359\n      jumpi\n        /* \"#utility.yul\":15913:15922   */\n      dup5\n        /* \"#utility.yul\":15908:15911   */\n      dup10\n        /* \"#utility.yul\":15904:15923   */\n      add\n        /* \"#utility.yul\":15898:15924   */\n      mload\n        /* \"#utility.yul\":15956:16004   */\n      tag_360\n        /* \"#utility.yul\":15998:16002   */\n      0x1f\n        /* \"#utility.yul\":15990:15996   */\n      dup10\n        /* \"#utility.yul\":15986:16003   */\n      and\n        /* \"#utility.yul\":15975:15984   */\n      dup3\n        /* \"#utility.yul\":15956:16004   */\n      tag_203\n      jump\t// in\n    tag_360:\n        /* \"#utility.yul\":15948:15954   */\n      dup4\n        /* \"#utility.yul\":15941:16005   */\n      sstore\n        /* \"#utility.yul\":15863:16019   */\n      pop\n        /* \"#utility.yul\":15840:16019   */\n    tag_359:\n        /* \"#utility.yul\":16065:16066   */\n      0x01\n        /* \"#utility.yul\":16061:16062   */\n      0x02\n        /* \"#utility.yul\":16053:16059   */\n      dup9\n        /* \"#utility.yul\":16049:16063   */\n      mul\n        /* \"#utility.yul\":16045:16067   */\n      add\n        /* \"#utility.yul\":16039:16043   */\n      dup9\n        /* \"#utility.yul\":16032:16068   */\n      sstore\n        /* \"#utility.yul\":15467:16078   */\n      pop\n      pop\n      pop\n        /* \"#utility.yul\":15430:16317   */\n    tag_351:\n      pop\n        /* \"#utility.yul\":15020:16323   */\n      pop\n      pop\n      pop\n        /* \"#utility.yul\":14928:16323   */\n      pop\n      pop\n      jump\t// out\n        /* \"#utility.yul\":16329:17044   */\n    tag_122:\n        /* \"#utility.yul\":16538:16542   */\n      0x00\n        /* \"#utility.yul\":16576:16578   */\n      0x60\n        /* \"#utility.yul\":16565:16574   */\n      dup3\n        /* \"#utility.yul\":16561:16579   */\n      add\n        /* \"#utility.yul\":16553:16579   */\n      swap1\n      pop\n        /* \"#utility.yul\":16625:16634   */\n      dup2\n        /* \"#utility.yul\":16619:16623   */\n      dup2\n        /* \"#utility.yul\":16615:16635   */\n      sub\n        /* \"#utility.yul\":16611:16612   */\n      0x00\n        /* \"#utility.yul\":16600:16609   */\n      dup4\n        /* \"#utility.yul\":16596:16613   */\n      add\n        /* \"#utility.yul\":16589:16636   */\n      mstore\n        /* \"#utility.yul\":16653:16731   */\n      tag_362\n        /* \"#utility.yul\":16726:16730   */\n      dup2\n        /* \"#utility.yul\":16717:16723   */\n      dup7\n        /* \"#utility.yul\":16653:16731   */\n      tag_171\n      jump\t// in\n    tag_362:\n        /* \"#utility.yul\":16645:16731   */\n      swap1\n      pop\n        /* \"#utility.yul\":16778:16787   */\n      dup2\n        /* \"#utility.yul\":16772:16776   */\n      dup2\n        /* \"#utility.yul\":16768:16788   */\n      sub\n        /* \"#utility.yul\":16763:16765   */\n      0x20\n        /* \"#utility.yul\":16752:16761   */\n      dup4\n        /* \"#utility.yul\":16748:16766   */\n      add\n        /* \"#utility.yul\":16741:16789   */\n      mstore\n        /* \"#utility.yul\":16806:16884   */\n      tag_363\n        /* \"#utility.yul\":16879:16883   */\n      dup2\n        /* \"#utility.yul\":16870:16876   */\n      dup6\n        /* \"#utility.yul\":16806:16884   */\n      tag_171\n      jump\t// in\n    tag_363:\n        /* \"#utility.yul\":16798:16884   */\n      swap1\n      pop\n        /* \"#utility.yul\":16931:16940   */\n      dup2\n        /* \"#utility.yul\":16925:16929   */\n      dup2\n        /* \"#utility.yul\":16921:16941   */\n      sub\n        /* \"#utility.yul\":16916:16918   */\n      0x40\n        /* \"#utility.yul\":16905:16914   */\n      dup4\n        /* \"#utility.yul\":16901:16919   */\n      add\n        /* \"#utility.yul\":16894:16942   */\n      mstore\n        /* \"#utility.yul\":16959:17037   */\n      tag_364\n        /* \"#utility.yul\":17032:17036   */\n      dup2\n        /* \"#utility.yul\":17023:17029   */\n      dup5\n        /* \"#utility.yul\":16959:17037   */\n      tag_171\n      jump\t// in\n    tag_364:\n        /* \"#utility.yul\":16951:17037   */\n      swap1\n      pop\n        /* \"#utility.yul\":16329:17044   */\n      swap5\n      swap4\n      pop\n      pop\n      pop\n      pop\n      jump\t// out\n        /* \"#utility.yul\":17050:17223   */\n    tag_205:\n        /* \"#utility.yul\":17190:17215   */\n      0x526573756c74206e6f74206465636c6172656420796574000000000000000000\n        /* \"#utility.yul\":17186:17187   */\n      0x00\n        /* \"#utility.yul\":17178:17184   */\n      dup3\n        /* \"#utility.yul\":17174:17188   */\n      add\n        /* \"#utility.yul\":17167:17216   */\n      mstore\n        /* \"#utility.yul\":17050:17223   */\n      pop\n      jump\t// out\n        /* \"#utility.yul\":17229:17595   */\n    tag_206:\n        /* \"#utility.yul\":17371:17374   */\n      0x00\n        /* \"#utility.yul\":17392:17459   */\n      tag_367\n        /* \"#utility.yul\":17456:17458   */\n      0x17\n        /* \"#utility.yul\":17451:17454   */\n      dup4\n        /* \"#utility.yul\":17392:17459   */\n      tag_168\n      jump\t// in\n    tag_367:\n        /* \"#utility.yul\":17385:17459   */\n      swap2\n      pop\n        /* \"#utility.yul\":17468:17561   */\n      tag_368\n        /* \"#utility.yul\":17557:17560   */\n      dup3\n        /* \"#utility.yul\":17468:17561   */\n      tag_205\n      jump\t// in\n    tag_368:\n        /* \"#utility.yul\":17586:17588   */\n      0x20\n        /* \"#utility.yul\":17581:17584   */\n      dup3\n        /* \"#utility.yul\":17577:17589   */\n      add\n        /* \"#utility.yul\":17570:17589   */\n      swap1\n      pop\n        /* \"#utility.yul\":17229:17595   */\n      swap2\n      swap1\n      pop\n      jump\t// out\n        /* \"#utility.yul\":17601:18020   */\n    tag_135:\n        /* \"#utility.yul\":17767:17771   */\n      0x00\n        /* \"#utility.yul\":17805:17807   */\n      0x20\n        /* \"#utility.yul\":17794:17803   */\n      dup3\n        /* \"#utility.yul\":17790:17808   */\n      add\n        /* \"#utility.yul\":17782:17808   */\n      swap1\n      pop\n        /* \"#utility.yul\":17854:17863   */\n      dup2\n        /* \"#utility.yul\":17848:17852   */\n      dup2\n        /* \"#utility.yul\":17844:17864   */\n      sub\n        /* \"#utility.yul\":17840:17841   */\n      0x00\n        /* \"#utility.yul\":17829:17838   */\n      dup4\n        /* \"#utility.yul\":17825:17842   */\n      add\n        /* \"#utility.yul\":17818:17865   */\n      mstore\n        /* \"#utility.yul\":17882:18013   */\n      tag_370\n        /* \"#utility.yul\":18008:18012   */\n      dup2\n        /* \"#utility.yul\":17882:18013   */\n      tag_206\n      jump\t// in\n    tag_370:\n        /* \"#utility.yul\":17874:18013   */\n      swap1\n      pop\n        /* \"#utility.yul\":17601:18020   */\n      swap2\n      swap1\n      pop\n      jump\t// out\n\n    auxdata: 0xa264697066735822122092018b5d6178bd016ec2e0d58579f9e51fd37fa01231b6f2f8f29951903db10264736f6c63430008120033\n}\n",
				"bytecode": {
					"linkReferences": {},
					"object": "60806040523480156200001157600080fd5b50336000806101000a81548173ffffffffffffffffffffffffffffffffffffffff021916908373ffffffffffffffffffffffffffffffffffffffff160217905550620000986040518060400160405280601581526020017f42656e67616c757275202842616e67616c6f72652900000000000000000000008152506200017060201b60201c565b620000de6040518060400160405280600681526020017f4d6f68616c6900000000000000000000000000000000000000000000000000008152506200017060201b60201c565b620001246040518060400160405280600981526020017f48796465726162616400000000000000000000000000000000000000000000008152506200017060201b60201c565b6200016a6040518060400160405280601c81526020017f44656c68692d4e43522028477572756772616d2026204e6f69646129000000008152506200017060201b60201c565b620005cc565b60036000815480929190620001859062000228565b9190505550604051806060016040528060035481526020018281526020016000815250600160006003548152602001908152602001600020600082015181600001556020820151816001019081620001de9190620004e5565b506040820151816002015590505050565b7f4e487b7100000000000000000000000000000000000000000000000000000000600052601160045260246000fd5b6000819050919050565b600062000235826200021e565b91507fffffffffffffffffffffffffffffffffffffffffffffffffffffffffffffffff82036200026a5762000269620001ef565b5b600182019050919050565b600081519050919050565b7f4e487b7100000000000000000000000000000000000000000000000000000000600052604160045260246000fd5b7f4e487b7100000000000000000000000000000000000000000000000000000000600052602260045260246000fd5b60006002820490506001821680620002f757607f821691505b6020821081036200030d576200030c620002af565b5b50919050565b60008190508160005260206000209050919050565b60006020601f8301049050919050565b600082821b905092915050565b600060088302620003777fffffffffffffffffffffffffffffffffffffffffffffffffffffffffffffffff8262000338565b62000383868362000338565b95508019841693508086168417925050509392505050565b6000819050919050565b6000620003c6620003c0620003ba846200021e565b6200039b565b6200021e565b9050919050565b6000819050919050565b620003e283620003a5565b620003fa620003f182620003cd565b84845462000345565b825550505050565b600090565b6200041162000402565b6200041e818484620003d7565b505050565b5b8181101562000446576200043a60008262000407565b60018101905062000424565b5050565b601f82111562000495576200045f8162000313565b6200046a8462000328565b810160208510156200047a578190505b62000492620004898562000328565b83018262000423565b50505b505050565b600082821c905092915050565b6000620004ba600019846008026200049a565b1980831691505092915050565b6000620004d58383620004a7565b9150826002028217905092915050565b620004f08262000275565b67ffffffffffffffff8111156200050c576200050b62000280565b5b620005188254620002de565b620005258282856200044a565b600060209050601f8311600181146200055d576000841562000548578287015190505b620005548582620004c7565b865550620005c4565b601f1984166200056d8662000313565b60005b82811015620005975784890151825560018201915060208501945060208101905062000570565b86831015620005b75784890151620005b3601f891682620004a7565b8355505b6001600288020188555050505b505050505050565b6117d780620005dc6000396000f3fe608060405234801561001057600080fd5b50600436106100935760003560e01c80638574c296116100665780638574c29614610122578063865262991461012c5780638da5cb5b1461015d578063c6a02cc91461017b578063fdbc0b291461019957610093565b80630121b93f146100985780632d35a8a2146100b457806335b8e820146100d2578063793cf21814610104575b600080fd5b6100b260048036038101906100ad9190610e6b565b6101bf565b005b6100bc6103b9565b6040516100c99190610ea7565b60405180910390f35b6100ec60048036038101906100e79190610e6b565b6103bf565b6040516100fb93929190610f52565b60405180910390f35b61010c61058a565b6040516101199190610ea7565b60405180910390f35b61012a610623565b005b61014660048036038101906101419190610e6b565b610991565b604051610154929190610f90565b60405180910390f35b610165610ac2565b6040516101729190611001565b60405180910390f35b610183610ae6565b6040516101909190611037565b60405180910390f35b6101a1610af9565b6040516101b699989796959493929190611052565b60405180910390f35b600560009054906101000a900460ff161561020f576040517f08c379a000000000000000000000000000000000000000000000000000000000815260040161020690611140565b60405180910390fd5b600260003373ffffffffffffffffffffffffffffffffffffffff1673ffffffffffffffffffffffffffffffffffffffff16815260200190815260200160002060009054906101000a900460ff161561029c576040517f08c379a0000000000000000000000000000000000000000000000000000000008152600401610293906111ac565b60405180910390fd5b6000811180156102ae57506003548111155b6102ed576040517f08c379a00000000000000000000000000000000000000000000000000000000081526004016102e490611218565b60405180910390fd5b6001600260003373ffffffffffffffffffffffffffffffffffffffff1673ffffffffffffffffffffffffffffffffffffffff16815260200190815260200160002060006101000a81548160ff02191690831515021790555060016000828152602001908152602001600020600201600081548092919061036c90611267565b91905055506004600081548092919061038490611267565b9190505550807f7f511e347bf51eed3be100b3194247d5207f05f3b33de7d31e3e8ee73199a04960405160405180910390a250565b60035481565b6000606060008060009054906101000a900473ffffffffffffffffffffffffffffffffffffffff1673ffffffffffffffffffffffffffffffffffffffff163373ffffffffffffffffffffffffffffffffffffffff1614610454576040517f08c379a000000000000000000000000000000000000000000000000000000000815260040161044b90611321565b60405180910390fd5b60008411801561046657506003548411155b6104a5576040517f08c379a000000000000000000000000000000000000000000000000000000000815260040161049c9061138d565b60405180910390fd5b600060016000868152602001908152602001600020604051806060016040529081600082015481526020016001820180546104df906113dc565b80601f016020809104026020016040519081016040528092919081815260200182805461050b906113dc565b80156105585780601f1061052d57610100808354040283529160200191610558565b820191906000526020600020905b81548152906001019060200180831161053b57829003601f168201915b505050505081526020016002820154815250509050806000015181602001518260400151935093509350509193909250565b60008060009054906101000a900473ffffffffffffffffffffffffffffffffffffffff1673ffffffffffffffffffffffffffffffffffffffff163373ffffffffffffffffffffffffffffffffffffffff161461061b576040517f08c379a000000000000000000000000000000000000000000000000000000000815260040161061290611321565b60405180910390fd5b600454905090565b60008054906101000a900473ffffffffffffffffffffffffffffffffffffffff1673ffffffffffffffffffffffffffffffffffffffff163373ffffffffffffffffffffffffffffffffffffffff16146106b1576040517f08c379a00000000000000000000000000000000000000000000000000000000081526004016106a890611321565b60405180910390fd5b600560009054906101000a900460ff1615610701576040517f08c379a00000000000000000000000000000000000000000000000000000000081526004016106f890611140565b60405180910390fd5b610709610e0f565b610711610e0f565b610719610e0f565b6000600190505b60035481116108545760006001600083815260200190815260200160002060405180606001604052908160008201548152602001600182018054610763906113dc565b80601f016020809104026020016040519081016040528092919081815260200182805461078f906113dc565b80156107dc5780601f106107b1576101008083540402835291602001916107dc565b820191906000526020600020905b8154815290600101906020018083116107bf57829003601f168201915b50505050508152602001600282015481525050905084604001518160400151111561080f57839250849350809450610840565b83604001518160400151111561082a5783925080935061083f565b82604001518160400151111561083e578092505b5b5b50808061084c90611267565b915050610720565b5082600660006003811061086b5761086a61140d565b5b6003020160008201518160000155602082015181600101908161088e9190611617565b50604082015181600201559050508160066001600381106108b2576108b161140d565b5b600302016000820151816000015560208201518160010190816108d59190611617565b50604082015181600201559050508060066002600381106108f9576108f861140d565b5b6003020160008201518160000155602082015181600101908161091c9190611617565b50604082015181600201559050506001600560006101000a81548160ff0219169083151502179055507f1d56f04d58109dd7114a0821b58ac867fbae782e8937f942086716708170b336836020015183602001518360200151604051610984939291906116e9565b60405180910390a1505050565b600060606000831180156109a757506003548311155b6109e6576040517f08c379a00000000000000000000000000000000000000000000000000000000081526004016109dd9061138d565b60405180910390fd5b60006001600085815260200190815260200160002060405180606001604052908160008201548152602001600182018054610a20906113dc565b80601f0160208091040260200160405190810160405280929190818152602001828054610a4c906113dc565b8015610a995780601f10610a6e57610100808354040283529160200191610a99565b820191906000526020600020905b815481529060010190602001808311610a7c57829003601f168201915b505050505081526020016002820154815250509050806000015181602001519250925050915091565b60008054906101000a900473ffffffffffffffffffffffffffffffffffffffff1681565b600560009054906101000a900460ff1681565b60006060600080606060008060606000600560009054906101000a900460ff16610b58576040517f08c379a0000000000000000000000000000000000000000000000000000000008152600401610b4f90611781565b60405180910390fd5b60006006600060038110610b6f57610b6e61140d565b5b6003020160405180606001604052908160008201548152602001600182018054610b98906113dc565b80601f0160208091040260200160405190810160405280929190818152602001828054610bc4906113dc565b8015610c115780601f10610be657610100808354040283529160200191610c11565b820191906000526020600020905b815481529060010190602001808311610bf457829003601f168201915b50505050508152602001600282015481525050905060006006600160038110610c3d57610c3c61140d565b5b6003020160405180606001604052908160008201548152602001600182018054610c66906113dc565b80601f0160208091040260200160405190810160405280929190818152602001828054610c92906113dc565b8015610cdf5780601f10610cb457610100808354040283529160200191610cdf565b820191906000526020600020905b815481529060010190602001808311610cc257829003601f168201915b50505050508152602001600282015481525050905060006006600260038110610d0b57610d0a61140d565b5b6003020160405180606001604052908160008201548152602001600182018054610d34906113dc565b80601f0160208091040260200160405190810160405280929190818152602001828054610d60906113dc565b8015610dad5780601f10610d8257610100808354040283529160200191610dad565b820191906000526020600020905b815481529060010190602001808311610d9057829003601f168201915b5050505050815260200160028201548152505090508260000151836020015184604001518460000151856020015186604001518660000151876020015188604001519b509b509b509b509b509b509b509b509b50505050909192939495969798565b60405180606001604052806000815260200160608152602001600081525090565b600080fd5b6000819050919050565b610e4881610e35565b8114610e5357600080fd5b50565b600081359050610e6581610e3f565b92915050565b600060208284031215610e8157610e80610e30565b5b6000610e8f84828501610e56565b91505092915050565b610ea181610e35565b82525050565b6000602082019050610ebc6000830184610e98565b92915050565b600081519050919050565b600082825260208201905092915050565b60005b83811015610efc578082015181840152602081019050610ee1565b60008484015250505050565b6000601f19601f8301169050919050565b6000610f2482610ec2565b610f2e8185610ecd565b9350610f3e818560208601610ede565b610f4781610f08565b840191505092915050565b6000606082019050610f676000830186610e98565b8181036020830152610f798185610f19565b9050610f886040830184610e98565b949350505050565b6000604082019050610fa56000830185610e98565b8181036020830152610fb78184610f19565b90509392505050565b600073ffffffffffffffffffffffffffffffffffffffff82169050919050565b6000610feb82610fc0565b9050919050565b610ffb81610fe0565b82525050565b60006020820190506110166000830184610ff2565b92915050565b60008115159050919050565b6110318161101c565b82525050565b600060208201905061104c6000830184611028565b92915050565b600061012082019050611068600083018c610e98565b818103602083015261107a818b610f19565b9050611089604083018a610e98565b6110966060830189610e98565b81810360808301526110a88188610f19565b90506110b760a0830187610e98565b6110c460c0830186610e98565b81810360e08301526110d68185610f19565b90506110e6610100830184610e98565b9a9950505050505050505050565b7f526573756c7420616c7265616479206465636c61726564000000000000000000600082015250565b600061112a601783610ecd565b9150611135826110f4565b602082019050919050565b600060208201905081810360008301526111598161111d565b9050919050565b7f596f75206861766520616c726561647920766f74656400000000000000000000600082015250565b6000611196601683610ecd565b91506111a182611160565b602082019050919050565b600060208201905081810360008301526111c581611189565b9050919050565b7f496e76616c69642063616e646964617465204944000000000000000000000000600082015250565b6000611202601483610ecd565b915061120d826111cc565b602082019050919050565b60006020820190508181036000830152611231816111f5565b9050919050565b7f4e487b7100000000000000000000000000000000000000000000000000000000600052601160045260246000fd5b600061127282610e35565b91507fffffffffffffffffffffffffffffffffffffffffffffffffffffffffffffffff82036112a4576112a3611238565b5b600182019050919050565b7f4f6e6c79206f776e65722063616e20706572666f726d2074686973206163746960008201527f6f6e000000000000000000000000000000000000000000000000000000000000602082015250565b600061130b602283610ecd565b9150611316826112af565b604082019050919050565b6000602082019050818103600083015261133a816112fe565b9050919050565b7f496e76616c696420494400000000000000000000000000000000000000000000600082015250565b6000611377600a83610ecd565b915061138282611341565b602082019050919050565b600060208201905081810360008301526113a68161136a565b9050919050565b7f4e487b7100000000000000000000000000000000000000000000000000000000600052602260045260246000fd5b600060028204905060018216806113f457607f821691505b602082108103611407576114066113ad565b5b50919050565b7f4e487b7100000000000000000000000000000000000000000000000000000000600052603260045260246000fd5b7f4e487b7100000000000000000000000000000000000000000000000000000000600052604160045260246000fd5b60008190508160005260206000209050919050565b60006020601f8301049050919050565b600082821b905092915050565b6000600883026114cd7fffffffffffffffffffffffffffffffffffffffffffffffffffffffffffffffff82611490565b6114d78683611490565b95508019841693508086168417925050509392505050565b6000819050919050565b600061151461150f61150a84610e35565b6114ef565b610e35565b9050919050565b6000819050919050565b61152e836114f9565b61154261153a8261151b565b84845461149d565b825550505050565b600090565b61155761154a565b611562818484611525565b505050565b5b818110156115865761157b60008261154f565b600181019050611568565b5050565b601f8211156115cb5761159c8161146b565b6115a584611480565b810160208510156115b4578190505b6115c86115c085611480565b830182611567565b50505b505050565b600082821c905092915050565b60006115ee600019846008026115d0565b1980831691505092915050565b600061160783836115dd565b9150826002028217905092915050565b61162082610ec2565b67ffffffffffffffff8111156116395761163861143c565b5b61164382546113dc565b61164e82828561158a565b600060209050601f831160018114611681576000841561166f578287015190505b61167985826115fb565b8655506116e1565b601f19841661168f8661146b565b60005b828110156116b757848901518255600182019150602085019450602081019050611692565b868310156116d457848901516116d0601f8916826115dd565b8355505b6001600288020188555050505b505050505050565b600060608201905081810360008301526117038186610f19565b905081810360208301526117178185610f19565b9050818103604083015261172b8184610f19565b9050949350505050565b7f526573756c74206e6f74206465636c6172656420796574000000000000000000600082015250565b600061176b601783610ecd565b915061177682611735565b602082019050919050565b6000602082019050818103600083015261179a8161175e565b905091905056fea264697066735822122092018b5d6178bd016ec2e0d58579f9e51fd37fa01231b6f2f8f29951903db10264736f6c63430008120033",
					"opcodes": "PUSH1 0x80 PUSH1 0x40 MSTORE CALLVALUE DUP1 ISZERO PUSH3 0x11 JUMPI PUSH1 0x0 DUP1 REVERT JUMPDEST POP CALLER PUSH1 0x0 DUP1 PUSH2 0x100 EXP DUP2 SLOAD DUP2 PUSH20 0xFFFFFFFFFFFFFFFFFFFFFFFFFFFFFFFFFFFFFFFF MUL NOT AND SWAP1 DUP4 PUSH20 0xFFFFFFFFFFFFFFFFFFFFFFFFFFFFFFFFFFFFFFFF AND MUL OR SWAP1 SSTORE POP PUSH3 0x98 PUSH1 0x40 MLOAD DUP1 PUSH1 0x40 ADD PUSH1 0x40 MSTORE DUP1 PUSH1 0x15 DUP2 MSTORE PUSH1 0x20 ADD PUSH32 0x42656E67616C757275202842616E67616C6F7265290000000000000000000000 DUP2 MSTORE POP PUSH3 0x170 PUSH1 0x20 SHL PUSH1 0x20 SHR JUMP JUMPDEST PUSH3 0xDE PUSH1 0x40 MLOAD DUP1 PUSH1 0x40 ADD PUSH1 0x40 MSTORE DUP1 PUSH1 0x6 DUP2 MSTORE PUSH1 0x20 ADD PUSH32 0x4D6F68616C690000000000000000000000000000000000000000000000000000 DUP2 MSTORE POP PUSH3 0x170 PUSH1 0x20 SHL PUSH1 0x20 SHR JUMP JUMPDEST PUSH3 0x124 PUSH1 0x40 MLOAD DUP1 PUSH1 0x40 ADD PUSH1 0x40 MSTORE DUP1 PUSH1 0x9 DUP2 MSTORE PUSH1 0x20 ADD PUSH32 0x4879646572616261640000000000000000000000000000000000000000000000 DUP2 MSTORE POP PUSH3 0x170 PUSH1 0x20 SHL PUSH1 0x20 SHR JUMP JUMPDEST PUSH3 0x16A PUSH1 0x40 MLOAD DUP1 PUSH1 0x40 ADD PUSH1 0x40 MSTORE DUP1 PUSH1 0x1C DUP2 MSTORE PUSH1 0x20 ADD PUSH32 0x44656C68692D4E43522028477572756772616D2026204E6F6964612900000000 DUP2 MSTORE POP PUSH3 0x170 PUSH1 0x20 SHL PUSH1 0x20 SHR JUMP JUMPDEST PUSH3 0x5CC JUMP JUMPDEST PUSH1 0x3 PUSH1 0x0 DUP2 SLOAD DUP1 SWAP3 SWAP2 SWAP1 PUSH3 0x185 SWAP1 PUSH3 0x228 JUMP JUMPDEST SWAP2 SWAP1 POP SSTORE POP PUSH1 0x40 MLOAD DUP1 PUSH1 0x60 ADD PUSH1 0x40 MSTORE DUP1 PUSH1 0x3 SLOAD DUP2 MSTORE PUSH1 0x20 ADD DUP3 DUP2 MSTORE PUSH1 0x20 ADD PUSH1 0x0 DUP2 MSTORE POP PUSH1 0x1 PUSH1 0x0 PUSH1 0x3 SLOAD DUP2 MSTORE PUSH1 0x20 ADD SWAP1 DUP2 MSTORE PUSH1 0x20 ADD PUSH1 0x0 KECCAK256 PUSH1 0x0 DUP3 ADD MLOAD DUP2 PUSH1 0x0 ADD SSTORE PUSH1 0x20 DUP3 ADD MLOAD DUP2 PUSH1 0x1 ADD SWAP1 DUP2 PUSH3 0x1DE SWAP2 SWAP1 PUSH3 0x4E5 JUMP JUMPDEST POP PUSH1 0x40 DUP3 ADD MLOAD DUP2 PUSH1 0x2 ADD SSTORE SWAP1 POP POP POP JUMP JUMPDEST PUSH32 0x4E487B7100000000000000000000000000000000000000000000000000000000 PUSH1 0x0 MSTORE PUSH1 0x11 PUSH1 0x4 MSTORE PUSH1 0x24 PUSH1 0x0 REVERT JUMPDEST PUSH1 0x0 DUP2 SWAP1 POP SWAP2 SWAP1 POP JUMP JUMPDEST PUSH1 0x0 PUSH3 0x235 DUP3 PUSH3 0x21E JUMP JUMPDEST SWAP2 POP PUSH32 0xFFFFFFFFFFFFFFFFFFFFFFFFFFFFFFFFFFFFFFFFFFFFFFFFFFFFFFFFFFFFFFFF DUP3 SUB PUSH3 0x26A JUMPI PUSH3 0x269 PUSH3 0x1EF JUMP JUMPDEST JUMPDEST PUSH1 0x1 DUP3 ADD SWAP1 POP SWAP2 SWAP1 POP JUMP JUMPDEST PUSH1 0x0 DUP2 MLOAD SWAP1 POP SWAP2 SWAP1 POP JUMP JUMPDEST PUSH32 0x4E487B7100000000000000000000000000000000000000000000000000000000 PUSH1 0x0 MSTORE PUSH1 0x41 PUSH1 0x4 MSTORE PUSH1 0x24 PUSH1 0x0 REVERT JUMPDEST PUSH32 0x4E487B7100000000000000000000000000000000000000000000000000000000 PUSH1 0x0 MSTORE PUSH1 0x22 PUSH1 0x4 MSTORE PUSH1 0x24 PUSH1 0x0 REVERT JUMPDEST PUSH1 0x0 PUSH1 0x2 DUP3 DIV SWAP1 POP PUSH1 0x1 DUP3 AND DUP1 PUSH3 0x2F7 JUMPI PUSH1 0x7F DUP3 AND SWAP2 POP JUMPDEST PUSH1 0x20 DUP3 LT DUP2 SUB PUSH3 0x30D JUMPI PUSH3 0x30C PUSH3 0x2AF JUMP JUMPDEST JUMPDEST POP SWAP2 SWAP1 POP JUMP JUMPDEST PUSH1 0x0 DUP2 SWAP1 POP DUP2 PUSH1 0x0 MSTORE PUSH1 0x20 PUSH1 0x0 KECCAK256 SWAP1 POP SWAP2 SWAP1 POP JUMP JUMPDEST PUSH1 0x0 PUSH1 0x20 PUSH1 0x1F DUP4 ADD DIV SWAP1 POP SWAP2 SWAP1 POP JUMP JUMPDEST PUSH1 0x0 DUP3 DUP3 SHL SWAP1 POP SWAP3 SWAP2 POP POP JUMP JUMPDEST PUSH1 0x0 PUSH1 0x8 DUP4 MUL PUSH3 0x377 PUSH32 0xFFFFFFFFFFFFFFFFFFFFFFFFFFFFFFFFFFFFFFFFFFFFFFFFFFFFFFFFFFFFFFFF DUP3 PUSH3 0x338 JUMP JUMPDEST PUSH3 0x383 DUP7 DUP4 PUSH3 0x338 JUMP JUMPDEST SWAP6 POP DUP1 NOT DUP5 AND SWAP4 POP DUP1 DUP7 AND DUP5 OR SWAP3 POP POP POP SWAP4 SWAP3 POP POP POP JUMP JUMPDEST PUSH1 0x0 DUP2 SWAP1 POP SWAP2 SWAP1 POP JUMP JUMPDEST PUSH1 0x0 PUSH3 0x3C6 PUSH3 0x3C0 PUSH3 0x3BA DUP5 PUSH3 0x21E JUMP JUMPDEST PUSH3 0x39B JUMP JUMPDEST PUSH3 0x21E JUMP JUMPDEST SWAP1 POP SWAP2 SWAP1 POP JUMP JUMPDEST PUSH1 0x0 DUP2 SWAP1 POP SWAP2 SWAP1 POP JUMP JUMPDEST PUSH3 0x3E2 DUP4 PUSH3 0x3A5 JUMP JUMPDEST PUSH3 0x3FA PUSH3 0x3F1 DUP3 PUSH3 0x3CD JUMP JUMPDEST DUP5 DUP5 SLOAD PUSH3 0x345 JUMP JUMPDEST DUP3 SSTORE POP POP POP POP JUMP JUMPDEST PUSH1 0x0 SWAP1 JUMP JUMPDEST PUSH3 0x411 PUSH3 0x402 JUMP JUMPDEST PUSH3 0x41E DUP2 DUP5 DUP5 PUSH3 0x3D7 JUMP JUMPDEST POP POP POP JUMP JUMPDEST JUMPDEST DUP2 DUP2 LT ISZERO PUSH3 0x446 JUMPI PUSH3 0x43A PUSH1 0x0 DUP3 PUSH3 0x407 JUMP JUMPDEST PUSH1 0x1 DUP2 ADD SWAP1 POP PUSH3 0x424 JUMP JUMPDEST POP POP JUMP JUMPDEST PUSH1 0x1F DUP3 GT ISZERO PUSH3 0x495 JUMPI PUSH3 0x45F DUP2 PUSH3 0x313 JUMP JUMPDEST PUSH3 0x46A DUP5 PUSH3 0x328 JUMP JUMPDEST DUP2 ADD PUSH1 0x20 DUP6 LT ISZERO PUSH3 0x47A JUMPI DUP2 SWAP1 POP JUMPDEST PUSH3 0x492 PUSH3 0x489 DUP6 PUSH3 0x328 JUMP JUMPDEST DUP4 ADD DUP3 PUSH3 0x423 JUMP JUMPDEST POP POP JUMPDEST POP POP POP JUMP JUMPDEST PUSH1 0x0 DUP3 DUP3 SHR SWAP1 POP SWAP3 SWAP2 POP POP JUMP JUMPDEST PUSH1 0x0 PUSH3 0x4BA PUSH1 0x0 NOT DUP5 PUSH1 0x8 MUL PUSH3 0x49A JUMP JUMPDEST NOT DUP1 DUP4 AND SWAP2 POP POP SWAP3 SWAP2 POP POP JUMP JUMPDEST PUSH1 0x0 PUSH3 0x4D5 DUP4 DUP4 PUSH3 0x4A7 JUMP JUMPDEST SWAP2 POP DUP3 PUSH1 0x2 MUL DUP3 OR SWAP1 POP SWAP3 SWAP2 POP POP JUMP JUMPDEST PUSH3 0x4F0 DUP3 PUSH3 0x275 JUMP JUMPDEST PUSH8 0xFFFFFFFFFFFFFFFF DUP2 GT ISZERO PUSH3 0x50C JUMPI PUSH3 0x50B PUSH3 0x280 JUMP JUMPDEST JUMPDEST PUSH3 0x518 DUP3 SLOAD PUSH3 0x2DE JUMP JUMPDEST PUSH3 0x525 DUP3 DUP3 DUP6 PUSH3 0x44A JUMP JUMPDEST PUSH1 0x0 PUSH1 0x20 SWAP1 POP PUSH1 0x1F DUP4 GT PUSH1 0x1 DUP2 EQ PUSH3 0x55D JUMPI PUSH1 0x0 DUP5 ISZERO PUSH3 0x548 JUMPI DUP3 DUP8 ADD MLOAD SWAP1 POP JUMPDEST PUSH3 0x554 DUP6 DUP3 PUSH3 0x4C7 JUMP JUMPDEST DUP7 SSTORE POP PUSH3 0x5C4 JUMP JUMPDEST PUSH1 0x1F NOT DUP5 AND PUSH3 0x56D DUP7 PUSH3 0x313 JUMP JUMPDEST PUSH1 0x0 JUMPDEST DUP3 DUP2 LT ISZERO PUSH3 0x597 JUMPI DUP5 DUP10 ADD MLOAD DUP3 SSTORE PUSH1 0x1 DUP3 ADD SWAP2 POP PUSH1 0x20 DUP6 ADD SWAP5 POP PUSH1 0x20 DUP2 ADD SWAP1 POP PUSH3 0x570 JUMP JUMPDEST DUP7 DUP4 LT ISZERO PUSH3 0x5B7 JUMPI DUP5 DUP10 ADD MLOAD PUSH3 0x5B3 PUSH1 0x1F DUP10 AND DUP3 PUSH3 0x4A7 JUMP JUMPDEST DUP4 SSTORE POP JUMPDEST PUSH1 0x1 PUSH1 0x2 DUP9 MUL ADD DUP9 SSTORE POP POP POP JUMPDEST POP POP POP POP POP POP JUMP JUMPDEST PUSH2 0x17D7 DUP1 PUSH3 0x5DC PUSH1 0x0 CODECOPY PUSH1 0x0 RETURN INVALID PUSH1 0x80 PUSH1 0x40 MSTORE CALLVALUE DUP1 ISZERO PUSH2 0x10 JUMPI PUSH1 0x0 DUP1 REVERT JUMPDEST POP PUSH1 0x4 CALLDATASIZE LT PUSH2 0x93 JUMPI PUSH1 0x0 CALLDATALOAD PUSH1 0xE0 SHR DUP1 PUSH4 0x8574C296 GT PUSH2 0x66 JUMPI DUP1 PUSH4 0x8574C296 EQ PUSH2 0x122 JUMPI DUP1 PUSH4 0x86526299 EQ PUSH2 0x12C JUMPI DUP1 PUSH4 0x8DA5CB5B EQ PUSH2 0x15D JUMPI DUP1 PUSH4 0xC6A02CC9 EQ PUSH2 0x17B JUMPI DUP1 PUSH4 0xFDBC0B29 EQ PUSH2 0x199 JUMPI PUSH2 0x93 JUMP JUMPDEST DUP1 PUSH4 0x121B93F EQ PUSH2 0x98 JUMPI DUP1 PUSH4 0x2D35A8A2 EQ PUSH2 0xB4 JUMPI DUP1 PUSH4 0x35B8E820 EQ PUSH2 0xD2 JUMPI DUP1 PUSH4 0x793CF218 EQ PUSH2 0x104 JUMPI JUMPDEST PUSH1 0x0 DUP1 REVERT JUMPDEST PUSH2 0xB2 PUSH1 0x4 DUP1 CALLDATASIZE SUB DUP2 ADD SWAP1 PUSH2 0xAD SWAP2 SWAP1 PUSH2 0xE6B JUMP JUMPDEST PUSH2 0x1BF JUMP JUMPDEST STOP JUMPDEST PUSH2 0xBC PUSH2 0x3B9 JUMP JUMPDEST PUSH1 0x40 MLOAD PUSH2 0xC9 SWAP2 SWAP1 PUSH2 0xEA7 JUMP JUMPDEST PUSH1 0x40 MLOAD DUP1 SWAP2 SUB SWAP1 RETURN JUMPDEST PUSH2 0xEC PUSH1 0x4 DUP1 CALLDATASIZE SUB DUP2 ADD SWAP1 PUSH2 0xE7 SWAP2 SWAP1 PUSH2 0xE6B JUMP JUMPDEST PUSH2 0x3BF JUMP JUMPDEST PUSH1 0x40 MLOAD PUSH2 0xFB SWAP4 SWAP3 SWAP2 SWAP1 PUSH2 0xF52 JUMP JUMPDEST PUSH1 0x40 MLOAD DUP1 SWAP2 SUB SWAP1 RETURN JUMPDEST PUSH2 0x10C PUSH2 0x58A JUMP JUMPDEST PUSH1 0x40 MLOAD PUSH2 0x119 SWAP2 SWAP1 PUSH2 0xEA7 JUMP JUMPDEST PUSH1 0x40 MLOAD DUP1 SWAP2 SUB SWAP1 RETURN JUMPDEST PUSH2 0x12A PUSH2 0x623 JUMP JUMPDEST STOP JUMPDEST PUSH2 0x146 PUSH1 0x4 DUP1 CALLDATASIZE SUB DUP2 ADD SWAP1 PUSH2 0x141 SWAP2 SWAP1 PUSH2 0xE6B JUMP JUMPDEST PUSH2 0x991 JUMP JUMPDEST PUSH1 0x40 MLOAD PUSH2 0x154 SWAP3 SWAP2 SWAP1 PUSH2 0xF90 JUMP JUMPDEST PUSH1 0x40 MLOAD DUP1 SWAP2 SUB SWAP1 RETURN JUMPDEST PUSH2 0x165 PUSH2 0xAC2 JUMP JUMPDEST PUSH1 0x40 MLOAD PUSH2 0x172 SWAP2 SWAP1 PUSH2 0x1001 JUMP JUMPDEST PUSH1 0x40 MLOAD DUP1 SWAP2 SUB SWAP1 RETURN JUMPDEST PUSH2 0x183 PUSH2 0xAE6 JUMP JUMPDEST PUSH1 0x40 MLOAD PUSH2 0x190 SWAP2 SWAP1 PUSH2 0x1037 JUMP JUMPDEST PUSH1 0x40 MLOAD DUP1 SWAP2 SUB SWAP1 RETURN JUMPDEST PUSH2 0x1A1 PUSH2 0xAF9 JUMP JUMPDEST PUSH1 0x40 MLOAD PUSH2 0x1B6 SWAP10 SWAP9 SWAP8 SWAP7 SWAP6 SWAP5 SWAP4 SWAP3 SWAP2 SWAP1 PUSH2 0x1052 JUMP JUMPDEST PUSH1 0x40 MLOAD DUP1 SWAP2 SUB SWAP1 RETURN JUMPDEST PUSH1 0x5 PUSH1 0x0 SWAP1 SLOAD SWAP1 PUSH2 0x100 EXP SWAP1 DIV PUSH1 0xFF AND ISZERO PUSH2 0x20F JUMPI PUSH1 0x40 MLOAD PUSH32 0x8C379A000000000000000000000000000000000000000000000000000000000 DUP2 MSTORE PUSH1 0x4 ADD PUSH2 0x206 SWAP1 PUSH2 0x1140 JUMP JUMPDEST PUSH1 0x40 MLOAD DUP1 SWAP2 SUB SWAP1 REVERT JUMPDEST PUSH1 0x2 PUSH1 0x0 CALLER PUSH20 0xFFFFFFFFFFFFFFFFFFFFFFFFFFFFFFFFFFFFFFFF AND PUSH20 0xFFFFFFFFFFFFFFFFFFFFFFFFFFFFFFFFFFFFFFFF AND DUP2 MSTORE PUSH1 0x20 ADD SWAP1 DUP2 MSTORE PUSH1 0x20 ADD PUSH1 0x0 KECCAK256 PUSH1 0x0 SWAP1 SLOAD SWAP1 PUSH2 0x100 EXP SWAP1 DIV PUSH1 0xFF AND ISZERO PUSH2 0x29C JUMPI PUSH1 0x40 MLOAD PUSH32 0x8C379A000000000000000000000000000000000000000000000000000000000 DUP2 MSTORE PUSH1 0x4 ADD PUSH2 0x293 SWAP1 PUSH2 0x11AC JUMP JUMPDEST PUSH1 0x40 MLOAD DUP1 SWAP2 SUB SWAP1 REVERT JUMPDEST PUSH1 0x0 DUP2 GT DUP1 ISZERO PUSH2 0x2AE JUMPI POP PUSH1 0x3 SLOAD DUP2 GT ISZERO JUMPDEST PUSH2 0x2ED JUMPI PUSH1 0x40 MLOAD PUSH32 0x8C379A000000000000000000000000000000000000000000000000000000000 DUP2 MSTORE PUSH1 0x4 ADD PUSH2 0x2E4 SWAP1 PUSH2 0x1218 JUMP JUMPDEST PUSH1 0x40 MLOAD DUP1 SWAP2 SUB SWAP1 REVERT JUMPDEST PUSH1 0x1 PUSH1 0x2 PUSH1 0x0 CALLER PUSH20 0xFFFFFFFFFFFFFFFFFFFFFFFFFFFFFFFFFFFFFFFF AND PUSH20 0xFFFFFFFFFFFFFFFFFFFFFFFFFFFFFFFFFFFFFFFF AND DUP2 MSTORE PUSH1 0x20 ADD SWAP1 DUP2 MSTORE PUSH1 0x20 ADD PUSH1 0x0 KECCAK256 PUSH1 0x0 PUSH2 0x100 EXP DUP2 SLOAD DUP2 PUSH1 0xFF MUL NOT AND SWAP1 DUP4 ISZERO ISZERO MUL OR SWAP1 SSTORE POP PUSH1 0x1 PUSH1 0x0 DUP3 DUP2 MSTORE PUSH1 0x20 ADD SWAP1 DUP2 MSTORE PUSH1 0x20 ADD PUSH1 0x0 KECCAK256 PUSH1 0x2 ADD PUSH1 0x0 DUP2 SLOAD DUP1 SWAP3 SWAP2 SWAP1 PUSH2 0x36C SWAP1 PUSH2 0x1267 JUMP JUMPDEST SWAP2 SWAP1 POP SSTORE POP PUSH1 0x4 PUSH1 0x0 DUP2 SLOAD DUP1 SWAP3 SWAP2 SWAP1 PUSH2 0x384 SWAP1 PUSH2 0x1267 JUMP JUMPDEST SWAP2 SWAP1 POP SSTORE POP DUP1 PUSH32 0x7F511E347BF51EED3BE100B3194247D5207F05F3B33DE7D31E3E8EE73199A049 PUSH1 0x40 MLOAD PUSH1 0x40 MLOAD DUP1 SWAP2 SUB SWAP1 LOG2 POP JUMP JUMPDEST PUSH1 0x3 SLOAD DUP2 JUMP JUMPDEST PUSH1 0x0 PUSH1 0x60 PUSH1 0x0 DUP1 PUSH1 0x0 SWAP1 SLOAD SWAP1 PUSH2 0x100 EXP SWAP1 DIV PUSH20 0xFFFFFFFFFFFFFFFFFFFFFFFFFFFFFFFFFFFFFFFF AND PUSH20 0xFFFFFFFFFFFFFFFFFFFFFFFFFFFFFFFFFFFFFFFF AND CALLER PUSH20 0xFFFFFFFFFFFFFFFFFFFFFFFFFFFFFFFFFFFFFFFF AND EQ PUSH2 0x454 JUMPI PUSH1 0x40 MLOAD PUSH32 0x8C379A000000000000000000000000000000000000000000000000000000000 DUP2 MSTORE PUSH1 0x4 ADD PUSH2 0x44B SWAP1 PUSH2 0x1321 JUMP JUMPDEST PUSH1 0x40 MLOAD DUP1 SWAP2 SUB SWAP1 REVERT JUMPDEST PUSH1 0x0 DUP5 GT DUP1 ISZERO PUSH2 0x466 JUMPI POP PUSH1 0x3 SLOAD DUP5 GT ISZERO JUMPDEST PUSH2 0x4A5 JUMPI PUSH1 0x40 MLOAD PUSH32 0x8C379A000000000000000000000000000000000000000000000000000000000 DUP2 MSTORE PUSH1 0x4 ADD PUSH2 0x49C SWAP1 PUSH2 0x138D JUMP JUMPDEST PUSH1 0x40 MLOAD DUP1 SWAP2 SUB SWAP1 REVERT JUMPDEST PUSH1 0x0 PUSH1 0x1 PUSH1 0x0 DUP7 DUP2 MSTORE PUSH1 0x20 ADD SWAP1 DUP2 MSTORE PUSH1 0x20 ADD PUSH1 0x0 KECCAK256 PUSH1 0x40 MLOAD DUP1 PUSH1 0x60 ADD PUSH1 0x40 MSTORE SWAP1 DUP2 PUSH1 0x0 DUP3 ADD SLOAD DUP2 MSTORE PUSH1 0x20 ADD PUSH1 0x1 DUP3 ADD DUP1 SLOAD PUSH2 0x4DF SWAP1 PUSH2 0x13DC JUMP JUMPDEST DUP1 PUSH1 0x1F ADD PUSH1 0x20 DUP1 SWAP2 DIV MUL PUSH1 0x20 ADD PUSH1 0x40 MLOAD SWAP1 DUP2 ADD PUSH1 0x40 MSTORE DUP1 SWAP3 SWAP2 SWAP1 DUP2 DUP2 MSTORE PUSH1 0x20 ADD DUP3 DUP1 SLOAD PUSH2 0x50B SWAP1 PUSH2 0x13DC JUMP JUMPDEST DUP1 ISZERO PUSH2 0x558 JUMPI DUP1 PUSH1 0x1F LT PUSH2 0x52D JUMPI PUSH2 0x100 DUP1 DUP4 SLOAD DIV MUL DUP4 MSTORE SWAP2 PUSH1 0x20 ADD SWAP2 PUSH2 0x558 JUMP JUMPDEST DUP3 ADD SWAP2 SWAP1 PUSH1 0x0 MSTORE PUSH1 0x20 PUSH1 0x0 KECCAK256 SWAP1 JUMPDEST DUP2 SLOAD DUP2 MSTORE SWAP1 PUSH1 0x1 ADD SWAP1 PUSH1 0x20 ADD DUP1 DUP4 GT PUSH2 0x53B JUMPI DUP3 SWAP1 SUB PUSH1 0x1F AND DUP3 ADD SWAP2 JUMPDEST POP POP POP POP POP DUP2 MSTORE PUSH1 0x20 ADD PUSH1 0x2 DUP3 ADD SLOAD DUP2 MSTORE POP POP SWAP1 POP DUP1 PUSH1 0x0 ADD MLOAD DUP2 PUSH1 0x20 ADD MLOAD DUP3 PUSH1 0x40 ADD MLOAD SWAP4 POP SWAP4 POP SWAP4 POP POP SWAP2 SWAP4 SWAP1 SWAP3 POP JUMP JUMPDEST PUSH1 0x0 DUP1 PUSH1 0x0 SWAP1 SLOAD SWAP1 PUSH2 0x100 EXP SWAP1 DIV PUSH20 0xFFFFFFFFFFFFFFFFFFFFFFFFFFFFFFFFFFFFFFFF AND PUSH20 0xFFFFFFFFFFFFFFFFFFFFFFFFFFFFFFFFFFFFFFFF AND CALLER PUSH20 0xFFFFFFFFFFFFFFFFFFFFFFFFFFFFFFFFFFFFFFFF AND EQ PUSH2 0x61B JUMPI PUSH1 0x40 MLOAD PUSH32 0x8C379A000000000000000000000000000000000000000000000000000000000 DUP2 MSTORE PUSH1 0x4 ADD PUSH2 0x612 SWAP1 PUSH2 0x1321 JUMP JUMPDEST PUSH1 0x40 MLOAD DUP1 SWAP2 SUB SWAP1 REVERT JUMPDEST PUSH1 0x4 SLOAD SWAP1 POP SWAP1 JUMP JUMPDEST PUSH1 0x0 DUP1 SLOAD SWAP1 PUSH2 0x100 EXP SWAP1 DIV PUSH20 0xFFFFFFFFFFFFFFFFFFFFFFFFFFFFFFFFFFFFFFFF AND PUSH20 0xFFFFFFFFFFFFFFFFFFFFFFFFFFFFFFFFFFFFFFFF AND CALLER PUSH20 0xFFFFFFFFFFFFFFFFFFFFFFFFFFFFFFFFFFFFFFFF AND EQ PUSH2 0x6B1 JUMPI PUSH1 0x40 MLOAD PUSH32 0x8C379A000000000000000000000000000000000000000000000000000000000 DUP2 MSTORE PUSH1 0x4 ADD PUSH2 0x6A8 SWAP1 PUSH2 0x1321 JUMP JUMPDEST PUSH1 0x40 MLOAD DUP1 SWAP2 SUB SWAP1 REVERT JUMPDEST PUSH1 0x5 PUSH1 0x0 SWAP1 SLOAD SWAP1 PUSH2 0x100 EXP SWAP1 DIV PUSH1 0xFF AND ISZERO PUSH2 0x701 JUMPI PUSH1 0x40 MLOAD PUSH32 0x8C379A000000000000000000000000000000000000000000000000000000000 DUP2 MSTORE PUSH1 0x4 ADD PUSH2 0x6F8 SWAP1 PUSH2 0x1140 JUMP JUMPDEST PUSH1 0x40 MLOAD DUP1 SWAP2 SUB SWAP1 REVERT JUMPDEST PUSH2 0x709 PUSH2 0xE0F JUMP JUMPDEST PUSH2 0x711 PUSH2 0xE0F JUMP JUMPDEST PUSH2 0x719 PUSH2 0xE0F JUMP JUMPDEST PUSH1 0x0 PUSH1 0x1 SWAP1 POP JUMPDEST PUSH1 0x3 SLOAD DUP2 GT PUSH2 0x854 JUMPI PUSH1 0x0 PUSH1 0x1 PUSH1 0x0 DUP4 DUP2 MSTORE PUSH1 0x20 ADD SWAP1 DUP2 MSTORE PUSH1 0x20 ADD PUSH1 0x0 KECCAK256 PUSH1 0x40 MLOAD DUP1 PUSH1 0x60 ADD PUSH1 0x40 MSTORE SWAP1 DUP2 PUSH1 0x0 DUP3 ADD SLOAD DUP2 MSTORE PUSH1 0x20 ADD PUSH1 0x1 DUP3 ADD DUP1 SLOAD PUSH2 0x763 SWAP1 PUSH2 0x13DC JUMP JUMPDEST DUP1 PUSH1 0x1F ADD PUSH1 0x20 DUP1 SWAP2 DIV MUL PUSH1 0x20 ADD PUSH1 0x40 MLOAD SWAP1 DUP2 ADD PUSH1 0x40 MSTORE DUP1 SWAP3 SWAP2 SWAP1 DUP2 DUP2 MSTORE PUSH1 0x20 ADD DUP3 DUP1 SLOAD PUSH2 0x78F SWAP1 PUSH2 0x13DC JUMP JUMPDEST DUP1 ISZERO PUSH2 0x7DC JUMPI DUP1 PUSH1 0x1F LT PUSH2 0x7B1 JUMPI PUSH2 0x100 DUP1 DUP4 SLOAD DIV MUL DUP4 MSTORE SWAP2 PUSH1 0x20 ADD SWAP2 PUSH2 0x7DC JUMP JUMPDEST DUP3 ADD SWAP2 SWAP1 PUSH1 0x0 MSTORE PUSH1 0x20 PUSH1 0x0 KECCAK256 SWAP1 JUMPDEST DUP2 SLOAD DUP2 MSTORE SWAP1 PUSH1 0x1 ADD SWAP1 PUSH1 0x20 ADD DUP1 DUP4 GT PUSH2 0x7BF JUMPI DUP3 SWAP1 SUB PUSH1 0x1F AND DUP3 ADD SWAP2 JUMPDEST POP POP POP POP POP DUP2 MSTORE PUSH1 0x20 ADD PUSH1 0x2 DUP3 ADD SLOAD DUP2 MSTORE POP POP SWAP1 POP DUP5 PUSH1 0x40 ADD MLOAD DUP2 PUSH1 0x40 ADD MLOAD GT ISZERO PUSH2 0x80F JUMPI DUP4 SWAP3 POP DUP5 SWAP4 POP DUP1 SWAP5 POP PUSH2 0x840 JUMP JUMPDEST DUP4 PUSH1 0x40 ADD MLOAD DUP2 PUSH1 0x40 ADD MLOAD GT ISZERO PUSH2 0x82A JUMPI DUP4 SWAP3 POP DUP1 SWAP4 POP PUSH2 0x83F JUMP JUMPDEST DUP3 PUSH1 0x40 ADD MLOAD DUP2 PUSH1 0x40 ADD MLOAD GT ISZERO PUSH2 0x83E JUMPI DUP1 SWAP3 POP JUMPDEST JUMPDEST JUMPDEST POP DUP1 DUP1 PUSH2 0x84C SWAP1 PUSH2 0x1267 JUMP JUMPDEST SWAP2 POP POP PUSH2 0x720 JUMP JUMPDEST POP DUP3 PUSH1 0x6 PUSH1 0x0 PUSH1 0x3 DUP2 LT PUSH2 0x86B JUMPI PUSH2 0x86A PUSH2 0x140D JUMP JUMPDEST JUMPDEST PUSH1 0x3 MUL ADD PUSH1 0x0 DUP3 ADD MLOAD DUP2 PUSH1 0x0 ADD SSTORE PUSH1 0x20 DUP3 ADD MLOAD DUP2 PUSH1 0x1 ADD SWAP1 DUP2 PUSH2 0x88E SWAP2 SWAP1 PUSH2 0x1617 JUMP JUMPDEST POP PUSH1 0x40 DUP3 ADD MLOAD DUP2 PUSH1 0x2 ADD SSTORE SWAP1 POP POP DUP2 PUSH1 0x6 PUSH1 0x1 PUSH1 0x3 DUP2 LT PUSH2 0x8B2 JUMPI PUSH2 0x8B1 PUSH2 0x140D JUMP JUMPDEST JUMPDEST PUSH1 0x3 MUL ADD PUSH1 0x0 DUP3 ADD MLOAD DUP2 PUSH1 0x0 ADD SSTORE PUSH1 0x20 DUP3 ADD MLOAD DUP2 PUSH1 0x1 ADD SWAP1 DUP2 PUSH2 0x8D5 SWAP2 SWAP1 PUSH2 0x1617 JUMP JUMPDEST POP PUSH1 0x40 DUP3 ADD MLOAD DUP2 PUSH1 0x2 ADD SSTORE SWAP1 POP POP DUP1 PUSH1 0x6 PUSH1 0x2 PUSH1 0x3 DUP2 LT PUSH2 0x8F9 JUMPI PUSH2 0x8F8 PUSH2 0x140D JUMP JUMPDEST JUMPDEST PUSH1 0x3 MUL ADD PUSH1 0x0 DUP3 ADD MLOAD DUP2 PUSH1 0x0 ADD SSTORE PUSH1 0x20 DUP3 ADD MLOAD DUP2 PUSH1 0x1 ADD SWAP1 DUP2 PUSH2 0x91C SWAP2 SWAP1 PUSH2 0x1617 JUMP JUMPDEST POP PUSH1 0x40 DUP3 ADD MLOAD DUP2 PUSH1 0x2 ADD SSTORE SWAP1 POP POP PUSH1 0x1 PUSH1 0x5 PUSH1 0x0 PUSH2 0x100 EXP DUP2 SLOAD DUP2 PUSH1 0xFF MUL NOT AND SWAP1 DUP4 ISZERO ISZERO MUL OR SWAP1 SSTORE POP PUSH32 0x1D56F04D58109DD7114A0821B58AC867FBAE782E8937F942086716708170B336 DUP4 PUSH1 0x20 ADD MLOAD DUP4 PUSH1 0x20 ADD MLOAD DUP4 PUSH1 0x20 ADD MLOAD PUSH1 0x40 MLOAD PUSH2 0x984 SWAP4 SWAP3 SWAP2 SWAP1 PUSH2 0x16E9 JUMP JUMPDEST PUSH1 0x40 MLOAD DUP1 SWAP2 SUB SWAP1 LOG1 POP POP POP JUMP JUMPDEST PUSH1 0x0 PUSH1 0x60 PUSH1 0x0 DUP4 GT DUP1 ISZERO PUSH2 0x9A7 JUMPI POP PUSH1 0x3 SLOAD DUP4 GT ISZERO JUMPDEST PUSH2 0x9E6 JUMPI PUSH1 0x40 MLOAD PUSH32 0x8C379A000000000000000000000000000000000000000000000000000000000 DUP2 MSTORE PUSH1 0x4 ADD PUSH2 0x9DD SWAP1 PUSH2 0x138D JUMP JUMPDEST PUSH1 0x40 MLOAD DUP1 SWAP2 SUB SWAP1 REVERT JUMPDEST PUSH1 0x0 PUSH1 0x1 PUSH1 0x0 DUP6 DUP2 MSTORE PUSH1 0x20 ADD SWAP1 DUP2 MSTORE PUSH1 0x20 ADD PUSH1 0x0 KECCAK256 PUSH1 0x40 MLOAD DUP1 PUSH1 0x60 ADD PUSH1 0x40 MSTORE SWAP1 DUP2 PUSH1 0x0 DUP3 ADD SLOAD DUP2 MSTORE PUSH1 0x20 ADD PUSH1 0x1 DUP3 ADD DUP1 SLOAD PUSH2 0xA20 SWAP1 PUSH2 0x13DC JUMP JUMPDEST DUP1 PUSH1 0x1F ADD PUSH1 0x20 DUP1 SWAP2 DIV MUL PUSH1 0x20 ADD PUSH1 0x40 MLOAD SWAP1 DUP2 ADD PUSH1 0x40 MSTORE DUP1 SWAP3 SWAP2 SWAP1 DUP2 DUP2 MSTORE PUSH1 0x20 ADD DUP3 DUP1 SLOAD PUSH2 0xA4C SWAP1 PUSH2 0x13DC JUMP JUMPDEST DUP1 ISZERO PUSH2 0xA99 JUMPI DUP1 PUSH1 0x1F LT PUSH2 0xA6E JUMPI PUSH2 0x100 DUP1 DUP4 SLOAD DIV MUL DUP4 MSTORE SWAP2 PUSH1 0x20 ADD SWAP2 PUSH2 0xA99 JUMP JUMPDEST DUP3 ADD SWAP2 SWAP1 PUSH1 0x0 MSTORE PUSH1 0x20 PUSH1 0x0 KECCAK256 SWAP1 JUMPDEST DUP2 SLOAD DUP2 MSTORE SWAP1 PUSH1 0x1 ADD SWAP1 PUSH1 0x20 ADD DUP1 DUP4 GT PUSH2 0xA7C JUMPI DUP3 SWAP1 SUB PUSH1 0x1F AND DUP3 ADD SWAP2 JUMPDEST POP POP POP POP POP DUP2 MSTORE PUSH1 0x20 ADD PUSH1 0x2 DUP3 ADD SLOAD DUP2 MSTORE POP POP SWAP1 POP DUP1 PUSH1 0x0 ADD MLOAD DUP2 PUSH1 0x20 ADD MLOAD SWAP3 POP SWAP3 POP POP SWAP2 POP SWAP2 JUMP JUMPDEST PUSH1 0x0 DUP1 SLOAD SWAP1 PUSH2 0x100 EXP SWAP1 DIV PUSH20 0xFFFFFFFFFFFFFFFFFFFFFFFFFFFFFFFFFFFFFFFF AND DUP2 JUMP JUMPDEST PUSH1 0x5 PUSH1 0x0 SWAP1 SLOAD SWAP1 PUSH2 0x100 EXP SWAP1 DIV PUSH1 0xFF AND DUP2 JUMP JUMPDEST PUSH1 0x0 PUSH1 0x60 PUSH1 0x0 DUP1 PUSH1 0x60 PUSH1 0x0 DUP1 PUSH1 0x60 PUSH1 0x0 PUSH1 0x5 PUSH1 0x0 SWAP1 SLOAD SWAP1 PUSH2 0x100 EXP SWAP1 DIV PUSH1 0xFF AND PUSH2 0xB58 JUMPI PUSH1 0x40 MLOAD PUSH32 0x8C379A000000000000000000000000000000000000000000000000000000000 DUP2 MSTORE PUSH1 0x4 ADD PUSH2 0xB4F SWAP1 PUSH2 0x1781 JUMP JUMPDEST PUSH1 0x40 MLOAD DUP1 SWAP2 SUB SWAP1 REVERT JUMPDEST PUSH1 0x0 PUSH1 0x6 PUSH1 0x0 PUSH1 0x3 DUP2 LT PUSH2 0xB6F JUMPI PUSH2 0xB6E PUSH2 0x140D JUMP JUMPDEST JUMPDEST PUSH1 0x3 MUL ADD PUSH1 0x40 MLOAD DUP1 PUSH1 0x60 ADD PUSH1 0x40 MSTORE SWAP1 DUP2 PUSH1 0x0 DUP3 ADD SLOAD DUP2 MSTORE PUSH1 0x20 ADD PUSH1 0x1 DUP3 ADD DUP1 SLOAD PUSH2 0xB98 SWAP1 PUSH2 0x13DC JUMP JUMPDEST DUP1 PUSH1 0x1F ADD PUSH1 0x20 DUP1 SWAP2 DIV MUL PUSH1 0x20 ADD PUSH1 0x40 MLOAD SWAP1 DUP2 ADD PUSH1 0x40 MSTORE DUP1 SWAP3 SWAP2 SWAP1 DUP2 DUP2 MSTORE PUSH1 0x20 ADD DUP3 DUP1 SLOAD PUSH2 0xBC4 SWAP1 PUSH2 0x13DC JUMP JUMPDEST DUP1 ISZERO PUSH2 0xC11 JUMPI DUP1 PUSH1 0x1F LT PUSH2 0xBE6 JUMPI PUSH2 0x100 DUP1 DUP4 SLOAD DIV MUL DUP4 MSTORE SWAP2 PUSH1 0x20 ADD SWAP2 PUSH2 0xC11 JUMP JUMPDEST DUP3 ADD SWAP2 SWAP1 PUSH1 0x0 MSTORE PUSH1 0x20 PUSH1 0x0 KECCAK256 SWAP1 JUMPDEST DUP2 SLOAD DUP2 MSTORE SWAP1 PUSH1 0x1 ADD SWAP1 PUSH1 0x20 ADD DUP1 DUP4 GT PUSH2 0xBF4 JUMPI DUP3 SWAP1 SUB PUSH1 0x1F AND DUP3 ADD SWAP2 JUMPDEST POP POP POP POP POP DUP2 MSTORE PUSH1 0x20 ADD PUSH1 0x2 DUP3 ADD SLOAD DUP2 MSTORE POP POP SWAP1 POP PUSH1 0x0 PUSH1 0x6 PUSH1 0x1 PUSH1 0x3 DUP2 LT PUSH2 0xC3D JUMPI PUSH2 0xC3C PUSH2 0x140D JUMP JUMPDEST JUMPDEST PUSH1 0x3 MUL ADD PUSH1 0x40 MLOAD DUP1 PUSH1 0x60 ADD PUSH1 0x40 MSTORE SWAP1 DUP2 PUSH1 0x0 DUP3 ADD SLOAD DUP2 MSTORE PUSH1 0x20 ADD PUSH1 0x1 DUP3 ADD DUP1 SLOAD PUSH2 0xC66 SWAP1 PUSH2 0x13DC JUMP JUMPDEST DUP1 PUSH1 0x1F ADD PUSH1 0x20 DUP1 SWAP2 DIV MUL PUSH1 0x20 ADD PUSH1 0x40 MLOAD SWAP1 DUP2 ADD PUSH1 0x40 MSTORE DUP1 SWAP3 SWAP2 SWAP1 DUP2 DUP2 MSTORE PUSH1 0x20 ADD DUP3 DUP1 SLOAD PUSH2 0xC92 SWAP1 PUSH2 0x13DC JUMP JUMPDEST DUP1 ISZERO PUSH2 0xCDF JUMPI DUP1 PUSH1 0x1F LT PUSH2 0xCB4 JUMPI PUSH2 0x100 DUP1 DUP4 SLOAD DIV MUL DUP4 MSTORE SWAP2 PUSH1 0x20 ADD SWAP2 PUSH2 0xCDF JUMP JUMPDEST DUP3 ADD SWAP2 SWAP1 PUSH1 0x0 MSTORE PUSH1 0x20 PUSH1 0x0 KECCAK256 SWAP1 JUMPDEST DUP2 SLOAD DUP2 MSTORE SWAP1 PUSH1 0x1 ADD SWAP1 PUSH1 0x20 ADD DUP1 DUP4 GT PUSH2 0xCC2 JUMPI DUP3 SWAP1 SUB PUSH1 0x1F AND DUP3 ADD SWAP2 JUMPDEST POP POP POP POP POP DUP2 MSTORE PUSH1 0x20 ADD PUSH1 0x2 DUP3 ADD SLOAD DUP2 MSTORE POP POP SWAP1 POP PUSH1 0x0 PUSH1 0x6 PUSH1 0x2 PUSH1 0x3 DUP2 LT PUSH2 0xD0B JUMPI PUSH2 0xD0A PUSH2 0x140D JUMP JUMPDEST JUMPDEST PUSH1 0x3 MUL ADD PUSH1 0x40 MLOAD DUP1 PUSH1 0x60 ADD PUSH1 0x40 MSTORE SWAP1 DUP2 PUSH1 0x0 DUP3 ADD SLOAD DUP2 MSTORE PUSH1 0x20 ADD PUSH1 0x1 DUP3 ADD DUP1 SLOAD PUSH2 0xD34 SWAP1 PUSH2 0x13DC JUMP JUMPDEST DUP1 PUSH1 0x1F ADD PUSH1 0x20 DUP1 SWAP2 DIV MUL PUSH1 0x20 ADD PUSH1 0x40 MLOAD SWAP1 DUP2 ADD PUSH1 0x40 MSTORE DUP1 SWAP3 SWAP2 SWAP1 DUP2 DUP2 MSTORE PUSH1 0x20 ADD DUP3 DUP1 SLOAD PUSH2 0xD60 SWAP1 PUSH2 0x13DC JUMP JUMPDEST DUP1 ISZERO PUSH2 0xDAD JUMPI DUP1 PUSH1 0x1F LT PUSH2 0xD82 JUMPI PUSH2 0x100 DUP1 DUP4 SLOAD DIV MUL DUP4 MSTORE SWAP2 PUSH1 0x20 ADD SWAP2 PUSH2 0xDAD JUMP JUMPDEST DUP3 ADD SWAP2 SWAP1 PUSH1 0x0 MSTORE PUSH1 0x20 PUSH1 0x0 KECCAK256 SWAP1 JUMPDEST DUP2 SLOAD DUP2 MSTORE SWAP1 PUSH1 0x1 ADD SWAP1 PUSH1 0x20 ADD DUP1 DUP4 GT PUSH2 0xD90 JUMPI DUP3 SWAP1 SUB PUSH1 0x1F AND DUP3 ADD SWAP2 JUMPDEST POP POP POP POP POP DUP2 MSTORE PUSH1 0x20 ADD PUSH1 0x2 DUP3 ADD SLOAD DUP2 MSTORE POP POP SWAP1 POP DUP3 PUSH1 0x0 ADD MLOAD DUP4 PUSH1 0x20 ADD MLOAD DUP5 PUSH1 0x40 ADD MLOAD DUP5 PUSH1 0x0 ADD MLOAD DUP6 PUSH1 0x20 ADD MLOAD DUP7 PUSH1 0x40 ADD MLOAD DUP7 PUSH1 0x0 ADD MLOAD DUP8 PUSH1 0x20 ADD MLOAD DUP9 PUSH1 0x40 ADD MLOAD SWAP12 POP SWAP12 POP SWAP12 POP SWAP12 POP SWAP12 POP SWAP12 POP SWAP12 POP SWAP12 POP SWAP12 POP POP POP POP SWAP1 SWAP2 SWAP3 SWAP4 SWAP5 SWAP6 SWAP7 SWAP8 SWAP9 JUMP JUMPDEST PUSH1 0x40 MLOAD DUP1 PUSH1 0x60 ADD PUSH1 0x40 MSTORE DUP1 PUSH1 0x0 DUP2 MSTORE PUSH1 0x20 ADD PUSH1 0x60 DUP2 MSTORE PUSH1 0x20 ADD PUSH1 0x0 DUP2 MSTORE POP SWAP1 JUMP JUMPDEST PUSH1 0x0 DUP1 REVERT JUMPDEST PUSH1 0x0 DUP2 SWAP1 POP SWAP2 SWAP1 POP JUMP JUMPDEST PUSH2 0xE48 DUP2 PUSH2 0xE35 JUMP JUMPDEST DUP2 EQ PUSH2 0xE53 JUMPI PUSH1 0x0 DUP1 REVERT JUMPDEST POP JUMP JUMPDEST PUSH1 0x0 DUP2 CALLDATALOAD SWAP1 POP PUSH2 0xE65 DUP2 PUSH2 0xE3F JUMP JUMPDEST SWAP3 SWAP2 POP POP JUMP JUMPDEST PUSH1 0x0 PUSH1 0x20 DUP3 DUP5 SUB SLT ISZERO PUSH2 0xE81 JUMPI PUSH2 0xE80 PUSH2 0xE30 JUMP JUMPDEST JUMPDEST PUSH1 0x0 PUSH2 0xE8F DUP5 DUP3 DUP6 ADD PUSH2 0xE56 JUMP JUMPDEST SWAP2 POP POP SWAP3 SWAP2 POP POP JUMP JUMPDEST PUSH2 0xEA1 DUP2 PUSH2 0xE35 JUMP JUMPDEST DUP3 MSTORE POP POP JUMP JUMPDEST PUSH1 0x0 PUSH1 0x20 DUP3 ADD SWAP1 POP PUSH2 0xEBC PUSH1 0x0 DUP4 ADD DUP5 PUSH2 0xE98 JUMP JUMPDEST SWAP3 SWAP2 POP POP JUMP JUMPDEST PUSH1 0x0 DUP2 MLOAD SWAP1 POP SWAP2 SWAP1 POP JUMP JUMPDEST PUSH1 0x0 DUP3 DUP3 MSTORE PUSH1 0x20 DUP3 ADD SWAP1 POP SWAP3 SWAP2 POP POP JUMP JUMPDEST PUSH1 0x0 JUMPDEST DUP4 DUP2 LT ISZERO PUSH2 0xEFC JUMPI DUP1 DUP3 ADD MLOAD DUP2 DUP5 ADD MSTORE PUSH1 0x20 DUP2 ADD SWAP1 POP PUSH2 0xEE1 JUMP JUMPDEST PUSH1 0x0 DUP5 DUP5 ADD MSTORE POP POP POP POP JUMP JUMPDEST PUSH1 0x0 PUSH1 0x1F NOT PUSH1 0x1F DUP4 ADD AND SWAP1 POP SWAP2 SWAP1 POP JUMP JUMPDEST PUSH1 0x0 PUSH2 0xF24 DUP3 PUSH2 0xEC2 JUMP JUMPDEST PUSH2 0xF2E DUP2 DUP6 PUSH2 0xECD JUMP JUMPDEST SWAP4 POP PUSH2 0xF3E DUP2 DUP6 PUSH1 0x20 DUP7 ADD PUSH2 0xEDE JUMP JUMPDEST PUSH2 0xF47 DUP2 PUSH2 0xF08 JUMP JUMPDEST DUP5 ADD SWAP2 POP POP SWAP3 SWAP2 POP POP JUMP JUMPDEST PUSH1 0x0 PUSH1 0x60 DUP3 ADD SWAP1 POP PUSH2 0xF67 PUSH1 0x0 DUP4 ADD DUP7 PUSH2 0xE98 JUMP JUMPDEST DUP2 DUP2 SUB PUSH1 0x20 DUP4 ADD MSTORE PUSH2 0xF79 DUP2 DUP6 PUSH2 0xF19 JUMP JUMPDEST SWAP1 POP PUSH2 0xF88 PUSH1 0x40 DUP4 ADD DUP5 PUSH2 0xE98 JUMP JUMPDEST SWAP5 SWAP4 POP POP POP POP JUMP JUMPDEST PUSH1 0x0 PUSH1 0x40 DUP3 ADD SWAP1 POP PUSH2 0xFA5 PUSH1 0x0 DUP4 ADD DUP6 PUSH2 0xE98 JUMP JUMPDEST DUP2 DUP2 SUB PUSH1 0x20 DUP4 ADD MSTORE PUSH2 0xFB7 DUP2 DUP5 PUSH2 0xF19 JUMP JUMPDEST SWAP1 POP SWAP4 SWAP3 POP POP POP JUMP JUMPDEST PUSH1 0x0 PUSH20 0xFFFFFFFFFFFFFFFFFFFFFFFFFFFFFFFFFFFFFFFF DUP3 AND SWAP1 POP SWAP2 SWAP1 POP JUMP JUMPDEST PUSH1 0x0 PUSH2 0xFEB DUP3 PUSH2 0xFC0 JUMP JUMPDEST SWAP1 POP SWAP2 SWAP1 POP JUMP JUMPDEST PUSH2 0xFFB DUP2 PUSH2 0xFE0 JUMP JUMPDEST DUP3 MSTORE POP POP JUMP JUMPDEST PUSH1 0x0 PUSH1 0x20 DUP3 ADD SWAP1 POP PUSH2 0x1016 PUSH1 0x0 DUP4 ADD DUP5 PUSH2 0xFF2 JUMP JUMPDEST SWAP3 SWAP2 POP POP JUMP JUMPDEST PUSH1 0x0 DUP2 ISZERO ISZERO SWAP1 POP SWAP2 SWAP1 POP JUMP JUMPDEST PUSH2 0x1031 DUP2 PUSH2 0x101C JUMP JUMPDEST DUP3 MSTORE POP POP JUMP JUMPDEST PUSH1 0x0 PUSH1 0x20 DUP3 ADD SWAP1 POP PUSH2 0x104C PUSH1 0x0 DUP4 ADD DUP5 PUSH2 0x1028 JUMP JUMPDEST SWAP3 SWAP2 POP POP JUMP JUMPDEST PUSH1 0x0 PUSH2 0x120 DUP3 ADD SWAP1 POP PUSH2 0x1068 PUSH1 0x0 DUP4 ADD DUP13 PUSH2 0xE98 JUMP JUMPDEST DUP2 DUP2 SUB PUSH1 0x20 DUP4 ADD MSTORE PUSH2 0x107A DUP2 DUP12 PUSH2 0xF19 JUMP JUMPDEST SWAP1 POP PUSH2 0x1089 PUSH1 0x40 DUP4 ADD DUP11 PUSH2 0xE98 JUMP JUMPDEST PUSH2 0x1096 PUSH1 0x60 DUP4 ADD DUP10 PUSH2 0xE98 JUMP JUMPDEST DUP2 DUP2 SUB PUSH1 0x80 DUP4 ADD MSTORE PUSH2 0x10A8 DUP2 DUP9 PUSH2 0xF19 JUMP JUMPDEST SWAP1 POP PUSH2 0x10B7 PUSH1 0xA0 DUP4 ADD DUP8 PUSH2 0xE98 JUMP JUMPDEST PUSH2 0x10C4 PUSH1 0xC0 DUP4 ADD DUP7 PUSH2 0xE98 JUMP JUMPDEST DUP2 DUP2 SUB PUSH1 0xE0 DUP4 ADD MSTORE PUSH2 0x10D6 DUP2 DUP6 PUSH2 0xF19 JUMP JUMPDEST SWAP1 POP PUSH2 0x10E6 PUSH2 0x100 DUP4 ADD DUP5 PUSH2 0xE98 JUMP JUMPDEST SWAP11 SWAP10 POP POP POP POP POP POP POP POP POP POP JUMP JUMPDEST PUSH32 0x526573756C7420616C7265616479206465636C61726564000000000000000000 PUSH1 0x0 DUP3 ADD MSTORE POP JUMP JUMPDEST PUSH1 0x0 PUSH2 0x112A PUSH1 0x17 DUP4 PUSH2 0xECD JUMP JUMPDEST SWAP2 POP PUSH2 0x1135 DUP3 PUSH2 0x10F4 JUMP JUMPDEST PUSH1 0x20 DUP3 ADD SWAP1 POP SWAP2 SWAP1 POP JUMP JUMPDEST PUSH1 0x0 PUSH1 0x20 DUP3 ADD SWAP1 POP DUP2 DUP2 SUB PUSH1 0x0 DUP4 ADD MSTORE PUSH2 0x1159 DUP2 PUSH2 0x111D JUMP JUMPDEST SWAP1 POP SWAP2 SWAP1 POP JUMP JUMPDEST PUSH32 0x596F75206861766520616C726561647920766F74656400000000000000000000 PUSH1 0x0 DUP3 ADD MSTORE POP JUMP JUMPDEST PUSH1 0x0 PUSH2 0x1196 PUSH1 0x16 DUP4 PUSH2 0xECD JUMP JUMPDEST SWAP2 POP PUSH2 0x11A1 DUP3 PUSH2 0x1160 JUMP JUMPDEST PUSH1 0x20 DUP3 ADD SWAP1 POP SWAP2 SWAP1 POP JUMP JUMPDEST PUSH1 0x0 PUSH1 0x20 DUP3 ADD SWAP1 POP DUP2 DUP2 SUB PUSH1 0x0 DUP4 ADD MSTORE PUSH2 0x11C5 DUP2 PUSH2 0x1189 JUMP JUMPDEST SWAP1 POP SWAP2 SWAP1 POP JUMP JUMPDEST PUSH32 0x496E76616C69642063616E646964617465204944000000000000000000000000 PUSH1 0x0 DUP3 ADD MSTORE POP JUMP JUMPDEST PUSH1 0x0 PUSH2 0x1202 PUSH1 0x14 DUP4 PUSH2 0xECD JUMP JUMPDEST SWAP2 POP PUSH2 0x120D DUP3 PUSH2 0x11CC JUMP JUMPDEST PUSH1 0x20 DUP3 ADD SWAP1 POP SWAP2 SWAP1 POP JUMP JUMPDEST PUSH1 0x0 PUSH1 0x20 DUP3 ADD SWAP1 POP DUP2 DUP2 SUB PUSH1 0x0 DUP4 ADD MSTORE PUSH2 0x1231 DUP2 PUSH2 0x11F5 JUMP JUMPDEST SWAP1 POP SWAP2 SWAP1 POP JUMP JUMPDEST PUSH32 0x4E487B7100000000000000000000000000000000000000000000000000000000 PUSH1 0x0 MSTORE PUSH1 0x11 PUSH1 0x4 MSTORE PUSH1 0x24 PUSH1 0x0 REVERT JUMPDEST PUSH1 0x0 PUSH2 0x1272 DUP3 PUSH2 0xE35 JUMP JUMPDEST SWAP2 POP PUSH32 0xFFFFFFFFFFFFFFFFFFFFFFFFFFFFFFFFFFFFFFFFFFFFFFFFFFFFFFFFFFFFFFFF DUP3 SUB PUSH2 0x12A4 JUMPI PUSH2 0x12A3 PUSH2 0x1238 JUMP JUMPDEST JUMPDEST PUSH1 0x1 DUP3 ADD SWAP1 POP SWAP2 SWAP1 POP JUMP JUMPDEST PUSH32 0x4F6E6C79206F776E65722063616E20706572666F726D20746869732061637469 PUSH1 0x0 DUP3 ADD MSTORE PUSH32 0x6F6E000000000000000000000000000000000000000000000000000000000000 PUSH1 0x20 DUP3 ADD MSTORE POP JUMP JUMPDEST PUSH1 0x0 PUSH2 0x130B PUSH1 0x22 DUP4 PUSH2 0xECD JUMP JUMPDEST SWAP2 POP PUSH2 0x1316 DUP3 PUSH2 0x12AF JUMP JUMPDEST PUSH1 0x40 DUP3 ADD SWAP1 POP SWAP2 SWAP1 POP JUMP JUMPDEST PUSH1 0x0 PUSH1 0x20 DUP3 ADD SWAP1 POP DUP2 DUP2 SUB PUSH1 0x0 DUP4 ADD MSTORE PUSH2 0x133A DUP2 PUSH2 0x12FE JUMP JUMPDEST SWAP1 POP SWAP2 SWAP1 POP JUMP JUMPDEST PUSH32 0x496E76616C696420494400000000000000000000000000000000000000000000 PUSH1 0x0 DUP3 ADD MSTORE POP JUMP JUMPDEST PUSH1 0x0 PUSH2 0x1377 PUSH1 0xA DUP4 PUSH2 0xECD JUMP JUMPDEST SWAP2 POP PUSH2 0x1382 DUP3 PUSH2 0x1341 JUMP JUMPDEST PUSH1 0x20 DUP3 ADD SWAP1 POP SWAP2 SWAP1 POP JUMP JUMPDEST PUSH1 0x0 PUSH1 0x20 DUP3 ADD SWAP1 POP DUP2 DUP2 SUB PUSH1 0x0 DUP4 ADD MSTORE PUSH2 0x13A6 DUP2 PUSH2 0x136A JUMP JUMPDEST SWAP1 POP SWAP2 SWAP1 POP JUMP JUMPDEST PUSH32 0x4E487B7100000000000000000000000000000000000000000000000000000000 PUSH1 0x0 MSTORE PUSH1 0x22 PUSH1 0x4 MSTORE PUSH1 0x24 PUSH1 0x0 REVERT JUMPDEST PUSH1 0x0 PUSH1 0x2 DUP3 DIV SWAP1 POP PUSH1 0x1 DUP3 AND DUP1 PUSH2 0x13F4 JUMPI PUSH1 0x7F DUP3 AND SWAP2 POP JUMPDEST PUSH1 0x20 DUP3 LT DUP2 SUB PUSH2 0x1407 JUMPI PUSH2 0x1406 PUSH2 0x13AD JUMP JUMPDEST JUMPDEST POP SWAP2 SWAP1 POP JUMP JUMPDEST PUSH32 0x4E487B7100000000000000000000000000000000000000000000000000000000 PUSH1 0x0 MSTORE PUSH1 0x32 PUSH1 0x4 MSTORE PUSH1 0x24 PUSH1 0x0 REVERT JUMPDEST PUSH32 0x4E487B7100000000000000000000000000000000000000000000000000000000 PUSH1 0x0 MSTORE PUSH1 0x41 PUSH1 0x4 MSTORE PUSH1 0x24 PUSH1 0x0 REVERT JUMPDEST PUSH1 0x0 DUP2 SWAP1 POP DUP2 PUSH1 0x0 MSTORE PUSH1 0x20 PUSH1 0x0 KECCAK256 SWAP1 POP SWAP2 SWAP1 POP JUMP JUMPDEST PUSH1 0x0 PUSH1 0x20 PUSH1 0x1F DUP4 ADD DIV SWAP1 POP SWAP2 SWAP1 POP JUMP JUMPDEST PUSH1 0x0 DUP3 DUP3 SHL SWAP1 POP SWAP3 SWAP2 POP POP JUMP JUMPDEST PUSH1 0x0 PUSH1 0x8 DUP4 MUL PUSH2 0x14CD PUSH32 0xFFFFFFFFFFFFFFFFFFFFFFFFFFFFFFFFFFFFFFFFFFFFFFFFFFFFFFFFFFFFFFFF DUP3 PUSH2 0x1490 JUMP JUMPDEST PUSH2 0x14D7 DUP7 DUP4 PUSH2 0x1490 JUMP JUMPDEST SWAP6 POP DUP1 NOT DUP5 AND SWAP4 POP DUP1 DUP7 AND DUP5 OR SWAP3 POP POP POP SWAP4 SWAP3 POP POP POP JUMP JUMPDEST PUSH1 0x0 DUP2 SWAP1 POP SWAP2 SWAP1 POP JUMP JUMPDEST PUSH1 0x0 PUSH2 0x1514 PUSH2 0x150F PUSH2 0x150A DUP5 PUSH2 0xE35 JUMP JUMPDEST PUSH2 0x14EF JUMP JUMPDEST PUSH2 0xE35 JUMP JUMPDEST SWAP1 POP SWAP2 SWAP1 POP JUMP JUMPDEST PUSH1 0x0 DUP2 SWAP1 POP SWAP2 SWAP1 POP JUMP JUMPDEST PUSH2 0x152E DUP4 PUSH2 0x14F9 JUMP JUMPDEST PUSH2 0x1542 PUSH2 0x153A DUP3 PUSH2 0x151B JUMP JUMPDEST DUP5 DUP5 SLOAD PUSH2 0x149D JUMP JUMPDEST DUP3 SSTORE POP POP POP POP JUMP JUMPDEST PUSH1 0x0 SWAP1 JUMP JUMPDEST PUSH2 0x1557 PUSH2 0x154A JUMP JUMPDEST PUSH2 0x1562 DUP2 DUP5 DUP5 PUSH2 0x1525 JUMP JUMPDEST POP POP POP JUMP JUMPDEST JUMPDEST DUP2 DUP2 LT ISZERO PUSH2 0x1586 JUMPI PUSH2 0x157B PUSH1 0x0 DUP3 PUSH2 0x154F JUMP JUMPDEST PUSH1 0x1 DUP2 ADD SWAP1 POP PUSH2 0x1568 JUMP JUMPDEST POP POP JUMP JUMPDEST PUSH1 0x1F DUP3 GT ISZERO PUSH2 0x15CB JUMPI PUSH2 0x159C DUP2 PUSH2 0x146B JUMP JUMPDEST PUSH2 0x15A5 DUP5 PUSH2 0x1480 JUMP JUMPDEST DUP2 ADD PUSH1 0x20 DUP6 LT ISZERO PUSH2 0x15B4 JUMPI DUP2 SWAP1 POP JUMPDEST PUSH2 0x15C8 PUSH2 0x15C0 DUP6 PUSH2 0x1480 JUMP JUMPDEST DUP4 ADD DUP3 PUSH2 0x1567 JUMP JUMPDEST POP POP JUMPDEST POP POP POP JUMP JUMPDEST PUSH1 0x0 DUP3 DUP3 SHR SWAP1 POP SWAP3 SWAP2 POP POP JUMP JUMPDEST PUSH1 0x0 PUSH2 0x15EE PUSH1 0x0 NOT DUP5 PUSH1 0x8 MUL PUSH2 0x15D0 JUMP JUMPDEST NOT DUP1 DUP4 AND SWAP2 POP POP SWAP3 SWAP2 POP POP JUMP JUMPDEST PUSH1 0x0 PUSH2 0x1607 DUP4 DUP4 PUSH2 0x15DD JUMP JUMPDEST SWAP2 POP DUP3 PUSH1 0x2 MUL DUP3 OR SWAP1 POP SWAP3 SWAP2 POP POP JUMP JUMPDEST PUSH2 0x1620 DUP3 PUSH2 0xEC2 JUMP JUMPDEST PUSH8 0xFFFFFFFFFFFFFFFF DUP2 GT ISZERO PUSH2 0x1639 JUMPI PUSH2 0x1638 PUSH2 0x143C JUMP JUMPDEST JUMPDEST PUSH2 0x1643 DUP3 SLOAD PUSH2 0x13DC JUMP JUMPDEST PUSH2 0x164E DUP3 DUP3 DUP6 PUSH2 0x158A JUMP JUMPDEST PUSH1 0x0 PUSH1 0x20 SWAP1 POP PUSH1 0x1F DUP4 GT PUSH1 0x1 DUP2 EQ PUSH2 0x1681 JUMPI PUSH1 0x0 DUP5 ISZERO PUSH2 0x166F JUMPI DUP3 DUP8 ADD MLOAD SWAP1 POP JUMPDEST PUSH2 0x1679 DUP6 DUP3 PUSH2 0x15FB JUMP JUMPDEST DUP7 SSTORE POP PUSH2 0x16E1 JUMP JUMPDEST PUSH1 0x1F NOT DUP5 AND PUSH2 0x168F DUP7 PUSH2 0x146B JUMP JUMPDEST PUSH1 0x0 JUMPDEST DUP3 DUP2 LT ISZERO PUSH2 0x16B7 JUMPI DUP5 DUP10 ADD MLOAD DUP3 SSTORE PUSH1 0x1 DUP3 ADD SWAP2 POP PUSH1 0x20 DUP6 ADD SWAP5 POP PUSH1 0x20 DUP2 ADD SWAP1 POP PUSH2 0x1692 JUMP JUMPDEST DUP7 DUP4 LT ISZERO PUSH2 0x16D4 JUMPI DUP5 DUP10 ADD MLOAD PUSH2 0x16D0 PUSH1 0x1F DUP10 AND DUP3 PUSH2 0x15DD JUMP JUMPDEST DUP4 SSTORE POP JUMPDEST PUSH1 0x1 PUSH1 0x2 DUP9 MUL ADD DUP9 SSTORE POP POP POP JUMPDEST POP POP POP POP POP POP JUMP JUMPDEST PUSH1 0x0 PUSH1 0x60 DUP3 ADD SWAP1 POP DUP2 DUP2 SUB PUSH1 0x0 DUP4 ADD MSTORE PUSH2 0x1703 DUP2 DUP7 PUSH2 0xF19 JUMP JUMPDEST SWAP1 POP DUP2 DUP2 SUB PUSH1 0x20 DUP4 ADD MSTORE PUSH2 0x1717 DUP2 DUP6 PUSH2 0xF19 JUMP JUMPDEST SWAP1 POP DUP2 DUP2 SUB PUSH1 0x40 DUP4 ADD MSTORE PUSH2 0x172B DUP2 DUP5 PUSH2 0xF19 JUMP JUMPDEST SWAP1 POP SWAP5 SWAP4 POP POP POP POP JUMP JUMPDEST PUSH32 0x526573756C74206E6F74206465636C6172656420796574000000000000000000 PUSH1 0x0 DUP3 ADD MSTORE POP JUMP JUMPDEST PUSH1 0x0 PUSH2 0x176B PUSH1 0x17 DUP4 PUSH2 0xECD JUMP JUMPDEST SWAP2 POP PUSH2 0x1776 DUP3 PUSH2 0x1735 JUMP JUMPDEST PUSH1 0x20 DUP3 ADD SWAP1 POP SWAP2 SWAP1 POP JUMP JUMPDEST PUSH1 0x0 PUSH1 0x20 DUP3 ADD SWAP1 POP DUP2 DUP2 SUB PUSH1 0x0 DUP4 ADD MSTORE PUSH2 0x179A DUP2 PUSH2 0x175E JUMP JUMPDEST SWAP1 POP SWAP2 SWAP1 POP JUMP INVALID LOG2 PUSH5 0x6970667358 0x22 SLT KECCAK256 SWAP3 ADD DUP12 0x5D PUSH2 0x78BD ADD PUSH15 0xC2E0D58579F9E51FD37FA01231B6F2 0xF8 CALLCODE SWAP10 MLOAD SWAP1 RETURNDATASIZE 0xB1 MUL PUSH5 0x736F6C6343 STOP ADDMOD SLT STOP CALLER "
				},
				"gasEstimates": {
					"creation": {
						"codeDepositCost": "1220600",
						"executionCost": "infinite",
						"totalCost": "infinite"
					},
					"external": {
						"candidatesCount()": "2452",
						"declareResult()": "infinite",
						"getCandidate(uint256)": "infinite",
						"getCandidateBasic(uint256)": "infinite",
						"getTopWinners()": "infinite",
						"getTotalVoters()": "4674",
						"owner()": "2555",
						"resultDeclared()": "2537",
						"vote(uint256)": "infinite"
					},
					"internal": {
						"addCandidate(string memory)": "infinite"
					}
				},
				"methodIdentifiers": {
					"candidatesCount()": "2d35a8a2",
					"declareResult()": "8574c296",
					"getCandidate(uint256)": "35b8e820",
					"getCandidateBasic(uint256)": "86526299",
					"getTopWinners()": "fdbc0b29",
					"getTotalVoters()": "793cf218",
					"owner()": "8da5cb5b",
					"resultDeclared()": "c6a02cc9",
					"vote(uint256)": "0121b93f"
				}
			},
			"storageLayout": {
				"storage": [
					{
						"astId": 10,
						"contract": "D_Voting_app.sol:Voting",
						"label": "owner",
						"offset": 0,
						"slot": "0",
						"type": "t_address"
					},
					{
						"astId": 15,
						"contract": "D_Voting_app.sol:Voting",
						"label": "candidates",
						"offset": 0,
						"slot": "1",
						"type": "t_mapping(t_uint256,t_struct(Candidate)8_storage)"
					},
					{
						"astId": 19,
						"contract": "D_Voting_app.sol:Voting",
						"label": "hasVoted",
						"offset": 0,
						"slot": "2",
						"type": "t_mapping(t_address,t_bool)"
					},
					{
						"astId": 21,
						"contract": "D_Voting_app.sol:Voting",
						"label": "candidatesCount",
						"offset": 0,
						"slot": "3",
						"type": "t_uint256"
					},
					{
						"astId": 23,
						"contract": "D_Voting_app.sol:Voting",
						"label": "totalVoters",
						"offset": 0,
						"slot": "4",
						"type": "t_uint256"
					},
					{
						"astId": 25,
						"contract": "D_Voting_app.sol:Voting",
						"label": "resultDeclared",
						"offset": 0,
						"slot": "5",
						"type": "t_bool"
					},
					{
						"astId": 30,
						"contract": "D_Voting_app.sol:Voting",
						"label": "topWinners",
						"offset": 0,
						"slot": "6",
						"type": "t_array(t_struct(Candidate)8_storage)3_storage"
					}
				],
				"types": {
					"t_address": {
						"encoding": "inplace",
						"label": "address",
						"numberOfBytes": "20"
					},
					"t_array(t_struct(Candidate)8_storage)3_storage": {
						"base": "t_struct(Candidate)8_storage",
						"encoding": "inplace",
						"label": "struct Voting.Candidate[3]",
						"numberOfBytes": "288"
					},
					"t_bool": {
						"encoding": "inplace",
						"label": "bool",
						"numberOfBytes": "1"
					},
					"t_mapping(t_address,t_bool)": {
						"encoding": "mapping",
						"key": "t_address",
						"label": "mapping(address => bool)",
						"numberOfBytes": "32",
						"value": "t_bool"
					},
					"t_mapping(t_uint256,t_struct(Candidate)8_storage)": {
						"encoding": "mapping",
						"key": "t_uint256",
						"label": "mapping(uint256 => struct Voting.Candidate)",
						"numberOfBytes": "32",
						"value": "t_struct(Candidate)8_storage"
					},
					"t_string_storage": {
						"encoding": "bytes",
						"label": "string",
						"numberOfBytes": "32"
					},
					"t_struct(Candidate)8_storage": {
						"encoding": "inplace",
						"label": "struct Voting.Candidate",
						"members": [
							{
								"astId": 3,
								"contract": "D_Voting_app.sol:Voting",
								"label": "id",
								"offset": 0,
								"slot": "0",
								"type": "t_uint256"
							},
							{
								"astId": 5,
								"contract": "D_Voting_app.sol:Voting",
								"label": "name",
								"offset": 0,
								"slot": "1",
								"type": "t_string_storage"
							},
							{
								"astId": 7,
								"contract": "D_Voting_app.sol:Voting",
								"label": "voteCount",
								"offset": 0,
								"slot": "2",
								"type": "t_uint256"
							}
						],
						"numberOfBytes": "96"
					},
					"t_uint256": {
						"encoding": "inplace",
						"label": "uint256",
						"numberOfBytes": "32"
					}
				}
			},
			"userdoc": {
				"kind": "user",
				"methods": {},
				"version": 1
			}
		}
	}
}