{
	"UserBank.sol": {
		"UserBank": {
			"abi": [
				{
					"inputs": [],
					"stateMutability": "nonpayable",
					"type": "constructor"
				},
				{
					"inputs": [],
					"name": "Get_Balance",
					"outputs": [
						{
							"internalType": "uint256",
							"name": "",
							"type": "uint256"
						}
					],
					"stateMutability": "view",
					"type": "function"
				},
				{
					"inputs": [
						{
							"internalType": "uint256",
							"name": "amount",
							"type": "uint256"
						}
					],
					"name": "deposit",
					"outputs": [],
					"stateMutability": "nonpayable",
					"type": "function"
				},
				{
					"inputs": [
						{
							"internalType": "uint256",
							"name": "_amount",
							"type": "uint256"
						}
					],
					"name": "withdraw_cash",
					"outputs": [],
					"stateMutability": "nonpayable",
					"type": "function"
				}
			],
			"devdoc": {
				"kind": "dev",
				"methods": {},
				"version": 1
			},
			"evm": {
				"assembly": "    /* \"UserBank.sol\":60:789  contract UserBank{... */\n  mstore(0x40, 0x80)\n    /* \"UserBank.sol\":190:235  constructor (){... */\n  callvalue\n  dup1\n  iszero\n  tag_1\n  jumpi\n  revert(0x00, 0x00)\ntag_1:\n  pop\n    /* \"UserBank.sol\":219:229  msg.sender */\n  caller\n    /* \"UserBank.sol\":211:216  owner */\n  0x00\n  0x00\n    /* \"UserBank.sol\":211:229  owner = msg.sender */\n  0x0100\n  exp\n  dup2\n  sload\n  dup2\n  0xffffffffffffffffffffffffffffffffffffffff\n  mul\n  not\n  and\n  swap1\n  dup4\n  0xffffffffffffffffffffffffffffffffffffffff\n  and\n  mul\n  or\n  swap1\n  sstore\n  pop\n    /* \"UserBank.sol\":60:789  contract UserBank{... */\n  dataSize(sub_0)\n  dup1\n  dataOffset(sub_0)\n  0x00\n  codecopy\n  0x00\n  return\nstop\n\nsub_0: assembly {\n        /* \"UserBank.sol\":60:789  contract UserBank{... */\n      mstore(0x40, 0x80)\n      callvalue\n      dup1\n      iszero\n      tag_1\n      jumpi\n      revert(0x00, 0x00)\n    tag_1:\n      pop\n      jumpi(tag_2, lt(calldatasize, 0x04))\n      shr(0xe0, calldataload(0x00))\n      dup1\n      0xaf328025\n      eq\n      tag_3\n      jumpi\n      dup1\n      0xb6b55f25\n      eq\n      tag_4\n      jumpi\n      dup1\n      0xb9c18f1c\n      eq\n      tag_5\n      jumpi\n    tag_2:\n      revert(0x00, 0x00)\n        /* \"UserBank.sol\":693:786  function Get_Balance () external view returns (uint){... */\n    tag_3:\n      tag_6\n      tag_7\n      jump\t// in\n    tag_6:\n      mload(0x40)\n      tag_8\n      swap2\n      swap1\n      tag_9\n      jump\t// in\n    tag_8:\n      mload(0x40)\n      dup1\n      swap2\n      sub\n      swap1\n      return\n        /* \"UserBank.sol\":352:528  function deposit (uint amount) external  {... */\n    tag_4:\n      tag_10\n      0x04\n      dup1\n      calldatasize\n      sub\n      dup2\n      add\n      swap1\n      tag_11\n      swap2\n      swap1\n      tag_12\n      jump\t// in\n    tag_11:\n      tag_13\n      jump\t// in\n    tag_10:\n      stop\n        /* \"UserBank.sol\":536:685  function withdraw_cash (uint _amount) external {... */\n    tag_5:\n      tag_14\n      0x04\n      dup1\n      calldatasize\n      sub\n      dup2\n      add\n      swap1\n      tag_15\n      swap2\n      swap1\n      tag_12\n      jump\t// in\n    tag_15:\n      tag_16\n      jump\t// in\n    tag_14:\n      stop\n        /* \"UserBank.sol\":693:786  function Get_Balance () external view returns (uint){... */\n    tag_7:\n        /* \"UserBank.sol\":740:744  uint */\n      0x00\n        /* \"UserBank.sol\":763:775  TotalBalance */\n      sload(0x01)\n        /* \"UserBank.sol\":756:775  return TotalBalance */\n      swap1\n      pop\n        /* \"UserBank.sol\":693:786  function Get_Balance () external view returns (uint){... */\n      swap1\n      jump\t// out\n        /* \"UserBank.sol\":352:528  function deposit (uint amount) external  {... */\n    tag_13:\n        /* \"UserBank.sol\":421:424  100 */\n      0x64\n        /* \"UserBank.sol\":412:418  amount */\n      dup2\n        /* \"UserBank.sol\":412:424  amount > 100 */\n      gt\n        /* \"UserBank.sol\":404:443  require(amount > 100, \"Add Some Money\") */\n      tag_19\n      jumpi\n      mload(0x40)\n      0x08c379a000000000000000000000000000000000000000000000000000000000\n      dup2\n      mstore\n      0x04\n      add\n      tag_20\n      swap1\n      tag_21\n      jump\t// in\n    tag_20:\n      mload(0x40)\n      dup1\n      swap2\n      sub\n      swap1\n      revert\n    tag_19:\n        /* \"UserBank.sol\":470:476  amount */\n      dup1\n        /* \"UserBank.sol\":454:466  TotalBalance */\n      0x01\n      0x00\n        /* \"UserBank.sol\":454:476  TotalBalance += amount */\n      dup3\n      dup3\n      sload\n      tag_22\n      swap2\n      swap1\n      tag_23\n      jump\t// in\n    tag_22:\n      swap3\n      pop\n      pop\n      dup2\n      swap1\n      sstore\n      pop\n        /* \"UserBank.sol\":352:528  function deposit (uint amount) external  {... */\n      pop\n      jump\t// out\n        /* \"UserBank.sol\":536:685  function withdraw_cash (uint _amount) external {... */\n    tag_16:\n        /* \"UserBank.sol\":609:621  TotalBalance */\n      sload(0x01)\n        /* \"UserBank.sol\":602:605  100 */\n      0x64\n        /* \"UserBank.sol\":602:621  100 >= TotalBalance */\n      lt\n      iszero\n        /* \"UserBank.sol\":594:643  require(100 >= TotalBalance, \"Insufficient fund\") */\n      tag_25\n      jumpi\n      mload(0x40)\n      0x08c379a000000000000000000000000000000000000000000000000000000000\n      dup2\n      mstore\n      0x04\n      add\n      tag_26\n      swap1\n      tag_27\n      jump\t// in\n    tag_26:\n      mload(0x40)\n      dup1\n      swap2\n      sub\n      swap1\n      revert\n    tag_25:\n        /* \"UserBank.sol\":670:677  _amount */\n      dup1\n        /* \"UserBank.sol\":654:666  TotalBalance */\n      0x01\n      0x00\n        /* \"UserBank.sol\":654:677  TotalBalance -= _amount */\n      dup3\n      dup3\n      sload\n      tag_28\n      swap2\n      swap1\n      tag_29\n      jump\t// in\n    tag_28:\n      swap3\n      pop\n      pop\n      dup2\n      swap1\n      sstore\n      pop\n        /* \"UserBank.sol\":536:685  function withdraw_cash (uint _amount) external {... */\n      pop\n      jump\t// out\n        /* \"#utility.yul\":7:84   */\n    tag_30:\n        /* \"#utility.yul\":44:51   */\n      0x00\n        /* \"#utility.yul\":73:78   */\n      dup2\n        /* \"#utility.yul\":62:78   */\n      swap1\n      pop\n        /* \"#utility.yul\":7:84   */\n      swap2\n      swap1\n      pop\n      jump\t// out\n        /* \"#utility.yul\":90:208   */\n    tag_31:\n        /* \"#utility.yul\":177:201   */\n      tag_46\n        /* \"#utility.yul\":195:200   */\n      dup2\n        /* \"#utility.yul\":177:201   */\n      tag_30\n      jump\t// in\n    tag_46:\n        /* \"#utility.yul\":172:175   */\n      dup3\n        /* \"#utility.yul\":165:202   */\n      mstore\n        /* \"#utility.yul\":90:208   */\n      pop\n      pop\n      jump\t// out\n        /* \"#utility.yul\":214:436   */\n    tag_9:\n        /* \"#utility.yul\":307:311   */\n      0x00\n        /* \"#utility.yul\":345:347   */\n      0x20\n        /* \"#utility.yul\":334:343   */\n      dup3\n        /* \"#utility.yul\":330:348   */\n      add\n        /* \"#utility.yul\":322:348   */\n      swap1\n      pop\n        /* \"#utility.yul\":358:429   */\n      tag_48\n        /* \"#utility.yul\":426:427   */\n      0x00\n        /* \"#utility.yul\":415:424   */\n      dup4\n        /* \"#utility.yul\":411:428   */\n      add\n        /* \"#utility.yul\":402:408   */\n      dup5\n        /* \"#utility.yul\":358:429   */\n      tag_31\n      jump\t// in\n    tag_48:\n        /* \"#utility.yul\":214:436   */\n      swap3\n      swap2\n      pop\n      pop\n      jump\t// out\n        /* \"#utility.yul\":523:640   */\n    tag_33:\n        /* \"#utility.yul\":632:633   */\n      0x00\n        /* \"#utility.yul\":629:630   */\n      0x00\n        /* \"#utility.yul\":622:634   */\n      revert\n        /* \"#utility.yul\":769:891   */\n    tag_35:\n        /* \"#utility.yul\":842:866   */\n      tag_53\n        /* \"#utility.yul\":860:865   */\n      dup2\n        /* \"#utility.yul\":842:866   */\n      tag_30\n      jump\t// in\n    tag_53:\n        /* \"#utility.yul\":835:840   */\n      dup2\n        /* \"#utility.yul\":832:867   */\n      eq\n        /* \"#utility.yul\":822:885   */\n      tag_54\n      jumpi\n        /* \"#utility.yul\":881:882   */\n      0x00\n        /* \"#utility.yul\":878:879   */\n      0x00\n        /* \"#utility.yul\":871:883   */\n      revert\n        /* \"#utility.yul\":822:885   */\n    tag_54:\n        /* \"#utility.yul\":769:891   */\n      pop\n      jump\t// out\n        /* \"#utility.yul\":897:1036   */\n    tag_36:\n        /* \"#utility.yul\":943:948   */\n      0x00\n        /* \"#utility.yul\":981:987   */\n      dup2\n        /* \"#utility.yul\":968:988   */\n      calldataload\n        /* \"#utility.yul\":959:988   */\n      swap1\n      pop\n        /* \"#utility.yul\":997:1030   */\n      tag_56\n        /* \"#utility.yul\":1024:1029   */\n      dup2\n        /* \"#utility.yul\":997:1030   */\n      tag_35\n      jump\t// in\n    tag_56:\n        /* \"#utility.yul\":897:1036   */\n      swap3\n      swap2\n      pop\n      pop\n      jump\t// out\n        /* \"#utility.yul\":1042:1371   */\n    tag_12:\n        /* \"#utility.yul\":1101:1107   */\n      0x00\n        /* \"#utility.yul\":1150:1152   */\n      0x20\n        /* \"#utility.yul\":1138:1147   */\n      dup3\n        /* \"#utility.yul\":1129:1136   */\n      dup5\n        /* \"#utility.yul\":1125:1148   */\n      sub\n        /* \"#utility.yul\":1121:1153   */\n      slt\n        /* \"#utility.yul\":1118:1237   */\n      iszero\n      tag_58\n      jumpi\n        /* \"#utility.yul\":1156:1235   */\n      tag_59\n      tag_33\n      jump\t// in\n    tag_59:\n        /* \"#utility.yul\":1118:1237   */\n    tag_58:\n        /* \"#utility.yul\":1276:1277   */\n      0x00\n        /* \"#utility.yul\":1301:1354   */\n      tag_60\n        /* \"#utility.yul\":1346:1353   */\n      dup5\n        /* \"#utility.yul\":1337:1343   */\n      dup3\n        /* \"#utility.yul\":1326:1335   */\n      dup6\n        /* \"#utility.yul\":1322:1344   */\n      add\n        /* \"#utility.yul\":1301:1354   */\n      tag_36\n      jump\t// in\n    tag_60:\n        /* \"#utility.yul\":1291:1354   */\n      swap2\n      pop\n        /* \"#utility.yul\":1247:1364   */\n      pop\n        /* \"#utility.yul\":1042:1371   */\n      swap3\n      swap2\n      pop\n      pop\n      jump\t// out\n        /* \"#utility.yul\":1377:1546   */\n    tag_37:\n        /* \"#utility.yul\":1461:1472   */\n      0x00\n        /* \"#utility.yul\":1495:1501   */\n      dup3\n        /* \"#utility.yul\":1490:1493   */\n      dup3\n        /* \"#utility.yul\":1483:1502   */\n      mstore\n        /* \"#utility.yul\":1535:1539   */\n      0x20\n        /* \"#utility.yul\":1530:1533   */\n      dup3\n        /* \"#utility.yul\":1526:1540   */\n      add\n        /* \"#utility.yul\":1511:1540   */\n      swap1\n      pop\n        /* \"#utility.yul\":1377:1546   */\n      swap3\n      swap2\n      pop\n      pop\n      jump\t// out\n        /* \"#utility.yul\":1552:1716   */\n    tag_38:\n        /* \"#utility.yul\":1692:1708   */\n      0x41646420536f6d65204d6f6e6579000000000000000000000000000000000000\n        /* \"#utility.yul\":1688:1689   */\n      0x00\n        /* \"#utility.yul\":1680:1686   */\n      dup3\n        /* \"#utility.yul\":1676:1690   */\n      add\n        /* \"#utility.yul\":1669:1709   */\n      mstore\n        /* \"#utility.yul\":1552:1716   */\n      pop\n      jump\t// out\n        /* \"#utility.yul\":1722:2088   */\n    tag_39:\n        /* \"#utility.yul\":1864:1867   */\n      0x00\n        /* \"#utility.yul\":1885:1952   */\n      tag_64\n        /* \"#utility.yul\":1949:1951   */\n      0x0e\n        /* \"#utility.yul\":1944:1947   */\n      dup4\n        /* \"#utility.yul\":1885:1952   */\n      tag_37\n      jump\t// in\n    tag_64:\n        /* \"#utility.yul\":1878:1952   */\n      swap2\n      pop\n        /* \"#utility.yul\":1961:2054   */\n      tag_65\n        /* \"#utility.yul\":2050:2053   */\n      dup3\n        /* \"#utility.yul\":1961:2054   */\n      tag_38\n      jump\t// in\n    tag_65:\n        /* \"#utility.yul\":2079:2081   */\n      0x20\n        /* \"#utility.yul\":2074:2077   */\n      dup3\n        /* \"#utility.yul\":2070:2082   */\n      add\n        /* \"#utility.yul\":2063:2082   */\n      swap1\n      pop\n        /* \"#utility.yul\":1722:2088   */\n      swap2\n      swap1\n      pop\n      jump\t// out\n        /* \"#utility.yul\":2094:2513   */\n    tag_21:\n        /* \"#utility.yul\":2260:2264   */\n      0x00\n        /* \"#utility.yul\":2298:2300   */\n      0x20\n        /* \"#utility.yul\":2287:2296   */\n      dup3\n        /* \"#utility.yul\":2283:2301   */\n      add\n        /* \"#utility.yul\":2275:2301   */\n      swap1\n      pop\n        /* \"#utility.yul\":2347:2356   */\n      dup2\n        /* \"#utility.yul\":2341:2345   */\n      dup2\n        /* \"#utility.yul\":2337:2357   */\n      sub\n        /* \"#utility.yul\":2333:2334   */\n      0x00\n        /* \"#utility.yul\":2322:2331   */\n      dup4\n        /* \"#utility.yul\":2318:2335   */\n      add\n        /* \"#utility.yul\":2311:2358   */\n      mstore\n        /* \"#utility.yul\":2375:2506   */\n      tag_67\n        /* \"#utility.yul\":2501:2505   */\n      dup2\n        /* \"#utility.yul\":2375:2506   */\n      tag_39\n      jump\t// in\n    tag_67:\n        /* \"#utility.yul\":2367:2506   */\n      swap1\n      pop\n        /* \"#utility.yul\":2094:2513   */\n      swap2\n      swap1\n      pop\n      jump\t// out\n        /* \"#utility.yul\":2519:2699   */\n    tag_40:\n        /* \"#utility.yul\":2567:2644   */\n      0x4e487b7100000000000000000000000000000000000000000000000000000000\n        /* \"#utility.yul\":2564:2565   */\n      0x00\n        /* \"#utility.yul\":2557:2645   */\n      mstore\n        /* \"#utility.yul\":2664:2668   */\n      0x11\n        /* \"#utility.yul\":2661:2662   */\n      0x04\n        /* \"#utility.yul\":2654:2669   */\n      mstore\n        /* \"#utility.yul\":2688:2692   */\n      0x24\n        /* \"#utility.yul\":2685:2686   */\n      0x00\n        /* \"#utility.yul\":2678:2693   */\n      revert\n        /* \"#utility.yul\":2705:2896   */\n    tag_23:\n        /* \"#utility.yul\":2745:2748   */\n      0x00\n        /* \"#utility.yul\":2764:2784   */\n      tag_70\n        /* \"#utility.yul\":2782:2783   */\n      dup3\n        /* \"#utility.yul\":2764:2784   */\n      tag_30\n      jump\t// in\n    tag_70:\n        /* \"#utility.yul\":2759:2784   */\n      swap2\n      pop\n        /* \"#utility.yul\":2798:2818   */\n      tag_71\n        /* \"#utility.yul\":2816:2817   */\n      dup4\n        /* \"#utility.yul\":2798:2818   */\n      tag_30\n      jump\t// in\n    tag_71:\n        /* \"#utility.yul\":2793:2818   */\n      swap3\n      pop\n        /* \"#utility.yul\":2841:2842   */\n      dup3\n        /* \"#utility.yul\":2838:2839   */\n      dup3\n        /* \"#utility.yul\":2834:2843   */\n      add\n        /* \"#utility.yul\":2827:2843   */\n      swap1\n      pop\n        /* \"#utility.yul\":2862:2865   */\n      dup1\n        /* \"#utility.yul\":2859:2860   */\n      dup3\n        /* \"#utility.yul\":2856:2866   */\n      gt\n        /* \"#utility.yul\":2853:2889   */\n      iszero\n      tag_72\n      jumpi\n        /* \"#utility.yul\":2869:2887   */\n      tag_73\n      tag_40\n      jump\t// in\n    tag_73:\n        /* \"#utility.yul\":2853:2889   */\n    tag_72:\n        /* \"#utility.yul\":2705:2896   */\n      swap3\n      swap2\n      pop\n      pop\n      jump\t// out\n        /* \"#utility.yul\":2902:3069   */\n    tag_41:\n        /* \"#utility.yul\":3042:3061   */\n      0x496e73756666696369656e742066756e64000000000000000000000000000000\n        /* \"#utility.yul\":3038:3039   */\n      0x00\n        /* \"#utility.yul\":3030:3036   */\n      dup3\n        /* \"#utility.yul\":3026:3040   */\n      add\n        /* \"#utility.yul\":3019:3062   */\n      mstore\n        /* \"#utility.yul\":2902:3069   */\n      pop\n      jump\t// out\n        /* \"#utility.yul\":3075:3441   */\n    tag_42:\n        /* \"#utility.yul\":3217:3220   */\n      0x00\n        /* \"#utility.yul\":3238:3305   */\n      tag_76\n        /* \"#utility.yul\":3302:3304   */\n      0x11\n        /* \"#utility.yul\":3297:3300   */\n      dup4\n        /* \"#utility.yul\":3238:3305   */\n      tag_37\n      jump\t// in\n    tag_76:\n        /* \"#utility.yul\":3231:3305   */\n      swap2\n      pop\n        /* \"#utility.yul\":3314:3407   */\n      tag_77\n        /* \"#utility.yul\":3403:3406   */\n      dup3\n        /* \"#utility.yul\":3314:3407   */\n      tag_41\n      jump\t// in\n    tag_77:\n        /* \"#utility.yul\":3432:3434   */\n      0x20\n        /* \"#utility.yul\":3427:3430   */\n      dup3\n        /* \"#utility.yul\":3423:3435   */\n      add\n        /* \"#utility.yul\":3416:3435   */\n      swap1\n      pop\n        /* \"#utility.yul\":3075:3441   */\n      swap2\n      swap1\n      pop\n      jump\t// out\n        /* \"#utility.yul\":3447:3866   */\n    tag_27:\n        /* \"#utility.yul\":3613:3617   */\n      0x00\n        /* \"#utility.yul\":3651:3653   */\n      0x20\n        /* \"#utility.yul\":3640:3649   */\n      dup3\n        /* \"#utility.yul\":3636:3654   */\n      add\n        /* \"#utility.yul\":3628:3654   */\n      swap1\n      pop\n        /* \"#utility.yul\":3700:3709   */\n      dup2\n        /* \"#utility.yul\":3694:3698   */\n      dup2\n        /* \"#utility.yul\":3690:3710   */\n      sub\n        /* \"#utility.yul\":3686:3687   */\n      0x00\n        /* \"#utility.yul\":3675:3684   */\n      dup4\n        /* \"#utility.yul\":3671:3688   */\n      add\n        /* \"#utility.yul\":3664:3711   */\n      mstore\n        /* \"#utility.yul\":3728:3859   */\n      tag_79\n        /* \"#utility.yul\":3854:3858   */\n      dup2\n        /* \"#utility.yul\":3728:3859   */\n      tag_42\n      jump\t// in\n    tag_79:\n        /* \"#utility.yul\":3720:3859   */\n      swap1\n      pop\n        /* \"#utility.yul\":3447:3866   */\n      swap2\n      swap1\n      pop\n      jump\t// out\n        /* \"#utility.yul\":3872:4066   */\n    tag_29:\n        /* \"#utility.yul\":3912:3916   */\n      0x00\n        /* \"#utility.yul\":3932:3952   */\n      tag_81\n        /* \"#utility.yul\":3950:3951   */\n      dup3\n        /* \"#utility.yul\":3932:3952   */\n      tag_30\n      jump\t// in\n    tag_81:\n        /* \"#utility.yul\":3927:3952   */\n      swap2\n      pop\n        /* \"#utility.yul\":3966:3986   */\n      tag_82\n        /* \"#utility.yul\":3984:3985   */\n      dup4\n        /* \"#utility.yul\":3966:3986   */\n      tag_30\n      jump\t// in\n    tag_82:\n        /* \"#utility.yul\":3961:3986   */\n      swap3\n      pop\n        /* \"#utility.yul\":4010:4011   */\n      dup3\n        /* \"#utility.yul\":4007:4008   */\n      dup3\n        /* \"#utility.yul\":4003:4012   */\n      sub\n        /* \"#utility.yul\":3995:4012   */\n      swap1\n      pop\n        /* \"#utility.yul\":4034:4035   */\n      dup2\n        /* \"#utility.yul\":4028:4032   */\n      dup2\n        /* \"#utility.yul\":4025:4036   */\n      gt\n        /* \"#utility.yul\":4022:4059   */\n      iszero\n      tag_83\n      jumpi\n        /* \"#utility.yul\":4039:4057   */\n      tag_84\n      tag_40\n      jump\t// in\n    tag_84:\n        /* \"#utility.yul\":4022:4059   */\n    tag_83:\n        /* \"#utility.yul\":3872:4066   */\n      swap3\n      swap2\n      pop\n      pop\n      jump\t// out\n\n    auxdata: 0xa2646970667358221220360b00324fb152ed1993bbda2b9a9dd636e659be443a38491ca969dd1e7256ad64736f6c63430008220033\n}\n",
				"bytecode": {
					"linkReferences": {},
					"object": "6080604052348015600e575f5ffd5b50335f5f6101000a81548173ffffffffffffffffffffffffffffffffffffffff021916908373ffffffffffffffffffffffffffffffffffffffff1602179055506103948061005b5f395ff3fe608060405234801561000f575f5ffd5b506004361061003f575f3560e01c8063af32802514610043578063b6b55f2514610061578063b9c18f1c1461007d575b5f5ffd5b61004b610099565b6040516100589190610179565b60405180910390f35b61007b600480360381019061007691906101c0565b6100a2565b005b610097600480360381019061009291906101c0565b610100565b005b5f600154905090565b606481116100e5576040517f08c379a00000000000000000000000000000000000000000000000000000000081526004016100dc90610245565b60405180910390fd5b8060015f8282546100f69190610290565b9250508190555050565b60015460641015610146576040517f08c379a000000000000000000000000000000000000000000000000000000000815260040161013d9061030d565b60405180910390fd5b8060015f828254610157919061032b565b9250508190555050565b5f819050919050565b61017381610161565b82525050565b5f60208201905061018c5f83018461016a565b92915050565b5f5ffd5b61019f81610161565b81146101a9575f5ffd5b50565b5f813590506101ba81610196565b92915050565b5f602082840312156101d5576101d4610192565b5b5f6101e2848285016101ac565b91505092915050565b5f82825260208201905092915050565b7f41646420536f6d65204d6f6e65790000000000000000000000000000000000005f82015250565b5f61022f600e836101eb565b915061023a826101fb565b602082019050919050565b5f6020820190508181035f83015261025c81610223565b9050919050565b7f4e487b71000000000000000000000000000000000000000000000000000000005f52601160045260245ffd5b5f61029a82610161565b91506102a583610161565b92508282019050808211156102bd576102bc610263565b5b92915050565b7f496e73756666696369656e742066756e640000000000000000000000000000005f82015250565b5f6102f76011836101eb565b9150610302826102c3565b602082019050919050565b5f6020820190508181035f830152610324816102eb565b9050919050565b5f61033582610161565b915061034083610161565b925082820390508181111561035857610357610263565b5b9291505056fea2646970667358221220360b00324fb152ed1993bbda2b9a9dd636e659be443a38491ca969dd1e7256ad64736f6c63430008220033",
					"opcodes": "PUSH1 0x80 PUSH1 0x40 MSTORE CALLVALUE DUP1 ISZERO PUSH1 0xE JUMPI PUSH0 PUSH0 REVERT JUMPDEST POP CALLER PUSH0 PUSH0 PUSH2 0x100 EXP DUP2 SLOAD DUP2 PUSH20 0xFFFFFFFFFFFFFFFFFFFFFFFFFFFFFFFFFFFFFFFF MUL NOT AND SWAP1 DUP4 PUSH20 0xFFFFFFFFFFFFFFFFFFFFFFFFFFFFFFFFFFFFFFFF AND MUL OR SWAP1 SSTORE POP PUSH2 0x394 DUP1 PUSH2 0x5B PUSH0 CODECOPY PUSH0 RETURN INVALID PUSH1 0x80 PUSH1 0x40 MSTORE CALLVALUE DUP1 ISZERO PUSH2 0xF JUMPI PUSH0 PUSH0 REVERT JUMPDEST POP PUSH1 0x4 CALLDATASIZE LT PUSH2 0x3F JUMPI PUSH0 CALLDATALOAD PUSH1 0xE0 SHR DUP1 PUSH4 0xAF328025 EQ PUSH2 0x43 JUMPI DUP1 PUSH4 0xB6B55F25 EQ PUSH2 0x61 JUMPI DUP1 PUSH4 0xB9C18F1C EQ PUSH2 0x7D JUMPI JUMPDEST PUSH0 PUSH0 REVERT JUMPDEST PUSH2 0x4B PUSH2 0x99 JUMP JUMPDEST PUSH1 0x40 MLOAD PUSH2 0x58 SWAP2 SWAP1 PUSH2 0x179 JUMP JUMPDEST PUSH1 0x40 MLOAD DUP1 SWAP2 SUB SWAP1 RETURN JUMPDEST PUSH2 0x7B PUSH1 0x4 DUP1 CALLDATASIZE SUB DUP2 ADD SWAP1 PUSH2 0x76 SWAP2 SWAP1 PUSH2 0x1C0 JUMP JUMPDEST PUSH2 0xA2 JUMP JUMPDEST STOP JUMPDEST PUSH2 0x97 PUSH1 0x4 DUP1 CALLDATASIZE SUB DUP2 ADD SWAP1 PUSH2 0x92 SWAP2 SWAP1 PUSH2 0x1C0 JUMP JUMPDEST PUSH2 0x100 JUMP JUMPDEST STOP JUMPDEST PUSH0 PUSH1 0x1 SLOAD SWAP1 POP SWAP1 JUMP JUMPDEST PUSH1 0x64 DUP2 GT PUSH2 0xE5 JUMPI PUSH1 0x40 MLOAD PUSH32 0x8C379A000000000000000000000000000000000000000000000000000000000 DUP2 MSTORE PUSH1 0x4 ADD PUSH2 0xDC SWAP1 PUSH2 0x245 JUMP JUMPDEST PUSH1 0x40 MLOAD DUP1 SWAP2 SUB SWAP1 REVERT JUMPDEST DUP1 PUSH1 0x1 PUSH0 DUP3 DUP3 SLOAD PUSH2 0xF6 SWAP2 SWAP1 PUSH2 0x290 JUMP JUMPDEST SWAP3 POP POP DUP2 SWAP1 SSTORE POP POP JUMP JUMPDEST PUSH1 0x1 SLOAD PUSH1 0x64 LT ISZERO PUSH2 0x146 JUMPI PUSH1 0x40 MLOAD PUSH32 0x8C379A000000000000000000000000000000000000000000000000000000000 DUP2 MSTORE PUSH1 0x4 ADD PUSH2 0x13D SWAP1 PUSH2 0x30D JUMP JUMPDEST PUSH1 0x40 MLOAD DUP1 SWAP2 SUB SWAP1 REVERT JUMPDEST DUP1 PUSH1 0x1 PUSH0 DUP3 DUP3 SLOAD PUSH2 0x157 SWAP2 SWAP1 PUSH2 0x32B JUMP JUMPDEST SWAP3 POP POP DUP2 SWAP1 SSTORE POP POP JUMP JUMPDEST PUSH0 DUP2 SWAP1 POP SWAP2 SWAP1 POP JUMP JUMPDEST PUSH2 0x173 DUP2 PUSH2 0x161 JUMP JUMPDEST DUP3 MSTORE POP POP JUMP JUMPDEST PUSH0 PUSH1 0x20 DUP3 ADD SWAP1 POP PUSH2 0x18C PUSH0 DUP4 ADD DUP5 PUSH2 0x16A JUMP JUMPDEST SWAP3 SWAP2 POP POP JUMP JUMPDEST PUSH0 PUSH0 REVERT JUMPDEST PUSH2 0x19F DUP2 PUSH2 0x161 JUMP JUMPDEST DUP2 EQ PUSH2 0x1A9 JUMPI PUSH0 PUSH0 REVERT JUMPDEST POP JUMP JUMPDEST PUSH0 DUP2 CALLDATALOAD SWAP1 POP PUSH2 0x1BA DUP2 PUSH2 0x196 JUMP JUMPDEST SWAP3 SWAP2 POP POP JUMP JUMPDEST PUSH0 PUSH1 0x20 DUP3 DUP5 SUB SLT ISZERO PUSH2 0x1D5 JUMPI PUSH2 0x1D4 PUSH2 0x192 JUMP JUMPDEST JUMPDEST PUSH0 PUSH2 0x1E2 DUP5 DUP3 DUP6 ADD PUSH2 0x1AC JUMP JUMPDEST SWAP2 POP POP SWAP3 SWAP2 POP POP JUMP JUMPDEST PUSH0 DUP3 DUP3 MSTORE PUSH1 0x20 DUP3 ADD SWAP1 POP SWAP3 SWAP2 POP POP JUMP JUMPDEST PUSH32 0x41646420536F6D65204D6F6E6579000000000000000000000000000000000000 PUSH0 DUP3 ADD MSTORE POP JUMP JUMPDEST PUSH0 PUSH2 0x22F PUSH1 0xE DUP4 PUSH2 0x1EB JUMP JUMPDEST SWAP2 POP PUSH2 0x23A DUP3 PUSH2 0x1FB JUMP JUMPDEST PUSH1 0x20 DUP3 ADD SWAP1 POP SWAP2 SWAP1 POP JUMP JUMPDEST PUSH0 PUSH1 0x20 DUP3 ADD SWAP1 POP DUP2 DUP2 SUB PUSH0 DUP4 ADD MSTORE PUSH2 0x25C DUP2 PUSH2 0x223 JUMP JUMPDEST SWAP1 POP SWAP2 SWAP1 POP JUMP JUMPDEST PUSH32 0x4E487B7100000000000000000000000000000000000000000000000000000000 PUSH0 MSTORE PUSH1 0x11 PUSH1 0x4 MSTORE PUSH1 0x24 PUSH0 REVERT JUMPDEST PUSH0 PUSH2 0x29A DUP3 PUSH2 0x161 JUMP JUMPDEST SWAP2 POP PUSH2 0x2A5 DUP4 PUSH2 0x161 JUMP JUMPDEST SWAP3 POP DUP3 DUP3 ADD SWAP1 POP DUP1 DUP3 GT ISZERO PUSH2 0x2BD JUMPI PUSH2 0x2BC PUSH2 0x263 JUMP JUMPDEST JUMPDEST SWAP3 SWAP2 POP POP JUMP JUMPDEST PUSH32 0x496E73756666696369656E742066756E64000000000000000000000000000000 PUSH0 DUP3 ADD MSTORE POP JUMP JUMPDEST PUSH0 PUSH2 0x2F7 PUSH1 0x11 DUP4 PUSH2 0x1EB JUMP JUMPDEST SWAP2 POP PUSH2 0x302 DUP3 PUSH2 0x2C3 JUMP JUMPDEST PUSH1 0x20 DUP3 ADD SWAP1 POP SWAP2 SWAP1 POP JUMP JUMPDEST PUSH0 PUSH1 0x20 DUP3 ADD SWAP1 POP DUP2 DUP2 SUB PUSH0 DUP4 ADD MSTORE PUSH2 0x324 DUP2 PUSH2 0x2EB JUMP JUMPDEST SWAP1 POP SWAP2 SWAP1 POP JUMP JUMPDEST PUSH0 PUSH2 0x335 DUP3 PUSH2 0x161 JUMP JUMPDEST SWAP2 POP PUSH2 0x340 DUP4 PUSH2 0x161 JUMP JUMPDEST SWAP3 POP DUP3 DUP3 SUB SWAP1 POP DUP2 DUP2 GT ISZERO PUSH2 0x358 JUMPI PUSH2 0x357 PUSH2 0x263 JUMP JUMPDEST JUMPDEST SWAP3 SWAP2 POP POP JUMP INVALID LOG2 PUSH5 0x6970667358 0x22 SLT KECCAK256 CALLDATASIZE SIGNEXTEND STOP ORIGIN 0x4F 0xB1 MSTORE 0xED NOT SWAP4 0xBB 0xDA 0x2B SWAP11 SWAP14 0xD6 CALLDATASIZE DUPN 0x59 0xBE PREVRANDAO GASPRICE CODESIZE BLOBHASH SHR 0xA9 PUSH10 0xDD1E7256AD64736F6C63 NUMBER STOP ADDMOD 0x22 STOP CALLER "
				},
				"gasEstimates": {
					"creation": {
						"codeDepositCost": "183200",
						"executionCost": "24488",
						"totalCost": "207688"
					},
					"external": {
						"Get_Balance()": "2410",
						"deposit(uint256)": "infinite",
						"withdraw_cash(uint256)": "infinite"
					}
				},
				"methodIdentifiers": {
					"Get_Balance()": "af328025",
					"deposit(uint256)": "b6b55f25",
					"withdraw_cash(uint256)": "b9c18f1c"
				}
			},
			"storageLayout": {
				"storage": [
					{
						"astId": 3,
						"contract": "UserBank.sol:UserBank",
						"label": "owner",
						"offset": 0,
						"slot": "0",
						"type": "t_address"
					},
					{
						"astId": 5,
						"contract": "UserBank.sol:UserBank",
						"label": "TotalBalance",
						"offset": 0,
						"slot": "1",
						"type": "t_uint256"
					}
				],
				"types": {
					"t_address": {
						"encoding": "inplace",
						"label": "address",
						"numberOfBytes": "20"
					},
					"t_uint256": {
						"encoding": "inplace",
						"label": "uint256",
						"numberOfBytes": "32"
					}
				}
			},
			"userdoc": {
				"kind": "user",
				"methods": {},
				"version": 1
			}
		}
	}
}