{
	"mapping_tp.sol": {
		"SimpleWallet": {
			"abi": [
				{
					"anonymous": false,
					"inputs": [
						{
							"indexed": true,
							"internalType": "address",
							"name": "user",
							"type": "address"
						},
						{
							"indexed": false,
							"internalType": "uint256",
							"name": "amount",
							"type": "uint256"
						}
					],
					"name": "Deposited",
					"type": "event"
				},
				{
					"anonymous": false,
					"inputs": [
						{
							"indexed": true,
							"internalType": "address",
							"name": "user",
							"type": "address"
						},
						{
							"indexed": false,
							"internalType": "uint256",
							"name": "amount",
							"type": "uint256"
						}
					],
					"name": "Withdrawn",
					"type": "event"
				},
				{
					"inputs": [
						{
							"internalType": "address",
							"name": "",
							"type": "address"
						}
					],
					"name": "balances",
					"outputs": [
						{
							"internalType": "uint256",
							"name": "",
							"type": "uint256"
						}
					],
					"stateMutability": "view",
					"type": "function"
				},
				{
					"inputs": [],
					"name": "deposit",
					"outputs": [],
					"stateMutability": "payable",
					"type": "function"
				},
				{
					"inputs": [
						{
							"internalType": "uint256",
							"name": "amount",
							"type": "uint256"
						},
						{
							"internalType": "address",
							"name": "sencond_PERSON",
							"type": "address"
						}
					],
					"name": "withdrawUsingTransfer",
					"outputs": [],
					"stateMutability": "nonpayable",
					"type": "function"
				}
			],
			"devdoc": {
				"kind": "dev",
				"methods": {},
				"version": 1
			},
			"evm": {
				"assembly": "    /* \"mapping_tp.sol\":58:1034  contract SimpleWallet {... */\n  mstore(0x40, 0x80)\n  callvalue\n  dup1\n  iszero\n  tag_1\n  jumpi\n  0x00\n  dup1\n  revert\ntag_1:\n  pop\n  dataSize(sub_0)\n  dup1\n  dataOffset(sub_0)\n  0x00\n  codecopy\n  0x00\n  return\nstop\n\nsub_0: assembly {\n        /* \"mapping_tp.sol\":58:1034  contract SimpleWallet {... */\n      mstore(0x40, 0x80)\n      jumpi(tag_1, lt(calldatasize, 0x04))\n      shr(0xe0, calldataload(0x00))\n      dup1\n      0x27e235e3\n      eq\n      tag_2\n      jumpi\n      dup1\n      0xc5fca73e\n      eq\n      tag_3\n      jumpi\n      dup1\n      0xd0e30db0\n      eq\n      tag_4\n      jumpi\n    tag_1:\n      0x00\n      dup1\n      revert\n        /* \"mapping_tp.sol\":131:171  mapping(address => uint) public balances */\n    tag_2:\n      callvalue\n      dup1\n      iszero\n      tag_5\n      jumpi\n      0x00\n      dup1\n      revert\n    tag_5:\n      pop\n      tag_6\n      0x04\n      dup1\n      calldatasize\n      sub\n      dup2\n      add\n      swap1\n      tag_7\n      swap2\n      swap1\n      tag_8\n      jump\t// in\n    tag_7:\n      tag_9\n      jump\t// in\n    tag_6:\n      mload(0x40)\n      tag_10\n      swap2\n      swap1\n      tag_11\n      jump\t// in\n    tag_10:\n      mload(0x40)\n      dup1\n      swap2\n      sub\n      swap1\n      return\n        /* \"mapping_tp.sol\":736:1031  function withdrawUsingTransfer(uint amount,address sencond_PERSON) public {... */\n    tag_3:\n      callvalue\n      dup1\n      iszero\n      tag_12\n      jumpi\n      0x00\n      dup1\n      revert\n    tag_12:\n      pop\n      tag_13\n      0x04\n      dup1\n      calldatasize\n      sub\n      dup2\n      add\n      swap1\n      tag_14\n      swap2\n      swap1\n      tag_15\n      jump\t// in\n    tag_14:\n      tag_16\n      jump\t// in\n    tag_13:\n      stop\n        /* \"mapping_tp.sol\":478:668  function deposit() public payable {... */\n    tag_4:\n      tag_17\n      tag_18\n      jump\t// in\n    tag_17:\n      stop\n        /* \"mapping_tp.sol\":131:171  mapping(address => uint) public balances */\n    tag_9:\n      mstore(0x20, 0x00)\n      dup1\n      0x00\n      mstore\n      keccak256(0x00, 0x40)\n      0x00\n      swap2\n      pop\n      swap1\n      pop\n      sload\n      dup2\n      jump\t// out\n        /* \"mapping_tp.sol\":736:1031  function withdrawUsingTransfer(uint amount,address sencond_PERSON) public {... */\n    tag_16:\n        /* \"mapping_tp.sol\":853:859  amount */\n      dup2\n        /* \"mapping_tp.sol\":829:837  balances */\n      0x00\n        /* \"mapping_tp.sol\":829:849  balances[msg.sender] */\n      dup1\n        /* \"mapping_tp.sol\":838:848  msg.sender */\n      caller\n        /* \"mapping_tp.sol\":829:849  balances[msg.sender] */\n      0xffffffffffffffffffffffffffffffffffffffff\n      and\n      0xffffffffffffffffffffffffffffffffffffffff\n      and\n      dup2\n      mstore\n      0x20\n      add\n      swap1\n      dup2\n      mstore\n      0x20\n      add\n      0x00\n      keccak256\n      sload\n        /* \"mapping_tp.sol\":829:859  balances[msg.sender] >= amount */\n      lt\n      iszero\n        /* \"mapping_tp.sol\":821:882  require(balances[msg.sender] >= amount, \"Not enough balance\") */\n      tag_20\n      jumpi\n      mload(0x40)\n      0x08c379a000000000000000000000000000000000000000000000000000000000\n      dup2\n      mstore\n      0x04\n      add\n      tag_21\n      swap1\n      tag_22\n      jump\t// in\n    tag_21:\n      mload(0x40)\n      dup1\n      swap2\n      sub\n      swap1\n      revert\n    tag_20:\n        /* \"mapping_tp.sol\":919:925  amount */\n      dup2\n        /* \"mapping_tp.sol\":895:903  balances */\n      0x00\n        /* \"mapping_tp.sol\":895:915  balances[msg.sender] */\n      dup1\n        /* \"mapping_tp.sol\":904:914  msg.sender */\n      caller\n        /* \"mapping_tp.sol\":895:915  balances[msg.sender] */\n      0xffffffffffffffffffffffffffffffffffffffff\n      and\n      0xffffffffffffffffffffffffffffffffffffffff\n      and\n      dup2\n      mstore\n      0x20\n      add\n      swap1\n      dup2\n      mstore\n      0x20\n      add\n      0x00\n      keccak256\n      0x00\n        /* \"mapping_tp.sol\":895:925  balances[msg.sender] -= amount */\n      dup3\n      dup3\n      sload\n      tag_23\n      swap2\n      swap1\n      tag_24\n      jump\t// in\n    tag_23:\n      swap3\n      pop\n      pop\n      dup2\n      swap1\n      sstore\n      pop\n        /* \"mapping_tp.sol\":944:958  sencond_PERSON */\n      dup1\n        /* \"mapping_tp.sol\":936:968  payable(sencond_PERSON).transfer */\n      0xffffffffffffffffffffffffffffffffffffffff\n      and\n        /* \"mapping_tp.sol\":936:976  payable(sencond_PERSON).transfer(amount) */\n      0x08fc\n        /* \"mapping_tp.sol\":969:975  amount */\n      dup4\n        /* \"mapping_tp.sol\":936:976  payable(sencond_PERSON).transfer(amount) */\n      swap1\n      dup2\n      iszero\n      mul\n      swap1\n      mload(0x40)\n      0x00\n      mload(0x40)\n      dup1\n      dup4\n      sub\n      dup2\n      dup6\n      dup9\n      dup9\n      call\n      swap4\n      pop\n      pop\n      pop\n      pop\n      iszero\n      dup1\n      iszero\n      tag_26\n      jumpi\n      returndatasize\n      0x00\n      dup1\n      returndatacopy\n      revert(0x00, returndatasize)\n    tag_26:\n      pop\n        /* \"mapping_tp.sol\":1004:1014  msg.sender */\n      caller\n        /* \"mapping_tp.sol\":994:1023  Withdrawn(msg.sender, amount) */\n      0xffffffffffffffffffffffffffffffffffffffff\n      and\n      0x7084f5476618d8e60b11ef0d7d3f06914655adb8793e28ff7f018d4c76d505d5\n        /* \"mapping_tp.sol\":1016:1022  amount */\n      dup4\n        /* \"mapping_tp.sol\":994:1023  Withdrawn(msg.sender, amount) */\n      mload(0x40)\n      tag_27\n      swap2\n      swap1\n      tag_11\n      jump\t// in\n    tag_27:\n      mload(0x40)\n      dup1\n      swap2\n      sub\n      swap1\n      log2\n        /* \"mapping_tp.sol\":736:1031  function withdrawUsingTransfer(uint amount,address sencond_PERSON) public {... */\n      pop\n      pop\n      jump\t// out\n        /* \"mapping_tp.sol\":478:668  function deposit() public payable {... */\n    tag_18:\n        /* \"mapping_tp.sol\":543:544  0 */\n      0x00\n        /* \"mapping_tp.sol\":531:540  msg.value */\n      callvalue\n        /* \"mapping_tp.sol\":531:544  msg.value > 0 */\n      gt\n        /* \"mapping_tp.sol\":523:564  require(msg.value > 0, \"Send some Ether\") */\n      tag_29\n      jumpi\n      mload(0x40)\n      0x08c379a000000000000000000000000000000000000000000000000000000000\n      dup2\n      mstore\n      0x04\n      add\n      tag_30\n      swap1\n      tag_31\n      jump\t// in\n    tag_30:\n      mload(0x40)\n      dup1\n      swap2\n      sub\n      swap1\n      revert\n    tag_29:\n        /* \"mapping_tp.sol\":601:610  msg.value */\n      callvalue\n        /* \"mapping_tp.sol\":577:585  balances */\n      0x00\n        /* \"mapping_tp.sol\":577:597  balances[msg.sender] */\n      dup1\n        /* \"mapping_tp.sol\":586:596  msg.sender */\n      caller\n        /* \"mapping_tp.sol\":577:597  balances[msg.sender] */\n      0xffffffffffffffffffffffffffffffffffffffff\n      and\n      0xffffffffffffffffffffffffffffffffffffffff\n      and\n      dup2\n      mstore\n      0x20\n      add\n      swap1\n      dup2\n      mstore\n      0x20\n      add\n      0x00\n      keccak256\n      0x00\n        /* \"mapping_tp.sol\":577:610  balances[msg.sender] += msg.value */\n      dup3\n      dup3\n      sload\n      tag_32\n      swap2\n      swap1\n      tag_33\n      jump\t// in\n    tag_32:\n      swap3\n      pop\n      pop\n      dup2\n      swap1\n      sstore\n      pop\n        /* \"mapping_tp.sol\":638:648  msg.sender */\n      caller\n        /* \"mapping_tp.sol\":628:660  Deposited(msg.sender, msg.value) */\n      0xffffffffffffffffffffffffffffffffffffffff\n      and\n      0x2da466a7b24304f47e87fa2e1e5a81b9831ce54fec19055ce277ca2f39ba42c4\n        /* \"mapping_tp.sol\":650:659  msg.value */\n      callvalue\n        /* \"mapping_tp.sol\":628:660  Deposited(msg.sender, msg.value) */\n      mload(0x40)\n      tag_34\n      swap2\n      swap1\n      tag_11\n      jump\t// in\n    tag_34:\n      mload(0x40)\n      dup1\n      swap2\n      sub\n      swap1\n      log2\n        /* \"mapping_tp.sol\":478:668  function deposit() public payable {... */\n      jump\t// out\n        /* \"#utility.yul\":88:205   */\n    tag_36:\n        /* \"#utility.yul\":197:198   */\n      0x00\n        /* \"#utility.yul\":194:195   */\n      dup1\n        /* \"#utility.yul\":187:199   */\n      revert\n        /* \"#utility.yul\":334:460   */\n    tag_38:\n        /* \"#utility.yul\":371:378   */\n      0x00\n        /* \"#utility.yul\":411:453   */\n      0xffffffffffffffffffffffffffffffffffffffff\n        /* \"#utility.yul\":404:409   */\n      dup3\n        /* \"#utility.yul\":400:454   */\n      and\n        /* \"#utility.yul\":389:454   */\n      swap1\n      pop\n        /* \"#utility.yul\":334:460   */\n      swap2\n      swap1\n      pop\n      jump\t// out\n        /* \"#utility.yul\":466:562   */\n    tag_39:\n        /* \"#utility.yul\":503:510   */\n      0x00\n        /* \"#utility.yul\":532:556   */\n      tag_58\n        /* \"#utility.yul\":550:555   */\n      dup3\n        /* \"#utility.yul\":532:556   */\n      tag_38\n      jump\t// in\n    tag_58:\n        /* \"#utility.yul\":521:556   */\n      swap1\n      pop\n        /* \"#utility.yul\":466:562   */\n      swap2\n      swap1\n      pop\n      jump\t// out\n        /* \"#utility.yul\":568:690   */\n    tag_40:\n        /* \"#utility.yul\":641:665   */\n      tag_60\n        /* \"#utility.yul\":659:664   */\n      dup2\n        /* \"#utility.yul\":641:665   */\n      tag_39\n      jump\t// in\n    tag_60:\n        /* \"#utility.yul\":634:639   */\n      dup2\n        /* \"#utility.yul\":631:666   */\n      eq\n        /* \"#utility.yul\":621:684   */\n      tag_61\n      jumpi\n        /* \"#utility.yul\":680:681   */\n      0x00\n        /* \"#utility.yul\":677:678   */\n      dup1\n        /* \"#utility.yul\":670:682   */\n      revert\n        /* \"#utility.yul\":621:684   */\n    tag_61:\n        /* \"#utility.yul\":568:690   */\n      pop\n      jump\t// out\n        /* \"#utility.yul\":696:835   */\n    tag_41:\n        /* \"#utility.yul\":742:747   */\n      0x00\n        /* \"#utility.yul\":780:786   */\n      dup2\n        /* \"#utility.yul\":767:787   */\n      calldataload\n        /* \"#utility.yul\":758:787   */\n      swap1\n      pop\n        /* \"#utility.yul\":796:829   */\n      tag_63\n        /* \"#utility.yul\":823:828   */\n      dup2\n        /* \"#utility.yul\":796:829   */\n      tag_40\n      jump\t// in\n    tag_63:\n        /* \"#utility.yul\":696:835   */\n      swap3\n      swap2\n      pop\n      pop\n      jump\t// out\n        /* \"#utility.yul\":841:1170   */\n    tag_8:\n        /* \"#utility.yul\":900:906   */\n      0x00\n        /* \"#utility.yul\":949:951   */\n      0x20\n        /* \"#utility.yul\":937:946   */\n      dup3\n        /* \"#utility.yul\":928:935   */\n      dup5\n        /* \"#utility.yul\":924:947   */\n      sub\n        /* \"#utility.yul\":920:952   */\n      slt\n        /* \"#utility.yul\":917:1036   */\n      iszero\n      tag_65\n      jumpi\n        /* \"#utility.yul\":955:1034   */\n      tag_66\n      tag_36\n      jump\t// in\n    tag_66:\n        /* \"#utility.yul\":917:1036   */\n    tag_65:\n        /* \"#utility.yul\":1075:1076   */\n      0x00\n        /* \"#utility.yul\":1100:1153   */\n      tag_67\n        /* \"#utility.yul\":1145:1152   */\n      dup5\n        /* \"#utility.yul\":1136:1142   */\n      dup3\n        /* \"#utility.yul\":1125:1134   */\n      dup6\n        /* \"#utility.yul\":1121:1143   */\n      add\n        /* \"#utility.yul\":1100:1153   */\n      tag_41\n      jump\t// in\n    tag_67:\n        /* \"#utility.yul\":1090:1153   */\n      swap2\n      pop\n        /* \"#utility.yul\":1046:1163   */\n      pop\n        /* \"#utility.yul\":841:1170   */\n      swap3\n      swap2\n      pop\n      pop\n      jump\t// out\n        /* \"#utility.yul\":1176:1253   */\n    tag_42:\n        /* \"#utility.yul\":1213:1220   */\n      0x00\n        /* \"#utility.yul\":1242:1247   */\n      dup2\n        /* \"#utility.yul\":1231:1247   */\n      swap1\n      pop\n        /* \"#utility.yul\":1176:1253   */\n      swap2\n      swap1\n      pop\n      jump\t// out\n        /* \"#utility.yul\":1259:1377   */\n    tag_43:\n        /* \"#utility.yul\":1346:1370   */\n      tag_70\n        /* \"#utility.yul\":1364:1369   */\n      dup2\n        /* \"#utility.yul\":1346:1370   */\n      tag_42\n      jump\t// in\n    tag_70:\n        /* \"#utility.yul\":1341:1344   */\n      dup3\n        /* \"#utility.yul\":1334:1371   */\n      mstore\n        /* \"#utility.yul\":1259:1377   */\n      pop\n      pop\n      jump\t// out\n        /* \"#utility.yul\":1383:1605   */\n    tag_11:\n        /* \"#utility.yul\":1476:1480   */\n      0x00\n        /* \"#utility.yul\":1514:1516   */\n      0x20\n        /* \"#utility.yul\":1503:1512   */\n      dup3\n        /* \"#utility.yul\":1499:1517   */\n      add\n        /* \"#utility.yul\":1491:1517   */\n      swap1\n      pop\n        /* \"#utility.yul\":1527:1598   */\n      tag_72\n        /* \"#utility.yul\":1595:1596   */\n      0x00\n        /* \"#utility.yul\":1584:1593   */\n      dup4\n        /* \"#utility.yul\":1580:1597   */\n      add\n        /* \"#utility.yul\":1571:1577   */\n      dup5\n        /* \"#utility.yul\":1527:1598   */\n      tag_43\n      jump\t// in\n    tag_72:\n        /* \"#utility.yul\":1383:1605   */\n      swap3\n      swap2\n      pop\n      pop\n      jump\t// out\n        /* \"#utility.yul\":1611:1733   */\n    tag_44:\n        /* \"#utility.yul\":1684:1708   */\n      tag_74\n        /* \"#utility.yul\":1702:1707   */\n      dup2\n        /* \"#utility.yul\":1684:1708   */\n      tag_42\n      jump\t// in\n    tag_74:\n        /* \"#utility.yul\":1677:1682   */\n      dup2\n        /* \"#utility.yul\":1674:1709   */\n      eq\n        /* \"#utility.yul\":1664:1727   */\n      tag_75\n      jumpi\n        /* \"#utility.yul\":1723:1724   */\n      0x00\n        /* \"#utility.yul\":1720:1721   */\n      dup1\n        /* \"#utility.yul\":1713:1725   */\n      revert\n        /* \"#utility.yul\":1664:1727   */\n    tag_75:\n        /* \"#utility.yul\":1611:1733   */\n      pop\n      jump\t// out\n        /* \"#utility.yul\":1739:1878   */\n    tag_45:\n        /* \"#utility.yul\":1785:1790   */\n      0x00\n        /* \"#utility.yul\":1823:1829   */\n      dup2\n        /* \"#utility.yul\":1810:1830   */\n      calldataload\n        /* \"#utility.yul\":1801:1830   */\n      swap1\n      pop\n        /* \"#utility.yul\":1839:1872   */\n      tag_77\n        /* \"#utility.yul\":1866:1871   */\n      dup2\n        /* \"#utility.yul\":1839:1872   */\n      tag_44\n      jump\t// in\n    tag_77:\n        /* \"#utility.yul\":1739:1878   */\n      swap3\n      swap2\n      pop\n      pop\n      jump\t// out\n        /* \"#utility.yul\":1884:2358   */\n    tag_15:\n        /* \"#utility.yul\":1952:1958   */\n      0x00\n        /* \"#utility.yul\":1960:1966   */\n      dup1\n        /* \"#utility.yul\":2009:2011   */\n      0x40\n        /* \"#utility.yul\":1997:2006   */\n      dup4\n        /* \"#utility.yul\":1988:1995   */\n      dup6\n        /* \"#utility.yul\":1984:2007   */\n      sub\n        /* \"#utility.yul\":1980:2012   */\n      slt\n        /* \"#utility.yul\":1977:2096   */\n      iszero\n      tag_79\n      jumpi\n        /* \"#utility.yul\":2015:2094   */\n      tag_80\n      tag_36\n      jump\t// in\n    tag_80:\n        /* \"#utility.yul\":1977:2096   */\n    tag_79:\n        /* \"#utility.yul\":2135:2136   */\n      0x00\n        /* \"#utility.yul\":2160:2213   */\n      tag_81\n        /* \"#utility.yul\":2205:2212   */\n      dup6\n        /* \"#utility.yul\":2196:2202   */\n      dup3\n        /* \"#utility.yul\":2185:2194   */\n      dup7\n        /* \"#utility.yul\":2181:2203   */\n      add\n        /* \"#utility.yul\":2160:2213   */\n      tag_45\n      jump\t// in\n    tag_81:\n        /* \"#utility.yul\":2150:2213   */\n      swap3\n      pop\n        /* \"#utility.yul\":2106:2223   */\n      pop\n        /* \"#utility.yul\":2262:2264   */\n      0x20\n        /* \"#utility.yul\":2288:2341   */\n      tag_82\n        /* \"#utility.yul\":2333:2340   */\n      dup6\n        /* \"#utility.yul\":2324:2330   */\n      dup3\n        /* \"#utility.yul\":2313:2322   */\n      dup7\n        /* \"#utility.yul\":2309:2331   */\n      add\n        /* \"#utility.yul\":2288:2341   */\n      tag_41\n      jump\t// in\n    tag_82:\n        /* \"#utility.yul\":2278:2341   */\n      swap2\n      pop\n        /* \"#utility.yul\":2233:2351   */\n      pop\n        /* \"#utility.yul\":1884:2358   */\n      swap3\n      pop\n      swap3\n      swap1\n      pop\n      jump\t// out\n        /* \"#utility.yul\":2364:2533   */\n    tag_46:\n        /* \"#utility.yul\":2448:2459   */\n      0x00\n        /* \"#utility.yul\":2482:2488   */\n      dup3\n        /* \"#utility.yul\":2477:2480   */\n      dup3\n        /* \"#utility.yul\":2470:2489   */\n      mstore\n        /* \"#utility.yul\":2522:2526   */\n      0x20\n        /* \"#utility.yul\":2517:2520   */\n      dup3\n        /* \"#utility.yul\":2513:2527   */\n      add\n        /* \"#utility.yul\":2498:2527   */\n      swap1\n      pop\n        /* \"#utility.yul\":2364:2533   */\n      swap3\n      swap2\n      pop\n      pop\n      jump\t// out\n        /* \"#utility.yul\":2539:2707   */\n    tag_47:\n        /* \"#utility.yul\":2679:2699   */\n      0x4e6f7420656e6f7567682062616c616e63650000000000000000000000000000\n        /* \"#utility.yul\":2675:2676   */\n      0x00\n        /* \"#utility.yul\":2667:2673   */\n      dup3\n        /* \"#utility.yul\":2663:2677   */\n      add\n        /* \"#utility.yul\":2656:2700   */\n      mstore\n        /* \"#utility.yul\":2539:2707   */\n      pop\n      jump\t// out\n        /* \"#utility.yul\":2713:3079   */\n    tag_48:\n        /* \"#utility.yul\":2855:2858   */\n      0x00\n        /* \"#utility.yul\":2876:2943   */\n      tag_86\n        /* \"#utility.yul\":2940:2942   */\n      0x12\n        /* \"#utility.yul\":2935:2938   */\n      dup4\n        /* \"#utility.yul\":2876:2943   */\n      tag_46\n      jump\t// in\n    tag_86:\n        /* \"#utility.yul\":2869:2943   */\n      swap2\n      pop\n        /* \"#utility.yul\":2952:3045   */\n      tag_87\n        /* \"#utility.yul\":3041:3044   */\n      dup3\n        /* \"#utility.yul\":2952:3045   */\n      tag_47\n      jump\t// in\n    tag_87:\n        /* \"#utility.yul\":3070:3072   */\n      0x20\n        /* \"#utility.yul\":3065:3068   */\n      dup3\n        /* \"#utility.yul\":3061:3073   */\n      add\n        /* \"#utility.yul\":3054:3073   */\n      swap1\n      pop\n        /* \"#utility.yul\":2713:3079   */\n      swap2\n      swap1\n      pop\n      jump\t// out\n        /* \"#utility.yul\":3085:3504   */\n    tag_22:\n        /* \"#utility.yul\":3251:3255   */\n      0x00\n        /* \"#utility.yul\":3289:3291   */\n      0x20\n        /* \"#utility.yul\":3278:3287   */\n      dup3\n        /* \"#utility.yul\":3274:3292   */\n      add\n        /* \"#utility.yul\":3266:3292   */\n      swap1\n      pop\n        /* \"#utility.yul\":3338:3347   */\n      dup2\n        /* \"#utility.yul\":3332:3336   */\n      dup2\n        /* \"#utility.yul\":3328:3348   */\n      sub\n        /* \"#utility.yul\":3324:3325   */\n      0x00\n        /* \"#utility.yul\":3313:3322   */\n      dup4\n        /* \"#utility.yul\":3309:3326   */\n      add\n        /* \"#utility.yul\":3302:3349   */\n      mstore\n        /* \"#utility.yul\":3366:3497   */\n      tag_89\n        /* \"#utility.yul\":3492:3496   */\n      dup2\n        /* \"#utility.yul\":3366:3497   */\n      tag_48\n      jump\t// in\n    tag_89:\n        /* \"#utility.yul\":3358:3497   */\n      swap1\n      pop\n        /* \"#utility.yul\":3085:3504   */\n      swap2\n      swap1\n      pop\n      jump\t// out\n        /* \"#utility.yul\":3510:3690   */\n    tag_49:\n        /* \"#utility.yul\":3558:3635   */\n      0x4e487b7100000000000000000000000000000000000000000000000000000000\n        /* \"#utility.yul\":3555:3556   */\n      0x00\n        /* \"#utility.yul\":3548:3636   */\n      mstore\n        /* \"#utility.yul\":3655:3659   */\n      0x11\n        /* \"#utility.yul\":3652:3653   */\n      0x04\n        /* \"#utility.yul\":3645:3660   */\n      mstore\n        /* \"#utility.yul\":3679:3683   */\n      0x24\n        /* \"#utility.yul\":3676:3677   */\n      0x00\n        /* \"#utility.yul\":3669:3684   */\n      revert\n        /* \"#utility.yul\":3696:3890   */\n    tag_24:\n        /* \"#utility.yul\":3736:3740   */\n      0x00\n        /* \"#utility.yul\":3756:3776   */\n      tag_92\n        /* \"#utility.yul\":3774:3775   */\n      dup3\n        /* \"#utility.yul\":3756:3776   */\n      tag_42\n      jump\t// in\n    tag_92:\n        /* \"#utility.yul\":3751:3776   */\n      swap2\n      pop\n        /* \"#utility.yul\":3790:3810   */\n      tag_93\n        /* \"#utility.yul\":3808:3809   */\n      dup4\n        /* \"#utility.yul\":3790:3810   */\n      tag_42\n      jump\t// in\n    tag_93:\n        /* \"#utility.yul\":3785:3810   */\n      swap3\n      pop\n        /* \"#utility.yul\":3834:3835   */\n      dup3\n        /* \"#utility.yul\":3831:3832   */\n      dup3\n        /* \"#utility.yul\":3827:3836   */\n      sub\n        /* \"#utility.yul\":3819:3836   */\n      swap1\n      pop\n        /* \"#utility.yul\":3858:3859   */\n      dup2\n        /* \"#utility.yul\":3852:3856   */\n      dup2\n        /* \"#utility.yul\":3849:3860   */\n      gt\n        /* \"#utility.yul\":3846:3883   */\n      iszero\n      tag_94\n      jumpi\n        /* \"#utility.yul\":3863:3881   */\n      tag_95\n      tag_49\n      jump\t// in\n    tag_95:\n        /* \"#utility.yul\":3846:3883   */\n    tag_94:\n        /* \"#utility.yul\":3696:3890   */\n      swap3\n      swap2\n      pop\n      pop\n      jump\t// out\n        /* \"#utility.yul\":3896:4061   */\n    tag_50:\n        /* \"#utility.yul\":4036:4053   */\n      0x53656e6420736f6d652045746865720000000000000000000000000000000000\n        /* \"#utility.yul\":4032:4033   */\n      0x00\n        /* \"#utility.yul\":4024:4030   */\n      dup3\n        /* \"#utility.yul\":4020:4034   */\n      add\n        /* \"#utility.yul\":4013:4054   */\n      mstore\n        /* \"#utility.yul\":3896:4061   */\n      pop\n      jump\t// out\n        /* \"#utility.yul\":4067:4433   */\n    tag_51:\n        /* \"#utility.yul\":4209:4212   */\n      0x00\n        /* \"#utility.yul\":4230:4297   */\n      tag_98\n        /* \"#utility.yul\":4294:4296   */\n      0x0f\n        /* \"#utility.yul\":4289:4292   */\n      dup4\n        /* \"#utility.yul\":4230:4297   */\n      tag_46\n      jump\t// in\n    tag_98:\n        /* \"#utility.yul\":4223:4297   */\n      swap2\n      pop\n        /* \"#utility.yul\":4306:4399   */\n      tag_99\n        /* \"#utility.yul\":4395:4398   */\n      dup3\n        /* \"#utility.yul\":4306:4399   */\n      tag_50\n      jump\t// in\n    tag_99:\n        /* \"#utility.yul\":4424:4426   */\n      0x20\n        /* \"#utility.yul\":4419:4422   */\n      dup3\n        /* \"#utility.yul\":4415:4427   */\n      add\n        /* \"#utility.yul\":4408:4427   */\n      swap1\n      pop\n        /* \"#utility.yul\":4067:4433   */\n      swap2\n      swap1\n      pop\n      jump\t// out\n        /* \"#utility.yul\":4439:4858   */\n    tag_31:\n        /* \"#utility.yul\":4605:4609   */\n      0x00\n        /* \"#utility.yul\":4643:4645   */\n      0x20\n        /* \"#utility.yul\":4632:4641   */\n      dup3\n        /* \"#utility.yul\":4628:4646   */\n      add\n        /* \"#utility.yul\":4620:4646   */\n      swap1\n      pop\n        /* \"#utility.yul\":4692:4701   */\n      dup2\n        /* \"#utility.yul\":4686:4690   */\n      dup2\n        /* \"#utility.yul\":4682:4702   */\n      sub\n        /* \"#utility.yul\":4678:4679   */\n      0x00\n        /* \"#utility.yul\":4667:4676   */\n      dup4\n        /* \"#utility.yul\":4663:4680   */\n      add\n        /* \"#utility.yul\":4656:4703   */\n      mstore\n        /* \"#utility.yul\":4720:4851   */\n      tag_101\n        /* \"#utility.yul\":4846:4850   */\n      dup2\n        /* \"#utility.yul\":4720:4851   */\n      tag_51\n      jump\t// in\n    tag_101:\n        /* \"#utility.yul\":4712:4851   */\n      swap1\n      pop\n        /* \"#utility.yul\":4439:4858   */\n      swap2\n      swap1\n      pop\n      jump\t// out\n        /* \"#utility.yul\":4864:5055   */\n    tag_33:\n        /* \"#utility.yul\":4904:4907   */\n      0x00\n        /* \"#utility.yul\":4923:4943   */\n      tag_103\n        /* \"#utility.yul\":4941:4942   */\n      dup3\n        /* \"#utility.yul\":4923:4943   */\n      tag_42\n      jump\t// in\n    tag_103:\n        /* \"#utility.yul\":4918:4943   */\n      swap2\n      pop\n        /* \"#utility.yul\":4957:4977   */\n      tag_104\n        /* \"#utility.yul\":4975:4976   */\n      dup4\n        /* \"#utility.yul\":4957:4977   */\n      tag_42\n      jump\t// in\n    tag_104:\n        /* \"#utility.yul\":4952:4977   */\n      swap3\n      pop\n        /* \"#utility.yul\":5000:5001   */\n      dup3\n        /* \"#utility.yul\":4997:4998   */\n      dup3\n        /* \"#utility.yul\":4993:5002   */\n      add\n        /* \"#utility.yul\":4986:5002   */\n      swap1\n      pop\n        /* \"#utility.yul\":5021:5024   */\n      dup1\n        /* \"#utility.yul\":5018:5019   */\n      dup3\n        /* \"#utility.yul\":5015:5025   */\n      gt\n        /* \"#utility.yul\":5012:5048   */\n      iszero\n      tag_105\n      jumpi\n        /* \"#utility.yul\":5028:5046   */\n      tag_106\n      tag_49\n      jump\t// in\n    tag_106:\n        /* \"#utility.yul\":5012:5048   */\n    tag_105:\n        /* \"#utility.yul\":4864:5055   */\n      swap3\n      swap2\n      pop\n      pop\n      jump\t// out\n\n    auxdata: 0xa2646970667358221220ecd7229087cf1fa4481eecdeef1d5afd85edb2a5da614a8b42ba78605f8978f064736f6c63430008120033\n}\n",
				"bytecode": {
					"linkReferences": {},
					"object": "608060405234801561001057600080fd5b506105fe806100206000396000f3fe6080604052600436106100345760003560e01c806327e235e314610039578063c5fca73e14610076578063d0e30db01461009f575b600080fd5b34801561004557600080fd5b50610060600480360381019061005b919061037b565b6100a9565b60405161006d91906103c1565b60405180910390f35b34801561008257600080fd5b5061009d60048036038101906100989190610408565b6100c1565b005b6100a7610230565b005b60006020528060005260406000206000915090505481565b816000803373ffffffffffffffffffffffffffffffffffffffff1673ffffffffffffffffffffffffffffffffffffffff168152602001908152602001600020541015610142576040517f08c379a0000000000000000000000000000000000000000000000000000000008152600401610139906104a5565b60405180910390fd5b816000803373ffffffffffffffffffffffffffffffffffffffff1673ffffffffffffffffffffffffffffffffffffffff168152602001908152602001600020600082825461019091906104f4565b925050819055508073ffffffffffffffffffffffffffffffffffffffff166108fc839081150290604051600060405180830381858888f193505050501580156101dd573d6000803e3d6000fd5b503373ffffffffffffffffffffffffffffffffffffffff167f7084f5476618d8e60b11ef0d7d3f06914655adb8793e28ff7f018d4c76d505d58360405161022491906103c1565b60405180910390a25050565b60003411610273576040517f08c379a000000000000000000000000000000000000000000000000000000000815260040161026a90610574565b60405180910390fd5b346000803373ffffffffffffffffffffffffffffffffffffffff1673ffffffffffffffffffffffffffffffffffffffff16815260200190815260200160002060008282546102c19190610594565b925050819055503373ffffffffffffffffffffffffffffffffffffffff167f2da466a7b24304f47e87fa2e1e5a81b9831ce54fec19055ce277ca2f39ba42c43460405161030e91906103c1565b60405180910390a2565b600080fd5b600073ffffffffffffffffffffffffffffffffffffffff82169050919050565b60006103488261031d565b9050919050565b6103588161033d565b811461036357600080fd5b50565b6000813590506103758161034f565b92915050565b60006020828403121561039157610390610318565b5b600061039f84828501610366565b91505092915050565b6000819050919050565b6103bb816103a8565b82525050565b60006020820190506103d660008301846103b2565b92915050565b6103e5816103a8565b81146103f057600080fd5b50565b600081359050610402816103dc565b92915050565b6000806040838503121561041f5761041e610318565b5b600061042d858286016103f3565b925050602061043e85828601610366565b9150509250929050565b600082825260208201905092915050565b7f4e6f7420656e6f7567682062616c616e63650000000000000000000000000000600082015250565b600061048f601283610448565b915061049a82610459565b602082019050919050565b600060208201905081810360008301526104be81610482565b9050919050565b7f4e487b7100000000000000000000000000000000000000000000000000000000600052601160045260246000fd5b60006104ff826103a8565b915061050a836103a8565b9250828203905081811115610522576105216104c5565b5b92915050565b7f53656e6420736f6d652045746865720000000000000000000000000000000000600082015250565b600061055e600f83610448565b915061056982610528565b602082019050919050565b6000602082019050818103600083015261058d81610551565b9050919050565b600061059f826103a8565b91506105aa836103a8565b92508282019050808211156105c2576105c16104c5565b5b9291505056fea2646970667358221220ecd7229087cf1fa4481eecdeef1d5afd85edb2a5da614a8b42ba78605f8978f064736f6c63430008120033",
					"opcodes": "PUSH1 0x80 PUSH1 0x40 MSTORE CALLVALUE DUP1 ISZERO PUSH2 0x10 JUMPI PUSH1 0x0 DUP1 REVERT JUMPDEST POP PUSH2 0x5FE DUP1 PUSH2 0x20 PUSH1 0x0 CODECOPY PUSH1 0x0 RETURN INVALID PUSH1 0x80 PUSH1 0x40 MSTORE PUSH1 0x4 CALLDATASIZE LT PUSH2 0x34 JUMPI PUSH1 0x0 CALLDATALOAD PUSH1 0xE0 SHR DUP1 PUSH4 0x27E235E3 EQ PUSH2 0x39 JUMPI DUP1 PUSH4 0xC5FCA73E EQ PUSH2 0x76 JUMPI DUP1 PUSH4 0xD0E30DB0 EQ PUSH2 0x9F JUMPI JUMPDEST PUSH1 0x0 DUP1 REVERT JUMPDEST CALLVALUE DUP1 ISZERO PUSH2 0x45 JUMPI PUSH1 0x0 DUP1 REVERT JUMPDEST POP PUSH2 0x60 PUSH1 0x4 DUP1 CALLDATASIZE SUB DUP2 ADD SWAP1 PUSH2 0x5B SWAP2 SWAP1 PUSH2 0x37B JUMP JUMPDEST PUSH2 0xA9 JUMP JUMPDEST PUSH1 0x40 MLOAD PUSH2 0x6D SWAP2 SWAP1 PUSH2 0x3C1 JUMP JUMPDEST PUSH1 0x40 MLOAD DUP1 SWAP2 SUB SWAP1 RETURN JUMPDEST CALLVALUE DUP1 ISZERO PUSH2 0x82 JUMPI PUSH1 0x0 DUP1 REVERT JUMPDEST POP PUSH2 0x9D PUSH1 0x4 DUP1 CALLDATASIZE SUB DUP2 ADD SWAP1 PUSH2 0x98 SWAP2 SWAP1 PUSH2 0x408 JUMP JUMPDEST PUSH2 0xC1 JUMP JUMPDEST STOP JUMPDEST PUSH2 0xA7 PUSH2 0x230 JUMP JUMPDEST STOP JUMPDEST PUSH1 0x0 PUSH1 0x20 MSTORE DUP1 PUSH1 0x0 MSTORE PUSH1 0x40 PUSH1 0x0 KECCAK256 PUSH1 0x0 SWAP2 POP SWAP1 POP SLOAD DUP2 JUMP JUMPDEST DUP2 PUSH1 0x0 DUP1 CALLER PUSH20 0xFFFFFFFFFFFFFFFFFFFFFFFFFFFFFFFFFFFFFFFF AND PUSH20 0xFFFFFFFFFFFFFFFFFFFFFFFFFFFFFFFFFFFFFFFF AND DUP2 MSTORE PUSH1 0x20 ADD SWAP1 DUP2 MSTORE PUSH1 0x20 ADD PUSH1 0x0 KECCAK256 SLOAD LT ISZERO PUSH2 0x142 JUMPI PUSH1 0x40 MLOAD PUSH32 0x8C379A000000000000000000000000000000000000000000000000000000000 DUP2 MSTORE PUSH1 0x4 ADD PUSH2 0x139 SWAP1 PUSH2 0x4A5 JUMP JUMPDEST PUSH1 0x40 MLOAD DUP1 SWAP2 SUB SWAP1 REVERT JUMPDEST DUP2 PUSH1 0x0 DUP1 CALLER PUSH20 0xFFFFFFFFFFFFFFFFFFFFFFFFFFFFFFFFFFFFFFFF AND PUSH20 0xFFFFFFFFFFFFFFFFFFFFFFFFFFFFFFFFFFFFFFFF AND DUP2 MSTORE PUSH1 0x20 ADD SWAP1 DUP2 MSTORE PUSH1 0x20 ADD PUSH1 0x0 KECCAK256 PUSH1 0x0 DUP3 DUP3 SLOAD PUSH2 0x190 SWAP2 SWAP1 PUSH2 0x4F4 JUMP JUMPDEST SWAP3 POP POP DUP2 SWAP1 SSTORE POP DUP1 PUSH20 0xFFFFFFFFFFFFFFFFFFFFFFFFFFFFFFFFFFFFFFFF AND PUSH2 0x8FC DUP4 SWAP1 DUP2 ISZERO MUL SWAP1 PUSH1 0x40 MLOAD PUSH1 0x0 PUSH1 0x40 MLOAD DUP1 DUP4 SUB DUP2 DUP6 DUP9 DUP9 CALL SWAP4 POP POP POP POP ISZERO DUP1 ISZERO PUSH2 0x1DD JUMPI RETURNDATASIZE PUSH1 0x0 DUP1 RETURNDATACOPY RETURNDATASIZE PUSH1 0x0 REVERT JUMPDEST POP CALLER PUSH20 0xFFFFFFFFFFFFFFFFFFFFFFFFFFFFFFFFFFFFFFFF AND PUSH32 0x7084F5476618D8E60B11EF0D7D3F06914655ADB8793E28FF7F018D4C76D505D5 DUP4 PUSH1 0x40 MLOAD PUSH2 0x224 SWAP2 SWAP1 PUSH2 0x3C1 JUMP JUMPDEST PUSH1 0x40 MLOAD DUP1 SWAP2 SUB SWAP1 LOG2 POP POP JUMP JUMPDEST PUSH1 0x0 CALLVALUE GT PUSH2 0x273 JUMPI PUSH1 0x40 MLOAD PUSH32 0x8C379A000000000000000000000000000000000000000000000000000000000 DUP2 MSTORE PUSH1 0x4 ADD PUSH2 0x26A SWAP1 PUSH2 0x574 JUMP JUMPDEST PUSH1 0x40 MLOAD DUP1 SWAP2 SUB SWAP1 REVERT JUMPDEST CALLVALUE PUSH1 0x0 DUP1 CALLER PUSH20 0xFFFFFFFFFFFFFFFFFFFFFFFFFFFFFFFFFFFFFFFF AND PUSH20 0xFFFFFFFFFFFFFFFFFFFFFFFFFFFFFFFFFFFFFFFF AND DUP2 MSTORE PUSH1 0x20 ADD SWAP1 DUP2 MSTORE PUSH1 0x20 ADD PUSH1 0x0 KECCAK256 PUSH1 0x0 DUP3 DUP3 SLOAD PUSH2 0x2C1 SWAP2 SWAP1 PUSH2 0x594 JUMP JUMPDEST SWAP3 POP POP DUP2 SWAP1 SSTORE POP CALLER PUSH20 0xFFFFFFFFFFFFFFFFFFFFFFFFFFFFFFFFFFFFFFFF AND PUSH32 0x2DA466A7B24304F47E87FA2E1E5A81B9831CE54FEC19055CE277CA2F39BA42C4 CALLVALUE PUSH1 0x40 MLOAD PUSH2 0x30E SWAP2 SWAP1 PUSH2 0x3C1 JUMP JUMPDEST PUSH1 0x40 MLOAD DUP1 SWAP2 SUB SWAP1 LOG2 JUMP JUMPDEST PUSH1 0x0 DUP1 REVERT JUMPDEST PUSH1 0x0 PUSH20 0xFFFFFFFFFFFFFFFFFFFFFFFFFFFFFFFFFFFFFFFF DUP3 AND SWAP1 POP SWAP2 SWAP1 POP JUMP JUMPDEST PUSH1 0x0 PUSH2 0x348 DUP3 PUSH2 0x31D JUMP JUMPDEST SWAP1 POP SWAP2 SWAP1 POP JUMP JUMPDEST PUSH2 0x358 DUP2 PUSH2 0x33D JUMP JUMPDEST DUP2 EQ PUSH2 0x363 JUMPI PUSH1 0x0 DUP1 REVERT JUMPDEST POP JUMP JUMPDEST PUSH1 0x0 DUP2 CALLDATALOAD SWAP1 POP PUSH2 0x375 DUP2 PUSH2 0x34F JUMP JUMPDEST SWAP3 SWAP2 POP POP JUMP JUMPDEST PUSH1 0x0 PUSH1 0x20 DUP3 DUP5 SUB SLT ISZERO PUSH2 0x391 JUMPI PUSH2 0x390 PUSH2 0x318 JUMP JUMPDEST JUMPDEST PUSH1 0x0 PUSH2 0x39F DUP5 DUP3 DUP6 ADD PUSH2 0x366 JUMP JUMPDEST SWAP2 POP POP SWAP3 SWAP2 POP POP JUMP JUMPDEST PUSH1 0x0 DUP2 SWAP1 POP SWAP2 SWAP1 POP JUMP JUMPDEST PUSH2 0x3BB DUP2 PUSH2 0x3A8 JUMP JUMPDEST DUP3 MSTORE POP POP JUMP JUMPDEST PUSH1 0x0 PUSH1 0x20 DUP3 ADD SWAP1 POP PUSH2 0x3D6 PUSH1 0x0 DUP4 ADD DUP5 PUSH2 0x3B2 JUMP JUMPDEST SWAP3 SWAP2 POP POP JUMP JUMPDEST PUSH2 0x3E5 DUP2 PUSH2 0x3A8 JUMP JUMPDEST DUP2 EQ PUSH2 0x3F0 JUMPI PUSH1 0x0 DUP1 REVERT JUMPDEST POP JUMP JUMPDEST PUSH1 0x0 DUP2 CALLDATALOAD SWAP1 POP PUSH2 0x402 DUP2 PUSH2 0x3DC JUMP JUMPDEST SWAP3 SWAP2 POP POP JUMP JUMPDEST PUSH1 0x0 DUP1 PUSH1 0x40 DUP4 DUP6 SUB SLT ISZERO PUSH2 0x41F JUMPI PUSH2 0x41E PUSH2 0x318 JUMP JUMPDEST JUMPDEST PUSH1 0x0 PUSH2 0x42D DUP6 DUP3 DUP7 ADD PUSH2 0x3F3 JUMP JUMPDEST SWAP3 POP POP PUSH1 0x20 PUSH2 0x43E DUP6 DUP3 DUP7 ADD PUSH2 0x366 JUMP JUMPDEST SWAP2 POP POP SWAP3 POP SWAP3 SWAP1 POP JUMP JUMPDEST PUSH1 0x0 DUP3 DUP3 MSTORE PUSH1 0x20 DUP3 ADD SWAP1 POP SWAP3 SWAP2 POP POP JUMP JUMPDEST PUSH32 0x4E6F7420656E6F7567682062616C616E63650000000000000000000000000000 PUSH1 0x0 DUP3 ADD MSTORE POP JUMP JUMPDEST PUSH1 0x0 PUSH2 0x48F PUSH1 0x12 DUP4 PUSH2 0x448 JUMP JUMPDEST SWAP2 POP PUSH2 0x49A DUP3 PUSH2 0x459 JUMP JUMPDEST PUSH1 0x20 DUP3 ADD SWAP1 POP SWAP2 SWAP1 POP JUMP JUMPDEST PUSH1 0x0 PUSH1 0x20 DUP3 ADD SWAP1 POP DUP2 DUP2 SUB PUSH1 0x0 DUP4 ADD MSTORE PUSH2 0x4BE DUP2 PUSH2 0x482 JUMP JUMPDEST SWAP1 POP SWAP2 SWAP1 POP JUMP JUMPDEST PUSH32 0x4E487B7100000000000000000000000000000000000000000000000000000000 PUSH1 0x0 MSTORE PUSH1 0x11 PUSH1 0x4 MSTORE PUSH1 0x24 PUSH1 0x0 REVERT JUMPDEST PUSH1 0x0 PUSH2 0x4FF DUP3 PUSH2 0x3A8 JUMP JUMPDEST SWAP2 POP PUSH2 0x50A DUP4 PUSH2 0x3A8 JUMP JUMPDEST SWAP3 POP DUP3 DUP3 SUB SWAP1 POP DUP2 DUP2 GT ISZERO PUSH2 0x522 JUMPI PUSH2 0x521 PUSH2 0x4C5 JUMP JUMPDEST JUMPDEST SWAP3 SWAP2 POP POP JUMP JUMPDEST PUSH32 0x53656E6420736F6D652045746865720000000000000000000000000000000000 PUSH1 0x0 DUP3 ADD MSTORE POP JUMP JUMPDEST PUSH1 0x0 PUSH2 0x55E PUSH1 0xF DUP4 PUSH2 0x448 JUMP JUMPDEST SWAP2 POP PUSH2 0x569 DUP3 PUSH2 0x528 JUMP JUMPDEST PUSH1 0x20 DUP3 ADD SWAP1 POP SWAP2 SWAP1 POP JUMP JUMPDEST PUSH1 0x0 PUSH1 0x20 DUP3 ADD SWAP1 POP DUP2 DUP2 SUB PUSH1 0x0 DUP4 ADD MSTORE PUSH2 0x58D DUP2 PUSH2 0x551 JUMP JUMPDEST SWAP1 POP SWAP2 SWAP1 POP JUMP JUMPDEST PUSH1 0x0 PUSH2 0x59F DUP3 PUSH2 0x3A8 JUMP JUMPDEST SWAP2 POP PUSH2 0x5AA DUP4 PUSH2 0x3A8 JUMP JUMPDEST SWAP3 POP DUP3 DUP3 ADD SWAP1 POP DUP1 DUP3 GT ISZERO PUSH2 0x5C2 JUMPI PUSH2 0x5C1 PUSH2 0x4C5 JUMP JUMPDEST JUMPDEST SWAP3 SWAP2 POP POP JUMP INVALID LOG2 PUSH5 0x6970667358 0x22 SLT KECCAK256 0xEC 0xD7 0x22 SWAP1 DUP8 0xCF 0x1F LOG4 BASEFEE 0x1E 0xEC 0xDE 0xEF SAR GAS REVERT DUP6 0xED 0xB2 0xA5 0xDA PUSH2 0x4A8B TIMESTAMP 0xBA PUSH25 0x605F8978F064736F6C63430008120033000000000000000000 "
				},
				"gasEstimates": {
					"creation": {
						"codeDepositCost": "306800",
						"executionCost": "343",
						"totalCost": "307143"
					},
					"external": {
						"balances(address)": "2792",
						"deposit()": "infinite",
						"withdrawUsingTransfer(uint256,address)": "infinite"
					}
				},
				"methodIdentifiers": {
					"balances(address)": "27e235e3",
					"deposit()": "d0e30db0",
					"withdrawUsingTransfer(uint256,address)": "c5fca73e"
				}
			},
			"storageLayout": {
				"storage": [
					{
						"astId": 5,
						"contract": "mapping_tp.sol:SimpleWallet",
						"label": "balances",
						"offset": 0,
						"slot": "0",
						"type": "t_mapping(t_address,t_uint256)"
					}
				],
				"types": {
					"t_address": {
						"encoding": "inplace",
						"label": "address",
						"numberOfBytes": "20"
					},
					"t_mapping(t_address,t_uint256)": {
						"encoding": "mapping",
						"key": "t_address",
						"label": "mapping(address => uint256)",
						"numberOfBytes": "32",
						"value": "t_uint256"
					},
					"t_uint256": {
						"encoding": "inplace",
						"label": "uint256",
						"numberOfBytes": "32"
					}
				}
			},
			"userdoc": {
				"kind": "user",
				"methods": {},
				"version": 1
			}
		}
	}
}