{
	"same_value_array.sol": {
		"FindCommonElements": {
			"abi": [
				{
					"inputs": [
						{
							"internalType": "uint256",
							"name": "",
							"type": "uint256"
						}
					],
					"name": "array1",
					"outputs": [
						{
							"internalType": "uint256",
							"name": "",
							"type": "uint256"
						}
					],
					"stateMutability": "view",
					"type": "function"
				},
				{
					"inputs": [
						{
							"internalType": "uint256",
							"name": "",
							"type": "uint256"
						}
					],
					"name": "array2",
					"outputs": [
						{
							"internalType": "uint256",
							"name": "",
							"type": "uint256"
						}
					],
					"stateMutability": "view",
					"type": "function"
				},
				{
					"inputs": [
						{
							"internalType": "uint256",
							"name": "",
							"type": "uint256"
						}
					],
					"name": "common",
					"outputs": [
						{
							"internalType": "uint256",
							"name": "",
							"type": "uint256"
						}
					],
					"stateMutability": "view",
					"type": "function"
				},
				{
					"inputs": [],
					"name": "findCommon",
					"outputs": [],
					"stateMutability": "nonpayable",
					"type": "function"
				},
				{
					"inputs": [],
					"name": "getAll_common",
					"outputs": [
						{
							"internalType": "uint256[]",
							"name": "",
							"type": "uint256[]"
						}
					],
					"stateMutability": "view",
					"type": "function"
				}
			],
			"devdoc": {
				"kind": "dev",
				"methods": {},
				"version": 1
			},
			"evm": {
				"assembly": "    /* \"same_value_array.sol\":60:891  contract FindCommonElements {... */\n  mstore(0x40, 0x80)\n    /* \"same_value_array.sol\":97:139  uint[] public array1 = [20,11,45,74,88,12] */\n  mload(0x40)\n  dup1\n  0xc0\n  add\n  0x40\n  mstore\n  dup1\n    /* \"same_value_array.sol\":121:123  20 */\n  0x14\n    /* \"same_value_array.sol\":97:139  uint[] public array1 = [20,11,45,74,88,12] */\n  0xff\n  and\n  dup2\n  mstore\n  0x20\n  add\n    /* \"same_value_array.sol\":124:126  11 */\n  0x0b\n    /* \"same_value_array.sol\":97:139  uint[] public array1 = [20,11,45,74,88,12] */\n  0xff\n  and\n  dup2\n  mstore\n  0x20\n  add\n    /* \"same_value_array.sol\":127:129  45 */\n  0x2d\n    /* \"same_value_array.sol\":97:139  uint[] public array1 = [20,11,45,74,88,12] */\n  0xff\n  and\n  dup2\n  mstore\n  0x20\n  add\n    /* \"same_value_array.sol\":130:132  74 */\n  0x4a\n    /* \"same_value_array.sol\":97:139  uint[] public array1 = [20,11,45,74,88,12] */\n  0xff\n  and\n  dup2\n  mstore\n  0x20\n  add\n    /* \"same_value_array.sol\":133:135  88 */\n  0x58\n    /* \"same_value_array.sol\":97:139  uint[] public array1 = [20,11,45,74,88,12] */\n  0xff\n  and\n  dup2\n  mstore\n  0x20\n  add\n    /* \"same_value_array.sol\":136:138  12 */\n  0x0c\n    /* \"same_value_array.sol\":97:139  uint[] public array1 = [20,11,45,74,88,12] */\n  0xff\n  and\n  dup2\n  mstore\n  pop\n  0x00\n  swap1\n  0x06\n  tag_1\n  swap3\n  swap2\n  swap1\n  tag_2\n  jump\t// in\ntag_1:\n  pop\n    /* \"same_value_array.sol\":146:187  uint[] public array2 = [21,52,12,4,19,11] */\n  mload(0x40)\n  dup1\n  0xc0\n  add\n  0x40\n  mstore\n  dup1\n    /* \"same_value_array.sol\":170:172  21 */\n  0x15\n    /* \"same_value_array.sol\":146:187  uint[] public array2 = [21,52,12,4,19,11] */\n  0xff\n  and\n  dup2\n  mstore\n  0x20\n  add\n    /* \"same_value_array.sol\":173:175  52 */\n  0x34\n    /* \"same_value_array.sol\":146:187  uint[] public array2 = [21,52,12,4,19,11] */\n  0xff\n  and\n  dup2\n  mstore\n  0x20\n  add\n    /* \"same_value_array.sol\":176:178  12 */\n  0x0c\n    /* \"same_value_array.sol\":146:187  uint[] public array2 = [21,52,12,4,19,11] */\n  0xff\n  and\n  dup2\n  mstore\n  0x20\n  add\n    /* \"same_value_array.sol\":179:180  4 */\n  0x04\n    /* \"same_value_array.sol\":146:187  uint[] public array2 = [21,52,12,4,19,11] */\n  0xff\n  and\n  dup2\n  mstore\n  0x20\n  add\n    /* \"same_value_array.sol\":181:183  19 */\n  0x13\n    /* \"same_value_array.sol\":146:187  uint[] public array2 = [21,52,12,4,19,11] */\n  0xff\n  and\n  dup2\n  mstore\n  0x20\n  add\n    /* \"same_value_array.sol\":184:186  11 */\n  0x0b\n    /* \"same_value_array.sol\":146:187  uint[] public array2 = [21,52,12,4,19,11] */\n  0xff\n  and\n  dup2\n  mstore\n  pop\n  0x01\n  swap1\n  0x06\n  tag_3\n  swap3\n  swap2\n  swap1\n  tag_2\n  jump\t// in\ntag_3:\n  pop\n    /* \"same_value_array.sol\":60:891  contract FindCommonElements {... */\n  callvalue\n  dup1\n  iszero\n  tag_4\n  jumpi\n  0x00\n  dup1\n  revert\ntag_4:\n  pop\n  jump(tag_5)\ntag_2:\n  dup3\n  dup1\n  sload\n  dup3\n  dup3\n  sstore\n  swap1\n  0x00\n  mstore\n  keccak256(0x00, 0x20)\n  swap1\n  dup2\n  add\n  swap3\n  dup3\n  iszero\n  tag_6\n  jumpi\n  swap2\n  0x20\n  mul\n  dup3\n  add\ntag_7:\n  dup3\n  dup2\n  gt\n  iszero\n  tag_8\n  jumpi\n  dup3\n  mload\n  dup3\n  swap1\n  0xff\n  and\n  swap1\n  sstore\n  swap2\n  0x20\n  add\n  swap2\n  swap1\n  0x01\n  add\n  swap1\n  jump(tag_7)\ntag_8:\ntag_6:\n  pop\n  swap1\n  pop\n  tag_9\n  swap2\n  swap1\n  tag_10\n  jump\t// in\ntag_9:\n  pop\n  swap1\n  jump\t// out\ntag_10:\ntag_11:\n  dup1\n  dup3\n  gt\n  iszero\n  tag_12\n  jumpi\n  0x00\n  dup2\n  0x00\n  swap1\n  sstore\n  pop\n  0x01\n  add\n  jump(tag_11)\ntag_12:\n  pop\n  swap1\n  jump\t// out\ntag_5:\n  dataSize(sub_0)\n  dup1\n  dataOffset(sub_0)\n  0x00\n  codecopy\n  0x00\n  return\nstop\n\nsub_0: assembly {\n        /* \"same_value_array.sol\":60:891  contract FindCommonElements {... */\n      mstore(0x40, 0x80)\n      callvalue\n      dup1\n      iszero\n      tag_1\n      jumpi\n      0x00\n      dup1\n      revert\n    tag_1:\n      pop\n      jumpi(tag_2, lt(calldatasize, 0x04))\n      shr(0xe0, calldataload(0x00))\n      dup1\n      0x396ed600\n      eq\n      tag_3\n      jumpi\n      dup1\n      0x4bae89cb\n      eq\n      tag_4\n      jumpi\n      dup1\n      0x61125b63\n      eq\n      tag_5\n      jumpi\n      dup1\n      0xa1dc1c60\n      eq\n      tag_6\n      jumpi\n      dup1\n      0xb82b1aba\n      eq\n      tag_7\n      jumpi\n    tag_2:\n      0x00\n      dup1\n      revert\n        /* \"same_value_array.sol\":196:216  uint[] public common */\n    tag_3:\n      tag_8\n      0x04\n      dup1\n      calldatasize\n      sub\n      dup2\n      add\n      swap1\n      tag_9\n      swap2\n      swap1\n      tag_10\n      jump\t// in\n    tag_9:\n      tag_11\n      jump\t// in\n    tag_8:\n      mload(0x40)\n      tag_12\n      swap2\n      swap1\n      tag_13\n      jump\t// in\n    tag_12:\n      mload(0x40)\n      dup1\n      swap2\n      sub\n      swap1\n      return\n        /* \"same_value_array.sol\":97:139  uint[] public array1 = [20,11,45,74,88,12] */\n    tag_4:\n      tag_14\n      0x04\n      dup1\n      calldatasize\n      sub\n      dup2\n      add\n      swap1\n      tag_15\n      swap2\n      swap1\n      tag_10\n      jump\t// in\n    tag_15:\n      tag_16\n      jump\t// in\n    tag_14:\n      mload(0x40)\n      tag_17\n      swap2\n      swap1\n      tag_13\n      jump\t// in\n    tag_17:\n      mload(0x40)\n      dup1\n      swap2\n      sub\n      swap1\n      return\n        /* \"same_value_array.sol\":146:187  uint[] public array2 = [21,52,12,4,19,11] */\n    tag_5:\n      tag_18\n      0x04\n      dup1\n      calldatasize\n      sub\n      dup2\n      add\n      swap1\n      tag_19\n      swap2\n      swap1\n      tag_10\n      jump\t// in\n    tag_19:\n      tag_20\n      jump\t// in\n    tag_18:\n      mload(0x40)\n      tag_21\n      swap2\n      swap1\n      tag_13\n      jump\t// in\n    tag_21:\n      mload(0x40)\n      dup1\n      swap2\n      sub\n      swap1\n      return\n        /* \"same_value_array.sol\":225:782  function findCommon() public {... */\n    tag_6:\n      tag_22\n      tag_23\n      jump\t// in\n    tag_22:\n      stop\n        /* \"same_value_array.sol\":794:888  function getAll_common () public view returns (uint [] memory){... */\n    tag_7:\n      tag_24\n      tag_25\n      jump\t// in\n    tag_24:\n      mload(0x40)\n      tag_26\n      swap2\n      swap1\n      tag_27\n      jump\t// in\n    tag_26:\n      mload(0x40)\n      dup1\n      swap2\n      sub\n      swap1\n      return\n        /* \"same_value_array.sol\":196:216  uint[] public common */\n    tag_11:\n      0x02\n      dup2\n      dup2\n      sload\n      dup2\n      lt\n      tag_28\n      jumpi\n      0x00\n      dup1\n      revert\n    tag_28:\n      swap1\n      0x00\n      mstore\n      keccak256(0x00, 0x20)\n      add\n      0x00\n      swap2\n      pop\n      swap1\n      pop\n      sload\n      dup2\n      jump\t// out\n        /* \"same_value_array.sol\":97:139  uint[] public array1 = [20,11,45,74,88,12] */\n    tag_16:\n      0x00\n      dup2\n      dup2\n      sload\n      dup2\n      lt\n      tag_30\n      jumpi\n      0x00\n      dup1\n      revert\n    tag_30:\n      swap1\n      0x00\n      mstore\n      keccak256(0x00, 0x20)\n      add\n      0x00\n      swap2\n      pop\n      swap1\n      pop\n      sload\n      dup2\n      jump\t// out\n        /* \"same_value_array.sol\":146:187  uint[] public array2 = [21,52,12,4,19,11] */\n    tag_20:\n      0x01\n      dup2\n      dup2\n      sload\n      dup2\n      lt\n      tag_32\n      jumpi\n      0x00\n      dup1\n      revert\n    tag_32:\n      swap1\n      0x00\n      mstore\n      keccak256(0x00, 0x20)\n      add\n      0x00\n      swap2\n      pop\n      swap1\n      pop\n      sload\n      dup2\n      jump\t// out\n        /* \"same_value_array.sol\":225:782  function findCommon() public {... */\n    tag_23:\n        /* \"same_value_array.sol\":272:278  common */\n      0x02\n      0x00\n        /* \"same_value_array.sol\":265:278  delete common */\n      tag_35\n      swap2\n      swap1\n      tag_36\n      jump\t// in\n    tag_35:\n        /* \"same_value_array.sol\":317:323  uint i */\n      0x00\n        /* \"same_value_array.sol\":312:775  for (uint i = 0; i < array1.length; i++) {... */\n    tag_37:\n        /* \"same_value_array.sol\":333:339  array1 */\n      0x00\n        /* \"same_value_array.sol\":333:346  array1.length */\n      dup1\n      sload\n      swap1\n      pop\n        /* \"same_value_array.sol\":329:330  i */\n      dup2\n        /* \"same_value_array.sol\":329:346  i < array1.length */\n      lt\n        /* \"same_value_array.sol\":312:775  for (uint i = 0; i < array1.length; i++) {... */\n      iszero\n      tag_38\n      jumpi\n        /* \"same_value_array.sol\":373:379  uint j */\n      0x00\n        /* \"same_value_array.sol\":368:764  for (uint j = 0; j < array2.length; j++) {... */\n    tag_40:\n        /* \"same_value_array.sol\":389:395  array2 */\n      0x01\n        /* \"same_value_array.sol\":389:402  array2.length */\n      dup1\n      sload\n      swap1\n      pop\n        /* \"same_value_array.sol\":385:386  j */\n      dup2\n        /* \"same_value_array.sol\":385:402  j < array2.length */\n      lt\n        /* \"same_value_array.sol\":368:764  for (uint j = 0; j < array2.length; j++) {... */\n      iszero\n      tag_41\n      jumpi\n        /* \"same_value_array.sol\":513:519  array2 */\n      0x01\n        /* \"same_value_array.sol\":520:521  j */\n      dup2\n        /* \"same_value_array.sol\":513:522  array2[j] */\n      dup2\n      sload\n      dup2\n      lt\n      tag_43\n      jumpi\n      tag_44\n      tag_45\n      jump\t// in\n    tag_44:\n    tag_43:\n      swap1\n      0x00\n      mstore\n      keccak256(0x00, 0x20)\n      add\n      sload\n        /* \"same_value_array.sol\":500:506  array1 */\n      0x00\n        /* \"same_value_array.sol\":507:508  i */\n      dup4\n        /* \"same_value_array.sol\":500:509  array1[i] */\n      dup2\n      sload\n      dup2\n      lt\n      tag_47\n      jumpi\n      tag_48\n      tag_45\n      jump\t// in\n    tag_48:\n    tag_47:\n      swap1\n      0x00\n      mstore\n      keccak256(0x00, 0x20)\n      add\n      sload\n        /* \"same_value_array.sol\":500:522  array1[i] == array2[j] */\n      sub\n        /* \"same_value_array.sol\":496:749  if (array1[i] == array2[j]) {... */\n      tag_50\n      jumpi\n        /* \"same_value_array.sol\":596:602  common */\n      0x02\n        /* \"same_value_array.sol\":608:614  array1 */\n      0x00\n        /* \"same_value_array.sol\":615:616  i */\n      dup4\n        /* \"same_value_array.sol\":608:617  array1[i] */\n      dup2\n      sload\n      dup2\n      lt\n      tag_51\n      jumpi\n      tag_52\n      tag_45\n      jump\t// in\n    tag_52:\n    tag_51:\n      swap1\n      0x00\n      mstore\n      keccak256(0x00, 0x20)\n      add\n      sload\n        /* \"same_value_array.sol\":596:618  common.push(array1[i]) */\n      swap1\n      dup1\n      0x01\n      dup2\n      sload\n      add\n      dup1\n      dup3\n      sstore\n      dup1\n      swap2\n      pop\n      pop\n      0x01\n      swap1\n      sub\n      swap1\n      0x00\n      mstore\n      keccak256(0x00, 0x20)\n      add\n      0x00\n      swap1\n      swap2\n      swap1\n      swap2\n      swap1\n      swap2\n      pop\n      sstore\n        /* \"same_value_array.sol\":724:729  break */\n      jump(tag_41)\n        /* \"same_value_array.sol\":496:749  if (array1[i] == array2[j]) {... */\n    tag_50:\n        /* \"same_value_array.sol\":404:407  j++ */\n      dup1\n      dup1\n      tag_55\n      swap1\n      tag_56\n      jump\t// in\n    tag_55:\n      swap2\n      pop\n      pop\n        /* \"same_value_array.sol\":368:764  for (uint j = 0; j < array2.length; j++) {... */\n      jump(tag_40)\n    tag_41:\n      pop\n        /* \"same_value_array.sol\":348:351  i++ */\n      dup1\n      dup1\n      tag_57\n      swap1\n      tag_56\n      jump\t// in\n    tag_57:\n      swap2\n      pop\n      pop\n        /* \"same_value_array.sol\":312:775  for (uint i = 0; i < array1.length; i++) {... */\n      jump(tag_37)\n    tag_38:\n      pop\n        /* \"same_value_array.sol\":225:782  function findCommon() public {... */\n      jump\t// out\n        /* \"same_value_array.sol\":794:888  function getAll_common () public view returns (uint [] memory){... */\n    tag_25:\n        /* \"same_value_array.sol\":841:855  uint [] memory */\n      0x60\n        /* \"same_value_array.sol\":874:880  common */\n      0x02\n        /* \"same_value_array.sol\":867:880  return common */\n      dup1\n      sload\n      dup1\n      0x20\n      mul\n      0x20\n      add\n      mload(0x40)\n      swap1\n      dup2\n      add\n      0x40\n      mstore\n      dup1\n      swap3\n      swap2\n      swap1\n      dup2\n      dup2\n      mstore\n      0x20\n      add\n      dup3\n      dup1\n      sload\n      dup1\n      iszero\n      tag_59\n      jumpi\n      0x20\n      mul\n      dup3\n      add\n      swap2\n      swap1\n      0x00\n      mstore\n      keccak256(0x00, 0x20)\n      swap1\n    tag_60:\n      dup2\n      sload\n      dup2\n      mstore\n      0x20\n      add\n      swap1\n      0x01\n      add\n      swap1\n      dup1\n      dup4\n      gt\n      tag_60\n      jumpi\n    tag_59:\n      pop\n      pop\n      pop\n      pop\n      pop\n      swap1\n      pop\n        /* \"same_value_array.sol\":794:888  function getAll_common () public view returns (uint [] memory){... */\n      swap1\n      jump\t// out\n    tag_36:\n      pop\n      dup1\n      sload\n      0x00\n      dup3\n      sstore\n      swap1\n      0x00\n      mstore\n      keccak256(0x00, 0x20)\n      swap1\n      dup2\n      add\n      swap1\n      tag_62\n      swap2\n      swap1\n      tag_63\n      jump\t// in\n    tag_62:\n      pop\n      jump\t// out\n    tag_63:\n    tag_64:\n      dup1\n      dup3\n      gt\n      iszero\n      tag_65\n      jumpi\n      0x00\n      dup2\n      0x00\n      swap1\n      sstore\n      pop\n      0x01\n      add\n      jump(tag_64)\n    tag_65:\n      pop\n      swap1\n      jump\t// out\n        /* \"#utility.yul\":88:205   */\n    tag_67:\n        /* \"#utility.yul\":197:198   */\n      0x00\n        /* \"#utility.yul\":194:195   */\n      dup1\n        /* \"#utility.yul\":187:199   */\n      revert\n        /* \"#utility.yul\":334:411   */\n    tag_69:\n        /* \"#utility.yul\":371:378   */\n      0x00\n        /* \"#utility.yul\":400:405   */\n      dup2\n        /* \"#utility.yul\":389:405   */\n      swap1\n      pop\n        /* \"#utility.yul\":334:411   */\n      swap2\n      swap1\n      pop\n      jump\t// out\n        /* \"#utility.yul\":417:539   */\n    tag_70:\n        /* \"#utility.yul\":490:514   */\n      tag_87\n        /* \"#utility.yul\":508:513   */\n      dup2\n        /* \"#utility.yul\":490:514   */\n      tag_69\n      jump\t// in\n    tag_87:\n        /* \"#utility.yul\":483:488   */\n      dup2\n        /* \"#utility.yul\":480:515   */\n      eq\n        /* \"#utility.yul\":470:533   */\n      tag_88\n      jumpi\n        /* \"#utility.yul\":529:530   */\n      0x00\n        /* \"#utility.yul\":526:527   */\n      dup1\n        /* \"#utility.yul\":519:531   */\n      revert\n        /* \"#utility.yul\":470:533   */\n    tag_88:\n        /* \"#utility.yul\":417:539   */\n      pop\n      jump\t// out\n        /* \"#utility.yul\":545:684   */\n    tag_71:\n        /* \"#utility.yul\":591:596   */\n      0x00\n        /* \"#utility.yul\":629:635   */\n      dup2\n        /* \"#utility.yul\":616:636   */\n      calldataload\n        /* \"#utility.yul\":607:636   */\n      swap1\n      pop\n        /* \"#utility.yul\":645:678   */\n      tag_90\n        /* \"#utility.yul\":672:677   */\n      dup2\n        /* \"#utility.yul\":645:678   */\n      tag_70\n      jump\t// in\n    tag_90:\n        /* \"#utility.yul\":545:684   */\n      swap3\n      swap2\n      pop\n      pop\n      jump\t// out\n        /* \"#utility.yul\":690:1019   */\n    tag_10:\n        /* \"#utility.yul\":749:755   */\n      0x00\n        /* \"#utility.yul\":798:800   */\n      0x20\n        /* \"#utility.yul\":786:795   */\n      dup3\n        /* \"#utility.yul\":777:784   */\n      dup5\n        /* \"#utility.yul\":773:796   */\n      sub\n        /* \"#utility.yul\":769:801   */\n      slt\n        /* \"#utility.yul\":766:885   */\n      iszero\n      tag_92\n      jumpi\n        /* \"#utility.yul\":804:883   */\n      tag_93\n      tag_67\n      jump\t// in\n    tag_93:\n        /* \"#utility.yul\":766:885   */\n    tag_92:\n        /* \"#utility.yul\":924:925   */\n      0x00\n        /* \"#utility.yul\":949:1002   */\n      tag_94\n        /* \"#utility.yul\":994:1001   */\n      dup5\n        /* \"#utility.yul\":985:991   */\n      dup3\n        /* \"#utility.yul\":974:983   */\n      dup6\n        /* \"#utility.yul\":970:992   */\n      add\n        /* \"#utility.yul\":949:1002   */\n      tag_71\n      jump\t// in\n    tag_94:\n        /* \"#utility.yul\":939:1002   */\n      swap2\n      pop\n        /* \"#utility.yul\":895:1012   */\n      pop\n        /* \"#utility.yul\":690:1019   */\n      swap3\n      swap2\n      pop\n      pop\n      jump\t// out\n        /* \"#utility.yul\":1025:1143   */\n    tag_72:\n        /* \"#utility.yul\":1112:1136   */\n      tag_96\n        /* \"#utility.yul\":1130:1135   */\n      dup2\n        /* \"#utility.yul\":1112:1136   */\n      tag_69\n      jump\t// in\n    tag_96:\n        /* \"#utility.yul\":1107:1110   */\n      dup3\n        /* \"#utility.yul\":1100:1137   */\n      mstore\n        /* \"#utility.yul\":1025:1143   */\n      pop\n      pop\n      jump\t// out\n        /* \"#utility.yul\":1149:1371   */\n    tag_13:\n        /* \"#utility.yul\":1242:1246   */\n      0x00\n        /* \"#utility.yul\":1280:1282   */\n      0x20\n        /* \"#utility.yul\":1269:1278   */\n      dup3\n        /* \"#utility.yul\":1265:1283   */\n      add\n        /* \"#utility.yul\":1257:1283   */\n      swap1\n      pop\n        /* \"#utility.yul\":1293:1364   */\n      tag_98\n        /* \"#utility.yul\":1361:1362   */\n      0x00\n        /* \"#utility.yul\":1350:1359   */\n      dup4\n        /* \"#utility.yul\":1346:1363   */\n      add\n        /* \"#utility.yul\":1337:1343   */\n      dup5\n        /* \"#utility.yul\":1293:1364   */\n      tag_72\n      jump\t// in\n    tag_98:\n        /* \"#utility.yul\":1149:1371   */\n      swap3\n      swap2\n      pop\n      pop\n      jump\t// out\n        /* \"#utility.yul\":1377:1491   */\n    tag_73:\n        /* \"#utility.yul\":1444:1450   */\n      0x00\n        /* \"#utility.yul\":1478:1483   */\n      dup2\n        /* \"#utility.yul\":1472:1484   */\n      mload\n        /* \"#utility.yul\":1462:1484   */\n      swap1\n      pop\n        /* \"#utility.yul\":1377:1491   */\n      swap2\n      swap1\n      pop\n      jump\t// out\n        /* \"#utility.yul\":1497:1681   */\n    tag_74:\n        /* \"#utility.yul\":1596:1607   */\n      0x00\n        /* \"#utility.yul\":1630:1636   */\n      dup3\n        /* \"#utility.yul\":1625:1628   */\n      dup3\n        /* \"#utility.yul\":1618:1637   */\n      mstore\n        /* \"#utility.yul\":1670:1674   */\n      0x20\n        /* \"#utility.yul\":1665:1668   */\n      dup3\n        /* \"#utility.yul\":1661:1675   */\n      add\n        /* \"#utility.yul\":1646:1675   */\n      swap1\n      pop\n        /* \"#utility.yul\":1497:1681   */\n      swap3\n      swap2\n      pop\n      pop\n      jump\t// out\n        /* \"#utility.yul\":1687:1819   */\n    tag_75:\n        /* \"#utility.yul\":1754:1758   */\n      0x00\n        /* \"#utility.yul\":1777:1780   */\n      dup2\n        /* \"#utility.yul\":1769:1780   */\n      swap1\n      pop\n        /* \"#utility.yul\":1807:1811   */\n      0x20\n        /* \"#utility.yul\":1802:1805   */\n      dup3\n        /* \"#utility.yul\":1798:1812   */\n      add\n        /* \"#utility.yul\":1790:1812   */\n      swap1\n      pop\n        /* \"#utility.yul\":1687:1819   */\n      swap2\n      swap1\n      pop\n      jump\t// out\n        /* \"#utility.yul\":1825:1933   */\n    tag_76:\n        /* \"#utility.yul\":1902:1926   */\n      tag_103\n        /* \"#utility.yul\":1920:1925   */\n      dup2\n        /* \"#utility.yul\":1902:1926   */\n      tag_69\n      jump\t// in\n    tag_103:\n        /* \"#utility.yul\":1897:1900   */\n      dup3\n        /* \"#utility.yul\":1890:1927   */\n      mstore\n        /* \"#utility.yul\":1825:1933   */\n      pop\n      pop\n      jump\t// out\n        /* \"#utility.yul\":1939:2118   */\n    tag_77:\n        /* \"#utility.yul\":2008:2018   */\n      0x00\n        /* \"#utility.yul\":2029:2075   */\n      tag_105\n        /* \"#utility.yul\":2071:2074   */\n      dup4\n        /* \"#utility.yul\":2063:2069   */\n      dup4\n        /* \"#utility.yul\":2029:2075   */\n      tag_76\n      jump\t// in\n    tag_105:\n        /* \"#utility.yul\":2107:2111   */\n      0x20\n        /* \"#utility.yul\":2102:2105   */\n      dup4\n        /* \"#utility.yul\":2098:2112   */\n      add\n        /* \"#utility.yul\":2084:2112   */\n      swap1\n      pop\n        /* \"#utility.yul\":1939:2118   */\n      swap3\n      swap2\n      pop\n      pop\n      jump\t// out\n        /* \"#utility.yul\":2124:2237   */\n    tag_78:\n        /* \"#utility.yul\":2194:2198   */\n      0x00\n        /* \"#utility.yul\":2226:2230   */\n      0x20\n        /* \"#utility.yul\":2221:2224   */\n      dup3\n        /* \"#utility.yul\":2217:2231   */\n      add\n        /* \"#utility.yul\":2209:2231   */\n      swap1\n      pop\n        /* \"#utility.yul\":2124:2237   */\n      swap2\n      swap1\n      pop\n      jump\t// out\n        /* \"#utility.yul\":2273:3005   */\n    tag_79:\n        /* \"#utility.yul\":2392:2395   */\n      0x00\n        /* \"#utility.yul\":2421:2475   */\n      tag_108\n        /* \"#utility.yul\":2469:2474   */\n      dup3\n        /* \"#utility.yul\":2421:2475   */\n      tag_73\n      jump\t// in\n    tag_108:\n        /* \"#utility.yul\":2491:2577   */\n      tag_109\n        /* \"#utility.yul\":2570:2576   */\n      dup2\n        /* \"#utility.yul\":2565:2568   */\n      dup6\n        /* \"#utility.yul\":2491:2577   */\n      tag_74\n      jump\t// in\n    tag_109:\n        /* \"#utility.yul\":2484:2577   */\n      swap4\n      pop\n        /* \"#utility.yul\":2601:2657   */\n      tag_110\n        /* \"#utility.yul\":2651:2656   */\n      dup4\n        /* \"#utility.yul\":2601:2657   */\n      tag_75\n      jump\t// in\n    tag_110:\n        /* \"#utility.yul\":2680:2687   */\n      dup1\n        /* \"#utility.yul\":2711:2712   */\n      0x00\n        /* \"#utility.yul\":2696:2980   */\n    tag_111:\n        /* \"#utility.yul\":2721:2727   */\n      dup4\n        /* \"#utility.yul\":2718:2719   */\n      dup2\n        /* \"#utility.yul\":2715:2728   */\n      lt\n        /* \"#utility.yul\":2696:2980   */\n      iszero\n      tag_113\n      jumpi\n        /* \"#utility.yul\":2797:2803   */\n      dup2\n        /* \"#utility.yul\":2791:2804   */\n      mload\n        /* \"#utility.yul\":2824:2887   */\n      tag_114\n        /* \"#utility.yul\":2883:2886   */\n      dup9\n        /* \"#utility.yul\":2868:2881   */\n      dup3\n        /* \"#utility.yul\":2824:2887   */\n      tag_77\n      jump\t// in\n    tag_114:\n        /* \"#utility.yul\":2817:2887   */\n      swap8\n      pop\n        /* \"#utility.yul\":2910:2970   */\n      tag_115\n        /* \"#utility.yul\":2963:2969   */\n      dup4\n        /* \"#utility.yul\":2910:2970   */\n      tag_78\n      jump\t// in\n    tag_115:\n        /* \"#utility.yul\":2900:2970   */\n      swap3\n      pop\n        /* \"#utility.yul\":2756:2980   */\n      pop\n        /* \"#utility.yul\":2743:2744   */\n      0x01\n        /* \"#utility.yul\":2740:2741   */\n      dup2\n        /* \"#utility.yul\":2736:2745   */\n      add\n        /* \"#utility.yul\":2731:2745   */\n      swap1\n      pop\n        /* \"#utility.yul\":2696:2980   */\n      jump(tag_111)\n    tag_113:\n        /* \"#utility.yul\":2700:2714   */\n      pop\n        /* \"#utility.yul\":2996:2999   */\n      dup6\n        /* \"#utility.yul\":2989:2999   */\n      swap4\n      pop\n        /* \"#utility.yul\":2397:3005   */\n      pop\n      pop\n      pop\n        /* \"#utility.yul\":2273:3005   */\n      swap3\n      swap2\n      pop\n      pop\n      jump\t// out\n        /* \"#utility.yul\":3011:3384   */\n    tag_27:\n        /* \"#utility.yul\":3154:3158   */\n      0x00\n        /* \"#utility.yul\":3192:3194   */\n      0x20\n        /* \"#utility.yul\":3181:3190   */\n      dup3\n        /* \"#utility.yul\":3177:3195   */\n      add\n        /* \"#utility.yul\":3169:3195   */\n      swap1\n      pop\n        /* \"#utility.yul\":3241:3250   */\n      dup2\n        /* \"#utility.yul\":3235:3239   */\n      dup2\n        /* \"#utility.yul\":3231:3251   */\n      sub\n        /* \"#utility.yul\":3227:3228   */\n      0x00\n        /* \"#utility.yul\":3216:3225   */\n      dup4\n        /* \"#utility.yul\":3212:3229   */\n      add\n        /* \"#utility.yul\":3205:3252   */\n      mstore\n        /* \"#utility.yul\":3269:3377   */\n      tag_117\n        /* \"#utility.yul\":3372:3376   */\n      dup2\n        /* \"#utility.yul\":3363:3369   */\n      dup5\n        /* \"#utility.yul\":3269:3377   */\n      tag_79\n      jump\t// in\n    tag_117:\n        /* \"#utility.yul\":3261:3377   */\n      swap1\n      pop\n        /* \"#utility.yul\":3011:3384   */\n      swap3\n      swap2\n      pop\n      pop\n      jump\t// out\n        /* \"#utility.yul\":3390:3570   */\n    tag_45:\n        /* \"#utility.yul\":3438:3515   */\n      0x4e487b7100000000000000000000000000000000000000000000000000000000\n        /* \"#utility.yul\":3435:3436   */\n      0x00\n        /* \"#utility.yul\":3428:3516   */\n      mstore\n        /* \"#utility.yul\":3535:3539   */\n      0x32\n        /* \"#utility.yul\":3532:3533   */\n      0x04\n        /* \"#utility.yul\":3525:3540   */\n      mstore\n        /* \"#utility.yul\":3559:3563   */\n      0x24\n        /* \"#utility.yul\":3556:3557   */\n      0x00\n        /* \"#utility.yul\":3549:3564   */\n      revert\n        /* \"#utility.yul\":3576:3756   */\n    tag_80:\n        /* \"#utility.yul\":3624:3701   */\n      0x4e487b7100000000000000000000000000000000000000000000000000000000\n        /* \"#utility.yul\":3621:3622   */\n      0x00\n        /* \"#utility.yul\":3614:3702   */\n      mstore\n        /* \"#utility.yul\":3721:3725   */\n      0x11\n        /* \"#utility.yul\":3718:3719   */\n      0x04\n        /* \"#utility.yul\":3711:3726   */\n      mstore\n        /* \"#utility.yul\":3745:3749   */\n      0x24\n        /* \"#utility.yul\":3742:3743   */\n      0x00\n        /* \"#utility.yul\":3735:3750   */\n      revert\n        /* \"#utility.yul\":3762:3995   */\n    tag_56:\n        /* \"#utility.yul\":3801:3804   */\n      0x00\n        /* \"#utility.yul\":3824:3848   */\n      tag_121\n        /* \"#utility.yul\":3842:3847   */\n      dup3\n        /* \"#utility.yul\":3824:3848   */\n      tag_69\n      jump\t// in\n    tag_121:\n        /* \"#utility.yul\":3815:3848   */\n      swap2\n      pop\n        /* \"#utility.yul\":3870:3936   */\n      0xffffffffffffffffffffffffffffffffffffffffffffffffffffffffffffffff\n        /* \"#utility.yul\":3863:3868   */\n      dup3\n        /* \"#utility.yul\":3860:3937   */\n      sub\n        /* \"#utility.yul\":3857:3960   */\n      tag_122\n      jumpi\n        /* \"#utility.yul\":3940:3958   */\n      tag_123\n      tag_80\n      jump\t// in\n    tag_123:\n        /* \"#utility.yul\":3857:3960   */\n    tag_122:\n        /* \"#utility.yul\":3987:3988   */\n      0x01\n        /* \"#utility.yul\":3980:3985   */\n      dup3\n        /* \"#utility.yul\":3976:3989   */\n      add\n        /* \"#utility.yul\":3969:3989   */\n      swap1\n      pop\n        /* \"#utility.yul\":3762:3995   */\n      swap2\n      swap1\n      pop\n      jump\t// out\n\n    auxdata: 0xa2646970667358221220b49c09bb0da0c59098b08c52cb5f9f00b28746c7f0a58544ad650cdd45231e0b64736f6c63430008120033\n}\n",
				"bytecode": {
					"linkReferences": {},
					"object": "60806040526040518060c00160405280601460ff168152602001600b60ff168152602001602d60ff168152602001604a60ff168152602001605860ff168152602001600c60ff1681525060009060066100599291906100c2565b506040518060c00160405280601560ff168152602001603460ff168152602001600c60ff168152602001600460ff168152602001601360ff168152602001600b60ff1681525060019060066100af9291906100c2565b503480156100bc57600080fd5b50610131565b828054828255906000526020600020908101928215610103579160200282015b82811115610102578251829060ff169055916020019190600101906100e2565b5b5090506101109190610114565b5090565b5b8082111561012d576000816000905550600101610115565b5090565b61054b806101406000396000f3fe608060405234801561001057600080fd5b50600436106100575760003560e01c8063396ed6001461005c5780634bae89cb1461008c57806361125b63146100bc578063a1dc1c60146100ec578063b82b1aba146100f6575b600080fd5b61007660048036038101906100719190610338565b610114565b6040516100839190610374565b60405180910390f35b6100a660048036038101906100a19190610338565b610138565b6040516100b39190610374565b60405180910390f35b6100d660048036038101906100d19190610338565b61015c565b6040516100e39190610374565b60405180910390f35b6100f4610180565b005b6100fe610267565b60405161010b919061044d565b60405180910390f35b6002818154811061012457600080fd5b906000526020600020016000915090505481565b6000818154811061014857600080fd5b906000526020600020016000915090505481565b6001818154811061016c57600080fd5b906000526020600020016000915090505481565b6002600061018e91906102bf565b60005b6000805490508110156102645760005b60018054905081101561025057600181815481106101c2576101c161046f565b5b9060005260206000200154600083815481106101e1576101e061046f565b5b90600052602060002001540361023d576002600083815481106102075761020661046f565b5b90600052602060002001549080600181540180825580915050600190039060005260206000200160009091909190915055610250565b8080610248906104cd565b9150506101a1565b50808061025c906104cd565b915050610191565b50565b606060028054806020026020016040519081016040528092919081815260200182805480156102b557602002820191906000526020600020905b8154815260200190600101908083116102a1575b5050505050905090565b50805460008255906000526020600020908101906102dd91906102e0565b50565b5b808211156102f95760008160009055506001016102e1565b5090565b600080fd5b6000819050919050565b61031581610302565b811461032057600080fd5b50565b6000813590506103328161030c565b92915050565b60006020828403121561034e5761034d6102fd565b5b600061035c84828501610323565b91505092915050565b61036e81610302565b82525050565b60006020820190506103896000830184610365565b92915050565b600081519050919050565b600082825260208201905092915050565b6000819050602082019050919050565b6103c481610302565b82525050565b60006103d683836103bb565b60208301905092915050565b6000602082019050919050565b60006103fa8261038f565b610404818561039a565b935061040f836103ab565b8060005b8381101561044057815161042788826103ca565b9750610432836103e2565b925050600181019050610413565b5085935050505092915050565b6000602082019050818103600083015261046781846103ef565b905092915050565b7f4e487b7100000000000000000000000000000000000000000000000000000000600052603260045260246000fd5b7f4e487b7100000000000000000000000000000000000000000000000000000000600052601160045260246000fd5b60006104d882610302565b91507fffffffffffffffffffffffffffffffffffffffffffffffffffffffffffffffff820361050a5761050961049e565b5b60018201905091905056fea2646970667358221220b49c09bb0da0c59098b08c52cb5f9f00b28746c7f0a58544ad650cdd45231e0b64736f6c63430008120033",
					"opcodes": "PUSH1 0x80 PUSH1 0x40 MSTORE PUSH1 0x40 MLOAD DUP1 PUSH1 0xC0 ADD PUSH1 0x40 MSTORE DUP1 PUSH1 0x14 PUSH1 0xFF AND DUP2 MSTORE PUSH1 0x20 ADD PUSH1 0xB PUSH1 0xFF AND DUP2 MSTORE PUSH1 0x20 ADD PUSH1 0x2D PUSH1 0xFF AND DUP2 MSTORE PUSH1 0x20 ADD PUSH1 0x4A PUSH1 0xFF AND DUP2 MSTORE PUSH1 0x20 ADD PUSH1 0x58 PUSH1 0xFF AND DUP2 MSTORE PUSH1 0x20 ADD PUSH1 0xC PUSH1 0xFF AND DUP2 MSTORE POP PUSH1 0x0 SWAP1 PUSH1 0x6 PUSH2 0x59 SWAP3 SWAP2 SWAP1 PUSH2 0xC2 JUMP JUMPDEST POP PUSH1 0x40 MLOAD DUP1 PUSH1 0xC0 ADD PUSH1 0x40 MSTORE DUP1 PUSH1 0x15 PUSH1 0xFF AND DUP2 MSTORE PUSH1 0x20 ADD PUSH1 0x34 PUSH1 0xFF AND DUP2 MSTORE PUSH1 0x20 ADD PUSH1 0xC PUSH1 0xFF AND DUP2 MSTORE PUSH1 0x20 ADD PUSH1 0x4 PUSH1 0xFF AND DUP2 MSTORE PUSH1 0x20 ADD PUSH1 0x13 PUSH1 0xFF AND DUP2 MSTORE PUSH1 0x20 ADD PUSH1 0xB PUSH1 0xFF AND DUP2 MSTORE POP PUSH1 0x1 SWAP1 PUSH1 0x6 PUSH2 0xAF SWAP3 SWAP2 SWAP1 PUSH2 0xC2 JUMP JUMPDEST POP CALLVALUE DUP1 ISZERO PUSH2 0xBC JUMPI PUSH1 0x0 DUP1 REVERT JUMPDEST POP PUSH2 0x131 JUMP JUMPDEST DUP3 DUP1 SLOAD DUP3 DUP3 SSTORE SWAP1 PUSH1 0x0 MSTORE PUSH1 0x20 PUSH1 0x0 KECCAK256 SWAP1 DUP2 ADD SWAP3 DUP3 ISZERO PUSH2 0x103 JUMPI SWAP2 PUSH1 0x20 MUL DUP3 ADD JUMPDEST DUP3 DUP2 GT ISZERO PUSH2 0x102 JUMPI DUP3 MLOAD DUP3 SWAP1 PUSH1 0xFF AND SWAP1 SSTORE SWAP2 PUSH1 0x20 ADD SWAP2 SWAP1 PUSH1 0x1 ADD SWAP1 PUSH2 0xE2 JUMP JUMPDEST JUMPDEST POP SWAP1 POP PUSH2 0x110 SWAP2 SWAP1 PUSH2 0x114 JUMP JUMPDEST POP SWAP1 JUMP JUMPDEST JUMPDEST DUP1 DUP3 GT ISZERO PUSH2 0x12D JUMPI PUSH1 0x0 DUP2 PUSH1 0x0 SWAP1 SSTORE POP PUSH1 0x1 ADD PUSH2 0x115 JUMP JUMPDEST POP SWAP1 JUMP JUMPDEST PUSH2 0x54B DUP1 PUSH2 0x140 PUSH1 0x0 CODECOPY PUSH1 0x0 RETURN INVALID PUSH1 0x80 PUSH1 0x40 MSTORE CALLVALUE DUP1 ISZERO PUSH2 0x10 JUMPI PUSH1 0x0 DUP1 REVERT JUMPDEST POP PUSH1 0x4 CALLDATASIZE LT PUSH2 0x57 JUMPI PUSH1 0x0 CALLDATALOAD PUSH1 0xE0 SHR DUP1 PUSH4 0x396ED600 EQ PUSH2 0x5C JUMPI DUP1 PUSH4 0x4BAE89CB EQ PUSH2 0x8C JUMPI DUP1 PUSH4 0x61125B63 EQ PUSH2 0xBC JUMPI DUP1 PUSH4 0xA1DC1C60 EQ PUSH2 0xEC JUMPI DUP1 PUSH4 0xB82B1ABA EQ PUSH2 0xF6 JUMPI JUMPDEST PUSH1 0x0 DUP1 REVERT JUMPDEST PUSH2 0x76 PUSH1 0x4 DUP1 CALLDATASIZE SUB DUP2 ADD SWAP1 PUSH2 0x71 SWAP2 SWAP1 PUSH2 0x338 JUMP JUMPDEST PUSH2 0x114 JUMP JUMPDEST PUSH1 0x40 MLOAD PUSH2 0x83 SWAP2 SWAP1 PUSH2 0x374 JUMP JUMPDEST PUSH1 0x40 MLOAD DUP1 SWAP2 SUB SWAP1 RETURN JUMPDEST PUSH2 0xA6 PUSH1 0x4 DUP1 CALLDATASIZE SUB DUP2 ADD SWAP1 PUSH2 0xA1 SWAP2 SWAP1 PUSH2 0x338 JUMP JUMPDEST PUSH2 0x138 JUMP JUMPDEST PUSH1 0x40 MLOAD PUSH2 0xB3 SWAP2 SWAP1 PUSH2 0x374 JUMP JUMPDEST PUSH1 0x40 MLOAD DUP1 SWAP2 SUB SWAP1 RETURN JUMPDEST PUSH2 0xD6 PUSH1 0x4 DUP1 CALLDATASIZE SUB DUP2 ADD SWAP1 PUSH2 0xD1 SWAP2 SWAP1 PUSH2 0x338 JUMP JUMPDEST PUSH2 0x15C JUMP JUMPDEST PUSH1 0x40 MLOAD PUSH2 0xE3 SWAP2 SWAP1 PUSH2 0x374 JUMP JUMPDEST PUSH1 0x40 MLOAD DUP1 SWAP2 SUB SWAP1 RETURN JUMPDEST PUSH2 0xF4 PUSH2 0x180 JUMP JUMPDEST STOP JUMPDEST PUSH2 0xFE PUSH2 0x267 JUMP JUMPDEST PUSH1 0x40 MLOAD PUSH2 0x10B SWAP2 SWAP1 PUSH2 0x44D JUMP JUMPDEST PUSH1 0x40 MLOAD DUP1 SWAP2 SUB SWAP1 RETURN JUMPDEST PUSH1 0x2 DUP2 DUP2 SLOAD DUP2 LT PUSH2 0x124 JUMPI PUSH1 0x0 DUP1 REVERT JUMPDEST SWAP1 PUSH1 0x0 MSTORE PUSH1 0x20 PUSH1 0x0 KECCAK256 ADD PUSH1 0x0 SWAP2 POP SWAP1 POP SLOAD DUP2 JUMP JUMPDEST PUSH1 0x0 DUP2 DUP2 SLOAD DUP2 LT PUSH2 0x148 JUMPI PUSH1 0x0 DUP1 REVERT JUMPDEST SWAP1 PUSH1 0x0 MSTORE PUSH1 0x20 PUSH1 0x0 KECCAK256 ADD PUSH1 0x0 SWAP2 POP SWAP1 POP SLOAD DUP2 JUMP JUMPDEST PUSH1 0x1 DUP2 DUP2 SLOAD DUP2 LT PUSH2 0x16C JUMPI PUSH1 0x0 DUP1 REVERT JUMPDEST SWAP1 PUSH1 0x0 MSTORE PUSH1 0x20 PUSH1 0x0 KECCAK256 ADD PUSH1 0x0 SWAP2 POP SWAP1 POP SLOAD DUP2 JUMP JUMPDEST PUSH1 0x2 PUSH1 0x0 PUSH2 0x18E SWAP2 SWAP1 PUSH2 0x2BF JUMP JUMPDEST PUSH1 0x0 JUMPDEST PUSH1 0x0 DUP1 SLOAD SWAP1 POP DUP2 LT ISZERO PUSH2 0x264 JUMPI PUSH1 0x0 JUMPDEST PUSH1 0x1 DUP1 SLOAD SWAP1 POP DUP2 LT ISZERO PUSH2 0x250 JUMPI PUSH1 0x1 DUP2 DUP2 SLOAD DUP2 LT PUSH2 0x1C2 JUMPI PUSH2 0x1C1 PUSH2 0x46F JUMP JUMPDEST JUMPDEST SWAP1 PUSH1 0x0 MSTORE PUSH1 0x20 PUSH1 0x0 KECCAK256 ADD SLOAD PUSH1 0x0 DUP4 DUP2 SLOAD DUP2 LT PUSH2 0x1E1 JUMPI PUSH2 0x1E0 PUSH2 0x46F JUMP JUMPDEST JUMPDEST SWAP1 PUSH1 0x0 MSTORE PUSH1 0x20 PUSH1 0x0 KECCAK256 ADD SLOAD SUB PUSH2 0x23D JUMPI PUSH1 0x2 PUSH1 0x0 DUP4 DUP2 SLOAD DUP2 LT PUSH2 0x207 JUMPI PUSH2 0x206 PUSH2 0x46F JUMP JUMPDEST JUMPDEST SWAP1 PUSH1 0x0 MSTORE PUSH1 0x20 PUSH1 0x0 KECCAK256 ADD SLOAD SWAP1 DUP1 PUSH1 0x1 DUP2 SLOAD ADD DUP1 DUP3 SSTORE DUP1 SWAP2 POP POP PUSH1 0x1 SWAP1 SUB SWAP1 PUSH1 0x0 MSTORE PUSH1 0x20 PUSH1 0x0 KECCAK256 ADD PUSH1 0x0 SWAP1 SWAP2 SWAP1 SWAP2 SWAP1 SWAP2 POP SSTORE PUSH2 0x250 JUMP JUMPDEST DUP1 DUP1 PUSH2 0x248 SWAP1 PUSH2 0x4CD JUMP JUMPDEST SWAP2 POP POP PUSH2 0x1A1 JUMP JUMPDEST POP DUP1 DUP1 PUSH2 0x25C SWAP1 PUSH2 0x4CD JUMP JUMPDEST SWAP2 POP POP PUSH2 0x191 JUMP JUMPDEST POP JUMP JUMPDEST PUSH1 0x60 PUSH1 0x2 DUP1 SLOAD DUP1 PUSH1 0x20 MUL PUSH1 0x20 ADD PUSH1 0x40 MLOAD SWAP1 DUP2 ADD PUSH1 0x40 MSTORE DUP1 SWAP3 SWAP2 SWAP1 DUP2 DUP2 MSTORE PUSH1 0x20 ADD DUP3 DUP1 SLOAD DUP1 ISZERO PUSH2 0x2B5 JUMPI PUSH1 0x20 MUL DUP3 ADD SWAP2 SWAP1 PUSH1 0x0 MSTORE PUSH1 0x20 PUSH1 0x0 KECCAK256 SWAP1 JUMPDEST DUP2 SLOAD DUP2 MSTORE PUSH1 0x20 ADD SWAP1 PUSH1 0x1 ADD SWAP1 DUP1 DUP4 GT PUSH2 0x2A1 JUMPI JUMPDEST POP POP POP POP POP SWAP1 POP SWAP1 JUMP JUMPDEST POP DUP1 SLOAD PUSH1 0x0 DUP3 SSTORE SWAP1 PUSH1 0x0 MSTORE PUSH1 0x20 PUSH1 0x0 KECCAK256 SWAP1 DUP2 ADD SWAP1 PUSH2 0x2DD SWAP2 SWAP1 PUSH2 0x2E0 JUMP JUMPDEST POP JUMP JUMPDEST JUMPDEST DUP1 DUP3 GT ISZERO PUSH2 0x2F9 JUMPI PUSH1 0x0 DUP2 PUSH1 0x0 SWAP1 SSTORE POP PUSH1 0x1 ADD PUSH2 0x2E1 JUMP JUMPDEST POP SWAP1 JUMP JUMPDEST PUSH1 0x0 DUP1 REVERT JUMPDEST PUSH1 0x0 DUP2 SWAP1 POP SWAP2 SWAP1 POP JUMP JUMPDEST PUSH2 0x315 DUP2 PUSH2 0x302 JUMP JUMPDEST DUP2 EQ PUSH2 0x320 JUMPI PUSH1 0x0 DUP1 REVERT JUMPDEST POP JUMP JUMPDEST PUSH1 0x0 DUP2 CALLDATALOAD SWAP1 POP PUSH2 0x332 DUP2 PUSH2 0x30C JUMP JUMPDEST SWAP3 SWAP2 POP POP JUMP JUMPDEST PUSH1 0x0 PUSH1 0x20 DUP3 DUP5 SUB SLT ISZERO PUSH2 0x34E JUMPI PUSH2 0x34D PUSH2 0x2FD JUMP JUMPDEST JUMPDEST PUSH1 0x0 PUSH2 0x35C DUP5 DUP3 DUP6 ADD PUSH2 0x323 JUMP JUMPDEST SWAP2 POP POP SWAP3 SWAP2 POP POP JUMP JUMPDEST PUSH2 0x36E DUP2 PUSH2 0x302 JUMP JUMPDEST DUP3 MSTORE POP POP JUMP JUMPDEST PUSH1 0x0 PUSH1 0x20 DUP3 ADD SWAP1 POP PUSH2 0x389 PUSH1 0x0 DUP4 ADD DUP5 PUSH2 0x365 JUMP JUMPDEST SWAP3 SWAP2 POP POP JUMP JUMPDEST PUSH1 0x0 DUP2 MLOAD SWAP1 POP SWAP2 SWAP1 POP JUMP JUMPDEST PUSH1 0x0 DUP3 DUP3 MSTORE PUSH1 0x20 DUP3 ADD SWAP1 POP SWAP3 SWAP2 POP POP JUMP JUMPDEST PUSH1 0x0 DUP2 SWAP1 POP PUSH1 0x20 DUP3 ADD SWAP1 POP SWAP2 SWAP1 POP JUMP JUMPDEST PUSH2 0x3C4 DUP2 PUSH2 0x302 JUMP JUMPDEST DUP3 MSTORE POP POP JUMP JUMPDEST PUSH1 0x0 PUSH2 0x3D6 DUP4 DUP4 PUSH2 0x3BB JUMP JUMPDEST PUSH1 0x20 DUP4 ADD SWAP1 POP SWAP3 SWAP2 POP POP JUMP JUMPDEST PUSH1 0x0 PUSH1 0x20 DUP3 ADD SWAP1 POP SWAP2 SWAP1 POP JUMP JUMPDEST PUSH1 0x0 PUSH2 0x3FA DUP3 PUSH2 0x38F JUMP JUMPDEST PUSH2 0x404 DUP2 DUP6 PUSH2 0x39A JUMP JUMPDEST SWAP4 POP PUSH2 0x40F DUP4 PUSH2 0x3AB JUMP JUMPDEST DUP1 PUSH1 0x0 JUMPDEST DUP4 DUP2 LT ISZERO PUSH2 0x440 JUMPI DUP2 MLOAD PUSH2 0x427 DUP9 DUP3 PUSH2 0x3CA JUMP JUMPDEST SWAP8 POP PUSH2 0x432 DUP4 PUSH2 0x3E2 JUMP JUMPDEST SWAP3 POP POP PUSH1 0x1 DUP2 ADD SWAP1 POP PUSH2 0x413 JUMP JUMPDEST POP DUP6 SWAP4 POP POP POP POP SWAP3 SWAP2 POP POP JUMP JUMPDEST PUSH1 0x0 PUSH1 0x20 DUP3 ADD SWAP1 POP DUP2 DUP2 SUB PUSH1 0x0 DUP4 ADD MSTORE PUSH2 0x467 DUP2 DUP5 PUSH2 0x3EF JUMP JUMPDEST SWAP1 POP SWAP3 SWAP2 POP POP JUMP JUMPDEST PUSH32 0x4E487B7100000000000000000000000000000000000000000000000000000000 PUSH1 0x0 MSTORE PUSH1 0x32 PUSH1 0x4 MSTORE PUSH1 0x24 PUSH1 0x0 REVERT JUMPDEST PUSH32 0x4E487B7100000000000000000000000000000000000000000000000000000000 PUSH1 0x0 MSTORE PUSH1 0x11 PUSH1 0x4 MSTORE PUSH1 0x24 PUSH1 0x0 REVERT JUMPDEST PUSH1 0x0 PUSH2 0x4D8 DUP3 PUSH2 0x302 JUMP JUMPDEST SWAP2 POP PUSH32 0xFFFFFFFFFFFFFFFFFFFFFFFFFFFFFFFFFFFFFFFFFFFFFFFFFFFFFFFFFFFFFFFF DUP3 SUB PUSH2 0x50A JUMPI PUSH2 0x509 PUSH2 0x49E JUMP JUMPDEST JUMPDEST PUSH1 0x1 DUP3 ADD SWAP1 POP SWAP2 SWAP1 POP JUMP INVALID LOG2 PUSH5 0x6970667358 0x22 SLT KECCAK256 0xB4 SWAP13 MULMOD 0xBB 0xD LOG0 0xC5 SWAP1 SWAP9 0xB0 DUP13 MSTORE 0xCB 0x5F SWAP16 STOP 0xB2 DUP8 CHAINID 0xC7 CREATE 0xA5 DUP6 PREVRANDAO 0xAD PUSH6 0xCDD45231E0B PUSH5 0x736F6C6343 STOP ADDMOD SLT STOP CALLER "
				},
				"gasEstimates": {
					"creation": {
						"codeDepositCost": "271000",
						"executionCost": "infinite",
						"totalCost": "infinite"
					},
					"external": {
						"array1(uint256)": "infinite",
						"array2(uint256)": "infinite",
						"common(uint256)": "infinite",
						"findCommon()": "infinite",
						"getAll_common()": "infinite"
					}
				},
				"methodIdentifiers": {
					"array1(uint256)": "4bae89cb",
					"array2(uint256)": "61125b63",
					"common(uint256)": "396ed600",
					"findCommon()": "a1dc1c60",
					"getAll_common()": "b82b1aba"
				}
			},
			"storageLayout": {
				"storage": [
					{
						"astId": 11,
						"contract": "same_value_array.sol:FindCommonElements",
						"label": "array1",
						"offset": 0,
						"slot": "0",
						"type": "t_array(t_uint256)dyn_storage"
					},
					{
						"astId": 21,
						"contract": "same_value_array.sol:FindCommonElements",
						"label": "array2",
						"offset": 0,
						"slot": "1",
						"type": "t_array(t_uint256)dyn_storage"
					},
					{
						"astId": 24,
						"contract": "same_value_array.sol:FindCommonElements",
						"label": "common",
						"offset": 0,
						"slot": "2",
						"type": "t_array(t_uint256)dyn_storage"
					}
				],
				"types": {
					"t_array(t_uint256)dyn_storage": {
						"base": "t_uint256",
						"encoding": "dynamic_array",
						"label": "uint256[]",
						"numberOfBytes": "32"
					},
					"t_uint256": {
						"encoding": "inplace",
						"label": "uint256",
						"numberOfBytes": "32"
					}
				}
			},
			"userdoc": {
				"kind": "user",
				"methods": {},
				"version": 1
			}
		}
	}
}