{
	"Twitter_Dapp.sol": {
		"Twitter": {
			"abi": [
				{
					"inputs": [],
					"name": "MAX_TWEET_LENGTH",
					"outputs": [
						{
							"internalType": "uint16",
							"name": "",
							"type": "uint16"
						}
					],
					"stateMutability": "view",
					"type": "function"
				},
				{
					"inputs": [
						{
							"internalType": "string",
							"name": "_tweet",
							"type": "string"
						}
					],
					"name": "createTweet",
					"outputs": [],
					"stateMutability": "nonpayable",
					"type": "function"
				},
				{
					"inputs": [
						{
							"internalType": "address",
							"name": "_author",
							"type": "address"
						},
						{
							"internalType": "uint256",
							"name": "_id",
							"type": "uint256"
						}
					],
					"name": "dislikeTweet",
					"outputs": [],
					"stateMutability": "nonpayable",
					"type": "function"
				},
				{
					"inputs": [
						{
							"internalType": "address",
							"name": "_owner",
							"type": "address"
						}
					],
					"name": "getAllTweets",
					"outputs": [
						{
							"components": [
								{
									"internalType": "uint256",
									"name": "id",
									"type": "uint256"
								},
								{
									"internalType": "address",
									"name": "author",
									"type": "address"
								},
								{
									"internalType": "string",
									"name": "content",
									"type": "string"
								},
								{
									"internalType": "uint256",
									"name": "timestamp",
									"type": "uint256"
								},
								{
									"internalType": "uint256",
									"name": "likes",
									"type": "uint256"
								}
							],
							"internalType": "struct Twitter.Tweet[]",
							"name": "",
							"type": "tuple[]"
						}
					],
					"stateMutability": "view",
					"type": "function"
				},
				{
					"inputs": [
						{
							"internalType": "address",
							"name": "_author",
							"type": "address"
						},
						{
							"internalType": "uint256",
							"name": "_id",
							"type": "uint256"
						}
					],
					"name": "likeTweet",
					"outputs": [],
					"stateMutability": "nonpayable",
					"type": "function"
				},
				{
					"inputs": [
						{
							"internalType": "address",
							"name": "",
							"type": "address"
						},
						{
							"internalType": "uint256",
							"name": "",
							"type": "uint256"
						}
					],
					"name": "tweets",
					"outputs": [
						{
							"internalType": "uint256",
							"name": "id",
							"type": "uint256"
						},
						{
							"internalType": "address",
							"name": "author",
							"type": "address"
						},
						{
							"internalType": "string",
							"name": "content",
							"type": "string"
						},
						{
							"internalType": "uint256",
							"name": "timestamp",
							"type": "uint256"
						},
						{
							"internalType": "uint256",
							"name": "likes",
							"type": "uint256"
						}
					],
					"stateMutability": "view",
					"type": "function"
				}
			],
			"devdoc": {
				"kind": "dev",
				"methods": {},
				"version": 1
			},
			"evm": {
				"assembly": "    /* \"Twitter_Dapp.sol\":60:1372  contract Twitter {... */\n  mstore(0x40, 0x80)\n    /* \"Twitter_Dapp.sol\":119:122  280 */\n  0x0118\n    /* \"Twitter_Dapp.sol\":86:122  uint16 public MAX_TWEET_LENGTH = 280 */\n  0x00\n  dup1\n  0x0100\n  exp\n  dup2\n  sload\n  dup2\n  0xffff\n  mul\n  not\n  and\n  swap1\n  dup4\n  0xffff\n  and\n  mul\n  or\n  swap1\n  sstore\n  pop\n    /* \"Twitter_Dapp.sol\":60:1372  contract Twitter {... */\n  callvalue\n  dup1\n  iszero\n  tag_1\n  jumpi\n  0x00\n  dup1\n  revert\ntag_1:\n  pop\n  dataSize(sub_0)\n  dup1\n  dataOffset(sub_0)\n  0x00\n  codecopy\n  0x00\n  return\nstop\n\nsub_0: assembly {\n        /* \"Twitter_Dapp.sol\":60:1372  contract Twitter {... */\n      mstore(0x40, 0x80)\n      callvalue\n      dup1\n      iszero\n      tag_1\n      jumpi\n      0x00\n      dup1\n      revert\n    tag_1:\n      pop\n      jumpi(tag_2, lt(calldatasize, 0x04))\n      shr(0xe0, calldataload(0x00))\n      dup1\n      0x05a1b4a9\n      eq\n      tag_3\n      jumpi\n      dup1\n      0x12e7ee1c\n      eq\n      tag_4\n      jumpi\n      dup1\n      0x63378216\n      eq\n      tag_5\n      jumpi\n      dup1\n      0x6eb10797\n      eq\n      tag_6\n      jumpi\n      dup1\n      0x7c9cd2bc\n      eq\n      tag_7\n      jumpi\n      dup1\n      0xae775e95\n      eq\n      tag_8\n      jumpi\n    tag_2:\n      0x00\n      dup1\n      revert\n        /* \"Twitter_Dapp.sol\":280:321  mapping(address => Tweet[]) public tweets */\n    tag_3:\n      tag_9\n      0x04\n      dup1\n      calldatasize\n      sub\n      dup2\n      add\n      swap1\n      tag_10\n      swap2\n      swap1\n      tag_11\n      jump\t// in\n    tag_10:\n      tag_12\n      jump\t// in\n    tag_9:\n      mload(0x40)\n      tag_13\n      swap6\n      swap5\n      swap4\n      swap3\n      swap2\n      swap1\n      tag_14\n      jump\t// in\n    tag_13:\n      mload(0x40)\n      dup1\n      swap2\n      sub\n      swap1\n      return\n        /* \"Twitter_Dapp.sol\":1222:1369  function getAllTweets(address _owner)... */\n    tag_4:\n      tag_15\n      0x04\n      dup1\n      calldatasize\n      sub\n      dup2\n      add\n      swap1\n      tag_16\n      swap2\n      swap1\n      tag_17\n      jump\t// in\n    tag_16:\n      tag_18\n      jump\t// in\n    tag_15:\n      mload(0x40)\n      tag_19\n      swap2\n      swap1\n      tag_20\n      jump\t// in\n    tag_19:\n      mload(0x40)\n      dup1\n      swap2\n      sub\n      swap1\n      return\n        /* \"Twitter_Dapp.sol\":787:959  function likeTweet(address _author, uint _id) public {... */\n    tag_5:\n      tag_21\n      0x04\n      dup1\n      calldatasize\n      sub\n      dup2\n      add\n      swap1\n      tag_22\n      swap2\n      swap1\n      tag_11\n      jump\t// in\n    tag_22:\n      tag_23\n      jump\t// in\n    tag_21:\n      stop\n        /* \"Twitter_Dapp.sol\":86:122  uint16 public MAX_TWEET_LENGTH = 280 */\n    tag_6:\n      tag_24\n      tag_25\n      jump\t// in\n    tag_24:\n      mload(0x40)\n      tag_26\n      swap2\n      swap1\n      tag_27\n      jump\t// in\n    tag_26:\n      mload(0x40)\n      dup1\n      swap2\n      sub\n      swap1\n      return\n        /* \"Twitter_Dapp.sol\":332:779  function createTweet(string memory _tweet) public {... */\n    tag_7:\n      tag_28\n      0x04\n      dup1\n      calldatasize\n      sub\n      dup2\n      add\n      swap1\n      tag_29\n      swap2\n      swap1\n      tag_30\n      jump\t// in\n    tag_29:\n      tag_31\n      jump\t// in\n    tag_28:\n      stop\n        /* \"Twitter_Dapp.sol\":967:1214  function dislikeTweet(address _author, uint _id) public {... */\n    tag_8:\n      tag_32\n      0x04\n      dup1\n      calldatasize\n      sub\n      dup2\n      add\n      swap1\n      tag_33\n      swap2\n      swap1\n      tag_11\n      jump\t// in\n    tag_33:\n      tag_34\n      jump\t// in\n    tag_32:\n      stop\n        /* \"Twitter_Dapp.sol\":280:321  mapping(address => Tweet[]) public tweets */\n    tag_12:\n      mstore(0x20, 0x01)\n      dup2\n      0x00\n      mstore\n      keccak256(0x00, 0x40)\n      dup2\n      dup2\n      sload\n      dup2\n      lt\n      tag_35\n      jumpi\n      0x00\n      dup1\n      revert\n    tag_35:\n      swap1\n      0x00\n      mstore\n      keccak256(0x00, 0x20)\n      swap1\n      0x05\n      mul\n      add\n      0x00\n      swap2\n      pop\n      swap2\n      pop\n      pop\n      dup1\n      0x00\n      add\n      sload\n      swap1\n      dup1\n      0x01\n      add\n      0x00\n      swap1\n      sload\n      swap1\n      0x0100\n      exp\n      swap1\n      div\n      0xffffffffffffffffffffffffffffffffffffffff\n      and\n      swap1\n      dup1\n      0x02\n      add\n      dup1\n      sload\n      tag_37\n      swap1\n      tag_38\n      jump\t// in\n    tag_37:\n      dup1\n      0x1f\n      add\n      0x20\n      dup1\n      swap2\n      div\n      mul\n      0x20\n      add\n      mload(0x40)\n      swap1\n      dup2\n      add\n      0x40\n      mstore\n      dup1\n      swap3\n      swap2\n      swap1\n      dup2\n      dup2\n      mstore\n      0x20\n      add\n      dup3\n      dup1\n      sload\n      tag_39\n      swap1\n      tag_38\n      jump\t// in\n    tag_39:\n      dup1\n      iszero\n      tag_40\n      jumpi\n      dup1\n      0x1f\n      lt\n      tag_41\n      jumpi\n      0x0100\n      dup1\n      dup4\n      sload\n      div\n      mul\n      dup4\n      mstore\n      swap2\n      0x20\n      add\n      swap2\n      jump(tag_40)\n    tag_41:\n      dup3\n      add\n      swap2\n      swap1\n      0x00\n      mstore\n      keccak256(0x00, 0x20)\n      swap1\n    tag_42:\n      dup2\n      sload\n      dup2\n      mstore\n      swap1\n      0x01\n      add\n      swap1\n      0x20\n      add\n      dup1\n      dup4\n      gt\n      tag_42\n      jumpi\n      dup3\n      swap1\n      sub\n      0x1f\n      and\n      dup3\n      add\n      swap2\n    tag_40:\n      pop\n      pop\n      pop\n      pop\n      pop\n      swap1\n      dup1\n      0x03\n      add\n      sload\n      swap1\n      dup1\n      0x04\n      add\n      sload\n      swap1\n      pop\n      dup6\n      jump\t// out\n        /* \"Twitter_Dapp.sol\":1222:1369  function getAllTweets(address _owner)... */\n    tag_18:\n        /* \"Twitter_Dapp.sol\":1308:1322  Tweet[] memory */\n      0x60\n        /* \"Twitter_Dapp.sol\":1347:1353  tweets */\n      0x01\n        /* \"Twitter_Dapp.sol\":1347:1361  tweets[_owner] */\n      0x00\n        /* \"Twitter_Dapp.sol\":1354:1360  _owner */\n      dup4\n        /* \"Twitter_Dapp.sol\":1347:1361  tweets[_owner] */\n      0xffffffffffffffffffffffffffffffffffffffff\n      and\n      0xffffffffffffffffffffffffffffffffffffffff\n      and\n      dup2\n      mstore\n      0x20\n      add\n      swap1\n      dup2\n      mstore\n      0x20\n      add\n      0x00\n      keccak256\n        /* \"Twitter_Dapp.sol\":1340:1361  return tweets[_owner] */\n      dup1\n      sload\n      dup1\n      0x20\n      mul\n      0x20\n      add\n      mload(0x40)\n      swap1\n      dup2\n      add\n      0x40\n      mstore\n      dup1\n      swap3\n      swap2\n      swap1\n      dup2\n      dup2\n      mstore\n      0x20\n      add\n      0x00\n      swap1\n    tag_44:\n      dup3\n      dup3\n      lt\n      iszero\n      tag_45\n      jumpi\n      dup4\n      dup3\n      swap1\n      0x00\n      mstore\n      keccak256(0x00, 0x20)\n      swap1\n      0x05\n      mul\n      add\n      mload(0x40)\n      dup1\n      0xa0\n      add\n      0x40\n      mstore\n      swap1\n      dup2\n      0x00\n      dup3\n      add\n      sload\n      dup2\n      mstore\n      0x20\n      add\n      0x01\n      dup3\n      add\n      0x00\n      swap1\n      sload\n      swap1\n      0x0100\n      exp\n      swap1\n      div\n      0xffffffffffffffffffffffffffffffffffffffff\n      and\n      0xffffffffffffffffffffffffffffffffffffffff\n      and\n      0xffffffffffffffffffffffffffffffffffffffff\n      and\n      dup2\n      mstore\n      0x20\n      add\n      0x02\n      dup3\n      add\n      dup1\n      sload\n      tag_47\n      swap1\n      tag_38\n      jump\t// in\n    tag_47:\n      dup1\n      0x1f\n      add\n      0x20\n      dup1\n      swap2\n      div\n      mul\n      0x20\n      add\n      mload(0x40)\n      swap1\n      dup2\n      add\n      0x40\n      mstore\n      dup1\n      swap3\n      swap2\n      swap1\n      dup2\n      dup2\n      mstore\n      0x20\n      add\n      dup3\n      dup1\n      sload\n      tag_48\n      swap1\n      tag_38\n      jump\t// in\n    tag_48:\n      dup1\n      iszero\n      tag_49\n      jumpi\n      dup1\n      0x1f\n      lt\n      tag_50\n      jumpi\n      0x0100\n      dup1\n      dup4\n      sload\n      div\n      mul\n      dup4\n      mstore\n      swap2\n      0x20\n      add\n      swap2\n      jump(tag_49)\n    tag_50:\n      dup3\n      add\n      swap2\n      swap1\n      0x00\n      mstore\n      keccak256(0x00, 0x20)\n      swap1\n    tag_51:\n      dup2\n      sload\n      dup2\n      mstore\n      swap1\n      0x01\n      add\n      swap1\n      0x20\n      add\n      dup1\n      dup4\n      gt\n      tag_51\n      jumpi\n      dup3\n      swap1\n      sub\n      0x1f\n      and\n      dup3\n      add\n      swap2\n    tag_49:\n      pop\n      pop\n      pop\n      pop\n      pop\n      dup2\n      mstore\n      0x20\n      add\n      0x03\n      dup3\n      add\n      sload\n      dup2\n      mstore\n      0x20\n      add\n      0x04\n      dup3\n      add\n      sload\n      dup2\n      mstore\n      pop\n      pop\n      dup2\n      mstore\n      0x20\n      add\n      swap1\n      0x01\n      add\n      swap1\n      jump(tag_44)\n    tag_45:\n      pop\n      pop\n      pop\n      pop\n      swap1\n      pop\n        /* \"Twitter_Dapp.sol\":1222:1369  function getAllTweets(address _owner)... */\n      swap2\n      swap1\n      pop\n      jump\t// out\n        /* \"Twitter_Dapp.sol\":787:959  function likeTweet(address _author, uint _id) public {... */\n    tag_23:\n        /* \"Twitter_Dapp.sol\":865:871  tweets */\n      0x01\n        /* \"Twitter_Dapp.sol\":865:880  tweets[_author] */\n      0x00\n        /* \"Twitter_Dapp.sol\":872:879  _author */\n      dup4\n        /* \"Twitter_Dapp.sol\":865:880  tweets[_author] */\n      0xffffffffffffffffffffffffffffffffffffffff\n      and\n      0xffffffffffffffffffffffffffffffffffffffff\n      and\n      dup2\n      mstore\n      0x20\n      add\n      swap1\n      dup2\n      mstore\n      0x20\n      add\n      0x00\n      keccak256\n        /* \"Twitter_Dapp.sol\":865:887  tweets[_author].length */\n      dup1\n      sload\n      swap1\n      pop\n        /* \"Twitter_Dapp.sol\":859:862  _id */\n      dup2\n        /* \"Twitter_Dapp.sol\":859:887  _id < tweets[_author].length */\n      lt\n        /* \"Twitter_Dapp.sol\":851:912  require(_id < tweets[_author].length, \"Tweet does not exist\") */\n      tag_53\n      jumpi\n      mload(0x40)\n      0x08c379a000000000000000000000000000000000000000000000000000000000\n      dup2\n      mstore\n      0x04\n      add\n      tag_54\n      swap1\n      tag_55\n      jump\t// in\n    tag_54:\n      mload(0x40)\n      dup1\n      swap2\n      sub\n      swap1\n      revert\n    tag_53:\n        /* \"Twitter_Dapp.sol\":923:929  tweets */\n      0x01\n        /* \"Twitter_Dapp.sol\":923:938  tweets[_author] */\n      0x00\n        /* \"Twitter_Dapp.sol\":930:937  _author */\n      dup4\n        /* \"Twitter_Dapp.sol\":923:938  tweets[_author] */\n      0xffffffffffffffffffffffffffffffffffffffff\n      and\n      0xffffffffffffffffffffffffffffffffffffffff\n      and\n      dup2\n      mstore\n      0x20\n      add\n      swap1\n      dup2\n      mstore\n      0x20\n      add\n      0x00\n      keccak256\n        /* \"Twitter_Dapp.sol\":939:942  _id */\n      dup2\n        /* \"Twitter_Dapp.sol\":923:943  tweets[_author][_id] */\n      dup2\n      sload\n      dup2\n      lt\n      tag_56\n      jumpi\n      tag_57\n      tag_58\n      jump\t// in\n    tag_57:\n    tag_56:\n      swap1\n      0x00\n      mstore\n      keccak256(0x00, 0x20)\n      swap1\n      0x05\n      mul\n      add\n        /* \"Twitter_Dapp.sol\":923:949  tweets[_author][_id].likes */\n      0x04\n      add\n      0x00\n        /* \"Twitter_Dapp.sol\":923:951  tweets[_author][_id].likes++ */\n      dup2\n      sload\n      dup1\n      swap3\n      swap2\n      swap1\n      tag_60\n      swap1\n      tag_61\n      jump\t// in\n    tag_60:\n      swap2\n      swap1\n      pop\n      sstore\n      pop\n        /* \"Twitter_Dapp.sol\":787:959  function likeTweet(address _author, uint _id) public {... */\n      pop\n      pop\n      jump\t// out\n        /* \"Twitter_Dapp.sol\":86:122  uint16 public MAX_TWEET_LENGTH = 280 */\n    tag_25:\n      0x00\n      dup1\n      sload\n      swap1\n      0x0100\n      exp\n      swap1\n      div\n      0xffff\n      and\n      dup2\n      jump\t// out\n        /* \"Twitter_Dapp.sol\":332:779  function createTweet(string memory _tweet) public {... */\n    tag_31:\n        /* \"Twitter_Dapp.sol\":425:441  MAX_TWEET_LENGTH */\n      0x00\n      dup1\n      sload\n      swap1\n      0x0100\n      exp\n      swap1\n      div\n      0xffff\n      and\n        /* \"Twitter_Dapp.sol\":401:441  bytes(_tweet).length <= MAX_TWEET_LENGTH */\n      0xffff\n      and\n        /* \"Twitter_Dapp.sol\":407:413  _tweet */\n      dup2\n        /* \"Twitter_Dapp.sol\":401:421  bytes(_tweet).length */\n      mload\n        /* \"Twitter_Dapp.sol\":401:441  bytes(_tweet).length <= MAX_TWEET_LENGTH */\n      gt\n      iszero\n        /* \"Twitter_Dapp.sol\":393:461  require(bytes(_tweet).length <= MAX_TWEET_LENGTH, \"Tweet too long!\") */\n      tag_63\n      jumpi\n      mload(0x40)\n      0x08c379a000000000000000000000000000000000000000000000000000000000\n      dup2\n      mstore\n      0x04\n      add\n      tag_64\n      swap1\n      tag_65\n      jump\t// in\n    tag_64:\n      mload(0x40)\n      dup1\n      swap2\n      sub\n      swap1\n      revert\n    tag_63:\n        /* \"Twitter_Dapp.sol\":474:486  uint tweetId */\n      0x00\n        /* \"Twitter_Dapp.sol\":489:495  tweets */\n      0x01\n        /* \"Twitter_Dapp.sol\":489:507  tweets[msg.sender] */\n      0x00\n        /* \"Twitter_Dapp.sol\":496:506  msg.sender */\n      caller\n        /* \"Twitter_Dapp.sol\":489:507  tweets[msg.sender] */\n      0xffffffffffffffffffffffffffffffffffffffff\n      and\n      0xffffffffffffffffffffffffffffffffffffffff\n      and\n      dup2\n      mstore\n      0x20\n      add\n      swap1\n      dup2\n      mstore\n      0x20\n      add\n      0x00\n      keccak256\n        /* \"Twitter_Dapp.sol\":489:514  tweets[msg.sender].length */\n      dup1\n      sload\n      swap1\n      pop\n        /* \"Twitter_Dapp.sol\":474:514  uint tweetId = tweets[msg.sender].length */\n      swap1\n      pop\n        /* \"Twitter_Dapp.sol\":527:533  tweets */\n      0x01\n        /* \"Twitter_Dapp.sol\":527:545  tweets[msg.sender] */\n      0x00\n        /* \"Twitter_Dapp.sol\":534:544  msg.sender */\n      caller\n        /* \"Twitter_Dapp.sol\":527:545  tweets[msg.sender] */\n      0xffffffffffffffffffffffffffffffffffffffff\n      and\n      0xffffffffffffffffffffffffffffffffffffffff\n      and\n      dup2\n      mstore\n      0x20\n      add\n      swap1\n      dup2\n      mstore\n      0x20\n      add\n      0x00\n      keccak256\n        /* \"Twitter_Dapp.sol\":565:760  Tweet({... */\n      mload(0x40)\n      dup1\n      0xa0\n      add\n      0x40\n      mstore\n      dup1\n        /* \"Twitter_Dapp.sol\":594:601  tweetId */\n      dup4\n        /* \"Twitter_Dapp.sol\":565:760  Tweet({... */\n      dup2\n      mstore\n      0x20\n      add\n        /* \"Twitter_Dapp.sol\":628:638  msg.sender */\n      caller\n        /* \"Twitter_Dapp.sol\":565:760  Tweet({... */\n      0xffffffffffffffffffffffffffffffffffffffff\n      and\n      dup2\n      mstore\n      0x20\n      add\n        /* \"Twitter_Dapp.sol\":666:672  _tweet */\n      dup5\n        /* \"Twitter_Dapp.sol\":565:760  Tweet({... */\n      dup2\n      mstore\n      0x20\n      add\n        /* \"Twitter_Dapp.sol\":702:717  block.timestamp */\n      timestamp\n        /* \"Twitter_Dapp.sol\":565:760  Tweet({... */\n      dup2\n      mstore\n      0x20\n      add\n        /* \"Twitter_Dapp.sol\":743:744  0 */\n      0x00\n        /* \"Twitter_Dapp.sol\":565:760  Tweet({... */\n      dup2\n      mstore\n      pop\n        /* \"Twitter_Dapp.sol\":527:771  tweets[msg.sender].push(... */\n      swap1\n      dup1\n      0x01\n      dup2\n      sload\n      add\n      dup1\n      dup3\n      sstore\n      dup1\n      swap2\n      pop\n      pop\n      0x01\n      swap1\n      sub\n      swap1\n      0x00\n      mstore\n      keccak256(0x00, 0x20)\n      swap1\n      0x05\n      mul\n      add\n      0x00\n      swap1\n      swap2\n      swap1\n      swap2\n      swap1\n      swap2\n      pop\n      0x00\n      dup3\n      add\n      mload\n      dup2\n      0x00\n      add\n      sstore\n      0x20\n      dup3\n      add\n      mload\n      dup2\n      0x01\n      add\n      exp(0x0100, 0x00)\n      dup2\n      sload\n      dup2\n      0xffffffffffffffffffffffffffffffffffffffff\n      mul\n      not\n      and\n      swap1\n      dup4\n      0xffffffffffffffffffffffffffffffffffffffff\n      and\n      mul\n      or\n      swap1\n      sstore\n      pop\n      0x40\n      dup3\n      add\n      mload\n      dup2\n      0x02\n      add\n      swap1\n      dup2\n      tag_67\n      swap2\n      swap1\n      tag_68\n      jump\t// in\n    tag_67:\n      pop\n      0x60\n      dup3\n      add\n      mload\n      dup2\n      0x03\n      add\n      sstore\n      0x80\n      dup3\n      add\n      mload\n      dup2\n      0x04\n      add\n      sstore\n      pop\n      pop\n        /* \"Twitter_Dapp.sol\":382:779  {... */\n      pop\n        /* \"Twitter_Dapp.sol\":332:779  function createTweet(string memory _tweet) public {... */\n      pop\n      jump\t// out\n        /* \"Twitter_Dapp.sol\":967:1214  function dislikeTweet(address _author, uint _id) public {... */\n    tag_34:\n        /* \"Twitter_Dapp.sol\":1048:1054  tweets */\n      0x01\n        /* \"Twitter_Dapp.sol\":1048:1063  tweets[_author] */\n      0x00\n        /* \"Twitter_Dapp.sol\":1055:1062  _author */\n      dup4\n        /* \"Twitter_Dapp.sol\":1048:1063  tweets[_author] */\n      0xffffffffffffffffffffffffffffffffffffffff\n      and\n      0xffffffffffffffffffffffffffffffffffffffff\n      and\n      dup2\n      mstore\n      0x20\n      add\n      swap1\n      dup2\n      mstore\n      0x20\n      add\n      0x00\n      keccak256\n        /* \"Twitter_Dapp.sol\":1048:1070  tweets[_author].length */\n      dup1\n      sload\n      swap1\n      pop\n        /* \"Twitter_Dapp.sol\":1042:1045  _id */\n      dup2\n        /* \"Twitter_Dapp.sol\":1042:1070  _id < tweets[_author].length */\n      lt\n        /* \"Twitter_Dapp.sol\":1034:1095  require(_id < tweets[_author].length, \"Tweet does not exist\") */\n      tag_70\n      jumpi\n      mload(0x40)\n      0x08c379a000000000000000000000000000000000000000000000000000000000\n      dup2\n      mstore\n      0x04\n      add\n      tag_71\n      swap1\n      tag_55\n      jump\t// in\n    tag_71:\n      mload(0x40)\n      dup1\n      swap2\n      sub\n      swap1\n      revert\n    tag_70:\n        /* \"Twitter_Dapp.sol\":1143:1144  0 */\n      0x00\n        /* \"Twitter_Dapp.sol\":1114:1120  tweets */\n      0x01\n        /* \"Twitter_Dapp.sol\":1114:1129  tweets[_author] */\n      0x00\n        /* \"Twitter_Dapp.sol\":1121:1128  _author */\n      dup5\n        /* \"Twitter_Dapp.sol\":1114:1129  tweets[_author] */\n      0xffffffffffffffffffffffffffffffffffffffff\n      and\n      0xffffffffffffffffffffffffffffffffffffffff\n      and\n      dup2\n      mstore\n      0x20\n      add\n      swap1\n      dup2\n      mstore\n      0x20\n      add\n      0x00\n      keccak256\n        /* \"Twitter_Dapp.sol\":1130:1133  _id */\n      dup3\n        /* \"Twitter_Dapp.sol\":1114:1134  tweets[_author][_id] */\n      dup2\n      sload\n      dup2\n      lt\n      tag_72\n      jumpi\n      tag_73\n      tag_58\n      jump\t// in\n    tag_73:\n    tag_72:\n      swap1\n      0x00\n      mstore\n      keccak256(0x00, 0x20)\n      swap1\n      0x05\n      mul\n      add\n        /* \"Twitter_Dapp.sol\":1114:1140  tweets[_author][_id].likes */\n      0x04\n      add\n      sload\n        /* \"Twitter_Dapp.sol\":1114:1144  tweets[_author][_id].likes > 0 */\n      gt\n        /* \"Twitter_Dapp.sol\":1106:1167  require(tweets[_author][_id].likes > 0, \"No likes to remove\") */\n      tag_75\n      jumpi\n      mload(0x40)\n      0x08c379a000000000000000000000000000000000000000000000000000000000\n      dup2\n      mstore\n      0x04\n      add\n      tag_76\n      swap1\n      tag_77\n      jump\t// in\n    tag_76:\n      mload(0x40)\n      dup1\n      swap2\n      sub\n      swap1\n      revert\n    tag_75:\n        /* \"Twitter_Dapp.sol\":1178:1184  tweets */\n      0x01\n        /* \"Twitter_Dapp.sol\":1178:1193  tweets[_author] */\n      0x00\n        /* \"Twitter_Dapp.sol\":1185:1192  _author */\n      dup4\n        /* \"Twitter_Dapp.sol\":1178:1193  tweets[_author] */\n      0xffffffffffffffffffffffffffffffffffffffff\n      and\n      0xffffffffffffffffffffffffffffffffffffffff\n      and\n      dup2\n      mstore\n      0x20\n      add\n      swap1\n      dup2\n      mstore\n      0x20\n      add\n      0x00\n      keccak256\n        /* \"Twitter_Dapp.sol\":1194:1197  _id */\n      dup2\n        /* \"Twitter_Dapp.sol\":1178:1198  tweets[_author][_id] */\n      dup2\n      sload\n      dup2\n      lt\n      tag_78\n      jumpi\n      tag_79\n      tag_58\n      jump\t// in\n    tag_79:\n    tag_78:\n      swap1\n      0x00\n      mstore\n      keccak256(0x00, 0x20)\n      swap1\n      0x05\n      mul\n      add\n        /* \"Twitter_Dapp.sol\":1178:1204  tweets[_author][_id].likes */\n      0x04\n      add\n      0x00\n        /* \"Twitter_Dapp.sol\":1178:1206  tweets[_author][_id].likes-- */\n      dup2\n      sload\n      dup1\n      swap3\n      swap2\n      swap1\n      tag_81\n      swap1\n      tag_82\n      jump\t// in\n    tag_81:\n      swap2\n      swap1\n      pop\n      sstore\n      pop\n        /* \"Twitter_Dapp.sol\":967:1214  function dislikeTweet(address _author, uint _id) public {... */\n      pop\n      pop\n      jump\t// out\n        /* \"#utility.yul\":7:82   */\n    tag_83:\n        /* \"#utility.yul\":40:46   */\n      0x00\n        /* \"#utility.yul\":73:75   */\n      0x40\n        /* \"#utility.yul\":67:76   */\n      mload\n        /* \"#utility.yul\":57:76   */\n      swap1\n      pop\n        /* \"#utility.yul\":7:82   */\n      swap1\n      jump\t// out\n        /* \"#utility.yul\":88:205   */\n    tag_84:\n        /* \"#utility.yul\":197:198   */\n      0x00\n        /* \"#utility.yul\":194:195   */\n      dup1\n        /* \"#utility.yul\":187:199   */\n      revert\n        /* \"#utility.yul\":211:328   */\n    tag_85:\n        /* \"#utility.yul\":320:321   */\n      0x00\n        /* \"#utility.yul\":317:318   */\n      dup1\n        /* \"#utility.yul\":310:322   */\n      revert\n        /* \"#utility.yul\":334:460   */\n    tag_86:\n        /* \"#utility.yul\":371:378   */\n      0x00\n        /* \"#utility.yul\":411:453   */\n      0xffffffffffffffffffffffffffffffffffffffff\n        /* \"#utility.yul\":404:409   */\n      dup3\n        /* \"#utility.yul\":400:454   */\n      and\n        /* \"#utility.yul\":389:454   */\n      swap1\n      pop\n        /* \"#utility.yul\":334:460   */\n      swap2\n      swap1\n      pop\n      jump\t// out\n        /* \"#utility.yul\":466:562   */\n    tag_87:\n        /* \"#utility.yul\":503:510   */\n      0x00\n        /* \"#utility.yul\":532:556   */\n      tag_151\n        /* \"#utility.yul\":550:555   */\n      dup3\n        /* \"#utility.yul\":532:556   */\n      tag_86\n      jump\t// in\n    tag_151:\n        /* \"#utility.yul\":521:556   */\n      swap1\n      pop\n        /* \"#utility.yul\":466:562   */\n      swap2\n      swap1\n      pop\n      jump\t// out\n        /* \"#utility.yul\":568:690   */\n    tag_88:\n        /* \"#utility.yul\":641:665   */\n      tag_153\n        /* \"#utility.yul\":659:664   */\n      dup2\n        /* \"#utility.yul\":641:665   */\n      tag_87\n      jump\t// in\n    tag_153:\n        /* \"#utility.yul\":634:639   */\n      dup2\n        /* \"#utility.yul\":631:666   */\n      eq\n        /* \"#utility.yul\":621:684   */\n      tag_154\n      jumpi\n        /* \"#utility.yul\":680:681   */\n      0x00\n        /* \"#utility.yul\":677:678   */\n      dup1\n        /* \"#utility.yul\":670:682   */\n      revert\n        /* \"#utility.yul\":621:684   */\n    tag_154:\n        /* \"#utility.yul\":568:690   */\n      pop\n      jump\t// out\n        /* \"#utility.yul\":696:835   */\n    tag_89:\n        /* \"#utility.yul\":742:747   */\n      0x00\n        /* \"#utility.yul\":780:786   */\n      dup2\n        /* \"#utility.yul\":767:787   */\n      calldataload\n        /* \"#utility.yul\":758:787   */\n      swap1\n      pop\n        /* \"#utility.yul\":796:829   */\n      tag_156\n        /* \"#utility.yul\":823:828   */\n      dup2\n        /* \"#utility.yul\":796:829   */\n      tag_88\n      jump\t// in\n    tag_156:\n        /* \"#utility.yul\":696:835   */\n      swap3\n      swap2\n      pop\n      pop\n      jump\t// out\n        /* \"#utility.yul\":841:918   */\n    tag_90:\n        /* \"#utility.yul\":878:885   */\n      0x00\n        /* \"#utility.yul\":907:912   */\n      dup2\n        /* \"#utility.yul\":896:912   */\n      swap1\n      pop\n        /* \"#utility.yul\":841:918   */\n      swap2\n      swap1\n      pop\n      jump\t// out\n        /* \"#utility.yul\":924:1046   */\n    tag_91:\n        /* \"#utility.yul\":997:1021   */\n      tag_159\n        /* \"#utility.yul\":1015:1020   */\n      dup2\n        /* \"#utility.yul\":997:1021   */\n      tag_90\n      jump\t// in\n    tag_159:\n        /* \"#utility.yul\":990:995   */\n      dup2\n        /* \"#utility.yul\":987:1022   */\n      eq\n        /* \"#utility.yul\":977:1040   */\n      tag_160\n      jumpi\n        /* \"#utility.yul\":1036:1037   */\n      0x00\n        /* \"#utility.yul\":1033:1034   */\n      dup1\n        /* \"#utility.yul\":1026:1038   */\n      revert\n        /* \"#utility.yul\":977:1040   */\n    tag_160:\n        /* \"#utility.yul\":924:1046   */\n      pop\n      jump\t// out\n        /* \"#utility.yul\":1052:1191   */\n    tag_92:\n        /* \"#utility.yul\":1098:1103   */\n      0x00\n        /* \"#utility.yul\":1136:1142   */\n      dup2\n        /* \"#utility.yul\":1123:1143   */\n      calldataload\n        /* \"#utility.yul\":1114:1143   */\n      swap1\n      pop\n        /* \"#utility.yul\":1152:1185   */\n      tag_162\n        /* \"#utility.yul\":1179:1184   */\n      dup2\n        /* \"#utility.yul\":1152:1185   */\n      tag_91\n      jump\t// in\n    tag_162:\n        /* \"#utility.yul\":1052:1191   */\n      swap3\n      swap2\n      pop\n      pop\n      jump\t// out\n        /* \"#utility.yul\":1197:1671   */\n    tag_11:\n        /* \"#utility.yul\":1265:1271   */\n      0x00\n        /* \"#utility.yul\":1273:1279   */\n      dup1\n        /* \"#utility.yul\":1322:1324   */\n      0x40\n        /* \"#utility.yul\":1310:1319   */\n      dup4\n        /* \"#utility.yul\":1301:1308   */\n      dup6\n        /* \"#utility.yul\":1297:1320   */\n      sub\n        /* \"#utility.yul\":1293:1325   */\n      slt\n        /* \"#utility.yul\":1290:1409   */\n      iszero\n      tag_164\n      jumpi\n        /* \"#utility.yul\":1328:1407   */\n      tag_165\n      tag_84\n      jump\t// in\n    tag_165:\n        /* \"#utility.yul\":1290:1409   */\n    tag_164:\n        /* \"#utility.yul\":1448:1449   */\n      0x00\n        /* \"#utility.yul\":1473:1526   */\n      tag_166\n        /* \"#utility.yul\":1518:1525   */\n      dup6\n        /* \"#utility.yul\":1509:1515   */\n      dup3\n        /* \"#utility.yul\":1498:1507   */\n      dup7\n        /* \"#utility.yul\":1494:1516   */\n      add\n        /* \"#utility.yul\":1473:1526   */\n      tag_89\n      jump\t// in\n    tag_166:\n        /* \"#utility.yul\":1463:1526   */\n      swap3\n      pop\n        /* \"#utility.yul\":1419:1536   */\n      pop\n        /* \"#utility.yul\":1575:1577   */\n      0x20\n        /* \"#utility.yul\":1601:1654   */\n      tag_167\n        /* \"#utility.yul\":1646:1653   */\n      dup6\n        /* \"#utility.yul\":1637:1643   */\n      dup3\n        /* \"#utility.yul\":1626:1635   */\n      dup7\n        /* \"#utility.yul\":1622:1644   */\n      add\n        /* \"#utility.yul\":1601:1654   */\n      tag_92\n      jump\t// in\n    tag_167:\n        /* \"#utility.yul\":1591:1654   */\n      swap2\n      pop\n        /* \"#utility.yul\":1546:1664   */\n      pop\n        /* \"#utility.yul\":1197:1671   */\n      swap3\n      pop\n      swap3\n      swap1\n      pop\n      jump\t// out\n        /* \"#utility.yul\":1677:1795   */\n    tag_93:\n        /* \"#utility.yul\":1764:1788   */\n      tag_169\n        /* \"#utility.yul\":1782:1787   */\n      dup2\n        /* \"#utility.yul\":1764:1788   */\n      tag_90\n      jump\t// in\n    tag_169:\n        /* \"#utility.yul\":1759:1762   */\n      dup3\n        /* \"#utility.yul\":1752:1789   */\n      mstore\n        /* \"#utility.yul\":1677:1795   */\n      pop\n      pop\n      jump\t// out\n        /* \"#utility.yul\":1801:1919   */\n    tag_94:\n        /* \"#utility.yul\":1888:1912   */\n      tag_171\n        /* \"#utility.yul\":1906:1911   */\n      dup2\n        /* \"#utility.yul\":1888:1912   */\n      tag_87\n      jump\t// in\n    tag_171:\n        /* \"#utility.yul\":1883:1886   */\n      dup3\n        /* \"#utility.yul\":1876:1913   */\n      mstore\n        /* \"#utility.yul\":1801:1919   */\n      pop\n      pop\n      jump\t// out\n        /* \"#utility.yul\":1925:2024   */\n    tag_95:\n        /* \"#utility.yul\":1977:1983   */\n      0x00\n        /* \"#utility.yul\":2011:2016   */\n      dup2\n        /* \"#utility.yul\":2005:2017   */\n      mload\n        /* \"#utility.yul\":1995:2017   */\n      swap1\n      pop\n        /* \"#utility.yul\":1925:2024   */\n      swap2\n      swap1\n      pop\n      jump\t// out\n        /* \"#utility.yul\":2030:2199   */\n    tag_96:\n        /* \"#utility.yul\":2114:2125   */\n      0x00\n        /* \"#utility.yul\":2148:2154   */\n      dup3\n        /* \"#utility.yul\":2143:2146   */\n      dup3\n        /* \"#utility.yul\":2136:2155   */\n      mstore\n        /* \"#utility.yul\":2188:2192   */\n      0x20\n        /* \"#utility.yul\":2183:2186   */\n      dup3\n        /* \"#utility.yul\":2179:2193   */\n      add\n        /* \"#utility.yul\":2164:2193   */\n      swap1\n      pop\n        /* \"#utility.yul\":2030:2199   */\n      swap3\n      swap2\n      pop\n      pop\n      jump\t// out\n        /* \"#utility.yul\":2205:2451   */\n    tag_97:\n        /* \"#utility.yul\":2286:2287   */\n      0x00\n        /* \"#utility.yul\":2296:2409   */\n    tag_175:\n        /* \"#utility.yul\":2310:2316   */\n      dup4\n        /* \"#utility.yul\":2307:2308   */\n      dup2\n        /* \"#utility.yul\":2304:2317   */\n      lt\n        /* \"#utility.yul\":2296:2409   */\n      iszero\n      tag_177\n      jumpi\n        /* \"#utility.yul\":2395:2396   */\n      dup1\n        /* \"#utility.yul\":2390:2393   */\n      dup3\n        /* \"#utility.yul\":2386:2397   */\n      add\n        /* \"#utility.yul\":2380:2398   */\n      mload\n        /* \"#utility.yul\":2376:2377   */\n      dup2\n        /* \"#utility.yul\":2371:2374   */\n      dup5\n        /* \"#utility.yul\":2367:2378   */\n      add\n        /* \"#utility.yul\":2360:2399   */\n      mstore\n        /* \"#utility.yul\":2332:2334   */\n      0x20\n        /* \"#utility.yul\":2329:2330   */\n      dup2\n        /* \"#utility.yul\":2325:2335   */\n      add\n        /* \"#utility.yul\":2320:2335   */\n      swap1\n      pop\n        /* \"#utility.yul\":2296:2409   */\n      jump(tag_175)\n    tag_177:\n        /* \"#utility.yul\":2443:2444   */\n      0x00\n        /* \"#utility.yul\":2434:2440   */\n      dup5\n        /* \"#utility.yul\":2429:2432   */\n      dup5\n        /* \"#utility.yul\":2425:2441   */\n      add\n        /* \"#utility.yul\":2418:2445   */\n      mstore\n        /* \"#utility.yul\":2267:2451   */\n      pop\n        /* \"#utility.yul\":2205:2451   */\n      pop\n      pop\n      pop\n      jump\t// out\n        /* \"#utility.yul\":2457:2559   */\n    tag_98:\n        /* \"#utility.yul\":2498:2504   */\n      0x00\n        /* \"#utility.yul\":2549:2551   */\n      0x1f\n        /* \"#utility.yul\":2545:2552   */\n      not\n        /* \"#utility.yul\":2540:2542   */\n      0x1f\n        /* \"#utility.yul\":2533:2538   */\n      dup4\n        /* \"#utility.yul\":2529:2543   */\n      add\n        /* \"#utility.yul\":2525:2553   */\n      and\n        /* \"#utility.yul\":2515:2553   */\n      swap1\n      pop\n        /* \"#utility.yul\":2457:2559   */\n      swap2\n      swap1\n      pop\n      jump\t// out\n        /* \"#utility.yul\":2565:2942   */\n    tag_99:\n        /* \"#utility.yul\":2653:2656   */\n      0x00\n        /* \"#utility.yul\":2681:2720   */\n      tag_180\n        /* \"#utility.yul\":2714:2719   */\n      dup3\n        /* \"#utility.yul\":2681:2720   */\n      tag_95\n      jump\t// in\n    tag_180:\n        /* \"#utility.yul\":2736:2807   */\n      tag_181\n        /* \"#utility.yul\":2800:2806   */\n      dup2\n        /* \"#utility.yul\":2795:2798   */\n      dup6\n        /* \"#utility.yul\":2736:2807   */\n      tag_96\n      jump\t// in\n    tag_181:\n        /* \"#utility.yul\":2729:2807   */\n      swap4\n      pop\n        /* \"#utility.yul\":2816:2881   */\n      tag_182\n        /* \"#utility.yul\":2874:2880   */\n      dup2\n        /* \"#utility.yul\":2869:2872   */\n      dup6\n        /* \"#utility.yul\":2862:2866   */\n      0x20\n        /* \"#utility.yul\":2855:2860   */\n      dup7\n        /* \"#utility.yul\":2851:2867   */\n      add\n        /* \"#utility.yul\":2816:2881   */\n      tag_97\n      jump\t// in\n    tag_182:\n        /* \"#utility.yul\":2906:2935   */\n      tag_183\n        /* \"#utility.yul\":2928:2934   */\n      dup2\n        /* \"#utility.yul\":2906:2935   */\n      tag_98\n      jump\t// in\n    tag_183:\n        /* \"#utility.yul\":2901:2904   */\n      dup5\n        /* \"#utility.yul\":2897:2936   */\n      add\n        /* \"#utility.yul\":2890:2936   */\n      swap2\n      pop\n        /* \"#utility.yul\":2657:2942   */\n      pop\n        /* \"#utility.yul\":2565:2942   */\n      swap3\n      swap2\n      pop\n      pop\n      jump\t// out\n        /* \"#utility.yul\":2948:3703   */\n    tag_14:\n        /* \"#utility.yul\":3173:3177   */\n      0x00\n        /* \"#utility.yul\":3211:3214   */\n      0xa0\n        /* \"#utility.yul\":3200:3209   */\n      dup3\n        /* \"#utility.yul\":3196:3215   */\n      add\n        /* \"#utility.yul\":3188:3215   */\n      swap1\n      pop\n        /* \"#utility.yul\":3225:3296   */\n      tag_185\n        /* \"#utility.yul\":3293:3294   */\n      0x00\n        /* \"#utility.yul\":3282:3291   */\n      dup4\n        /* \"#utility.yul\":3278:3295   */\n      add\n        /* \"#utility.yul\":3269:3275   */\n      dup9\n        /* \"#utility.yul\":3225:3296   */\n      tag_93\n      jump\t// in\n    tag_185:\n        /* \"#utility.yul\":3306:3378   */\n      tag_186\n        /* \"#utility.yul\":3374:3376   */\n      0x20\n        /* \"#utility.yul\":3363:3372   */\n      dup4\n        /* \"#utility.yul\":3359:3377   */\n      add\n        /* \"#utility.yul\":3350:3356   */\n      dup8\n        /* \"#utility.yul\":3306:3378   */\n      tag_94\n      jump\t// in\n    tag_186:\n        /* \"#utility.yul\":3425:3434   */\n      dup2\n        /* \"#utility.yul\":3419:3423   */\n      dup2\n        /* \"#utility.yul\":3415:3435   */\n      sub\n        /* \"#utility.yul\":3410:3412   */\n      0x40\n        /* \"#utility.yul\":3399:3408   */\n      dup4\n        /* \"#utility.yul\":3395:3413   */\n      add\n        /* \"#utility.yul\":3388:3436   */\n      mstore\n        /* \"#utility.yul\":3453:3531   */\n      tag_187\n        /* \"#utility.yul\":3526:3530   */\n      dup2\n        /* \"#utility.yul\":3517:3523   */\n      dup7\n        /* \"#utility.yul\":3453:3531   */\n      tag_99\n      jump\t// in\n    tag_187:\n        /* \"#utility.yul\":3445:3531   */\n      swap1\n      pop\n        /* \"#utility.yul\":3541:3613   */\n      tag_188\n        /* \"#utility.yul\":3609:3611   */\n      0x60\n        /* \"#utility.yul\":3598:3607   */\n      dup4\n        /* \"#utility.yul\":3594:3612   */\n      add\n        /* \"#utility.yul\":3585:3591   */\n      dup6\n        /* \"#utility.yul\":3541:3613   */\n      tag_93\n      jump\t// in\n    tag_188:\n        /* \"#utility.yul\":3623:3696   */\n      tag_189\n        /* \"#utility.yul\":3691:3694   */\n      0x80\n        /* \"#utility.yul\":3680:3689   */\n      dup4\n        /* \"#utility.yul\":3676:3695   */\n      add\n        /* \"#utility.yul\":3667:3673   */\n      dup5\n        /* \"#utility.yul\":3623:3696   */\n      tag_93\n      jump\t// in\n    tag_189:\n        /* \"#utility.yul\":2948:3703   */\n      swap7\n      swap6\n      pop\n      pop\n      pop\n      pop\n      pop\n      pop\n      jump\t// out\n        /* \"#utility.yul\":3709:4038   */\n    tag_17:\n        /* \"#utility.yul\":3768:3774   */\n      0x00\n        /* \"#utility.yul\":3817:3819   */\n      0x20\n        /* \"#utility.yul\":3805:3814   */\n      dup3\n        /* \"#utility.yul\":3796:3803   */\n      dup5\n        /* \"#utility.yul\":3792:3815   */\n      sub\n        /* \"#utility.yul\":3788:3820   */\n      slt\n        /* \"#utility.yul\":3785:3904   */\n      iszero\n      tag_191\n      jumpi\n        /* \"#utility.yul\":3823:3902   */\n      tag_192\n      tag_84\n      jump\t// in\n    tag_192:\n        /* \"#utility.yul\":3785:3904   */\n    tag_191:\n        /* \"#utility.yul\":3943:3944   */\n      0x00\n        /* \"#utility.yul\":3968:4021   */\n      tag_193\n        /* \"#utility.yul\":4013:4020   */\n      dup5\n        /* \"#utility.yul\":4004:4010   */\n      dup3\n        /* \"#utility.yul\":3993:4002   */\n      dup6\n        /* \"#utility.yul\":3989:4011   */\n      add\n        /* \"#utility.yul\":3968:4021   */\n      tag_89\n      jump\t// in\n    tag_193:\n        /* \"#utility.yul\":3958:4021   */\n      swap2\n      pop\n        /* \"#utility.yul\":3914:4031   */\n      pop\n        /* \"#utility.yul\":3709:4038   */\n      swap3\n      swap2\n      pop\n      pop\n      jump\t// out\n        /* \"#utility.yul\":4044:4179   */\n    tag_100:\n        /* \"#utility.yul\":4132:4138   */\n      0x00\n        /* \"#utility.yul\":4166:4171   */\n      dup2\n        /* \"#utility.yul\":4160:4172   */\n      mload\n        /* \"#utility.yul\":4150:4172   */\n      swap1\n      pop\n        /* \"#utility.yul\":4044:4179   */\n      swap2\n      swap1\n      pop\n      jump\t// out\n        /* \"#utility.yul\":4185:4390   */\n    tag_101:\n        /* \"#utility.yul\":4305:4316   */\n      0x00\n        /* \"#utility.yul\":4339:4345   */\n      dup3\n        /* \"#utility.yul\":4334:4337   */\n      dup3\n        /* \"#utility.yul\":4327:4346   */\n      mstore\n        /* \"#utility.yul\":4379:4383   */\n      0x20\n        /* \"#utility.yul\":4374:4377   */\n      dup3\n        /* \"#utility.yul\":4370:4384   */\n      add\n        /* \"#utility.yul\":4355:4384   */\n      swap1\n      pop\n        /* \"#utility.yul\":4185:4390   */\n      swap3\n      swap2\n      pop\n      pop\n      jump\t// out\n        /* \"#utility.yul\":4396:4549   */\n    tag_102:\n        /* \"#utility.yul\":4484:4488   */\n      0x00\n        /* \"#utility.yul\":4507:4510   */\n      dup2\n        /* \"#utility.yul\":4499:4510   */\n      swap1\n      pop\n        /* \"#utility.yul\":4537:4541   */\n      0x20\n        /* \"#utility.yul\":4532:4535   */\n      dup3\n        /* \"#utility.yul\":4528:4542   */\n      add\n        /* \"#utility.yul\":4520:4542   */\n      swap1\n      pop\n        /* \"#utility.yul\":4396:4549   */\n      swap2\n      swap1\n      pop\n      jump\t// out\n        /* \"#utility.yul\":4555:4663   */\n    tag_103:\n        /* \"#utility.yul\":4632:4656   */\n      tag_198\n        /* \"#utility.yul\":4650:4655   */\n      dup2\n        /* \"#utility.yul\":4632:4656   */\n      tag_90\n      jump\t// in\n    tag_198:\n        /* \"#utility.yul\":4627:4630   */\n      dup3\n        /* \"#utility.yul\":4620:4657   */\n      mstore\n        /* \"#utility.yul\":4555:4663   */\n      pop\n      pop\n      jump\t// out\n        /* \"#utility.yul\":4669:4777   */\n    tag_104:\n        /* \"#utility.yul\":4746:4770   */\n      tag_200\n        /* \"#utility.yul\":4764:4769   */\n      dup2\n        /* \"#utility.yul\":4746:4770   */\n      tag_87\n      jump\t// in\n    tag_200:\n        /* \"#utility.yul\":4741:4744   */\n      dup3\n        /* \"#utility.yul\":4734:4771   */\n      mstore\n        /* \"#utility.yul\":4669:4777   */\n      pop\n      pop\n      jump\t// out\n        /* \"#utility.yul\":4783:4942   */\n    tag_105:\n        /* \"#utility.yul\":4857:4868   */\n      0x00\n        /* \"#utility.yul\":4891:4897   */\n      dup3\n        /* \"#utility.yul\":4886:4889   */\n      dup3\n        /* \"#utility.yul\":4879:4898   */\n      mstore\n        /* \"#utility.yul\":4931:4935   */\n      0x20\n        /* \"#utility.yul\":4926:4929   */\n      dup3\n        /* \"#utility.yul\":4922:4936   */\n      add\n        /* \"#utility.yul\":4907:4936   */\n      swap1\n      pop\n        /* \"#utility.yul\":4783:4942   */\n      swap3\n      swap2\n      pop\n      pop\n      jump\t// out\n        /* \"#utility.yul\":4948:5305   */\n    tag_106:\n        /* \"#utility.yul\":5026:5029   */\n      0x00\n        /* \"#utility.yul\":5054:5093   */\n      tag_203\n        /* \"#utility.yul\":5087:5092   */\n      dup3\n        /* \"#utility.yul\":5054:5093   */\n      tag_95\n      jump\t// in\n    tag_203:\n        /* \"#utility.yul\":5109:5170   */\n      tag_204\n        /* \"#utility.yul\":5163:5169   */\n      dup2\n        /* \"#utility.yul\":5158:5161   */\n      dup6\n        /* \"#utility.yul\":5109:5170   */\n      tag_105\n      jump\t// in\n    tag_204:\n        /* \"#utility.yul\":5102:5170   */\n      swap4\n      pop\n        /* \"#utility.yul\":5179:5244   */\n      tag_205\n        /* \"#utility.yul\":5237:5243   */\n      dup2\n        /* \"#utility.yul\":5232:5235   */\n      dup6\n        /* \"#utility.yul\":5225:5229   */\n      0x20\n        /* \"#utility.yul\":5218:5223   */\n      dup7\n        /* \"#utility.yul\":5214:5230   */\n      add\n        /* \"#utility.yul\":5179:5244   */\n      tag_97\n      jump\t// in\n    tag_205:\n        /* \"#utility.yul\":5269:5298   */\n      tag_206\n        /* \"#utility.yul\":5291:5297   */\n      dup2\n        /* \"#utility.yul\":5269:5298   */\n      tag_98\n      jump\t// in\n    tag_206:\n        /* \"#utility.yul\":5264:5267   */\n      dup5\n        /* \"#utility.yul\":5260:5299   */\n      add\n        /* \"#utility.yul\":5253:5299   */\n      swap2\n      pop\n        /* \"#utility.yul\":5030:5305   */\n      pop\n        /* \"#utility.yul\":4948:5305   */\n      swap3\n      swap2\n      pop\n      pop\n      jump\t// out\n        /* \"#utility.yul\":5363:6482   */\n    tag_107:\n        /* \"#utility.yul\":5464:5467   */\n      0x00\n        /* \"#utility.yul\":5500:5504   */\n      0xa0\n        /* \"#utility.yul\":5495:5498   */\n      dup4\n        /* \"#utility.yul\":5491:5505   */\n      add\n        /* \"#utility.yul\":5585:5589   */\n      0x00\n        /* \"#utility.yul\":5578:5583   */\n      dup4\n        /* \"#utility.yul\":5574:5590   */\n      add\n        /* \"#utility.yul\":5568:5591   */\n      mload\n        /* \"#utility.yul\":5604:5667   */\n      tag_208\n        /* \"#utility.yul\":5661:5665   */\n      0x00\n        /* \"#utility.yul\":5656:5659   */\n      dup7\n        /* \"#utility.yul\":5652:5666   */\n      add\n        /* \"#utility.yul\":5638:5650   */\n      dup3\n        /* \"#utility.yul\":5604:5667   */\n      tag_103\n      jump\t// in\n    tag_208:\n        /* \"#utility.yul\":5515:5677   */\n      pop\n        /* \"#utility.yul\":5761:5765   */\n      0x20\n        /* \"#utility.yul\":5754:5759   */\n      dup4\n        /* \"#utility.yul\":5750:5766   */\n      add\n        /* \"#utility.yul\":5744:5767   */\n      mload\n        /* \"#utility.yul\":5780:5843   */\n      tag_209\n        /* \"#utility.yul\":5837:5841   */\n      0x20\n        /* \"#utility.yul\":5832:5835   */\n      dup7\n        /* \"#utility.yul\":5828:5842   */\n      add\n        /* \"#utility.yul\":5814:5826   */\n      dup3\n        /* \"#utility.yul\":5780:5843   */\n      tag_104\n      jump\t// in\n    tag_209:\n        /* \"#utility.yul\":5687:5853   */\n      pop\n        /* \"#utility.yul\":5938:5942   */\n      0x40\n        /* \"#utility.yul\":5931:5936   */\n      dup4\n        /* \"#utility.yul\":5927:5943   */\n      add\n        /* \"#utility.yul\":5921:5944   */\n      mload\n        /* \"#utility.yul\":5991:5994   */\n      dup5\n        /* \"#utility.yul\":5985:5989   */\n      dup3\n        /* \"#utility.yul\":5981:5995   */\n      sub\n        /* \"#utility.yul\":5974:5978   */\n      0x40\n        /* \"#utility.yul\":5969:5972   */\n      dup7\n        /* \"#utility.yul\":5965:5979   */\n      add\n        /* \"#utility.yul\":5958:5996   */\n      mstore\n        /* \"#utility.yul\":6017:6090   */\n      tag_210\n        /* \"#utility.yul\":6085:6089   */\n      dup3\n        /* \"#utility.yul\":6071:6083   */\n      dup3\n        /* \"#utility.yul\":6017:6090   */\n      tag_106\n      jump\t// in\n    tag_210:\n        /* \"#utility.yul\":6009:6090   */\n      swap2\n      pop\n        /* \"#utility.yul\":5863:6101   */\n      pop\n        /* \"#utility.yul\":6188:6192   */\n      0x60\n        /* \"#utility.yul\":6181:6186   */\n      dup4\n        /* \"#utility.yul\":6177:6193   */\n      add\n        /* \"#utility.yul\":6171:6194   */\n      mload\n        /* \"#utility.yul\":6207:6270   */\n      tag_211\n        /* \"#utility.yul\":6264:6268   */\n      0x60\n        /* \"#utility.yul\":6259:6262   */\n      dup7\n        /* \"#utility.yul\":6255:6269   */\n      add\n        /* \"#utility.yul\":6241:6253   */\n      dup3\n        /* \"#utility.yul\":6207:6270   */\n      tag_103\n      jump\t// in\n    tag_211:\n        /* \"#utility.yul\":6111:6280   */\n      pop\n        /* \"#utility.yul\":6363:6367   */\n      0x80\n        /* \"#utility.yul\":6356:6361   */\n      dup4\n        /* \"#utility.yul\":6352:6368   */\n      add\n        /* \"#utility.yul\":6346:6369   */\n      mload\n        /* \"#utility.yul\":6382:6445   */\n      tag_212\n        /* \"#utility.yul\":6439:6443   */\n      0x80\n        /* \"#utility.yul\":6434:6437   */\n      dup7\n        /* \"#utility.yul\":6430:6444   */\n      add\n        /* \"#utility.yul\":6416:6428   */\n      dup3\n        /* \"#utility.yul\":6382:6445   */\n      tag_103\n      jump\t// in\n    tag_212:\n        /* \"#utility.yul\":6290:6455   */\n      pop\n        /* \"#utility.yul\":6472:6476   */\n      dup1\n        /* \"#utility.yul\":6465:6476   */\n      swap2\n      pop\n        /* \"#utility.yul\":5469:6482   */\n      pop\n        /* \"#utility.yul\":5363:6482   */\n      swap3\n      swap2\n      pop\n      pop\n      jump\t// out\n        /* \"#utility.yul\":6488:6728   */\n    tag_108:\n        /* \"#utility.yul\":6599:6609   */\n      0x00\n        /* \"#utility.yul\":6634:6722   */\n      tag_214\n        /* \"#utility.yul\":6718:6721   */\n      dup4\n        /* \"#utility.yul\":6710:6716   */\n      dup4\n        /* \"#utility.yul\":6634:6722   */\n      tag_107\n      jump\t// in\n    tag_214:\n        /* \"#utility.yul\":6620:6722   */\n      swap1\n      pop\n        /* \"#utility.yul\":6488:6728   */\n      swap3\n      swap2\n      pop\n      pop\n      jump\t// out\n        /* \"#utility.yul\":6734:6868   */\n    tag_109:\n        /* \"#utility.yul\":6825:6829   */\n      0x00\n        /* \"#utility.yul\":6857:6861   */\n      0x20\n        /* \"#utility.yul\":6852:6855   */\n      dup3\n        /* \"#utility.yul\":6848:6862   */\n      add\n        /* \"#utility.yul\":6840:6862   */\n      swap1\n      pop\n        /* \"#utility.yul\":6734:6868   */\n      swap2\n      swap1\n      pop\n      jump\t// out\n        /* \"#utility.yul\":6930:8009   */\n    tag_110:\n        /* \"#utility.yul\":7091:7094   */\n      0x00\n        /* \"#utility.yul\":7120:7195   */\n      tag_217\n        /* \"#utility.yul\":7189:7194   */\n      dup3\n        /* \"#utility.yul\":7120:7195   */\n      tag_100\n      jump\t// in\n    tag_217:\n        /* \"#utility.yul\":7211:7318   */\n      tag_218\n        /* \"#utility.yul\":7311:7317   */\n      dup2\n        /* \"#utility.yul\":7306:7309   */\n      dup6\n        /* \"#utility.yul\":7211:7318   */\n      tag_101\n      jump\t// in\n    tag_218:\n        /* \"#utility.yul\":7204:7318   */\n      swap4\n      pop\n        /* \"#utility.yul\":7344:7347   */\n      dup4\n        /* \"#utility.yul\":7389:7393   */\n      0x20\n        /* \"#utility.yul\":7381:7387   */\n      dup3\n        /* \"#utility.yul\":7377:7394   */\n      mul\n        /* \"#utility.yul\":7372:7375   */\n      dup6\n        /* \"#utility.yul\":7368:7395   */\n      add\n        /* \"#utility.yul\":7419:7496   */\n      tag_219\n        /* \"#utility.yul\":7490:7495   */\n      dup6\n        /* \"#utility.yul\":7419:7496   */\n      tag_102\n      jump\t// in\n    tag_219:\n        /* \"#utility.yul\":7519:7526   */\n      dup1\n        /* \"#utility.yul\":7550:7551   */\n      0x00\n        /* \"#utility.yul\":7535:7964   */\n    tag_220:\n        /* \"#utility.yul\":7560:7566   */\n      dup6\n        /* \"#utility.yul\":7557:7558   */\n      dup2\n        /* \"#utility.yul\":7554:7567   */\n      lt\n        /* \"#utility.yul\":7535:7964   */\n      iszero\n      tag_222\n      jumpi\n        /* \"#utility.yul\":7631:7640   */\n      dup5\n        /* \"#utility.yul\":7625:7629   */\n      dup5\n        /* \"#utility.yul\":7621:7641   */\n      sub\n        /* \"#utility.yul\":7616:7619   */\n      dup10\n        /* \"#utility.yul\":7609:7642   */\n      mstore\n        /* \"#utility.yul\":7682:7688   */\n      dup2\n        /* \"#utility.yul\":7676:7689   */\n      mload\n        /* \"#utility.yul\":7710:7816   */\n      tag_223\n        /* \"#utility.yul\":7811:7815   */\n      dup6\n        /* \"#utility.yul\":7796:7809   */\n      dup3\n        /* \"#utility.yul\":7710:7816   */\n      tag_108\n      jump\t// in\n    tag_223:\n        /* \"#utility.yul\":7702:7816   */\n      swap5\n      pop\n        /* \"#utility.yul\":7839:7920   */\n      tag_224\n        /* \"#utility.yul\":7913:7919   */\n      dup4\n        /* \"#utility.yul\":7839:7920   */\n      tag_109\n      jump\t// in\n    tag_224:\n        /* \"#utility.yul\":7829:7920   */\n      swap3\n      pop\n        /* \"#utility.yul\":7949:7953   */\n      0x20\n        /* \"#utility.yul\":7944:7947   */\n      dup11\n        /* \"#utility.yul\":7940:7954   */\n      add\n        /* \"#utility.yul\":7933:7954   */\n      swap10\n      pop\n        /* \"#utility.yul\":7595:7964   */\n      pop\n        /* \"#utility.yul\":7582:7583   */\n      0x01\n        /* \"#utility.yul\":7579:7580   */\n      dup2\n        /* \"#utility.yul\":7575:7584   */\n      add\n        /* \"#utility.yul\":7570:7584   */\n      swap1\n      pop\n        /* \"#utility.yul\":7535:7964   */\n      jump(tag_220)\n    tag_222:\n        /* \"#utility.yul\":7539:7553   */\n      pop\n        /* \"#utility.yul\":7980:7984   */\n      dup3\n        /* \"#utility.yul\":7973:7984   */\n      swap8\n      pop\n        /* \"#utility.yul\":8000:8003   */\n      dup8\n        /* \"#utility.yul\":7993:8003   */\n      swap6\n      pop\n        /* \"#utility.yul\":7096:8009   */\n      pop\n      pop\n      pop\n      pop\n      pop\n        /* \"#utility.yul\":6930:8009   */\n      swap3\n      swap2\n      pop\n      pop\n      jump\t// out\n        /* \"#utility.yul\":8015:8472   */\n    tag_20:\n        /* \"#utility.yul\":8200:8204   */\n      0x00\n        /* \"#utility.yul\":8238:8240   */\n      0x20\n        /* \"#utility.yul\":8227:8236   */\n      dup3\n        /* \"#utility.yul\":8223:8241   */\n      add\n        /* \"#utility.yul\":8215:8241   */\n      swap1\n      pop\n        /* \"#utility.yul\":8287:8296   */\n      dup2\n        /* \"#utility.yul\":8281:8285   */\n      dup2\n        /* \"#utility.yul\":8277:8297   */\n      sub\n        /* \"#utility.yul\":8273:8274   */\n      0x00\n        /* \"#utility.yul\":8262:8271   */\n      dup4\n        /* \"#utility.yul\":8258:8275   */\n      add\n        /* \"#utility.yul\":8251:8298   */\n      mstore\n        /* \"#utility.yul\":8315:8465   */\n      tag_226\n        /* \"#utility.yul\":8460:8464   */\n      dup2\n        /* \"#utility.yul\":8451:8457   */\n      dup5\n        /* \"#utility.yul\":8315:8465   */\n      tag_110\n      jump\t// in\n    tag_226:\n        /* \"#utility.yul\":8307:8465   */\n      swap1\n      pop\n        /* \"#utility.yul\":8015:8472   */\n      swap3\n      swap2\n      pop\n      pop\n      jump\t// out\n        /* \"#utility.yul\":8478:8567   */\n    tag_111:\n        /* \"#utility.yul\":8514:8521   */\n      0x00\n        /* \"#utility.yul\":8554:8560   */\n      0xffff\n        /* \"#utility.yul\":8547:8552   */\n      dup3\n        /* \"#utility.yul\":8543:8561   */\n      and\n        /* \"#utility.yul\":8532:8561   */\n      swap1\n      pop\n        /* \"#utility.yul\":8478:8567   */\n      swap2\n      swap1\n      pop\n      jump\t// out\n        /* \"#utility.yul\":8573:8688   */\n    tag_112:\n        /* \"#utility.yul\":8658:8681   */\n      tag_229\n        /* \"#utility.yul\":8675:8680   */\n      dup2\n        /* \"#utility.yul\":8658:8681   */\n      tag_111\n      jump\t// in\n    tag_229:\n        /* \"#utility.yul\":8653:8656   */\n      dup3\n        /* \"#utility.yul\":8646:8682   */\n      mstore\n        /* \"#utility.yul\":8573:8688   */\n      pop\n      pop\n      jump\t// out\n        /* \"#utility.yul\":8694:8912   */\n    tag_27:\n        /* \"#utility.yul\":8785:8789   */\n      0x00\n        /* \"#utility.yul\":8823:8825   */\n      0x20\n        /* \"#utility.yul\":8812:8821   */\n      dup3\n        /* \"#utility.yul\":8808:8826   */\n      add\n        /* \"#utility.yul\":8800:8826   */\n      swap1\n      pop\n        /* \"#utility.yul\":8836:8905   */\n      tag_231\n        /* \"#utility.yul\":8902:8903   */\n      0x00\n        /* \"#utility.yul\":8891:8900   */\n      dup4\n        /* \"#utility.yul\":8887:8904   */\n      add\n        /* \"#utility.yul\":8878:8884   */\n      dup5\n        /* \"#utility.yul\":8836:8905   */\n      tag_112\n      jump\t// in\n    tag_231:\n        /* \"#utility.yul\":8694:8912   */\n      swap3\n      swap2\n      pop\n      pop\n      jump\t// out\n        /* \"#utility.yul\":8918:9035   */\n    tag_113:\n        /* \"#utility.yul\":9027:9028   */\n      0x00\n        /* \"#utility.yul\":9024:9025   */\n      dup1\n        /* \"#utility.yul\":9017:9029   */\n      revert\n        /* \"#utility.yul\":9041:9158   */\n    tag_114:\n        /* \"#utility.yul\":9150:9151   */\n      0x00\n        /* \"#utility.yul\":9147:9148   */\n      dup1\n        /* \"#utility.yul\":9140:9152   */\n      revert\n        /* \"#utility.yul\":9164:9344   */\n    tag_115:\n        /* \"#utility.yul\":9212:9289   */\n      0x4e487b7100000000000000000000000000000000000000000000000000000000\n        /* \"#utility.yul\":9209:9210   */\n      0x00\n        /* \"#utility.yul\":9202:9290   */\n      mstore\n        /* \"#utility.yul\":9309:9313   */\n      0x41\n        /* \"#utility.yul\":9306:9307   */\n      0x04\n        /* \"#utility.yul\":9299:9314   */\n      mstore\n        /* \"#utility.yul\":9333:9337   */\n      0x24\n        /* \"#utility.yul\":9330:9331   */\n      0x00\n        /* \"#utility.yul\":9323:9338   */\n      revert\n        /* \"#utility.yul\":9350:9631   */\n    tag_116:\n        /* \"#utility.yul\":9433:9460   */\n      tag_236\n        /* \"#utility.yul\":9455:9459   */\n      dup3\n        /* \"#utility.yul\":9433:9460   */\n      tag_98\n      jump\t// in\n    tag_236:\n        /* \"#utility.yul\":9425:9431   */\n      dup2\n        /* \"#utility.yul\":9421:9461   */\n      add\n        /* \"#utility.yul\":9563:9569   */\n      dup2\n        /* \"#utility.yul\":9551:9561   */\n      dup2\n        /* \"#utility.yul\":9548:9570   */\n      lt\n        /* \"#utility.yul\":9527:9545   */\n      0xffffffffffffffff\n        /* \"#utility.yul\":9515:9525   */\n      dup3\n        /* \"#utility.yul\":9512:9546   */\n      gt\n        /* \"#utility.yul\":9509:9571   */\n      or\n        /* \"#utility.yul\":9506:9594   */\n      iszero\n      tag_237\n      jumpi\n        /* \"#utility.yul\":9574:9592   */\n      tag_238\n      tag_115\n      jump\t// in\n    tag_238:\n        /* \"#utility.yul\":9506:9594   */\n    tag_237:\n        /* \"#utility.yul\":9614:9624   */\n      dup1\n        /* \"#utility.yul\":9610:9612   */\n      0x40\n        /* \"#utility.yul\":9603:9625   */\n      mstore\n        /* \"#utility.yul\":9393:9631   */\n      pop\n        /* \"#utility.yul\":9350:9631   */\n      pop\n      pop\n      jump\t// out\n        /* \"#utility.yul\":9637:9766   */\n    tag_117:\n        /* \"#utility.yul\":9671:9677   */\n      0x00\n        /* \"#utility.yul\":9698:9718   */\n      tag_240\n      tag_83\n      jump\t// in\n    tag_240:\n        /* \"#utility.yul\":9688:9718   */\n      swap1\n      pop\n        /* \"#utility.yul\":9727:9760   */\n      tag_241\n        /* \"#utility.yul\":9755:9759   */\n      dup3\n        /* \"#utility.yul\":9747:9753   */\n      dup3\n        /* \"#utility.yul\":9727:9760   */\n      tag_116\n      jump\t// in\n    tag_241:\n        /* \"#utility.yul\":9637:9766   */\n      swap2\n      swap1\n      pop\n      jump\t// out\n        /* \"#utility.yul\":9772:10080   */\n    tag_118:\n        /* \"#utility.yul\":9834:9838   */\n      0x00\n        /* \"#utility.yul\":9924:9942   */\n      0xffffffffffffffff\n        /* \"#utility.yul\":9916:9922   */\n      dup3\n        /* \"#utility.yul\":9913:9943   */\n      gt\n        /* \"#utility.yul\":9910:9966   */\n      iszero\n      tag_243\n      jumpi\n        /* \"#utility.yul\":9946:9964   */\n      tag_244\n      tag_115\n      jump\t// in\n    tag_244:\n        /* \"#utility.yul\":9910:9966   */\n    tag_243:\n        /* \"#utility.yul\":9984:10013   */\n      tag_245\n        /* \"#utility.yul\":10006:10012   */\n      dup3\n        /* \"#utility.yul\":9984:10013   */\n      tag_98\n      jump\t// in\n    tag_245:\n        /* \"#utility.yul\":9976:10013   */\n      swap1\n      pop\n        /* \"#utility.yul\":10068:10072   */\n      0x20\n        /* \"#utility.yul\":10062:10066   */\n      dup2\n        /* \"#utility.yul\":10058:10073   */\n      add\n        /* \"#utility.yul\":10050:10073   */\n      swap1\n      pop\n        /* \"#utility.yul\":9772:10080   */\n      swap2\n      swap1\n      pop\n      jump\t// out\n        /* \"#utility.yul\":10086:10232   */\n    tag_119:\n        /* \"#utility.yul\":10183:10189   */\n      dup3\n        /* \"#utility.yul\":10178:10181   */\n      dup2\n        /* \"#utility.yul\":10173:10176   */\n      dup4\n        /* \"#utility.yul\":10160:10190   */\n      calldatacopy\n        /* \"#utility.yul\":10224:10225   */\n      0x00\n        /* \"#utility.yul\":10215:10221   */\n      dup4\n        /* \"#utility.yul\":10210:10213   */\n      dup4\n        /* \"#utility.yul\":10206:10222   */\n      add\n        /* \"#utility.yul\":10199:10226   */\n      mstore\n        /* \"#utility.yul\":10086:10232   */\n      pop\n      pop\n      pop\n      jump\t// out\n        /* \"#utility.yul\":10238:10663   */\n    tag_120:\n        /* \"#utility.yul\":10316:10321   */\n      0x00\n        /* \"#utility.yul\":10341:10407   */\n      tag_248\n        /* \"#utility.yul\":10357:10406   */\n      tag_249\n        /* \"#utility.yul\":10399:10405   */\n      dup5\n        /* \"#utility.yul\":10357:10406   */\n      tag_118\n      jump\t// in\n    tag_249:\n        /* \"#utility.yul\":10341:10407   */\n      tag_117\n      jump\t// in\n    tag_248:\n        /* \"#utility.yul\":10332:10407   */\n      swap1\n      pop\n        /* \"#utility.yul\":10430:10436   */\n      dup3\n        /* \"#utility.yul\":10423:10428   */\n      dup2\n        /* \"#utility.yul\":10416:10437   */\n      mstore\n        /* \"#utility.yul\":10468:10472   */\n      0x20\n        /* \"#utility.yul\":10461:10466   */\n      dup2\n        /* \"#utility.yul\":10457:10473   */\n      add\n        /* \"#utility.yul\":10506:10509   */\n      dup5\n        /* \"#utility.yul\":10497:10503   */\n      dup5\n        /* \"#utility.yul\":10492:10495   */\n      dup5\n        /* \"#utility.yul\":10488:10504   */\n      add\n        /* \"#utility.yul\":10485:10510   */\n      gt\n        /* \"#utility.yul\":10482:10594   */\n      iszero\n      tag_250\n      jumpi\n        /* \"#utility.yul\":10513:10592   */\n      tag_251\n      tag_114\n      jump\t// in\n    tag_251:\n        /* \"#utility.yul\":10482:10594   */\n    tag_250:\n        /* \"#utility.yul\":10603:10657   */\n      tag_252\n        /* \"#utility.yul\":10650:10656   */\n      dup5\n        /* \"#utility.yul\":10645:10648   */\n      dup3\n        /* \"#utility.yul\":10640:10643   */\n      dup6\n        /* \"#utility.yul\":10603:10657   */\n      tag_119\n      jump\t// in\n    tag_252:\n        /* \"#utility.yul\":10322:10663   */\n      pop\n        /* \"#utility.yul\":10238:10663   */\n      swap4\n      swap3\n      pop\n      pop\n      pop\n      jump\t// out\n        /* \"#utility.yul\":10683:11023   */\n    tag_121:\n        /* \"#utility.yul\":10739:10744   */\n      0x00\n        /* \"#utility.yul\":10788:10791   */\n      dup3\n        /* \"#utility.yul\":10781:10785   */\n      0x1f\n        /* \"#utility.yul\":10773:10779   */\n      dup4\n        /* \"#utility.yul\":10769:10786   */\n      add\n        /* \"#utility.yul\":10765:10792   */\n      slt\n        /* \"#utility.yul\":10755:10877   */\n      tag_254\n      jumpi\n        /* \"#utility.yul\":10796:10875   */\n      tag_255\n      tag_113\n      jump\t// in\n    tag_255:\n        /* \"#utility.yul\":10755:10877   */\n    tag_254:\n        /* \"#utility.yul\":10913:10919   */\n      dup2\n        /* \"#utility.yul\":10900:10920   */\n      calldataload\n        /* \"#utility.yul\":10938:11017   */\n      tag_256\n        /* \"#utility.yul\":11013:11016   */\n      dup5\n        /* \"#utility.yul\":11005:11011   */\n      dup3\n        /* \"#utility.yul\":10998:11002   */\n      0x20\n        /* \"#utility.yul\":10990:10996   */\n      dup7\n        /* \"#utility.yul\":10986:11003   */\n      add\n        /* \"#utility.yul\":10938:11017   */\n      tag_120\n      jump\t// in\n    tag_256:\n        /* \"#utility.yul\":10929:11017   */\n      swap2\n      pop\n        /* \"#utility.yul\":10745:11023   */\n      pop\n        /* \"#utility.yul\":10683:11023   */\n      swap3\n      swap2\n      pop\n      pop\n      jump\t// out\n        /* \"#utility.yul\":11029:11538   */\n    tag_30:\n        /* \"#utility.yul\":11098:11104   */\n      0x00\n        /* \"#utility.yul\":11147:11149   */\n      0x20\n        /* \"#utility.yul\":11135:11144   */\n      dup3\n        /* \"#utility.yul\":11126:11133   */\n      dup5\n        /* \"#utility.yul\":11122:11145   */\n      sub\n        /* \"#utility.yul\":11118:11150   */\n      slt\n        /* \"#utility.yul\":11115:11234   */\n      iszero\n      tag_258\n      jumpi\n        /* \"#utility.yul\":11153:11232   */\n      tag_259\n      tag_84\n      jump\t// in\n    tag_259:\n        /* \"#utility.yul\":11115:11234   */\n    tag_258:\n        /* \"#utility.yul\":11301:11302   */\n      0x00\n        /* \"#utility.yul\":11290:11299   */\n      dup3\n        /* \"#utility.yul\":11286:11303   */\n      add\n        /* \"#utility.yul\":11273:11304   */\n      calldataload\n        /* \"#utility.yul\":11331:11349   */\n      0xffffffffffffffff\n        /* \"#utility.yul\":11323:11329   */\n      dup2\n        /* \"#utility.yul\":11320:11350   */\n      gt\n        /* \"#utility.yul\":11317:11434   */\n      iszero\n      tag_260\n      jumpi\n        /* \"#utility.yul\":11353:11432   */\n      tag_261\n      tag_85\n      jump\t// in\n    tag_261:\n        /* \"#utility.yul\":11317:11434   */\n    tag_260:\n        /* \"#utility.yul\":11458:11521   */\n      tag_262\n        /* \"#utility.yul\":11513:11520   */\n      dup5\n        /* \"#utility.yul\":11504:11510   */\n      dup3\n        /* \"#utility.yul\":11493:11502   */\n      dup6\n        /* \"#utility.yul\":11489:11511   */\n      add\n        /* \"#utility.yul\":11458:11521   */\n      tag_121\n      jump\t// in\n    tag_262:\n        /* \"#utility.yul\":11448:11521   */\n      swap2\n      pop\n        /* \"#utility.yul\":11244:11531   */\n      pop\n        /* \"#utility.yul\":11029:11538   */\n      swap3\n      swap2\n      pop\n      pop\n      jump\t// out\n        /* \"#utility.yul\":11544:11724   */\n    tag_122:\n        /* \"#utility.yul\":11592:11669   */\n      0x4e487b7100000000000000000000000000000000000000000000000000000000\n        /* \"#utility.yul\":11589:11590   */\n      0x00\n        /* \"#utility.yul\":11582:11670   */\n      mstore\n        /* \"#utility.yul\":11689:11693   */\n      0x22\n        /* \"#utility.yul\":11686:11687   */\n      0x04\n        /* \"#utility.yul\":11679:11694   */\n      mstore\n        /* \"#utility.yul\":11713:11717   */\n      0x24\n        /* \"#utility.yul\":11710:11711   */\n      0x00\n        /* \"#utility.yul\":11703:11718   */\n      revert\n        /* \"#utility.yul\":11730:12050   */\n    tag_38:\n        /* \"#utility.yul\":11774:11780   */\n      0x00\n        /* \"#utility.yul\":11811:11812   */\n      0x02\n        /* \"#utility.yul\":11805:11809   */\n      dup3\n        /* \"#utility.yul\":11801:11813   */\n      div\n        /* \"#utility.yul\":11791:11813   */\n      swap1\n      pop\n        /* \"#utility.yul\":11858:11859   */\n      0x01\n        /* \"#utility.yul\":11852:11856   */\n      dup3\n        /* \"#utility.yul\":11848:11860   */\n      and\n        /* \"#utility.yul\":11879:11897   */\n      dup1\n        /* \"#utility.yul\":11869:11950   */\n      tag_265\n      jumpi\n        /* \"#utility.yul\":11935:11939   */\n      0x7f\n        /* \"#utility.yul\":11927:11933   */\n      dup3\n        /* \"#utility.yul\":11923:11940   */\n      and\n        /* \"#utility.yul\":11913:11940   */\n      swap2\n      pop\n        /* \"#utility.yul\":11869:11950   */\n    tag_265:\n        /* \"#utility.yul\":11997:11999   */\n      0x20\n        /* \"#utility.yul\":11989:11995   */\n      dup3\n        /* \"#utility.yul\":11986:12000   */\n      lt\n        /* \"#utility.yul\":11966:11984   */\n      dup2\n        /* \"#utility.yul\":11963:12001   */\n      sub\n        /* \"#utility.yul\":11960:12044   */\n      tag_266\n      jumpi\n        /* \"#utility.yul\":12016:12034   */\n      tag_267\n      tag_122\n      jump\t// in\n    tag_267:\n        /* \"#utility.yul\":11960:12044   */\n    tag_266:\n        /* \"#utility.yul\":11781:12050   */\n      pop\n        /* \"#utility.yul\":11730:12050   */\n      swap2\n      swap1\n      pop\n      jump\t// out\n        /* \"#utility.yul\":12056:12226   */\n    tag_123:\n        /* \"#utility.yul\":12196:12218   */\n      0x547765657420646f6573206e6f74206578697374000000000000000000000000\n        /* \"#utility.yul\":12192:12193   */\n      0x00\n        /* \"#utility.yul\":12184:12190   */\n      dup3\n        /* \"#utility.yul\":12180:12194   */\n      add\n        /* \"#utility.yul\":12173:12219   */\n      mstore\n        /* \"#utility.yul\":12056:12226   */\n      pop\n      jump\t// out\n        /* \"#utility.yul\":12232:12598   */\n    tag_124:\n        /* \"#utility.yul\":12374:12377   */\n      0x00\n        /* \"#utility.yul\":12395:12462   */\n      tag_270\n        /* \"#utility.yul\":12459:12461   */\n      0x14\n        /* \"#utility.yul\":12454:12457   */\n      dup4\n        /* \"#utility.yul\":12395:12462   */\n      tag_96\n      jump\t// in\n    tag_270:\n        /* \"#utility.yul\":12388:12462   */\n      swap2\n      pop\n        /* \"#utility.yul\":12471:12564   */\n      tag_271\n        /* \"#utility.yul\":12560:12563   */\n      dup3\n        /* \"#utility.yul\":12471:12564   */\n      tag_123\n      jump\t// in\n    tag_271:\n        /* \"#utility.yul\":12589:12591   */\n      0x20\n        /* \"#utility.yul\":12584:12587   */\n      dup3\n        /* \"#utility.yul\":12580:12592   */\n      add\n        /* \"#utility.yul\":12573:12592   */\n      swap1\n      pop\n        /* \"#utility.yul\":12232:12598   */\n      swap2\n      swap1\n      pop\n      jump\t// out\n        /* \"#utility.yul\":12604:13023   */\n    tag_55:\n        /* \"#utility.yul\":12770:12774   */\n      0x00\n        /* \"#utility.yul\":12808:12810   */\n      0x20\n        /* \"#utility.yul\":12797:12806   */\n      dup3\n        /* \"#utility.yul\":12793:12811   */\n      add\n        /* \"#utility.yul\":12785:12811   */\n      swap1\n      pop\n        /* \"#utility.yul\":12857:12866   */\n      dup2\n        /* \"#utility.yul\":12851:12855   */\n      dup2\n        /* \"#utility.yul\":12847:12867   */\n      sub\n        /* \"#utility.yul\":12843:12844   */\n      0x00\n        /* \"#utility.yul\":12832:12841   */\n      dup4\n        /* \"#utility.yul\":12828:12845   */\n      add\n        /* \"#utility.yul\":12821:12868   */\n      mstore\n        /* \"#utility.yul\":12885:13016   */\n      tag_273\n        /* \"#utility.yul\":13011:13015   */\n      dup2\n        /* \"#utility.yul\":12885:13016   */\n      tag_124\n      jump\t// in\n    tag_273:\n        /* \"#utility.yul\":12877:13016   */\n      swap1\n      pop\n        /* \"#utility.yul\":12604:13023   */\n      swap2\n      swap1\n      pop\n      jump\t// out\n        /* \"#utility.yul\":13029:13209   */\n    tag_58:\n        /* \"#utility.yul\":13077:13154   */\n      0x4e487b7100000000000000000000000000000000000000000000000000000000\n        /* \"#utility.yul\":13074:13075   */\n      0x00\n        /* \"#utility.yul\":13067:13155   */\n      mstore\n        /* \"#utility.yul\":13174:13178   */\n      0x32\n        /* \"#utility.yul\":13171:13172   */\n      0x04\n        /* \"#utility.yul\":13164:13179   */\n      mstore\n        /* \"#utility.yul\":13198:13202   */\n      0x24\n        /* \"#utility.yul\":13195:13196   */\n      0x00\n        /* \"#utility.yul\":13188:13203   */\n      revert\n        /* \"#utility.yul\":13215:13395   */\n    tag_125:\n        /* \"#utility.yul\":13263:13340   */\n      0x4e487b7100000000000000000000000000000000000000000000000000000000\n        /* \"#utility.yul\":13260:13261   */\n      0x00\n        /* \"#utility.yul\":13253:13341   */\n      mstore\n        /* \"#utility.yul\":13360:13364   */\n      0x11\n        /* \"#utility.yul\":13357:13358   */\n      0x04\n        /* \"#utility.yul\":13350:13365   */\n      mstore\n        /* \"#utility.yul\":13384:13388   */\n      0x24\n        /* \"#utility.yul\":13381:13382   */\n      0x00\n        /* \"#utility.yul\":13374:13389   */\n      revert\n        /* \"#utility.yul\":13401:13634   */\n    tag_61:\n        /* \"#utility.yul\":13440:13443   */\n      0x00\n        /* \"#utility.yul\":13463:13487   */\n      tag_277\n        /* \"#utility.yul\":13481:13486   */\n      dup3\n        /* \"#utility.yul\":13463:13487   */\n      tag_90\n      jump\t// in\n    tag_277:\n        /* \"#utility.yul\":13454:13487   */\n      swap2\n      pop\n        /* \"#utility.yul\":13509:13575   */\n      0xffffffffffffffffffffffffffffffffffffffffffffffffffffffffffffffff\n        /* \"#utility.yul\":13502:13507   */\n      dup3\n        /* \"#utility.yul\":13499:13576   */\n      sub\n        /* \"#utility.yul\":13496:13599   */\n      tag_278\n      jumpi\n        /* \"#utility.yul\":13579:13597   */\n      tag_279\n      tag_125\n      jump\t// in\n    tag_279:\n        /* \"#utility.yul\":13496:13599   */\n    tag_278:\n        /* \"#utility.yul\":13626:13627   */\n      0x01\n        /* \"#utility.yul\":13619:13624   */\n      dup3\n        /* \"#utility.yul\":13615:13628   */\n      add\n        /* \"#utility.yul\":13608:13628   */\n      swap1\n      pop\n        /* \"#utility.yul\":13401:13634   */\n      swap2\n      swap1\n      pop\n      jump\t// out\n        /* \"#utility.yul\":13640:13805   */\n    tag_126:\n        /* \"#utility.yul\":13780:13797   */\n      0x547765657420746f6f206c6f6e67210000000000000000000000000000000000\n        /* \"#utility.yul\":13776:13777   */\n      0x00\n        /* \"#utility.yul\":13768:13774   */\n      dup3\n        /* \"#utility.yul\":13764:13778   */\n      add\n        /* \"#utility.yul\":13757:13798   */\n      mstore\n        /* \"#utility.yul\":13640:13805   */\n      pop\n      jump\t// out\n        /* \"#utility.yul\":13811:14177   */\n    tag_127:\n        /* \"#utility.yul\":13953:13956   */\n      0x00\n        /* \"#utility.yul\":13974:14041   */\n      tag_282\n        /* \"#utility.yul\":14038:14040   */\n      0x0f\n        /* \"#utility.yul\":14033:14036   */\n      dup4\n        /* \"#utility.yul\":13974:14041   */\n      tag_96\n      jump\t// in\n    tag_282:\n        /* \"#utility.yul\":13967:14041   */\n      swap2\n      pop\n        /* \"#utility.yul\":14050:14143   */\n      tag_283\n        /* \"#utility.yul\":14139:14142   */\n      dup3\n        /* \"#utility.yul\":14050:14143   */\n      tag_126\n      jump\t// in\n    tag_283:\n        /* \"#utility.yul\":14168:14170   */\n      0x20\n        /* \"#utility.yul\":14163:14166   */\n      dup3\n        /* \"#utility.yul\":14159:14171   */\n      add\n        /* \"#utility.yul\":14152:14171   */\n      swap1\n      pop\n        /* \"#utility.yul\":13811:14177   */\n      swap2\n      swap1\n      pop\n      jump\t// out\n        /* \"#utility.yul\":14183:14602   */\n    tag_65:\n        /* \"#utility.yul\":14349:14353   */\n      0x00\n        /* \"#utility.yul\":14387:14389   */\n      0x20\n        /* \"#utility.yul\":14376:14385   */\n      dup3\n        /* \"#utility.yul\":14372:14390   */\n      add\n        /* \"#utility.yul\":14364:14390   */\n      swap1\n      pop\n        /* \"#utility.yul\":14436:14445   */\n      dup2\n        /* \"#utility.yul\":14430:14434   */\n      dup2\n        /* \"#utility.yul\":14426:14446   */\n      sub\n        /* \"#utility.yul\":14422:14423   */\n      0x00\n        /* \"#utility.yul\":14411:14420   */\n      dup4\n        /* \"#utility.yul\":14407:14424   */\n      add\n        /* \"#utility.yul\":14400:14447   */\n      mstore\n        /* \"#utility.yul\":14464:14595   */\n      tag_285\n        /* \"#utility.yul\":14590:14594   */\n      dup2\n        /* \"#utility.yul\":14464:14595   */\n      tag_127\n      jump\t// in\n    tag_285:\n        /* \"#utility.yul\":14456:14595   */\n      swap1\n      pop\n        /* \"#utility.yul\":14183:14602   */\n      swap2\n      swap1\n      pop\n      jump\t// out\n        /* \"#utility.yul\":14608:14749   */\n    tag_128:\n        /* \"#utility.yul\":14657:14661   */\n      0x00\n        /* \"#utility.yul\":14680:14683   */\n      dup2\n        /* \"#utility.yul\":14672:14683   */\n      swap1\n      pop\n        /* \"#utility.yul\":14703:14706   */\n      dup2\n        /* \"#utility.yul\":14700:14701   */\n      0x00\n        /* \"#utility.yul\":14693:14707   */\n      mstore\n        /* \"#utility.yul\":14737:14741   */\n      0x20\n        /* \"#utility.yul\":14734:14735   */\n      0x00\n        /* \"#utility.yul\":14724:14742   */\n      keccak256\n        /* \"#utility.yul\":14716:14742   */\n      swap1\n      pop\n        /* \"#utility.yul\":14608:14749   */\n      swap2\n      swap1\n      pop\n      jump\t// out\n        /* \"#utility.yul\":14755:14848   */\n    tag_129:\n        /* \"#utility.yul\":14792:14798   */\n      0x00\n        /* \"#utility.yul\":14839:14841   */\n      0x20\n        /* \"#utility.yul\":14834:14836   */\n      0x1f\n        /* \"#utility.yul\":14827:14832   */\n      dup4\n        /* \"#utility.yul\":14823:14837   */\n      add\n        /* \"#utility.yul\":14819:14842   */\n      div\n        /* \"#utility.yul\":14809:14842   */\n      swap1\n      pop\n        /* \"#utility.yul\":14755:14848   */\n      swap2\n      swap1\n      pop\n      jump\t// out\n        /* \"#utility.yul\":14854:14961   */\n    tag_130:\n        /* \"#utility.yul\":14898:14906   */\n      0x00\n        /* \"#utility.yul\":14948:14953   */\n      dup3\n        /* \"#utility.yul\":14942:14946   */\n      dup3\n        /* \"#utility.yul\":14938:14954   */\n      shl\n        /* \"#utility.yul\":14917:14954   */\n      swap1\n      pop\n        /* \"#utility.yul\":14854:14961   */\n      swap3\n      swap2\n      pop\n      pop\n      jump\t// out\n        /* \"#utility.yul\":14967:15360   */\n    tag_131:\n        /* \"#utility.yul\":15036:15042   */\n      0x00\n        /* \"#utility.yul\":15086:15087   */\n      0x08\n        /* \"#utility.yul\":15074:15084   */\n      dup4\n        /* \"#utility.yul\":15070:15088   */\n      mul\n        /* \"#utility.yul\":15109:15206   */\n      tag_290\n        /* \"#utility.yul\":15139:15205   */\n      0xffffffffffffffffffffffffffffffffffffffffffffffffffffffffffffffff\n        /* \"#utility.yul\":15128:15137   */\n      dup3\n        /* \"#utility.yul\":15109:15206   */\n      tag_130\n      jump\t// in\n    tag_290:\n        /* \"#utility.yul\":15227:15266   */\n      tag_291\n        /* \"#utility.yul\":15257:15265   */\n      dup7\n        /* \"#utility.yul\":15246:15255   */\n      dup4\n        /* \"#utility.yul\":15227:15266   */\n      tag_130\n      jump\t// in\n    tag_291:\n        /* \"#utility.yul\":15215:15266   */\n      swap6\n      pop\n        /* \"#utility.yul\":15299:15303   */\n      dup1\n        /* \"#utility.yul\":15295:15304   */\n      not\n        /* \"#utility.yul\":15288:15293   */\n      dup5\n        /* \"#utility.yul\":15284:15305   */\n      and\n        /* \"#utility.yul\":15275:15305   */\n      swap4\n      pop\n        /* \"#utility.yul\":15348:15352   */\n      dup1\n        /* \"#utility.yul\":15338:15346   */\n      dup7\n        /* \"#utility.yul\":15334:15353   */\n      and\n        /* \"#utility.yul\":15327:15332   */\n      dup5\n        /* \"#utility.yul\":15324:15354   */\n      or\n        /* \"#utility.yul\":15314:15354   */\n      swap3\n      pop\n        /* \"#utility.yul\":15043:15360   */\n      pop\n      pop\n        /* \"#utility.yul\":14967:15360   */\n      swap4\n      swap3\n      pop\n      pop\n      pop\n      jump\t// out\n        /* \"#utility.yul\":15366:15426   */\n    tag_132:\n        /* \"#utility.yul\":15394:15397   */\n      0x00\n        /* \"#utility.yul\":15415:15420   */\n      dup2\n        /* \"#utility.yul\":15408:15420   */\n      swap1\n      pop\n        /* \"#utility.yul\":15366:15426   */\n      swap2\n      swap1\n      pop\n      jump\t// out\n        /* \"#utility.yul\":15432:15574   */\n    tag_133:\n        /* \"#utility.yul\":15482:15491   */\n      0x00\n        /* \"#utility.yul\":15515:15568   */\n      tag_294\n        /* \"#utility.yul\":15533:15567   */\n      tag_295\n        /* \"#utility.yul\":15542:15566   */\n      tag_296\n        /* \"#utility.yul\":15560:15565   */\n      dup5\n        /* \"#utility.yul\":15542:15566   */\n      tag_90\n      jump\t// in\n    tag_296:\n        /* \"#utility.yul\":15533:15567   */\n      tag_132\n      jump\t// in\n    tag_295:\n        /* \"#utility.yul\":15515:15568   */\n      tag_90\n      jump\t// in\n    tag_294:\n        /* \"#utility.yul\":15502:15568   */\n      swap1\n      pop\n        /* \"#utility.yul\":15432:15574   */\n      swap2\n      swap1\n      pop\n      jump\t// out\n        /* \"#utility.yul\":15580:15655   */\n    tag_134:\n        /* \"#utility.yul\":15623:15626   */\n      0x00\n        /* \"#utility.yul\":15644:15649   */\n      dup2\n        /* \"#utility.yul\":15637:15649   */\n      swap1\n      pop\n        /* \"#utility.yul\":15580:15655   */\n      swap2\n      swap1\n      pop\n      jump\t// out\n        /* \"#utility.yul\":15661:15930   */\n    tag_135:\n        /* \"#utility.yul\":15771:15810   */\n      tag_299\n        /* \"#utility.yul\":15802:15809   */\n      dup4\n        /* \"#utility.yul\":15771:15810   */\n      tag_133\n      jump\t// in\n    tag_299:\n        /* \"#utility.yul\":15832:15923   */\n      tag_300\n        /* \"#utility.yul\":15881:15922   */\n      tag_301\n        /* \"#utility.yul\":15905:15921   */\n      dup3\n        /* \"#utility.yul\":15881:15922   */\n      tag_134\n      jump\t// in\n    tag_301:\n        /* \"#utility.yul\":15873:15879   */\n      dup5\n        /* \"#utility.yul\":15866:15870   */\n      dup5\n        /* \"#utility.yul\":15860:15871   */\n      sload\n        /* \"#utility.yul\":15832:15923   */\n      tag_131\n      jump\t// in\n    tag_300:\n        /* \"#utility.yul\":15826:15830   */\n      dup3\n        /* \"#utility.yul\":15819:15924   */\n      sstore\n        /* \"#utility.yul\":15737:15930   */\n      pop\n        /* \"#utility.yul\":15661:15930   */\n      pop\n      pop\n      pop\n      jump\t// out\n        /* \"#utility.yul\":15936:16009   */\n    tag_136:\n        /* \"#utility.yul\":15981:15984   */\n      0x00\n        /* \"#utility.yul\":15936:16009   */\n      swap1\n      jump\t// out\n        /* \"#utility.yul\":16015:16204   */\n    tag_137:\n        /* \"#utility.yul\":16092:16124   */\n      tag_304\n      tag_136\n      jump\t// in\n    tag_304:\n        /* \"#utility.yul\":16133:16198   */\n      tag_305\n        /* \"#utility.yul\":16191:16197   */\n      dup2\n        /* \"#utility.yul\":16183:16189   */\n      dup5\n        /* \"#utility.yul\":16177:16181   */\n      dup5\n        /* \"#utility.yul\":16133:16198   */\n      tag_135\n      jump\t// in\n    tag_305:\n        /* \"#utility.yul\":16068:16204   */\n      pop\n        /* \"#utility.yul\":16015:16204   */\n      pop\n      pop\n      jump\t// out\n        /* \"#utility.yul\":16210:16396   */\n    tag_138:\n        /* \"#utility.yul\":16270:16390   */\n    tag_307:\n        /* \"#utility.yul\":16287:16290   */\n      dup2\n        /* \"#utility.yul\":16280:16285   */\n      dup2\n        /* \"#utility.yul\":16277:16291   */\n      lt\n        /* \"#utility.yul\":16270:16390   */\n      iszero\n      tag_309\n      jumpi\n        /* \"#utility.yul\":16341:16380   */\n      tag_310\n        /* \"#utility.yul\":16378:16379   */\n      0x00\n        /* \"#utility.yul\":16371:16376   */\n      dup3\n        /* \"#utility.yul\":16341:16380   */\n      tag_137\n      jump\t// in\n    tag_310:\n        /* \"#utility.yul\":16314:16315   */\n      0x01\n        /* \"#utility.yul\":16307:16312   */\n      dup2\n        /* \"#utility.yul\":16303:16316   */\n      add\n        /* \"#utility.yul\":16294:16316   */\n      swap1\n      pop\n        /* \"#utility.yul\":16270:16390   */\n      jump(tag_307)\n    tag_309:\n        /* \"#utility.yul\":16210:16396   */\n      pop\n      pop\n      jump\t// out\n        /* \"#utility.yul\":16402:16945   */\n    tag_139:\n        /* \"#utility.yul\":16503:16505   */\n      0x1f\n        /* \"#utility.yul\":16498:16501   */\n      dup3\n        /* \"#utility.yul\":16495:16506   */\n      gt\n        /* \"#utility.yul\":16492:16938   */\n      iszero\n      tag_312\n      jumpi\n        /* \"#utility.yul\":16537:16575   */\n      tag_313\n        /* \"#utility.yul\":16569:16574   */\n      dup2\n        /* \"#utility.yul\":16537:16575   */\n      tag_128\n      jump\t// in\n    tag_313:\n        /* \"#utility.yul\":16621:16650   */\n      tag_314\n        /* \"#utility.yul\":16639:16649   */\n      dup5\n        /* \"#utility.yul\":16621:16650   */\n      tag_129\n      jump\t// in\n    tag_314:\n        /* \"#utility.yul\":16611:16619   */\n      dup2\n        /* \"#utility.yul\":16607:16651   */\n      add\n        /* \"#utility.yul\":16804:16806   */\n      0x20\n        /* \"#utility.yul\":16792:16802   */\n      dup6\n        /* \"#utility.yul\":16789:16807   */\n      lt\n        /* \"#utility.yul\":16786:16835   */\n      iszero\n      tag_315\n      jumpi\n        /* \"#utility.yul\":16825:16833   */\n      dup2\n        /* \"#utility.yul\":16810:16833   */\n      swap1\n      pop\n        /* \"#utility.yul\":16786:16835   */\n    tag_315:\n        /* \"#utility.yul\":16848:16928   */\n      tag_316\n        /* \"#utility.yul\":16904:16926   */\n      tag_317\n        /* \"#utility.yul\":16922:16925   */\n      dup6\n        /* \"#utility.yul\":16904:16926   */\n      tag_129\n      jump\t// in\n    tag_317:\n        /* \"#utility.yul\":16894:16902   */\n      dup4\n        /* \"#utility.yul\":16890:16927   */\n      add\n        /* \"#utility.yul\":16877:16888   */\n      dup3\n        /* \"#utility.yul\":16848:16928   */\n      tag_138\n      jump\t// in\n    tag_316:\n        /* \"#utility.yul\":16507:16938   */\n      pop\n      pop\n        /* \"#utility.yul\":16492:16938   */\n    tag_312:\n        /* \"#utility.yul\":16402:16945   */\n      pop\n      pop\n      pop\n      jump\t// out\n        /* \"#utility.yul\":16951:17068   */\n    tag_140:\n        /* \"#utility.yul\":17005:17013   */\n      0x00\n        /* \"#utility.yul\":17055:17060   */\n      dup3\n        /* \"#utility.yul\":17049:17053   */\n      dup3\n        /* \"#utility.yul\":17045:17061   */\n      shr\n        /* \"#utility.yul\":17024:17061   */\n      swap1\n      pop\n        /* \"#utility.yul\":16951:17068   */\n      swap3\n      swap2\n      pop\n      pop\n      jump\t// out\n        /* \"#utility.yul\":17074:17243   */\n    tag_141:\n        /* \"#utility.yul\":17118:17124   */\n      0x00\n        /* \"#utility.yul\":17151:17202   */\n      tag_320\n        /* \"#utility.yul\":17199:17200   */\n      0x00\n        /* \"#utility.yul\":17195:17201   */\n      not\n        /* \"#utility.yul\":17187:17192   */\n      dup5\n        /* \"#utility.yul\":17184:17185   */\n      0x08\n        /* \"#utility.yul\":17180:17193   */\n      mul\n        /* \"#utility.yul\":17151:17202   */\n      tag_140\n      jump\t// in\n    tag_320:\n        /* \"#utility.yul\":17147:17203   */\n      not\n        /* \"#utility.yul\":17232:17236   */\n      dup1\n        /* \"#utility.yul\":17226:17230   */\n      dup4\n        /* \"#utility.yul\":17222:17237   */\n      and\n        /* \"#utility.yul\":17212:17237   */\n      swap2\n      pop\n        /* \"#utility.yul\":17125:17243   */\n      pop\n        /* \"#utility.yul\":17074:17243   */\n      swap3\n      swap2\n      pop\n      pop\n      jump\t// out\n        /* \"#utility.yul\":17248:17543   */\n    tag_142:\n        /* \"#utility.yul\":17324:17328   */\n      0x00\n        /* \"#utility.yul\":17470:17499   */\n      tag_322\n        /* \"#utility.yul\":17495:17498   */\n      dup4\n        /* \"#utility.yul\":17489:17493   */\n      dup4\n        /* \"#utility.yul\":17470:17499   */\n      tag_141\n      jump\t// in\n    tag_322:\n        /* \"#utility.yul\":17462:17499   */\n      swap2\n      pop\n        /* \"#utility.yul\":17532:17535   */\n      dup3\n        /* \"#utility.yul\":17529:17530   */\n      0x02\n        /* \"#utility.yul\":17525:17536   */\n      mul\n        /* \"#utility.yul\":17519:17523   */\n      dup3\n        /* \"#utility.yul\":17516:17537   */\n      or\n        /* \"#utility.yul\":17508:17537   */\n      swap1\n      pop\n        /* \"#utility.yul\":17248:17543   */\n      swap3\n      swap2\n      pop\n      pop\n      jump\t// out\n        /* \"#utility.yul\":17548:18943   */\n    tag_68:\n        /* \"#utility.yul\":17665:17702   */\n      tag_324\n        /* \"#utility.yul\":17698:17701   */\n      dup3\n        /* \"#utility.yul\":17665:17702   */\n      tag_95\n      jump\t// in\n    tag_324:\n        /* \"#utility.yul\":17767:17785   */\n      0xffffffffffffffff\n        /* \"#utility.yul\":17759:17765   */\n      dup2\n        /* \"#utility.yul\":17756:17786   */\n      gt\n        /* \"#utility.yul\":17753:17809   */\n      iszero\n      tag_325\n      jumpi\n        /* \"#utility.yul\":17789:17807   */\n      tag_326\n      tag_115\n      jump\t// in\n    tag_326:\n        /* \"#utility.yul\":17753:17809   */\n    tag_325:\n        /* \"#utility.yul\":17833:17871   */\n      tag_327\n        /* \"#utility.yul\":17865:17869   */\n      dup3\n        /* \"#utility.yul\":17859:17870   */\n      sload\n        /* \"#utility.yul\":17833:17871   */\n      tag_38\n      jump\t// in\n    tag_327:\n        /* \"#utility.yul\":17918:17985   */\n      tag_328\n        /* \"#utility.yul\":17978:17984   */\n      dup3\n        /* \"#utility.yul\":17970:17976   */\n      dup3\n        /* \"#utility.yul\":17964:17968   */\n      dup6\n        /* \"#utility.yul\":17918:17985   */\n      tag_139\n      jump\t// in\n    tag_328:\n        /* \"#utility.yul\":18012:18013   */\n      0x00\n        /* \"#utility.yul\":18036:18040   */\n      0x20\n        /* \"#utility.yul\":18023:18040   */\n      swap1\n      pop\n        /* \"#utility.yul\":18068:18070   */\n      0x1f\n        /* \"#utility.yul\":18060:18066   */\n      dup4\n        /* \"#utility.yul\":18057:18071   */\n      gt\n        /* \"#utility.yul\":18085:18086   */\n      0x01\n        /* \"#utility.yul\":18080:18698   */\n      dup2\n      eq\n      tag_330\n      jumpi\n        /* \"#utility.yul\":18742:18743   */\n      0x00\n        /* \"#utility.yul\":18759:18765   */\n      dup5\n        /* \"#utility.yul\":18756:18833   */\n      iszero\n      tag_331\n      jumpi\n        /* \"#utility.yul\":18808:18817   */\n      dup3\n        /* \"#utility.yul\":18803:18806   */\n      dup8\n        /* \"#utility.yul\":18799:18818   */\n      add\n        /* \"#utility.yul\":18793:18819   */\n      mload\n        /* \"#utility.yul\":18784:18819   */\n      swap1\n      pop\n        /* \"#utility.yul\":18756:18833   */\n    tag_331:\n        /* \"#utility.yul\":18859:18926   */\n      tag_332\n        /* \"#utility.yul\":18919:18925   */\n      dup6\n        /* \"#utility.yul\":18912:18917   */\n      dup3\n        /* \"#utility.yul\":18859:18926   */\n      tag_142\n      jump\t// in\n    tag_332:\n        /* \"#utility.yul\":18853:18857   */\n      dup7\n        /* \"#utility.yul\":18846:18927   */\n      sstore\n        /* \"#utility.yul\":18715:18937   */\n      pop\n        /* \"#utility.yul\":18050:18937   */\n      jump(tag_329)\n        /* \"#utility.yul\":18080:18698   */\n    tag_330:\n        /* \"#utility.yul\":18132:18136   */\n      0x1f\n        /* \"#utility.yul\":18128:18137   */\n      not\n        /* \"#utility.yul\":18120:18126   */\n      dup5\n        /* \"#utility.yul\":18116:18138   */\n      and\n        /* \"#utility.yul\":18166:18203   */\n      tag_333\n        /* \"#utility.yul\":18198:18202   */\n      dup7\n        /* \"#utility.yul\":18166:18203   */\n      tag_128\n      jump\t// in\n    tag_333:\n        /* \"#utility.yul\":18225:18226   */\n      0x00\n        /* \"#utility.yul\":18239:18447   */\n    tag_334:\n        /* \"#utility.yul\":18253:18260   */\n      dup3\n        /* \"#utility.yul\":18250:18251   */\n      dup2\n        /* \"#utility.yul\":18247:18261   */\n      lt\n        /* \"#utility.yul\":18239:18447   */\n      iszero\n      tag_336\n      jumpi\n        /* \"#utility.yul\":18332:18341   */\n      dup5\n        /* \"#utility.yul\":18327:18330   */\n      dup10\n        /* \"#utility.yul\":18323:18342   */\n      add\n        /* \"#utility.yul\":18317:18343   */\n      mload\n        /* \"#utility.yul\":18309:18315   */\n      dup3\n        /* \"#utility.yul\":18302:18344   */\n      sstore\n        /* \"#utility.yul\":18383:18384   */\n      0x01\n        /* \"#utility.yul\":18375:18381   */\n      dup3\n        /* \"#utility.yul\":18371:18385   */\n      add\n        /* \"#utility.yul\":18361:18385   */\n      swap2\n      pop\n        /* \"#utility.yul\":18430:18432   */\n      0x20\n        /* \"#utility.yul\":18419:18428   */\n      dup6\n        /* \"#utility.yul\":18415:18433   */\n      add\n        /* \"#utility.yul\":18402:18433   */\n      swap5\n      pop\n        /* \"#utility.yul\":18276:18280   */\n      0x20\n        /* \"#utility.yul\":18273:18274   */\n      dup2\n        /* \"#utility.yul\":18269:18281   */\n      add\n        /* \"#utility.yul\":18264:18281   */\n      swap1\n      pop\n        /* \"#utility.yul\":18239:18447   */\n      jump(tag_334)\n    tag_336:\n        /* \"#utility.yul\":18475:18481   */\n      dup7\n        /* \"#utility.yul\":18466:18473   */\n      dup4\n        /* \"#utility.yul\":18463:18482   */\n      lt\n        /* \"#utility.yul\":18460:18639   */\n      iszero\n      tag_337\n      jumpi\n        /* \"#utility.yul\":18533:18542   */\n      dup5\n        /* \"#utility.yul\":18528:18531   */\n      dup10\n        /* \"#utility.yul\":18524:18543   */\n      add\n        /* \"#utility.yul\":18518:18544   */\n      mload\n        /* \"#utility.yul\":18576:18624   */\n      tag_338\n        /* \"#utility.yul\":18618:18622   */\n      0x1f\n        /* \"#utility.yul\":18610:18616   */\n      dup10\n        /* \"#utility.yul\":18606:18623   */\n      and\n        /* \"#utility.yul\":18595:18604   */\n      dup3\n        /* \"#utility.yul\":18576:18624   */\n      tag_141\n      jump\t// in\n    tag_338:\n        /* \"#utility.yul\":18568:18574   */\n      dup4\n        /* \"#utility.yul\":18561:18625   */\n      sstore\n        /* \"#utility.yul\":18483:18639   */\n      pop\n        /* \"#utility.yul\":18460:18639   */\n    tag_337:\n        /* \"#utility.yul\":18685:18686   */\n      0x01\n        /* \"#utility.yul\":18681:18682   */\n      0x02\n        /* \"#utility.yul\":18673:18679   */\n      dup9\n        /* \"#utility.yul\":18669:18683   */\n      mul\n        /* \"#utility.yul\":18665:18687   */\n      add\n        /* \"#utility.yul\":18659:18663   */\n      dup9\n        /* \"#utility.yul\":18652:18688   */\n      sstore\n        /* \"#utility.yul\":18087:18698   */\n      pop\n      pop\n      pop\n        /* \"#utility.yul\":18050:18937   */\n    tag_329:\n      pop\n        /* \"#utility.yul\":17640:18943   */\n      pop\n      pop\n      pop\n        /* \"#utility.yul\":17548:18943   */\n      pop\n      pop\n      jump\t// out\n        /* \"#utility.yul\":18949:19117   */\n    tag_143:\n        /* \"#utility.yul\":19089:19109   */\n      0x4e6f206c696b657320746f2072656d6f76650000000000000000000000000000\n        /* \"#utility.yul\":19085:19086   */\n      0x00\n        /* \"#utility.yul\":19077:19083   */\n      dup3\n        /* \"#utility.yul\":19073:19087   */\n      add\n        /* \"#utility.yul\":19066:19110   */\n      mstore\n        /* \"#utility.yul\":18949:19117   */\n      pop\n      jump\t// out\n        /* \"#utility.yul\":19123:19489   */\n    tag_144:\n        /* \"#utility.yul\":19265:19268   */\n      0x00\n        /* \"#utility.yul\":19286:19353   */\n      tag_341\n        /* \"#utility.yul\":19350:19352   */\n      0x12\n        /* \"#utility.yul\":19345:19348   */\n      dup4\n        /* \"#utility.yul\":19286:19353   */\n      tag_96\n      jump\t// in\n    tag_341:\n        /* \"#utility.yul\":19279:19353   */\n      swap2\n      pop\n        /* \"#utility.yul\":19362:19455   */\n      tag_342\n        /* \"#utility.yul\":19451:19454   */\n      dup3\n        /* \"#utility.yul\":19362:19455   */\n      tag_143\n      jump\t// in\n    tag_342:\n        /* \"#utility.yul\":19480:19482   */\n      0x20\n        /* \"#utility.yul\":19475:19478   */\n      dup3\n        /* \"#utility.yul\":19471:19483   */\n      add\n        /* \"#utility.yul\":19464:19483   */\n      swap1\n      pop\n        /* \"#utility.yul\":19123:19489   */\n      swap2\n      swap1\n      pop\n      jump\t// out\n        /* \"#utility.yul\":19495:19914   */\n    tag_77:\n        /* \"#utility.yul\":19661:19665   */\n      0x00\n        /* \"#utility.yul\":19699:19701   */\n      0x20\n        /* \"#utility.yul\":19688:19697   */\n      dup3\n        /* \"#utility.yul\":19684:19702   */\n      add\n        /* \"#utility.yul\":19676:19702   */\n      swap1\n      pop\n        /* \"#utility.yul\":19748:19757   */\n      dup2\n        /* \"#utility.yul\":19742:19746   */\n      dup2\n        /* \"#utility.yul\":19738:19758   */\n      sub\n        /* \"#utility.yul\":19734:19735   */\n      0x00\n        /* \"#utility.yul\":19723:19732   */\n      dup4\n        /* \"#utility.yul\":19719:19736   */\n      add\n        /* \"#utility.yul\":19712:19759   */\n      mstore\n        /* \"#utility.yul\":19776:19907   */\n      tag_344\n        /* \"#utility.yul\":19902:19906   */\n      dup2\n        /* \"#utility.yul\":19776:19907   */\n      tag_144\n      jump\t// in\n    tag_344:\n        /* \"#utility.yul\":19768:19907   */\n      swap1\n      pop\n        /* \"#utility.yul\":19495:19914   */\n      swap2\n      swap1\n      pop\n      jump\t// out\n        /* \"#utility.yul\":19920:20091   */\n    tag_82:\n        /* \"#utility.yul\":19959:19962   */\n      0x00\n        /* \"#utility.yul\":19982:20006   */\n      tag_346\n        /* \"#utility.yul\":20000:20005   */\n      dup3\n        /* \"#utility.yul\":19982:20006   */\n      tag_90\n      jump\t// in\n    tag_346:\n        /* \"#utility.yul\":19973:20006   */\n      swap2\n      pop\n        /* \"#utility.yul\":20028:20032   */\n      0x00\n        /* \"#utility.yul\":20021:20026   */\n      dup3\n        /* \"#utility.yul\":20018:20033   */\n      sub\n        /* \"#utility.yul\":20015:20056   */\n      tag_347\n      jumpi\n        /* \"#utility.yul\":20036:20054   */\n      tag_348\n      tag_125\n      jump\t// in\n    tag_348:\n        /* \"#utility.yul\":20015:20056   */\n    tag_347:\n        /* \"#utility.yul\":20083:20084   */\n      0x01\n        /* \"#utility.yul\":20076:20081   */\n      dup3\n        /* \"#utility.yul\":20072:20085   */\n      sub\n        /* \"#utility.yul\":20065:20085   */\n      swap1\n      pop\n        /* \"#utility.yul\":19920:20091   */\n      swap2\n      swap1\n      pop\n      jump\t// out\n\n    auxdata: 0xa26469706673582212202b2d5736f365406f5d7a603d7c34afc53a1762c5d75c90928405de74c73105e564736f6c63430008120033\n}\n",
				"bytecode": {
					"linkReferences": {},
					"object": "60806040526101186000806101000a81548161ffff021916908361ffff16021790555034801561002e57600080fd5b506113138061003e6000396000f3fe608060405234801561001057600080fd5b50600436106100625760003560e01c806305a1b4a91461006757806312e7ee1c1461009b57806363378216146100cb5780636eb10797146100e75780637c9cd2bc14610105578063ae775e9514610121575b600080fd5b610081600480360381019061007c91906108ff565b61013d565b6040516100929594939291906109ed565b60405180910390f35b6100b560048036038101906100b09190610a47565b610238565b6040516100c29190610c14565b60405180910390f35b6100e560048036038101906100e091906108ff565b6103dc565b005b6100ef6104dc565b6040516100fc9190610c53565b60405180910390f35b61011f600480360381019061011a9190610da3565b6104ee565b005b61013b600480360381019061013691906108ff565b6106b2565b005b6001602052816000526040600020818154811061015957600080fd5b9060005260206000209060050201600091509150508060000154908060010160009054906101000a900473ffffffffffffffffffffffffffffffffffffffff16908060020180546101a990610e1b565b80601f01602080910402602001604051908101604052809291908181526020018280546101d590610e1b565b80156102225780601f106101f757610100808354040283529160200191610222565b820191906000526020600020905b81548152906001019060200180831161020557829003601f168201915b5050505050908060030154908060040154905085565b6060600160008373ffffffffffffffffffffffffffffffffffffffff1673ffffffffffffffffffffffffffffffffffffffff168152602001908152602001600020805480602002602001604051908101604052809291908181526020016000905b828210156103d157838290600052602060002090600502016040518060a0016040529081600082015481526020016001820160009054906101000a900473ffffffffffffffffffffffffffffffffffffffff1673ffffffffffffffffffffffffffffffffffffffff1673ffffffffffffffffffffffffffffffffffffffff16815260200160028201805461032c90610e1b565b80601f016020809104026020016040519081016040528092919081815260200182805461035890610e1b565b80156103a55780601f1061037a576101008083540402835291602001916103a5565b820191906000526020600020905b81548152906001019060200180831161038857829003601f168201915b505050505081526020016003820154815260200160048201548152505081526020019060010190610299565b505050509050919050565b600160008373ffffffffffffffffffffffffffffffffffffffff1673ffffffffffffffffffffffffffffffffffffffff168152602001908152602001600020805490508110610460576040517f08c379a000000000000000000000000000000000000000000000000000000000815260040161045790610e98565b60405180910390fd5b600160008373ffffffffffffffffffffffffffffffffffffffff1673ffffffffffffffffffffffffffffffffffffffff16815260200190815260200160002081815481106104b1576104b0610eb8565b5b906000526020600020906005020160040160008154809291906104d390610f16565b91905055505050565b60008054906101000a900461ffff1681565b60008054906101000a900461ffff1661ffff1681511115610544576040517f08c379a000000000000000000000000000000000000000000000000000000000815260040161053b90610faa565b60405180910390fd5b6000600160003373ffffffffffffffffffffffffffffffffffffffff1673ffffffffffffffffffffffffffffffffffffffff168152602001908152602001600020805490509050600160003373ffffffffffffffffffffffffffffffffffffffff1673ffffffffffffffffffffffffffffffffffffffff1681526020019081526020016000206040518060a001604052808381526020013373ffffffffffffffffffffffffffffffffffffffff168152602001848152602001428152602001600081525090806001815401808255809150506001900390600052602060002090600502016000909190919091506000820151816000015560208201518160010160006101000a81548173ffffffffffffffffffffffffffffffffffffffff021916908373ffffffffffffffffffffffffffffffffffffffff16021790555060408201518160020190816106979190611176565b50606082015181600301556080820151816004015550505050565b600160008373ffffffffffffffffffffffffffffffffffffffff1673ffffffffffffffffffffffffffffffffffffffff168152602001908152602001600020805490508110610736576040517f08c379a000000000000000000000000000000000000000000000000000000000815260040161072d90610e98565b60405180910390fd5b6000600160008473ffffffffffffffffffffffffffffffffffffffff1673ffffffffffffffffffffffffffffffffffffffff168152602001908152602001600020828154811061078957610788610eb8565b5b906000526020600020906005020160040154116107db576040517f08c379a00000000000000000000000000000000000000000000000000000000081526004016107d290611294565b60405180910390fd5b600160008373ffffffffffffffffffffffffffffffffffffffff1673ffffffffffffffffffffffffffffffffffffffff168152602001908152602001600020818154811061082c5761082b610eb8565b5b9060005260206000209060050201600401600081548092919061084e906112b4565b91905055505050565b6000604051905090565b600080fd5b600080fd5b600073ffffffffffffffffffffffffffffffffffffffff82169050919050565b60006108968261086b565b9050919050565b6108a68161088b565b81146108b157600080fd5b50565b6000813590506108c38161089d565b92915050565b6000819050919050565b6108dc816108c9565b81146108e757600080fd5b50565b6000813590506108f9816108d3565b92915050565b6000806040838503121561091657610915610861565b5b6000610924858286016108b4565b9250506020610935858286016108ea565b9150509250929050565b610948816108c9565b82525050565b6109578161088b565b82525050565b600081519050919050565b600082825260208201905092915050565b60005b8381101561099757808201518184015260208101905061097c565b60008484015250505050565b6000601f19601f8301169050919050565b60006109bf8261095d565b6109c98185610968565b93506109d9818560208601610979565b6109e2816109a3565b840191505092915050565b600060a082019050610a02600083018861093f565b610a0f602083018761094e565b8181036040830152610a2181866109b4565b9050610a30606083018561093f565b610a3d608083018461093f565b9695505050505050565b600060208284031215610a5d57610a5c610861565b5b6000610a6b848285016108b4565b91505092915050565b600081519050919050565b600082825260208201905092915050565b6000819050602082019050919050565b610aa9816108c9565b82525050565b610ab88161088b565b82525050565b600082825260208201905092915050565b6000610ada8261095d565b610ae48185610abe565b9350610af4818560208601610979565b610afd816109a3565b840191505092915050565b600060a083016000830151610b206000860182610aa0565b506020830151610b336020860182610aaf565b5060408301518482036040860152610b4b8282610acf565b9150506060830151610b606060860182610aa0565b506080830151610b736080860182610aa0565b508091505092915050565b6000610b8a8383610b08565b905092915050565b6000602082019050919050565b6000610baa82610a74565b610bb48185610a7f565b935083602082028501610bc685610a90565b8060005b85811015610c025784840389528151610be38582610b7e565b9450610bee83610b92565b925060208a01995050600181019050610bca565b50829750879550505050505092915050565b60006020820190508181036000830152610c2e8184610b9f565b905092915050565b600061ffff82169050919050565b610c4d81610c36565b82525050565b6000602082019050610c686000830184610c44565b92915050565b600080fd5b600080fd5b7f4e487b7100000000000000000000000000000000000000000000000000000000600052604160045260246000fd5b610cb0826109a3565b810181811067ffffffffffffffff82111715610ccf57610cce610c78565b5b80604052505050565b6000610ce2610857565b9050610cee8282610ca7565b919050565b600067ffffffffffffffff821115610d0e57610d0d610c78565b5b610d17826109a3565b9050602081019050919050565b82818337600083830152505050565b6000610d46610d4184610cf3565b610cd8565b905082815260208101848484011115610d6257610d61610c73565b5b610d6d848285610d24565b509392505050565b600082601f830112610d8a57610d89610c6e565b5b8135610d9a848260208601610d33565b91505092915050565b600060208284031215610db957610db8610861565b5b600082013567ffffffffffffffff811115610dd757610dd6610866565b5b610de384828501610d75565b91505092915050565b7f4e487b7100000000000000000000000000000000000000000000000000000000600052602260045260246000fd5b60006002820490506001821680610e3357607f821691505b602082108103610e4657610e45610dec565b5b50919050565b7f547765657420646f6573206e6f74206578697374000000000000000000000000600082015250565b6000610e82601483610968565b9150610e8d82610e4c565b602082019050919050565b60006020820190508181036000830152610eb181610e75565b9050919050565b7f4e487b7100000000000000000000000000000000000000000000000000000000600052603260045260246000fd5b7f4e487b7100000000000000000000000000000000000000000000000000000000600052601160045260246000fd5b6000610f21826108c9565b91507fffffffffffffffffffffffffffffffffffffffffffffffffffffffffffffffff8203610f5357610f52610ee7565b5b600182019050919050565b7f547765657420746f6f206c6f6e67210000000000000000000000000000000000600082015250565b6000610f94600f83610968565b9150610f9f82610f5e565b602082019050919050565b60006020820190508181036000830152610fc381610f87565b9050919050565b60008190508160005260206000209050919050565b60006020601f8301049050919050565b600082821b905092915050565b60006008830261102c7fffffffffffffffffffffffffffffffffffffffffffffffffffffffffffffffff82610fef565b6110368683610fef565b95508019841693508086168417925050509392505050565b6000819050919050565b600061107361106e611069846108c9565b61104e565b6108c9565b9050919050565b6000819050919050565b61108d83611058565b6110a16110998261107a565b848454610ffc565b825550505050565b600090565b6110b66110a9565b6110c1818484611084565b505050565b5b818110156110e5576110da6000826110ae565b6001810190506110c7565b5050565b601f82111561112a576110fb81610fca565b61110484610fdf565b81016020851015611113578190505b61112761111f85610fdf565b8301826110c6565b50505b505050565b600082821c905092915050565b600061114d6000198460080261112f565b1980831691505092915050565b6000611166838361113c565b9150826002028217905092915050565b61117f8261095d565b67ffffffffffffffff81111561119857611197610c78565b5b6111a28254610e1b565b6111ad8282856110e9565b600060209050601f8311600181146111e057600084156111ce578287015190505b6111d8858261115a565b865550611240565b601f1984166111ee86610fca565b60005b82811015611216578489015182556001820191506020850194506020810190506111f1565b86831015611233578489015161122f601f89168261113c565b8355505b6001600288020188555050505b505050505050565b7f4e6f206c696b657320746f2072656d6f76650000000000000000000000000000600082015250565b600061127e601283610968565b915061128982611248565b602082019050919050565b600060208201905081810360008301526112ad81611271565b9050919050565b60006112bf826108c9565b9150600082036112d2576112d1610ee7565b5b60018203905091905056fea26469706673582212202b2d5736f365406f5d7a603d7c34afc53a1762c5d75c90928405de74c73105e564736f6c63430008120033",
					"opcodes": "PUSH1 0x80 PUSH1 0x40 MSTORE PUSH2 0x118 PUSH1 0x0 DUP1 PUSH2 0x100 EXP DUP2 SLOAD DUP2 PUSH2 0xFFFF MUL NOT AND SWAP1 DUP4 PUSH2 0xFFFF AND MUL OR SWAP1 SSTORE POP CALLVALUE DUP1 ISZERO PUSH2 0x2E JUMPI PUSH1 0x0 DUP1 REVERT JUMPDEST POP PUSH2 0x1313 DUP1 PUSH2 0x3E PUSH1 0x0 CODECOPY PUSH1 0x0 RETURN INVALID PUSH1 0x80 PUSH1 0x40 MSTORE CALLVALUE DUP1 ISZERO PUSH2 0x10 JUMPI PUSH1 0x0 DUP1 REVERT JUMPDEST POP PUSH1 0x4 CALLDATASIZE LT PUSH2 0x62 JUMPI PUSH1 0x0 CALLDATALOAD PUSH1 0xE0 SHR DUP1 PUSH4 0x5A1B4A9 EQ PUSH2 0x67 JUMPI DUP1 PUSH4 0x12E7EE1C EQ PUSH2 0x9B JUMPI DUP1 PUSH4 0x63378216 EQ PUSH2 0xCB JUMPI DUP1 PUSH4 0x6EB10797 EQ PUSH2 0xE7 JUMPI DUP1 PUSH4 0x7C9CD2BC EQ PUSH2 0x105 JUMPI DUP1 PUSH4 0xAE775E95 EQ PUSH2 0x121 JUMPI JUMPDEST PUSH1 0x0 DUP1 REVERT JUMPDEST PUSH2 0x81 PUSH1 0x4 DUP1 CALLDATASIZE SUB DUP2 ADD SWAP1 PUSH2 0x7C SWAP2 SWAP1 PUSH2 0x8FF JUMP JUMPDEST PUSH2 0x13D JUMP JUMPDEST PUSH1 0x40 MLOAD PUSH2 0x92 SWAP6 SWAP5 SWAP4 SWAP3 SWAP2 SWAP1 PUSH2 0x9ED JUMP JUMPDEST PUSH1 0x40 MLOAD DUP1 SWAP2 SUB SWAP1 RETURN JUMPDEST PUSH2 0xB5 PUSH1 0x4 DUP1 CALLDATASIZE SUB DUP2 ADD SWAP1 PUSH2 0xB0 SWAP2 SWAP1 PUSH2 0xA47 JUMP JUMPDEST PUSH2 0x238 JUMP JUMPDEST PUSH1 0x40 MLOAD PUSH2 0xC2 SWAP2 SWAP1 PUSH2 0xC14 JUMP JUMPDEST PUSH1 0x40 MLOAD DUP1 SWAP2 SUB SWAP1 RETURN JUMPDEST PUSH2 0xE5 PUSH1 0x4 DUP1 CALLDATASIZE SUB DUP2 ADD SWAP1 PUSH2 0xE0 SWAP2 SWAP1 PUSH2 0x8FF JUMP JUMPDEST PUSH2 0x3DC JUMP JUMPDEST STOP JUMPDEST PUSH2 0xEF PUSH2 0x4DC JUMP JUMPDEST PUSH1 0x40 MLOAD PUSH2 0xFC SWAP2 SWAP1 PUSH2 0xC53 JUMP JUMPDEST PUSH1 0x40 MLOAD DUP1 SWAP2 SUB SWAP1 RETURN JUMPDEST PUSH2 0x11F PUSH1 0x4 DUP1 CALLDATASIZE SUB DUP2 ADD SWAP1 PUSH2 0x11A SWAP2 SWAP1 PUSH2 0xDA3 JUMP JUMPDEST PUSH2 0x4EE JUMP JUMPDEST STOP JUMPDEST PUSH2 0x13B PUSH1 0x4 DUP1 CALLDATASIZE SUB DUP2 ADD SWAP1 PUSH2 0x136 SWAP2 SWAP1 PUSH2 0x8FF JUMP JUMPDEST PUSH2 0x6B2 JUMP JUMPDEST STOP JUMPDEST PUSH1 0x1 PUSH1 0x20 MSTORE DUP2 PUSH1 0x0 MSTORE PUSH1 0x40 PUSH1 0x0 KECCAK256 DUP2 DUP2 SLOAD DUP2 LT PUSH2 0x159 JUMPI PUSH1 0x0 DUP1 REVERT JUMPDEST SWAP1 PUSH1 0x0 MSTORE PUSH1 0x20 PUSH1 0x0 KECCAK256 SWAP1 PUSH1 0x5 MUL ADD PUSH1 0x0 SWAP2 POP SWAP2 POP POP DUP1 PUSH1 0x0 ADD SLOAD SWAP1 DUP1 PUSH1 0x1 ADD PUSH1 0x0 SWAP1 SLOAD SWAP1 PUSH2 0x100 EXP SWAP1 DIV PUSH20 0xFFFFFFFFFFFFFFFFFFFFFFFFFFFFFFFFFFFFFFFF AND SWAP1 DUP1 PUSH1 0x2 ADD DUP1 SLOAD PUSH2 0x1A9 SWAP1 PUSH2 0xE1B JUMP JUMPDEST DUP1 PUSH1 0x1F ADD PUSH1 0x20 DUP1 SWAP2 DIV MUL PUSH1 0x20 ADD PUSH1 0x40 MLOAD SWAP1 DUP2 ADD PUSH1 0x40 MSTORE DUP1 SWAP3 SWAP2 SWAP1 DUP2 DUP2 MSTORE PUSH1 0x20 ADD DUP3 DUP1 SLOAD PUSH2 0x1D5 SWAP1 PUSH2 0xE1B JUMP JUMPDEST DUP1 ISZERO PUSH2 0x222 JUMPI DUP1 PUSH1 0x1F LT PUSH2 0x1F7 JUMPI PUSH2 0x100 DUP1 DUP4 SLOAD DIV MUL DUP4 MSTORE SWAP2 PUSH1 0x20 ADD SWAP2 PUSH2 0x222 JUMP JUMPDEST DUP3 ADD SWAP2 SWAP1 PUSH1 0x0 MSTORE PUSH1 0x20 PUSH1 0x0 KECCAK256 SWAP1 JUMPDEST DUP2 SLOAD DUP2 MSTORE SWAP1 PUSH1 0x1 ADD SWAP1 PUSH1 0x20 ADD DUP1 DUP4 GT PUSH2 0x205 JUMPI DUP3 SWAP1 SUB PUSH1 0x1F AND DUP3 ADD SWAP2 JUMPDEST POP POP POP POP POP SWAP1 DUP1 PUSH1 0x3 ADD SLOAD SWAP1 DUP1 PUSH1 0x4 ADD SLOAD SWAP1 POP DUP6 JUMP JUMPDEST PUSH1 0x60 PUSH1 0x1 PUSH1 0x0 DUP4 PUSH20 0xFFFFFFFFFFFFFFFFFFFFFFFFFFFFFFFFFFFFFFFF AND PUSH20 0xFFFFFFFFFFFFFFFFFFFFFFFFFFFFFFFFFFFFFFFF AND DUP2 MSTORE PUSH1 0x20 ADD SWAP1 DUP2 MSTORE PUSH1 0x20 ADD PUSH1 0x0 KECCAK256 DUP1 SLOAD DUP1 PUSH1 0x20 MUL PUSH1 0x20 ADD PUSH1 0x40 MLOAD SWAP1 DUP2 ADD PUSH1 0x40 MSTORE DUP1 SWAP3 SWAP2 SWAP1 DUP2 DUP2 MSTORE PUSH1 0x20 ADD PUSH1 0x0 SWAP1 JUMPDEST DUP3 DUP3 LT ISZERO PUSH2 0x3D1 JUMPI DUP4 DUP3 SWAP1 PUSH1 0x0 MSTORE PUSH1 0x20 PUSH1 0x0 KECCAK256 SWAP1 PUSH1 0x5 MUL ADD PUSH1 0x40 MLOAD DUP1 PUSH1 0xA0 ADD PUSH1 0x40 MSTORE SWAP1 DUP2 PUSH1 0x0 DUP3 ADD SLOAD DUP2 MSTORE PUSH1 0x20 ADD PUSH1 0x1 DUP3 ADD PUSH1 0x0 SWAP1 SLOAD SWAP1 PUSH2 0x100 EXP SWAP1 DIV PUSH20 0xFFFFFFFFFFFFFFFFFFFFFFFFFFFFFFFFFFFFFFFF AND PUSH20 0xFFFFFFFFFFFFFFFFFFFFFFFFFFFFFFFFFFFFFFFF AND PUSH20 0xFFFFFFFFFFFFFFFFFFFFFFFFFFFFFFFFFFFFFFFF AND DUP2 MSTORE PUSH1 0x20 ADD PUSH1 0x2 DUP3 ADD DUP1 SLOAD PUSH2 0x32C SWAP1 PUSH2 0xE1B JUMP JUMPDEST DUP1 PUSH1 0x1F ADD PUSH1 0x20 DUP1 SWAP2 DIV MUL PUSH1 0x20 ADD PUSH1 0x40 MLOAD SWAP1 DUP2 ADD PUSH1 0x40 MSTORE DUP1 SWAP3 SWAP2 SWAP1 DUP2 DUP2 MSTORE PUSH1 0x20 ADD DUP3 DUP1 SLOAD PUSH2 0x358 SWAP1 PUSH2 0xE1B JUMP JUMPDEST DUP1 ISZERO PUSH2 0x3A5 JUMPI DUP1 PUSH1 0x1F LT PUSH2 0x37A JUMPI PUSH2 0x100 DUP1 DUP4 SLOAD DIV MUL DUP4 MSTORE SWAP2 PUSH1 0x20 ADD SWAP2 PUSH2 0x3A5 JUMP JUMPDEST DUP3 ADD SWAP2 SWAP1 PUSH1 0x0 MSTORE PUSH1 0x20 PUSH1 0x0 KECCAK256 SWAP1 JUMPDEST DUP2 SLOAD DUP2 MSTORE SWAP1 PUSH1 0x1 ADD SWAP1 PUSH1 0x20 ADD DUP1 DUP4 GT PUSH2 0x388 JUMPI DUP3 SWAP1 SUB PUSH1 0x1F AND DUP3 ADD SWAP2 JUMPDEST POP POP POP POP POP DUP2 MSTORE PUSH1 0x20 ADD PUSH1 0x3 DUP3 ADD SLOAD DUP2 MSTORE PUSH1 0x20 ADD PUSH1 0x4 DUP3 ADD SLOAD DUP2 MSTORE POP POP DUP2 MSTORE PUSH1 0x20 ADD SWAP1 PUSH1 0x1 ADD SWAP1 PUSH2 0x299 JUMP JUMPDEST POP POP POP POP SWAP1 POP SWAP2 SWAP1 POP JUMP JUMPDEST PUSH1 0x1 PUSH1 0x0 DUP4 PUSH20 0xFFFFFFFFFFFFFFFFFFFFFFFFFFFFFFFFFFFFFFFF AND PUSH20 0xFFFFFFFFFFFFFFFFFFFFFFFFFFFFFFFFFFFFFFFF AND DUP2 MSTORE PUSH1 0x20 ADD SWAP1 DUP2 MSTORE PUSH1 0x20 ADD PUSH1 0x0 KECCAK256 DUP1 SLOAD SWAP1 POP DUP2 LT PUSH2 0x460 JUMPI PUSH1 0x40 MLOAD PUSH32 0x8C379A000000000000000000000000000000000000000000000000000000000 DUP2 MSTORE PUSH1 0x4 ADD PUSH2 0x457 SWAP1 PUSH2 0xE98 JUMP JUMPDEST PUSH1 0x40 MLOAD DUP1 SWAP2 SUB SWAP1 REVERT JUMPDEST PUSH1 0x1 PUSH1 0x0 DUP4 PUSH20 0xFFFFFFFFFFFFFFFFFFFFFFFFFFFFFFFFFFFFFFFF AND PUSH20 0xFFFFFFFFFFFFFFFFFFFFFFFFFFFFFFFFFFFFFFFF AND DUP2 MSTORE PUSH1 0x20 ADD SWAP1 DUP2 MSTORE PUSH1 0x20 ADD PUSH1 0x0 KECCAK256 DUP2 DUP2 SLOAD DUP2 LT PUSH2 0x4B1 JUMPI PUSH2 0x4B0 PUSH2 0xEB8 JUMP JUMPDEST JUMPDEST SWAP1 PUSH1 0x0 MSTORE PUSH1 0x20 PUSH1 0x0 KECCAK256 SWAP1 PUSH1 0x5 MUL ADD PUSH1 0x4 ADD PUSH1 0x0 DUP2 SLOAD DUP1 SWAP3 SWAP2 SWAP1 PUSH2 0x4D3 SWAP1 PUSH2 0xF16 JUMP JUMPDEST SWAP2 SWAP1 POP SSTORE POP POP POP JUMP JUMPDEST PUSH1 0x0 DUP1 SLOAD SWAP1 PUSH2 0x100 EXP SWAP1 DIV PUSH2 0xFFFF AND DUP2 JUMP JUMPDEST PUSH1 0x0 DUP1 SLOAD SWAP1 PUSH2 0x100 EXP SWAP1 DIV PUSH2 0xFFFF AND PUSH2 0xFFFF AND DUP2 MLOAD GT ISZERO PUSH2 0x544 JUMPI PUSH1 0x40 MLOAD PUSH32 0x8C379A000000000000000000000000000000000000000000000000000000000 DUP2 MSTORE PUSH1 0x4 ADD PUSH2 0x53B SWAP1 PUSH2 0xFAA JUMP JUMPDEST PUSH1 0x40 MLOAD DUP1 SWAP2 SUB SWAP1 REVERT JUMPDEST PUSH1 0x0 PUSH1 0x1 PUSH1 0x0 CALLER PUSH20 0xFFFFFFFFFFFFFFFFFFFFFFFFFFFFFFFFFFFFFFFF AND PUSH20 0xFFFFFFFFFFFFFFFFFFFFFFFFFFFFFFFFFFFFFFFF AND DUP2 MSTORE PUSH1 0x20 ADD SWAP1 DUP2 MSTORE PUSH1 0x20 ADD PUSH1 0x0 KECCAK256 DUP1 SLOAD SWAP1 POP SWAP1 POP PUSH1 0x1 PUSH1 0x0 CALLER PUSH20 0xFFFFFFFFFFFFFFFFFFFFFFFFFFFFFFFFFFFFFFFF AND PUSH20 0xFFFFFFFFFFFFFFFFFFFFFFFFFFFFFFFFFFFFFFFF AND DUP2 MSTORE PUSH1 0x20 ADD SWAP1 DUP2 MSTORE PUSH1 0x20 ADD PUSH1 0x0 KECCAK256 PUSH1 0x40 MLOAD DUP1 PUSH1 0xA0 ADD PUSH1 0x40 MSTORE DUP1 DUP4 DUP2 MSTORE PUSH1 0x20 ADD CALLER PUSH20 0xFFFFFFFFFFFFFFFFFFFFFFFFFFFFFFFFFFFFFFFF AND DUP2 MSTORE PUSH1 0x20 ADD DUP5 DUP2 MSTORE PUSH1 0x20 ADD TIMESTAMP DUP2 MSTORE PUSH1 0x20 ADD PUSH1 0x0 DUP2 MSTORE POP SWAP1 DUP1 PUSH1 0x1 DUP2 SLOAD ADD DUP1 DUP3 SSTORE DUP1 SWAP2 POP POP PUSH1 0x1 SWAP1 SUB SWAP1 PUSH1 0x0 MSTORE PUSH1 0x20 PUSH1 0x0 KECCAK256 SWAP1 PUSH1 0x5 MUL ADD PUSH1 0x0 SWAP1 SWAP2 SWAP1 SWAP2 SWAP1 SWAP2 POP PUSH1 0x0 DUP3 ADD MLOAD DUP2 PUSH1 0x0 ADD SSTORE PUSH1 0x20 DUP3 ADD MLOAD DUP2 PUSH1 0x1 ADD PUSH1 0x0 PUSH2 0x100 EXP DUP2 SLOAD DUP2 PUSH20 0xFFFFFFFFFFFFFFFFFFFFFFFFFFFFFFFFFFFFFFFF MUL NOT AND SWAP1 DUP4 PUSH20 0xFFFFFFFFFFFFFFFFFFFFFFFFFFFFFFFFFFFFFFFF AND MUL OR SWAP1 SSTORE POP PUSH1 0x40 DUP3 ADD MLOAD DUP2 PUSH1 0x2 ADD SWAP1 DUP2 PUSH2 0x697 SWAP2 SWAP1 PUSH2 0x1176 JUMP JUMPDEST POP PUSH1 0x60 DUP3 ADD MLOAD DUP2 PUSH1 0x3 ADD SSTORE PUSH1 0x80 DUP3 ADD MLOAD DUP2 PUSH1 0x4 ADD SSTORE POP POP POP POP JUMP JUMPDEST PUSH1 0x1 PUSH1 0x0 DUP4 PUSH20 0xFFFFFFFFFFFFFFFFFFFFFFFFFFFFFFFFFFFFFFFF AND PUSH20 0xFFFFFFFFFFFFFFFFFFFFFFFFFFFFFFFFFFFFFFFF AND DUP2 MSTORE PUSH1 0x20 ADD SWAP1 DUP2 MSTORE PUSH1 0x20 ADD PUSH1 0x0 KECCAK256 DUP1 SLOAD SWAP1 POP DUP2 LT PUSH2 0x736 JUMPI PUSH1 0x40 MLOAD PUSH32 0x8C379A000000000000000000000000000000000000000000000000000000000 DUP2 MSTORE PUSH1 0x4 ADD PUSH2 0x72D SWAP1 PUSH2 0xE98 JUMP JUMPDEST PUSH1 0x40 MLOAD DUP1 SWAP2 SUB SWAP1 REVERT JUMPDEST PUSH1 0x0 PUSH1 0x1 PUSH1 0x0 DUP5 PUSH20 0xFFFFFFFFFFFFFFFFFFFFFFFFFFFFFFFFFFFFFFFF AND PUSH20 0xFFFFFFFFFFFFFFFFFFFFFFFFFFFFFFFFFFFFFFFF AND DUP2 MSTORE PUSH1 0x20 ADD SWAP1 DUP2 MSTORE PUSH1 0x20 ADD PUSH1 0x0 KECCAK256 DUP3 DUP2 SLOAD DUP2 LT PUSH2 0x789 JUMPI PUSH2 0x788 PUSH2 0xEB8 JUMP JUMPDEST JUMPDEST SWAP1 PUSH1 0x0 MSTORE PUSH1 0x20 PUSH1 0x0 KECCAK256 SWAP1 PUSH1 0x5 MUL ADD PUSH1 0x4 ADD SLOAD GT PUSH2 0x7DB JUMPI PUSH1 0x40 MLOAD PUSH32 0x8C379A000000000000000000000000000000000000000000000000000000000 DUP2 MSTORE PUSH1 0x4 ADD PUSH2 0x7D2 SWAP1 PUSH2 0x1294 JUMP JUMPDEST PUSH1 0x40 MLOAD DUP1 SWAP2 SUB SWAP1 REVERT JUMPDEST PUSH1 0x1 PUSH1 0x0 DUP4 PUSH20 0xFFFFFFFFFFFFFFFFFFFFFFFFFFFFFFFFFFFFFFFF AND PUSH20 0xFFFFFFFFFFFFFFFFFFFFFFFFFFFFFFFFFFFFFFFF AND DUP2 MSTORE PUSH1 0x20 ADD SWAP1 DUP2 MSTORE PUSH1 0x20 ADD PUSH1 0x0 KECCAK256 DUP2 DUP2 SLOAD DUP2 LT PUSH2 0x82C JUMPI PUSH2 0x82B PUSH2 0xEB8 JUMP JUMPDEST JUMPDEST SWAP1 PUSH1 0x0 MSTORE PUSH1 0x20 PUSH1 0x0 KECCAK256 SWAP1 PUSH1 0x5 MUL ADD PUSH1 0x4 ADD PUSH1 0x0 DUP2 SLOAD DUP1 SWAP3 SWAP2 SWAP1 PUSH2 0x84E SWAP1 PUSH2 0x12B4 JUMP JUMPDEST SWAP2 SWAP1 POP SSTORE POP POP POP JUMP JUMPDEST PUSH1 0x0 PUSH1 0x40 MLOAD SWAP1 POP SWAP1 JUMP JUMPDEST PUSH1 0x0 DUP1 REVERT JUMPDEST PUSH1 0x0 DUP1 REVERT JUMPDEST PUSH1 0x0 PUSH20 0xFFFFFFFFFFFFFFFFFFFFFFFFFFFFFFFFFFFFFFFF DUP3 AND SWAP1 POP SWAP2 SWAP1 POP JUMP JUMPDEST PUSH1 0x0 PUSH2 0x896 DUP3 PUSH2 0x86B JUMP JUMPDEST SWAP1 POP SWAP2 SWAP1 POP JUMP JUMPDEST PUSH2 0x8A6 DUP2 PUSH2 0x88B JUMP JUMPDEST DUP2 EQ PUSH2 0x8B1 JUMPI PUSH1 0x0 DUP1 REVERT JUMPDEST POP JUMP JUMPDEST PUSH1 0x0 DUP2 CALLDATALOAD SWAP1 POP PUSH2 0x8C3 DUP2 PUSH2 0x89D JUMP JUMPDEST SWAP3 SWAP2 POP POP JUMP JUMPDEST PUSH1 0x0 DUP2 SWAP1 POP SWAP2 SWAP1 POP JUMP JUMPDEST PUSH2 0x8DC DUP2 PUSH2 0x8C9 JUMP JUMPDEST DUP2 EQ PUSH2 0x8E7 JUMPI PUSH1 0x0 DUP1 REVERT JUMPDEST POP JUMP JUMPDEST PUSH1 0x0 DUP2 CALLDATALOAD SWAP1 POP PUSH2 0x8F9 DUP2 PUSH2 0x8D3 JUMP JUMPDEST SWAP3 SWAP2 POP POP JUMP JUMPDEST PUSH1 0x0 DUP1 PUSH1 0x40 DUP4 DUP6 SUB SLT ISZERO PUSH2 0x916 JUMPI PUSH2 0x915 PUSH2 0x861 JUMP JUMPDEST JUMPDEST PUSH1 0x0 PUSH2 0x924 DUP6 DUP3 DUP7 ADD PUSH2 0x8B4 JUMP JUMPDEST SWAP3 POP POP PUSH1 0x20 PUSH2 0x935 DUP6 DUP3 DUP7 ADD PUSH2 0x8EA JUMP JUMPDEST SWAP2 POP POP SWAP3 POP SWAP3 SWAP1 POP JUMP JUMPDEST PUSH2 0x948 DUP2 PUSH2 0x8C9 JUMP JUMPDEST DUP3 MSTORE POP POP JUMP JUMPDEST PUSH2 0x957 DUP2 PUSH2 0x88B JUMP JUMPDEST DUP3 MSTORE POP POP JUMP JUMPDEST PUSH1 0x0 DUP2 MLOAD SWAP1 POP SWAP2 SWAP1 POP JUMP JUMPDEST PUSH1 0x0 DUP3 DUP3 MSTORE PUSH1 0x20 DUP3 ADD SWAP1 POP SWAP3 SWAP2 POP POP JUMP JUMPDEST PUSH1 0x0 JUMPDEST DUP4 DUP2 LT ISZERO PUSH2 0x997 JUMPI DUP1 DUP3 ADD MLOAD DUP2 DUP5 ADD MSTORE PUSH1 0x20 DUP2 ADD SWAP1 POP PUSH2 0x97C JUMP JUMPDEST PUSH1 0x0 DUP5 DUP5 ADD MSTORE POP POP POP POP JUMP JUMPDEST PUSH1 0x0 PUSH1 0x1F NOT PUSH1 0x1F DUP4 ADD AND SWAP1 POP SWAP2 SWAP1 POP JUMP JUMPDEST PUSH1 0x0 PUSH2 0x9BF DUP3 PUSH2 0x95D JUMP JUMPDEST PUSH2 0x9C9 DUP2 DUP6 PUSH2 0x968 JUMP JUMPDEST SWAP4 POP PUSH2 0x9D9 DUP2 DUP6 PUSH1 0x20 DUP7 ADD PUSH2 0x979 JUMP JUMPDEST PUSH2 0x9E2 DUP2 PUSH2 0x9A3 JUMP JUMPDEST DUP5 ADD SWAP2 POP POP SWAP3 SWAP2 POP POP JUMP JUMPDEST PUSH1 0x0 PUSH1 0xA0 DUP3 ADD SWAP1 POP PUSH2 0xA02 PUSH1 0x0 DUP4 ADD DUP9 PUSH2 0x93F JUMP JUMPDEST PUSH2 0xA0F PUSH1 0x20 DUP4 ADD DUP8 PUSH2 0x94E JUMP JUMPDEST DUP2 DUP2 SUB PUSH1 0x40 DUP4 ADD MSTORE PUSH2 0xA21 DUP2 DUP7 PUSH2 0x9B4 JUMP JUMPDEST SWAP1 POP PUSH2 0xA30 PUSH1 0x60 DUP4 ADD DUP6 PUSH2 0x93F JUMP JUMPDEST PUSH2 0xA3D PUSH1 0x80 DUP4 ADD DUP5 PUSH2 0x93F JUMP JUMPDEST SWAP7 SWAP6 POP POP POP POP POP POP JUMP JUMPDEST PUSH1 0x0 PUSH1 0x20 DUP3 DUP5 SUB SLT ISZERO PUSH2 0xA5D JUMPI PUSH2 0xA5C PUSH2 0x861 JUMP JUMPDEST JUMPDEST PUSH1 0x0 PUSH2 0xA6B DUP5 DUP3 DUP6 ADD PUSH2 0x8B4 JUMP JUMPDEST SWAP2 POP POP SWAP3 SWAP2 POP POP JUMP JUMPDEST PUSH1 0x0 DUP2 MLOAD SWAP1 POP SWAP2 SWAP1 POP JUMP JUMPDEST PUSH1 0x0 DUP3 DUP3 MSTORE PUSH1 0x20 DUP3 ADD SWAP1 POP SWAP3 SWAP2 POP POP JUMP JUMPDEST PUSH1 0x0 DUP2 SWAP1 POP PUSH1 0x20 DUP3 ADD SWAP1 POP SWAP2 SWAP1 POP JUMP JUMPDEST PUSH2 0xAA9 DUP2 PUSH2 0x8C9 JUMP JUMPDEST DUP3 MSTORE POP POP JUMP JUMPDEST PUSH2 0xAB8 DUP2 PUSH2 0x88B JUMP JUMPDEST DUP3 MSTORE POP POP JUMP JUMPDEST PUSH1 0x0 DUP3 DUP3 MSTORE PUSH1 0x20 DUP3 ADD SWAP1 POP SWAP3 SWAP2 POP POP JUMP JUMPDEST PUSH1 0x0 PUSH2 0xADA DUP3 PUSH2 0x95D JUMP JUMPDEST PUSH2 0xAE4 DUP2 DUP6 PUSH2 0xABE JUMP JUMPDEST SWAP4 POP PUSH2 0xAF4 DUP2 DUP6 PUSH1 0x20 DUP7 ADD PUSH2 0x979 JUMP JUMPDEST PUSH2 0xAFD DUP2 PUSH2 0x9A3 JUMP JUMPDEST DUP5 ADD SWAP2 POP POP SWAP3 SWAP2 POP POP JUMP JUMPDEST PUSH1 0x0 PUSH1 0xA0 DUP4 ADD PUSH1 0x0 DUP4 ADD MLOAD PUSH2 0xB20 PUSH1 0x0 DUP7 ADD DUP3 PUSH2 0xAA0 JUMP JUMPDEST POP PUSH1 0x20 DUP4 ADD MLOAD PUSH2 0xB33 PUSH1 0x20 DUP7 ADD DUP3 PUSH2 0xAAF JUMP JUMPDEST POP PUSH1 0x40 DUP4 ADD MLOAD DUP5 DUP3 SUB PUSH1 0x40 DUP7 ADD MSTORE PUSH2 0xB4B DUP3 DUP3 PUSH2 0xACF JUMP JUMPDEST SWAP2 POP POP PUSH1 0x60 DUP4 ADD MLOAD PUSH2 0xB60 PUSH1 0x60 DUP7 ADD DUP3 PUSH2 0xAA0 JUMP JUMPDEST POP PUSH1 0x80 DUP4 ADD MLOAD PUSH2 0xB73 PUSH1 0x80 DUP7 ADD DUP3 PUSH2 0xAA0 JUMP JUMPDEST POP DUP1 SWAP2 POP POP SWAP3 SWAP2 POP POP JUMP JUMPDEST PUSH1 0x0 PUSH2 0xB8A DUP4 DUP4 PUSH2 0xB08 JUMP JUMPDEST SWAP1 POP SWAP3 SWAP2 POP POP JUMP JUMPDEST PUSH1 0x0 PUSH1 0x20 DUP3 ADD SWAP1 POP SWAP2 SWAP1 POP JUMP JUMPDEST PUSH1 0x0 PUSH2 0xBAA DUP3 PUSH2 0xA74 JUMP JUMPDEST PUSH2 0xBB4 DUP2 DUP6 PUSH2 0xA7F JUMP JUMPDEST SWAP4 POP DUP4 PUSH1 0x20 DUP3 MUL DUP6 ADD PUSH2 0xBC6 DUP6 PUSH2 0xA90 JUMP JUMPDEST DUP1 PUSH1 0x0 JUMPDEST DUP6 DUP2 LT ISZERO PUSH2 0xC02 JUMPI DUP5 DUP5 SUB DUP10 MSTORE DUP2 MLOAD PUSH2 0xBE3 DUP6 DUP3 PUSH2 0xB7E JUMP JUMPDEST SWAP5 POP PUSH2 0xBEE DUP4 PUSH2 0xB92 JUMP JUMPDEST SWAP3 POP PUSH1 0x20 DUP11 ADD SWAP10 POP POP PUSH1 0x1 DUP2 ADD SWAP1 POP PUSH2 0xBCA JUMP JUMPDEST POP DUP3 SWAP8 POP DUP8 SWAP6 POP POP POP POP POP POP SWAP3 SWAP2 POP POP JUMP JUMPDEST PUSH1 0x0 PUSH1 0x20 DUP3 ADD SWAP1 POP DUP2 DUP2 SUB PUSH1 0x0 DUP4 ADD MSTORE PUSH2 0xC2E DUP2 DUP5 PUSH2 0xB9F JUMP JUMPDEST SWAP1 POP SWAP3 SWAP2 POP POP JUMP JUMPDEST PUSH1 0x0 PUSH2 0xFFFF DUP3 AND SWAP1 POP SWAP2 SWAP1 POP JUMP JUMPDEST PUSH2 0xC4D DUP2 PUSH2 0xC36 JUMP JUMPDEST DUP3 MSTORE POP POP JUMP JUMPDEST PUSH1 0x0 PUSH1 0x20 DUP3 ADD SWAP1 POP PUSH2 0xC68 PUSH1 0x0 DUP4 ADD DUP5 PUSH2 0xC44 JUMP JUMPDEST SWAP3 SWAP2 POP POP JUMP JUMPDEST PUSH1 0x0 DUP1 REVERT JUMPDEST PUSH1 0x0 DUP1 REVERT JUMPDEST PUSH32 0x4E487B7100000000000000000000000000000000000000000000000000000000 PUSH1 0x0 MSTORE PUSH1 0x41 PUSH1 0x4 MSTORE PUSH1 0x24 PUSH1 0x0 REVERT JUMPDEST PUSH2 0xCB0 DUP3 PUSH2 0x9A3 JUMP JUMPDEST DUP2 ADD DUP2 DUP2 LT PUSH8 0xFFFFFFFFFFFFFFFF DUP3 GT OR ISZERO PUSH2 0xCCF JUMPI PUSH2 0xCCE PUSH2 0xC78 JUMP JUMPDEST JUMPDEST DUP1 PUSH1 0x40 MSTORE POP POP POP JUMP JUMPDEST PUSH1 0x0 PUSH2 0xCE2 PUSH2 0x857 JUMP JUMPDEST SWAP1 POP PUSH2 0xCEE DUP3 DUP3 PUSH2 0xCA7 JUMP JUMPDEST SWAP2 SWAP1 POP JUMP JUMPDEST PUSH1 0x0 PUSH8 0xFFFFFFFFFFFFFFFF DUP3 GT ISZERO PUSH2 0xD0E JUMPI PUSH2 0xD0D PUSH2 0xC78 JUMP JUMPDEST JUMPDEST PUSH2 0xD17 DUP3 PUSH2 0x9A3 JUMP JUMPDEST SWAP1 POP PUSH1 0x20 DUP2 ADD SWAP1 POP SWAP2 SWAP1 POP JUMP JUMPDEST DUP3 DUP2 DUP4 CALLDATACOPY PUSH1 0x0 DUP4 DUP4 ADD MSTORE POP POP POP JUMP JUMPDEST PUSH1 0x0 PUSH2 0xD46 PUSH2 0xD41 DUP5 PUSH2 0xCF3 JUMP JUMPDEST PUSH2 0xCD8 JUMP JUMPDEST SWAP1 POP DUP3 DUP2 MSTORE PUSH1 0x20 DUP2 ADD DUP5 DUP5 DUP5 ADD GT ISZERO PUSH2 0xD62 JUMPI PUSH2 0xD61 PUSH2 0xC73 JUMP JUMPDEST JUMPDEST PUSH2 0xD6D DUP5 DUP3 DUP6 PUSH2 0xD24 JUMP JUMPDEST POP SWAP4 SWAP3 POP POP POP JUMP JUMPDEST PUSH1 0x0 DUP3 PUSH1 0x1F DUP4 ADD SLT PUSH2 0xD8A JUMPI PUSH2 0xD89 PUSH2 0xC6E JUMP JUMPDEST JUMPDEST DUP2 CALLDATALOAD PUSH2 0xD9A DUP5 DUP3 PUSH1 0x20 DUP7 ADD PUSH2 0xD33 JUMP JUMPDEST SWAP2 POP POP SWAP3 SWAP2 POP POP JUMP JUMPDEST PUSH1 0x0 PUSH1 0x20 DUP3 DUP5 SUB SLT ISZERO PUSH2 0xDB9 JUMPI PUSH2 0xDB8 PUSH2 0x861 JUMP JUMPDEST JUMPDEST PUSH1 0x0 DUP3 ADD CALLDATALOAD PUSH8 0xFFFFFFFFFFFFFFFF DUP2 GT ISZERO PUSH2 0xDD7 JUMPI PUSH2 0xDD6 PUSH2 0x866 JUMP JUMPDEST JUMPDEST PUSH2 0xDE3 DUP5 DUP3 DUP6 ADD PUSH2 0xD75 JUMP JUMPDEST SWAP2 POP POP SWAP3 SWAP2 POP POP JUMP JUMPDEST PUSH32 0x4E487B7100000000000000000000000000000000000000000000000000000000 PUSH1 0x0 MSTORE PUSH1 0x22 PUSH1 0x4 MSTORE PUSH1 0x24 PUSH1 0x0 REVERT JUMPDEST PUSH1 0x0 PUSH1 0x2 DUP3 DIV SWAP1 POP PUSH1 0x1 DUP3 AND DUP1 PUSH2 0xE33 JUMPI PUSH1 0x7F DUP3 AND SWAP2 POP JUMPDEST PUSH1 0x20 DUP3 LT DUP2 SUB PUSH2 0xE46 JUMPI PUSH2 0xE45 PUSH2 0xDEC JUMP JUMPDEST JUMPDEST POP SWAP2 SWAP1 POP JUMP JUMPDEST PUSH32 0x547765657420646F6573206E6F74206578697374000000000000000000000000 PUSH1 0x0 DUP3 ADD MSTORE POP JUMP JUMPDEST PUSH1 0x0 PUSH2 0xE82 PUSH1 0x14 DUP4 PUSH2 0x968 JUMP JUMPDEST SWAP2 POP PUSH2 0xE8D DUP3 PUSH2 0xE4C JUMP JUMPDEST PUSH1 0x20 DUP3 ADD SWAP1 POP SWAP2 SWAP1 POP JUMP JUMPDEST PUSH1 0x0 PUSH1 0x20 DUP3 ADD SWAP1 POP DUP2 DUP2 SUB PUSH1 0x0 DUP4 ADD MSTORE PUSH2 0xEB1 DUP2 PUSH2 0xE75 JUMP JUMPDEST SWAP1 POP SWAP2 SWAP1 POP JUMP JUMPDEST PUSH32 0x4E487B7100000000000000000000000000000000000000000000000000000000 PUSH1 0x0 MSTORE PUSH1 0x32 PUSH1 0x4 MSTORE PUSH1 0x24 PUSH1 0x0 REVERT JUMPDEST PUSH32 0x4E487B7100000000000000000000000000000000000000000000000000000000 PUSH1 0x0 MSTORE PUSH1 0x11 PUSH1 0x4 MSTORE PUSH1 0x24 PUSH1 0x0 REVERT JUMPDEST PUSH1 0x0 PUSH2 0xF21 DUP3 PUSH2 0x8C9 JUMP JUMPDEST SWAP2 POP PUSH32 0xFFFFFFFFFFFFFFFFFFFFFFFFFFFFFFFFFFFFFFFFFFFFFFFFFFFFFFFFFFFFFFFF DUP3 SUB PUSH2 0xF53 JUMPI PUSH2 0xF52 PUSH2 0xEE7 JUMP JUMPDEST JUMPDEST PUSH1 0x1 DUP3 ADD SWAP1 POP SWAP2 SWAP1 POP JUMP JUMPDEST PUSH32 0x547765657420746F6F206C6F6E67210000000000000000000000000000000000 PUSH1 0x0 DUP3 ADD MSTORE POP JUMP JUMPDEST PUSH1 0x0 PUSH2 0xF94 PUSH1 0xF DUP4 PUSH2 0x968 JUMP JUMPDEST SWAP2 POP PUSH2 0xF9F DUP3 PUSH2 0xF5E JUMP JUMPDEST PUSH1 0x20 DUP3 ADD SWAP1 POP SWAP2 SWAP1 POP JUMP JUMPDEST PUSH1 0x0 PUSH1 0x20 DUP3 ADD SWAP1 POP DUP2 DUP2 SUB PUSH1 0x0 DUP4 ADD MSTORE PUSH2 0xFC3 DUP2 PUSH2 0xF87 JUMP JUMPDEST SWAP1 POP SWAP2 SWAP1 POP JUMP JUMPDEST PUSH1 0x0 DUP2 SWAP1 POP DUP2 PUSH1 0x0 MSTORE PUSH1 0x20 PUSH1 0x0 KECCAK256 SWAP1 POP SWAP2 SWAP1 POP JUMP JUMPDEST PUSH1 0x0 PUSH1 0x20 PUSH1 0x1F DUP4 ADD DIV SWAP1 POP SWAP2 SWAP1 POP JUMP JUMPDEST PUSH1 0x0 DUP3 DUP3 SHL SWAP1 POP SWAP3 SWAP2 POP POP JUMP JUMPDEST PUSH1 0x0 PUSH1 0x8 DUP4 MUL PUSH2 0x102C PUSH32 0xFFFFFFFFFFFFFFFFFFFFFFFFFFFFFFFFFFFFFFFFFFFFFFFFFFFFFFFFFFFFFFFF DUP3 PUSH2 0xFEF JUMP JUMPDEST PUSH2 0x1036 DUP7 DUP4 PUSH2 0xFEF JUMP JUMPDEST SWAP6 POP DUP1 NOT DUP5 AND SWAP4 POP DUP1 DUP7 AND DUP5 OR SWAP3 POP POP POP SWAP4 SWAP3 POP POP POP JUMP JUMPDEST PUSH1 0x0 DUP2 SWAP1 POP SWAP2 SWAP1 POP JUMP JUMPDEST PUSH1 0x0 PUSH2 0x1073 PUSH2 0x106E PUSH2 0x1069 DUP5 PUSH2 0x8C9 JUMP JUMPDEST PUSH2 0x104E JUMP JUMPDEST PUSH2 0x8C9 JUMP JUMPDEST SWAP1 POP SWAP2 SWAP1 POP JUMP JUMPDEST PUSH1 0x0 DUP2 SWAP1 POP SWAP2 SWAP1 POP JUMP JUMPDEST PUSH2 0x108D DUP4 PUSH2 0x1058 JUMP JUMPDEST PUSH2 0x10A1 PUSH2 0x1099 DUP3 PUSH2 0x107A JUMP JUMPDEST DUP5 DUP5 SLOAD PUSH2 0xFFC JUMP JUMPDEST DUP3 SSTORE POP POP POP POP JUMP JUMPDEST PUSH1 0x0 SWAP1 JUMP JUMPDEST PUSH2 0x10B6 PUSH2 0x10A9 JUMP JUMPDEST PUSH2 0x10C1 DUP2 DUP5 DUP5 PUSH2 0x1084 JUMP JUMPDEST POP POP POP JUMP JUMPDEST JUMPDEST DUP2 DUP2 LT ISZERO PUSH2 0x10E5 JUMPI PUSH2 0x10DA PUSH1 0x0 DUP3 PUSH2 0x10AE JUMP JUMPDEST PUSH1 0x1 DUP2 ADD SWAP1 POP PUSH2 0x10C7 JUMP JUMPDEST POP POP JUMP JUMPDEST PUSH1 0x1F DUP3 GT ISZERO PUSH2 0x112A JUMPI PUSH2 0x10FB DUP2 PUSH2 0xFCA JUMP JUMPDEST PUSH2 0x1104 DUP5 PUSH2 0xFDF JUMP JUMPDEST DUP2 ADD PUSH1 0x20 DUP6 LT ISZERO PUSH2 0x1113 JUMPI DUP2 SWAP1 POP JUMPDEST PUSH2 0x1127 PUSH2 0x111F DUP6 PUSH2 0xFDF JUMP JUMPDEST DUP4 ADD DUP3 PUSH2 0x10C6 JUMP JUMPDEST POP POP JUMPDEST POP POP POP JUMP JUMPDEST PUSH1 0x0 DUP3 DUP3 SHR SWAP1 POP SWAP3 SWAP2 POP POP JUMP JUMPDEST PUSH1 0x0 PUSH2 0x114D PUSH1 0x0 NOT DUP5 PUSH1 0x8 MUL PUSH2 0x112F JUMP JUMPDEST NOT DUP1 DUP4 AND SWAP2 POP POP SWAP3 SWAP2 POP POP JUMP JUMPDEST PUSH1 0x0 PUSH2 0x1166 DUP4 DUP4 PUSH2 0x113C JUMP JUMPDEST SWAP2 POP DUP3 PUSH1 0x2 MUL DUP3 OR SWAP1 POP SWAP3 SWAP2 POP POP JUMP JUMPDEST PUSH2 0x117F DUP3 PUSH2 0x95D JUMP JUMPDEST PUSH8 0xFFFFFFFFFFFFFFFF DUP2 GT ISZERO PUSH2 0x1198 JUMPI PUSH2 0x1197 PUSH2 0xC78 JUMP JUMPDEST JUMPDEST PUSH2 0x11A2 DUP3 SLOAD PUSH2 0xE1B JUMP JUMPDEST PUSH2 0x11AD DUP3 DUP3 DUP6 PUSH2 0x10E9 JUMP JUMPDEST PUSH1 0x0 PUSH1 0x20 SWAP1 POP PUSH1 0x1F DUP4 GT PUSH1 0x1 DUP2 EQ PUSH2 0x11E0 JUMPI PUSH1 0x0 DUP5 ISZERO PUSH2 0x11CE JUMPI DUP3 DUP8 ADD MLOAD SWAP1 POP JUMPDEST PUSH2 0x11D8 DUP6 DUP3 PUSH2 0x115A JUMP JUMPDEST DUP7 SSTORE POP PUSH2 0x1240 JUMP JUMPDEST PUSH1 0x1F NOT DUP5 AND PUSH2 0x11EE DUP7 PUSH2 0xFCA JUMP JUMPDEST PUSH1 0x0 JUMPDEST DUP3 DUP2 LT ISZERO PUSH2 0x1216 JUMPI DUP5 DUP10 ADD MLOAD DUP3 SSTORE PUSH1 0x1 DUP3 ADD SWAP2 POP PUSH1 0x20 DUP6 ADD SWAP5 POP PUSH1 0x20 DUP2 ADD SWAP1 POP PUSH2 0x11F1 JUMP JUMPDEST DUP7 DUP4 LT ISZERO PUSH2 0x1233 JUMPI DUP5 DUP10 ADD MLOAD PUSH2 0x122F PUSH1 0x1F DUP10 AND DUP3 PUSH2 0x113C JUMP JUMPDEST DUP4 SSTORE POP JUMPDEST PUSH1 0x1 PUSH1 0x2 DUP9 MUL ADD DUP9 SSTORE POP POP POP JUMPDEST POP POP POP POP POP POP JUMP JUMPDEST PUSH32 0x4E6F206C696B657320746F2072656D6F76650000000000000000000000000000 PUSH1 0x0 DUP3 ADD MSTORE POP JUMP JUMPDEST PUSH1 0x0 PUSH2 0x127E PUSH1 0x12 DUP4 PUSH2 0x968 JUMP JUMPDEST SWAP2 POP PUSH2 0x1289 DUP3 PUSH2 0x1248 JUMP JUMPDEST PUSH1 0x20 DUP3 ADD SWAP1 POP SWAP2 SWAP1 POP JUMP JUMPDEST PUSH1 0x0 PUSH1 0x20 DUP3 ADD SWAP1 POP DUP2 DUP2 SUB PUSH1 0x0 DUP4 ADD MSTORE PUSH2 0x12AD DUP2 PUSH2 0x1271 JUMP JUMPDEST SWAP1 POP SWAP2 SWAP1 POP JUMP JUMPDEST PUSH1 0x0 PUSH2 0x12BF DUP3 PUSH2 0x8C9 JUMP JUMPDEST SWAP2 POP PUSH1 0x0 DUP3 SUB PUSH2 0x12D2 JUMPI PUSH2 0x12D1 PUSH2 0xEE7 JUMP JUMPDEST JUMPDEST PUSH1 0x1 DUP3 SUB SWAP1 POP SWAP2 SWAP1 POP JUMP INVALID LOG2 PUSH5 0x6970667358 0x22 SLT KECCAK256 0x2B 0x2D JUMPI CALLDATASIZE RETURN PUSH6 0x406F5D7A603D PUSH29 0x34AFC53A1762C5D75C90928405DE74C73105E564736F6C634300081200 CALLER "
				},
				"gasEstimates": {
					"creation": {
						"codeDepositCost": "976600",
						"executionCost": "25281",
						"totalCost": "1001881"
					},
					"external": {
						"MAX_TWEET_LENGTH()": "2512",
						"createTweet(string)": "infinite",
						"dislikeTweet(address,uint256)": "infinite",
						"getAllTweets(address)": "infinite",
						"likeTweet(address,uint256)": "infinite",
						"tweets(address,uint256)": "infinite"
					}
				},
				"methodIdentifiers": {
					"MAX_TWEET_LENGTH()": "6eb10797",
					"createTweet(string)": "7c9cd2bc",
					"dislikeTweet(address,uint256)": "ae775e95",
					"getAllTweets(address)": "12e7ee1c",
					"likeTweet(address,uint256)": "63378216",
					"tweets(address,uint256)": "05a1b4a9"
				}
			},
			"storageLayout": {
				"storage": [
					{
						"astId": 4,
						"contract": "Twitter_Dapp.sol:Twitter",
						"label": "MAX_TWEET_LENGTH",
						"offset": 0,
						"slot": "0",
						"type": "t_uint16"
					},
					{
						"astId": 21,
						"contract": "Twitter_Dapp.sol:Twitter",
						"label": "tweets",
						"offset": 0,
						"slot": "1",
						"type": "t_mapping(t_address,t_array(t_struct(Tweet)15_storage)dyn_storage)"
					}
				],
				"types": {
					"t_address": {
						"encoding": "inplace",
						"label": "address",
						"numberOfBytes": "20"
					},
					"t_array(t_struct(Tweet)15_storage)dyn_storage": {
						"base": "t_struct(Tweet)15_storage",
						"encoding": "dynamic_array",
						"label": "struct Twitter.Tweet[]",
						"numberOfBytes": "32"
					},
					"t_mapping(t_address,t_array(t_struct(Tweet)15_storage)dyn_storage)": {
						"encoding": "mapping",
						"key": "t_address",
						"label": "mapping(address => struct Twitter.Tweet[])",
						"numberOfBytes": "32",
						"value": "t_array(t_struct(Tweet)15_storage)dyn_storage"
					},
					"t_string_storage": {
						"encoding": "bytes",
						"label": "string",
						"numberOfBytes": "32"
					},
					"t_struct(Tweet)15_storage": {
						"encoding": "inplace",
						"label": "struct Twitter.Tweet",
						"members": [
							{
								"astId": 6,
								"contract": "Twitter_Dapp.sol:Twitter",
								"label": "id",
								"offset": 0,
								"slot": "0",
								"type": "t_uint256"
							},
							{
								"astId": 8,
								"contract": "Twitter_Dapp.sol:Twitter",
								"label": "author",
								"offset": 0,
								"slot": "1",
								"type": "t_address"
							},
							{
								"astId": 10,
								"contract": "Twitter_Dapp.sol:Twitter",
								"label": "content",
								"offset": 0,
								"slot": "2",
								"type": "t_string_storage"
							},
							{
								"astId": 12,
								"contract": "Twitter_Dapp.sol:Twitter",
								"label": "timestamp",
								"offset": 0,
								"slot": "3",
								"type": "t_uint256"
							},
							{
								"astId": 14,
								"contract": "Twitter_Dapp.sol:Twitter",
								"label": "likes",
								"offset": 0,
								"slot": "4",
								"type": "t_uint256"
							}
						],
						"numberOfBytes": "160"
					},
					"t_uint16": {
						"encoding": "inplace",
						"label": "uint16",
						"numberOfBytes": "2"
					},
					"t_uint256": {
						"encoding": "inplace",
						"label": "uint256",
						"numberOfBytes": "32"
					}
				}
			},
			"userdoc": {
				"kind": "user",
				"methods": {},
				"version": 1
			}
		}
	}
}