{
	"tp/student.sol": {
		"StudentMarksControl": {
			"abi": [
				{
					"inputs": [],
					"stateMutability": "nonpayable",
					"type": "constructor"
				},
				{
					"inputs": [
						{
							"internalType": "address",
							"name": "_student",
							"type": "address"
						}
					],
					"name": "getStudent",
					"outputs": [
						{
							"internalType": "string",
							"name": "",
							"type": "string"
						},
						{
							"internalType": "uint256",
							"name": "",
							"type": "uint256"
						}
					],
					"stateMutability": "view",
					"type": "function"
				},
				{
					"inputs": [],
					"name": "owner",
					"outputs": [
						{
							"internalType": "address",
							"name": "",
							"type": "address"
						}
					],
					"stateMutability": "view",
					"type": "function"
				},
				{
					"inputs": [
						{
							"internalType": "address",
							"name": "_student",
							"type": "address"
						},
						{
							"internalType": "string",
							"name": "_name",
							"type": "string"
						},
						{
							"internalType": "uint256",
							"name": "_marks",
							"type": "uint256"
						}
					],
					"name": "setStudent",
					"outputs": [],
					"stateMutability": "nonpayable",
					"type": "function"
				},
				{
					"inputs": [
						{
							"internalType": "address",
							"name": "",
							"type": "address"
						}
					],
					"name": "students",
					"outputs": [
						{
							"internalType": "string",
							"name": "name",
							"type": "string"
						},
						{
							"internalType": "uint256",
							"name": "marks",
							"type": "uint256"
						}
					],
					"stateMutability": "view",
					"type": "function"
				}
			],
			"devdoc": {
				"kind": "dev",
				"methods": {},
				"version": 1
			},
			"evm": {
				"assembly": "    /* \"tp/student.sol\":60:786  contract StudentMarksControl {... */\n  mstore(0x40, 0x80)\n    /* \"tp/student.sol\":127:178  constructor() {... */\n  callvalue\n  dup1\n  iszero\n  tag_1\n  jumpi\n  0x00\n  dup1\n  revert\ntag_1:\n  pop\n    /* \"tp/student.sol\":160:170  msg.sender */\n  caller\n    /* \"tp/student.sol\":152:157  owner */\n  0x00\n  dup1\n    /* \"tp/student.sol\":152:170  owner = msg.sender */\n  0x0100\n  exp\n  dup2\n  sload\n  dup2\n  0xffffffffffffffffffffffffffffffffffffffff\n  mul\n  not\n  and\n  swap1\n  dup4\n  0xffffffffffffffffffffffffffffffffffffffff\n  and\n  mul\n  or\n  swap1\n  sstore\n  pop\n    /* \"tp/student.sol\":60:786  contract StudentMarksControl {... */\n  dataSize(sub_0)\n  dup1\n  dataOffset(sub_0)\n  0x00\n  codecopy\n  0x00\n  return\nstop\n\nsub_0: assembly {\n        /* \"tp/student.sol\":60:786  contract StudentMarksControl {... */\n      mstore(0x40, 0x80)\n      callvalue\n      dup1\n      iszero\n      tag_1\n      jumpi\n      0x00\n      dup1\n      revert\n    tag_1:\n      pop\n      jumpi(tag_2, lt(calldatasize, 0x04))\n      shr(0xe0, calldataload(0x00))\n      dup1\n      0x6b152939\n      eq\n      tag_3\n      jumpi\n      dup1\n      0x6b7b44d7\n      eq\n      tag_4\n      jumpi\n      dup1\n      0x8da5cb5b\n      eq\n      tag_5\n      jumpi\n      dup1\n      0xa6c807a9\n      eq\n      tag_6\n      jumpi\n    tag_2:\n      0x00\n      dup1\n      revert\n        /* \"tp/student.sol\":453:604  function setStudent(address _student, string memory _name, uint _marks) public onlyOwner {... */\n    tag_3:\n      tag_7\n      0x04\n      dup1\n      calldatasize\n      sub\n      dup2\n      add\n      swap1\n      tag_8\n      swap2\n      swap1\n      tag_9\n      jump\t// in\n    tag_8:\n      tag_10\n      jump\t// in\n    tag_7:\n      stop\n        /* \"tp/student.sol\":612:783  function getStudent(address _student) public view returns (string memory, uint) {... */\n    tag_4:\n      tag_11\n      0x04\n      dup1\n      calldatasize\n      sub\n      dup2\n      add\n      swap1\n      tag_12\n      swap2\n      swap1\n      tag_13\n      jump\t// in\n    tag_12:\n      tag_14\n      jump\t// in\n    tag_11:\n      mload(0x40)\n      tag_15\n      swap3\n      swap2\n      swap1\n      tag_16\n      jump\t// in\n    tag_15:\n      mload(0x40)\n      dup1\n      swap2\n      sub\n      swap1\n      return\n        /* \"tp/student.sol\":98:118  address public owner */\n    tag_5:\n      tag_17\n      tag_18\n      jump\t// in\n    tag_17:\n      mload(0x40)\n      tag_19\n      swap2\n      swap1\n      tag_20\n      jump\t// in\n    tag_19:\n      mload(0x40)\n      dup1\n      swap2\n      sub\n      swap1\n      return\n        /* \"tp/student.sol\":260:303  mapping(address => Student) public students */\n    tag_6:\n      tag_21\n      0x04\n      dup1\n      calldatasize\n      sub\n      dup2\n      add\n      swap1\n      tag_22\n      swap2\n      swap1\n      tag_13\n      jump\t// in\n    tag_22:\n      tag_23\n      jump\t// in\n    tag_21:\n      mload(0x40)\n      tag_24\n      swap3\n      swap2\n      swap1\n      tag_16\n      jump\t// in\n    tag_24:\n      mload(0x40)\n      dup1\n      swap2\n      sub\n      swap1\n      return\n        /* \"tp/student.sol\":453:604  function setStudent(address _student, string memory _name, uint _marks) public onlyOwner {... */\n    tag_10:\n        /* \"tp/student.sol\":366:371  owner */\n      0x00\n      dup1\n      sload\n      swap1\n      0x0100\n      exp\n      swap1\n      div\n      0xffffffffffffffffffffffffffffffffffffffff\n      and\n        /* \"tp/student.sol\":352:371  msg.sender == owner */\n      0xffffffffffffffffffffffffffffffffffffffff\n      and\n        /* \"tp/student.sol\":352:362  msg.sender */\n      caller\n        /* \"tp/student.sol\":352:371  msg.sender == owner */\n      0xffffffffffffffffffffffffffffffffffffffff\n      and\n      eq\n        /* \"tp/student.sol\":344:387  require(msg.sender == owner, \"Not allowed\") */\n      tag_26\n      jumpi\n      mload(0x40)\n      0x08c379a000000000000000000000000000000000000000000000000000000000\n      dup2\n      mstore\n      0x04\n      add\n      tag_27\n      swap1\n      tag_28\n      jump\t// in\n    tag_27:\n      mload(0x40)\n      dup1\n      swap2\n      sub\n      swap1\n      revert\n    tag_26:\n        /* \"tp/student.sol\":574:596  Student(_name, _marks) */\n      mload(0x40)\n      dup1\n      0x40\n      add\n      0x40\n      mstore\n      dup1\n        /* \"tp/student.sol\":582:587  _name */\n      dup4\n        /* \"tp/student.sol\":574:596  Student(_name, _marks) */\n      dup2\n      mstore\n      0x20\n      add\n        /* \"tp/student.sol\":589:595  _marks */\n      dup3\n        /* \"tp/student.sol\":574:596  Student(_name, _marks) */\n      dup2\n      mstore\n      pop\n        /* \"tp/student.sol\":553:561  students */\n      0x01\n        /* \"tp/student.sol\":553:571  students[_student] */\n      0x00\n        /* \"tp/student.sol\":562:570  _student */\n      dup6\n        /* \"tp/student.sol\":553:571  students[_student] */\n      0xffffffffffffffffffffffffffffffffffffffff\n      and\n      0xffffffffffffffffffffffffffffffffffffffff\n      and\n      dup2\n      mstore\n      0x20\n      add\n      swap1\n      dup2\n      mstore\n      0x20\n      add\n      0x00\n      keccak256\n        /* \"tp/student.sol\":553:596  students[_student] = Student(_name, _marks) */\n      0x00\n      dup3\n      add\n      mload\n      dup2\n      0x00\n      add\n      swap1\n      dup2\n      tag_30\n      swap2\n      swap1\n      tag_31\n      jump\t// in\n    tag_30:\n      pop\n      0x20\n      dup3\n      add\n      mload\n      dup2\n      0x01\n      add\n      sstore\n      swap1\n      pop\n      pop\n        /* \"tp/student.sol\":453:604  function setStudent(address _student, string memory _name, uint _marks) public onlyOwner {... */\n      pop\n      pop\n      pop\n      jump\t// out\n        /* \"tp/student.sol\":612:783  function getStudent(address _student) public view returns (string memory, uint) {... */\n    tag_14:\n        /* \"tp/student.sol\":671:684  string memory */\n      0x60\n        /* \"tp/student.sol\":686:690  uint */\n      0x00\n        /* \"tp/student.sol\":703:719  Student memory s */\n      dup1\n        /* \"tp/student.sol\":722:730  students */\n      0x01\n        /* \"tp/student.sol\":722:740  students[_student] */\n      0x00\n        /* \"tp/student.sol\":731:739  _student */\n      dup6\n        /* \"tp/student.sol\":722:740  students[_student] */\n      0xffffffffffffffffffffffffffffffffffffffff\n      and\n      0xffffffffffffffffffffffffffffffffffffffff\n      and\n      dup2\n      mstore\n      0x20\n      add\n      swap1\n      dup2\n      mstore\n      0x20\n      add\n      0x00\n      keccak256\n        /* \"tp/student.sol\":703:740  Student memory s = students[_student] */\n      mload(0x40)\n      dup1\n      0x40\n      add\n      0x40\n      mstore\n      swap1\n      dup2\n      0x00\n      dup3\n      add\n      dup1\n      sload\n      tag_33\n      swap1\n      tag_34\n      jump\t// in\n    tag_33:\n      dup1\n      0x1f\n      add\n      0x20\n      dup1\n      swap2\n      div\n      mul\n      0x20\n      add\n      mload(0x40)\n      swap1\n      dup2\n      add\n      0x40\n      mstore\n      dup1\n      swap3\n      swap2\n      swap1\n      dup2\n      dup2\n      mstore\n      0x20\n      add\n      dup3\n      dup1\n      sload\n      tag_35\n      swap1\n      tag_34\n      jump\t// in\n    tag_35:\n      dup1\n      iszero\n      tag_36\n      jumpi\n      dup1\n      0x1f\n      lt\n      tag_37\n      jumpi\n      0x0100\n      dup1\n      dup4\n      sload\n      div\n      mul\n      dup4\n      mstore\n      swap2\n      0x20\n      add\n      swap2\n      jump(tag_36)\n    tag_37:\n      dup3\n      add\n      swap2\n      swap1\n      0x00\n      mstore\n      keccak256(0x00, 0x20)\n      swap1\n    tag_38:\n      dup2\n      sload\n      dup2\n      mstore\n      swap1\n      0x01\n      add\n      swap1\n      0x20\n      add\n      dup1\n      dup4\n      gt\n      tag_38\n      jumpi\n      dup3\n      swap1\n      sub\n      0x1f\n      and\n      dup3\n      add\n      swap2\n    tag_36:\n      pop\n      pop\n      pop\n      pop\n      pop\n      dup2\n      mstore\n      0x20\n      add\n      0x01\n      dup3\n      add\n      sload\n      dup2\n      mstore\n      pop\n      pop\n      swap1\n      pop\n        /* \"tp/student.sol\":759:760  s */\n      dup1\n        /* \"tp/student.sol\":759:765  s.name */\n      0x00\n      add\n      mload\n        /* \"tp/student.sol\":767:768  s */\n      dup2\n        /* \"tp/student.sol\":767:774  s.marks */\n      0x20\n      add\n      mload\n        /* \"tp/student.sol\":751:775  return (s.name, s.marks) */\n      swap3\n      pop\n      swap3\n      pop\n      pop\n        /* \"tp/student.sol\":612:783  function getStudent(address _student) public view returns (string memory, uint) {... */\n      swap2\n      pop\n      swap2\n      jump\t// out\n        /* \"tp/student.sol\":98:118  address public owner */\n    tag_18:\n      0x00\n      dup1\n      sload\n      swap1\n      0x0100\n      exp\n      swap1\n      div\n      0xffffffffffffffffffffffffffffffffffffffff\n      and\n      dup2\n      jump\t// out\n        /* \"tp/student.sol\":260:303  mapping(address => Student) public students */\n    tag_23:\n      mstore(0x20, 0x01)\n      dup1\n      0x00\n      mstore\n      keccak256(0x00, 0x40)\n      0x00\n      swap2\n      pop\n      swap1\n      pop\n      dup1\n      0x00\n      add\n      dup1\n      sload\n      tag_39\n      swap1\n      tag_34\n      jump\t// in\n    tag_39:\n      dup1\n      0x1f\n      add\n      0x20\n      dup1\n      swap2\n      div\n      mul\n      0x20\n      add\n      mload(0x40)\n      swap1\n      dup2\n      add\n      0x40\n      mstore\n      dup1\n      swap3\n      swap2\n      swap1\n      dup2\n      dup2\n      mstore\n      0x20\n      add\n      dup3\n      dup1\n      sload\n      tag_40\n      swap1\n      tag_34\n      jump\t// in\n    tag_40:\n      dup1\n      iszero\n      tag_41\n      jumpi\n      dup1\n      0x1f\n      lt\n      tag_42\n      jumpi\n      0x0100\n      dup1\n      dup4\n      sload\n      div\n      mul\n      dup4\n      mstore\n      swap2\n      0x20\n      add\n      swap2\n      jump(tag_41)\n    tag_42:\n      dup3\n      add\n      swap2\n      swap1\n      0x00\n      mstore\n      keccak256(0x00, 0x20)\n      swap1\n    tag_43:\n      dup2\n      sload\n      dup2\n      mstore\n      swap1\n      0x01\n      add\n      swap1\n      0x20\n      add\n      dup1\n      dup4\n      gt\n      tag_43\n      jumpi\n      dup3\n      swap1\n      sub\n      0x1f\n      and\n      dup3\n      add\n      swap2\n    tag_41:\n      pop\n      pop\n      pop\n      pop\n      pop\n      swap1\n      dup1\n      0x01\n      add\n      sload\n      swap1\n      pop\n      dup3\n      jump\t// out\n        /* \"#utility.yul\":7:82   */\n    tag_44:\n        /* \"#utility.yul\":40:46   */\n      0x00\n        /* \"#utility.yul\":73:75   */\n      0x40\n        /* \"#utility.yul\":67:76   */\n      mload\n        /* \"#utility.yul\":57:76   */\n      swap1\n      pop\n        /* \"#utility.yul\":7:82   */\n      swap1\n      jump\t// out\n        /* \"#utility.yul\":88:205   */\n    tag_45:\n        /* \"#utility.yul\":197:198   */\n      0x00\n        /* \"#utility.yul\":194:195   */\n      dup1\n        /* \"#utility.yul\":187:199   */\n      revert\n        /* \"#utility.yul\":211:328   */\n    tag_46:\n        /* \"#utility.yul\":320:321   */\n      0x00\n        /* \"#utility.yul\":317:318   */\n      dup1\n        /* \"#utility.yul\":310:322   */\n      revert\n        /* \"#utility.yul\":334:460   */\n    tag_47:\n        /* \"#utility.yul\":371:378   */\n      0x00\n        /* \"#utility.yul\":411:453   */\n      0xffffffffffffffffffffffffffffffffffffffff\n        /* \"#utility.yul\":404:409   */\n      dup3\n        /* \"#utility.yul\":400:454   */\n      and\n        /* \"#utility.yul\":389:454   */\n      swap1\n      pop\n        /* \"#utility.yul\":334:460   */\n      swap2\n      swap1\n      pop\n      jump\t// out\n        /* \"#utility.yul\":466:562   */\n    tag_48:\n        /* \"#utility.yul\":503:510   */\n      0x00\n        /* \"#utility.yul\":532:556   */\n      tag_94\n        /* \"#utility.yul\":550:555   */\n      dup3\n        /* \"#utility.yul\":532:556   */\n      tag_47\n      jump\t// in\n    tag_94:\n        /* \"#utility.yul\":521:556   */\n      swap1\n      pop\n        /* \"#utility.yul\":466:562   */\n      swap2\n      swap1\n      pop\n      jump\t// out\n        /* \"#utility.yul\":568:690   */\n    tag_49:\n        /* \"#utility.yul\":641:665   */\n      tag_96\n        /* \"#utility.yul\":659:664   */\n      dup2\n        /* \"#utility.yul\":641:665   */\n      tag_48\n      jump\t// in\n    tag_96:\n        /* \"#utility.yul\":634:639   */\n      dup2\n        /* \"#utility.yul\":631:666   */\n      eq\n        /* \"#utility.yul\":621:684   */\n      tag_97\n      jumpi\n        /* \"#utility.yul\":680:681   */\n      0x00\n        /* \"#utility.yul\":677:678   */\n      dup1\n        /* \"#utility.yul\":670:682   */\n      revert\n        /* \"#utility.yul\":621:684   */\n    tag_97:\n        /* \"#utility.yul\":568:690   */\n      pop\n      jump\t// out\n        /* \"#utility.yul\":696:835   */\n    tag_50:\n        /* \"#utility.yul\":742:747   */\n      0x00\n        /* \"#utility.yul\":780:786   */\n      dup2\n        /* \"#utility.yul\":767:787   */\n      calldataload\n        /* \"#utility.yul\":758:787   */\n      swap1\n      pop\n        /* \"#utility.yul\":796:829   */\n      tag_99\n        /* \"#utility.yul\":823:828   */\n      dup2\n        /* \"#utility.yul\":796:829   */\n      tag_49\n      jump\t// in\n    tag_99:\n        /* \"#utility.yul\":696:835   */\n      swap3\n      swap2\n      pop\n      pop\n      jump\t// out\n        /* \"#utility.yul\":841:958   */\n    tag_51:\n        /* \"#utility.yul\":950:951   */\n      0x00\n        /* \"#utility.yul\":947:948   */\n      dup1\n        /* \"#utility.yul\":940:952   */\n      revert\n        /* \"#utility.yul\":964:1081   */\n    tag_52:\n        /* \"#utility.yul\":1073:1074   */\n      0x00\n        /* \"#utility.yul\":1070:1071   */\n      dup1\n        /* \"#utility.yul\":1063:1075   */\n      revert\n        /* \"#utility.yul\":1087:1189   */\n    tag_53:\n        /* \"#utility.yul\":1128:1134   */\n      0x00\n        /* \"#utility.yul\":1179:1181   */\n      0x1f\n        /* \"#utility.yul\":1175:1182   */\n      not\n        /* \"#utility.yul\":1170:1172   */\n      0x1f\n        /* \"#utility.yul\":1163:1168   */\n      dup4\n        /* \"#utility.yul\":1159:1173   */\n      add\n        /* \"#utility.yul\":1155:1183   */\n      and\n        /* \"#utility.yul\":1145:1183   */\n      swap1\n      pop\n        /* \"#utility.yul\":1087:1189   */\n      swap2\n      swap1\n      pop\n      jump\t// out\n        /* \"#utility.yul\":1195:1375   */\n    tag_54:\n        /* \"#utility.yul\":1243:1320   */\n      0x4e487b7100000000000000000000000000000000000000000000000000000000\n        /* \"#utility.yul\":1240:1241   */\n      0x00\n        /* \"#utility.yul\":1233:1321   */\n      mstore\n        /* \"#utility.yul\":1340:1344   */\n      0x41\n        /* \"#utility.yul\":1337:1338   */\n      0x04\n        /* \"#utility.yul\":1330:1345   */\n      mstore\n        /* \"#utility.yul\":1364:1368   */\n      0x24\n        /* \"#utility.yul\":1361:1362   */\n      0x00\n        /* \"#utility.yul\":1354:1369   */\n      revert\n        /* \"#utility.yul\":1381:1662   */\n    tag_55:\n        /* \"#utility.yul\":1464:1491   */\n      tag_105\n        /* \"#utility.yul\":1486:1490   */\n      dup3\n        /* \"#utility.yul\":1464:1491   */\n      tag_53\n      jump\t// in\n    tag_105:\n        /* \"#utility.yul\":1456:1462   */\n      dup2\n        /* \"#utility.yul\":1452:1492   */\n      add\n        /* \"#utility.yul\":1594:1600   */\n      dup2\n        /* \"#utility.yul\":1582:1592   */\n      dup2\n        /* \"#utility.yul\":1579:1601   */\n      lt\n        /* \"#utility.yul\":1558:1576   */\n      0xffffffffffffffff\n        /* \"#utility.yul\":1546:1556   */\n      dup3\n        /* \"#utility.yul\":1543:1577   */\n      gt\n        /* \"#utility.yul\":1540:1602   */\n      or\n        /* \"#utility.yul\":1537:1625   */\n      iszero\n      tag_106\n      jumpi\n        /* \"#utility.yul\":1605:1623   */\n      tag_107\n      tag_54\n      jump\t// in\n    tag_107:\n        /* \"#utility.yul\":1537:1625   */\n    tag_106:\n        /* \"#utility.yul\":1645:1655   */\n      dup1\n        /* \"#utility.yul\":1641:1643   */\n      0x40\n        /* \"#utility.yul\":1634:1656   */\n      mstore\n        /* \"#utility.yul\":1424:1662   */\n      pop\n        /* \"#utility.yul\":1381:1662   */\n      pop\n      pop\n      jump\t// out\n        /* \"#utility.yul\":1668:1797   */\n    tag_56:\n        /* \"#utility.yul\":1702:1708   */\n      0x00\n        /* \"#utility.yul\":1729:1749   */\n      tag_109\n      tag_44\n      jump\t// in\n    tag_109:\n        /* \"#utility.yul\":1719:1749   */\n      swap1\n      pop\n        /* \"#utility.yul\":1758:1791   */\n      tag_110\n        /* \"#utility.yul\":1786:1790   */\n      dup3\n        /* \"#utility.yul\":1778:1784   */\n      dup3\n        /* \"#utility.yul\":1758:1791   */\n      tag_55\n      jump\t// in\n    tag_110:\n        /* \"#utility.yul\":1668:1797   */\n      swap2\n      swap1\n      pop\n      jump\t// out\n        /* \"#utility.yul\":1803:2111   */\n    tag_57:\n        /* \"#utility.yul\":1865:1869   */\n      0x00\n        /* \"#utility.yul\":1955:1973   */\n      0xffffffffffffffff\n        /* \"#utility.yul\":1947:1953   */\n      dup3\n        /* \"#utility.yul\":1944:1974   */\n      gt\n        /* \"#utility.yul\":1941:1997   */\n      iszero\n      tag_112\n      jumpi\n        /* \"#utility.yul\":1977:1995   */\n      tag_113\n      tag_54\n      jump\t// in\n    tag_113:\n        /* \"#utility.yul\":1941:1997   */\n    tag_112:\n        /* \"#utility.yul\":2015:2044   */\n      tag_114\n        /* \"#utility.yul\":2037:2043   */\n      dup3\n        /* \"#utility.yul\":2015:2044   */\n      tag_53\n      jump\t// in\n    tag_114:\n        /* \"#utility.yul\":2007:2044   */\n      swap1\n      pop\n        /* \"#utility.yul\":2099:2103   */\n      0x20\n        /* \"#utility.yul\":2093:2097   */\n      dup2\n        /* \"#utility.yul\":2089:2104   */\n      add\n        /* \"#utility.yul\":2081:2104   */\n      swap1\n      pop\n        /* \"#utility.yul\":1803:2111   */\n      swap2\n      swap1\n      pop\n      jump\t// out\n        /* \"#utility.yul\":2117:2263   */\n    tag_58:\n        /* \"#utility.yul\":2214:2220   */\n      dup3\n        /* \"#utility.yul\":2209:2212   */\n      dup2\n        /* \"#utility.yul\":2204:2207   */\n      dup4\n        /* \"#utility.yul\":2191:2221   */\n      calldatacopy\n        /* \"#utility.yul\":2255:2256   */\n      0x00\n        /* \"#utility.yul\":2246:2252   */\n      dup4\n        /* \"#utility.yul\":2241:2244   */\n      dup4\n        /* \"#utility.yul\":2237:2253   */\n      add\n        /* \"#utility.yul\":2230:2257   */\n      mstore\n        /* \"#utility.yul\":2117:2263   */\n      pop\n      pop\n      pop\n      jump\t// out\n        /* \"#utility.yul\":2269:2694   */\n    tag_59:\n        /* \"#utility.yul\":2347:2352   */\n      0x00\n        /* \"#utility.yul\":2372:2438   */\n      tag_117\n        /* \"#utility.yul\":2388:2437   */\n      tag_118\n        /* \"#utility.yul\":2430:2436   */\n      dup5\n        /* \"#utility.yul\":2388:2437   */\n      tag_57\n      jump\t// in\n    tag_118:\n        /* \"#utility.yul\":2372:2438   */\n      tag_56\n      jump\t// in\n    tag_117:\n        /* \"#utility.yul\":2363:2438   */\n      swap1\n      pop\n        /* \"#utility.yul\":2461:2467   */\n      dup3\n        /* \"#utility.yul\":2454:2459   */\n      dup2\n        /* \"#utility.yul\":2447:2468   */\n      mstore\n        /* \"#utility.yul\":2499:2503   */\n      0x20\n        /* \"#utility.yul\":2492:2497   */\n      dup2\n        /* \"#utility.yul\":2488:2504   */\n      add\n        /* \"#utility.yul\":2537:2540   */\n      dup5\n        /* \"#utility.yul\":2528:2534   */\n      dup5\n        /* \"#utility.yul\":2523:2526   */\n      dup5\n        /* \"#utility.yul\":2519:2535   */\n      add\n        /* \"#utility.yul\":2516:2541   */\n      gt\n        /* \"#utility.yul\":2513:2625   */\n      iszero\n      tag_119\n      jumpi\n        /* \"#utility.yul\":2544:2623   */\n      tag_120\n      tag_52\n      jump\t// in\n    tag_120:\n        /* \"#utility.yul\":2513:2625   */\n    tag_119:\n        /* \"#utility.yul\":2634:2688   */\n      tag_121\n        /* \"#utility.yul\":2681:2687   */\n      dup5\n        /* \"#utility.yul\":2676:2679   */\n      dup3\n        /* \"#utility.yul\":2671:2674   */\n      dup6\n        /* \"#utility.yul\":2634:2688   */\n      tag_58\n      jump\t// in\n    tag_121:\n        /* \"#utility.yul\":2353:2694   */\n      pop\n        /* \"#utility.yul\":2269:2694   */\n      swap4\n      swap3\n      pop\n      pop\n      pop\n      jump\t// out\n        /* \"#utility.yul\":2714:3054   */\n    tag_60:\n        /* \"#utility.yul\":2770:2775   */\n      0x00\n        /* \"#utility.yul\":2819:2822   */\n      dup3\n        /* \"#utility.yul\":2812:2816   */\n      0x1f\n        /* \"#utility.yul\":2804:2810   */\n      dup4\n        /* \"#utility.yul\":2800:2817   */\n      add\n        /* \"#utility.yul\":2796:2823   */\n      slt\n        /* \"#utility.yul\":2786:2908   */\n      tag_123\n      jumpi\n        /* \"#utility.yul\":2827:2906   */\n      tag_124\n      tag_51\n      jump\t// in\n    tag_124:\n        /* \"#utility.yul\":2786:2908   */\n    tag_123:\n        /* \"#utility.yul\":2944:2950   */\n      dup2\n        /* \"#utility.yul\":2931:2951   */\n      calldataload\n        /* \"#utility.yul\":2969:3048   */\n      tag_125\n        /* \"#utility.yul\":3044:3047   */\n      dup5\n        /* \"#utility.yul\":3036:3042   */\n      dup3\n        /* \"#utility.yul\":3029:3033   */\n      0x20\n        /* \"#utility.yul\":3021:3027   */\n      dup7\n        /* \"#utility.yul\":3017:3034   */\n      add\n        /* \"#utility.yul\":2969:3048   */\n      tag_59\n      jump\t// in\n    tag_125:\n        /* \"#utility.yul\":2960:3048   */\n      swap2\n      pop\n        /* \"#utility.yul\":2776:3054   */\n      pop\n        /* \"#utility.yul\":2714:3054   */\n      swap3\n      swap2\n      pop\n      pop\n      jump\t// out\n        /* \"#utility.yul\":3060:3137   */\n    tag_61:\n        /* \"#utility.yul\":3097:3104   */\n      0x00\n        /* \"#utility.yul\":3126:3131   */\n      dup2\n        /* \"#utility.yul\":3115:3131   */\n      swap1\n      pop\n        /* \"#utility.yul\":3060:3137   */\n      swap2\n      swap1\n      pop\n      jump\t// out\n        /* \"#utility.yul\":3143:3265   */\n    tag_62:\n        /* \"#utility.yul\":3216:3240   */\n      tag_128\n        /* \"#utility.yul\":3234:3239   */\n      dup2\n        /* \"#utility.yul\":3216:3240   */\n      tag_61\n      jump\t// in\n    tag_128:\n        /* \"#utility.yul\":3209:3214   */\n      dup2\n        /* \"#utility.yul\":3206:3241   */\n      eq\n        /* \"#utility.yul\":3196:3259   */\n      tag_129\n      jumpi\n        /* \"#utility.yul\":3255:3256   */\n      0x00\n        /* \"#utility.yul\":3252:3253   */\n      dup1\n        /* \"#utility.yul\":3245:3257   */\n      revert\n        /* \"#utility.yul\":3196:3259   */\n    tag_129:\n        /* \"#utility.yul\":3143:3265   */\n      pop\n      jump\t// out\n        /* \"#utility.yul\":3271:3410   */\n    tag_63:\n        /* \"#utility.yul\":3317:3322   */\n      0x00\n        /* \"#utility.yul\":3355:3361   */\n      dup2\n        /* \"#utility.yul\":3342:3362   */\n      calldataload\n        /* \"#utility.yul\":3333:3362   */\n      swap1\n      pop\n        /* \"#utility.yul\":3371:3404   */\n      tag_131\n        /* \"#utility.yul\":3398:3403   */\n      dup2\n        /* \"#utility.yul\":3371:3404   */\n      tag_62\n      jump\t// in\n    tag_131:\n        /* \"#utility.yul\":3271:3410   */\n      swap3\n      swap2\n      pop\n      pop\n      jump\t// out\n        /* \"#utility.yul\":3416:4215   */\n    tag_9:\n        /* \"#utility.yul\":3503:3509   */\n      0x00\n        /* \"#utility.yul\":3511:3517   */\n      dup1\n        /* \"#utility.yul\":3519:3525   */\n      0x00\n        /* \"#utility.yul\":3568:3570   */\n      0x60\n        /* \"#utility.yul\":3556:3565   */\n      dup5\n        /* \"#utility.yul\":3547:3554   */\n      dup7\n        /* \"#utility.yul\":3543:3566   */\n      sub\n        /* \"#utility.yul\":3539:3571   */\n      slt\n        /* \"#utility.yul\":3536:3655   */\n      iszero\n      tag_133\n      jumpi\n        /* \"#utility.yul\":3574:3653   */\n      tag_134\n      tag_45\n      jump\t// in\n    tag_134:\n        /* \"#utility.yul\":3536:3655   */\n    tag_133:\n        /* \"#utility.yul\":3694:3695   */\n      0x00\n        /* \"#utility.yul\":3719:3772   */\n      tag_135\n        /* \"#utility.yul\":3764:3771   */\n      dup7\n        /* \"#utility.yul\":3755:3761   */\n      dup3\n        /* \"#utility.yul\":3744:3753   */\n      dup8\n        /* \"#utility.yul\":3740:3762   */\n      add\n        /* \"#utility.yul\":3719:3772   */\n      tag_50\n      jump\t// in\n    tag_135:\n        /* \"#utility.yul\":3709:3772   */\n      swap4\n      pop\n        /* \"#utility.yul\":3665:3782   */\n      pop\n        /* \"#utility.yul\":3849:3851   */\n      0x20\n        /* \"#utility.yul\":3838:3847   */\n      dup5\n        /* \"#utility.yul\":3834:3852   */\n      add\n        /* \"#utility.yul\":3821:3853   */\n      calldataload\n        /* \"#utility.yul\":3880:3898   */\n      0xffffffffffffffff\n        /* \"#utility.yul\":3872:3878   */\n      dup2\n        /* \"#utility.yul\":3869:3899   */\n      gt\n        /* \"#utility.yul\":3866:3983   */\n      iszero\n      tag_136\n      jumpi\n        /* \"#utility.yul\":3902:3981   */\n      tag_137\n      tag_46\n      jump\t// in\n    tag_137:\n        /* \"#utility.yul\":3866:3983   */\n    tag_136:\n        /* \"#utility.yul\":4007:4070   */\n      tag_138\n        /* \"#utility.yul\":4062:4069   */\n      dup7\n        /* \"#utility.yul\":4053:4059   */\n      dup3\n        /* \"#utility.yul\":4042:4051   */\n      dup8\n        /* \"#utility.yul\":4038:4060   */\n      add\n        /* \"#utility.yul\":4007:4070   */\n      tag_60\n      jump\t// in\n    tag_138:\n        /* \"#utility.yul\":3997:4070   */\n      swap3\n      pop\n        /* \"#utility.yul\":3792:4080   */\n      pop\n        /* \"#utility.yul\":4119:4121   */\n      0x40\n        /* \"#utility.yul\":4145:4198   */\n      tag_139\n        /* \"#utility.yul\":4190:4197   */\n      dup7\n        /* \"#utility.yul\":4181:4187   */\n      dup3\n        /* \"#utility.yul\":4170:4179   */\n      dup8\n        /* \"#utility.yul\":4166:4188   */\n      add\n        /* \"#utility.yul\":4145:4198   */\n      tag_63\n      jump\t// in\n    tag_139:\n        /* \"#utility.yul\":4135:4198   */\n      swap2\n      pop\n        /* \"#utility.yul\":4090:4208   */\n      pop\n        /* \"#utility.yul\":3416:4215   */\n      swap3\n      pop\n      swap3\n      pop\n      swap3\n      jump\t// out\n        /* \"#utility.yul\":4221:4550   */\n    tag_13:\n        /* \"#utility.yul\":4280:4286   */\n      0x00\n        /* \"#utility.yul\":4329:4331   */\n      0x20\n        /* \"#utility.yul\":4317:4326   */\n      dup3\n        /* \"#utility.yul\":4308:4315   */\n      dup5\n        /* \"#utility.yul\":4304:4327   */\n      sub\n        /* \"#utility.yul\":4300:4332   */\n      slt\n        /* \"#utility.yul\":4297:4416   */\n      iszero\n      tag_141\n      jumpi\n        /* \"#utility.yul\":4335:4414   */\n      tag_142\n      tag_45\n      jump\t// in\n    tag_142:\n        /* \"#utility.yul\":4297:4416   */\n    tag_141:\n        /* \"#utility.yul\":4455:4456   */\n      0x00\n        /* \"#utility.yul\":4480:4533   */\n      tag_143\n        /* \"#utility.yul\":4525:4532   */\n      dup5\n        /* \"#utility.yul\":4516:4522   */\n      dup3\n        /* \"#utility.yul\":4505:4514   */\n      dup6\n        /* \"#utility.yul\":4501:4523   */\n      add\n        /* \"#utility.yul\":4480:4533   */\n      tag_50\n      jump\t// in\n    tag_143:\n        /* \"#utility.yul\":4470:4533   */\n      swap2\n      pop\n        /* \"#utility.yul\":4426:4543   */\n      pop\n        /* \"#utility.yul\":4221:4550   */\n      swap3\n      swap2\n      pop\n      pop\n      jump\t// out\n        /* \"#utility.yul\":4556:4655   */\n    tag_64:\n        /* \"#utility.yul\":4608:4614   */\n      0x00\n        /* \"#utility.yul\":4642:4647   */\n      dup2\n        /* \"#utility.yul\":4636:4648   */\n      mload\n        /* \"#utility.yul\":4626:4648   */\n      swap1\n      pop\n        /* \"#utility.yul\":4556:4655   */\n      swap2\n      swap1\n      pop\n      jump\t// out\n        /* \"#utility.yul\":4661:4830   */\n    tag_65:\n        /* \"#utility.yul\":4745:4756   */\n      0x00\n        /* \"#utility.yul\":4779:4785   */\n      dup3\n        /* \"#utility.yul\":4774:4777   */\n      dup3\n        /* \"#utility.yul\":4767:4786   */\n      mstore\n        /* \"#utility.yul\":4819:4823   */\n      0x20\n        /* \"#utility.yul\":4814:4817   */\n      dup3\n        /* \"#utility.yul\":4810:4824   */\n      add\n        /* \"#utility.yul\":4795:4824   */\n      swap1\n      pop\n        /* \"#utility.yul\":4661:4830   */\n      swap3\n      swap2\n      pop\n      pop\n      jump\t// out\n        /* \"#utility.yul\":4836:5082   */\n    tag_66:\n        /* \"#utility.yul\":4917:4918   */\n      0x00\n        /* \"#utility.yul\":4927:5040   */\n    tag_147:\n        /* \"#utility.yul\":4941:4947   */\n      dup4\n        /* \"#utility.yul\":4938:4939   */\n      dup2\n        /* \"#utility.yul\":4935:4948   */\n      lt\n        /* \"#utility.yul\":4927:5040   */\n      iszero\n      tag_149\n      jumpi\n        /* \"#utility.yul\":5026:5027   */\n      dup1\n        /* \"#utility.yul\":5021:5024   */\n      dup3\n        /* \"#utility.yul\":5017:5028   */\n      add\n        /* \"#utility.yul\":5011:5029   */\n      mload\n        /* \"#utility.yul\":5007:5008   */\n      dup2\n        /* \"#utility.yul\":5002:5005   */\n      dup5\n        /* \"#utility.yul\":4998:5009   */\n      add\n        /* \"#utility.yul\":4991:5030   */\n      mstore\n        /* \"#utility.yul\":4963:4965   */\n      0x20\n        /* \"#utility.yul\":4960:4961   */\n      dup2\n        /* \"#utility.yul\":4956:4966   */\n      add\n        /* \"#utility.yul\":4951:4966   */\n      swap1\n      pop\n        /* \"#utility.yul\":4927:5040   */\n      jump(tag_147)\n    tag_149:\n        /* \"#utility.yul\":5074:5075   */\n      0x00\n        /* \"#utility.yul\":5065:5071   */\n      dup5\n        /* \"#utility.yul\":5060:5063   */\n      dup5\n        /* \"#utility.yul\":5056:5072   */\n      add\n        /* \"#utility.yul\":5049:5076   */\n      mstore\n        /* \"#utility.yul\":4898:5082   */\n      pop\n        /* \"#utility.yul\":4836:5082   */\n      pop\n      pop\n      pop\n      jump\t// out\n        /* \"#utility.yul\":5088:5465   */\n    tag_67:\n        /* \"#utility.yul\":5176:5179   */\n      0x00\n        /* \"#utility.yul\":5204:5243   */\n      tag_151\n        /* \"#utility.yul\":5237:5242   */\n      dup3\n        /* \"#utility.yul\":5204:5243   */\n      tag_64\n      jump\t// in\n    tag_151:\n        /* \"#utility.yul\":5259:5330   */\n      tag_152\n        /* \"#utility.yul\":5323:5329   */\n      dup2\n        /* \"#utility.yul\":5318:5321   */\n      dup6\n        /* \"#utility.yul\":5259:5330   */\n      tag_65\n      jump\t// in\n    tag_152:\n        /* \"#utility.yul\":5252:5330   */\n      swap4\n      pop\n        /* \"#utility.yul\":5339:5404   */\n      tag_153\n        /* \"#utility.yul\":5397:5403   */\n      dup2\n        /* \"#utility.yul\":5392:5395   */\n      dup6\n        /* \"#utility.yul\":5385:5389   */\n      0x20\n        /* \"#utility.yul\":5378:5383   */\n      dup7\n        /* \"#utility.yul\":5374:5390   */\n      add\n        /* \"#utility.yul\":5339:5404   */\n      tag_66\n      jump\t// in\n    tag_153:\n        /* \"#utility.yul\":5429:5458   */\n      tag_154\n        /* \"#utility.yul\":5451:5457   */\n      dup2\n        /* \"#utility.yul\":5429:5458   */\n      tag_53\n      jump\t// in\n    tag_154:\n        /* \"#utility.yul\":5424:5427   */\n      dup5\n        /* \"#utility.yul\":5420:5459   */\n      add\n        /* \"#utility.yul\":5413:5459   */\n      swap2\n      pop\n        /* \"#utility.yul\":5180:5465   */\n      pop\n        /* \"#utility.yul\":5088:5465   */\n      swap3\n      swap2\n      pop\n      pop\n      jump\t// out\n        /* \"#utility.yul\":5471:5589   */\n    tag_68:\n        /* \"#utility.yul\":5558:5582   */\n      tag_156\n        /* \"#utility.yul\":5576:5581   */\n      dup2\n        /* \"#utility.yul\":5558:5582   */\n      tag_61\n      jump\t// in\n    tag_156:\n        /* \"#utility.yul\":5553:5556   */\n      dup3\n        /* \"#utility.yul\":5546:5583   */\n      mstore\n        /* \"#utility.yul\":5471:5589   */\n      pop\n      pop\n      jump\t// out\n        /* \"#utility.yul\":5595:6018   */\n    tag_16:\n        /* \"#utility.yul\":5736:5740   */\n      0x00\n        /* \"#utility.yul\":5774:5776   */\n      0x40\n        /* \"#utility.yul\":5763:5772   */\n      dup3\n        /* \"#utility.yul\":5759:5777   */\n      add\n        /* \"#utility.yul\":5751:5777   */\n      swap1\n      pop\n        /* \"#utility.yul\":5823:5832   */\n      dup2\n        /* \"#utility.yul\":5817:5821   */\n      dup2\n        /* \"#utility.yul\":5813:5833   */\n      sub\n        /* \"#utility.yul\":5809:5810   */\n      0x00\n        /* \"#utility.yul\":5798:5807   */\n      dup4\n        /* \"#utility.yul\":5794:5811   */\n      add\n        /* \"#utility.yul\":5787:5834   */\n      mstore\n        /* \"#utility.yul\":5851:5929   */\n      tag_158\n        /* \"#utility.yul\":5924:5928   */\n      dup2\n        /* \"#utility.yul\":5915:5921   */\n      dup6\n        /* \"#utility.yul\":5851:5929   */\n      tag_67\n      jump\t// in\n    tag_158:\n        /* \"#utility.yul\":5843:5929   */\n      swap1\n      pop\n        /* \"#utility.yul\":5939:6011   */\n      tag_159\n        /* \"#utility.yul\":6007:6009   */\n      0x20\n        /* \"#utility.yul\":5996:6005   */\n      dup4\n        /* \"#utility.yul\":5992:6010   */\n      add\n        /* \"#utility.yul\":5983:5989   */\n      dup5\n        /* \"#utility.yul\":5939:6011   */\n      tag_68\n      jump\t// in\n    tag_159:\n        /* \"#utility.yul\":5595:6018   */\n      swap4\n      swap3\n      pop\n      pop\n      pop\n      jump\t// out\n        /* \"#utility.yul\":6024:6142   */\n    tag_69:\n        /* \"#utility.yul\":6111:6135   */\n      tag_161\n        /* \"#utility.yul\":6129:6134   */\n      dup2\n        /* \"#utility.yul\":6111:6135   */\n      tag_48\n      jump\t// in\n    tag_161:\n        /* \"#utility.yul\":6106:6109   */\n      dup3\n        /* \"#utility.yul\":6099:6136   */\n      mstore\n        /* \"#utility.yul\":6024:6142   */\n      pop\n      pop\n      jump\t// out\n        /* \"#utility.yul\":6148:6370   */\n    tag_20:\n        /* \"#utility.yul\":6241:6245   */\n      0x00\n        /* \"#utility.yul\":6279:6281   */\n      0x20\n        /* \"#utility.yul\":6268:6277   */\n      dup3\n        /* \"#utility.yul\":6264:6282   */\n      add\n        /* \"#utility.yul\":6256:6282   */\n      swap1\n      pop\n        /* \"#utility.yul\":6292:6363   */\n      tag_163\n        /* \"#utility.yul\":6360:6361   */\n      0x00\n        /* \"#utility.yul\":6349:6358   */\n      dup4\n        /* \"#utility.yul\":6345:6362   */\n      add\n        /* \"#utility.yul\":6336:6342   */\n      dup5\n        /* \"#utility.yul\":6292:6363   */\n      tag_69\n      jump\t// in\n    tag_163:\n        /* \"#utility.yul\":6148:6370   */\n      swap3\n      swap2\n      pop\n      pop\n      jump\t// out\n        /* \"#utility.yul\":6376:6537   */\n    tag_70:\n        /* \"#utility.yul\":6516:6529   */\n      0x4e6f7420616c6c6f776564000000000000000000000000000000000000000000\n        /* \"#utility.yul\":6512:6513   */\n      0x00\n        /* \"#utility.yul\":6504:6510   */\n      dup3\n        /* \"#utility.yul\":6500:6514   */\n      add\n        /* \"#utility.yul\":6493:6530   */\n      mstore\n        /* \"#utility.yul\":6376:6537   */\n      pop\n      jump\t// out\n        /* \"#utility.yul\":6543:6909   */\n    tag_71:\n        /* \"#utility.yul\":6685:6688   */\n      0x00\n        /* \"#utility.yul\":6706:6773   */\n      tag_166\n        /* \"#utility.yul\":6770:6772   */\n      0x0b\n        /* \"#utility.yul\":6765:6768   */\n      dup4\n        /* \"#utility.yul\":6706:6773   */\n      tag_65\n      jump\t// in\n    tag_166:\n        /* \"#utility.yul\":6699:6773   */\n      swap2\n      pop\n        /* \"#utility.yul\":6782:6875   */\n      tag_167\n        /* \"#utility.yul\":6871:6874   */\n      dup3\n        /* \"#utility.yul\":6782:6875   */\n      tag_70\n      jump\t// in\n    tag_167:\n        /* \"#utility.yul\":6900:6902   */\n      0x20\n        /* \"#utility.yul\":6895:6898   */\n      dup3\n        /* \"#utility.yul\":6891:6903   */\n      add\n        /* \"#utility.yul\":6884:6903   */\n      swap1\n      pop\n        /* \"#utility.yul\":6543:6909   */\n      swap2\n      swap1\n      pop\n      jump\t// out\n        /* \"#utility.yul\":6915:7334   */\n    tag_28:\n        /* \"#utility.yul\":7081:7085   */\n      0x00\n        /* \"#utility.yul\":7119:7121   */\n      0x20\n        /* \"#utility.yul\":7108:7117   */\n      dup3\n        /* \"#utility.yul\":7104:7122   */\n      add\n        /* \"#utility.yul\":7096:7122   */\n      swap1\n      pop\n        /* \"#utility.yul\":7168:7177   */\n      dup2\n        /* \"#utility.yul\":7162:7166   */\n      dup2\n        /* \"#utility.yul\":7158:7178   */\n      sub\n        /* \"#utility.yul\":7154:7155   */\n      0x00\n        /* \"#utility.yul\":7143:7152   */\n      dup4\n        /* \"#utility.yul\":7139:7156   */\n      add\n        /* \"#utility.yul\":7132:7179   */\n      mstore\n        /* \"#utility.yul\":7196:7327   */\n      tag_169\n        /* \"#utility.yul\":7322:7326   */\n      dup2\n        /* \"#utility.yul\":7196:7327   */\n      tag_71\n      jump\t// in\n    tag_169:\n        /* \"#utility.yul\":7188:7327   */\n      swap1\n      pop\n        /* \"#utility.yul\":6915:7334   */\n      swap2\n      swap1\n      pop\n      jump\t// out\n        /* \"#utility.yul\":7340:7520   */\n    tag_72:\n        /* \"#utility.yul\":7388:7465   */\n      0x4e487b7100000000000000000000000000000000000000000000000000000000\n        /* \"#utility.yul\":7385:7386   */\n      0x00\n        /* \"#utility.yul\":7378:7466   */\n      mstore\n        /* \"#utility.yul\":7485:7489   */\n      0x22\n        /* \"#utility.yul\":7482:7483   */\n      0x04\n        /* \"#utility.yul\":7475:7490   */\n      mstore\n        /* \"#utility.yul\":7509:7513   */\n      0x24\n        /* \"#utility.yul\":7506:7507   */\n      0x00\n        /* \"#utility.yul\":7499:7514   */\n      revert\n        /* \"#utility.yul\":7526:7846   */\n    tag_34:\n        /* \"#utility.yul\":7570:7576   */\n      0x00\n        /* \"#utility.yul\":7607:7608   */\n      0x02\n        /* \"#utility.yul\":7601:7605   */\n      dup3\n        /* \"#utility.yul\":7597:7609   */\n      div\n        /* \"#utility.yul\":7587:7609   */\n      swap1\n      pop\n        /* \"#utility.yul\":7654:7655   */\n      0x01\n        /* \"#utility.yul\":7648:7652   */\n      dup3\n        /* \"#utility.yul\":7644:7656   */\n      and\n        /* \"#utility.yul\":7675:7693   */\n      dup1\n        /* \"#utility.yul\":7665:7746   */\n      tag_172\n      jumpi\n        /* \"#utility.yul\":7731:7735   */\n      0x7f\n        /* \"#utility.yul\":7723:7729   */\n      dup3\n        /* \"#utility.yul\":7719:7736   */\n      and\n        /* \"#utility.yul\":7709:7736   */\n      swap2\n      pop\n        /* \"#utility.yul\":7665:7746   */\n    tag_172:\n        /* \"#utility.yul\":7793:7795   */\n      0x20\n        /* \"#utility.yul\":7785:7791   */\n      dup3\n        /* \"#utility.yul\":7782:7796   */\n      lt\n        /* \"#utility.yul\":7762:7780   */\n      dup2\n        /* \"#utility.yul\":7759:7797   */\n      sub\n        /* \"#utility.yul\":7756:7840   */\n      tag_173\n      jumpi\n        /* \"#utility.yul\":7812:7830   */\n      tag_174\n      tag_72\n      jump\t// in\n    tag_174:\n        /* \"#utility.yul\":7756:7840   */\n    tag_173:\n        /* \"#utility.yul\":7577:7846   */\n      pop\n        /* \"#utility.yul\":7526:7846   */\n      swap2\n      swap1\n      pop\n      jump\t// out\n        /* \"#utility.yul\":7852:7993   */\n    tag_73:\n        /* \"#utility.yul\":7901:7905   */\n      0x00\n        /* \"#utility.yul\":7924:7927   */\n      dup2\n        /* \"#utility.yul\":7916:7927   */\n      swap1\n      pop\n        /* \"#utility.yul\":7947:7950   */\n      dup2\n        /* \"#utility.yul\":7944:7945   */\n      0x00\n        /* \"#utility.yul\":7937:7951   */\n      mstore\n        /* \"#utility.yul\":7981:7985   */\n      0x20\n        /* \"#utility.yul\":7978:7979   */\n      0x00\n        /* \"#utility.yul\":7968:7986   */\n      keccak256\n        /* \"#utility.yul\":7960:7986   */\n      swap1\n      pop\n        /* \"#utility.yul\":7852:7993   */\n      swap2\n      swap1\n      pop\n      jump\t// out\n        /* \"#utility.yul\":7999:8092   */\n    tag_74:\n        /* \"#utility.yul\":8036:8042   */\n      0x00\n        /* \"#utility.yul\":8083:8085   */\n      0x20\n        /* \"#utility.yul\":8078:8080   */\n      0x1f\n        /* \"#utility.yul\":8071:8076   */\n      dup4\n        /* \"#utility.yul\":8067:8081   */\n      add\n        /* \"#utility.yul\":8063:8086   */\n      div\n        /* \"#utility.yul\":8053:8086   */\n      swap1\n      pop\n        /* \"#utility.yul\":7999:8092   */\n      swap2\n      swap1\n      pop\n      jump\t// out\n        /* \"#utility.yul\":8098:8205   */\n    tag_75:\n        /* \"#utility.yul\":8142:8150   */\n      0x00\n        /* \"#utility.yul\":8192:8197   */\n      dup3\n        /* \"#utility.yul\":8186:8190   */\n      dup3\n        /* \"#utility.yul\":8182:8198   */\n      shl\n        /* \"#utility.yul\":8161:8198   */\n      swap1\n      pop\n        /* \"#utility.yul\":8098:8205   */\n      swap3\n      swap2\n      pop\n      pop\n      jump\t// out\n        /* \"#utility.yul\":8211:8604   */\n    tag_76:\n        /* \"#utility.yul\":8280:8286   */\n      0x00\n        /* \"#utility.yul\":8330:8331   */\n      0x08\n        /* \"#utility.yul\":8318:8328   */\n      dup4\n        /* \"#utility.yul\":8314:8332   */\n      mul\n        /* \"#utility.yul\":8353:8450   */\n      tag_179\n        /* \"#utility.yul\":8383:8449   */\n      0xffffffffffffffffffffffffffffffffffffffffffffffffffffffffffffffff\n        /* \"#utility.yul\":8372:8381   */\n      dup3\n        /* \"#utility.yul\":8353:8450   */\n      tag_75\n      jump\t// in\n    tag_179:\n        /* \"#utility.yul\":8471:8510   */\n      tag_180\n        /* \"#utility.yul\":8501:8509   */\n      dup7\n        /* \"#utility.yul\":8490:8499   */\n      dup4\n        /* \"#utility.yul\":8471:8510   */\n      tag_75\n      jump\t// in\n    tag_180:\n        /* \"#utility.yul\":8459:8510   */\n      swap6\n      pop\n        /* \"#utility.yul\":8543:8547   */\n      dup1\n        /* \"#utility.yul\":8539:8548   */\n      not\n        /* \"#utility.yul\":8532:8537   */\n      dup5\n        /* \"#utility.yul\":8528:8549   */\n      and\n        /* \"#utility.yul\":8519:8549   */\n      swap4\n      pop\n        /* \"#utility.yul\":8592:8596   */\n      dup1\n        /* \"#utility.yul\":8582:8590   */\n      dup7\n        /* \"#utility.yul\":8578:8597   */\n      and\n        /* \"#utility.yul\":8571:8576   */\n      dup5\n        /* \"#utility.yul\":8568:8598   */\n      or\n        /* \"#utility.yul\":8558:8598   */\n      swap3\n      pop\n        /* \"#utility.yul\":8287:8604   */\n      pop\n      pop\n        /* \"#utility.yul\":8211:8604   */\n      swap4\n      swap3\n      pop\n      pop\n      pop\n      jump\t// out\n        /* \"#utility.yul\":8610:8670   */\n    tag_77:\n        /* \"#utility.yul\":8638:8641   */\n      0x00\n        /* \"#utility.yul\":8659:8664   */\n      dup2\n        /* \"#utility.yul\":8652:8664   */\n      swap1\n      pop\n        /* \"#utility.yul\":8610:8670   */\n      swap2\n      swap1\n      pop\n      jump\t// out\n        /* \"#utility.yul\":8676:8818   */\n    tag_78:\n        /* \"#utility.yul\":8726:8735   */\n      0x00\n        /* \"#utility.yul\":8759:8812   */\n      tag_183\n        /* \"#utility.yul\":8777:8811   */\n      tag_184\n        /* \"#utility.yul\":8786:8810   */\n      tag_185\n        /* \"#utility.yul\":8804:8809   */\n      dup5\n        /* \"#utility.yul\":8786:8810   */\n      tag_61\n      jump\t// in\n    tag_185:\n        /* \"#utility.yul\":8777:8811   */\n      tag_77\n      jump\t// in\n    tag_184:\n        /* \"#utility.yul\":8759:8812   */\n      tag_61\n      jump\t// in\n    tag_183:\n        /* \"#utility.yul\":8746:8812   */\n      swap1\n      pop\n        /* \"#utility.yul\":8676:8818   */\n      swap2\n      swap1\n      pop\n      jump\t// out\n        /* \"#utility.yul\":8824:8899   */\n    tag_79:\n        /* \"#utility.yul\":8867:8870   */\n      0x00\n        /* \"#utility.yul\":8888:8893   */\n      dup2\n        /* \"#utility.yul\":8881:8893   */\n      swap1\n      pop\n        /* \"#utility.yul\":8824:8899   */\n      swap2\n      swap1\n      pop\n      jump\t// out\n        /* \"#utility.yul\":8905:9174   */\n    tag_80:\n        /* \"#utility.yul\":9015:9054   */\n      tag_188\n        /* \"#utility.yul\":9046:9053   */\n      dup4\n        /* \"#utility.yul\":9015:9054   */\n      tag_78\n      jump\t// in\n    tag_188:\n        /* \"#utility.yul\":9076:9167   */\n      tag_189\n        /* \"#utility.yul\":9125:9166   */\n      tag_190\n        /* \"#utility.yul\":9149:9165   */\n      dup3\n        /* \"#utility.yul\":9125:9166   */\n      tag_79\n      jump\t// in\n    tag_190:\n        /* \"#utility.yul\":9117:9123   */\n      dup5\n        /* \"#utility.yul\":9110:9114   */\n      dup5\n        /* \"#utility.yul\":9104:9115   */\n      sload\n        /* \"#utility.yul\":9076:9167   */\n      tag_76\n      jump\t// in\n    tag_189:\n        /* \"#utility.yul\":9070:9074   */\n      dup3\n        /* \"#utility.yul\":9063:9168   */\n      sstore\n        /* \"#utility.yul\":8981:9174   */\n      pop\n        /* \"#utility.yul\":8905:9174   */\n      pop\n      pop\n      pop\n      jump\t// out\n        /* \"#utility.yul\":9180:9253   */\n    tag_81:\n        /* \"#utility.yul\":9225:9228   */\n      0x00\n        /* \"#utility.yul\":9180:9253   */\n      swap1\n      jump\t// out\n        /* \"#utility.yul\":9259:9448   */\n    tag_82:\n        /* \"#utility.yul\":9336:9368   */\n      tag_193\n      tag_81\n      jump\t// in\n    tag_193:\n        /* \"#utility.yul\":9377:9442   */\n      tag_194\n        /* \"#utility.yul\":9435:9441   */\n      dup2\n        /* \"#utility.yul\":9427:9433   */\n      dup5\n        /* \"#utility.yul\":9421:9425   */\n      dup5\n        /* \"#utility.yul\":9377:9442   */\n      tag_80\n      jump\t// in\n    tag_194:\n        /* \"#utility.yul\":9312:9448   */\n      pop\n        /* \"#utility.yul\":9259:9448   */\n      pop\n      pop\n      jump\t// out\n        /* \"#utility.yul\":9454:9640   */\n    tag_83:\n        /* \"#utility.yul\":9514:9634   */\n    tag_196:\n        /* \"#utility.yul\":9531:9534   */\n      dup2\n        /* \"#utility.yul\":9524:9529   */\n      dup2\n        /* \"#utility.yul\":9521:9535   */\n      lt\n        /* \"#utility.yul\":9514:9634   */\n      iszero\n      tag_198\n      jumpi\n        /* \"#utility.yul\":9585:9624   */\n      tag_199\n        /* \"#utility.yul\":9622:9623   */\n      0x00\n        /* \"#utility.yul\":9615:9620   */\n      dup3\n        /* \"#utility.yul\":9585:9624   */\n      tag_82\n      jump\t// in\n    tag_199:\n        /* \"#utility.yul\":9558:9559   */\n      0x01\n        /* \"#utility.yul\":9551:9556   */\n      dup2\n        /* \"#utility.yul\":9547:9560   */\n      add\n        /* \"#utility.yul\":9538:9560   */\n      swap1\n      pop\n        /* \"#utility.yul\":9514:9634   */\n      jump(tag_196)\n    tag_198:\n        /* \"#utility.yul\":9454:9640   */\n      pop\n      pop\n      jump\t// out\n        /* \"#utility.yul\":9646:10189   */\n    tag_84:\n        /* \"#utility.yul\":9747:9749   */\n      0x1f\n        /* \"#utility.yul\":9742:9745   */\n      dup3\n        /* \"#utility.yul\":9739:9750   */\n      gt\n        /* \"#utility.yul\":9736:10182   */\n      iszero\n      tag_201\n      jumpi\n        /* \"#utility.yul\":9781:9819   */\n      tag_202\n        /* \"#utility.yul\":9813:9818   */\n      dup2\n        /* \"#utility.yul\":9781:9819   */\n      tag_73\n      jump\t// in\n    tag_202:\n        /* \"#utility.yul\":9865:9894   */\n      tag_203\n        /* \"#utility.yul\":9883:9893   */\n      dup5\n        /* \"#utility.yul\":9865:9894   */\n      tag_74\n      jump\t// in\n    tag_203:\n        /* \"#utility.yul\":9855:9863   */\n      dup2\n        /* \"#utility.yul\":9851:9895   */\n      add\n        /* \"#utility.yul\":10048:10050   */\n      0x20\n        /* \"#utility.yul\":10036:10046   */\n      dup6\n        /* \"#utility.yul\":10033:10051   */\n      lt\n        /* \"#utility.yul\":10030:10079   */\n      iszero\n      tag_204\n      jumpi\n        /* \"#utility.yul\":10069:10077   */\n      dup2\n        /* \"#utility.yul\":10054:10077   */\n      swap1\n      pop\n        /* \"#utility.yul\":10030:10079   */\n    tag_204:\n        /* \"#utility.yul\":10092:10172   */\n      tag_205\n        /* \"#utility.yul\":10148:10170   */\n      tag_206\n        /* \"#utility.yul\":10166:10169   */\n      dup6\n        /* \"#utility.yul\":10148:10170   */\n      tag_74\n      jump\t// in\n    tag_206:\n        /* \"#utility.yul\":10138:10146   */\n      dup4\n        /* \"#utility.yul\":10134:10171   */\n      add\n        /* \"#utility.yul\":10121:10132   */\n      dup3\n        /* \"#utility.yul\":10092:10172   */\n      tag_83\n      jump\t// in\n    tag_205:\n        /* \"#utility.yul\":9751:10182   */\n      pop\n      pop\n        /* \"#utility.yul\":9736:10182   */\n    tag_201:\n        /* \"#utility.yul\":9646:10189   */\n      pop\n      pop\n      pop\n      jump\t// out\n        /* \"#utility.yul\":10195:10312   */\n    tag_85:\n        /* \"#utility.yul\":10249:10257   */\n      0x00\n        /* \"#utility.yul\":10299:10304   */\n      dup3\n        /* \"#utility.yul\":10293:10297   */\n      dup3\n        /* \"#utility.yul\":10289:10305   */\n      shr\n        /* \"#utility.yul\":10268:10305   */\n      swap1\n      pop\n        /* \"#utility.yul\":10195:10312   */\n      swap3\n      swap2\n      pop\n      pop\n      jump\t// out\n        /* \"#utility.yul\":10318:10487   */\n    tag_86:\n        /* \"#utility.yul\":10362:10368   */\n      0x00\n        /* \"#utility.yul\":10395:10446   */\n      tag_209\n        /* \"#utility.yul\":10443:10444   */\n      0x00\n        /* \"#utility.yul\":10439:10445   */\n      not\n        /* \"#utility.yul\":10431:10436   */\n      dup5\n        /* \"#utility.yul\":10428:10429   */\n      0x08\n        /* \"#utility.yul\":10424:10437   */\n      mul\n        /* \"#utility.yul\":10395:10446   */\n      tag_85\n      jump\t// in\n    tag_209:\n        /* \"#utility.yul\":10391:10447   */\n      not\n        /* \"#utility.yul\":10476:10480   */\n      dup1\n        /* \"#utility.yul\":10470:10474   */\n      dup4\n        /* \"#utility.yul\":10466:10481   */\n      and\n        /* \"#utility.yul\":10456:10481   */\n      swap2\n      pop\n        /* \"#utility.yul\":10369:10487   */\n      pop\n        /* \"#utility.yul\":10318:10487   */\n      swap3\n      swap2\n      pop\n      pop\n      jump\t// out\n        /* \"#utility.yul\":10492:10787   */\n    tag_87:\n        /* \"#utility.yul\":10568:10572   */\n      0x00\n        /* \"#utility.yul\":10714:10743   */\n      tag_211\n        /* \"#utility.yul\":10739:10742   */\n      dup4\n        /* \"#utility.yul\":10733:10737   */\n      dup4\n        /* \"#utility.yul\":10714:10743   */\n      tag_86\n      jump\t// in\n    tag_211:\n        /* \"#utility.yul\":10706:10743   */\n      swap2\n      pop\n        /* \"#utility.yul\":10776:10779   */\n      dup3\n        /* \"#utility.yul\":10773:10774   */\n      0x02\n        /* \"#utility.yul\":10769:10780   */\n      mul\n        /* \"#utility.yul\":10763:10767   */\n      dup3\n        /* \"#utility.yul\":10760:10781   */\n      or\n        /* \"#utility.yul\":10752:10781   */\n      swap1\n      pop\n        /* \"#utility.yul\":10492:10787   */\n      swap3\n      swap2\n      pop\n      pop\n      jump\t// out\n        /* \"#utility.yul\":10792:12187   */\n    tag_31:\n        /* \"#utility.yul\":10909:10946   */\n      tag_213\n        /* \"#utility.yul\":10942:10945   */\n      dup3\n        /* \"#utility.yul\":10909:10946   */\n      tag_64\n      jump\t// in\n    tag_213:\n        /* \"#utility.yul\":11011:11029   */\n      0xffffffffffffffff\n        /* \"#utility.yul\":11003:11009   */\n      dup2\n        /* \"#utility.yul\":11000:11030   */\n      gt\n        /* \"#utility.yul\":10997:11053   */\n      iszero\n      tag_214\n      jumpi\n        /* \"#utility.yul\":11033:11051   */\n      tag_215\n      tag_54\n      jump\t// in\n    tag_215:\n        /* \"#utility.yul\":10997:11053   */\n    tag_214:\n        /* \"#utility.yul\":11077:11115   */\n      tag_216\n        /* \"#utility.yul\":11109:11113   */\n      dup3\n        /* \"#utility.yul\":11103:11114   */\n      sload\n        /* \"#utility.yul\":11077:11115   */\n      tag_34\n      jump\t// in\n    tag_216:\n        /* \"#utility.yul\":11162:11229   */\n      tag_217\n        /* \"#utility.yul\":11222:11228   */\n      dup3\n        /* \"#utility.yul\":11214:11220   */\n      dup3\n        /* \"#utility.yul\":11208:11212   */\n      dup6\n        /* \"#utility.yul\":11162:11229   */\n      tag_84\n      jump\t// in\n    tag_217:\n        /* \"#utility.yul\":11256:11257   */\n      0x00\n        /* \"#utility.yul\":11280:11284   */\n      0x20\n        /* \"#utility.yul\":11267:11284   */\n      swap1\n      pop\n        /* \"#utility.yul\":11312:11314   */\n      0x1f\n        /* \"#utility.yul\":11304:11310   */\n      dup4\n        /* \"#utility.yul\":11301:11315   */\n      gt\n        /* \"#utility.yul\":11329:11330   */\n      0x01\n        /* \"#utility.yul\":11324:11942   */\n      dup2\n      eq\n      tag_219\n      jumpi\n        /* \"#utility.yul\":11986:11987   */\n      0x00\n        /* \"#utility.yul\":12003:12009   */\n      dup5\n        /* \"#utility.yul\":12000:12077   */\n      iszero\n      tag_220\n      jumpi\n        /* \"#utility.yul\":12052:12061   */\n      dup3\n        /* \"#utility.yul\":12047:12050   */\n      dup8\n        /* \"#utility.yul\":12043:12062   */\n      add\n        /* \"#utility.yul\":12037:12063   */\n      mload\n        /* \"#utility.yul\":12028:12063   */\n      swap1\n      pop\n        /* \"#utility.yul\":12000:12077   */\n    tag_220:\n        /* \"#utility.yul\":12103:12170   */\n      tag_221\n        /* \"#utility.yul\":12163:12169   */\n      dup6\n        /* \"#utility.yul\":12156:12161   */\n      dup3\n        /* \"#utility.yul\":12103:12170   */\n      tag_87\n      jump\t// in\n    tag_221:\n        /* \"#utility.yul\":12097:12101   */\n      dup7\n        /* \"#utility.yul\":12090:12171   */\n      sstore\n        /* \"#utility.yul\":11959:12181   */\n      pop\n        /* \"#utility.yul\":11294:12181   */\n      jump(tag_218)\n        /* \"#utility.yul\":11324:11942   */\n    tag_219:\n        /* \"#utility.yul\":11376:11380   */\n      0x1f\n        /* \"#utility.yul\":11372:11381   */\n      not\n        /* \"#utility.yul\":11364:11370   */\n      dup5\n        /* \"#utility.yul\":11360:11382   */\n      and\n        /* \"#utility.yul\":11410:11447   */\n      tag_222\n        /* \"#utility.yul\":11442:11446   */\n      dup7\n        /* \"#utility.yul\":11410:11447   */\n      tag_73\n      jump\t// in\n    tag_222:\n        /* \"#utility.yul\":11469:11470   */\n      0x00\n        /* \"#utility.yul\":11483:11691   */\n    tag_223:\n        /* \"#utility.yul\":11497:11504   */\n      dup3\n        /* \"#utility.yul\":11494:11495   */\n      dup2\n        /* \"#utility.yul\":11491:11505   */\n      lt\n        /* \"#utility.yul\":11483:11691   */\n      iszero\n      tag_225\n      jumpi\n        /* \"#utility.yul\":11576:11585   */\n      dup5\n        /* \"#utility.yul\":11571:11574   */\n      dup10\n        /* \"#utility.yul\":11567:11586   */\n      add\n        /* \"#utility.yul\":11561:11587   */\n      mload\n        /* \"#utility.yul\":11553:11559   */\n      dup3\n        /* \"#utility.yul\":11546:11588   */\n      sstore\n        /* \"#utility.yul\":11627:11628   */\n      0x01\n        /* \"#utility.yul\":11619:11625   */\n      dup3\n        /* \"#utility.yul\":11615:11629   */\n      add\n        /* \"#utility.yul\":11605:11629   */\n      swap2\n      pop\n        /* \"#utility.yul\":11674:11676   */\n      0x20\n        /* \"#utility.yul\":11663:11672   */\n      dup6\n        /* \"#utility.yul\":11659:11677   */\n      add\n        /* \"#utility.yul\":11646:11677   */\n      swap5\n      pop\n        /* \"#utility.yul\":11520:11524   */\n      0x20\n        /* \"#utility.yul\":11517:11518   */\n      dup2\n        /* \"#utility.yul\":11513:11525   */\n      add\n        /* \"#utility.yul\":11508:11525   */\n      swap1\n      pop\n        /* \"#utility.yul\":11483:11691   */\n      jump(tag_223)\n    tag_225:\n        /* \"#utility.yul\":11719:11725   */\n      dup7\n        /* \"#utility.yul\":11710:11717   */\n      dup4\n        /* \"#utility.yul\":11707:11726   */\n      lt\n        /* \"#utility.yul\":11704:11883   */\n      iszero\n      tag_226\n      jumpi\n        /* \"#utility.yul\":11777:11786   */\n      dup5\n        /* \"#utility.yul\":11772:11775   */\n      dup10\n        /* \"#utility.yul\":11768:11787   */\n      add\n        /* \"#utility.yul\":11762:11788   */\n      mload\n        /* \"#utility.yul\":11820:11868   */\n      tag_227\n        /* \"#utility.yul\":11862:11866   */\n      0x1f\n        /* \"#utility.yul\":11854:11860   */\n      dup10\n        /* \"#utility.yul\":11850:11867   */\n      and\n        /* \"#utility.yul\":11839:11848   */\n      dup3\n        /* \"#utility.yul\":11820:11868   */\n      tag_86\n      jump\t// in\n    tag_227:\n        /* \"#utility.yul\":11812:11818   */\n      dup4\n        /* \"#utility.yul\":11805:11869   */\n      sstore\n        /* \"#utility.yul\":11727:11883   */\n      pop\n        /* \"#utility.yul\":11704:11883   */\n    tag_226:\n        /* \"#utility.yul\":11929:11930   */\n      0x01\n        /* \"#utility.yul\":11925:11926   */\n      0x02\n        /* \"#utility.yul\":11917:11923   */\n      dup9\n        /* \"#utility.yul\":11913:11927   */\n      mul\n        /* \"#utility.yul\":11909:11931   */\n      add\n        /* \"#utility.yul\":11903:11907   */\n      dup9\n        /* \"#utility.yul\":11896:11932   */\n      sstore\n        /* \"#utility.yul\":11331:11942   */\n      pop\n      pop\n      pop\n        /* \"#utility.yul\":11294:12181   */\n    tag_218:\n      pop\n        /* \"#utility.yul\":10884:12187   */\n      pop\n      pop\n      pop\n        /* \"#utility.yul\":10792:12187   */\n      pop\n      pop\n      jump\t// out\n\n    auxdata: 0xa26469706673582212202f6a70a5a778d950c3457b7cb985dce8c276c13593829211d8b45edf57f84ace64736f6c63430008120033\n}\n",
				"bytecode": {
					"linkReferences": {},
					"object": "608060405234801561001057600080fd5b50336000806101000a81548173ffffffffffffffffffffffffffffffffffffffff021916908373ffffffffffffffffffffffffffffffffffffffff160217905550610aba806100606000396000f3fe608060405234801561001057600080fd5b506004361061004c5760003560e01c80636b152939146100515780636b7b44d71461006d5780638da5cb5b1461009e578063a6c807a9146100bc575b600080fd5b61006b600480360381019061006691906105b6565b6100ed565b005b61008760048036038101906100829190610625565b6101f7565b6040516100959291906106e0565b60405180910390f35b6100a66102f8565b6040516100b3919061071f565b60405180910390f35b6100d660048036038101906100d19190610625565b61031c565b6040516100e49291906106e0565b60405180910390f35b60008054906101000a900473ffffffffffffffffffffffffffffffffffffffff1673ffffffffffffffffffffffffffffffffffffffff163373ffffffffffffffffffffffffffffffffffffffff161461017b576040517f08c379a000000000000000000000000000000000000000000000000000000000815260040161017290610786565b60405180910390fd5b604051806040016040528083815260200182815250600160008573ffffffffffffffffffffffffffffffffffffffff1673ffffffffffffffffffffffffffffffffffffffff16815260200190815260200160002060008201518160000190816101e491906109b2565b5060208201518160010155905050505050565b6060600080600160008573ffffffffffffffffffffffffffffffffffffffff1673ffffffffffffffffffffffffffffffffffffffff168152602001908152602001600020604051806040016040529081600082018054610256906107d5565b80601f0160208091040260200160405190810160405280929190818152602001828054610282906107d5565b80156102cf5780601f106102a4576101008083540402835291602001916102cf565b820191906000526020600020905b8154815290600101906020018083116102b257829003601f168201915b505050505081526020016001820154815250509050806000015181602001519250925050915091565b60008054906101000a900473ffffffffffffffffffffffffffffffffffffffff1681565b600160205280600052604060002060009150905080600001805461033f906107d5565b80601f016020809104026020016040519081016040528092919081815260200182805461036b906107d5565b80156103b85780601f1061038d576101008083540402835291602001916103b8565b820191906000526020600020905b81548152906001019060200180831161039b57829003601f168201915b5050505050908060010154905082565b6000604051905090565b600080fd5b600080fd5b600073ffffffffffffffffffffffffffffffffffffffff82169050919050565b6000610407826103dc565b9050919050565b610417816103fc565b811461042257600080fd5b50565b6000813590506104348161040e565b92915050565b600080fd5b600080fd5b6000601f19601f8301169050919050565b7f4e487b7100000000000000000000000000000000000000000000000000000000600052604160045260246000fd5b61048d82610444565b810181811067ffffffffffffffff821117156104ac576104ab610455565b5b80604052505050565b60006104bf6103c8565b90506104cb8282610484565b919050565b600067ffffffffffffffff8211156104eb576104ea610455565b5b6104f482610444565b9050602081019050919050565b82818337600083830152505050565b600061052361051e846104d0565b6104b5565b90508281526020810184848401111561053f5761053e61043f565b5b61054a848285610501565b509392505050565b600082601f8301126105675761056661043a565b5b8135610577848260208601610510565b91505092915050565b6000819050919050565b61059381610580565b811461059e57600080fd5b50565b6000813590506105b08161058a565b92915050565b6000806000606084860312156105cf576105ce6103d2565b5b60006105dd86828701610425565b935050602084013567ffffffffffffffff8111156105fe576105fd6103d7565b5b61060a86828701610552565b925050604061061b868287016105a1565b9150509250925092565b60006020828403121561063b5761063a6103d2565b5b600061064984828501610425565b91505092915050565b600081519050919050565b600082825260208201905092915050565b60005b8381101561068c578082015181840152602081019050610671565b60008484015250505050565b60006106a382610652565b6106ad818561065d565b93506106bd81856020860161066e565b6106c681610444565b840191505092915050565b6106da81610580565b82525050565b600060408201905081810360008301526106fa8185610698565b905061070960208301846106d1565b9392505050565b610719816103fc565b82525050565b60006020820190506107346000830184610710565b92915050565b7f4e6f7420616c6c6f776564000000000000000000000000000000000000000000600082015250565b6000610770600b8361065d565b915061077b8261073a565b602082019050919050565b6000602082019050818103600083015261079f81610763565b9050919050565b7f4e487b7100000000000000000000000000000000000000000000000000000000600052602260045260246000fd5b600060028204905060018216806107ed57607f821691505b602082108103610800576107ff6107a6565b5b50919050565b60008190508160005260206000209050919050565b60006020601f8301049050919050565b600082821b905092915050565b6000600883026108687fffffffffffffffffffffffffffffffffffffffffffffffffffffffffffffffff8261082b565b610872868361082b565b95508019841693508086168417925050509392505050565b6000819050919050565b60006108af6108aa6108a584610580565b61088a565b610580565b9050919050565b6000819050919050565b6108c983610894565b6108dd6108d5826108b6565b848454610838565b825550505050565b600090565b6108f26108e5565b6108fd8184846108c0565b505050565b5b81811015610921576109166000826108ea565b600181019050610903565b5050565b601f8211156109665761093781610806565b6109408461081b565b8101602085101561094f578190505b61096361095b8561081b565b830182610902565b50505b505050565b600082821c905092915050565b60006109896000198460080261096b565b1980831691505092915050565b60006109a28383610978565b9150826002028217905092915050565b6109bb82610652565b67ffffffffffffffff8111156109d4576109d3610455565b5b6109de82546107d5565b6109e9828285610925565b600060209050601f831160018114610a1c5760008415610a0a578287015190505b610a148582610996565b865550610a7c565b601f198416610a2a86610806565b60005b82811015610a5257848901518255600182019150602085019450602081019050610a2d565b86831015610a6f5784890151610a6b601f891682610978565b8355505b6001600288020188555050505b50505050505056fea26469706673582212202f6a70a5a778d950c3457b7cb985dce8c276c13593829211d8b45edf57f84ace64736f6c63430008120033",
					"opcodes": "PUSH1 0x80 PUSH1 0x40 MSTORE CALLVALUE DUP1 ISZERO PUSH2 0x10 JUMPI PUSH1 0x0 DUP1 REVERT JUMPDEST POP CALLER PUSH1 0x0 DUP1 PUSH2 0x100 EXP DUP2 SLOAD DUP2 PUSH20 0xFFFFFFFFFFFFFFFFFFFFFFFFFFFFFFFFFFFFFFFF MUL NOT AND SWAP1 DUP4 PUSH20 0xFFFFFFFFFFFFFFFFFFFFFFFFFFFFFFFFFFFFFFFF AND MUL OR SWAP1 SSTORE POP PUSH2 0xABA DUP1 PUSH2 0x60 PUSH1 0x0 CODECOPY PUSH1 0x0 RETURN INVALID PUSH1 0x80 PUSH1 0x40 MSTORE CALLVALUE DUP1 ISZERO PUSH2 0x10 JUMPI PUSH1 0x0 DUP1 REVERT JUMPDEST POP PUSH1 0x4 CALLDATASIZE LT PUSH2 0x4C JUMPI PUSH1 0x0 CALLDATALOAD PUSH1 0xE0 SHR DUP1 PUSH4 0x6B152939 EQ PUSH2 0x51 JUMPI DUP1 PUSH4 0x6B7B44D7 EQ PUSH2 0x6D JUMPI DUP1 PUSH4 0x8DA5CB5B EQ PUSH2 0x9E JUMPI DUP1 PUSH4 0xA6C807A9 EQ PUSH2 0xBC JUMPI JUMPDEST PUSH1 0x0 DUP1 REVERT JUMPDEST PUSH2 0x6B PUSH1 0x4 DUP1 CALLDATASIZE SUB DUP2 ADD SWAP1 PUSH2 0x66 SWAP2 SWAP1 PUSH2 0x5B6 JUMP JUMPDEST PUSH2 0xED JUMP JUMPDEST STOP JUMPDEST PUSH2 0x87 PUSH1 0x4 DUP1 CALLDATASIZE SUB DUP2 ADD SWAP1 PUSH2 0x82 SWAP2 SWAP1 PUSH2 0x625 JUMP JUMPDEST PUSH2 0x1F7 JUMP JUMPDEST PUSH1 0x40 MLOAD PUSH2 0x95 SWAP3 SWAP2 SWAP1 PUSH2 0x6E0 JUMP JUMPDEST PUSH1 0x40 MLOAD DUP1 SWAP2 SUB SWAP1 RETURN JUMPDEST PUSH2 0xA6 PUSH2 0x2F8 JUMP JUMPDEST PUSH1 0x40 MLOAD PUSH2 0xB3 SWAP2 SWAP1 PUSH2 0x71F JUMP JUMPDEST PUSH1 0x40 MLOAD DUP1 SWAP2 SUB SWAP1 RETURN JUMPDEST PUSH2 0xD6 PUSH1 0x4 DUP1 CALLDATASIZE SUB DUP2 ADD SWAP1 PUSH2 0xD1 SWAP2 SWAP1 PUSH2 0x625 JUMP JUMPDEST PUSH2 0x31C JUMP JUMPDEST PUSH1 0x40 MLOAD PUSH2 0xE4 SWAP3 SWAP2 SWAP1 PUSH2 0x6E0 JUMP JUMPDEST PUSH1 0x40 MLOAD DUP1 SWAP2 SUB SWAP1 RETURN JUMPDEST PUSH1 0x0 DUP1 SLOAD SWAP1 PUSH2 0x100 EXP SWAP1 DIV PUSH20 0xFFFFFFFFFFFFFFFFFFFFFFFFFFFFFFFFFFFFFFFF AND PUSH20 0xFFFFFFFFFFFFFFFFFFFFFFFFFFFFFFFFFFFFFFFF AND CALLER PUSH20 0xFFFFFFFFFFFFFFFFFFFFFFFFFFFFFFFFFFFFFFFF AND EQ PUSH2 0x17B JUMPI PUSH1 0x40 MLOAD PUSH32 0x8C379A000000000000000000000000000000000000000000000000000000000 DUP2 MSTORE PUSH1 0x4 ADD PUSH2 0x172 SWAP1 PUSH2 0x786 JUMP JUMPDEST PUSH1 0x40 MLOAD DUP1 SWAP2 SUB SWAP1 REVERT JUMPDEST PUSH1 0x40 MLOAD DUP1 PUSH1 0x40 ADD PUSH1 0x40 MSTORE DUP1 DUP4 DUP2 MSTORE PUSH1 0x20 ADD DUP3 DUP2 MSTORE POP PUSH1 0x1 PUSH1 0x0 DUP6 PUSH20 0xFFFFFFFFFFFFFFFFFFFFFFFFFFFFFFFFFFFFFFFF AND PUSH20 0xFFFFFFFFFFFFFFFFFFFFFFFFFFFFFFFFFFFFFFFF AND DUP2 MSTORE PUSH1 0x20 ADD SWAP1 DUP2 MSTORE PUSH1 0x20 ADD PUSH1 0x0 KECCAK256 PUSH1 0x0 DUP3 ADD MLOAD DUP2 PUSH1 0x0 ADD SWAP1 DUP2 PUSH2 0x1E4 SWAP2 SWAP1 PUSH2 0x9B2 JUMP JUMPDEST POP PUSH1 0x20 DUP3 ADD MLOAD DUP2 PUSH1 0x1 ADD SSTORE SWAP1 POP POP POP POP POP JUMP JUMPDEST PUSH1 0x60 PUSH1 0x0 DUP1 PUSH1 0x1 PUSH1 0x0 DUP6 PUSH20 0xFFFFFFFFFFFFFFFFFFFFFFFFFFFFFFFFFFFFFFFF AND PUSH20 0xFFFFFFFFFFFFFFFFFFFFFFFFFFFFFFFFFFFFFFFF AND DUP2 MSTORE PUSH1 0x20 ADD SWAP1 DUP2 MSTORE PUSH1 0x20 ADD PUSH1 0x0 KECCAK256 PUSH1 0x40 MLOAD DUP1 PUSH1 0x40 ADD PUSH1 0x40 MSTORE SWAP1 DUP2 PUSH1 0x0 DUP3 ADD DUP1 SLOAD PUSH2 0x256 SWAP1 PUSH2 0x7D5 JUMP JUMPDEST DUP1 PUSH1 0x1F ADD PUSH1 0x20 DUP1 SWAP2 DIV MUL PUSH1 0x20 ADD PUSH1 0x40 MLOAD SWAP1 DUP2 ADD PUSH1 0x40 MSTORE DUP1 SWAP3 SWAP2 SWAP1 DUP2 DUP2 MSTORE PUSH1 0x20 ADD DUP3 DUP1 SLOAD PUSH2 0x282 SWAP1 PUSH2 0x7D5 JUMP JUMPDEST DUP1 ISZERO PUSH2 0x2CF JUMPI DUP1 PUSH1 0x1F LT PUSH2 0x2A4 JUMPI PUSH2 0x100 DUP1 DUP4 SLOAD DIV MUL DUP4 MSTORE SWAP2 PUSH1 0x20 ADD SWAP2 PUSH2 0x2CF JUMP JUMPDEST DUP3 ADD SWAP2 SWAP1 PUSH1 0x0 MSTORE PUSH1 0x20 PUSH1 0x0 KECCAK256 SWAP1 JUMPDEST DUP2 SLOAD DUP2 MSTORE SWAP1 PUSH1 0x1 ADD SWAP1 PUSH1 0x20 ADD DUP1 DUP4 GT PUSH2 0x2B2 JUMPI DUP3 SWAP1 SUB PUSH1 0x1F AND DUP3 ADD SWAP2 JUMPDEST POP POP POP POP POP DUP2 MSTORE PUSH1 0x20 ADD PUSH1 0x1 DUP3 ADD SLOAD DUP2 MSTORE POP POP SWAP1 POP DUP1 PUSH1 0x0 ADD MLOAD DUP2 PUSH1 0x20 ADD MLOAD SWAP3 POP SWAP3 POP POP SWAP2 POP SWAP2 JUMP JUMPDEST PUSH1 0x0 DUP1 SLOAD SWAP1 PUSH2 0x100 EXP SWAP1 DIV PUSH20 0xFFFFFFFFFFFFFFFFFFFFFFFFFFFFFFFFFFFFFFFF AND DUP2 JUMP JUMPDEST PUSH1 0x1 PUSH1 0x20 MSTORE DUP1 PUSH1 0x0 MSTORE PUSH1 0x40 PUSH1 0x0 KECCAK256 PUSH1 0x0 SWAP2 POP SWAP1 POP DUP1 PUSH1 0x0 ADD DUP1 SLOAD PUSH2 0x33F SWAP1 PUSH2 0x7D5 JUMP JUMPDEST DUP1 PUSH1 0x1F ADD PUSH1 0x20 DUP1 SWAP2 DIV MUL PUSH1 0x20 ADD PUSH1 0x40 MLOAD SWAP1 DUP2 ADD PUSH1 0x40 MSTORE DUP1 SWAP3 SWAP2 SWAP1 DUP2 DUP2 MSTORE PUSH1 0x20 ADD DUP3 DUP1 SLOAD PUSH2 0x36B SWAP1 PUSH2 0x7D5 JUMP JUMPDEST DUP1 ISZERO PUSH2 0x3B8 JUMPI DUP1 PUSH1 0x1F LT PUSH2 0x38D JUMPI PUSH2 0x100 DUP1 DUP4 SLOAD DIV MUL DUP4 MSTORE SWAP2 PUSH1 0x20 ADD SWAP2 PUSH2 0x3B8 JUMP JUMPDEST DUP3 ADD SWAP2 SWAP1 PUSH1 0x0 MSTORE PUSH1 0x20 PUSH1 0x0 KECCAK256 SWAP1 JUMPDEST DUP2 SLOAD DUP2 MSTORE SWAP1 PUSH1 0x1 ADD SWAP1 PUSH1 0x20 ADD DUP1 DUP4 GT PUSH2 0x39B JUMPI DUP3 SWAP1 SUB PUSH1 0x1F AND DUP3 ADD SWAP2 JUMPDEST POP POP POP POP POP SWAP1 DUP1 PUSH1 0x1 ADD SLOAD SWAP1 POP DUP3 JUMP JUMPDEST PUSH1 0x0 PUSH1 0x40 MLOAD SWAP1 POP SWAP1 JUMP JUMPDEST PUSH1 0x0 DUP1 REVERT JUMPDEST PUSH1 0x0 DUP1 REVERT JUMPDEST PUSH1 0x0 PUSH20 0xFFFFFFFFFFFFFFFFFFFFFFFFFFFFFFFFFFFFFFFF DUP3 AND SWAP1 POP SWAP2 SWAP1 POP JUMP JUMPDEST PUSH1 0x0 PUSH2 0x407 DUP3 PUSH2 0x3DC JUMP JUMPDEST SWAP1 POP SWAP2 SWAP1 POP JUMP JUMPDEST PUSH2 0x417 DUP2 PUSH2 0x3FC JUMP JUMPDEST DUP2 EQ PUSH2 0x422 JUMPI PUSH1 0x0 DUP1 REVERT JUMPDEST POP JUMP JUMPDEST PUSH1 0x0 DUP2 CALLDATALOAD SWAP1 POP PUSH2 0x434 DUP2 PUSH2 0x40E JUMP JUMPDEST SWAP3 SWAP2 POP POP JUMP JUMPDEST PUSH1 0x0 DUP1 REVERT JUMPDEST PUSH1 0x0 DUP1 REVERT JUMPDEST PUSH1 0x0 PUSH1 0x1F NOT PUSH1 0x1F DUP4 ADD AND SWAP1 POP SWAP2 SWAP1 POP JUMP JUMPDEST PUSH32 0x4E487B7100000000000000000000000000000000000000000000000000000000 PUSH1 0x0 MSTORE PUSH1 0x41 PUSH1 0x4 MSTORE PUSH1 0x24 PUSH1 0x0 REVERT JUMPDEST PUSH2 0x48D DUP3 PUSH2 0x444 JUMP JUMPDEST DUP2 ADD DUP2 DUP2 LT PUSH8 0xFFFFFFFFFFFFFFFF DUP3 GT OR ISZERO PUSH2 0x4AC JUMPI PUSH2 0x4AB PUSH2 0x455 JUMP JUMPDEST JUMPDEST DUP1 PUSH1 0x40 MSTORE POP POP POP JUMP JUMPDEST PUSH1 0x0 PUSH2 0x4BF PUSH2 0x3C8 JUMP JUMPDEST SWAP1 POP PUSH2 0x4CB DUP3 DUP3 PUSH2 0x484 JUMP JUMPDEST SWAP2 SWAP1 POP JUMP JUMPDEST PUSH1 0x0 PUSH8 0xFFFFFFFFFFFFFFFF DUP3 GT ISZERO PUSH2 0x4EB JUMPI PUSH2 0x4EA PUSH2 0x455 JUMP JUMPDEST JUMPDEST PUSH2 0x4F4 DUP3 PUSH2 0x444 JUMP JUMPDEST SWAP1 POP PUSH1 0x20 DUP2 ADD SWAP1 POP SWAP2 SWAP1 POP JUMP JUMPDEST DUP3 DUP2 DUP4 CALLDATACOPY PUSH1 0x0 DUP4 DUP4 ADD MSTORE POP POP POP JUMP JUMPDEST PUSH1 0x0 PUSH2 0x523 PUSH2 0x51E DUP5 PUSH2 0x4D0 JUMP JUMPDEST PUSH2 0x4B5 JUMP JUMPDEST SWAP1 POP DUP3 DUP2 MSTORE PUSH1 0x20 DUP2 ADD DUP5 DUP5 DUP5 ADD GT ISZERO PUSH2 0x53F JUMPI PUSH2 0x53E PUSH2 0x43F JUMP JUMPDEST JUMPDEST PUSH2 0x54A DUP5 DUP3 DUP6 PUSH2 0x501 JUMP JUMPDEST POP SWAP4 SWAP3 POP POP POP JUMP JUMPDEST PUSH1 0x0 DUP3 PUSH1 0x1F DUP4 ADD SLT PUSH2 0x567 JUMPI PUSH2 0x566 PUSH2 0x43A JUMP JUMPDEST JUMPDEST DUP2 CALLDATALOAD PUSH2 0x577 DUP5 DUP3 PUSH1 0x20 DUP7 ADD PUSH2 0x510 JUMP JUMPDEST SWAP2 POP POP SWAP3 SWAP2 POP POP JUMP JUMPDEST PUSH1 0x0 DUP2 SWAP1 POP SWAP2 SWAP1 POP JUMP JUMPDEST PUSH2 0x593 DUP2 PUSH2 0x580 JUMP JUMPDEST DUP2 EQ PUSH2 0x59E JUMPI PUSH1 0x0 DUP1 REVERT JUMPDEST POP JUMP JUMPDEST PUSH1 0x0 DUP2 CALLDATALOAD SWAP1 POP PUSH2 0x5B0 DUP2 PUSH2 0x58A JUMP JUMPDEST SWAP3 SWAP2 POP POP JUMP JUMPDEST PUSH1 0x0 DUP1 PUSH1 0x0 PUSH1 0x60 DUP5 DUP7 SUB SLT ISZERO PUSH2 0x5CF JUMPI PUSH2 0x5CE PUSH2 0x3D2 JUMP JUMPDEST JUMPDEST PUSH1 0x0 PUSH2 0x5DD DUP7 DUP3 DUP8 ADD PUSH2 0x425 JUMP JUMPDEST SWAP4 POP POP PUSH1 0x20 DUP5 ADD CALLDATALOAD PUSH8 0xFFFFFFFFFFFFFFFF DUP2 GT ISZERO PUSH2 0x5FE JUMPI PUSH2 0x5FD PUSH2 0x3D7 JUMP JUMPDEST JUMPDEST PUSH2 0x60A DUP7 DUP3 DUP8 ADD PUSH2 0x552 JUMP JUMPDEST SWAP3 POP POP PUSH1 0x40 PUSH2 0x61B DUP7 DUP3 DUP8 ADD PUSH2 0x5A1 JUMP JUMPDEST SWAP2 POP POP SWAP3 POP SWAP3 POP SWAP3 JUMP JUMPDEST PUSH1 0x0 PUSH1 0x20 DUP3 DUP5 SUB SLT ISZERO PUSH2 0x63B JUMPI PUSH2 0x63A PUSH2 0x3D2 JUMP JUMPDEST JUMPDEST PUSH1 0x0 PUSH2 0x649 DUP5 DUP3 DUP6 ADD PUSH2 0x425 JUMP JUMPDEST SWAP2 POP POP SWAP3 SWAP2 POP POP JUMP JUMPDEST PUSH1 0x0 DUP2 MLOAD SWAP1 POP SWAP2 SWAP1 POP JUMP JUMPDEST PUSH1 0x0 DUP3 DUP3 MSTORE PUSH1 0x20 DUP3 ADD SWAP1 POP SWAP3 SWAP2 POP POP JUMP JUMPDEST PUSH1 0x0 JUMPDEST DUP4 DUP2 LT ISZERO PUSH2 0x68C JUMPI DUP1 DUP3 ADD MLOAD DUP2 DUP5 ADD MSTORE PUSH1 0x20 DUP2 ADD SWAP1 POP PUSH2 0x671 JUMP JUMPDEST PUSH1 0x0 DUP5 DUP5 ADD MSTORE POP POP POP POP JUMP JUMPDEST PUSH1 0x0 PUSH2 0x6A3 DUP3 PUSH2 0x652 JUMP JUMPDEST PUSH2 0x6AD DUP2 DUP6 PUSH2 0x65D JUMP JUMPDEST SWAP4 POP PUSH2 0x6BD DUP2 DUP6 PUSH1 0x20 DUP7 ADD PUSH2 0x66E JUMP JUMPDEST PUSH2 0x6C6 DUP2 PUSH2 0x444 JUMP JUMPDEST DUP5 ADD SWAP2 POP POP SWAP3 SWAP2 POP POP JUMP JUMPDEST PUSH2 0x6DA DUP2 PUSH2 0x580 JUMP JUMPDEST DUP3 MSTORE POP POP JUMP JUMPDEST PUSH1 0x0 PUSH1 0x40 DUP3 ADD SWAP1 POP DUP2 DUP2 SUB PUSH1 0x0 DUP4 ADD MSTORE PUSH2 0x6FA DUP2 DUP6 PUSH2 0x698 JUMP JUMPDEST SWAP1 POP PUSH2 0x709 PUSH1 0x20 DUP4 ADD DUP5 PUSH2 0x6D1 JUMP JUMPDEST SWAP4 SWAP3 POP POP POP JUMP JUMPDEST PUSH2 0x719 DUP2 PUSH2 0x3FC JUMP JUMPDEST DUP3 MSTORE POP POP JUMP JUMPDEST PUSH1 0x0 PUSH1 0x20 DUP3 ADD SWAP1 POP PUSH2 0x734 PUSH1 0x0 DUP4 ADD DUP5 PUSH2 0x710 JUMP JUMPDEST SWAP3 SWAP2 POP POP JUMP JUMPDEST PUSH32 0x4E6F7420616C6C6F776564000000000000000000000000000000000000000000 PUSH1 0x0 DUP3 ADD MSTORE POP JUMP JUMPDEST PUSH1 0x0 PUSH2 0x770 PUSH1 0xB DUP4 PUSH2 0x65D JUMP JUMPDEST SWAP2 POP PUSH2 0x77B DUP3 PUSH2 0x73A JUMP JUMPDEST PUSH1 0x20 DUP3 ADD SWAP1 POP SWAP2 SWAP1 POP JUMP JUMPDEST PUSH1 0x0 PUSH1 0x20 DUP3 ADD SWAP1 POP DUP2 DUP2 SUB PUSH1 0x0 DUP4 ADD MSTORE PUSH2 0x79F DUP2 PUSH2 0x763 JUMP JUMPDEST SWAP1 POP SWAP2 SWAP1 POP JUMP JUMPDEST PUSH32 0x4E487B7100000000000000000000000000000000000000000000000000000000 PUSH1 0x0 MSTORE PUSH1 0x22 PUSH1 0x4 MSTORE PUSH1 0x24 PUSH1 0x0 REVERT JUMPDEST PUSH1 0x0 PUSH1 0x2 DUP3 DIV SWAP1 POP PUSH1 0x1 DUP3 AND DUP1 PUSH2 0x7ED JUMPI PUSH1 0x7F DUP3 AND SWAP2 POP JUMPDEST PUSH1 0x20 DUP3 LT DUP2 SUB PUSH2 0x800 JUMPI PUSH2 0x7FF PUSH2 0x7A6 JUMP JUMPDEST JUMPDEST POP SWAP2 SWAP1 POP JUMP JUMPDEST PUSH1 0x0 DUP2 SWAP1 POP DUP2 PUSH1 0x0 MSTORE PUSH1 0x20 PUSH1 0x0 KECCAK256 SWAP1 POP SWAP2 SWAP1 POP JUMP JUMPDEST PUSH1 0x0 PUSH1 0x20 PUSH1 0x1F DUP4 ADD DIV SWAP1 POP SWAP2 SWAP1 POP JUMP JUMPDEST PUSH1 0x0 DUP3 DUP3 SHL SWAP1 POP SWAP3 SWAP2 POP POP JUMP JUMPDEST PUSH1 0x0 PUSH1 0x8 DUP4 MUL PUSH2 0x868 PUSH32 0xFFFFFFFFFFFFFFFFFFFFFFFFFFFFFFFFFFFFFFFFFFFFFFFFFFFFFFFFFFFFFFFF DUP3 PUSH2 0x82B JUMP JUMPDEST PUSH2 0x872 DUP7 DUP4 PUSH2 0x82B JUMP JUMPDEST SWAP6 POP DUP1 NOT DUP5 AND SWAP4 POP DUP1 DUP7 AND DUP5 OR SWAP3 POP POP POP SWAP4 SWAP3 POP POP POP JUMP JUMPDEST PUSH1 0x0 DUP2 SWAP1 POP SWAP2 SWAP1 POP JUMP JUMPDEST PUSH1 0x0 PUSH2 0x8AF PUSH2 0x8AA PUSH2 0x8A5 DUP5 PUSH2 0x580 JUMP JUMPDEST PUSH2 0x88A JUMP JUMPDEST PUSH2 0x580 JUMP JUMPDEST SWAP1 POP SWAP2 SWAP1 POP JUMP JUMPDEST PUSH1 0x0 DUP2 SWAP1 POP SWAP2 SWAP1 POP JUMP JUMPDEST PUSH2 0x8C9 DUP4 PUSH2 0x894 JUMP JUMPDEST PUSH2 0x8DD PUSH2 0x8D5 DUP3 PUSH2 0x8B6 JUMP JUMPDEST DUP5 DUP5 SLOAD PUSH2 0x838 JUMP JUMPDEST DUP3 SSTORE POP POP POP POP JUMP JUMPDEST PUSH1 0x0 SWAP1 JUMP JUMPDEST PUSH2 0x8F2 PUSH2 0x8E5 JUMP JUMPDEST PUSH2 0x8FD DUP2 DUP5 DUP5 PUSH2 0x8C0 JUMP JUMPDEST POP POP POP JUMP JUMPDEST JUMPDEST DUP2 DUP2 LT ISZERO PUSH2 0x921 JUMPI PUSH2 0x916 PUSH1 0x0 DUP3 PUSH2 0x8EA JUMP JUMPDEST PUSH1 0x1 DUP2 ADD SWAP1 POP PUSH2 0x903 JUMP JUMPDEST POP POP JUMP JUMPDEST PUSH1 0x1F DUP3 GT ISZERO PUSH2 0x966 JUMPI PUSH2 0x937 DUP2 PUSH2 0x806 JUMP JUMPDEST PUSH2 0x940 DUP5 PUSH2 0x81B JUMP JUMPDEST DUP2 ADD PUSH1 0x20 DUP6 LT ISZERO PUSH2 0x94F JUMPI DUP2 SWAP1 POP JUMPDEST PUSH2 0x963 PUSH2 0x95B DUP6 PUSH2 0x81B JUMP JUMPDEST DUP4 ADD DUP3 PUSH2 0x902 JUMP JUMPDEST POP POP JUMPDEST POP POP POP JUMP JUMPDEST PUSH1 0x0 DUP3 DUP3 SHR SWAP1 POP SWAP3 SWAP2 POP POP JUMP JUMPDEST PUSH1 0x0 PUSH2 0x989 PUSH1 0x0 NOT DUP5 PUSH1 0x8 MUL PUSH2 0x96B JUMP JUMPDEST NOT DUP1 DUP4 AND SWAP2 POP POP SWAP3 SWAP2 POP POP JUMP JUMPDEST PUSH1 0x0 PUSH2 0x9A2 DUP4 DUP4 PUSH2 0x978 JUMP JUMPDEST SWAP2 POP DUP3 PUSH1 0x2 MUL DUP3 OR SWAP1 POP SWAP3 SWAP2 POP POP JUMP JUMPDEST PUSH2 0x9BB DUP3 PUSH2 0x652 JUMP JUMPDEST PUSH8 0xFFFFFFFFFFFFFFFF DUP2 GT ISZERO PUSH2 0x9D4 JUMPI PUSH2 0x9D3 PUSH2 0x455 JUMP JUMPDEST JUMPDEST PUSH2 0x9DE DUP3 SLOAD PUSH2 0x7D5 JUMP JUMPDEST PUSH2 0x9E9 DUP3 DUP3 DUP6 PUSH2 0x925 JUMP JUMPDEST PUSH1 0x0 PUSH1 0x20 SWAP1 POP PUSH1 0x1F DUP4 GT PUSH1 0x1 DUP2 EQ PUSH2 0xA1C JUMPI PUSH1 0x0 DUP5 ISZERO PUSH2 0xA0A JUMPI DUP3 DUP8 ADD MLOAD SWAP1 POP JUMPDEST PUSH2 0xA14 DUP6 DUP3 PUSH2 0x996 JUMP JUMPDEST DUP7 SSTORE POP PUSH2 0xA7C JUMP JUMPDEST PUSH1 0x1F NOT DUP5 AND PUSH2 0xA2A DUP7 PUSH2 0x806 JUMP JUMPDEST PUSH1 0x0 JUMPDEST DUP3 DUP2 LT ISZERO PUSH2 0xA52 JUMPI DUP5 DUP10 ADD MLOAD DUP3 SSTORE PUSH1 0x1 DUP3 ADD SWAP2 POP PUSH1 0x20 DUP6 ADD SWAP5 POP PUSH1 0x20 DUP2 ADD SWAP1 POP PUSH2 0xA2D JUMP JUMPDEST DUP7 DUP4 LT ISZERO PUSH2 0xA6F JUMPI DUP5 DUP10 ADD MLOAD PUSH2 0xA6B PUSH1 0x1F DUP10 AND DUP3 PUSH2 0x978 JUMP JUMPDEST DUP4 SSTORE POP JUMPDEST PUSH1 0x1 PUSH1 0x2 DUP9 MUL ADD DUP9 SSTORE POP POP POP JUMPDEST POP POP POP POP POP POP JUMP INVALID LOG2 PUSH5 0x6970667358 0x22 SLT KECCAK256 0x2F PUSH11 0x70A5A778D950C3457B7CB9 DUP6 0xDC 0xE8 0xC2 PUSH23 0xC13593829211D8B45EDF57F84ACE64736F6C6343000812 STOP CALLER "
				},
				"gasEstimates": {
					"creation": {
						"codeDepositCost": "549200",
						"executionCost": "24847",
						"totalCost": "574047"
					},
					"external": {
						"getStudent(address)": "infinite",
						"owner()": "2533",
						"setStudent(address,string,uint256)": "infinite",
						"students(address)": "infinite"
					}
				},
				"methodIdentifiers": {
					"getStudent(address)": "6b7b44d7",
					"owner()": "8da5cb5b",
					"setStudent(address,string,uint256)": "6b152939",
					"students(address)": "a6c807a9"
				}
			},
			"storageLayout": {
				"storage": [
					{
						"astId": 3,
						"contract": "tp/student.sol:StudentMarksControl",
						"label": "owner",
						"offset": 0,
						"slot": "0",
						"type": "t_address"
					},
					{
						"astId": 22,
						"contract": "tp/student.sol:StudentMarksControl",
						"label": "students",
						"offset": 0,
						"slot": "1",
						"type": "t_mapping(t_address,t_struct(Student)17_storage)"
					}
				],
				"types": {
					"t_address": {
						"encoding": "inplace",
						"label": "address",
						"numberOfBytes": "20"
					},
					"t_mapping(t_address,t_struct(Student)17_storage)": {
						"encoding": "mapping",
						"key": "t_address",
						"label": "mapping(address => struct StudentMarksControl.Student)",
						"numberOfBytes": "32",
						"value": "t_struct(Student)17_storage"
					},
					"t_string_storage": {
						"encoding": "bytes",
						"label": "string",
						"numberOfBytes": "32"
					},
					"t_struct(Student)17_storage": {
						"encoding": "inplace",
						"label": "struct StudentMarksControl.Student",
						"members": [
							{
								"astId": 14,
								"contract": "tp/student.sol:StudentMarksControl",
								"label": "name",
								"offset": 0,
								"slot": "0",
								"type": "t_string_storage"
							},
							{
								"astId": 16,
								"contract": "tp/student.sol:StudentMarksControl",
								"label": "marks",
								"offset": 0,
								"slot": "1",
								"type": "t_uint256"
							}
						],
						"numberOfBytes": "64"
					},
					"t_uint256": {
						"encoding": "inplace",
						"label": "uint256",
						"numberOfBytes": "32"
					}
				}
			},
			"userdoc": {
				"kind": "user",
				"methods": {},
				"version": 1
			}
		}
	}
}