{
	"Twitter_Dapp_codesandbox.sol": {
		"Twitter": {
			"abi": [
				{
					"inputs": [],
					"name": "MAX_TWEET_LENGTH",
					"outputs": [
						{
							"internalType": "uint16",
							"name": "",
							"type": "uint16"
						}
					],
					"stateMutability": "view",
					"type": "function"
				},
				{
					"inputs": [
						{
							"internalType": "string",
							"name": "_tweet",
							"type": "string"
						}
					],
					"name": "createTweet",
					"outputs": [],
					"stateMutability": "nonpayable",
					"type": "function"
				},
				{
					"inputs": [
						{
							"internalType": "address",
							"name": "_author",
							"type": "address"
						},
						{
							"internalType": "uint256",
							"name": "_id",
							"type": "uint256"
						}
					],
					"name": "dislikeTweet",
					"outputs": [],
					"stateMutability": "nonpayable",
					"type": "function"
				},
				{
					"inputs": [
						{
							"internalType": "address",
							"name": "_owner",
							"type": "address"
						}
					],
					"name": "getAllTweets",
					"outputs": [
						{
							"components": [
								{
									"internalType": "uint256",
									"name": "id",
									"type": "uint256"
								},
								{
									"internalType": "address",
									"name": "author",
									"type": "address"
								},
								{
									"internalType": "string",
									"name": "content",
									"type": "string"
								},
								{
									"internalType": "uint256",
									"name": "timestamp",
									"type": "uint256"
								},
								{
									"internalType": "uint256",
									"name": "likes",
									"type": "uint256"
								}
							],
							"internalType": "struct Twitter.Tweet[]",
							"name": "",
							"type": "tuple[]"
						}
					],
					"stateMutability": "view",
					"type": "function"
				},
				{
					"inputs": [
						{
							"internalType": "address",
							"name": "_author",
							"type": "address"
						},
						{
							"internalType": "uint256",
							"name": "_id",
							"type": "uint256"
						}
					],
					"name": "likeTweet",
					"outputs": [],
					"stateMutability": "nonpayable",
					"type": "function"
				},
				{
					"inputs": [
						{
							"internalType": "address",
							"name": "",
							"type": "address"
						},
						{
							"internalType": "uint256",
							"name": "",
							"type": "uint256"
						}
					],
					"name": "tweets",
					"outputs": [
						{
							"internalType": "uint256",
							"name": "id",
							"type": "uint256"
						},
						{
							"internalType": "address",
							"name": "author",
							"type": "address"
						},
						{
							"internalType": "string",
							"name": "content",
							"type": "string"
						},
						{
							"internalType": "uint256",
							"name": "timestamp",
							"type": "uint256"
						},
						{
							"internalType": "uint256",
							"name": "likes",
							"type": "uint256"
						}
					],
					"stateMutability": "view",
					"type": "function"
				}
			],
			"devdoc": {
				"kind": "dev",
				"methods": {},
				"version": 1
			},
			"evm": {
				"assembly": "    /* \"Twitter_Dapp_codesandbox.sol\":60:1372  contract Twitter {... */\n  mstore(0x40, 0x80)\n    /* \"Twitter_Dapp_codesandbox.sol\":119:122  280 */\n  0x0118\n    /* \"Twitter_Dapp_codesandbox.sol\":86:122  uint16 public MAX_TWEET_LENGTH = 280 */\n  0x00\n  exp(0x0100, 0x00)\n  dup2\n  sload\n  dup2\n  0xffff\n  mul\n  not\n  and\n  swap1\n  dup4\n  0xffff\n  and\n  mul\n  or\n  swap1\n  sstore\n  pop\n    /* \"Twitter_Dapp_codesandbox.sol\":60:1372  contract Twitter {... */\n  callvalue\n  dup1\n  iszero\n  tag_1\n  jumpi\n  revert(0x00, 0x00)\ntag_1:\n  pop\n  dataSize(sub_0)\n  dup1\n  dataOffset(sub_0)\n  0x00\n  codecopy\n  0x00\n  return\nstop\n\nsub_0: assembly {\n        /* \"Twitter_Dapp_codesandbox.sol\":60:1372  contract Twitter {... */\n      mstore(0x40, 0x80)\n      callvalue\n      dup1\n      iszero\n      tag_1\n      jumpi\n      revert(0x00, 0x00)\n    tag_1:\n      pop\n      jumpi(tag_2, lt(calldatasize, 0x04))\n      shr(0xe0, calldataload(0x00))\n      dup1\n      0x05a1b4a9\n      eq\n      tag_3\n      jumpi\n      dup1\n      0x12e7ee1c\n      eq\n      tag_4\n      jumpi\n      dup1\n      0x63378216\n      eq\n      tag_5\n      jumpi\n      dup1\n      0x6eb10797\n      eq\n      tag_6\n      jumpi\n      dup1\n      0x7c9cd2bc\n      eq\n      tag_7\n      jumpi\n      dup1\n      0xae775e95\n      eq\n      tag_8\n      jumpi\n    tag_2:\n      revert(0x00, 0x00)\n        /* \"Twitter_Dapp_codesandbox.sol\":280:321  mapping(address => Tweet[]) public tweets */\n    tag_3:\n      tag_9\n      0x04\n      dup1\n      calldatasize\n      sub\n      dup2\n      add\n      swap1\n      tag_10\n      swap2\n      swap1\n      tag_11\n      jump\t// in\n    tag_10:\n      tag_12\n      jump\t// in\n    tag_9:\n      mload(0x40)\n      tag_13\n      swap6\n      swap5\n      swap4\n      swap3\n      swap2\n      swap1\n      tag_14\n      jump\t// in\n    tag_13:\n      mload(0x40)\n      dup1\n      swap2\n      sub\n      swap1\n      return\n        /* \"Twitter_Dapp_codesandbox.sol\":1222:1369  function getAllTweets(address _owner)... */\n    tag_4:\n      tag_15\n      0x04\n      dup1\n      calldatasize\n      sub\n      dup2\n      add\n      swap1\n      tag_16\n      swap2\n      swap1\n      tag_17\n      jump\t// in\n    tag_16:\n      tag_18\n      jump\t// in\n    tag_15:\n      mload(0x40)\n      tag_19\n      swap2\n      swap1\n      tag_20\n      jump\t// in\n    tag_19:\n      mload(0x40)\n      dup1\n      swap2\n      sub\n      swap1\n      return\n        /* \"Twitter_Dapp_codesandbox.sol\":787:959  function likeTweet(address _author, uint _id) public {... */\n    tag_5:\n      tag_21\n      0x04\n      dup1\n      calldatasize\n      sub\n      dup2\n      add\n      swap1\n      tag_22\n      swap2\n      swap1\n      tag_11\n      jump\t// in\n    tag_22:\n      tag_23\n      jump\t// in\n    tag_21:\n      stop\n        /* \"Twitter_Dapp_codesandbox.sol\":86:122  uint16 public MAX_TWEET_LENGTH = 280 */\n    tag_6:\n      tag_24\n      tag_25\n      jump\t// in\n    tag_24:\n      mload(0x40)\n      tag_26\n      swap2\n      swap1\n      tag_27\n      jump\t// in\n    tag_26:\n      mload(0x40)\n      dup1\n      swap2\n      sub\n      swap1\n      return\n        /* \"Twitter_Dapp_codesandbox.sol\":332:779  function createTweet(string memory _tweet) public {... */\n    tag_7:\n      tag_28\n      0x04\n      dup1\n      calldatasize\n      sub\n      dup2\n      add\n      swap1\n      tag_29\n      swap2\n      swap1\n      tag_30\n      jump\t// in\n    tag_29:\n      tag_31\n      jump\t// in\n    tag_28:\n      stop\n        /* \"Twitter_Dapp_codesandbox.sol\":967:1214  function dislikeTweet(address _author, uint _id) public {... */\n    tag_8:\n      tag_32\n      0x04\n      dup1\n      calldatasize\n      sub\n      dup2\n      add\n      swap1\n      tag_33\n      swap2\n      swap1\n      tag_11\n      jump\t// in\n    tag_33:\n      tag_34\n      jump\t// in\n    tag_32:\n      stop\n        /* \"Twitter_Dapp_codesandbox.sol\":280:321  mapping(address => Tweet[]) public tweets */\n    tag_12:\n      mstore(0x20, 0x01)\n      dup2\n      0x00\n      mstore\n      keccak256(0x00, 0x40)\n      dup2\n      dup2\n      sload\n      dup2\n      lt\n      tag_35\n      jumpi\n      0x00\n      dup1\n      revert\n    tag_35:\n      swap1\n      0x00\n      mstore\n      keccak256(0x00, 0x20)\n      swap1\n      0x05\n      mul\n      add\n      0x00\n      swap2\n      pop\n      swap2\n      pop\n      pop\n      dup1\n      0x00\n      add\n      sload\n      swap1\n      dup1\n      0x01\n      add\n      0x00\n      swap1\n      sload\n      swap1\n      0x0100\n      exp\n      swap1\n      div\n      0xffffffffffffffffffffffffffffffffffffffff\n      and\n      swap1\n      dup1\n      0x02\n      add\n      dup1\n      sload\n      tag_37\n      swap1\n      tag_38\n      jump\t// in\n    tag_37:\n      dup1\n      0x1f\n      add\n      0x20\n      dup1\n      swap2\n      div\n      mul\n      0x20\n      add\n      mload(0x40)\n      swap1\n      dup2\n      add\n      0x40\n      mstore\n      dup1\n      swap3\n      swap2\n      swap1\n      dup2\n      dup2\n      mstore\n      0x20\n      add\n      dup3\n      dup1\n      sload\n      tag_39\n      swap1\n      tag_38\n      jump\t// in\n    tag_39:\n      dup1\n      iszero\n      tag_40\n      jumpi\n      dup1\n      0x1f\n      lt\n      tag_41\n      jumpi\n      0x0100\n      dup1\n      dup4\n      sload\n      div\n      mul\n      dup4\n      mstore\n      swap2\n      0x20\n      add\n      swap2\n      jump(tag_40)\n    tag_41:\n      dup3\n      add\n      swap2\n      swap1\n      0x00\n      mstore\n      keccak256(0x00, 0x20)\n      swap1\n    tag_42:\n      dup2\n      sload\n      dup2\n      mstore\n      swap1\n      0x01\n      add\n      swap1\n      0x20\n      add\n      dup1\n      dup4\n      gt\n      tag_42\n      jumpi\n      dup3\n      swap1\n      sub\n      0x1f\n      and\n      dup3\n      add\n      swap2\n    tag_40:\n      pop\n      pop\n      pop\n      pop\n      pop\n      swap1\n      dup1\n      0x03\n      add\n      sload\n      swap1\n      dup1\n      0x04\n      add\n      sload\n      swap1\n      pop\n      dup6\n      jump\t// out\n        /* \"Twitter_Dapp_codesandbox.sol\":1222:1369  function getAllTweets(address _owner)... */\n    tag_18:\n        /* \"Twitter_Dapp_codesandbox.sol\":1308:1322  Tweet[] memory */\n      0x60\n        /* \"Twitter_Dapp_codesandbox.sol\":1347:1353  tweets */\n      0x01\n        /* \"Twitter_Dapp_codesandbox.sol\":1347:1361  tweets[_owner] */\n      0x00\n        /* \"Twitter_Dapp_codesandbox.sol\":1354:1360  _owner */\n      dup4\n        /* \"Twitter_Dapp_codesandbox.sol\":1347:1361  tweets[_owner] */\n      0xffffffffffffffffffffffffffffffffffffffff\n      and\n      0xffffffffffffffffffffffffffffffffffffffff\n      and\n      dup2\n      mstore\n      0x20\n      add\n      swap1\n      dup2\n      mstore\n      0x20\n      add\n      0x00\n      keccak256\n        /* \"Twitter_Dapp_codesandbox.sol\":1340:1361  return tweets[_owner] */\n      dup1\n      sload\n      dup1\n      0x20\n      mul\n      0x20\n      add\n      mload(0x40)\n      swap1\n      dup2\n      add\n      0x40\n      mstore\n      dup1\n      swap3\n      swap2\n      swap1\n      dup2\n      dup2\n      mstore\n      0x20\n      add\n      0x00\n      swap1\n    tag_44:\n      dup3\n      dup3\n      lt\n      iszero\n      tag_45\n      jumpi\n      dup4\n      dup3\n      swap1\n      0x00\n      mstore\n      keccak256(0x00, 0x20)\n      swap1\n      0x05\n      mul\n      add\n      mload(0x40)\n      dup1\n      0xa0\n      add\n      0x40\n      mstore\n      swap1\n      dup2\n      0x00\n      dup3\n      add\n      sload\n      dup2\n      mstore\n      0x20\n      add\n      0x01\n      dup3\n      add\n      0x00\n      swap1\n      sload\n      swap1\n      0x0100\n      exp\n      swap1\n      div\n      0xffffffffffffffffffffffffffffffffffffffff\n      and\n      0xffffffffffffffffffffffffffffffffffffffff\n      and\n      0xffffffffffffffffffffffffffffffffffffffff\n      and\n      dup2\n      mstore\n      0x20\n      add\n      0x02\n      dup3\n      add\n      dup1\n      sload\n      tag_47\n      swap1\n      tag_38\n      jump\t// in\n    tag_47:\n      dup1\n      0x1f\n      add\n      0x20\n      dup1\n      swap2\n      div\n      mul\n      0x20\n      add\n      mload(0x40)\n      swap1\n      dup2\n      add\n      0x40\n      mstore\n      dup1\n      swap3\n      swap2\n      swap1\n      dup2\n      dup2\n      mstore\n      0x20\n      add\n      dup3\n      dup1\n      sload\n      tag_48\n      swap1\n      tag_38\n      jump\t// in\n    tag_48:\n      dup1\n      iszero\n      tag_49\n      jumpi\n      dup1\n      0x1f\n      lt\n      tag_50\n      jumpi\n      0x0100\n      dup1\n      dup4\n      sload\n      div\n      mul\n      dup4\n      mstore\n      swap2\n      0x20\n      add\n      swap2\n      jump(tag_49)\n    tag_50:\n      dup3\n      add\n      swap2\n      swap1\n      0x00\n      mstore\n      keccak256(0x00, 0x20)\n      swap1\n    tag_51:\n      dup2\n      sload\n      dup2\n      mstore\n      swap1\n      0x01\n      add\n      swap1\n      0x20\n      add\n      dup1\n      dup4\n      gt\n      tag_51\n      jumpi\n      dup3\n      swap1\n      sub\n      0x1f\n      and\n      dup3\n      add\n      swap2\n    tag_49:\n      pop\n      pop\n      pop\n      pop\n      pop\n      dup2\n      mstore\n      0x20\n      add\n      0x03\n      dup3\n      add\n      sload\n      dup2\n      mstore\n      0x20\n      add\n      0x04\n      dup3\n      add\n      sload\n      dup2\n      mstore\n      pop\n      pop\n      dup2\n      mstore\n      0x20\n      add\n      swap1\n      0x01\n      add\n      swap1\n      jump(tag_44)\n    tag_45:\n      pop\n      pop\n      pop\n      pop\n      swap1\n      pop\n        /* \"Twitter_Dapp_codesandbox.sol\":1222:1369  function getAllTweets(address _owner)... */\n      swap2\n      swap1\n      pop\n      jump\t// out\n        /* \"Twitter_Dapp_codesandbox.sol\":787:959  function likeTweet(address _author, uint _id) public {... */\n    tag_23:\n        /* \"Twitter_Dapp_codesandbox.sol\":865:871  tweets */\n      0x01\n        /* \"Twitter_Dapp_codesandbox.sol\":865:880  tweets[_author] */\n      0x00\n        /* \"Twitter_Dapp_codesandbox.sol\":872:879  _author */\n      dup4\n        /* \"Twitter_Dapp_codesandbox.sol\":865:880  tweets[_author] */\n      0xffffffffffffffffffffffffffffffffffffffff\n      and\n      0xffffffffffffffffffffffffffffffffffffffff\n      and\n      dup2\n      mstore\n      0x20\n      add\n      swap1\n      dup2\n      mstore\n      0x20\n      add\n      0x00\n      keccak256\n        /* \"Twitter_Dapp_codesandbox.sol\":865:887  tweets[_author].length */\n      dup1\n      sload\n      swap1\n      pop\n        /* \"Twitter_Dapp_codesandbox.sol\":859:862  _id */\n      dup2\n        /* \"Twitter_Dapp_codesandbox.sol\":859:887  _id < tweets[_author].length */\n      lt\n        /* \"Twitter_Dapp_codesandbox.sol\":851:912  require(_id < tweets[_author].length, \"Tweet does not exist\") */\n      tag_53\n      jumpi\n      mload(0x40)\n      0x08c379a000000000000000000000000000000000000000000000000000000000\n      dup2\n      mstore\n      0x04\n      add\n      tag_54\n      swap1\n      tag_55\n      jump\t// in\n    tag_54:\n      mload(0x40)\n      dup1\n      swap2\n      sub\n      swap1\n      revert\n    tag_53:\n        /* \"Twitter_Dapp_codesandbox.sol\":923:929  tweets */\n      0x01\n        /* \"Twitter_Dapp_codesandbox.sol\":923:938  tweets[_author] */\n      0x00\n        /* \"Twitter_Dapp_codesandbox.sol\":930:937  _author */\n      dup4\n        /* \"Twitter_Dapp_codesandbox.sol\":923:938  tweets[_author] */\n      0xffffffffffffffffffffffffffffffffffffffff\n      and\n      0xffffffffffffffffffffffffffffffffffffffff\n      and\n      dup2\n      mstore\n      0x20\n      add\n      swap1\n      dup2\n      mstore\n      0x20\n      add\n      0x00\n      keccak256\n        /* \"Twitter_Dapp_codesandbox.sol\":939:942  _id */\n      dup2\n        /* \"Twitter_Dapp_codesandbox.sol\":923:943  tweets[_author][_id] */\n      dup2\n      sload\n      dup2\n      lt\n      tag_56\n      jumpi\n      tag_57\n      tag_58\n      jump\t// in\n    tag_57:\n    tag_56:\n      swap1\n      0x00\n      mstore\n      keccak256(0x00, 0x20)\n      swap1\n      0x05\n      mul\n      add\n        /* \"Twitter_Dapp_codesandbox.sol\":923:949  tweets[_author][_id].likes */\n      0x04\n      add\n      0x00\n        /* \"Twitter_Dapp_codesandbox.sol\":923:951  tweets[_author][_id].likes++ */\n      dup2\n      sload\n      dup1\n      swap3\n      swap2\n      swap1\n      tag_60\n      swap1\n      tag_61\n      jump\t// in\n    tag_60:\n      swap2\n      swap1\n      pop\n      sstore\n      pop\n        /* \"Twitter_Dapp_codesandbox.sol\":787:959  function likeTweet(address _author, uint _id) public {... */\n      pop\n      pop\n      jump\t// out\n        /* \"Twitter_Dapp_codesandbox.sol\":86:122  uint16 public MAX_TWEET_LENGTH = 280 */\n    tag_25:\n      0x00\n      0x00\n      swap1\n      sload\n      swap1\n      0x0100\n      exp\n      swap1\n      div\n      0xffff\n      and\n      dup2\n      jump\t// out\n        /* \"Twitter_Dapp_codesandbox.sol\":332:779  function createTweet(string memory _tweet) public {... */\n    tag_31:\n        /* \"Twitter_Dapp_codesandbox.sol\":425:441  MAX_TWEET_LENGTH */\n      0x00\n      0x00\n      swap1\n      sload\n      swap1\n      0x0100\n      exp\n      swap1\n      div\n      0xffff\n      and\n        /* \"Twitter_Dapp_codesandbox.sol\":401:441  bytes(_tweet).length <= MAX_TWEET_LENGTH */\n      0xffff\n      and\n        /* \"Twitter_Dapp_codesandbox.sol\":407:413  _tweet */\n      dup2\n        /* \"Twitter_Dapp_codesandbox.sol\":401:421  bytes(_tweet).length */\n      mload\n        /* \"Twitter_Dapp_codesandbox.sol\":401:441  bytes(_tweet).length <= MAX_TWEET_LENGTH */\n      gt\n      iszero\n        /* \"Twitter_Dapp_codesandbox.sol\":393:461  require(bytes(_tweet).length <= MAX_TWEET_LENGTH, \"Tweet too long!\") */\n      tag_63\n      jumpi\n      mload(0x40)\n      0x08c379a000000000000000000000000000000000000000000000000000000000\n      dup2\n      mstore\n      0x04\n      add\n      tag_64\n      swap1\n      tag_65\n      jump\t// in\n    tag_64:\n      mload(0x40)\n      dup1\n      swap2\n      sub\n      swap1\n      revert\n    tag_63:\n        /* \"Twitter_Dapp_codesandbox.sol\":474:486  uint tweetId */\n      0x00\n        /* \"Twitter_Dapp_codesandbox.sol\":489:495  tweets */\n      0x01\n        /* \"Twitter_Dapp_codesandbox.sol\":489:507  tweets[msg.sender] */\n      0x00\n        /* \"Twitter_Dapp_codesandbox.sol\":496:506  msg.sender */\n      caller\n        /* \"Twitter_Dapp_codesandbox.sol\":489:507  tweets[msg.sender] */\n      0xffffffffffffffffffffffffffffffffffffffff\n      and\n      0xffffffffffffffffffffffffffffffffffffffff\n      and\n      dup2\n      mstore\n      0x20\n      add\n      swap1\n      dup2\n      mstore\n      0x20\n      add\n      0x00\n      keccak256\n        /* \"Twitter_Dapp_codesandbox.sol\":489:514  tweets[msg.sender].length */\n      dup1\n      sload\n      swap1\n      pop\n        /* \"Twitter_Dapp_codesandbox.sol\":474:514  uint tweetId = tweets[msg.sender].length */\n      swap1\n      pop\n        /* \"Twitter_Dapp_codesandbox.sol\":527:533  tweets */\n      0x01\n        /* \"Twitter_Dapp_codesandbox.sol\":527:545  tweets[msg.sender] */\n      0x00\n        /* \"Twitter_Dapp_codesandbox.sol\":534:544  msg.sender */\n      caller\n        /* \"Twitter_Dapp_codesandbox.sol\":527:545  tweets[msg.sender] */\n      0xffffffffffffffffffffffffffffffffffffffff\n      and\n      0xffffffffffffffffffffffffffffffffffffffff\n      and\n      dup2\n      mstore\n      0x20\n      add\n      swap1\n      dup2\n      mstore\n      0x20\n      add\n      0x00\n      keccak256\n        /* \"Twitter_Dapp_codesandbox.sol\":565:760  Tweet({... */\n      mload(0x40)\n      dup1\n      0xa0\n      add\n      0x40\n      mstore\n      dup1\n        /* \"Twitter_Dapp_codesandbox.sol\":594:601  tweetId */\n      dup4\n        /* \"Twitter_Dapp_codesandbox.sol\":565:760  Tweet({... */\n      dup2\n      mstore\n      0x20\n      add\n        /* \"Twitter_Dapp_codesandbox.sol\":628:638  msg.sender */\n      caller\n        /* \"Twitter_Dapp_codesandbox.sol\":565:760  Tweet({... */\n      0xffffffffffffffffffffffffffffffffffffffff\n      and\n      dup2\n      mstore\n      0x20\n      add\n        /* \"Twitter_Dapp_codesandbox.sol\":666:672  _tweet */\n      dup5\n        /* \"Twitter_Dapp_codesandbox.sol\":565:760  Tweet({... */\n      dup2\n      mstore\n      0x20\n      add\n        /* \"Twitter_Dapp_codesandbox.sol\":702:717  block.timestamp */\n      timestamp\n        /* \"Twitter_Dapp_codesandbox.sol\":565:760  Tweet({... */\n      dup2\n      mstore\n      0x20\n      add\n        /* \"Twitter_Dapp_codesandbox.sol\":743:744  0 */\n      0x00\n        /* \"Twitter_Dapp_codesandbox.sol\":565:760  Tweet({... */\n      dup2\n      mstore\n      pop\n        /* \"Twitter_Dapp_codesandbox.sol\":527:771  tweets[msg.sender].push(... */\n      swap1\n      dup1\n      0x01\n      dup2\n      sload\n      add\n      dup1\n      dup3\n      sstore\n      dup1\n      swap2\n      pop\n      pop\n      0x01\n      swap1\n      sub\n      swap1\n      0x00\n      mstore\n      keccak256(0x00, 0x20)\n      swap1\n      0x05\n      mul\n      add\n      0x00\n      swap1\n      swap2\n      swap1\n      swap2\n      swap1\n      swap2\n      pop\n      0x00\n      dup3\n      add\n      mload\n      dup2\n      0x00\n      add\n      sstore\n      0x20\n      dup3\n      add\n      mload\n      dup2\n      0x01\n      add\n      exp(0x0100, 0x00)\n      dup2\n      sload\n      dup2\n      0xffffffffffffffffffffffffffffffffffffffff\n      mul\n      not\n      and\n      swap1\n      dup4\n      0xffffffffffffffffffffffffffffffffffffffff\n      and\n      mul\n      or\n      swap1\n      sstore\n      pop\n      0x40\n      dup3\n      add\n      mload\n      dup2\n      0x02\n      add\n      swap1\n      dup2\n      tag_67\n      swap2\n      swap1\n      tag_68\n      jump\t// in\n    tag_67:\n      pop\n      0x60\n      dup3\n      add\n      mload\n      dup2\n      0x03\n      add\n      sstore\n      0x80\n      dup3\n      add\n      mload\n      dup2\n      0x04\n      add\n      sstore\n      pop\n      pop\n        /* \"Twitter_Dapp_codesandbox.sol\":382:779  {... */\n      pop\n        /* \"Twitter_Dapp_codesandbox.sol\":332:779  function createTweet(string memory _tweet) public {... */\n      pop\n      jump\t// out\n        /* \"Twitter_Dapp_codesandbox.sol\":967:1214  function dislikeTweet(address _author, uint _id) public {... */\n    tag_34:\n        /* \"Twitter_Dapp_codesandbox.sol\":1048:1054  tweets */\n      0x01\n        /* \"Twitter_Dapp_codesandbox.sol\":1048:1063  tweets[_author] */\n      0x00\n        /* \"Twitter_Dapp_codesandbox.sol\":1055:1062  _author */\n      dup4\n        /* \"Twitter_Dapp_codesandbox.sol\":1048:1063  tweets[_author] */\n      0xffffffffffffffffffffffffffffffffffffffff\n      and\n      0xffffffffffffffffffffffffffffffffffffffff\n      and\n      dup2\n      mstore\n      0x20\n      add\n      swap1\n      dup2\n      mstore\n      0x20\n      add\n      0x00\n      keccak256\n        /* \"Twitter_Dapp_codesandbox.sol\":1048:1070  tweets[_author].length */\n      dup1\n      sload\n      swap1\n      pop\n        /* \"Twitter_Dapp_codesandbox.sol\":1042:1045  _id */\n      dup2\n        /* \"Twitter_Dapp_codesandbox.sol\":1042:1070  _id < tweets[_author].length */\n      lt\n        /* \"Twitter_Dapp_codesandbox.sol\":1034:1095  require(_id < tweets[_author].length, \"Tweet does not exist\") */\n      tag_70\n      jumpi\n      mload(0x40)\n      0x08c379a000000000000000000000000000000000000000000000000000000000\n      dup2\n      mstore\n      0x04\n      add\n      tag_71\n      swap1\n      tag_55\n      jump\t// in\n    tag_71:\n      mload(0x40)\n      dup1\n      swap2\n      sub\n      swap1\n      revert\n    tag_70:\n        /* \"Twitter_Dapp_codesandbox.sol\":1143:1144  0 */\n      0x00\n        /* \"Twitter_Dapp_codesandbox.sol\":1114:1120  tweets */\n      0x01\n        /* \"Twitter_Dapp_codesandbox.sol\":1114:1129  tweets[_author] */\n      0x00\n        /* \"Twitter_Dapp_codesandbox.sol\":1121:1128  _author */\n      dup5\n        /* \"Twitter_Dapp_codesandbox.sol\":1114:1129  tweets[_author] */\n      0xffffffffffffffffffffffffffffffffffffffff\n      and\n      0xffffffffffffffffffffffffffffffffffffffff\n      and\n      dup2\n      mstore\n      0x20\n      add\n      swap1\n      dup2\n      mstore\n      0x20\n      add\n      0x00\n      keccak256\n        /* \"Twitter_Dapp_codesandbox.sol\":1130:1133  _id */\n      dup3\n        /* \"Twitter_Dapp_codesandbox.sol\":1114:1134  tweets[_author][_id] */\n      dup2\n      sload\n      dup2\n      lt\n      tag_72\n      jumpi\n      tag_73\n      tag_58\n      jump\t// in\n    tag_73:\n    tag_72:\n      swap1\n      0x00\n      mstore\n      keccak256(0x00, 0x20)\n      swap1\n      0x05\n      mul\n      add\n        /* \"Twitter_Dapp_codesandbox.sol\":1114:1140  tweets[_author][_id].likes */\n      0x04\n      add\n      sload\n        /* \"Twitter_Dapp_codesandbox.sol\":1114:1144  tweets[_author][_id].likes > 0 */\n      gt\n        /* \"Twitter_Dapp_codesandbox.sol\":1106:1167  require(tweets[_author][_id].likes > 0, \"No likes to remove\") */\n      tag_75\n      jumpi\n      mload(0x40)\n      0x08c379a000000000000000000000000000000000000000000000000000000000\n      dup2\n      mstore\n      0x04\n      add\n      tag_76\n      swap1\n      tag_77\n      jump\t// in\n    tag_76:\n      mload(0x40)\n      dup1\n      swap2\n      sub\n      swap1\n      revert\n    tag_75:\n        /* \"Twitter_Dapp_codesandbox.sol\":1178:1184  tweets */\n      0x01\n        /* \"Twitter_Dapp_codesandbox.sol\":1178:1193  tweets[_author] */\n      0x00\n        /* \"Twitter_Dapp_codesandbox.sol\":1185:1192  _author */\n      dup4\n        /* \"Twitter_Dapp_codesandbox.sol\":1178:1193  tweets[_author] */\n      0xffffffffffffffffffffffffffffffffffffffff\n      and\n      0xffffffffffffffffffffffffffffffffffffffff\n      and\n      dup2\n      mstore\n      0x20\n      add\n      swap1\n      dup2\n      mstore\n      0x20\n      add\n      0x00\n      keccak256\n        /* \"Twitter_Dapp_codesandbox.sol\":1194:1197  _id */\n      dup2\n        /* \"Twitter_Dapp_codesandbox.sol\":1178:1198  tweets[_author][_id] */\n      dup2\n      sload\n      dup2\n      lt\n      tag_78\n      jumpi\n      tag_79\n      tag_58\n      jump\t// in\n    tag_79:\n    tag_78:\n      swap1\n      0x00\n      mstore\n      keccak256(0x00, 0x20)\n      swap1\n      0x05\n      mul\n      add\n        /* \"Twitter_Dapp_codesandbox.sol\":1178:1204  tweets[_author][_id].likes */\n      0x04\n      add\n      0x00\n        /* \"Twitter_Dapp_codesandbox.sol\":1178:1206  tweets[_author][_id].likes-- */\n      dup2\n      sload\n      dup1\n      swap3\n      swap2\n      swap1\n      tag_81\n      swap1\n      tag_82\n      jump\t// in\n    tag_81:\n      swap2\n      swap1\n      pop\n      sstore\n      pop\n        /* \"Twitter_Dapp_codesandbox.sol\":967:1214  function dislikeTweet(address _author, uint _id) public {... */\n      pop\n      pop\n      jump\t// out\n        /* \"#utility.yul\":7:82   */\n    tag_83:\n        /* \"#utility.yul\":40:46   */\n      0x00\n        /* \"#utility.yul\":73:75   */\n      0x40\n        /* \"#utility.yul\":67:76   */\n      mload\n        /* \"#utility.yul\":57:76   */\n      swap1\n      pop\n        /* \"#utility.yul\":7:82   */\n      swap1\n      jump\t// out\n        /* \"#utility.yul\":88:205   */\n    tag_84:\n        /* \"#utility.yul\":197:198   */\n      0x00\n        /* \"#utility.yul\":194:195   */\n      0x00\n        /* \"#utility.yul\":187:199   */\n      revert\n        /* \"#utility.yul\":211:328   */\n    tag_85:\n        /* \"#utility.yul\":320:321   */\n      0x00\n        /* \"#utility.yul\":317:318   */\n      0x00\n        /* \"#utility.yul\":310:322   */\n      revert\n        /* \"#utility.yul\":334:460   */\n    tag_86:\n        /* \"#utility.yul\":371:378   */\n      0x00\n        /* \"#utility.yul\":411:453   */\n      0xffffffffffffffffffffffffffffffffffffffff\n        /* \"#utility.yul\":404:409   */\n      dup3\n        /* \"#utility.yul\":400:454   */\n      and\n        /* \"#utility.yul\":389:454   */\n      swap1\n      pop\n        /* \"#utility.yul\":334:460   */\n      swap2\n      swap1\n      pop\n      jump\t// out\n        /* \"#utility.yul\":466:562   */\n    tag_87:\n        /* \"#utility.yul\":503:510   */\n      0x00\n        /* \"#utility.yul\":532:556   */\n      tag_151\n        /* \"#utility.yul\":550:555   */\n      dup3\n        /* \"#utility.yul\":532:556   */\n      tag_86\n      jump\t// in\n    tag_151:\n        /* \"#utility.yul\":521:556   */\n      swap1\n      pop\n        /* \"#utility.yul\":466:562   */\n      swap2\n      swap1\n      pop\n      jump\t// out\n        /* \"#utility.yul\":568:690   */\n    tag_88:\n        /* \"#utility.yul\":641:665   */\n      tag_153\n        /* \"#utility.yul\":659:664   */\n      dup2\n        /* \"#utility.yul\":641:665   */\n      tag_87\n      jump\t// in\n    tag_153:\n        /* \"#utility.yul\":634:639   */\n      dup2\n        /* \"#utility.yul\":631:666   */\n      eq\n        /* \"#utility.yul\":621:684   */\n      tag_154\n      jumpi\n        /* \"#utility.yul\":680:681   */\n      0x00\n        /* \"#utility.yul\":677:678   */\n      0x00\n        /* \"#utility.yul\":670:682   */\n      revert\n        /* \"#utility.yul\":621:684   */\n    tag_154:\n        /* \"#utility.yul\":568:690   */\n      pop\n      jump\t// out\n        /* \"#utility.yul\":696:835   */\n    tag_89:\n        /* \"#utility.yul\":742:747   */\n      0x00\n        /* \"#utility.yul\":780:786   */\n      dup2\n        /* \"#utility.yul\":767:787   */\n      calldataload\n        /* \"#utility.yul\":758:787   */\n      swap1\n      pop\n        /* \"#utility.yul\":796:829   */\n      tag_156\n        /* \"#utility.yul\":823:828   */\n      dup2\n        /* \"#utility.yul\":796:829   */\n      tag_88\n      jump\t// in\n    tag_156:\n        /* \"#utility.yul\":696:835   */\n      swap3\n      swap2\n      pop\n      pop\n      jump\t// out\n        /* \"#utility.yul\":841:918   */\n    tag_90:\n        /* \"#utility.yul\":878:885   */\n      0x00\n        /* \"#utility.yul\":907:912   */\n      dup2\n        /* \"#utility.yul\":896:912   */\n      swap1\n      pop\n        /* \"#utility.yul\":841:918   */\n      swap2\n      swap1\n      pop\n      jump\t// out\n        /* \"#utility.yul\":924:1046   */\n    tag_91:\n        /* \"#utility.yul\":997:1021   */\n      tag_159\n        /* \"#utility.yul\":1015:1020   */\n      dup2\n        /* \"#utility.yul\":997:1021   */\n      tag_90\n      jump\t// in\n    tag_159:\n        /* \"#utility.yul\":990:995   */\n      dup2\n        /* \"#utility.yul\":987:1022   */\n      eq\n        /* \"#utility.yul\":977:1040   */\n      tag_160\n      jumpi\n        /* \"#utility.yul\":1036:1037   */\n      0x00\n        /* \"#utility.yul\":1033:1034   */\n      0x00\n        /* \"#utility.yul\":1026:1038   */\n      revert\n        /* \"#utility.yul\":977:1040   */\n    tag_160:\n        /* \"#utility.yul\":924:1046   */\n      pop\n      jump\t// out\n        /* \"#utility.yul\":1052:1191   */\n    tag_92:\n        /* \"#utility.yul\":1098:1103   */\n      0x00\n        /* \"#utility.yul\":1136:1142   */\n      dup2\n        /* \"#utility.yul\":1123:1143   */\n      calldataload\n        /* \"#utility.yul\":1114:1143   */\n      swap1\n      pop\n        /* \"#utility.yul\":1152:1185   */\n      tag_162\n        /* \"#utility.yul\":1179:1184   */\n      dup2\n        /* \"#utility.yul\":1152:1185   */\n      tag_91\n      jump\t// in\n    tag_162:\n        /* \"#utility.yul\":1052:1191   */\n      swap3\n      swap2\n      pop\n      pop\n      jump\t// out\n        /* \"#utility.yul\":1197:1671   */\n    tag_11:\n        /* \"#utility.yul\":1265:1271   */\n      0x00\n        /* \"#utility.yul\":1273:1279   */\n      0x00\n        /* \"#utility.yul\":1322:1324   */\n      0x40\n        /* \"#utility.yul\":1310:1319   */\n      dup4\n        /* \"#utility.yul\":1301:1308   */\n      dup6\n        /* \"#utility.yul\":1297:1320   */\n      sub\n        /* \"#utility.yul\":1293:1325   */\n      slt\n        /* \"#utility.yul\":1290:1409   */\n      iszero\n      tag_164\n      jumpi\n        /* \"#utility.yul\":1328:1407   */\n      tag_165\n      tag_84\n      jump\t// in\n    tag_165:\n        /* \"#utility.yul\":1290:1409   */\n    tag_164:\n        /* \"#utility.yul\":1448:1449   */\n      0x00\n        /* \"#utility.yul\":1473:1526   */\n      tag_166\n        /* \"#utility.yul\":1518:1525   */\n      dup6\n        /* \"#utility.yul\":1509:1515   */\n      dup3\n        /* \"#utility.yul\":1498:1507   */\n      dup7\n        /* \"#utility.yul\":1494:1516   */\n      add\n        /* \"#utility.yul\":1473:1526   */\n      tag_89\n      jump\t// in\n    tag_166:\n        /* \"#utility.yul\":1463:1526   */\n      swap3\n      pop\n        /* \"#utility.yul\":1419:1536   */\n      pop\n        /* \"#utility.yul\":1575:1577   */\n      0x20\n        /* \"#utility.yul\":1601:1654   */\n      tag_167\n        /* \"#utility.yul\":1646:1653   */\n      dup6\n        /* \"#utility.yul\":1637:1643   */\n      dup3\n        /* \"#utility.yul\":1626:1635   */\n      dup7\n        /* \"#utility.yul\":1622:1644   */\n      add\n        /* \"#utility.yul\":1601:1654   */\n      tag_92\n      jump\t// in\n    tag_167:\n        /* \"#utility.yul\":1591:1654   */\n      swap2\n      pop\n        /* \"#utility.yul\":1546:1664   */\n      pop\n        /* \"#utility.yul\":1197:1671   */\n      swap3\n      pop\n      swap3\n      swap1\n      pop\n      jump\t// out\n        /* \"#utility.yul\":1677:1795   */\n    tag_93:\n        /* \"#utility.yul\":1764:1788   */\n      tag_169\n        /* \"#utility.yul\":1782:1787   */\n      dup2\n        /* \"#utility.yul\":1764:1788   */\n      tag_90\n      jump\t// in\n    tag_169:\n        /* \"#utility.yul\":1759:1762   */\n      dup3\n        /* \"#utility.yul\":1752:1789   */\n      mstore\n        /* \"#utility.yul\":1677:1795   */\n      pop\n      pop\n      jump\t// out\n        /* \"#utility.yul\":1801:1919   */\n    tag_94:\n        /* \"#utility.yul\":1888:1912   */\n      tag_171\n        /* \"#utility.yul\":1906:1911   */\n      dup2\n        /* \"#utility.yul\":1888:1912   */\n      tag_87\n      jump\t// in\n    tag_171:\n        /* \"#utility.yul\":1883:1886   */\n      dup3\n        /* \"#utility.yul\":1876:1913   */\n      mstore\n        /* \"#utility.yul\":1801:1919   */\n      pop\n      pop\n      jump\t// out\n        /* \"#utility.yul\":1925:2024   */\n    tag_95:\n        /* \"#utility.yul\":1977:1983   */\n      0x00\n        /* \"#utility.yul\":2011:2016   */\n      dup2\n        /* \"#utility.yul\":2005:2017   */\n      mload\n        /* \"#utility.yul\":1995:2017   */\n      swap1\n      pop\n        /* \"#utility.yul\":1925:2024   */\n      swap2\n      swap1\n      pop\n      jump\t// out\n        /* \"#utility.yul\":2030:2199   */\n    tag_96:\n        /* \"#utility.yul\":2114:2125   */\n      0x00\n        /* \"#utility.yul\":2148:2154   */\n      dup3\n        /* \"#utility.yul\":2143:2146   */\n      dup3\n        /* \"#utility.yul\":2136:2155   */\n      mstore\n        /* \"#utility.yul\":2188:2192   */\n      0x20\n        /* \"#utility.yul\":2183:2186   */\n      dup3\n        /* \"#utility.yul\":2179:2193   */\n      add\n        /* \"#utility.yul\":2164:2193   */\n      swap1\n      pop\n        /* \"#utility.yul\":2030:2199   */\n      swap3\n      swap2\n      pop\n      pop\n      jump\t// out\n        /* \"#utility.yul\":2205:2344   */\n    tag_97:\n        /* \"#utility.yul\":2294:2300   */\n      dup3\n        /* \"#utility.yul\":2289:2292   */\n      dup2\n        /* \"#utility.yul\":2284:2287   */\n      dup4\n        /* \"#utility.yul\":2278:2301   */\n      mcopy\n        /* \"#utility.yul\":2335:2336   */\n      0x00\n        /* \"#utility.yul\":2326:2332   */\n      dup4\n        /* \"#utility.yul\":2321:2324   */\n      dup4\n        /* \"#utility.yul\":2317:2333   */\n      add\n        /* \"#utility.yul\":2310:2337   */\n      mstore\n        /* \"#utility.yul\":2205:2344   */\n      pop\n      pop\n      pop\n      jump\t// out\n        /* \"#utility.yul\":2350:2452   */\n    tag_98:\n        /* \"#utility.yul\":2391:2397   */\n      0x00\n        /* \"#utility.yul\":2442:2444   */\n      0x1f\n        /* \"#utility.yul\":2438:2445   */\n      not\n        /* \"#utility.yul\":2433:2435   */\n      0x1f\n        /* \"#utility.yul\":2426:2431   */\n      dup4\n        /* \"#utility.yul\":2422:2436   */\n      add\n        /* \"#utility.yul\":2418:2446   */\n      and\n        /* \"#utility.yul\":2408:2446   */\n      swap1\n      pop\n        /* \"#utility.yul\":2350:2452   */\n      swap2\n      swap1\n      pop\n      jump\t// out\n        /* \"#utility.yul\":2458:2835   */\n    tag_99:\n        /* \"#utility.yul\":2546:2549   */\n      0x00\n        /* \"#utility.yul\":2574:2613   */\n      tag_177\n        /* \"#utility.yul\":2607:2612   */\n      dup3\n        /* \"#utility.yul\":2574:2613   */\n      tag_95\n      jump\t// in\n    tag_177:\n        /* \"#utility.yul\":2629:2700   */\n      tag_178\n        /* \"#utility.yul\":2693:2699   */\n      dup2\n        /* \"#utility.yul\":2688:2691   */\n      dup6\n        /* \"#utility.yul\":2629:2700   */\n      tag_96\n      jump\t// in\n    tag_178:\n        /* \"#utility.yul\":2622:2700   */\n      swap4\n      pop\n        /* \"#utility.yul\":2709:2774   */\n      tag_179\n        /* \"#utility.yul\":2767:2773   */\n      dup2\n        /* \"#utility.yul\":2762:2765   */\n      dup6\n        /* \"#utility.yul\":2755:2759   */\n      0x20\n        /* \"#utility.yul\":2748:2753   */\n      dup7\n        /* \"#utility.yul\":2744:2760   */\n      add\n        /* \"#utility.yul\":2709:2774   */\n      tag_97\n      jump\t// in\n    tag_179:\n        /* \"#utility.yul\":2799:2828   */\n      tag_180\n        /* \"#utility.yul\":2821:2827   */\n      dup2\n        /* \"#utility.yul\":2799:2828   */\n      tag_98\n      jump\t// in\n    tag_180:\n        /* \"#utility.yul\":2794:2797   */\n      dup5\n        /* \"#utility.yul\":2790:2829   */\n      add\n        /* \"#utility.yul\":2783:2829   */\n      swap2\n      pop\n        /* \"#utility.yul\":2550:2835   */\n      pop\n        /* \"#utility.yul\":2458:2835   */\n      swap3\n      swap2\n      pop\n      pop\n      jump\t// out\n        /* \"#utility.yul\":2841:3596   */\n    tag_14:\n        /* \"#utility.yul\":3066:3070   */\n      0x00\n        /* \"#utility.yul\":3104:3107   */\n      0xa0\n        /* \"#utility.yul\":3093:3102   */\n      dup3\n        /* \"#utility.yul\":3089:3108   */\n      add\n        /* \"#utility.yul\":3081:3108   */\n      swap1\n      pop\n        /* \"#utility.yul\":3118:3189   */\n      tag_182\n        /* \"#utility.yul\":3186:3187   */\n      0x00\n        /* \"#utility.yul\":3175:3184   */\n      dup4\n        /* \"#utility.yul\":3171:3188   */\n      add\n        /* \"#utility.yul\":3162:3168   */\n      dup9\n        /* \"#utility.yul\":3118:3189   */\n      tag_93\n      jump\t// in\n    tag_182:\n        /* \"#utility.yul\":3199:3271   */\n      tag_183\n        /* \"#utility.yul\":3267:3269   */\n      0x20\n        /* \"#utility.yul\":3256:3265   */\n      dup4\n        /* \"#utility.yul\":3252:3270   */\n      add\n        /* \"#utility.yul\":3243:3249   */\n      dup8\n        /* \"#utility.yul\":3199:3271   */\n      tag_94\n      jump\t// in\n    tag_183:\n        /* \"#utility.yul\":3318:3327   */\n      dup2\n        /* \"#utility.yul\":3312:3316   */\n      dup2\n        /* \"#utility.yul\":3308:3328   */\n      sub\n        /* \"#utility.yul\":3303:3305   */\n      0x40\n        /* \"#utility.yul\":3292:3301   */\n      dup4\n        /* \"#utility.yul\":3288:3306   */\n      add\n        /* \"#utility.yul\":3281:3329   */\n      mstore\n        /* \"#utility.yul\":3346:3424   */\n      tag_184\n        /* \"#utility.yul\":3419:3423   */\n      dup2\n        /* \"#utility.yul\":3410:3416   */\n      dup7\n        /* \"#utility.yul\":3346:3424   */\n      tag_99\n      jump\t// in\n    tag_184:\n        /* \"#utility.yul\":3338:3424   */\n      swap1\n      pop\n        /* \"#utility.yul\":3434:3506   */\n      tag_185\n        /* \"#utility.yul\":3502:3504   */\n      0x60\n        /* \"#utility.yul\":3491:3500   */\n      dup4\n        /* \"#utility.yul\":3487:3505   */\n      add\n        /* \"#utility.yul\":3478:3484   */\n      dup6\n        /* \"#utility.yul\":3434:3506   */\n      tag_93\n      jump\t// in\n    tag_185:\n        /* \"#utility.yul\":3516:3589   */\n      tag_186\n        /* \"#utility.yul\":3584:3587   */\n      0x80\n        /* \"#utility.yul\":3573:3582   */\n      dup4\n        /* \"#utility.yul\":3569:3588   */\n      add\n        /* \"#utility.yul\":3560:3566   */\n      dup5\n        /* \"#utility.yul\":3516:3589   */\n      tag_93\n      jump\t// in\n    tag_186:\n        /* \"#utility.yul\":2841:3596   */\n      swap7\n      swap6\n      pop\n      pop\n      pop\n      pop\n      pop\n      pop\n      jump\t// out\n        /* \"#utility.yul\":3602:3931   */\n    tag_17:\n        /* \"#utility.yul\":3661:3667   */\n      0x00\n        /* \"#utility.yul\":3710:3712   */\n      0x20\n        /* \"#utility.yul\":3698:3707   */\n      dup3\n        /* \"#utility.yul\":3689:3696   */\n      dup5\n        /* \"#utility.yul\":3685:3708   */\n      sub\n        /* \"#utility.yul\":3681:3713   */\n      slt\n        /* \"#utility.yul\":3678:3797   */\n      iszero\n      tag_188\n      jumpi\n        /* \"#utility.yul\":3716:3795   */\n      tag_189\n      tag_84\n      jump\t// in\n    tag_189:\n        /* \"#utility.yul\":3678:3797   */\n    tag_188:\n        /* \"#utility.yul\":3836:3837   */\n      0x00\n        /* \"#utility.yul\":3861:3914   */\n      tag_190\n        /* \"#utility.yul\":3906:3913   */\n      dup5\n        /* \"#utility.yul\":3897:3903   */\n      dup3\n        /* \"#utility.yul\":3886:3895   */\n      dup6\n        /* \"#utility.yul\":3882:3904   */\n      add\n        /* \"#utility.yul\":3861:3914   */\n      tag_89\n      jump\t// in\n    tag_190:\n        /* \"#utility.yul\":3851:3914   */\n      swap2\n      pop\n        /* \"#utility.yul\":3807:3924   */\n      pop\n        /* \"#utility.yul\":3602:3931   */\n      swap3\n      swap2\n      pop\n      pop\n      jump\t// out\n        /* \"#utility.yul\":3937:4072   */\n    tag_100:\n        /* \"#utility.yul\":4025:4031   */\n      0x00\n        /* \"#utility.yul\":4059:4064   */\n      dup2\n        /* \"#utility.yul\":4053:4065   */\n      mload\n        /* \"#utility.yul\":4043:4065   */\n      swap1\n      pop\n        /* \"#utility.yul\":3937:4072   */\n      swap2\n      swap1\n      pop\n      jump\t// out\n        /* \"#utility.yul\":4078:4283   */\n    tag_101:\n        /* \"#utility.yul\":4198:4209   */\n      0x00\n        /* \"#utility.yul\":4232:4238   */\n      dup3\n        /* \"#utility.yul\":4227:4230   */\n      dup3\n        /* \"#utility.yul\":4220:4239   */\n      mstore\n        /* \"#utility.yul\":4272:4276   */\n      0x20\n        /* \"#utility.yul\":4267:4270   */\n      dup3\n        /* \"#utility.yul\":4263:4277   */\n      add\n        /* \"#utility.yul\":4248:4277   */\n      swap1\n      pop\n        /* \"#utility.yul\":4078:4283   */\n      swap3\n      swap2\n      pop\n      pop\n      jump\t// out\n        /* \"#utility.yul\":4289:4442   */\n    tag_102:\n        /* \"#utility.yul\":4377:4381   */\n      0x00\n        /* \"#utility.yul\":4400:4403   */\n      dup2\n        /* \"#utility.yul\":4392:4403   */\n      swap1\n      pop\n        /* \"#utility.yul\":4430:4434   */\n      0x20\n        /* \"#utility.yul\":4425:4428   */\n      dup3\n        /* \"#utility.yul\":4421:4435   */\n      add\n        /* \"#utility.yul\":4413:4435   */\n      swap1\n      pop\n        /* \"#utility.yul\":4289:4442   */\n      swap2\n      swap1\n      pop\n      jump\t// out\n        /* \"#utility.yul\":4448:4556   */\n    tag_103:\n        /* \"#utility.yul\":4525:4549   */\n      tag_195\n        /* \"#utility.yul\":4543:4548   */\n      dup2\n        /* \"#utility.yul\":4525:4549   */\n      tag_90\n      jump\t// in\n    tag_195:\n        /* \"#utility.yul\":4520:4523   */\n      dup3\n        /* \"#utility.yul\":4513:4550   */\n      mstore\n        /* \"#utility.yul\":4448:4556   */\n      pop\n      pop\n      jump\t// out\n        /* \"#utility.yul\":4562:4670   */\n    tag_104:\n        /* \"#utility.yul\":4639:4663   */\n      tag_197\n        /* \"#utility.yul\":4657:4662   */\n      dup2\n        /* \"#utility.yul\":4639:4663   */\n      tag_87\n      jump\t// in\n    tag_197:\n        /* \"#utility.yul\":4634:4637   */\n      dup3\n        /* \"#utility.yul\":4627:4664   */\n      mstore\n        /* \"#utility.yul\":4562:4670   */\n      pop\n      pop\n      jump\t// out\n        /* \"#utility.yul\":4676:4835   */\n    tag_105:\n        /* \"#utility.yul\":4750:4761   */\n      0x00\n        /* \"#utility.yul\":4784:4790   */\n      dup3\n        /* \"#utility.yul\":4779:4782   */\n      dup3\n        /* \"#utility.yul\":4772:4791   */\n      mstore\n        /* \"#utility.yul\":4824:4828   */\n      0x20\n        /* \"#utility.yul\":4819:4822   */\n      dup3\n        /* \"#utility.yul\":4815:4829   */\n      add\n        /* \"#utility.yul\":4800:4829   */\n      swap1\n      pop\n        /* \"#utility.yul\":4676:4835   */\n      swap3\n      swap2\n      pop\n      pop\n      jump\t// out\n        /* \"#utility.yul\":4841:5198   */\n    tag_106:\n        /* \"#utility.yul\":4919:4922   */\n      0x00\n        /* \"#utility.yul\":4947:4986   */\n      tag_200\n        /* \"#utility.yul\":4980:4985   */\n      dup3\n        /* \"#utility.yul\":4947:4986   */\n      tag_95\n      jump\t// in\n    tag_200:\n        /* \"#utility.yul\":5002:5063   */\n      tag_201\n        /* \"#utility.yul\":5056:5062   */\n      dup2\n        /* \"#utility.yul\":5051:5054   */\n      dup6\n        /* \"#utility.yul\":5002:5063   */\n      tag_105\n      jump\t// in\n    tag_201:\n        /* \"#utility.yul\":4995:5063   */\n      swap4\n      pop\n        /* \"#utility.yul\":5072:5137   */\n      tag_202\n        /* \"#utility.yul\":5130:5136   */\n      dup2\n        /* \"#utility.yul\":5125:5128   */\n      dup6\n        /* \"#utility.yul\":5118:5122   */\n      0x20\n        /* \"#utility.yul\":5111:5116   */\n      dup7\n        /* \"#utility.yul\":5107:5123   */\n      add\n        /* \"#utility.yul\":5072:5137   */\n      tag_97\n      jump\t// in\n    tag_202:\n        /* \"#utility.yul\":5162:5191   */\n      tag_203\n        /* \"#utility.yul\":5184:5190   */\n      dup2\n        /* \"#utility.yul\":5162:5191   */\n      tag_98\n      jump\t// in\n    tag_203:\n        /* \"#utility.yul\":5157:5160   */\n      dup5\n        /* \"#utility.yul\":5153:5192   */\n      add\n        /* \"#utility.yul\":5146:5192   */\n      swap2\n      pop\n        /* \"#utility.yul\":4923:5198   */\n      pop\n        /* \"#utility.yul\":4841:5198   */\n      swap3\n      swap2\n      pop\n      pop\n      jump\t// out\n        /* \"#utility.yul\":5256:6375   */\n    tag_107:\n        /* \"#utility.yul\":5357:5360   */\n      0x00\n        /* \"#utility.yul\":5393:5397   */\n      0xa0\n        /* \"#utility.yul\":5388:5391   */\n      dup4\n        /* \"#utility.yul\":5384:5398   */\n      add\n        /* \"#utility.yul\":5478:5482   */\n      0x00\n        /* \"#utility.yul\":5471:5476   */\n      dup4\n        /* \"#utility.yul\":5467:5483   */\n      add\n        /* \"#utility.yul\":5461:5484   */\n      mload\n        /* \"#utility.yul\":5497:5560   */\n      tag_205\n        /* \"#utility.yul\":5554:5558   */\n      0x00\n        /* \"#utility.yul\":5549:5552   */\n      dup7\n        /* \"#utility.yul\":5545:5559   */\n      add\n        /* \"#utility.yul\":5531:5543   */\n      dup3\n        /* \"#utility.yul\":5497:5560   */\n      tag_103\n      jump\t// in\n    tag_205:\n        /* \"#utility.yul\":5408:5570   */\n      pop\n        /* \"#utility.yul\":5654:5658   */\n      0x20\n        /* \"#utility.yul\":5647:5652   */\n      dup4\n        /* \"#utility.yul\":5643:5659   */\n      add\n        /* \"#utility.yul\":5637:5660   */\n      mload\n        /* \"#utility.yul\":5673:5736   */\n      tag_206\n        /* \"#utility.yul\":5730:5734   */\n      0x20\n        /* \"#utility.yul\":5725:5728   */\n      dup7\n        /* \"#utility.yul\":5721:5735   */\n      add\n        /* \"#utility.yul\":5707:5719   */\n      dup3\n        /* \"#utility.yul\":5673:5736   */\n      tag_104\n      jump\t// in\n    tag_206:\n        /* \"#utility.yul\":5580:5746   */\n      pop\n        /* \"#utility.yul\":5831:5835   */\n      0x40\n        /* \"#utility.yul\":5824:5829   */\n      dup4\n        /* \"#utility.yul\":5820:5836   */\n      add\n        /* \"#utility.yul\":5814:5837   */\n      mload\n        /* \"#utility.yul\":5884:5887   */\n      dup5\n        /* \"#utility.yul\":5878:5882   */\n      dup3\n        /* \"#utility.yul\":5874:5888   */\n      sub\n        /* \"#utility.yul\":5867:5871   */\n      0x40\n        /* \"#utility.yul\":5862:5865   */\n      dup7\n        /* \"#utility.yul\":5858:5872   */\n      add\n        /* \"#utility.yul\":5851:5889   */\n      mstore\n        /* \"#utility.yul\":5910:5983   */\n      tag_207\n        /* \"#utility.yul\":5978:5982   */\n      dup3\n        /* \"#utility.yul\":5964:5976   */\n      dup3\n        /* \"#utility.yul\":5910:5983   */\n      tag_106\n      jump\t// in\n    tag_207:\n        /* \"#utility.yul\":5902:5983   */\n      swap2\n      pop\n        /* \"#utility.yul\":5756:5994   */\n      pop\n        /* \"#utility.yul\":6081:6085   */\n      0x60\n        /* \"#utility.yul\":6074:6079   */\n      dup4\n        /* \"#utility.yul\":6070:6086   */\n      add\n        /* \"#utility.yul\":6064:6087   */\n      mload\n        /* \"#utility.yul\":6100:6163   */\n      tag_208\n        /* \"#utility.yul\":6157:6161   */\n      0x60\n        /* \"#utility.yul\":6152:6155   */\n      dup7\n        /* \"#utility.yul\":6148:6162   */\n      add\n        /* \"#utility.yul\":6134:6146   */\n      dup3\n        /* \"#utility.yul\":6100:6163   */\n      tag_103\n      jump\t// in\n    tag_208:\n        /* \"#utility.yul\":6004:6173   */\n      pop\n        /* \"#utility.yul\":6256:6260   */\n      0x80\n        /* \"#utility.yul\":6249:6254   */\n      dup4\n        /* \"#utility.yul\":6245:6261   */\n      add\n        /* \"#utility.yul\":6239:6262   */\n      mload\n        /* \"#utility.yul\":6275:6338   */\n      tag_209\n        /* \"#utility.yul\":6332:6336   */\n      0x80\n        /* \"#utility.yul\":6327:6330   */\n      dup7\n        /* \"#utility.yul\":6323:6337   */\n      add\n        /* \"#utility.yul\":6309:6321   */\n      dup3\n        /* \"#utility.yul\":6275:6338   */\n      tag_103\n      jump\t// in\n    tag_209:\n        /* \"#utility.yul\":6183:6348   */\n      pop\n        /* \"#utility.yul\":6365:6369   */\n      dup1\n        /* \"#utility.yul\":6358:6369   */\n      swap2\n      pop\n        /* \"#utility.yul\":5362:6375   */\n      pop\n        /* \"#utility.yul\":5256:6375   */\n      swap3\n      swap2\n      pop\n      pop\n      jump\t// out\n        /* \"#utility.yul\":6381:6621   */\n    tag_108:\n        /* \"#utility.yul\":6492:6502   */\n      0x00\n        /* \"#utility.yul\":6527:6615   */\n      tag_211\n        /* \"#utility.yul\":6611:6614   */\n      dup4\n        /* \"#utility.yul\":6603:6609   */\n      dup4\n        /* \"#utility.yul\":6527:6615   */\n      tag_107\n      jump\t// in\n    tag_211:\n        /* \"#utility.yul\":6513:6615   */\n      swap1\n      pop\n        /* \"#utility.yul\":6381:6621   */\n      swap3\n      swap2\n      pop\n      pop\n      jump\t// out\n        /* \"#utility.yul\":6627:6761   */\n    tag_109:\n        /* \"#utility.yul\":6718:6722   */\n      0x00\n        /* \"#utility.yul\":6750:6754   */\n      0x20\n        /* \"#utility.yul\":6745:6748   */\n      dup3\n        /* \"#utility.yul\":6741:6755   */\n      add\n        /* \"#utility.yul\":6733:6755   */\n      swap1\n      pop\n        /* \"#utility.yul\":6627:6761   */\n      swap2\n      swap1\n      pop\n      jump\t// out\n        /* \"#utility.yul\":6823:7902   */\n    tag_110:\n        /* \"#utility.yul\":6984:6987   */\n      0x00\n        /* \"#utility.yul\":7013:7088   */\n      tag_214\n        /* \"#utility.yul\":7082:7087   */\n      dup3\n        /* \"#utility.yul\":7013:7088   */\n      tag_100\n      jump\t// in\n    tag_214:\n        /* \"#utility.yul\":7104:7211   */\n      tag_215\n        /* \"#utility.yul\":7204:7210   */\n      dup2\n        /* \"#utility.yul\":7199:7202   */\n      dup6\n        /* \"#utility.yul\":7104:7211   */\n      tag_101\n      jump\t// in\n    tag_215:\n        /* \"#utility.yul\":7097:7211   */\n      swap4\n      pop\n        /* \"#utility.yul\":7237:7240   */\n      dup4\n        /* \"#utility.yul\":7282:7286   */\n      0x20\n        /* \"#utility.yul\":7274:7280   */\n      dup3\n        /* \"#utility.yul\":7270:7287   */\n      mul\n        /* \"#utility.yul\":7265:7268   */\n      dup6\n        /* \"#utility.yul\":7261:7288   */\n      add\n        /* \"#utility.yul\":7312:7389   */\n      tag_216\n        /* \"#utility.yul\":7383:7388   */\n      dup6\n        /* \"#utility.yul\":7312:7389   */\n      tag_102\n      jump\t// in\n    tag_216:\n        /* \"#utility.yul\":7412:7419   */\n      dup1\n        /* \"#utility.yul\":7443:7444   */\n      0x00\n        /* \"#utility.yul\":7428:7857   */\n    tag_217:\n        /* \"#utility.yul\":7453:7459   */\n      dup6\n        /* \"#utility.yul\":7450:7451   */\n      dup2\n        /* \"#utility.yul\":7447:7460   */\n      lt\n        /* \"#utility.yul\":7428:7857   */\n      iszero\n      tag_219\n      jumpi\n        /* \"#utility.yul\":7524:7533   */\n      dup5\n        /* \"#utility.yul\":7518:7522   */\n      dup5\n        /* \"#utility.yul\":7514:7534   */\n      sub\n        /* \"#utility.yul\":7509:7512   */\n      dup10\n        /* \"#utility.yul\":7502:7535   */\n      mstore\n        /* \"#utility.yul\":7575:7581   */\n      dup2\n        /* \"#utility.yul\":7569:7582   */\n      mload\n        /* \"#utility.yul\":7603:7709   */\n      tag_220\n        /* \"#utility.yul\":7704:7708   */\n      dup6\n        /* \"#utility.yul\":7689:7702   */\n      dup3\n        /* \"#utility.yul\":7603:7709   */\n      tag_108\n      jump\t// in\n    tag_220:\n        /* \"#utility.yul\":7595:7709   */\n      swap5\n      pop\n        /* \"#utility.yul\":7732:7813   */\n      tag_221\n        /* \"#utility.yul\":7806:7812   */\n      dup4\n        /* \"#utility.yul\":7732:7813   */\n      tag_109\n      jump\t// in\n    tag_221:\n        /* \"#utility.yul\":7722:7813   */\n      swap3\n      pop\n        /* \"#utility.yul\":7842:7846   */\n      0x20\n        /* \"#utility.yul\":7837:7840   */\n      dup11\n        /* \"#utility.yul\":7833:7847   */\n      add\n        /* \"#utility.yul\":7826:7847   */\n      swap10\n      pop\n        /* \"#utility.yul\":7488:7857   */\n      pop\n        /* \"#utility.yul\":7475:7476   */\n      0x01\n        /* \"#utility.yul\":7472:7473   */\n      dup2\n        /* \"#utility.yul\":7468:7477   */\n      add\n        /* \"#utility.yul\":7463:7477   */\n      swap1\n      pop\n        /* \"#utility.yul\":7428:7857   */\n      jump(tag_217)\n    tag_219:\n        /* \"#utility.yul\":7432:7446   */\n      pop\n        /* \"#utility.yul\":7873:7877   */\n      dup3\n        /* \"#utility.yul\":7866:7877   */\n      swap8\n      pop\n        /* \"#utility.yul\":7893:7896   */\n      dup8\n        /* \"#utility.yul\":7886:7896   */\n      swap6\n      pop\n        /* \"#utility.yul\":6989:7902   */\n      pop\n      pop\n      pop\n      pop\n      pop\n        /* \"#utility.yul\":6823:7902   */\n      swap3\n      swap2\n      pop\n      pop\n      jump\t// out\n        /* \"#utility.yul\":7908:8365   */\n    tag_20:\n        /* \"#utility.yul\":8093:8097   */\n      0x00\n        /* \"#utility.yul\":8131:8133   */\n      0x20\n        /* \"#utility.yul\":8120:8129   */\n      dup3\n        /* \"#utility.yul\":8116:8134   */\n      add\n        /* \"#utility.yul\":8108:8134   */\n      swap1\n      pop\n        /* \"#utility.yul\":8180:8189   */\n      dup2\n        /* \"#utility.yul\":8174:8178   */\n      dup2\n        /* \"#utility.yul\":8170:8190   */\n      sub\n        /* \"#utility.yul\":8166:8167   */\n      0x00\n        /* \"#utility.yul\":8155:8164   */\n      dup4\n        /* \"#utility.yul\":8151:8168   */\n      add\n        /* \"#utility.yul\":8144:8191   */\n      mstore\n        /* \"#utility.yul\":8208:8358   */\n      tag_223\n        /* \"#utility.yul\":8353:8357   */\n      dup2\n        /* \"#utility.yul\":8344:8350   */\n      dup5\n        /* \"#utility.yul\":8208:8358   */\n      tag_110\n      jump\t// in\n    tag_223:\n        /* \"#utility.yul\":8200:8358   */\n      swap1\n      pop\n        /* \"#utility.yul\":7908:8365   */\n      swap3\n      swap2\n      pop\n      pop\n      jump\t// out\n        /* \"#utility.yul\":8371:8460   */\n    tag_111:\n        /* \"#utility.yul\":8407:8414   */\n      0x00\n        /* \"#utility.yul\":8447:8453   */\n      0xffff\n        /* \"#utility.yul\":8440:8445   */\n      dup3\n        /* \"#utility.yul\":8436:8454   */\n      and\n        /* \"#utility.yul\":8425:8454   */\n      swap1\n      pop\n        /* \"#utility.yul\":8371:8460   */\n      swap2\n      swap1\n      pop\n      jump\t// out\n        /* \"#utility.yul\":8466:8581   */\n    tag_112:\n        /* \"#utility.yul\":8551:8574   */\n      tag_226\n        /* \"#utility.yul\":8568:8573   */\n      dup2\n        /* \"#utility.yul\":8551:8574   */\n      tag_111\n      jump\t// in\n    tag_226:\n        /* \"#utility.yul\":8546:8549   */\n      dup3\n        /* \"#utility.yul\":8539:8575   */\n      mstore\n        /* \"#utility.yul\":8466:8581   */\n      pop\n      pop\n      jump\t// out\n        /* \"#utility.yul\":8587:8805   */\n    tag_27:\n        /* \"#utility.yul\":8678:8682   */\n      0x00\n        /* \"#utility.yul\":8716:8718   */\n      0x20\n        /* \"#utility.yul\":8705:8714   */\n      dup3\n        /* \"#utility.yul\":8701:8719   */\n      add\n        /* \"#utility.yul\":8693:8719   */\n      swap1\n      pop\n        /* \"#utility.yul\":8729:8798   */\n      tag_228\n        /* \"#utility.yul\":8795:8796   */\n      0x00\n        /* \"#utility.yul\":8784:8793   */\n      dup4\n        /* \"#utility.yul\":8780:8797   */\n      add\n        /* \"#utility.yul\":8771:8777   */\n      dup5\n        /* \"#utility.yul\":8729:8798   */\n      tag_112\n      jump\t// in\n    tag_228:\n        /* \"#utility.yul\":8587:8805   */\n      swap3\n      swap2\n      pop\n      pop\n      jump\t// out\n        /* \"#utility.yul\":8811:8928   */\n    tag_113:\n        /* \"#utility.yul\":8920:8921   */\n      0x00\n        /* \"#utility.yul\":8917:8918   */\n      0x00\n        /* \"#utility.yul\":8910:8922   */\n      revert\n        /* \"#utility.yul\":8934:9051   */\n    tag_114:\n        /* \"#utility.yul\":9043:9044   */\n      0x00\n        /* \"#utility.yul\":9040:9041   */\n      0x00\n        /* \"#utility.yul\":9033:9045   */\n      revert\n        /* \"#utility.yul\":9057:9237   */\n    tag_115:\n        /* \"#utility.yul\":9105:9182   */\n      0x4e487b7100000000000000000000000000000000000000000000000000000000\n        /* \"#utility.yul\":9102:9103   */\n      0x00\n        /* \"#utility.yul\":9095:9183   */\n      mstore\n        /* \"#utility.yul\":9202:9206   */\n      0x41\n        /* \"#utility.yul\":9199:9200   */\n      0x04\n        /* \"#utility.yul\":9192:9207   */\n      mstore\n        /* \"#utility.yul\":9226:9230   */\n      0x24\n        /* \"#utility.yul\":9223:9224   */\n      0x00\n        /* \"#utility.yul\":9216:9231   */\n      revert\n        /* \"#utility.yul\":9243:9524   */\n    tag_116:\n        /* \"#utility.yul\":9326:9353   */\n      tag_233\n        /* \"#utility.yul\":9348:9352   */\n      dup3\n        /* \"#utility.yul\":9326:9353   */\n      tag_98\n      jump\t// in\n    tag_233:\n        /* \"#utility.yul\":9318:9324   */\n      dup2\n        /* \"#utility.yul\":9314:9354   */\n      add\n        /* \"#utility.yul\":9456:9462   */\n      dup2\n        /* \"#utility.yul\":9444:9454   */\n      dup2\n        /* \"#utility.yul\":9441:9463   */\n      lt\n        /* \"#utility.yul\":9420:9438   */\n      0xffffffffffffffff\n        /* \"#utility.yul\":9408:9418   */\n      dup3\n        /* \"#utility.yul\":9405:9439   */\n      gt\n        /* \"#utility.yul\":9402:9464   */\n      or\n        /* \"#utility.yul\":9399:9487   */\n      iszero\n      tag_234\n      jumpi\n        /* \"#utility.yul\":9467:9485   */\n      tag_235\n      tag_115\n      jump\t// in\n    tag_235:\n        /* \"#utility.yul\":9399:9487   */\n    tag_234:\n        /* \"#utility.yul\":9507:9517   */\n      dup1\n        /* \"#utility.yul\":9503:9505   */\n      0x40\n        /* \"#utility.yul\":9496:9518   */\n      mstore\n        /* \"#utility.yul\":9286:9524   */\n      pop\n        /* \"#utility.yul\":9243:9524   */\n      pop\n      pop\n      jump\t// out\n        /* \"#utility.yul\":9530:9659   */\n    tag_117:\n        /* \"#utility.yul\":9564:9570   */\n      0x00\n        /* \"#utility.yul\":9591:9611   */\n      tag_237\n      tag_83\n      jump\t// in\n    tag_237:\n        /* \"#utility.yul\":9581:9611   */\n      swap1\n      pop\n        /* \"#utility.yul\":9620:9653   */\n      tag_238\n        /* \"#utility.yul\":9648:9652   */\n      dup3\n        /* \"#utility.yul\":9640:9646   */\n      dup3\n        /* \"#utility.yul\":9620:9653   */\n      tag_116\n      jump\t// in\n    tag_238:\n        /* \"#utility.yul\":9530:9659   */\n      swap2\n      swap1\n      pop\n      jump\t// out\n        /* \"#utility.yul\":9665:9973   */\n    tag_118:\n        /* \"#utility.yul\":9727:9731   */\n      0x00\n        /* \"#utility.yul\":9817:9835   */\n      0xffffffffffffffff\n        /* \"#utility.yul\":9809:9815   */\n      dup3\n        /* \"#utility.yul\":9806:9836   */\n      gt\n        /* \"#utility.yul\":9803:9859   */\n      iszero\n      tag_240\n      jumpi\n        /* \"#utility.yul\":9839:9857   */\n      tag_241\n      tag_115\n      jump\t// in\n    tag_241:\n        /* \"#utility.yul\":9803:9859   */\n    tag_240:\n        /* \"#utility.yul\":9877:9906   */\n      tag_242\n        /* \"#utility.yul\":9899:9905   */\n      dup3\n        /* \"#utility.yul\":9877:9906   */\n      tag_98\n      jump\t// in\n    tag_242:\n        /* \"#utility.yul\":9869:9906   */\n      swap1\n      pop\n        /* \"#utility.yul\":9961:9965   */\n      0x20\n        /* \"#utility.yul\":9955:9959   */\n      dup2\n        /* \"#utility.yul\":9951:9966   */\n      add\n        /* \"#utility.yul\":9943:9966   */\n      swap1\n      pop\n        /* \"#utility.yul\":9665:9973   */\n      swap2\n      swap1\n      pop\n      jump\t// out\n        /* \"#utility.yul\":9979:10127   */\n    tag_119:\n        /* \"#utility.yul\":10077:10083   */\n      dup3\n        /* \"#utility.yul\":10072:10075   */\n      dup2\n        /* \"#utility.yul\":10067:10070   */\n      dup4\n        /* \"#utility.yul\":10054:10084   */\n      calldatacopy\n        /* \"#utility.yul\":10118:10119   */\n      0x00\n        /* \"#utility.yul\":10109:10115   */\n      dup4\n        /* \"#utility.yul\":10104:10107   */\n      dup4\n        /* \"#utility.yul\":10100:10116   */\n      add\n        /* \"#utility.yul\":10093:10120   */\n      mstore\n        /* \"#utility.yul\":9979:10127   */\n      pop\n      pop\n      pop\n      jump\t// out\n        /* \"#utility.yul\":10133:10558   */\n    tag_120:\n        /* \"#utility.yul\":10211:10216   */\n      0x00\n        /* \"#utility.yul\":10236:10302   */\n      tag_245\n        /* \"#utility.yul\":10252:10301   */\n      tag_246\n        /* \"#utility.yul\":10294:10300   */\n      dup5\n        /* \"#utility.yul\":10252:10301   */\n      tag_118\n      jump\t// in\n    tag_246:\n        /* \"#utility.yul\":10236:10302   */\n      tag_117\n      jump\t// in\n    tag_245:\n        /* \"#utility.yul\":10227:10302   */\n      swap1\n      pop\n        /* \"#utility.yul\":10325:10331   */\n      dup3\n        /* \"#utility.yul\":10318:10323   */\n      dup2\n        /* \"#utility.yul\":10311:10332   */\n      mstore\n        /* \"#utility.yul\":10363:10367   */\n      0x20\n        /* \"#utility.yul\":10356:10361   */\n      dup2\n        /* \"#utility.yul\":10352:10368   */\n      add\n        /* \"#utility.yul\":10401:10404   */\n      dup5\n        /* \"#utility.yul\":10392:10398   */\n      dup5\n        /* \"#utility.yul\":10387:10390   */\n      dup5\n        /* \"#utility.yul\":10383:10399   */\n      add\n        /* \"#utility.yul\":10380:10405   */\n      gt\n        /* \"#utility.yul\":10377:10489   */\n      iszero\n      tag_247\n      jumpi\n        /* \"#utility.yul\":10408:10487   */\n      tag_248\n      tag_114\n      jump\t// in\n    tag_248:\n        /* \"#utility.yul\":10377:10489   */\n    tag_247:\n        /* \"#utility.yul\":10498:10552   */\n      tag_249\n        /* \"#utility.yul\":10545:10551   */\n      dup5\n        /* \"#utility.yul\":10540:10543   */\n      dup3\n        /* \"#utility.yul\":10535:10538   */\n      dup6\n        /* \"#utility.yul\":10498:10552   */\n      tag_119\n      jump\t// in\n    tag_249:\n        /* \"#utility.yul\":10217:10558   */\n      pop\n        /* \"#utility.yul\":10133:10558   */\n      swap4\n      swap3\n      pop\n      pop\n      pop\n      jump\t// out\n        /* \"#utility.yul\":10578:10918   */\n    tag_121:\n        /* \"#utility.yul\":10634:10639   */\n      0x00\n        /* \"#utility.yul\":10683:10686   */\n      dup3\n        /* \"#utility.yul\":10676:10680   */\n      0x1f\n        /* \"#utility.yul\":10668:10674   */\n      dup4\n        /* \"#utility.yul\":10664:10681   */\n      add\n        /* \"#utility.yul\":10660:10687   */\n      slt\n        /* \"#utility.yul\":10650:10772   */\n      tag_251\n      jumpi\n        /* \"#utility.yul\":10691:10770   */\n      tag_252\n      tag_113\n      jump\t// in\n    tag_252:\n        /* \"#utility.yul\":10650:10772   */\n    tag_251:\n        /* \"#utility.yul\":10808:10814   */\n      dup2\n        /* \"#utility.yul\":10795:10815   */\n      calldataload\n        /* \"#utility.yul\":10833:10912   */\n      tag_253\n        /* \"#utility.yul\":10908:10911   */\n      dup5\n        /* \"#utility.yul\":10900:10906   */\n      dup3\n        /* \"#utility.yul\":10893:10897   */\n      0x20\n        /* \"#utility.yul\":10885:10891   */\n      dup7\n        /* \"#utility.yul\":10881:10898   */\n      add\n        /* \"#utility.yul\":10833:10912   */\n      tag_120\n      jump\t// in\n    tag_253:\n        /* \"#utility.yul\":10824:10912   */\n      swap2\n      pop\n        /* \"#utility.yul\":10640:10918   */\n      pop\n        /* \"#utility.yul\":10578:10918   */\n      swap3\n      swap2\n      pop\n      pop\n      jump\t// out\n        /* \"#utility.yul\":10924:11433   */\n    tag_30:\n        /* \"#utility.yul\":10993:10999   */\n      0x00\n        /* \"#utility.yul\":11042:11044   */\n      0x20\n        /* \"#utility.yul\":11030:11039   */\n      dup3\n        /* \"#utility.yul\":11021:11028   */\n      dup5\n        /* \"#utility.yul\":11017:11040   */\n      sub\n        /* \"#utility.yul\":11013:11045   */\n      slt\n        /* \"#utility.yul\":11010:11129   */\n      iszero\n      tag_255\n      jumpi\n        /* \"#utility.yul\":11048:11127   */\n      tag_256\n      tag_84\n      jump\t// in\n    tag_256:\n        /* \"#utility.yul\":11010:11129   */\n    tag_255:\n        /* \"#utility.yul\":11196:11197   */\n      0x00\n        /* \"#utility.yul\":11185:11194   */\n      dup3\n        /* \"#utility.yul\":11181:11198   */\n      add\n        /* \"#utility.yul\":11168:11199   */\n      calldataload\n        /* \"#utility.yul\":11226:11244   */\n      0xffffffffffffffff\n        /* \"#utility.yul\":11218:11224   */\n      dup2\n        /* \"#utility.yul\":11215:11245   */\n      gt\n        /* \"#utility.yul\":11212:11329   */\n      iszero\n      tag_257\n      jumpi\n        /* \"#utility.yul\":11248:11327   */\n      tag_258\n      tag_85\n      jump\t// in\n    tag_258:\n        /* \"#utility.yul\":11212:11329   */\n    tag_257:\n        /* \"#utility.yul\":11353:11416   */\n      tag_259\n        /* \"#utility.yul\":11408:11415   */\n      dup5\n        /* \"#utility.yul\":11399:11405   */\n      dup3\n        /* \"#utility.yul\":11388:11397   */\n      dup6\n        /* \"#utility.yul\":11384:11406   */\n      add\n        /* \"#utility.yul\":11353:11416   */\n      tag_121\n      jump\t// in\n    tag_259:\n        /* \"#utility.yul\":11343:11416   */\n      swap2\n      pop\n        /* \"#utility.yul\":11139:11426   */\n      pop\n        /* \"#utility.yul\":10924:11433   */\n      swap3\n      swap2\n      pop\n      pop\n      jump\t// out\n        /* \"#utility.yul\":11439:11619   */\n    tag_122:\n        /* \"#utility.yul\":11487:11564   */\n      0x4e487b7100000000000000000000000000000000000000000000000000000000\n        /* \"#utility.yul\":11484:11485   */\n      0x00\n        /* \"#utility.yul\":11477:11565   */\n      mstore\n        /* \"#utility.yul\":11584:11588   */\n      0x22\n        /* \"#utility.yul\":11581:11582   */\n      0x04\n        /* \"#utility.yul\":11574:11589   */\n      mstore\n        /* \"#utility.yul\":11608:11612   */\n      0x24\n        /* \"#utility.yul\":11605:11606   */\n      0x00\n        /* \"#utility.yul\":11598:11613   */\n      revert\n        /* \"#utility.yul\":11625:11945   */\n    tag_38:\n        /* \"#utility.yul\":11669:11675   */\n      0x00\n        /* \"#utility.yul\":11706:11707   */\n      0x02\n        /* \"#utility.yul\":11700:11704   */\n      dup3\n        /* \"#utility.yul\":11696:11708   */\n      div\n        /* \"#utility.yul\":11686:11708   */\n      swap1\n      pop\n        /* \"#utility.yul\":11753:11754   */\n      0x01\n        /* \"#utility.yul\":11747:11751   */\n      dup3\n        /* \"#utility.yul\":11743:11755   */\n      and\n        /* \"#utility.yul\":11774:11792   */\n      dup1\n        /* \"#utility.yul\":11764:11845   */\n      tag_262\n      jumpi\n        /* \"#utility.yul\":11830:11834   */\n      0x7f\n        /* \"#utility.yul\":11822:11828   */\n      dup3\n        /* \"#utility.yul\":11818:11835   */\n      and\n        /* \"#utility.yul\":11808:11835   */\n      swap2\n      pop\n        /* \"#utility.yul\":11764:11845   */\n    tag_262:\n        /* \"#utility.yul\":11892:11894   */\n      0x20\n        /* \"#utility.yul\":11884:11890   */\n      dup3\n        /* \"#utility.yul\":11881:11895   */\n      lt\n        /* \"#utility.yul\":11861:11879   */\n      dup2\n        /* \"#utility.yul\":11858:11896   */\n      sub\n        /* \"#utility.yul\":11855:11939   */\n      tag_263\n      jumpi\n        /* \"#utility.yul\":11911:11929   */\n      tag_264\n      tag_122\n      jump\t// in\n    tag_264:\n        /* \"#utility.yul\":11855:11939   */\n    tag_263:\n        /* \"#utility.yul\":11676:11945   */\n      pop\n        /* \"#utility.yul\":11625:11945   */\n      swap2\n      swap1\n      pop\n      jump\t// out\n        /* \"#utility.yul\":11951:12121   */\n    tag_123:\n        /* \"#utility.yul\":12091:12113   */\n      0x547765657420646f6573206e6f74206578697374000000000000000000000000\n        /* \"#utility.yul\":12087:12088   */\n      0x00\n        /* \"#utility.yul\":12079:12085   */\n      dup3\n        /* \"#utility.yul\":12075:12089   */\n      add\n        /* \"#utility.yul\":12068:12114   */\n      mstore\n        /* \"#utility.yul\":11951:12121   */\n      pop\n      jump\t// out\n        /* \"#utility.yul\":12127:12493   */\n    tag_124:\n        /* \"#utility.yul\":12269:12272   */\n      0x00\n        /* \"#utility.yul\":12290:12357   */\n      tag_267\n        /* \"#utility.yul\":12354:12356   */\n      0x14\n        /* \"#utility.yul\":12349:12352   */\n      dup4\n        /* \"#utility.yul\":12290:12357   */\n      tag_96\n      jump\t// in\n    tag_267:\n        /* \"#utility.yul\":12283:12357   */\n      swap2\n      pop\n        /* \"#utility.yul\":12366:12459   */\n      tag_268\n        /* \"#utility.yul\":12455:12458   */\n      dup3\n        /* \"#utility.yul\":12366:12459   */\n      tag_123\n      jump\t// in\n    tag_268:\n        /* \"#utility.yul\":12484:12486   */\n      0x20\n        /* \"#utility.yul\":12479:12482   */\n      dup3\n        /* \"#utility.yul\":12475:12487   */\n      add\n        /* \"#utility.yul\":12468:12487   */\n      swap1\n      pop\n        /* \"#utility.yul\":12127:12493   */\n      swap2\n      swap1\n      pop\n      jump\t// out\n        /* \"#utility.yul\":12499:12918   */\n    tag_55:\n        /* \"#utility.yul\":12665:12669   */\n      0x00\n        /* \"#utility.yul\":12703:12705   */\n      0x20\n        /* \"#utility.yul\":12692:12701   */\n      dup3\n        /* \"#utility.yul\":12688:12706   */\n      add\n        /* \"#utility.yul\":12680:12706   */\n      swap1\n      pop\n        /* \"#utility.yul\":12752:12761   */\n      dup2\n        /* \"#utility.yul\":12746:12750   */\n      dup2\n        /* \"#utility.yul\":12742:12762   */\n      sub\n        /* \"#utility.yul\":12738:12739   */\n      0x00\n        /* \"#utility.yul\":12727:12736   */\n      dup4\n        /* \"#utility.yul\":12723:12740   */\n      add\n        /* \"#utility.yul\":12716:12763   */\n      mstore\n        /* \"#utility.yul\":12780:12911   */\n      tag_270\n        /* \"#utility.yul\":12906:12910   */\n      dup2\n        /* \"#utility.yul\":12780:12911   */\n      tag_124\n      jump\t// in\n    tag_270:\n        /* \"#utility.yul\":12772:12911   */\n      swap1\n      pop\n        /* \"#utility.yul\":12499:12918   */\n      swap2\n      swap1\n      pop\n      jump\t// out\n        /* \"#utility.yul\":12924:13104   */\n    tag_58:\n        /* \"#utility.yul\":12972:13049   */\n      0x4e487b7100000000000000000000000000000000000000000000000000000000\n        /* \"#utility.yul\":12969:12970   */\n      0x00\n        /* \"#utility.yul\":12962:13050   */\n      mstore\n        /* \"#utility.yul\":13069:13073   */\n      0x32\n        /* \"#utility.yul\":13066:13067   */\n      0x04\n        /* \"#utility.yul\":13059:13074   */\n      mstore\n        /* \"#utility.yul\":13093:13097   */\n      0x24\n        /* \"#utility.yul\":13090:13091   */\n      0x00\n        /* \"#utility.yul\":13083:13098   */\n      revert\n        /* \"#utility.yul\":13110:13290   */\n    tag_125:\n        /* \"#utility.yul\":13158:13235   */\n      0x4e487b7100000000000000000000000000000000000000000000000000000000\n        /* \"#utility.yul\":13155:13156   */\n      0x00\n        /* \"#utility.yul\":13148:13236   */\n      mstore\n        /* \"#utility.yul\":13255:13259   */\n      0x11\n        /* \"#utility.yul\":13252:13253   */\n      0x04\n        /* \"#utility.yul\":13245:13260   */\n      mstore\n        /* \"#utility.yul\":13279:13283   */\n      0x24\n        /* \"#utility.yul\":13276:13277   */\n      0x00\n        /* \"#utility.yul\":13269:13284   */\n      revert\n        /* \"#utility.yul\":13296:13529   */\n    tag_61:\n        /* \"#utility.yul\":13335:13338   */\n      0x00\n        /* \"#utility.yul\":13358:13382   */\n      tag_274\n        /* \"#utility.yul\":13376:13381   */\n      dup3\n        /* \"#utility.yul\":13358:13382   */\n      tag_90\n      jump\t// in\n    tag_274:\n        /* \"#utility.yul\":13349:13382   */\n      swap2\n      pop\n        /* \"#utility.yul\":13404:13470   */\n      0xffffffffffffffffffffffffffffffffffffffffffffffffffffffffffffffff\n        /* \"#utility.yul\":13397:13402   */\n      dup3\n        /* \"#utility.yul\":13394:13471   */\n      sub\n        /* \"#utility.yul\":13391:13494   */\n      tag_275\n      jumpi\n        /* \"#utility.yul\":13474:13492   */\n      tag_276\n      tag_125\n      jump\t// in\n    tag_276:\n        /* \"#utility.yul\":13391:13494   */\n    tag_275:\n        /* \"#utility.yul\":13521:13522   */\n      0x01\n        /* \"#utility.yul\":13514:13519   */\n      dup3\n        /* \"#utility.yul\":13510:13523   */\n      add\n        /* \"#utility.yul\":13503:13523   */\n      swap1\n      pop\n        /* \"#utility.yul\":13296:13529   */\n      swap2\n      swap1\n      pop\n      jump\t// out\n        /* \"#utility.yul\":13535:13700   */\n    tag_126:\n        /* \"#utility.yul\":13675:13692   */\n      0x547765657420746f6f206c6f6e67210000000000000000000000000000000000\n        /* \"#utility.yul\":13671:13672   */\n      0x00\n        /* \"#utility.yul\":13663:13669   */\n      dup3\n        /* \"#utility.yul\":13659:13673   */\n      add\n        /* \"#utility.yul\":13652:13693   */\n      mstore\n        /* \"#utility.yul\":13535:13700   */\n      pop\n      jump\t// out\n        /* \"#utility.yul\":13706:14072   */\n    tag_127:\n        /* \"#utility.yul\":13848:13851   */\n      0x00\n        /* \"#utility.yul\":13869:13936   */\n      tag_279\n        /* \"#utility.yul\":13933:13935   */\n      0x0f\n        /* \"#utility.yul\":13928:13931   */\n      dup4\n        /* \"#utility.yul\":13869:13936   */\n      tag_96\n      jump\t// in\n    tag_279:\n        /* \"#utility.yul\":13862:13936   */\n      swap2\n      pop\n        /* \"#utility.yul\":13945:14038   */\n      tag_280\n        /* \"#utility.yul\":14034:14037   */\n      dup3\n        /* \"#utility.yul\":13945:14038   */\n      tag_126\n      jump\t// in\n    tag_280:\n        /* \"#utility.yul\":14063:14065   */\n      0x20\n        /* \"#utility.yul\":14058:14061   */\n      dup3\n        /* \"#utility.yul\":14054:14066   */\n      add\n        /* \"#utility.yul\":14047:14066   */\n      swap1\n      pop\n        /* \"#utility.yul\":13706:14072   */\n      swap2\n      swap1\n      pop\n      jump\t// out\n        /* \"#utility.yul\":14078:14497   */\n    tag_65:\n        /* \"#utility.yul\":14244:14248   */\n      0x00\n        /* \"#utility.yul\":14282:14284   */\n      0x20\n        /* \"#utility.yul\":14271:14280   */\n      dup3\n        /* \"#utility.yul\":14267:14285   */\n      add\n        /* \"#utility.yul\":14259:14285   */\n      swap1\n      pop\n        /* \"#utility.yul\":14331:14340   */\n      dup2\n        /* \"#utility.yul\":14325:14329   */\n      dup2\n        /* \"#utility.yul\":14321:14341   */\n      sub\n        /* \"#utility.yul\":14317:14318   */\n      0x00\n        /* \"#utility.yul\":14306:14315   */\n      dup4\n        /* \"#utility.yul\":14302:14319   */\n      add\n        /* \"#utility.yul\":14295:14342   */\n      mstore\n        /* \"#utility.yul\":14359:14490   */\n      tag_282\n        /* \"#utility.yul\":14485:14489   */\n      dup2\n        /* \"#utility.yul\":14359:14490   */\n      tag_127\n      jump\t// in\n    tag_282:\n        /* \"#utility.yul\":14351:14490   */\n      swap1\n      pop\n        /* \"#utility.yul\":14078:14497   */\n      swap2\n      swap1\n      pop\n      jump\t// out\n        /* \"#utility.yul\":14503:14644   */\n    tag_128:\n        /* \"#utility.yul\":14552:14556   */\n      0x00\n        /* \"#utility.yul\":14575:14578   */\n      dup2\n        /* \"#utility.yul\":14567:14578   */\n      swap1\n      pop\n        /* \"#utility.yul\":14598:14601   */\n      dup2\n        /* \"#utility.yul\":14595:14596   */\n      0x00\n        /* \"#utility.yul\":14588:14602   */\n      mstore\n        /* \"#utility.yul\":14632:14636   */\n      0x20\n        /* \"#utility.yul\":14629:14630   */\n      0x00\n        /* \"#utility.yul\":14619:14637   */\n      keccak256\n        /* \"#utility.yul\":14611:14637   */\n      swap1\n      pop\n        /* \"#utility.yul\":14503:14644   */\n      swap2\n      swap1\n      pop\n      jump\t// out\n        /* \"#utility.yul\":14650:14743   */\n    tag_129:\n        /* \"#utility.yul\":14687:14693   */\n      0x00\n        /* \"#utility.yul\":14734:14736   */\n      0x20\n        /* \"#utility.yul\":14729:14731   */\n      0x1f\n        /* \"#utility.yul\":14722:14727   */\n      dup4\n        /* \"#utility.yul\":14718:14732   */\n      add\n        /* \"#utility.yul\":14714:14737   */\n      div\n        /* \"#utility.yul\":14704:14737   */\n      swap1\n      pop\n        /* \"#utility.yul\":14650:14743   */\n      swap2\n      swap1\n      pop\n      jump\t// out\n        /* \"#utility.yul\":14749:14856   */\n    tag_130:\n        /* \"#utility.yul\":14793:14801   */\n      0x00\n        /* \"#utility.yul\":14843:14848   */\n      dup3\n        /* \"#utility.yul\":14837:14841   */\n      dup3\n        /* \"#utility.yul\":14833:14849   */\n      shl\n        /* \"#utility.yul\":14812:14849   */\n      swap1\n      pop\n        /* \"#utility.yul\":14749:14856   */\n      swap3\n      swap2\n      pop\n      pop\n      jump\t// out\n        /* \"#utility.yul\":14862:15255   */\n    tag_131:\n        /* \"#utility.yul\":14931:14937   */\n      0x00\n        /* \"#utility.yul\":14981:14982   */\n      0x08\n        /* \"#utility.yul\":14969:14979   */\n      dup4\n        /* \"#utility.yul\":14965:14983   */\n      mul\n        /* \"#utility.yul\":15004:15101   */\n      tag_287\n        /* \"#utility.yul\":15034:15100   */\n      0xffffffffffffffffffffffffffffffffffffffffffffffffffffffffffffffff\n        /* \"#utility.yul\":15023:15032   */\n      dup3\n        /* \"#utility.yul\":15004:15101   */\n      tag_130\n      jump\t// in\n    tag_287:\n        /* \"#utility.yul\":15122:15161   */\n      tag_288\n        /* \"#utility.yul\":15152:15160   */\n      dup7\n        /* \"#utility.yul\":15141:15150   */\n      dup4\n        /* \"#utility.yul\":15122:15161   */\n      tag_130\n      jump\t// in\n    tag_288:\n        /* \"#utility.yul\":15110:15161   */\n      swap6\n      pop\n        /* \"#utility.yul\":15194:15198   */\n      dup1\n        /* \"#utility.yul\":15190:15199   */\n      not\n        /* \"#utility.yul\":15183:15188   */\n      dup5\n        /* \"#utility.yul\":15179:15200   */\n      and\n        /* \"#utility.yul\":15170:15200   */\n      swap4\n      pop\n        /* \"#utility.yul\":15243:15247   */\n      dup1\n        /* \"#utility.yul\":15233:15241   */\n      dup7\n        /* \"#utility.yul\":15229:15248   */\n      and\n        /* \"#utility.yul\":15222:15227   */\n      dup5\n        /* \"#utility.yul\":15219:15249   */\n      or\n        /* \"#utility.yul\":15209:15249   */\n      swap3\n      pop\n        /* \"#utility.yul\":14938:15255   */\n      pop\n      pop\n        /* \"#utility.yul\":14862:15255   */\n      swap4\n      swap3\n      pop\n      pop\n      pop\n      jump\t// out\n        /* \"#utility.yul\":15261:15321   */\n    tag_132:\n        /* \"#utility.yul\":15289:15292   */\n      0x00\n        /* \"#utility.yul\":15310:15315   */\n      dup2\n        /* \"#utility.yul\":15303:15315   */\n      swap1\n      pop\n        /* \"#utility.yul\":15261:15321   */\n      swap2\n      swap1\n      pop\n      jump\t// out\n        /* \"#utility.yul\":15327:15469   */\n    tag_133:\n        /* \"#utility.yul\":15377:15386   */\n      0x00\n        /* \"#utility.yul\":15410:15463   */\n      tag_291\n        /* \"#utility.yul\":15428:15462   */\n      tag_292\n        /* \"#utility.yul\":15437:15461   */\n      tag_293\n        /* \"#utility.yul\":15455:15460   */\n      dup5\n        /* \"#utility.yul\":15437:15461   */\n      tag_90\n      jump\t// in\n    tag_293:\n        /* \"#utility.yul\":15428:15462   */\n      tag_132\n      jump\t// in\n    tag_292:\n        /* \"#utility.yul\":15410:15463   */\n      tag_90\n      jump\t// in\n    tag_291:\n        /* \"#utility.yul\":15397:15463   */\n      swap1\n      pop\n        /* \"#utility.yul\":15327:15469   */\n      swap2\n      swap1\n      pop\n      jump\t// out\n        /* \"#utility.yul\":15475:15550   */\n    tag_134:\n        /* \"#utility.yul\":15518:15521   */\n      0x00\n        /* \"#utility.yul\":15539:15544   */\n      dup2\n        /* \"#utility.yul\":15532:15544   */\n      swap1\n      pop\n        /* \"#utility.yul\":15475:15550   */\n      swap2\n      swap1\n      pop\n      jump\t// out\n        /* \"#utility.yul\":15556:15825   */\n    tag_135:\n        /* \"#utility.yul\":15666:15705   */\n      tag_296\n        /* \"#utility.yul\":15697:15704   */\n      dup4\n        /* \"#utility.yul\":15666:15705   */\n      tag_133\n      jump\t// in\n    tag_296:\n        /* \"#utility.yul\":15727:15818   */\n      tag_297\n        /* \"#utility.yul\":15776:15817   */\n      tag_298\n        /* \"#utility.yul\":15800:15816   */\n      dup3\n        /* \"#utility.yul\":15776:15817   */\n      tag_134\n      jump\t// in\n    tag_298:\n        /* \"#utility.yul\":15768:15774   */\n      dup5\n        /* \"#utility.yul\":15761:15765   */\n      dup5\n        /* \"#utility.yul\":15755:15766   */\n      sload\n        /* \"#utility.yul\":15727:15818   */\n      tag_131\n      jump\t// in\n    tag_297:\n        /* \"#utility.yul\":15721:15725   */\n      dup3\n        /* \"#utility.yul\":15714:15819   */\n      sstore\n        /* \"#utility.yul\":15632:15825   */\n      pop\n        /* \"#utility.yul\":15556:15825   */\n      pop\n      pop\n      pop\n      jump\t// out\n        /* \"#utility.yul\":15831:15904   */\n    tag_136:\n        /* \"#utility.yul\":15876:15879   */\n      0x00\n        /* \"#utility.yul\":15897:15898   */\n      0x00\n        /* \"#utility.yul\":15890:15898   */\n      swap1\n      pop\n        /* \"#utility.yul\":15831:15904   */\n      swap1\n      jump\t// out\n        /* \"#utility.yul\":15910:16099   */\n    tag_137:\n        /* \"#utility.yul\":15987:16019   */\n      tag_301\n      tag_136\n      jump\t// in\n    tag_301:\n        /* \"#utility.yul\":16028:16093   */\n      tag_302\n        /* \"#utility.yul\":16086:16092   */\n      dup2\n        /* \"#utility.yul\":16078:16084   */\n      dup5\n        /* \"#utility.yul\":16072:16076   */\n      dup5\n        /* \"#utility.yul\":16028:16093   */\n      tag_135\n      jump\t// in\n    tag_302:\n        /* \"#utility.yul\":15963:16099   */\n      pop\n        /* \"#utility.yul\":15910:16099   */\n      pop\n      pop\n      jump\t// out\n        /* \"#utility.yul\":16105:16319   */\n    tag_138:\n        /* \"#utility.yul\":16190:16191   */\n      0x00\n        /* \"#utility.yul\":16175:16313   */\n    tag_304:\n        /* \"#utility.yul\":16200:16209   */\n      dup3\n        /* \"#utility.yul\":16197:16198   */\n      dup2\n        /* \"#utility.yul\":16194:16210   */\n      lt\n        /* \"#utility.yul\":16175:16313   */\n      iszero\n      tag_306\n      jumpi\n        /* \"#utility.yul\":16252:16303   */\n      tag_307\n        /* \"#utility.yul\":16301:16302   */\n      0x00\n        /* \"#utility.yul\":16297:16298   */\n      dup3\n        /* \"#utility.yul\":16286:16295   */\n      dup5\n        /* \"#utility.yul\":16282:16299   */\n      add\n        /* \"#utility.yul\":16252:16303   */\n      tag_137\n      jump\t// in\n    tag_307:\n        /* \"#utility.yul\":16225:16226   */\n      0x01\n        /* \"#utility.yul\":16222:16223   */\n      dup2\n        /* \"#utility.yul\":16218:16227   */\n      add\n        /* \"#utility.yul\":16213:16227   */\n      swap1\n      pop\n        /* \"#utility.yul\":16175:16313   */\n      jump(tag_304)\n    tag_306:\n        /* \"#utility.yul\":16179:16193   */\n      pop\n        /* \"#utility.yul\":16105:16319   */\n      pop\n      pop\n      jump\t// out\n        /* \"#utility.yul\":16325:17071   */\n    tag_139:\n        /* \"#utility.yul\":16426:16428   */\n      0x1f\n        /* \"#utility.yul\":16421:16424   */\n      dup3\n        /* \"#utility.yul\":16418:16429   */\n      gt\n        /* \"#utility.yul\":16415:17064   */\n      iszero\n      tag_309\n      jumpi\n        /* \"#utility.yul\":16455:16465   */\n      dup3\n        /* \"#utility.yul\":16450:16453   */\n      dup3\n        /* \"#utility.yul\":16447:16466   */\n      gt\n        /* \"#utility.yul\":16444:17054   */\n      iszero\n      tag_310\n      jumpi\n        /* \"#utility.yul\":16501:16539   */\n      tag_311\n        /* \"#utility.yul\":16533:16538   */\n      dup2\n        /* \"#utility.yul\":16501:16539   */\n      tag_128\n      jump\t// in\n    tag_311:\n        /* \"#utility.yul\":16576:16598   */\n      tag_312\n        /* \"#utility.yul\":16594:16597   */\n      dup4\n        /* \"#utility.yul\":16576:16598   */\n      tag_129\n      jump\t// in\n    tag_312:\n        /* \"#utility.yul\":16635:16664   */\n      tag_313\n        /* \"#utility.yul\":16653:16663   */\n      dup6\n        /* \"#utility.yul\":16635:16664   */\n      tag_129\n      jump\t// in\n    tag_313:\n        /* \"#utility.yul\":16825:16827   */\n      0x20\n        /* \"#utility.yul\":16813:16823   */\n      dup7\n        /* \"#utility.yul\":16810:16828   */\n      lt\n        /* \"#utility.yul\":16807:16886   */\n      iszero\n      tag_314\n      jumpi\n        /* \"#utility.yul\":16867:16868   */\n      0x00\n        /* \"#utility.yul\":16851:16868   */\n      swap1\n      pop\n        /* \"#utility.yul\":16807:16886   */\n    tag_314:\n        /* \"#utility.yul\":16936:16948   */\n      dup1\n        /* \"#utility.yul\":16926:16934   */\n      dup4\n        /* \"#utility.yul\":16922:16949   */\n      add\n        /* \"#utility.yul\":16966:17040   */\n      tag_315\n        /* \"#utility.yul\":17026:17038   */\n      dup3\n        /* \"#utility.yul\":17012:17024   */\n      dup5\n        /* \"#utility.yul\":17008:17039   */\n      sub\n        /* \"#utility.yul\":16995:17006   */\n      dup3\n        /* \"#utility.yul\":16966:17040   */\n      tag_138\n      jump\t// in\n    tag_315:\n        /* \"#utility.yul\":16467:17054   */\n      pop\n      pop\n      pop\n      pop\n        /* \"#utility.yul\":16444:17054   */\n    tag_310:\n        /* \"#utility.yul\":16415:17064   */\n    tag_309:\n        /* \"#utility.yul\":16325:17071   */\n      pop\n      pop\n      pop\n      jump\t// out\n        /* \"#utility.yul\":17077:17194   */\n    tag_140:\n        /* \"#utility.yul\":17131:17139   */\n      0x00\n        /* \"#utility.yul\":17181:17186   */\n      dup3\n        /* \"#utility.yul\":17175:17179   */\n      dup3\n        /* \"#utility.yul\":17171:17187   */\n      shr\n        /* \"#utility.yul\":17150:17187   */\n      swap1\n      pop\n        /* \"#utility.yul\":17077:17194   */\n      swap3\n      swap2\n      pop\n      pop\n      jump\t// out\n        /* \"#utility.yul\":17200:17369   */\n    tag_141:\n        /* \"#utility.yul\":17244:17250   */\n      0x00\n        /* \"#utility.yul\":17277:17328   */\n      tag_318\n        /* \"#utility.yul\":17325:17326   */\n      0x00\n        /* \"#utility.yul\":17321:17327   */\n      not\n        /* \"#utility.yul\":17313:17318   */\n      dup5\n        /* \"#utility.yul\":17310:17311   */\n      0x08\n        /* \"#utility.yul\":17306:17319   */\n      mul\n        /* \"#utility.yul\":17277:17328   */\n      tag_140\n      jump\t// in\n    tag_318:\n        /* \"#utility.yul\":17273:17329   */\n      not\n        /* \"#utility.yul\":17358:17362   */\n      dup1\n        /* \"#utility.yul\":17352:17356   */\n      dup4\n        /* \"#utility.yul\":17348:17363   */\n      and\n        /* \"#utility.yul\":17338:17363   */\n      swap2\n      pop\n        /* \"#utility.yul\":17251:17369   */\n      pop\n        /* \"#utility.yul\":17200:17369   */\n      swap3\n      swap2\n      pop\n      pop\n      jump\t// out\n        /* \"#utility.yul\":17374:17669   */\n    tag_142:\n        /* \"#utility.yul\":17450:17454   */\n      0x00\n        /* \"#utility.yul\":17596:17625   */\n      tag_320\n        /* \"#utility.yul\":17621:17624   */\n      dup4\n        /* \"#utility.yul\":17615:17619   */\n      dup4\n        /* \"#utility.yul\":17596:17625   */\n      tag_141\n      jump\t// in\n    tag_320:\n        /* \"#utility.yul\":17588:17625   */\n      swap2\n      pop\n        /* \"#utility.yul\":17658:17661   */\n      dup3\n        /* \"#utility.yul\":17655:17656   */\n      0x02\n        /* \"#utility.yul\":17651:17662   */\n      mul\n        /* \"#utility.yul\":17645:17649   */\n      dup3\n        /* \"#utility.yul\":17642:17663   */\n      or\n        /* \"#utility.yul\":17634:17663   */\n      swap1\n      pop\n        /* \"#utility.yul\":17374:17669   */\n      swap3\n      swap2\n      pop\n      pop\n      jump\t// out\n        /* \"#utility.yul\":17674:19069   */\n    tag_68:\n        /* \"#utility.yul\":17791:17828   */\n      tag_322\n        /* \"#utility.yul\":17824:17827   */\n      dup3\n        /* \"#utility.yul\":17791:17828   */\n      tag_95\n      jump\t// in\n    tag_322:\n        /* \"#utility.yul\":17893:17911   */\n      0xffffffffffffffff\n        /* \"#utility.yul\":17885:17891   */\n      dup2\n        /* \"#utility.yul\":17882:17912   */\n      gt\n        /* \"#utility.yul\":17879:17935   */\n      iszero\n      tag_323\n      jumpi\n        /* \"#utility.yul\":17915:17933   */\n      tag_324\n      tag_115\n      jump\t// in\n    tag_324:\n        /* \"#utility.yul\":17879:17935   */\n    tag_323:\n        /* \"#utility.yul\":17959:17997   */\n      tag_325\n        /* \"#utility.yul\":17991:17995   */\n      dup3\n        /* \"#utility.yul\":17985:17996   */\n      sload\n        /* \"#utility.yul\":17959:17997   */\n      tag_38\n      jump\t// in\n    tag_325:\n        /* \"#utility.yul\":18044:18111   */\n      tag_326\n        /* \"#utility.yul\":18104:18110   */\n      dup3\n        /* \"#utility.yul\":18096:18102   */\n      dup3\n        /* \"#utility.yul\":18090:18094   */\n      dup6\n        /* \"#utility.yul\":18044:18111   */\n      tag_139\n      jump\t// in\n    tag_326:\n        /* \"#utility.yul\":18138:18139   */\n      0x00\n        /* \"#utility.yul\":18162:18166   */\n      0x20\n        /* \"#utility.yul\":18149:18166   */\n      swap1\n      pop\n        /* \"#utility.yul\":18194:18196   */\n      0x1f\n        /* \"#utility.yul\":18186:18192   */\n      dup4\n        /* \"#utility.yul\":18183:18197   */\n      gt\n        /* \"#utility.yul\":18211:18212   */\n      0x01\n        /* \"#utility.yul\":18206:18824   */\n      dup2\n      eq\n      tag_328\n      jumpi\n        /* \"#utility.yul\":18868:18869   */\n      0x00\n        /* \"#utility.yul\":18885:18891   */\n      dup5\n        /* \"#utility.yul\":18882:18959   */\n      iszero\n      tag_329\n      jumpi\n        /* \"#utility.yul\":18934:18943   */\n      dup3\n        /* \"#utility.yul\":18929:18932   */\n      dup8\n        /* \"#utility.yul\":18925:18944   */\n      add\n        /* \"#utility.yul\":18919:18945   */\n      mload\n        /* \"#utility.yul\":18910:18945   */\n      swap1\n      pop\n        /* \"#utility.yul\":18882:18959   */\n    tag_329:\n        /* \"#utility.yul\":18985:19052   */\n      tag_330\n        /* \"#utility.yul\":19045:19051   */\n      dup6\n        /* \"#utility.yul\":19038:19043   */\n      dup3\n        /* \"#utility.yul\":18985:19052   */\n      tag_142\n      jump\t// in\n    tag_330:\n        /* \"#utility.yul\":18979:18983   */\n      dup7\n        /* \"#utility.yul\":18972:19053   */\n      sstore\n        /* \"#utility.yul\":18841:19063   */\n      pop\n        /* \"#utility.yul\":18176:19063   */\n      jump(tag_327)\n        /* \"#utility.yul\":18206:18824   */\n    tag_328:\n        /* \"#utility.yul\":18258:18262   */\n      0x1f\n        /* \"#utility.yul\":18254:18263   */\n      not\n        /* \"#utility.yul\":18246:18252   */\n      dup5\n        /* \"#utility.yul\":18242:18264   */\n      and\n        /* \"#utility.yul\":18292:18329   */\n      tag_331\n        /* \"#utility.yul\":18324:18328   */\n      dup7\n        /* \"#utility.yul\":18292:18329   */\n      tag_128\n      jump\t// in\n    tag_331:\n        /* \"#utility.yul\":18351:18352   */\n      0x00\n        /* \"#utility.yul\":18365:18573   */\n    tag_332:\n        /* \"#utility.yul\":18379:18386   */\n      dup3\n        /* \"#utility.yul\":18376:18377   */\n      dup2\n        /* \"#utility.yul\":18373:18387   */\n      lt\n        /* \"#utility.yul\":18365:18573   */\n      iszero\n      tag_334\n      jumpi\n        /* \"#utility.yul\":18458:18467   */\n      dup5\n        /* \"#utility.yul\":18453:18456   */\n      dup10\n        /* \"#utility.yul\":18449:18468   */\n      add\n        /* \"#utility.yul\":18443:18469   */\n      mload\n        /* \"#utility.yul\":18435:18441   */\n      dup3\n        /* \"#utility.yul\":18428:18470   */\n      sstore\n        /* \"#utility.yul\":18509:18510   */\n      0x01\n        /* \"#utility.yul\":18501:18507   */\n      dup3\n        /* \"#utility.yul\":18497:18511   */\n      add\n        /* \"#utility.yul\":18487:18511   */\n      swap2\n      pop\n        /* \"#utility.yul\":18556:18558   */\n      0x20\n        /* \"#utility.yul\":18545:18554   */\n      dup6\n        /* \"#utility.yul\":18541:18559   */\n      add\n        /* \"#utility.yul\":18528:18559   */\n      swap5\n      pop\n        /* \"#utility.yul\":18402:18406   */\n      0x20\n        /* \"#utility.yul\":18399:18400   */\n      dup2\n        /* \"#utility.yul\":18395:18407   */\n      add\n        /* \"#utility.yul\":18390:18407   */\n      swap1\n      pop\n        /* \"#utility.yul\":18365:18573   */\n      jump(tag_332)\n    tag_334:\n        /* \"#utility.yul\":18601:18607   */\n      dup7\n        /* \"#utility.yul\":18592:18599   */\n      dup4\n        /* \"#utility.yul\":18589:18608   */\n      lt\n        /* \"#utility.yul\":18586:18765   */\n      iszero\n      tag_335\n      jumpi\n        /* \"#utility.yul\":18659:18668   */\n      dup5\n        /* \"#utility.yul\":18654:18657   */\n      dup10\n        /* \"#utility.yul\":18650:18669   */\n      add\n        /* \"#utility.yul\":18644:18670   */\n      mload\n        /* \"#utility.yul\":18702:18750   */\n      tag_336\n        /* \"#utility.yul\":18744:18748   */\n      0x1f\n        /* \"#utility.yul\":18736:18742   */\n      dup10\n        /* \"#utility.yul\":18732:18749   */\n      and\n        /* \"#utility.yul\":18721:18730   */\n      dup3\n        /* \"#utility.yul\":18702:18750   */\n      tag_141\n      jump\t// in\n    tag_336:\n        /* \"#utility.yul\":18694:18700   */\n      dup4\n        /* \"#utility.yul\":18687:18751   */\n      sstore\n        /* \"#utility.yul\":18609:18765   */\n      pop\n        /* \"#utility.yul\":18586:18765   */\n    tag_335:\n        /* \"#utility.yul\":18811:18812   */\n      0x01\n        /* \"#utility.yul\":18807:18808   */\n      0x02\n        /* \"#utility.yul\":18799:18805   */\n      dup9\n        /* \"#utility.yul\":18795:18809   */\n      mul\n        /* \"#utility.yul\":18791:18813   */\n      add\n        /* \"#utility.yul\":18785:18789   */\n      dup9\n        /* \"#utility.yul\":18778:18814   */\n      sstore\n        /* \"#utility.yul\":18213:18824   */\n      pop\n      pop\n      pop\n        /* \"#utility.yul\":18176:19063   */\n    tag_327:\n      pop\n        /* \"#utility.yul\":17766:19069   */\n      pop\n      pop\n      pop\n        /* \"#utility.yul\":17674:19069   */\n      pop\n      pop\n      jump\t// out\n        /* \"#utility.yul\":19075:19243   */\n    tag_143:\n        /* \"#utility.yul\":19215:19235   */\n      0x4e6f206c696b657320746f2072656d6f76650000000000000000000000000000\n        /* \"#utility.yul\":19211:19212   */\n      0x00\n        /* \"#utility.yul\":19203:19209   */\n      dup3\n        /* \"#utility.yul\":19199:19213   */\n      add\n        /* \"#utility.yul\":19192:19236   */\n      mstore\n        /* \"#utility.yul\":19075:19243   */\n      pop\n      jump\t// out\n        /* \"#utility.yul\":19249:19615   */\n    tag_144:\n        /* \"#utility.yul\":19391:19394   */\n      0x00\n        /* \"#utility.yul\":19412:19479   */\n      tag_339\n        /* \"#utility.yul\":19476:19478   */\n      0x12\n        /* \"#utility.yul\":19471:19474   */\n      dup4\n        /* \"#utility.yul\":19412:19479   */\n      tag_96\n      jump\t// in\n    tag_339:\n        /* \"#utility.yul\":19405:19479   */\n      swap2\n      pop\n        /* \"#utility.yul\":19488:19581   */\n      tag_340\n        /* \"#utility.yul\":19577:19580   */\n      dup3\n        /* \"#utility.yul\":19488:19581   */\n      tag_143\n      jump\t// in\n    tag_340:\n        /* \"#utility.yul\":19606:19608   */\n      0x20\n        /* \"#utility.yul\":19601:19604   */\n      dup3\n        /* \"#utility.yul\":19597:19609   */\n      add\n        /* \"#utility.yul\":19590:19609   */\n      swap1\n      pop\n        /* \"#utility.yul\":19249:19615   */\n      swap2\n      swap1\n      pop\n      jump\t// out\n        /* \"#utility.yul\":19621:20040   */\n    tag_77:\n        /* \"#utility.yul\":19787:19791   */\n      0x00\n        /* \"#utility.yul\":19825:19827   */\n      0x20\n        /* \"#utility.yul\":19814:19823   */\n      dup3\n        /* \"#utility.yul\":19810:19828   */\n      add\n        /* \"#utility.yul\":19802:19828   */\n      swap1\n      pop\n        /* \"#utility.yul\":19874:19883   */\n      dup2\n        /* \"#utility.yul\":19868:19872   */\n      dup2\n        /* \"#utility.yul\":19864:19884   */\n      sub\n        /* \"#utility.yul\":19860:19861   */\n      0x00\n        /* \"#utility.yul\":19849:19858   */\n      dup4\n        /* \"#utility.yul\":19845:19862   */\n      add\n        /* \"#utility.yul\":19838:19885   */\n      mstore\n        /* \"#utility.yul\":19902:20033   */\n      tag_342\n        /* \"#utility.yul\":20028:20032   */\n      dup2\n        /* \"#utility.yul\":19902:20033   */\n      tag_144\n      jump\t// in\n    tag_342:\n        /* \"#utility.yul\":19894:20033   */\n      swap1\n      pop\n        /* \"#utility.yul\":19621:20040   */\n      swap2\n      swap1\n      pop\n      jump\t// out\n        /* \"#utility.yul\":20046:20217   */\n    tag_82:\n        /* \"#utility.yul\":20085:20088   */\n      0x00\n        /* \"#utility.yul\":20108:20132   */\n      tag_344\n        /* \"#utility.yul\":20126:20131   */\n      dup3\n        /* \"#utility.yul\":20108:20132   */\n      tag_90\n      jump\t// in\n    tag_344:\n        /* \"#utility.yul\":20099:20132   */\n      swap2\n      pop\n        /* \"#utility.yul\":20154:20158   */\n      0x00\n        /* \"#utility.yul\":20147:20152   */\n      dup3\n        /* \"#utility.yul\":20144:20159   */\n      sub\n        /* \"#utility.yul\":20141:20182   */\n      tag_345\n      jumpi\n        /* \"#utility.yul\":20162:20180   */\n      tag_346\n      tag_125\n      jump\t// in\n    tag_346:\n        /* \"#utility.yul\":20141:20182   */\n    tag_345:\n        /* \"#utility.yul\":20209:20210   */\n      0x01\n        /* \"#utility.yul\":20202:20207   */\n      dup3\n        /* \"#utility.yul\":20198:20211   */\n      sub\n        /* \"#utility.yul\":20191:20211   */\n      swap1\n      pop\n        /* \"#utility.yul\":20046:20217   */\n      swap2\n      swap1\n      pop\n      jump\t// out\n\n    auxdata: 0xa26469706673582212208e19abac519219294587739f1c48b2630f94e09570b1615bf0e1a6184b5a0f5364736f6c63430008220033\n}\n",
				"bytecode": {
					"linkReferences": {},
					"object": "60806040526101185f5f6101000a81548161ffff021916908361ffff160217905550348015602b575f5ffd5b5061127e806100395f395ff3fe608060405234801561000f575f5ffd5b5060043610610060575f3560e01c806305a1b4a91461006457806312e7ee1c1461009857806363378216146100c85780636eb10797146100e45780637c9cd2bc14610102578063ae775e951461011e575b5f5ffd5b61007e600480360381019061007991906108c0565b61013a565b60405161008f95949392919061098c565b60405180910390f35b6100b260048036038101906100ad91906109e4565b61022b565b6040516100bf9190610ba3565b60405180910390f35b6100e260048036038101906100dd91906108c0565b6103c6565b005b6100ec6104bf565b6040516100f99190610bdf565b60405180910390f35b61011c60048036038101906101179190610d24565b6104d1565b005b610138600480360381019061013391906108c0565b610689565b005b6001602052815f5260405f208181548110610153575f80fd5b905f5260205f2090600502015f9150915050805f015490806001015f9054906101000a900473ffffffffffffffffffffffffffffffffffffffff169080600201805461019e90610d98565b80601f01602080910402602001604051908101604052809291908181526020018280546101ca90610d98565b80156102155780601f106101ec57610100808354040283529160200191610215565b820191905f5260205f20905b8154815290600101906020018083116101f857829003601f168201915b5050505050908060030154908060040154905085565b606060015f8373ffffffffffffffffffffffffffffffffffffffff1673ffffffffffffffffffffffffffffffffffffffff1681526020019081526020015f20805480602002602001604051908101604052809291908181526020015f905b828210156103bb578382905f5260205f2090600502016040518060a00160405290815f8201548152602001600182015f9054906101000a900473ffffffffffffffffffffffffffffffffffffffff1673ffffffffffffffffffffffffffffffffffffffff1673ffffffffffffffffffffffffffffffffffffffff16815260200160028201805461031890610d98565b80601f016020809104026020016040519081016040528092919081815260200182805461034490610d98565b801561038f5780601f106103665761010080835404028352916020019161038f565b820191905f5260205f20905b81548152906001019060200180831161037257829003601f168201915b505050505081526020016003820154815260200160048201548152505081526020019060010190610289565b505050509050919050565b60015f8373ffffffffffffffffffffffffffffffffffffffff1673ffffffffffffffffffffffffffffffffffffffff1681526020019081526020015f20805490508110610448576040517f08c379a000000000000000000000000000000000000000000000000000000000815260040161043f90610e12565b60405180910390fd5b60015f8373ffffffffffffffffffffffffffffffffffffffff1673ffffffffffffffffffffffffffffffffffffffff1681526020019081526020015f20818154811061049757610496610e30565b5b905f5260205f2090600502016004015f8154809291906104b690610e8a565b91905055505050565b5f5f9054906101000a900461ffff1681565b5f5f9054906101000a900461ffff1661ffff1681511115610527576040517f08c379a000000000000000000000000000000000000000000000000000000000815260040161051e90610f1b565b60405180910390fd5b5f60015f3373ffffffffffffffffffffffffffffffffffffffff1673ffffffffffffffffffffffffffffffffffffffff1681526020019081526020015f2080549050905060015f3373ffffffffffffffffffffffffffffffffffffffff1673ffffffffffffffffffffffffffffffffffffffff1681526020019081526020015f206040518060a001604052808381526020013373ffffffffffffffffffffffffffffffffffffffff1681526020018481526020014281526020015f815250908060018154018082558091505060019003905f5260205f2090600502015f909190919091505f820151815f01556020820151816001015f6101000a81548173ffffffffffffffffffffffffffffffffffffffff021916908373ffffffffffffffffffffffffffffffffffffffff160217905550604082015181600201908161066e91906110ea565b50606082015181600301556080820151816004015550505050565b60015f8373ffffffffffffffffffffffffffffffffffffffff1673ffffffffffffffffffffffffffffffffffffffff1681526020019081526020015f2080549050811061070b576040517f08c379a000000000000000000000000000000000000000000000000000000000815260040161070290610e12565b60405180910390fd5b5f60015f8473ffffffffffffffffffffffffffffffffffffffff1673ffffffffffffffffffffffffffffffffffffffff1681526020019081526020015f20828154811061075b5761075a610e30565b5b905f5260205f20906005020160040154116107ab576040517f08c379a00000000000000000000000000000000000000000000000000000000081526004016107a290611203565b60405180910390fd5b60015f8373ffffffffffffffffffffffffffffffffffffffff1673ffffffffffffffffffffffffffffffffffffffff1681526020019081526020015f2081815481106107fa576107f9610e30565b5b905f5260205f2090600502016004015f81548092919061081990611221565b91905055505050565b5f604051905090565b5f5ffd5b5f5ffd5b5f73ffffffffffffffffffffffffffffffffffffffff82169050919050565b5f61085c82610833565b9050919050565b61086c81610852565b8114610876575f5ffd5b50565b5f8135905061088781610863565b92915050565b5f819050919050565b61089f8161088d565b81146108a9575f5ffd5b50565b5f813590506108ba81610896565b92915050565b5f5f604083850312156108d6576108d561082b565b5b5f6108e385828601610879565b92505060206108f4858286016108ac565b9150509250929050565b6109078161088d565b82525050565b61091681610852565b82525050565b5f81519050919050565b5f82825260208201905092915050565b8281835e5f83830152505050565b5f601f19601f8301169050919050565b5f61095e8261091c565b6109688185610926565b9350610978818560208601610936565b61098181610944565b840191505092915050565b5f60a08201905061099f5f8301886108fe565b6109ac602083018761090d565b81810360408301526109be8186610954565b90506109cd60608301856108fe565b6109da60808301846108fe565b9695505050505050565b5f602082840312156109f9576109f861082b565b5b5f610a0684828501610879565b91505092915050565b5f81519050919050565b5f82825260208201905092915050565b5f819050602082019050919050565b610a418161088d565b82525050565b610a5081610852565b82525050565b5f82825260208201905092915050565b5f610a708261091c565b610a7a8185610a56565b9350610a8a818560208601610936565b610a9381610944565b840191505092915050565b5f60a083015f830151610ab35f860182610a38565b506020830151610ac66020860182610a47565b5060408301518482036040860152610ade8282610a66565b9150506060830151610af36060860182610a38565b506080830151610b066080860182610a38565b508091505092915050565b5f610b1c8383610a9e565b905092915050565b5f602082019050919050565b5f610b3a82610a0f565b610b448185610a19565b935083602082028501610b5685610a29565b805f5b85811015610b915784840389528151610b728582610b11565b9450610b7d83610b24565b925060208a01995050600181019050610b59565b50829750879550505050505092915050565b5f6020820190508181035f830152610bbb8184610b30565b905092915050565b5f61ffff82169050919050565b610bd981610bc3565b82525050565b5f602082019050610bf25f830184610bd0565b92915050565b5f5ffd5b5f5ffd5b7f4e487b71000000000000000000000000000000000000000000000000000000005f52604160045260245ffd5b610c3682610944565b810181811067ffffffffffffffff82111715610c5557610c54610c00565b5b80604052505050565b5f610c67610822565b9050610c738282610c2d565b919050565b5f67ffffffffffffffff821115610c9257610c91610c00565b5b610c9b82610944565b9050602081019050919050565b828183375f83830152505050565b5f610cc8610cc384610c78565b610c5e565b905082815260208101848484011115610ce457610ce3610bfc565b5b610cef848285610ca8565b509392505050565b5f82601f830112610d0b57610d0a610bf8565b5b8135610d1b848260208601610cb6565b91505092915050565b5f60208284031215610d3957610d3861082b565b5b5f82013567ffffffffffffffff811115610d5657610d5561082f565b5b610d6284828501610cf7565b91505092915050565b7f4e487b71000000000000000000000000000000000000000000000000000000005f52602260045260245ffd5b5f6002820490506001821680610daf57607f821691505b602082108103610dc257610dc1610d6b565b5b50919050565b7f547765657420646f6573206e6f742065786973740000000000000000000000005f82015250565b5f610dfc601483610926565b9150610e0782610dc8565b602082019050919050565b5f6020820190508181035f830152610e2981610df0565b9050919050565b7f4e487b71000000000000000000000000000000000000000000000000000000005f52603260045260245ffd5b7f4e487b71000000000000000000000000000000000000000000000000000000005f52601160045260245ffd5b5f610e948261088d565b91507fffffffffffffffffffffffffffffffffffffffffffffffffffffffffffffffff8203610ec657610ec5610e5d565b5b600182019050919050565b7f547765657420746f6f206c6f6e672100000000000000000000000000000000005f82015250565b5f610f05600f83610926565b9150610f1082610ed1565b602082019050919050565b5f6020820190508181035f830152610f3281610ef9565b9050919050565b5f819050815f5260205f209050919050565b5f6020601f8301049050919050565b5f82821b905092915050565b5f60088302610f957fffffffffffffffffffffffffffffffffffffffffffffffffffffffffffffffff82610f5a565b610f9f8683610f5a565b95508019841693508086168417925050509392505050565b5f819050919050565b5f610fda610fd5610fd08461088d565b610fb7565b61088d565b9050919050565b5f819050919050565b610ff383610fc0565b611007610fff82610fe1565b848454610f66565b825550505050565b5f5f905090565b61101e61100f565b611029818484610fea565b505050565b5f5b8281101561104f576110445f828401611016565b600181019050611030565b505050565b601f8211156110a257828211156110a15761106e81610f39565b61107783610f4b565b61108085610f4b565b602086101561108d575f90505b80830161109c8284038261102e565b505050505b5b505050565b5f82821c905092915050565b5f6110c25f19846008026110a7565b1980831691505092915050565b5f6110da83836110b3565b9150826002028217905092915050565b6110f38261091c565b67ffffffffffffffff81111561110c5761110b610c00565b5b6111168254610d98565b611121828285611054565b5f60209050601f831160018114611152575f8415611140578287015190505b61114a85826110cf565b8655506111b1565b601f19841661116086610f39565b5f5b8281101561118757848901518255600182019150602085019450602081019050611162565b868310156111a457848901516111a0601f8916826110b3565b8355505b6001600288020188555050505b505050505050565b7f4e6f206c696b657320746f2072656d6f766500000000000000000000000000005f82015250565b5f6111ed601283610926565b91506111f8826111b9565b602082019050919050565b5f6020820190508181035f83015261121a816111e1565b9050919050565b5f61122b8261088d565b91505f820361123d5761123c610e5d565b5b60018203905091905056fea26469706673582212208e19abac519219294587739f1c48b2630f94e09570b1615bf0e1a6184b5a0f5364736f6c63430008220033",
					"opcodes": "PUSH1 0x80 PUSH1 0x40 MSTORE PUSH2 0x118 PUSH0 PUSH0 PUSH2 0x100 EXP DUP2 SLOAD DUP2 PUSH2 0xFFFF MUL NOT AND SWAP1 DUP4 PUSH2 0xFFFF AND MUL OR SWAP1 SSTORE POP CALLVALUE DUP1 ISZERO PUSH1 0x2B JUMPI PUSH0 PUSH0 REVERT JUMPDEST POP PUSH2 0x127E DUP1 PUSH2 0x39 PUSH0 CODECOPY PUSH0 RETURN INVALID PUSH1 0x80 PUSH1 0x40 MSTORE CALLVALUE DUP1 ISZERO PUSH2 0xF JUMPI PUSH0 PUSH0 REVERT JUMPDEST POP PUSH1 0x4 CALLDATASIZE LT PUSH2 0x60 JUMPI PUSH0 CALLDATALOAD PUSH1 0xE0 SHR DUP1 PUSH4 0x5A1B4A9 EQ PUSH2 0x64 JUMPI DUP1 PUSH4 0x12E7EE1C EQ PUSH2 0x98 JUMPI DUP1 PUSH4 0x63378216 EQ PUSH2 0xC8 JUMPI DUP1 PUSH4 0x6EB10797 EQ PUSH2 0xE4 JUMPI DUP1 PUSH4 0x7C9CD2BC EQ PUSH2 0x102 JUMPI DUP1 PUSH4 0xAE775E95 EQ PUSH2 0x11E JUMPI JUMPDEST PUSH0 PUSH0 REVERT JUMPDEST PUSH2 0x7E PUSH1 0x4 DUP1 CALLDATASIZE SUB DUP2 ADD SWAP1 PUSH2 0x79 SWAP2 SWAP1 PUSH2 0x8C0 JUMP JUMPDEST PUSH2 0x13A JUMP JUMPDEST PUSH1 0x40 MLOAD PUSH2 0x8F SWAP6 SWAP5 SWAP4 SWAP3 SWAP2 SWAP1 PUSH2 0x98C JUMP JUMPDEST PUSH1 0x40 MLOAD DUP1 SWAP2 SUB SWAP1 RETURN JUMPDEST PUSH2 0xB2 PUSH1 0x4 DUP1 CALLDATASIZE SUB DUP2 ADD SWAP1 PUSH2 0xAD SWAP2 SWAP1 PUSH2 0x9E4 JUMP JUMPDEST PUSH2 0x22B JUMP JUMPDEST PUSH1 0x40 MLOAD PUSH2 0xBF SWAP2 SWAP1 PUSH2 0xBA3 JUMP JUMPDEST PUSH1 0x40 MLOAD DUP1 SWAP2 SUB SWAP1 RETURN JUMPDEST PUSH2 0xE2 PUSH1 0x4 DUP1 CALLDATASIZE SUB DUP2 ADD SWAP1 PUSH2 0xDD SWAP2 SWAP1 PUSH2 0x8C0 JUMP JUMPDEST PUSH2 0x3C6 JUMP JUMPDEST STOP JUMPDEST PUSH2 0xEC PUSH2 0x4BF JUMP JUMPDEST PUSH1 0x40 MLOAD PUSH2 0xF9 SWAP2 SWAP1 PUSH2 0xBDF JUMP JUMPDEST PUSH1 0x40 MLOAD DUP1 SWAP2 SUB SWAP1 RETURN JUMPDEST PUSH2 0x11C PUSH1 0x4 DUP1 CALLDATASIZE SUB DUP2 ADD SWAP1 PUSH2 0x117 SWAP2 SWAP1 PUSH2 0xD24 JUMP JUMPDEST PUSH2 0x4D1 JUMP JUMPDEST STOP JUMPDEST PUSH2 0x138 PUSH1 0x4 DUP1 CALLDATASIZE SUB DUP2 ADD SWAP1 PUSH2 0x133 SWAP2 SWAP1 PUSH2 0x8C0 JUMP JUMPDEST PUSH2 0x689 JUMP JUMPDEST STOP JUMPDEST PUSH1 0x1 PUSH1 0x20 MSTORE DUP2 PUSH0 MSTORE PUSH1 0x40 PUSH0 KECCAK256 DUP2 DUP2 SLOAD DUP2 LT PUSH2 0x153 JUMPI PUSH0 DUP1 REVERT JUMPDEST SWAP1 PUSH0 MSTORE PUSH1 0x20 PUSH0 KECCAK256 SWAP1 PUSH1 0x5 MUL ADD PUSH0 SWAP2 POP SWAP2 POP POP DUP1 PUSH0 ADD SLOAD SWAP1 DUP1 PUSH1 0x1 ADD PUSH0 SWAP1 SLOAD SWAP1 PUSH2 0x100 EXP SWAP1 DIV PUSH20 0xFFFFFFFFFFFFFFFFFFFFFFFFFFFFFFFFFFFFFFFF AND SWAP1 DUP1 PUSH1 0x2 ADD DUP1 SLOAD PUSH2 0x19E SWAP1 PUSH2 0xD98 JUMP JUMPDEST DUP1 PUSH1 0x1F ADD PUSH1 0x20 DUP1 SWAP2 DIV MUL PUSH1 0x20 ADD PUSH1 0x40 MLOAD SWAP1 DUP2 ADD PUSH1 0x40 MSTORE DUP1 SWAP3 SWAP2 SWAP1 DUP2 DUP2 MSTORE PUSH1 0x20 ADD DUP3 DUP1 SLOAD PUSH2 0x1CA SWAP1 PUSH2 0xD98 JUMP JUMPDEST DUP1 ISZERO PUSH2 0x215 JUMPI DUP1 PUSH1 0x1F LT PUSH2 0x1EC JUMPI PUSH2 0x100 DUP1 DUP4 SLOAD DIV MUL DUP4 MSTORE SWAP2 PUSH1 0x20 ADD SWAP2 PUSH2 0x215 JUMP JUMPDEST DUP3 ADD SWAP2 SWAP1 PUSH0 MSTORE PUSH1 0x20 PUSH0 KECCAK256 SWAP1 JUMPDEST DUP2 SLOAD DUP2 MSTORE SWAP1 PUSH1 0x1 ADD SWAP1 PUSH1 0x20 ADD DUP1 DUP4 GT PUSH2 0x1F8 JUMPI DUP3 SWAP1 SUB PUSH1 0x1F AND DUP3 ADD SWAP2 JUMPDEST POP POP POP POP POP SWAP1 DUP1 PUSH1 0x3 ADD SLOAD SWAP1 DUP1 PUSH1 0x4 ADD SLOAD SWAP1 POP DUP6 JUMP JUMPDEST PUSH1 0x60 PUSH1 0x1 PUSH0 DUP4 PUSH20 0xFFFFFFFFFFFFFFFFFFFFFFFFFFFFFFFFFFFFFFFF AND PUSH20 0xFFFFFFFFFFFFFFFFFFFFFFFFFFFFFFFFFFFFFFFF AND DUP2 MSTORE PUSH1 0x20 ADD SWAP1 DUP2 MSTORE PUSH1 0x20 ADD PUSH0 KECCAK256 DUP1 SLOAD DUP1 PUSH1 0x20 MUL PUSH1 0x20 ADD PUSH1 0x40 MLOAD SWAP1 DUP2 ADD PUSH1 0x40 MSTORE DUP1 SWAP3 SWAP2 SWAP1 DUP2 DUP2 MSTORE PUSH1 0x20 ADD PUSH0 SWAP1 JUMPDEST DUP3 DUP3 LT ISZERO PUSH2 0x3BB JUMPI DUP4 DUP3 SWAP1 PUSH0 MSTORE PUSH1 0x20 PUSH0 KECCAK256 SWAP1 PUSH1 0x5 MUL ADD PUSH1 0x40 MLOAD DUP1 PUSH1 0xA0 ADD PUSH1 0x40 MSTORE SWAP1 DUP2 PUSH0 DUP3 ADD SLOAD DUP2 MSTORE PUSH1 0x20 ADD PUSH1 0x1 DUP3 ADD PUSH0 SWAP1 SLOAD SWAP1 PUSH2 0x100 EXP SWAP1 DIV PUSH20 0xFFFFFFFFFFFFFFFFFFFFFFFFFFFFFFFFFFFFFFFF AND PUSH20 0xFFFFFFFFFFFFFFFFFFFFFFFFFFFFFFFFFFFFFFFF AND PUSH20 0xFFFFFFFFFFFFFFFFFFFFFFFFFFFFFFFFFFFFFFFF AND DUP2 MSTORE PUSH1 0x20 ADD PUSH1 0x2 DUP3 ADD DUP1 SLOAD PUSH2 0x318 SWAP1 PUSH2 0xD98 JUMP JUMPDEST DUP1 PUSH1 0x1F ADD PUSH1 0x20 DUP1 SWAP2 DIV MUL PUSH1 0x20 ADD PUSH1 0x40 MLOAD SWAP1 DUP2 ADD PUSH1 0x40 MSTORE DUP1 SWAP3 SWAP2 SWAP1 DUP2 DUP2 MSTORE PUSH1 0x20 ADD DUP3 DUP1 SLOAD PUSH2 0x344 SWAP1 PUSH2 0xD98 JUMP JUMPDEST DUP1 ISZERO PUSH2 0x38F JUMPI DUP1 PUSH1 0x1F LT PUSH2 0x366 JUMPI PUSH2 0x100 DUP1 DUP4 SLOAD DIV MUL DUP4 MSTORE SWAP2 PUSH1 0x20 ADD SWAP2 PUSH2 0x38F JUMP JUMPDEST DUP3 ADD SWAP2 SWAP1 PUSH0 MSTORE PUSH1 0x20 PUSH0 KECCAK256 SWAP1 JUMPDEST DUP2 SLOAD DUP2 MSTORE SWAP1 PUSH1 0x1 ADD SWAP1 PUSH1 0x20 ADD DUP1 DUP4 GT PUSH2 0x372 JUMPI DUP3 SWAP1 SUB PUSH1 0x1F AND DUP3 ADD SWAP2 JUMPDEST POP POP POP POP POP DUP2 MSTORE PUSH1 0x20 ADD PUSH1 0x3 DUP3 ADD SLOAD DUP2 MSTORE PUSH1 0x20 ADD PUSH1 0x4 DUP3 ADD SLOAD DUP2 MSTORE POP POP DUP2 MSTORE PUSH1 0x20 ADD SWAP1 PUSH1 0x1 ADD SWAP1 PUSH2 0x289 JUMP JUMPDEST POP POP POP POP SWAP1 POP SWAP2 SWAP1 POP JUMP JUMPDEST PUSH1 0x1 PUSH0 DUP4 PUSH20 0xFFFFFFFFFFFFFFFFFFFFFFFFFFFFFFFFFFFFFFFF AND PUSH20 0xFFFFFFFFFFFFFFFFFFFFFFFFFFFFFFFFFFFFFFFF AND DUP2 MSTORE PUSH1 0x20 ADD SWAP1 DUP2 MSTORE PUSH1 0x20 ADD PUSH0 KECCAK256 DUP1 SLOAD SWAP1 POP DUP2 LT PUSH2 0x448 JUMPI PUSH1 0x40 MLOAD PUSH32 0x8C379A000000000000000000000000000000000000000000000000000000000 DUP2 MSTORE PUSH1 0x4 ADD PUSH2 0x43F SWAP1 PUSH2 0xE12 JUMP JUMPDEST PUSH1 0x40 MLOAD DUP1 SWAP2 SUB SWAP1 REVERT JUMPDEST PUSH1 0x1 PUSH0 DUP4 PUSH20 0xFFFFFFFFFFFFFFFFFFFFFFFFFFFFFFFFFFFFFFFF AND PUSH20 0xFFFFFFFFFFFFFFFFFFFFFFFFFFFFFFFFFFFFFFFF AND DUP2 MSTORE PUSH1 0x20 ADD SWAP1 DUP2 MSTORE PUSH1 0x20 ADD PUSH0 KECCAK256 DUP2 DUP2 SLOAD DUP2 LT PUSH2 0x497 JUMPI PUSH2 0x496 PUSH2 0xE30 JUMP JUMPDEST JUMPDEST SWAP1 PUSH0 MSTORE PUSH1 0x20 PUSH0 KECCAK256 SWAP1 PUSH1 0x5 MUL ADD PUSH1 0x4 ADD PUSH0 DUP2 SLOAD DUP1 SWAP3 SWAP2 SWAP1 PUSH2 0x4B6 SWAP1 PUSH2 0xE8A JUMP JUMPDEST SWAP2 SWAP1 POP SSTORE POP POP POP JUMP JUMPDEST PUSH0 PUSH0 SWAP1 SLOAD SWAP1 PUSH2 0x100 EXP SWAP1 DIV PUSH2 0xFFFF AND DUP2 JUMP JUMPDEST PUSH0 PUSH0 SWAP1 SLOAD SWAP1 PUSH2 0x100 EXP SWAP1 DIV PUSH2 0xFFFF AND PUSH2 0xFFFF AND DUP2 MLOAD GT ISZERO PUSH2 0x527 JUMPI PUSH1 0x40 MLOAD PUSH32 0x8C379A000000000000000000000000000000000000000000000000000000000 DUP2 MSTORE PUSH1 0x4 ADD PUSH2 0x51E SWAP1 PUSH2 0xF1B JUMP JUMPDEST PUSH1 0x40 MLOAD DUP1 SWAP2 SUB SWAP1 REVERT JUMPDEST PUSH0 PUSH1 0x1 PUSH0 CALLER PUSH20 0xFFFFFFFFFFFFFFFFFFFFFFFFFFFFFFFFFFFFFFFF AND PUSH20 0xFFFFFFFFFFFFFFFFFFFFFFFFFFFFFFFFFFFFFFFF AND DUP2 MSTORE PUSH1 0x20 ADD SWAP1 DUP2 MSTORE PUSH1 0x20 ADD PUSH0 KECCAK256 DUP1 SLOAD SWAP1 POP SWAP1 POP PUSH1 0x1 PUSH0 CALLER PUSH20 0xFFFFFFFFFFFFFFFFFFFFFFFFFFFFFFFFFFFFFFFF AND PUSH20 0xFFFFFFFFFFFFFFFFFFFFFFFFFFFFFFFFFFFFFFFF AND DUP2 MSTORE PUSH1 0x20 ADD SWAP1 DUP2 MSTORE PUSH1 0x20 ADD PUSH0 KECCAK256 PUSH1 0x40 MLOAD DUP1 PUSH1 0xA0 ADD PUSH1 0x40 MSTORE DUP1 DUP4 DUP2 MSTORE PUSH1 0x20 ADD CALLER PUSH20 0xFFFFFFFFFFFFFFFFFFFFFFFFFFFFFFFFFFFFFFFF AND DUP2 MSTORE PUSH1 0x20 ADD DUP5 DUP2 MSTORE PUSH1 0x20 ADD TIMESTAMP DUP2 MSTORE PUSH1 0x20 ADD PUSH0 DUP2 MSTORE POP SWAP1 DUP1 PUSH1 0x1 DUP2 SLOAD ADD DUP1 DUP3 SSTORE DUP1 SWAP2 POP POP PUSH1 0x1 SWAP1 SUB SWAP1 PUSH0 MSTORE PUSH1 0x20 PUSH0 KECCAK256 SWAP1 PUSH1 0x5 MUL ADD PUSH0 SWAP1 SWAP2 SWAP1 SWAP2 SWAP1 SWAP2 POP PUSH0 DUP3 ADD MLOAD DUP2 PUSH0 ADD SSTORE PUSH1 0x20 DUP3 ADD MLOAD DUP2 PUSH1 0x1 ADD PUSH0 PUSH2 0x100 EXP DUP2 SLOAD DUP2 PUSH20 0xFFFFFFFFFFFFFFFFFFFFFFFFFFFFFFFFFFFFFFFF MUL NOT AND SWAP1 DUP4 PUSH20 0xFFFFFFFFFFFFFFFFFFFFFFFFFFFFFFFFFFFFFFFF AND MUL OR SWAP1 SSTORE POP PUSH1 0x40 DUP3 ADD MLOAD DUP2 PUSH1 0x2 ADD SWAP1 DUP2 PUSH2 0x66E SWAP2 SWAP1 PUSH2 0x10EA JUMP JUMPDEST POP PUSH1 0x60 DUP3 ADD MLOAD DUP2 PUSH1 0x3 ADD SSTORE PUSH1 0x80 DUP3 ADD MLOAD DUP2 PUSH1 0x4 ADD SSTORE POP POP POP POP JUMP JUMPDEST PUSH1 0x1 PUSH0 DUP4 PUSH20 0xFFFFFFFFFFFFFFFFFFFFFFFFFFFFFFFFFFFFFFFF AND PUSH20 0xFFFFFFFFFFFFFFFFFFFFFFFFFFFFFFFFFFFFFFFF AND DUP2 MSTORE PUSH1 0x20 ADD SWAP1 DUP2 MSTORE PUSH1 0x20 ADD PUSH0 KECCAK256 DUP1 SLOAD SWAP1 POP DUP2 LT PUSH2 0x70B JUMPI PUSH1 0x40 MLOAD PUSH32 0x8C379A000000000000000000000000000000000000000000000000000000000 DUP2 MSTORE PUSH1 0x4 ADD PUSH2 0x702 SWAP1 PUSH2 0xE12 JUMP JUMPDEST PUSH1 0x40 MLOAD DUP1 SWAP2 SUB SWAP1 REVERT JUMPDEST PUSH0 PUSH1 0x1 PUSH0 DUP5 PUSH20 0xFFFFFFFFFFFFFFFFFFFFFFFFFFFFFFFFFFFFFFFF AND PUSH20 0xFFFFFFFFFFFFFFFFFFFFFFFFFFFFFFFFFFFFFFFF AND DUP2 MSTORE PUSH1 0x20 ADD SWAP1 DUP2 MSTORE PUSH1 0x20 ADD PUSH0 KECCAK256 DUP3 DUP2 SLOAD DUP2 LT PUSH2 0x75B JUMPI PUSH2 0x75A PUSH2 0xE30 JUMP JUMPDEST JUMPDEST SWAP1 PUSH0 MSTORE PUSH1 0x20 PUSH0 KECCAK256 SWAP1 PUSH1 0x5 MUL ADD PUSH1 0x4 ADD SLOAD GT PUSH2 0x7AB JUMPI PUSH1 0x40 MLOAD PUSH32 0x8C379A000000000000000000000000000000000000000000000000000000000 DUP2 MSTORE PUSH1 0x4 ADD PUSH2 0x7A2 SWAP1 PUSH2 0x1203 JUMP JUMPDEST PUSH1 0x40 MLOAD DUP1 SWAP2 SUB SWAP1 REVERT JUMPDEST PUSH1 0x1 PUSH0 DUP4 PUSH20 0xFFFFFFFFFFFFFFFFFFFFFFFFFFFFFFFFFFFFFFFF AND PUSH20 0xFFFFFFFFFFFFFFFFFFFFFFFFFFFFFFFFFFFFFFFF AND DUP2 MSTORE PUSH1 0x20 ADD SWAP1 DUP2 MSTORE PUSH1 0x20 ADD PUSH0 KECCAK256 DUP2 DUP2 SLOAD DUP2 LT PUSH2 0x7FA JUMPI PUSH2 0x7F9 PUSH2 0xE30 JUMP JUMPDEST JUMPDEST SWAP1 PUSH0 MSTORE PUSH1 0x20 PUSH0 KECCAK256 SWAP1 PUSH1 0x5 MUL ADD PUSH1 0x4 ADD PUSH0 DUP2 SLOAD DUP1 SWAP3 SWAP2 SWAP1 PUSH2 0x819 SWAP1 PUSH2 0x1221 JUMP JUMPDEST SWAP2 SWAP1 POP SSTORE POP POP POP JUMP JUMPDEST PUSH0 PUSH1 0x40 MLOAD SWAP1 POP SWAP1 JUMP JUMPDEST PUSH0 PUSH0 REVERT JUMPDEST PUSH0 PUSH0 REVERT JUMPDEST PUSH0 PUSH20 0xFFFFFFFFFFFFFFFFFFFFFFFFFFFFFFFFFFFFFFFF DUP3 AND SWAP1 POP SWAP2 SWAP1 POP JUMP JUMPDEST PUSH0 PUSH2 0x85C DUP3 PUSH2 0x833 JUMP JUMPDEST SWAP1 POP SWAP2 SWAP1 POP JUMP JUMPDEST PUSH2 0x86C DUP2 PUSH2 0x852 JUMP JUMPDEST DUP2 EQ PUSH2 0x876 JUMPI PUSH0 PUSH0 REVERT JUMPDEST POP JUMP JUMPDEST PUSH0 DUP2 CALLDATALOAD SWAP1 POP PUSH2 0x887 DUP2 PUSH2 0x863 JUMP JUMPDEST SWAP3 SWAP2 POP POP JUMP JUMPDEST PUSH0 DUP2 SWAP1 POP SWAP2 SWAP1 POP JUMP JUMPDEST PUSH2 0x89F DUP2 PUSH2 0x88D JUMP JUMPDEST DUP2 EQ PUSH2 0x8A9 JUMPI PUSH0 PUSH0 REVERT JUMPDEST POP JUMP JUMPDEST PUSH0 DUP2 CALLDATALOAD SWAP1 POP PUSH2 0x8BA DUP2 PUSH2 0x896 JUMP JUMPDEST SWAP3 SWAP2 POP POP JUMP JUMPDEST PUSH0 PUSH0 PUSH1 0x40 DUP4 DUP6 SUB SLT ISZERO PUSH2 0x8D6 JUMPI PUSH2 0x8D5 PUSH2 0x82B JUMP JUMPDEST JUMPDEST PUSH0 PUSH2 0x8E3 DUP6 DUP3 DUP7 ADD PUSH2 0x879 JUMP JUMPDEST SWAP3 POP POP PUSH1 0x20 PUSH2 0x8F4 DUP6 DUP3 DUP7 ADD PUSH2 0x8AC JUMP JUMPDEST SWAP2 POP POP SWAP3 POP SWAP3 SWAP1 POP JUMP JUMPDEST PUSH2 0x907 DUP2 PUSH2 0x88D JUMP JUMPDEST DUP3 MSTORE POP POP JUMP JUMPDEST PUSH2 0x916 DUP2 PUSH2 0x852 JUMP JUMPDEST DUP3 MSTORE POP POP JUMP JUMPDEST PUSH0 DUP2 MLOAD SWAP1 POP SWAP2 SWAP1 POP JUMP JUMPDEST PUSH0 DUP3 DUP3 MSTORE PUSH1 0x20 DUP3 ADD SWAP1 POP SWAP3 SWAP2 POP POP JUMP JUMPDEST DUP3 DUP2 DUP4 MCOPY PUSH0 DUP4 DUP4 ADD MSTORE POP POP POP JUMP JUMPDEST PUSH0 PUSH1 0x1F NOT PUSH1 0x1F DUP4 ADD AND SWAP1 POP SWAP2 SWAP1 POP JUMP JUMPDEST PUSH0 PUSH2 0x95E DUP3 PUSH2 0x91C JUMP JUMPDEST PUSH2 0x968 DUP2 DUP6 PUSH2 0x926 JUMP JUMPDEST SWAP4 POP PUSH2 0x978 DUP2 DUP6 PUSH1 0x20 DUP7 ADD PUSH2 0x936 JUMP JUMPDEST PUSH2 0x981 DUP2 PUSH2 0x944 JUMP JUMPDEST DUP5 ADD SWAP2 POP POP SWAP3 SWAP2 POP POP JUMP JUMPDEST PUSH0 PUSH1 0xA0 DUP3 ADD SWAP1 POP PUSH2 0x99F PUSH0 DUP4 ADD DUP9 PUSH2 0x8FE JUMP JUMPDEST PUSH2 0x9AC PUSH1 0x20 DUP4 ADD DUP8 PUSH2 0x90D JUMP JUMPDEST DUP2 DUP2 SUB PUSH1 0x40 DUP4 ADD MSTORE PUSH2 0x9BE DUP2 DUP7 PUSH2 0x954 JUMP JUMPDEST SWAP1 POP PUSH2 0x9CD PUSH1 0x60 DUP4 ADD DUP6 PUSH2 0x8FE JUMP JUMPDEST PUSH2 0x9DA PUSH1 0x80 DUP4 ADD DUP5 PUSH2 0x8FE JUMP JUMPDEST SWAP7 SWAP6 POP POP POP POP POP POP JUMP JUMPDEST PUSH0 PUSH1 0x20 DUP3 DUP5 SUB SLT ISZERO PUSH2 0x9F9 JUMPI PUSH2 0x9F8 PUSH2 0x82B JUMP JUMPDEST JUMPDEST PUSH0 PUSH2 0xA06 DUP5 DUP3 DUP6 ADD PUSH2 0x879 JUMP JUMPDEST SWAP2 POP POP SWAP3 SWAP2 POP POP JUMP JUMPDEST PUSH0 DUP2 MLOAD SWAP1 POP SWAP2 SWAP1 POP JUMP JUMPDEST PUSH0 DUP3 DUP3 MSTORE PUSH1 0x20 DUP3 ADD SWAP1 POP SWAP3 SWAP2 POP POP JUMP JUMPDEST PUSH0 DUP2 SWAP1 POP PUSH1 0x20 DUP3 ADD SWAP1 POP SWAP2 SWAP1 POP JUMP JUMPDEST PUSH2 0xA41 DUP2 PUSH2 0x88D JUMP JUMPDEST DUP3 MSTORE POP POP JUMP JUMPDEST PUSH2 0xA50 DUP2 PUSH2 0x852 JUMP JUMPDEST DUP3 MSTORE POP POP JUMP JUMPDEST PUSH0 DUP3 DUP3 MSTORE PUSH1 0x20 DUP3 ADD SWAP1 POP SWAP3 SWAP2 POP POP JUMP JUMPDEST PUSH0 PUSH2 0xA70 DUP3 PUSH2 0x91C JUMP JUMPDEST PUSH2 0xA7A DUP2 DUP6 PUSH2 0xA56 JUMP JUMPDEST SWAP4 POP PUSH2 0xA8A DUP2 DUP6 PUSH1 0x20 DUP7 ADD PUSH2 0x936 JUMP JUMPDEST PUSH2 0xA93 DUP2 PUSH2 0x944 JUMP JUMPDEST DUP5 ADD SWAP2 POP POP SWAP3 SWAP2 POP POP JUMP JUMPDEST PUSH0 PUSH1 0xA0 DUP4 ADD PUSH0 DUP4 ADD MLOAD PUSH2 0xAB3 PUSH0 DUP7 ADD DUP3 PUSH2 0xA38 JUMP JUMPDEST POP PUSH1 0x20 DUP4 ADD MLOAD PUSH2 0xAC6 PUSH1 0x20 DUP7 ADD DUP3 PUSH2 0xA47 JUMP JUMPDEST POP PUSH1 0x40 DUP4 ADD MLOAD DUP5 DUP3 SUB PUSH1 0x40 DUP7 ADD MSTORE PUSH2 0xADE DUP3 DUP3 PUSH2 0xA66 JUMP JUMPDEST SWAP2 POP POP PUSH1 0x60 DUP4 ADD MLOAD PUSH2 0xAF3 PUSH1 0x60 DUP7 ADD DUP3 PUSH2 0xA38 JUMP JUMPDEST POP PUSH1 0x80 DUP4 ADD MLOAD PUSH2 0xB06 PUSH1 0x80 DUP7 ADD DUP3 PUSH2 0xA38 JUMP JUMPDEST POP DUP1 SWAP2 POP POP SWAP3 SWAP2 POP POP JUMP JUMPDEST PUSH0 PUSH2 0xB1C DUP4 DUP4 PUSH2 0xA9E JUMP JUMPDEST SWAP1 POP SWAP3 SWAP2 POP POP JUMP JUMPDEST PUSH0 PUSH1 0x20 DUP3 ADD SWAP1 POP SWAP2 SWAP1 POP JUMP JUMPDEST PUSH0 PUSH2 0xB3A DUP3 PUSH2 0xA0F JUMP JUMPDEST PUSH2 0xB44 DUP2 DUP6 PUSH2 0xA19 JUMP JUMPDEST SWAP4 POP DUP4 PUSH1 0x20 DUP3 MUL DUP6 ADD PUSH2 0xB56 DUP6 PUSH2 0xA29 JUMP JUMPDEST DUP1 PUSH0 JUMPDEST DUP6 DUP2 LT ISZERO PUSH2 0xB91 JUMPI DUP5 DUP5 SUB DUP10 MSTORE DUP2 MLOAD PUSH2 0xB72 DUP6 DUP3 PUSH2 0xB11 JUMP JUMPDEST SWAP5 POP PUSH2 0xB7D DUP4 PUSH2 0xB24 JUMP JUMPDEST SWAP3 POP PUSH1 0x20 DUP11 ADD SWAP10 POP POP PUSH1 0x1 DUP2 ADD SWAP1 POP PUSH2 0xB59 JUMP JUMPDEST POP DUP3 SWAP8 POP DUP8 SWAP6 POP POP POP POP POP POP SWAP3 SWAP2 POP POP JUMP JUMPDEST PUSH0 PUSH1 0x20 DUP3 ADD SWAP1 POP DUP2 DUP2 SUB PUSH0 DUP4 ADD MSTORE PUSH2 0xBBB DUP2 DUP5 PUSH2 0xB30 JUMP JUMPDEST SWAP1 POP SWAP3 SWAP2 POP POP JUMP JUMPDEST PUSH0 PUSH2 0xFFFF DUP3 AND SWAP1 POP SWAP2 SWAP1 POP JUMP JUMPDEST PUSH2 0xBD9 DUP2 PUSH2 0xBC3 JUMP JUMPDEST DUP3 MSTORE POP POP JUMP JUMPDEST PUSH0 PUSH1 0x20 DUP3 ADD SWAP1 POP PUSH2 0xBF2 PUSH0 DUP4 ADD DUP5 PUSH2 0xBD0 JUMP JUMPDEST SWAP3 SWAP2 POP POP JUMP JUMPDEST PUSH0 PUSH0 REVERT JUMPDEST PUSH0 PUSH0 REVERT JUMPDEST PUSH32 0x4E487B7100000000000000000000000000000000000000000000000000000000 PUSH0 MSTORE PUSH1 0x41 PUSH1 0x4 MSTORE PUSH1 0x24 PUSH0 REVERT JUMPDEST PUSH2 0xC36 DUP3 PUSH2 0x944 JUMP JUMPDEST DUP2 ADD DUP2 DUP2 LT PUSH8 0xFFFFFFFFFFFFFFFF DUP3 GT OR ISZERO PUSH2 0xC55 JUMPI PUSH2 0xC54 PUSH2 0xC00 JUMP JUMPDEST JUMPDEST DUP1 PUSH1 0x40 MSTORE POP POP POP JUMP JUMPDEST PUSH0 PUSH2 0xC67 PUSH2 0x822 JUMP JUMPDEST SWAP1 POP PUSH2 0xC73 DUP3 DUP3 PUSH2 0xC2D JUMP JUMPDEST SWAP2 SWAP1 POP JUMP JUMPDEST PUSH0 PUSH8 0xFFFFFFFFFFFFFFFF DUP3 GT ISZERO PUSH2 0xC92 JUMPI PUSH2 0xC91 PUSH2 0xC00 JUMP JUMPDEST JUMPDEST PUSH2 0xC9B DUP3 PUSH2 0x944 JUMP JUMPDEST SWAP1 POP PUSH1 0x20 DUP2 ADD SWAP1 POP SWAP2 SWAP1 POP JUMP JUMPDEST DUP3 DUP2 DUP4 CALLDATACOPY PUSH0 DUP4 DUP4 ADD MSTORE POP POP POP JUMP JUMPDEST PUSH0 PUSH2 0xCC8 PUSH2 0xCC3 DUP5 PUSH2 0xC78 JUMP JUMPDEST PUSH2 0xC5E JUMP JUMPDEST SWAP1 POP DUP3 DUP2 MSTORE PUSH1 0x20 DUP2 ADD DUP5 DUP5 DUP5 ADD GT ISZERO PUSH2 0xCE4 JUMPI PUSH2 0xCE3 PUSH2 0xBFC JUMP JUMPDEST JUMPDEST PUSH2 0xCEF DUP5 DUP3 DUP6 PUSH2 0xCA8 JUMP JUMPDEST POP SWAP4 SWAP3 POP POP POP JUMP JUMPDEST PUSH0 DUP3 PUSH1 0x1F DUP4 ADD SLT PUSH2 0xD0B JUMPI PUSH2 0xD0A PUSH2 0xBF8 JUMP JUMPDEST JUMPDEST DUP2 CALLDATALOAD PUSH2 0xD1B DUP5 DUP3 PUSH1 0x20 DUP7 ADD PUSH2 0xCB6 JUMP JUMPDEST SWAP2 POP POP SWAP3 SWAP2 POP POP JUMP JUMPDEST PUSH0 PUSH1 0x20 DUP3 DUP5 SUB SLT ISZERO PUSH2 0xD39 JUMPI PUSH2 0xD38 PUSH2 0x82B JUMP JUMPDEST JUMPDEST PUSH0 DUP3 ADD CALLDATALOAD PUSH8 0xFFFFFFFFFFFFFFFF DUP2 GT ISZERO PUSH2 0xD56 JUMPI PUSH2 0xD55 PUSH2 0x82F JUMP JUMPDEST JUMPDEST PUSH2 0xD62 DUP5 DUP3 DUP6 ADD PUSH2 0xCF7 JUMP JUMPDEST SWAP2 POP POP SWAP3 SWAP2 POP POP JUMP JUMPDEST PUSH32 0x4E487B7100000000000000000000000000000000000000000000000000000000 PUSH0 MSTORE PUSH1 0x22 PUSH1 0x4 MSTORE PUSH1 0x24 PUSH0 REVERT JUMPDEST PUSH0 PUSH1 0x2 DUP3 DIV SWAP1 POP PUSH1 0x1 DUP3 AND DUP1 PUSH2 0xDAF JUMPI PUSH1 0x7F DUP3 AND SWAP2 POP JUMPDEST PUSH1 0x20 DUP3 LT DUP2 SUB PUSH2 0xDC2 JUMPI PUSH2 0xDC1 PUSH2 0xD6B JUMP JUMPDEST JUMPDEST POP SWAP2 SWAP1 POP JUMP JUMPDEST PUSH32 0x547765657420646F6573206E6F74206578697374000000000000000000000000 PUSH0 DUP3 ADD MSTORE POP JUMP JUMPDEST PUSH0 PUSH2 0xDFC PUSH1 0x14 DUP4 PUSH2 0x926 JUMP JUMPDEST SWAP2 POP PUSH2 0xE07 DUP3 PUSH2 0xDC8 JUMP JUMPDEST PUSH1 0x20 DUP3 ADD SWAP1 POP SWAP2 SWAP1 POP JUMP JUMPDEST PUSH0 PUSH1 0x20 DUP3 ADD SWAP1 POP DUP2 DUP2 SUB PUSH0 DUP4 ADD MSTORE PUSH2 0xE29 DUP2 PUSH2 0xDF0 JUMP JUMPDEST SWAP1 POP SWAP2 SWAP1 POP JUMP JUMPDEST PUSH32 0x4E487B7100000000000000000000000000000000000000000000000000000000 PUSH0 MSTORE PUSH1 0x32 PUSH1 0x4 MSTORE PUSH1 0x24 PUSH0 REVERT JUMPDEST PUSH32 0x4E487B7100000000000000000000000000000000000000000000000000000000 PUSH0 MSTORE PUSH1 0x11 PUSH1 0x4 MSTORE PUSH1 0x24 PUSH0 REVERT JUMPDEST PUSH0 PUSH2 0xE94 DUP3 PUSH2 0x88D JUMP JUMPDEST SWAP2 POP PUSH32 0xFFFFFFFFFFFFFFFFFFFFFFFFFFFFFFFFFFFFFFFFFFFFFFFFFFFFFFFFFFFFFFFF DUP3 SUB PUSH2 0xEC6 JUMPI PUSH2 0xEC5 PUSH2 0xE5D JUMP JUMPDEST JUMPDEST PUSH1 0x1 DUP3 ADD SWAP1 POP SWAP2 SWAP1 POP JUMP JUMPDEST PUSH32 0x547765657420746F6F206C6F6E67210000000000000000000000000000000000 PUSH0 DUP3 ADD MSTORE POP JUMP JUMPDEST PUSH0 PUSH2 0xF05 PUSH1 0xF DUP4 PUSH2 0x926 JUMP JUMPDEST SWAP2 POP PUSH2 0xF10 DUP3 PUSH2 0xED1 JUMP JUMPDEST PUSH1 0x20 DUP3 ADD SWAP1 POP SWAP2 SWAP1 POP JUMP JUMPDEST PUSH0 PUSH1 0x20 DUP3 ADD SWAP1 POP DUP2 DUP2 SUB PUSH0 DUP4 ADD MSTORE PUSH2 0xF32 DUP2 PUSH2 0xEF9 JUMP JUMPDEST SWAP1 POP SWAP2 SWAP1 POP JUMP JUMPDEST PUSH0 DUP2 SWAP1 POP DUP2 PUSH0 MSTORE PUSH1 0x20 PUSH0 KECCAK256 SWAP1 POP SWAP2 SWAP1 POP JUMP JUMPDEST PUSH0 PUSH1 0x20 PUSH1 0x1F DUP4 ADD DIV SWAP1 POP SWAP2 SWAP1 POP JUMP JUMPDEST PUSH0 DUP3 DUP3 SHL SWAP1 POP SWAP3 SWAP2 POP POP JUMP JUMPDEST PUSH0 PUSH1 0x8 DUP4 MUL PUSH2 0xF95 PUSH32 0xFFFFFFFFFFFFFFFFFFFFFFFFFFFFFFFFFFFFFFFFFFFFFFFFFFFFFFFFFFFFFFFF DUP3 PUSH2 0xF5A JUMP JUMPDEST PUSH2 0xF9F DUP7 DUP4 PUSH2 0xF5A JUMP JUMPDEST SWAP6 POP DUP1 NOT DUP5 AND SWAP4 POP DUP1 DUP7 AND DUP5 OR SWAP3 POP POP POP SWAP4 SWAP3 POP POP POP JUMP JUMPDEST PUSH0 DUP2 SWAP1 POP SWAP2 SWAP1 POP JUMP JUMPDEST PUSH0 PUSH2 0xFDA PUSH2 0xFD5 PUSH2 0xFD0 DUP5 PUSH2 0x88D JUMP JUMPDEST PUSH2 0xFB7 JUMP JUMPDEST PUSH2 0x88D JUMP JUMPDEST SWAP1 POP SWAP2 SWAP1 POP JUMP JUMPDEST PUSH0 DUP2 SWAP1 POP SWAP2 SWAP1 POP JUMP JUMPDEST PUSH2 0xFF3 DUP4 PUSH2 0xFC0 JUMP JUMPDEST PUSH2 0x1007 PUSH2 0xFFF DUP3 PUSH2 0xFE1 JUMP JUMPDEST DUP5 DUP5 SLOAD PUSH2 0xF66 JUMP JUMPDEST DUP3 SSTORE POP POP POP POP JUMP JUMPDEST PUSH0 PUSH0 SWAP1 POP SWAP1 JUMP JUMPDEST PUSH2 0x101E PUSH2 0x100F JUMP JUMPDEST PUSH2 0x1029 DUP2 DUP5 DUP5 PUSH2 0xFEA JUMP JUMPDEST POP POP POP JUMP JUMPDEST PUSH0 JUMPDEST DUP3 DUP2 LT ISZERO PUSH2 0x104F JUMPI PUSH2 0x1044 PUSH0 DUP3 DUP5 ADD PUSH2 0x1016 JUMP JUMPDEST PUSH1 0x1 DUP2 ADD SWAP1 POP PUSH2 0x1030 JUMP JUMPDEST POP POP POP JUMP JUMPDEST PUSH1 0x1F DUP3 GT ISZERO PUSH2 0x10A2 JUMPI DUP3 DUP3 GT ISZERO PUSH2 0x10A1 JUMPI PUSH2 0x106E DUP2 PUSH2 0xF39 JUMP JUMPDEST PUSH2 0x1077 DUP4 PUSH2 0xF4B JUMP JUMPDEST PUSH2 0x1080 DUP6 PUSH2 0xF4B JUMP JUMPDEST PUSH1 0x20 DUP7 LT ISZERO PUSH2 0x108D JUMPI PUSH0 SWAP1 POP JUMPDEST DUP1 DUP4 ADD PUSH2 0x109C DUP3 DUP5 SUB DUP3 PUSH2 0x102E JUMP JUMPDEST POP POP POP POP JUMPDEST JUMPDEST POP POP POP JUMP JUMPDEST PUSH0 DUP3 DUP3 SHR SWAP1 POP SWAP3 SWAP2 POP POP JUMP JUMPDEST PUSH0 PUSH2 0x10C2 PUSH0 NOT DUP5 PUSH1 0x8 MUL PUSH2 0x10A7 JUMP JUMPDEST NOT DUP1 DUP4 AND SWAP2 POP POP SWAP3 SWAP2 POP POP JUMP JUMPDEST PUSH0 PUSH2 0x10DA DUP4 DUP4 PUSH2 0x10B3 JUMP JUMPDEST SWAP2 POP DUP3 PUSH1 0x2 MUL DUP3 OR SWAP1 POP SWAP3 SWAP2 POP POP JUMP JUMPDEST PUSH2 0x10F3 DUP3 PUSH2 0x91C JUMP JUMPDEST PUSH8 0xFFFFFFFFFFFFFFFF DUP2 GT ISZERO PUSH2 0x110C JUMPI PUSH2 0x110B PUSH2 0xC00 JUMP JUMPDEST JUMPDEST PUSH2 0x1116 DUP3 SLOAD PUSH2 0xD98 JUMP JUMPDEST PUSH2 0x1121 DUP3 DUP3 DUP6 PUSH2 0x1054 JUMP JUMPDEST PUSH0 PUSH1 0x20 SWAP1 POP PUSH1 0x1F DUP4 GT PUSH1 0x1 DUP2 EQ PUSH2 0x1152 JUMPI PUSH0 DUP5 ISZERO PUSH2 0x1140 JUMPI DUP3 DUP8 ADD MLOAD SWAP1 POP JUMPDEST PUSH2 0x114A DUP6 DUP3 PUSH2 0x10CF JUMP JUMPDEST DUP7 SSTORE POP PUSH2 0x11B1 JUMP JUMPDEST PUSH1 0x1F NOT DUP5 AND PUSH2 0x1160 DUP7 PUSH2 0xF39 JUMP JUMPDEST PUSH0 JUMPDEST DUP3 DUP2 LT ISZERO PUSH2 0x1187 JUMPI DUP5 DUP10 ADD MLOAD DUP3 SSTORE PUSH1 0x1 DUP3 ADD SWAP2 POP PUSH1 0x20 DUP6 ADD SWAP5 POP PUSH1 0x20 DUP2 ADD SWAP1 POP PUSH2 0x1162 JUMP JUMPDEST DUP7 DUP4 LT ISZERO PUSH2 0x11A4 JUMPI DUP5 DUP10 ADD MLOAD PUSH2 0x11A0 PUSH1 0x1F DUP10 AND DUP3 PUSH2 0x10B3 JUMP JUMPDEST DUP4 SSTORE POP JUMPDEST PUSH1 0x1 PUSH1 0x2 DUP9 MUL ADD DUP9 SSTORE POP POP POP JUMPDEST POP POP POP POP POP POP JUMP JUMPDEST PUSH32 0x4E6F206C696B657320746F2072656D6F76650000000000000000000000000000 PUSH0 DUP3 ADD MSTORE POP JUMP JUMPDEST PUSH0 PUSH2 0x11ED PUSH1 0x12 DUP4 PUSH2 0x926 JUMP JUMPDEST SWAP2 POP PUSH2 0x11F8 DUP3 PUSH2 0x11B9 JUMP JUMPDEST PUSH1 0x20 DUP3 ADD SWAP1 POP SWAP2 SWAP1 POP JUMP JUMPDEST PUSH0 PUSH1 0x20 DUP3 ADD SWAP1 POP DUP2 DUP2 SUB PUSH0 DUP4 ADD MSTORE PUSH2 0x121A DUP2 PUSH2 0x11E1 JUMP JUMPDEST SWAP1 POP SWAP2 SWAP1 POP JUMP JUMPDEST PUSH0 PUSH2 0x122B DUP3 PUSH2 0x88D JUMP JUMPDEST SWAP2 POP PUSH0 DUP3 SUB PUSH2 0x123D JUMPI PUSH2 0x123C PUSH2 0xE5D JUMP JUMPDEST JUMPDEST PUSH1 0x1 DUP3 SUB SWAP1 POP SWAP2 SWAP1 POP JUMP INVALID LOG2 PUSH5 0x6970667358 0x22 SLT KECCAK256 DUP15 NOT 0xAB 0xAC MLOAD SWAP3 NOT 0x29 GASLIMIT DUP8 PUSH20 0x9F1C48B2630F94E09570B1615BF0E1A6184B5A0F MSTORE8 PUSH5 0x736F6C6343 STOP ADDMOD 0x22 STOP CALLER "
				},
				"gasEstimates": {
					"creation": {
						"codeDepositCost": "946800",
						"executionCost": "25244",
						"totalCost": "972044"
					},
					"external": {
						"MAX_TWEET_LENGTH()": "2509",
						"createTweet(string)": "infinite",
						"dislikeTweet(address,uint256)": "infinite",
						"getAllTweets(address)": "infinite",
						"likeTweet(address,uint256)": "infinite",
						"tweets(address,uint256)": "infinite"
					}
				},
				"methodIdentifiers": {
					"MAX_TWEET_LENGTH()": "6eb10797",
					"createTweet(string)": "7c9cd2bc",
					"dislikeTweet(address,uint256)": "ae775e95",
					"getAllTweets(address)": "12e7ee1c",
					"likeTweet(address,uint256)": "63378216",
					"tweets(address,uint256)": "05a1b4a9"
				}
			},
			"storageLayout": {
				"storage": [
					{
						"astId": 4,
						"contract": "Twitter_Dapp_codesandbox.sol:Twitter",
						"label": "MAX_TWEET_LENGTH",
						"offset": 0,
						"slot": "0",
						"type": "t_uint16"
					},
					{
						"astId": 21,
						"contract": "Twitter_Dapp_codesandbox.sol:Twitter",
						"label": "tweets",
						"offset": 0,
						"slot": "1",
						"type": "t_mapping(t_address,t_array(t_struct(Tweet)15_storage)dyn_storage)"
					}
				],
				"types": {
					"t_address": {
						"encoding": "inplace",
						"label": "address",
						"numberOfBytes": "20"
					},
					"t_array(t_struct(Tweet)15_storage)dyn_storage": {
						"base": "t_struct(Tweet)15_storage",
						"encoding": "dynamic_array",
						"label": "struct Twitter.Tweet[]",
						"numberOfBytes": "32"
					},
					"t_mapping(t_address,t_array(t_struct(Tweet)15_storage)dyn_storage)": {
						"encoding": "mapping",
						"key": "t_address",
						"label": "mapping(address => struct Twitter.Tweet[])",
						"numberOfBytes": "32",
						"value": "t_array(t_struct(Tweet)15_storage)dyn_storage"
					},
					"t_string_storage": {
						"encoding": "bytes",
						"label": "string",
						"numberOfBytes": "32"
					},
					"t_struct(Tweet)15_storage": {
						"encoding": "inplace",
						"label": "struct Twitter.Tweet",
						"members": [
							{
								"astId": 6,
								"contract": "Twitter_Dapp_codesandbox.sol:Twitter",
								"label": "id",
								"offset": 0,
								"slot": "0",
								"type": "t_uint256"
							},
							{
								"astId": 8,
								"contract": "Twitter_Dapp_codesandbox.sol:Twitter",
								"label": "author",
								"offset": 0,
								"slot": "1",
								"type": "t_address"
							},
							{
								"astId": 10,
								"contract": "Twitter_Dapp_codesandbox.sol:Twitter",
								"label": "content",
								"offset": 0,
								"slot": "2",
								"type": "t_string_storage"
							},
							{
								"astId": 12,
								"contract": "Twitter_Dapp_codesandbox.sol:Twitter",
								"label": "timestamp",
								"offset": 0,
								"slot": "3",
								"type": "t_uint256"
							},
							{
								"astId": 14,
								"contract": "Twitter_Dapp_codesandbox.sol:Twitter",
								"label": "likes",
								"offset": 0,
								"slot": "4",
								"type": "t_uint256"
							}
						],
						"numberOfBytes": "160"
					},
					"t_uint16": {
						"encoding": "inplace",
						"label": "uint16",
						"numberOfBytes": "2"
					},
					"t_uint256": {
						"encoding": "inplace",
						"label": "uint256",
						"numberOfBytes": "32"
					}
				}
			},
			"userdoc": {
				"kind": "user",
				"methods": {},
				"version": 1
			}
		}
	}
}