{
	"Twitter.sol": {
		"Twitter": {
			"abi": [
				{
					"inputs": [],
					"stateMutability": "nonpayable",
					"type": "constructor"
				},
				{
					"inputs": [],
					"name": "MAX_TWEET_LENGTH",
					"outputs": [
						{
							"internalType": "uint16",
							"name": "",
							"type": "uint16"
						}
					],
					"stateMutability": "view",
					"type": "function"
				},
				{
					"inputs": [
						{
							"internalType": "uint16",
							"name": "newTweetLength",
							"type": "uint16"
						}
					],
					"name": "changeTweetLength",
					"outputs": [],
					"stateMutability": "nonpayable",
					"type": "function"
				},
				{
					"inputs": [
						{
							"internalType": "string",
							"name": "_tweet",
							"type": "string"
						}
					],
					"name": "createTweet",
					"outputs": [],
					"stateMutability": "nonpayable",
					"type": "function"
				},
				{
					"inputs": [
						{
							"internalType": "address",
							"name": "_owner",
							"type": "address"
						}
					],
					"name": "getAllTweets",
					"outputs": [
						{
							"components": [
								{
									"internalType": "address",
									"name": "author",
									"type": "address"
								},
								{
									"internalType": "string",
									"name": "content",
									"type": "string"
								},
								{
									"internalType": "uint256",
									"name": "timestamp",
									"type": "uint256"
								},
								{
									"internalType": "uint256",
									"name": "likes",
									"type": "uint256"
								}
							],
							"internalType": "struct Twitter.Tweet[]",
							"name": "",
							"type": "tuple[]"
						}
					],
					"stateMutability": "view",
					"type": "function"
				},
				{
					"inputs": [
						{
							"internalType": "uint256",
							"name": "_i",
							"type": "uint256"
						}
					],
					"name": "getTweet",
					"outputs": [
						{
							"components": [
								{
									"internalType": "address",
									"name": "author",
									"type": "address"
								},
								{
									"internalType": "string",
									"name": "content",
									"type": "string"
								},
								{
									"internalType": "uint256",
									"name": "timestamp",
									"type": "uint256"
								},
								{
									"internalType": "uint256",
									"name": "likes",
									"type": "uint256"
								}
							],
							"internalType": "struct Twitter.Tweet",
							"name": "",
							"type": "tuple"
						}
					],
					"stateMutability": "view",
					"type": "function"
				},
				{
					"inputs": [],
					"name": "owner",
					"outputs": [
						{
							"internalType": "address",
							"name": "",
							"type": "address"
						}
					],
					"stateMutability": "view",
					"type": "function"
				},
				{
					"inputs": [
						{
							"internalType": "address",
							"name": "",
							"type": "address"
						},
						{
							"internalType": "uint256",
							"name": "",
							"type": "uint256"
						}
					],
					"name": "tweets",
					"outputs": [
						{
							"internalType": "address",
							"name": "author",
							"type": "address"
						},
						{
							"internalType": "string",
							"name": "content",
							"type": "string"
						},
						{
							"internalType": "uint256",
							"name": "timestamp",
							"type": "uint256"
						},
						{
							"internalType": "uint256",
							"name": "likes",
							"type": "uint256"
						}
					],
					"stateMutability": "view",
					"type": "function"
				}
			],
			"devdoc": {
				"kind": "dev",
				"methods": {},
				"version": 1
			},
			"evm": {
				"assembly": "    /* \"Twitter.sol\":58:1330  contract Twitter {... */\n  mstore(0x40, 0x80)\n    /* \"Twitter.sol\":117:120  280 */\n  0x0118\n    /* \"Twitter.sol\":84:120  uint16 public MAX_TWEET_LENGTH = 280 */\n  0x00\n  dup1\n  0x0100\n  exp\n  dup2\n  sload\n  dup2\n  0xffff\n  mul\n  not\n  and\n  swap1\n  dup4\n  0xffff\n  and\n  mul\n  or\n  swap1\n  sstore\n  pop\n    /* \"Twitter.sol\":411:462  constructor() {... */\n  callvalue\n  dup1\n  iszero\n  tag_1\n  jumpi\n  0x00\n  dup1\n  revert\ntag_1:\n  pop\n    /* \"Twitter.sol\":444:454  msg.sender */\n  caller\n    /* \"Twitter.sol\":436:441  owner */\n  0x02\n  0x00\n    /* \"Twitter.sol\":436:454  owner = msg.sender */\n  0x0100\n  exp\n  dup2\n  sload\n  dup2\n  0xffffffffffffffffffffffffffffffffffffffff\n  mul\n  not\n  and\n  swap1\n  dup4\n  0xffffffffffffffffffffffffffffffffffffffff\n  and\n  mul\n  or\n  swap1\n  sstore\n  pop\n    /* \"Twitter.sol\":58:1330  contract Twitter {... */\n  dataSize(sub_0)\n  dup1\n  dataOffset(sub_0)\n  0x00\n  codecopy\n  0x00\n  return\nstop\n\nsub_0: assembly {\n        /* \"Twitter.sol\":58:1330  contract Twitter {... */\n      mstore(0x40, 0x80)\n      callvalue\n      dup1\n      iszero\n      tag_1\n      jumpi\n      0x00\n      dup1\n      revert\n    tag_1:\n      pop\n      jumpi(tag_2, lt(calldatasize, 0x04))\n      shr(0xe0, calldataload(0x00))\n      dup1\n      0x6eb10797\n      gt\n      tag_10\n      jumpi\n      dup1\n      0x6eb10797\n      eq\n      tag_6\n      jumpi\n      dup1\n      0x7c9cd2bc\n      eq\n      tag_7\n      jumpi\n      dup1\n      0x8da5cb5b\n      eq\n      tag_8\n      jumpi\n      dup1\n      0xc3ad5ecb\n      eq\n      tag_9\n      jumpi\n      jump(tag_2)\n    tag_10:\n      dup1\n      0x05a1b4a9\n      eq\n      tag_3\n      jumpi\n      dup1\n      0x12e7ee1c\n      eq\n      tag_4\n      jumpi\n      dup1\n      0x58bfa4ab\n      eq\n      tag_5\n      jumpi\n    tag_2:\n      0x00\n      dup1\n      revert\n        /* \"Twitter.sol\":333:375  mapping(address => Tweet[] ) public tweets */\n    tag_3:\n      tag_11\n      0x04\n      dup1\n      calldatasize\n      sub\n      dup2\n      add\n      swap1\n      tag_12\n      swap2\n      swap1\n      tag_13\n      jump\t// in\n    tag_12:\n      tag_14\n      jump\t// in\n    tag_11:\n      mload(0x40)\n      tag_15\n      swap5\n      swap4\n      swap3\n      swap2\n      swap1\n      tag_16\n      jump\t// in\n    tag_15:\n      mload(0x40)\n      dup1\n      swap2\n      sub\n      swap1\n      return\n        /* \"Twitter.sol\":1212:1327  function getAllTweets(address _owner) public view returns (Tweet[] memory ){... */\n    tag_4:\n      tag_17\n      0x04\n      dup1\n      calldatasize\n      sub\n      dup2\n      add\n      swap1\n      tag_18\n      swap2\n      swap1\n      tag_19\n      jump\t// in\n    tag_18:\n      tag_20\n      jump\t// in\n    tag_17:\n      mload(0x40)\n      tag_21\n      swap2\n      swap1\n      tag_22\n      jump\t// in\n    tag_21:\n      mload(0x40)\n      dup1\n      swap2\n      sub\n      swap1\n      return\n        /* \"Twitter.sol\":584:703  function changeTweetLength(uint16 newTweetLength) public onlyOwner {... */\n    tag_5:\n      tag_23\n      0x04\n      dup1\n      calldatasize\n      sub\n      dup2\n      add\n      swap1\n      tag_24\n      swap2\n      swap1\n      tag_25\n      jump\t// in\n    tag_24:\n      tag_26\n      jump\t// in\n    tag_23:\n      stop\n        /* \"Twitter.sol\":84:120  uint16 public MAX_TWEET_LENGTH = 280 */\n    tag_6:\n      tag_27\n      tag_28\n      jump\t// in\n    tag_27:\n      mload(0x40)\n      tag_29\n      swap2\n      swap1\n      tag_30\n      jump\t// in\n    tag_29:\n      mload(0x40)\n      dup1\n      swap2\n      sub\n      swap1\n      return\n        /* \"Twitter.sol\":711:1085  function createTweet(string memory _tweet) public {... */\n    tag_7:\n      tag_31\n      0x04\n      dup1\n      calldatasize\n      sub\n      dup2\n      add\n      swap1\n      tag_32\n      swap2\n      swap1\n      tag_33\n      jump\t// in\n    tag_32:\n      tag_34\n      jump\t// in\n    tag_31:\n      stop\n        /* \"Twitter.sol\":382:402  address public owner */\n    tag_8:\n      tag_35\n      tag_36\n      jump\t// in\n    tag_35:\n      mload(0x40)\n      tag_37\n      swap2\n      swap1\n      tag_38\n      jump\t// in\n    tag_37:\n      mload(0x40)\n      dup1\n      swap2\n      sub\n      swap1\n      return\n        /* \"Twitter.sol\":1093:1204  function getTweet( uint _i) public view returns (Tweet memory) {... */\n    tag_9:\n      tag_39\n      0x04\n      dup1\n      calldatasize\n      sub\n      dup2\n      add\n      swap1\n      tag_40\n      swap2\n      swap1\n      tag_41\n      jump\t// in\n    tag_40:\n      tag_42\n      jump\t// in\n    tag_39:\n      mload(0x40)\n      tag_43\n      swap2\n      swap1\n      tag_44\n      jump\t// in\n    tag_43:\n      mload(0x40)\n      dup1\n      swap2\n      sub\n      swap1\n      return\n        /* \"Twitter.sol\":333:375  mapping(address => Tweet[] ) public tweets */\n    tag_14:\n      mstore(0x20, 0x01)\n      dup2\n      0x00\n      mstore\n      keccak256(0x00, 0x40)\n      dup2\n      dup2\n      sload\n      dup2\n      lt\n      tag_45\n      jumpi\n      0x00\n      dup1\n      revert\n    tag_45:\n      swap1\n      0x00\n      mstore\n      keccak256(0x00, 0x20)\n      swap1\n      0x04\n      mul\n      add\n      0x00\n      swap2\n      pop\n      swap2\n      pop\n      pop\n      dup1\n      0x00\n      add\n      0x00\n      swap1\n      sload\n      swap1\n      0x0100\n      exp\n      swap1\n      div\n      0xffffffffffffffffffffffffffffffffffffffff\n      and\n      swap1\n      dup1\n      0x01\n      add\n      dup1\n      sload\n      tag_47\n      swap1\n      tag_48\n      jump\t// in\n    tag_47:\n      dup1\n      0x1f\n      add\n      0x20\n      dup1\n      swap2\n      div\n      mul\n      0x20\n      add\n      mload(0x40)\n      swap1\n      dup2\n      add\n      0x40\n      mstore\n      dup1\n      swap3\n      swap2\n      swap1\n      dup2\n      dup2\n      mstore\n      0x20\n      add\n      dup3\n      dup1\n      sload\n      tag_49\n      swap1\n      tag_48\n      jump\t// in\n    tag_49:\n      dup1\n      iszero\n      tag_50\n      jumpi\n      dup1\n      0x1f\n      lt\n      tag_51\n      jumpi\n      0x0100\n      dup1\n      dup4\n      sload\n      div\n      mul\n      dup4\n      mstore\n      swap2\n      0x20\n      add\n      swap2\n      jump(tag_50)\n    tag_51:\n      dup3\n      add\n      swap2\n      swap1\n      0x00\n      mstore\n      keccak256(0x00, 0x20)\n      swap1\n    tag_52:\n      dup2\n      sload\n      dup2\n      mstore\n      swap1\n      0x01\n      add\n      swap1\n      0x20\n      add\n      dup1\n      dup4\n      gt\n      tag_52\n      jumpi\n      dup3\n      swap1\n      sub\n      0x1f\n      and\n      dup3\n      add\n      swap2\n    tag_50:\n      pop\n      pop\n      pop\n      pop\n      pop\n      swap1\n      dup1\n      0x02\n      add\n      sload\n      swap1\n      dup1\n      0x03\n      add\n      sload\n      swap1\n      pop\n      dup5\n      jump\t// out\n        /* \"Twitter.sol\":1212:1327  function getAllTweets(address _owner) public view returns (Tweet[] memory ){... */\n    tag_20:\n        /* \"Twitter.sol\":1271:1285  Tweet[] memory */\n      0x60\n        /* \"Twitter.sol\":1305:1311  tweets */\n      0x01\n        /* \"Twitter.sol\":1305:1319  tweets[_owner] */\n      0x00\n        /* \"Twitter.sol\":1312:1318  _owner */\n      dup4\n        /* \"Twitter.sol\":1305:1319  tweets[_owner] */\n      0xffffffffffffffffffffffffffffffffffffffff\n      and\n      0xffffffffffffffffffffffffffffffffffffffff\n      and\n      dup2\n      mstore\n      0x20\n      add\n      swap1\n      dup2\n      mstore\n      0x20\n      add\n      0x00\n      keccak256\n        /* \"Twitter.sol\":1298:1319  return tweets[_owner] */\n      dup1\n      sload\n      dup1\n      0x20\n      mul\n      0x20\n      add\n      mload(0x40)\n      swap1\n      dup2\n      add\n      0x40\n      mstore\n      dup1\n      swap3\n      swap2\n      swap1\n      dup2\n      dup2\n      mstore\n      0x20\n      add\n      0x00\n      swap1\n    tag_54:\n      dup3\n      dup3\n      lt\n      iszero\n      tag_55\n      jumpi\n      dup4\n      dup3\n      swap1\n      0x00\n      mstore\n      keccak256(0x00, 0x20)\n      swap1\n      0x04\n      mul\n      add\n      mload(0x40)\n      dup1\n      0x80\n      add\n      0x40\n      mstore\n      swap1\n      dup2\n      0x00\n      dup3\n      add\n      0x00\n      swap1\n      sload\n      swap1\n      0x0100\n      exp\n      swap1\n      div\n      0xffffffffffffffffffffffffffffffffffffffff\n      and\n      0xffffffffffffffffffffffffffffffffffffffff\n      and\n      0xffffffffffffffffffffffffffffffffffffffff\n      and\n      dup2\n      mstore\n      0x20\n      add\n      0x01\n      dup3\n      add\n      dup1\n      sload\n      tag_57\n      swap1\n      tag_48\n      jump\t// in\n    tag_57:\n      dup1\n      0x1f\n      add\n      0x20\n      dup1\n      swap2\n      div\n      mul\n      0x20\n      add\n      mload(0x40)\n      swap1\n      dup2\n      add\n      0x40\n      mstore\n      dup1\n      swap3\n      swap2\n      swap1\n      dup2\n      dup2\n      mstore\n      0x20\n      add\n      dup3\n      dup1\n      sload\n      tag_58\n      swap1\n      tag_48\n      jump\t// in\n    tag_58:\n      dup1\n      iszero\n      tag_59\n      jumpi\n      dup1\n      0x1f\n      lt\n      tag_60\n      jumpi\n      0x0100\n      dup1\n      dup4\n      sload\n      div\n      mul\n      dup4\n      mstore\n      swap2\n      0x20\n      add\n      swap2\n      jump(tag_59)\n    tag_60:\n      dup3\n      add\n      swap2\n      swap1\n      0x00\n      mstore\n      keccak256(0x00, 0x20)\n      swap1\n    tag_61:\n      dup2\n      sload\n      dup2\n      mstore\n      swap1\n      0x01\n      add\n      swap1\n      0x20\n      add\n      dup1\n      dup4\n      gt\n      tag_61\n      jumpi\n      dup3\n      swap1\n      sub\n      0x1f\n      and\n      dup3\n      add\n      swap2\n    tag_59:\n      pop\n      pop\n      pop\n      pop\n      pop\n      dup2\n      mstore\n      0x20\n      add\n      0x02\n      dup3\n      add\n      sload\n      dup2\n      mstore\n      0x20\n      add\n      0x03\n      dup3\n      add\n      sload\n      dup2\n      mstore\n      pop\n      pop\n      dup2\n      mstore\n      0x20\n      add\n      swap1\n      0x01\n      add\n      swap1\n      jump(tag_54)\n    tag_55:\n      pop\n      pop\n      pop\n      pop\n      swap1\n      pop\n        /* \"Twitter.sol\":1212:1327  function getAllTweets(address _owner) public view returns (Tweet[] memory ){... */\n      swap2\n      swap1\n      pop\n      jump\t// out\n        /* \"Twitter.sol\":584:703  function changeTweetLength(uint16 newTweetLength) public onlyOwner {... */\n    tag_26:\n        /* \"Twitter.sol\":524:529  owner */\n      0x02\n      0x00\n      swap1\n      sload\n      swap1\n      0x0100\n      exp\n      swap1\n      div\n      0xffffffffffffffffffffffffffffffffffffffff\n      and\n        /* \"Twitter.sol\":510:529  msg.sender == owner */\n      0xffffffffffffffffffffffffffffffffffffffff\n      and\n        /* \"Twitter.sol\":510:520  msg.sender */\n      caller\n        /* \"Twitter.sol\":510:529  msg.sender == owner */\n      0xffffffffffffffffffffffffffffffffffffffff\n      and\n      eq\n        /* \"Twitter.sol\":502:556  require(msg.sender == owner, \"YOU ARE NOT THE OWNER!\") */\n      tag_63\n      jumpi\n      mload(0x40)\n      0x08c379a000000000000000000000000000000000000000000000000000000000\n      dup2\n      mstore\n      0x04\n      add\n      tag_64\n      swap1\n      tag_65\n      jump\t// in\n    tag_64:\n      mload(0x40)\n      dup1\n      swap2\n      sub\n      swap1\n      revert\n    tag_63:\n        /* \"Twitter.sol\":681:695  newTweetLength */\n      dup1\n        /* \"Twitter.sol\":662:678  MAX_TWEET_LENGTH */\n      0x00\n      dup1\n        /* \"Twitter.sol\":662:695  MAX_TWEET_LENGTH = newTweetLength */\n      0x0100\n      exp\n      dup2\n      sload\n      dup2\n      0xffff\n      mul\n      not\n      and\n      swap1\n      dup4\n      0xffff\n      and\n      mul\n      or\n      swap1\n      sstore\n      pop\n        /* \"Twitter.sol\":584:703  function changeTweetLength(uint16 newTweetLength) public onlyOwner {... */\n      pop\n      jump\t// out\n        /* \"Twitter.sol\":84:120  uint16 public MAX_TWEET_LENGTH = 280 */\n    tag_28:\n      0x00\n      dup1\n      sload\n      swap1\n      0x0100\n      exp\n      swap1\n      div\n      0xffff\n      and\n      dup2\n      jump\t// out\n        /* \"Twitter.sol\":711:1085  function createTweet(string memory _tweet) public {... */\n    tag_34:\n        /* \"Twitter.sol\":804:820  MAX_TWEET_LENGTH */\n      0x00\n      dup1\n      sload\n      swap1\n      0x0100\n      exp\n      swap1\n      div\n      0xffff\n      and\n        /* \"Twitter.sol\":780:820  bytes(_tweet).length <= MAX_TWEET_LENGTH */\n      0xffff\n      and\n        /* \"Twitter.sol\":786:792  _tweet */\n      dup2\n        /* \"Twitter.sol\":780:800  bytes(_tweet).length */\n      mload\n        /* \"Twitter.sol\":780:820  bytes(_tweet).length <= MAX_TWEET_LENGTH */\n      gt\n      iszero\n        /* \"Twitter.sol\":772:849  require(bytes(_tweet).length <= MAX_TWEET_LENGTH, \"Tweet is too long bro !\" ) */\n      tag_68\n      jumpi\n      mload(0x40)\n      0x08c379a000000000000000000000000000000000000000000000000000000000\n      dup2\n      mstore\n      0x04\n      add\n      tag_69\n      swap1\n      tag_70\n      jump\t// in\n    tag_69:\n      mload(0x40)\n      dup1\n      swap2\n      sub\n      swap1\n      revert\n    tag_68:\n        /* \"Twitter.sol\":862:883  Tweet memory newTweet */\n      0x00\n        /* \"Twitter.sol\":886:1031  Tweet({... */\n      mload(0x40)\n      dup1\n      0x80\n      add\n      0x40\n      mstore\n      dup1\n        /* \"Twitter.sol\":915:925  msg.sender */\n      caller\n        /* \"Twitter.sol\":886:1031  Tweet({... */\n      0xffffffffffffffffffffffffffffffffffffffff\n      and\n      dup2\n      mstore\n      0x20\n      add\n        /* \"Twitter.sol\":949:955  _tweet */\n      dup4\n        /* \"Twitter.sol\":886:1031  Tweet({... */\n      dup2\n      mstore\n      0x20\n      add\n        /* \"Twitter.sol\":981:996  block.timestamp */\n      timestamp\n        /* \"Twitter.sol\":886:1031  Tweet({... */\n      dup2\n      mstore\n      0x20\n      add\n        /* \"Twitter.sol\":1018:1019  0 */\n      0x00\n        /* \"Twitter.sol\":886:1031  Tweet({... */\n      dup2\n      mstore\n      pop\n        /* \"Twitter.sol\":862:1031  Tweet memory newTweet = Tweet({... */\n      swap1\n      pop\n        /* \"Twitter.sol\":1044:1050  tweets */\n      0x01\n        /* \"Twitter.sol\":1044:1062  tweets[msg.sender] */\n      0x00\n        /* \"Twitter.sol\":1051:1061  msg.sender */\n      caller\n        /* \"Twitter.sol\":1044:1062  tweets[msg.sender] */\n      0xffffffffffffffffffffffffffffffffffffffff\n      and\n      0xffffffffffffffffffffffffffffffffffffffff\n      and\n      dup2\n      mstore\n      0x20\n      add\n      swap1\n      dup2\n      mstore\n      0x20\n      add\n      0x00\n      keccak256\n        /* \"Twitter.sol\":1068:1076  newTweet */\n      dup2\n        /* \"Twitter.sol\":1044:1077  tweets[msg.sender].push(newTweet) */\n      swap1\n      dup1\n      0x01\n      dup2\n      sload\n      add\n      dup1\n      dup3\n      sstore\n      dup1\n      swap2\n      pop\n      pop\n      0x01\n      swap1\n      sub\n      swap1\n      0x00\n      mstore\n      keccak256(0x00, 0x20)\n      swap1\n      0x04\n      mul\n      add\n      0x00\n      swap1\n      swap2\n      swap1\n      swap2\n      swap1\n      swap2\n      pop\n      0x00\n      dup3\n      add\n      mload\n      dup2\n      0x00\n      add\n      exp(0x0100, 0x00)\n      dup2\n      sload\n      dup2\n      0xffffffffffffffffffffffffffffffffffffffff\n      mul\n      not\n      and\n      swap1\n      dup4\n      0xffffffffffffffffffffffffffffffffffffffff\n      and\n      mul\n      or\n      swap1\n      sstore\n      pop\n      0x20\n      dup3\n      add\n      mload\n      dup2\n      0x01\n      add\n      swap1\n      dup2\n      tag_72\n      swap2\n      swap1\n      tag_73\n      jump\t// in\n    tag_72:\n      pop\n      0x40\n      dup3\n      add\n      mload\n      dup2\n      0x02\n      add\n      sstore\n      0x60\n      dup3\n      add\n      mload\n      dup2\n      0x03\n      add\n      sstore\n      pop\n      pop\n        /* \"Twitter.sol\":761:1085  {... */\n      pop\n        /* \"Twitter.sol\":711:1085  function createTweet(string memory _tweet) public {... */\n      pop\n      jump\t// out\n        /* \"Twitter.sol\":382:402  address public owner */\n    tag_36:\n      0x02\n      0x00\n      swap1\n      sload\n      swap1\n      0x0100\n      exp\n      swap1\n      div\n      0xffffffffffffffffffffffffffffffffffffffff\n      and\n      dup2\n      jump\t// out\n        /* \"Twitter.sol\":1093:1204  function getTweet( uint _i) public view returns (Tweet memory) {... */\n    tag_42:\n        /* \"Twitter.sol\":1142:1154  Tweet memory */\n      tag_74\n      tag_75\n      jump\t// in\n    tag_74:\n        /* \"Twitter.sol\":1174:1180  tweets */\n      0x01\n        /* \"Twitter.sol\":1174:1192  tweets[msg.sender] */\n      0x00\n        /* \"Twitter.sol\":1181:1191  msg.sender */\n      caller\n        /* \"Twitter.sol\":1174:1192  tweets[msg.sender] */\n      0xffffffffffffffffffffffffffffffffffffffff\n      and\n      0xffffffffffffffffffffffffffffffffffffffff\n      and\n      dup2\n      mstore\n      0x20\n      add\n      swap1\n      dup2\n      mstore\n      0x20\n      add\n      0x00\n      keccak256\n        /* \"Twitter.sol\":1193:1195  _i */\n      dup3\n        /* \"Twitter.sol\":1174:1196  tweets[msg.sender][_i] */\n      dup2\n      sload\n      dup2\n      lt\n      tag_77\n      jumpi\n      tag_78\n      tag_79\n      jump\t// in\n    tag_78:\n    tag_77:\n      swap1\n      0x00\n      mstore\n      keccak256(0x00, 0x20)\n      swap1\n      0x04\n      mul\n      add\n        /* \"Twitter.sol\":1167:1196  return tweets[msg.sender][_i] */\n      mload(0x40)\n      dup1\n      0x80\n      add\n      0x40\n      mstore\n      swap1\n      dup2\n      0x00\n      dup3\n      add\n      0x00\n      swap1\n      sload\n      swap1\n      0x0100\n      exp\n      swap1\n      div\n      0xffffffffffffffffffffffffffffffffffffffff\n      and\n      0xffffffffffffffffffffffffffffffffffffffff\n      and\n      0xffffffffffffffffffffffffffffffffffffffff\n      and\n      dup2\n      mstore\n      0x20\n      add\n      0x01\n      dup3\n      add\n      dup1\n      sload\n      tag_81\n      swap1\n      tag_48\n      jump\t// in\n    tag_81:\n      dup1\n      0x1f\n      add\n      0x20\n      dup1\n      swap2\n      div\n      mul\n      0x20\n      add\n      mload(0x40)\n      swap1\n      dup2\n      add\n      0x40\n      mstore\n      dup1\n      swap3\n      swap2\n      swap1\n      dup2\n      dup2\n      mstore\n      0x20\n      add\n      dup3\n      dup1\n      sload\n      tag_82\n      swap1\n      tag_48\n      jump\t// in\n    tag_82:\n      dup1\n      iszero\n      tag_83\n      jumpi\n      dup1\n      0x1f\n      lt\n      tag_84\n      jumpi\n      0x0100\n      dup1\n      dup4\n      sload\n      div\n      mul\n      dup4\n      mstore\n      swap2\n      0x20\n      add\n      swap2\n      jump(tag_83)\n    tag_84:\n      dup3\n      add\n      swap2\n      swap1\n      0x00\n      mstore\n      keccak256(0x00, 0x20)\n      swap1\n    tag_85:\n      dup2\n      sload\n      dup2\n      mstore\n      swap1\n      0x01\n      add\n      swap1\n      0x20\n      add\n      dup1\n      dup4\n      gt\n      tag_85\n      jumpi\n      dup3\n      swap1\n      sub\n      0x1f\n      and\n      dup3\n      add\n      swap2\n    tag_83:\n      pop\n      pop\n      pop\n      pop\n      pop\n      dup2\n      mstore\n      0x20\n      add\n      0x02\n      dup3\n      add\n      sload\n      dup2\n      mstore\n      0x20\n      add\n      0x03\n      dup3\n      add\n      sload\n      dup2\n      mstore\n      pop\n      pop\n      swap1\n      pop\n        /* \"Twitter.sol\":1093:1204  function getTweet( uint _i) public view returns (Tweet memory) {... */\n      swap2\n      swap1\n      pop\n      jump\t// out\n    tag_75:\n      mload(0x40)\n      dup1\n      0x80\n      add\n      0x40\n      mstore\n      dup1\n      and(0xffffffffffffffffffffffffffffffffffffffff, 0x00)\n      dup2\n      mstore\n      0x20\n      add\n      0x60\n      dup2\n      mstore\n      0x20\n      add\n      0x00\n      dup2\n      mstore\n      0x20\n      add\n      0x00\n      dup2\n      mstore\n      pop\n      swap1\n      jump\t// out\n        /* \"#utility.yul\":7:82   */\n    tag_86:\n        /* \"#utility.yul\":40:46   */\n      0x00\n        /* \"#utility.yul\":73:75   */\n      0x40\n        /* \"#utility.yul\":67:76   */\n      mload\n        /* \"#utility.yul\":57:76   */\n      swap1\n      pop\n        /* \"#utility.yul\":7:82   */\n      swap1\n      jump\t// out\n        /* \"#utility.yul\":88:205   */\n    tag_87:\n        /* \"#utility.yul\":197:198   */\n      0x00\n        /* \"#utility.yul\":194:195   */\n      dup1\n        /* \"#utility.yul\":187:199   */\n      revert\n        /* \"#utility.yul\":211:328   */\n    tag_88:\n        /* \"#utility.yul\":320:321   */\n      0x00\n        /* \"#utility.yul\":317:318   */\n      dup1\n        /* \"#utility.yul\":310:322   */\n      revert\n        /* \"#utility.yul\":334:460   */\n    tag_89:\n        /* \"#utility.yul\":371:378   */\n      0x00\n        /* \"#utility.yul\":411:453   */\n      0xffffffffffffffffffffffffffffffffffffffff\n        /* \"#utility.yul\":404:409   */\n      dup3\n        /* \"#utility.yul\":400:454   */\n      and\n        /* \"#utility.yul\":389:454   */\n      swap1\n      pop\n        /* \"#utility.yul\":334:460   */\n      swap2\n      swap1\n      pop\n      jump\t// out\n        /* \"#utility.yul\":466:562   */\n    tag_90:\n        /* \"#utility.yul\":503:510   */\n      0x00\n        /* \"#utility.yul\":532:556   */\n      tag_154\n        /* \"#utility.yul\":550:555   */\n      dup3\n        /* \"#utility.yul\":532:556   */\n      tag_89\n      jump\t// in\n    tag_154:\n        /* \"#utility.yul\":521:556   */\n      swap1\n      pop\n        /* \"#utility.yul\":466:562   */\n      swap2\n      swap1\n      pop\n      jump\t// out\n        /* \"#utility.yul\":568:690   */\n    tag_91:\n        /* \"#utility.yul\":641:665   */\n      tag_156\n        /* \"#utility.yul\":659:664   */\n      dup2\n        /* \"#utility.yul\":641:665   */\n      tag_90\n      jump\t// in\n    tag_156:\n        /* \"#utility.yul\":634:639   */\n      dup2\n        /* \"#utility.yul\":631:666   */\n      eq\n        /* \"#utility.yul\":621:684   */\n      tag_157\n      jumpi\n        /* \"#utility.yul\":680:681   */\n      0x00\n        /* \"#utility.yul\":677:678   */\n      dup1\n        /* \"#utility.yul\":670:682   */\n      revert\n        /* \"#utility.yul\":621:684   */\n    tag_157:\n        /* \"#utility.yul\":568:690   */\n      pop\n      jump\t// out\n        /* \"#utility.yul\":696:835   */\n    tag_92:\n        /* \"#utility.yul\":742:747   */\n      0x00\n        /* \"#utility.yul\":780:786   */\n      dup2\n        /* \"#utility.yul\":767:787   */\n      calldataload\n        /* \"#utility.yul\":758:787   */\n      swap1\n      pop\n        /* \"#utility.yul\":796:829   */\n      tag_159\n        /* \"#utility.yul\":823:828   */\n      dup2\n        /* \"#utility.yul\":796:829   */\n      tag_91\n      jump\t// in\n    tag_159:\n        /* \"#utility.yul\":696:835   */\n      swap3\n      swap2\n      pop\n      pop\n      jump\t// out\n        /* \"#utility.yul\":841:918   */\n    tag_93:\n        /* \"#utility.yul\":878:885   */\n      0x00\n        /* \"#utility.yul\":907:912   */\n      dup2\n        /* \"#utility.yul\":896:912   */\n      swap1\n      pop\n        /* \"#utility.yul\":841:918   */\n      swap2\n      swap1\n      pop\n      jump\t// out\n        /* \"#utility.yul\":924:1046   */\n    tag_94:\n        /* \"#utility.yul\":997:1021   */\n      tag_162\n        /* \"#utility.yul\":1015:1020   */\n      dup2\n        /* \"#utility.yul\":997:1021   */\n      tag_93\n      jump\t// in\n    tag_162:\n        /* \"#utility.yul\":990:995   */\n      dup2\n        /* \"#utility.yul\":987:1022   */\n      eq\n        /* \"#utility.yul\":977:1040   */\n      tag_163\n      jumpi\n        /* \"#utility.yul\":1036:1037   */\n      0x00\n        /* \"#utility.yul\":1033:1034   */\n      dup1\n        /* \"#utility.yul\":1026:1038   */\n      revert\n        /* \"#utility.yul\":977:1040   */\n    tag_163:\n        /* \"#utility.yul\":924:1046   */\n      pop\n      jump\t// out\n        /* \"#utility.yul\":1052:1191   */\n    tag_95:\n        /* \"#utility.yul\":1098:1103   */\n      0x00\n        /* \"#utility.yul\":1136:1142   */\n      dup2\n        /* \"#utility.yul\":1123:1143   */\n      calldataload\n        /* \"#utility.yul\":1114:1143   */\n      swap1\n      pop\n        /* \"#utility.yul\":1152:1185   */\n      tag_165\n        /* \"#utility.yul\":1179:1184   */\n      dup2\n        /* \"#utility.yul\":1152:1185   */\n      tag_94\n      jump\t// in\n    tag_165:\n        /* \"#utility.yul\":1052:1191   */\n      swap3\n      swap2\n      pop\n      pop\n      jump\t// out\n        /* \"#utility.yul\":1197:1671   */\n    tag_13:\n        /* \"#utility.yul\":1265:1271   */\n      0x00\n        /* \"#utility.yul\":1273:1279   */\n      dup1\n        /* \"#utility.yul\":1322:1324   */\n      0x40\n        /* \"#utility.yul\":1310:1319   */\n      dup4\n        /* \"#utility.yul\":1301:1308   */\n      dup6\n        /* \"#utility.yul\":1297:1320   */\n      sub\n        /* \"#utility.yul\":1293:1325   */\n      slt\n        /* \"#utility.yul\":1290:1409   */\n      iszero\n      tag_167\n      jumpi\n        /* \"#utility.yul\":1328:1407   */\n      tag_168\n      tag_87\n      jump\t// in\n    tag_168:\n        /* \"#utility.yul\":1290:1409   */\n    tag_167:\n        /* \"#utility.yul\":1448:1449   */\n      0x00\n        /* \"#utility.yul\":1473:1526   */\n      tag_169\n        /* \"#utility.yul\":1518:1525   */\n      dup6\n        /* \"#utility.yul\":1509:1515   */\n      dup3\n        /* \"#utility.yul\":1498:1507   */\n      dup7\n        /* \"#utility.yul\":1494:1516   */\n      add\n        /* \"#utility.yul\":1473:1526   */\n      tag_92\n      jump\t// in\n    tag_169:\n        /* \"#utility.yul\":1463:1526   */\n      swap3\n      pop\n        /* \"#utility.yul\":1419:1536   */\n      pop\n        /* \"#utility.yul\":1575:1577   */\n      0x20\n        /* \"#utility.yul\":1601:1654   */\n      tag_170\n        /* \"#utility.yul\":1646:1653   */\n      dup6\n        /* \"#utility.yul\":1637:1643   */\n      dup3\n        /* \"#utility.yul\":1626:1635   */\n      dup7\n        /* \"#utility.yul\":1622:1644   */\n      add\n        /* \"#utility.yul\":1601:1654   */\n      tag_95\n      jump\t// in\n    tag_170:\n        /* \"#utility.yul\":1591:1654   */\n      swap2\n      pop\n        /* \"#utility.yul\":1546:1664   */\n      pop\n        /* \"#utility.yul\":1197:1671   */\n      swap3\n      pop\n      swap3\n      swap1\n      pop\n      jump\t// out\n        /* \"#utility.yul\":1677:1795   */\n    tag_96:\n        /* \"#utility.yul\":1764:1788   */\n      tag_172\n        /* \"#utility.yul\":1782:1787   */\n      dup2\n        /* \"#utility.yul\":1764:1788   */\n      tag_90\n      jump\t// in\n    tag_172:\n        /* \"#utility.yul\":1759:1762   */\n      dup3\n        /* \"#utility.yul\":1752:1789   */\n      mstore\n        /* \"#utility.yul\":1677:1795   */\n      pop\n      pop\n      jump\t// out\n        /* \"#utility.yul\":1801:1900   */\n    tag_97:\n        /* \"#utility.yul\":1853:1859   */\n      0x00\n        /* \"#utility.yul\":1887:1892   */\n      dup2\n        /* \"#utility.yul\":1881:1893   */\n      mload\n        /* \"#utility.yul\":1871:1893   */\n      swap1\n      pop\n        /* \"#utility.yul\":1801:1900   */\n      swap2\n      swap1\n      pop\n      jump\t// out\n        /* \"#utility.yul\":1906:2075   */\n    tag_98:\n        /* \"#utility.yul\":1990:2001   */\n      0x00\n        /* \"#utility.yul\":2024:2030   */\n      dup3\n        /* \"#utility.yul\":2019:2022   */\n      dup3\n        /* \"#utility.yul\":2012:2031   */\n      mstore\n        /* \"#utility.yul\":2064:2068   */\n      0x20\n        /* \"#utility.yul\":2059:2062   */\n      dup3\n        /* \"#utility.yul\":2055:2069   */\n      add\n        /* \"#utility.yul\":2040:2069   */\n      swap1\n      pop\n        /* \"#utility.yul\":1906:2075   */\n      swap3\n      swap2\n      pop\n      pop\n      jump\t// out\n        /* \"#utility.yul\":2081:2327   */\n    tag_99:\n        /* \"#utility.yul\":2162:2163   */\n      0x00\n        /* \"#utility.yul\":2172:2285   */\n    tag_176:\n        /* \"#utility.yul\":2186:2192   */\n      dup4\n        /* \"#utility.yul\":2183:2184   */\n      dup2\n        /* \"#utility.yul\":2180:2193   */\n      lt\n        /* \"#utility.yul\":2172:2285   */\n      iszero\n      tag_178\n      jumpi\n        /* \"#utility.yul\":2271:2272   */\n      dup1\n        /* \"#utility.yul\":2266:2269   */\n      dup3\n        /* \"#utility.yul\":2262:2273   */\n      add\n        /* \"#utility.yul\":2256:2274   */\n      mload\n        /* \"#utility.yul\":2252:2253   */\n      dup2\n        /* \"#utility.yul\":2247:2250   */\n      dup5\n        /* \"#utility.yul\":2243:2254   */\n      add\n        /* \"#utility.yul\":2236:2275   */\n      mstore\n        /* \"#utility.yul\":2208:2210   */\n      0x20\n        /* \"#utility.yul\":2205:2206   */\n      dup2\n        /* \"#utility.yul\":2201:2211   */\n      add\n        /* \"#utility.yul\":2196:2211   */\n      swap1\n      pop\n        /* \"#utility.yul\":2172:2285   */\n      jump(tag_176)\n    tag_178:\n        /* \"#utility.yul\":2319:2320   */\n      0x00\n        /* \"#utility.yul\":2310:2316   */\n      dup5\n        /* \"#utility.yul\":2305:2308   */\n      dup5\n        /* \"#utility.yul\":2301:2317   */\n      add\n        /* \"#utility.yul\":2294:2321   */\n      mstore\n        /* \"#utility.yul\":2143:2327   */\n      pop\n        /* \"#utility.yul\":2081:2327   */\n      pop\n      pop\n      pop\n      jump\t// out\n        /* \"#utility.yul\":2333:2435   */\n    tag_100:\n        /* \"#utility.yul\":2374:2380   */\n      0x00\n        /* \"#utility.yul\":2425:2427   */\n      0x1f\n        /* \"#utility.yul\":2421:2428   */\n      not\n        /* \"#utility.yul\":2416:2418   */\n      0x1f\n        /* \"#utility.yul\":2409:2414   */\n      dup4\n        /* \"#utility.yul\":2405:2419   */\n      add\n        /* \"#utility.yul\":2401:2429   */\n      and\n        /* \"#utility.yul\":2391:2429   */\n      swap1\n      pop\n        /* \"#utility.yul\":2333:2435   */\n      swap2\n      swap1\n      pop\n      jump\t// out\n        /* \"#utility.yul\":2441:2818   */\n    tag_101:\n        /* \"#utility.yul\":2529:2532   */\n      0x00\n        /* \"#utility.yul\":2557:2596   */\n      tag_181\n        /* \"#utility.yul\":2590:2595   */\n      dup3\n        /* \"#utility.yul\":2557:2596   */\n      tag_97\n      jump\t// in\n    tag_181:\n        /* \"#utility.yul\":2612:2683   */\n      tag_182\n        /* \"#utility.yul\":2676:2682   */\n      dup2\n        /* \"#utility.yul\":2671:2674   */\n      dup6\n        /* \"#utility.yul\":2612:2683   */\n      tag_98\n      jump\t// in\n    tag_182:\n        /* \"#utility.yul\":2605:2683   */\n      swap4\n      pop\n        /* \"#utility.yul\":2692:2757   */\n      tag_183\n        /* \"#utility.yul\":2750:2756   */\n      dup2\n        /* \"#utility.yul\":2745:2748   */\n      dup6\n        /* \"#utility.yul\":2738:2742   */\n      0x20\n        /* \"#utility.yul\":2731:2736   */\n      dup7\n        /* \"#utility.yul\":2727:2743   */\n      add\n        /* \"#utility.yul\":2692:2757   */\n      tag_99\n      jump\t// in\n    tag_183:\n        /* \"#utility.yul\":2782:2811   */\n      tag_184\n        /* \"#utility.yul\":2804:2810   */\n      dup2\n        /* \"#utility.yul\":2782:2811   */\n      tag_100\n      jump\t// in\n    tag_184:\n        /* \"#utility.yul\":2777:2780   */\n      dup5\n        /* \"#utility.yul\":2773:2812   */\n      add\n        /* \"#utility.yul\":2766:2812   */\n      swap2\n      pop\n        /* \"#utility.yul\":2533:2818   */\n      pop\n        /* \"#utility.yul\":2441:2818   */\n      swap3\n      swap2\n      pop\n      pop\n      jump\t// out\n        /* \"#utility.yul\":2824:2942   */\n    tag_102:\n        /* \"#utility.yul\":2911:2935   */\n      tag_186\n        /* \"#utility.yul\":2929:2934   */\n      dup2\n        /* \"#utility.yul\":2911:2935   */\n      tag_93\n      jump\t// in\n    tag_186:\n        /* \"#utility.yul\":2906:2909   */\n      dup3\n        /* \"#utility.yul\":2899:2936   */\n      mstore\n        /* \"#utility.yul\":2824:2942   */\n      pop\n      pop\n      jump\t// out\n        /* \"#utility.yul\":2948:3592   */\n    tag_16:\n        /* \"#utility.yul\":3145:3149   */\n      0x00\n        /* \"#utility.yul\":3183:3186   */\n      0x80\n        /* \"#utility.yul\":3172:3181   */\n      dup3\n        /* \"#utility.yul\":3168:3187   */\n      add\n        /* \"#utility.yul\":3160:3187   */\n      swap1\n      pop\n        /* \"#utility.yul\":3197:3268   */\n      tag_188\n        /* \"#utility.yul\":3265:3266   */\n      0x00\n        /* \"#utility.yul\":3254:3263   */\n      dup4\n        /* \"#utility.yul\":3250:3267   */\n      add\n        /* \"#utility.yul\":3241:3247   */\n      dup8\n        /* \"#utility.yul\":3197:3268   */\n      tag_96\n      jump\t// in\n    tag_188:\n        /* \"#utility.yul\":3315:3324   */\n      dup2\n        /* \"#utility.yul\":3309:3313   */\n      dup2\n        /* \"#utility.yul\":3305:3325   */\n      sub\n        /* \"#utility.yul\":3300:3302   */\n      0x20\n        /* \"#utility.yul\":3289:3298   */\n      dup4\n        /* \"#utility.yul\":3285:3303   */\n      add\n        /* \"#utility.yul\":3278:3326   */\n      mstore\n        /* \"#utility.yul\":3343:3421   */\n      tag_189\n        /* \"#utility.yul\":3416:3420   */\n      dup2\n        /* \"#utility.yul\":3407:3413   */\n      dup7\n        /* \"#utility.yul\":3343:3421   */\n      tag_101\n      jump\t// in\n    tag_189:\n        /* \"#utility.yul\":3335:3421   */\n      swap1\n      pop\n        /* \"#utility.yul\":3431:3503   */\n      tag_190\n        /* \"#utility.yul\":3499:3501   */\n      0x40\n        /* \"#utility.yul\":3488:3497   */\n      dup4\n        /* \"#utility.yul\":3484:3502   */\n      add\n        /* \"#utility.yul\":3475:3481   */\n      dup6\n        /* \"#utility.yul\":3431:3503   */\n      tag_102\n      jump\t// in\n    tag_190:\n        /* \"#utility.yul\":3513:3585   */\n      tag_191\n        /* \"#utility.yul\":3581:3583   */\n      0x60\n        /* \"#utility.yul\":3570:3579   */\n      dup4\n        /* \"#utility.yul\":3566:3584   */\n      add\n        /* \"#utility.yul\":3557:3563   */\n      dup5\n        /* \"#utility.yul\":3513:3585   */\n      tag_102\n      jump\t// in\n    tag_191:\n        /* \"#utility.yul\":2948:3592   */\n      swap6\n      swap5\n      pop\n      pop\n      pop\n      pop\n      pop\n      jump\t// out\n        /* \"#utility.yul\":3598:3927   */\n    tag_19:\n        /* \"#utility.yul\":3657:3663   */\n      0x00\n        /* \"#utility.yul\":3706:3708   */\n      0x20\n        /* \"#utility.yul\":3694:3703   */\n      dup3\n        /* \"#utility.yul\":3685:3692   */\n      dup5\n        /* \"#utility.yul\":3681:3704   */\n      sub\n        /* \"#utility.yul\":3677:3709   */\n      slt\n        /* \"#utility.yul\":3674:3793   */\n      iszero\n      tag_193\n      jumpi\n        /* \"#utility.yul\":3712:3791   */\n      tag_194\n      tag_87\n      jump\t// in\n    tag_194:\n        /* \"#utility.yul\":3674:3793   */\n    tag_193:\n        /* \"#utility.yul\":3832:3833   */\n      0x00\n        /* \"#utility.yul\":3857:3910   */\n      tag_195\n        /* \"#utility.yul\":3902:3909   */\n      dup5\n        /* \"#utility.yul\":3893:3899   */\n      dup3\n        /* \"#utility.yul\":3882:3891   */\n      dup6\n        /* \"#utility.yul\":3878:3900   */\n      add\n        /* \"#utility.yul\":3857:3910   */\n      tag_92\n      jump\t// in\n    tag_195:\n        /* \"#utility.yul\":3847:3910   */\n      swap2\n      pop\n        /* \"#utility.yul\":3803:3920   */\n      pop\n        /* \"#utility.yul\":3598:3927   */\n      swap3\n      swap2\n      pop\n      pop\n      jump\t// out\n        /* \"#utility.yul\":3933:4068   */\n    tag_103:\n        /* \"#utility.yul\":4021:4027   */\n      0x00\n        /* \"#utility.yul\":4055:4060   */\n      dup2\n        /* \"#utility.yul\":4049:4061   */\n      mload\n        /* \"#utility.yul\":4039:4061   */\n      swap1\n      pop\n        /* \"#utility.yul\":3933:4068   */\n      swap2\n      swap1\n      pop\n      jump\t// out\n        /* \"#utility.yul\":4074:4279   */\n    tag_104:\n        /* \"#utility.yul\":4194:4205   */\n      0x00\n        /* \"#utility.yul\":4228:4234   */\n      dup3\n        /* \"#utility.yul\":4223:4226   */\n      dup3\n        /* \"#utility.yul\":4216:4235   */\n      mstore\n        /* \"#utility.yul\":4268:4272   */\n      0x20\n        /* \"#utility.yul\":4263:4266   */\n      dup3\n        /* \"#utility.yul\":4259:4273   */\n      add\n        /* \"#utility.yul\":4244:4273   */\n      swap1\n      pop\n        /* \"#utility.yul\":4074:4279   */\n      swap3\n      swap2\n      pop\n      pop\n      jump\t// out\n        /* \"#utility.yul\":4285:4438   */\n    tag_105:\n        /* \"#utility.yul\":4373:4377   */\n      0x00\n        /* \"#utility.yul\":4396:4399   */\n      dup2\n        /* \"#utility.yul\":4388:4399   */\n      swap1\n      pop\n        /* \"#utility.yul\":4426:4430   */\n      0x20\n        /* \"#utility.yul\":4421:4424   */\n      dup3\n        /* \"#utility.yul\":4417:4431   */\n      add\n        /* \"#utility.yul\":4409:4431   */\n      swap1\n      pop\n        /* \"#utility.yul\":4285:4438   */\n      swap2\n      swap1\n      pop\n      jump\t// out\n        /* \"#utility.yul\":4444:4552   */\n    tag_106:\n        /* \"#utility.yul\":4521:4545   */\n      tag_200\n        /* \"#utility.yul\":4539:4544   */\n      dup2\n        /* \"#utility.yul\":4521:4545   */\n      tag_90\n      jump\t// in\n    tag_200:\n        /* \"#utility.yul\":4516:4519   */\n      dup3\n        /* \"#utility.yul\":4509:4546   */\n      mstore\n        /* \"#utility.yul\":4444:4552   */\n      pop\n      pop\n      jump\t// out\n        /* \"#utility.yul\":4558:4717   */\n    tag_107:\n        /* \"#utility.yul\":4632:4643   */\n      0x00\n        /* \"#utility.yul\":4666:4672   */\n      dup3\n        /* \"#utility.yul\":4661:4664   */\n      dup3\n        /* \"#utility.yul\":4654:4673   */\n      mstore\n        /* \"#utility.yul\":4706:4710   */\n      0x20\n        /* \"#utility.yul\":4701:4704   */\n      dup3\n        /* \"#utility.yul\":4697:4711   */\n      add\n        /* \"#utility.yul\":4682:4711   */\n      swap1\n      pop\n        /* \"#utility.yul\":4558:4717   */\n      swap3\n      swap2\n      pop\n      pop\n      jump\t// out\n        /* \"#utility.yul\":4723:5080   */\n    tag_108:\n        /* \"#utility.yul\":4801:4804   */\n      0x00\n        /* \"#utility.yul\":4829:4868   */\n      tag_203\n        /* \"#utility.yul\":4862:4867   */\n      dup3\n        /* \"#utility.yul\":4829:4868   */\n      tag_97\n      jump\t// in\n    tag_203:\n        /* \"#utility.yul\":4884:4945   */\n      tag_204\n        /* \"#utility.yul\":4938:4944   */\n      dup2\n        /* \"#utility.yul\":4933:4936   */\n      dup6\n        /* \"#utility.yul\":4884:4945   */\n      tag_107\n      jump\t// in\n    tag_204:\n        /* \"#utility.yul\":4877:4945   */\n      swap4\n      pop\n        /* \"#utility.yul\":4954:5019   */\n      tag_205\n        /* \"#utility.yul\":5012:5018   */\n      dup2\n        /* \"#utility.yul\":5007:5010   */\n      dup6\n        /* \"#utility.yul\":5000:5004   */\n      0x20\n        /* \"#utility.yul\":4993:4998   */\n      dup7\n        /* \"#utility.yul\":4989:5005   */\n      add\n        /* \"#utility.yul\":4954:5019   */\n      tag_99\n      jump\t// in\n    tag_205:\n        /* \"#utility.yul\":5044:5073   */\n      tag_206\n        /* \"#utility.yul\":5066:5072   */\n      dup2\n        /* \"#utility.yul\":5044:5073   */\n      tag_100\n      jump\t// in\n    tag_206:\n        /* \"#utility.yul\":5039:5042   */\n      dup5\n        /* \"#utility.yul\":5035:5074   */\n      add\n        /* \"#utility.yul\":5028:5074   */\n      swap2\n      pop\n        /* \"#utility.yul\":4805:5080   */\n      pop\n        /* \"#utility.yul\":4723:5080   */\n      swap3\n      swap2\n      pop\n      pop\n      jump\t// out\n        /* \"#utility.yul\":5086:5194   */\n    tag_109:\n        /* \"#utility.yul\":5163:5187   */\n      tag_208\n        /* \"#utility.yul\":5181:5186   */\n      dup2\n        /* \"#utility.yul\":5163:5187   */\n      tag_93\n      jump\t// in\n    tag_208:\n        /* \"#utility.yul\":5158:5161   */\n      dup3\n        /* \"#utility.yul\":5151:5188   */\n      mstore\n        /* \"#utility.yul\":5086:5194   */\n      pop\n      pop\n      jump\t// out\n        /* \"#utility.yul\":5252:6199   */\n    tag_110:\n        /* \"#utility.yul\":5353:5356   */\n      0x00\n        /* \"#utility.yul\":5389:5393   */\n      0x80\n        /* \"#utility.yul\":5384:5387   */\n      dup4\n        /* \"#utility.yul\":5380:5394   */\n      add\n        /* \"#utility.yul\":5478:5482   */\n      0x00\n        /* \"#utility.yul\":5471:5476   */\n      dup4\n        /* \"#utility.yul\":5467:5483   */\n      add\n        /* \"#utility.yul\":5461:5484   */\n      mload\n        /* \"#utility.yul\":5497:5560   */\n      tag_210\n        /* \"#utility.yul\":5554:5558   */\n      0x00\n        /* \"#utility.yul\":5549:5552   */\n      dup7\n        /* \"#utility.yul\":5545:5559   */\n      add\n        /* \"#utility.yul\":5531:5543   */\n      dup3\n        /* \"#utility.yul\":5497:5560   */\n      tag_106\n      jump\t// in\n    tag_210:\n        /* \"#utility.yul\":5404:5570   */\n      pop\n        /* \"#utility.yul\":5655:5659   */\n      0x20\n        /* \"#utility.yul\":5648:5653   */\n      dup4\n        /* \"#utility.yul\":5644:5660   */\n      add\n        /* \"#utility.yul\":5638:5661   */\n      mload\n        /* \"#utility.yul\":5708:5711   */\n      dup5\n        /* \"#utility.yul\":5702:5706   */\n      dup3\n        /* \"#utility.yul\":5698:5712   */\n      sub\n        /* \"#utility.yul\":5691:5695   */\n      0x20\n        /* \"#utility.yul\":5686:5689   */\n      dup7\n        /* \"#utility.yul\":5682:5696   */\n      add\n        /* \"#utility.yul\":5675:5713   */\n      mstore\n        /* \"#utility.yul\":5734:5807   */\n      tag_211\n        /* \"#utility.yul\":5802:5806   */\n      dup3\n        /* \"#utility.yul\":5788:5800   */\n      dup3\n        /* \"#utility.yul\":5734:5807   */\n      tag_108\n      jump\t// in\n    tag_211:\n        /* \"#utility.yul\":5726:5807   */\n      swap2\n      pop\n        /* \"#utility.yul\":5580:5818   */\n      pop\n        /* \"#utility.yul\":5905:5909   */\n      0x40\n        /* \"#utility.yul\":5898:5903   */\n      dup4\n        /* \"#utility.yul\":5894:5910   */\n      add\n        /* \"#utility.yul\":5888:5911   */\n      mload\n        /* \"#utility.yul\":5924:5987   */\n      tag_212\n        /* \"#utility.yul\":5981:5985   */\n      0x40\n        /* \"#utility.yul\":5976:5979   */\n      dup7\n        /* \"#utility.yul\":5972:5986   */\n      add\n        /* \"#utility.yul\":5958:5970   */\n      dup3\n        /* \"#utility.yul\":5924:5987   */\n      tag_109\n      jump\t// in\n    tag_212:\n        /* \"#utility.yul\":5828:5997   */\n      pop\n        /* \"#utility.yul\":6080:6084   */\n      0x60\n        /* \"#utility.yul\":6073:6078   */\n      dup4\n        /* \"#utility.yul\":6069:6085   */\n      add\n        /* \"#utility.yul\":6063:6086   */\n      mload\n        /* \"#utility.yul\":6099:6162   */\n      tag_213\n        /* \"#utility.yul\":6156:6160   */\n      0x60\n        /* \"#utility.yul\":6151:6154   */\n      dup7\n        /* \"#utility.yul\":6147:6161   */\n      add\n        /* \"#utility.yul\":6133:6145   */\n      dup3\n        /* \"#utility.yul\":6099:6162   */\n      tag_109\n      jump\t// in\n    tag_213:\n        /* \"#utility.yul\":6007:6172   */\n      pop\n        /* \"#utility.yul\":6189:6193   */\n      dup1\n        /* \"#utility.yul\":6182:6193   */\n      swap2\n      pop\n        /* \"#utility.yul\":5358:6199   */\n      pop\n        /* \"#utility.yul\":5252:6199   */\n      swap3\n      swap2\n      pop\n      pop\n      jump\t// out\n        /* \"#utility.yul\":6205:6445   */\n    tag_111:\n        /* \"#utility.yul\":6316:6326   */\n      0x00\n        /* \"#utility.yul\":6351:6439   */\n      tag_215\n        /* \"#utility.yul\":6435:6438   */\n      dup4\n        /* \"#utility.yul\":6427:6433   */\n      dup4\n        /* \"#utility.yul\":6351:6439   */\n      tag_110\n      jump\t// in\n    tag_215:\n        /* \"#utility.yul\":6337:6439   */\n      swap1\n      pop\n        /* \"#utility.yul\":6205:6445   */\n      swap3\n      swap2\n      pop\n      pop\n      jump\t// out\n        /* \"#utility.yul\":6451:6585   */\n    tag_112:\n        /* \"#utility.yul\":6542:6546   */\n      0x00\n        /* \"#utility.yul\":6574:6578   */\n      0x20\n        /* \"#utility.yul\":6569:6572   */\n      dup3\n        /* \"#utility.yul\":6565:6579   */\n      add\n        /* \"#utility.yul\":6557:6579   */\n      swap1\n      pop\n        /* \"#utility.yul\":6451:6585   */\n      swap2\n      swap1\n      pop\n      jump\t// out\n        /* \"#utility.yul\":6647:7726   */\n    tag_113:\n        /* \"#utility.yul\":6808:6811   */\n      0x00\n        /* \"#utility.yul\":6837:6912   */\n      tag_218\n        /* \"#utility.yul\":6906:6911   */\n      dup3\n        /* \"#utility.yul\":6837:6912   */\n      tag_103\n      jump\t// in\n    tag_218:\n        /* \"#utility.yul\":6928:7035   */\n      tag_219\n        /* \"#utility.yul\":7028:7034   */\n      dup2\n        /* \"#utility.yul\":7023:7026   */\n      dup6\n        /* \"#utility.yul\":6928:7035   */\n      tag_104\n      jump\t// in\n    tag_219:\n        /* \"#utility.yul\":6921:7035   */\n      swap4\n      pop\n        /* \"#utility.yul\":7061:7064   */\n      dup4\n        /* \"#utility.yul\":7106:7110   */\n      0x20\n        /* \"#utility.yul\":7098:7104   */\n      dup3\n        /* \"#utility.yul\":7094:7111   */\n      mul\n        /* \"#utility.yul\":7089:7092   */\n      dup6\n        /* \"#utility.yul\":7085:7112   */\n      add\n        /* \"#utility.yul\":7136:7213   */\n      tag_220\n        /* \"#utility.yul\":7207:7212   */\n      dup6\n        /* \"#utility.yul\":7136:7213   */\n      tag_105\n      jump\t// in\n    tag_220:\n        /* \"#utility.yul\":7236:7243   */\n      dup1\n        /* \"#utility.yul\":7267:7268   */\n      0x00\n        /* \"#utility.yul\":7252:7681   */\n    tag_221:\n        /* \"#utility.yul\":7277:7283   */\n      dup6\n        /* \"#utility.yul\":7274:7275   */\n      dup2\n        /* \"#utility.yul\":7271:7284   */\n      lt\n        /* \"#utility.yul\":7252:7681   */\n      iszero\n      tag_223\n      jumpi\n        /* \"#utility.yul\":7348:7357   */\n      dup5\n        /* \"#utility.yul\":7342:7346   */\n      dup5\n        /* \"#utility.yul\":7338:7358   */\n      sub\n        /* \"#utility.yul\":7333:7336   */\n      dup10\n        /* \"#utility.yul\":7326:7359   */\n      mstore\n        /* \"#utility.yul\":7399:7405   */\n      dup2\n        /* \"#utility.yul\":7393:7406   */\n      mload\n        /* \"#utility.yul\":7427:7533   */\n      tag_224\n        /* \"#utility.yul\":7528:7532   */\n      dup6\n        /* \"#utility.yul\":7513:7526   */\n      dup3\n        /* \"#utility.yul\":7427:7533   */\n      tag_111\n      jump\t// in\n    tag_224:\n        /* \"#utility.yul\":7419:7533   */\n      swap5\n      pop\n        /* \"#utility.yul\":7556:7637   */\n      tag_225\n        /* \"#utility.yul\":7630:7636   */\n      dup4\n        /* \"#utility.yul\":7556:7637   */\n      tag_112\n      jump\t// in\n    tag_225:\n        /* \"#utility.yul\":7546:7637   */\n      swap3\n      pop\n        /* \"#utility.yul\":7666:7670   */\n      0x20\n        /* \"#utility.yul\":7661:7664   */\n      dup11\n        /* \"#utility.yul\":7657:7671   */\n      add\n        /* \"#utility.yul\":7650:7671   */\n      swap10\n      pop\n        /* \"#utility.yul\":7312:7681   */\n      pop\n        /* \"#utility.yul\":7299:7300   */\n      0x01\n        /* \"#utility.yul\":7296:7297   */\n      dup2\n        /* \"#utility.yul\":7292:7301   */\n      add\n        /* \"#utility.yul\":7287:7301   */\n      swap1\n      pop\n        /* \"#utility.yul\":7252:7681   */\n      jump(tag_221)\n    tag_223:\n        /* \"#utility.yul\":7256:7270   */\n      pop\n        /* \"#utility.yul\":7697:7701   */\n      dup3\n        /* \"#utility.yul\":7690:7701   */\n      swap8\n      pop\n        /* \"#utility.yul\":7717:7720   */\n      dup8\n        /* \"#utility.yul\":7710:7720   */\n      swap6\n      pop\n        /* \"#utility.yul\":6813:7726   */\n      pop\n      pop\n      pop\n      pop\n      pop\n        /* \"#utility.yul\":6647:7726   */\n      swap3\n      swap2\n      pop\n      pop\n      jump\t// out\n        /* \"#utility.yul\":7732:8189   */\n    tag_22:\n        /* \"#utility.yul\":7917:7921   */\n      0x00\n        /* \"#utility.yul\":7955:7957   */\n      0x20\n        /* \"#utility.yul\":7944:7953   */\n      dup3\n        /* \"#utility.yul\":7940:7958   */\n      add\n        /* \"#utility.yul\":7932:7958   */\n      swap1\n      pop\n        /* \"#utility.yul\":8004:8013   */\n      dup2\n        /* \"#utility.yul\":7998:8002   */\n      dup2\n        /* \"#utility.yul\":7994:8014   */\n      sub\n        /* \"#utility.yul\":7990:7991   */\n      0x00\n        /* \"#utility.yul\":7979:7988   */\n      dup4\n        /* \"#utility.yul\":7975:7992   */\n      add\n        /* \"#utility.yul\":7968:8015   */\n      mstore\n        /* \"#utility.yul\":8032:8182   */\n      tag_227\n        /* \"#utility.yul\":8177:8181   */\n      dup2\n        /* \"#utility.yul\":8168:8174   */\n      dup5\n        /* \"#utility.yul\":8032:8182   */\n      tag_113\n      jump\t// in\n    tag_227:\n        /* \"#utility.yul\":8024:8182   */\n      swap1\n      pop\n        /* \"#utility.yul\":7732:8189   */\n      swap3\n      swap2\n      pop\n      pop\n      jump\t// out\n        /* \"#utility.yul\":8195:8284   */\n    tag_114:\n        /* \"#utility.yul\":8231:8238   */\n      0x00\n        /* \"#utility.yul\":8271:8277   */\n      0xffff\n        /* \"#utility.yul\":8264:8269   */\n      dup3\n        /* \"#utility.yul\":8260:8278   */\n      and\n        /* \"#utility.yul\":8249:8278   */\n      swap1\n      pop\n        /* \"#utility.yul\":8195:8284   */\n      swap2\n      swap1\n      pop\n      jump\t// out\n        /* \"#utility.yul\":8290:8410   */\n    tag_115:\n        /* \"#utility.yul\":8362:8385   */\n      tag_230\n        /* \"#utility.yul\":8379:8384   */\n      dup2\n        /* \"#utility.yul\":8362:8385   */\n      tag_114\n      jump\t// in\n    tag_230:\n        /* \"#utility.yul\":8355:8360   */\n      dup2\n        /* \"#utility.yul\":8352:8386   */\n      eq\n        /* \"#utility.yul\":8342:8404   */\n      tag_231\n      jumpi\n        /* \"#utility.yul\":8400:8401   */\n      0x00\n        /* \"#utility.yul\":8397:8398   */\n      dup1\n        /* \"#utility.yul\":8390:8402   */\n      revert\n        /* \"#utility.yul\":8342:8404   */\n    tag_231:\n        /* \"#utility.yul\":8290:8410   */\n      pop\n      jump\t// out\n        /* \"#utility.yul\":8416:8553   */\n    tag_116:\n        /* \"#utility.yul\":8461:8466   */\n      0x00\n        /* \"#utility.yul\":8499:8505   */\n      dup2\n        /* \"#utility.yul\":8486:8506   */\n      calldataload\n        /* \"#utility.yul\":8477:8506   */\n      swap1\n      pop\n        /* \"#utility.yul\":8515:8547   */\n      tag_233\n        /* \"#utility.yul\":8541:8546   */\n      dup2\n        /* \"#utility.yul\":8515:8547   */\n      tag_115\n      jump\t// in\n    tag_233:\n        /* \"#utility.yul\":8416:8553   */\n      swap3\n      swap2\n      pop\n      pop\n      jump\t// out\n        /* \"#utility.yul\":8559:8886   */\n    tag_25:\n        /* \"#utility.yul\":8617:8623   */\n      0x00\n        /* \"#utility.yul\":8666:8668   */\n      0x20\n        /* \"#utility.yul\":8654:8663   */\n      dup3\n        /* \"#utility.yul\":8645:8652   */\n      dup5\n        /* \"#utility.yul\":8641:8664   */\n      sub\n        /* \"#utility.yul\":8637:8669   */\n      slt\n        /* \"#utility.yul\":8634:8753   */\n      iszero\n      tag_235\n      jumpi\n        /* \"#utility.yul\":8672:8751   */\n      tag_236\n      tag_87\n      jump\t// in\n    tag_236:\n        /* \"#utility.yul\":8634:8753   */\n    tag_235:\n        /* \"#utility.yul\":8792:8793   */\n      0x00\n        /* \"#utility.yul\":8817:8869   */\n      tag_237\n        /* \"#utility.yul\":8861:8868   */\n      dup5\n        /* \"#utility.yul\":8852:8858   */\n      dup3\n        /* \"#utility.yul\":8841:8850   */\n      dup6\n        /* \"#utility.yul\":8837:8859   */\n      add\n        /* \"#utility.yul\":8817:8869   */\n      tag_116\n      jump\t// in\n    tag_237:\n        /* \"#utility.yul\":8807:8869   */\n      swap2\n      pop\n        /* \"#utility.yul\":8763:8879   */\n      pop\n        /* \"#utility.yul\":8559:8886   */\n      swap3\n      swap2\n      pop\n      pop\n      jump\t// out\n        /* \"#utility.yul\":8892:9007   */\n    tag_117:\n        /* \"#utility.yul\":8977:9000   */\n      tag_239\n        /* \"#utility.yul\":8994:8999   */\n      dup2\n        /* \"#utility.yul\":8977:9000   */\n      tag_114\n      jump\t// in\n    tag_239:\n        /* \"#utility.yul\":8972:8975   */\n      dup3\n        /* \"#utility.yul\":8965:9001   */\n      mstore\n        /* \"#utility.yul\":8892:9007   */\n      pop\n      pop\n      jump\t// out\n        /* \"#utility.yul\":9013:9231   */\n    tag_30:\n        /* \"#utility.yul\":9104:9108   */\n      0x00\n        /* \"#utility.yul\":9142:9144   */\n      0x20\n        /* \"#utility.yul\":9131:9140   */\n      dup3\n        /* \"#utility.yul\":9127:9145   */\n      add\n        /* \"#utility.yul\":9119:9145   */\n      swap1\n      pop\n        /* \"#utility.yul\":9155:9224   */\n      tag_241\n        /* \"#utility.yul\":9221:9222   */\n      0x00\n        /* \"#utility.yul\":9210:9219   */\n      dup4\n        /* \"#utility.yul\":9206:9223   */\n      add\n        /* \"#utility.yul\":9197:9203   */\n      dup5\n        /* \"#utility.yul\":9155:9224   */\n      tag_117\n      jump\t// in\n    tag_241:\n        /* \"#utility.yul\":9013:9231   */\n      swap3\n      swap2\n      pop\n      pop\n      jump\t// out\n        /* \"#utility.yul\":9237:9354   */\n    tag_118:\n        /* \"#utility.yul\":9346:9347   */\n      0x00\n        /* \"#utility.yul\":9343:9344   */\n      dup1\n        /* \"#utility.yul\":9336:9348   */\n      revert\n        /* \"#utility.yul\":9360:9477   */\n    tag_119:\n        /* \"#utility.yul\":9469:9470   */\n      0x00\n        /* \"#utility.yul\":9466:9467   */\n      dup1\n        /* \"#utility.yul\":9459:9471   */\n      revert\n        /* \"#utility.yul\":9483:9663   */\n    tag_120:\n        /* \"#utility.yul\":9531:9608   */\n      0x4e487b7100000000000000000000000000000000000000000000000000000000\n        /* \"#utility.yul\":9528:9529   */\n      0x00\n        /* \"#utility.yul\":9521:9609   */\n      mstore\n        /* \"#utility.yul\":9628:9632   */\n      0x41\n        /* \"#utility.yul\":9625:9626   */\n      0x04\n        /* \"#utility.yul\":9618:9633   */\n      mstore\n        /* \"#utility.yul\":9652:9656   */\n      0x24\n        /* \"#utility.yul\":9649:9650   */\n      0x00\n        /* \"#utility.yul\":9642:9657   */\n      revert\n        /* \"#utility.yul\":9669:9950   */\n    tag_121:\n        /* \"#utility.yul\":9752:9779   */\n      tag_246\n        /* \"#utility.yul\":9774:9778   */\n      dup3\n        /* \"#utility.yul\":9752:9779   */\n      tag_100\n      jump\t// in\n    tag_246:\n        /* \"#utility.yul\":9744:9750   */\n      dup2\n        /* \"#utility.yul\":9740:9780   */\n      add\n        /* \"#utility.yul\":9882:9888   */\n      dup2\n        /* \"#utility.yul\":9870:9880   */\n      dup2\n        /* \"#utility.yul\":9867:9889   */\n      lt\n        /* \"#utility.yul\":9846:9864   */\n      0xffffffffffffffff\n        /* \"#utility.yul\":9834:9844   */\n      dup3\n        /* \"#utility.yul\":9831:9865   */\n      gt\n        /* \"#utility.yul\":9828:9890   */\n      or\n        /* \"#utility.yul\":9825:9913   */\n      iszero\n      tag_247\n      jumpi\n        /* \"#utility.yul\":9893:9911   */\n      tag_248\n      tag_120\n      jump\t// in\n    tag_248:\n        /* \"#utility.yul\":9825:9913   */\n    tag_247:\n        /* \"#utility.yul\":9933:9943   */\n      dup1\n        /* \"#utility.yul\":9929:9931   */\n      0x40\n        /* \"#utility.yul\":9922:9944   */\n      mstore\n        /* \"#utility.yul\":9712:9950   */\n      pop\n        /* \"#utility.yul\":9669:9950   */\n      pop\n      pop\n      jump\t// out\n        /* \"#utility.yul\":9956:10085   */\n    tag_122:\n        /* \"#utility.yul\":9990:9996   */\n      0x00\n        /* \"#utility.yul\":10017:10037   */\n      tag_250\n      tag_86\n      jump\t// in\n    tag_250:\n        /* \"#utility.yul\":10007:10037   */\n      swap1\n      pop\n        /* \"#utility.yul\":10046:10079   */\n      tag_251\n        /* \"#utility.yul\":10074:10078   */\n      dup3\n        /* \"#utility.yul\":10066:10072   */\n      dup3\n        /* \"#utility.yul\":10046:10079   */\n      tag_121\n      jump\t// in\n    tag_251:\n        /* \"#utility.yul\":9956:10085   */\n      swap2\n      swap1\n      pop\n      jump\t// out\n        /* \"#utility.yul\":10091:10399   */\n    tag_123:\n        /* \"#utility.yul\":10153:10157   */\n      0x00\n        /* \"#utility.yul\":10243:10261   */\n      0xffffffffffffffff\n        /* \"#utility.yul\":10235:10241   */\n      dup3\n        /* \"#utility.yul\":10232:10262   */\n      gt\n        /* \"#utility.yul\":10229:10285   */\n      iszero\n      tag_253\n      jumpi\n        /* \"#utility.yul\":10265:10283   */\n      tag_254\n      tag_120\n      jump\t// in\n    tag_254:\n        /* \"#utility.yul\":10229:10285   */\n    tag_253:\n        /* \"#utility.yul\":10303:10332   */\n      tag_255\n        /* \"#utility.yul\":10325:10331   */\n      dup3\n        /* \"#utility.yul\":10303:10332   */\n      tag_100\n      jump\t// in\n    tag_255:\n        /* \"#utility.yul\":10295:10332   */\n      swap1\n      pop\n        /* \"#utility.yul\":10387:10391   */\n      0x20\n        /* \"#utility.yul\":10381:10385   */\n      dup2\n        /* \"#utility.yul\":10377:10392   */\n      add\n        /* \"#utility.yul\":10369:10392   */\n      swap1\n      pop\n        /* \"#utility.yul\":10091:10399   */\n      swap2\n      swap1\n      pop\n      jump\t// out\n        /* \"#utility.yul\":10405:10551   */\n    tag_124:\n        /* \"#utility.yul\":10502:10508   */\n      dup3\n        /* \"#utility.yul\":10497:10500   */\n      dup2\n        /* \"#utility.yul\":10492:10495   */\n      dup4\n        /* \"#utility.yul\":10479:10509   */\n      calldatacopy\n        /* \"#utility.yul\":10543:10544   */\n      0x00\n        /* \"#utility.yul\":10534:10540   */\n      dup4\n        /* \"#utility.yul\":10529:10532   */\n      dup4\n        /* \"#utility.yul\":10525:10541   */\n      add\n        /* \"#utility.yul\":10518:10545   */\n      mstore\n        /* \"#utility.yul\":10405:10551   */\n      pop\n      pop\n      pop\n      jump\t// out\n        /* \"#utility.yul\":10557:10982   */\n    tag_125:\n        /* \"#utility.yul\":10635:10640   */\n      0x00\n        /* \"#utility.yul\":10660:10726   */\n      tag_258\n        /* \"#utility.yul\":10676:10725   */\n      tag_259\n        /* \"#utility.yul\":10718:10724   */\n      dup5\n        /* \"#utility.yul\":10676:10725   */\n      tag_123\n      jump\t// in\n    tag_259:\n        /* \"#utility.yul\":10660:10726   */\n      tag_122\n      jump\t// in\n    tag_258:\n        /* \"#utility.yul\":10651:10726   */\n      swap1\n      pop\n        /* \"#utility.yul\":10749:10755   */\n      dup3\n        /* \"#utility.yul\":10742:10747   */\n      dup2\n        /* \"#utility.yul\":10735:10756   */\n      mstore\n        /* \"#utility.yul\":10787:10791   */\n      0x20\n        /* \"#utility.yul\":10780:10785   */\n      dup2\n        /* \"#utility.yul\":10776:10792   */\n      add\n        /* \"#utility.yul\":10825:10828   */\n      dup5\n        /* \"#utility.yul\":10816:10822   */\n      dup5\n        /* \"#utility.yul\":10811:10814   */\n      dup5\n        /* \"#utility.yul\":10807:10823   */\n      add\n        /* \"#utility.yul\":10804:10829   */\n      gt\n        /* \"#utility.yul\":10801:10913   */\n      iszero\n      tag_260\n      jumpi\n        /* \"#utility.yul\":10832:10911   */\n      tag_261\n      tag_119\n      jump\t// in\n    tag_261:\n        /* \"#utility.yul\":10801:10913   */\n    tag_260:\n        /* \"#utility.yul\":10922:10976   */\n      tag_262\n        /* \"#utility.yul\":10969:10975   */\n      dup5\n        /* \"#utility.yul\":10964:10967   */\n      dup3\n        /* \"#utility.yul\":10959:10962   */\n      dup6\n        /* \"#utility.yul\":10922:10976   */\n      tag_124\n      jump\t// in\n    tag_262:\n        /* \"#utility.yul\":10641:10982   */\n      pop\n        /* \"#utility.yul\":10557:10982   */\n      swap4\n      swap3\n      pop\n      pop\n      pop\n      jump\t// out\n        /* \"#utility.yul\":11002:11342   */\n    tag_126:\n        /* \"#utility.yul\":11058:11063   */\n      0x00\n        /* \"#utility.yul\":11107:11110   */\n      dup3\n        /* \"#utility.yul\":11100:11104   */\n      0x1f\n        /* \"#utility.yul\":11092:11098   */\n      dup4\n        /* \"#utility.yul\":11088:11105   */\n      add\n        /* \"#utility.yul\":11084:11111   */\n      slt\n        /* \"#utility.yul\":11074:11196   */\n      tag_264\n      jumpi\n        /* \"#utility.yul\":11115:11194   */\n      tag_265\n      tag_118\n      jump\t// in\n    tag_265:\n        /* \"#utility.yul\":11074:11196   */\n    tag_264:\n        /* \"#utility.yul\":11232:11238   */\n      dup2\n        /* \"#utility.yul\":11219:11239   */\n      calldataload\n        /* \"#utility.yul\":11257:11336   */\n      tag_266\n        /* \"#utility.yul\":11332:11335   */\n      dup5\n        /* \"#utility.yul\":11324:11330   */\n      dup3\n        /* \"#utility.yul\":11317:11321   */\n      0x20\n        /* \"#utility.yul\":11309:11315   */\n      dup7\n        /* \"#utility.yul\":11305:11322   */\n      add\n        /* \"#utility.yul\":11257:11336   */\n      tag_125\n      jump\t// in\n    tag_266:\n        /* \"#utility.yul\":11248:11336   */\n      swap2\n      pop\n        /* \"#utility.yul\":11064:11342   */\n      pop\n        /* \"#utility.yul\":11002:11342   */\n      swap3\n      swap2\n      pop\n      pop\n      jump\t// out\n        /* \"#utility.yul\":11348:11857   */\n    tag_33:\n        /* \"#utility.yul\":11417:11423   */\n      0x00\n        /* \"#utility.yul\":11466:11468   */\n      0x20\n        /* \"#utility.yul\":11454:11463   */\n      dup3\n        /* \"#utility.yul\":11445:11452   */\n      dup5\n        /* \"#utility.yul\":11441:11464   */\n      sub\n        /* \"#utility.yul\":11437:11469   */\n      slt\n        /* \"#utility.yul\":11434:11553   */\n      iszero\n      tag_268\n      jumpi\n        /* \"#utility.yul\":11472:11551   */\n      tag_269\n      tag_87\n      jump\t// in\n    tag_269:\n        /* \"#utility.yul\":11434:11553   */\n    tag_268:\n        /* \"#utility.yul\":11620:11621   */\n      0x00\n        /* \"#utility.yul\":11609:11618   */\n      dup3\n        /* \"#utility.yul\":11605:11622   */\n      add\n        /* \"#utility.yul\":11592:11623   */\n      calldataload\n        /* \"#utility.yul\":11650:11668   */\n      0xffffffffffffffff\n        /* \"#utility.yul\":11642:11648   */\n      dup2\n        /* \"#utility.yul\":11639:11669   */\n      gt\n        /* \"#utility.yul\":11636:11753   */\n      iszero\n      tag_270\n      jumpi\n        /* \"#utility.yul\":11672:11751   */\n      tag_271\n      tag_88\n      jump\t// in\n    tag_271:\n        /* \"#utility.yul\":11636:11753   */\n    tag_270:\n        /* \"#utility.yul\":11777:11840   */\n      tag_272\n        /* \"#utility.yul\":11832:11839   */\n      dup5\n        /* \"#utility.yul\":11823:11829   */\n      dup3\n        /* \"#utility.yul\":11812:11821   */\n      dup6\n        /* \"#utility.yul\":11808:11830   */\n      add\n        /* \"#utility.yul\":11777:11840   */\n      tag_126\n      jump\t// in\n    tag_272:\n        /* \"#utility.yul\":11767:11840   */\n      swap2\n      pop\n        /* \"#utility.yul\":11563:11850   */\n      pop\n        /* \"#utility.yul\":11348:11857   */\n      swap3\n      swap2\n      pop\n      pop\n      jump\t// out\n        /* \"#utility.yul\":11863:12085   */\n    tag_38:\n        /* \"#utility.yul\":11956:11960   */\n      0x00\n        /* \"#utility.yul\":11994:11996   */\n      0x20\n        /* \"#utility.yul\":11983:11992   */\n      dup3\n        /* \"#utility.yul\":11979:11997   */\n      add\n        /* \"#utility.yul\":11971:11997   */\n      swap1\n      pop\n        /* \"#utility.yul\":12007:12078   */\n      tag_274\n        /* \"#utility.yul\":12075:12076   */\n      0x00\n        /* \"#utility.yul\":12064:12073   */\n      dup4\n        /* \"#utility.yul\":12060:12077   */\n      add\n        /* \"#utility.yul\":12051:12057   */\n      dup5\n        /* \"#utility.yul\":12007:12078   */\n      tag_96\n      jump\t// in\n    tag_274:\n        /* \"#utility.yul\":11863:12085   */\n      swap3\n      swap2\n      pop\n      pop\n      jump\t// out\n        /* \"#utility.yul\":12091:12420   */\n    tag_41:\n        /* \"#utility.yul\":12150:12156   */\n      0x00\n        /* \"#utility.yul\":12199:12201   */\n      0x20\n        /* \"#utility.yul\":12187:12196   */\n      dup3\n        /* \"#utility.yul\":12178:12185   */\n      dup5\n        /* \"#utility.yul\":12174:12197   */\n      sub\n        /* \"#utility.yul\":12170:12202   */\n      slt\n        /* \"#utility.yul\":12167:12286   */\n      iszero\n      tag_276\n      jumpi\n        /* \"#utility.yul\":12205:12284   */\n      tag_277\n      tag_87\n      jump\t// in\n    tag_277:\n        /* \"#utility.yul\":12167:12286   */\n    tag_276:\n        /* \"#utility.yul\":12325:12326   */\n      0x00\n        /* \"#utility.yul\":12350:12403   */\n      tag_278\n        /* \"#utility.yul\":12395:12402   */\n      dup5\n        /* \"#utility.yul\":12386:12392   */\n      dup3\n        /* \"#utility.yul\":12375:12384   */\n      dup6\n        /* \"#utility.yul\":12371:12393   */\n      add\n        /* \"#utility.yul\":12350:12403   */\n      tag_95\n      jump\t// in\n    tag_278:\n        /* \"#utility.yul\":12340:12403   */\n      swap2\n      pop\n        /* \"#utility.yul\":12296:12413   */\n      pop\n        /* \"#utility.yul\":12091:12420   */\n      swap3\n      swap2\n      pop\n      pop\n      jump\t// out\n        /* \"#utility.yul\":12478:13435   */\n    tag_127:\n        /* \"#utility.yul\":12589:12592   */\n      0x00\n        /* \"#utility.yul\":12625:12629   */\n      0x80\n        /* \"#utility.yul\":12620:12623   */\n      dup4\n        /* \"#utility.yul\":12616:12630   */\n      add\n        /* \"#utility.yul\":12714:12718   */\n      0x00\n        /* \"#utility.yul\":12707:12712   */\n      dup4\n        /* \"#utility.yul\":12703:12719   */\n      add\n        /* \"#utility.yul\":12697:12720   */\n      mload\n        /* \"#utility.yul\":12733:12796   */\n      tag_280\n        /* \"#utility.yul\":12790:12794   */\n      0x00\n        /* \"#utility.yul\":12785:12788   */\n      dup7\n        /* \"#utility.yul\":12781:12795   */\n      add\n        /* \"#utility.yul\":12767:12779   */\n      dup3\n        /* \"#utility.yul\":12733:12796   */\n      tag_106\n      jump\t// in\n    tag_280:\n        /* \"#utility.yul\":12640:12806   */\n      pop\n        /* \"#utility.yul\":12891:12895   */\n      0x20\n        /* \"#utility.yul\":12884:12889   */\n      dup4\n        /* \"#utility.yul\":12880:12896   */\n      add\n        /* \"#utility.yul\":12874:12897   */\n      mload\n        /* \"#utility.yul\":12944:12947   */\n      dup5\n        /* \"#utility.yul\":12938:12942   */\n      dup3\n        /* \"#utility.yul\":12934:12948   */\n      sub\n        /* \"#utility.yul\":12927:12931   */\n      0x20\n        /* \"#utility.yul\":12922:12925   */\n      dup7\n        /* \"#utility.yul\":12918:12932   */\n      add\n        /* \"#utility.yul\":12911:12949   */\n      mstore\n        /* \"#utility.yul\":12970:13043   */\n      tag_281\n        /* \"#utility.yul\":13038:13042   */\n      dup3\n        /* \"#utility.yul\":13024:13036   */\n      dup3\n        /* \"#utility.yul\":12970:13043   */\n      tag_108\n      jump\t// in\n    tag_281:\n        /* \"#utility.yul\":12962:13043   */\n      swap2\n      pop\n        /* \"#utility.yul\":12816:13054   */\n      pop\n        /* \"#utility.yul\":13141:13145   */\n      0x40\n        /* \"#utility.yul\":13134:13139   */\n      dup4\n        /* \"#utility.yul\":13130:13146   */\n      add\n        /* \"#utility.yul\":13124:13147   */\n      mload\n        /* \"#utility.yul\":13160:13223   */\n      tag_282\n        /* \"#utility.yul\":13217:13221   */\n      0x40\n        /* \"#utility.yul\":13212:13215   */\n      dup7\n        /* \"#utility.yul\":13208:13222   */\n      add\n        /* \"#utility.yul\":13194:13206   */\n      dup3\n        /* \"#utility.yul\":13160:13223   */\n      tag_109\n      jump\t// in\n    tag_282:\n        /* \"#utility.yul\":13064:13233   */\n      pop\n        /* \"#utility.yul\":13316:13320   */\n      0x60\n        /* \"#utility.yul\":13309:13314   */\n      dup4\n        /* \"#utility.yul\":13305:13321   */\n      add\n        /* \"#utility.yul\":13299:13322   */\n      mload\n        /* \"#utility.yul\":13335:13398   */\n      tag_283\n        /* \"#utility.yul\":13392:13396   */\n      0x60\n        /* \"#utility.yul\":13387:13390   */\n      dup7\n        /* \"#utility.yul\":13383:13397   */\n      add\n        /* \"#utility.yul\":13369:13381   */\n      dup3\n        /* \"#utility.yul\":13335:13398   */\n      tag_109\n      jump\t// in\n    tag_283:\n        /* \"#utility.yul\":13243:13408   */\n      pop\n        /* \"#utility.yul\":13425:13429   */\n      dup1\n        /* \"#utility.yul\":13418:13429   */\n      swap2\n      pop\n        /* \"#utility.yul\":12594:13435   */\n      pop\n        /* \"#utility.yul\":12478:13435   */\n      swap3\n      swap2\n      pop\n      pop\n      jump\t// out\n        /* \"#utility.yul\":13441:13798   */\n    tag_44:\n        /* \"#utility.yul\":13576:13580   */\n      0x00\n        /* \"#utility.yul\":13614:13616   */\n      0x20\n        /* \"#utility.yul\":13603:13612   */\n      dup3\n        /* \"#utility.yul\":13599:13617   */\n      add\n        /* \"#utility.yul\":13591:13617   */\n      swap1\n      pop\n        /* \"#utility.yul\":13663:13672   */\n      dup2\n        /* \"#utility.yul\":13657:13661   */\n      dup2\n        /* \"#utility.yul\":13653:13673   */\n      sub\n        /* \"#utility.yul\":13649:13650   */\n      0x00\n        /* \"#utility.yul\":13638:13647   */\n      dup4\n        /* \"#utility.yul\":13634:13651   */\n      add\n        /* \"#utility.yul\":13627:13674   */\n      mstore\n        /* \"#utility.yul\":13691:13791   */\n      tag_285\n        /* \"#utility.yul\":13786:13790   */\n      dup2\n        /* \"#utility.yul\":13777:13783   */\n      dup5\n        /* \"#utility.yul\":13691:13791   */\n      tag_127\n      jump\t// in\n    tag_285:\n        /* \"#utility.yul\":13683:13791   */\n      swap1\n      pop\n        /* \"#utility.yul\":13441:13798   */\n      swap3\n      swap2\n      pop\n      pop\n      jump\t// out\n        /* \"#utility.yul\":13804:13984   */\n    tag_128:\n        /* \"#utility.yul\":13852:13929   */\n      0x4e487b7100000000000000000000000000000000000000000000000000000000\n        /* \"#utility.yul\":13849:13850   */\n      0x00\n        /* \"#utility.yul\":13842:13930   */\n      mstore\n        /* \"#utility.yul\":13949:13953   */\n      0x22\n        /* \"#utility.yul\":13946:13947   */\n      0x04\n        /* \"#utility.yul\":13939:13954   */\n      mstore\n        /* \"#utility.yul\":13973:13977   */\n      0x24\n        /* \"#utility.yul\":13970:13971   */\n      0x00\n        /* \"#utility.yul\":13963:13978   */\n      revert\n        /* \"#utility.yul\":13990:14310   */\n    tag_48:\n        /* \"#utility.yul\":14034:14040   */\n      0x00\n        /* \"#utility.yul\":14071:14072   */\n      0x02\n        /* \"#utility.yul\":14065:14069   */\n      dup3\n        /* \"#utility.yul\":14061:14073   */\n      div\n        /* \"#utility.yul\":14051:14073   */\n      swap1\n      pop\n        /* \"#utility.yul\":14118:14119   */\n      0x01\n        /* \"#utility.yul\":14112:14116   */\n      dup3\n        /* \"#utility.yul\":14108:14120   */\n      and\n        /* \"#utility.yul\":14139:14157   */\n      dup1\n        /* \"#utility.yul\":14129:14210   */\n      tag_288\n      jumpi\n        /* \"#utility.yul\":14195:14199   */\n      0x7f\n        /* \"#utility.yul\":14187:14193   */\n      dup3\n        /* \"#utility.yul\":14183:14200   */\n      and\n        /* \"#utility.yul\":14173:14200   */\n      swap2\n      pop\n        /* \"#utility.yul\":14129:14210   */\n    tag_288:\n        /* \"#utility.yul\":14257:14259   */\n      0x20\n        /* \"#utility.yul\":14249:14255   */\n      dup3\n        /* \"#utility.yul\":14246:14260   */\n      lt\n        /* \"#utility.yul\":14226:14244   */\n      dup2\n        /* \"#utility.yul\":14223:14261   */\n      sub\n        /* \"#utility.yul\":14220:14304   */\n      tag_289\n      jumpi\n        /* \"#utility.yul\":14276:14294   */\n      tag_290\n      tag_128\n      jump\t// in\n    tag_290:\n        /* \"#utility.yul\":14220:14304   */\n    tag_289:\n        /* \"#utility.yul\":14041:14310   */\n      pop\n        /* \"#utility.yul\":13990:14310   */\n      swap2\n      swap1\n      pop\n      jump\t// out\n        /* \"#utility.yul\":14316:14488   */\n    tag_129:\n        /* \"#utility.yul\":14456:14480   */\n      0x594f5520415245204e4f5420544845204f574e45522100000000000000000000\n        /* \"#utility.yul\":14452:14453   */\n      0x00\n        /* \"#utility.yul\":14444:14450   */\n      dup3\n        /* \"#utility.yul\":14440:14454   */\n      add\n        /* \"#utility.yul\":14433:14481   */\n      mstore\n        /* \"#utility.yul\":14316:14488   */\n      pop\n      jump\t// out\n        /* \"#utility.yul\":14494:14860   */\n    tag_130:\n        /* \"#utility.yul\":14636:14639   */\n      0x00\n        /* \"#utility.yul\":14657:14724   */\n      tag_293\n        /* \"#utility.yul\":14721:14723   */\n      0x16\n        /* \"#utility.yul\":14716:14719   */\n      dup4\n        /* \"#utility.yul\":14657:14724   */\n      tag_98\n      jump\t// in\n    tag_293:\n        /* \"#utility.yul\":14650:14724   */\n      swap2\n      pop\n        /* \"#utility.yul\":14733:14826   */\n      tag_294\n        /* \"#utility.yul\":14822:14825   */\n      dup3\n        /* \"#utility.yul\":14733:14826   */\n      tag_129\n      jump\t// in\n    tag_294:\n        /* \"#utility.yul\":14851:14853   */\n      0x20\n        /* \"#utility.yul\":14846:14849   */\n      dup3\n        /* \"#utility.yul\":14842:14854   */\n      add\n        /* \"#utility.yul\":14835:14854   */\n      swap1\n      pop\n        /* \"#utility.yul\":14494:14860   */\n      swap2\n      swap1\n      pop\n      jump\t// out\n        /* \"#utility.yul\":14866:15285   */\n    tag_65:\n        /* \"#utility.yul\":15032:15036   */\n      0x00\n        /* \"#utility.yul\":15070:15072   */\n      0x20\n        /* \"#utility.yul\":15059:15068   */\n      dup3\n        /* \"#utility.yul\":15055:15073   */\n      add\n        /* \"#utility.yul\":15047:15073   */\n      swap1\n      pop\n        /* \"#utility.yul\":15119:15128   */\n      dup2\n        /* \"#utility.yul\":15113:15117   */\n      dup2\n        /* \"#utility.yul\":15109:15129   */\n      sub\n        /* \"#utility.yul\":15105:15106   */\n      0x00\n        /* \"#utility.yul\":15094:15103   */\n      dup4\n        /* \"#utility.yul\":15090:15107   */\n      add\n        /* \"#utility.yul\":15083:15130   */\n      mstore\n        /* \"#utility.yul\":15147:15278   */\n      tag_296\n        /* \"#utility.yul\":15273:15277   */\n      dup2\n        /* \"#utility.yul\":15147:15278   */\n      tag_130\n      jump\t// in\n    tag_296:\n        /* \"#utility.yul\":15139:15278   */\n      swap1\n      pop\n        /* \"#utility.yul\":14866:15285   */\n      swap2\n      swap1\n      pop\n      jump\t// out\n        /* \"#utility.yul\":15291:15464   */\n    tag_131:\n        /* \"#utility.yul\":15431:15456   */\n      0x547765657420697320746f6f206c6f6e672062726f2021000000000000000000\n        /* \"#utility.yul\":15427:15428   */\n      0x00\n        /* \"#utility.yul\":15419:15425   */\n      dup3\n        /* \"#utility.yul\":15415:15429   */\n      add\n        /* \"#utility.yul\":15408:15457   */\n      mstore\n        /* \"#utility.yul\":15291:15464   */\n      pop\n      jump\t// out\n        /* \"#utility.yul\":15470:15836   */\n    tag_132:\n        /* \"#utility.yul\":15612:15615   */\n      0x00\n        /* \"#utility.yul\":15633:15700   */\n      tag_299\n        /* \"#utility.yul\":15697:15699   */\n      0x17\n        /* \"#utility.yul\":15692:15695   */\n      dup4\n        /* \"#utility.yul\":15633:15700   */\n      tag_98\n      jump\t// in\n    tag_299:\n        /* \"#utility.yul\":15626:15700   */\n      swap2\n      pop\n        /* \"#utility.yul\":15709:15802   */\n      tag_300\n        /* \"#utility.yul\":15798:15801   */\n      dup3\n        /* \"#utility.yul\":15709:15802   */\n      tag_131\n      jump\t// in\n    tag_300:\n        /* \"#utility.yul\":15827:15829   */\n      0x20\n        /* \"#utility.yul\":15822:15825   */\n      dup3\n        /* \"#utility.yul\":15818:15830   */\n      add\n        /* \"#utility.yul\":15811:15830   */\n      swap1\n      pop\n        /* \"#utility.yul\":15470:15836   */\n      swap2\n      swap1\n      pop\n      jump\t// out\n        /* \"#utility.yul\":15842:16261   */\n    tag_70:\n        /* \"#utility.yul\":16008:16012   */\n      0x00\n        /* \"#utility.yul\":16046:16048   */\n      0x20\n        /* \"#utility.yul\":16035:16044   */\n      dup3\n        /* \"#utility.yul\":16031:16049   */\n      add\n        /* \"#utility.yul\":16023:16049   */\n      swap1\n      pop\n        /* \"#utility.yul\":16095:16104   */\n      dup2\n        /* \"#utility.yul\":16089:16093   */\n      dup2\n        /* \"#utility.yul\":16085:16105   */\n      sub\n        /* \"#utility.yul\":16081:16082   */\n      0x00\n        /* \"#utility.yul\":16070:16079   */\n      dup4\n        /* \"#utility.yul\":16066:16083   */\n      add\n        /* \"#utility.yul\":16059:16106   */\n      mstore\n        /* \"#utility.yul\":16123:16254   */\n      tag_302\n        /* \"#utility.yul\":16249:16253   */\n      dup2\n        /* \"#utility.yul\":16123:16254   */\n      tag_132\n      jump\t// in\n    tag_302:\n        /* \"#utility.yul\":16115:16254   */\n      swap1\n      pop\n        /* \"#utility.yul\":15842:16261   */\n      swap2\n      swap1\n      pop\n      jump\t// out\n        /* \"#utility.yul\":16267:16408   */\n    tag_133:\n        /* \"#utility.yul\":16316:16320   */\n      0x00\n        /* \"#utility.yul\":16339:16342   */\n      dup2\n        /* \"#utility.yul\":16331:16342   */\n      swap1\n      pop\n        /* \"#utility.yul\":16362:16365   */\n      dup2\n        /* \"#utility.yul\":16359:16360   */\n      0x00\n        /* \"#utility.yul\":16352:16366   */\n      mstore\n        /* \"#utility.yul\":16396:16400   */\n      0x20\n        /* \"#utility.yul\":16393:16394   */\n      0x00\n        /* \"#utility.yul\":16383:16401   */\n      keccak256\n        /* \"#utility.yul\":16375:16401   */\n      swap1\n      pop\n        /* \"#utility.yul\":16267:16408   */\n      swap2\n      swap1\n      pop\n      jump\t// out\n        /* \"#utility.yul\":16414:16507   */\n    tag_134:\n        /* \"#utility.yul\":16451:16457   */\n      0x00\n        /* \"#utility.yul\":16498:16500   */\n      0x20\n        /* \"#utility.yul\":16493:16495   */\n      0x1f\n        /* \"#utility.yul\":16486:16491   */\n      dup4\n        /* \"#utility.yul\":16482:16496   */\n      add\n        /* \"#utility.yul\":16478:16501   */\n      div\n        /* \"#utility.yul\":16468:16501   */\n      swap1\n      pop\n        /* \"#utility.yul\":16414:16507   */\n      swap2\n      swap1\n      pop\n      jump\t// out\n        /* \"#utility.yul\":16513:16620   */\n    tag_135:\n        /* \"#utility.yul\":16557:16565   */\n      0x00\n        /* \"#utility.yul\":16607:16612   */\n      dup3\n        /* \"#utility.yul\":16601:16605   */\n      dup3\n        /* \"#utility.yul\":16597:16613   */\n      shl\n        /* \"#utility.yul\":16576:16613   */\n      swap1\n      pop\n        /* \"#utility.yul\":16513:16620   */\n      swap3\n      swap2\n      pop\n      pop\n      jump\t// out\n        /* \"#utility.yul\":16626:17019   */\n    tag_136:\n        /* \"#utility.yul\":16695:16701   */\n      0x00\n        /* \"#utility.yul\":16745:16746   */\n      0x08\n        /* \"#utility.yul\":16733:16743   */\n      dup4\n        /* \"#utility.yul\":16729:16747   */\n      mul\n        /* \"#utility.yul\":16768:16865   */\n      tag_307\n        /* \"#utility.yul\":16798:16864   */\n      0xffffffffffffffffffffffffffffffffffffffffffffffffffffffffffffffff\n        /* \"#utility.yul\":16787:16796   */\n      dup3\n        /* \"#utility.yul\":16768:16865   */\n      tag_135\n      jump\t// in\n    tag_307:\n        /* \"#utility.yul\":16886:16925   */\n      tag_308\n        /* \"#utility.yul\":16916:16924   */\n      dup7\n        /* \"#utility.yul\":16905:16914   */\n      dup4\n        /* \"#utility.yul\":16886:16925   */\n      tag_135\n      jump\t// in\n    tag_308:\n        /* \"#utility.yul\":16874:16925   */\n      swap6\n      pop\n        /* \"#utility.yul\":16958:16962   */\n      dup1\n        /* \"#utility.yul\":16954:16963   */\n      not\n        /* \"#utility.yul\":16947:16952   */\n      dup5\n        /* \"#utility.yul\":16943:16964   */\n      and\n        /* \"#utility.yul\":16934:16964   */\n      swap4\n      pop\n        /* \"#utility.yul\":17007:17011   */\n      dup1\n        /* \"#utility.yul\":16997:17005   */\n      dup7\n        /* \"#utility.yul\":16993:17012   */\n      and\n        /* \"#utility.yul\":16986:16991   */\n      dup5\n        /* \"#utility.yul\":16983:17013   */\n      or\n        /* \"#utility.yul\":16973:17013   */\n      swap3\n      pop\n        /* \"#utility.yul\":16702:17019   */\n      pop\n      pop\n        /* \"#utility.yul\":16626:17019   */\n      swap4\n      swap3\n      pop\n      pop\n      pop\n      jump\t// out\n        /* \"#utility.yul\":17025:17085   */\n    tag_137:\n        /* \"#utility.yul\":17053:17056   */\n      0x00\n        /* \"#utility.yul\":17074:17079   */\n      dup2\n        /* \"#utility.yul\":17067:17079   */\n      swap1\n      pop\n        /* \"#utility.yul\":17025:17085   */\n      swap2\n      swap1\n      pop\n      jump\t// out\n        /* \"#utility.yul\":17091:17233   */\n    tag_138:\n        /* \"#utility.yul\":17141:17150   */\n      0x00\n        /* \"#utility.yul\":17174:17227   */\n      tag_311\n        /* \"#utility.yul\":17192:17226   */\n      tag_312\n        /* \"#utility.yul\":17201:17225   */\n      tag_313\n        /* \"#utility.yul\":17219:17224   */\n      dup5\n        /* \"#utility.yul\":17201:17225   */\n      tag_93\n      jump\t// in\n    tag_313:\n        /* \"#utility.yul\":17192:17226   */\n      tag_137\n      jump\t// in\n    tag_312:\n        /* \"#utility.yul\":17174:17227   */\n      tag_93\n      jump\t// in\n    tag_311:\n        /* \"#utility.yul\":17161:17227   */\n      swap1\n      pop\n        /* \"#utility.yul\":17091:17233   */\n      swap2\n      swap1\n      pop\n      jump\t// out\n        /* \"#utility.yul\":17239:17314   */\n    tag_139:\n        /* \"#utility.yul\":17282:17285   */\n      0x00\n        /* \"#utility.yul\":17303:17308   */\n      dup2\n        /* \"#utility.yul\":17296:17308   */\n      swap1\n      pop\n        /* \"#utility.yul\":17239:17314   */\n      swap2\n      swap1\n      pop\n      jump\t// out\n        /* \"#utility.yul\":17320:17589   */\n    tag_140:\n        /* \"#utility.yul\":17430:17469   */\n      tag_316\n        /* \"#utility.yul\":17461:17468   */\n      dup4\n        /* \"#utility.yul\":17430:17469   */\n      tag_138\n      jump\t// in\n    tag_316:\n        /* \"#utility.yul\":17491:17582   */\n      tag_317\n        /* \"#utility.yul\":17540:17581   */\n      tag_318\n        /* \"#utility.yul\":17564:17580   */\n      dup3\n        /* \"#utility.yul\":17540:17581   */\n      tag_139\n      jump\t// in\n    tag_318:\n        /* \"#utility.yul\":17532:17538   */\n      dup5\n        /* \"#utility.yul\":17525:17529   */\n      dup5\n        /* \"#utility.yul\":17519:17530   */\n      sload\n        /* \"#utility.yul\":17491:17582   */\n      tag_136\n      jump\t// in\n    tag_317:\n        /* \"#utility.yul\":17485:17489   */\n      dup3\n        /* \"#utility.yul\":17478:17583   */\n      sstore\n        /* \"#utility.yul\":17396:17589   */\n      pop\n        /* \"#utility.yul\":17320:17589   */\n      pop\n      pop\n      pop\n      jump\t// out\n        /* \"#utility.yul\":17595:17668   */\n    tag_141:\n        /* \"#utility.yul\":17640:17643   */\n      0x00\n        /* \"#utility.yul\":17595:17668   */\n      swap1\n      jump\t// out\n        /* \"#utility.yul\":17674:17863   */\n    tag_142:\n        /* \"#utility.yul\":17751:17783   */\n      tag_321\n      tag_141\n      jump\t// in\n    tag_321:\n        /* \"#utility.yul\":17792:17857   */\n      tag_322\n        /* \"#utility.yul\":17850:17856   */\n      dup2\n        /* \"#utility.yul\":17842:17848   */\n      dup5\n        /* \"#utility.yul\":17836:17840   */\n      dup5\n        /* \"#utility.yul\":17792:17857   */\n      tag_140\n      jump\t// in\n    tag_322:\n        /* \"#utility.yul\":17727:17863   */\n      pop\n        /* \"#utility.yul\":17674:17863   */\n      pop\n      pop\n      jump\t// out\n        /* \"#utility.yul\":17869:18055   */\n    tag_143:\n        /* \"#utility.yul\":17929:18049   */\n    tag_324:\n        /* \"#utility.yul\":17946:17949   */\n      dup2\n        /* \"#utility.yul\":17939:17944   */\n      dup2\n        /* \"#utility.yul\":17936:17950   */\n      lt\n        /* \"#utility.yul\":17929:18049   */\n      iszero\n      tag_326\n      jumpi\n        /* \"#utility.yul\":18000:18039   */\n      tag_327\n        /* \"#utility.yul\":18037:18038   */\n      0x00\n        /* \"#utility.yul\":18030:18035   */\n      dup3\n        /* \"#utility.yul\":18000:18039   */\n      tag_142\n      jump\t// in\n    tag_327:\n        /* \"#utility.yul\":17973:17974   */\n      0x01\n        /* \"#utility.yul\":17966:17971   */\n      dup2\n        /* \"#utility.yul\":17962:17975   */\n      add\n        /* \"#utility.yul\":17953:17975   */\n      swap1\n      pop\n        /* \"#utility.yul\":17929:18049   */\n      jump(tag_324)\n    tag_326:\n        /* \"#utility.yul\":17869:18055   */\n      pop\n      pop\n      jump\t// out\n        /* \"#utility.yul\":18061:18604   */\n    tag_144:\n        /* \"#utility.yul\":18162:18164   */\n      0x1f\n        /* \"#utility.yul\":18157:18160   */\n      dup3\n        /* \"#utility.yul\":18154:18165   */\n      gt\n        /* \"#utility.yul\":18151:18597   */\n      iszero\n      tag_329\n      jumpi\n        /* \"#utility.yul\":18196:18234   */\n      tag_330\n        /* \"#utility.yul\":18228:18233   */\n      dup2\n        /* \"#utility.yul\":18196:18234   */\n      tag_133\n      jump\t// in\n    tag_330:\n        /* \"#utility.yul\":18280:18309   */\n      tag_331\n        /* \"#utility.yul\":18298:18308   */\n      dup5\n        /* \"#utility.yul\":18280:18309   */\n      tag_134\n      jump\t// in\n    tag_331:\n        /* \"#utility.yul\":18270:18278   */\n      dup2\n        /* \"#utility.yul\":18266:18310   */\n      add\n        /* \"#utility.yul\":18463:18465   */\n      0x20\n        /* \"#utility.yul\":18451:18461   */\n      dup6\n        /* \"#utility.yul\":18448:18466   */\n      lt\n        /* \"#utility.yul\":18445:18494   */\n      iszero\n      tag_332\n      jumpi\n        /* \"#utility.yul\":18484:18492   */\n      dup2\n        /* \"#utility.yul\":18469:18492   */\n      swap1\n      pop\n        /* \"#utility.yul\":18445:18494   */\n    tag_332:\n        /* \"#utility.yul\":18507:18587   */\n      tag_333\n        /* \"#utility.yul\":18563:18585   */\n      tag_334\n        /* \"#utility.yul\":18581:18584   */\n      dup6\n        /* \"#utility.yul\":18563:18585   */\n      tag_134\n      jump\t// in\n    tag_334:\n        /* \"#utility.yul\":18553:18561   */\n      dup4\n        /* \"#utility.yul\":18549:18586   */\n      add\n        /* \"#utility.yul\":18536:18547   */\n      dup3\n        /* \"#utility.yul\":18507:18587   */\n      tag_143\n      jump\t// in\n    tag_333:\n        /* \"#utility.yul\":18166:18597   */\n      pop\n      pop\n        /* \"#utility.yul\":18151:18597   */\n    tag_329:\n        /* \"#utility.yul\":18061:18604   */\n      pop\n      pop\n      pop\n      jump\t// out\n        /* \"#utility.yul\":18610:18727   */\n    tag_145:\n        /* \"#utility.yul\":18664:18672   */\n      0x00\n        /* \"#utility.yul\":18714:18719   */\n      dup3\n        /* \"#utility.yul\":18708:18712   */\n      dup3\n        /* \"#utility.yul\":18704:18720   */\n      shr\n        /* \"#utility.yul\":18683:18720   */\n      swap1\n      pop\n        /* \"#utility.yul\":18610:18727   */\n      swap3\n      swap2\n      pop\n      pop\n      jump\t// out\n        /* \"#utility.yul\":18733:18902   */\n    tag_146:\n        /* \"#utility.yul\":18777:18783   */\n      0x00\n        /* \"#utility.yul\":18810:18861   */\n      tag_337\n        /* \"#utility.yul\":18858:18859   */\n      0x00\n        /* \"#utility.yul\":18854:18860   */\n      not\n        /* \"#utility.yul\":18846:18851   */\n      dup5\n        /* \"#utility.yul\":18843:18844   */\n      0x08\n        /* \"#utility.yul\":18839:18852   */\n      mul\n        /* \"#utility.yul\":18810:18861   */\n      tag_145\n      jump\t// in\n    tag_337:\n        /* \"#utility.yul\":18806:18862   */\n      not\n        /* \"#utility.yul\":18891:18895   */\n      dup1\n        /* \"#utility.yul\":18885:18889   */\n      dup4\n        /* \"#utility.yul\":18881:18896   */\n      and\n        /* \"#utility.yul\":18871:18896   */\n      swap2\n      pop\n        /* \"#utility.yul\":18784:18902   */\n      pop\n        /* \"#utility.yul\":18733:18902   */\n      swap3\n      swap2\n      pop\n      pop\n      jump\t// out\n        /* \"#utility.yul\":18907:19202   */\n    tag_147:\n        /* \"#utility.yul\":18983:18987   */\n      0x00\n        /* \"#utility.yul\":19129:19158   */\n      tag_339\n        /* \"#utility.yul\":19154:19157   */\n      dup4\n        /* \"#utility.yul\":19148:19152   */\n      dup4\n        /* \"#utility.yul\":19129:19158   */\n      tag_146\n      jump\t// in\n    tag_339:\n        /* \"#utility.yul\":19121:19158   */\n      swap2\n      pop\n        /* \"#utility.yul\":19191:19194   */\n      dup3\n        /* \"#utility.yul\":19188:19189   */\n      0x02\n        /* \"#utility.yul\":19184:19195   */\n      mul\n        /* \"#utility.yul\":19178:19182   */\n      dup3\n        /* \"#utility.yul\":19175:19196   */\n      or\n        /* \"#utility.yul\":19167:19196   */\n      swap1\n      pop\n        /* \"#utility.yul\":18907:19202   */\n      swap3\n      swap2\n      pop\n      pop\n      jump\t// out\n        /* \"#utility.yul\":19207:20602   */\n    tag_73:\n        /* \"#utility.yul\":19324:19361   */\n      tag_341\n        /* \"#utility.yul\":19357:19360   */\n      dup3\n        /* \"#utility.yul\":19324:19361   */\n      tag_97\n      jump\t// in\n    tag_341:\n        /* \"#utility.yul\":19426:19444   */\n      0xffffffffffffffff\n        /* \"#utility.yul\":19418:19424   */\n      dup2\n        /* \"#utility.yul\":19415:19445   */\n      gt\n        /* \"#utility.yul\":19412:19468   */\n      iszero\n      tag_342\n      jumpi\n        /* \"#utility.yul\":19448:19466   */\n      tag_343\n      tag_120\n      jump\t// in\n    tag_343:\n        /* \"#utility.yul\":19412:19468   */\n    tag_342:\n        /* \"#utility.yul\":19492:19530   */\n      tag_344\n        /* \"#utility.yul\":19524:19528   */\n      dup3\n        /* \"#utility.yul\":19518:19529   */\n      sload\n        /* \"#utility.yul\":19492:19530   */\n      tag_48\n      jump\t// in\n    tag_344:\n        /* \"#utility.yul\":19577:19644   */\n      tag_345\n        /* \"#utility.yul\":19637:19643   */\n      dup3\n        /* \"#utility.yul\":19629:19635   */\n      dup3\n        /* \"#utility.yul\":19623:19627   */\n      dup6\n        /* \"#utility.yul\":19577:19644   */\n      tag_144\n      jump\t// in\n    tag_345:\n        /* \"#utility.yul\":19671:19672   */\n      0x00\n        /* \"#utility.yul\":19695:19699   */\n      0x20\n        /* \"#utility.yul\":19682:19699   */\n      swap1\n      pop\n        /* \"#utility.yul\":19727:19729   */\n      0x1f\n        /* \"#utility.yul\":19719:19725   */\n      dup4\n        /* \"#utility.yul\":19716:19730   */\n      gt\n        /* \"#utility.yul\":19744:19745   */\n      0x01\n        /* \"#utility.yul\":19739:20357   */\n      dup2\n      eq\n      tag_347\n      jumpi\n        /* \"#utility.yul\":20401:20402   */\n      0x00\n        /* \"#utility.yul\":20418:20424   */\n      dup5\n        /* \"#utility.yul\":20415:20492   */\n      iszero\n      tag_348\n      jumpi\n        /* \"#utility.yul\":20467:20476   */\n      dup3\n        /* \"#utility.yul\":20462:20465   */\n      dup8\n        /* \"#utility.yul\":20458:20477   */\n      add\n        /* \"#utility.yul\":20452:20478   */\n      mload\n        /* \"#utility.yul\":20443:20478   */\n      swap1\n      pop\n        /* \"#utility.yul\":20415:20492   */\n    tag_348:\n        /* \"#utility.yul\":20518:20585   */\n      tag_349\n        /* \"#utility.yul\":20578:20584   */\n      dup6\n        /* \"#utility.yul\":20571:20576   */\n      dup3\n        /* \"#utility.yul\":20518:20585   */\n      tag_147\n      jump\t// in\n    tag_349:\n        /* \"#utility.yul\":20512:20516   */\n      dup7\n        /* \"#utility.yul\":20505:20586   */\n      sstore\n        /* \"#utility.yul\":20374:20596   */\n      pop\n        /* \"#utility.yul\":19709:20596   */\n      jump(tag_346)\n        /* \"#utility.yul\":19739:20357   */\n    tag_347:\n        /* \"#utility.yul\":19791:19795   */\n      0x1f\n        /* \"#utility.yul\":19787:19796   */\n      not\n        /* \"#utility.yul\":19779:19785   */\n      dup5\n        /* \"#utility.yul\":19775:19797   */\n      and\n        /* \"#utility.yul\":19825:19862   */\n      tag_350\n        /* \"#utility.yul\":19857:19861   */\n      dup7\n        /* \"#utility.yul\":19825:19862   */\n      tag_133\n      jump\t// in\n    tag_350:\n        /* \"#utility.yul\":19884:19885   */\n      0x00\n        /* \"#utility.yul\":19898:20106   */\n    tag_351:\n        /* \"#utility.yul\":19912:19919   */\n      dup3\n        /* \"#utility.yul\":19909:19910   */\n      dup2\n        /* \"#utility.yul\":19906:19920   */\n      lt\n        /* \"#utility.yul\":19898:20106   */\n      iszero\n      tag_353\n      jumpi\n        /* \"#utility.yul\":19991:20000   */\n      dup5\n        /* \"#utility.yul\":19986:19989   */\n      dup10\n        /* \"#utility.yul\":19982:20001   */\n      add\n        /* \"#utility.yul\":19976:20002   */\n      mload\n        /* \"#utility.yul\":19968:19974   */\n      dup3\n        /* \"#utility.yul\":19961:20003   */\n      sstore\n        /* \"#utility.yul\":20042:20043   */\n      0x01\n        /* \"#utility.yul\":20034:20040   */\n      dup3\n        /* \"#utility.yul\":20030:20044   */\n      add\n        /* \"#utility.yul\":20020:20044   */\n      swap2\n      pop\n        /* \"#utility.yul\":20089:20091   */\n      0x20\n        /* \"#utility.yul\":20078:20087   */\n      dup6\n        /* \"#utility.yul\":20074:20092   */\n      add\n        /* \"#utility.yul\":20061:20092   */\n      swap5\n      pop\n        /* \"#utility.yul\":19935:19939   */\n      0x20\n        /* \"#utility.yul\":19932:19933   */\n      dup2\n        /* \"#utility.yul\":19928:19940   */\n      add\n        /* \"#utility.yul\":19923:19940   */\n      swap1\n      pop\n        /* \"#utility.yul\":19898:20106   */\n      jump(tag_351)\n    tag_353:\n        /* \"#utility.yul\":20134:20140   */\n      dup7\n        /* \"#utility.yul\":20125:20132   */\n      dup4\n        /* \"#utility.yul\":20122:20141   */\n      lt\n        /* \"#utility.yul\":20119:20298   */\n      iszero\n      tag_354\n      jumpi\n        /* \"#utility.yul\":20192:20201   */\n      dup5\n        /* \"#utility.yul\":20187:20190   */\n      dup10\n        /* \"#utility.yul\":20183:20202   */\n      add\n        /* \"#utility.yul\":20177:20203   */\n      mload\n        /* \"#utility.yul\":20235:20283   */\n      tag_355\n        /* \"#utility.yul\":20277:20281   */\n      0x1f\n        /* \"#utility.yul\":20269:20275   */\n      dup10\n        /* \"#utility.yul\":20265:20282   */\n      and\n        /* \"#utility.yul\":20254:20263   */\n      dup3\n        /* \"#utility.yul\":20235:20283   */\n      tag_146\n      jump\t// in\n    tag_355:\n        /* \"#utility.yul\":20227:20233   */\n      dup4\n        /* \"#utility.yul\":20220:20284   */\n      sstore\n        /* \"#utility.yul\":20142:20298   */\n      pop\n        /* \"#utility.yul\":20119:20298   */\n    tag_354:\n        /* \"#utility.yul\":20344:20345   */\n      0x01\n        /* \"#utility.yul\":20340:20341   */\n      0x02\n        /* \"#utility.yul\":20332:20338   */\n      dup9\n        /* \"#utility.yul\":20328:20342   */\n      mul\n        /* \"#utility.yul\":20324:20346   */\n      add\n        /* \"#utility.yul\":20318:20322   */\n      dup9\n        /* \"#utility.yul\":20311:20347   */\n      sstore\n        /* \"#utility.yul\":19746:20357   */\n      pop\n      pop\n      pop\n        /* \"#utility.yul\":19709:20596   */\n    tag_346:\n      pop\n        /* \"#utility.yul\":19299:20602   */\n      pop\n      pop\n      pop\n        /* \"#utility.yul\":19207:20602   */\n      pop\n      pop\n      jump\t// out\n        /* \"#utility.yul\":20608:20788   */\n    tag_79:\n        /* \"#utility.yul\":20656:20733   */\n      0x4e487b7100000000000000000000000000000000000000000000000000000000\n        /* \"#utility.yul\":20653:20654   */\n      0x00\n        /* \"#utility.yul\":20646:20734   */\n      mstore\n        /* \"#utility.yul\":20753:20757   */\n      0x32\n        /* \"#utility.yul\":20750:20751   */\n      0x04\n        /* \"#utility.yul\":20743:20758   */\n      mstore\n        /* \"#utility.yul\":20777:20781   */\n      0x24\n        /* \"#utility.yul\":20774:20775   */\n      0x00\n        /* \"#utility.yul\":20767:20782   */\n      revert\n\n    auxdata: 0xa2646970667358221220f295cb4d74670273aa9fb1228f81d8f6ca92a6f401ea13b90fb667ca4ffebc7f64736f6c63430008120033\n}\n",
				"bytecode": {
					"linkReferences": {},
					"object": "60806040526101186000806101000a81548161ffff021916908361ffff16021790555034801561002e57600080fd5b5033600260006101000a81548173ffffffffffffffffffffffffffffffffffffffff021916908373ffffffffffffffffffffffffffffffffffffffff1602179055506112d98061007f6000396000f3fe608060405234801561001057600080fd5b506004361061007d5760003560e01c80636eb107971161005b5780636eb10797146101015780637c9cd2bc1461011f5780638da5cb5b1461013b578063c3ad5ecb146101595761007d565b806305a1b4a91461008257806312e7ee1c146100b557806358bfa4ab146100e5575b600080fd5b61009c600480360381019061009791906108cc565b610189565b6040516100ac94939291906109ba565b60405180910390f35b6100cf60048036038101906100ca9190610a06565b61027e565b6040516100dc9190610bc0565b60405180910390f35b6100ff60048036038101906100fa9190610c1c565b610418565b005b6101096104c7565b6040516101169190610c58565b60405180910390f35b61013960048036038101906101349190610da8565b6104d9565b005b61014361064b565b6040516101509190610df1565b60405180910390f35b610173600480360381019061016e9190610e0c565b610671565b6040516101809190610e9c565b60405180910390f35b600160205281600052604060002081815481106101a557600080fd5b9060005260206000209060040201600091509150508060000160009054906101000a900473ffffffffffffffffffffffffffffffffffffffff16908060010180546101ef90610eed565b80601f016020809104026020016040519081016040528092919081815260200182805461021b90610eed565b80156102685780601f1061023d57610100808354040283529160200191610268565b820191906000526020600020905b81548152906001019060200180831161024b57829003601f168201915b5050505050908060020154908060030154905084565b6060600160008373ffffffffffffffffffffffffffffffffffffffff1673ffffffffffffffffffffffffffffffffffffffff168152602001908152602001600020805480602002602001604051908101604052809291908181526020016000905b8282101561040d57838290600052602060002090600402016040518060800160405290816000820160009054906101000a900473ffffffffffffffffffffffffffffffffffffffff1673ffffffffffffffffffffffffffffffffffffffff1673ffffffffffffffffffffffffffffffffffffffff16815260200160018201805461036890610eed565b80601f016020809104026020016040519081016040528092919081815260200182805461039490610eed565b80156103e15780601f106103b6576101008083540402835291602001916103e1565b820191906000526020600020905b8154815290600101906020018083116103c457829003601f168201915b5050505050815260200160028201548152602001600382015481525050815260200190600101906102df565b505050509050919050565b600260009054906101000a900473ffffffffffffffffffffffffffffffffffffffff1673ffffffffffffffffffffffffffffffffffffffff163373ffffffffffffffffffffffffffffffffffffffff16146104a8576040517f08c379a000000000000000000000000000000000000000000000000000000000815260040161049f90610f6a565b60405180910390fd5b806000806101000a81548161ffff021916908361ffff16021790555050565b60008054906101000a900461ffff1681565b60008054906101000a900461ffff1661ffff168151111561052f576040517f08c379a000000000000000000000000000000000000000000000000000000000815260040161052690610fd6565b60405180910390fd5b600060405180608001604052803373ffffffffffffffffffffffffffffffffffffffff16815260200183815260200142815260200160008152509050600160003373ffffffffffffffffffffffffffffffffffffffff1673ffffffffffffffffffffffffffffffffffffffff16815260200190815260200160002081908060018154018082558091505060019003906000526020600020906004020160009091909190915060008201518160000160006101000a81548173ffffffffffffffffffffffffffffffffffffffff021916908373ffffffffffffffffffffffffffffffffffffffff160217905550602082015181600101908161063091906111a2565b50604082015181600201556060820151816003015550505050565b600260009054906101000a900473ffffffffffffffffffffffffffffffffffffffff1681565b6106796107e6565b600160003373ffffffffffffffffffffffffffffffffffffffff1673ffffffffffffffffffffffffffffffffffffffff16815260200190815260200160002082815481106106ca576106c9611274565b5b90600052602060002090600402016040518060800160405290816000820160009054906101000a900473ffffffffffffffffffffffffffffffffffffffff1673ffffffffffffffffffffffffffffffffffffffff1673ffffffffffffffffffffffffffffffffffffffff16815260200160018201805461074990610eed565b80601f016020809104026020016040519081016040528092919081815260200182805461077590610eed565b80156107c25780601f10610797576101008083540402835291602001916107c2565b820191906000526020600020905b8154815290600101906020018083116107a557829003601f168201915b50505050508152602001600282015481526020016003820154815250509050919050565b6040518060800160405280600073ffffffffffffffffffffffffffffffffffffffff1681526020016060815260200160008152602001600081525090565b6000604051905090565b600080fd5b600080fd5b600073ffffffffffffffffffffffffffffffffffffffff82169050919050565b600061086382610838565b9050919050565b61087381610858565b811461087e57600080fd5b50565b6000813590506108908161086a565b92915050565b6000819050919050565b6108a981610896565b81146108b457600080fd5b50565b6000813590506108c6816108a0565b92915050565b600080604083850312156108e3576108e261082e565b5b60006108f185828601610881565b9250506020610902858286016108b7565b9150509250929050565b61091581610858565b82525050565b600081519050919050565b600082825260208201905092915050565b60005b8381101561095557808201518184015260208101905061093a565b60008484015250505050565b6000601f19601f8301169050919050565b600061097d8261091b565b6109878185610926565b9350610997818560208601610937565b6109a081610961565b840191505092915050565b6109b481610896565b82525050565b60006080820190506109cf600083018761090c565b81810360208301526109e18186610972565b90506109f060408301856109ab565b6109fd60608301846109ab565b95945050505050565b600060208284031215610a1c57610a1b61082e565b5b6000610a2a84828501610881565b91505092915050565b600081519050919050565b600082825260208201905092915050565b6000819050602082019050919050565b610a6881610858565b82525050565b600082825260208201905092915050565b6000610a8a8261091b565b610a948185610a6e565b9350610aa4818560208601610937565b610aad81610961565b840191505092915050565b610ac181610896565b82525050565b6000608083016000830151610adf6000860182610a5f565b5060208301518482036020860152610af78282610a7f565b9150506040830151610b0c6040860182610ab8565b506060830151610b1f6060860182610ab8565b508091505092915050565b6000610b368383610ac7565b905092915050565b6000602082019050919050565b6000610b5682610a33565b610b608185610a3e565b935083602082028501610b7285610a4f565b8060005b85811015610bae5784840389528151610b8f8582610b2a565b9450610b9a83610b3e565b925060208a01995050600181019050610b76565b50829750879550505050505092915050565b60006020820190508181036000830152610bda8184610b4b565b905092915050565b600061ffff82169050919050565b610bf981610be2565b8114610c0457600080fd5b50565b600081359050610c1681610bf0565b92915050565b600060208284031215610c3257610c3161082e565b5b6000610c4084828501610c07565b91505092915050565b610c5281610be2565b82525050565b6000602082019050610c6d6000830184610c49565b92915050565b600080fd5b600080fd5b7f4e487b7100000000000000000000000000000000000000000000000000000000600052604160045260246000fd5b610cb582610961565b810181811067ffffffffffffffff82111715610cd457610cd3610c7d565b5b80604052505050565b6000610ce7610824565b9050610cf38282610cac565b919050565b600067ffffffffffffffff821115610d1357610d12610c7d565b5b610d1c82610961565b9050602081019050919050565b82818337600083830152505050565b6000610d4b610d4684610cf8565b610cdd565b905082815260208101848484011115610d6757610d66610c78565b5b610d72848285610d29565b509392505050565b600082601f830112610d8f57610d8e610c73565b5b8135610d9f848260208601610d38565b91505092915050565b600060208284031215610dbe57610dbd61082e565b5b600082013567ffffffffffffffff811115610ddc57610ddb610833565b5b610de884828501610d7a565b91505092915050565b6000602082019050610e06600083018461090c565b92915050565b600060208284031215610e2257610e2161082e565b5b6000610e30848285016108b7565b91505092915050565b6000608083016000830151610e516000860182610a5f565b5060208301518482036020860152610e698282610a7f565b9150506040830151610e7e6040860182610ab8565b506060830151610e916060860182610ab8565b508091505092915050565b60006020820190508181036000830152610eb68184610e39565b905092915050565b7f4e487b7100000000000000000000000000000000000000000000000000000000600052602260045260246000fd5b60006002820490506001821680610f0557607f821691505b602082108103610f1857610f17610ebe565b5b50919050565b7f594f5520415245204e4f5420544845204f574e45522100000000000000000000600082015250565b6000610f54601683610926565b9150610f5f82610f1e565b602082019050919050565b60006020820190508181036000830152610f8381610f47565b9050919050565b7f547765657420697320746f6f206c6f6e672062726f2021000000000000000000600082015250565b6000610fc0601783610926565b9150610fcb82610f8a565b602082019050919050565b60006020820190508181036000830152610fef81610fb3565b9050919050565b60008190508160005260206000209050919050565b60006020601f8301049050919050565b600082821b905092915050565b6000600883026110587fffffffffffffffffffffffffffffffffffffffffffffffffffffffffffffffff8261101b565b611062868361101b565b95508019841693508086168417925050509392505050565b6000819050919050565b600061109f61109a61109584610896565b61107a565b610896565b9050919050565b6000819050919050565b6110b983611084565b6110cd6110c5826110a6565b848454611028565b825550505050565b600090565b6110e26110d5565b6110ed8184846110b0565b505050565b5b81811015611111576111066000826110da565b6001810190506110f3565b5050565b601f8211156111565761112781610ff6565b6111308461100b565b8101602085101561113f578190505b61115361114b8561100b565b8301826110f2565b50505b505050565b600082821c905092915050565b60006111796000198460080261115b565b1980831691505092915050565b60006111928383611168565b9150826002028217905092915050565b6111ab8261091b565b67ffffffffffffffff8111156111c4576111c3610c7d565b5b6111ce8254610eed565b6111d9828285611115565b600060209050601f83116001811461120c57600084156111fa578287015190505b6112048582611186565b86555061126c565b601f19841661121a86610ff6565b60005b828110156112425784890151825560018201915060208501945060208101905061121d565b8683101561125f578489015161125b601f891682611168565b8355505b6001600288020188555050505b505050505050565b7f4e487b7100000000000000000000000000000000000000000000000000000000600052603260045260246000fdfea2646970667358221220f295cb4d74670273aa9fb1228f81d8f6ca92a6f401ea13b90fb667ca4ffebc7f64736f6c63430008120033",
					"opcodes": "PUSH1 0x80 PUSH1 0x40 MSTORE PUSH2 0x118 PUSH1 0x0 DUP1 PUSH2 0x100 EXP DUP2 SLOAD DUP2 PUSH2 0xFFFF MUL NOT AND SWAP1 DUP4 PUSH2 0xFFFF AND MUL OR SWAP1 SSTORE POP CALLVALUE DUP1 ISZERO PUSH2 0x2E JUMPI PUSH1 0x0 DUP1 REVERT JUMPDEST POP CALLER PUSH1 0x2 PUSH1 0x0 PUSH2 0x100 EXP DUP2 SLOAD DUP2 PUSH20 0xFFFFFFFFFFFFFFFFFFFFFFFFFFFFFFFFFFFFFFFF MUL NOT AND SWAP1 DUP4 PUSH20 0xFFFFFFFFFFFFFFFFFFFFFFFFFFFFFFFFFFFFFFFF AND MUL OR SWAP1 SSTORE POP PUSH2 0x12D9 DUP1 PUSH2 0x7F PUSH1 0x0 CODECOPY PUSH1 0x0 RETURN INVALID PUSH1 0x80 PUSH1 0x40 MSTORE CALLVALUE DUP1 ISZERO PUSH2 0x10 JUMPI PUSH1 0x0 DUP1 REVERT JUMPDEST POP PUSH1 0x4 CALLDATASIZE LT PUSH2 0x7D JUMPI PUSH1 0x0 CALLDATALOAD PUSH1 0xE0 SHR DUP1 PUSH4 0x6EB10797 GT PUSH2 0x5B JUMPI DUP1 PUSH4 0x6EB10797 EQ PUSH2 0x101 JUMPI DUP1 PUSH4 0x7C9CD2BC EQ PUSH2 0x11F JUMPI DUP1 PUSH4 0x8DA5CB5B EQ PUSH2 0x13B JUMPI DUP1 PUSH4 0xC3AD5ECB EQ PUSH2 0x159 JUMPI PUSH2 0x7D JUMP JUMPDEST DUP1 PUSH4 0x5A1B4A9 EQ PUSH2 0x82 JUMPI DUP1 PUSH4 0x12E7EE1C EQ PUSH2 0xB5 JUMPI DUP1 PUSH4 0x58BFA4AB EQ PUSH2 0xE5 JUMPI JUMPDEST PUSH1 0x0 DUP1 REVERT JUMPDEST PUSH2 0x9C PUSH1 0x4 DUP1 CALLDATASIZE SUB DUP2 ADD SWAP1 PUSH2 0x97 SWAP2 SWAP1 PUSH2 0x8CC JUMP JUMPDEST PUSH2 0x189 JUMP JUMPDEST PUSH1 0x40 MLOAD PUSH2 0xAC SWAP5 SWAP4 SWAP3 SWAP2 SWAP1 PUSH2 0x9BA JUMP JUMPDEST PUSH1 0x40 MLOAD DUP1 SWAP2 SUB SWAP1 RETURN JUMPDEST PUSH2 0xCF PUSH1 0x4 DUP1 CALLDATASIZE SUB DUP2 ADD SWAP1 PUSH2 0xCA SWAP2 SWAP1 PUSH2 0xA06 JUMP JUMPDEST PUSH2 0x27E JUMP JUMPDEST PUSH1 0x40 MLOAD PUSH2 0xDC SWAP2 SWAP1 PUSH2 0xBC0 JUMP JUMPDEST PUSH1 0x40 MLOAD DUP1 SWAP2 SUB SWAP1 RETURN JUMPDEST PUSH2 0xFF PUSH1 0x4 DUP1 CALLDATASIZE SUB DUP2 ADD SWAP1 PUSH2 0xFA SWAP2 SWAP1 PUSH2 0xC1C JUMP JUMPDEST PUSH2 0x418 JUMP JUMPDEST STOP JUMPDEST PUSH2 0x109 PUSH2 0x4C7 JUMP JUMPDEST PUSH1 0x40 MLOAD PUSH2 0x116 SWAP2 SWAP1 PUSH2 0xC58 JUMP JUMPDEST PUSH1 0x40 MLOAD DUP1 SWAP2 SUB SWAP1 RETURN JUMPDEST PUSH2 0x139 PUSH1 0x4 DUP1 CALLDATASIZE SUB DUP2 ADD SWAP1 PUSH2 0x134 SWAP2 SWAP1 PUSH2 0xDA8 JUMP JUMPDEST PUSH2 0x4D9 JUMP JUMPDEST STOP JUMPDEST PUSH2 0x143 PUSH2 0x64B JUMP JUMPDEST PUSH1 0x40 MLOAD PUSH2 0x150 SWAP2 SWAP1 PUSH2 0xDF1 JUMP JUMPDEST PUSH1 0x40 MLOAD DUP1 SWAP2 SUB SWAP1 RETURN JUMPDEST PUSH2 0x173 PUSH1 0x4 DUP1 CALLDATASIZE SUB DUP2 ADD SWAP1 PUSH2 0x16E SWAP2 SWAP1 PUSH2 0xE0C JUMP JUMPDEST PUSH2 0x671 JUMP JUMPDEST PUSH1 0x40 MLOAD PUSH2 0x180 SWAP2 SWAP1 PUSH2 0xE9C JUMP JUMPDEST PUSH1 0x40 MLOAD DUP1 SWAP2 SUB SWAP1 RETURN JUMPDEST PUSH1 0x1 PUSH1 0x20 MSTORE DUP2 PUSH1 0x0 MSTORE PUSH1 0x40 PUSH1 0x0 KECCAK256 DUP2 DUP2 SLOAD DUP2 LT PUSH2 0x1A5 JUMPI PUSH1 0x0 DUP1 REVERT JUMPDEST SWAP1 PUSH1 0x0 MSTORE PUSH1 0x20 PUSH1 0x0 KECCAK256 SWAP1 PUSH1 0x4 MUL ADD PUSH1 0x0 SWAP2 POP SWAP2 POP POP DUP1 PUSH1 0x0 ADD PUSH1 0x0 SWAP1 SLOAD SWAP1 PUSH2 0x100 EXP SWAP1 DIV PUSH20 0xFFFFFFFFFFFFFFFFFFFFFFFFFFFFFFFFFFFFFFFF AND SWAP1 DUP1 PUSH1 0x1 ADD DUP1 SLOAD PUSH2 0x1EF SWAP1 PUSH2 0xEED JUMP JUMPDEST DUP1 PUSH1 0x1F ADD PUSH1 0x20 DUP1 SWAP2 DIV MUL PUSH1 0x20 ADD PUSH1 0x40 MLOAD SWAP1 DUP2 ADD PUSH1 0x40 MSTORE DUP1 SWAP3 SWAP2 SWAP1 DUP2 DUP2 MSTORE PUSH1 0x20 ADD DUP3 DUP1 SLOAD PUSH2 0x21B SWAP1 PUSH2 0xEED JUMP JUMPDEST DUP1 ISZERO PUSH2 0x268 JUMPI DUP1 PUSH1 0x1F LT PUSH2 0x23D JUMPI PUSH2 0x100 DUP1 DUP4 SLOAD DIV MUL DUP4 MSTORE SWAP2 PUSH1 0x20 ADD SWAP2 PUSH2 0x268 JUMP JUMPDEST DUP3 ADD SWAP2 SWAP1 PUSH1 0x0 MSTORE PUSH1 0x20 PUSH1 0x0 KECCAK256 SWAP1 JUMPDEST DUP2 SLOAD DUP2 MSTORE SWAP1 PUSH1 0x1 ADD SWAP1 PUSH1 0x20 ADD DUP1 DUP4 GT PUSH2 0x24B JUMPI DUP3 SWAP1 SUB PUSH1 0x1F AND DUP3 ADD SWAP2 JUMPDEST POP POP POP POP POP SWAP1 DUP1 PUSH1 0x2 ADD SLOAD SWAP1 DUP1 PUSH1 0x3 ADD SLOAD SWAP1 POP DUP5 JUMP JUMPDEST PUSH1 0x60 PUSH1 0x1 PUSH1 0x0 DUP4 PUSH20 0xFFFFFFFFFFFFFFFFFFFFFFFFFFFFFFFFFFFFFFFF AND PUSH20 0xFFFFFFFFFFFFFFFFFFFFFFFFFFFFFFFFFFFFFFFF AND DUP2 MSTORE PUSH1 0x20 ADD SWAP1 DUP2 MSTORE PUSH1 0x20 ADD PUSH1 0x0 KECCAK256 DUP1 SLOAD DUP1 PUSH1 0x20 MUL PUSH1 0x20 ADD PUSH1 0x40 MLOAD SWAP1 DUP2 ADD PUSH1 0x40 MSTORE DUP1 SWAP3 SWAP2 SWAP1 DUP2 DUP2 MSTORE PUSH1 0x20 ADD PUSH1 0x0 SWAP1 JUMPDEST DUP3 DUP3 LT ISZERO PUSH2 0x40D JUMPI DUP4 DUP3 SWAP1 PUSH1 0x0 MSTORE PUSH1 0x20 PUSH1 0x0 KECCAK256 SWAP1 PUSH1 0x4 MUL ADD PUSH1 0x40 MLOAD DUP1 PUSH1 0x80 ADD PUSH1 0x40 MSTORE SWAP1 DUP2 PUSH1 0x0 DUP3 ADD PUSH1 0x0 SWAP1 SLOAD SWAP1 PUSH2 0x100 EXP SWAP1 DIV PUSH20 0xFFFFFFFFFFFFFFFFFFFFFFFFFFFFFFFFFFFFFFFF AND PUSH20 0xFFFFFFFFFFFFFFFFFFFFFFFFFFFFFFFFFFFFFFFF AND PUSH20 0xFFFFFFFFFFFFFFFFFFFFFFFFFFFFFFFFFFFFFFFF AND DUP2 MSTORE PUSH1 0x20 ADD PUSH1 0x1 DUP3 ADD DUP1 SLOAD PUSH2 0x368 SWAP1 PUSH2 0xEED JUMP JUMPDEST DUP1 PUSH1 0x1F ADD PUSH1 0x20 DUP1 SWAP2 DIV MUL PUSH1 0x20 ADD PUSH1 0x40 MLOAD SWAP1 DUP2 ADD PUSH1 0x40 MSTORE DUP1 SWAP3 SWAP2 SWAP1 DUP2 DUP2 MSTORE PUSH1 0x20 ADD DUP3 DUP1 SLOAD PUSH2 0x394 SWAP1 PUSH2 0xEED JUMP JUMPDEST DUP1 ISZERO PUSH2 0x3E1 JUMPI DUP1 PUSH1 0x1F LT PUSH2 0x3B6 JUMPI PUSH2 0x100 DUP1 DUP4 SLOAD DIV MUL DUP4 MSTORE SWAP2 PUSH1 0x20 ADD SWAP2 PUSH2 0x3E1 JUMP JUMPDEST DUP3 ADD SWAP2 SWAP1 PUSH1 0x0 MSTORE PUSH1 0x20 PUSH1 0x0 KECCAK256 SWAP1 JUMPDEST DUP2 SLOAD DUP2 MSTORE SWAP1 PUSH1 0x1 ADD SWAP1 PUSH1 0x20 ADD DUP1 DUP4 GT PUSH2 0x3C4 JUMPI DUP3 SWAP1 SUB PUSH1 0x1F AND DUP3 ADD SWAP2 JUMPDEST POP POP POP POP POP DUP2 MSTORE PUSH1 0x20 ADD PUSH1 0x2 DUP3 ADD SLOAD DUP2 MSTORE PUSH1 0x20 ADD PUSH1 0x3 DUP3 ADD SLOAD DUP2 MSTORE POP POP DUP2 MSTORE PUSH1 0x20 ADD SWAP1 PUSH1 0x1 ADD SWAP1 PUSH2 0x2DF JUMP JUMPDEST POP POP POP POP SWAP1 POP SWAP2 SWAP1 POP JUMP JUMPDEST PUSH1 0x2 PUSH1 0x0 SWAP1 SLOAD SWAP1 PUSH2 0x100 EXP SWAP1 DIV PUSH20 0xFFFFFFFFFFFFFFFFFFFFFFFFFFFFFFFFFFFFFFFF AND PUSH20 0xFFFFFFFFFFFFFFFFFFFFFFFFFFFFFFFFFFFFFFFF AND CALLER PUSH20 0xFFFFFFFFFFFFFFFFFFFFFFFFFFFFFFFFFFFFFFFF AND EQ PUSH2 0x4A8 JUMPI PUSH1 0x40 MLOAD PUSH32 0x8C379A000000000000000000000000000000000000000000000000000000000 DUP2 MSTORE PUSH1 0x4 ADD PUSH2 0x49F SWAP1 PUSH2 0xF6A JUMP JUMPDEST PUSH1 0x40 MLOAD DUP1 SWAP2 SUB SWAP1 REVERT JUMPDEST DUP1 PUSH1 0x0 DUP1 PUSH2 0x100 EXP DUP2 SLOAD DUP2 PUSH2 0xFFFF MUL NOT AND SWAP1 DUP4 PUSH2 0xFFFF AND MUL OR SWAP1 SSTORE POP POP JUMP JUMPDEST PUSH1 0x0 DUP1 SLOAD SWAP1 PUSH2 0x100 EXP SWAP1 DIV PUSH2 0xFFFF AND DUP2 JUMP JUMPDEST PUSH1 0x0 DUP1 SLOAD SWAP1 PUSH2 0x100 EXP SWAP1 DIV PUSH2 0xFFFF AND PUSH2 0xFFFF AND DUP2 MLOAD GT ISZERO PUSH2 0x52F JUMPI PUSH1 0x40 MLOAD PUSH32 0x8C379A000000000000000000000000000000000000000000000000000000000 DUP2 MSTORE PUSH1 0x4 ADD PUSH2 0x526 SWAP1 PUSH2 0xFD6 JUMP JUMPDEST PUSH1 0x40 MLOAD DUP1 SWAP2 SUB SWAP1 REVERT JUMPDEST PUSH1 0x0 PUSH1 0x40 MLOAD DUP1 PUSH1 0x80 ADD PUSH1 0x40 MSTORE DUP1 CALLER PUSH20 0xFFFFFFFFFFFFFFFFFFFFFFFFFFFFFFFFFFFFFFFF AND DUP2 MSTORE PUSH1 0x20 ADD DUP4 DUP2 MSTORE PUSH1 0x20 ADD TIMESTAMP DUP2 MSTORE PUSH1 0x20 ADD PUSH1 0x0 DUP2 MSTORE POP SWAP1 POP PUSH1 0x1 PUSH1 0x0 CALLER PUSH20 0xFFFFFFFFFFFFFFFFFFFFFFFFFFFFFFFFFFFFFFFF AND PUSH20 0xFFFFFFFFFFFFFFFFFFFFFFFFFFFFFFFFFFFFFFFF AND DUP2 MSTORE PUSH1 0x20 ADD SWAP1 DUP2 MSTORE PUSH1 0x20 ADD PUSH1 0x0 KECCAK256 DUP2 SWAP1 DUP1 PUSH1 0x1 DUP2 SLOAD ADD DUP1 DUP3 SSTORE DUP1 SWAP2 POP POP PUSH1 0x1 SWAP1 SUB SWAP1 PUSH1 0x0 MSTORE PUSH1 0x20 PUSH1 0x0 KECCAK256 SWAP1 PUSH1 0x4 MUL ADD PUSH1 0x0 SWAP1 SWAP2 SWAP1 SWAP2 SWAP1 SWAP2 POP PUSH1 0x0 DUP3 ADD MLOAD DUP2 PUSH1 0x0 ADD PUSH1 0x0 PUSH2 0x100 EXP DUP2 SLOAD DUP2 PUSH20 0xFFFFFFFFFFFFFFFFFFFFFFFFFFFFFFFFFFFFFFFF MUL NOT AND SWAP1 DUP4 PUSH20 0xFFFFFFFFFFFFFFFFFFFFFFFFFFFFFFFFFFFFFFFF AND MUL OR SWAP1 SSTORE POP PUSH1 0x20 DUP3 ADD MLOAD DUP2 PUSH1 0x1 ADD SWAP1 DUP2 PUSH2 0x630 SWAP2 SWAP1 PUSH2 0x11A2 JUMP JUMPDEST POP PUSH1 0x40 DUP3 ADD MLOAD DUP2 PUSH1 0x2 ADD SSTORE PUSH1 0x60 DUP3 ADD MLOAD DUP2 PUSH1 0x3 ADD SSTORE POP POP POP POP JUMP JUMPDEST PUSH1 0x2 PUSH1 0x0 SWAP1 SLOAD SWAP1 PUSH2 0x100 EXP SWAP1 DIV PUSH20 0xFFFFFFFFFFFFFFFFFFFFFFFFFFFFFFFFFFFFFFFF AND DUP2 JUMP JUMPDEST PUSH2 0x679 PUSH2 0x7E6 JUMP JUMPDEST PUSH1 0x1 PUSH1 0x0 CALLER PUSH20 0xFFFFFFFFFFFFFFFFFFFFFFFFFFFFFFFFFFFFFFFF AND PUSH20 0xFFFFFFFFFFFFFFFFFFFFFFFFFFFFFFFFFFFFFFFF AND DUP2 MSTORE PUSH1 0x20 ADD SWAP1 DUP2 MSTORE PUSH1 0x20 ADD PUSH1 0x0 KECCAK256 DUP3 DUP2 SLOAD DUP2 LT PUSH2 0x6CA JUMPI PUSH2 0x6C9 PUSH2 0x1274 JUMP JUMPDEST JUMPDEST SWAP1 PUSH1 0x0 MSTORE PUSH1 0x20 PUSH1 0x0 KECCAK256 SWAP1 PUSH1 0x4 MUL ADD PUSH1 0x40 MLOAD DUP1 PUSH1 0x80 ADD PUSH1 0x40 MSTORE SWAP1 DUP2 PUSH1 0x0 DUP3 ADD PUSH1 0x0 SWAP1 SLOAD SWAP1 PUSH2 0x100 EXP SWAP1 DIV PUSH20 0xFFFFFFFFFFFFFFFFFFFFFFFFFFFFFFFFFFFFFFFF AND PUSH20 0xFFFFFFFFFFFFFFFFFFFFFFFFFFFFFFFFFFFFFFFF AND PUSH20 0xFFFFFFFFFFFFFFFFFFFFFFFFFFFFFFFFFFFFFFFF AND DUP2 MSTORE PUSH1 0x20 ADD PUSH1 0x1 DUP3 ADD DUP1 SLOAD PUSH2 0x749 SWAP1 PUSH2 0xEED JUMP JUMPDEST DUP1 PUSH1 0x1F ADD PUSH1 0x20 DUP1 SWAP2 DIV MUL PUSH1 0x20 ADD PUSH1 0x40 MLOAD SWAP1 DUP2 ADD PUSH1 0x40 MSTORE DUP1 SWAP3 SWAP2 SWAP1 DUP2 DUP2 MSTORE PUSH1 0x20 ADD DUP3 DUP1 SLOAD PUSH2 0x775 SWAP1 PUSH2 0xEED JUMP JUMPDEST DUP1 ISZERO PUSH2 0x7C2 JUMPI DUP1 PUSH1 0x1F LT PUSH2 0x797 JUMPI PUSH2 0x100 DUP1 DUP4 SLOAD DIV MUL DUP4 MSTORE SWAP2 PUSH1 0x20 ADD SWAP2 PUSH2 0x7C2 JUMP JUMPDEST DUP3 ADD SWAP2 SWAP1 PUSH1 0x0 MSTORE PUSH1 0x20 PUSH1 0x0 KECCAK256 SWAP1 JUMPDEST DUP2 SLOAD DUP2 MSTORE SWAP1 PUSH1 0x1 ADD SWAP1 PUSH1 0x20 ADD DUP1 DUP4 GT PUSH2 0x7A5 JUMPI DUP3 SWAP1 SUB PUSH1 0x1F AND DUP3 ADD SWAP2 JUMPDEST POP POP POP POP POP DUP2 MSTORE PUSH1 0x20 ADD PUSH1 0x2 DUP3 ADD SLOAD DUP2 MSTORE PUSH1 0x20 ADD PUSH1 0x3 DUP3 ADD SLOAD DUP2 MSTORE POP POP SWAP1 POP SWAP2 SWAP1 POP JUMP JUMPDEST PUSH1 0x40 MLOAD DUP1 PUSH1 0x80 ADD PUSH1 0x40 MSTORE DUP1 PUSH1 0x0 PUSH20 0xFFFFFFFFFFFFFFFFFFFFFFFFFFFFFFFFFFFFFFFF AND DUP2 MSTORE PUSH1 0x20 ADD PUSH1 0x60 DUP2 MSTORE PUSH1 0x20 ADD PUSH1 0x0 DUP2 MSTORE PUSH1 0x20 ADD PUSH1 0x0 DUP2 MSTORE POP SWAP1 JUMP JUMPDEST PUSH1 0x0 PUSH1 0x40 MLOAD SWAP1 POP SWAP1 JUMP JUMPDEST PUSH1 0x0 DUP1 REVERT JUMPDEST PUSH1 0x0 DUP1 REVERT JUMPDEST PUSH1 0x0 PUSH20 0xFFFFFFFFFFFFFFFFFFFFFFFFFFFFFFFFFFFFFFFF DUP3 AND SWAP1 POP SWAP2 SWAP1 POP JUMP JUMPDEST PUSH1 0x0 PUSH2 0x863 DUP3 PUSH2 0x838 JUMP JUMPDEST SWAP1 POP SWAP2 SWAP1 POP JUMP JUMPDEST PUSH2 0x873 DUP2 PUSH2 0x858 JUMP JUMPDEST DUP2 EQ PUSH2 0x87E JUMPI PUSH1 0x0 DUP1 REVERT JUMPDEST POP JUMP JUMPDEST PUSH1 0x0 DUP2 CALLDATALOAD SWAP1 POP PUSH2 0x890 DUP2 PUSH2 0x86A JUMP JUMPDEST SWAP3 SWAP2 POP POP JUMP JUMPDEST PUSH1 0x0 DUP2 SWAP1 POP SWAP2 SWAP1 POP JUMP JUMPDEST PUSH2 0x8A9 DUP2 PUSH2 0x896 JUMP JUMPDEST DUP2 EQ PUSH2 0x8B4 JUMPI PUSH1 0x0 DUP1 REVERT JUMPDEST POP JUMP JUMPDEST PUSH1 0x0 DUP2 CALLDATALOAD SWAP1 POP PUSH2 0x8C6 DUP2 PUSH2 0x8A0 JUMP JUMPDEST SWAP3 SWAP2 POP POP JUMP JUMPDEST PUSH1 0x0 DUP1 PUSH1 0x40 DUP4 DUP6 SUB SLT ISZERO PUSH2 0x8E3 JUMPI PUSH2 0x8E2 PUSH2 0x82E JUMP JUMPDEST JUMPDEST PUSH1 0x0 PUSH2 0x8F1 DUP6 DUP3 DUP7 ADD PUSH2 0x881 JUMP JUMPDEST SWAP3 POP POP PUSH1 0x20 PUSH2 0x902 DUP6 DUP3 DUP7 ADD PUSH2 0x8B7 JUMP JUMPDEST SWAP2 POP POP SWAP3 POP SWAP3 SWAP1 POP JUMP JUMPDEST PUSH2 0x915 DUP2 PUSH2 0x858 JUMP JUMPDEST DUP3 MSTORE POP POP JUMP JUMPDEST PUSH1 0x0 DUP2 MLOAD SWAP1 POP SWAP2 SWAP1 POP JUMP JUMPDEST PUSH1 0x0 DUP3 DUP3 MSTORE PUSH1 0x20 DUP3 ADD SWAP1 POP SWAP3 SWAP2 POP POP JUMP JUMPDEST PUSH1 0x0 JUMPDEST DUP4 DUP2 LT ISZERO PUSH2 0x955 JUMPI DUP1 DUP3 ADD MLOAD DUP2 DUP5 ADD MSTORE PUSH1 0x20 DUP2 ADD SWAP1 POP PUSH2 0x93A JUMP JUMPDEST PUSH1 0x0 DUP5 DUP5 ADD MSTORE POP POP POP POP JUMP JUMPDEST PUSH1 0x0 PUSH1 0x1F NOT PUSH1 0x1F DUP4 ADD AND SWAP1 POP SWAP2 SWAP1 POP JUMP JUMPDEST PUSH1 0x0 PUSH2 0x97D DUP3 PUSH2 0x91B JUMP JUMPDEST PUSH2 0x987 DUP2 DUP6 PUSH2 0x926 JUMP JUMPDEST SWAP4 POP PUSH2 0x997 DUP2 DUP6 PUSH1 0x20 DUP7 ADD PUSH2 0x937 JUMP JUMPDEST PUSH2 0x9A0 DUP2 PUSH2 0x961 JUMP JUMPDEST DUP5 ADD SWAP2 POP POP SWAP3 SWAP2 POP POP JUMP JUMPDEST PUSH2 0x9B4 DUP2 PUSH2 0x896 JUMP JUMPDEST DUP3 MSTORE POP POP JUMP JUMPDEST PUSH1 0x0 PUSH1 0x80 DUP3 ADD SWAP1 POP PUSH2 0x9CF PUSH1 0x0 DUP4 ADD DUP8 PUSH2 0x90C JUMP JUMPDEST DUP2 DUP2 SUB PUSH1 0x20 DUP4 ADD MSTORE PUSH2 0x9E1 DUP2 DUP7 PUSH2 0x972 JUMP JUMPDEST SWAP1 POP PUSH2 0x9F0 PUSH1 0x40 DUP4 ADD DUP6 PUSH2 0x9AB JUMP JUMPDEST PUSH2 0x9FD PUSH1 0x60 DUP4 ADD DUP5 PUSH2 0x9AB JUMP JUMPDEST SWAP6 SWAP5 POP POP POP POP POP JUMP JUMPDEST PUSH1 0x0 PUSH1 0x20 DUP3 DUP5 SUB SLT ISZERO PUSH2 0xA1C JUMPI PUSH2 0xA1B PUSH2 0x82E JUMP JUMPDEST JUMPDEST PUSH1 0x0 PUSH2 0xA2A DUP5 DUP3 DUP6 ADD PUSH2 0x881 JUMP JUMPDEST SWAP2 POP POP SWAP3 SWAP2 POP POP JUMP JUMPDEST PUSH1 0x0 DUP2 MLOAD SWAP1 POP SWAP2 SWAP1 POP JUMP JUMPDEST PUSH1 0x0 DUP3 DUP3 MSTORE PUSH1 0x20 DUP3 ADD SWAP1 POP SWAP3 SWAP2 POP POP JUMP JUMPDEST PUSH1 0x0 DUP2 SWAP1 POP PUSH1 0x20 DUP3 ADD SWAP1 POP SWAP2 SWAP1 POP JUMP JUMPDEST PUSH2 0xA68 DUP2 PUSH2 0x858 JUMP JUMPDEST DUP3 MSTORE POP POP JUMP JUMPDEST PUSH1 0x0 DUP3 DUP3 MSTORE PUSH1 0x20 DUP3 ADD SWAP1 POP SWAP3 SWAP2 POP POP JUMP JUMPDEST PUSH1 0x0 PUSH2 0xA8A DUP3 PUSH2 0x91B JUMP JUMPDEST PUSH2 0xA94 DUP2 DUP6 PUSH2 0xA6E JUMP JUMPDEST SWAP4 POP PUSH2 0xAA4 DUP2 DUP6 PUSH1 0x20 DUP7 ADD PUSH2 0x937 JUMP JUMPDEST PUSH2 0xAAD DUP2 PUSH2 0x961 JUMP JUMPDEST DUP5 ADD SWAP2 POP POP SWAP3 SWAP2 POP POP JUMP JUMPDEST PUSH2 0xAC1 DUP2 PUSH2 0x896 JUMP JUMPDEST DUP3 MSTORE POP POP JUMP JUMPDEST PUSH1 0x0 PUSH1 0x80 DUP4 ADD PUSH1 0x0 DUP4 ADD MLOAD PUSH2 0xADF PUSH1 0x0 DUP7 ADD DUP3 PUSH2 0xA5F JUMP JUMPDEST POP PUSH1 0x20 DUP4 ADD MLOAD DUP5 DUP3 SUB PUSH1 0x20 DUP7 ADD MSTORE PUSH2 0xAF7 DUP3 DUP3 PUSH2 0xA7F JUMP JUMPDEST SWAP2 POP POP PUSH1 0x40 DUP4 ADD MLOAD PUSH2 0xB0C PUSH1 0x40 DUP7 ADD DUP3 PUSH2 0xAB8 JUMP JUMPDEST POP PUSH1 0x60 DUP4 ADD MLOAD PUSH2 0xB1F PUSH1 0x60 DUP7 ADD DUP3 PUSH2 0xAB8 JUMP JUMPDEST POP DUP1 SWAP2 POP POP SWAP3 SWAP2 POP POP JUMP JUMPDEST PUSH1 0x0 PUSH2 0xB36 DUP4 DUP4 PUSH2 0xAC7 JUMP JUMPDEST SWAP1 POP SWAP3 SWAP2 POP POP JUMP JUMPDEST PUSH1 0x0 PUSH1 0x20 DUP3 ADD SWAP1 POP SWAP2 SWAP1 POP JUMP JUMPDEST PUSH1 0x0 PUSH2 0xB56 DUP3 PUSH2 0xA33 JUMP JUMPDEST PUSH2 0xB60 DUP2 DUP6 PUSH2 0xA3E JUMP JUMPDEST SWAP4 POP DUP4 PUSH1 0x20 DUP3 MUL DUP6 ADD PUSH2 0xB72 DUP6 PUSH2 0xA4F JUMP JUMPDEST DUP1 PUSH1 0x0 JUMPDEST DUP6 DUP2 LT ISZERO PUSH2 0xBAE JUMPI DUP5 DUP5 SUB DUP10 MSTORE DUP2 MLOAD PUSH2 0xB8F DUP6 DUP3 PUSH2 0xB2A JUMP JUMPDEST SWAP5 POP PUSH2 0xB9A DUP4 PUSH2 0xB3E JUMP JUMPDEST SWAP3 POP PUSH1 0x20 DUP11 ADD SWAP10 POP POP PUSH1 0x1 DUP2 ADD SWAP1 POP PUSH2 0xB76 JUMP JUMPDEST POP DUP3 SWAP8 POP DUP8 SWAP6 POP POP POP POP POP POP SWAP3 SWAP2 POP POP JUMP JUMPDEST PUSH1 0x0 PUSH1 0x20 DUP3 ADD SWAP1 POP DUP2 DUP2 SUB PUSH1 0x0 DUP4 ADD MSTORE PUSH2 0xBDA DUP2 DUP5 PUSH2 0xB4B JUMP JUMPDEST SWAP1 POP SWAP3 SWAP2 POP POP JUMP JUMPDEST PUSH1 0x0 PUSH2 0xFFFF DUP3 AND SWAP1 POP SWAP2 SWAP1 POP JUMP JUMPDEST PUSH2 0xBF9 DUP2 PUSH2 0xBE2 JUMP JUMPDEST DUP2 EQ PUSH2 0xC04 JUMPI PUSH1 0x0 DUP1 REVERT JUMPDEST POP JUMP JUMPDEST PUSH1 0x0 DUP2 CALLDATALOAD SWAP1 POP PUSH2 0xC16 DUP2 PUSH2 0xBF0 JUMP JUMPDEST SWAP3 SWAP2 POP POP JUMP JUMPDEST PUSH1 0x0 PUSH1 0x20 DUP3 DUP5 SUB SLT ISZERO PUSH2 0xC32 JUMPI PUSH2 0xC31 PUSH2 0x82E JUMP JUMPDEST JUMPDEST PUSH1 0x0 PUSH2 0xC40 DUP5 DUP3 DUP6 ADD PUSH2 0xC07 JUMP JUMPDEST SWAP2 POP POP SWAP3 SWAP2 POP POP JUMP JUMPDEST PUSH2 0xC52 DUP2 PUSH2 0xBE2 JUMP JUMPDEST DUP3 MSTORE POP POP JUMP JUMPDEST PUSH1 0x0 PUSH1 0x20 DUP3 ADD SWAP1 POP PUSH2 0xC6D PUSH1 0x0 DUP4 ADD DUP5 PUSH2 0xC49 JUMP JUMPDEST SWAP3 SWAP2 POP POP JUMP JUMPDEST PUSH1 0x0 DUP1 REVERT JUMPDEST PUSH1 0x0 DUP1 REVERT JUMPDEST PUSH32 0x4E487B7100000000000000000000000000000000000000000000000000000000 PUSH1 0x0 MSTORE PUSH1 0x41 PUSH1 0x4 MSTORE PUSH1 0x24 PUSH1 0x0 REVERT JUMPDEST PUSH2 0xCB5 DUP3 PUSH2 0x961 JUMP JUMPDEST DUP2 ADD DUP2 DUP2 LT PUSH8 0xFFFFFFFFFFFFFFFF DUP3 GT OR ISZERO PUSH2 0xCD4 JUMPI PUSH2 0xCD3 PUSH2 0xC7D JUMP JUMPDEST JUMPDEST DUP1 PUSH1 0x40 MSTORE POP POP POP JUMP JUMPDEST PUSH1 0x0 PUSH2 0xCE7 PUSH2 0x824 JUMP JUMPDEST SWAP1 POP PUSH2 0xCF3 DUP3 DUP3 PUSH2 0xCAC JUMP JUMPDEST SWAP2 SWAP1 POP JUMP JUMPDEST PUSH1 0x0 PUSH8 0xFFFFFFFFFFFFFFFF DUP3 GT ISZERO PUSH2 0xD13 JUMPI PUSH2 0xD12 PUSH2 0xC7D JUMP JUMPDEST JUMPDEST PUSH2 0xD1C DUP3 PUSH2 0x961 JUMP JUMPDEST SWAP1 POP PUSH1 0x20 DUP2 ADD SWAP1 POP SWAP2 SWAP1 POP JUMP JUMPDEST DUP3 DUP2 DUP4 CALLDATACOPY PUSH1 0x0 DUP4 DUP4 ADD MSTORE POP POP POP JUMP JUMPDEST PUSH1 0x0 PUSH2 0xD4B PUSH2 0xD46 DUP5 PUSH2 0xCF8 JUMP JUMPDEST PUSH2 0xCDD JUMP JUMPDEST SWAP1 POP DUP3 DUP2 MSTORE PUSH1 0x20 DUP2 ADD DUP5 DUP5 DUP5 ADD GT ISZERO PUSH2 0xD67 JUMPI PUSH2 0xD66 PUSH2 0xC78 JUMP JUMPDEST JUMPDEST PUSH2 0xD72 DUP5 DUP3 DUP6 PUSH2 0xD29 JUMP JUMPDEST POP SWAP4 SWAP3 POP POP POP JUMP JUMPDEST PUSH1 0x0 DUP3 PUSH1 0x1F DUP4 ADD SLT PUSH2 0xD8F JUMPI PUSH2 0xD8E PUSH2 0xC73 JUMP JUMPDEST JUMPDEST DUP2 CALLDATALOAD PUSH2 0xD9F DUP5 DUP3 PUSH1 0x20 DUP7 ADD PUSH2 0xD38 JUMP JUMPDEST SWAP2 POP POP SWAP3 SWAP2 POP POP JUMP JUMPDEST PUSH1 0x0 PUSH1 0x20 DUP3 DUP5 SUB SLT ISZERO PUSH2 0xDBE JUMPI PUSH2 0xDBD PUSH2 0x82E JUMP JUMPDEST JUMPDEST PUSH1 0x0 DUP3 ADD CALLDATALOAD PUSH8 0xFFFFFFFFFFFFFFFF DUP2 GT ISZERO PUSH2 0xDDC JUMPI PUSH2 0xDDB PUSH2 0x833 JUMP JUMPDEST JUMPDEST PUSH2 0xDE8 DUP5 DUP3 DUP6 ADD PUSH2 0xD7A JUMP JUMPDEST SWAP2 POP POP SWAP3 SWAP2 POP POP JUMP JUMPDEST PUSH1 0x0 PUSH1 0x20 DUP3 ADD SWAP1 POP PUSH2 0xE06 PUSH1 0x0 DUP4 ADD DUP5 PUSH2 0x90C JUMP JUMPDEST SWAP3 SWAP2 POP POP JUMP JUMPDEST PUSH1 0x0 PUSH1 0x20 DUP3 DUP5 SUB SLT ISZERO PUSH2 0xE22 JUMPI PUSH2 0xE21 PUSH2 0x82E JUMP JUMPDEST JUMPDEST PUSH1 0x0 PUSH2 0xE30 DUP5 DUP3 DUP6 ADD PUSH2 0x8B7 JUMP JUMPDEST SWAP2 POP POP SWAP3 SWAP2 POP POP JUMP JUMPDEST PUSH1 0x0 PUSH1 0x80 DUP4 ADD PUSH1 0x0 DUP4 ADD MLOAD PUSH2 0xE51 PUSH1 0x0 DUP7 ADD DUP3 PUSH2 0xA5F JUMP JUMPDEST POP PUSH1 0x20 DUP4 ADD MLOAD DUP5 DUP3 SUB PUSH1 0x20 DUP7 ADD MSTORE PUSH2 0xE69 DUP3 DUP3 PUSH2 0xA7F JUMP JUMPDEST SWAP2 POP POP PUSH1 0x40 DUP4 ADD MLOAD PUSH2 0xE7E PUSH1 0x40 DUP7 ADD DUP3 PUSH2 0xAB8 JUMP JUMPDEST POP PUSH1 0x60 DUP4 ADD MLOAD PUSH2 0xE91 PUSH1 0x60 DUP7 ADD DUP3 PUSH2 0xAB8 JUMP JUMPDEST POP DUP1 SWAP2 POP POP SWAP3 SWAP2 POP POP JUMP JUMPDEST PUSH1 0x0 PUSH1 0x20 DUP3 ADD SWAP1 POP DUP2 DUP2 SUB PUSH1 0x0 DUP4 ADD MSTORE PUSH2 0xEB6 DUP2 DUP5 PUSH2 0xE39 JUMP JUMPDEST SWAP1 POP SWAP3 SWAP2 POP POP JUMP JUMPDEST PUSH32 0x4E487B7100000000000000000000000000000000000000000000000000000000 PUSH1 0x0 MSTORE PUSH1 0x22 PUSH1 0x4 MSTORE PUSH1 0x24 PUSH1 0x0 REVERT JUMPDEST PUSH1 0x0 PUSH1 0x2 DUP3 DIV SWAP1 POP PUSH1 0x1 DUP3 AND DUP1 PUSH2 0xF05 JUMPI PUSH1 0x7F DUP3 AND SWAP2 POP JUMPDEST PUSH1 0x20 DUP3 LT DUP2 SUB PUSH2 0xF18 JUMPI PUSH2 0xF17 PUSH2 0xEBE JUMP JUMPDEST JUMPDEST POP SWAP2 SWAP1 POP JUMP JUMPDEST PUSH32 0x594F5520415245204E4F5420544845204F574E45522100000000000000000000 PUSH1 0x0 DUP3 ADD MSTORE POP JUMP JUMPDEST PUSH1 0x0 PUSH2 0xF54 PUSH1 0x16 DUP4 PUSH2 0x926 JUMP JUMPDEST SWAP2 POP PUSH2 0xF5F DUP3 PUSH2 0xF1E JUMP JUMPDEST PUSH1 0x20 DUP3 ADD SWAP1 POP SWAP2 SWAP1 POP JUMP JUMPDEST PUSH1 0x0 PUSH1 0x20 DUP3 ADD SWAP1 POP DUP2 DUP2 SUB PUSH1 0x0 DUP4 ADD MSTORE PUSH2 0xF83 DUP2 PUSH2 0xF47 JUMP JUMPDEST SWAP1 POP SWAP2 SWAP1 POP JUMP JUMPDEST PUSH32 0x547765657420697320746F6F206C6F6E672062726F2021000000000000000000 PUSH1 0x0 DUP3 ADD MSTORE POP JUMP JUMPDEST PUSH1 0x0 PUSH2 0xFC0 PUSH1 0x17 DUP4 PUSH2 0x926 JUMP JUMPDEST SWAP2 POP PUSH2 0xFCB DUP3 PUSH2 0xF8A JUMP JUMPDEST PUSH1 0x20 DUP3 ADD SWAP1 POP SWAP2 SWAP1 POP JUMP JUMPDEST PUSH1 0x0 PUSH1 0x20 DUP3 ADD SWAP1 POP DUP2 DUP2 SUB PUSH1 0x0 DUP4 ADD MSTORE PUSH2 0xFEF DUP2 PUSH2 0xFB3 JUMP JUMPDEST SWAP1 POP SWAP2 SWAP1 POP JUMP JUMPDEST PUSH1 0x0 DUP2 SWAP1 POP DUP2 PUSH1 0x0 MSTORE PUSH1 0x20 PUSH1 0x0 KECCAK256 SWAP1 POP SWAP2 SWAP1 POP JUMP JUMPDEST PUSH1 0x0 PUSH1 0x20 PUSH1 0x1F DUP4 ADD DIV SWAP1 POP SWAP2 SWAP1 POP JUMP JUMPDEST PUSH1 0x0 DUP3 DUP3 SHL SWAP1 POP SWAP3 SWAP2 POP POP JUMP JUMPDEST PUSH1 0x0 PUSH1 0x8 DUP4 MUL PUSH2 0x1058 PUSH32 0xFFFFFFFFFFFFFFFFFFFFFFFFFFFFFFFFFFFFFFFFFFFFFFFFFFFFFFFFFFFFFFFF DUP3 PUSH2 0x101B JUMP JUMPDEST PUSH2 0x1062 DUP7 DUP4 PUSH2 0x101B JUMP JUMPDEST SWAP6 POP DUP1 NOT DUP5 AND SWAP4 POP DUP1 DUP7 AND DUP5 OR SWAP3 POP POP POP SWAP4 SWAP3 POP POP POP JUMP JUMPDEST PUSH1 0x0 DUP2 SWAP1 POP SWAP2 SWAP1 POP JUMP JUMPDEST PUSH1 0x0 PUSH2 0x109F PUSH2 0x109A PUSH2 0x1095 DUP5 PUSH2 0x896 JUMP JUMPDEST PUSH2 0x107A JUMP JUMPDEST PUSH2 0x896 JUMP JUMPDEST SWAP1 POP SWAP2 SWAP1 POP JUMP JUMPDEST PUSH1 0x0 DUP2 SWAP1 POP SWAP2 SWAP1 POP JUMP JUMPDEST PUSH2 0x10B9 DUP4 PUSH2 0x1084 JUMP JUMPDEST PUSH2 0x10CD PUSH2 0x10C5 DUP3 PUSH2 0x10A6 JUMP JUMPDEST DUP5 DUP5 SLOAD PUSH2 0x1028 JUMP JUMPDEST DUP3 SSTORE POP POP POP POP JUMP JUMPDEST PUSH1 0x0 SWAP1 JUMP JUMPDEST PUSH2 0x10E2 PUSH2 0x10D5 JUMP JUMPDEST PUSH2 0x10ED DUP2 DUP5 DUP5 PUSH2 0x10B0 JUMP JUMPDEST POP POP POP JUMP JUMPDEST JUMPDEST DUP2 DUP2 LT ISZERO PUSH2 0x1111 JUMPI PUSH2 0x1106 PUSH1 0x0 DUP3 PUSH2 0x10DA JUMP JUMPDEST PUSH1 0x1 DUP2 ADD SWAP1 POP PUSH2 0x10F3 JUMP JUMPDEST POP POP JUMP JUMPDEST PUSH1 0x1F DUP3 GT ISZERO PUSH2 0x1156 JUMPI PUSH2 0x1127 DUP2 PUSH2 0xFF6 JUMP JUMPDEST PUSH2 0x1130 DUP5 PUSH2 0x100B JUMP JUMPDEST DUP2 ADD PUSH1 0x20 DUP6 LT ISZERO PUSH2 0x113F JUMPI DUP2 SWAP1 POP JUMPDEST PUSH2 0x1153 PUSH2 0x114B DUP6 PUSH2 0x100B JUMP JUMPDEST DUP4 ADD DUP3 PUSH2 0x10F2 JUMP JUMPDEST POP POP JUMPDEST POP POP POP JUMP JUMPDEST PUSH1 0x0 DUP3 DUP3 SHR SWAP1 POP SWAP3 SWAP2 POP POP JUMP JUMPDEST PUSH1 0x0 PUSH2 0x1179 PUSH1 0x0 NOT DUP5 PUSH1 0x8 MUL PUSH2 0x115B JUMP JUMPDEST NOT DUP1 DUP4 AND SWAP2 POP POP SWAP3 SWAP2 POP POP JUMP JUMPDEST PUSH1 0x0 PUSH2 0x1192 DUP4 DUP4 PUSH2 0x1168 JUMP JUMPDEST SWAP2 POP DUP3 PUSH1 0x2 MUL DUP3 OR SWAP1 POP SWAP3 SWAP2 POP POP JUMP JUMPDEST PUSH2 0x11AB DUP3 PUSH2 0x91B JUMP JUMPDEST PUSH8 0xFFFFFFFFFFFFFFFF DUP2 GT ISZERO PUSH2 0x11C4 JUMPI PUSH2 0x11C3 PUSH2 0xC7D JUMP JUMPDEST JUMPDEST PUSH2 0x11CE DUP3 SLOAD PUSH2 0xEED JUMP JUMPDEST PUSH2 0x11D9 DUP3 DUP3 DUP6 PUSH2 0x1115 JUMP JUMPDEST PUSH1 0x0 PUSH1 0x20 SWAP1 POP PUSH1 0x1F DUP4 GT PUSH1 0x1 DUP2 EQ PUSH2 0x120C JUMPI PUSH1 0x0 DUP5 ISZERO PUSH2 0x11FA JUMPI DUP3 DUP8 ADD MLOAD SWAP1 POP JUMPDEST PUSH2 0x1204 DUP6 DUP3 PUSH2 0x1186 JUMP JUMPDEST DUP7 SSTORE POP PUSH2 0x126C JUMP JUMPDEST PUSH1 0x1F NOT DUP5 AND PUSH2 0x121A DUP7 PUSH2 0xFF6 JUMP JUMPDEST PUSH1 0x0 JUMPDEST DUP3 DUP2 LT ISZERO PUSH2 0x1242 JUMPI DUP5 DUP10 ADD MLOAD DUP3 SSTORE PUSH1 0x1 DUP3 ADD SWAP2 POP PUSH1 0x20 DUP6 ADD SWAP5 POP PUSH1 0x20 DUP2 ADD SWAP1 POP PUSH2 0x121D JUMP JUMPDEST DUP7 DUP4 LT ISZERO PUSH2 0x125F JUMPI DUP5 DUP10 ADD MLOAD PUSH2 0x125B PUSH1 0x1F DUP10 AND DUP3 PUSH2 0x1168 JUMP JUMPDEST DUP4 SSTORE POP JUMPDEST PUSH1 0x1 PUSH1 0x2 DUP9 MUL ADD DUP9 SSTORE POP POP POP JUMPDEST POP POP POP POP POP POP JUMP JUMPDEST PUSH32 0x4E487B7100000000000000000000000000000000000000000000000000000000 PUSH1 0x0 MSTORE PUSH1 0x32 PUSH1 0x4 MSTORE PUSH1 0x24 PUSH1 0x0 REVERT INVALID LOG2 PUSH5 0x6970667358 0x22 SLT KECCAK256 CALLCODE SWAP6 0xCB 0x4D PUSH21 0x670273AA9FB1228F81D8F6CA92A6F401EA13B90FB6 PUSH8 0xCA4FFEBC7F64736F PUSH13 0x63430008120033000000000000 "
				},
				"gasEstimates": {
					"creation": {
						"codeDepositCost": "965000",
						"executionCost": "49534",
						"totalCost": "1014534"
					},
					"external": {
						"MAX_TWEET_LENGTH()": "2468",
						"changeTweetLength(uint16)": "26894",
						"createTweet(string)": "infinite",
						"getAllTweets(address)": "infinite",
						"getTweet(uint256)": "infinite",
						"owner()": "2558",
						"tweets(address,uint256)": "infinite"
					}
				},
				"methodIdentifiers": {
					"MAX_TWEET_LENGTH()": "6eb10797",
					"changeTweetLength(uint16)": "58bfa4ab",
					"createTweet(string)": "7c9cd2bc",
					"getAllTweets(address)": "12e7ee1c",
					"getTweet(uint256)": "c3ad5ecb",
					"owner()": "8da5cb5b",
					"tweets(address,uint256)": "05a1b4a9"
				}
			},
			"storageLayout": {
				"storage": [
					{
						"astId": 4,
						"contract": "Twitter.sol:Twitter",
						"label": "MAX_TWEET_LENGTH",
						"offset": 0,
						"slot": "0",
						"type": "t_uint16"
					},
					{
						"astId": 19,
						"contract": "Twitter.sol:Twitter",
						"label": "tweets",
						"offset": 0,
						"slot": "1",
						"type": "t_mapping(t_address,t_array(t_struct(Tweet)13_storage)dyn_storage)"
					},
					{
						"astId": 21,
						"contract": "Twitter.sol:Twitter",
						"label": "owner",
						"offset": 0,
						"slot": "2",
						"type": "t_address"
					}
				],
				"types": {
					"t_address": {
						"encoding": "inplace",
						"label": "address",
						"numberOfBytes": "20"
					},
					"t_array(t_struct(Tweet)13_storage)dyn_storage": {
						"base": "t_struct(Tweet)13_storage",
						"encoding": "dynamic_array",
						"label": "struct Twitter.Tweet[]",
						"numberOfBytes": "32"
					},
					"t_mapping(t_address,t_array(t_struct(Tweet)13_storage)dyn_storage)": {
						"encoding": "mapping",
						"key": "t_address",
						"label": "mapping(address => struct Twitter.Tweet[])",
						"numberOfBytes": "32",
						"value": "t_array(t_struct(Tweet)13_storage)dyn_storage"
					},
					"t_string_storage": {
						"encoding": "bytes",
						"label": "string",
						"numberOfBytes": "32"
					},
					"t_struct(Tweet)13_storage": {
						"encoding": "inplace",
						"label": "struct Twitter.Tweet",
						"members": [
							{
								"astId": 6,
								"contract": "Twitter.sol:Twitter",
								"label": "author",
								"offset": 0,
								"slot": "0",
								"type": "t_address"
							},
							{
								"astId": 8,
								"contract": "Twitter.sol:Twitter",
								"label": "content",
								"offset": 0,
								"slot": "1",
								"type": "t_string_storage"
							},
							{
								"astId": 10,
								"contract": "Twitter.sol:Twitter",
								"label": "timestamp",
								"offset": 0,
								"slot": "2",
								"type": "t_uint256"
							},
							{
								"astId": 12,
								"contract": "Twitter.sol:Twitter",
								"label": "likes",
								"offset": 0,
								"slot": "3",
								"type": "t_uint256"
							}
						],
						"numberOfBytes": "128"
					},
					"t_uint16": {
						"encoding": "inplace",
						"label": "uint16",
						"numberOfBytes": "2"
					},
					"t_uint256": {
						"encoding": "inplace",
						"label": "uint256",
						"numberOfBytes": "32"
					}
				}
			},
			"userdoc": {
				"kind": "user",
				"methods": {},
				"version": 1
			}
		}
	}
}