{
	"maxArray.sol": {
		"Maximumarray": {
			"abi": [
				{
					"inputs": [
						{
							"internalType": "uint256",
							"name": "",
							"type": "uint256"
						}
					],
					"name": "M_array",
					"outputs": [
						{
							"internalType": "uint256",
							"name": "",
							"type": "uint256"
						}
					],
					"stateMutability": "view",
					"type": "function"
				}
			],
			"devdoc": {
				"kind": "dev",
				"methods": {},
				"version": 1
			},
			"evm": {
				"assembly": "    /* \"maxArray.sol\":60:135  contract Maximumarray {... */\n  mstore(0x40, 0x80)\n    /* \"maxArray.sol\":89:127  uint [] public M_array = [20,55,37,72] */\n  mload(0x40)\n  dup1\n  0x80\n  add\n  0x40\n  mstore\n  dup1\n    /* \"maxArray.sol\":115:117  20 */\n  0x14\n    /* \"maxArray.sol\":89:127  uint [] public M_array = [20,55,37,72] */\n  0xff\n  and\n  dup2\n  mstore\n  0x20\n  add\n    /* \"maxArray.sol\":118:120  55 */\n  0x37\n    /* \"maxArray.sol\":89:127  uint [] public M_array = [20,55,37,72] */\n  0xff\n  and\n  dup2\n  mstore\n  0x20\n  add\n    /* \"maxArray.sol\":121:123  37 */\n  0x25\n    /* \"maxArray.sol\":89:127  uint [] public M_array = [20,55,37,72] */\n  0xff\n  and\n  dup2\n  mstore\n  0x20\n  add\n    /* \"maxArray.sol\":124:126  72 */\n  0x48\n    /* \"maxArray.sol\":89:127  uint [] public M_array = [20,55,37,72] */\n  0xff\n  and\n  dup2\n  mstore\n  pop\n  0x00\n  swap1\n  dup2\n  tag_1\n  swap2\n  swap1\n  tag_2\n  jump\t// in\ntag_1:\n  pop\n    /* \"maxArray.sol\":60:135  contract Maximumarray {... */\n  callvalue\n  dup1\n  iszero\n  tag_3\n  jumpi\n  revert(0x00, 0x00)\ntag_3:\n  pop\n  jump(tag_4)\n    /* \"#utility.yul\":7:187   */\ntag_5:\n    /* \"#utility.yul\":55:132   */\n  0x4e487b7100000000000000000000000000000000000000000000000000000000\n    /* \"#utility.yul\":52:53   */\n  0x00\n    /* \"#utility.yul\":45:133   */\n  mstore\n    /* \"#utility.yul\":152:156   */\n  0x41\n    /* \"#utility.yul\":149:150   */\n  0x04\n    /* \"#utility.yul\":142:157   */\n  mstore\n    /* \"#utility.yul\":176:180   */\n  0x24\n    /* \"#utility.yul\":173:174   */\n  0x00\n    /* \"#utility.yul\":166:181   */\n  revert\n    /* \"#utility.yul\":193:304   */\ntag_6:\n    /* \"#utility.yul\":257:263   */\n  0x00\n    /* \"#utility.yul\":291:296   */\n  dup2\n    /* \"#utility.yul\":285:297   */\n  sload\n    /* \"#utility.yul\":275:297   */\n  swap1\n  pop\n    /* \"#utility.yul\":193:304   */\n  swap2\n  swap1\n  pop\n  jump\t// out\n    /* \"#utility.yul\":310:387   */\ntag_7:\n    /* \"#utility.yul\":347:354   */\n  0x00\n    /* \"#utility.yul\":376:381   */\n  dup2\n    /* \"#utility.yul\":365:381   */\n  swap1\n  pop\n    /* \"#utility.yul\":310:387   */\n  swap2\n  swap1\n  pop\n  jump\t// out\n    /* \"#utility.yul\":995:1198   */\ntag_10:\n    /* \"#utility.yul\":1076:1080   */\n  0x00\n    /* \"#utility.yul\":1099:1105   */\n  dup2\n    /* \"#utility.yul\":1091:1105   */\n  swap1\n  pop\n    /* \"#utility.yul\":1189:1190   */\n  0x01\n    /* \"#utility.yul\":1184:1185   */\n  dup1\n    /* \"#utility.yul\":1181:1182   */\n  0x01\n    /* \"#utility.yul\":1177:1186   */\n  sub\n    /* \"#utility.yul\":1169:1175   */\n  dup4\n    /* \"#utility.yul\":1165:1187   */\n  add\n    /* \"#utility.yul\":1161:1191   */\n  div\n    /* \"#utility.yul\":1153:1191   */\n  swap1\n  pop\n    /* \"#utility.yul\":995:1198   */\n  swap2\n  swap1\n  pop\n  jump\t// out\n    /* \"#utility.yul\":1203:1359   */\ntag_11:\n    /* \"#utility.yul\":1267:1271   */\n  0x00\n    /* \"#utility.yul\":1290:1293   */\n  dup2\n    /* \"#utility.yul\":1282:1293   */\n  swap1\n  pop\n    /* \"#utility.yul\":1313:1316   */\n  dup2\n    /* \"#utility.yul\":1310:1311   */\n  0x00\n    /* \"#utility.yul\":1303:1317   */\n  mstore\n    /* \"#utility.yul\":1347:1351   */\n  0x20\n    /* \"#utility.yul\":1344:1345   */\n  0x00\n    /* \"#utility.yul\":1334:1352   */\n  keccak256\n    /* \"#utility.yul\":1326:1352   */\n  swap1\n  pop\n    /* \"#utility.yul\":1203:1359   */\n  swap2\n  swap1\n  pop\n  jump\t// out\n    /* \"#utility.yul\":1365:1472   */\ntag_12:\n    /* \"#utility.yul\":1409:1417   */\n  0x00\n    /* \"#utility.yul\":1459:1464   */\n  dup3\n    /* \"#utility.yul\":1453:1457   */\n  dup3\n    /* \"#utility.yul\":1449:1465   */\n  shl\n    /* \"#utility.yul\":1428:1465   */\n  swap1\n  pop\n    /* \"#utility.yul\":1365:1472   */\n  swap3\n  swap2\n  pop\n  pop\n  jump\t// out\n    /* \"#utility.yul\":1478:1871   */\ntag_13:\n    /* \"#utility.yul\":1547:1553   */\n  0x00\n    /* \"#utility.yul\":1597:1598   */\n  0x08\n    /* \"#utility.yul\":1585:1595   */\n  dup4\n    /* \"#utility.yul\":1581:1599   */\n  mul\n    /* \"#utility.yul\":1620:1717   */\n  tag_47\n    /* \"#utility.yul\":1650:1716   */\n  0xffffffffffffffffffffffffffffffffffffffffffffffffffffffffffffffff\n    /* \"#utility.yul\":1639:1648   */\n  dup3\n    /* \"#utility.yul\":1620:1717   */\n  tag_12\n  jump\t// in\ntag_47:\n    /* \"#utility.yul\":1738:1777   */\n  tag_48\n    /* \"#utility.yul\":1768:1776   */\n  dup7\n    /* \"#utility.yul\":1757:1766   */\n  dup4\n    /* \"#utility.yul\":1738:1777   */\n  tag_12\n  jump\t// in\ntag_48:\n    /* \"#utility.yul\":1726:1777   */\n  swap6\n  pop\n    /* \"#utility.yul\":1810:1814   */\n  dup1\n    /* \"#utility.yul\":1806:1815   */\n  not\n    /* \"#utility.yul\":1799:1804   */\n  dup5\n    /* \"#utility.yul\":1795:1816   */\n  and\n    /* \"#utility.yul\":1786:1816   */\n  swap4\n  pop\n    /* \"#utility.yul\":1859:1863   */\n  dup1\n    /* \"#utility.yul\":1849:1857   */\n  dup7\n    /* \"#utility.yul\":1845:1864   */\n  and\n    /* \"#utility.yul\":1838:1843   */\n  dup5\n    /* \"#utility.yul\":1835:1865   */\n  or\n    /* \"#utility.yul\":1825:1865   */\n  swap3\n  pop\n    /* \"#utility.yul\":1554:1871   */\n  pop\n  pop\n    /* \"#utility.yul\":1478:1871   */\n  swap4\n  swap3\n  pop\n  pop\n  pop\n  jump\t// out\n    /* \"#utility.yul\":1877:1937   */\ntag_14:\n    /* \"#utility.yul\":1905:1908   */\n  0x00\n    /* \"#utility.yul\":1926:1931   */\n  dup2\n    /* \"#utility.yul\":1919:1931   */\n  swap1\n  pop\n    /* \"#utility.yul\":1877:1937   */\n  swap2\n  swap1\n  pop\n  jump\t// out\n    /* \"#utility.yul\":1943:2085   */\ntag_15:\n    /* \"#utility.yul\":1993:2002   */\n  0x00\n    /* \"#utility.yul\":2026:2079   */\n  tag_51\n    /* \"#utility.yul\":2044:2078   */\n  tag_52\n    /* \"#utility.yul\":2053:2077   */\n  tag_53\n    /* \"#utility.yul\":2071:2076   */\n  dup5\n    /* \"#utility.yul\":2053:2077   */\n  tag_7\n  jump\t// in\ntag_53:\n    /* \"#utility.yul\":2044:2078   */\n  tag_14\n  jump\t// in\ntag_52:\n    /* \"#utility.yul\":2026:2079   */\n  tag_7\n  jump\t// in\ntag_51:\n    /* \"#utility.yul\":2013:2079   */\n  swap1\n  pop\n    /* \"#utility.yul\":1943:2085   */\n  swap2\n  swap1\n  pop\n  jump\t// out\n    /* \"#utility.yul\":2091:2166   */\ntag_16:\n    /* \"#utility.yul\":2134:2137   */\n  0x00\n    /* \"#utility.yul\":2155:2160   */\n  dup2\n    /* \"#utility.yul\":2148:2160   */\n  swap1\n  pop\n    /* \"#utility.yul\":2091:2166   */\n  swap2\n  swap1\n  pop\n  jump\t// out\n    /* \"#utility.yul\":2172:2441   */\ntag_17:\n    /* \"#utility.yul\":2282:2321   */\n  tag_56\n    /* \"#utility.yul\":2313:2320   */\n  dup4\n    /* \"#utility.yul\":2282:2321   */\n  tag_15\n  jump\t// in\ntag_56:\n    /* \"#utility.yul\":2343:2434   */\n  tag_57\n    /* \"#utility.yul\":2392:2433   */\n  tag_58\n    /* \"#utility.yul\":2416:2432   */\n  dup3\n    /* \"#utility.yul\":2392:2433   */\n  tag_16\n  jump\t// in\ntag_58:\n    /* \"#utility.yul\":2384:2390   */\n  dup5\n    /* \"#utility.yul\":2377:2381   */\n  dup5\n    /* \"#utility.yul\":2371:2382   */\n  sload\n    /* \"#utility.yul\":2343:2434   */\n  tag_13\n  jump\t// in\ntag_57:\n    /* \"#utility.yul\":2337:2341   */\n  dup3\n    /* \"#utility.yul\":2330:2435   */\n  sstore\n    /* \"#utility.yul\":2248:2441   */\n  pop\n    /* \"#utility.yul\":2172:2441   */\n  pop\n  pop\n  pop\n  jump\t// out\n    /* \"#utility.yul\":2447:2520   */\ntag_18:\n    /* \"#utility.yul\":2492:2495   */\n  0x00\n    /* \"#utility.yul\":2513:2514   */\n  0x00\n    /* \"#utility.yul\":2506:2514   */\n  swap1\n  pop\n    /* \"#utility.yul\":2447:2520   */\n  swap1\n  jump\t// out\n    /* \"#utility.yul\":2526:2715   */\ntag_19:\n    /* \"#utility.yul\":2603:2635   */\n  tag_61\n  tag_18\n  jump\t// in\ntag_61:\n    /* \"#utility.yul\":2644:2709   */\n  tag_62\n    /* \"#utility.yul\":2702:2708   */\n  dup2\n    /* \"#utility.yul\":2694:2700   */\n  dup5\n    /* \"#utility.yul\":2688:2692   */\n  dup5\n    /* \"#utility.yul\":2644:2709   */\n  tag_17\n  jump\t// in\ntag_62:\n    /* \"#utility.yul\":2579:2715   */\n  pop\n    /* \"#utility.yul\":2526:2715   */\n  pop\n  pop\n  jump\t// out\n    /* \"#utility.yul\":2721:2936   */\ntag_20:\n    /* \"#utility.yul\":2807:2808   */\n  0x00\n    /* \"#utility.yul\":2792:2930   */\ntag_64:\n    /* \"#utility.yul\":2817:2826   */\n  dup3\n    /* \"#utility.yul\":2814:2815   */\n  dup2\n    /* \"#utility.yul\":2811:2827   */\n  lt\n    /* \"#utility.yul\":2792:2930   */\n  iszero\n  tag_66\n  jumpi\n    /* \"#utility.yul\":2869:2920   */\n  tag_67\n    /* \"#utility.yul\":2918:2919   */\n  0x00\n    /* \"#utility.yul\":2914:2915   */\n  dup3\n    /* \"#utility.yul\":2903:2912   */\n  dup5\n    /* \"#utility.yul\":2899:2916   */\n  add\n    /* \"#utility.yul\":2869:2920   */\n  tag_19\n  jump\t// in\ntag_67:\n    /* \"#utility.yul\":2842:2843   */\n  0x01\n    /* \"#utility.yul\":2839:2840   */\n  dup2\n    /* \"#utility.yul\":2835:2844   */\n  add\n    /* \"#utility.yul\":2830:2844   */\n  swap1\n  pop\n    /* \"#utility.yul\":2792:2930   */\n  jump(tag_64)\ntag_66:\n    /* \"#utility.yul\":2796:2810   */\n  pop\n    /* \"#utility.yul\":2721:2936   */\n  pop\n  pop\n  jump\t// out\n    /* \"#utility.yul\":3315:3955   */\ntag_23:\n    /* \"#utility.yul\":3435:3438   */\n  dup2\n    /* \"#utility.yul\":3423:3433   */\n  dup4\n    /* \"#utility.yul\":3420:3439   */\n  lt\n    /* \"#utility.yul\":3417:3948   */\n  iszero\n  tag_72\n  jumpi\n    /* \"#utility.yul\":3526:3591   */\n  tag_73\n    /* \"#utility.yul\":3587:3590   */\n  dup3\n    /* \"#utility.yul\":3526:3591   */\n  tag_10\n  jump\t// in\ntag_73:\n    /* \"#utility.yul\":3624:3696   */\n  tag_74\n    /* \"#utility.yul\":3685:3695   */\n  dup5\n    /* \"#utility.yul\":3624:3696   */\n  tag_10\n  jump\t// in\ntag_74:\n    /* \"#utility.yul\":3731:3784   */\n  tag_75\n    /* \"#utility.yul\":3778:3783   */\n  dup4\n    /* \"#utility.yul\":3731:3784   */\n  tag_11\n  jump\t// in\ntag_75:\n    /* \"#utility.yul\":3836:3848   */\n  dup2\n    /* \"#utility.yul\":3820:3834   */\n  dup2\n    /* \"#utility.yul\":3816:3849   */\n  add\n    /* \"#utility.yul\":3863:3938   */\n  tag_76\n    /* \"#utility.yul\":3924:3936   */\n  dup4\n    /* \"#utility.yul\":3910:3922   */\n  dup6\n    /* \"#utility.yul\":3906:3937   */\n  sub\n    /* \"#utility.yul\":3893:3904   */\n  dup3\n    /* \"#utility.yul\":3863:3938   */\n  tag_20\n  jump\t// in\ntag_76:\n    /* \"#utility.yul\":3440:3948   */\n  pop\n  pop\n  pop\n  pop\n    /* \"#utility.yul\":3417:3948   */\ntag_72:\n    /* \"#utility.yul\":3315:3955   */\n  pop\n  pop\n  pop\n  jump\t// out\n    /* \"#utility.yul\":3961:4349   */\ntag_24:\n    /* \"#utility.yul\":4054:4074   */\n  0x010000000000000000\n    /* \"#utility.yul\":4046:4052   */\n  dup3\n    /* \"#utility.yul\":4043:4075   */\n  gt\n    /* \"#utility.yul\":4040:4118   */\n  iszero\n  tag_78\n  jumpi\n    /* \"#utility.yul\":4090:4108   */\n  tag_79\n  tag_5\n  jump\t// in\ntag_79:\n    /* \"#utility.yul\":4040:4118   */\ntag_78:\n    /* \"#utility.yul\":4142:4193   */\n  tag_80\n    /* \"#utility.yul\":4187:4192   */\n  dup2\n    /* \"#utility.yul\":4142:4193   */\n  tag_6\n  jump\t// in\ntag_80:\n    /* \"#utility.yul\":4245:4251   */\n  dup3\n    /* \"#utility.yul\":4238:4243   */\n  dup3\n    /* \"#utility.yul\":4231:4252   */\n  sstore\n    /* \"#utility.yul\":4262:4342   */\n  tag_81\n    /* \"#utility.yul\":4335:4341   */\n  dup4\n    /* \"#utility.yul\":4327:4333   */\n  dup3\n    /* \"#utility.yul\":4320:4325   */\n  dup5\n    /* \"#utility.yul\":4262:4342   */\n  tag_23\n  jump\t// in\ntag_81:\n    /* \"#utility.yul\":4030:4349   */\n  pop\n    /* \"#utility.yul\":3961:4349   */\n  pop\n  pop\n  jump\t// out\n    /* \"#utility.yul\":4354:4456   */\ntag_25:\n    /* \"#utility.yul\":4417:4423   */\n  0x00\n    /* \"#utility.yul\":4445:4449   */\n  0x04\n    /* \"#utility.yul\":4435:4449   */\n  swap1\n  pop\n    /* \"#utility.yul\":4354:4456   */\n  swap2\n  swap1\n  pop\n  jump\t// out\n    /* \"#utility.yul\":4462:4548   */\ntag_26:\n    /* \"#utility.yul\":4497:4504   */\n  0x00\n    /* \"#utility.yul\":4537:4541   */\n  0xff\n    /* \"#utility.yul\":4530:4535   */\n  dup3\n    /* \"#utility.yul\":4526:4542   */\n  and\n    /* \"#utility.yul\":4515:4542   */\n  swap1\n  pop\n    /* \"#utility.yul\":4462:4548   */\n  swap2\n  swap1\n  pop\n  jump\t// out\n    /* \"#utility.yul\":4554:4704   */\ntag_27:\n    /* \"#utility.yul\":4595:4606   */\n  0x00\n    /* \"#utility.yul\":4631:4658   */\n  tag_85\n    /* \"#utility.yul\":4653:4656   */\n  dup3\n    /* \"#utility.yul\":4647:4657   */\n  mload\n    /* \"#utility.yul\":4631:4658   */\n  tag_26\n  jump\t// in\ntag_85:\n    /* \"#utility.yul\":4692:4697   */\n  dup1\n    /* \"#utility.yul\":4668:4697   */\n  swap2\n  pop\n    /* \"#utility.yul\":4607:4704   */\n  pop\n    /* \"#utility.yul\":4554:4704   */\n  swap2\n  swap1\n  pop\n  jump\t// out\n    /* \"#utility.yul\":4710:4806   */\ntag_28:\n    /* \"#utility.yul\":4773:4777   */\n  0x00\n    /* \"#utility.yul\":4796:4799   */\n  dup2\n    /* \"#utility.yul\":4788:4799   */\n  swap1\n  pop\n    /* \"#utility.yul\":4710:4806   */\n  swap2\n  swap1\n  pop\n  jump\t// out\n    /* \"#utility.yul\":5258:6245   */\ntag_2:\n    /* \"#utility.yul\":5395:5443   */\n  tag_96\n    /* \"#utility.yul\":5439:5442   */\n  dup3\n    /* \"#utility.yul\":5395:5443   */\n  tag_25\n  jump\t// in\ntag_96:\n    /* \"#utility.yul\":5508:5526   */\n  0xffffffffffffffff\n    /* \"#utility.yul\":5500:5506   */\n  dup2\n    /* \"#utility.yul\":5497:5527   */\n  gt\n    /* \"#utility.yul\":5494:5550   */\n  iszero\n  tag_97\n  jumpi\n    /* \"#utility.yul\":5530:5548   */\n  tag_98\n  tag_5\n  jump\t// in\ntag_98:\n    /* \"#utility.yul\":5494:5550   */\ntag_97:\n    /* \"#utility.yul\":5559:5616   */\n  tag_99\n    /* \"#utility.yul\":5609:5615   */\n  dup2\n    /* \"#utility.yul\":5604:5607   */\n  dup4\n    /* \"#utility.yul\":5559:5616   */\n  tag_24\n  jump\t// in\ntag_99:\n    /* \"#utility.yul\":5640:5690   */\n  tag_100\n    /* \"#utility.yul\":5686:5689   */\n  dup4\n    /* \"#utility.yul\":5640:5690   */\n  tag_28\n  jump\t// in\ntag_100:\n    /* \"#utility.yul\":5714:5765   */\n  tag_101\n    /* \"#utility.yul\":5761:5764   */\n  dup4\n    /* \"#utility.yul\":5714:5765   */\n  tag_11\n  jump\t// in\ntag_101:\n    /* \"#utility.yul\":5804:5805   */\n  0x01\n    /* \"#utility.yul\":5796:5802   */\n  dup4\n    /* \"#utility.yul\":5792:5806   */\n  div\n    /* \"#utility.yul\":5831:5832   */\n  0x00\n    /* \"#utility.yul\":5816:6238   */\ntag_102:\n    /* \"#utility.yul\":5841:5850   */\n  dup2\n    /* \"#utility.yul\":5838:5839   */\n  dup2\n    /* \"#utility.yul\":5835:5851   */\n  lt\n    /* \"#utility.yul\":5816:6238   */\n  iszero\n  tag_104\n  jumpi\n    /* \"#utility.yul\":5905:5906   */\n  0x00\n    /* \"#utility.yul\":5958:5989   */\n  tag_105\n    /* \"#utility.yul\":5982:5988   */\n  dup6\n    /* \"#utility.yul\":5958:5989   */\n  tag_27\n  jump\t// in\ntag_105:\n    /* \"#utility.yul\":6024:6060   */\n  tag_106\n    /* \"#utility.yul\":6048:6059   */\n  dup2\n    /* \"#utility.yul\":6024:6060   */\n  tag_16\n  jump\t// in\ntag_106:\n    /* \"#utility.yul\":6110:6119   */\n  dup1\n    /* \"#utility.yul\":6077:6119   */\n  swap3\n  pop\n    /* \"#utility.yul\":6159:6161   */\n  0x20\n    /* \"#utility.yul\":6151:6157   */\n  dup8\n    /* \"#utility.yul\":6147:6162   */\n  add\n    /* \"#utility.yul\":6137:6162   */\n  swap7\n  pop\n    /* \"#utility.yul\":5920:6177   */\n  pop\n  pop\n    /* \"#utility.yul\":6215:6227   */\n  dup1\n    /* \"#utility.yul\":6211:6212   */\n  dup3\n    /* \"#utility.yul\":6202:6209   */\n  dup6\n    /* \"#utility.yul\":6198:6213   */\n  add\n    /* \"#utility.yul\":6191:6228   */\n  sstore\n    /* \"#utility.yul\":5871:6238   */\n  pop\n    /* \"#utility.yul\":5866:5867   */\n  0x01\n    /* \"#utility.yul\":5863:5864   */\n  dup2\n    /* \"#utility.yul\":5859:5868   */\n  add\n    /* \"#utility.yul\":5854:5868   */\n  swap1\n  pop\n    /* \"#utility.yul\":5816:6238   */\n  jump(tag_102)\ntag_104:\n    /* \"#utility.yul\":5820:5834   */\n  pop\n    /* \"#utility.yul\":5370:6245   */\n  pop\n  pop\n  pop\n  pop\n    /* \"#utility.yul\":5258:6245   */\n  pop\n  pop\n  jump\t// out\n    /* \"maxArray.sol\":60:135  contract Maximumarray {... */\ntag_4:\n  dataSize(sub_0)\n  dup1\n  dataOffset(sub_0)\n  0x00\n  codecopy\n  0x00\n  return\nstop\n\nsub_0: assembly {\n        /* \"maxArray.sol\":60:135  contract Maximumarray {... */\n      mstore(0x40, 0x80)\n      callvalue\n      dup1\n      iszero\n      tag_1\n      jumpi\n      revert(0x00, 0x00)\n    tag_1:\n      pop\n      jumpi(tag_2, lt(calldatasize, 0x04))\n      shr(0xe0, calldataload(0x00))\n      dup1\n      0x3f3c5e2a\n      eq\n      tag_3\n      jumpi\n    tag_2:\n      revert(0x00, 0x00)\n        /* \"maxArray.sol\":89:127  uint [] public M_array = [20,55,37,72] */\n    tag_3:\n      tag_4\n      0x04\n      dup1\n      calldatasize\n      sub\n      dup2\n      add\n      swap1\n      tag_5\n      swap2\n      swap1\n      tag_6\n      jump\t// in\n    tag_5:\n      tag_7\n      jump\t// in\n    tag_4:\n      mload(0x40)\n      tag_8\n      swap2\n      swap1\n      tag_9\n      jump\t// in\n    tag_8:\n      mload(0x40)\n      dup1\n      swap2\n      sub\n      swap1\n      return\n    tag_7:\n      0x00\n      dup2\n      dup2\n      sload\n      dup2\n      lt\n      tag_10\n      jumpi\n      0x00\n      dup1\n      revert\n    tag_10:\n      swap1\n      0x00\n      mstore\n      keccak256(0x00, 0x20)\n      add\n      0x00\n      swap2\n      pop\n      swap1\n      pop\n      sload\n      dup2\n      jump\t// out\n        /* \"#utility.yul\":88:205   */\n    tag_13:\n        /* \"#utility.yul\":197:198   */\n      0x00\n        /* \"#utility.yul\":194:195   */\n      0x00\n        /* \"#utility.yul\":187:199   */\n      revert\n        /* \"#utility.yul\":334:411   */\n    tag_15:\n        /* \"#utility.yul\":371:378   */\n      0x00\n        /* \"#utility.yul\":400:405   */\n      dup2\n        /* \"#utility.yul\":389:405   */\n      swap1\n      pop\n        /* \"#utility.yul\":334:411   */\n      swap2\n      swap1\n      pop\n      jump\t// out\n        /* \"#utility.yul\":417:539   */\n    tag_16:\n        /* \"#utility.yul\":490:514   */\n      tag_25\n        /* \"#utility.yul\":508:513   */\n      dup2\n        /* \"#utility.yul\":490:514   */\n      tag_15\n      jump\t// in\n    tag_25:\n        /* \"#utility.yul\":483:488   */\n      dup2\n        /* \"#utility.yul\":480:515   */\n      eq\n        /* \"#utility.yul\":470:533   */\n      tag_26\n      jumpi\n        /* \"#utility.yul\":529:530   */\n      0x00\n        /* \"#utility.yul\":526:527   */\n      0x00\n        /* \"#utility.yul\":519:531   */\n      revert\n        /* \"#utility.yul\":470:533   */\n    tag_26:\n        /* \"#utility.yul\":417:539   */\n      pop\n      jump\t// out\n        /* \"#utility.yul\":545:684   */\n    tag_17:\n        /* \"#utility.yul\":591:596   */\n      0x00\n        /* \"#utility.yul\":629:635   */\n      dup2\n        /* \"#utility.yul\":616:636   */\n      calldataload\n        /* \"#utility.yul\":607:636   */\n      swap1\n      pop\n        /* \"#utility.yul\":645:678   */\n      tag_28\n        /* \"#utility.yul\":672:677   */\n      dup2\n        /* \"#utility.yul\":645:678   */\n      tag_16\n      jump\t// in\n    tag_28:\n        /* \"#utility.yul\":545:684   */\n      swap3\n      swap2\n      pop\n      pop\n      jump\t// out\n        /* \"#utility.yul\":690:1019   */\n    tag_6:\n        /* \"#utility.yul\":749:755   */\n      0x00\n        /* \"#utility.yul\":798:800   */\n      0x20\n        /* \"#utility.yul\":786:795   */\n      dup3\n        /* \"#utility.yul\":777:784   */\n      dup5\n        /* \"#utility.yul\":773:796   */\n      sub\n        /* \"#utility.yul\":769:801   */\n      slt\n        /* \"#utility.yul\":766:885   */\n      iszero\n      tag_30\n      jumpi\n        /* \"#utility.yul\":804:883   */\n      tag_31\n      tag_13\n      jump\t// in\n    tag_31:\n        /* \"#utility.yul\":766:885   */\n    tag_30:\n        /* \"#utility.yul\":924:925   */\n      0x00\n        /* \"#utility.yul\":949:1002   */\n      tag_32\n        /* \"#utility.yul\":994:1001   */\n      dup5\n        /* \"#utility.yul\":985:991   */\n      dup3\n        /* \"#utility.yul\":974:983   */\n      dup6\n        /* \"#utility.yul\":970:992   */\n      add\n        /* \"#utility.yul\":949:1002   */\n      tag_17\n      jump\t// in\n    tag_32:\n        /* \"#utility.yul\":939:1002   */\n      swap2\n      pop\n        /* \"#utility.yul\":895:1012   */\n      pop\n        /* \"#utility.yul\":690:1019   */\n      swap3\n      swap2\n      pop\n      pop\n      jump\t// out\n        /* \"#utility.yul\":1025:1143   */\n    tag_18:\n        /* \"#utility.yul\":1112:1136   */\n      tag_34\n        /* \"#utility.yul\":1130:1135   */\n      dup2\n        /* \"#utility.yul\":1112:1136   */\n      tag_15\n      jump\t// in\n    tag_34:\n        /* \"#utility.yul\":1107:1110   */\n      dup3\n        /* \"#utility.yul\":1100:1137   */\n      mstore\n        /* \"#utility.yul\":1025:1143   */\n      pop\n      pop\n      jump\t// out\n        /* \"#utility.yul\":1149:1371   */\n    tag_9:\n        /* \"#utility.yul\":1242:1246   */\n      0x00\n        /* \"#utility.yul\":1280:1282   */\n      0x20\n        /* \"#utility.yul\":1269:1278   */\n      dup3\n        /* \"#utility.yul\":1265:1283   */\n      add\n        /* \"#utility.yul\":1257:1283   */\n      swap1\n      pop\n        /* \"#utility.yul\":1293:1364   */\n      tag_36\n        /* \"#utility.yul\":1361:1362   */\n      0x00\n        /* \"#utility.yul\":1350:1359   */\n      dup4\n        /* \"#utility.yul\":1346:1363   */\n      add\n        /* \"#utility.yul\":1337:1343   */\n      dup5\n        /* \"#utility.yul\":1293:1364   */\n      tag_18\n      jump\t// in\n    tag_36:\n        /* \"#utility.yul\":1149:1371   */\n      swap3\n      swap2\n      pop\n      pop\n      jump\t// out\n\n    auxdata: 0xa264697066735822122033e1c9d44b59af7e0eff8e1326dfb818be4929c5983fac6bfe2d3965611c20fd64736f6c63430008220033\n}\n",
				"bytecode": {
					"linkReferences": {},
					"object": "60806040526040518060800160405280601460ff168152602001603760ff168152602001602560ff168152602001604860ff168152505f90816100429190610259565b5034801561004e575f5ffd5b506102dd565b7f4e487b71000000000000000000000000000000000000000000000000000000005f52604160045260245ffd5b5f81549050919050565b5f819050919050565b5f8190506001806001038301049050919050565b5f819050815f5260205f209050919050565b5f82821b905092915050565b5f600883026100f57fffffffffffffffffffffffffffffffffffffffffffffffffffffffffffffffff826100ba565b6100ff86836100ba565b95508019841693508086168417925050509392505050565b5f819050919050565b5f61013a6101356101308461008b565b610117565b61008b565b9050919050565b5f819050919050565b61015383610120565b61016761015f82610141565b8484546100c6565b825550505050565b5f5f905090565b61017e61016f565b61018981848461014a565b505050565b5f5b828110156101af576101a45f828401610176565b600181019050610190565b505050565b818310156101eb576101c582610094565b6101ce84610094565b6101d7836100a8565b8181016101e68385038261018e565b505050505b505050565b6801000000000000000082111561020a57610209610054565b5b61021381610081565b8282556102218382846101b4565b505050565b5f60049050919050565b5f60ff82169050919050565b5f6102478251610230565b80915050919050565b5f819050919050565b61026282610226565b67ffffffffffffffff81111561027b5761027a610054565b5b61028581836101f0565b61028e83610250565b610297836100a8565b600183045f5b818110156102d4575f6102af8561023c565b6102b881610141565b809250602087019650505080828501555060018101905061029d565b50505050505050565b610124806102ea5f395ff3fe6080604052348015600e575f5ffd5b50600436106026575f3560e01c80633f3c5e2a14602a575b5f5ffd5b60406004803603810190603c919060a4565b6054565b604051604b919060d7565b60405180910390f35b5f81815481106061575f80fd5b905f5260205f20015f915090505481565b5f5ffd5b5f819050919050565b6086816076565b8114608f575f5ffd5b50565b5f81359050609e81607f565b92915050565b5f6020828403121560b65760b56072565b5b5f60c1848285016092565b91505092915050565b60d1816076565b82525050565b5f60208201905060e85f83018460ca565b9291505056fea264697066735822122033e1c9d44b59af7e0eff8e1326dfb818be4929c5983fac6bfe2d3965611c20fd64736f6c63430008220033",
					"opcodes": "PUSH1 0x80 PUSH1 0x40 MSTORE PUSH1 0x40 MLOAD DUP1 PUSH1 0x80 ADD PUSH1 0x40 MSTORE DUP1 PUSH1 0x14 PUSH1 0xFF AND DUP2 MSTORE PUSH1 0x20 ADD PUSH1 0x37 PUSH1 0xFF AND DUP2 MSTORE PUSH1 0x20 ADD PUSH1 0x25 PUSH1 0xFF AND DUP2 MSTORE PUSH1 0x20 ADD PUSH1 0x48 PUSH1 0xFF AND DUP2 MSTORE POP PUSH0 SWAP1 DUP2 PUSH2 0x42 SWAP2 SWAP1 PUSH2 0x259 JUMP JUMPDEST POP CALLVALUE DUP1 ISZERO PUSH2 0x4E JUMPI PUSH0 PUSH0 REVERT JUMPDEST POP PUSH2 0x2DD JUMP JUMPDEST PUSH32 0x4E487B7100000000000000000000000000000000000000000000000000000000 PUSH0 MSTORE PUSH1 0x41 PUSH1 0x4 MSTORE PUSH1 0x24 PUSH0 REVERT JUMPDEST PUSH0 DUP2 SLOAD SWAP1 POP SWAP2 SWAP1 POP JUMP JUMPDEST PUSH0 DUP2 SWAP1 POP SWAP2 SWAP1 POP JUMP JUMPDEST PUSH0 DUP2 SWAP1 POP PUSH1 0x1 DUP1 PUSH1 0x1 SUB DUP4 ADD DIV SWAP1 POP SWAP2 SWAP1 POP JUMP JUMPDEST PUSH0 DUP2 SWAP1 POP DUP2 PUSH0 MSTORE PUSH1 0x20 PUSH0 KECCAK256 SWAP1 POP SWAP2 SWAP1 POP JUMP JUMPDEST PUSH0 DUP3 DUP3 SHL SWAP1 POP SWAP3 SWAP2 POP POP JUMP JUMPDEST PUSH0 PUSH1 0x8 DUP4 MUL PUSH2 0xF5 PUSH32 0xFFFFFFFFFFFFFFFFFFFFFFFFFFFFFFFFFFFFFFFFFFFFFFFFFFFFFFFFFFFFFFFF DUP3 PUSH2 0xBA JUMP JUMPDEST PUSH2 0xFF DUP7 DUP4 PUSH2 0xBA JUMP JUMPDEST SWAP6 POP DUP1 NOT DUP5 AND SWAP4 POP DUP1 DUP7 AND DUP5 OR SWAP3 POP POP POP SWAP4 SWAP3 POP POP POP JUMP JUMPDEST PUSH0 DUP2 SWAP1 POP SWAP2 SWAP1 POP JUMP JUMPDEST PUSH0 PUSH2 0x13A PUSH2 0x135 PUSH2 0x130 DUP5 PUSH2 0x8B JUMP JUMPDEST PUSH2 0x117 JUMP JUMPDEST PUSH2 0x8B JUMP JUMPDEST SWAP1 POP SWAP2 SWAP1 POP JUMP JUMPDEST PUSH0 DUP2 SWAP1 POP SWAP2 SWAP1 POP JUMP JUMPDEST PUSH2 0x153 DUP4 PUSH2 0x120 JUMP JUMPDEST PUSH2 0x167 PUSH2 0x15F DUP3 PUSH2 0x141 JUMP JUMPDEST DUP5 DUP5 SLOAD PUSH2 0xC6 JUMP JUMPDEST DUP3 SSTORE POP POP POP POP JUMP JUMPDEST PUSH0 PUSH0 SWAP1 POP SWAP1 JUMP JUMPDEST PUSH2 0x17E PUSH2 0x16F JUMP JUMPDEST PUSH2 0x189 DUP2 DUP5 DUP5 PUSH2 0x14A JUMP JUMPDEST POP POP POP JUMP JUMPDEST PUSH0 JUMPDEST DUP3 DUP2 LT ISZERO PUSH2 0x1AF JUMPI PUSH2 0x1A4 PUSH0 DUP3 DUP5 ADD PUSH2 0x176 JUMP JUMPDEST PUSH1 0x1 DUP2 ADD SWAP1 POP PUSH2 0x190 JUMP JUMPDEST POP POP POP JUMP JUMPDEST DUP2 DUP4 LT ISZERO PUSH2 0x1EB JUMPI PUSH2 0x1C5 DUP3 PUSH2 0x94 JUMP JUMPDEST PUSH2 0x1CE DUP5 PUSH2 0x94 JUMP JUMPDEST PUSH2 0x1D7 DUP4 PUSH2 0xA8 JUMP JUMPDEST DUP2 DUP2 ADD PUSH2 0x1E6 DUP4 DUP6 SUB DUP3 PUSH2 0x18E JUMP JUMPDEST POP POP POP POP JUMPDEST POP POP POP JUMP JUMPDEST PUSH9 0x10000000000000000 DUP3 GT ISZERO PUSH2 0x20A JUMPI PUSH2 0x209 PUSH2 0x54 JUMP JUMPDEST JUMPDEST PUSH2 0x213 DUP2 PUSH2 0x81 JUMP JUMPDEST DUP3 DUP3 SSTORE PUSH2 0x221 DUP4 DUP3 DUP5 PUSH2 0x1B4 JUMP JUMPDEST POP POP POP JUMP JUMPDEST PUSH0 PUSH1 0x4 SWAP1 POP SWAP2 SWAP1 POP JUMP JUMPDEST PUSH0 PUSH1 0xFF DUP3 AND SWAP1 POP SWAP2 SWAP1 POP JUMP JUMPDEST PUSH0 PUSH2 0x247 DUP3 MLOAD PUSH2 0x230 JUMP JUMPDEST DUP1 SWAP2 POP POP SWAP2 SWAP1 POP JUMP JUMPDEST PUSH0 DUP2 SWAP1 POP SWAP2 SWAP1 POP JUMP JUMPDEST PUSH2 0x262 DUP3 PUSH2 0x226 JUMP JUMPDEST PUSH8 0xFFFFFFFFFFFFFFFF DUP2 GT ISZERO PUSH2 0x27B JUMPI PUSH2 0x27A PUSH2 0x54 JUMP JUMPDEST JUMPDEST PUSH2 0x285 DUP2 DUP4 PUSH2 0x1F0 JUMP JUMPDEST PUSH2 0x28E DUP4 PUSH2 0x250 JUMP JUMPDEST PUSH2 0x297 DUP4 PUSH2 0xA8 JUMP JUMPDEST PUSH1 0x1 DUP4 DIV PUSH0 JUMPDEST DUP2 DUP2 LT ISZERO PUSH2 0x2D4 JUMPI PUSH0 PUSH2 0x2AF DUP6 PUSH2 0x23C JUMP JUMPDEST PUSH2 0x2B8 DUP2 PUSH2 0x141 JUMP JUMPDEST DUP1 SWAP3 POP PUSH1 0x20 DUP8 ADD SWAP7 POP POP POP DUP1 DUP3 DUP6 ADD SSTORE POP PUSH1 0x1 DUP2 ADD SWAP1 POP PUSH2 0x29D JUMP JUMPDEST POP POP POP POP POP POP POP JUMP JUMPDEST PUSH2 0x124 DUP1 PUSH2 0x2EA PUSH0 CODECOPY PUSH0 RETURN INVALID PUSH1 0x80 PUSH1 0x40 MSTORE CALLVALUE DUP1 ISZERO PUSH1 0xE JUMPI PUSH0 PUSH0 REVERT JUMPDEST POP PUSH1 0x4 CALLDATASIZE LT PUSH1 0x26 JUMPI PUSH0 CALLDATALOAD PUSH1 0xE0 SHR DUP1 PUSH4 0x3F3C5E2A EQ PUSH1 0x2A JUMPI JUMPDEST PUSH0 PUSH0 REVERT JUMPDEST PUSH1 0x40 PUSH1 0x4 DUP1 CALLDATASIZE SUB DUP2 ADD SWAP1 PUSH1 0x3C SWAP2 SWAP1 PUSH1 0xA4 JUMP JUMPDEST PUSH1 0x54 JUMP JUMPDEST PUSH1 0x40 MLOAD PUSH1 0x4B SWAP2 SWAP1 PUSH1 0xD7 JUMP JUMPDEST PUSH1 0x40 MLOAD DUP1 SWAP2 SUB SWAP1 RETURN JUMPDEST PUSH0 DUP2 DUP2 SLOAD DUP2 LT PUSH1 0x61 JUMPI PUSH0 DUP1 REVERT JUMPDEST SWAP1 PUSH0 MSTORE PUSH1 0x20 PUSH0 KECCAK256 ADD PUSH0 SWAP2 POP SWAP1 POP SLOAD DUP2 JUMP JUMPDEST PUSH0 PUSH0 REVERT JUMPDEST PUSH0 DUP2 SWAP1 POP SWAP2 SWAP1 POP JUMP JUMPDEST PUSH1 0x86 DUP2 PUSH1 0x76 JUMP JUMPDEST DUP2 EQ PUSH1 0x8F JUMPI PUSH0 PUSH0 REVERT JUMPDEST POP JUMP JUMPDEST PUSH0 DUP2 CALLDATALOAD SWAP1 POP PUSH1 0x9E DUP2 PUSH1 0x7F JUMP JUMPDEST SWAP3 SWAP2 POP POP JUMP JUMPDEST PUSH0 PUSH1 0x20 DUP3 DUP5 SUB SLT ISZERO PUSH1 0xB6 JUMPI PUSH1 0xB5 PUSH1 0x72 JUMP JUMPDEST JUMPDEST PUSH0 PUSH1 0xC1 DUP5 DUP3 DUP6 ADD PUSH1 0x92 JUMP JUMPDEST SWAP2 POP POP SWAP3 SWAP2 POP POP JUMP JUMPDEST PUSH1 0xD1 DUP2 PUSH1 0x76 JUMP JUMPDEST DUP3 MSTORE POP POP JUMP JUMPDEST PUSH0 PUSH1 0x20 DUP3 ADD SWAP1 POP PUSH1 0xE8 PUSH0 DUP4 ADD DUP5 PUSH1 0xCA JUMP JUMPDEST SWAP3 SWAP2 POP POP JUMP INVALID LOG2 PUSH5 0x6970667358 0x22 SLT KECCAK256 CALLER RJUMPI 0xC9D4 0x4B MSIZE 0xAF PUSH31 0xEFF8E1326DFB818BE4929C5983FAC6BFE2D3965611C20FD64736F6C634300 ADDMOD 0x22 STOP CALLER "
				},
				"gasEstimates": {
					"creation": {
						"codeDepositCost": "58400",
						"executionCost": "infinite",
						"totalCost": "infinite"
					},
					"external": {
						"M_array(uint256)": "infinite"
					}
				},
				"methodIdentifiers": {
					"M_array(uint256)": "3f3c5e2a"
				}
			},
			"storageLayout": {
				"storage": [
					{
						"astId": 9,
						"contract": "maxArray.sol:Maximumarray",
						"label": "M_array",
						"offset": 0,
						"slot": "0",
						"type": "t_array(t_uint256)dyn_storage"
					}
				],
				"types": {
					"t_array(t_uint256)dyn_storage": {
						"base": "t_uint256",
						"encoding": "dynamic_array",
						"label": "uint256[]",
						"numberOfBytes": "32"
					},
					"t_uint256": {
						"encoding": "inplace",
						"label": "uint256",
						"numberOfBytes": "32"
					}
				}
			},
			"userdoc": {
				"kind": "user",
				"methods": {},
				"version": 1
			}
		}
	}
}