{
	"tweet.sol": {
		"Twitter": {
			"abi": [
				{
					"inputs": [],
					"name": "MAX_TWEET_LENGTH",
					"outputs": [
						{
							"internalType": "uint16",
							"name": "",
							"type": "uint16"
						}
					],
					"stateMutability": "view",
					"type": "function"
				},
				{
					"inputs": [
						{
							"internalType": "uint256",
							"name": "",
							"type": "uint256"
						}
					],
					"name": "allTweets",
					"outputs": [
						{
							"internalType": "uint256",
							"name": "id",
							"type": "uint256"
						},
						{
							"internalType": "address",
							"name": "author",
							"type": "address"
						},
						{
							"internalType": "string",
							"name": "content",
							"type": "string"
						},
						{
							"internalType": "uint256",
							"name": "timestamp",
							"type": "uint256"
						},
						{
							"internalType": "uint256",
							"name": "likes",
							"type": "uint256"
						}
					],
					"stateMutability": "view",
					"type": "function"
				},
				{
					"inputs": [
						{
							"internalType": "string",
							"name": "_tweet",
							"type": "string"
						}
					],
					"name": "createTweet",
					"outputs": [],
					"stateMutability": "nonpayable",
					"type": "function"
				},
				{
					"inputs": [
						{
							"internalType": "uint256",
							"name": "_id",
							"type": "uint256"
						}
					],
					"name": "dislikeTweet",
					"outputs": [],
					"stateMutability": "nonpayable",
					"type": "function"
				},
				{
					"inputs": [],
					"name": "getAllTweets",
					"outputs": [
						{
							"components": [
								{
									"internalType": "uint256",
									"name": "id",
									"type": "uint256"
								},
								{
									"internalType": "address",
									"name": "author",
									"type": "address"
								},
								{
									"internalType": "string",
									"name": "content",
									"type": "string"
								},
								{
									"internalType": "uint256",
									"name": "timestamp",
									"type": "uint256"
								},
								{
									"internalType": "uint256",
									"name": "likes",
									"type": "uint256"
								}
							],
							"internalType": "struct Twitter.Tweet[]",
							"name": "",
							"type": "tuple[]"
						}
					],
					"stateMutability": "view",
					"type": "function"
				},
				{
					"inputs": [
						{
							"internalType": "uint256",
							"name": "_id",
							"type": "uint256"
						}
					],
					"name": "likeTweet",
					"outputs": [],
					"stateMutability": "nonpayable",
					"type": "function"
				}
			],
			"devdoc": {
				"kind": "dev",
				"methods": {},
				"version": 1
			},
			"evm": {
				"assembly": "    /* \"tweet.sol\":60:1175  contract Twitter {\r... */\n  mstore(0x40, 0x80)\n    /* \"tweet.sol\":119:122  280 */\n  0x0118\n    /* \"tweet.sol\":86:122  uint16 public MAX_TWEET_LENGTH = 280 */\n  0x00\n  dup1\n  0x0100\n  exp\n  dup2\n  sload\n  dup2\n  0xffff\n  mul\n  not\n  and\n  swap1\n  dup4\n  0xffff\n  and\n  mul\n  or\n  swap1\n  sstore\n  pop\n    /* \"tweet.sol\":60:1175  contract Twitter {\r... */\n  callvalue\n  dup1\n  iszero\n  tag_1\n  jumpi\n  0x00\n  dup1\n  revert\ntag_1:\n  pop\n  dataSize(sub_0)\n  dup1\n  dataOffset(sub_0)\n  0x00\n  codecopy\n  0x00\n  return\nstop\n\nsub_0: assembly {\n        /* \"tweet.sol\":60:1175  contract Twitter {\r... */\n      mstore(0x40, 0x80)\n      callvalue\n      dup1\n      iszero\n      tag_1\n      jumpi\n      0x00\n      dup1\n      revert\n    tag_1:\n      pop\n      jumpi(tag_2, lt(calldatasize, 0x04))\n      shr(0xe0, calldataload(0x00))\n      dup1\n      0x21511a44\n      eq\n      tag_3\n      jumpi\n      dup1\n      0x53256135\n      eq\n      tag_4\n      jumpi\n      dup1\n      0x5ffc6ceb\n      eq\n      tag_5\n      jumpi\n      dup1\n      0x6eb10797\n      eq\n      tag_6\n      jumpi\n      dup1\n      0x7c9cd2bc\n      eq\n      tag_7\n      jumpi\n      dup1\n      0xe28350b7\n      eq\n      tag_8\n      jumpi\n    tag_2:\n      0x00\n      dup1\n      revert\n        /* \"tweet.sol\":861:1068  function dislikeTweet(uint _id) public {\r... */\n    tag_3:\n      tag_9\n      0x04\n      dup1\n      calldatasize\n      sub\n      dup2\n      add\n      swap1\n      tag_10\n      swap2\n      swap1\n      tag_11\n      jump\t// in\n    tag_10:\n      tag_12\n      jump\t// in\n    tag_9:\n      stop\n        /* \"tweet.sol\":1076:1172  function getAllTweets() public view returns (Tweet[] memory) {\r... */\n    tag_4:\n      tag_13\n      tag_14\n      jump\t// in\n    tag_13:\n      mload(0x40)\n      tag_15\n      swap2\n      swap1\n      tag_16\n      jump\t// in\n    tag_15:\n      mload(0x40)\n      dup1\n      swap2\n      sub\n      swap1\n      return\n        /* \"tweet.sol\":715:853  function likeTweet(uint _id) public {\r... */\n    tag_5:\n      tag_17\n      0x04\n      dup1\n      calldatasize\n      sub\n      dup2\n      add\n      swap1\n      tag_18\n      swap2\n      swap1\n      tag_11\n      jump\t// in\n    tag_18:\n      tag_19\n      jump\t// in\n    tag_17:\n      stop\n        /* \"tweet.sol\":86:122  uint16 public MAX_TWEET_LENGTH = 280 */\n    tag_6:\n      tag_20\n      tag_21\n      jump\t// in\n    tag_20:\n      mload(0x40)\n      tag_22\n      swap2\n      swap1\n      tag_23\n      jump\t// in\n    tag_22:\n      mload(0x40)\n      dup1\n      swap2\n      sub\n      swap1\n      return\n        /* \"tweet.sol\":313:707  function createTweet(string memory _tweet) public {\r... */\n    tag_7:\n      tag_24\n      0x04\n      dup1\n      calldatasize\n      sub\n      dup2\n      add\n      swap1\n      tag_25\n      swap2\n      swap1\n      tag_26\n      jump\t// in\n    tag_25:\n      tag_27\n      jump\t// in\n    tag_24:\n      stop\n        /* \"tweet.sol\":280:304  Tweet[] public allTweets */\n    tag_8:\n      tag_28\n      0x04\n      dup1\n      calldatasize\n      sub\n      dup2\n      add\n      swap1\n      tag_29\n      swap2\n      swap1\n      tag_11\n      jump\t// in\n    tag_29:\n      tag_30\n      jump\t// in\n    tag_28:\n      mload(0x40)\n      tag_31\n      swap6\n      swap5\n      swap4\n      swap3\n      swap2\n      swap1\n      tag_32\n      jump\t// in\n    tag_31:\n      mload(0x40)\n      dup1\n      swap2\n      sub\n      swap1\n      return\n        /* \"tweet.sol\":861:1068  function dislikeTweet(uint _id) public {\r... */\n    tag_12:\n        /* \"tweet.sol\":925:934  allTweets */\n      0x01\n        /* \"tweet.sol\":925:941  allTweets.length */\n      dup1\n      sload\n      swap1\n      pop\n        /* \"tweet.sol\":919:922  _id */\n      dup2\n        /* \"tweet.sol\":919:941  _id < allTweets.length */\n      lt\n        /* \"tweet.sol\":911:961  require(_id < allTweets.length, \"Tweet not found\") */\n      tag_34\n      jumpi\n      mload(0x40)\n      0x08c379a000000000000000000000000000000000000000000000000000000000\n      dup2\n      mstore\n      0x04\n      add\n      tag_35\n      swap1\n      tag_36\n      jump\t// in\n    tag_35:\n      mload(0x40)\n      dup1\n      swap2\n      sub\n      swap1\n      revert\n    tag_34:\n        /* \"tweet.sol\":1003:1004  0 */\n      0x00\n        /* \"tweet.sol\":980:989  allTweets */\n      0x01\n        /* \"tweet.sol\":990:993  _id */\n      dup3\n        /* \"tweet.sol\":980:994  allTweets[_id] */\n      dup2\n      sload\n      dup2\n      lt\n      tag_37\n      jumpi\n      mstore(0x00, 0x4e487b7100000000000000000000000000000000000000000000000000000000)\n      mstore(0x04, 0x32)\n      revert(0x00, 0x24)\n    tag_37:\n      swap1\n      0x00\n      mstore\n      keccak256(0x00, 0x20)\n      swap1\n      0x05\n      mul\n      add\n        /* \"tweet.sol\":980:1000  allTweets[_id].likes */\n      0x04\n      add\n      sload\n        /* \"tweet.sol\":980:1004  allTweets[_id].likes > 0 */\n      gt\n        /* \"tweet.sol\":972:1027  require(allTweets[_id].likes > 0, \"No likes to remove\") */\n      tag_39\n      jumpi\n      mload(0x40)\n      0x08c379a000000000000000000000000000000000000000000000000000000000\n      dup2\n      mstore\n      0x04\n      add\n      tag_40\n      swap1\n      tag_41\n      jump\t// in\n    tag_40:\n      mload(0x40)\n      dup1\n      swap2\n      sub\n      swap1\n      revert\n    tag_39:\n        /* \"tweet.sol\":1038:1047  allTweets */\n      0x01\n        /* \"tweet.sol\":1048:1051  _id */\n      dup2\n        /* \"tweet.sol\":1038:1052  allTweets[_id] */\n      dup2\n      sload\n      dup2\n      lt\n      tag_42\n      jumpi\n      mstore(0x00, 0x4e487b7100000000000000000000000000000000000000000000000000000000)\n      mstore(0x04, 0x32)\n      revert(0x00, 0x24)\n    tag_42:\n      swap1\n      0x00\n      mstore\n      keccak256(0x00, 0x20)\n      swap1\n      0x05\n      mul\n      add\n        /* \"tweet.sol\":1038:1058  allTweets[_id].likes */\n      0x04\n      add\n      0x00\n        /* \"tweet.sol\":1038:1060  allTweets[_id].likes-- */\n      dup2\n      sload\n      dup1\n      swap3\n      swap2\n      swap1\n      tag_44\n      swap1\n      tag_45\n      jump\t// in\n    tag_44:\n      swap2\n      swap1\n      pop\n      sstore\n      pop\n        /* \"tweet.sol\":861:1068  function dislikeTweet(uint _id) public {\r... */\n      pop\n      jump\t// out\n        /* \"tweet.sol\":1076:1172  function getAllTweets() public view returns (Tweet[] memory) {\r... */\n    tag_14:\n        /* \"tweet.sol\":1121:1135  Tweet[] memory */\n      0x60\n        /* \"tweet.sol\":1155:1164  allTweets */\n      0x01\n        /* \"tweet.sol\":1148:1164  return allTweets */\n      dup1\n      sload\n      dup1\n      0x20\n      mul\n      0x20\n      add\n      mload(0x40)\n      swap1\n      dup2\n      add\n      0x40\n      mstore\n      dup1\n      swap3\n      swap2\n      swap1\n      dup2\n      dup2\n      mstore\n      0x20\n      add\n      0x00\n      swap1\n    tag_47:\n      dup3\n      dup3\n      lt\n      iszero\n      tag_48\n      jumpi\n      dup4\n      dup3\n      swap1\n      0x00\n      mstore\n      keccak256(0x00, 0x20)\n      swap1\n      0x05\n      mul\n      add\n      mload(0x40)\n      dup1\n      0xa0\n      add\n      0x40\n      mstore\n      swap1\n      dup2\n      0x00\n      dup3\n      add\n      sload\n      dup2\n      mstore\n      0x20\n      add\n      0x01\n      dup3\n      add\n      0x00\n      swap1\n      sload\n      swap1\n      0x0100\n      exp\n      swap1\n      div\n      0xffffffffffffffffffffffffffffffffffffffff\n      and\n      0xffffffffffffffffffffffffffffffffffffffff\n      and\n      0xffffffffffffffffffffffffffffffffffffffff\n      and\n      dup2\n      mstore\n      0x20\n      add\n      0x02\n      dup3\n      add\n      dup1\n      sload\n      tag_50\n      swap1\n      tag_51\n      jump\t// in\n    tag_50:\n      dup1\n      0x1f\n      add\n      0x20\n      dup1\n      swap2\n      div\n      mul\n      0x20\n      add\n      mload(0x40)\n      swap1\n      dup2\n      add\n      0x40\n      mstore\n      dup1\n      swap3\n      swap2\n      swap1\n      dup2\n      dup2\n      mstore\n      0x20\n      add\n      dup3\n      dup1\n      sload\n      tag_52\n      swap1\n      tag_51\n      jump\t// in\n    tag_52:\n      dup1\n      iszero\n      tag_53\n      jumpi\n      dup1\n      0x1f\n      lt\n      tag_54\n      jumpi\n      0x0100\n      dup1\n      dup4\n      sload\n      div\n      mul\n      dup4\n      mstore\n      swap2\n      0x20\n      add\n      swap2\n      jump(tag_53)\n    tag_54:\n      dup3\n      add\n      swap2\n      swap1\n      0x00\n      mstore\n      keccak256(0x00, 0x20)\n      swap1\n    tag_55:\n      dup2\n      sload\n      dup2\n      mstore\n      swap1\n      0x01\n      add\n      swap1\n      0x20\n      add\n      dup1\n      dup4\n      gt\n      tag_55\n      jumpi\n      dup3\n      swap1\n      sub\n      0x1f\n      and\n      dup3\n      add\n      swap2\n    tag_53:\n      pop\n      pop\n      pop\n      pop\n      pop\n      dup2\n      mstore\n      0x20\n      add\n      0x03\n      dup3\n      add\n      sload\n      dup2\n      mstore\n      0x20\n      add\n      0x04\n      dup3\n      add\n      sload\n      dup2\n      mstore\n      pop\n      pop\n      dup2\n      mstore\n      0x20\n      add\n      swap1\n      0x01\n      add\n      swap1\n      jump(tag_47)\n    tag_48:\n      pop\n      pop\n      pop\n      pop\n      swap1\n      pop\n        /* \"tweet.sol\":1076:1172  function getAllTweets() public view returns (Tweet[] memory) {\r... */\n      swap1\n      jump\t// out\n        /* \"tweet.sol\":715:853  function likeTweet(uint _id) public {\r... */\n    tag_19:\n        /* \"tweet.sol\":776:785  allTweets */\n      0x01\n        /* \"tweet.sol\":776:792  allTweets.length */\n      dup1\n      sload\n      swap1\n      pop\n        /* \"tweet.sol\":770:773  _id */\n      dup2\n        /* \"tweet.sol\":770:792  _id < allTweets.length */\n      lt\n        /* \"tweet.sol\":762:812  require(_id < allTweets.length, \"Tweet not found\") */\n      tag_57\n      jumpi\n      mload(0x40)\n      0x08c379a000000000000000000000000000000000000000000000000000000000\n      dup2\n      mstore\n      0x04\n      add\n      tag_58\n      swap1\n      tag_36\n      jump\t// in\n    tag_58:\n      mload(0x40)\n      dup1\n      swap2\n      sub\n      swap1\n      revert\n    tag_57:\n        /* \"tweet.sol\":823:832  allTweets */\n      0x01\n        /* \"tweet.sol\":833:836  _id */\n      dup2\n        /* \"tweet.sol\":823:837  allTweets[_id] */\n      dup2\n      sload\n      dup2\n      lt\n      tag_59\n      jumpi\n      mstore(0x00, 0x4e487b7100000000000000000000000000000000000000000000000000000000)\n      mstore(0x04, 0x32)\n      revert(0x00, 0x24)\n    tag_59:\n      swap1\n      0x00\n      mstore\n      keccak256(0x00, 0x20)\n      swap1\n      0x05\n      mul\n      add\n        /* \"tweet.sol\":823:843  allTweets[_id].likes */\n      0x04\n      add\n      0x00\n        /* \"tweet.sol\":823:845  allTweets[_id].likes++ */\n      dup2\n      sload\n      dup1\n      swap3\n      swap2\n      swap1\n      tag_61\n      swap1\n      tag_62\n      jump\t// in\n    tag_61:\n      swap2\n      swap1\n      pop\n      sstore\n      pop\n        /* \"tweet.sol\":715:853  function likeTweet(uint _id) public {\r... */\n      pop\n      jump\t// out\n        /* \"tweet.sol\":86:122  uint16 public MAX_TWEET_LENGTH = 280 */\n    tag_21:\n      0x00\n      dup1\n      sload\n      swap1\n      0x0100\n      exp\n      swap1\n      div\n      0xffff\n      and\n      dup2\n      jump\t// out\n        /* \"tweet.sol\":313:707  function createTweet(string memory _tweet) public {\r... */\n    tag_27:\n        /* \"tweet.sol\":406:422  MAX_TWEET_LENGTH */\n      0x00\n      dup1\n      sload\n      swap1\n      0x0100\n      exp\n      swap1\n      div\n      0xffff\n      and\n        /* \"tweet.sol\":382:422  bytes(_tweet).length <= MAX_TWEET_LENGTH */\n      0xffff\n      and\n        /* \"tweet.sol\":388:394  _tweet */\n      dup2\n        /* \"tweet.sol\":382:402  bytes(_tweet).length */\n      mload\n        /* \"tweet.sol\":382:422  bytes(_tweet).length <= MAX_TWEET_LENGTH */\n      gt\n      iszero\n        /* \"tweet.sol\":374:442  require(bytes(_tweet).length <= MAX_TWEET_LENGTH, \"Tweet too long!\") */\n      tag_64\n      jumpi\n      mload(0x40)\n      0x08c379a000000000000000000000000000000000000000000000000000000000\n      dup2\n      mstore\n      0x04\n      add\n      tag_65\n      swap1\n      tag_66\n      jump\t// in\n    tag_65:\n      mload(0x40)\n      dup1\n      swap2\n      sub\n      swap1\n      revert\n    tag_64:\n        /* \"tweet.sol\":455:464  allTweets */\n      0x01\n        /* \"tweet.sol\":484:688  Tweet({\r... */\n      mload(0x40)\n      dup1\n      0xa0\n      add\n      0x40\n      mstore\n      dup1\n        /* \"tweet.sol\":513:522  allTweets */\n      0x01\n        /* \"tweet.sol\":513:529  allTweets.length */\n      dup1\n      sload\n      swap1\n      pop\n        /* \"tweet.sol\":484:688  Tweet({\r... */\n      dup2\n      mstore\n      0x20\n      add\n        /* \"tweet.sol\":556:566  msg.sender */\n      caller\n        /* \"tweet.sol\":484:688  Tweet({\r... */\n      0xffffffffffffffffffffffffffffffffffffffff\n      and\n      dup2\n      mstore\n      0x20\n      add\n        /* \"tweet.sol\":594:600  _tweet */\n      dup4\n        /* \"tweet.sol\":484:688  Tweet({\r... */\n      dup2\n      mstore\n      0x20\n      add\n        /* \"tweet.sol\":630:645  block.timestamp */\n      timestamp\n        /* \"tweet.sol\":484:688  Tweet({\r... */\n      dup2\n      mstore\n      0x20\n      add\n        /* \"tweet.sol\":671:672  0 */\n      0x00\n        /* \"tweet.sol\":484:688  Tweet({\r... */\n      dup2\n      mstore\n      pop\n        /* \"tweet.sol\":455:699  allTweets.push(\r... */\n      swap1\n      dup1\n      0x01\n      dup2\n      sload\n      add\n      dup1\n      dup3\n      sstore\n      dup1\n      swap2\n      pop\n      pop\n      0x01\n      swap1\n      sub\n      swap1\n      0x00\n      mstore\n      keccak256(0x00, 0x20)\n      swap1\n      0x05\n      mul\n      add\n      0x00\n      swap1\n      swap2\n      swap1\n      swap2\n      swap1\n      swap2\n      pop\n      0x00\n      dup3\n      add\n      mload\n      dup2\n      0x00\n      add\n      sstore\n      0x20\n      dup3\n      add\n      mload\n      dup2\n      0x01\n      add\n      exp(0x0100, 0x00)\n      dup2\n      sload\n      dup2\n      0xffffffffffffffffffffffffffffffffffffffff\n      mul\n      not\n      and\n      swap1\n      dup4\n      0xffffffffffffffffffffffffffffffffffffffff\n      and\n      mul\n      or\n      swap1\n      sstore\n      pop\n      0x40\n      dup3\n      add\n      mload\n      dup2\n      0x02\n      add\n      swap1\n      dup1\n      mload\n      swap1\n      0x20\n      add\n      swap1\n      tag_68\n      swap3\n      swap2\n      swap1\n      tag_69\n      jump\t// in\n    tag_68:\n      pop\n      0x60\n      dup3\n      add\n      mload\n      dup2\n      0x03\n      add\n      sstore\n      0x80\n      dup3\n      add\n      mload\n      dup2\n      0x04\n      add\n      sstore\n      pop\n      pop\n        /* \"tweet.sol\":313:707  function createTweet(string memory _tweet) public {\r... */\n      pop\n      jump\t// out\n        /* \"tweet.sol\":280:304  Tweet[] public allTweets */\n    tag_30:\n      0x01\n      dup2\n      dup2\n      sload\n      dup2\n      lt\n      tag_70\n      jumpi\n      0x00\n      dup1\n      revert\n    tag_70:\n      swap1\n      0x00\n      mstore\n      keccak256(0x00, 0x20)\n      swap1\n      0x05\n      mul\n      add\n      0x00\n      swap2\n      pop\n      swap1\n      pop\n      dup1\n      0x00\n      add\n      sload\n      swap1\n      dup1\n      0x01\n      add\n      0x00\n      swap1\n      sload\n      swap1\n      0x0100\n      exp\n      swap1\n      div\n      0xffffffffffffffffffffffffffffffffffffffff\n      and\n      swap1\n      dup1\n      0x02\n      add\n      dup1\n      sload\n      tag_72\n      swap1\n      tag_51\n      jump\t// in\n    tag_72:\n      dup1\n      0x1f\n      add\n      0x20\n      dup1\n      swap2\n      div\n      mul\n      0x20\n      add\n      mload(0x40)\n      swap1\n      dup2\n      add\n      0x40\n      mstore\n      dup1\n      swap3\n      swap2\n      swap1\n      dup2\n      dup2\n      mstore\n      0x20\n      add\n      dup3\n      dup1\n      sload\n      tag_73\n      swap1\n      tag_51\n      jump\t// in\n    tag_73:\n      dup1\n      iszero\n      tag_74\n      jumpi\n      dup1\n      0x1f\n      lt\n      tag_75\n      jumpi\n      0x0100\n      dup1\n      dup4\n      sload\n      div\n      mul\n      dup4\n      mstore\n      swap2\n      0x20\n      add\n      swap2\n      jump(tag_74)\n    tag_75:\n      dup3\n      add\n      swap2\n      swap1\n      0x00\n      mstore\n      keccak256(0x00, 0x20)\n      swap1\n    tag_76:\n      dup2\n      sload\n      dup2\n      mstore\n      swap1\n      0x01\n      add\n      swap1\n      0x20\n      add\n      dup1\n      dup4\n      gt\n      tag_76\n      jumpi\n      dup3\n      swap1\n      sub\n      0x1f\n      and\n      dup3\n      add\n      swap2\n    tag_74:\n      pop\n      pop\n      pop\n      pop\n      pop\n      swap1\n      dup1\n      0x03\n      add\n      sload\n      swap1\n      dup1\n      0x04\n      add\n      sload\n      swap1\n      pop\n      dup6\n      jump\t// out\n    tag_69:\n      dup3\n      dup1\n      sload\n      tag_77\n      swap1\n      tag_51\n      jump\t// in\n    tag_77:\n      swap1\n      0x00\n      mstore\n      keccak256(0x00, 0x20)\n      swap1\n      0x1f\n      add\n      0x20\n      swap1\n      div\n      dup2\n      add\n      swap3\n      dup3\n      tag_79\n      jumpi\n      0x00\n      dup6\n      sstore\n      jump(tag_78)\n    tag_79:\n      dup3\n      0x1f\n      lt\n      tag_80\n      jumpi\n      dup1\n      mload\n      not(0xff)\n      and\n      dup4\n      dup1\n      add\n      or\n      dup6\n      sstore\n      jump(tag_78)\n    tag_80:\n      dup3\n      dup1\n      add\n      0x01\n      add\n      dup6\n      sstore\n      dup3\n      iszero\n      tag_78\n      jumpi\n      swap2\n      dup3\n      add\n    tag_81:\n      dup3\n      dup2\n      gt\n      iszero\n      tag_82\n      jumpi\n      dup3\n      mload\n      dup3\n      sstore\n      swap2\n      0x20\n      add\n      swap2\n      swap1\n      0x01\n      add\n      swap1\n      jump(tag_81)\n    tag_82:\n    tag_78:\n      pop\n      swap1\n      pop\n      tag_83\n      swap2\n      swap1\n      tag_84\n      jump\t// in\n    tag_83:\n      pop\n      swap1\n      jump\t// out\n    tag_84:\n    tag_85:\n      dup1\n      dup3\n      gt\n      iszero\n      tag_86\n      jumpi\n      0x00\n      dup2\n      0x00\n      swap1\n      sstore\n      pop\n      0x01\n      add\n      jump(tag_85)\n    tag_86:\n      pop\n      swap1\n      jump\t// out\n        /* \"#utility.yul\":7:351   */\n    tag_88:\n      0x00\n        /* \"#utility.yul\":110:175   */\n      tag_90\n        /* \"#utility.yul\":125:174   */\n      tag_91\n        /* \"#utility.yul\":167:173   */\n      dup5\n        /* \"#utility.yul\":125:174   */\n      tag_92\n      jump\t// in\n    tag_91:\n        /* \"#utility.yul\":110:175   */\n      tag_93\n      jump\t// in\n    tag_90:\n        /* \"#utility.yul\":101:175   */\n      swap1\n      pop\n        /* \"#utility.yul\":198:204   */\n      dup3\n        /* \"#utility.yul\":191:196   */\n      dup2\n        /* \"#utility.yul\":184:205   */\n      mstore\n        /* \"#utility.yul\":236:240   */\n      0x20\n        /* \"#utility.yul\":229:234   */\n      dup2\n        /* \"#utility.yul\":225:241   */\n      add\n        /* \"#utility.yul\":274:277   */\n      dup5\n        /* \"#utility.yul\":265:271   */\n      dup5\n        /* \"#utility.yul\":260:263   */\n      dup5\n        /* \"#utility.yul\":256:272   */\n      add\n        /* \"#utility.yul\":253:278   */\n      gt\n        /* \"#utility.yul\":250:252   */\n      iszero\n      tag_94\n      jumpi\n        /* \"#utility.yul\":291:292   */\n      0x00\n        /* \"#utility.yul\":288:289   */\n      dup1\n        /* \"#utility.yul\":281:293   */\n      revert\n        /* \"#utility.yul\":250:252   */\n    tag_94:\n        /* \"#utility.yul\":304:345   */\n      tag_95\n        /* \"#utility.yul\":338:344   */\n      dup5\n        /* \"#utility.yul\":333:336   */\n      dup3\n        /* \"#utility.yul\":328:331   */\n      dup6\n        /* \"#utility.yul\":304:345   */\n      tag_96\n      jump\t// in\n    tag_95:\n        /* \"#utility.yul\":91:351   */\n      pop\n      swap4\n      swap3\n      pop\n      pop\n      pop\n      jump\t// out\n        /* \"#utility.yul\":371:644   */\n    tag_97:\n      0x00\n        /* \"#utility.yul\":476:479   */\n      dup3\n        /* \"#utility.yul\":469:473   */\n      0x1f\n        /* \"#utility.yul\":461:467   */\n      dup4\n        /* \"#utility.yul\":457:474   */\n      add\n        /* \"#utility.yul\":453:480   */\n      slt\n        /* \"#utility.yul\":443:445   */\n      tag_99\n      jumpi\n        /* \"#utility.yul\":494:495   */\n      0x00\n        /* \"#utility.yul\":491:492   */\n      dup1\n        /* \"#utility.yul\":484:496   */\n      revert\n        /* \"#utility.yul\":443:445   */\n    tag_99:\n        /* \"#utility.yul\":534:540   */\n      dup2\n        /* \"#utility.yul\":521:541   */\n      calldataload\n        /* \"#utility.yul\":559:638   */\n      tag_100\n        /* \"#utility.yul\":634:637   */\n      dup5\n        /* \"#utility.yul\":626:632   */\n      dup3\n        /* \"#utility.yul\":619:623   */\n      0x20\n        /* \"#utility.yul\":611:617   */\n      dup7\n        /* \"#utility.yul\":607:624   */\n      add\n        /* \"#utility.yul\":559:638   */\n      tag_88\n      jump\t// in\n    tag_100:\n        /* \"#utility.yul\":550:638   */\n      swap2\n      pop\n        /* \"#utility.yul\":433:644   */\n      pop\n      swap3\n      swap2\n      pop\n      pop\n      jump\t// out\n        /* \"#utility.yul\":650:789   */\n    tag_101:\n      0x00\n        /* \"#utility.yul\":734:740   */\n      dup2\n        /* \"#utility.yul\":721:741   */\n      calldataload\n        /* \"#utility.yul\":712:741   */\n      swap1\n      pop\n        /* \"#utility.yul\":750:783   */\n      tag_103\n        /* \"#utility.yul\":777:782   */\n      dup2\n        /* \"#utility.yul\":750:783   */\n      tag_104\n      jump\t// in\n    tag_103:\n        /* \"#utility.yul\":702:789   */\n      swap3\n      swap2\n      pop\n      pop\n      jump\t// out\n        /* \"#utility.yul\":795:1170   */\n    tag_26:\n      0x00\n        /* \"#utility.yul\":913:915   */\n      0x20\n        /* \"#utility.yul\":901:910   */\n      dup3\n        /* \"#utility.yul\":892:899   */\n      dup5\n        /* \"#utility.yul\":888:911   */\n      sub\n        /* \"#utility.yul\":884:916   */\n      slt\n        /* \"#utility.yul\":881:883   */\n      iszero\n      tag_106\n      jumpi\n        /* \"#utility.yul\":929:930   */\n      0x00\n        /* \"#utility.yul\":926:927   */\n      dup1\n        /* \"#utility.yul\":919:931   */\n      revert\n        /* \"#utility.yul\":881:883   */\n    tag_106:\n        /* \"#utility.yul\":1000:1001   */\n      0x00\n        /* \"#utility.yul\":989:998   */\n      dup3\n        /* \"#utility.yul\":985:1002   */\n      add\n        /* \"#utility.yul\":972:1003   */\n      calldataload\n        /* \"#utility.yul\":1030:1048   */\n      0xffffffffffffffff\n        /* \"#utility.yul\":1022:1028   */\n      dup2\n        /* \"#utility.yul\":1019:1049   */\n      gt\n        /* \"#utility.yul\":1016:1018   */\n      iszero\n      tag_107\n      jumpi\n        /* \"#utility.yul\":1062:1063   */\n      0x00\n        /* \"#utility.yul\":1059:1060   */\n      dup1\n        /* \"#utility.yul\":1052:1064   */\n      revert\n        /* \"#utility.yul\":1016:1018   */\n    tag_107:\n        /* \"#utility.yul\":1090:1153   */\n      tag_108\n        /* \"#utility.yul\":1145:1152   */\n      dup5\n        /* \"#utility.yul\":1136:1142   */\n      dup3\n        /* \"#utility.yul\":1125:1134   */\n      dup6\n        /* \"#utility.yul\":1121:1143   */\n      add\n        /* \"#utility.yul\":1090:1153   */\n      tag_97\n      jump\t// in\n    tag_108:\n        /* \"#utility.yul\":1080:1153   */\n      swap2\n      pop\n        /* \"#utility.yul\":943:1163   */\n      pop\n        /* \"#utility.yul\":871:1170   */\n      swap3\n      swap2\n      pop\n      pop\n      jump\t// out\n        /* \"#utility.yul\":1176:1438   */\n    tag_11:\n      0x00\n        /* \"#utility.yul\":1284:1286   */\n      0x20\n        /* \"#utility.yul\":1272:1281   */\n      dup3\n        /* \"#utility.yul\":1263:1270   */\n      dup5\n        /* \"#utility.yul\":1259:1282   */\n      sub\n        /* \"#utility.yul\":1255:1287   */\n      slt\n        /* \"#utility.yul\":1252:1254   */\n      iszero\n      tag_110\n      jumpi\n        /* \"#utility.yul\":1300:1301   */\n      0x00\n        /* \"#utility.yul\":1297:1298   */\n      dup1\n        /* \"#utility.yul\":1290:1302   */\n      revert\n        /* \"#utility.yul\":1252:1254   */\n    tag_110:\n        /* \"#utility.yul\":1343:1344   */\n      0x00\n        /* \"#utility.yul\":1368:1421   */\n      tag_111\n        /* \"#utility.yul\":1413:1420   */\n      dup5\n        /* \"#utility.yul\":1404:1410   */\n      dup3\n        /* \"#utility.yul\":1393:1402   */\n      dup6\n        /* \"#utility.yul\":1389:1411   */\n      add\n        /* \"#utility.yul\":1368:1421   */\n      tag_101\n      jump\t// in\n    tag_111:\n        /* \"#utility.yul\":1358:1421   */\n      swap2\n      pop\n        /* \"#utility.yul\":1314:1431   */\n      pop\n        /* \"#utility.yul\":1242:1438   */\n      swap3\n      swap2\n      pop\n      pop\n      jump\t// out\n        /* \"#utility.yul\":1444:1684   */\n    tag_112:\n      0x00\n        /* \"#utility.yul\":1590:1678   */\n      tag_114\n        /* \"#utility.yul\":1674:1677   */\n      dup4\n        /* \"#utility.yul\":1666:1672   */\n      dup4\n        /* \"#utility.yul\":1590:1678   */\n      tag_115\n      jump\t// in\n    tag_114:\n        /* \"#utility.yul\":1576:1678   */\n      swap1\n      pop\n        /* \"#utility.yul\":1566:1684   */\n      swap3\n      swap2\n      pop\n      pop\n      jump\t// out\n        /* \"#utility.yul\":1690:1798   */\n    tag_116:\n        /* \"#utility.yul\":1767:1791   */\n      tag_118\n        /* \"#utility.yul\":1785:1790   */\n      dup2\n        /* \"#utility.yul\":1767:1791   */\n      tag_119\n      jump\t// in\n    tag_118:\n        /* \"#utility.yul\":1762:1765   */\n      dup3\n        /* \"#utility.yul\":1755:1792   */\n      mstore\n        /* \"#utility.yul\":1745:1798   */\n      pop\n      pop\n      jump\t// out\n        /* \"#utility.yul\":1804:1922   */\n    tag_120:\n        /* \"#utility.yul\":1891:1915   */\n      tag_122\n        /* \"#utility.yul\":1909:1914   */\n      dup2\n        /* \"#utility.yul\":1891:1915   */\n      tag_119\n      jump\t// in\n    tag_122:\n        /* \"#utility.yul\":1886:1889   */\n      dup3\n        /* \"#utility.yul\":1879:1916   */\n      mstore\n        /* \"#utility.yul\":1869:1922   */\n      pop\n      pop\n      jump\t// out\n        /* \"#utility.yul\":1984:3063   */\n    tag_123:\n      0x00\n        /* \"#utility.yul\":2174:2249   */\n      tag_125\n        /* \"#utility.yul\":2243:2248   */\n      dup3\n        /* \"#utility.yul\":2174:2249   */\n      tag_126\n      jump\t// in\n    tag_125:\n        /* \"#utility.yul\":2265:2372   */\n      tag_127\n        /* \"#utility.yul\":2365:2371   */\n      dup2\n        /* \"#utility.yul\":2360:2363   */\n      dup6\n        /* \"#utility.yul\":2265:2372   */\n      tag_128\n      jump\t// in\n    tag_127:\n        /* \"#utility.yul\":2258:2372   */\n      swap4\n      pop\n        /* \"#utility.yul\":2398:2401   */\n      dup4\n        /* \"#utility.yul\":2443:2447   */\n      0x20\n        /* \"#utility.yul\":2435:2441   */\n      dup3\n        /* \"#utility.yul\":2431:2448   */\n      mul\n        /* \"#utility.yul\":2426:2429   */\n      dup6\n        /* \"#utility.yul\":2422:2449   */\n      add\n        /* \"#utility.yul\":2473:2550   */\n      tag_129\n        /* \"#utility.yul\":2544:2549   */\n      dup6\n        /* \"#utility.yul\":2473:2550   */\n      tag_130\n      jump\t// in\n    tag_129:\n        /* \"#utility.yul\":2573:2580   */\n      dup1\n        /* \"#utility.yul\":2604:2605   */\n      0x00\n        /* \"#utility.yul\":2589:3018   */\n    tag_131:\n        /* \"#utility.yul\":2614:2620   */\n      dup6\n        /* \"#utility.yul\":2611:2612   */\n      dup2\n        /* \"#utility.yul\":2608:2621   */\n      lt\n        /* \"#utility.yul\":2589:3018   */\n      iszero\n      tag_133\n      jumpi\n        /* \"#utility.yul\":2685:2694   */\n      dup5\n        /* \"#utility.yul\":2679:2683   */\n      dup5\n        /* \"#utility.yul\":2675:2695   */\n      sub\n        /* \"#utility.yul\":2670:2673   */\n      dup10\n        /* \"#utility.yul\":2663:2696   */\n      mstore\n        /* \"#utility.yul\":2736:2742   */\n      dup2\n        /* \"#utility.yul\":2730:2743   */\n      mload\n        /* \"#utility.yul\":2764:2870   */\n      tag_134\n        /* \"#utility.yul\":2865:2869   */\n      dup6\n        /* \"#utility.yul\":2850:2863   */\n      dup3\n        /* \"#utility.yul\":2764:2870   */\n      tag_112\n      jump\t// in\n    tag_134:\n        /* \"#utility.yul\":2756:2870   */\n      swap5\n      pop\n        /* \"#utility.yul\":2893:2974   */\n      tag_135\n        /* \"#utility.yul\":2967:2973   */\n      dup4\n        /* \"#utility.yul\":2893:2974   */\n      tag_136\n      jump\t// in\n    tag_135:\n        /* \"#utility.yul\":2883:2974   */\n      swap3\n      pop\n        /* \"#utility.yul\":3003:3007   */\n      0x20\n        /* \"#utility.yul\":2998:3001   */\n      dup11\n        /* \"#utility.yul\":2994:3008   */\n      add\n        /* \"#utility.yul\":2987:3008   */\n      swap10\n      pop\n        /* \"#utility.yul\":2649:3018   */\n      pop\n        /* \"#utility.yul\":2636:2637   */\n      0x01\n        /* \"#utility.yul\":2633:2634   */\n      dup2\n        /* \"#utility.yul\":2629:2638   */\n      add\n        /* \"#utility.yul\":2624:2638   */\n      swap1\n      pop\n        /* \"#utility.yul\":2589:3018   */\n      jump(tag_131)\n    tag_133:\n        /* \"#utility.yul\":2593:2607   */\n      pop\n        /* \"#utility.yul\":3034:3038   */\n      dup3\n        /* \"#utility.yul\":3027:3038   */\n      swap8\n      pop\n        /* \"#utility.yul\":3054:3057   */\n      dup8\n        /* \"#utility.yul\":3047:3057   */\n      swap6\n      pop\n        /* \"#utility.yul\":2150:3063   */\n      pop\n      pop\n      pop\n      pop\n      pop\n      swap3\n      swap2\n      pop\n      pop\n      jump\t// out\n        /* \"#utility.yul\":3069:3413   */\n    tag_137:\n      0x00\n        /* \"#utility.yul\":3175:3214   */\n      tag_139\n        /* \"#utility.yul\":3208:3213   */\n      dup3\n        /* \"#utility.yul\":3175:3214   */\n      tag_140\n      jump\t// in\n    tag_139:\n        /* \"#utility.yul\":3230:3291   */\n      tag_141\n        /* \"#utility.yul\":3284:3290   */\n      dup2\n        /* \"#utility.yul\":3279:3282   */\n      dup6\n        /* \"#utility.yul\":3230:3291   */\n      tag_142\n      jump\t// in\n    tag_141:\n        /* \"#utility.yul\":3223:3291   */\n      swap4\n      pop\n        /* \"#utility.yul\":3300:3352   */\n      tag_143\n        /* \"#utility.yul\":3345:3351   */\n      dup2\n        /* \"#utility.yul\":3340:3343   */\n      dup6\n        /* \"#utility.yul\":3333:3337   */\n      0x20\n        /* \"#utility.yul\":3326:3331   */\n      dup7\n        /* \"#utility.yul\":3322:3338   */\n      add\n        /* \"#utility.yul\":3300:3352   */\n      tag_144\n      jump\t// in\n    tag_143:\n        /* \"#utility.yul\":3377:3406   */\n      tag_145\n        /* \"#utility.yul\":3399:3405   */\n      dup2\n        /* \"#utility.yul\":3377:3406   */\n      tag_146\n      jump\t// in\n    tag_145:\n        /* \"#utility.yul\":3372:3375   */\n      dup5\n        /* \"#utility.yul\":3368:3407   */\n      add\n        /* \"#utility.yul\":3361:3407   */\n      swap2\n      pop\n        /* \"#utility.yul\":3151:3413   */\n      pop\n      swap3\n      swap2\n      pop\n      pop\n      jump\t// out\n        /* \"#utility.yul\":3419:3783   */\n    tag_147:\n      0x00\n        /* \"#utility.yul\":3535:3574   */\n      tag_149\n        /* \"#utility.yul\":3568:3573   */\n      dup3\n        /* \"#utility.yul\":3535:3574   */\n      tag_140\n      jump\t// in\n    tag_149:\n        /* \"#utility.yul\":3590:3661   */\n      tag_150\n        /* \"#utility.yul\":3654:3660   */\n      dup2\n        /* \"#utility.yul\":3649:3652   */\n      dup6\n        /* \"#utility.yul\":3590:3661   */\n      tag_151\n      jump\t// in\n    tag_150:\n        /* \"#utility.yul\":3583:3661   */\n      swap4\n      pop\n        /* \"#utility.yul\":3670:3722   */\n      tag_152\n        /* \"#utility.yul\":3715:3721   */\n      dup2\n        /* \"#utility.yul\":3710:3713   */\n      dup6\n        /* \"#utility.yul\":3703:3707   */\n      0x20\n        /* \"#utility.yul\":3696:3701   */\n      dup7\n        /* \"#utility.yul\":3692:3708   */\n      add\n        /* \"#utility.yul\":3670:3722   */\n      tag_144\n      jump\t// in\n    tag_152:\n        /* \"#utility.yul\":3747:3776   */\n      tag_153\n        /* \"#utility.yul\":3769:3775   */\n      dup2\n        /* \"#utility.yul\":3747:3776   */\n      tag_146\n      jump\t// in\n    tag_153:\n        /* \"#utility.yul\":3742:3745   */\n      dup5\n        /* \"#utility.yul\":3738:3777   */\n      add\n        /* \"#utility.yul\":3731:3777   */\n      swap2\n      pop\n        /* \"#utility.yul\":3511:3783   */\n      pop\n      swap3\n      swap2\n      pop\n      pop\n      jump\t// out\n        /* \"#utility.yul\":3789:4102   */\n    tag_154:\n      0x00\n        /* \"#utility.yul\":3952:4019   */\n      tag_156\n        /* \"#utility.yul\":4016:4018   */\n      0x0f\n        /* \"#utility.yul\":4011:4014   */\n      dup4\n        /* \"#utility.yul\":3952:4019   */\n      tag_151\n      jump\t// in\n    tag_156:\n        /* \"#utility.yul\":3945:4019   */\n      swap2\n      pop\n        /* \"#utility.yul\":4049:4066   */\n      0x547765657420746f6f206c6f6e67210000000000000000000000000000000000\n        /* \"#utility.yul\":4045:4046   */\n      0x00\n        /* \"#utility.yul\":4040:4043   */\n      dup4\n        /* \"#utility.yul\":4036:4047   */\n      add\n        /* \"#utility.yul\":4029:4067   */\n      mstore\n        /* \"#utility.yul\":4093:4095   */\n      0x20\n        /* \"#utility.yul\":4088:4091   */\n      dup3\n        /* \"#utility.yul\":4084:4096   */\n      add\n        /* \"#utility.yul\":4077:4096   */\n      swap1\n      pop\n        /* \"#utility.yul\":3935:4102   */\n      swap2\n      swap1\n      pop\n      jump\t// out\n        /* \"#utility.yul\":4108:4424   */\n    tag_157:\n      0x00\n        /* \"#utility.yul\":4271:4338   */\n      tag_159\n        /* \"#utility.yul\":4335:4337   */\n      0x12\n        /* \"#utility.yul\":4330:4333   */\n      dup4\n        /* \"#utility.yul\":4271:4338   */\n      tag_151\n      jump\t// in\n    tag_159:\n        /* \"#utility.yul\":4264:4338   */\n      swap2\n      pop\n        /* \"#utility.yul\":4368:4388   */\n      0x4e6f206c696b657320746f2072656d6f76650000000000000000000000000000\n        /* \"#utility.yul\":4364:4365   */\n      0x00\n        /* \"#utility.yul\":4359:4362   */\n      dup4\n        /* \"#utility.yul\":4355:4366   */\n      add\n        /* \"#utility.yul\":4348:4389   */\n      mstore\n        /* \"#utility.yul\":4415:4417   */\n      0x20\n        /* \"#utility.yul\":4410:4413   */\n      dup3\n        /* \"#utility.yul\":4406:4418   */\n      add\n        /* \"#utility.yul\":4399:4418   */\n      swap1\n      pop\n        /* \"#utility.yul\":4254:4424   */\n      swap2\n      swap1\n      pop\n      jump\t// out\n        /* \"#utility.yul\":4430:4743   */\n    tag_160:\n      0x00\n        /* \"#utility.yul\":4593:4660   */\n      tag_162\n        /* \"#utility.yul\":4657:4659   */\n      0x0f\n        /* \"#utility.yul\":4652:4655   */\n      dup4\n        /* \"#utility.yul\":4593:4660   */\n      tag_151\n      jump\t// in\n    tag_162:\n        /* \"#utility.yul\":4586:4660   */\n      swap2\n      pop\n        /* \"#utility.yul\":4690:4707   */\n      0x5477656574206e6f7420666f756e640000000000000000000000000000000000\n        /* \"#utility.yul\":4686:4687   */\n      0x00\n        /* \"#utility.yul\":4681:4684   */\n      dup4\n        /* \"#utility.yul\":4677:4688   */\n      add\n        /* \"#utility.yul\":4670:4708   */\n      mstore\n        /* \"#utility.yul\":4734:4736   */\n      0x20\n        /* \"#utility.yul\":4729:4732   */\n      dup3\n        /* \"#utility.yul\":4725:4737   */\n      add\n        /* \"#utility.yul\":4718:4737   */\n      swap1\n      pop\n        /* \"#utility.yul\":4576:4743   */\n      swap2\n      swap1\n      pop\n      jump\t// out\n        /* \"#utility.yul\":4801:5920   */\n    tag_115:\n      0x00\n        /* \"#utility.yul\":4938:4942   */\n      0xa0\n        /* \"#utility.yul\":4933:4936   */\n      dup4\n        /* \"#utility.yul\":4929:4943   */\n      add\n        /* \"#utility.yul\":5023:5027   */\n      0x00\n        /* \"#utility.yul\":5016:5021   */\n      dup4\n        /* \"#utility.yul\":5012:5028   */\n      add\n        /* \"#utility.yul\":5006:5029   */\n      mload\n        /* \"#utility.yul\":5042:5105   */\n      tag_164\n        /* \"#utility.yul\":5099:5103   */\n      0x00\n        /* \"#utility.yul\":5094:5097   */\n      dup7\n        /* \"#utility.yul\":5090:5104   */\n      add\n        /* \"#utility.yul\":5076:5088   */\n      dup3\n        /* \"#utility.yul\":5042:5105   */\n      tag_165\n      jump\t// in\n    tag_164:\n        /* \"#utility.yul\":4953:5115   */\n      pop\n        /* \"#utility.yul\":5199:5203   */\n      0x20\n        /* \"#utility.yul\":5192:5197   */\n      dup4\n        /* \"#utility.yul\":5188:5204   */\n      add\n        /* \"#utility.yul\":5182:5205   */\n      mload\n        /* \"#utility.yul\":5218:5281   */\n      tag_166\n        /* \"#utility.yul\":5275:5279   */\n      0x20\n        /* \"#utility.yul\":5270:5273   */\n      dup7\n        /* \"#utility.yul\":5266:5280   */\n      add\n        /* \"#utility.yul\":5252:5264   */\n      dup3\n        /* \"#utility.yul\":5218:5281   */\n      tag_116\n      jump\t// in\n    tag_166:\n        /* \"#utility.yul\":5125:5291   */\n      pop\n        /* \"#utility.yul\":5376:5380   */\n      0x40\n        /* \"#utility.yul\":5369:5374   */\n      dup4\n        /* \"#utility.yul\":5365:5381   */\n      add\n        /* \"#utility.yul\":5359:5382   */\n      mload\n        /* \"#utility.yul\":5429:5432   */\n      dup5\n        /* \"#utility.yul\":5423:5427   */\n      dup3\n        /* \"#utility.yul\":5419:5433   */\n      sub\n        /* \"#utility.yul\":5412:5416   */\n      0x40\n        /* \"#utility.yul\":5407:5410   */\n      dup7\n        /* \"#utility.yul\":5403:5417   */\n      add\n        /* \"#utility.yul\":5396:5434   */\n      mstore\n        /* \"#utility.yul\":5455:5528   */\n      tag_167\n        /* \"#utility.yul\":5523:5527   */\n      dup3\n        /* \"#utility.yul\":5509:5521   */\n      dup3\n        /* \"#utility.yul\":5455:5528   */\n      tag_137\n      jump\t// in\n    tag_167:\n        /* \"#utility.yul\":5447:5528   */\n      swap2\n      pop\n        /* \"#utility.yul\":5301:5539   */\n      pop\n        /* \"#utility.yul\":5626:5630   */\n      0x60\n        /* \"#utility.yul\":5619:5624   */\n      dup4\n        /* \"#utility.yul\":5615:5631   */\n      add\n        /* \"#utility.yul\":5609:5632   */\n      mload\n        /* \"#utility.yul\":5645:5708   */\n      tag_168\n        /* \"#utility.yul\":5702:5706   */\n      0x60\n        /* \"#utility.yul\":5697:5700   */\n      dup7\n        /* \"#utility.yul\":5693:5707   */\n      add\n        /* \"#utility.yul\":5679:5691   */\n      dup3\n        /* \"#utility.yul\":5645:5708   */\n      tag_165\n      jump\t// in\n    tag_168:\n        /* \"#utility.yul\":5549:5718   */\n      pop\n        /* \"#utility.yul\":5801:5805   */\n      0x80\n        /* \"#utility.yul\":5794:5799   */\n      dup4\n        /* \"#utility.yul\":5790:5806   */\n      add\n        /* \"#utility.yul\":5784:5807   */\n      mload\n        /* \"#utility.yul\":5820:5883   */\n      tag_169\n        /* \"#utility.yul\":5877:5881   */\n      0x80\n        /* \"#utility.yul\":5872:5875   */\n      dup7\n        /* \"#utility.yul\":5868:5882   */\n      add\n        /* \"#utility.yul\":5854:5866   */\n      dup3\n        /* \"#utility.yul\":5820:5883   */\n      tag_165\n      jump\t// in\n    tag_169:\n        /* \"#utility.yul\":5728:5893   */\n      pop\n        /* \"#utility.yul\":5910:5914   */\n      dup1\n        /* \"#utility.yul\":5903:5914   */\n      swap2\n      pop\n        /* \"#utility.yul\":4907:5920   */\n      pop\n      swap3\n      swap2\n      pop\n      pop\n      jump\t// out\n        /* \"#utility.yul\":5926:6041   */\n    tag_170:\n        /* \"#utility.yul\":6011:6034   */\n      tag_172\n        /* \"#utility.yul\":6028:6033   */\n      dup2\n        /* \"#utility.yul\":6011:6034   */\n      tag_173\n      jump\t// in\n    tag_172:\n        /* \"#utility.yul\":6006:6009   */\n      dup3\n        /* \"#utility.yul\":5999:6035   */\n      mstore\n        /* \"#utility.yul\":5989:6041   */\n      pop\n      pop\n      jump\t// out\n        /* \"#utility.yul\":6047:6155   */\n    tag_165:\n        /* \"#utility.yul\":6124:6148   */\n      tag_175\n        /* \"#utility.yul\":6142:6147   */\n      dup2\n        /* \"#utility.yul\":6124:6148   */\n      tag_176\n      jump\t// in\n    tag_175:\n        /* \"#utility.yul\":6119:6122   */\n      dup3\n        /* \"#utility.yul\":6112:6149   */\n      mstore\n        /* \"#utility.yul\":6102:6155   */\n      pop\n      pop\n      jump\t// out\n        /* \"#utility.yul\":6161:6279   */\n    tag_177:\n        /* \"#utility.yul\":6248:6272   */\n      tag_179\n        /* \"#utility.yul\":6266:6271   */\n      dup2\n        /* \"#utility.yul\":6248:6272   */\n      tag_176\n      jump\t// in\n    tag_179:\n        /* \"#utility.yul\":6243:6246   */\n      dup3\n        /* \"#utility.yul\":6236:6273   */\n      mstore\n        /* \"#utility.yul\":6226:6279   */\n      pop\n      pop\n      jump\t// out\n        /* \"#utility.yul\":6285:6742   */\n    tag_16:\n      0x00\n        /* \"#utility.yul\":6508:6510   */\n      0x20\n        /* \"#utility.yul\":6497:6506   */\n      dup3\n        /* \"#utility.yul\":6493:6511   */\n      add\n        /* \"#utility.yul\":6485:6511   */\n      swap1\n      pop\n        /* \"#utility.yul\":6557:6566   */\n      dup2\n        /* \"#utility.yul\":6551:6555   */\n      dup2\n        /* \"#utility.yul\":6547:6567   */\n      sub\n        /* \"#utility.yul\":6543:6544   */\n      0x00\n        /* \"#utility.yul\":6532:6541   */\n      dup4\n        /* \"#utility.yul\":6528:6545   */\n      add\n        /* \"#utility.yul\":6521:6568   */\n      mstore\n        /* \"#utility.yul\":6585:6735   */\n      tag_181\n        /* \"#utility.yul\":6730:6734   */\n      dup2\n        /* \"#utility.yul\":6721:6727   */\n      dup5\n        /* \"#utility.yul\":6585:6735   */\n      tag_123\n      jump\t// in\n    tag_181:\n        /* \"#utility.yul\":6577:6735   */\n      swap1\n      pop\n        /* \"#utility.yul\":6475:6742   */\n      swap3\n      swap2\n      pop\n      pop\n      jump\t// out\n        /* \"#utility.yul\":6748:7167   */\n    tag_66:\n      0x00\n        /* \"#utility.yul\":6952:6954   */\n      0x20\n        /* \"#utility.yul\":6941:6950   */\n      dup3\n        /* \"#utility.yul\":6937:6955   */\n      add\n        /* \"#utility.yul\":6929:6955   */\n      swap1\n      pop\n        /* \"#utility.yul\":7001:7010   */\n      dup2\n        /* \"#utility.yul\":6995:6999   */\n      dup2\n        /* \"#utility.yul\":6991:7011   */\n      sub\n        /* \"#utility.yul\":6987:6988   */\n      0x00\n        /* \"#utility.yul\":6976:6985   */\n      dup4\n        /* \"#utility.yul\":6972:6989   */\n      add\n        /* \"#utility.yul\":6965:7012   */\n      mstore\n        /* \"#utility.yul\":7029:7160   */\n      tag_183\n        /* \"#utility.yul\":7155:7159   */\n      dup2\n        /* \"#utility.yul\":7029:7160   */\n      tag_154\n      jump\t// in\n    tag_183:\n        /* \"#utility.yul\":7021:7160   */\n      swap1\n      pop\n        /* \"#utility.yul\":6919:7167   */\n      swap2\n      swap1\n      pop\n      jump\t// out\n        /* \"#utility.yul\":7173:7592   */\n    tag_41:\n      0x00\n        /* \"#utility.yul\":7377:7379   */\n      0x20\n        /* \"#utility.yul\":7366:7375   */\n      dup3\n        /* \"#utility.yul\":7362:7380   */\n      add\n        /* \"#utility.yul\":7354:7380   */\n      swap1\n      pop\n        /* \"#utility.yul\":7426:7435   */\n      dup2\n        /* \"#utility.yul\":7420:7424   */\n      dup2\n        /* \"#utility.yul\":7416:7436   */\n      sub\n        /* \"#utility.yul\":7412:7413   */\n      0x00\n        /* \"#utility.yul\":7401:7410   */\n      dup4\n        /* \"#utility.yul\":7397:7414   */\n      add\n        /* \"#utility.yul\":7390:7437   */\n      mstore\n        /* \"#utility.yul\":7454:7585   */\n      tag_185\n        /* \"#utility.yul\":7580:7584   */\n      dup2\n        /* \"#utility.yul\":7454:7585   */\n      tag_157\n      jump\t// in\n    tag_185:\n        /* \"#utility.yul\":7446:7585   */\n      swap1\n      pop\n        /* \"#utility.yul\":7344:7592   */\n      swap2\n      swap1\n      pop\n      jump\t// out\n        /* \"#utility.yul\":7598:8017   */\n    tag_36:\n      0x00\n        /* \"#utility.yul\":7802:7804   */\n      0x20\n        /* \"#utility.yul\":7791:7800   */\n      dup3\n        /* \"#utility.yul\":7787:7805   */\n      add\n        /* \"#utility.yul\":7779:7805   */\n      swap1\n      pop\n        /* \"#utility.yul\":7851:7860   */\n      dup2\n        /* \"#utility.yul\":7845:7849   */\n      dup2\n        /* \"#utility.yul\":7841:7861   */\n      sub\n        /* \"#utility.yul\":7837:7838   */\n      0x00\n        /* \"#utility.yul\":7826:7835   */\n      dup4\n        /* \"#utility.yul\":7822:7839   */\n      add\n        /* \"#utility.yul\":7815:7862   */\n      mstore\n        /* \"#utility.yul\":7879:8010   */\n      tag_187\n        /* \"#utility.yul\":8005:8009   */\n      dup2\n        /* \"#utility.yul\":7879:8010   */\n      tag_160\n      jump\t// in\n    tag_187:\n        /* \"#utility.yul\":7871:8010   */\n      swap1\n      pop\n        /* \"#utility.yul\":7769:8017   */\n      swap2\n      swap1\n      pop\n      jump\t// out\n        /* \"#utility.yul\":8023:8241   */\n    tag_23:\n      0x00\n        /* \"#utility.yul\":8152:8154   */\n      0x20\n        /* \"#utility.yul\":8141:8150   */\n      dup3\n        /* \"#utility.yul\":8137:8155   */\n      add\n        /* \"#utility.yul\":8129:8155   */\n      swap1\n      pop\n        /* \"#utility.yul\":8165:8234   */\n      tag_189\n        /* \"#utility.yul\":8231:8232   */\n      0x00\n        /* \"#utility.yul\":8220:8229   */\n      dup4\n        /* \"#utility.yul\":8216:8233   */\n      add\n        /* \"#utility.yul\":8207:8213   */\n      dup5\n        /* \"#utility.yul\":8165:8234   */\n      tag_170\n      jump\t// in\n    tag_189:\n        /* \"#utility.yul\":8119:8241   */\n      swap3\n      swap2\n      pop\n      pop\n      jump\t// out\n        /* \"#utility.yul\":8247:9002   */\n    tag_32:\n      0x00\n        /* \"#utility.yul\":8510:8513   */\n      0xa0\n        /* \"#utility.yul\":8499:8508   */\n      dup3\n        /* \"#utility.yul\":8495:8514   */\n      add\n        /* \"#utility.yul\":8487:8514   */\n      swap1\n      pop\n        /* \"#utility.yul\":8524:8595   */\n      tag_191\n        /* \"#utility.yul\":8592:8593   */\n      0x00\n        /* \"#utility.yul\":8581:8590   */\n      dup4\n        /* \"#utility.yul\":8577:8594   */\n      add\n        /* \"#utility.yul\":8568:8574   */\n      dup9\n        /* \"#utility.yul\":8524:8595   */\n      tag_177\n      jump\t// in\n    tag_191:\n        /* \"#utility.yul\":8605:8677   */\n      tag_192\n        /* \"#utility.yul\":8673:8675   */\n      0x20\n        /* \"#utility.yul\":8662:8671   */\n      dup4\n        /* \"#utility.yul\":8658:8676   */\n      add\n        /* \"#utility.yul\":8649:8655   */\n      dup8\n        /* \"#utility.yul\":8605:8677   */\n      tag_120\n      jump\t// in\n    tag_192:\n        /* \"#utility.yul\":8724:8733   */\n      dup2\n        /* \"#utility.yul\":8718:8722   */\n      dup2\n        /* \"#utility.yul\":8714:8734   */\n      sub\n        /* \"#utility.yul\":8709:8711   */\n      0x40\n        /* \"#utility.yul\":8698:8707   */\n      dup4\n        /* \"#utility.yul\":8694:8712   */\n      add\n        /* \"#utility.yul\":8687:8735   */\n      mstore\n        /* \"#utility.yul\":8752:8830   */\n      tag_193\n        /* \"#utility.yul\":8825:8829   */\n      dup2\n        /* \"#utility.yul\":8816:8822   */\n      dup7\n        /* \"#utility.yul\":8752:8830   */\n      tag_147\n      jump\t// in\n    tag_193:\n        /* \"#utility.yul\":8744:8830   */\n      swap1\n      pop\n        /* \"#utility.yul\":8840:8912   */\n      tag_194\n        /* \"#utility.yul\":8908:8910   */\n      0x60\n        /* \"#utility.yul\":8897:8906   */\n      dup4\n        /* \"#utility.yul\":8893:8911   */\n      add\n        /* \"#utility.yul\":8884:8890   */\n      dup6\n        /* \"#utility.yul\":8840:8912   */\n      tag_177\n      jump\t// in\n    tag_194:\n        /* \"#utility.yul\":8922:8995   */\n      tag_195\n        /* \"#utility.yul\":8990:8993   */\n      0x80\n        /* \"#utility.yul\":8979:8988   */\n      dup4\n        /* \"#utility.yul\":8975:8994   */\n      add\n        /* \"#utility.yul\":8966:8972   */\n      dup5\n        /* \"#utility.yul\":8922:8995   */\n      tag_177\n      jump\t// in\n    tag_195:\n        /* \"#utility.yul\":8477:9002   */\n      swap7\n      swap6\n      pop\n      pop\n      pop\n      pop\n      pop\n      pop\n      jump\t// out\n        /* \"#utility.yul\":9008:9291   */\n    tag_93:\n      0x00\n        /* \"#utility.yul\":9074:9076   */\n      0x40\n        /* \"#utility.yul\":9068:9077   */\n      mload\n        /* \"#utility.yul\":9058:9077   */\n      swap1\n      pop\n        /* \"#utility.yul\":9116:9120   */\n      dup2\n        /* \"#utility.yul\":9108:9114   */\n      dup2\n        /* \"#utility.yul\":9104:9121   */\n      add\n        /* \"#utility.yul\":9223:9229   */\n      dup2\n        /* \"#utility.yul\":9211:9221   */\n      dup2\n        /* \"#utility.yul\":9208:9230   */\n      lt\n        /* \"#utility.yul\":9187:9205   */\n      0xffffffffffffffff\n        /* \"#utility.yul\":9175:9185   */\n      dup3\n        /* \"#utility.yul\":9172:9206   */\n      gt\n        /* \"#utility.yul\":9169:9231   */\n      or\n        /* \"#utility.yul\":9166:9168   */\n      iszero\n      tag_197\n      jumpi\n        /* \"#utility.yul\":9234:9252   */\n      tag_198\n      tag_199\n      jump\t// in\n    tag_198:\n        /* \"#utility.yul\":9166:9168   */\n    tag_197:\n        /* \"#utility.yul\":9274:9284   */\n      dup1\n        /* \"#utility.yul\":9270:9272   */\n      0x40\n        /* \"#utility.yul\":9263:9285   */\n      mstore\n        /* \"#utility.yul\":9048:9291   */\n      pop\n      swap2\n      swap1\n      pop\n      jump\t// out\n        /* \"#utility.yul\":9297:9629   */\n    tag_92:\n      0x00\n        /* \"#utility.yul\":9449:9467   */\n      0xffffffffffffffff\n        /* \"#utility.yul\":9441:9447   */\n      dup3\n        /* \"#utility.yul\":9438:9468   */\n      gt\n        /* \"#utility.yul\":9435:9437   */\n      iszero\n      tag_201\n      jumpi\n        /* \"#utility.yul\":9471:9489   */\n      tag_202\n      tag_199\n      jump\t// in\n    tag_202:\n        /* \"#utility.yul\":9435:9437   */\n    tag_201:\n        /* \"#utility.yul\":9556:9560   */\n      0x1f\n        /* \"#utility.yul\":9552:9561   */\n      not\n        /* \"#utility.yul\":9545:9549   */\n      0x1f\n        /* \"#utility.yul\":9537:9543   */\n      dup4\n        /* \"#utility.yul\":9533:9550   */\n      add\n        /* \"#utility.yul\":9529:9562   */\n      and\n        /* \"#utility.yul\":9521:9562   */\n      swap1\n      pop\n        /* \"#utility.yul\":9617:9621   */\n      0x20\n        /* \"#utility.yul\":9611:9615   */\n      dup2\n        /* \"#utility.yul\":9607:9622   */\n      add\n        /* \"#utility.yul\":9599:9622   */\n      swap1\n      pop\n        /* \"#utility.yul\":9364:9629   */\n      swap2\n      swap1\n      pop\n      jump\t// out\n        /* \"#utility.yul\":9635:9788   */\n    tag_130:\n      0x00\n        /* \"#utility.yul\":9746:9749   */\n      dup2\n        /* \"#utility.yul\":9738:9749   */\n      swap1\n      pop\n        /* \"#utility.yul\":9776:9780   */\n      0x20\n        /* \"#utility.yul\":9771:9774   */\n      dup3\n        /* \"#utility.yul\":9767:9781   */\n      add\n        /* \"#utility.yul\":9759:9781   */\n      swap1\n      pop\n        /* \"#utility.yul\":9728:9788   */\n      swap2\n      swap1\n      pop\n      jump\t// out\n        /* \"#utility.yul\":9794:9929   */\n    tag_126:\n      0x00\n        /* \"#utility.yul\":9916:9921   */\n      dup2\n        /* \"#utility.yul\":9910:9922   */\n      mload\n        /* \"#utility.yul\":9900:9922   */\n      swap1\n      pop\n        /* \"#utility.yul\":9889:9929   */\n      swap2\n      swap1\n      pop\n      jump\t// out\n        /* \"#utility.yul\":9935:10034   */\n    tag_140:\n      0x00\n        /* \"#utility.yul\":10021:10026   */\n      dup2\n        /* \"#utility.yul\":10015:10027   */\n      mload\n        /* \"#utility.yul\":10005:10027   */\n      swap1\n      pop\n        /* \"#utility.yul\":9994:10034   */\n      swap2\n      swap1\n      pop\n      jump\t// out\n        /* \"#utility.yul\":10040:10174   */\n    tag_136:\n      0x00\n        /* \"#utility.yul\":10163:10167   */\n      0x20\n        /* \"#utility.yul\":10158:10161   */\n      dup3\n        /* \"#utility.yul\":10154:10168   */\n      add\n        /* \"#utility.yul\":10146:10168   */\n      swap1\n      pop\n        /* \"#utility.yul\":10136:10174   */\n      swap2\n      swap1\n      pop\n      jump\t// out\n        /* \"#utility.yul\":10180:10385   */\n    tag_128:\n      0x00\n        /* \"#utility.yul\":10334:10340   */\n      dup3\n        /* \"#utility.yul\":10329:10332   */\n      dup3\n        /* \"#utility.yul\":10322:10341   */\n      mstore\n        /* \"#utility.yul\":10374:10378   */\n      0x20\n        /* \"#utility.yul\":10369:10372   */\n      dup3\n        /* \"#utility.yul\":10365:10379   */\n      add\n        /* \"#utility.yul\":10350:10379   */\n      swap1\n      pop\n        /* \"#utility.yul\":10312:10385   */\n      swap3\n      swap2\n      pop\n      pop\n      jump\t// out\n        /* \"#utility.yul\":10391:10550   */\n    tag_142:\n      0x00\n        /* \"#utility.yul\":10499:10505   */\n      dup3\n        /* \"#utility.yul\":10494:10497   */\n      dup3\n        /* \"#utility.yul\":10487:10506   */\n      mstore\n        /* \"#utility.yul\":10539:10543   */\n      0x20\n        /* \"#utility.yul\":10534:10537   */\n      dup3\n        /* \"#utility.yul\":10530:10544   */\n      add\n        /* \"#utility.yul\":10515:10544   */\n      swap1\n      pop\n        /* \"#utility.yul\":10477:10550   */\n      swap3\n      swap2\n      pop\n      pop\n      jump\t// out\n        /* \"#utility.yul\":10556:10725   */\n    tag_151:\n      0x00\n        /* \"#utility.yul\":10674:10680   */\n      dup3\n        /* \"#utility.yul\":10669:10672   */\n      dup3\n        /* \"#utility.yul\":10662:10681   */\n      mstore\n        /* \"#utility.yul\":10714:10718   */\n      0x20\n        /* \"#utility.yul\":10709:10712   */\n      dup3\n        /* \"#utility.yul\":10705:10719   */\n      add\n        /* \"#utility.yul\":10690:10719   */\n      swap1\n      pop\n        /* \"#utility.yul\":10652:10725   */\n      swap3\n      swap2\n      pop\n      pop\n      jump\t// out\n        /* \"#utility.yul\":10731:10827   */\n    tag_119:\n      0x00\n        /* \"#utility.yul\":10797:10821   */\n      tag_211\n        /* \"#utility.yul\":10815:10820   */\n      dup3\n        /* \"#utility.yul\":10797:10821   */\n      tag_212\n      jump\t// in\n    tag_211:\n        /* \"#utility.yul\":10786:10821   */\n      swap1\n      pop\n        /* \"#utility.yul\":10776:10827   */\n      swap2\n      swap1\n      pop\n      jump\t// out\n        /* \"#utility.yul\":10833:10922   */\n    tag_173:\n      0x00\n        /* \"#utility.yul\":10909:10915   */\n      0xffff\n        /* \"#utility.yul\":10902:10907   */\n      dup3\n        /* \"#utility.yul\":10898:10916   */\n      and\n        /* \"#utility.yul\":10887:10916   */\n      swap1\n      pop\n        /* \"#utility.yul\":10877:10922   */\n      swap2\n      swap1\n      pop\n      jump\t// out\n        /* \"#utility.yul\":10928:11054   */\n    tag_212:\n      0x00\n        /* \"#utility.yul\":11005:11047   */\n      0xffffffffffffffffffffffffffffffffffffffff\n        /* \"#utility.yul\":10998:11003   */\n      dup3\n        /* \"#utility.yul\":10994:11048   */\n      and\n        /* \"#utility.yul\":10983:11048   */\n      swap1\n      pop\n        /* \"#utility.yul\":10973:11054   */\n      swap2\n      swap1\n      pop\n      jump\t// out\n        /* \"#utility.yul\":11060:11137   */\n    tag_176:\n      0x00\n        /* \"#utility.yul\":11126:11131   */\n      dup2\n        /* \"#utility.yul\":11115:11131   */\n      swap1\n      pop\n        /* \"#utility.yul\":11105:11137   */\n      swap2\n      swap1\n      pop\n      jump\t// out\n        /* \"#utility.yul\":11143:11297   */\n    tag_96:\n        /* \"#utility.yul\":11227:11233   */\n      dup3\n        /* \"#utility.yul\":11222:11225   */\n      dup2\n        /* \"#utility.yul\":11217:11220   */\n      dup4\n        /* \"#utility.yul\":11204:11234   */\n      calldatacopy\n        /* \"#utility.yul\":11289:11290   */\n      0x00\n        /* \"#utility.yul\":11280:11286   */\n      dup4\n        /* \"#utility.yul\":11275:11278   */\n      dup4\n        /* \"#utility.yul\":11271:11287   */\n      add\n        /* \"#utility.yul\":11264:11291   */\n      mstore\n        /* \"#utility.yul\":11194:11297   */\n      pop\n      pop\n      pop\n      jump\t// out\n        /* \"#utility.yul\":11303:11610   */\n    tag_144:\n        /* \"#utility.yul\":11371:11372   */\n      0x00\n        /* \"#utility.yul\":11381:11494   */\n    tag_218:\n        /* \"#utility.yul\":11395:11401   */\n      dup4\n        /* \"#utility.yul\":11392:11393   */\n      dup2\n        /* \"#utility.yul\":11389:11402   */\n      lt\n        /* \"#utility.yul\":11381:11494   */\n      iszero\n      tag_220\n      jumpi\n        /* \"#utility.yul\":11480:11481   */\n      dup1\n        /* \"#utility.yul\":11475:11478   */\n      dup3\n        /* \"#utility.yul\":11471:11482   */\n      add\n        /* \"#utility.yul\":11465:11483   */\n      mload\n        /* \"#utility.yul\":11461:11462   */\n      dup2\n        /* \"#utility.yul\":11456:11459   */\n      dup5\n        /* \"#utility.yul\":11452:11463   */\n      add\n        /* \"#utility.yul\":11445:11484   */\n      mstore\n        /* \"#utility.yul\":11417:11419   */\n      0x20\n        /* \"#utility.yul\":11414:11415   */\n      dup2\n        /* \"#utility.yul\":11410:11420   */\n      add\n        /* \"#utility.yul\":11405:11420   */\n      swap1\n      pop\n        /* \"#utility.yul\":11381:11494   */\n      jump(tag_218)\n    tag_220:\n        /* \"#utility.yul\":11512:11518   */\n      dup4\n        /* \"#utility.yul\":11509:11510   */\n      dup2\n        /* \"#utility.yul\":11506:11519   */\n      gt\n        /* \"#utility.yul\":11503:11505   */\n      iszero\n      tag_221\n      jumpi\n        /* \"#utility.yul\":11592:11593   */\n      0x00\n        /* \"#utility.yul\":11583:11589   */\n      dup5\n        /* \"#utility.yul\":11578:11581   */\n      dup5\n        /* \"#utility.yul\":11574:11590   */\n      add\n        /* \"#utility.yul\":11567:11594   */\n      mstore\n        /* \"#utility.yul\":11503:11505   */\n    tag_221:\n        /* \"#utility.yul\":11352:11610   */\n      pop\n      pop\n      pop\n      pop\n      jump\t// out\n        /* \"#utility.yul\":11616:11787   */\n    tag_45:\n      0x00\n        /* \"#utility.yul\":11678:11702   */\n      tag_223\n        /* \"#utility.yul\":11696:11701   */\n      dup3\n        /* \"#utility.yul\":11678:11702   */\n      tag_176\n      jump\t// in\n    tag_223:\n        /* \"#utility.yul\":11669:11702   */\n      swap2\n      pop\n        /* \"#utility.yul\":11724:11728   */\n      0x00\n        /* \"#utility.yul\":11717:11722   */\n      dup3\n        /* \"#utility.yul\":11714:11729   */\n      eq\n        /* \"#utility.yul\":11711:11713   */\n      iszero\n      tag_224\n      jumpi\n        /* \"#utility.yul\":11732:11750   */\n      tag_225\n      tag_226\n      jump\t// in\n    tag_225:\n        /* \"#utility.yul\":11711:11713   */\n    tag_224:\n        /* \"#utility.yul\":11779:11780   */\n      0x01\n        /* \"#utility.yul\":11772:11777   */\n      dup3\n        /* \"#utility.yul\":11768:11781   */\n      sub\n        /* \"#utility.yul\":11761:11781   */\n      swap1\n      pop\n        /* \"#utility.yul\":11659:11787   */\n      swap2\n      swap1\n      pop\n      jump\t// out\n        /* \"#utility.yul\":11793:12113   */\n    tag_51:\n      0x00\n        /* \"#utility.yul\":11874:11875   */\n      0x02\n        /* \"#utility.yul\":11868:11872   */\n      dup3\n        /* \"#utility.yul\":11864:11876   */\n      div\n        /* \"#utility.yul\":11854:11876   */\n      swap1\n      pop\n        /* \"#utility.yul\":11921:11922   */\n      0x01\n        /* \"#utility.yul\":11915:11919   */\n      dup3\n        /* \"#utility.yul\":11911:11923   */\n      and\n        /* \"#utility.yul\":11942:11960   */\n      dup1\n        /* \"#utility.yul\":11932:11934   */\n      tag_228\n      jumpi\n        /* \"#utility.yul\":11998:12002   */\n      0x7f\n        /* \"#utility.yul\":11990:11996   */\n      dup3\n        /* \"#utility.yul\":11986:12003   */\n      and\n        /* \"#utility.yul\":11976:12003   */\n      swap2\n      pop\n        /* \"#utility.yul\":11932:11934   */\n    tag_228:\n        /* \"#utility.yul\":12060:12062   */\n      0x20\n        /* \"#utility.yul\":12052:12058   */\n      dup3\n        /* \"#utility.yul\":12049:12063   */\n      lt\n        /* \"#utility.yul\":12029:12047   */\n      dup2\n        /* \"#utility.yul\":12026:12064   */\n      eq\n        /* \"#utility.yul\":12023:12025   */\n      iszero\n      tag_229\n      jumpi\n        /* \"#utility.yul\":12079:12097   */\n      tag_230\n      tag_231\n      jump\t// in\n    tag_230:\n        /* \"#utility.yul\":12023:12025   */\n    tag_229:\n        /* \"#utility.yul\":11844:12113   */\n      pop\n      swap2\n      swap1\n      pop\n      jump\t// out\n        /* \"#utility.yul\":12119:12352   */\n    tag_62:\n      0x00\n        /* \"#utility.yul\":12181:12205   */\n      tag_233\n        /* \"#utility.yul\":12199:12204   */\n      dup3\n        /* \"#utility.yul\":12181:12205   */\n      tag_176\n      jump\t// in\n    tag_233:\n        /* \"#utility.yul\":12172:12205   */\n      swap2\n      pop\n        /* \"#utility.yul\":12227:12293   */\n      0xffffffffffffffffffffffffffffffffffffffffffffffffffffffffffffffff\n        /* \"#utility.yul\":12220:12225   */\n      dup3\n        /* \"#utility.yul\":12217:12294   */\n      eq\n        /* \"#utility.yul\":12214:12216   */\n      iszero\n      tag_234\n      jumpi\n        /* \"#utility.yul\":12297:12315   */\n      tag_235\n      tag_226\n      jump\t// in\n    tag_235:\n        /* \"#utility.yul\":12214:12216   */\n    tag_234:\n        /* \"#utility.yul\":12344:12345   */\n      0x01\n        /* \"#utility.yul\":12337:12342   */\n      dup3\n        /* \"#utility.yul\":12333:12346   */\n      add\n        /* \"#utility.yul\":12326:12346   */\n      swap1\n      pop\n        /* \"#utility.yul\":12162:12352   */\n      swap2\n      swap1\n      pop\n      jump\t// out\n        /* \"#utility.yul\":12358:12538   */\n    tag_226:\n        /* \"#utility.yul\":12406:12483   */\n      0x4e487b7100000000000000000000000000000000000000000000000000000000\n        /* \"#utility.yul\":12403:12404   */\n      0x00\n        /* \"#utility.yul\":12396:12484   */\n      mstore\n        /* \"#utility.yul\":12503:12507   */\n      0x11\n        /* \"#utility.yul\":12500:12501   */\n      0x04\n        /* \"#utility.yul\":12493:12508   */\n      mstore\n        /* \"#utility.yul\":12527:12531   */\n      0x24\n        /* \"#utility.yul\":12524:12525   */\n      0x00\n        /* \"#utility.yul\":12517:12532   */\n      revert\n        /* \"#utility.yul\":12544:12724   */\n    tag_231:\n        /* \"#utility.yul\":12592:12669   */\n      0x4e487b7100000000000000000000000000000000000000000000000000000000\n        /* \"#utility.yul\":12589:12590   */\n      0x00\n        /* \"#utility.yul\":12582:12670   */\n      mstore\n        /* \"#utility.yul\":12689:12693   */\n      0x22\n        /* \"#utility.yul\":12686:12687   */\n      0x04\n        /* \"#utility.yul\":12679:12694   */\n      mstore\n        /* \"#utility.yul\":12713:12717   */\n      0x24\n        /* \"#utility.yul\":12710:12711   */\n      0x00\n        /* \"#utility.yul\":12703:12718   */\n      revert\n        /* \"#utility.yul\":12730:12910   */\n    tag_199:\n        /* \"#utility.yul\":12778:12855   */\n      0x4e487b7100000000000000000000000000000000000000000000000000000000\n        /* \"#utility.yul\":12775:12776   */\n      0x00\n        /* \"#utility.yul\":12768:12856   */\n      mstore\n        /* \"#utility.yul\":12875:12879   */\n      0x41\n        /* \"#utility.yul\":12872:12873   */\n      0x04\n        /* \"#utility.yul\":12865:12880   */\n      mstore\n        /* \"#utility.yul\":12899:12903   */\n      0x24\n        /* \"#utility.yul\":12896:12897   */\n      0x00\n        /* \"#utility.yul\":12889:12904   */\n      revert\n        /* \"#utility.yul\":12916:13018   */\n    tag_146:\n      0x00\n        /* \"#utility.yul\":13008:13010   */\n      0x1f\n        /* \"#utility.yul\":13004:13011   */\n      not\n        /* \"#utility.yul\":12999:13001   */\n      0x1f\n        /* \"#utility.yul\":12992:12997   */\n      dup4\n        /* \"#utility.yul\":12988:13002   */\n      add\n        /* \"#utility.yul\":12984:13012   */\n      and\n        /* \"#utility.yul\":12974:13012   */\n      swap1\n      pop\n        /* \"#utility.yul\":12964:13018   */\n      swap2\n      swap1\n      pop\n      jump\t// out\n        /* \"#utility.yul\":13024:13146   */\n    tag_104:\n        /* \"#utility.yul\":13097:13121   */\n      tag_241\n        /* \"#utility.yul\":13115:13120   */\n      dup2\n        /* \"#utility.yul\":13097:13121   */\n      tag_176\n      jump\t// in\n    tag_241:\n        /* \"#utility.yul\":13090:13095   */\n      dup2\n        /* \"#utility.yul\":13087:13122   */\n      eq\n        /* \"#utility.yul\":13077:13079   */\n      tag_242\n      jumpi\n        /* \"#utility.yul\":13136:13137   */\n      0x00\n        /* \"#utility.yul\":13133:13134   */\n      dup1\n        /* \"#utility.yul\":13126:13138   */\n      revert\n        /* \"#utility.yul\":13077:13079   */\n    tag_242:\n        /* \"#utility.yul\":13067:13146   */\n      pop\n      jump\t// out\n\n    auxdata: 0xa264697066735822122072a33a34bc2b6f177e8ba941b24fa21e8a713566f58b0a09932f453902f5155364736f6c63430008000033\n}\n",
				"bytecode": {
					"linkReferences": {},
					"object": "60806040526101186000806101000a81548161ffff021916908361ffff16021790555034801561002e57600080fd5b50610e9f8061003e6000396000f3fe608060405234801561001057600080fd5b50600436106100625760003560e01c806321511a441461006757806353256135146100835780635ffc6ceb146100a15780636eb10797146100bd5780637c9cd2bc146100db578063e28350b7146100f7575b600080fd5b610081600480360381019061007c9190610820565b61012b565b005b61008b610264565b6040516100989190610ac5565b60405180910390f35b6100bb60048036038101906100b69190610820565b6103c9565b005b6100c5610474565b6040516100d29190610b47565b60405180910390f35b6100f560048036038101906100f091906107df565b610486565b005b610111600480360381019061010c9190610820565b6105d1565b604051610122959493929190610b62565b60405180910390f35b6001805490508110610172576040517f08c379a000000000000000000000000000000000000000000000000000000000815260040161016990610b27565b60405180910390fd5b6000600182815481106101ae577f4e487b7100000000000000000000000000000000000000000000000000000000600052603260045260246000fd5b90600052602060002090600502016004015411610200576040517f08c379a00000000000000000000000000000000000000000000000000000000081526004016101f790610b07565b60405180910390fd5b6001818154811061023a577f4e487b7100000000000000000000000000000000000000000000000000000000600052603260045260246000fd5b9060005260206000209060050201600401600081548092919061025c90610d0f565b919050555050565b60606001805480602002602001604051908101604052809291908181526020016000905b828210156103c057838290600052602060002090600502016040518060a0016040529081600082015481526020016001820160009054906101000a900473ffffffffffffffffffffffffffffffffffffffff1673ffffffffffffffffffffffffffffffffffffffff1673ffffffffffffffffffffffffffffffffffffffff16815260200160028201805461031b90610d39565b80601f016020809104026020016040519081016040528092919081815260200182805461034790610d39565b80156103945780601f1061036957610100808354040283529160200191610394565b820191906000526020600020905b81548152906001019060200180831161037757829003601f168201915b505050505081526020016003820154815260200160048201548152505081526020019060010190610288565b50505050905090565b6001805490508110610410576040517f08c379a000000000000000000000000000000000000000000000000000000000815260040161040790610b27565b60405180910390fd5b6001818154811061044a577f4e487b7100000000000000000000000000000000000000000000000000000000600052603260045260246000fd5b9060005260206000209060050201600401600081548092919061046c90610d6b565b919050555050565b60008054906101000a900461ffff1681565b60008054906101000a900461ffff1661ffff16815111156104dc576040517f08c379a00000000000000000000000000000000000000000000000000000000081526004016104d390610ae7565b60405180910390fd5b60016040518060a0016040528060018054905081526020013373ffffffffffffffffffffffffffffffffffffffff168152602001838152602001428152602001600081525090806001815401808255809150506001900390600052602060002090600502016000909190919091506000820151816000015560208201518160010160006101000a81548173ffffffffffffffffffffffffffffffffffffffff021916908373ffffffffffffffffffffffffffffffffffffffff16021790555060408201518160020190805190602001906105b79291906106bf565b506060820151816003015560808201518160040155505050565b600181815481106105e157600080fd5b90600052602060002090600502016000915090508060000154908060010160009054906101000a900473ffffffffffffffffffffffffffffffffffffffff169080600201805461063090610d39565b80601f016020809104026020016040519081016040528092919081815260200182805461065c90610d39565b80156106a95780601f1061067e576101008083540402835291602001916106a9565b820191906000526020600020905b81548152906001019060200180831161068c57829003601f168201915b5050505050908060030154908060040154905085565b8280546106cb90610d39565b90600052602060002090601f0160209004810192826106ed5760008555610734565b82601f1061070657805160ff1916838001178555610734565b82800160010185558215610734579182015b82811115610733578251825591602001919060010190610718565b5b5090506107419190610745565b5090565b5b8082111561075e576000816000905550600101610746565b5090565b600061077561077084610bed565b610bbc565b90508281526020810184848401111561078d57600080fd5b610798848285610ccd565b509392505050565b600082601f8301126107b157600080fd5b81356107c1848260208601610762565b91505092915050565b6000813590506107d981610e52565b92915050565b6000602082840312156107f157600080fd5b600082013567ffffffffffffffff81111561080b57600080fd5b610817848285016107a0565b91505092915050565b60006020828403121561083257600080fd5b6000610840848285016107ca565b91505092915050565b60006108558383610a22565b905092915050565b61086681610c83565b82525050565b61087581610c83565b82525050565b600061088682610c2d565b6108908185610c50565b9350836020820285016108a285610c1d565b8060005b858110156108de57848403895281516108bf8582610849565b94506108ca83610c43565b925060208a019950506001810190506108a6565b50829750879550505050505092915050565b60006108fb82610c38565b6109058185610c61565b9350610915818560208601610cdc565b61091e81610e41565b840191505092915050565b600061093482610c38565b61093e8185610c72565b935061094e818560208601610cdc565b61095781610e41565b840191505092915050565b600061096f600f83610c72565b91507f547765657420746f6f206c6f6e672100000000000000000000000000000000006000830152602082019050919050565b60006109af601283610c72565b91507f4e6f206c696b657320746f2072656d6f766500000000000000000000000000006000830152602082019050919050565b60006109ef600f83610c72565b91507f5477656574206e6f7420666f756e6400000000000000000000000000000000006000830152602082019050919050565b600060a083016000830151610a3a6000860182610aa7565b506020830151610a4d602086018261085d565b5060408301518482036040860152610a6582826108f0565b9150506060830151610a7a6060860182610aa7565b506080830151610a8d6080860182610aa7565b508091505092915050565b610aa181610c95565b82525050565b610ab081610cc3565b82525050565b610abf81610cc3565b82525050565b60006020820190508181036000830152610adf818461087b565b905092915050565b60006020820190508181036000830152610b0081610962565b9050919050565b60006020820190508181036000830152610b20816109a2565b9050919050565b60006020820190508181036000830152610b40816109e2565b9050919050565b6000602082019050610b5c6000830184610a98565b92915050565b600060a082019050610b776000830188610ab6565b610b84602083018761086c565b8181036040830152610b968186610929565b9050610ba56060830185610ab6565b610bb26080830184610ab6565b9695505050505050565b6000604051905081810181811067ffffffffffffffff82111715610be357610be2610e12565b5b8060405250919050565b600067ffffffffffffffff821115610c0857610c07610e12565b5b601f19601f8301169050602081019050919050565b6000819050602082019050919050565b600081519050919050565b600081519050919050565b6000602082019050919050565b600082825260208201905092915050565b600082825260208201905092915050565b600082825260208201905092915050565b6000610c8e82610ca3565b9050919050565b600061ffff82169050919050565b600073ffffffffffffffffffffffffffffffffffffffff82169050919050565b6000819050919050565b82818337600083830152505050565b60005b83811015610cfa578082015181840152602081019050610cdf565b83811115610d09576000848401525b50505050565b6000610d1a82610cc3565b91506000821415610d2e57610d2d610db4565b5b600182039050919050565b60006002820490506001821680610d5157607f821691505b60208210811415610d6557610d64610de3565b5b50919050565b6000610d7682610cc3565b91507fffffffffffffffffffffffffffffffffffffffffffffffffffffffffffffffff821415610da957610da8610db4565b5b600182019050919050565b7f4e487b7100000000000000000000000000000000000000000000000000000000600052601160045260246000fd5b7f4e487b7100000000000000000000000000000000000000000000000000000000600052602260045260246000fd5b7f4e487b7100000000000000000000000000000000000000000000000000000000600052604160045260246000fd5b6000601f19601f8301169050919050565b610e5b81610cc3565b8114610e6657600080fd5b5056fea264697066735822122072a33a34bc2b6f177e8ba941b24fa21e8a713566f58b0a09932f453902f5155364736f6c63430008000033",
					"opcodes": "PUSH1 0x80 PUSH1 0x40 MSTORE PUSH2 0x118 PUSH1 0x0 DUP1 PUSH2 0x100 EXP DUP2 SLOAD DUP2 PUSH2 0xFFFF MUL NOT AND SWAP1 DUP4 PUSH2 0xFFFF AND MUL OR SWAP1 SSTORE POP CALLVALUE DUP1 ISZERO PUSH2 0x2E JUMPI PUSH1 0x0 DUP1 REVERT JUMPDEST POP PUSH2 0xE9F DUP1 PUSH2 0x3E PUSH1 0x0 CODECOPY PUSH1 0x0 RETURN INVALID PUSH1 0x80 PUSH1 0x40 MSTORE CALLVALUE DUP1 ISZERO PUSH2 0x10 JUMPI PUSH1 0x0 DUP1 REVERT JUMPDEST POP PUSH1 0x4 CALLDATASIZE LT PUSH2 0x62 JUMPI PUSH1 0x0 CALLDATALOAD PUSH1 0xE0 SHR DUP1 PUSH4 0x21511A44 EQ PUSH2 0x67 JUMPI DUP1 PUSH4 0x53256135 EQ PUSH2 0x83 JUMPI DUP1 PUSH4 0x5FFC6CEB EQ PUSH2 0xA1 JUMPI DUP1 PUSH4 0x6EB10797 EQ PUSH2 0xBD JUMPI DUP1 PUSH4 0x7C9CD2BC EQ PUSH2 0xDB JUMPI DUP1 PUSH4 0xE28350B7 EQ PUSH2 0xF7 JUMPI JUMPDEST PUSH1 0x0 DUP1 REVERT JUMPDEST PUSH2 0x81 PUSH1 0x4 DUP1 CALLDATASIZE SUB DUP2 ADD SWAP1 PUSH2 0x7C SWAP2 SWAP1 PUSH2 0x820 JUMP JUMPDEST PUSH2 0x12B JUMP JUMPDEST STOP JUMPDEST PUSH2 0x8B PUSH2 0x264 JUMP JUMPDEST PUSH1 0x40 MLOAD PUSH2 0x98 SWAP2 SWAP1 PUSH2 0xAC5 JUMP JUMPDEST PUSH1 0x40 MLOAD DUP1 SWAP2 SUB SWAP1 RETURN JUMPDEST PUSH2 0xBB PUSH1 0x4 DUP1 CALLDATASIZE SUB DUP2 ADD SWAP1 PUSH2 0xB6 SWAP2 SWAP1 PUSH2 0x820 JUMP JUMPDEST PUSH2 0x3C9 JUMP JUMPDEST STOP JUMPDEST PUSH2 0xC5 PUSH2 0x474 JUMP JUMPDEST PUSH1 0x40 MLOAD PUSH2 0xD2 SWAP2 SWAP1 PUSH2 0xB47 JUMP JUMPDEST PUSH1 0x40 MLOAD DUP1 SWAP2 SUB SWAP1 RETURN JUMPDEST PUSH2 0xF5 PUSH1 0x4 DUP1 CALLDATASIZE SUB DUP2 ADD SWAP1 PUSH2 0xF0 SWAP2 SWAP1 PUSH2 0x7DF JUMP JUMPDEST PUSH2 0x486 JUMP JUMPDEST STOP JUMPDEST PUSH2 0x111 PUSH1 0x4 DUP1 CALLDATASIZE SUB DUP2 ADD SWAP1 PUSH2 0x10C SWAP2 SWAP1 PUSH2 0x820 JUMP JUMPDEST PUSH2 0x5D1 JUMP JUMPDEST PUSH1 0x40 MLOAD PUSH2 0x122 SWAP6 SWAP5 SWAP4 SWAP3 SWAP2 SWAP1 PUSH2 0xB62 JUMP JUMPDEST PUSH1 0x40 MLOAD DUP1 SWAP2 SUB SWAP1 RETURN JUMPDEST PUSH1 0x1 DUP1 SLOAD SWAP1 POP DUP2 LT PUSH2 0x172 JUMPI PUSH1 0x40 MLOAD PUSH32 0x8C379A000000000000000000000000000000000000000000000000000000000 DUP2 MSTORE PUSH1 0x4 ADD PUSH2 0x169 SWAP1 PUSH2 0xB27 JUMP JUMPDEST PUSH1 0x40 MLOAD DUP1 SWAP2 SUB SWAP1 REVERT JUMPDEST PUSH1 0x0 PUSH1 0x1 DUP3 DUP2 SLOAD DUP2 LT PUSH2 0x1AE JUMPI PUSH32 0x4E487B7100000000000000000000000000000000000000000000000000000000 PUSH1 0x0 MSTORE PUSH1 0x32 PUSH1 0x4 MSTORE PUSH1 0x24 PUSH1 0x0 REVERT JUMPDEST SWAP1 PUSH1 0x0 MSTORE PUSH1 0x20 PUSH1 0x0 KECCAK256 SWAP1 PUSH1 0x5 MUL ADD PUSH1 0x4 ADD SLOAD GT PUSH2 0x200 JUMPI PUSH1 0x40 MLOAD PUSH32 0x8C379A000000000000000000000000000000000000000000000000000000000 DUP2 MSTORE PUSH1 0x4 ADD PUSH2 0x1F7 SWAP1 PUSH2 0xB07 JUMP JUMPDEST PUSH1 0x40 MLOAD DUP1 SWAP2 SUB SWAP1 REVERT JUMPDEST PUSH1 0x1 DUP2 DUP2 SLOAD DUP2 LT PUSH2 0x23A JUMPI PUSH32 0x4E487B7100000000000000000000000000000000000000000000000000000000 PUSH1 0x0 MSTORE PUSH1 0x32 PUSH1 0x4 MSTORE PUSH1 0x24 PUSH1 0x0 REVERT JUMPDEST SWAP1 PUSH1 0x0 MSTORE PUSH1 0x20 PUSH1 0x0 KECCAK256 SWAP1 PUSH1 0x5 MUL ADD PUSH1 0x4 ADD PUSH1 0x0 DUP2 SLOAD DUP1 SWAP3 SWAP2 SWAP1 PUSH2 0x25C SWAP1 PUSH2 0xD0F JUMP JUMPDEST SWAP2 SWAP1 POP SSTORE POP POP JUMP JUMPDEST PUSH1 0x60 PUSH1 0x1 DUP1 SLOAD DUP1 PUSH1 0x20 MUL PUSH1 0x20 ADD PUSH1 0x40 MLOAD SWAP1 DUP2 ADD PUSH1 0x40 MSTORE DUP1 SWAP3 SWAP2 SWAP1 DUP2 DUP2 MSTORE PUSH1 0x20 ADD PUSH1 0x0 SWAP1 JUMPDEST DUP3 DUP3 LT ISZERO PUSH2 0x3C0 JUMPI DUP4 DUP3 SWAP1 PUSH1 0x0 MSTORE PUSH1 0x20 PUSH1 0x0 KECCAK256 SWAP1 PUSH1 0x5 MUL ADD PUSH1 0x40 MLOAD DUP1 PUSH1 0xA0 ADD PUSH1 0x40 MSTORE SWAP1 DUP2 PUSH1 0x0 DUP3 ADD SLOAD DUP2 MSTORE PUSH1 0x20 ADD PUSH1 0x1 DUP3 ADD PUSH1 0x0 SWAP1 SLOAD SWAP1 PUSH2 0x100 EXP SWAP1 DIV PUSH20 0xFFFFFFFFFFFFFFFFFFFFFFFFFFFFFFFFFFFFFFFF AND PUSH20 0xFFFFFFFFFFFFFFFFFFFFFFFFFFFFFFFFFFFFFFFF AND PUSH20 0xFFFFFFFFFFFFFFFFFFFFFFFFFFFFFFFFFFFFFFFF AND DUP2 MSTORE PUSH1 0x20 ADD PUSH1 0x2 DUP3 ADD DUP1 SLOAD PUSH2 0x31B SWAP1 PUSH2 0xD39 JUMP JUMPDEST DUP1 PUSH1 0x1F ADD PUSH1 0x20 DUP1 SWAP2 DIV MUL PUSH1 0x20 ADD PUSH1 0x40 MLOAD SWAP1 DUP2 ADD PUSH1 0x40 MSTORE DUP1 SWAP3 SWAP2 SWAP1 DUP2 DUP2 MSTORE PUSH1 0x20 ADD DUP3 DUP1 SLOAD PUSH2 0x347 SWAP1 PUSH2 0xD39 JUMP JUMPDEST DUP1 ISZERO PUSH2 0x394 JUMPI DUP1 PUSH1 0x1F LT PUSH2 0x369 JUMPI PUSH2 0x100 DUP1 DUP4 SLOAD DIV MUL DUP4 MSTORE SWAP2 PUSH1 0x20 ADD SWAP2 PUSH2 0x394 JUMP JUMPDEST DUP3 ADD SWAP2 SWAP1 PUSH1 0x0 MSTORE PUSH1 0x20 PUSH1 0x0 KECCAK256 SWAP1 JUMPDEST DUP2 SLOAD DUP2 MSTORE SWAP1 PUSH1 0x1 ADD SWAP1 PUSH1 0x20 ADD DUP1 DUP4 GT PUSH2 0x377 JUMPI DUP3 SWAP1 SUB PUSH1 0x1F AND DUP3 ADD SWAP2 JUMPDEST POP POP POP POP POP DUP2 MSTORE PUSH1 0x20 ADD PUSH1 0x3 DUP3 ADD SLOAD DUP2 MSTORE PUSH1 0x20 ADD PUSH1 0x4 DUP3 ADD SLOAD DUP2 MSTORE POP POP DUP2 MSTORE PUSH1 0x20 ADD SWAP1 PUSH1 0x1 ADD SWAP1 PUSH2 0x288 JUMP JUMPDEST POP POP POP POP SWAP1 POP SWAP1 JUMP JUMPDEST PUSH1 0x1 DUP1 SLOAD SWAP1 POP DUP2 LT PUSH2 0x410 JUMPI PUSH1 0x40 MLOAD PUSH32 0x8C379A000000000000000000000000000000000000000000000000000000000 DUP2 MSTORE PUSH1 0x4 ADD PUSH2 0x407 SWAP1 PUSH2 0xB27 JUMP JUMPDEST PUSH1 0x40 MLOAD DUP1 SWAP2 SUB SWAP1 REVERT JUMPDEST PUSH1 0x1 DUP2 DUP2 SLOAD DUP2 LT PUSH2 0x44A JUMPI PUSH32 0x4E487B7100000000000000000000000000000000000000000000000000000000 PUSH1 0x0 MSTORE PUSH1 0x32 PUSH1 0x4 MSTORE PUSH1 0x24 PUSH1 0x0 REVERT JUMPDEST SWAP1 PUSH1 0x0 MSTORE PUSH1 0x20 PUSH1 0x0 KECCAK256 SWAP1 PUSH1 0x5 MUL ADD PUSH1 0x4 ADD PUSH1 0x0 DUP2 SLOAD DUP1 SWAP3 SWAP2 SWAP1 PUSH2 0x46C SWAP1 PUSH2 0xD6B JUMP JUMPDEST SWAP2 SWAP1 POP SSTORE POP POP JUMP JUMPDEST PUSH1 0x0 DUP1 SLOAD SWAP1 PUSH2 0x100 EXP SWAP1 DIV PUSH2 0xFFFF AND DUP2 JUMP JUMPDEST PUSH1 0x0 DUP1 SLOAD SWAP1 PUSH2 0x100 EXP SWAP1 DIV PUSH2 0xFFFF AND PUSH2 0xFFFF AND DUP2 MLOAD GT ISZERO PUSH2 0x4DC JUMPI PUSH1 0x40 MLOAD PUSH32 0x8C379A000000000000000000000000000000000000000000000000000000000 DUP2 MSTORE PUSH1 0x4 ADD PUSH2 0x4D3 SWAP1 PUSH2 0xAE7 JUMP JUMPDEST PUSH1 0x40 MLOAD DUP1 SWAP2 SUB SWAP1 REVERT JUMPDEST PUSH1 0x1 PUSH1 0x40 MLOAD DUP1 PUSH1 0xA0 ADD PUSH1 0x40 MSTORE DUP1 PUSH1 0x1 DUP1 SLOAD SWAP1 POP DUP2 MSTORE PUSH1 0x20 ADD CALLER PUSH20 0xFFFFFFFFFFFFFFFFFFFFFFFFFFFFFFFFFFFFFFFF AND DUP2 MSTORE PUSH1 0x20 ADD DUP4 DUP2 MSTORE PUSH1 0x20 ADD TIMESTAMP DUP2 MSTORE PUSH1 0x20 ADD PUSH1 0x0 DUP2 MSTORE POP SWAP1 DUP1 PUSH1 0x1 DUP2 SLOAD ADD DUP1 DUP3 SSTORE DUP1 SWAP2 POP POP PUSH1 0x1 SWAP1 SUB SWAP1 PUSH1 0x0 MSTORE PUSH1 0x20 PUSH1 0x0 KECCAK256 SWAP1 PUSH1 0x5 MUL ADD PUSH1 0x0 SWAP1 SWAP2 SWAP1 SWAP2 SWAP1 SWAP2 POP PUSH1 0x0 DUP3 ADD MLOAD DUP2 PUSH1 0x0 ADD SSTORE PUSH1 0x20 DUP3 ADD MLOAD DUP2 PUSH1 0x1 ADD PUSH1 0x0 PUSH2 0x100 EXP DUP2 SLOAD DUP2 PUSH20 0xFFFFFFFFFFFFFFFFFFFFFFFFFFFFFFFFFFFFFFFF MUL NOT AND SWAP1 DUP4 PUSH20 0xFFFFFFFFFFFFFFFFFFFFFFFFFFFFFFFFFFFFFFFF AND MUL OR SWAP1 SSTORE POP PUSH1 0x40 DUP3 ADD MLOAD DUP2 PUSH1 0x2 ADD SWAP1 DUP1 MLOAD SWAP1 PUSH1 0x20 ADD SWAP1 PUSH2 0x5B7 SWAP3 SWAP2 SWAP1 PUSH2 0x6BF JUMP JUMPDEST POP PUSH1 0x60 DUP3 ADD MLOAD DUP2 PUSH1 0x3 ADD SSTORE PUSH1 0x80 DUP3 ADD MLOAD DUP2 PUSH1 0x4 ADD SSTORE POP POP POP JUMP JUMPDEST PUSH1 0x1 DUP2 DUP2 SLOAD DUP2 LT PUSH2 0x5E1 JUMPI PUSH1 0x0 DUP1 REVERT JUMPDEST SWAP1 PUSH1 0x0 MSTORE PUSH1 0x20 PUSH1 0x0 KECCAK256 SWAP1 PUSH1 0x5 MUL ADD PUSH1 0x0 SWAP2 POP SWAP1 POP DUP1 PUSH1 0x0 ADD SLOAD SWAP1 DUP1 PUSH1 0x1 ADD PUSH1 0x0 SWAP1 SLOAD SWAP1 PUSH2 0x100 EXP SWAP1 DIV PUSH20 0xFFFFFFFFFFFFFFFFFFFFFFFFFFFFFFFFFFFFFFFF AND SWAP1 DUP1 PUSH1 0x2 ADD DUP1 SLOAD PUSH2 0x630 SWAP1 PUSH2 0xD39 JUMP JUMPDEST DUP1 PUSH1 0x1F ADD PUSH1 0x20 DUP1 SWAP2 DIV MUL PUSH1 0x20 ADD PUSH1 0x40 MLOAD SWAP1 DUP2 ADD PUSH1 0x40 MSTORE DUP1 SWAP3 SWAP2 SWAP1 DUP2 DUP2 MSTORE PUSH1 0x20 ADD DUP3 DUP1 SLOAD PUSH2 0x65C SWAP1 PUSH2 0xD39 JUMP JUMPDEST DUP1 ISZERO PUSH2 0x6A9 JUMPI DUP1 PUSH1 0x1F LT PUSH2 0x67E JUMPI PUSH2 0x100 DUP1 DUP4 SLOAD DIV MUL DUP4 MSTORE SWAP2 PUSH1 0x20 ADD SWAP2 PUSH2 0x6A9 JUMP JUMPDEST DUP3 ADD SWAP2 SWAP1 PUSH1 0x0 MSTORE PUSH1 0x20 PUSH1 0x0 KECCAK256 SWAP1 JUMPDEST DUP2 SLOAD DUP2 MSTORE SWAP1 PUSH1 0x1 ADD SWAP1 PUSH1 0x20 ADD DUP1 DUP4 GT PUSH2 0x68C JUMPI DUP3 SWAP1 SUB PUSH1 0x1F AND DUP3 ADD SWAP2 JUMPDEST POP POP POP POP POP SWAP1 DUP1 PUSH1 0x3 ADD SLOAD SWAP1 DUP1 PUSH1 0x4 ADD SLOAD SWAP1 POP DUP6 JUMP JUMPDEST DUP3 DUP1 SLOAD PUSH2 0x6CB SWAP1 PUSH2 0xD39 JUMP JUMPDEST SWAP1 PUSH1 0x0 MSTORE PUSH1 0x20 PUSH1 0x0 KECCAK256 SWAP1 PUSH1 0x1F ADD PUSH1 0x20 SWAP1 DIV DUP2 ADD SWAP3 DUP3 PUSH2 0x6ED JUMPI PUSH1 0x0 DUP6 SSTORE PUSH2 0x734 JUMP JUMPDEST DUP3 PUSH1 0x1F LT PUSH2 0x706 JUMPI DUP1 MLOAD PUSH1 0xFF NOT AND DUP4 DUP1 ADD OR DUP6 SSTORE PUSH2 0x734 JUMP JUMPDEST DUP3 DUP1 ADD PUSH1 0x1 ADD DUP6 SSTORE DUP3 ISZERO PUSH2 0x734 JUMPI SWAP2 DUP3 ADD JUMPDEST DUP3 DUP2 GT ISZERO PUSH2 0x733 JUMPI DUP3 MLOAD DUP3 SSTORE SWAP2 PUSH1 0x20 ADD SWAP2 SWAP1 PUSH1 0x1 ADD SWAP1 PUSH2 0x718 JUMP JUMPDEST JUMPDEST POP SWAP1 POP PUSH2 0x741 SWAP2 SWAP1 PUSH2 0x745 JUMP JUMPDEST POP SWAP1 JUMP JUMPDEST JUMPDEST DUP1 DUP3 GT ISZERO PUSH2 0x75E JUMPI PUSH1 0x0 DUP2 PUSH1 0x0 SWAP1 SSTORE POP PUSH1 0x1 ADD PUSH2 0x746 JUMP JUMPDEST POP SWAP1 JUMP JUMPDEST PUSH1 0x0 PUSH2 0x775 PUSH2 0x770 DUP5 PUSH2 0xBED JUMP JUMPDEST PUSH2 0xBBC JUMP JUMPDEST SWAP1 POP DUP3 DUP2 MSTORE PUSH1 0x20 DUP2 ADD DUP5 DUP5 DUP5 ADD GT ISZERO PUSH2 0x78D JUMPI PUSH1 0x0 DUP1 REVERT JUMPDEST PUSH2 0x798 DUP5 DUP3 DUP6 PUSH2 0xCCD JUMP JUMPDEST POP SWAP4 SWAP3 POP POP POP JUMP JUMPDEST PUSH1 0x0 DUP3 PUSH1 0x1F DUP4 ADD SLT PUSH2 0x7B1 JUMPI PUSH1 0x0 DUP1 REVERT JUMPDEST DUP2 CALLDATALOAD PUSH2 0x7C1 DUP5 DUP3 PUSH1 0x20 DUP7 ADD PUSH2 0x762 JUMP JUMPDEST SWAP2 POP POP SWAP3 SWAP2 POP POP JUMP JUMPDEST PUSH1 0x0 DUP2 CALLDATALOAD SWAP1 POP PUSH2 0x7D9 DUP2 PUSH2 0xE52 JUMP JUMPDEST SWAP3 SWAP2 POP POP JUMP JUMPDEST PUSH1 0x0 PUSH1 0x20 DUP3 DUP5 SUB SLT ISZERO PUSH2 0x7F1 JUMPI PUSH1 0x0 DUP1 REVERT JUMPDEST PUSH1 0x0 DUP3 ADD CALLDATALOAD PUSH8 0xFFFFFFFFFFFFFFFF DUP2 GT ISZERO PUSH2 0x80B JUMPI PUSH1 0x0 DUP1 REVERT JUMPDEST PUSH2 0x817 DUP5 DUP3 DUP6 ADD PUSH2 0x7A0 JUMP JUMPDEST SWAP2 POP POP SWAP3 SWAP2 POP POP JUMP JUMPDEST PUSH1 0x0 PUSH1 0x20 DUP3 DUP5 SUB SLT ISZERO PUSH2 0x832 JUMPI PUSH1 0x0 DUP1 REVERT JUMPDEST PUSH1 0x0 PUSH2 0x840 DUP5 DUP3 DUP6 ADD PUSH2 0x7CA JUMP JUMPDEST SWAP2 POP POP SWAP3 SWAP2 POP POP JUMP JUMPDEST PUSH1 0x0 PUSH2 0x855 DUP4 DUP4 PUSH2 0xA22 JUMP JUMPDEST SWAP1 POP SWAP3 SWAP2 POP POP JUMP JUMPDEST PUSH2 0x866 DUP2 PUSH2 0xC83 JUMP JUMPDEST DUP3 MSTORE POP POP JUMP JUMPDEST PUSH2 0x875 DUP2 PUSH2 0xC83 JUMP JUMPDEST DUP3 MSTORE POP POP JUMP JUMPDEST PUSH1 0x0 PUSH2 0x886 DUP3 PUSH2 0xC2D JUMP JUMPDEST PUSH2 0x890 DUP2 DUP6 PUSH2 0xC50 JUMP JUMPDEST SWAP4 POP DUP4 PUSH1 0x20 DUP3 MUL DUP6 ADD PUSH2 0x8A2 DUP6 PUSH2 0xC1D JUMP JUMPDEST DUP1 PUSH1 0x0 JUMPDEST DUP6 DUP2 LT ISZERO PUSH2 0x8DE JUMPI DUP5 DUP5 SUB DUP10 MSTORE DUP2 MLOAD PUSH2 0x8BF DUP6 DUP3 PUSH2 0x849 JUMP JUMPDEST SWAP5 POP PUSH2 0x8CA DUP4 PUSH2 0xC43 JUMP JUMPDEST SWAP3 POP PUSH1 0x20 DUP11 ADD SWAP10 POP POP PUSH1 0x1 DUP2 ADD SWAP1 POP PUSH2 0x8A6 JUMP JUMPDEST POP DUP3 SWAP8 POP DUP8 SWAP6 POP POP POP POP POP POP SWAP3 SWAP2 POP POP JUMP JUMPDEST PUSH1 0x0 PUSH2 0x8FB DUP3 PUSH2 0xC38 JUMP JUMPDEST PUSH2 0x905 DUP2 DUP6 PUSH2 0xC61 JUMP JUMPDEST SWAP4 POP PUSH2 0x915 DUP2 DUP6 PUSH1 0x20 DUP7 ADD PUSH2 0xCDC JUMP JUMPDEST PUSH2 0x91E DUP2 PUSH2 0xE41 JUMP JUMPDEST DUP5 ADD SWAP2 POP POP SWAP3 SWAP2 POP POP JUMP JUMPDEST PUSH1 0x0 PUSH2 0x934 DUP3 PUSH2 0xC38 JUMP JUMPDEST PUSH2 0x93E DUP2 DUP6 PUSH2 0xC72 JUMP JUMPDEST SWAP4 POP PUSH2 0x94E DUP2 DUP6 PUSH1 0x20 DUP7 ADD PUSH2 0xCDC JUMP JUMPDEST PUSH2 0x957 DUP2 PUSH2 0xE41 JUMP JUMPDEST DUP5 ADD SWAP2 POP POP SWAP3 SWAP2 POP POP JUMP JUMPDEST PUSH1 0x0 PUSH2 0x96F PUSH1 0xF DUP4 PUSH2 0xC72 JUMP JUMPDEST SWAP2 POP PUSH32 0x547765657420746F6F206C6F6E67210000000000000000000000000000000000 PUSH1 0x0 DUP4 ADD MSTORE PUSH1 0x20 DUP3 ADD SWAP1 POP SWAP2 SWAP1 POP JUMP JUMPDEST PUSH1 0x0 PUSH2 0x9AF PUSH1 0x12 DUP4 PUSH2 0xC72 JUMP JUMPDEST SWAP2 POP PUSH32 0x4E6F206C696B657320746F2072656D6F76650000000000000000000000000000 PUSH1 0x0 DUP4 ADD MSTORE PUSH1 0x20 DUP3 ADD SWAP1 POP SWAP2 SWAP1 POP JUMP JUMPDEST PUSH1 0x0 PUSH2 0x9EF PUSH1 0xF DUP4 PUSH2 0xC72 JUMP JUMPDEST SWAP2 POP PUSH32 0x5477656574206E6F7420666F756E640000000000000000000000000000000000 PUSH1 0x0 DUP4 ADD MSTORE PUSH1 0x20 DUP3 ADD SWAP1 POP SWAP2 SWAP1 POP JUMP JUMPDEST PUSH1 0x0 PUSH1 0xA0 DUP4 ADD PUSH1 0x0 DUP4 ADD MLOAD PUSH2 0xA3A PUSH1 0x0 DUP7 ADD DUP3 PUSH2 0xAA7 JUMP JUMPDEST POP PUSH1 0x20 DUP4 ADD MLOAD PUSH2 0xA4D PUSH1 0x20 DUP7 ADD DUP3 PUSH2 0x85D JUMP JUMPDEST POP PUSH1 0x40 DUP4 ADD MLOAD DUP5 DUP3 SUB PUSH1 0x40 DUP7 ADD MSTORE PUSH2 0xA65 DUP3 DUP3 PUSH2 0x8F0 JUMP JUMPDEST SWAP2 POP POP PUSH1 0x60 DUP4 ADD MLOAD PUSH2 0xA7A PUSH1 0x60 DUP7 ADD DUP3 PUSH2 0xAA7 JUMP JUMPDEST POP PUSH1 0x80 DUP4 ADD MLOAD PUSH2 0xA8D PUSH1 0x80 DUP7 ADD DUP3 PUSH2 0xAA7 JUMP JUMPDEST POP DUP1 SWAP2 POP POP SWAP3 SWAP2 POP POP JUMP JUMPDEST PUSH2 0xAA1 DUP2 PUSH2 0xC95 JUMP JUMPDEST DUP3 MSTORE POP POP JUMP JUMPDEST PUSH2 0xAB0 DUP2 PUSH2 0xCC3 JUMP JUMPDEST DUP3 MSTORE POP POP JUMP JUMPDEST PUSH2 0xABF DUP2 PUSH2 0xCC3 JUMP JUMPDEST DUP3 MSTORE POP POP JUMP JUMPDEST PUSH1 0x0 PUSH1 0x20 DUP3 ADD SWAP1 POP DUP2 DUP2 SUB PUSH1 0x0 DUP4 ADD MSTORE PUSH2 0xADF DUP2 DUP5 PUSH2 0x87B JUMP JUMPDEST SWAP1 POP SWAP3 SWAP2 POP POP JUMP JUMPDEST PUSH1 0x0 PUSH1 0x20 DUP3 ADD SWAP1 POP DUP2 DUP2 SUB PUSH1 0x0 DUP4 ADD MSTORE PUSH2 0xB00 DUP2 PUSH2 0x962 JUMP JUMPDEST SWAP1 POP SWAP2 SWAP1 POP JUMP JUMPDEST PUSH1 0x0 PUSH1 0x20 DUP3 ADD SWAP1 POP DUP2 DUP2 SUB PUSH1 0x0 DUP4 ADD MSTORE PUSH2 0xB20 DUP2 PUSH2 0x9A2 JUMP JUMPDEST SWAP1 POP SWAP2 SWAP1 POP JUMP JUMPDEST PUSH1 0x0 PUSH1 0x20 DUP3 ADD SWAP1 POP DUP2 DUP2 SUB PUSH1 0x0 DUP4 ADD MSTORE PUSH2 0xB40 DUP2 PUSH2 0x9E2 JUMP JUMPDEST SWAP1 POP SWAP2 SWAP1 POP JUMP JUMPDEST PUSH1 0x0 PUSH1 0x20 DUP3 ADD SWAP1 POP PUSH2 0xB5C PUSH1 0x0 DUP4 ADD DUP5 PUSH2 0xA98 JUMP JUMPDEST SWAP3 SWAP2 POP POP JUMP JUMPDEST PUSH1 0x0 PUSH1 0xA0 DUP3 ADD SWAP1 POP PUSH2 0xB77 PUSH1 0x0 DUP4 ADD DUP9 PUSH2 0xAB6 JUMP JUMPDEST PUSH2 0xB84 PUSH1 0x20 DUP4 ADD DUP8 PUSH2 0x86C JUMP JUMPDEST DUP2 DUP2 SUB PUSH1 0x40 DUP4 ADD MSTORE PUSH2 0xB96 DUP2 DUP7 PUSH2 0x929 JUMP JUMPDEST SWAP1 POP PUSH2 0xBA5 PUSH1 0x60 DUP4 ADD DUP6 PUSH2 0xAB6 JUMP JUMPDEST PUSH2 0xBB2 PUSH1 0x80 DUP4 ADD DUP5 PUSH2 0xAB6 JUMP JUMPDEST SWAP7 SWAP6 POP POP POP POP POP POP JUMP JUMPDEST PUSH1 0x0 PUSH1 0x40 MLOAD SWAP1 POP DUP2 DUP2 ADD DUP2 DUP2 LT PUSH8 0xFFFFFFFFFFFFFFFF DUP3 GT OR ISZERO PUSH2 0xBE3 JUMPI PUSH2 0xBE2 PUSH2 0xE12 JUMP JUMPDEST JUMPDEST DUP1 PUSH1 0x40 MSTORE POP SWAP2 SWAP1 POP JUMP JUMPDEST PUSH1 0x0 PUSH8 0xFFFFFFFFFFFFFFFF DUP3 GT ISZERO PUSH2 0xC08 JUMPI PUSH2 0xC07 PUSH2 0xE12 JUMP JUMPDEST JUMPDEST PUSH1 0x1F NOT PUSH1 0x1F DUP4 ADD AND SWAP1 POP PUSH1 0x20 DUP2 ADD SWAP1 POP SWAP2 SWAP1 POP JUMP JUMPDEST PUSH1 0x0 DUP2 SWAP1 POP PUSH1 0x20 DUP3 ADD SWAP1 POP SWAP2 SWAP1 POP JUMP JUMPDEST PUSH1 0x0 DUP2 MLOAD SWAP1 POP SWAP2 SWAP1 POP JUMP JUMPDEST PUSH1 0x0 DUP2 MLOAD SWAP1 POP SWAP2 SWAP1 POP JUMP JUMPDEST PUSH1 0x0 PUSH1 0x20 DUP3 ADD SWAP1 POP SWAP2 SWAP1 POP JUMP JUMPDEST PUSH1 0x0 DUP3 DUP3 MSTORE PUSH1 0x20 DUP3 ADD SWAP1 POP SWAP3 SWAP2 POP POP JUMP JUMPDEST PUSH1 0x0 DUP3 DUP3 MSTORE PUSH1 0x20 DUP3 ADD SWAP1 POP SWAP3 SWAP2 POP POP JUMP JUMPDEST PUSH1 0x0 DUP3 DUP3 MSTORE PUSH1 0x20 DUP3 ADD SWAP1 POP SWAP3 SWAP2 POP POP JUMP JUMPDEST PUSH1 0x0 PUSH2 0xC8E DUP3 PUSH2 0xCA3 JUMP JUMPDEST SWAP1 POP SWAP2 SWAP1 POP JUMP JUMPDEST PUSH1 0x0 PUSH2 0xFFFF DUP3 AND SWAP1 POP SWAP2 SWAP1 POP JUMP JUMPDEST PUSH1 0x0 PUSH20 0xFFFFFFFFFFFFFFFFFFFFFFFFFFFFFFFFFFFFFFFF DUP3 AND SWAP1 POP SWAP2 SWAP1 POP JUMP JUMPDEST PUSH1 0x0 DUP2 SWAP1 POP SWAP2 SWAP1 POP JUMP JUMPDEST DUP3 DUP2 DUP4 CALLDATACOPY PUSH1 0x0 DUP4 DUP4 ADD MSTORE POP POP POP JUMP JUMPDEST PUSH1 0x0 JUMPDEST DUP4 DUP2 LT ISZERO PUSH2 0xCFA JUMPI DUP1 DUP3 ADD MLOAD DUP2 DUP5 ADD MSTORE PUSH1 0x20 DUP2 ADD SWAP1 POP PUSH2 0xCDF JUMP JUMPDEST DUP4 DUP2 GT ISZERO PUSH2 0xD09 JUMPI PUSH1 0x0 DUP5 DUP5 ADD MSTORE JUMPDEST POP POP POP POP JUMP JUMPDEST PUSH1 0x0 PUSH2 0xD1A DUP3 PUSH2 0xCC3 JUMP JUMPDEST SWAP2 POP PUSH1 0x0 DUP3 EQ ISZERO PUSH2 0xD2E JUMPI PUSH2 0xD2D PUSH2 0xDB4 JUMP JUMPDEST JUMPDEST PUSH1 0x1 DUP3 SUB SWAP1 POP SWAP2 SWAP1 POP JUMP JUMPDEST PUSH1 0x0 PUSH1 0x2 DUP3 DIV SWAP1 POP PUSH1 0x1 DUP3 AND DUP1 PUSH2 0xD51 JUMPI PUSH1 0x7F DUP3 AND SWAP2 POP JUMPDEST PUSH1 0x20 DUP3 LT DUP2 EQ ISZERO PUSH2 0xD65 JUMPI PUSH2 0xD64 PUSH2 0xDE3 JUMP JUMPDEST JUMPDEST POP SWAP2 SWAP1 POP JUMP JUMPDEST PUSH1 0x0 PUSH2 0xD76 DUP3 PUSH2 0xCC3 JUMP JUMPDEST SWAP2 POP PUSH32 0xFFFFFFFFFFFFFFFFFFFFFFFFFFFFFFFFFFFFFFFFFFFFFFFFFFFFFFFFFFFFFFFF DUP3 EQ ISZERO PUSH2 0xDA9 JUMPI PUSH2 0xDA8 PUSH2 0xDB4 JUMP JUMPDEST JUMPDEST PUSH1 0x1 DUP3 ADD SWAP1 POP SWAP2 SWAP1 POP JUMP JUMPDEST PUSH32 0x4E487B7100000000000000000000000000000000000000000000000000000000 PUSH1 0x0 MSTORE PUSH1 0x11 PUSH1 0x4 MSTORE PUSH1 0x24 PUSH1 0x0 REVERT JUMPDEST PUSH32 0x4E487B7100000000000000000000000000000000000000000000000000000000 PUSH1 0x0 MSTORE PUSH1 0x22 PUSH1 0x4 MSTORE PUSH1 0x24 PUSH1 0x0 REVERT JUMPDEST PUSH32 0x4E487B7100000000000000000000000000000000000000000000000000000000 PUSH1 0x0 MSTORE PUSH1 0x41 PUSH1 0x4 MSTORE PUSH1 0x24 PUSH1 0x0 REVERT JUMPDEST PUSH1 0x0 PUSH1 0x1F NOT PUSH1 0x1F DUP4 ADD AND SWAP1 POP SWAP2 SWAP1 POP JUMP JUMPDEST PUSH2 0xE5B DUP2 PUSH2 0xCC3 JUMP JUMPDEST DUP2 EQ PUSH2 0xE66 JUMPI PUSH1 0x0 DUP1 REVERT JUMPDEST POP JUMP INVALID LOG2 PUSH5 0x6970667358 0x22 SLT KECCAK256 PUSH19 0xA33A34BC2B6F177E8BA941B24FA21E8A713566 CREATE2 DUP12 EXP MULMOD SWAP4 0x2F GASLIMIT CODECOPY MUL CREATE2 ISZERO MSTORE8 PUSH5 0x736F6C6343 STOP ADDMOD STOP STOP CALLER "
				},
				"gasEstimates": {
					"creation": {
						"codeDepositCost": "748600",
						"executionCost": "21646",
						"totalCost": "770246"
					},
					"external": {
						"MAX_TWEET_LENGTH()": "1212",
						"allTweets(uint256)": "infinite",
						"createTweet(string)": "infinite",
						"dislikeTweet(uint256)": "infinite",
						"getAllTweets()": "infinite",
						"likeTweet(uint256)": "infinite"
					}
				},
				"methodIdentifiers": {
					"MAX_TWEET_LENGTH()": "6eb10797",
					"allTweets(uint256)": "e28350b7",
					"createTweet(string)": "7c9cd2bc",
					"dislikeTweet(uint256)": "21511a44",
					"getAllTweets()": "53256135",
					"likeTweet(uint256)": "5ffc6ceb"
				}
			},
			"storageLayout": {
				"storage": [
					{
						"astId": 4,
						"contract": "tweet.sol:Twitter",
						"label": "MAX_TWEET_LENGTH",
						"offset": 0,
						"slot": "0",
						"type": "t_uint16"
					},
					{
						"astId": 19,
						"contract": "tweet.sol:Twitter",
						"label": "allTweets",
						"offset": 0,
						"slot": "1",
						"type": "t_array(t_struct(Tweet)15_storage)dyn_storage"
					}
				],
				"types": {
					"t_address": {
						"encoding": "inplace",
						"label": "address",
						"numberOfBytes": "20"
					},
					"t_array(t_struct(Tweet)15_storage)dyn_storage": {
						"base": "t_struct(Tweet)15_storage",
						"encoding": "dynamic_array",
						"label": "struct Twitter.Tweet[]",
						"numberOfBytes": "32"
					},
					"t_string_storage": {
						"encoding": "bytes",
						"label": "string",
						"numberOfBytes": "32"
					},
					"t_struct(Tweet)15_storage": {
						"encoding": "inplace",
						"label": "struct Twitter.Tweet",
						"members": [
							{
								"astId": 6,
								"contract": "tweet.sol:Twitter",
								"label": "id",
								"offset": 0,
								"slot": "0",
								"type": "t_uint256"
							},
							{
								"astId": 8,
								"contract": "tweet.sol:Twitter",
								"label": "author",
								"offset": 0,
								"slot": "1",
								"type": "t_address"
							},
							{
								"astId": 10,
								"contract": "tweet.sol:Twitter",
								"label": "content",
								"offset": 0,
								"slot": "2",
								"type": "t_string_storage"
							},
							{
								"astId": 12,
								"contract": "tweet.sol:Twitter",
								"label": "timestamp",
								"offset": 0,
								"slot": "3",
								"type": "t_uint256"
							},
							{
								"astId": 14,
								"contract": "tweet.sol:Twitter",
								"label": "likes",
								"offset": 0,
								"slot": "4",
								"type": "t_uint256"
							}
						],
						"numberOfBytes": "160"
					},
					"t_uint16": {
						"encoding": "inplace",
						"label": "uint16",
						"numberOfBytes": "2"
					},
					"t_uint256": {
						"encoding": "inplace",
						"label": "uint256",
						"numberOfBytes": "32"
					}
				}
			},
			"userdoc": {
				"kind": "user",
				"methods": {},
				"version": 1
			}
		}
	}
}