{
	"SBI_ATM_Interface.sol": {
		"SBI_ATM": {
			"abi": [
				{
					"inputs": [
						{
							"internalType": "address",
							"name": "bank_address",
							"type": "address"
						}
					],
					"stateMutability": "nonpayable",
					"type": "constructor"
				},
				{
					"inputs": [
						{
							"internalType": "uint256",
							"name": "amount",
							"type": "uint256"
						}
					],
					"name": "Add_Cash",
					"outputs": [],
					"stateMutability": "nonpayable",
					"type": "function"
				},
				{
					"inputs": [],
					"name": "Available_Balance",
					"outputs": [
						{
							"internalType": "uint256",
							"name": "",
							"type": "uint256"
						}
					],
					"stateMutability": "view",
					"type": "function"
				},
				{
					"inputs": [],
					"name": "bank",
					"outputs": [
						{
							"internalType": "contract IUserBank",
							"name": "",
							"type": "address"
						}
					],
					"stateMutability": "view",
					"type": "function"
				},
				{
					"inputs": [
						{
							"internalType": "uint256",
							"name": "amount",
							"type": "uint256"
						}
					],
					"name": "withdraw_Amount",
					"outputs": [],
					"stateMutability": "nonpayable",
					"type": "function"
				}
			],
			"devdoc": {
				"kind": "dev",
				"methods": {},
				"version": 1
			},
			"evm": {
				"assembly": "    /* \"SBI_ATM_Interface.sol\":334:826  contract SBI_ATM {... */\n  mstore(0x40, 0x80)\n    /* \"SBI_ATM_Interface.sol\":449:532  constructor(address bank_address) {... */\n  callvalue\n  dup1\n  iszero\n  tag_1\n  jumpi\n  0x00\n  dup1\n  revert\ntag_1:\n  pop\n  mload(0x40)\n  sub(codesize, bytecodeSize)\n  dup1\n  bytecodeSize\n  dup4\n  codecopy\n  dup2\n  dup2\n  add\n  0x40\n  mstore\n  dup2\n  add\n  swap1\n  tag_2\n  swap2\n  swap1\n  tag_3\n  jump\t// in\ntag_2:\n    /* \"SBI_ATM_Interface.sol\":511:523  bank_address */\n  dup1\n    /* \"SBI_ATM_Interface.sol\":494:498  bank */\n  0x00\n  dup1\n    /* \"SBI_ATM_Interface.sol\":494:524  bank = IUserBank(bank_address) */\n  0x0100\n  exp\n  dup2\n  sload\n  dup2\n  0xffffffffffffffffffffffffffffffffffffffff\n  mul\n  not\n  and\n  swap1\n  dup4\n  0xffffffffffffffffffffffffffffffffffffffff\n  and\n  mul\n  or\n  swap1\n  sstore\n  pop\n    /* \"SBI_ATM_Interface.sol\":449:532  constructor(address bank_address) {... */\n  pop\n    /* \"SBI_ATM_Interface.sol\":334:826  contract SBI_ATM {... */\n  jump(tag_6)\n    /* \"#utility.yul\":88:205   */\ntag_8:\n    /* \"#utility.yul\":197:198   */\n  0x00\n    /* \"#utility.yul\":194:195   */\n  dup1\n    /* \"#utility.yul\":187:199   */\n  revert\n    /* \"#utility.yul\":334:460   */\ntag_10:\n    /* \"#utility.yul\":371:378   */\n  0x00\n    /* \"#utility.yul\":411:453   */\n  0xffffffffffffffffffffffffffffffffffffffff\n    /* \"#utility.yul\":404:409   */\n  dup3\n    /* \"#utility.yul\":400:454   */\n  and\n    /* \"#utility.yul\":389:454   */\n  swap1\n  pop\n    /* \"#utility.yul\":334:460   */\n  swap2\n  swap1\n  pop\n  jump\t// out\n    /* \"#utility.yul\":466:562   */\ntag_11:\n    /* \"#utility.yul\":503:510   */\n  0x00\n    /* \"#utility.yul\":532:556   */\n  tag_20\n    /* \"#utility.yul\":550:555   */\n  dup3\n    /* \"#utility.yul\":532:556   */\n  tag_10\n  jump\t// in\ntag_20:\n    /* \"#utility.yul\":521:556   */\n  swap1\n  pop\n    /* \"#utility.yul\":466:562   */\n  swap2\n  swap1\n  pop\n  jump\t// out\n    /* \"#utility.yul\":568:690   */\ntag_12:\n    /* \"#utility.yul\":641:665   */\n  tag_22\n    /* \"#utility.yul\":659:664   */\n  dup2\n    /* \"#utility.yul\":641:665   */\n  tag_11\n  jump\t// in\ntag_22:\n    /* \"#utility.yul\":634:639   */\n  dup2\n    /* \"#utility.yul\":631:666   */\n  eq\n    /* \"#utility.yul\":621:684   */\n  tag_23\n  jumpi\n    /* \"#utility.yul\":680:681   */\n  0x00\n    /* \"#utility.yul\":677:678   */\n  dup1\n    /* \"#utility.yul\":670:682   */\n  revert\n    /* \"#utility.yul\":621:684   */\ntag_23:\n    /* \"#utility.yul\":568:690   */\n  pop\n  jump\t// out\n    /* \"#utility.yul\":696:839   */\ntag_13:\n    /* \"#utility.yul\":753:758   */\n  0x00\n    /* \"#utility.yul\":784:790   */\n  dup2\n    /* \"#utility.yul\":778:791   */\n  mload\n    /* \"#utility.yul\":769:791   */\n  swap1\n  pop\n    /* \"#utility.yul\":800:833   */\n  tag_25\n    /* \"#utility.yul\":827:832   */\n  dup2\n    /* \"#utility.yul\":800:833   */\n  tag_12\n  jump\t// in\ntag_25:\n    /* \"#utility.yul\":696:839   */\n  swap3\n  swap2\n  pop\n  pop\n  jump\t// out\n    /* \"#utility.yul\":845:1196   */\ntag_3:\n    /* \"#utility.yul\":915:921   */\n  0x00\n    /* \"#utility.yul\":964:966   */\n  0x20\n    /* \"#utility.yul\":952:961   */\n  dup3\n    /* \"#utility.yul\":943:950   */\n  dup5\n    /* \"#utility.yul\":939:962   */\n  sub\n    /* \"#utility.yul\":935:967   */\n  slt\n    /* \"#utility.yul\":932:1051   */\n  iszero\n  tag_27\n  jumpi\n    /* \"#utility.yul\":970:1049   */\n  tag_28\n  tag_8\n  jump\t// in\ntag_28:\n    /* \"#utility.yul\":932:1051   */\ntag_27:\n    /* \"#utility.yul\":1090:1091   */\n  0x00\n    /* \"#utility.yul\":1115:1179   */\n  tag_29\n    /* \"#utility.yul\":1171:1178   */\n  dup5\n    /* \"#utility.yul\":1162:1168   */\n  dup3\n    /* \"#utility.yul\":1151:1160   */\n  dup6\n    /* \"#utility.yul\":1147:1169   */\n  add\n    /* \"#utility.yul\":1115:1179   */\n  tag_13\n  jump\t// in\ntag_29:\n    /* \"#utility.yul\":1105:1179   */\n  swap2\n  pop\n    /* \"#utility.yul\":1061:1189   */\n  pop\n    /* \"#utility.yul\":845:1196   */\n  swap3\n  swap2\n  pop\n  pop\n  jump\t// out\n    /* \"SBI_ATM_Interface.sol\":334:826  contract SBI_ATM {... */\ntag_6:\n  dataSize(sub_0)\n  dup1\n  dataOffset(sub_0)\n  0x00\n  codecopy\n  0x00\n  return\nstop\n\nsub_0: assembly {\n        /* \"SBI_ATM_Interface.sol\":334:826  contract SBI_ATM {... */\n      mstore(0x40, 0x80)\n      callvalue\n      dup1\n      iszero\n      tag_1\n      jumpi\n      0x00\n      dup1\n      revert\n    tag_1:\n      pop\n      jumpi(tag_2, lt(calldatasize, 0x04))\n      shr(0xe0, calldataload(0x00))\n      dup1\n      0x76cdb03b\n      eq\n      tag_3\n      jumpi\n      dup1\n      0x7d53b688\n      eq\n      tag_4\n      jumpi\n      dup1\n      0x9d0d5bb9\n      eq\n      tag_5\n      jumpi\n      dup1\n      0x9e1c6a27\n      eq\n      tag_6\n      jumpi\n    tag_2:\n      0x00\n      dup1\n      revert\n        /* \"SBI_ATM_Interface.sol\":360:381  IUserBank public bank */\n    tag_3:\n      tag_7\n      tag_8\n      jump\t// in\n    tag_7:\n      mload(0x40)\n      tag_9\n      swap2\n      swap1\n      tag_10\n      jump\t// in\n    tag_9:\n      mload(0x40)\n      dup1\n      swap2\n      sub\n      swap1\n      return\n        /* \"SBI_ATM_Interface.sol\":540:617  function Add_Cash(uint amount) public {... */\n    tag_4:\n      tag_11\n      0x04\n      dup1\n      calldatasize\n      sub\n      dup2\n      add\n      swap1\n      tag_12\n      swap2\n      swap1\n      tag_13\n      jump\t// in\n    tag_12:\n      tag_14\n      jump\t// in\n    tag_11:\n      stop\n        /* \"SBI_ATM_Interface.sol\":625:715  function withdraw_Amount(uint amount) public {... */\n    tag_5:\n      tag_15\n      0x04\n      dup1\n      calldatasize\n      sub\n      dup2\n      add\n      swap1\n      tag_16\n      swap2\n      swap1\n      tag_13\n      jump\t// in\n    tag_16:\n      tag_17\n      jump\t// in\n    tag_15:\n      stop\n        /* \"SBI_ATM_Interface.sol\":723:823  function Available_Balance() public view returns (uint) {... */\n    tag_6:\n      tag_18\n      tag_19\n      jump\t// in\n    tag_18:\n      mload(0x40)\n      tag_20\n      swap2\n      swap1\n      tag_21\n      jump\t// in\n    tag_20:\n      mload(0x40)\n      dup1\n      swap2\n      sub\n      swap1\n      return\n        /* \"SBI_ATM_Interface.sol\":360:381  IUserBank public bank */\n    tag_8:\n      0x00\n      dup1\n      sload\n      swap1\n      0x0100\n      exp\n      swap1\n      div\n      0xffffffffffffffffffffffffffffffffffffffff\n      and\n      dup2\n      jump\t// out\n        /* \"SBI_ATM_Interface.sol\":540:617  function Add_Cash(uint amount) public {... */\n    tag_14:\n        /* \"SBI_ATM_Interface.sol\":589:593  bank */\n      0x00\n      dup1\n      sload\n      swap1\n      0x0100\n      exp\n      swap1\n      div\n      0xffffffffffffffffffffffffffffffffffffffff\n      and\n        /* \"SBI_ATM_Interface.sol\":589:601  bank.deposit */\n      0xffffffffffffffffffffffffffffffffffffffff\n      and\n      0xb6b55f25\n        /* \"SBI_ATM_Interface.sol\":602:608  amount */\n      dup3\n        /* \"SBI_ATM_Interface.sol\":589:609  bank.deposit(amount) */\n      mload(0x40)\n      dup3\n      0xffffffff\n      and\n      0xe0\n      shl\n      dup2\n      mstore\n      0x04\n      add\n      tag_23\n      swap2\n      swap1\n      tag_21\n      jump\t// in\n    tag_23:\n      0x00\n      mload(0x40)\n      dup1\n      dup4\n      sub\n      dup2\n      0x00\n      dup8\n      dup1\n      extcodesize\n      iszero\n      dup1\n      iszero\n      tag_24\n      jumpi\n      0x00\n      dup1\n      revert\n    tag_24:\n      pop\n      gas\n      call\n      iszero\n      dup1\n      iszero\n      tag_26\n      jumpi\n      returndatasize\n      0x00\n      dup1\n      returndatacopy\n      revert(0x00, returndatasize)\n    tag_26:\n      pop\n      pop\n      pop\n      pop\n        /* \"SBI_ATM_Interface.sol\":540:617  function Add_Cash(uint amount) public {... */\n      pop\n      jump\t// out\n        /* \"SBI_ATM_Interface.sol\":625:715  function withdraw_Amount(uint amount) public {... */\n    tag_17:\n        /* \"SBI_ATM_Interface.sol\":681:685  bank */\n      0x00\n      dup1\n      sload\n      swap1\n      0x0100\n      exp\n      swap1\n      div\n      0xffffffffffffffffffffffffffffffffffffffff\n      and\n        /* \"SBI_ATM_Interface.sol\":681:699  bank.withdraw_cash */\n      0xffffffffffffffffffffffffffffffffffffffff\n      and\n      0xb9c18f1c\n        /* \"SBI_ATM_Interface.sol\":700:706  amount */\n      dup3\n        /* \"SBI_ATM_Interface.sol\":681:707  bank.withdraw_cash(amount) */\n      mload(0x40)\n      dup3\n      0xffffffff\n      and\n      0xe0\n      shl\n      dup2\n      mstore\n      0x04\n      add\n      tag_28\n      swap2\n      swap1\n      tag_21\n      jump\t// in\n    tag_28:\n      0x00\n      mload(0x40)\n      dup1\n      dup4\n      sub\n      dup2\n      0x00\n      dup8\n      dup1\n      extcodesize\n      iszero\n      dup1\n      iszero\n      tag_29\n      jumpi\n      0x00\n      dup1\n      revert\n    tag_29:\n      pop\n      gas\n      call\n      iszero\n      dup1\n      iszero\n      tag_31\n      jumpi\n      returndatasize\n      0x00\n      dup1\n      returndatacopy\n      revert(0x00, returndatasize)\n    tag_31:\n      pop\n      pop\n      pop\n      pop\n        /* \"SBI_ATM_Interface.sol\":625:715  function withdraw_Amount(uint amount) public {... */\n      pop\n      jump\t// out\n        /* \"SBI_ATM_Interface.sol\":723:823  function Available_Balance() public view returns (uint) {... */\n    tag_19:\n        /* \"SBI_ATM_Interface.sol\":773:777  uint */\n      0x00\n        /* \"SBI_ATM_Interface.sol\":797:801  bank */\n      dup1\n      0x00\n      swap1\n      sload\n      swap1\n      0x0100\n      exp\n      swap1\n      div\n      0xffffffffffffffffffffffffffffffffffffffff\n      and\n        /* \"SBI_ATM_Interface.sol\":797:813  bank.Get_Balance */\n      0xffffffffffffffffffffffffffffffffffffffff\n      and\n      0xaf328025\n        /* \"SBI_ATM_Interface.sol\":797:815  bank.Get_Balance() */\n      mload(0x40)\n      dup2\n      0xffffffff\n      and\n      0xe0\n      shl\n      dup2\n      mstore\n      0x04\n      add\n      0x20\n      mload(0x40)\n      dup1\n      dup4\n      sub\n      dup2\n      dup7\n      gas\n      staticcall\n      iszero\n      dup1\n      iszero\n      tag_34\n      jumpi\n      returndatasize\n      0x00\n      dup1\n      returndatacopy\n      revert(0x00, returndatasize)\n    tag_34:\n      pop\n      pop\n      pop\n      pop\n      mload(0x40)\n      returndatasize\n      not(0x1f)\n      0x1f\n      dup3\n      add\n      and\n      dup3\n      add\n      dup1\n      0x40\n      mstore\n      pop\n      dup2\n      add\n      swap1\n      tag_35\n      swap2\n      swap1\n      tag_36\n      jump\t// in\n    tag_35:\n        /* \"SBI_ATM_Interface.sol\":790:815  return bank.Get_Balance() */\n      swap1\n      pop\n        /* \"SBI_ATM_Interface.sol\":723:823  function Available_Balance() public view returns (uint) {... */\n      swap1\n      jump\t// out\n        /* \"#utility.yul\":7:133   */\n    tag_37:\n        /* \"#utility.yul\":44:51   */\n      0x00\n        /* \"#utility.yul\":84:126   */\n      0xffffffffffffffffffffffffffffffffffffffff\n        /* \"#utility.yul\":77:82   */\n      dup3\n        /* \"#utility.yul\":73:127   */\n      and\n        /* \"#utility.yul\":62:127   */\n      swap1\n      pop\n        /* \"#utility.yul\":7:133   */\n      swap2\n      swap1\n      pop\n      jump\t// out\n        /* \"#utility.yul\":139:199   */\n    tag_38:\n        /* \"#utility.yul\":167:170   */\n      0x00\n        /* \"#utility.yul\":188:193   */\n      dup2\n        /* \"#utility.yul\":181:193   */\n      swap1\n      pop\n        /* \"#utility.yul\":139:199   */\n      swap2\n      swap1\n      pop\n      jump\t// out\n        /* \"#utility.yul\":205:347   */\n    tag_39:\n        /* \"#utility.yul\":255:264   */\n      0x00\n        /* \"#utility.yul\":288:341   */\n      tag_55\n        /* \"#utility.yul\":306:340   */\n      tag_56\n        /* \"#utility.yul\":315:339   */\n      tag_57\n        /* \"#utility.yul\":333:338   */\n      dup5\n        /* \"#utility.yul\":315:339   */\n      tag_37\n      jump\t// in\n    tag_57:\n        /* \"#utility.yul\":306:340   */\n      tag_38\n      jump\t// in\n    tag_56:\n        /* \"#utility.yul\":288:341   */\n      tag_37\n      jump\t// in\n    tag_55:\n        /* \"#utility.yul\":275:341   */\n      swap1\n      pop\n        /* \"#utility.yul\":205:347   */\n      swap2\n      swap1\n      pop\n      jump\t// out\n        /* \"#utility.yul\":353:479   */\n    tag_40:\n        /* \"#utility.yul\":403:412   */\n      0x00\n        /* \"#utility.yul\":436:473   */\n      tag_59\n        /* \"#utility.yul\":467:472   */\n      dup3\n        /* \"#utility.yul\":436:473   */\n      tag_39\n      jump\t// in\n    tag_59:\n        /* \"#utility.yul\":423:473   */\n      swap1\n      pop\n        /* \"#utility.yul\":353:479   */\n      swap2\n      swap1\n      pop\n      jump\t// out\n        /* \"#utility.yul\":485:627   */\n    tag_41:\n        /* \"#utility.yul\":551:560   */\n      0x00\n        /* \"#utility.yul\":584:621   */\n      tag_61\n        /* \"#utility.yul\":615:620   */\n      dup3\n        /* \"#utility.yul\":584:621   */\n      tag_40\n      jump\t// in\n    tag_61:\n        /* \"#utility.yul\":571:621   */\n      swap1\n      pop\n        /* \"#utility.yul\":485:627   */\n      swap2\n      swap1\n      pop\n      jump\t// out\n        /* \"#utility.yul\":633:796   */\n    tag_42:\n        /* \"#utility.yul\":736:789   */\n      tag_63\n        /* \"#utility.yul\":783:788   */\n      dup2\n        /* \"#utility.yul\":736:789   */\n      tag_41\n      jump\t// in\n    tag_63:\n        /* \"#utility.yul\":731:734   */\n      dup3\n        /* \"#utility.yul\":724:790   */\n      mstore\n        /* \"#utility.yul\":633:796   */\n      pop\n      pop\n      jump\t// out\n        /* \"#utility.yul\":802:1056   */\n    tag_10:\n        /* \"#utility.yul\":911:915   */\n      0x00\n        /* \"#utility.yul\":949:951   */\n      0x20\n        /* \"#utility.yul\":938:947   */\n      dup3\n        /* \"#utility.yul\":934:952   */\n      add\n        /* \"#utility.yul\":926:952   */\n      swap1\n      pop\n        /* \"#utility.yul\":962:1049   */\n      tag_65\n        /* \"#utility.yul\":1046:1047   */\n      0x00\n        /* \"#utility.yul\":1035:1044   */\n      dup4\n        /* \"#utility.yul\":1031:1048   */\n      add\n        /* \"#utility.yul\":1022:1028   */\n      dup5\n        /* \"#utility.yul\":962:1049   */\n      tag_42\n      jump\t// in\n    tag_65:\n        /* \"#utility.yul\":802:1056   */\n      swap3\n      swap2\n      pop\n      pop\n      jump\t// out\n        /* \"#utility.yul\":1143:1260   */\n    tag_44:\n        /* \"#utility.yul\":1252:1253   */\n      0x00\n        /* \"#utility.yul\":1249:1250   */\n      dup1\n        /* \"#utility.yul\":1242:1254   */\n      revert\n        /* \"#utility.yul\":1389:1466   */\n    tag_46:\n        /* \"#utility.yul\":1426:1433   */\n      0x00\n        /* \"#utility.yul\":1455:1460   */\n      dup2\n        /* \"#utility.yul\":1444:1460   */\n      swap1\n      pop\n        /* \"#utility.yul\":1389:1466   */\n      swap2\n      swap1\n      pop\n      jump\t// out\n        /* \"#utility.yul\":1472:1594   */\n    tag_47:\n        /* \"#utility.yul\":1545:1569   */\n      tag_71\n        /* \"#utility.yul\":1563:1568   */\n      dup2\n        /* \"#utility.yul\":1545:1569   */\n      tag_46\n      jump\t// in\n    tag_71:\n        /* \"#utility.yul\":1538:1543   */\n      dup2\n        /* \"#utility.yul\":1535:1570   */\n      eq\n        /* \"#utility.yul\":1525:1588   */\n      tag_72\n      jumpi\n        /* \"#utility.yul\":1584:1585   */\n      0x00\n        /* \"#utility.yul\":1581:1582   */\n      dup1\n        /* \"#utility.yul\":1574:1586   */\n      revert\n        /* \"#utility.yul\":1525:1588   */\n    tag_72:\n        /* \"#utility.yul\":1472:1594   */\n      pop\n      jump\t// out\n        /* \"#utility.yul\":1600:1739   */\n    tag_48:\n        /* \"#utility.yul\":1646:1651   */\n      0x00\n        /* \"#utility.yul\":1684:1690   */\n      dup2\n        /* \"#utility.yul\":1671:1691   */\n      calldataload\n        /* \"#utility.yul\":1662:1691   */\n      swap1\n      pop\n        /* \"#utility.yul\":1700:1733   */\n      tag_74\n        /* \"#utility.yul\":1727:1732   */\n      dup2\n        /* \"#utility.yul\":1700:1733   */\n      tag_47\n      jump\t// in\n    tag_74:\n        /* \"#utility.yul\":1600:1739   */\n      swap3\n      swap2\n      pop\n      pop\n      jump\t// out\n        /* \"#utility.yul\":1745:2074   */\n    tag_13:\n        /* \"#utility.yul\":1804:1810   */\n      0x00\n        /* \"#utility.yul\":1853:1855   */\n      0x20\n        /* \"#utility.yul\":1841:1850   */\n      dup3\n        /* \"#utility.yul\":1832:1839   */\n      dup5\n        /* \"#utility.yul\":1828:1851   */\n      sub\n        /* \"#utility.yul\":1824:1856   */\n      slt\n        /* \"#utility.yul\":1821:1940   */\n      iszero\n      tag_76\n      jumpi\n        /* \"#utility.yul\":1859:1938   */\n      tag_77\n      tag_44\n      jump\t// in\n    tag_77:\n        /* \"#utility.yul\":1821:1940   */\n    tag_76:\n        /* \"#utility.yul\":1979:1980   */\n      0x00\n        /* \"#utility.yul\":2004:2057   */\n      tag_78\n        /* \"#utility.yul\":2049:2056   */\n      dup5\n        /* \"#utility.yul\":2040:2046   */\n      dup3\n        /* \"#utility.yul\":2029:2038   */\n      dup6\n        /* \"#utility.yul\":2025:2047   */\n      add\n        /* \"#utility.yul\":2004:2057   */\n      tag_48\n      jump\t// in\n    tag_78:\n        /* \"#utility.yul\":1994:2057   */\n      swap2\n      pop\n        /* \"#utility.yul\":1950:2067   */\n      pop\n        /* \"#utility.yul\":1745:2074   */\n      swap3\n      swap2\n      pop\n      pop\n      jump\t// out\n        /* \"#utility.yul\":2080:2198   */\n    tag_49:\n        /* \"#utility.yul\":2167:2191   */\n      tag_80\n        /* \"#utility.yul\":2185:2190   */\n      dup2\n        /* \"#utility.yul\":2167:2191   */\n      tag_46\n      jump\t// in\n    tag_80:\n        /* \"#utility.yul\":2162:2165   */\n      dup3\n        /* \"#utility.yul\":2155:2192   */\n      mstore\n        /* \"#utility.yul\":2080:2198   */\n      pop\n      pop\n      jump\t// out\n        /* \"#utility.yul\":2204:2426   */\n    tag_21:\n        /* \"#utility.yul\":2297:2301   */\n      0x00\n        /* \"#utility.yul\":2335:2337   */\n      0x20\n        /* \"#utility.yul\":2324:2333   */\n      dup3\n        /* \"#utility.yul\":2320:2338   */\n      add\n        /* \"#utility.yul\":2312:2338   */\n      swap1\n      pop\n        /* \"#utility.yul\":2348:2419   */\n      tag_82\n        /* \"#utility.yul\":2416:2417   */\n      0x00\n        /* \"#utility.yul\":2405:2414   */\n      dup4\n        /* \"#utility.yul\":2401:2418   */\n      add\n        /* \"#utility.yul\":2392:2398   */\n      dup5\n        /* \"#utility.yul\":2348:2419   */\n      tag_49\n      jump\t// in\n    tag_82:\n        /* \"#utility.yul\":2204:2426   */\n      swap3\n      swap2\n      pop\n      pop\n      jump\t// out\n        /* \"#utility.yul\":2432:2575   */\n    tag_50:\n        /* \"#utility.yul\":2489:2494   */\n      0x00\n        /* \"#utility.yul\":2520:2526   */\n      dup2\n        /* \"#utility.yul\":2514:2527   */\n      mload\n        /* \"#utility.yul\":2505:2527   */\n      swap1\n      pop\n        /* \"#utility.yul\":2536:2569   */\n      tag_84\n        /* \"#utility.yul\":2563:2568   */\n      dup2\n        /* \"#utility.yul\":2536:2569   */\n      tag_47\n      jump\t// in\n    tag_84:\n        /* \"#utility.yul\":2432:2575   */\n      swap3\n      swap2\n      pop\n      pop\n      jump\t// out\n        /* \"#utility.yul\":2581:2932   */\n    tag_36:\n        /* \"#utility.yul\":2651:2657   */\n      0x00\n        /* \"#utility.yul\":2700:2702   */\n      0x20\n        /* \"#utility.yul\":2688:2697   */\n      dup3\n        /* \"#utility.yul\":2679:2686   */\n      dup5\n        /* \"#utility.yul\":2675:2698   */\n      sub\n        /* \"#utility.yul\":2671:2703   */\n      slt\n        /* \"#utility.yul\":2668:2787   */\n      iszero\n      tag_86\n      jumpi\n        /* \"#utility.yul\":2706:2785   */\n      tag_87\n      tag_44\n      jump\t// in\n    tag_87:\n        /* \"#utility.yul\":2668:2787   */\n    tag_86:\n        /* \"#utility.yul\":2826:2827   */\n      0x00\n        /* \"#utility.yul\":2851:2915   */\n      tag_88\n        /* \"#utility.yul\":2907:2914   */\n      dup5\n        /* \"#utility.yul\":2898:2904   */\n      dup3\n        /* \"#utility.yul\":2887:2896   */\n      dup6\n        /* \"#utility.yul\":2883:2905   */\n      add\n        /* \"#utility.yul\":2851:2915   */\n      tag_50\n      jump\t// in\n    tag_88:\n        /* \"#utility.yul\":2841:2915   */\n      swap2\n      pop\n        /* \"#utility.yul\":2797:2925   */\n      pop\n        /* \"#utility.yul\":2581:2932   */\n      swap3\n      swap2\n      pop\n      pop\n      jump\t// out\n\n    auxdata: 0xa26469706673582212203e7430c862611f20549ba50281c2c47a893b045bc3fe1697c80b4a5ed6f2982d64736f6c63430008120033\n}\n",
				"bytecode": {
					"linkReferences": {},
					"object": "608060405234801561001057600080fd5b50604051610557380380610557833981810160405281019061003291906100db565b806000806101000a81548173ffffffffffffffffffffffffffffffffffffffff021916908373ffffffffffffffffffffffffffffffffffffffff16021790555050610108565b600080fd5b600073ffffffffffffffffffffffffffffffffffffffff82169050919050565b60006100a88261007d565b9050919050565b6100b88161009d565b81146100c357600080fd5b50565b6000815190506100d5816100af565b92915050565b6000602082840312156100f1576100f0610078565b5b60006100ff848285016100c6565b91505092915050565b610440806101176000396000f3fe608060405234801561001057600080fd5b506004361061004c5760003560e01c806376cdb03b146100515780637d53b6881461006f5780639d0d5bb91461008b5780639e1c6a27146100a7575b600080fd5b6100596100c5565b604051610066919061031b565b60405180910390f35b61008960048036038101906100849190610371565b6100e9565b005b6100a560048036038101906100a09190610371565b610177565b005b6100af610205565b6040516100bc91906103ad565b60405180910390f35b60008054906101000a900473ffffffffffffffffffffffffffffffffffffffff1681565b60008054906101000a900473ffffffffffffffffffffffffffffffffffffffff1673ffffffffffffffffffffffffffffffffffffffff1663b6b55f25826040518263ffffffff1660e01b815260040161014291906103ad565b600060405180830381600087803b15801561015c57600080fd5b505af1158015610170573d6000803e3d6000fd5b5050505050565b60008054906101000a900473ffffffffffffffffffffffffffffffffffffffff1673ffffffffffffffffffffffffffffffffffffffff1663b9c18f1c826040518263ffffffff1660e01b81526004016101d091906103ad565b600060405180830381600087803b1580156101ea57600080fd5b505af11580156101fe573d6000803e3d6000fd5b5050505050565b60008060009054906101000a900473ffffffffffffffffffffffffffffffffffffffff1673ffffffffffffffffffffffffffffffffffffffff1663af3280256040518163ffffffff1660e01b8152600401602060405180830381865afa158015610273573d6000803e3d6000fd5b505050506040513d601f19601f8201168201806040525081019061029791906103dd565b905090565b600073ffffffffffffffffffffffffffffffffffffffff82169050919050565b6000819050919050565b60006102e16102dc6102d78461029c565b6102bc565b61029c565b9050919050565b60006102f3826102c6565b9050919050565b6000610305826102e8565b9050919050565b610315816102fa565b82525050565b6000602082019050610330600083018461030c565b92915050565b600080fd5b6000819050919050565b61034e8161033b565b811461035957600080fd5b50565b60008135905061036b81610345565b92915050565b60006020828403121561038757610386610336565b5b60006103958482850161035c565b91505092915050565b6103a78161033b565b82525050565b60006020820190506103c2600083018461039e565b92915050565b6000815190506103d781610345565b92915050565b6000602082840312156103f3576103f2610336565b5b6000610401848285016103c8565b9150509291505056fea26469706673582212203e7430c862611f20549ba50281c2c47a893b045bc3fe1697c80b4a5ed6f2982d64736f6c63430008120033",
					"opcodes": "PUSH1 0x80 PUSH1 0x40 MSTORE CALLVALUE DUP1 ISZERO PUSH2 0x10 JUMPI PUSH1 0x0 DUP1 REVERT JUMPDEST POP PUSH1 0x40 MLOAD PUSH2 0x557 CODESIZE SUB DUP1 PUSH2 0x557 DUP4 CODECOPY DUP2 DUP2 ADD PUSH1 0x40 MSTORE DUP2 ADD SWAP1 PUSH2 0x32 SWAP2 SWAP1 PUSH2 0xDB JUMP JUMPDEST DUP1 PUSH1 0x0 DUP1 PUSH2 0x100 EXP DUP2 SLOAD DUP2 PUSH20 0xFFFFFFFFFFFFFFFFFFFFFFFFFFFFFFFFFFFFFFFF MUL NOT AND SWAP1 DUP4 PUSH20 0xFFFFFFFFFFFFFFFFFFFFFFFFFFFFFFFFFFFFFFFF AND MUL OR SWAP1 SSTORE POP POP PUSH2 0x108 JUMP JUMPDEST PUSH1 0x0 DUP1 REVERT JUMPDEST PUSH1 0x0 PUSH20 0xFFFFFFFFFFFFFFFFFFFFFFFFFFFFFFFFFFFFFFFF DUP3 AND SWAP1 POP SWAP2 SWAP1 POP JUMP JUMPDEST PUSH1 0x0 PUSH2 0xA8 DUP3 PUSH2 0x7D JUMP JUMPDEST SWAP1 POP SWAP2 SWAP1 POP JUMP JUMPDEST PUSH2 0xB8 DUP2 PUSH2 0x9D JUMP JUMPDEST DUP2 EQ PUSH2 0xC3 JUMPI PUSH1 0x0 DUP1 REVERT JUMPDEST POP JUMP JUMPDEST PUSH1 0x0 DUP2 MLOAD SWAP1 POP PUSH2 0xD5 DUP2 PUSH2 0xAF JUMP JUMPDEST SWAP3 SWAP2 POP POP JUMP JUMPDEST PUSH1 0x0 PUSH1 0x20 DUP3 DUP5 SUB SLT ISZERO PUSH2 0xF1 JUMPI PUSH2 0xF0 PUSH2 0x78 JUMP JUMPDEST JUMPDEST PUSH1 0x0 PUSH2 0xFF DUP5 DUP3 DUP6 ADD PUSH2 0xC6 JUMP JUMPDEST SWAP2 POP POP SWAP3 SWAP2 POP POP JUMP JUMPDEST PUSH2 0x440 DUP1 PUSH2 0x117 PUSH1 0x0 CODECOPY PUSH1 0x0 RETURN INVALID PUSH1 0x80 PUSH1 0x40 MSTORE CALLVALUE DUP1 ISZERO PUSH2 0x10 JUMPI PUSH1 0x0 DUP1 REVERT JUMPDEST POP PUSH1 0x4 CALLDATASIZE LT PUSH2 0x4C JUMPI PUSH1 0x0 CALLDATALOAD PUSH1 0xE0 SHR DUP1 PUSH4 0x76CDB03B EQ PUSH2 0x51 JUMPI DUP1 PUSH4 0x7D53B688 EQ PUSH2 0x6F JUMPI DUP1 PUSH4 0x9D0D5BB9 EQ PUSH2 0x8B JUMPI DUP1 PUSH4 0x9E1C6A27 EQ PUSH2 0xA7 JUMPI JUMPDEST PUSH1 0x0 DUP1 REVERT JUMPDEST PUSH2 0x59 PUSH2 0xC5 JUMP JUMPDEST PUSH1 0x40 MLOAD PUSH2 0x66 SWAP2 SWAP1 PUSH2 0x31B JUMP JUMPDEST PUSH1 0x40 MLOAD DUP1 SWAP2 SUB SWAP1 RETURN JUMPDEST PUSH2 0x89 PUSH1 0x4 DUP1 CALLDATASIZE SUB DUP2 ADD SWAP1 PUSH2 0x84 SWAP2 SWAP1 PUSH2 0x371 JUMP JUMPDEST PUSH2 0xE9 JUMP JUMPDEST STOP JUMPDEST PUSH2 0xA5 PUSH1 0x4 DUP1 CALLDATASIZE SUB DUP2 ADD SWAP1 PUSH2 0xA0 SWAP2 SWAP1 PUSH2 0x371 JUMP JUMPDEST PUSH2 0x177 JUMP JUMPDEST STOP JUMPDEST PUSH2 0xAF PUSH2 0x205 JUMP JUMPDEST PUSH1 0x40 MLOAD PUSH2 0xBC SWAP2 SWAP1 PUSH2 0x3AD JUMP JUMPDEST PUSH1 0x40 MLOAD DUP1 SWAP2 SUB SWAP1 RETURN JUMPDEST PUSH1 0x0 DUP1 SLOAD SWAP1 PUSH2 0x100 EXP SWAP1 DIV PUSH20 0xFFFFFFFFFFFFFFFFFFFFFFFFFFFFFFFFFFFFFFFF AND DUP2 JUMP JUMPDEST PUSH1 0x0 DUP1 SLOAD SWAP1 PUSH2 0x100 EXP SWAP1 DIV PUSH20 0xFFFFFFFFFFFFFFFFFFFFFFFFFFFFFFFFFFFFFFFF AND PUSH20 0xFFFFFFFFFFFFFFFFFFFFFFFFFFFFFFFFFFFFFFFF AND PUSH4 0xB6B55F25 DUP3 PUSH1 0x40 MLOAD DUP3 PUSH4 0xFFFFFFFF AND PUSH1 0xE0 SHL DUP2 MSTORE PUSH1 0x4 ADD PUSH2 0x142 SWAP2 SWAP1 PUSH2 0x3AD JUMP JUMPDEST PUSH1 0x0 PUSH1 0x40 MLOAD DUP1 DUP4 SUB DUP2 PUSH1 0x0 DUP8 DUP1 EXTCODESIZE ISZERO DUP1 ISZERO PUSH2 0x15C JUMPI PUSH1 0x0 DUP1 REVERT JUMPDEST POP GAS CALL ISZERO DUP1 ISZERO PUSH2 0x170 JUMPI RETURNDATASIZE PUSH1 0x0 DUP1 RETURNDATACOPY RETURNDATASIZE PUSH1 0x0 REVERT JUMPDEST POP POP POP POP POP JUMP JUMPDEST PUSH1 0x0 DUP1 SLOAD SWAP1 PUSH2 0x100 EXP SWAP1 DIV PUSH20 0xFFFFFFFFFFFFFFFFFFFFFFFFFFFFFFFFFFFFFFFF AND PUSH20 0xFFFFFFFFFFFFFFFFFFFFFFFFFFFFFFFFFFFFFFFF AND PUSH4 0xB9C18F1C DUP3 PUSH1 0x40 MLOAD DUP3 PUSH4 0xFFFFFFFF AND PUSH1 0xE0 SHL DUP2 MSTORE PUSH1 0x4 ADD PUSH2 0x1D0 SWAP2 SWAP1 PUSH2 0x3AD JUMP JUMPDEST PUSH1 0x0 PUSH1 0x40 MLOAD DUP1 DUP4 SUB DUP2 PUSH1 0x0 DUP8 DUP1 EXTCODESIZE ISZERO DUP1 ISZERO PUSH2 0x1EA JUMPI PUSH1 0x0 DUP1 REVERT JUMPDEST POP GAS CALL ISZERO DUP1 ISZERO PUSH2 0x1FE JUMPI RETURNDATASIZE PUSH1 0x0 DUP1 RETURNDATACOPY RETURNDATASIZE PUSH1 0x0 REVERT JUMPDEST POP POP POP POP POP JUMP JUMPDEST PUSH1 0x0 DUP1 PUSH1 0x0 SWAP1 SLOAD SWAP1 PUSH2 0x100 EXP SWAP1 DIV PUSH20 0xFFFFFFFFFFFFFFFFFFFFFFFFFFFFFFFFFFFFFFFF AND PUSH20 0xFFFFFFFFFFFFFFFFFFFFFFFFFFFFFFFFFFFFFFFF AND PUSH4 0xAF328025 PUSH1 0x40 MLOAD DUP2 PUSH4 0xFFFFFFFF AND PUSH1 0xE0 SHL DUP2 MSTORE PUSH1 0x4 ADD PUSH1 0x20 PUSH1 0x40 MLOAD DUP1 DUP4 SUB DUP2 DUP7 GAS STATICCALL ISZERO DUP1 ISZERO PUSH2 0x273 JUMPI RETURNDATASIZE PUSH1 0x0 DUP1 RETURNDATACOPY RETURNDATASIZE PUSH1 0x0 REVERT JUMPDEST POP POP POP POP PUSH1 0x40 MLOAD RETURNDATASIZE PUSH1 0x1F NOT PUSH1 0x1F DUP3 ADD AND DUP3 ADD DUP1 PUSH1 0x40 MSTORE POP DUP2 ADD SWAP1 PUSH2 0x297 SWAP2 SWAP1 PUSH2 0x3DD JUMP JUMPDEST SWAP1 POP SWAP1 JUMP JUMPDEST PUSH1 0x0 PUSH20 0xFFFFFFFFFFFFFFFFFFFFFFFFFFFFFFFFFFFFFFFF DUP3 AND SWAP1 POP SWAP2 SWAP1 POP JUMP JUMPDEST PUSH1 0x0 DUP2 SWAP1 POP SWAP2 SWAP1 POP JUMP JUMPDEST PUSH1 0x0 PUSH2 0x2E1 PUSH2 0x2DC PUSH2 0x2D7 DUP5 PUSH2 0x29C JUMP JUMPDEST PUSH2 0x2BC JUMP JUMPDEST PUSH2 0x29C JUMP JUMPDEST SWAP1 POP SWAP2 SWAP1 POP JUMP JUMPDEST PUSH1 0x0 PUSH2 0x2F3 DUP3 PUSH2 0x2C6 JUMP JUMPDEST SWAP1 POP SWAP2 SWAP1 POP JUMP JUMPDEST PUSH1 0x0 PUSH2 0x305 DUP3 PUSH2 0x2E8 JUMP JUMPDEST SWAP1 POP SWAP2 SWAP1 POP JUMP JUMPDEST PUSH2 0x315 DUP2 PUSH2 0x2FA JUMP JUMPDEST DUP3 MSTORE POP POP JUMP JUMPDEST PUSH1 0x0 PUSH1 0x20 DUP3 ADD SWAP1 POP PUSH2 0x330 PUSH1 0x0 DUP4 ADD DUP5 PUSH2 0x30C JUMP JUMPDEST SWAP3 SWAP2 POP POP JUMP JUMPDEST PUSH1 0x0 DUP1 REVERT JUMPDEST PUSH1 0x0 DUP2 SWAP1 POP SWAP2 SWAP1 POP JUMP JUMPDEST PUSH2 0x34E DUP2 PUSH2 0x33B JUMP JUMPDEST DUP2 EQ PUSH2 0x359 JUMPI PUSH1 0x0 DUP1 REVERT JUMPDEST POP JUMP JUMPDEST PUSH1 0x0 DUP2 CALLDATALOAD SWAP1 POP PUSH2 0x36B DUP2 PUSH2 0x345 JUMP JUMPDEST SWAP3 SWAP2 POP POP JUMP JUMPDEST PUSH1 0x0 PUSH1 0x20 DUP3 DUP5 SUB SLT ISZERO PUSH2 0x387 JUMPI PUSH2 0x386 PUSH2 0x336 JUMP JUMPDEST JUMPDEST PUSH1 0x0 PUSH2 0x395 DUP5 DUP3 DUP6 ADD PUSH2 0x35C JUMP JUMPDEST SWAP2 POP POP SWAP3 SWAP2 POP POP JUMP JUMPDEST PUSH2 0x3A7 DUP2 PUSH2 0x33B JUMP JUMPDEST DUP3 MSTORE POP POP JUMP JUMPDEST PUSH1 0x0 PUSH1 0x20 DUP3 ADD SWAP1 POP PUSH2 0x3C2 PUSH1 0x0 DUP4 ADD DUP5 PUSH2 0x39E JUMP JUMPDEST SWAP3 SWAP2 POP POP JUMP JUMPDEST PUSH1 0x0 DUP2 MLOAD SWAP1 POP PUSH2 0x3D7 DUP2 PUSH2 0x345 JUMP JUMPDEST SWAP3 SWAP2 POP POP JUMP JUMPDEST PUSH1 0x0 PUSH1 0x20 DUP3 DUP5 SUB SLT ISZERO PUSH2 0x3F3 JUMPI PUSH2 0x3F2 PUSH2 0x336 JUMP JUMPDEST JUMPDEST PUSH1 0x0 PUSH2 0x401 DUP5 DUP3 DUP6 ADD PUSH2 0x3C8 JUMP JUMPDEST SWAP2 POP POP SWAP3 SWAP2 POP POP JUMP INVALID LOG2 PUSH5 0x6970667358 0x22 SLT KECCAK256 RETURNDATACOPY PUSH21 0x30C862611F20549BA50281C2C47A893B045BC3FE16 SWAP8 0xC8 SIGNEXTEND 0x4A 0x5E 0xD6 CALLCODE SWAP9 0x2D PUSH5 0x736F6C6343 STOP ADDMOD SLT STOP CALLER "
				},
				"gasEstimates": {
					"creation": {
						"codeDepositCost": "217600",
						"executionCost": "infinite",
						"totalCost": "infinite"
					},
					"external": {
						"Add_Cash(uint256)": "infinite",
						"Available_Balance()": "infinite",
						"bank()": "infinite",
						"withdraw_Amount(uint256)": "infinite"
					}
				},
				"methodIdentifiers": {
					"Add_Cash(uint256)": "7d53b688",
					"Available_Balance()": "9e1c6a27",
					"bank()": "76cdb03b",
					"withdraw_Amount(uint256)": "9d0d5bb9"
				}
			},
			"storageLayout": {
				"storage": [
					{
						"astId": 20,
						"contract": "SBI_ATM_Interface.sol:SBI_ATM",
						"label": "bank",
						"offset": 0,
						"slot": "0",
						"type": "t_contract(IUserBank)17"
					}
				],
				"types": {
					"t_contract(IUserBank)17": {
						"encoding": "inplace",
						"label": "contract IUserBank",
						"numberOfBytes": "20"
					}
				}
			},
			"userdoc": {
				"kind": "user",
				"methods": {},
				"version": 1
			}
		}
	}
}