{
	"BankLoan.sol": {
		"Bank": {
			"abi": [
				{
					"inputs": [],
					"stateMutability": "nonpayable",
					"type": "constructor"
				},
				{
					"inputs": [],
					"name": "maxLoanAmount",
					"outputs": [
						{
							"internalType": "uint256",
							"name": "",
							"type": "uint256"
						}
					],
					"stateMutability": "view",
					"type": "function"
				},
				{
					"inputs": [],
					"name": "minLoanAmount",
					"outputs": [
						{
							"internalType": "uint256",
							"name": "",
							"type": "uint256"
						}
					],
					"stateMutability": "view",
					"type": "function"
				},
				{
					"inputs": [],
					"name": "owner",
					"outputs": [
						{
							"internalType": "address",
							"name": "",
							"type": "address"
						}
					],
					"stateMutability": "view",
					"type": "function"
				}
			],
			"devdoc": {
				"kind": "dev",
				"methods": {},
				"version": 1
			},
			"evm": {
				"assembly": "    /* \"BankLoan.sol\":60:364  contract Bank {\r... */\n  mstore(0x40, 0x80)\n    /* \"BankLoan.sol\":136:143  1 ether */\n  0x0de0b6b3a7640000\n    /* \"BankLoan.sol\":108:143  uint public minLoanAmount = 1 ether */\n  0x01\n  sstore\n    /* \"BankLoan.sol\":178:186  10 ether */\n  0x8ac7230489e80000\n    /* \"BankLoan.sol\":150:186  uint public maxLoanAmount = 10 ether */\n  0x02\n  sstore\n    /* \"BankLoan.sol\":195:246  constructor() {\r... */\n  callvalue\n  dup1\n  iszero\n  tag_1\n  jumpi\n  0x00\n  dup1\n  revert\ntag_1:\n  pop\n    /* \"BankLoan.sol\":228:238  msg.sender */\n  caller\n    /* \"BankLoan.sol\":220:225  owner */\n  0x00\n  dup1\n    /* \"BankLoan.sol\":220:238  owner = msg.sender */\n  0x0100\n  exp\n  dup2\n  sload\n  dup2\n  0xffffffffffffffffffffffffffffffffffffffff\n  mul\n  not\n  and\n  swap1\n  dup4\n  0xffffffffffffffffffffffffffffffffffffffff\n  and\n  mul\n  or\n  swap1\n  sstore\n  pop\n    /* \"BankLoan.sol\":60:364  contract Bank {\r... */\n  dataSize(sub_0)\n  dup1\n  dataOffset(sub_0)\n  0x00\n  codecopy\n  0x00\n  return\nstop\n\nsub_0: assembly {\n        /* \"BankLoan.sol\":60:364  contract Bank {\r... */\n      mstore(0x40, 0x80)\n      callvalue\n      dup1\n      iszero\n      tag_1\n      jumpi\n      0x00\n      dup1\n      revert\n    tag_1:\n      pop\n      jumpi(tag_2, lt(calldatasize, 0x04))\n      shr(0xe0, calldataload(0x00))\n      dup1\n      0x72f94365\n      eq\n      tag_3\n      jumpi\n      dup1\n      0x8da5cb5b\n      eq\n      tag_4\n      jumpi\n      dup1\n      0xe06a9138\n      eq\n      tag_5\n      jumpi\n    tag_2:\n      0x00\n      dup1\n      revert\n        /* \"BankLoan.sol\":150:186  uint public maxLoanAmount = 10 ether */\n    tag_3:\n      tag_6\n      tag_7\n      jump\t// in\n    tag_6:\n      mload(0x40)\n      tag_8\n      swap2\n      swap1\n      tag_9\n      jump\t// in\n    tag_8:\n      mload(0x40)\n      dup1\n      swap2\n      sub\n      swap1\n      return\n        /* \"BankLoan.sol\":81:101  address public owner */\n    tag_4:\n      tag_10\n      tag_11\n      jump\t// in\n    tag_10:\n      mload(0x40)\n      tag_12\n      swap2\n      swap1\n      tag_13\n      jump\t// in\n    tag_12:\n      mload(0x40)\n      dup1\n      swap2\n      sub\n      swap1\n      return\n        /* \"BankLoan.sol\":108:143  uint public minLoanAmount = 1 ether */\n    tag_5:\n      tag_14\n      tag_15\n      jump\t// in\n    tag_14:\n      mload(0x40)\n      tag_16\n      swap2\n      swap1\n      tag_9\n      jump\t// in\n    tag_16:\n      mload(0x40)\n      dup1\n      swap2\n      sub\n      swap1\n      return\n        /* \"BankLoan.sol\":150:186  uint public maxLoanAmount = 10 ether */\n    tag_7:\n      sload(0x02)\n      dup2\n      jump\t// out\n        /* \"BankLoan.sol\":81:101  address public owner */\n    tag_11:\n      0x00\n      dup1\n      sload\n      swap1\n      0x0100\n      exp\n      swap1\n      div\n      0xffffffffffffffffffffffffffffffffffffffff\n      and\n      dup2\n      jump\t// out\n        /* \"BankLoan.sol\":108:143  uint public minLoanAmount = 1 ether */\n    tag_15:\n      sload(0x01)\n      dup2\n      jump\t// out\n        /* \"#utility.yul\":7:125   */\n    tag_18:\n        /* \"#utility.yul\":94:118   */\n      tag_20\n        /* \"#utility.yul\":112:117   */\n      dup2\n        /* \"#utility.yul\":94:118   */\n      tag_21\n      jump\t// in\n    tag_20:\n        /* \"#utility.yul\":89:92   */\n      dup3\n        /* \"#utility.yul\":82:119   */\n      mstore\n        /* \"#utility.yul\":72:125   */\n      pop\n      pop\n      jump\t// out\n        /* \"#utility.yul\":131:249   */\n    tag_22:\n        /* \"#utility.yul\":218:242   */\n      tag_24\n        /* \"#utility.yul\":236:241   */\n      dup2\n        /* \"#utility.yul\":218:242   */\n      tag_25\n      jump\t// in\n    tag_24:\n        /* \"#utility.yul\":213:216   */\n      dup3\n        /* \"#utility.yul\":206:243   */\n      mstore\n        /* \"#utility.yul\":196:249   */\n      pop\n      pop\n      jump\t// out\n        /* \"#utility.yul\":255:477   */\n    tag_13:\n      0x00\n        /* \"#utility.yul\":386:388   */\n      0x20\n        /* \"#utility.yul\":375:384   */\n      dup3\n        /* \"#utility.yul\":371:389   */\n      add\n        /* \"#utility.yul\":363:389   */\n      swap1\n      pop\n        /* \"#utility.yul\":399:470   */\n      tag_27\n        /* \"#utility.yul\":467:468   */\n      0x00\n        /* \"#utility.yul\":456:465   */\n      dup4\n        /* \"#utility.yul\":452:469   */\n      add\n        /* \"#utility.yul\":443:449   */\n      dup5\n        /* \"#utility.yul\":399:470   */\n      tag_18\n      jump\t// in\n    tag_27:\n        /* \"#utility.yul\":353:477   */\n      swap3\n      swap2\n      pop\n      pop\n      jump\t// out\n        /* \"#utility.yul\":483:705   */\n    tag_9:\n      0x00\n        /* \"#utility.yul\":614:616   */\n      0x20\n        /* \"#utility.yul\":603:612   */\n      dup3\n        /* \"#utility.yul\":599:617   */\n      add\n        /* \"#utility.yul\":591:617   */\n      swap1\n      pop\n        /* \"#utility.yul\":627:698   */\n      tag_29\n        /* \"#utility.yul\":695:696   */\n      0x00\n        /* \"#utility.yul\":684:693   */\n      dup4\n        /* \"#utility.yul\":680:697   */\n      add\n        /* \"#utility.yul\":671:677   */\n      dup5\n        /* \"#utility.yul\":627:698   */\n      tag_22\n      jump\t// in\n    tag_29:\n        /* \"#utility.yul\":581:705   */\n      swap3\n      swap2\n      pop\n      pop\n      jump\t// out\n        /* \"#utility.yul\":711:807   */\n    tag_21:\n      0x00\n        /* \"#utility.yul\":777:801   */\n      tag_31\n        /* \"#utility.yul\":795:800   */\n      dup3\n        /* \"#utility.yul\":777:801   */\n      tag_32\n      jump\t// in\n    tag_31:\n        /* \"#utility.yul\":766:801   */\n      swap1\n      pop\n        /* \"#utility.yul\":756:807   */\n      swap2\n      swap1\n      pop\n      jump\t// out\n        /* \"#utility.yul\":813:939   */\n    tag_32:\n      0x00\n        /* \"#utility.yul\":890:932   */\n      0xffffffffffffffffffffffffffffffffffffffff\n        /* \"#utility.yul\":883:888   */\n      dup3\n        /* \"#utility.yul\":879:933   */\n      and\n        /* \"#utility.yul\":868:933   */\n      swap1\n      pop\n        /* \"#utility.yul\":858:939   */\n      swap2\n      swap1\n      pop\n      jump\t// out\n        /* \"#utility.yul\":945:1022   */\n    tag_25:\n      0x00\n        /* \"#utility.yul\":1011:1016   */\n      dup2\n        /* \"#utility.yul\":1000:1016   */\n      swap1\n      pop\n        /* \"#utility.yul\":990:1022   */\n      swap2\n      swap1\n      pop\n      jump\t// out\n\n    auxdata: 0xa26469706673582212203f60ddc67a448905d9847bd8dca66e5e0a2c3bdcf2ea1d243d42de782eea979864736f6c63430008000033\n}\n",
				"bytecode": {
					"linkReferences": {},
					"object": "6080604052670de0b6b3a7640000600155678ac7230489e8000060025534801561002857600080fd5b50336000806101000a81548173ffffffffffffffffffffffffffffffffffffffff021916908373ffffffffffffffffffffffffffffffffffffffff160217905550610196806100786000396000f3fe608060405234801561001057600080fd5b50600436106100415760003560e01c806372f94365146100465780638da5cb5b14610064578063e06a913814610082575b600080fd5b61004e6100a0565b60405161005b9190610109565b60405180910390f35b61006c6100a6565b60405161007991906100ee565b60405180910390f35b61008a6100ca565b6040516100979190610109565b60405180910390f35b60025481565b60008054906101000a900473ffffffffffffffffffffffffffffffffffffffff1681565b60015481565b6100d981610124565b82525050565b6100e881610156565b82525050565b600060208201905061010360008301846100d0565b92915050565b600060208201905061011e60008301846100df565b92915050565b600061012f82610136565b9050919050565b600073ffffffffffffffffffffffffffffffffffffffff82169050919050565b600081905091905056fea26469706673582212203f60ddc67a448905d9847bd8dca66e5e0a2c3bdcf2ea1d243d42de782eea979864736f6c63430008000033",
					"opcodes": "PUSH1 0x80 PUSH1 0x40 MSTORE PUSH8 0xDE0B6B3A7640000 PUSH1 0x1 SSTORE PUSH8 0x8AC7230489E80000 PUSH1 0x2 SSTORE CALLVALUE DUP1 ISZERO PUSH2 0x28 JUMPI PUSH1 0x0 DUP1 REVERT JUMPDEST POP CALLER PUSH1 0x0 DUP1 PUSH2 0x100 EXP DUP2 SLOAD DUP2 PUSH20 0xFFFFFFFFFFFFFFFFFFFFFFFFFFFFFFFFFFFFFFFF MUL NOT AND SWAP1 DUP4 PUSH20 0xFFFFFFFFFFFFFFFFFFFFFFFFFFFFFFFFFFFFFFFF AND MUL OR SWAP1 SSTORE POP PUSH2 0x196 DUP1 PUSH2 0x78 PUSH1 0x0 CODECOPY PUSH1 0x0 RETURN INVALID PUSH1 0x80 PUSH1 0x40 MSTORE CALLVALUE DUP1 ISZERO PUSH2 0x10 JUMPI PUSH1 0x0 DUP1 REVERT JUMPDEST POP PUSH1 0x4 CALLDATASIZE LT PUSH2 0x41 JUMPI PUSH1 0x0 CALLDATALOAD PUSH1 0xE0 SHR DUP1 PUSH4 0x72F94365 EQ PUSH2 0x46 JUMPI DUP1 PUSH4 0x8DA5CB5B EQ PUSH2 0x64 JUMPI DUP1 PUSH4 0xE06A9138 EQ PUSH2 0x82 JUMPI JUMPDEST PUSH1 0x0 DUP1 REVERT JUMPDEST PUSH2 0x4E PUSH2 0xA0 JUMP JUMPDEST PUSH1 0x40 MLOAD PUSH2 0x5B SWAP2 SWAP1 PUSH2 0x109 JUMP JUMPDEST PUSH1 0x40 MLOAD DUP1 SWAP2 SUB SWAP1 RETURN JUMPDEST PUSH2 0x6C PUSH2 0xA6 JUMP JUMPDEST PUSH1 0x40 MLOAD PUSH2 0x79 SWAP2 SWAP1 PUSH2 0xEE JUMP JUMPDEST PUSH1 0x40 MLOAD DUP1 SWAP2 SUB SWAP1 RETURN JUMPDEST PUSH2 0x8A PUSH2 0xCA JUMP JUMPDEST PUSH1 0x40 MLOAD PUSH2 0x97 SWAP2 SWAP1 PUSH2 0x109 JUMP JUMPDEST PUSH1 0x40 MLOAD DUP1 SWAP2 SUB SWAP1 RETURN JUMPDEST PUSH1 0x2 SLOAD DUP2 JUMP JUMPDEST PUSH1 0x0 DUP1 SLOAD SWAP1 PUSH2 0x100 EXP SWAP1 DIV PUSH20 0xFFFFFFFFFFFFFFFFFFFFFFFFFFFFFFFFFFFFFFFF AND DUP2 JUMP JUMPDEST PUSH1 0x1 SLOAD DUP2 JUMP JUMPDEST PUSH2 0xD9 DUP2 PUSH2 0x124 JUMP JUMPDEST DUP3 MSTORE POP POP JUMP JUMPDEST PUSH2 0xE8 DUP2 PUSH2 0x156 JUMP JUMPDEST DUP3 MSTORE POP POP JUMP JUMPDEST PUSH1 0x0 PUSH1 0x20 DUP3 ADD SWAP1 POP PUSH2 0x103 PUSH1 0x0 DUP4 ADD DUP5 PUSH2 0xD0 JUMP JUMPDEST SWAP3 SWAP2 POP POP JUMP JUMPDEST PUSH1 0x0 PUSH1 0x20 DUP3 ADD SWAP1 POP PUSH2 0x11E PUSH1 0x0 DUP4 ADD DUP5 PUSH2 0xDF JUMP JUMPDEST SWAP3 SWAP2 POP POP JUMP JUMPDEST PUSH1 0x0 PUSH2 0x12F DUP3 PUSH2 0x136 JUMP JUMPDEST SWAP1 POP SWAP2 SWAP1 POP JUMP JUMPDEST PUSH1 0x0 PUSH20 0xFFFFFFFFFFFFFFFFFFFFFFFFFFFFFFFFFFFFFFFF DUP3 AND SWAP1 POP SWAP2 SWAP1 POP JUMP JUMPDEST PUSH1 0x0 DUP2 SWAP1 POP SWAP2 SWAP1 POP JUMP INVALID LOG2 PUSH5 0x6970667358 0x22 SLT KECCAK256 EXTCODEHASH PUSH1 0xDD 0xC6 PUSH27 0x448905D9847BD8DCA66E5E0A2C3BDCF2EA1D243D42DE782EEA9798 PUSH5 0x736F6C6343 STOP ADDMOD STOP STOP CALLER "
				},
				"gasEstimates": {
					"creation": {
						"codeDepositCost": "81200",
						"executionCost": "61007",
						"totalCost": "142207"
					},
					"external": {
						"maxLoanAmount()": "1107",
						"minLoanAmount()": "1151",
						"owner()": "1211"
					}
				},
				"methodIdentifiers": {
					"maxLoanAmount()": "72f94365",
					"minLoanAmount()": "e06a9138",
					"owner()": "8da5cb5b"
				}
			},
			"storageLayout": {
				"storage": [
					{
						"astId": 3,
						"contract": "BankLoan.sol:Bank",
						"label": "owner",
						"offset": 0,
						"slot": "0",
						"type": "t_address"
					},
					{
						"astId": 6,
						"contract": "BankLoan.sol:Bank",
						"label": "minLoanAmount",
						"offset": 0,
						"slot": "1",
						"type": "t_uint256"
					},
					{
						"astId": 9,
						"contract": "BankLoan.sol:Bank",
						"label": "maxLoanAmount",
						"offset": 0,
						"slot": "2",
						"type": "t_uint256"
					}
				],
				"types": {
					"t_address": {
						"encoding": "inplace",
						"label": "address",
						"numberOfBytes": "20"
					},
					"t_uint256": {
						"encoding": "inplace",
						"label": "uint256",
						"numberOfBytes": "32"
					}
				}
			},
			"userdoc": {
				"kind": "user",
				"methods": {},
				"version": 1
			}
		}
	}
}