{
	"array.sol": {
		"SimpleArray": {
			"abi": [
				{
					"inputs": [
						{
							"internalType": "uint256",
							"name": "_number",
							"type": "uint256"
						}
					],
					"name": "addNumbers",
					"outputs": [],
					"stateMutability": "nonpayable",
					"type": "function"
				},
				{
					"inputs": [],
					"name": "getAll",
					"outputs": [
						{
							"internalType": "uint256[]",
							"name": "",
							"type": "uint256[]"
						}
					],
					"stateMutability": "view",
					"type": "function"
				},
				{
					"inputs": [],
					"name": "getFirst",
					"outputs": [
						{
							"internalType": "uint256",
							"name": "",
							"type": "uint256"
						}
					],
					"stateMutability": "view",
					"type": "function"
				},
				{
					"inputs": [
						{
							"internalType": "uint256",
							"name": "_index",
							"type": "uint256"
						}
					],
					"name": "getNumber",
					"outputs": [
						{
							"internalType": "uint256",
							"name": "",
							"type": "uint256"
						}
					],
					"stateMutability": "view",
					"type": "function"
				},
				{
					"inputs": [],
					"name": "remove_Number",
					"outputs": [],
					"stateMutability": "nonpayable",
					"type": "function"
				}
			],
			"devdoc": {
				"kind": "dev",
				"methods": {},
				"version": 1
			},
			"evm": {
				"assembly": "    /* \"array.sol\":60:590  contract SimpleArray{... */\n  mstore(0x40, 0x80)\n  callvalue\n  dup1\n  iszero\n  tag_1\n  jumpi\n  0x00\n  dup1\n  revert\ntag_1:\n  pop\n  dataSize(sub_0)\n  dup1\n  dataOffset(sub_0)\n  0x00\n  codecopy\n  0x00\n  return\nstop\n\nsub_0: assembly {\n        /* \"array.sol\":60:590  contract SimpleArray{... */\n      mstore(0x40, 0x80)\n      callvalue\n      dup1\n      iszero\n      tag_1\n      jumpi\n      0x00\n      dup1\n      revert\n    tag_1:\n      pop\n      jumpi(tag_2, lt(calldatasize, 0x04))\n      shr(0xe0, calldataload(0x00))\n      dup1\n      0x1e223143\n      eq\n      tag_3\n      jumpi\n      dup1\n      0x2be55998\n      eq\n      tag_4\n      jumpi\n      dup1\n      0x53ed5143\n      eq\n      tag_5\n      jumpi\n      dup1\n      0x7ace175a\n      eq\n      tag_6\n      jumpi\n      dup1\n      0xfc563658\n      eq\n      tag_7\n      jumpi\n    tag_2:\n      0x00\n      dup1\n      revert\n        /* \"array.sol\":445:524  function getFirst () public view returns (uint){... */\n    tag_3:\n      tag_8\n      tag_9\n      jump\t// in\n    tag_8:\n      mload(0x40)\n      tag_10\n      swap2\n      swap1\n      tag_11\n      jump\t// in\n    tag_10:\n      mload(0x40)\n      dup1\n      swap2\n      sub\n      swap1\n      return\n        /* \"array.sol\":107:184  function addNumbers (uint _number) public{... */\n    tag_4:\n      tag_12\n      0x04\n      dup1\n      calldatasize\n      sub\n      dup2\n      add\n      swap1\n      tag_13\n      swap2\n      swap1\n      tag_14\n      jump\t// in\n    tag_13:\n      tag_15\n      jump\t// in\n    tag_12:\n      stop\n        /* \"array.sol\":353:437  function getAll () public view returns (uint [] memory){... */\n    tag_5:\n      tag_16\n      tag_17\n      jump\t// in\n    tag_16:\n      mload(0x40)\n      tag_18\n      swap2\n      swap1\n      tag_19\n      jump\t// in\n    tag_18:\n      mload(0x40)\n      dup1\n      swap2\n      sub\n      swap1\n      return\n        /* \"array.sol\":532:587  function remove_Number() public{... */\n    tag_6:\n      tag_20\n      tag_21\n      jump\t// in\n    tag_20:\n      stop\n        /* \"array.sol\":190:345  function getNumber(uint _index) public view returns (uint){... */\n    tag_7:\n      tag_22\n      0x04\n      dup1\n      calldatasize\n      sub\n      dup2\n      add\n      swap1\n      tag_23\n      swap2\n      swap1\n      tag_14\n      jump\t// in\n    tag_23:\n      tag_24\n      jump\t// in\n    tag_22:\n      mload(0x40)\n      tag_25\n      swap2\n      swap1\n      tag_11\n      jump\t// in\n    tag_25:\n      mload(0x40)\n      dup1\n      swap2\n      sub\n      swap1\n      return\n        /* \"array.sol\":445:524  function getFirst () public view returns (uint){... */\n    tag_9:\n        /* \"array.sol\":487:491  uint */\n      0x00\n        /* \"array.sol\":510:513  num */\n      dup1\n        /* \"array.sol\":514:515  0 */\n      0x00\n        /* \"array.sol\":510:516  num[0] */\n      dup2\n      sload\n      dup2\n      lt\n      tag_27\n      jumpi\n      tag_28\n      tag_29\n      jump\t// in\n    tag_28:\n    tag_27:\n      swap1\n      0x00\n      mstore\n      keccak256(0x00, 0x20)\n      add\n      sload\n        /* \"array.sol\":503:516  return num[0] */\n      swap1\n      pop\n        /* \"array.sol\":445:524  function getFirst () public view returns (uint){... */\n      swap1\n      jump\t// out\n        /* \"array.sol\":107:184  function addNumbers (uint _number) public{... */\n    tag_15:\n        /* \"array.sol\":159:162  num */\n      0x00\n        /* \"array.sol\":168:175  _number */\n      dup2\n        /* \"array.sol\":159:176  num.push(_number) */\n      swap1\n      dup1\n      0x01\n      dup2\n      sload\n      add\n      dup1\n      dup3\n      sstore\n      dup1\n      swap2\n      pop\n      pop\n      0x01\n      swap1\n      sub\n      swap1\n      0x00\n      mstore\n      keccak256(0x00, 0x20)\n      add\n      0x00\n      swap1\n      swap2\n      swap1\n      swap2\n      swap1\n      swap2\n      pop\n      sstore\n        /* \"array.sol\":107:184  function addNumbers (uint _number) public{... */\n      pop\n      jump\t// out\n        /* \"array.sol\":353:437  function getAll () public view returns (uint [] memory){... */\n    tag_17:\n        /* \"array.sol\":393:407  uint [] memory */\n      0x60\n        /* \"array.sol\":426:429  num */\n      0x00\n        /* \"array.sol\":419:429  return num */\n      dup1\n      sload\n      dup1\n      0x20\n      mul\n      0x20\n      add\n      mload(0x40)\n      swap1\n      dup2\n      add\n      0x40\n      mstore\n      dup1\n      swap3\n      swap2\n      swap1\n      dup2\n      dup2\n      mstore\n      0x20\n      add\n      dup3\n      dup1\n      sload\n      dup1\n      iszero\n      tag_34\n      jumpi\n      0x20\n      mul\n      dup3\n      add\n      swap2\n      swap1\n      0x00\n      mstore\n      keccak256(0x00, 0x20)\n      swap1\n    tag_35:\n      dup2\n      sload\n      dup2\n      mstore\n      0x20\n      add\n      swap1\n      0x01\n      add\n      swap1\n      dup1\n      dup4\n      gt\n      tag_35\n      jumpi\n    tag_34:\n      pop\n      pop\n      pop\n      pop\n      pop\n      swap1\n      pop\n        /* \"array.sol\":353:437  function getAll () public view returns (uint [] memory){... */\n      swap1\n      jump\t// out\n        /* \"array.sol\":532:587  function remove_Number() public{... */\n    tag_21:\n        /* \"array.sol\":574:577  num */\n      0x00\n        /* \"array.sol\":574:583  num.pop() */\n      dup1\n      sload\n      dup1\n      tag_37\n      jumpi\n      tag_38\n      tag_39\n      jump\t// in\n    tag_38:\n    tag_37:\n      0x01\n      swap1\n      sub\n      dup2\n      dup2\n      swap1\n      0x00\n      mstore\n      keccak256(0x00, 0x20)\n      add\n      0x00\n      swap1\n      sstore\n      swap1\n      sstore\n        /* \"array.sol\":532:587  function remove_Number() public{... */\n      jump\t// out\n        /* \"array.sol\":190:345  function getNumber(uint _index) public view returns (uint){... */\n    tag_24:\n        /* \"array.sol\":243:247  uint */\n      0x00\n        /* \"array.sol\":274:277  num */\n      dup1\n        /* \"array.sol\":274:284  num.length */\n      dup1\n      sload\n      swap1\n      pop\n        /* \"array.sol\":267:273  _index */\n      dup3\n        /* \"array.sol\":267:284  _index<num.length */\n      lt\n        /* \"array.sol\":259:308  require(_index<num.length,\"Index not listed yet\") */\n      tag_42\n      jumpi\n      mload(0x40)\n      0x08c379a000000000000000000000000000000000000000000000000000000000\n      dup2\n      mstore\n      0x04\n      add\n      tag_43\n      swap1\n      tag_44\n      jump\t// in\n    tag_43:\n      mload(0x40)\n      dup1\n      swap2\n      sub\n      swap1\n      revert\n    tag_42:\n        /* \"array.sol\":326:329  num */\n      0x00\n        /* \"array.sol\":330:336  _index */\n      dup3\n        /* \"array.sol\":326:337  num[_index] */\n      dup2\n      sload\n      dup2\n      lt\n      tag_45\n      jumpi\n      tag_46\n      tag_29\n      jump\t// in\n    tag_46:\n    tag_45:\n      swap1\n      0x00\n      mstore\n      keccak256(0x00, 0x20)\n      add\n      sload\n        /* \"array.sol\":319:337  return num[_index] */\n      swap1\n      pop\n        /* \"array.sol\":190:345  function getNumber(uint _index) public view returns (uint){... */\n      swap2\n      swap1\n      pop\n      jump\t// out\n        /* \"#utility.yul\":7:84   */\n    tag_48:\n        /* \"#utility.yul\":44:51   */\n      0x00\n        /* \"#utility.yul\":73:78   */\n      dup2\n        /* \"#utility.yul\":62:78   */\n      swap1\n      pop\n        /* \"#utility.yul\":7:84   */\n      swap2\n      swap1\n      pop\n      jump\t// out\n        /* \"#utility.yul\":90:208   */\n    tag_49:\n        /* \"#utility.yul\":177:201   */\n      tag_68\n        /* \"#utility.yul\":195:200   */\n      dup2\n        /* \"#utility.yul\":177:201   */\n      tag_48\n      jump\t// in\n    tag_68:\n        /* \"#utility.yul\":172:175   */\n      dup3\n        /* \"#utility.yul\":165:202   */\n      mstore\n        /* \"#utility.yul\":90:208   */\n      pop\n      pop\n      jump\t// out\n        /* \"#utility.yul\":214:436   */\n    tag_11:\n        /* \"#utility.yul\":307:311   */\n      0x00\n        /* \"#utility.yul\":345:347   */\n      0x20\n        /* \"#utility.yul\":334:343   */\n      dup3\n        /* \"#utility.yul\":330:348   */\n      add\n        /* \"#utility.yul\":322:348   */\n      swap1\n      pop\n        /* \"#utility.yul\":358:429   */\n      tag_70\n        /* \"#utility.yul\":426:427   */\n      0x00\n        /* \"#utility.yul\":415:424   */\n      dup4\n        /* \"#utility.yul\":411:428   */\n      add\n        /* \"#utility.yul\":402:408   */\n      dup5\n        /* \"#utility.yul\":358:429   */\n      tag_49\n      jump\t// in\n    tag_70:\n        /* \"#utility.yul\":214:436   */\n      swap3\n      swap2\n      pop\n      pop\n      jump\t// out\n        /* \"#utility.yul\":523:640   */\n    tag_51:\n        /* \"#utility.yul\":632:633   */\n      0x00\n        /* \"#utility.yul\":629:630   */\n      dup1\n        /* \"#utility.yul\":622:634   */\n      revert\n        /* \"#utility.yul\":769:891   */\n    tag_53:\n        /* \"#utility.yul\":842:866   */\n      tag_75\n        /* \"#utility.yul\":860:865   */\n      dup2\n        /* \"#utility.yul\":842:866   */\n      tag_48\n      jump\t// in\n    tag_75:\n        /* \"#utility.yul\":835:840   */\n      dup2\n        /* \"#utility.yul\":832:867   */\n      eq\n        /* \"#utility.yul\":822:885   */\n      tag_76\n      jumpi\n        /* \"#utility.yul\":881:882   */\n      0x00\n        /* \"#utility.yul\":878:879   */\n      dup1\n        /* \"#utility.yul\":871:883   */\n      revert\n        /* \"#utility.yul\":822:885   */\n    tag_76:\n        /* \"#utility.yul\":769:891   */\n      pop\n      jump\t// out\n        /* \"#utility.yul\":897:1036   */\n    tag_54:\n        /* \"#utility.yul\":943:948   */\n      0x00\n        /* \"#utility.yul\":981:987   */\n      dup2\n        /* \"#utility.yul\":968:988   */\n      calldataload\n        /* \"#utility.yul\":959:988   */\n      swap1\n      pop\n        /* \"#utility.yul\":997:1030   */\n      tag_78\n        /* \"#utility.yul\":1024:1029   */\n      dup2\n        /* \"#utility.yul\":997:1030   */\n      tag_53\n      jump\t// in\n    tag_78:\n        /* \"#utility.yul\":897:1036   */\n      swap3\n      swap2\n      pop\n      pop\n      jump\t// out\n        /* \"#utility.yul\":1042:1371   */\n    tag_14:\n        /* \"#utility.yul\":1101:1107   */\n      0x00\n        /* \"#utility.yul\":1150:1152   */\n      0x20\n        /* \"#utility.yul\":1138:1147   */\n      dup3\n        /* \"#utility.yul\":1129:1136   */\n      dup5\n        /* \"#utility.yul\":1125:1148   */\n      sub\n        /* \"#utility.yul\":1121:1153   */\n      slt\n        /* \"#utility.yul\":1118:1237   */\n      iszero\n      tag_80\n      jumpi\n        /* \"#utility.yul\":1156:1235   */\n      tag_81\n      tag_51\n      jump\t// in\n    tag_81:\n        /* \"#utility.yul\":1118:1237   */\n    tag_80:\n        /* \"#utility.yul\":1276:1277   */\n      0x00\n        /* \"#utility.yul\":1301:1354   */\n      tag_82\n        /* \"#utility.yul\":1346:1353   */\n      dup5\n        /* \"#utility.yul\":1337:1343   */\n      dup3\n        /* \"#utility.yul\":1326:1335   */\n      dup6\n        /* \"#utility.yul\":1322:1344   */\n      add\n        /* \"#utility.yul\":1301:1354   */\n      tag_54\n      jump\t// in\n    tag_82:\n        /* \"#utility.yul\":1291:1354   */\n      swap2\n      pop\n        /* \"#utility.yul\":1247:1364   */\n      pop\n        /* \"#utility.yul\":1042:1371   */\n      swap3\n      swap2\n      pop\n      pop\n      jump\t// out\n        /* \"#utility.yul\":1377:1491   */\n    tag_55:\n        /* \"#utility.yul\":1444:1450   */\n      0x00\n        /* \"#utility.yul\":1478:1483   */\n      dup2\n        /* \"#utility.yul\":1472:1484   */\n      mload\n        /* \"#utility.yul\":1462:1484   */\n      swap1\n      pop\n        /* \"#utility.yul\":1377:1491   */\n      swap2\n      swap1\n      pop\n      jump\t// out\n        /* \"#utility.yul\":1497:1681   */\n    tag_56:\n        /* \"#utility.yul\":1596:1607   */\n      0x00\n        /* \"#utility.yul\":1630:1636   */\n      dup3\n        /* \"#utility.yul\":1625:1628   */\n      dup3\n        /* \"#utility.yul\":1618:1637   */\n      mstore\n        /* \"#utility.yul\":1670:1674   */\n      0x20\n        /* \"#utility.yul\":1665:1668   */\n      dup3\n        /* \"#utility.yul\":1661:1675   */\n      add\n        /* \"#utility.yul\":1646:1675   */\n      swap1\n      pop\n        /* \"#utility.yul\":1497:1681   */\n      swap3\n      swap2\n      pop\n      pop\n      jump\t// out\n        /* \"#utility.yul\":1687:1819   */\n    tag_57:\n        /* \"#utility.yul\":1754:1758   */\n      0x00\n        /* \"#utility.yul\":1777:1780   */\n      dup2\n        /* \"#utility.yul\":1769:1780   */\n      swap1\n      pop\n        /* \"#utility.yul\":1807:1811   */\n      0x20\n        /* \"#utility.yul\":1802:1805   */\n      dup3\n        /* \"#utility.yul\":1798:1812   */\n      add\n        /* \"#utility.yul\":1790:1812   */\n      swap1\n      pop\n        /* \"#utility.yul\":1687:1819   */\n      swap2\n      swap1\n      pop\n      jump\t// out\n        /* \"#utility.yul\":1825:1933   */\n    tag_58:\n        /* \"#utility.yul\":1902:1926   */\n      tag_87\n        /* \"#utility.yul\":1920:1925   */\n      dup2\n        /* \"#utility.yul\":1902:1926   */\n      tag_48\n      jump\t// in\n    tag_87:\n        /* \"#utility.yul\":1897:1900   */\n      dup3\n        /* \"#utility.yul\":1890:1927   */\n      mstore\n        /* \"#utility.yul\":1825:1933   */\n      pop\n      pop\n      jump\t// out\n        /* \"#utility.yul\":1939:2118   */\n    tag_59:\n        /* \"#utility.yul\":2008:2018   */\n      0x00\n        /* \"#utility.yul\":2029:2075   */\n      tag_89\n        /* \"#utility.yul\":2071:2074   */\n      dup4\n        /* \"#utility.yul\":2063:2069   */\n      dup4\n        /* \"#utility.yul\":2029:2075   */\n      tag_58\n      jump\t// in\n    tag_89:\n        /* \"#utility.yul\":2107:2111   */\n      0x20\n        /* \"#utility.yul\":2102:2105   */\n      dup4\n        /* \"#utility.yul\":2098:2112   */\n      add\n        /* \"#utility.yul\":2084:2112   */\n      swap1\n      pop\n        /* \"#utility.yul\":1939:2118   */\n      swap3\n      swap2\n      pop\n      pop\n      jump\t// out\n        /* \"#utility.yul\":2124:2237   */\n    tag_60:\n        /* \"#utility.yul\":2194:2198   */\n      0x00\n        /* \"#utility.yul\":2226:2230   */\n      0x20\n        /* \"#utility.yul\":2221:2224   */\n      dup3\n        /* \"#utility.yul\":2217:2231   */\n      add\n        /* \"#utility.yul\":2209:2231   */\n      swap1\n      pop\n        /* \"#utility.yul\":2124:2237   */\n      swap2\n      swap1\n      pop\n      jump\t// out\n        /* \"#utility.yul\":2273:3005   */\n    tag_61:\n        /* \"#utility.yul\":2392:2395   */\n      0x00\n        /* \"#utility.yul\":2421:2475   */\n      tag_92\n        /* \"#utility.yul\":2469:2474   */\n      dup3\n        /* \"#utility.yul\":2421:2475   */\n      tag_55\n      jump\t// in\n    tag_92:\n        /* \"#utility.yul\":2491:2577   */\n      tag_93\n        /* \"#utility.yul\":2570:2576   */\n      dup2\n        /* \"#utility.yul\":2565:2568   */\n      dup6\n        /* \"#utility.yul\":2491:2577   */\n      tag_56\n      jump\t// in\n    tag_93:\n        /* \"#utility.yul\":2484:2577   */\n      swap4\n      pop\n        /* \"#utility.yul\":2601:2657   */\n      tag_94\n        /* \"#utility.yul\":2651:2656   */\n      dup4\n        /* \"#utility.yul\":2601:2657   */\n      tag_57\n      jump\t// in\n    tag_94:\n        /* \"#utility.yul\":2680:2687   */\n      dup1\n        /* \"#utility.yul\":2711:2712   */\n      0x00\n        /* \"#utility.yul\":2696:2980   */\n    tag_95:\n        /* \"#utility.yul\":2721:2727   */\n      dup4\n        /* \"#utility.yul\":2718:2719   */\n      dup2\n        /* \"#utility.yul\":2715:2728   */\n      lt\n        /* \"#utility.yul\":2696:2980   */\n      iszero\n      tag_97\n      jumpi\n        /* \"#utility.yul\":2797:2803   */\n      dup2\n        /* \"#utility.yul\":2791:2804   */\n      mload\n        /* \"#utility.yul\":2824:2887   */\n      tag_98\n        /* \"#utility.yul\":2883:2886   */\n      dup9\n        /* \"#utility.yul\":2868:2881   */\n      dup3\n        /* \"#utility.yul\":2824:2887   */\n      tag_59\n      jump\t// in\n    tag_98:\n        /* \"#utility.yul\":2817:2887   */\n      swap8\n      pop\n        /* \"#utility.yul\":2910:2970   */\n      tag_99\n        /* \"#utility.yul\":2963:2969   */\n      dup4\n        /* \"#utility.yul\":2910:2970   */\n      tag_60\n      jump\t// in\n    tag_99:\n        /* \"#utility.yul\":2900:2970   */\n      swap3\n      pop\n        /* \"#utility.yul\":2756:2980   */\n      pop\n        /* \"#utility.yul\":2743:2744   */\n      0x01\n        /* \"#utility.yul\":2740:2741   */\n      dup2\n        /* \"#utility.yul\":2736:2745   */\n      add\n        /* \"#utility.yul\":2731:2745   */\n      swap1\n      pop\n        /* \"#utility.yul\":2696:2980   */\n      jump(tag_95)\n    tag_97:\n        /* \"#utility.yul\":2700:2714   */\n      pop\n        /* \"#utility.yul\":2996:2999   */\n      dup6\n        /* \"#utility.yul\":2989:2999   */\n      swap4\n      pop\n        /* \"#utility.yul\":2397:3005   */\n      pop\n      pop\n      pop\n        /* \"#utility.yul\":2273:3005   */\n      swap3\n      swap2\n      pop\n      pop\n      jump\t// out\n        /* \"#utility.yul\":3011:3384   */\n    tag_19:\n        /* \"#utility.yul\":3154:3158   */\n      0x00\n        /* \"#utility.yul\":3192:3194   */\n      0x20\n        /* \"#utility.yul\":3181:3190   */\n      dup3\n        /* \"#utility.yul\":3177:3195   */\n      add\n        /* \"#utility.yul\":3169:3195   */\n      swap1\n      pop\n        /* \"#utility.yul\":3241:3250   */\n      dup2\n        /* \"#utility.yul\":3235:3239   */\n      dup2\n        /* \"#utility.yul\":3231:3251   */\n      sub\n        /* \"#utility.yul\":3227:3228   */\n      0x00\n        /* \"#utility.yul\":3216:3225   */\n      dup4\n        /* \"#utility.yul\":3212:3229   */\n      add\n        /* \"#utility.yul\":3205:3252   */\n      mstore\n        /* \"#utility.yul\":3269:3377   */\n      tag_101\n        /* \"#utility.yul\":3372:3376   */\n      dup2\n        /* \"#utility.yul\":3363:3369   */\n      dup5\n        /* \"#utility.yul\":3269:3377   */\n      tag_61\n      jump\t// in\n    tag_101:\n        /* \"#utility.yul\":3261:3377   */\n      swap1\n      pop\n        /* \"#utility.yul\":3011:3384   */\n      swap3\n      swap2\n      pop\n      pop\n      jump\t// out\n        /* \"#utility.yul\":3390:3570   */\n    tag_29:\n        /* \"#utility.yul\":3438:3515   */\n      0x4e487b7100000000000000000000000000000000000000000000000000000000\n        /* \"#utility.yul\":3435:3436   */\n      0x00\n        /* \"#utility.yul\":3428:3516   */\n      mstore\n        /* \"#utility.yul\":3535:3539   */\n      0x32\n        /* \"#utility.yul\":3532:3533   */\n      0x04\n        /* \"#utility.yul\":3525:3540   */\n      mstore\n        /* \"#utility.yul\":3559:3563   */\n      0x24\n        /* \"#utility.yul\":3556:3557   */\n      0x00\n        /* \"#utility.yul\":3549:3564   */\n      revert\n        /* \"#utility.yul\":3576:3756   */\n    tag_39:\n        /* \"#utility.yul\":3624:3701   */\n      0x4e487b7100000000000000000000000000000000000000000000000000000000\n        /* \"#utility.yul\":3621:3622   */\n      0x00\n        /* \"#utility.yul\":3614:3702   */\n      mstore\n        /* \"#utility.yul\":3721:3725   */\n      0x31\n        /* \"#utility.yul\":3718:3719   */\n      0x04\n        /* \"#utility.yul\":3711:3726   */\n      mstore\n        /* \"#utility.yul\":3745:3749   */\n      0x24\n        /* \"#utility.yul\":3742:3743   */\n      0x00\n        /* \"#utility.yul\":3735:3750   */\n      revert\n        /* \"#utility.yul\":3762:3931   */\n    tag_62:\n        /* \"#utility.yul\":3846:3857   */\n      0x00\n        /* \"#utility.yul\":3880:3886   */\n      dup3\n        /* \"#utility.yul\":3875:3878   */\n      dup3\n        /* \"#utility.yul\":3868:3887   */\n      mstore\n        /* \"#utility.yul\":3920:3924   */\n      0x20\n        /* \"#utility.yul\":3915:3918   */\n      dup3\n        /* \"#utility.yul\":3911:3925   */\n      add\n        /* \"#utility.yul\":3896:3925   */\n      swap1\n      pop\n        /* \"#utility.yul\":3762:3931   */\n      swap3\n      swap2\n      pop\n      pop\n      jump\t// out\n        /* \"#utility.yul\":3937:4107   */\n    tag_63:\n        /* \"#utility.yul\":4077:4099   */\n      0x496e646578206e6f74206c697374656420796574000000000000000000000000\n        /* \"#utility.yul\":4073:4074   */\n      0x00\n        /* \"#utility.yul\":4065:4071   */\n      dup3\n        /* \"#utility.yul\":4061:4075   */\n      add\n        /* \"#utility.yul\":4054:4100   */\n      mstore\n        /* \"#utility.yul\":3937:4107   */\n      pop\n      jump\t// out\n        /* \"#utility.yul\":4113:4479   */\n    tag_64:\n        /* \"#utility.yul\":4255:4258   */\n      0x00\n        /* \"#utility.yul\":4276:4343   */\n      tag_107\n        /* \"#utility.yul\":4340:4342   */\n      0x14\n        /* \"#utility.yul\":4335:4338   */\n      dup4\n        /* \"#utility.yul\":4276:4343   */\n      tag_62\n      jump\t// in\n    tag_107:\n        /* \"#utility.yul\":4269:4343   */\n      swap2\n      pop\n        /* \"#utility.yul\":4352:4445   */\n      tag_108\n        /* \"#utility.yul\":4441:4444   */\n      dup3\n        /* \"#utility.yul\":4352:4445   */\n      tag_63\n      jump\t// in\n    tag_108:\n        /* \"#utility.yul\":4470:4472   */\n      0x20\n        /* \"#utility.yul\":4465:4468   */\n      dup3\n        /* \"#utility.yul\":4461:4473   */\n      add\n        /* \"#utility.yul\":4454:4473   */\n      swap1\n      pop\n        /* \"#utility.yul\":4113:4479   */\n      swap2\n      swap1\n      pop\n      jump\t// out\n        /* \"#utility.yul\":4485:4904   */\n    tag_44:\n        /* \"#utility.yul\":4651:4655   */\n      0x00\n        /* \"#utility.yul\":4689:4691   */\n      0x20\n        /* \"#utility.yul\":4678:4687   */\n      dup3\n        /* \"#utility.yul\":4674:4692   */\n      add\n        /* \"#utility.yul\":4666:4692   */\n      swap1\n      pop\n        /* \"#utility.yul\":4738:4747   */\n      dup2\n        /* \"#utility.yul\":4732:4736   */\n      dup2\n        /* \"#utility.yul\":4728:4748   */\n      sub\n        /* \"#utility.yul\":4724:4725   */\n      0x00\n        /* \"#utility.yul\":4713:4722   */\n      dup4\n        /* \"#utility.yul\":4709:4726   */\n      add\n        /* \"#utility.yul\":4702:4749   */\n      mstore\n        /* \"#utility.yul\":4766:4897   */\n      tag_110\n        /* \"#utility.yul\":4892:4896   */\n      dup2\n        /* \"#utility.yul\":4766:4897   */\n      tag_64\n      jump\t// in\n    tag_110:\n        /* \"#utility.yul\":4758:4897   */\n      swap1\n      pop\n        /* \"#utility.yul\":4485:4904   */\n      swap2\n      swap1\n      pop\n      jump\t// out\n\n    auxdata: 0xa2646970667358221220f770c1eb1dad87bef6f1b8d798b5e559aaaeb29d5ede817d0cd92f9d70caf79764736f6c63430008120033\n}\n",
				"bytecode": {
					"linkReferences": {},
					"object": "608060405234801561001057600080fd5b506104b3806100206000396000f3fe608060405234801561001057600080fd5b50600436106100575760003560e01c80631e2231431461005c5780632be559981461007a57806353ed5143146100965780637ace175a146100b4578063fc563658146100be575b600080fd5b6100646100ee565b6040516100719190610249565b60405180910390f35b610094600480360381019061008f9190610295565b610114565b005b61009e610140565b6040516100ab9190610380565b60405180910390f35b6100bc610198565b005b6100d860048036038101906100d39190610295565b6101c2565b6040516100e59190610249565b60405180910390f35b600080600081548110610104576101036103a2565b5b9060005260206000200154905090565b600081908060018154018082558091505060019003906000526020600020016000909190919091505550565b6060600080548060200260200160405190810160405280929190818152602001828054801561018e57602002820191906000526020600020905b81548152602001906001019080831161017a575b5050505050905090565b60008054806101aa576101a96103d1565b5b60019003818190600052602060002001600090559055565b60008080549050821061020a576040517f08c379a00000000000000000000000000000000000000000000000000000000081526004016102019061045d565b60405180910390fd5b6000828154811061021e5761021d6103a2565b5b90600052602060002001549050919050565b6000819050919050565b61024381610230565b82525050565b600060208201905061025e600083018461023a565b92915050565b600080fd5b61027281610230565b811461027d57600080fd5b50565b60008135905061028f81610269565b92915050565b6000602082840312156102ab576102aa610264565b5b60006102b984828501610280565b91505092915050565b600081519050919050565b600082825260208201905092915050565b6000819050602082019050919050565b6102f781610230565b82525050565b600061030983836102ee565b60208301905092915050565b6000602082019050919050565b600061032d826102c2565b61033781856102cd565b9350610342836102de565b8060005b8381101561037357815161035a88826102fd565b975061036583610315565b925050600181019050610346565b5085935050505092915050565b6000602082019050818103600083015261039a8184610322565b905092915050565b7f4e487b7100000000000000000000000000000000000000000000000000000000600052603260045260246000fd5b7f4e487b7100000000000000000000000000000000000000000000000000000000600052603160045260246000fd5b600082825260208201905092915050565b7f496e646578206e6f74206c697374656420796574000000000000000000000000600082015250565b6000610447601483610400565b915061045282610411565b602082019050919050565b600060208201905081810360008301526104768161043a565b905091905056fea2646970667358221220f770c1eb1dad87bef6f1b8d798b5e559aaaeb29d5ede817d0cd92f9d70caf79764736f6c63430008120033",
					"opcodes": "PUSH1 0x80 PUSH1 0x40 MSTORE CALLVALUE DUP1 ISZERO PUSH2 0x10 JUMPI PUSH1 0x0 DUP1 REVERT JUMPDEST POP PUSH2 0x4B3 DUP1 PUSH2 0x20 PUSH1 0x0 CODECOPY PUSH1 0x0 RETURN INVALID PUSH1 0x80 PUSH1 0x40 MSTORE CALLVALUE DUP1 ISZERO PUSH2 0x10 JUMPI PUSH1 0x0 DUP1 REVERT JUMPDEST POP PUSH1 0x4 CALLDATASIZE LT PUSH2 0x57 JUMPI PUSH1 0x0 CALLDATALOAD PUSH1 0xE0 SHR DUP1 PUSH4 0x1E223143 EQ PUSH2 0x5C JUMPI DUP1 PUSH4 0x2BE55998 EQ PUSH2 0x7A JUMPI DUP1 PUSH4 0x53ED5143 EQ PUSH2 0x96 JUMPI DUP1 PUSH4 0x7ACE175A EQ PUSH2 0xB4 JUMPI DUP1 PUSH4 0xFC563658 EQ PUSH2 0xBE JUMPI JUMPDEST PUSH1 0x0 DUP1 REVERT JUMPDEST PUSH2 0x64 PUSH2 0xEE JUMP JUMPDEST PUSH1 0x40 MLOAD PUSH2 0x71 SWAP2 SWAP1 PUSH2 0x249 JUMP JUMPDEST PUSH1 0x40 MLOAD DUP1 SWAP2 SUB SWAP1 RETURN JUMPDEST PUSH2 0x94 PUSH1 0x4 DUP1 CALLDATASIZE SUB DUP2 ADD SWAP1 PUSH2 0x8F SWAP2 SWAP1 PUSH2 0x295 JUMP JUMPDEST PUSH2 0x114 JUMP JUMPDEST STOP JUMPDEST PUSH2 0x9E PUSH2 0x140 JUMP JUMPDEST PUSH1 0x40 MLOAD PUSH2 0xAB SWAP2 SWAP1 PUSH2 0x380 JUMP JUMPDEST PUSH1 0x40 MLOAD DUP1 SWAP2 SUB SWAP1 RETURN JUMPDEST PUSH2 0xBC PUSH2 0x198 JUMP JUMPDEST STOP JUMPDEST PUSH2 0xD8 PUSH1 0x4 DUP1 CALLDATASIZE SUB DUP2 ADD SWAP1 PUSH2 0xD3 SWAP2 SWAP1 PUSH2 0x295 JUMP JUMPDEST PUSH2 0x1C2 JUMP JUMPDEST PUSH1 0x40 MLOAD PUSH2 0xE5 SWAP2 SWAP1 PUSH2 0x249 JUMP JUMPDEST PUSH1 0x40 MLOAD DUP1 SWAP2 SUB SWAP1 RETURN JUMPDEST PUSH1 0x0 DUP1 PUSH1 0x0 DUP2 SLOAD DUP2 LT PUSH2 0x104 JUMPI PUSH2 0x103 PUSH2 0x3A2 JUMP JUMPDEST JUMPDEST SWAP1 PUSH1 0x0 MSTORE PUSH1 0x20 PUSH1 0x0 KECCAK256 ADD SLOAD SWAP1 POP SWAP1 JUMP JUMPDEST PUSH1 0x0 DUP2 SWAP1 DUP1 PUSH1 0x1 DUP2 SLOAD ADD DUP1 DUP3 SSTORE DUP1 SWAP2 POP POP PUSH1 0x1 SWAP1 SUB SWAP1 PUSH1 0x0 MSTORE PUSH1 0x20 PUSH1 0x0 KECCAK256 ADD PUSH1 0x0 SWAP1 SWAP2 SWAP1 SWAP2 SWAP1 SWAP2 POP SSTORE POP JUMP JUMPDEST PUSH1 0x60 PUSH1 0x0 DUP1 SLOAD DUP1 PUSH1 0x20 MUL PUSH1 0x20 ADD PUSH1 0x40 MLOAD SWAP1 DUP2 ADD PUSH1 0x40 MSTORE DUP1 SWAP3 SWAP2 SWAP1 DUP2 DUP2 MSTORE PUSH1 0x20 ADD DUP3 DUP1 SLOAD DUP1 ISZERO PUSH2 0x18E JUMPI PUSH1 0x20 MUL DUP3 ADD SWAP2 SWAP1 PUSH1 0x0 MSTORE PUSH1 0x20 PUSH1 0x0 KECCAK256 SWAP1 JUMPDEST DUP2 SLOAD DUP2 MSTORE PUSH1 0x20 ADD SWAP1 PUSH1 0x1 ADD SWAP1 DUP1 DUP4 GT PUSH2 0x17A JUMPI JUMPDEST POP POP POP POP POP SWAP1 POP SWAP1 JUMP JUMPDEST PUSH1 0x0 DUP1 SLOAD DUP1 PUSH2 0x1AA JUMPI PUSH2 0x1A9 PUSH2 0x3D1 JUMP JUMPDEST JUMPDEST PUSH1 0x1 SWAP1 SUB DUP2 DUP2 SWAP1 PUSH1 0x0 MSTORE PUSH1 0x20 PUSH1 0x0 KECCAK256 ADD PUSH1 0x0 SWAP1 SSTORE SWAP1 SSTORE JUMP JUMPDEST PUSH1 0x0 DUP1 DUP1 SLOAD SWAP1 POP DUP3 LT PUSH2 0x20A JUMPI PUSH1 0x40 MLOAD PUSH32 0x8C379A000000000000000000000000000000000000000000000000000000000 DUP2 MSTORE PUSH1 0x4 ADD PUSH2 0x201 SWAP1 PUSH2 0x45D JUMP JUMPDEST PUSH1 0x40 MLOAD DUP1 SWAP2 SUB SWAP1 REVERT JUMPDEST PUSH1 0x0 DUP3 DUP2 SLOAD DUP2 LT PUSH2 0x21E JUMPI PUSH2 0x21D PUSH2 0x3A2 JUMP JUMPDEST JUMPDEST SWAP1 PUSH1 0x0 MSTORE PUSH1 0x20 PUSH1 0x0 KECCAK256 ADD SLOAD SWAP1 POP SWAP2 SWAP1 POP JUMP JUMPDEST PUSH1 0x0 DUP2 SWAP1 POP SWAP2 SWAP1 POP JUMP JUMPDEST PUSH2 0x243 DUP2 PUSH2 0x230 JUMP JUMPDEST DUP3 MSTORE POP POP JUMP JUMPDEST PUSH1 0x0 PUSH1 0x20 DUP3 ADD SWAP1 POP PUSH2 0x25E PUSH1 0x0 DUP4 ADD DUP5 PUSH2 0x23A JUMP JUMPDEST SWAP3 SWAP2 POP POP JUMP JUMPDEST PUSH1 0x0 DUP1 REVERT JUMPDEST PUSH2 0x272 DUP2 PUSH2 0x230 JUMP JUMPDEST DUP2 EQ PUSH2 0x27D JUMPI PUSH1 0x0 DUP1 REVERT JUMPDEST POP JUMP JUMPDEST PUSH1 0x0 DUP2 CALLDATALOAD SWAP1 POP PUSH2 0x28F DUP2 PUSH2 0x269 JUMP JUMPDEST SWAP3 SWAP2 POP POP JUMP JUMPDEST PUSH1 0x0 PUSH1 0x20 DUP3 DUP5 SUB SLT ISZERO PUSH2 0x2AB JUMPI PUSH2 0x2AA PUSH2 0x264 JUMP JUMPDEST JUMPDEST PUSH1 0x0 PUSH2 0x2B9 DUP5 DUP3 DUP6 ADD PUSH2 0x280 JUMP JUMPDEST SWAP2 POP POP SWAP3 SWAP2 POP POP JUMP JUMPDEST PUSH1 0x0 DUP2 MLOAD SWAP1 POP SWAP2 SWAP1 POP JUMP JUMPDEST PUSH1 0x0 DUP3 DUP3 MSTORE PUSH1 0x20 DUP3 ADD SWAP1 POP SWAP3 SWAP2 POP POP JUMP JUMPDEST PUSH1 0x0 DUP2 SWAP1 POP PUSH1 0x20 DUP3 ADD SWAP1 POP SWAP2 SWAP1 POP JUMP JUMPDEST PUSH2 0x2F7 DUP2 PUSH2 0x230 JUMP JUMPDEST DUP3 MSTORE POP POP JUMP JUMPDEST PUSH1 0x0 PUSH2 0x309 DUP4 DUP4 PUSH2 0x2EE JUMP JUMPDEST PUSH1 0x20 DUP4 ADD SWAP1 POP SWAP3 SWAP2 POP POP JUMP JUMPDEST PUSH1 0x0 PUSH1 0x20 DUP3 ADD SWAP1 POP SWAP2 SWAP1 POP JUMP JUMPDEST PUSH1 0x0 PUSH2 0x32D DUP3 PUSH2 0x2C2 JUMP JUMPDEST PUSH2 0x337 DUP2 DUP6 PUSH2 0x2CD JUMP JUMPDEST SWAP4 POP PUSH2 0x342 DUP4 PUSH2 0x2DE JUMP JUMPDEST DUP1 PUSH1 0x0 JUMPDEST DUP4 DUP2 LT ISZERO PUSH2 0x373 JUMPI DUP2 MLOAD PUSH2 0x35A DUP9 DUP3 PUSH2 0x2FD JUMP JUMPDEST SWAP8 POP PUSH2 0x365 DUP4 PUSH2 0x315 JUMP JUMPDEST SWAP3 POP POP PUSH1 0x1 DUP2 ADD SWAP1 POP PUSH2 0x346 JUMP JUMPDEST POP DUP6 SWAP4 POP POP POP POP SWAP3 SWAP2 POP POP JUMP JUMPDEST PUSH1 0x0 PUSH1 0x20 DUP3 ADD SWAP1 POP DUP2 DUP2 SUB PUSH1 0x0 DUP4 ADD MSTORE PUSH2 0x39A DUP2 DUP5 PUSH2 0x322 JUMP JUMPDEST SWAP1 POP SWAP3 SWAP2 POP POP JUMP JUMPDEST PUSH32 0x4E487B7100000000000000000000000000000000000000000000000000000000 PUSH1 0x0 MSTORE PUSH1 0x32 PUSH1 0x4 MSTORE PUSH1 0x24 PUSH1 0x0 REVERT JUMPDEST PUSH32 0x4E487B7100000000000000000000000000000000000000000000000000000000 PUSH1 0x0 MSTORE PUSH1 0x31 PUSH1 0x4 MSTORE PUSH1 0x24 PUSH1 0x0 REVERT JUMPDEST PUSH1 0x0 DUP3 DUP3 MSTORE PUSH1 0x20 DUP3 ADD SWAP1 POP SWAP3 SWAP2 POP POP JUMP JUMPDEST PUSH32 0x496E646578206E6F74206C697374656420796574000000000000000000000000 PUSH1 0x0 DUP3 ADD MSTORE POP JUMP JUMPDEST PUSH1 0x0 PUSH2 0x447 PUSH1 0x14 DUP4 PUSH2 0x400 JUMP JUMPDEST SWAP2 POP PUSH2 0x452 DUP3 PUSH2 0x411 JUMP JUMPDEST PUSH1 0x20 DUP3 ADD SWAP1 POP SWAP2 SWAP1 POP JUMP JUMPDEST PUSH1 0x0 PUSH1 0x20 DUP3 ADD SWAP1 POP DUP2 DUP2 SUB PUSH1 0x0 DUP4 ADD MSTORE PUSH2 0x476 DUP2 PUSH2 0x43A JUMP JUMPDEST SWAP1 POP SWAP2 SWAP1 POP JUMP INVALID LOG2 PUSH5 0x6970667358 0x22 SLT KECCAK256 0xF7 PUSH17 0xC1EB1DAD87BEF6F1B8D798B5E559AAAEB2 SWAP14 0x5E 0xDE DUP2 PUSH30 0xCD92F9D70CAF79764736F6C634300081200330000000000000000000000 "
				},
				"gasEstimates": {
					"creation": {
						"codeDepositCost": "240600",
						"executionCost": "281",
						"totalCost": "240881"
					},
					"external": {
						"addNumbers(uint256)": "46829",
						"getAll()": "infinite",
						"getFirst()": "4595",
						"getNumber(uint256)": "infinite",
						"remove_Number()": "29489"
					}
				},
				"methodIdentifiers": {
					"addNumbers(uint256)": "2be55998",
					"getAll()": "53ed5143",
					"getFirst()": "1e223143",
					"getNumber(uint256)": "fc563658",
					"remove_Number()": "7ace175a"
				}
			},
			"storageLayout": {
				"storage": [
					{
						"astId": 4,
						"contract": "array.sol:SimpleArray",
						"label": "num",
						"offset": 0,
						"slot": "0",
						"type": "t_array(t_uint256)dyn_storage"
					}
				],
				"types": {
					"t_array(t_uint256)dyn_storage": {
						"base": "t_uint256",
						"encoding": "dynamic_array",
						"label": "uint256[]",
						"numberOfBytes": "32"
					},
					"t_uint256": {
						"encoding": "inplace",
						"label": "uint256",
						"numberOfBytes": "32"
					}
				}
			},
			"userdoc": {
				"kind": "user",
				"methods": {},
				"version": 1
			}
		}
	}
}