{
	"user_inheritance.sol": {
		"User": {
			"abi": [
				{
					"inputs": [],
					"name": "email",
					"outputs": [
						{
							"internalType": "string",
							"name": "",
							"type": "string"
						}
					],
					"stateMutability": "view",
					"type": "function"
				},
				{
					"inputs": [],
					"name": "message",
					"outputs": [
						{
							"internalType": "string",
							"name": "",
							"type": "string"
						}
					],
					"stateMutability": "view",
					"type": "function"
				},
				{
					"inputs": [
						{
							"internalType": "string",
							"name": "_email",
							"type": "string"
						},
						{
							"internalType": "string",
							"name": "_message",
							"type": "string"
						}
					],
					"name": "set_content",
					"outputs": [],
					"stateMutability": "nonpayable",
					"type": "function"
				}
			],
			"devdoc": {
				"kind": "dev",
				"methods": {},
				"version": 1
			},
			"evm": {
				"assembly": "    /* \"user_inheritance.sol\":60:276  contract User{... */\n  mstore(0x40, 0x80)\n  callvalue\n  dup1\n  iszero\n  tag_1\n  jumpi\n  0x00\n  dup1\n  revert\ntag_1:\n  pop\n  dataSize(sub_0)\n  dup1\n  dataOffset(sub_0)\n  0x00\n  codecopy\n  0x00\n  return\nstop\n\nsub_0: assembly {\n        /* \"user_inheritance.sol\":60:276  contract User{... */\n      mstore(0x40, 0x80)\n      callvalue\n      dup1\n      iszero\n      tag_1\n      jumpi\n      0x00\n      dup1\n      revert\n    tag_1:\n      pop\n      jumpi(tag_2, lt(calldatasize, 0x04))\n      shr(0xe0, calldataload(0x00))\n      dup1\n      0x6f6e678e\n      eq\n      tag_3\n      jumpi\n      dup1\n      0x820e93f5\n      eq\n      tag_4\n      jumpi\n      dup1\n      0xe21f37ce\n      eq\n      tag_5\n      jumpi\n    tag_2:\n      0x00\n      dup1\n      revert\n        /* \"user_inheritance.sol\":136:272  function set_content(string memory _email, string memory _message) public {... */\n    tag_3:\n      tag_6\n      0x04\n      dup1\n      calldatasize\n      sub\n      dup2\n      add\n      swap1\n      tag_7\n      swap2\n      swap1\n      tag_8\n      jump\t// in\n    tag_7:\n      tag_9\n      jump\t// in\n    tag_6:\n      stop\n        /* \"user_inheritance.sol\":80:99  string public email */\n    tag_4:\n      tag_10\n      tag_11\n      jump\t// in\n    tag_10:\n      mload(0x40)\n      tag_12\n      swap2\n      swap1\n      tag_13\n      jump\t// in\n    tag_12:\n      mload(0x40)\n      dup1\n      swap2\n      sub\n      swap1\n      return\n        /* \"user_inheritance.sol\":106:127  string public message */\n    tag_5:\n      tag_14\n      tag_15\n      jump\t// in\n    tag_14:\n      mload(0x40)\n      tag_16\n      swap2\n      swap1\n      tag_13\n      jump\t// in\n    tag_16:\n      mload(0x40)\n      dup1\n      swap2\n      sub\n      swap1\n      return\n        /* \"user_inheritance.sol\":136:272  function set_content(string memory _email, string memory _message) public {... */\n    tag_9:\n        /* \"user_inheritance.sol\":229:235  _email */\n      dup2\n        /* \"user_inheritance.sol\":221:226  email */\n      0x00\n        /* \"user_inheritance.sol\":221:235  email = _email */\n      swap1\n      dup2\n      tag_18\n      swap2\n      swap1\n      tag_19\n      jump\t// in\n    tag_18:\n      pop\n        /* \"user_inheritance.sol\":256:264  _message */\n      dup1\n        /* \"user_inheritance.sol\":246:253  message */\n      0x01\n        /* \"user_inheritance.sol\":246:264  message = _message */\n      swap1\n      dup2\n      tag_20\n      swap2\n      swap1\n      tag_19\n      jump\t// in\n    tag_20:\n      pop\n        /* \"user_inheritance.sol\":136:272  function set_content(string memory _email, string memory _message) public {... */\n      pop\n      pop\n      jump\t// out\n        /* \"user_inheritance.sol\":80:99  string public email */\n    tag_11:\n      0x00\n      dup1\n      sload\n      tag_21\n      swap1\n      tag_22\n      jump\t// in\n    tag_21:\n      dup1\n      0x1f\n      add\n      0x20\n      dup1\n      swap2\n      div\n      mul\n      0x20\n      add\n      mload(0x40)\n      swap1\n      dup2\n      add\n      0x40\n      mstore\n      dup1\n      swap3\n      swap2\n      swap1\n      dup2\n      dup2\n      mstore\n      0x20\n      add\n      dup3\n      dup1\n      sload\n      tag_23\n      swap1\n      tag_22\n      jump\t// in\n    tag_23:\n      dup1\n      iszero\n      tag_24\n      jumpi\n      dup1\n      0x1f\n      lt\n      tag_25\n      jumpi\n      0x0100\n      dup1\n      dup4\n      sload\n      div\n      mul\n      dup4\n      mstore\n      swap2\n      0x20\n      add\n      swap2\n      jump(tag_24)\n    tag_25:\n      dup3\n      add\n      swap2\n      swap1\n      0x00\n      mstore\n      keccak256(0x00, 0x20)\n      swap1\n    tag_26:\n      dup2\n      sload\n      dup2\n      mstore\n      swap1\n      0x01\n      add\n      swap1\n      0x20\n      add\n      dup1\n      dup4\n      gt\n      tag_26\n      jumpi\n      dup3\n      swap1\n      sub\n      0x1f\n      and\n      dup3\n      add\n      swap2\n    tag_24:\n      pop\n      pop\n      pop\n      pop\n      pop\n      dup2\n      jump\t// out\n        /* \"user_inheritance.sol\":106:127  string public message */\n    tag_15:\n      0x01\n      dup1\n      sload\n      tag_27\n      swap1\n      tag_22\n      jump\t// in\n    tag_27:\n      dup1\n      0x1f\n      add\n      0x20\n      dup1\n      swap2\n      div\n      mul\n      0x20\n      add\n      mload(0x40)\n      swap1\n      dup2\n      add\n      0x40\n      mstore\n      dup1\n      swap3\n      swap2\n      swap1\n      dup2\n      dup2\n      mstore\n      0x20\n      add\n      dup3\n      dup1\n      sload\n      tag_28\n      swap1\n      tag_22\n      jump\t// in\n    tag_28:\n      dup1\n      iszero\n      tag_29\n      jumpi\n      dup1\n      0x1f\n      lt\n      tag_30\n      jumpi\n      0x0100\n      dup1\n      dup4\n      sload\n      div\n      mul\n      dup4\n      mstore\n      swap2\n      0x20\n      add\n      swap2\n      jump(tag_29)\n    tag_30:\n      dup3\n      add\n      swap2\n      swap1\n      0x00\n      mstore\n      keccak256(0x00, 0x20)\n      swap1\n    tag_31:\n      dup2\n      sload\n      dup2\n      mstore\n      swap1\n      0x01\n      add\n      swap1\n      0x20\n      add\n      dup1\n      dup4\n      gt\n      tag_31\n      jumpi\n      dup3\n      swap1\n      sub\n      0x1f\n      and\n      dup3\n      add\n      swap2\n    tag_29:\n      pop\n      pop\n      pop\n      pop\n      pop\n      dup2\n      jump\t// out\n        /* \"#utility.yul\":7:82   */\n    tag_32:\n        /* \"#utility.yul\":40:46   */\n      0x00\n        /* \"#utility.yul\":73:75   */\n      0x40\n        /* \"#utility.yul\":67:76   */\n      mload\n        /* \"#utility.yul\":57:76   */\n      swap1\n      pop\n        /* \"#utility.yul\":7:82   */\n      swap1\n      jump\t// out\n        /* \"#utility.yul\":88:205   */\n    tag_33:\n        /* \"#utility.yul\":197:198   */\n      0x00\n        /* \"#utility.yul\":194:195   */\n      dup1\n        /* \"#utility.yul\":187:199   */\n      revert\n        /* \"#utility.yul\":211:328   */\n    tag_34:\n        /* \"#utility.yul\":320:321   */\n      0x00\n        /* \"#utility.yul\":317:318   */\n      dup1\n        /* \"#utility.yul\":310:322   */\n      revert\n        /* \"#utility.yul\":334:451   */\n    tag_35:\n        /* \"#utility.yul\":443:444   */\n      0x00\n        /* \"#utility.yul\":440:441   */\n      dup1\n        /* \"#utility.yul\":433:445   */\n      revert\n        /* \"#utility.yul\":457:574   */\n    tag_36:\n        /* \"#utility.yul\":566:567   */\n      0x00\n        /* \"#utility.yul\":563:564   */\n      dup1\n        /* \"#utility.yul\":556:568   */\n      revert\n        /* \"#utility.yul\":580:682   */\n    tag_37:\n        /* \"#utility.yul\":621:627   */\n      0x00\n        /* \"#utility.yul\":672:674   */\n      0x1f\n        /* \"#utility.yul\":668:675   */\n      not\n        /* \"#utility.yul\":663:665   */\n      0x1f\n        /* \"#utility.yul\":656:661   */\n      dup4\n        /* \"#utility.yul\":652:666   */\n      add\n        /* \"#utility.yul\":648:676   */\n      and\n        /* \"#utility.yul\":638:676   */\n      swap1\n      pop\n        /* \"#utility.yul\":580:682   */\n      swap2\n      swap1\n      pop\n      jump\t// out\n        /* \"#utility.yul\":688:868   */\n    tag_38:\n        /* \"#utility.yul\":736:813   */\n      0x4e487b7100000000000000000000000000000000000000000000000000000000\n        /* \"#utility.yul\":733:734   */\n      0x00\n        /* \"#utility.yul\":726:814   */\n      mstore\n        /* \"#utility.yul\":833:837   */\n      0x41\n        /* \"#utility.yul\":830:831   */\n      0x04\n        /* \"#utility.yul\":823:838   */\n      mstore\n        /* \"#utility.yul\":857:861   */\n      0x24\n        /* \"#utility.yul\":854:855   */\n      0x00\n        /* \"#utility.yul\":847:862   */\n      revert\n        /* \"#utility.yul\":874:1155   */\n    tag_39:\n        /* \"#utility.yul\":957:984   */\n      tag_75\n        /* \"#utility.yul\":979:983   */\n      dup3\n        /* \"#utility.yul\":957:984   */\n      tag_37\n      jump\t// in\n    tag_75:\n        /* \"#utility.yul\":949:955   */\n      dup2\n        /* \"#utility.yul\":945:985   */\n      add\n        /* \"#utility.yul\":1087:1093   */\n      dup2\n        /* \"#utility.yul\":1075:1085   */\n      dup2\n        /* \"#utility.yul\":1072:1094   */\n      lt\n        /* \"#utility.yul\":1051:1069   */\n      0xffffffffffffffff\n        /* \"#utility.yul\":1039:1049   */\n      dup3\n        /* \"#utility.yul\":1036:1070   */\n      gt\n        /* \"#utility.yul\":1033:1095   */\n      or\n        /* \"#utility.yul\":1030:1118   */\n      iszero\n      tag_76\n      jumpi\n        /* \"#utility.yul\":1098:1116   */\n      tag_77\n      tag_38\n      jump\t// in\n    tag_77:\n        /* \"#utility.yul\":1030:1118   */\n    tag_76:\n        /* \"#utility.yul\":1138:1148   */\n      dup1\n        /* \"#utility.yul\":1134:1136   */\n      0x40\n        /* \"#utility.yul\":1127:1149   */\n      mstore\n        /* \"#utility.yul\":917:1155   */\n      pop\n        /* \"#utility.yul\":874:1155   */\n      pop\n      pop\n      jump\t// out\n        /* \"#utility.yul\":1161:1290   */\n    tag_40:\n        /* \"#utility.yul\":1195:1201   */\n      0x00\n        /* \"#utility.yul\":1222:1242   */\n      tag_79\n      tag_32\n      jump\t// in\n    tag_79:\n        /* \"#utility.yul\":1212:1242   */\n      swap1\n      pop\n        /* \"#utility.yul\":1251:1284   */\n      tag_80\n        /* \"#utility.yul\":1279:1283   */\n      dup3\n        /* \"#utility.yul\":1271:1277   */\n      dup3\n        /* \"#utility.yul\":1251:1284   */\n      tag_39\n      jump\t// in\n    tag_80:\n        /* \"#utility.yul\":1161:1290   */\n      swap2\n      swap1\n      pop\n      jump\t// out\n        /* \"#utility.yul\":1296:1604   */\n    tag_41:\n        /* \"#utility.yul\":1358:1362   */\n      0x00\n        /* \"#utility.yul\":1448:1466   */\n      0xffffffffffffffff\n        /* \"#utility.yul\":1440:1446   */\n      dup3\n        /* \"#utility.yul\":1437:1467   */\n      gt\n        /* \"#utility.yul\":1434:1490   */\n      iszero\n      tag_82\n      jumpi\n        /* \"#utility.yul\":1470:1488   */\n      tag_83\n      tag_38\n      jump\t// in\n    tag_83:\n        /* \"#utility.yul\":1434:1490   */\n    tag_82:\n        /* \"#utility.yul\":1508:1537   */\n      tag_84\n        /* \"#utility.yul\":1530:1536   */\n      dup3\n        /* \"#utility.yul\":1508:1537   */\n      tag_37\n      jump\t// in\n    tag_84:\n        /* \"#utility.yul\":1500:1537   */\n      swap1\n      pop\n        /* \"#utility.yul\":1592:1596   */\n      0x20\n        /* \"#utility.yul\":1586:1590   */\n      dup2\n        /* \"#utility.yul\":1582:1597   */\n      add\n        /* \"#utility.yul\":1574:1597   */\n      swap1\n      pop\n        /* \"#utility.yul\":1296:1604   */\n      swap2\n      swap1\n      pop\n      jump\t// out\n        /* \"#utility.yul\":1610:1756   */\n    tag_42:\n        /* \"#utility.yul\":1707:1713   */\n      dup3\n        /* \"#utility.yul\":1702:1705   */\n      dup2\n        /* \"#utility.yul\":1697:1700   */\n      dup4\n        /* \"#utility.yul\":1684:1714   */\n      calldatacopy\n        /* \"#utility.yul\":1748:1749   */\n      0x00\n        /* \"#utility.yul\":1739:1745   */\n      dup4\n        /* \"#utility.yul\":1734:1737   */\n      dup4\n        /* \"#utility.yul\":1730:1746   */\n      add\n        /* \"#utility.yul\":1723:1750   */\n      mstore\n        /* \"#utility.yul\":1610:1756   */\n      pop\n      pop\n      pop\n      jump\t// out\n        /* \"#utility.yul\":1762:2187   */\n    tag_43:\n        /* \"#utility.yul\":1840:1845   */\n      0x00\n        /* \"#utility.yul\":1865:1931   */\n      tag_87\n        /* \"#utility.yul\":1881:1930   */\n      tag_88\n        /* \"#utility.yul\":1923:1929   */\n      dup5\n        /* \"#utility.yul\":1881:1930   */\n      tag_41\n      jump\t// in\n    tag_88:\n        /* \"#utility.yul\":1865:1931   */\n      tag_40\n      jump\t// in\n    tag_87:\n        /* \"#utility.yul\":1856:1931   */\n      swap1\n      pop\n        /* \"#utility.yul\":1954:1960   */\n      dup3\n        /* \"#utility.yul\":1947:1952   */\n      dup2\n        /* \"#utility.yul\":1940:1961   */\n      mstore\n        /* \"#utility.yul\":1992:1996   */\n      0x20\n        /* \"#utility.yul\":1985:1990   */\n      dup2\n        /* \"#utility.yul\":1981:1997   */\n      add\n        /* \"#utility.yul\":2030:2033   */\n      dup5\n        /* \"#utility.yul\":2021:2027   */\n      dup5\n        /* \"#utility.yul\":2016:2019   */\n      dup5\n        /* \"#utility.yul\":2012:2028   */\n      add\n        /* \"#utility.yul\":2009:2034   */\n      gt\n        /* \"#utility.yul\":2006:2118   */\n      iszero\n      tag_89\n      jumpi\n        /* \"#utility.yul\":2037:2116   */\n      tag_90\n      tag_36\n      jump\t// in\n    tag_90:\n        /* \"#utility.yul\":2006:2118   */\n    tag_89:\n        /* \"#utility.yul\":2127:2181   */\n      tag_91\n        /* \"#utility.yul\":2174:2180   */\n      dup5\n        /* \"#utility.yul\":2169:2172   */\n      dup3\n        /* \"#utility.yul\":2164:2167   */\n      dup6\n        /* \"#utility.yul\":2127:2181   */\n      tag_42\n      jump\t// in\n    tag_91:\n        /* \"#utility.yul\":1846:2187   */\n      pop\n        /* \"#utility.yul\":1762:2187   */\n      swap4\n      swap3\n      pop\n      pop\n      pop\n      jump\t// out\n        /* \"#utility.yul\":2207:2547   */\n    tag_44:\n        /* \"#utility.yul\":2263:2268   */\n      0x00\n        /* \"#utility.yul\":2312:2315   */\n      dup3\n        /* \"#utility.yul\":2305:2309   */\n      0x1f\n        /* \"#utility.yul\":2297:2303   */\n      dup4\n        /* \"#utility.yul\":2293:2310   */\n      add\n        /* \"#utility.yul\":2289:2316   */\n      slt\n        /* \"#utility.yul\":2279:2401   */\n      tag_93\n      jumpi\n        /* \"#utility.yul\":2320:2399   */\n      tag_94\n      tag_35\n      jump\t// in\n    tag_94:\n        /* \"#utility.yul\":2279:2401   */\n    tag_93:\n        /* \"#utility.yul\":2437:2443   */\n      dup2\n        /* \"#utility.yul\":2424:2444   */\n      calldataload\n        /* \"#utility.yul\":2462:2541   */\n      tag_95\n        /* \"#utility.yul\":2537:2540   */\n      dup5\n        /* \"#utility.yul\":2529:2535   */\n      dup3\n        /* \"#utility.yul\":2522:2526   */\n      0x20\n        /* \"#utility.yul\":2514:2520   */\n      dup7\n        /* \"#utility.yul\":2510:2527   */\n      add\n        /* \"#utility.yul\":2462:2541   */\n      tag_43\n      jump\t// in\n    tag_95:\n        /* \"#utility.yul\":2453:2541   */\n      swap2\n      pop\n        /* \"#utility.yul\":2269:2547   */\n      pop\n        /* \"#utility.yul\":2207:2547   */\n      swap3\n      swap2\n      pop\n      pop\n      jump\t// out\n        /* \"#utility.yul\":2553:3387   */\n    tag_8:\n        /* \"#utility.yul\":2641:2647   */\n      0x00\n        /* \"#utility.yul\":2649:2655   */\n      dup1\n        /* \"#utility.yul\":2698:2700   */\n      0x40\n        /* \"#utility.yul\":2686:2695   */\n      dup4\n        /* \"#utility.yul\":2677:2684   */\n      dup6\n        /* \"#utility.yul\":2673:2696   */\n      sub\n        /* \"#utility.yul\":2669:2701   */\n      slt\n        /* \"#utility.yul\":2666:2785   */\n      iszero\n      tag_97\n      jumpi\n        /* \"#utility.yul\":2704:2783   */\n      tag_98\n      tag_33\n      jump\t// in\n    tag_98:\n        /* \"#utility.yul\":2666:2785   */\n    tag_97:\n        /* \"#utility.yul\":2852:2853   */\n      0x00\n        /* \"#utility.yul\":2841:2850   */\n      dup4\n        /* \"#utility.yul\":2837:2854   */\n      add\n        /* \"#utility.yul\":2824:2855   */\n      calldataload\n        /* \"#utility.yul\":2882:2900   */\n      0xffffffffffffffff\n        /* \"#utility.yul\":2874:2880   */\n      dup2\n        /* \"#utility.yul\":2871:2901   */\n      gt\n        /* \"#utility.yul\":2868:2985   */\n      iszero\n      tag_99\n      jumpi\n        /* \"#utility.yul\":2904:2983   */\n      tag_100\n      tag_34\n      jump\t// in\n    tag_100:\n        /* \"#utility.yul\":2868:2985   */\n    tag_99:\n        /* \"#utility.yul\":3009:3072   */\n      tag_101\n        /* \"#utility.yul\":3064:3071   */\n      dup6\n        /* \"#utility.yul\":3055:3061   */\n      dup3\n        /* \"#utility.yul\":3044:3053   */\n      dup7\n        /* \"#utility.yul\":3040:3062   */\n      add\n        /* \"#utility.yul\":3009:3072   */\n      tag_44\n      jump\t// in\n    tag_101:\n        /* \"#utility.yul\":2999:3072   */\n      swap3\n      pop\n        /* \"#utility.yul\":2795:3082   */\n      pop\n        /* \"#utility.yul\":3149:3151   */\n      0x20\n        /* \"#utility.yul\":3138:3147   */\n      dup4\n        /* \"#utility.yul\":3134:3152   */\n      add\n        /* \"#utility.yul\":3121:3153   */\n      calldataload\n        /* \"#utility.yul\":3180:3198   */\n      0xffffffffffffffff\n        /* \"#utility.yul\":3172:3178   */\n      dup2\n        /* \"#utility.yul\":3169:3199   */\n      gt\n        /* \"#utility.yul\":3166:3283   */\n      iszero\n      tag_102\n      jumpi\n        /* \"#utility.yul\":3202:3281   */\n      tag_103\n      tag_34\n      jump\t// in\n    tag_103:\n        /* \"#utility.yul\":3166:3283   */\n    tag_102:\n        /* \"#utility.yul\":3307:3370   */\n      tag_104\n        /* \"#utility.yul\":3362:3369   */\n      dup6\n        /* \"#utility.yul\":3353:3359   */\n      dup3\n        /* \"#utility.yul\":3342:3351   */\n      dup7\n        /* \"#utility.yul\":3338:3360   */\n      add\n        /* \"#utility.yul\":3307:3370   */\n      tag_44\n      jump\t// in\n    tag_104:\n        /* \"#utility.yul\":3297:3370   */\n      swap2\n      pop\n        /* \"#utility.yul\":3092:3380   */\n      pop\n        /* \"#utility.yul\":2553:3387   */\n      swap3\n      pop\n      swap3\n      swap1\n      pop\n      jump\t// out\n        /* \"#utility.yul\":3393:3492   */\n    tag_45:\n        /* \"#utility.yul\":3445:3451   */\n      0x00\n        /* \"#utility.yul\":3479:3484   */\n      dup2\n        /* \"#utility.yul\":3473:3485   */\n      mload\n        /* \"#utility.yul\":3463:3485   */\n      swap1\n      pop\n        /* \"#utility.yul\":3393:3492   */\n      swap2\n      swap1\n      pop\n      jump\t// out\n        /* \"#utility.yul\":3498:3667   */\n    tag_46:\n        /* \"#utility.yul\":3582:3593   */\n      0x00\n        /* \"#utility.yul\":3616:3622   */\n      dup3\n        /* \"#utility.yul\":3611:3614   */\n      dup3\n        /* \"#utility.yul\":3604:3623   */\n      mstore\n        /* \"#utility.yul\":3656:3660   */\n      0x20\n        /* \"#utility.yul\":3651:3654   */\n      dup3\n        /* \"#utility.yul\":3647:3661   */\n      add\n        /* \"#utility.yul\":3632:3661   */\n      swap1\n      pop\n        /* \"#utility.yul\":3498:3667   */\n      swap3\n      swap2\n      pop\n      pop\n      jump\t// out\n        /* \"#utility.yul\":3673:3919   */\n    tag_47:\n        /* \"#utility.yul\":3754:3755   */\n      0x00\n        /* \"#utility.yul\":3764:3877   */\n    tag_108:\n        /* \"#utility.yul\":3778:3784   */\n      dup4\n        /* \"#utility.yul\":3775:3776   */\n      dup2\n        /* \"#utility.yul\":3772:3785   */\n      lt\n        /* \"#utility.yul\":3764:3877   */\n      iszero\n      tag_110\n      jumpi\n        /* \"#utility.yul\":3863:3864   */\n      dup1\n        /* \"#utility.yul\":3858:3861   */\n      dup3\n        /* \"#utility.yul\":3854:3865   */\n      add\n        /* \"#utility.yul\":3848:3866   */\n      mload\n        /* \"#utility.yul\":3844:3845   */\n      dup2\n        /* \"#utility.yul\":3839:3842   */\n      dup5\n        /* \"#utility.yul\":3835:3846   */\n      add\n        /* \"#utility.yul\":3828:3867   */\n      mstore\n        /* \"#utility.yul\":3800:3802   */\n      0x20\n        /* \"#utility.yul\":3797:3798   */\n      dup2\n        /* \"#utility.yul\":3793:3803   */\n      add\n        /* \"#utility.yul\":3788:3803   */\n      swap1\n      pop\n        /* \"#utility.yul\":3764:3877   */\n      jump(tag_108)\n    tag_110:\n        /* \"#utility.yul\":3911:3912   */\n      0x00\n        /* \"#utility.yul\":3902:3908   */\n      dup5\n        /* \"#utility.yul\":3897:3900   */\n      dup5\n        /* \"#utility.yul\":3893:3909   */\n      add\n        /* \"#utility.yul\":3886:3913   */\n      mstore\n        /* \"#utility.yul\":3735:3919   */\n      pop\n        /* \"#utility.yul\":3673:3919   */\n      pop\n      pop\n      pop\n      jump\t// out\n        /* \"#utility.yul\":3925:4302   */\n    tag_48:\n        /* \"#utility.yul\":4013:4016   */\n      0x00\n        /* \"#utility.yul\":4041:4080   */\n      tag_112\n        /* \"#utility.yul\":4074:4079   */\n      dup3\n        /* \"#utility.yul\":4041:4080   */\n      tag_45\n      jump\t// in\n    tag_112:\n        /* \"#utility.yul\":4096:4167   */\n      tag_113\n        /* \"#utility.yul\":4160:4166   */\n      dup2\n        /* \"#utility.yul\":4155:4158   */\n      dup6\n        /* \"#utility.yul\":4096:4167   */\n      tag_46\n      jump\t// in\n    tag_113:\n        /* \"#utility.yul\":4089:4167   */\n      swap4\n      pop\n        /* \"#utility.yul\":4176:4241   */\n      tag_114\n        /* \"#utility.yul\":4234:4240   */\n      dup2\n        /* \"#utility.yul\":4229:4232   */\n      dup6\n        /* \"#utility.yul\":4222:4226   */\n      0x20\n        /* \"#utility.yul\":4215:4220   */\n      dup7\n        /* \"#utility.yul\":4211:4227   */\n      add\n        /* \"#utility.yul\":4176:4241   */\n      tag_47\n      jump\t// in\n    tag_114:\n        /* \"#utility.yul\":4266:4295   */\n      tag_115\n        /* \"#utility.yul\":4288:4294   */\n      dup2\n        /* \"#utility.yul\":4266:4295   */\n      tag_37\n      jump\t// in\n    tag_115:\n        /* \"#utility.yul\":4261:4264   */\n      dup5\n        /* \"#utility.yul\":4257:4296   */\n      add\n        /* \"#utility.yul\":4250:4296   */\n      swap2\n      pop\n        /* \"#utility.yul\":4017:4302   */\n      pop\n        /* \"#utility.yul\":3925:4302   */\n      swap3\n      swap2\n      pop\n      pop\n      jump\t// out\n        /* \"#utility.yul\":4308:4621   */\n    tag_13:\n        /* \"#utility.yul\":4421:4425   */\n      0x00\n        /* \"#utility.yul\":4459:4461   */\n      0x20\n        /* \"#utility.yul\":4448:4457   */\n      dup3\n        /* \"#utility.yul\":4444:4462   */\n      add\n        /* \"#utility.yul\":4436:4462   */\n      swap1\n      pop\n        /* \"#utility.yul\":4508:4517   */\n      dup2\n        /* \"#utility.yul\":4502:4506   */\n      dup2\n        /* \"#utility.yul\":4498:4518   */\n      sub\n        /* \"#utility.yul\":4494:4495   */\n      0x00\n        /* \"#utility.yul\":4483:4492   */\n      dup4\n        /* \"#utility.yul\":4479:4496   */\n      add\n        /* \"#utility.yul\":4472:4519   */\n      mstore\n        /* \"#utility.yul\":4536:4614   */\n      tag_117\n        /* \"#utility.yul\":4609:4613   */\n      dup2\n        /* \"#utility.yul\":4600:4606   */\n      dup5\n        /* \"#utility.yul\":4536:4614   */\n      tag_48\n      jump\t// in\n    tag_117:\n        /* \"#utility.yul\":4528:4614   */\n      swap1\n      pop\n        /* \"#utility.yul\":4308:4621   */\n      swap3\n      swap2\n      pop\n      pop\n      jump\t// out\n        /* \"#utility.yul\":4627:4807   */\n    tag_49:\n        /* \"#utility.yul\":4675:4752   */\n      0x4e487b7100000000000000000000000000000000000000000000000000000000\n        /* \"#utility.yul\":4672:4673   */\n      0x00\n        /* \"#utility.yul\":4665:4753   */\n      mstore\n        /* \"#utility.yul\":4772:4776   */\n      0x22\n        /* \"#utility.yul\":4769:4770   */\n      0x04\n        /* \"#utility.yul\":4762:4777   */\n      mstore\n        /* \"#utility.yul\":4796:4800   */\n      0x24\n        /* \"#utility.yul\":4793:4794   */\n      0x00\n        /* \"#utility.yul\":4786:4801   */\n      revert\n        /* \"#utility.yul\":4813:5133   */\n    tag_22:\n        /* \"#utility.yul\":4857:4863   */\n      0x00\n        /* \"#utility.yul\":4894:4895   */\n      0x02\n        /* \"#utility.yul\":4888:4892   */\n      dup3\n        /* \"#utility.yul\":4884:4896   */\n      div\n        /* \"#utility.yul\":4874:4896   */\n      swap1\n      pop\n        /* \"#utility.yul\":4941:4942   */\n      0x01\n        /* \"#utility.yul\":4935:4939   */\n      dup3\n        /* \"#utility.yul\":4931:4943   */\n      and\n        /* \"#utility.yul\":4962:4980   */\n      dup1\n        /* \"#utility.yul\":4952:5033   */\n      tag_120\n      jumpi\n        /* \"#utility.yul\":5018:5022   */\n      0x7f\n        /* \"#utility.yul\":5010:5016   */\n      dup3\n        /* \"#utility.yul\":5006:5023   */\n      and\n        /* \"#utility.yul\":4996:5023   */\n      swap2\n      pop\n        /* \"#utility.yul\":4952:5033   */\n    tag_120:\n        /* \"#utility.yul\":5080:5082   */\n      0x20\n        /* \"#utility.yul\":5072:5078   */\n      dup3\n        /* \"#utility.yul\":5069:5083   */\n      lt\n        /* \"#utility.yul\":5049:5067   */\n      dup2\n        /* \"#utility.yul\":5046:5084   */\n      sub\n        /* \"#utility.yul\":5043:5127   */\n      tag_121\n      jumpi\n        /* \"#utility.yul\":5099:5117   */\n      tag_122\n      tag_49\n      jump\t// in\n    tag_122:\n        /* \"#utility.yul\":5043:5127   */\n    tag_121:\n        /* \"#utility.yul\":4864:5133   */\n      pop\n        /* \"#utility.yul\":4813:5133   */\n      swap2\n      swap1\n      pop\n      jump\t// out\n        /* \"#utility.yul\":5139:5280   */\n    tag_50:\n        /* \"#utility.yul\":5188:5192   */\n      0x00\n        /* \"#utility.yul\":5211:5214   */\n      dup2\n        /* \"#utility.yul\":5203:5214   */\n      swap1\n      pop\n        /* \"#utility.yul\":5234:5237   */\n      dup2\n        /* \"#utility.yul\":5231:5232   */\n      0x00\n        /* \"#utility.yul\":5224:5238   */\n      mstore\n        /* \"#utility.yul\":5268:5272   */\n      0x20\n        /* \"#utility.yul\":5265:5266   */\n      0x00\n        /* \"#utility.yul\":5255:5273   */\n      keccak256\n        /* \"#utility.yul\":5247:5273   */\n      swap1\n      pop\n        /* \"#utility.yul\":5139:5280   */\n      swap2\n      swap1\n      pop\n      jump\t// out\n        /* \"#utility.yul\":5286:5379   */\n    tag_51:\n        /* \"#utility.yul\":5323:5329   */\n      0x00\n        /* \"#utility.yul\":5370:5372   */\n      0x20\n        /* \"#utility.yul\":5365:5367   */\n      0x1f\n        /* \"#utility.yul\":5358:5363   */\n      dup4\n        /* \"#utility.yul\":5354:5368   */\n      add\n        /* \"#utility.yul\":5350:5373   */\n      div\n        /* \"#utility.yul\":5340:5373   */\n      swap1\n      pop\n        /* \"#utility.yul\":5286:5379   */\n      swap2\n      swap1\n      pop\n      jump\t// out\n        /* \"#utility.yul\":5385:5492   */\n    tag_52:\n        /* \"#utility.yul\":5429:5437   */\n      0x00\n        /* \"#utility.yul\":5479:5484   */\n      dup3\n        /* \"#utility.yul\":5473:5477   */\n      dup3\n        /* \"#utility.yul\":5469:5485   */\n      shl\n        /* \"#utility.yul\":5448:5485   */\n      swap1\n      pop\n        /* \"#utility.yul\":5385:5492   */\n      swap3\n      swap2\n      pop\n      pop\n      jump\t// out\n        /* \"#utility.yul\":5498:5891   */\n    tag_53:\n        /* \"#utility.yul\":5567:5573   */\n      0x00\n        /* \"#utility.yul\":5617:5618   */\n      0x08\n        /* \"#utility.yul\":5605:5615   */\n      dup4\n        /* \"#utility.yul\":5601:5619   */\n      mul\n        /* \"#utility.yul\":5640:5737   */\n      tag_127\n        /* \"#utility.yul\":5670:5736   */\n      0xffffffffffffffffffffffffffffffffffffffffffffffffffffffffffffffff\n        /* \"#utility.yul\":5659:5668   */\n      dup3\n        /* \"#utility.yul\":5640:5737   */\n      tag_52\n      jump\t// in\n    tag_127:\n        /* \"#utility.yul\":5758:5797   */\n      tag_128\n        /* \"#utility.yul\":5788:5796   */\n      dup7\n        /* \"#utility.yul\":5777:5786   */\n      dup4\n        /* \"#utility.yul\":5758:5797   */\n      tag_52\n      jump\t// in\n    tag_128:\n        /* \"#utility.yul\":5746:5797   */\n      swap6\n      pop\n        /* \"#utility.yul\":5830:5834   */\n      dup1\n        /* \"#utility.yul\":5826:5835   */\n      not\n        /* \"#utility.yul\":5819:5824   */\n      dup5\n        /* \"#utility.yul\":5815:5836   */\n      and\n        /* \"#utility.yul\":5806:5836   */\n      swap4\n      pop\n        /* \"#utility.yul\":5879:5883   */\n      dup1\n        /* \"#utility.yul\":5869:5877   */\n      dup7\n        /* \"#utility.yul\":5865:5884   */\n      and\n        /* \"#utility.yul\":5858:5863   */\n      dup5\n        /* \"#utility.yul\":5855:5885   */\n      or\n        /* \"#utility.yul\":5845:5885   */\n      swap3\n      pop\n        /* \"#utility.yul\":5574:5891   */\n      pop\n      pop\n        /* \"#utility.yul\":5498:5891   */\n      swap4\n      swap3\n      pop\n      pop\n      pop\n      jump\t// out\n        /* \"#utility.yul\":5897:5974   */\n    tag_54:\n        /* \"#utility.yul\":5934:5941   */\n      0x00\n        /* \"#utility.yul\":5963:5968   */\n      dup2\n        /* \"#utility.yul\":5952:5968   */\n      swap1\n      pop\n        /* \"#utility.yul\":5897:5974   */\n      swap2\n      swap1\n      pop\n      jump\t// out\n        /* \"#utility.yul\":5980:6040   */\n    tag_55:\n        /* \"#utility.yul\":6008:6011   */\n      0x00\n        /* \"#utility.yul\":6029:6034   */\n      dup2\n        /* \"#utility.yul\":6022:6034   */\n      swap1\n      pop\n        /* \"#utility.yul\":5980:6040   */\n      swap2\n      swap1\n      pop\n      jump\t// out\n        /* \"#utility.yul\":6046:6188   */\n    tag_56:\n        /* \"#utility.yul\":6096:6105   */\n      0x00\n        /* \"#utility.yul\":6129:6182   */\n      tag_132\n        /* \"#utility.yul\":6147:6181   */\n      tag_133\n        /* \"#utility.yul\":6156:6180   */\n      tag_134\n        /* \"#utility.yul\":6174:6179   */\n      dup5\n        /* \"#utility.yul\":6156:6180   */\n      tag_54\n      jump\t// in\n    tag_134:\n        /* \"#utility.yul\":6147:6181   */\n      tag_55\n      jump\t// in\n    tag_133:\n        /* \"#utility.yul\":6129:6182   */\n      tag_54\n      jump\t// in\n    tag_132:\n        /* \"#utility.yul\":6116:6182   */\n      swap1\n      pop\n        /* \"#utility.yul\":6046:6188   */\n      swap2\n      swap1\n      pop\n      jump\t// out\n        /* \"#utility.yul\":6194:6269   */\n    tag_57:\n        /* \"#utility.yul\":6237:6240   */\n      0x00\n        /* \"#utility.yul\":6258:6263   */\n      dup2\n        /* \"#utility.yul\":6251:6263   */\n      swap1\n      pop\n        /* \"#utility.yul\":6194:6269   */\n      swap2\n      swap1\n      pop\n      jump\t// out\n        /* \"#utility.yul\":6275:6544   */\n    tag_58:\n        /* \"#utility.yul\":6385:6424   */\n      tag_137\n        /* \"#utility.yul\":6416:6423   */\n      dup4\n        /* \"#utility.yul\":6385:6424   */\n      tag_56\n      jump\t// in\n    tag_137:\n        /* \"#utility.yul\":6446:6537   */\n      tag_138\n        /* \"#utility.yul\":6495:6536   */\n      tag_139\n        /* \"#utility.yul\":6519:6535   */\n      dup3\n        /* \"#utility.yul\":6495:6536   */\n      tag_57\n      jump\t// in\n    tag_139:\n        /* \"#utility.yul\":6487:6493   */\n      dup5\n        /* \"#utility.yul\":6480:6484   */\n      dup5\n        /* \"#utility.yul\":6474:6485   */\n      sload\n        /* \"#utility.yul\":6446:6537   */\n      tag_53\n      jump\t// in\n    tag_138:\n        /* \"#utility.yul\":6440:6444   */\n      dup3\n        /* \"#utility.yul\":6433:6538   */\n      sstore\n        /* \"#utility.yul\":6351:6544   */\n      pop\n        /* \"#utility.yul\":6275:6544   */\n      pop\n      pop\n      pop\n      jump\t// out\n        /* \"#utility.yul\":6550:6623   */\n    tag_59:\n        /* \"#utility.yul\":6595:6598   */\n      0x00\n        /* \"#utility.yul\":6550:6623   */\n      swap1\n      jump\t// out\n        /* \"#utility.yul\":6629:6818   */\n    tag_60:\n        /* \"#utility.yul\":6706:6738   */\n      tag_142\n      tag_59\n      jump\t// in\n    tag_142:\n        /* \"#utility.yul\":6747:6812   */\n      tag_143\n        /* \"#utility.yul\":6805:6811   */\n      dup2\n        /* \"#utility.yul\":6797:6803   */\n      dup5\n        /* \"#utility.yul\":6791:6795   */\n      dup5\n        /* \"#utility.yul\":6747:6812   */\n      tag_58\n      jump\t// in\n    tag_143:\n        /* \"#utility.yul\":6682:6818   */\n      pop\n        /* \"#utility.yul\":6629:6818   */\n      pop\n      pop\n      jump\t// out\n        /* \"#utility.yul\":6824:7010   */\n    tag_61:\n        /* \"#utility.yul\":6884:7004   */\n    tag_145:\n        /* \"#utility.yul\":6901:6904   */\n      dup2\n        /* \"#utility.yul\":6894:6899   */\n      dup2\n        /* \"#utility.yul\":6891:6905   */\n      lt\n        /* \"#utility.yul\":6884:7004   */\n      iszero\n      tag_147\n      jumpi\n        /* \"#utility.yul\":6955:6994   */\n      tag_148\n        /* \"#utility.yul\":6992:6993   */\n      0x00\n        /* \"#utility.yul\":6985:6990   */\n      dup3\n        /* \"#utility.yul\":6955:6994   */\n      tag_60\n      jump\t// in\n    tag_148:\n        /* \"#utility.yul\":6928:6929   */\n      0x01\n        /* \"#utility.yul\":6921:6926   */\n      dup2\n        /* \"#utility.yul\":6917:6930   */\n      add\n        /* \"#utility.yul\":6908:6930   */\n      swap1\n      pop\n        /* \"#utility.yul\":6884:7004   */\n      jump(tag_145)\n    tag_147:\n        /* \"#utility.yul\":6824:7010   */\n      pop\n      pop\n      jump\t// out\n        /* \"#utility.yul\":7016:7559   */\n    tag_62:\n        /* \"#utility.yul\":7117:7119   */\n      0x1f\n        /* \"#utility.yul\":7112:7115   */\n      dup3\n        /* \"#utility.yul\":7109:7120   */\n      gt\n        /* \"#utility.yul\":7106:7552   */\n      iszero\n      tag_150\n      jumpi\n        /* \"#utility.yul\":7151:7189   */\n      tag_151\n        /* \"#utility.yul\":7183:7188   */\n      dup2\n        /* \"#utility.yul\":7151:7189   */\n      tag_50\n      jump\t// in\n    tag_151:\n        /* \"#utility.yul\":7235:7264   */\n      tag_152\n        /* \"#utility.yul\":7253:7263   */\n      dup5\n        /* \"#utility.yul\":7235:7264   */\n      tag_51\n      jump\t// in\n    tag_152:\n        /* \"#utility.yul\":7225:7233   */\n      dup2\n        /* \"#utility.yul\":7221:7265   */\n      add\n        /* \"#utility.yul\":7418:7420   */\n      0x20\n        /* \"#utility.yul\":7406:7416   */\n      dup6\n        /* \"#utility.yul\":7403:7421   */\n      lt\n        /* \"#utility.yul\":7400:7449   */\n      iszero\n      tag_153\n      jumpi\n        /* \"#utility.yul\":7439:7447   */\n      dup2\n        /* \"#utility.yul\":7424:7447   */\n      swap1\n      pop\n        /* \"#utility.yul\":7400:7449   */\n    tag_153:\n        /* \"#utility.yul\":7462:7542   */\n      tag_154\n        /* \"#utility.yul\":7518:7540   */\n      tag_155\n        /* \"#utility.yul\":7536:7539   */\n      dup6\n        /* \"#utility.yul\":7518:7540   */\n      tag_51\n      jump\t// in\n    tag_155:\n        /* \"#utility.yul\":7508:7516   */\n      dup4\n        /* \"#utility.yul\":7504:7541   */\n      add\n        /* \"#utility.yul\":7491:7502   */\n      dup3\n        /* \"#utility.yul\":7462:7542   */\n      tag_61\n      jump\t// in\n    tag_154:\n        /* \"#utility.yul\":7121:7552   */\n      pop\n      pop\n        /* \"#utility.yul\":7106:7552   */\n    tag_150:\n        /* \"#utility.yul\":7016:7559   */\n      pop\n      pop\n      pop\n      jump\t// out\n        /* \"#utility.yul\":7565:7682   */\n    tag_63:\n        /* \"#utility.yul\":7619:7627   */\n      0x00\n        /* \"#utility.yul\":7669:7674   */\n      dup3\n        /* \"#utility.yul\":7663:7667   */\n      dup3\n        /* \"#utility.yul\":7659:7675   */\n      shr\n        /* \"#utility.yul\":7638:7675   */\n      swap1\n      pop\n        /* \"#utility.yul\":7565:7682   */\n      swap3\n      swap2\n      pop\n      pop\n      jump\t// out\n        /* \"#utility.yul\":7688:7857   */\n    tag_64:\n        /* \"#utility.yul\":7732:7738   */\n      0x00\n        /* \"#utility.yul\":7765:7816   */\n      tag_158\n        /* \"#utility.yul\":7813:7814   */\n      0x00\n        /* \"#utility.yul\":7809:7815   */\n      not\n        /* \"#utility.yul\":7801:7806   */\n      dup5\n        /* \"#utility.yul\":7798:7799   */\n      0x08\n        /* \"#utility.yul\":7794:7807   */\n      mul\n        /* \"#utility.yul\":7765:7816   */\n      tag_63\n      jump\t// in\n    tag_158:\n        /* \"#utility.yul\":7761:7817   */\n      not\n        /* \"#utility.yul\":7846:7850   */\n      dup1\n        /* \"#utility.yul\":7840:7844   */\n      dup4\n        /* \"#utility.yul\":7836:7851   */\n      and\n        /* \"#utility.yul\":7826:7851   */\n      swap2\n      pop\n        /* \"#utility.yul\":7739:7857   */\n      pop\n        /* \"#utility.yul\":7688:7857   */\n      swap3\n      swap2\n      pop\n      pop\n      jump\t// out\n        /* \"#utility.yul\":7862:8157   */\n    tag_65:\n        /* \"#utility.yul\":7938:7942   */\n      0x00\n        /* \"#utility.yul\":8084:8113   */\n      tag_160\n        /* \"#utility.yul\":8109:8112   */\n      dup4\n        /* \"#utility.yul\":8103:8107   */\n      dup4\n        /* \"#utility.yul\":8084:8113   */\n      tag_64\n      jump\t// in\n    tag_160:\n        /* \"#utility.yul\":8076:8113   */\n      swap2\n      pop\n        /* \"#utility.yul\":8146:8149   */\n      dup3\n        /* \"#utility.yul\":8143:8144   */\n      0x02\n        /* \"#utility.yul\":8139:8150   */\n      mul\n        /* \"#utility.yul\":8133:8137   */\n      dup3\n        /* \"#utility.yul\":8130:8151   */\n      or\n        /* \"#utility.yul\":8122:8151   */\n      swap1\n      pop\n        /* \"#utility.yul\":7862:8157   */\n      swap3\n      swap2\n      pop\n      pop\n      jump\t// out\n        /* \"#utility.yul\":8162:9557   */\n    tag_19:\n        /* \"#utility.yul\":8279:8316   */\n      tag_162\n        /* \"#utility.yul\":8312:8315   */\n      dup3\n        /* \"#utility.yul\":8279:8316   */\n      tag_45\n      jump\t// in\n    tag_162:\n        /* \"#utility.yul\":8381:8399   */\n      0xffffffffffffffff\n        /* \"#utility.yul\":8373:8379   */\n      dup2\n        /* \"#utility.yul\":8370:8400   */\n      gt\n        /* \"#utility.yul\":8367:8423   */\n      iszero\n      tag_163\n      jumpi\n        /* \"#utility.yul\":8403:8421   */\n      tag_164\n      tag_38\n      jump\t// in\n    tag_164:\n        /* \"#utility.yul\":8367:8423   */\n    tag_163:\n        /* \"#utility.yul\":8447:8485   */\n      tag_165\n        /* \"#utility.yul\":8479:8483   */\n      dup3\n        /* \"#utility.yul\":8473:8484   */\n      sload\n        /* \"#utility.yul\":8447:8485   */\n      tag_22\n      jump\t// in\n    tag_165:\n        /* \"#utility.yul\":8532:8599   */\n      tag_166\n        /* \"#utility.yul\":8592:8598   */\n      dup3\n        /* \"#utility.yul\":8584:8590   */\n      dup3\n        /* \"#utility.yul\":8578:8582   */\n      dup6\n        /* \"#utility.yul\":8532:8599   */\n      tag_62\n      jump\t// in\n    tag_166:\n        /* \"#utility.yul\":8626:8627   */\n      0x00\n        /* \"#utility.yul\":8650:8654   */\n      0x20\n        /* \"#utility.yul\":8637:8654   */\n      swap1\n      pop\n        /* \"#utility.yul\":8682:8684   */\n      0x1f\n        /* \"#utility.yul\":8674:8680   */\n      dup4\n        /* \"#utility.yul\":8671:8685   */\n      gt\n        /* \"#utility.yul\":8699:8700   */\n      0x01\n        /* \"#utility.yul\":8694:9312   */\n      dup2\n      eq\n      tag_168\n      jumpi\n        /* \"#utility.yul\":9356:9357   */\n      0x00\n        /* \"#utility.yul\":9373:9379   */\n      dup5\n        /* \"#utility.yul\":9370:9447   */\n      iszero\n      tag_169\n      jumpi\n        /* \"#utility.yul\":9422:9431   */\n      dup3\n        /* \"#utility.yul\":9417:9420   */\n      dup8\n        /* \"#utility.yul\":9413:9432   */\n      add\n        /* \"#utility.yul\":9407:9433   */\n      mload\n        /* \"#utility.yul\":9398:9433   */\n      swap1\n      pop\n        /* \"#utility.yul\":9370:9447   */\n    tag_169:\n        /* \"#utility.yul\":9473:9540   */\n      tag_170\n        /* \"#utility.yul\":9533:9539   */\n      dup6\n        /* \"#utility.yul\":9526:9531   */\n      dup3\n        /* \"#utility.yul\":9473:9540   */\n      tag_65\n      jump\t// in\n    tag_170:\n        /* \"#utility.yul\":9467:9471   */\n      dup7\n        /* \"#utility.yul\":9460:9541   */\n      sstore\n        /* \"#utility.yul\":9329:9551   */\n      pop\n        /* \"#utility.yul\":8664:9551   */\n      jump(tag_167)\n        /* \"#utility.yul\":8694:9312   */\n    tag_168:\n        /* \"#utility.yul\":8746:8750   */\n      0x1f\n        /* \"#utility.yul\":8742:8751   */\n      not\n        /* \"#utility.yul\":8734:8740   */\n      dup5\n        /* \"#utility.yul\":8730:8752   */\n      and\n        /* \"#utility.yul\":8780:8817   */\n      tag_171\n        /* \"#utility.yul\":8812:8816   */\n      dup7\n        /* \"#utility.yul\":8780:8817   */\n      tag_50\n      jump\t// in\n    tag_171:\n        /* \"#utility.yul\":8839:8840   */\n      0x00\n        /* \"#utility.yul\":8853:9061   */\n    tag_172:\n        /* \"#utility.yul\":8867:8874   */\n      dup3\n        /* \"#utility.yul\":8864:8865   */\n      dup2\n        /* \"#utility.yul\":8861:8875   */\n      lt\n        /* \"#utility.yul\":8853:9061   */\n      iszero\n      tag_174\n      jumpi\n        /* \"#utility.yul\":8946:8955   */\n      dup5\n        /* \"#utility.yul\":8941:8944   */\n      dup10\n        /* \"#utility.yul\":8937:8956   */\n      add\n        /* \"#utility.yul\":8931:8957   */\n      mload\n        /* \"#utility.yul\":8923:8929   */\n      dup3\n        /* \"#utility.yul\":8916:8958   */\n      sstore\n        /* \"#utility.yul\":8997:8998   */\n      0x01\n        /* \"#utility.yul\":8989:8995   */\n      dup3\n        /* \"#utility.yul\":8985:8999   */\n      add\n        /* \"#utility.yul\":8975:8999   */\n      swap2\n      pop\n        /* \"#utility.yul\":9044:9046   */\n      0x20\n        /* \"#utility.yul\":9033:9042   */\n      dup6\n        /* \"#utility.yul\":9029:9047   */\n      add\n        /* \"#utility.yul\":9016:9047   */\n      swap5\n      pop\n        /* \"#utility.yul\":8890:8894   */\n      0x20\n        /* \"#utility.yul\":8887:8888   */\n      dup2\n        /* \"#utility.yul\":8883:8895   */\n      add\n        /* \"#utility.yul\":8878:8895   */\n      swap1\n      pop\n        /* \"#utility.yul\":8853:9061   */\n      jump(tag_172)\n    tag_174:\n        /* \"#utility.yul\":9089:9095   */\n      dup7\n        /* \"#utility.yul\":9080:9087   */\n      dup4\n        /* \"#utility.yul\":9077:9096   */\n      lt\n        /* \"#utility.yul\":9074:9253   */\n      iszero\n      tag_175\n      jumpi\n        /* \"#utility.yul\":9147:9156   */\n      dup5\n        /* \"#utility.yul\":9142:9145   */\n      dup10\n        /* \"#utility.yul\":9138:9157   */\n      add\n        /* \"#utility.yul\":9132:9158   */\n      mload\n        /* \"#utility.yul\":9190:9238   */\n      tag_176\n        /* \"#utility.yul\":9232:9236   */\n      0x1f\n        /* \"#utility.yul\":9224:9230   */\n      dup10\n        /* \"#utility.yul\":9220:9237   */\n      and\n        /* \"#utility.yul\":9209:9218   */\n      dup3\n        /* \"#utility.yul\":9190:9238   */\n      tag_64\n      jump\t// in\n    tag_176:\n        /* \"#utility.yul\":9182:9188   */\n      dup4\n        /* \"#utility.yul\":9175:9239   */\n      sstore\n        /* \"#utility.yul\":9097:9253   */\n      pop\n        /* \"#utility.yul\":9074:9253   */\n    tag_175:\n        /* \"#utility.yul\":9299:9300   */\n      0x01\n        /* \"#utility.yul\":9295:9296   */\n      0x02\n        /* \"#utility.yul\":9287:9293   */\n      dup9\n        /* \"#utility.yul\":9283:9297   */\n      mul\n        /* \"#utility.yul\":9279:9301   */\n      add\n        /* \"#utility.yul\":9273:9277   */\n      dup9\n        /* \"#utility.yul\":9266:9302   */\n      sstore\n        /* \"#utility.yul\":8701:9312   */\n      pop\n      pop\n      pop\n        /* \"#utility.yul\":8664:9551   */\n    tag_167:\n      pop\n        /* \"#utility.yul\":8254:9557   */\n      pop\n      pop\n      pop\n        /* \"#utility.yul\":8162:9557   */\n      pop\n      pop\n      jump\t// out\n\n    auxdata: 0xa26469706673582212209bdfe0a88a5cc216e1735fcb6e95ab8291d5c179d2a4412ef39c71d04e35abe964736f6c63430008120033\n}\n",
				"bytecode": {
					"linkReferences": {},
					"object": "608060405234801561001057600080fd5b5061076f806100206000396000f3fe608060405234801561001057600080fd5b50600436106100415760003560e01c80636f6e678e14610046578063820e93f514610062578063e21f37ce14610080575b600080fd5b610060600480360381019061005b9190610338565b61009e565b005b61006a6100c2565b604051610077919061042f565b60405180910390f35b610088610150565b604051610095919061042f565b60405180910390f35b81600090816100ad9190610667565b5080600190816100bd9190610667565b505050565b600080546100cf90610480565b80601f01602080910402602001604051908101604052809291908181526020018280546100fb90610480565b80156101485780601f1061011d57610100808354040283529160200191610148565b820191906000526020600020905b81548152906001019060200180831161012b57829003601f168201915b505050505081565b6001805461015d90610480565b80601f016020809104026020016040519081016040528092919081815260200182805461018990610480565b80156101d65780601f106101ab576101008083540402835291602001916101d6565b820191906000526020600020905b8154815290600101906020018083116101b957829003601f168201915b505050505081565b6000604051905090565b600080fd5b600080fd5b600080fd5b600080fd5b6000601f19601f8301169050919050565b7f4e487b7100000000000000000000000000000000000000000000000000000000600052604160045260246000fd5b610245826101fc565b810181811067ffffffffffffffff821117156102645761026361020d565b5b80604052505050565b60006102776101de565b9050610283828261023c565b919050565b600067ffffffffffffffff8211156102a3576102a261020d565b5b6102ac826101fc565b9050602081019050919050565b82818337600083830152505050565b60006102db6102d684610288565b61026d565b9050828152602081018484840111156102f7576102f66101f7565b5b6103028482856102b9565b509392505050565b600082601f83011261031f5761031e6101f2565b5b813561032f8482602086016102c8565b91505092915050565b6000806040838503121561034f5761034e6101e8565b5b600083013567ffffffffffffffff81111561036d5761036c6101ed565b5b6103798582860161030a565b925050602083013567ffffffffffffffff81111561039a576103996101ed565b5b6103a68582860161030a565b9150509250929050565b600081519050919050565b600082825260208201905092915050565b60005b838110156103ea5780820151818401526020810190506103cf565b60008484015250505050565b6000610401826103b0565b61040b81856103bb565b935061041b8185602086016103cc565b610424816101fc565b840191505092915050565b6000602082019050818103600083015261044981846103f6565b905092915050565b7f4e487b7100000000000000000000000000000000000000000000000000000000600052602260045260246000fd5b6000600282049050600182168061049857607f821691505b6020821081036104ab576104aa610451565b5b50919050565b60008190508160005260206000209050919050565b60006020601f8301049050919050565b600082821b905092915050565b6000600883026105137fffffffffffffffffffffffffffffffffffffffffffffffffffffffffffffffff826104d6565b61051d86836104d6565b95508019841693508086168417925050509392505050565b6000819050919050565b6000819050919050565b600061056461055f61055a84610535565b61053f565b610535565b9050919050565b6000819050919050565b61057e83610549565b61059261058a8261056b565b8484546104e3565b825550505050565b600090565b6105a761059a565b6105b2818484610575565b505050565b5b818110156105d6576105cb60008261059f565b6001810190506105b8565b5050565b601f82111561061b576105ec816104b1565b6105f5846104c6565b81016020851015610604578190505b610618610610856104c6565b8301826105b7565b50505b505050565b600082821c905092915050565b600061063e60001984600802610620565b1980831691505092915050565b6000610657838361062d565b9150826002028217905092915050565b610670826103b0565b67ffffffffffffffff8111156106895761068861020d565b5b6106938254610480565b61069e8282856105da565b600060209050601f8311600181146106d157600084156106bf578287015190505b6106c9858261064b565b865550610731565b601f1984166106df866104b1565b60005b82811015610707578489015182556001820191506020850194506020810190506106e2565b868310156107245784890151610720601f89168261062d565b8355505b6001600288020188555050505b50505050505056fea26469706673582212209bdfe0a88a5cc216e1735fcb6e95ab8291d5c179d2a4412ef39c71d04e35abe964736f6c63430008120033",
					"opcodes": "PUSH1 0x80 PUSH1 0x40 MSTORE CALLVALUE DUP1 ISZERO PUSH2 0x10 JUMPI PUSH1 0x0 DUP1 REVERT JUMPDEST POP PUSH2 0x76F DUP1 PUSH2 0x20 PUSH1 0x0 CODECOPY PUSH1 0x0 RETURN INVALID PUSH1 0x80 PUSH1 0x40 MSTORE CALLVALUE DUP1 ISZERO PUSH2 0x10 JUMPI PUSH1 0x0 DUP1 REVERT JUMPDEST POP PUSH1 0x4 CALLDATASIZE LT PUSH2 0x41 JUMPI PUSH1 0x0 CALLDATALOAD PUSH1 0xE0 SHR DUP1 PUSH4 0x6F6E678E EQ PUSH2 0x46 JUMPI DUP1 PUSH4 0x820E93F5 EQ PUSH2 0x62 JUMPI DUP1 PUSH4 0xE21F37CE EQ PUSH2 0x80 JUMPI JUMPDEST PUSH1 0x0 DUP1 REVERT JUMPDEST PUSH2 0x60 PUSH1 0x4 DUP1 CALLDATASIZE SUB DUP2 ADD SWAP1 PUSH2 0x5B SWAP2 SWAP1 PUSH2 0x338 JUMP JUMPDEST PUSH2 0x9E JUMP JUMPDEST STOP JUMPDEST PUSH2 0x6A PUSH2 0xC2 JUMP JUMPDEST PUSH1 0x40 MLOAD PUSH2 0x77 SWAP2 SWAP1 PUSH2 0x42F JUMP JUMPDEST PUSH1 0x40 MLOAD DUP1 SWAP2 SUB SWAP1 RETURN JUMPDEST PUSH2 0x88 PUSH2 0x150 JUMP JUMPDEST PUSH1 0x40 MLOAD PUSH2 0x95 SWAP2 SWAP1 PUSH2 0x42F JUMP JUMPDEST PUSH1 0x40 MLOAD DUP1 SWAP2 SUB SWAP1 RETURN JUMPDEST DUP2 PUSH1 0x0 SWAP1 DUP2 PUSH2 0xAD SWAP2 SWAP1 PUSH2 0x667 JUMP JUMPDEST POP DUP1 PUSH1 0x1 SWAP1 DUP2 PUSH2 0xBD SWAP2 SWAP1 PUSH2 0x667 JUMP JUMPDEST POP POP POP JUMP JUMPDEST PUSH1 0x0 DUP1 SLOAD PUSH2 0xCF SWAP1 PUSH2 0x480 JUMP JUMPDEST DUP1 PUSH1 0x1F ADD PUSH1 0x20 DUP1 SWAP2 DIV MUL PUSH1 0x20 ADD PUSH1 0x40 MLOAD SWAP1 DUP2 ADD PUSH1 0x40 MSTORE DUP1 SWAP3 SWAP2 SWAP1 DUP2 DUP2 MSTORE PUSH1 0x20 ADD DUP3 DUP1 SLOAD PUSH2 0xFB SWAP1 PUSH2 0x480 JUMP JUMPDEST DUP1 ISZERO PUSH2 0x148 JUMPI DUP1 PUSH1 0x1F LT PUSH2 0x11D JUMPI PUSH2 0x100 DUP1 DUP4 SLOAD DIV MUL DUP4 MSTORE SWAP2 PUSH1 0x20 ADD SWAP2 PUSH2 0x148 JUMP JUMPDEST DUP3 ADD SWAP2 SWAP1 PUSH1 0x0 MSTORE PUSH1 0x20 PUSH1 0x0 KECCAK256 SWAP1 JUMPDEST DUP2 SLOAD DUP2 MSTORE SWAP1 PUSH1 0x1 ADD SWAP1 PUSH1 0x20 ADD DUP1 DUP4 GT PUSH2 0x12B JUMPI DUP3 SWAP1 SUB PUSH1 0x1F AND DUP3 ADD SWAP2 JUMPDEST POP POP POP POP POP DUP2 JUMP JUMPDEST PUSH1 0x1 DUP1 SLOAD PUSH2 0x15D SWAP1 PUSH2 0x480 JUMP JUMPDEST DUP1 PUSH1 0x1F ADD PUSH1 0x20 DUP1 SWAP2 DIV MUL PUSH1 0x20 ADD PUSH1 0x40 MLOAD SWAP1 DUP2 ADD PUSH1 0x40 MSTORE DUP1 SWAP3 SWAP2 SWAP1 DUP2 DUP2 MSTORE PUSH1 0x20 ADD DUP3 DUP1 SLOAD PUSH2 0x189 SWAP1 PUSH2 0x480 JUMP JUMPDEST DUP1 ISZERO PUSH2 0x1D6 JUMPI DUP1 PUSH1 0x1F LT PUSH2 0x1AB JUMPI PUSH2 0x100 DUP1 DUP4 SLOAD DIV MUL DUP4 MSTORE SWAP2 PUSH1 0x20 ADD SWAP2 PUSH2 0x1D6 JUMP JUMPDEST DUP3 ADD SWAP2 SWAP1 PUSH1 0x0 MSTORE PUSH1 0x20 PUSH1 0x0 KECCAK256 SWAP1 JUMPDEST DUP2 SLOAD DUP2 MSTORE SWAP1 PUSH1 0x1 ADD SWAP1 PUSH1 0x20 ADD DUP1 DUP4 GT PUSH2 0x1B9 JUMPI DUP3 SWAP1 SUB PUSH1 0x1F AND DUP3 ADD SWAP2 JUMPDEST POP POP POP POP POP DUP2 JUMP JUMPDEST PUSH1 0x0 PUSH1 0x40 MLOAD SWAP1 POP SWAP1 JUMP JUMPDEST PUSH1 0x0 DUP1 REVERT JUMPDEST PUSH1 0x0 DUP1 REVERT JUMPDEST PUSH1 0x0 DUP1 REVERT JUMPDEST PUSH1 0x0 DUP1 REVERT JUMPDEST PUSH1 0x0 PUSH1 0x1F NOT PUSH1 0x1F DUP4 ADD AND SWAP1 POP SWAP2 SWAP1 POP JUMP JUMPDEST PUSH32 0x4E487B7100000000000000000000000000000000000000000000000000000000 PUSH1 0x0 MSTORE PUSH1 0x41 PUSH1 0x4 MSTORE PUSH1 0x24 PUSH1 0x0 REVERT JUMPDEST PUSH2 0x245 DUP3 PUSH2 0x1FC JUMP JUMPDEST DUP2 ADD DUP2 DUP2 LT PUSH8 0xFFFFFFFFFFFFFFFF DUP3 GT OR ISZERO PUSH2 0x264 JUMPI PUSH2 0x263 PUSH2 0x20D JUMP JUMPDEST JUMPDEST DUP1 PUSH1 0x40 MSTORE POP POP POP JUMP JUMPDEST PUSH1 0x0 PUSH2 0x277 PUSH2 0x1DE JUMP JUMPDEST SWAP1 POP PUSH2 0x283 DUP3 DUP3 PUSH2 0x23C JUMP JUMPDEST SWAP2 SWAP1 POP JUMP JUMPDEST PUSH1 0x0 PUSH8 0xFFFFFFFFFFFFFFFF DUP3 GT ISZERO PUSH2 0x2A3 JUMPI PUSH2 0x2A2 PUSH2 0x20D JUMP JUMPDEST JUMPDEST PUSH2 0x2AC DUP3 PUSH2 0x1FC JUMP JUMPDEST SWAP1 POP PUSH1 0x20 DUP2 ADD SWAP1 POP SWAP2 SWAP1 POP JUMP JUMPDEST DUP3 DUP2 DUP4 CALLDATACOPY PUSH1 0x0 DUP4 DUP4 ADD MSTORE POP POP POP JUMP JUMPDEST PUSH1 0x0 PUSH2 0x2DB PUSH2 0x2D6 DUP5 PUSH2 0x288 JUMP JUMPDEST PUSH2 0x26D JUMP JUMPDEST SWAP1 POP DUP3 DUP2 MSTORE PUSH1 0x20 DUP2 ADD DUP5 DUP5 DUP5 ADD GT ISZERO PUSH2 0x2F7 JUMPI PUSH2 0x2F6 PUSH2 0x1F7 JUMP JUMPDEST JUMPDEST PUSH2 0x302 DUP5 DUP3 DUP6 PUSH2 0x2B9 JUMP JUMPDEST POP SWAP4 SWAP3 POP POP POP JUMP JUMPDEST PUSH1 0x0 DUP3 PUSH1 0x1F DUP4 ADD SLT PUSH2 0x31F JUMPI PUSH2 0x31E PUSH2 0x1F2 JUMP JUMPDEST JUMPDEST DUP2 CALLDATALOAD PUSH2 0x32F DUP5 DUP3 PUSH1 0x20 DUP7 ADD PUSH2 0x2C8 JUMP JUMPDEST SWAP2 POP POP SWAP3 SWAP2 POP POP JUMP JUMPDEST PUSH1 0x0 DUP1 PUSH1 0x40 DUP4 DUP6 SUB SLT ISZERO PUSH2 0x34F JUMPI PUSH2 0x34E PUSH2 0x1E8 JUMP JUMPDEST JUMPDEST PUSH1 0x0 DUP4 ADD CALLDATALOAD PUSH8 0xFFFFFFFFFFFFFFFF DUP2 GT ISZERO PUSH2 0x36D JUMPI PUSH2 0x36C PUSH2 0x1ED JUMP JUMPDEST JUMPDEST PUSH2 0x379 DUP6 DUP3 DUP7 ADD PUSH2 0x30A JUMP JUMPDEST SWAP3 POP POP PUSH1 0x20 DUP4 ADD CALLDATALOAD PUSH8 0xFFFFFFFFFFFFFFFF DUP2 GT ISZERO PUSH2 0x39A JUMPI PUSH2 0x399 PUSH2 0x1ED JUMP JUMPDEST JUMPDEST PUSH2 0x3A6 DUP6 DUP3 DUP7 ADD PUSH2 0x30A JUMP JUMPDEST SWAP2 POP POP SWAP3 POP SWAP3 SWAP1 POP JUMP JUMPDEST PUSH1 0x0 DUP2 MLOAD SWAP1 POP SWAP2 SWAP1 POP JUMP JUMPDEST PUSH1 0x0 DUP3 DUP3 MSTORE PUSH1 0x20 DUP3 ADD SWAP1 POP SWAP3 SWAP2 POP POP JUMP JUMPDEST PUSH1 0x0 JUMPDEST DUP4 DUP2 LT ISZERO PUSH2 0x3EA JUMPI DUP1 DUP3 ADD MLOAD DUP2 DUP5 ADD MSTORE PUSH1 0x20 DUP2 ADD SWAP1 POP PUSH2 0x3CF JUMP JUMPDEST PUSH1 0x0 DUP5 DUP5 ADD MSTORE POP POP POP POP JUMP JUMPDEST PUSH1 0x0 PUSH2 0x401 DUP3 PUSH2 0x3B0 JUMP JUMPDEST PUSH2 0x40B DUP2 DUP6 PUSH2 0x3BB JUMP JUMPDEST SWAP4 POP PUSH2 0x41B DUP2 DUP6 PUSH1 0x20 DUP7 ADD PUSH2 0x3CC JUMP JUMPDEST PUSH2 0x424 DUP2 PUSH2 0x1FC JUMP JUMPDEST DUP5 ADD SWAP2 POP POP SWAP3 SWAP2 POP POP JUMP JUMPDEST PUSH1 0x0 PUSH1 0x20 DUP3 ADD SWAP1 POP DUP2 DUP2 SUB PUSH1 0x0 DUP4 ADD MSTORE PUSH2 0x449 DUP2 DUP5 PUSH2 0x3F6 JUMP JUMPDEST SWAP1 POP SWAP3 SWAP2 POP POP JUMP JUMPDEST PUSH32 0x4E487B7100000000000000000000000000000000000000000000000000000000 PUSH1 0x0 MSTORE PUSH1 0x22 PUSH1 0x4 MSTORE PUSH1 0x24 PUSH1 0x0 REVERT JUMPDEST PUSH1 0x0 PUSH1 0x2 DUP3 DIV SWAP1 POP PUSH1 0x1 DUP3 AND DUP1 PUSH2 0x498 JUMPI PUSH1 0x7F DUP3 AND SWAP2 POP JUMPDEST PUSH1 0x20 DUP3 LT DUP2 SUB PUSH2 0x4AB JUMPI PUSH2 0x4AA PUSH2 0x451 JUMP JUMPDEST JUMPDEST POP SWAP2 SWAP1 POP JUMP JUMPDEST PUSH1 0x0 DUP2 SWAP1 POP DUP2 PUSH1 0x0 MSTORE PUSH1 0x20 PUSH1 0x0 KECCAK256 SWAP1 POP SWAP2 SWAP1 POP JUMP JUMPDEST PUSH1 0x0 PUSH1 0x20 PUSH1 0x1F DUP4 ADD DIV SWAP1 POP SWAP2 SWAP1 POP JUMP JUMPDEST PUSH1 0x0 DUP3 DUP3 SHL SWAP1 POP SWAP3 SWAP2 POP POP JUMP JUMPDEST PUSH1 0x0 PUSH1 0x8 DUP4 MUL PUSH2 0x513 PUSH32 0xFFFFFFFFFFFFFFFFFFFFFFFFFFFFFFFFFFFFFFFFFFFFFFFFFFFFFFFFFFFFFFFF DUP3 PUSH2 0x4D6 JUMP JUMPDEST PUSH2 0x51D DUP7 DUP4 PUSH2 0x4D6 JUMP JUMPDEST SWAP6 POP DUP1 NOT DUP5 AND SWAP4 POP DUP1 DUP7 AND DUP5 OR SWAP3 POP POP POP SWAP4 SWAP3 POP POP POP JUMP JUMPDEST PUSH1 0x0 DUP2 SWAP1 POP SWAP2 SWAP1 POP JUMP JUMPDEST PUSH1 0x0 DUP2 SWAP1 POP SWAP2 SWAP1 POP JUMP JUMPDEST PUSH1 0x0 PUSH2 0x564 PUSH2 0x55F PUSH2 0x55A DUP5 PUSH2 0x535 JUMP JUMPDEST PUSH2 0x53F JUMP JUMPDEST PUSH2 0x535 JUMP JUMPDEST SWAP1 POP SWAP2 SWAP1 POP JUMP JUMPDEST PUSH1 0x0 DUP2 SWAP1 POP SWAP2 SWAP1 POP JUMP JUMPDEST PUSH2 0x57E DUP4 PUSH2 0x549 JUMP JUMPDEST PUSH2 0x592 PUSH2 0x58A DUP3 PUSH2 0x56B JUMP JUMPDEST DUP5 DUP5 SLOAD PUSH2 0x4E3 JUMP JUMPDEST DUP3 SSTORE POP POP POP POP JUMP JUMPDEST PUSH1 0x0 SWAP1 JUMP JUMPDEST PUSH2 0x5A7 PUSH2 0x59A JUMP JUMPDEST PUSH2 0x5B2 DUP2 DUP5 DUP5 PUSH2 0x575 JUMP JUMPDEST POP POP POP JUMP JUMPDEST JUMPDEST DUP2 DUP2 LT ISZERO PUSH2 0x5D6 JUMPI PUSH2 0x5CB PUSH1 0x0 DUP3 PUSH2 0x59F JUMP JUMPDEST PUSH1 0x1 DUP2 ADD SWAP1 POP PUSH2 0x5B8 JUMP JUMPDEST POP POP JUMP JUMPDEST PUSH1 0x1F DUP3 GT ISZERO PUSH2 0x61B JUMPI PUSH2 0x5EC DUP2 PUSH2 0x4B1 JUMP JUMPDEST PUSH2 0x5F5 DUP5 PUSH2 0x4C6 JUMP JUMPDEST DUP2 ADD PUSH1 0x20 DUP6 LT ISZERO PUSH2 0x604 JUMPI DUP2 SWAP1 POP JUMPDEST PUSH2 0x618 PUSH2 0x610 DUP6 PUSH2 0x4C6 JUMP JUMPDEST DUP4 ADD DUP3 PUSH2 0x5B7 JUMP JUMPDEST POP POP JUMPDEST POP POP POP JUMP JUMPDEST PUSH1 0x0 DUP3 DUP3 SHR SWAP1 POP SWAP3 SWAP2 POP POP JUMP JUMPDEST PUSH1 0x0 PUSH2 0x63E PUSH1 0x0 NOT DUP5 PUSH1 0x8 MUL PUSH2 0x620 JUMP JUMPDEST NOT DUP1 DUP4 AND SWAP2 POP POP SWAP3 SWAP2 POP POP JUMP JUMPDEST PUSH1 0x0 PUSH2 0x657 DUP4 DUP4 PUSH2 0x62D JUMP JUMPDEST SWAP2 POP DUP3 PUSH1 0x2 MUL DUP3 OR SWAP1 POP SWAP3 SWAP2 POP POP JUMP JUMPDEST PUSH2 0x670 DUP3 PUSH2 0x3B0 JUMP JUMPDEST PUSH8 0xFFFFFFFFFFFFFFFF DUP2 GT ISZERO PUSH2 0x689 JUMPI PUSH2 0x688 PUSH2 0x20D JUMP JUMPDEST JUMPDEST PUSH2 0x693 DUP3 SLOAD PUSH2 0x480 JUMP JUMPDEST PUSH2 0x69E DUP3 DUP3 DUP6 PUSH2 0x5DA JUMP JUMPDEST PUSH1 0x0 PUSH1 0x20 SWAP1 POP PUSH1 0x1F DUP4 GT PUSH1 0x1 DUP2 EQ PUSH2 0x6D1 JUMPI PUSH1 0x0 DUP5 ISZERO PUSH2 0x6BF JUMPI DUP3 DUP8 ADD MLOAD SWAP1 POP JUMPDEST PUSH2 0x6C9 DUP6 DUP3 PUSH2 0x64B JUMP JUMPDEST DUP7 SSTORE POP PUSH2 0x731 JUMP JUMPDEST PUSH1 0x1F NOT DUP5 AND PUSH2 0x6DF DUP7 PUSH2 0x4B1 JUMP JUMPDEST PUSH1 0x0 JUMPDEST DUP3 DUP2 LT ISZERO PUSH2 0x707 JUMPI DUP5 DUP10 ADD MLOAD DUP3 SSTORE PUSH1 0x1 DUP3 ADD SWAP2 POP PUSH1 0x20 DUP6 ADD SWAP5 POP PUSH1 0x20 DUP2 ADD SWAP1 POP PUSH2 0x6E2 JUMP JUMPDEST DUP7 DUP4 LT ISZERO PUSH2 0x724 JUMPI DUP5 DUP10 ADD MLOAD PUSH2 0x720 PUSH1 0x1F DUP10 AND DUP3 PUSH2 0x62D JUMP JUMPDEST DUP4 SSTORE POP JUMPDEST PUSH1 0x1 PUSH1 0x2 DUP9 MUL ADD DUP9 SSTORE POP POP POP JUMPDEST POP POP POP POP POP POP JUMP INVALID LOG2 PUSH5 0x6970667358 0x22 SLT KECCAK256 SWAP12 0xDF 0xE0 0xA8 DUP11 0x5C 0xC2 AND 0xE1 PUSH20 0x5FCB6E95AB8291D5C179D2A4412EF39C71D04E35 0xAB 0xE9 PUSH5 0x736F6C6343 STOP ADDMOD SLT STOP CALLER "
				},
				"gasEstimates": {
					"creation": {
						"codeDepositCost": "380600",
						"executionCost": "418",
						"totalCost": "381018"
					},
					"external": {
						"email()": "infinite",
						"message()": "infinite",
						"set_content(string,string)": "infinite"
					}
				},
				"methodIdentifiers": {
					"email()": "820e93f5",
					"message()": "e21f37ce",
					"set_content(string,string)": "6f6e678e"
				}
			},
			"storageLayout": {
				"storage": [
					{
						"astId": 3,
						"contract": "user_inheritance.sol:User",
						"label": "email",
						"offset": 0,
						"slot": "0",
						"type": "t_string_storage"
					},
					{
						"astId": 5,
						"contract": "user_inheritance.sol:User",
						"label": "message",
						"offset": 0,
						"slot": "1",
						"type": "t_string_storage"
					}
				],
				"types": {
					"t_string_storage": {
						"encoding": "bytes",
						"label": "string",
						"numberOfBytes": "32"
					}
				}
			},
			"userdoc": {
				"kind": "user",
				"methods": {},
				"version": 1
			}
		}
	}
}