{
	"user_inheritance.sol": {
		"LinkedIn": {
			"abi": [
				{
					"inputs": [],
					"name": "email",
					"outputs": [
						{
							"internalType": "string",
							"name": "",
							"type": "string"
						}
					],
					"stateMutability": "view",
					"type": "function"
				},
				{
					"inputs": [],
					"name": "get_app_detail",
					"outputs": [
						{
							"internalType": "string",
							"name": "",
							"type": "string"
						},
						{
							"internalType": "string",
							"name": "",
							"type": "string"
						},
						{
							"internalType": "string",
							"name": "",
							"type": "string"
						}
					],
					"stateMutability": "view",
					"type": "function"
				},
				{
					"inputs": [],
					"name": "message",
					"outputs": [
						{
							"internalType": "string",
							"name": "",
							"type": "string"
						}
					],
					"stateMutability": "view",
					"type": "function"
				},
				{
					"inputs": [],
					"name": "platform_name2",
					"outputs": [
						{
							"internalType": "string",
							"name": "",
							"type": "string"
						}
					],
					"stateMutability": "view",
					"type": "function"
				},
				{
					"inputs": [
						{
							"internalType": "string",
							"name": "_email",
							"type": "string"
						},
						{
							"internalType": "string",
							"name": "_message",
							"type": "string"
						}
					],
					"name": "set_content",
					"outputs": [],
					"stateMutability": "nonpayable",
					"type": "function"
				}
			],
			"devdoc": {
				"kind": "dev",
				"methods": {},
				"version": 1
			},
			"evm": {
				"assembly": "    /* \"user_inheritance.sol\":513:748  contract LinkedIn is User{... */\n  mstore(0x40, 0x80)\n    /* \"user_inheritance.sol\":545:586  string public platform_name2 = \"LinkedIn\" */\n  mload(0x40)\n  dup1\n  0x40\n  add\n  0x40\n  mstore\n  dup1\n  0x08\n  dup2\n  mstore\n  0x20\n  add\n  0x4c696e6b6564496e000000000000000000000000000000000000000000000000\n  dup2\n  mstore\n  pop\n  0x02\n  swap1\n  dup2\n  tag_1\n  swap2\n  swap1\n  tag_2\n  jump\t// in\ntag_1:\n  pop\n    /* \"user_inheritance.sol\":513:748  contract LinkedIn is User{... */\n  callvalue\n  dup1\n  iszero\n  tag_3\n  jumpi\n  0x00\n  dup1\n  revert\ntag_3:\n  pop\n  jump(tag_4)\n    /* \"#utility.yul\":7:106   */\ntag_5:\n    /* \"#utility.yul\":59:65   */\n  0x00\n    /* \"#utility.yul\":93:98   */\n  dup2\n    /* \"#utility.yul\":87:99   */\n  mload\n    /* \"#utility.yul\":77:99   */\n  swap1\n  pop\n    /* \"#utility.yul\":7:106   */\n  swap2\n  swap1\n  pop\n  jump\t// out\n    /* \"#utility.yul\":112:292   */\ntag_6:\n    /* \"#utility.yul\":160:237   */\n  0x4e487b7100000000000000000000000000000000000000000000000000000000\n    /* \"#utility.yul\":157:158   */\n  0x00\n    /* \"#utility.yul\":150:238   */\n  mstore\n    /* \"#utility.yul\":257:261   */\n  0x41\n    /* \"#utility.yul\":254:255   */\n  0x04\n    /* \"#utility.yul\":247:262   */\n  mstore\n    /* \"#utility.yul\":281:285   */\n  0x24\n    /* \"#utility.yul\":278:279   */\n  0x00\n    /* \"#utility.yul\":271:286   */\n  revert\n    /* \"#utility.yul\":298:478   */\ntag_7:\n    /* \"#utility.yul\":346:423   */\n  0x4e487b7100000000000000000000000000000000000000000000000000000000\n    /* \"#utility.yul\":343:344   */\n  0x00\n    /* \"#utility.yul\":336:424   */\n  mstore\n    /* \"#utility.yul\":443:447   */\n  0x22\n    /* \"#utility.yul\":440:441   */\n  0x04\n    /* \"#utility.yul\":433:448   */\n  mstore\n    /* \"#utility.yul\":467:471   */\n  0x24\n    /* \"#utility.yul\":464:465   */\n  0x00\n    /* \"#utility.yul\":457:472   */\n  revert\n    /* \"#utility.yul\":484:804   */\ntag_8:\n    /* \"#utility.yul\":528:534   */\n  0x00\n    /* \"#utility.yul\":565:566   */\n  0x02\n    /* \"#utility.yul\":559:563   */\n  dup3\n    /* \"#utility.yul\":555:567   */\n  div\n    /* \"#utility.yul\":545:567   */\n  swap1\n  pop\n    /* \"#utility.yul\":612:613   */\n  0x01\n    /* \"#utility.yul\":606:610   */\n  dup3\n    /* \"#utility.yul\":602:614   */\n  and\n    /* \"#utility.yul\":633:651   */\n  dup1\n    /* \"#utility.yul\":623:704   */\n  tag_30\n  jumpi\n    /* \"#utility.yul\":689:693   */\n  0x7f\n    /* \"#utility.yul\":681:687   */\n  dup3\n    /* \"#utility.yul\":677:694   */\n  and\n    /* \"#utility.yul\":667:694   */\n  swap2\n  pop\n    /* \"#utility.yul\":623:704   */\ntag_30:\n    /* \"#utility.yul\":751:753   */\n  0x20\n    /* \"#utility.yul\":743:749   */\n  dup3\n    /* \"#utility.yul\":740:754   */\n  lt\n    /* \"#utility.yul\":720:738   */\n  dup2\n    /* \"#utility.yul\":717:755   */\n  sub\n    /* \"#utility.yul\":714:798   */\n  tag_31\n  jumpi\n    /* \"#utility.yul\":770:788   */\n  tag_32\n  tag_7\n  jump\t// in\ntag_32:\n    /* \"#utility.yul\":714:798   */\ntag_31:\n    /* \"#utility.yul\":535:804   */\n  pop\n    /* \"#utility.yul\":484:804   */\n  swap2\n  swap1\n  pop\n  jump\t// out\n    /* \"#utility.yul\":810:951   */\ntag_9:\n    /* \"#utility.yul\":859:863   */\n  0x00\n    /* \"#utility.yul\":882:885   */\n  dup2\n    /* \"#utility.yul\":874:885   */\n  swap1\n  pop\n    /* \"#utility.yul\":905:908   */\n  dup2\n    /* \"#utility.yul\":902:903   */\n  0x00\n    /* \"#utility.yul\":895:909   */\n  mstore\n    /* \"#utility.yul\":939:943   */\n  0x20\n    /* \"#utility.yul\":936:937   */\n  0x00\n    /* \"#utility.yul\":926:944   */\n  keccak256\n    /* \"#utility.yul\":918:944   */\n  swap1\n  pop\n    /* \"#utility.yul\":810:951   */\n  swap2\n  swap1\n  pop\n  jump\t// out\n    /* \"#utility.yul\":957:1050   */\ntag_10:\n    /* \"#utility.yul\":994:1000   */\n  0x00\n    /* \"#utility.yul\":1041:1043   */\n  0x20\n    /* \"#utility.yul\":1036:1038   */\n  0x1f\n    /* \"#utility.yul\":1029:1034   */\n  dup4\n    /* \"#utility.yul\":1025:1039   */\n  add\n    /* \"#utility.yul\":1021:1044   */\n  div\n    /* \"#utility.yul\":1011:1044   */\n  swap1\n  pop\n    /* \"#utility.yul\":957:1050   */\n  swap2\n  swap1\n  pop\n  jump\t// out\n    /* \"#utility.yul\":1056:1163   */\ntag_11:\n    /* \"#utility.yul\":1100:1108   */\n  0x00\n    /* \"#utility.yul\":1150:1155   */\n  dup3\n    /* \"#utility.yul\":1144:1148   */\n  dup3\n    /* \"#utility.yul\":1140:1156   */\n  shl\n    /* \"#utility.yul\":1119:1156   */\n  swap1\n  pop\n    /* \"#utility.yul\":1056:1163   */\n  swap3\n  swap2\n  pop\n  pop\n  jump\t// out\n    /* \"#utility.yul\":1169:1562   */\ntag_12:\n    /* \"#utility.yul\":1238:1244   */\n  0x00\n    /* \"#utility.yul\":1288:1289   */\n  0x08\n    /* \"#utility.yul\":1276:1286   */\n  dup4\n    /* \"#utility.yul\":1272:1290   */\n  mul\n    /* \"#utility.yul\":1311:1408   */\n  tag_37\n    /* \"#utility.yul\":1341:1407   */\n  0xffffffffffffffffffffffffffffffffffffffffffffffffffffffffffffffff\n    /* \"#utility.yul\":1330:1339   */\n  dup3\n    /* \"#utility.yul\":1311:1408   */\n  tag_11\n  jump\t// in\ntag_37:\n    /* \"#utility.yul\":1429:1468   */\n  tag_38\n    /* \"#utility.yul\":1459:1467   */\n  dup7\n    /* \"#utility.yul\":1448:1457   */\n  dup4\n    /* \"#utility.yul\":1429:1468   */\n  tag_11\n  jump\t// in\ntag_38:\n    /* \"#utility.yul\":1417:1468   */\n  swap6\n  pop\n    /* \"#utility.yul\":1501:1505   */\n  dup1\n    /* \"#utility.yul\":1497:1506   */\n  not\n    /* \"#utility.yul\":1490:1495   */\n  dup5\n    /* \"#utility.yul\":1486:1507   */\n  and\n    /* \"#utility.yul\":1477:1507   */\n  swap4\n  pop\n    /* \"#utility.yul\":1550:1554   */\n  dup1\n    /* \"#utility.yul\":1540:1548   */\n  dup7\n    /* \"#utility.yul\":1536:1555   */\n  and\n    /* \"#utility.yul\":1529:1534   */\n  dup5\n    /* \"#utility.yul\":1526:1556   */\n  or\n    /* \"#utility.yul\":1516:1556   */\n  swap3\n  pop\n    /* \"#utility.yul\":1245:1562   */\n  pop\n  pop\n    /* \"#utility.yul\":1169:1562   */\n  swap4\n  swap3\n  pop\n  pop\n  pop\n  jump\t// out\n    /* \"#utility.yul\":1568:1645   */\ntag_13:\n    /* \"#utility.yul\":1605:1612   */\n  0x00\n    /* \"#utility.yul\":1634:1639   */\n  dup2\n    /* \"#utility.yul\":1623:1639   */\n  swap1\n  pop\n    /* \"#utility.yul\":1568:1645   */\n  swap2\n  swap1\n  pop\n  jump\t// out\n    /* \"#utility.yul\":1651:1711   */\ntag_14:\n    /* \"#utility.yul\":1679:1682   */\n  0x00\n    /* \"#utility.yul\":1700:1705   */\n  dup2\n    /* \"#utility.yul\":1693:1705   */\n  swap1\n  pop\n    /* \"#utility.yul\":1651:1711   */\n  swap2\n  swap1\n  pop\n  jump\t// out\n    /* \"#utility.yul\":1717:1859   */\ntag_15:\n    /* \"#utility.yul\":1767:1776   */\n  0x00\n    /* \"#utility.yul\":1800:1853   */\n  tag_42\n    /* \"#utility.yul\":1818:1852   */\n  tag_43\n    /* \"#utility.yul\":1827:1851   */\n  tag_44\n    /* \"#utility.yul\":1845:1850   */\n  dup5\n    /* \"#utility.yul\":1827:1851   */\n  tag_13\n  jump\t// in\ntag_44:\n    /* \"#utility.yul\":1818:1852   */\n  tag_14\n  jump\t// in\ntag_43:\n    /* \"#utility.yul\":1800:1853   */\n  tag_13\n  jump\t// in\ntag_42:\n    /* \"#utility.yul\":1787:1853   */\n  swap1\n  pop\n    /* \"#utility.yul\":1717:1859   */\n  swap2\n  swap1\n  pop\n  jump\t// out\n    /* \"#utility.yul\":1865:1940   */\ntag_16:\n    /* \"#utility.yul\":1908:1911   */\n  0x00\n    /* \"#utility.yul\":1929:1934   */\n  dup2\n    /* \"#utility.yul\":1922:1934   */\n  swap1\n  pop\n    /* \"#utility.yul\":1865:1940   */\n  swap2\n  swap1\n  pop\n  jump\t// out\n    /* \"#utility.yul\":1946:2215   */\ntag_17:\n    /* \"#utility.yul\":2056:2095   */\n  tag_47\n    /* \"#utility.yul\":2087:2094   */\n  dup4\n    /* \"#utility.yul\":2056:2095   */\n  tag_15\n  jump\t// in\ntag_47:\n    /* \"#utility.yul\":2117:2208   */\n  tag_48\n    /* \"#utility.yul\":2166:2207   */\n  tag_49\n    /* \"#utility.yul\":2190:2206   */\n  dup3\n    /* \"#utility.yul\":2166:2207   */\n  tag_16\n  jump\t// in\ntag_49:\n    /* \"#utility.yul\":2158:2164   */\n  dup5\n    /* \"#utility.yul\":2151:2155   */\n  dup5\n    /* \"#utility.yul\":2145:2156   */\n  sload\n    /* \"#utility.yul\":2117:2208   */\n  tag_12\n  jump\t// in\ntag_48:\n    /* \"#utility.yul\":2111:2115   */\n  dup3\n    /* \"#utility.yul\":2104:2209   */\n  sstore\n    /* \"#utility.yul\":2022:2215   */\n  pop\n    /* \"#utility.yul\":1946:2215   */\n  pop\n  pop\n  pop\n  jump\t// out\n    /* \"#utility.yul\":2221:2294   */\ntag_18:\n    /* \"#utility.yul\":2266:2269   */\n  0x00\n    /* \"#utility.yul\":2221:2294   */\n  swap1\n  jump\t// out\n    /* \"#utility.yul\":2300:2489   */\ntag_19:\n    /* \"#utility.yul\":2377:2409   */\n  tag_52\n  tag_18\n  jump\t// in\ntag_52:\n    /* \"#utility.yul\":2418:2483   */\n  tag_53\n    /* \"#utility.yul\":2476:2482   */\n  dup2\n    /* \"#utility.yul\":2468:2474   */\n  dup5\n    /* \"#utility.yul\":2462:2466   */\n  dup5\n    /* \"#utility.yul\":2418:2483   */\n  tag_17\n  jump\t// in\ntag_53:\n    /* \"#utility.yul\":2353:2489   */\n  pop\n    /* \"#utility.yul\":2300:2489   */\n  pop\n  pop\n  jump\t// out\n    /* \"#utility.yul\":2495:2681   */\ntag_20:\n    /* \"#utility.yul\":2555:2675   */\ntag_55:\n    /* \"#utility.yul\":2572:2575   */\n  dup2\n    /* \"#utility.yul\":2565:2570   */\n  dup2\n    /* \"#utility.yul\":2562:2576   */\n  lt\n    /* \"#utility.yul\":2555:2675   */\n  iszero\n  tag_57\n  jumpi\n    /* \"#utility.yul\":2626:2665   */\n  tag_58\n    /* \"#utility.yul\":2663:2664   */\n  0x00\n    /* \"#utility.yul\":2656:2661   */\n  dup3\n    /* \"#utility.yul\":2626:2665   */\n  tag_19\n  jump\t// in\ntag_58:\n    /* \"#utility.yul\":2599:2600   */\n  0x01\n    /* \"#utility.yul\":2592:2597   */\n  dup2\n    /* \"#utility.yul\":2588:2601   */\n  add\n    /* \"#utility.yul\":2579:2601   */\n  swap1\n  pop\n    /* \"#utility.yul\":2555:2675   */\n  jump(tag_55)\ntag_57:\n    /* \"#utility.yul\":2495:2681   */\n  pop\n  pop\n  jump\t// out\n    /* \"#utility.yul\":2687:3230   */\ntag_21:\n    /* \"#utility.yul\":2788:2790   */\n  0x1f\n    /* \"#utility.yul\":2783:2786   */\n  dup3\n    /* \"#utility.yul\":2780:2791   */\n  gt\n    /* \"#utility.yul\":2777:3223   */\n  iszero\n  tag_60\n  jumpi\n    /* \"#utility.yul\":2822:2860   */\n  tag_61\n    /* \"#utility.yul\":2854:2859   */\n  dup2\n    /* \"#utility.yul\":2822:2860   */\n  tag_9\n  jump\t// in\ntag_61:\n    /* \"#utility.yul\":2906:2935   */\n  tag_62\n    /* \"#utility.yul\":2924:2934   */\n  dup5\n    /* \"#utility.yul\":2906:2935   */\n  tag_10\n  jump\t// in\ntag_62:\n    /* \"#utility.yul\":2896:2904   */\n  dup2\n    /* \"#utility.yul\":2892:2936   */\n  add\n    /* \"#utility.yul\":3089:3091   */\n  0x20\n    /* \"#utility.yul\":3077:3087   */\n  dup6\n    /* \"#utility.yul\":3074:3092   */\n  lt\n    /* \"#utility.yul\":3071:3120   */\n  iszero\n  tag_63\n  jumpi\n    /* \"#utility.yul\":3110:3118   */\n  dup2\n    /* \"#utility.yul\":3095:3118   */\n  swap1\n  pop\n    /* \"#utility.yul\":3071:3120   */\ntag_63:\n    /* \"#utility.yul\":3133:3213   */\n  tag_64\n    /* \"#utility.yul\":3189:3211   */\n  tag_65\n    /* \"#utility.yul\":3207:3210   */\n  dup6\n    /* \"#utility.yul\":3189:3211   */\n  tag_10\n  jump\t// in\ntag_65:\n    /* \"#utility.yul\":3179:3187   */\n  dup4\n    /* \"#utility.yul\":3175:3212   */\n  add\n    /* \"#utility.yul\":3162:3173   */\n  dup3\n    /* \"#utility.yul\":3133:3213   */\n  tag_20\n  jump\t// in\ntag_64:\n    /* \"#utility.yul\":2792:3223   */\n  pop\n  pop\n    /* \"#utility.yul\":2777:3223   */\ntag_60:\n    /* \"#utility.yul\":2687:3230   */\n  pop\n  pop\n  pop\n  jump\t// out\n    /* \"#utility.yul\":3236:3353   */\ntag_22:\n    /* \"#utility.yul\":3290:3298   */\n  0x00\n    /* \"#utility.yul\":3340:3345   */\n  dup3\n    /* \"#utility.yul\":3334:3338   */\n  dup3\n    /* \"#utility.yul\":3330:3346   */\n  shr\n    /* \"#utility.yul\":3309:3346   */\n  swap1\n  pop\n    /* \"#utility.yul\":3236:3353   */\n  swap3\n  swap2\n  pop\n  pop\n  jump\t// out\n    /* \"#utility.yul\":3359:3528   */\ntag_23:\n    /* \"#utility.yul\":3403:3409   */\n  0x00\n    /* \"#utility.yul\":3436:3487   */\n  tag_68\n    /* \"#utility.yul\":3484:3485   */\n  0x00\n    /* \"#utility.yul\":3480:3486   */\n  not\n    /* \"#utility.yul\":3472:3477   */\n  dup5\n    /* \"#utility.yul\":3469:3470   */\n  0x08\n    /* \"#utility.yul\":3465:3478   */\n  mul\n    /* \"#utility.yul\":3436:3487   */\n  tag_22\n  jump\t// in\ntag_68:\n    /* \"#utility.yul\":3432:3488   */\n  not\n    /* \"#utility.yul\":3517:3521   */\n  dup1\n    /* \"#utility.yul\":3511:3515   */\n  dup4\n    /* \"#utility.yul\":3507:3522   */\n  and\n    /* \"#utility.yul\":3497:3522   */\n  swap2\n  pop\n    /* \"#utility.yul\":3410:3528   */\n  pop\n    /* \"#utility.yul\":3359:3528   */\n  swap3\n  swap2\n  pop\n  pop\n  jump\t// out\n    /* \"#utility.yul\":3533:3828   */\ntag_24:\n    /* \"#utility.yul\":3609:3613   */\n  0x00\n    /* \"#utility.yul\":3755:3784   */\n  tag_70\n    /* \"#utility.yul\":3780:3783   */\n  dup4\n    /* \"#utility.yul\":3774:3778   */\n  dup4\n    /* \"#utility.yul\":3755:3784   */\n  tag_23\n  jump\t// in\ntag_70:\n    /* \"#utility.yul\":3747:3784   */\n  swap2\n  pop\n    /* \"#utility.yul\":3817:3820   */\n  dup3\n    /* \"#utility.yul\":3814:3815   */\n  0x02\n    /* \"#utility.yul\":3810:3821   */\n  mul\n    /* \"#utility.yul\":3804:3808   */\n  dup3\n    /* \"#utility.yul\":3801:3822   */\n  or\n    /* \"#utility.yul\":3793:3822   */\n  swap1\n  pop\n    /* \"#utility.yul\":3533:3828   */\n  swap3\n  swap2\n  pop\n  pop\n  jump\t// out\n    /* \"#utility.yul\":3833:5228   */\ntag_2:\n    /* \"#utility.yul\":3950:3987   */\n  tag_72\n    /* \"#utility.yul\":3983:3986   */\n  dup3\n    /* \"#utility.yul\":3950:3987   */\n  tag_5\n  jump\t// in\ntag_72:\n    /* \"#utility.yul\":4052:4070   */\n  0xffffffffffffffff\n    /* \"#utility.yul\":4044:4050   */\n  dup2\n    /* \"#utility.yul\":4041:4071   */\n  gt\n    /* \"#utility.yul\":4038:4094   */\n  iszero\n  tag_73\n  jumpi\n    /* \"#utility.yul\":4074:4092   */\n  tag_74\n  tag_6\n  jump\t// in\ntag_74:\n    /* \"#utility.yul\":4038:4094   */\ntag_73:\n    /* \"#utility.yul\":4118:4156   */\n  tag_75\n    /* \"#utility.yul\":4150:4154   */\n  dup3\n    /* \"#utility.yul\":4144:4155   */\n  sload\n    /* \"#utility.yul\":4118:4156   */\n  tag_8\n  jump\t// in\ntag_75:\n    /* \"#utility.yul\":4203:4270   */\n  tag_76\n    /* \"#utility.yul\":4263:4269   */\n  dup3\n    /* \"#utility.yul\":4255:4261   */\n  dup3\n    /* \"#utility.yul\":4249:4253   */\n  dup6\n    /* \"#utility.yul\":4203:4270   */\n  tag_21\n  jump\t// in\ntag_76:\n    /* \"#utility.yul\":4297:4298   */\n  0x00\n    /* \"#utility.yul\":4321:4325   */\n  0x20\n    /* \"#utility.yul\":4308:4325   */\n  swap1\n  pop\n    /* \"#utility.yul\":4353:4355   */\n  0x1f\n    /* \"#utility.yul\":4345:4351   */\n  dup4\n    /* \"#utility.yul\":4342:4356   */\n  gt\n    /* \"#utility.yul\":4370:4371   */\n  0x01\n    /* \"#utility.yul\":4365:4983   */\n  dup2\n  eq\n  tag_78\n  jumpi\n    /* \"#utility.yul\":5027:5028   */\n  0x00\n    /* \"#utility.yul\":5044:5050   */\n  dup5\n    /* \"#utility.yul\":5041:5118   */\n  iszero\n  tag_79\n  jumpi\n    /* \"#utility.yul\":5093:5102   */\n  dup3\n    /* \"#utility.yul\":5088:5091   */\n  dup8\n    /* \"#utility.yul\":5084:5103   */\n  add\n    /* \"#utility.yul\":5078:5104   */\n  mload\n    /* \"#utility.yul\":5069:5104   */\n  swap1\n  pop\n    /* \"#utility.yul\":5041:5118   */\ntag_79:\n    /* \"#utility.yul\":5144:5211   */\n  tag_80\n    /* \"#utility.yul\":5204:5210   */\n  dup6\n    /* \"#utility.yul\":5197:5202   */\n  dup3\n    /* \"#utility.yul\":5144:5211   */\n  tag_24\n  jump\t// in\ntag_80:\n    /* \"#utility.yul\":5138:5142   */\n  dup7\n    /* \"#utility.yul\":5131:5212   */\n  sstore\n    /* \"#utility.yul\":5000:5222   */\n  pop\n    /* \"#utility.yul\":4335:5222   */\n  jump(tag_77)\n    /* \"#utility.yul\":4365:4983   */\ntag_78:\n    /* \"#utility.yul\":4417:4421   */\n  0x1f\n    /* \"#utility.yul\":4413:4422   */\n  not\n    /* \"#utility.yul\":4405:4411   */\n  dup5\n    /* \"#utility.yul\":4401:4423   */\n  and\n    /* \"#utility.yul\":4451:4488   */\n  tag_81\n    /* \"#utility.yul\":4483:4487   */\n  dup7\n    /* \"#utility.yul\":4451:4488   */\n  tag_9\n  jump\t// in\ntag_81:\n    /* \"#utility.yul\":4510:4511   */\n  0x00\n    /* \"#utility.yul\":4524:4732   */\ntag_82:\n    /* \"#utility.yul\":4538:4545   */\n  dup3\n    /* \"#utility.yul\":4535:4536   */\n  dup2\n    /* \"#utility.yul\":4532:4546   */\n  lt\n    /* \"#utility.yul\":4524:4732   */\n  iszero\n  tag_84\n  jumpi\n    /* \"#utility.yul\":4617:4626   */\n  dup5\n    /* \"#utility.yul\":4612:4615   */\n  dup10\n    /* \"#utility.yul\":4608:4627   */\n  add\n    /* \"#utility.yul\":4602:4628   */\n  mload\n    /* \"#utility.yul\":4594:4600   */\n  dup3\n    /* \"#utility.yul\":4587:4629   */\n  sstore\n    /* \"#utility.yul\":4668:4669   */\n  0x01\n    /* \"#utility.yul\":4660:4666   */\n  dup3\n    /* \"#utility.yul\":4656:4670   */\n  add\n    /* \"#utility.yul\":4646:4670   */\n  swap2\n  pop\n    /* \"#utility.yul\":4715:4717   */\n  0x20\n    /* \"#utility.yul\":4704:4713   */\n  dup6\n    /* \"#utility.yul\":4700:4718   */\n  add\n    /* \"#utility.yul\":4687:4718   */\n  swap5\n  pop\n    /* \"#utility.yul\":4561:4565   */\n  0x20\n    /* \"#utility.yul\":4558:4559   */\n  dup2\n    /* \"#utility.yul\":4554:4566   */\n  add\n    /* \"#utility.yul\":4549:4566   */\n  swap1\n  pop\n    /* \"#utility.yul\":4524:4732   */\n  jump(tag_82)\ntag_84:\n    /* \"#utility.yul\":4760:4766   */\n  dup7\n    /* \"#utility.yul\":4751:4758   */\n  dup4\n    /* \"#utility.yul\":4748:4767   */\n  lt\n    /* \"#utility.yul\":4745:4924   */\n  iszero\n  tag_85\n  jumpi\n    /* \"#utility.yul\":4818:4827   */\n  dup5\n    /* \"#utility.yul\":4813:4816   */\n  dup10\n    /* \"#utility.yul\":4809:4828   */\n  add\n    /* \"#utility.yul\":4803:4829   */\n  mload\n    /* \"#utility.yul\":4861:4909   */\n  tag_86\n    /* \"#utility.yul\":4903:4907   */\n  0x1f\n    /* \"#utility.yul\":4895:4901   */\n  dup10\n    /* \"#utility.yul\":4891:4908   */\n  and\n    /* \"#utility.yul\":4880:4889   */\n  dup3\n    /* \"#utility.yul\":4861:4909   */\n  tag_23\n  jump\t// in\ntag_86:\n    /* \"#utility.yul\":4853:4859   */\n  dup4\n    /* \"#utility.yul\":4846:4910   */\n  sstore\n    /* \"#utility.yul\":4768:4924   */\n  pop\n    /* \"#utility.yul\":4745:4924   */\ntag_85:\n    /* \"#utility.yul\":4970:4971   */\n  0x01\n    /* \"#utility.yul\":4966:4967   */\n  0x02\n    /* \"#utility.yul\":4958:4964   */\n  dup9\n    /* \"#utility.yul\":4954:4968   */\n  mul\n    /* \"#utility.yul\":4950:4972   */\n  add\n    /* \"#utility.yul\":4944:4948   */\n  dup9\n    /* \"#utility.yul\":4937:4973   */\n  sstore\n    /* \"#utility.yul\":4372:4983   */\n  pop\n  pop\n  pop\n    /* \"#utility.yul\":4335:5222   */\ntag_77:\n  pop\n    /* \"#utility.yul\":3925:5228   */\n  pop\n  pop\n  pop\n    /* \"#utility.yul\":3833:5228   */\n  pop\n  pop\n  jump\t// out\n    /* \"user_inheritance.sol\":513:748  contract LinkedIn is User{... */\ntag_4:\n  dataSize(sub_0)\n  dup1\n  dataOffset(sub_0)\n  0x00\n  codecopy\n  0x00\n  return\nstop\n\nsub_0: assembly {\n        /* \"user_inheritance.sol\":513:748  contract LinkedIn is User{... */\n      mstore(0x40, 0x80)\n      callvalue\n      dup1\n      iszero\n      tag_1\n      jumpi\n      0x00\n      dup1\n      revert\n    tag_1:\n      pop\n      jumpi(tag_2, lt(calldatasize, 0x04))\n      shr(0xe0, calldataload(0x00))\n      dup1\n      0x0e43164e\n      eq\n      tag_3\n      jumpi\n      dup1\n      0x2cee9c43\n      eq\n      tag_4\n      jumpi\n      dup1\n      0x6f6e678e\n      eq\n      tag_5\n      jumpi\n      dup1\n      0x820e93f5\n      eq\n      tag_6\n      jumpi\n      dup1\n      0xe21f37ce\n      eq\n      tag_7\n      jumpi\n    tag_2:\n      0x00\n      dup1\n      revert\n        /* \"user_inheritance.sol\":595:745  function get_app_detail () public view returns (string memory, string memory, string memory){... */\n    tag_3:\n      tag_8\n      tag_9\n      jump\t// in\n    tag_8:\n      mload(0x40)\n      tag_10\n      swap4\n      swap3\n      swap2\n      swap1\n      tag_11\n      jump\t// in\n    tag_10:\n      mload(0x40)\n      dup1\n      swap2\n      sub\n      swap1\n      return\n        /* \"user_inheritance.sol\":545:586  string public platform_name2 = \"LinkedIn\" */\n    tag_4:\n      tag_12\n      tag_13\n      jump\t// in\n    tag_12:\n      mload(0x40)\n      tag_14\n      swap2\n      swap1\n      tag_15\n      jump\t// in\n    tag_14:\n      mload(0x40)\n      dup1\n      swap2\n      sub\n      swap1\n      return\n        /* \"user_inheritance.sol\":136:272  function set_content(string memory _email, string memory _message) public {... */\n    tag_5:\n      tag_16\n      0x04\n      dup1\n      calldatasize\n      sub\n      dup2\n      add\n      swap1\n      tag_17\n      swap2\n      swap1\n      tag_18\n      jump\t// in\n    tag_17:\n      tag_19\n      jump\t// in\n    tag_16:\n      stop\n        /* \"user_inheritance.sol\":80:99  string public email */\n    tag_6:\n      tag_20\n      tag_21\n      jump\t// in\n    tag_20:\n      mload(0x40)\n      tag_22\n      swap2\n      swap1\n      tag_15\n      jump\t// in\n    tag_22:\n      mload(0x40)\n      dup1\n      swap2\n      sub\n      swap1\n      return\n        /* \"user_inheritance.sol\":106:127  string public message */\n    tag_7:\n      tag_23\n      tag_24\n      jump\t// in\n    tag_23:\n      mload(0x40)\n      tag_25\n      swap2\n      swap1\n      tag_15\n      jump\t// in\n    tag_25:\n      mload(0x40)\n      dup1\n      swap2\n      sub\n      swap1\n      return\n        /* \"user_inheritance.sol\":595:745  function get_app_detail () public view returns (string memory, string memory, string memory){... */\n    tag_9:\n        /* \"user_inheritance.sol\":643:656  string memory */\n      0x60\n        /* \"user_inheritance.sol\":658:671  string memory */\n      dup1\n        /* \"user_inheritance.sol\":673:686  string memory */\n      0x60\n        /* \"user_inheritance.sol\":706:720  platform_name2 */\n      0x02\n        /* \"user_inheritance.sol\":722:727  email */\n      0x00\n        /* \"user_inheritance.sol\":729:736  message */\n      0x01\n        /* \"user_inheritance.sol\":698:737  return (platform_name2, email, message) */\n      dup3\n      dup1\n      sload\n      tag_27\n      swap1\n      tag_28\n      jump\t// in\n    tag_27:\n      dup1\n      0x1f\n      add\n      0x20\n      dup1\n      swap2\n      div\n      mul\n      0x20\n      add\n      mload(0x40)\n      swap1\n      dup2\n      add\n      0x40\n      mstore\n      dup1\n      swap3\n      swap2\n      swap1\n      dup2\n      dup2\n      mstore\n      0x20\n      add\n      dup3\n      dup1\n      sload\n      tag_29\n      swap1\n      tag_28\n      jump\t// in\n    tag_29:\n      dup1\n      iszero\n      tag_30\n      jumpi\n      dup1\n      0x1f\n      lt\n      tag_31\n      jumpi\n      0x0100\n      dup1\n      dup4\n      sload\n      div\n      mul\n      dup4\n      mstore\n      swap2\n      0x20\n      add\n      swap2\n      jump(tag_30)\n    tag_31:\n      dup3\n      add\n      swap2\n      swap1\n      0x00\n      mstore\n      keccak256(0x00, 0x20)\n      swap1\n    tag_32:\n      dup2\n      sload\n      dup2\n      mstore\n      swap1\n      0x01\n      add\n      swap1\n      0x20\n      add\n      dup1\n      dup4\n      gt\n      tag_32\n      jumpi\n      dup3\n      swap1\n      sub\n      0x1f\n      and\n      dup3\n      add\n      swap2\n    tag_30:\n      pop\n      pop\n      pop\n      pop\n      pop\n      swap3\n      pop\n      dup2\n      dup1\n      sload\n      tag_33\n      swap1\n      tag_28\n      jump\t// in\n    tag_33:\n      dup1\n      0x1f\n      add\n      0x20\n      dup1\n      swap2\n      div\n      mul\n      0x20\n      add\n      mload(0x40)\n      swap1\n      dup2\n      add\n      0x40\n      mstore\n      dup1\n      swap3\n      swap2\n      swap1\n      dup2\n      dup2\n      mstore\n      0x20\n      add\n      dup3\n      dup1\n      sload\n      tag_34\n      swap1\n      tag_28\n      jump\t// in\n    tag_34:\n      dup1\n      iszero\n      tag_35\n      jumpi\n      dup1\n      0x1f\n      lt\n      tag_36\n      jumpi\n      0x0100\n      dup1\n      dup4\n      sload\n      div\n      mul\n      dup4\n      mstore\n      swap2\n      0x20\n      add\n      swap2\n      jump(tag_35)\n    tag_36:\n      dup3\n      add\n      swap2\n      swap1\n      0x00\n      mstore\n      keccak256(0x00, 0x20)\n      swap1\n    tag_37:\n      dup2\n      sload\n      dup2\n      mstore\n      swap1\n      0x01\n      add\n      swap1\n      0x20\n      add\n      dup1\n      dup4\n      gt\n      tag_37\n      jumpi\n      dup3\n      swap1\n      sub\n      0x1f\n      and\n      dup3\n      add\n      swap2\n    tag_35:\n      pop\n      pop\n      pop\n      pop\n      pop\n      swap2\n      pop\n      dup1\n      dup1\n      sload\n      tag_38\n      swap1\n      tag_28\n      jump\t// in\n    tag_38:\n      dup1\n      0x1f\n      add\n      0x20\n      dup1\n      swap2\n      div\n      mul\n      0x20\n      add\n      mload(0x40)\n      swap1\n      dup2\n      add\n      0x40\n      mstore\n      dup1\n      swap3\n      swap2\n      swap1\n      dup2\n      dup2\n      mstore\n      0x20\n      add\n      dup3\n      dup1\n      sload\n      tag_39\n      swap1\n      tag_28\n      jump\t// in\n    tag_39:\n      dup1\n      iszero\n      tag_40\n      jumpi\n      dup1\n      0x1f\n      lt\n      tag_41\n      jumpi\n      0x0100\n      dup1\n      dup4\n      sload\n      div\n      mul\n      dup4\n      mstore\n      swap2\n      0x20\n      add\n      swap2\n      jump(tag_40)\n    tag_41:\n      dup3\n      add\n      swap2\n      swap1\n      0x00\n      mstore\n      keccak256(0x00, 0x20)\n      swap1\n    tag_42:\n      dup2\n      sload\n      dup2\n      mstore\n      swap1\n      0x01\n      add\n      swap1\n      0x20\n      add\n      dup1\n      dup4\n      gt\n      tag_42\n      jumpi\n      dup3\n      swap1\n      sub\n      0x1f\n      and\n      dup3\n      add\n      swap2\n    tag_40:\n      pop\n      pop\n      pop\n      pop\n      pop\n      swap1\n      pop\n      swap3\n      pop\n      swap3\n      pop\n      swap3\n      pop\n        /* \"user_inheritance.sol\":595:745  function get_app_detail () public view returns (string memory, string memory, string memory){... */\n      swap1\n      swap2\n      swap3\n      jump\t// out\n        /* \"user_inheritance.sol\":545:586  string public platform_name2 = \"LinkedIn\" */\n    tag_13:\n      0x02\n      dup1\n      sload\n      tag_43\n      swap1\n      tag_28\n      jump\t// in\n    tag_43:\n      dup1\n      0x1f\n      add\n      0x20\n      dup1\n      swap2\n      div\n      mul\n      0x20\n      add\n      mload(0x40)\n      swap1\n      dup2\n      add\n      0x40\n      mstore\n      dup1\n      swap3\n      swap2\n      swap1\n      dup2\n      dup2\n      mstore\n      0x20\n      add\n      dup3\n      dup1\n      sload\n      tag_44\n      swap1\n      tag_28\n      jump\t// in\n    tag_44:\n      dup1\n      iszero\n      tag_45\n      jumpi\n      dup1\n      0x1f\n      lt\n      tag_46\n      jumpi\n      0x0100\n      dup1\n      dup4\n      sload\n      div\n      mul\n      dup4\n      mstore\n      swap2\n      0x20\n      add\n      swap2\n      jump(tag_45)\n    tag_46:\n      dup3\n      add\n      swap2\n      swap1\n      0x00\n      mstore\n      keccak256(0x00, 0x20)\n      swap1\n    tag_47:\n      dup2\n      sload\n      dup2\n      mstore\n      swap1\n      0x01\n      add\n      swap1\n      0x20\n      add\n      dup1\n      dup4\n      gt\n      tag_47\n      jumpi\n      dup3\n      swap1\n      sub\n      0x1f\n      and\n      dup3\n      add\n      swap2\n    tag_45:\n      pop\n      pop\n      pop\n      pop\n      pop\n      dup2\n      jump\t// out\n        /* \"user_inheritance.sol\":136:272  function set_content(string memory _email, string memory _message) public {... */\n    tag_19:\n        /* \"user_inheritance.sol\":229:235  _email */\n      dup2\n        /* \"user_inheritance.sol\":221:226  email */\n      0x00\n        /* \"user_inheritance.sol\":221:235  email = _email */\n      swap1\n      dup2\n      tag_49\n      swap2\n      swap1\n      tag_50\n      jump\t// in\n    tag_49:\n      pop\n        /* \"user_inheritance.sol\":256:264  _message */\n      dup1\n        /* \"user_inheritance.sol\":246:253  message */\n      0x01\n        /* \"user_inheritance.sol\":246:264  message = _message */\n      swap1\n      dup2\n      tag_51\n      swap2\n      swap1\n      tag_50\n      jump\t// in\n    tag_51:\n      pop\n        /* \"user_inheritance.sol\":136:272  function set_content(string memory _email, string memory _message) public {... */\n      pop\n      pop\n      jump\t// out\n        /* \"user_inheritance.sol\":80:99  string public email */\n    tag_21:\n      0x00\n      dup1\n      sload\n      tag_52\n      swap1\n      tag_28\n      jump\t// in\n    tag_52:\n      dup1\n      0x1f\n      add\n      0x20\n      dup1\n      swap2\n      div\n      mul\n      0x20\n      add\n      mload(0x40)\n      swap1\n      dup2\n      add\n      0x40\n      mstore\n      dup1\n      swap3\n      swap2\n      swap1\n      dup2\n      dup2\n      mstore\n      0x20\n      add\n      dup3\n      dup1\n      sload\n      tag_53\n      swap1\n      tag_28\n      jump\t// in\n    tag_53:\n      dup1\n      iszero\n      tag_54\n      jumpi\n      dup1\n      0x1f\n      lt\n      tag_55\n      jumpi\n      0x0100\n      dup1\n      dup4\n      sload\n      div\n      mul\n      dup4\n      mstore\n      swap2\n      0x20\n      add\n      swap2\n      jump(tag_54)\n    tag_55:\n      dup3\n      add\n      swap2\n      swap1\n      0x00\n      mstore\n      keccak256(0x00, 0x20)\n      swap1\n    tag_56:\n      dup2\n      sload\n      dup2\n      mstore\n      swap1\n      0x01\n      add\n      swap1\n      0x20\n      add\n      dup1\n      dup4\n      gt\n      tag_56\n      jumpi\n      dup3\n      swap1\n      sub\n      0x1f\n      and\n      dup3\n      add\n      swap2\n    tag_54:\n      pop\n      pop\n      pop\n      pop\n      pop\n      dup2\n      jump\t// out\n        /* \"user_inheritance.sol\":106:127  string public message */\n    tag_24:\n      0x01\n      dup1\n      sload\n      tag_57\n      swap1\n      tag_28\n      jump\t// in\n    tag_57:\n      dup1\n      0x1f\n      add\n      0x20\n      dup1\n      swap2\n      div\n      mul\n      0x20\n      add\n      mload(0x40)\n      swap1\n      dup2\n      add\n      0x40\n      mstore\n      dup1\n      swap3\n      swap2\n      swap1\n      dup2\n      dup2\n      mstore\n      0x20\n      add\n      dup3\n      dup1\n      sload\n      tag_58\n      swap1\n      tag_28\n      jump\t// in\n    tag_58:\n      dup1\n      iszero\n      tag_59\n      jumpi\n      dup1\n      0x1f\n      lt\n      tag_60\n      jumpi\n      0x0100\n      dup1\n      dup4\n      sload\n      div\n      mul\n      dup4\n      mstore\n      swap2\n      0x20\n      add\n      swap2\n      jump(tag_59)\n    tag_60:\n      dup3\n      add\n      swap2\n      swap1\n      0x00\n      mstore\n      keccak256(0x00, 0x20)\n      swap1\n    tag_61:\n      dup2\n      sload\n      dup2\n      mstore\n      swap1\n      0x01\n      add\n      swap1\n      0x20\n      add\n      dup1\n      dup4\n      gt\n      tag_61\n      jumpi\n      dup3\n      swap1\n      sub\n      0x1f\n      and\n      dup3\n      add\n      swap2\n    tag_59:\n      pop\n      pop\n      pop\n      pop\n      pop\n      dup2\n      jump\t// out\n        /* \"#utility.yul\":7:106   */\n    tag_62:\n        /* \"#utility.yul\":59:65   */\n      0x00\n        /* \"#utility.yul\":93:98   */\n      dup2\n        /* \"#utility.yul\":87:99   */\n      mload\n        /* \"#utility.yul\":77:99   */\n      swap1\n      pop\n        /* \"#utility.yul\":7:106   */\n      swap2\n      swap1\n      pop\n      jump\t// out\n        /* \"#utility.yul\":112:281   */\n    tag_63:\n        /* \"#utility.yul\":196:207   */\n      0x00\n        /* \"#utility.yul\":230:236   */\n      dup3\n        /* \"#utility.yul\":225:228   */\n      dup3\n        /* \"#utility.yul\":218:237   */\n      mstore\n        /* \"#utility.yul\":270:274   */\n      0x20\n        /* \"#utility.yul\":265:268   */\n      dup3\n        /* \"#utility.yul\":261:275   */\n      add\n        /* \"#utility.yul\":246:275   */\n      swap1\n      pop\n        /* \"#utility.yul\":112:281   */\n      swap3\n      swap2\n      pop\n      pop\n      jump\t// out\n        /* \"#utility.yul\":287:533   */\n    tag_64:\n        /* \"#utility.yul\":368:369   */\n      0x00\n        /* \"#utility.yul\":378:491   */\n    tag_100:\n        /* \"#utility.yul\":392:398   */\n      dup4\n        /* \"#utility.yul\":389:390   */\n      dup2\n        /* \"#utility.yul\":386:399   */\n      lt\n        /* \"#utility.yul\":378:491   */\n      iszero\n      tag_102\n      jumpi\n        /* \"#utility.yul\":477:478   */\n      dup1\n        /* \"#utility.yul\":472:475   */\n      dup3\n        /* \"#utility.yul\":468:479   */\n      add\n        /* \"#utility.yul\":462:480   */\n      mload\n        /* \"#utility.yul\":458:459   */\n      dup2\n        /* \"#utility.yul\":453:456   */\n      dup5\n        /* \"#utility.yul\":449:460   */\n      add\n        /* \"#utility.yul\":442:481   */\n      mstore\n        /* \"#utility.yul\":414:416   */\n      0x20\n        /* \"#utility.yul\":411:412   */\n      dup2\n        /* \"#utility.yul\":407:417   */\n      add\n        /* \"#utility.yul\":402:417   */\n      swap1\n      pop\n        /* \"#utility.yul\":378:491   */\n      jump(tag_100)\n    tag_102:\n        /* \"#utility.yul\":525:526   */\n      0x00\n        /* \"#utility.yul\":516:522   */\n      dup5\n        /* \"#utility.yul\":511:514   */\n      dup5\n        /* \"#utility.yul\":507:523   */\n      add\n        /* \"#utility.yul\":500:527   */\n      mstore\n        /* \"#utility.yul\":349:533   */\n      pop\n        /* \"#utility.yul\":287:533   */\n      pop\n      pop\n      pop\n      jump\t// out\n        /* \"#utility.yul\":539:641   */\n    tag_65:\n        /* \"#utility.yul\":580:586   */\n      0x00\n        /* \"#utility.yul\":631:633   */\n      0x1f\n        /* \"#utility.yul\":627:634   */\n      not\n        /* \"#utility.yul\":622:624   */\n      0x1f\n        /* \"#utility.yul\":615:620   */\n      dup4\n        /* \"#utility.yul\":611:625   */\n      add\n        /* \"#utility.yul\":607:635   */\n      and\n        /* \"#utility.yul\":597:635   */\n      swap1\n      pop\n        /* \"#utility.yul\":539:641   */\n      swap2\n      swap1\n      pop\n      jump\t// out\n        /* \"#utility.yul\":647:1024   */\n    tag_66:\n        /* \"#utility.yul\":735:738   */\n      0x00\n        /* \"#utility.yul\":763:802   */\n      tag_105\n        /* \"#utility.yul\":796:801   */\n      dup3\n        /* \"#utility.yul\":763:802   */\n      tag_62\n      jump\t// in\n    tag_105:\n        /* \"#utility.yul\":818:889   */\n      tag_106\n        /* \"#utility.yul\":882:888   */\n      dup2\n        /* \"#utility.yul\":877:880   */\n      dup6\n        /* \"#utility.yul\":818:889   */\n      tag_63\n      jump\t// in\n    tag_106:\n        /* \"#utility.yul\":811:889   */\n      swap4\n      pop\n        /* \"#utility.yul\":898:963   */\n      tag_107\n        /* \"#utility.yul\":956:962   */\n      dup2\n        /* \"#utility.yul\":951:954   */\n      dup6\n        /* \"#utility.yul\":944:948   */\n      0x20\n        /* \"#utility.yul\":937:942   */\n      dup7\n        /* \"#utility.yul\":933:949   */\n      add\n        /* \"#utility.yul\":898:963   */\n      tag_64\n      jump\t// in\n    tag_107:\n        /* \"#utility.yul\":988:1017   */\n      tag_108\n        /* \"#utility.yul\":1010:1016   */\n      dup2\n        /* \"#utility.yul\":988:1017   */\n      tag_65\n      jump\t// in\n    tag_108:\n        /* \"#utility.yul\":983:986   */\n      dup5\n        /* \"#utility.yul\":979:1018   */\n      add\n        /* \"#utility.yul\":972:1018   */\n      swap2\n      pop\n        /* \"#utility.yul\":739:1024   */\n      pop\n        /* \"#utility.yul\":647:1024   */\n      swap3\n      swap2\n      pop\n      pop\n      jump\t// out\n        /* \"#utility.yul\":1030:1745   */\n    tag_11:\n        /* \"#utility.yul\":1239:1243   */\n      0x00\n        /* \"#utility.yul\":1277:1279   */\n      0x60\n        /* \"#utility.yul\":1266:1275   */\n      dup3\n        /* \"#utility.yul\":1262:1280   */\n      add\n        /* \"#utility.yul\":1254:1280   */\n      swap1\n      pop\n        /* \"#utility.yul\":1326:1335   */\n      dup2\n        /* \"#utility.yul\":1320:1324   */\n      dup2\n        /* \"#utility.yul\":1316:1336   */\n      sub\n        /* \"#utility.yul\":1312:1313   */\n      0x00\n        /* \"#utility.yul\":1301:1310   */\n      dup4\n        /* \"#utility.yul\":1297:1314   */\n      add\n        /* \"#utility.yul\":1290:1337   */\n      mstore\n        /* \"#utility.yul\":1354:1432   */\n      tag_110\n        /* \"#utility.yul\":1427:1431   */\n      dup2\n        /* \"#utility.yul\":1418:1424   */\n      dup7\n        /* \"#utility.yul\":1354:1432   */\n      tag_66\n      jump\t// in\n    tag_110:\n        /* \"#utility.yul\":1346:1432   */\n      swap1\n      pop\n        /* \"#utility.yul\":1479:1488   */\n      dup2\n        /* \"#utility.yul\":1473:1477   */\n      dup2\n        /* \"#utility.yul\":1469:1489   */\n      sub\n        /* \"#utility.yul\":1464:1466   */\n      0x20\n        /* \"#utility.yul\":1453:1462   */\n      dup4\n        /* \"#utility.yul\":1449:1467   */\n      add\n        /* \"#utility.yul\":1442:1490   */\n      mstore\n        /* \"#utility.yul\":1507:1585   */\n      tag_111\n        /* \"#utility.yul\":1580:1584   */\n      dup2\n        /* \"#utility.yul\":1571:1577   */\n      dup6\n        /* \"#utility.yul\":1507:1585   */\n      tag_66\n      jump\t// in\n    tag_111:\n        /* \"#utility.yul\":1499:1585   */\n      swap1\n      pop\n        /* \"#utility.yul\":1632:1641   */\n      dup2\n        /* \"#utility.yul\":1626:1630   */\n      dup2\n        /* \"#utility.yul\":1622:1642   */\n      sub\n        /* \"#utility.yul\":1617:1619   */\n      0x40\n        /* \"#utility.yul\":1606:1615   */\n      dup4\n        /* \"#utility.yul\":1602:1620   */\n      add\n        /* \"#utility.yul\":1595:1643   */\n      mstore\n        /* \"#utility.yul\":1660:1738   */\n      tag_112\n        /* \"#utility.yul\":1733:1737   */\n      dup2\n        /* \"#utility.yul\":1724:1730   */\n      dup5\n        /* \"#utility.yul\":1660:1738   */\n      tag_66\n      jump\t// in\n    tag_112:\n        /* \"#utility.yul\":1652:1738   */\n      swap1\n      pop\n        /* \"#utility.yul\":1030:1745   */\n      swap5\n      swap4\n      pop\n      pop\n      pop\n      pop\n      jump\t// out\n        /* \"#utility.yul\":1751:2064   */\n    tag_15:\n        /* \"#utility.yul\":1864:1868   */\n      0x00\n        /* \"#utility.yul\":1902:1904   */\n      0x20\n        /* \"#utility.yul\":1891:1900   */\n      dup3\n        /* \"#utility.yul\":1887:1905   */\n      add\n        /* \"#utility.yul\":1879:1905   */\n      swap1\n      pop\n        /* \"#utility.yul\":1951:1960   */\n      dup2\n        /* \"#utility.yul\":1945:1949   */\n      dup2\n        /* \"#utility.yul\":1941:1961   */\n      sub\n        /* \"#utility.yul\":1937:1938   */\n      0x00\n        /* \"#utility.yul\":1926:1935   */\n      dup4\n        /* \"#utility.yul\":1922:1939   */\n      add\n        /* \"#utility.yul\":1915:1962   */\n      mstore\n        /* \"#utility.yul\":1979:2057   */\n      tag_114\n        /* \"#utility.yul\":2052:2056   */\n      dup2\n        /* \"#utility.yul\":2043:2049   */\n      dup5\n        /* \"#utility.yul\":1979:2057   */\n      tag_66\n      jump\t// in\n    tag_114:\n        /* \"#utility.yul\":1971:2057   */\n      swap1\n      pop\n        /* \"#utility.yul\":1751:2064   */\n      swap3\n      swap2\n      pop\n      pop\n      jump\t// out\n        /* \"#utility.yul\":2070:2145   */\n    tag_67:\n        /* \"#utility.yul\":2103:2109   */\n      0x00\n        /* \"#utility.yul\":2136:2138   */\n      0x40\n        /* \"#utility.yul\":2130:2139   */\n      mload\n        /* \"#utility.yul\":2120:2139   */\n      swap1\n      pop\n        /* \"#utility.yul\":2070:2145   */\n      swap1\n      jump\t// out\n        /* \"#utility.yul\":2151:2268   */\n    tag_68:\n        /* \"#utility.yul\":2260:2261   */\n      0x00\n        /* \"#utility.yul\":2257:2258   */\n      dup1\n        /* \"#utility.yul\":2250:2262   */\n      revert\n        /* \"#utility.yul\":2274:2391   */\n    tag_69:\n        /* \"#utility.yul\":2383:2384   */\n      0x00\n        /* \"#utility.yul\":2380:2381   */\n      dup1\n        /* \"#utility.yul\":2373:2385   */\n      revert\n        /* \"#utility.yul\":2397:2514   */\n    tag_70:\n        /* \"#utility.yul\":2506:2507   */\n      0x00\n        /* \"#utility.yul\":2503:2504   */\n      dup1\n        /* \"#utility.yul\":2496:2508   */\n      revert\n        /* \"#utility.yul\":2520:2637   */\n    tag_71:\n        /* \"#utility.yul\":2629:2630   */\n      0x00\n        /* \"#utility.yul\":2626:2627   */\n      dup1\n        /* \"#utility.yul\":2619:2631   */\n      revert\n        /* \"#utility.yul\":2643:2823   */\n    tag_72:\n        /* \"#utility.yul\":2691:2768   */\n      0x4e487b7100000000000000000000000000000000000000000000000000000000\n        /* \"#utility.yul\":2688:2689   */\n      0x00\n        /* \"#utility.yul\":2681:2769   */\n      mstore\n        /* \"#utility.yul\":2788:2792   */\n      0x41\n        /* \"#utility.yul\":2785:2786   */\n      0x04\n        /* \"#utility.yul\":2778:2793   */\n      mstore\n        /* \"#utility.yul\":2812:2816   */\n      0x24\n        /* \"#utility.yul\":2809:2810   */\n      0x00\n        /* \"#utility.yul\":2802:2817   */\n      revert\n        /* \"#utility.yul\":2829:3110   */\n    tag_73:\n        /* \"#utility.yul\":2912:2939   */\n      tag_122\n        /* \"#utility.yul\":2934:2938   */\n      dup3\n        /* \"#utility.yul\":2912:2939   */\n      tag_65\n      jump\t// in\n    tag_122:\n        /* \"#utility.yul\":2904:2910   */\n      dup2\n        /* \"#utility.yul\":2900:2940   */\n      add\n        /* \"#utility.yul\":3042:3048   */\n      dup2\n        /* \"#utility.yul\":3030:3040   */\n      dup2\n        /* \"#utility.yul\":3027:3049   */\n      lt\n        /* \"#utility.yul\":3006:3024   */\n      0xffffffffffffffff\n        /* \"#utility.yul\":2994:3004   */\n      dup3\n        /* \"#utility.yul\":2991:3025   */\n      gt\n        /* \"#utility.yul\":2988:3050   */\n      or\n        /* \"#utility.yul\":2985:3073   */\n      iszero\n      tag_123\n      jumpi\n        /* \"#utility.yul\":3053:3071   */\n      tag_124\n      tag_72\n      jump\t// in\n    tag_124:\n        /* \"#utility.yul\":2985:3073   */\n    tag_123:\n        /* \"#utility.yul\":3093:3103   */\n      dup1\n        /* \"#utility.yul\":3089:3091   */\n      0x40\n        /* \"#utility.yul\":3082:3104   */\n      mstore\n        /* \"#utility.yul\":2872:3110   */\n      pop\n        /* \"#utility.yul\":2829:3110   */\n      pop\n      pop\n      jump\t// out\n        /* \"#utility.yul\":3116:3245   */\n    tag_74:\n        /* \"#utility.yul\":3150:3156   */\n      0x00\n        /* \"#utility.yul\":3177:3197   */\n      tag_126\n      tag_67\n      jump\t// in\n    tag_126:\n        /* \"#utility.yul\":3167:3197   */\n      swap1\n      pop\n        /* \"#utility.yul\":3206:3239   */\n      tag_127\n        /* \"#utility.yul\":3234:3238   */\n      dup3\n        /* \"#utility.yul\":3226:3232   */\n      dup3\n        /* \"#utility.yul\":3206:3239   */\n      tag_73\n      jump\t// in\n    tag_127:\n        /* \"#utility.yul\":3116:3245   */\n      swap2\n      swap1\n      pop\n      jump\t// out\n        /* \"#utility.yul\":3251:3559   */\n    tag_75:\n        /* \"#utility.yul\":3313:3317   */\n      0x00\n        /* \"#utility.yul\":3403:3421   */\n      0xffffffffffffffff\n        /* \"#utility.yul\":3395:3401   */\n      dup3\n        /* \"#utility.yul\":3392:3422   */\n      gt\n        /* \"#utility.yul\":3389:3445   */\n      iszero\n      tag_129\n      jumpi\n        /* \"#utility.yul\":3425:3443   */\n      tag_130\n      tag_72\n      jump\t// in\n    tag_130:\n        /* \"#utility.yul\":3389:3445   */\n    tag_129:\n        /* \"#utility.yul\":3463:3492   */\n      tag_131\n        /* \"#utility.yul\":3485:3491   */\n      dup3\n        /* \"#utility.yul\":3463:3492   */\n      tag_65\n      jump\t// in\n    tag_131:\n        /* \"#utility.yul\":3455:3492   */\n      swap1\n      pop\n        /* \"#utility.yul\":3547:3551   */\n      0x20\n        /* \"#utility.yul\":3541:3545   */\n      dup2\n        /* \"#utility.yul\":3537:3552   */\n      add\n        /* \"#utility.yul\":3529:3552   */\n      swap1\n      pop\n        /* \"#utility.yul\":3251:3559   */\n      swap2\n      swap1\n      pop\n      jump\t// out\n        /* \"#utility.yul\":3565:3711   */\n    tag_76:\n        /* \"#utility.yul\":3662:3668   */\n      dup3\n        /* \"#utility.yul\":3657:3660   */\n      dup2\n        /* \"#utility.yul\":3652:3655   */\n      dup4\n        /* \"#utility.yul\":3639:3669   */\n      calldatacopy\n        /* \"#utility.yul\":3703:3704   */\n      0x00\n        /* \"#utility.yul\":3694:3700   */\n      dup4\n        /* \"#utility.yul\":3689:3692   */\n      dup4\n        /* \"#utility.yul\":3685:3701   */\n      add\n        /* \"#utility.yul\":3678:3705   */\n      mstore\n        /* \"#utility.yul\":3565:3711   */\n      pop\n      pop\n      pop\n      jump\t// out\n        /* \"#utility.yul\":3717:4142   */\n    tag_77:\n        /* \"#utility.yul\":3795:3800   */\n      0x00\n        /* \"#utility.yul\":3820:3886   */\n      tag_134\n        /* \"#utility.yul\":3836:3885   */\n      tag_135\n        /* \"#utility.yul\":3878:3884   */\n      dup5\n        /* \"#utility.yul\":3836:3885   */\n      tag_75\n      jump\t// in\n    tag_135:\n        /* \"#utility.yul\":3820:3886   */\n      tag_74\n      jump\t// in\n    tag_134:\n        /* \"#utility.yul\":3811:3886   */\n      swap1\n      pop\n        /* \"#utility.yul\":3909:3915   */\n      dup3\n        /* \"#utility.yul\":3902:3907   */\n      dup2\n        /* \"#utility.yul\":3895:3916   */\n      mstore\n        /* \"#utility.yul\":3947:3951   */\n      0x20\n        /* \"#utility.yul\":3940:3945   */\n      dup2\n        /* \"#utility.yul\":3936:3952   */\n      add\n        /* \"#utility.yul\":3985:3988   */\n      dup5\n        /* \"#utility.yul\":3976:3982   */\n      dup5\n        /* \"#utility.yul\":3971:3974   */\n      dup5\n        /* \"#utility.yul\":3967:3983   */\n      add\n        /* \"#utility.yul\":3964:3989   */\n      gt\n        /* \"#utility.yul\":3961:4073   */\n      iszero\n      tag_136\n      jumpi\n        /* \"#utility.yul\":3992:4071   */\n      tag_137\n      tag_71\n      jump\t// in\n    tag_137:\n        /* \"#utility.yul\":3961:4073   */\n    tag_136:\n        /* \"#utility.yul\":4082:4136   */\n      tag_138\n        /* \"#utility.yul\":4129:4135   */\n      dup5\n        /* \"#utility.yul\":4124:4127   */\n      dup3\n        /* \"#utility.yul\":4119:4122   */\n      dup6\n        /* \"#utility.yul\":4082:4136   */\n      tag_76\n      jump\t// in\n    tag_138:\n        /* \"#utility.yul\":3801:4142   */\n      pop\n        /* \"#utility.yul\":3717:4142   */\n      swap4\n      swap3\n      pop\n      pop\n      pop\n      jump\t// out\n        /* \"#utility.yul\":4162:4502   */\n    tag_78:\n        /* \"#utility.yul\":4218:4223   */\n      0x00\n        /* \"#utility.yul\":4267:4270   */\n      dup3\n        /* \"#utility.yul\":4260:4264   */\n      0x1f\n        /* \"#utility.yul\":4252:4258   */\n      dup4\n        /* \"#utility.yul\":4248:4265   */\n      add\n        /* \"#utility.yul\":4244:4271   */\n      slt\n        /* \"#utility.yul\":4234:4356   */\n      tag_140\n      jumpi\n        /* \"#utility.yul\":4275:4354   */\n      tag_141\n      tag_70\n      jump\t// in\n    tag_141:\n        /* \"#utility.yul\":4234:4356   */\n    tag_140:\n        /* \"#utility.yul\":4392:4398   */\n      dup2\n        /* \"#utility.yul\":4379:4399   */\n      calldataload\n        /* \"#utility.yul\":4417:4496   */\n      tag_142\n        /* \"#utility.yul\":4492:4495   */\n      dup5\n        /* \"#utility.yul\":4484:4490   */\n      dup3\n        /* \"#utility.yul\":4477:4481   */\n      0x20\n        /* \"#utility.yul\":4469:4475   */\n      dup7\n        /* \"#utility.yul\":4465:4482   */\n      add\n        /* \"#utility.yul\":4417:4496   */\n      tag_77\n      jump\t// in\n    tag_142:\n        /* \"#utility.yul\":4408:4496   */\n      swap2\n      pop\n        /* \"#utility.yul\":4224:4502   */\n      pop\n        /* \"#utility.yul\":4162:4502   */\n      swap3\n      swap2\n      pop\n      pop\n      jump\t// out\n        /* \"#utility.yul\":4508:5342   */\n    tag_18:\n        /* \"#utility.yul\":4596:4602   */\n      0x00\n        /* \"#utility.yul\":4604:4610   */\n      dup1\n        /* \"#utility.yul\":4653:4655   */\n      0x40\n        /* \"#utility.yul\":4641:4650   */\n      dup4\n        /* \"#utility.yul\":4632:4639   */\n      dup6\n        /* \"#utility.yul\":4628:4651   */\n      sub\n        /* \"#utility.yul\":4624:4656   */\n      slt\n        /* \"#utility.yul\":4621:4740   */\n      iszero\n      tag_144\n      jumpi\n        /* \"#utility.yul\":4659:4738   */\n      tag_145\n      tag_68\n      jump\t// in\n    tag_145:\n        /* \"#utility.yul\":4621:4740   */\n    tag_144:\n        /* \"#utility.yul\":4807:4808   */\n      0x00\n        /* \"#utility.yul\":4796:4805   */\n      dup4\n        /* \"#utility.yul\":4792:4809   */\n      add\n        /* \"#utility.yul\":4779:4810   */\n      calldataload\n        /* \"#utility.yul\":4837:4855   */\n      0xffffffffffffffff\n        /* \"#utility.yul\":4829:4835   */\n      dup2\n        /* \"#utility.yul\":4826:4856   */\n      gt\n        /* \"#utility.yul\":4823:4940   */\n      iszero\n      tag_146\n      jumpi\n        /* \"#utility.yul\":4859:4938   */\n      tag_147\n      tag_69\n      jump\t// in\n    tag_147:\n        /* \"#utility.yul\":4823:4940   */\n    tag_146:\n        /* \"#utility.yul\":4964:5027   */\n      tag_148\n        /* \"#utility.yul\":5019:5026   */\n      dup6\n        /* \"#utility.yul\":5010:5016   */\n      dup3\n        /* \"#utility.yul\":4999:5008   */\n      dup7\n        /* \"#utility.yul\":4995:5017   */\n      add\n        /* \"#utility.yul\":4964:5027   */\n      tag_78\n      jump\t// in\n    tag_148:\n        /* \"#utility.yul\":4954:5027   */\n      swap3\n      pop\n        /* \"#utility.yul\":4750:5037   */\n      pop\n        /* \"#utility.yul\":5104:5106   */\n      0x20\n        /* \"#utility.yul\":5093:5102   */\n      dup4\n        /* \"#utility.yul\":5089:5107   */\n      add\n        /* \"#utility.yul\":5076:5108   */\n      calldataload\n        /* \"#utility.yul\":5135:5153   */\n      0xffffffffffffffff\n        /* \"#utility.yul\":5127:5133   */\n      dup2\n        /* \"#utility.yul\":5124:5154   */\n      gt\n        /* \"#utility.yul\":5121:5238   */\n      iszero\n      tag_149\n      jumpi\n        /* \"#utility.yul\":5157:5236   */\n      tag_150\n      tag_69\n      jump\t// in\n    tag_150:\n        /* \"#utility.yul\":5121:5238   */\n    tag_149:\n        /* \"#utility.yul\":5262:5325   */\n      tag_151\n        /* \"#utility.yul\":5317:5324   */\n      dup6\n        /* \"#utility.yul\":5308:5314   */\n      dup3\n        /* \"#utility.yul\":5297:5306   */\n      dup7\n        /* \"#utility.yul\":5293:5315   */\n      add\n        /* \"#utility.yul\":5262:5325   */\n      tag_78\n      jump\t// in\n    tag_151:\n        /* \"#utility.yul\":5252:5325   */\n      swap2\n      pop\n        /* \"#utility.yul\":5047:5335   */\n      pop\n        /* \"#utility.yul\":4508:5342   */\n      swap3\n      pop\n      swap3\n      swap1\n      pop\n      jump\t// out\n        /* \"#utility.yul\":5348:5528   */\n    tag_79:\n        /* \"#utility.yul\":5396:5473   */\n      0x4e487b7100000000000000000000000000000000000000000000000000000000\n        /* \"#utility.yul\":5393:5394   */\n      0x00\n        /* \"#utility.yul\":5386:5474   */\n      mstore\n        /* \"#utility.yul\":5493:5497   */\n      0x22\n        /* \"#utility.yul\":5490:5491   */\n      0x04\n        /* \"#utility.yul\":5483:5498   */\n      mstore\n        /* \"#utility.yul\":5517:5521   */\n      0x24\n        /* \"#utility.yul\":5514:5515   */\n      0x00\n        /* \"#utility.yul\":5507:5522   */\n      revert\n        /* \"#utility.yul\":5534:5854   */\n    tag_28:\n        /* \"#utility.yul\":5578:5584   */\n      0x00\n        /* \"#utility.yul\":5615:5616   */\n      0x02\n        /* \"#utility.yul\":5609:5613   */\n      dup3\n        /* \"#utility.yul\":5605:5617   */\n      div\n        /* \"#utility.yul\":5595:5617   */\n      swap1\n      pop\n        /* \"#utility.yul\":5662:5663   */\n      0x01\n        /* \"#utility.yul\":5656:5660   */\n      dup3\n        /* \"#utility.yul\":5652:5664   */\n      and\n        /* \"#utility.yul\":5683:5701   */\n      dup1\n        /* \"#utility.yul\":5673:5754   */\n      tag_154\n      jumpi\n        /* \"#utility.yul\":5739:5743   */\n      0x7f\n        /* \"#utility.yul\":5731:5737   */\n      dup3\n        /* \"#utility.yul\":5727:5744   */\n      and\n        /* \"#utility.yul\":5717:5744   */\n      swap2\n      pop\n        /* \"#utility.yul\":5673:5754   */\n    tag_154:\n        /* \"#utility.yul\":5801:5803   */\n      0x20\n        /* \"#utility.yul\":5793:5799   */\n      dup3\n        /* \"#utility.yul\":5790:5804   */\n      lt\n        /* \"#utility.yul\":5770:5788   */\n      dup2\n        /* \"#utility.yul\":5767:5805   */\n      sub\n        /* \"#utility.yul\":5764:5848   */\n      tag_155\n      jumpi\n        /* \"#utility.yul\":5820:5838   */\n      tag_156\n      tag_79\n      jump\t// in\n    tag_156:\n        /* \"#utility.yul\":5764:5848   */\n    tag_155:\n        /* \"#utility.yul\":5585:5854   */\n      pop\n        /* \"#utility.yul\":5534:5854   */\n      swap2\n      swap1\n      pop\n      jump\t// out\n        /* \"#utility.yul\":5860:6001   */\n    tag_80:\n        /* \"#utility.yul\":5909:5913   */\n      0x00\n        /* \"#utility.yul\":5932:5935   */\n      dup2\n        /* \"#utility.yul\":5924:5935   */\n      swap1\n      pop\n        /* \"#utility.yul\":5955:5958   */\n      dup2\n        /* \"#utility.yul\":5952:5953   */\n      0x00\n        /* \"#utility.yul\":5945:5959   */\n      mstore\n        /* \"#utility.yul\":5989:5993   */\n      0x20\n        /* \"#utility.yul\":5986:5987   */\n      0x00\n        /* \"#utility.yul\":5976:5994   */\n      keccak256\n        /* \"#utility.yul\":5968:5994   */\n      swap1\n      pop\n        /* \"#utility.yul\":5860:6001   */\n      swap2\n      swap1\n      pop\n      jump\t// out\n        /* \"#utility.yul\":6007:6100   */\n    tag_81:\n        /* \"#utility.yul\":6044:6050   */\n      0x00\n        /* \"#utility.yul\":6091:6093   */\n      0x20\n        /* \"#utility.yul\":6086:6088   */\n      0x1f\n        /* \"#utility.yul\":6079:6084   */\n      dup4\n        /* \"#utility.yul\":6075:6089   */\n      add\n        /* \"#utility.yul\":6071:6094   */\n      div\n        /* \"#utility.yul\":6061:6094   */\n      swap1\n      pop\n        /* \"#utility.yul\":6007:6100   */\n      swap2\n      swap1\n      pop\n      jump\t// out\n        /* \"#utility.yul\":6106:6213   */\n    tag_82:\n        /* \"#utility.yul\":6150:6158   */\n      0x00\n        /* \"#utility.yul\":6200:6205   */\n      dup3\n        /* \"#utility.yul\":6194:6198   */\n      dup3\n        /* \"#utility.yul\":6190:6206   */\n      shl\n        /* \"#utility.yul\":6169:6206   */\n      swap1\n      pop\n        /* \"#utility.yul\":6106:6213   */\n      swap3\n      swap2\n      pop\n      pop\n      jump\t// out\n        /* \"#utility.yul\":6219:6612   */\n    tag_83:\n        /* \"#utility.yul\":6288:6294   */\n      0x00\n        /* \"#utility.yul\":6338:6339   */\n      0x08\n        /* \"#utility.yul\":6326:6336   */\n      dup4\n        /* \"#utility.yul\":6322:6340   */\n      mul\n        /* \"#utility.yul\":6361:6458   */\n      tag_161\n        /* \"#utility.yul\":6391:6457   */\n      0xffffffffffffffffffffffffffffffffffffffffffffffffffffffffffffffff\n        /* \"#utility.yul\":6380:6389   */\n      dup3\n        /* \"#utility.yul\":6361:6458   */\n      tag_82\n      jump\t// in\n    tag_161:\n        /* \"#utility.yul\":6479:6518   */\n      tag_162\n        /* \"#utility.yul\":6509:6517   */\n      dup7\n        /* \"#utility.yul\":6498:6507   */\n      dup4\n        /* \"#utility.yul\":6479:6518   */\n      tag_82\n      jump\t// in\n    tag_162:\n        /* \"#utility.yul\":6467:6518   */\n      swap6\n      pop\n        /* \"#utility.yul\":6551:6555   */\n      dup1\n        /* \"#utility.yul\":6547:6556   */\n      not\n        /* \"#utility.yul\":6540:6545   */\n      dup5\n        /* \"#utility.yul\":6536:6557   */\n      and\n        /* \"#utility.yul\":6527:6557   */\n      swap4\n      pop\n        /* \"#utility.yul\":6600:6604   */\n      dup1\n        /* \"#utility.yul\":6590:6598   */\n      dup7\n        /* \"#utility.yul\":6586:6605   */\n      and\n        /* \"#utility.yul\":6579:6584   */\n      dup5\n        /* \"#utility.yul\":6576:6606   */\n      or\n        /* \"#utility.yul\":6566:6606   */\n      swap3\n      pop\n        /* \"#utility.yul\":6295:6612   */\n      pop\n      pop\n        /* \"#utility.yul\":6219:6612   */\n      swap4\n      swap3\n      pop\n      pop\n      pop\n      jump\t// out\n        /* \"#utility.yul\":6618:6695   */\n    tag_84:\n        /* \"#utility.yul\":6655:6662   */\n      0x00\n        /* \"#utility.yul\":6684:6689   */\n      dup2\n        /* \"#utility.yul\":6673:6689   */\n      swap1\n      pop\n        /* \"#utility.yul\":6618:6695   */\n      swap2\n      swap1\n      pop\n      jump\t// out\n        /* \"#utility.yul\":6701:6761   */\n    tag_85:\n        /* \"#utility.yul\":6729:6732   */\n      0x00\n        /* \"#utility.yul\":6750:6755   */\n      dup2\n        /* \"#utility.yul\":6743:6755   */\n      swap1\n      pop\n        /* \"#utility.yul\":6701:6761   */\n      swap2\n      swap1\n      pop\n      jump\t// out\n        /* \"#utility.yul\":6767:6909   */\n    tag_86:\n        /* \"#utility.yul\":6817:6826   */\n      0x00\n        /* \"#utility.yul\":6850:6903   */\n      tag_166\n        /* \"#utility.yul\":6868:6902   */\n      tag_167\n        /* \"#utility.yul\":6877:6901   */\n      tag_168\n        /* \"#utility.yul\":6895:6900   */\n      dup5\n        /* \"#utility.yul\":6877:6901   */\n      tag_84\n      jump\t// in\n    tag_168:\n        /* \"#utility.yul\":6868:6902   */\n      tag_85\n      jump\t// in\n    tag_167:\n        /* \"#utility.yul\":6850:6903   */\n      tag_84\n      jump\t// in\n    tag_166:\n        /* \"#utility.yul\":6837:6903   */\n      swap1\n      pop\n        /* \"#utility.yul\":6767:6909   */\n      swap2\n      swap1\n      pop\n      jump\t// out\n        /* \"#utility.yul\":6915:6990   */\n    tag_87:\n        /* \"#utility.yul\":6958:6961   */\n      0x00\n        /* \"#utility.yul\":6979:6984   */\n      dup2\n        /* \"#utility.yul\":6972:6984   */\n      swap1\n      pop\n        /* \"#utility.yul\":6915:6990   */\n      swap2\n      swap1\n      pop\n      jump\t// out\n        /* \"#utility.yul\":6996:7265   */\n    tag_88:\n        /* \"#utility.yul\":7106:7145   */\n      tag_171\n        /* \"#utility.yul\":7137:7144   */\n      dup4\n        /* \"#utility.yul\":7106:7145   */\n      tag_86\n      jump\t// in\n    tag_171:\n        /* \"#utility.yul\":7167:7258   */\n      tag_172\n        /* \"#utility.yul\":7216:7257   */\n      tag_173\n        /* \"#utility.yul\":7240:7256   */\n      dup3\n        /* \"#utility.yul\":7216:7257   */\n      tag_87\n      jump\t// in\n    tag_173:\n        /* \"#utility.yul\":7208:7214   */\n      dup5\n        /* \"#utility.yul\":7201:7205   */\n      dup5\n        /* \"#utility.yul\":7195:7206   */\n      sload\n        /* \"#utility.yul\":7167:7258   */\n      tag_83\n      jump\t// in\n    tag_172:\n        /* \"#utility.yul\":7161:7165   */\n      dup3\n        /* \"#utility.yul\":7154:7259   */\n      sstore\n        /* \"#utility.yul\":7072:7265   */\n      pop\n        /* \"#utility.yul\":6996:7265   */\n      pop\n      pop\n      pop\n      jump\t// out\n        /* \"#utility.yul\":7271:7344   */\n    tag_89:\n        /* \"#utility.yul\":7316:7319   */\n      0x00\n        /* \"#utility.yul\":7271:7344   */\n      swap1\n      jump\t// out\n        /* \"#utility.yul\":7350:7539   */\n    tag_90:\n        /* \"#utility.yul\":7427:7459   */\n      tag_176\n      tag_89\n      jump\t// in\n    tag_176:\n        /* \"#utility.yul\":7468:7533   */\n      tag_177\n        /* \"#utility.yul\":7526:7532   */\n      dup2\n        /* \"#utility.yul\":7518:7524   */\n      dup5\n        /* \"#utility.yul\":7512:7516   */\n      dup5\n        /* \"#utility.yul\":7468:7533   */\n      tag_88\n      jump\t// in\n    tag_177:\n        /* \"#utility.yul\":7403:7539   */\n      pop\n        /* \"#utility.yul\":7350:7539   */\n      pop\n      pop\n      jump\t// out\n        /* \"#utility.yul\":7545:7731   */\n    tag_91:\n        /* \"#utility.yul\":7605:7725   */\n    tag_179:\n        /* \"#utility.yul\":7622:7625   */\n      dup2\n        /* \"#utility.yul\":7615:7620   */\n      dup2\n        /* \"#utility.yul\":7612:7626   */\n      lt\n        /* \"#utility.yul\":7605:7725   */\n      iszero\n      tag_181\n      jumpi\n        /* \"#utility.yul\":7676:7715   */\n      tag_182\n        /* \"#utility.yul\":7713:7714   */\n      0x00\n        /* \"#utility.yul\":7706:7711   */\n      dup3\n        /* \"#utility.yul\":7676:7715   */\n      tag_90\n      jump\t// in\n    tag_182:\n        /* \"#utility.yul\":7649:7650   */\n      0x01\n        /* \"#utility.yul\":7642:7647   */\n      dup2\n        /* \"#utility.yul\":7638:7651   */\n      add\n        /* \"#utility.yul\":7629:7651   */\n      swap1\n      pop\n        /* \"#utility.yul\":7605:7725   */\n      jump(tag_179)\n    tag_181:\n        /* \"#utility.yul\":7545:7731   */\n      pop\n      pop\n      jump\t// out\n        /* \"#utility.yul\":7737:8280   */\n    tag_92:\n        /* \"#utility.yul\":7838:7840   */\n      0x1f\n        /* \"#utility.yul\":7833:7836   */\n      dup3\n        /* \"#utility.yul\":7830:7841   */\n      gt\n        /* \"#utility.yul\":7827:8273   */\n      iszero\n      tag_184\n      jumpi\n        /* \"#utility.yul\":7872:7910   */\n      tag_185\n        /* \"#utility.yul\":7904:7909   */\n      dup2\n        /* \"#utility.yul\":7872:7910   */\n      tag_80\n      jump\t// in\n    tag_185:\n        /* \"#utility.yul\":7956:7985   */\n      tag_186\n        /* \"#utility.yul\":7974:7984   */\n      dup5\n        /* \"#utility.yul\":7956:7985   */\n      tag_81\n      jump\t// in\n    tag_186:\n        /* \"#utility.yul\":7946:7954   */\n      dup2\n        /* \"#utility.yul\":7942:7986   */\n      add\n        /* \"#utility.yul\":8139:8141   */\n      0x20\n        /* \"#utility.yul\":8127:8137   */\n      dup6\n        /* \"#utility.yul\":8124:8142   */\n      lt\n        /* \"#utility.yul\":8121:8170   */\n      iszero\n      tag_187\n      jumpi\n        /* \"#utility.yul\":8160:8168   */\n      dup2\n        /* \"#utility.yul\":8145:8168   */\n      swap1\n      pop\n        /* \"#utility.yul\":8121:8170   */\n    tag_187:\n        /* \"#utility.yul\":8183:8263   */\n      tag_188\n        /* \"#utility.yul\":8239:8261   */\n      tag_189\n        /* \"#utility.yul\":8257:8260   */\n      dup6\n        /* \"#utility.yul\":8239:8261   */\n      tag_81\n      jump\t// in\n    tag_189:\n        /* \"#utility.yul\":8229:8237   */\n      dup4\n        /* \"#utility.yul\":8225:8262   */\n      add\n        /* \"#utility.yul\":8212:8223   */\n      dup3\n        /* \"#utility.yul\":8183:8263   */\n      tag_91\n      jump\t// in\n    tag_188:\n        /* \"#utility.yul\":7842:8273   */\n      pop\n      pop\n        /* \"#utility.yul\":7827:8273   */\n    tag_184:\n        /* \"#utility.yul\":7737:8280   */\n      pop\n      pop\n      pop\n      jump\t// out\n        /* \"#utility.yul\":8286:8403   */\n    tag_93:\n        /* \"#utility.yul\":8340:8348   */\n      0x00\n        /* \"#utility.yul\":8390:8395   */\n      dup3\n        /* \"#utility.yul\":8384:8388   */\n      dup3\n        /* \"#utility.yul\":8380:8396   */\n      shr\n        /* \"#utility.yul\":8359:8396   */\n      swap1\n      pop\n        /* \"#utility.yul\":8286:8403   */\n      swap3\n      swap2\n      pop\n      pop\n      jump\t// out\n        /* \"#utility.yul\":8409:8578   */\n    tag_94:\n        /* \"#utility.yul\":8453:8459   */\n      0x00\n        /* \"#utility.yul\":8486:8537   */\n      tag_192\n        /* \"#utility.yul\":8534:8535   */\n      0x00\n        /* \"#utility.yul\":8530:8536   */\n      not\n        /* \"#utility.yul\":8522:8527   */\n      dup5\n        /* \"#utility.yul\":8519:8520   */\n      0x08\n        /* \"#utility.yul\":8515:8528   */\n      mul\n        /* \"#utility.yul\":8486:8537   */\n      tag_93\n      jump\t// in\n    tag_192:\n        /* \"#utility.yul\":8482:8538   */\n      not\n        /* \"#utility.yul\":8567:8571   */\n      dup1\n        /* \"#utility.yul\":8561:8565   */\n      dup4\n        /* \"#utility.yul\":8557:8572   */\n      and\n        /* \"#utility.yul\":8547:8572   */\n      swap2\n      pop\n        /* \"#utility.yul\":8460:8578   */\n      pop\n        /* \"#utility.yul\":8409:8578   */\n      swap3\n      swap2\n      pop\n      pop\n      jump\t// out\n        /* \"#utility.yul\":8583:8878   */\n    tag_95:\n        /* \"#utility.yul\":8659:8663   */\n      0x00\n        /* \"#utility.yul\":8805:8834   */\n      tag_194\n        /* \"#utility.yul\":8830:8833   */\n      dup4\n        /* \"#utility.yul\":8824:8828   */\n      dup4\n        /* \"#utility.yul\":8805:8834   */\n      tag_94\n      jump\t// in\n    tag_194:\n        /* \"#utility.yul\":8797:8834   */\n      swap2\n      pop\n        /* \"#utility.yul\":8867:8870   */\n      dup3\n        /* \"#utility.yul\":8864:8865   */\n      0x02\n        /* \"#utility.yul\":8860:8871   */\n      mul\n        /* \"#utility.yul\":8854:8858   */\n      dup3\n        /* \"#utility.yul\":8851:8872   */\n      or\n        /* \"#utility.yul\":8843:8872   */\n      swap1\n      pop\n        /* \"#utility.yul\":8583:8878   */\n      swap3\n      swap2\n      pop\n      pop\n      jump\t// out\n        /* \"#utility.yul\":8883:10278   */\n    tag_50:\n        /* \"#utility.yul\":9000:9037   */\n      tag_196\n        /* \"#utility.yul\":9033:9036   */\n      dup3\n        /* \"#utility.yul\":9000:9037   */\n      tag_62\n      jump\t// in\n    tag_196:\n        /* \"#utility.yul\":9102:9120   */\n      0xffffffffffffffff\n        /* \"#utility.yul\":9094:9100   */\n      dup2\n        /* \"#utility.yul\":9091:9121   */\n      gt\n        /* \"#utility.yul\":9088:9144   */\n      iszero\n      tag_197\n      jumpi\n        /* \"#utility.yul\":9124:9142   */\n      tag_198\n      tag_72\n      jump\t// in\n    tag_198:\n        /* \"#utility.yul\":9088:9144   */\n    tag_197:\n        /* \"#utility.yul\":9168:9206   */\n      tag_199\n        /* \"#utility.yul\":9200:9204   */\n      dup3\n        /* \"#utility.yul\":9194:9205   */\n      sload\n        /* \"#utility.yul\":9168:9206   */\n      tag_28\n      jump\t// in\n    tag_199:\n        /* \"#utility.yul\":9253:9320   */\n      tag_200\n        /* \"#utility.yul\":9313:9319   */\n      dup3\n        /* \"#utility.yul\":9305:9311   */\n      dup3\n        /* \"#utility.yul\":9299:9303   */\n      dup6\n        /* \"#utility.yul\":9253:9320   */\n      tag_92\n      jump\t// in\n    tag_200:\n        /* \"#utility.yul\":9347:9348   */\n      0x00\n        /* \"#utility.yul\":9371:9375   */\n      0x20\n        /* \"#utility.yul\":9358:9375   */\n      swap1\n      pop\n        /* \"#utility.yul\":9403:9405   */\n      0x1f\n        /* \"#utility.yul\":9395:9401   */\n      dup4\n        /* \"#utility.yul\":9392:9406   */\n      gt\n        /* \"#utility.yul\":9420:9421   */\n      0x01\n        /* \"#utility.yul\":9415:10033   */\n      dup2\n      eq\n      tag_202\n      jumpi\n        /* \"#utility.yul\":10077:10078   */\n      0x00\n        /* \"#utility.yul\":10094:10100   */\n      dup5\n        /* \"#utility.yul\":10091:10168   */\n      iszero\n      tag_203\n      jumpi\n        /* \"#utility.yul\":10143:10152   */\n      dup3\n        /* \"#utility.yul\":10138:10141   */\n      dup8\n        /* \"#utility.yul\":10134:10153   */\n      add\n        /* \"#utility.yul\":10128:10154   */\n      mload\n        /* \"#utility.yul\":10119:10154   */\n      swap1\n      pop\n        /* \"#utility.yul\":10091:10168   */\n    tag_203:\n        /* \"#utility.yul\":10194:10261   */\n      tag_204\n        /* \"#utility.yul\":10254:10260   */\n      dup6\n        /* \"#utility.yul\":10247:10252   */\n      dup3\n        /* \"#utility.yul\":10194:10261   */\n      tag_95\n      jump\t// in\n    tag_204:\n        /* \"#utility.yul\":10188:10192   */\n      dup7\n        /* \"#utility.yul\":10181:10262   */\n      sstore\n        /* \"#utility.yul\":10050:10272   */\n      pop\n        /* \"#utility.yul\":9385:10272   */\n      jump(tag_201)\n        /* \"#utility.yul\":9415:10033   */\n    tag_202:\n        /* \"#utility.yul\":9467:9471   */\n      0x1f\n        /* \"#utility.yul\":9463:9472   */\n      not\n        /* \"#utility.yul\":9455:9461   */\n      dup5\n        /* \"#utility.yul\":9451:9473   */\n      and\n        /* \"#utility.yul\":9501:9538   */\n      tag_205\n        /* \"#utility.yul\":9533:9537   */\n      dup7\n        /* \"#utility.yul\":9501:9538   */\n      tag_80\n      jump\t// in\n    tag_205:\n        /* \"#utility.yul\":9560:9561   */\n      0x00\n        /* \"#utility.yul\":9574:9782   */\n    tag_206:\n        /* \"#utility.yul\":9588:9595   */\n      dup3\n        /* \"#utility.yul\":9585:9586   */\n      dup2\n        /* \"#utility.yul\":9582:9596   */\n      lt\n        /* \"#utility.yul\":9574:9782   */\n      iszero\n      tag_208\n      jumpi\n        /* \"#utility.yul\":9667:9676   */\n      dup5\n        /* \"#utility.yul\":9662:9665   */\n      dup10\n        /* \"#utility.yul\":9658:9677   */\n      add\n        /* \"#utility.yul\":9652:9678   */\n      mload\n        /* \"#utility.yul\":9644:9650   */\n      dup3\n        /* \"#utility.yul\":9637:9679   */\n      sstore\n        /* \"#utility.yul\":9718:9719   */\n      0x01\n        /* \"#utility.yul\":9710:9716   */\n      dup3\n        /* \"#utility.yul\":9706:9720   */\n      add\n        /* \"#utility.yul\":9696:9720   */\n      swap2\n      pop\n        /* \"#utility.yul\":9765:9767   */\n      0x20\n        /* \"#utility.yul\":9754:9763   */\n      dup6\n        /* \"#utility.yul\":9750:9768   */\n      add\n        /* \"#utility.yul\":9737:9768   */\n      swap5\n      pop\n        /* \"#utility.yul\":9611:9615   */\n      0x20\n        /* \"#utility.yul\":9608:9609   */\n      dup2\n        /* \"#utility.yul\":9604:9616   */\n      add\n        /* \"#utility.yul\":9599:9616   */\n      swap1\n      pop\n        /* \"#utility.yul\":9574:9782   */\n      jump(tag_206)\n    tag_208:\n        /* \"#utility.yul\":9810:9816   */\n      dup7\n        /* \"#utility.yul\":9801:9808   */\n      dup4\n        /* \"#utility.yul\":9798:9817   */\n      lt\n        /* \"#utility.yul\":9795:9974   */\n      iszero\n      tag_209\n      jumpi\n        /* \"#utility.yul\":9868:9877   */\n      dup5\n        /* \"#utility.yul\":9863:9866   */\n      dup10\n        /* \"#utility.yul\":9859:9878   */\n      add\n        /* \"#utility.yul\":9853:9879   */\n      mload\n        /* \"#utility.yul\":9911:9959   */\n      tag_210\n        /* \"#utility.yul\":9953:9957   */\n      0x1f\n        /* \"#utility.yul\":9945:9951   */\n      dup10\n        /* \"#utility.yul\":9941:9958   */\n      and\n        /* \"#utility.yul\":9930:9939   */\n      dup3\n        /* \"#utility.yul\":9911:9959   */\n      tag_94\n      jump\t// in\n    tag_210:\n        /* \"#utility.yul\":9903:9909   */\n      dup4\n        /* \"#utility.yul\":9896:9960   */\n      sstore\n        /* \"#utility.yul\":9818:9974   */\n      pop\n        /* \"#utility.yul\":9795:9974   */\n    tag_209:\n        /* \"#utility.yul\":10020:10021   */\n      0x01\n        /* \"#utility.yul\":10016:10017   */\n      0x02\n        /* \"#utility.yul\":10008:10014   */\n      dup9\n        /* \"#utility.yul\":10004:10018   */\n      mul\n        /* \"#utility.yul\":10000:10022   */\n      add\n        /* \"#utility.yul\":9994:9998   */\n      dup9\n        /* \"#utility.yul\":9987:10023   */\n      sstore\n        /* \"#utility.yul\":9422:10033   */\n      pop\n      pop\n      pop\n        /* \"#utility.yul\":9385:10272   */\n    tag_201:\n      pop\n        /* \"#utility.yul\":8975:10278   */\n      pop\n      pop\n      pop\n        /* \"#utility.yul\":8883:10278   */\n      pop\n      pop\n      jump\t// out\n\n    auxdata: 0xa2646970667358221220a7e722bc39e8c25dcf748fe3b6a035325da16722400d3e8deab61183f70b81f264736f6c63430008120033\n}\n",
				"bytecode": {
					"linkReferences": {},
					"object": "60806040526040518060400160405280600881526020017f4c696e6b6564496e000000000000000000000000000000000000000000000000815250600290816200004a9190620002d9565b503480156200005857600080fd5b50620003c0565b600081519050919050565b7f4e487b7100000000000000000000000000000000000000000000000000000000600052604160045260246000fd5b7f4e487b7100000000000000000000000000000000000000000000000000000000600052602260045260246000fd5b60006002820490506001821680620000e157607f821691505b602082108103620000f757620000f662000099565b5b50919050565b60008190508160005260206000209050919050565b60006020601f8301049050919050565b600082821b905092915050565b600060088302620001617fffffffffffffffffffffffffffffffffffffffffffffffffffffffffffffffff8262000122565b6200016d868362000122565b95508019841693508086168417925050509392505050565b6000819050919050565b6000819050919050565b6000620001ba620001b4620001ae8462000185565b6200018f565b62000185565b9050919050565b6000819050919050565b620001d68362000199565b620001ee620001e582620001c1565b8484546200012f565b825550505050565b600090565b62000205620001f6565b62000212818484620001cb565b505050565b5b818110156200023a576200022e600082620001fb565b60018101905062000218565b5050565b601f82111562000289576200025381620000fd565b6200025e8462000112565b810160208510156200026e578190505b620002866200027d8562000112565b83018262000217565b50505b505050565b600082821c905092915050565b6000620002ae600019846008026200028e565b1980831691505092915050565b6000620002c983836200029b565b9150826002028217905092915050565b620002e4826200005f565b67ffffffffffffffff8111156200030057620002ff6200006a565b5b6200030c8254620000c8565b620003198282856200023e565b600060209050601f8311600181146200035157600084156200033c578287015190505b620003488582620002bb565b865550620003b8565b601f1984166200036186620000fd565b60005b828110156200038b5784890151825560018201915060208501945060208101905062000364565b86831015620003ab5784890151620003a7601f8916826200029b565b8355505b6001600288020188555050505b505050505050565b610a5780620003d06000396000f3fe608060405234801561001057600080fd5b50600436106100575760003560e01c80630e43164e1461005c5780632cee9c431461007c5780636f6e678e1461009a578063820e93f5146100b6578063e21f37ce146100d4575b600080fd5b6100646100f2565b6040516100739392919061050a565b60405180910390f35b6100846102ac565b6040516100919190610556565b60405180910390f35b6100b460048036038101906100af91906106c1565b61033a565b005b6100be61035e565b6040516100cb9190610556565b60405180910390f35b6100dc6103ec565b6040516100e99190610556565b60405180910390f35b606080606060026000600182805461010990610768565b80601f016020809104026020016040519081016040528092919081815260200182805461013590610768565b80156101825780601f1061015757610100808354040283529160200191610182565b820191906000526020600020905b81548152906001019060200180831161016557829003601f168201915b5050505050925081805461019590610768565b80601f01602080910402602001604051908101604052809291908181526020018280546101c190610768565b801561020e5780601f106101e35761010080835404028352916020019161020e565b820191906000526020600020905b8154815290600101906020018083116101f157829003601f168201915b5050505050915080805461022190610768565b80601f016020809104026020016040519081016040528092919081815260200182805461024d90610768565b801561029a5780601f1061026f5761010080835404028352916020019161029a565b820191906000526020600020905b81548152906001019060200180831161027d57829003601f168201915b50505050509050925092509250909192565b600280546102b990610768565b80601f01602080910402602001604051908101604052809291908181526020018280546102e590610768565b80156103325780601f1061030757610100808354040283529160200191610332565b820191906000526020600020905b81548152906001019060200180831161031557829003601f168201915b505050505081565b8160009081610349919061094f565b508060019081610359919061094f565b505050565b6000805461036b90610768565b80601f016020809104026020016040519081016040528092919081815260200182805461039790610768565b80156103e45780601f106103b9576101008083540402835291602001916103e4565b820191906000526020600020905b8154815290600101906020018083116103c757829003601f168201915b505050505081565b600180546103f990610768565b80601f016020809104026020016040519081016040528092919081815260200182805461042590610768565b80156104725780601f1061044757610100808354040283529160200191610472565b820191906000526020600020905b81548152906001019060200180831161045557829003601f168201915b505050505081565b600081519050919050565b600082825260208201905092915050565b60005b838110156104b4578082015181840152602081019050610499565b60008484015250505050565b6000601f19601f8301169050919050565b60006104dc8261047a565b6104e68185610485565b93506104f6818560208601610496565b6104ff816104c0565b840191505092915050565b6000606082019050818103600083015261052481866104d1565b9050818103602083015261053881856104d1565b9050818103604083015261054c81846104d1565b9050949350505050565b6000602082019050818103600083015261057081846104d1565b905092915050565b6000604051905090565b600080fd5b600080fd5b600080fd5b600080fd5b7f4e487b7100000000000000000000000000000000000000000000000000000000600052604160045260246000fd5b6105ce826104c0565b810181811067ffffffffffffffff821117156105ed576105ec610596565b5b80604052505050565b6000610600610578565b905061060c82826105c5565b919050565b600067ffffffffffffffff82111561062c5761062b610596565b5b610635826104c0565b9050602081019050919050565b82818337600083830152505050565b600061066461065f84610611565b6105f6565b9050828152602081018484840111156106805761067f610591565b5b61068b848285610642565b509392505050565b600082601f8301126106a8576106a761058c565b5b81356106b8848260208601610651565b91505092915050565b600080604083850312156106d8576106d7610582565b5b600083013567ffffffffffffffff8111156106f6576106f5610587565b5b61070285828601610693565b925050602083013567ffffffffffffffff81111561072357610722610587565b5b61072f85828601610693565b9150509250929050565b7f4e487b7100000000000000000000000000000000000000000000000000000000600052602260045260246000fd5b6000600282049050600182168061078057607f821691505b60208210810361079357610792610739565b5b50919050565b60008190508160005260206000209050919050565b60006020601f8301049050919050565b600082821b905092915050565b6000600883026107fb7fffffffffffffffffffffffffffffffffffffffffffffffffffffffffffffffff826107be565b61080586836107be565b95508019841693508086168417925050509392505050565b6000819050919050565b6000819050919050565b600061084c6108476108428461081d565b610827565b61081d565b9050919050565b6000819050919050565b61086683610831565b61087a61087282610853565b8484546107cb565b825550505050565b600090565b61088f610882565b61089a81848461085d565b505050565b5b818110156108be576108b3600082610887565b6001810190506108a0565b5050565b601f821115610903576108d481610799565b6108dd846107ae565b810160208510156108ec578190505b6109006108f8856107ae565b83018261089f565b50505b505050565b600082821c905092915050565b600061092660001984600802610908565b1980831691505092915050565b600061093f8383610915565b9150826002028217905092915050565b6109588261047a565b67ffffffffffffffff81111561097157610970610596565b5b61097b8254610768565b6109868282856108c2565b600060209050601f8311600181146109b957600084156109a7578287015190505b6109b18582610933565b865550610a19565b601f1984166109c786610799565b60005b828110156109ef578489015182556001820191506020850194506020810190506109ca565b86831015610a0c5784890151610a08601f891682610915565b8355505b6001600288020188555050505b50505050505056fea2646970667358221220a7e722bc39e8c25dcf748fe3b6a035325da16722400d3e8deab61183f70b81f264736f6c63430008120033",
					"opcodes": "PUSH1 0x80 PUSH1 0x40 MSTORE PUSH1 0x40 MLOAD DUP1 PUSH1 0x40 ADD PUSH1 0x40 MSTORE DUP1 PUSH1 0x8 DUP2 MSTORE PUSH1 0x20 ADD PUSH32 0x4C696E6B6564496E000000000000000000000000000000000000000000000000 DUP2 MSTORE POP PUSH1 0x2 SWAP1 DUP2 PUSH3 0x4A SWAP2 SWAP1 PUSH3 0x2D9 JUMP JUMPDEST POP CALLVALUE DUP1 ISZERO PUSH3 0x58 JUMPI PUSH1 0x0 DUP1 REVERT JUMPDEST POP PUSH3 0x3C0 JUMP JUMPDEST PUSH1 0x0 DUP2 MLOAD SWAP1 POP SWAP2 SWAP1 POP JUMP JUMPDEST PUSH32 0x4E487B7100000000000000000000000000000000000000000000000000000000 PUSH1 0x0 MSTORE PUSH1 0x41 PUSH1 0x4 MSTORE PUSH1 0x24 PUSH1 0x0 REVERT JUMPDEST PUSH32 0x4E487B7100000000000000000000000000000000000000000000000000000000 PUSH1 0x0 MSTORE PUSH1 0x22 PUSH1 0x4 MSTORE PUSH1 0x24 PUSH1 0x0 REVERT JUMPDEST PUSH1 0x0 PUSH1 0x2 DUP3 DIV SWAP1 POP PUSH1 0x1 DUP3 AND DUP1 PUSH3 0xE1 JUMPI PUSH1 0x7F DUP3 AND SWAP2 POP JUMPDEST PUSH1 0x20 DUP3 LT DUP2 SUB PUSH3 0xF7 JUMPI PUSH3 0xF6 PUSH3 0x99 JUMP JUMPDEST JUMPDEST POP SWAP2 SWAP1 POP JUMP JUMPDEST PUSH1 0x0 DUP2 SWAP1 POP DUP2 PUSH1 0x0 MSTORE PUSH1 0x20 PUSH1 0x0 KECCAK256 SWAP1 POP SWAP2 SWAP1 POP JUMP JUMPDEST PUSH1 0x0 PUSH1 0x20 PUSH1 0x1F DUP4 ADD DIV SWAP1 POP SWAP2 SWAP1 POP JUMP JUMPDEST PUSH1 0x0 DUP3 DUP3 SHL SWAP1 POP SWAP3 SWAP2 POP POP JUMP JUMPDEST PUSH1 0x0 PUSH1 0x8 DUP4 MUL PUSH3 0x161 PUSH32 0xFFFFFFFFFFFFFFFFFFFFFFFFFFFFFFFFFFFFFFFFFFFFFFFFFFFFFFFFFFFFFFFF DUP3 PUSH3 0x122 JUMP JUMPDEST PUSH3 0x16D DUP7 DUP4 PUSH3 0x122 JUMP JUMPDEST SWAP6 POP DUP1 NOT DUP5 AND SWAP4 POP DUP1 DUP7 AND DUP5 OR SWAP3 POP POP POP SWAP4 SWAP3 POP POP POP JUMP JUMPDEST PUSH1 0x0 DUP2 SWAP1 POP SWAP2 SWAP1 POP JUMP JUMPDEST PUSH1 0x0 DUP2 SWAP1 POP SWAP2 SWAP1 POP JUMP JUMPDEST PUSH1 0x0 PUSH3 0x1BA PUSH3 0x1B4 PUSH3 0x1AE DUP5 PUSH3 0x185 JUMP JUMPDEST PUSH3 0x18F JUMP JUMPDEST PUSH3 0x185 JUMP JUMPDEST SWAP1 POP SWAP2 SWAP1 POP JUMP JUMPDEST PUSH1 0x0 DUP2 SWAP1 POP SWAP2 SWAP1 POP JUMP JUMPDEST PUSH3 0x1D6 DUP4 PUSH3 0x199 JUMP JUMPDEST PUSH3 0x1EE PUSH3 0x1E5 DUP3 PUSH3 0x1C1 JUMP JUMPDEST DUP5 DUP5 SLOAD PUSH3 0x12F JUMP JUMPDEST DUP3 SSTORE POP POP POP POP JUMP JUMPDEST PUSH1 0x0 SWAP1 JUMP JUMPDEST PUSH3 0x205 PUSH3 0x1F6 JUMP JUMPDEST PUSH3 0x212 DUP2 DUP5 DUP5 PUSH3 0x1CB JUMP JUMPDEST POP POP POP JUMP JUMPDEST JUMPDEST DUP2 DUP2 LT ISZERO PUSH3 0x23A JUMPI PUSH3 0x22E PUSH1 0x0 DUP3 PUSH3 0x1FB JUMP JUMPDEST PUSH1 0x1 DUP2 ADD SWAP1 POP PUSH3 0x218 JUMP JUMPDEST POP POP JUMP JUMPDEST PUSH1 0x1F DUP3 GT ISZERO PUSH3 0x289 JUMPI PUSH3 0x253 DUP2 PUSH3 0xFD JUMP JUMPDEST PUSH3 0x25E DUP5 PUSH3 0x112 JUMP JUMPDEST DUP2 ADD PUSH1 0x20 DUP6 LT ISZERO PUSH3 0x26E JUMPI DUP2 SWAP1 POP JUMPDEST PUSH3 0x286 PUSH3 0x27D DUP6 PUSH3 0x112 JUMP JUMPDEST DUP4 ADD DUP3 PUSH3 0x217 JUMP JUMPDEST POP POP JUMPDEST POP POP POP JUMP JUMPDEST PUSH1 0x0 DUP3 DUP3 SHR SWAP1 POP SWAP3 SWAP2 POP POP JUMP JUMPDEST PUSH1 0x0 PUSH3 0x2AE PUSH1 0x0 NOT DUP5 PUSH1 0x8 MUL PUSH3 0x28E JUMP JUMPDEST NOT DUP1 DUP4 AND SWAP2 POP POP SWAP3 SWAP2 POP POP JUMP JUMPDEST PUSH1 0x0 PUSH3 0x2C9 DUP4 DUP4 PUSH3 0x29B JUMP JUMPDEST SWAP2 POP DUP3 PUSH1 0x2 MUL DUP3 OR SWAP1 POP SWAP3 SWAP2 POP POP JUMP JUMPDEST PUSH3 0x2E4 DUP3 PUSH3 0x5F JUMP JUMPDEST PUSH8 0xFFFFFFFFFFFFFFFF DUP2 GT ISZERO PUSH3 0x300 JUMPI PUSH3 0x2FF PUSH3 0x6A JUMP JUMPDEST JUMPDEST PUSH3 0x30C DUP3 SLOAD PUSH3 0xC8 JUMP JUMPDEST PUSH3 0x319 DUP3 DUP3 DUP6 PUSH3 0x23E JUMP JUMPDEST PUSH1 0x0 PUSH1 0x20 SWAP1 POP PUSH1 0x1F DUP4 GT PUSH1 0x1 DUP2 EQ PUSH3 0x351 JUMPI PUSH1 0x0 DUP5 ISZERO PUSH3 0x33C JUMPI DUP3 DUP8 ADD MLOAD SWAP1 POP JUMPDEST PUSH3 0x348 DUP6 DUP3 PUSH3 0x2BB JUMP JUMPDEST DUP7 SSTORE POP PUSH3 0x3B8 JUMP JUMPDEST PUSH1 0x1F NOT DUP5 AND PUSH3 0x361 DUP7 PUSH3 0xFD JUMP JUMPDEST PUSH1 0x0 JUMPDEST DUP3 DUP2 LT ISZERO PUSH3 0x38B JUMPI DUP5 DUP10 ADD MLOAD DUP3 SSTORE PUSH1 0x1 DUP3 ADD SWAP2 POP PUSH1 0x20 DUP6 ADD SWAP5 POP PUSH1 0x20 DUP2 ADD SWAP1 POP PUSH3 0x364 JUMP JUMPDEST DUP7 DUP4 LT ISZERO PUSH3 0x3AB JUMPI DUP5 DUP10 ADD MLOAD PUSH3 0x3A7 PUSH1 0x1F DUP10 AND DUP3 PUSH3 0x29B JUMP JUMPDEST DUP4 SSTORE POP JUMPDEST PUSH1 0x1 PUSH1 0x2 DUP9 MUL ADD DUP9 SSTORE POP POP POP JUMPDEST POP POP POP POP POP POP JUMP JUMPDEST PUSH2 0xA57 DUP1 PUSH3 0x3D0 PUSH1 0x0 CODECOPY PUSH1 0x0 RETURN INVALID PUSH1 0x80 PUSH1 0x40 MSTORE CALLVALUE DUP1 ISZERO PUSH2 0x10 JUMPI PUSH1 0x0 DUP1 REVERT JUMPDEST POP PUSH1 0x4 CALLDATASIZE LT PUSH2 0x57 JUMPI PUSH1 0x0 CALLDATALOAD PUSH1 0xE0 SHR DUP1 PUSH4 0xE43164E EQ PUSH2 0x5C JUMPI DUP1 PUSH4 0x2CEE9C43 EQ PUSH2 0x7C JUMPI DUP1 PUSH4 0x6F6E678E EQ PUSH2 0x9A JUMPI DUP1 PUSH4 0x820E93F5 EQ PUSH2 0xB6 JUMPI DUP1 PUSH4 0xE21F37CE EQ PUSH2 0xD4 JUMPI JUMPDEST PUSH1 0x0 DUP1 REVERT JUMPDEST PUSH2 0x64 PUSH2 0xF2 JUMP JUMPDEST PUSH1 0x40 MLOAD PUSH2 0x73 SWAP4 SWAP3 SWAP2 SWAP1 PUSH2 0x50A JUMP JUMPDEST PUSH1 0x40 MLOAD DUP1 SWAP2 SUB SWAP1 RETURN JUMPDEST PUSH2 0x84 PUSH2 0x2AC JUMP JUMPDEST PUSH1 0x40 MLOAD PUSH2 0x91 SWAP2 SWAP1 PUSH2 0x556 JUMP JUMPDEST PUSH1 0x40 MLOAD DUP1 SWAP2 SUB SWAP1 RETURN JUMPDEST PUSH2 0xB4 PUSH1 0x4 DUP1 CALLDATASIZE SUB DUP2 ADD SWAP1 PUSH2 0xAF SWAP2 SWAP1 PUSH2 0x6C1 JUMP JUMPDEST PUSH2 0x33A JUMP JUMPDEST STOP JUMPDEST PUSH2 0xBE PUSH2 0x35E JUMP JUMPDEST PUSH1 0x40 MLOAD PUSH2 0xCB SWAP2 SWAP1 PUSH2 0x556 JUMP JUMPDEST PUSH1 0x40 MLOAD DUP1 SWAP2 SUB SWAP1 RETURN JUMPDEST PUSH2 0xDC PUSH2 0x3EC JUMP JUMPDEST PUSH1 0x40 MLOAD PUSH2 0xE9 SWAP2 SWAP1 PUSH2 0x556 JUMP JUMPDEST PUSH1 0x40 MLOAD DUP1 SWAP2 SUB SWAP1 RETURN JUMPDEST PUSH1 0x60 DUP1 PUSH1 0x60 PUSH1 0x2 PUSH1 0x0 PUSH1 0x1 DUP3 DUP1 SLOAD PUSH2 0x109 SWAP1 PUSH2 0x768 JUMP JUMPDEST DUP1 PUSH1 0x1F ADD PUSH1 0x20 DUP1 SWAP2 DIV MUL PUSH1 0x20 ADD PUSH1 0x40 MLOAD SWAP1 DUP2 ADD PUSH1 0x40 MSTORE DUP1 SWAP3 SWAP2 SWAP1 DUP2 DUP2 MSTORE PUSH1 0x20 ADD DUP3 DUP1 SLOAD PUSH2 0x135 SWAP1 PUSH2 0x768 JUMP JUMPDEST DUP1 ISZERO PUSH2 0x182 JUMPI DUP1 PUSH1 0x1F LT PUSH2 0x157 JUMPI PUSH2 0x100 DUP1 DUP4 SLOAD DIV MUL DUP4 MSTORE SWAP2 PUSH1 0x20 ADD SWAP2 PUSH2 0x182 JUMP JUMPDEST DUP3 ADD SWAP2 SWAP1 PUSH1 0x0 MSTORE PUSH1 0x20 PUSH1 0x0 KECCAK256 SWAP1 JUMPDEST DUP2 SLOAD DUP2 MSTORE SWAP1 PUSH1 0x1 ADD SWAP1 PUSH1 0x20 ADD DUP1 DUP4 GT PUSH2 0x165 JUMPI DUP3 SWAP1 SUB PUSH1 0x1F AND DUP3 ADD SWAP2 JUMPDEST POP POP POP POP POP SWAP3 POP DUP2 DUP1 SLOAD PUSH2 0x195 SWAP1 PUSH2 0x768 JUMP JUMPDEST DUP1 PUSH1 0x1F ADD PUSH1 0x20 DUP1 SWAP2 DIV MUL PUSH1 0x20 ADD PUSH1 0x40 MLOAD SWAP1 DUP2 ADD PUSH1 0x40 MSTORE DUP1 SWAP3 SWAP2 SWAP1 DUP2 DUP2 MSTORE PUSH1 0x20 ADD DUP3 DUP1 SLOAD PUSH2 0x1C1 SWAP1 PUSH2 0x768 JUMP JUMPDEST DUP1 ISZERO PUSH2 0x20E JUMPI DUP1 PUSH1 0x1F LT PUSH2 0x1E3 JUMPI PUSH2 0x100 DUP1 DUP4 SLOAD DIV MUL DUP4 MSTORE SWAP2 PUSH1 0x20 ADD SWAP2 PUSH2 0x20E JUMP JUMPDEST DUP3 ADD SWAP2 SWAP1 PUSH1 0x0 MSTORE PUSH1 0x20 PUSH1 0x0 KECCAK256 SWAP1 JUMPDEST DUP2 SLOAD DUP2 MSTORE SWAP1 PUSH1 0x1 ADD SWAP1 PUSH1 0x20 ADD DUP1 DUP4 GT PUSH2 0x1F1 JUMPI DUP3 SWAP1 SUB PUSH1 0x1F AND DUP3 ADD SWAP2 JUMPDEST POP POP POP POP POP SWAP2 POP DUP1 DUP1 SLOAD PUSH2 0x221 SWAP1 PUSH2 0x768 JUMP JUMPDEST DUP1 PUSH1 0x1F ADD PUSH1 0x20 DUP1 SWAP2 DIV MUL PUSH1 0x20 ADD PUSH1 0x40 MLOAD SWAP1 DUP2 ADD PUSH1 0x40 MSTORE DUP1 SWAP3 SWAP2 SWAP1 DUP2 DUP2 MSTORE PUSH1 0x20 ADD DUP3 DUP1 SLOAD PUSH2 0x24D SWAP1 PUSH2 0x768 JUMP JUMPDEST DUP1 ISZERO PUSH2 0x29A JUMPI DUP1 PUSH1 0x1F LT PUSH2 0x26F JUMPI PUSH2 0x100 DUP1 DUP4 SLOAD DIV MUL DUP4 MSTORE SWAP2 PUSH1 0x20 ADD SWAP2 PUSH2 0x29A JUMP JUMPDEST DUP3 ADD SWAP2 SWAP1 PUSH1 0x0 MSTORE PUSH1 0x20 PUSH1 0x0 KECCAK256 SWAP1 JUMPDEST DUP2 SLOAD DUP2 MSTORE SWAP1 PUSH1 0x1 ADD SWAP1 PUSH1 0x20 ADD DUP1 DUP4 GT PUSH2 0x27D JUMPI DUP3 SWAP1 SUB PUSH1 0x1F AND DUP3 ADD SWAP2 JUMPDEST POP POP POP POP POP SWAP1 POP SWAP3 POP SWAP3 POP SWAP3 POP SWAP1 SWAP2 SWAP3 JUMP JUMPDEST PUSH1 0x2 DUP1 SLOAD PUSH2 0x2B9 SWAP1 PUSH2 0x768 JUMP JUMPDEST DUP1 PUSH1 0x1F ADD PUSH1 0x20 DUP1 SWAP2 DIV MUL PUSH1 0x20 ADD PUSH1 0x40 MLOAD SWAP1 DUP2 ADD PUSH1 0x40 MSTORE DUP1 SWAP3 SWAP2 SWAP1 DUP2 DUP2 MSTORE PUSH1 0x20 ADD DUP3 DUP1 SLOAD PUSH2 0x2E5 SWAP1 PUSH2 0x768 JUMP JUMPDEST DUP1 ISZERO PUSH2 0x332 JUMPI DUP1 PUSH1 0x1F LT PUSH2 0x307 JUMPI PUSH2 0x100 DUP1 DUP4 SLOAD DIV MUL DUP4 MSTORE SWAP2 PUSH1 0x20 ADD SWAP2 PUSH2 0x332 JUMP JUMPDEST DUP3 ADD SWAP2 SWAP1 PUSH1 0x0 MSTORE PUSH1 0x20 PUSH1 0x0 KECCAK256 SWAP1 JUMPDEST DUP2 SLOAD DUP2 MSTORE SWAP1 PUSH1 0x1 ADD SWAP1 PUSH1 0x20 ADD DUP1 DUP4 GT PUSH2 0x315 JUMPI DUP3 SWAP1 SUB PUSH1 0x1F AND DUP3 ADD SWAP2 JUMPDEST POP POP POP POP POP DUP2 JUMP JUMPDEST DUP2 PUSH1 0x0 SWAP1 DUP2 PUSH2 0x349 SWAP2 SWAP1 PUSH2 0x94F JUMP JUMPDEST POP DUP1 PUSH1 0x1 SWAP1 DUP2 PUSH2 0x359 SWAP2 SWAP1 PUSH2 0x94F JUMP JUMPDEST POP POP POP JUMP JUMPDEST PUSH1 0x0 DUP1 SLOAD PUSH2 0x36B SWAP1 PUSH2 0x768 JUMP JUMPDEST DUP1 PUSH1 0x1F ADD PUSH1 0x20 DUP1 SWAP2 DIV MUL PUSH1 0x20 ADD PUSH1 0x40 MLOAD SWAP1 DUP2 ADD PUSH1 0x40 MSTORE DUP1 SWAP3 SWAP2 SWAP1 DUP2 DUP2 MSTORE PUSH1 0x20 ADD DUP3 DUP1 SLOAD PUSH2 0x397 SWAP1 PUSH2 0x768 JUMP JUMPDEST DUP1 ISZERO PUSH2 0x3E4 JUMPI DUP1 PUSH1 0x1F LT PUSH2 0x3B9 JUMPI PUSH2 0x100 DUP1 DUP4 SLOAD DIV MUL DUP4 MSTORE SWAP2 PUSH1 0x20 ADD SWAP2 PUSH2 0x3E4 JUMP JUMPDEST DUP3 ADD SWAP2 SWAP1 PUSH1 0x0 MSTORE PUSH1 0x20 PUSH1 0x0 KECCAK256 SWAP1 JUMPDEST DUP2 SLOAD DUP2 MSTORE SWAP1 PUSH1 0x1 ADD SWAP1 PUSH1 0x20 ADD DUP1 DUP4 GT PUSH2 0x3C7 JUMPI DUP3 SWAP1 SUB PUSH1 0x1F AND DUP3 ADD SWAP2 JUMPDEST POP POP POP POP POP DUP2 JUMP JUMPDEST PUSH1 0x1 DUP1 SLOAD PUSH2 0x3F9 SWAP1 PUSH2 0x768 JUMP JUMPDEST DUP1 PUSH1 0x1F ADD PUSH1 0x20 DUP1 SWAP2 DIV MUL PUSH1 0x20 ADD PUSH1 0x40 MLOAD SWAP1 DUP2 ADD PUSH1 0x40 MSTORE DUP1 SWAP3 SWAP2 SWAP1 DUP2 DUP2 MSTORE PUSH1 0x20 ADD DUP3 DUP1 SLOAD PUSH2 0x425 SWAP1 PUSH2 0x768 JUMP JUMPDEST DUP1 ISZERO PUSH2 0x472 JUMPI DUP1 PUSH1 0x1F LT PUSH2 0x447 JUMPI PUSH2 0x100 DUP1 DUP4 SLOAD DIV MUL DUP4 MSTORE SWAP2 PUSH1 0x20 ADD SWAP2 PUSH2 0x472 JUMP JUMPDEST DUP3 ADD SWAP2 SWAP1 PUSH1 0x0 MSTORE PUSH1 0x20 PUSH1 0x0 KECCAK256 SWAP1 JUMPDEST DUP2 SLOAD DUP2 MSTORE SWAP1 PUSH1 0x1 ADD SWAP1 PUSH1 0x20 ADD DUP1 DUP4 GT PUSH2 0x455 JUMPI DUP3 SWAP1 SUB PUSH1 0x1F AND DUP3 ADD SWAP2 JUMPDEST POP POP POP POP POP DUP2 JUMP JUMPDEST PUSH1 0x0 DUP2 MLOAD SWAP1 POP SWAP2 SWAP1 POP JUMP JUMPDEST PUSH1 0x0 DUP3 DUP3 MSTORE PUSH1 0x20 DUP3 ADD SWAP1 POP SWAP3 SWAP2 POP POP JUMP JUMPDEST PUSH1 0x0 JUMPDEST DUP4 DUP2 LT ISZERO PUSH2 0x4B4 JUMPI DUP1 DUP3 ADD MLOAD DUP2 DUP5 ADD MSTORE PUSH1 0x20 DUP2 ADD SWAP1 POP PUSH2 0x499 JUMP JUMPDEST PUSH1 0x0 DUP5 DUP5 ADD MSTORE POP POP POP POP JUMP JUMPDEST PUSH1 0x0 PUSH1 0x1F NOT PUSH1 0x1F DUP4 ADD AND SWAP1 POP SWAP2 SWAP1 POP JUMP JUMPDEST PUSH1 0x0 PUSH2 0x4DC DUP3 PUSH2 0x47A JUMP JUMPDEST PUSH2 0x4E6 DUP2 DUP6 PUSH2 0x485 JUMP JUMPDEST SWAP4 POP PUSH2 0x4F6 DUP2 DUP6 PUSH1 0x20 DUP7 ADD PUSH2 0x496 JUMP JUMPDEST PUSH2 0x4FF DUP2 PUSH2 0x4C0 JUMP JUMPDEST DUP5 ADD SWAP2 POP POP SWAP3 SWAP2 POP POP JUMP JUMPDEST PUSH1 0x0 PUSH1 0x60 DUP3 ADD SWAP1 POP DUP2 DUP2 SUB PUSH1 0x0 DUP4 ADD MSTORE PUSH2 0x524 DUP2 DUP7 PUSH2 0x4D1 JUMP JUMPDEST SWAP1 POP DUP2 DUP2 SUB PUSH1 0x20 DUP4 ADD MSTORE PUSH2 0x538 DUP2 DUP6 PUSH2 0x4D1 JUMP JUMPDEST SWAP1 POP DUP2 DUP2 SUB PUSH1 0x40 DUP4 ADD MSTORE PUSH2 0x54C DUP2 DUP5 PUSH2 0x4D1 JUMP JUMPDEST SWAP1 POP SWAP5 SWAP4 POP POP POP POP JUMP JUMPDEST PUSH1 0x0 PUSH1 0x20 DUP3 ADD SWAP1 POP DUP2 DUP2 SUB PUSH1 0x0 DUP4 ADD MSTORE PUSH2 0x570 DUP2 DUP5 PUSH2 0x4D1 JUMP JUMPDEST SWAP1 POP SWAP3 SWAP2 POP POP JUMP JUMPDEST PUSH1 0x0 PUSH1 0x40 MLOAD SWAP1 POP SWAP1 JUMP JUMPDEST PUSH1 0x0 DUP1 REVERT JUMPDEST PUSH1 0x0 DUP1 REVERT JUMPDEST PUSH1 0x0 DUP1 REVERT JUMPDEST PUSH1 0x0 DUP1 REVERT JUMPDEST PUSH32 0x4E487B7100000000000000000000000000000000000000000000000000000000 PUSH1 0x0 MSTORE PUSH1 0x41 PUSH1 0x4 MSTORE PUSH1 0x24 PUSH1 0x0 REVERT JUMPDEST PUSH2 0x5CE DUP3 PUSH2 0x4C0 JUMP JUMPDEST DUP2 ADD DUP2 DUP2 LT PUSH8 0xFFFFFFFFFFFFFFFF DUP3 GT OR ISZERO PUSH2 0x5ED JUMPI PUSH2 0x5EC PUSH2 0x596 JUMP JUMPDEST JUMPDEST DUP1 PUSH1 0x40 MSTORE POP POP POP JUMP JUMPDEST PUSH1 0x0 PUSH2 0x600 PUSH2 0x578 JUMP JUMPDEST SWAP1 POP PUSH2 0x60C DUP3 DUP3 PUSH2 0x5C5 JUMP JUMPDEST SWAP2 SWAP1 POP JUMP JUMPDEST PUSH1 0x0 PUSH8 0xFFFFFFFFFFFFFFFF DUP3 GT ISZERO PUSH2 0x62C JUMPI PUSH2 0x62B PUSH2 0x596 JUMP JUMPDEST JUMPDEST PUSH2 0x635 DUP3 PUSH2 0x4C0 JUMP JUMPDEST SWAP1 POP PUSH1 0x20 DUP2 ADD SWAP1 POP SWAP2 SWAP1 POP JUMP JUMPDEST DUP3 DUP2 DUP4 CALLDATACOPY PUSH1 0x0 DUP4 DUP4 ADD MSTORE POP POP POP JUMP JUMPDEST PUSH1 0x0 PUSH2 0x664 PUSH2 0x65F DUP5 PUSH2 0x611 JUMP JUMPDEST PUSH2 0x5F6 JUMP JUMPDEST SWAP1 POP DUP3 DUP2 MSTORE PUSH1 0x20 DUP2 ADD DUP5 DUP5 DUP5 ADD GT ISZERO PUSH2 0x680 JUMPI PUSH2 0x67F PUSH2 0x591 JUMP JUMPDEST JUMPDEST PUSH2 0x68B DUP5 DUP3 DUP6 PUSH2 0x642 JUMP JUMPDEST POP SWAP4 SWAP3 POP POP POP JUMP JUMPDEST PUSH1 0x0 DUP3 PUSH1 0x1F DUP4 ADD SLT PUSH2 0x6A8 JUMPI PUSH2 0x6A7 PUSH2 0x58C JUMP JUMPDEST JUMPDEST DUP2 CALLDATALOAD PUSH2 0x6B8 DUP5 DUP3 PUSH1 0x20 DUP7 ADD PUSH2 0x651 JUMP JUMPDEST SWAP2 POP POP SWAP3 SWAP2 POP POP JUMP JUMPDEST PUSH1 0x0 DUP1 PUSH1 0x40 DUP4 DUP6 SUB SLT ISZERO PUSH2 0x6D8 JUMPI PUSH2 0x6D7 PUSH2 0x582 JUMP JUMPDEST JUMPDEST PUSH1 0x0 DUP4 ADD CALLDATALOAD PUSH8 0xFFFFFFFFFFFFFFFF DUP2 GT ISZERO PUSH2 0x6F6 JUMPI PUSH2 0x6F5 PUSH2 0x587 JUMP JUMPDEST JUMPDEST PUSH2 0x702 DUP6 DUP3 DUP7 ADD PUSH2 0x693 JUMP JUMPDEST SWAP3 POP POP PUSH1 0x20 DUP4 ADD CALLDATALOAD PUSH8 0xFFFFFFFFFFFFFFFF DUP2 GT ISZERO PUSH2 0x723 JUMPI PUSH2 0x722 PUSH2 0x587 JUMP JUMPDEST JUMPDEST PUSH2 0x72F DUP6 DUP3 DUP7 ADD PUSH2 0x693 JUMP JUMPDEST SWAP2 POP POP SWAP3 POP SWAP3 SWAP1 POP JUMP JUMPDEST PUSH32 0x4E487B7100000000000000000000000000000000000000000000000000000000 PUSH1 0x0 MSTORE PUSH1 0x22 PUSH1 0x4 MSTORE PUSH1 0x24 PUSH1 0x0 REVERT JUMPDEST PUSH1 0x0 PUSH1 0x2 DUP3 DIV SWAP1 POP PUSH1 0x1 DUP3 AND DUP1 PUSH2 0x780 JUMPI PUSH1 0x7F DUP3 AND SWAP2 POP JUMPDEST PUSH1 0x20 DUP3 LT DUP2 SUB PUSH2 0x793 JUMPI PUSH2 0x792 PUSH2 0x739 JUMP JUMPDEST JUMPDEST POP SWAP2 SWAP1 POP JUMP JUMPDEST PUSH1 0x0 DUP2 SWAP1 POP DUP2 PUSH1 0x0 MSTORE PUSH1 0x20 PUSH1 0x0 KECCAK256 SWAP1 POP SWAP2 SWAP1 POP JUMP JUMPDEST PUSH1 0x0 PUSH1 0x20 PUSH1 0x1F DUP4 ADD DIV SWAP1 POP SWAP2 SWAP1 POP JUMP JUMPDEST PUSH1 0x0 DUP3 DUP3 SHL SWAP1 POP SWAP3 SWAP2 POP POP JUMP JUMPDEST PUSH1 0x0 PUSH1 0x8 DUP4 MUL PUSH2 0x7FB PUSH32 0xFFFFFFFFFFFFFFFFFFFFFFFFFFFFFFFFFFFFFFFFFFFFFFFFFFFFFFFFFFFFFFFF DUP3 PUSH2 0x7BE JUMP JUMPDEST PUSH2 0x805 DUP7 DUP4 PUSH2 0x7BE JUMP JUMPDEST SWAP6 POP DUP1 NOT DUP5 AND SWAP4 POP DUP1 DUP7 AND DUP5 OR SWAP3 POP POP POP SWAP4 SWAP3 POP POP POP JUMP JUMPDEST PUSH1 0x0 DUP2 SWAP1 POP SWAP2 SWAP1 POP JUMP JUMPDEST PUSH1 0x0 DUP2 SWAP1 POP SWAP2 SWAP1 POP JUMP JUMPDEST PUSH1 0x0 PUSH2 0x84C PUSH2 0x847 PUSH2 0x842 DUP5 PUSH2 0x81D JUMP JUMPDEST PUSH2 0x827 JUMP JUMPDEST PUSH2 0x81D JUMP JUMPDEST SWAP1 POP SWAP2 SWAP1 POP JUMP JUMPDEST PUSH1 0x0 DUP2 SWAP1 POP SWAP2 SWAP1 POP JUMP JUMPDEST PUSH2 0x866 DUP4 PUSH2 0x831 JUMP JUMPDEST PUSH2 0x87A PUSH2 0x872 DUP3 PUSH2 0x853 JUMP JUMPDEST DUP5 DUP5 SLOAD PUSH2 0x7CB JUMP JUMPDEST DUP3 SSTORE POP POP POP POP JUMP JUMPDEST PUSH1 0x0 SWAP1 JUMP JUMPDEST PUSH2 0x88F PUSH2 0x882 JUMP JUMPDEST PUSH2 0x89A DUP2 DUP5 DUP5 PUSH2 0x85D JUMP JUMPDEST POP POP POP JUMP JUMPDEST JUMPDEST DUP2 DUP2 LT ISZERO PUSH2 0x8BE JUMPI PUSH2 0x8B3 PUSH1 0x0 DUP3 PUSH2 0x887 JUMP JUMPDEST PUSH1 0x1 DUP2 ADD SWAP1 POP PUSH2 0x8A0 JUMP JUMPDEST POP POP JUMP JUMPDEST PUSH1 0x1F DUP3 GT ISZERO PUSH2 0x903 JUMPI PUSH2 0x8D4 DUP2 PUSH2 0x799 JUMP JUMPDEST PUSH2 0x8DD DUP5 PUSH2 0x7AE JUMP JUMPDEST DUP2 ADD PUSH1 0x20 DUP6 LT ISZERO PUSH2 0x8EC JUMPI DUP2 SWAP1 POP JUMPDEST PUSH2 0x900 PUSH2 0x8F8 DUP6 PUSH2 0x7AE JUMP JUMPDEST DUP4 ADD DUP3 PUSH2 0x89F JUMP JUMPDEST POP POP JUMPDEST POP POP POP JUMP JUMPDEST PUSH1 0x0 DUP3 DUP3 SHR SWAP1 POP SWAP3 SWAP2 POP POP JUMP JUMPDEST PUSH1 0x0 PUSH2 0x926 PUSH1 0x0 NOT DUP5 PUSH1 0x8 MUL PUSH2 0x908 JUMP JUMPDEST NOT DUP1 DUP4 AND SWAP2 POP POP SWAP3 SWAP2 POP POP JUMP JUMPDEST PUSH1 0x0 PUSH2 0x93F DUP4 DUP4 PUSH2 0x915 JUMP JUMPDEST SWAP2 POP DUP3 PUSH1 0x2 MUL DUP3 OR SWAP1 POP SWAP3 SWAP2 POP POP JUMP JUMPDEST PUSH2 0x958 DUP3 PUSH2 0x47A JUMP JUMPDEST PUSH8 0xFFFFFFFFFFFFFFFF DUP2 GT ISZERO PUSH2 0x971 JUMPI PUSH2 0x970 PUSH2 0x596 JUMP JUMPDEST JUMPDEST PUSH2 0x97B DUP3 SLOAD PUSH2 0x768 JUMP JUMPDEST PUSH2 0x986 DUP3 DUP3 DUP6 PUSH2 0x8C2 JUMP JUMPDEST PUSH1 0x0 PUSH1 0x20 SWAP1 POP PUSH1 0x1F DUP4 GT PUSH1 0x1 DUP2 EQ PUSH2 0x9B9 JUMPI PUSH1 0x0 DUP5 ISZERO PUSH2 0x9A7 JUMPI DUP3 DUP8 ADD MLOAD SWAP1 POP JUMPDEST PUSH2 0x9B1 DUP6 DUP3 PUSH2 0x933 JUMP JUMPDEST DUP7 SSTORE POP PUSH2 0xA19 JUMP JUMPDEST PUSH1 0x1F NOT DUP5 AND PUSH2 0x9C7 DUP7 PUSH2 0x799 JUMP JUMPDEST PUSH1 0x0 JUMPDEST DUP3 DUP2 LT ISZERO PUSH2 0x9EF JUMPI DUP5 DUP10 ADD MLOAD DUP3 SSTORE PUSH1 0x1 DUP3 ADD SWAP2 POP PUSH1 0x20 DUP6 ADD SWAP5 POP PUSH1 0x20 DUP2 ADD SWAP1 POP PUSH2 0x9CA JUMP JUMPDEST DUP7 DUP4 LT ISZERO PUSH2 0xA0C JUMPI DUP5 DUP10 ADD MLOAD PUSH2 0xA08 PUSH1 0x1F DUP10 AND DUP3 PUSH2 0x915 JUMP JUMPDEST DUP4 SSTORE POP JUMPDEST PUSH1 0x1 PUSH1 0x2 DUP9 MUL ADD DUP9 SSTORE POP POP POP JUMPDEST POP POP POP POP POP POP JUMP INVALID LOG2 PUSH5 0x6970667358 0x22 SLT KECCAK256 0xA7 0xE7 0x22 0xBC CODECOPY 0xE8 0xC2 0x5D 0xCF PUSH21 0x8FE3B6A035325DA16722400D3E8DEAB61183F70B81 CALLCODE PUSH5 0x736F6C6343 STOP ADDMOD SLT STOP CALLER "
				},
				"gasEstimates": {
					"creation": {
						"codeDepositCost": "529400",
						"executionCost": "infinite",
						"totalCost": "infinite"
					},
					"external": {
						"email()": "infinite",
						"get_app_detail()": "infinite",
						"message()": "infinite",
						"platform_name2()": "infinite",
						"set_content(string,string)": "infinite"
					}
				},
				"methodIdentifiers": {
					"email()": "820e93f5",
					"get_app_detail()": "0e43164e",
					"message()": "e21f37ce",
					"platform_name2()": "2cee9c43",
					"set_content(string,string)": "6f6e678e"
				}
			},
			"storageLayout": {
				"storage": [
					{
						"astId": 3,
						"contract": "user_inheritance.sol:LinkedIn",
						"label": "email",
						"offset": 0,
						"slot": "0",
						"type": "t_string_storage"
					},
					{
						"astId": 5,
						"contract": "user_inheritance.sol:LinkedIn",
						"label": "message",
						"offset": 0,
						"slot": "1",
						"type": "t_string_storage"
					},
					{
						"astId": 48,
						"contract": "user_inheritance.sol:LinkedIn",
						"label": "platform_name2",
						"offset": 0,
						"slot": "2",
						"type": "t_string_storage"
					}
				],
				"types": {
					"t_string_storage": {
						"encoding": "bytes",
						"label": "string",
						"numberOfBytes": "32"
					}
				}
			},
			"userdoc": {
				"kind": "user",
				"methods": {},
				"version": 1
			}
		}
	}
}