{
	"payable.sol": {
		"SimpleWallet": {
			"abi": [
				{
					"inputs": [],
					"stateMutability": "nonpayable",
					"type": "constructor"
				},
				{
					"inputs": [],
					"name": "deposit",
					"outputs": [],
					"stateMutability": "payable",
					"type": "function"
				},
				{
					"inputs": [],
					"name": "getBalance",
					"outputs": [
						{
							"internalType": "uint256",
							"name": "",
							"type": "uint256"
						}
					],
					"stateMutability": "view",
					"type": "function"
				},
				{
					"inputs": [],
					"name": "owner",
					"outputs": [
						{
							"internalType": "address",
							"name": "",
							"type": "address"
						}
					],
					"stateMutability": "view",
					"type": "function"
				},
				{
					"inputs": [
						{
							"internalType": "uint256",
							"name": "amount",
							"type": "uint256"
						}
					],
					"name": "withdraw",
					"outputs": [],
					"stateMutability": "nonpayable",
					"type": "function"
				}
			],
			"devdoc": {
				"kind": "dev",
				"methods": {},
				"version": 1
			},
			"evm": {
				"assembly": "    /* \"payable.sol\":60:755  contract SimpleWallet {... */\n  mstore(0x40, 0x80)\n    /* \"payable.sol\":155:206  constructor() {... */\n  callvalue\n  dup1\n  iszero\n  tag_1\n  jumpi\n  0x00\n  dup1\n  revert\ntag_1:\n  pop\n    /* \"payable.sol\":188:198  msg.sender */\n  caller\n    /* \"payable.sol\":180:185  owner */\n  0x00\n  dup1\n    /* \"payable.sol\":180:198  owner = msg.sender */\n  0x0100\n  exp\n  dup2\n  sload\n  dup2\n  0xffffffffffffffffffffffffffffffffffffffff\n  mul\n  not\n  and\n  swap1\n  dup4\n  0xffffffffffffffffffffffffffffffffffffffff\n  and\n  mul\n  or\n  swap1\n  sstore\n  pop\n    /* \"payable.sol\":60:755  contract SimpleWallet {... */\n  dataSize(sub_0)\n  dup1\n  dataOffset(sub_0)\n  0x00\n  codecopy\n  0x00\n  return\nstop\n\nsub_0: assembly {\n        /* \"payable.sol\":60:755  contract SimpleWallet {... */\n      mstore(0x40, 0x80)\n      jumpi(tag_1, lt(calldatasize, 0x04))\n      shr(0xe0, calldataload(0x00))\n      dup1\n      0x12065fe0\n      eq\n      tag_2\n      jumpi\n      dup1\n      0x2e1a7d4d\n      eq\n      tag_3\n      jumpi\n      dup1\n      0x8da5cb5b\n      eq\n      tag_4\n      jumpi\n      dup1\n      0xd0e30db0\n      eq\n      tag_5\n      jumpi\n    tag_1:\n      0x00\n      dup1\n      revert\n        /* \"payable.sol\":395:491  function getBalance() public view returns (uint) {... */\n    tag_2:\n      callvalue\n      dup1\n      iszero\n      tag_6\n      jumpi\n      0x00\n      dup1\n      revert\n    tag_6:\n      pop\n      tag_7\n      tag_8\n      jump\t// in\n    tag_7:\n      mload(0x40)\n      tag_9\n      swap2\n      swap1\n      tag_10\n      jump\t// in\n    tag_9:\n      mload(0x40)\n      dup1\n      swap2\n      sub\n      swap1\n      return\n        /* \"payable.sol\":535:752  function withdraw(uint amount) public {... */\n    tag_3:\n      callvalue\n      dup1\n      iszero\n      tag_11\n      jumpi\n      0x00\n      dup1\n      revert\n    tag_11:\n      pop\n      tag_12\n      0x04\n      dup1\n      calldatasize\n      sub\n      dup2\n      add\n      swap1\n      tag_13\n      swap2\n      swap1\n      tag_14\n      jump\t// in\n    tag_13:\n      tag_15\n      jump\t// in\n    tag_12:\n      stop\n        /* \"payable.sol\":91:111  address public owner */\n    tag_4:\n      callvalue\n      dup1\n      iszero\n      tag_16\n      jumpi\n      0x00\n      dup1\n      revert\n    tag_16:\n      pop\n      tag_17\n      tag_18\n      jump\t// in\n    tag_17:\n      mload(0x40)\n      tag_19\n      swap2\n      swap1\n      tag_20\n      jump\t// in\n    tag_19:\n      mload(0x40)\n      dup1\n      swap2\n      sub\n      swap1\n      return\n        /* \"payable.sol\":257:355  function deposit() public payable {... */\n    tag_5:\n      tag_21\n      tag_22\n      jump\t// in\n    tag_21:\n      stop\n        /* \"payable.sol\":395:491  function getBalance() public view returns (uint) {... */\n    tag_8:\n        /* \"payable.sol\":438:442  uint */\n      0x00\n        /* \"payable.sol\":462:483  address(this).balance */\n      selfbalance\n        /* \"payable.sol\":455:483  return address(this).balance */\n      swap1\n      pop\n        /* \"payable.sol\":395:491  function getBalance() public view returns (uint) {... */\n      swap1\n      jump\t// out\n        /* \"payable.sol\":535:752  function withdraw(uint amount) public {... */\n    tag_15:\n        /* \"payable.sol\":606:611  owner */\n      0x00\n      dup1\n      sload\n      swap1\n      0x0100\n      exp\n      swap1\n      div\n      0xffffffffffffffffffffffffffffffffffffffff\n      and\n        /* \"payable.sol\":592:611  msg.sender == owner */\n      0xffffffffffffffffffffffffffffffffffffffff\n      and\n        /* \"payable.sol\":592:602  msg.sender */\n      caller\n        /* \"payable.sol\":592:611  msg.sender == owner */\n      0xffffffffffffffffffffffffffffffffffffffff\n      and\n      eq\n        /* \"payable.sol\":584:625  require(msg.sender == owner, \"Not owner\") */\n      tag_25\n      jumpi\n      mload(0x40)\n      0x08c379a000000000000000000000000000000000000000000000000000000000\n      dup2\n      mstore\n      0x04\n      add\n      tag_26\n      swap1\n      tag_27\n      jump\t// in\n    tag_26:\n      mload(0x40)\n      dup1\n      swap2\n      sub\n      swap1\n      revert\n    tag_25:\n        /* \"payable.sol\":654:675  address(this).balance */\n      selfbalance\n        /* \"payable.sol\":644:650  amount */\n      dup2\n        /* \"payable.sol\":644:675  amount <= address(this).balance */\n      gt\n      iszero\n        /* \"payable.sol\":636:700  require(amount <= address(this).balance, \"Insufficient balance\") */\n      tag_28\n      jumpi\n      mload(0x40)\n      0x08c379a000000000000000000000000000000000000000000000000000000000\n      dup2\n      mstore\n      0x04\n      add\n      tag_29\n      swap1\n      tag_30\n      jump\t// in\n    tag_29:\n      mload(0x40)\n      dup1\n      swap2\n      sub\n      swap1\n      revert\n    tag_28:\n        /* \"payable.sol\":721:726  owner */\n      0x00\n      dup1\n      sload\n      swap1\n      0x0100\n      exp\n      swap1\n      div\n      0xffffffffffffffffffffffffffffffffffffffff\n      and\n        /* \"payable.sol\":713:736  payable(owner).transfer */\n      0xffffffffffffffffffffffffffffffffffffffff\n      and\n        /* \"payable.sol\":713:744  payable(owner).transfer(amount) */\n      0x08fc\n        /* \"payable.sol\":737:743  amount */\n      dup3\n        /* \"payable.sol\":713:744  payable(owner).transfer(amount) */\n      swap1\n      dup2\n      iszero\n      mul\n      swap1\n      mload(0x40)\n      0x00\n      mload(0x40)\n      dup1\n      dup4\n      sub\n      dup2\n      dup6\n      dup9\n      dup9\n      call\n      swap4\n      pop\n      pop\n      pop\n      pop\n      iszero\n      dup1\n      iszero\n      tag_32\n      jumpi\n      returndatasize\n      0x00\n      dup1\n      returndatacopy\n      revert(0x00, returndatasize)\n    tag_32:\n      pop\n        /* \"payable.sol\":535:752  function withdraw(uint amount) public {... */\n      pop\n      jump\t// out\n        /* \"payable.sol\":91:111  address public owner */\n    tag_18:\n      0x00\n      dup1\n      sload\n      swap1\n      0x0100\n      exp\n      swap1\n      div\n      0xffffffffffffffffffffffffffffffffffffffff\n      and\n      dup2\n      jump\t// out\n        /* \"payable.sol\":257:355  function deposit() public payable {... */\n    tag_22:\n      jump\t// out\n        /* \"#utility.yul\":7:84   */\n    tag_34:\n        /* \"#utility.yul\":44:51   */\n      0x00\n        /* \"#utility.yul\":73:78   */\n      dup2\n        /* \"#utility.yul\":62:78   */\n      swap1\n      pop\n        /* \"#utility.yul\":7:84   */\n      swap2\n      swap1\n      pop\n      jump\t// out\n        /* \"#utility.yul\":90:208   */\n    tag_35:\n        /* \"#utility.yul\":177:201   */\n      tag_52\n        /* \"#utility.yul\":195:200   */\n      dup2\n        /* \"#utility.yul\":177:201   */\n      tag_34\n      jump\t// in\n    tag_52:\n        /* \"#utility.yul\":172:175   */\n      dup3\n        /* \"#utility.yul\":165:202   */\n      mstore\n        /* \"#utility.yul\":90:208   */\n      pop\n      pop\n      jump\t// out\n        /* \"#utility.yul\":214:436   */\n    tag_10:\n        /* \"#utility.yul\":307:311   */\n      0x00\n        /* \"#utility.yul\":345:347   */\n      0x20\n        /* \"#utility.yul\":334:343   */\n      dup3\n        /* \"#utility.yul\":330:348   */\n      add\n        /* \"#utility.yul\":322:348   */\n      swap1\n      pop\n        /* \"#utility.yul\":358:429   */\n      tag_54\n        /* \"#utility.yul\":426:427   */\n      0x00\n        /* \"#utility.yul\":415:424   */\n      dup4\n        /* \"#utility.yul\":411:428   */\n      add\n        /* \"#utility.yul\":402:408   */\n      dup5\n        /* \"#utility.yul\":358:429   */\n      tag_35\n      jump\t// in\n    tag_54:\n        /* \"#utility.yul\":214:436   */\n      swap3\n      swap2\n      pop\n      pop\n      jump\t// out\n        /* \"#utility.yul\":523:640   */\n    tag_37:\n        /* \"#utility.yul\":632:633   */\n      0x00\n        /* \"#utility.yul\":629:630   */\n      dup1\n        /* \"#utility.yul\":622:634   */\n      revert\n        /* \"#utility.yul\":769:891   */\n    tag_39:\n        /* \"#utility.yul\":842:866   */\n      tag_59\n        /* \"#utility.yul\":860:865   */\n      dup2\n        /* \"#utility.yul\":842:866   */\n      tag_34\n      jump\t// in\n    tag_59:\n        /* \"#utility.yul\":835:840   */\n      dup2\n        /* \"#utility.yul\":832:867   */\n      eq\n        /* \"#utility.yul\":822:885   */\n      tag_60\n      jumpi\n        /* \"#utility.yul\":881:882   */\n      0x00\n        /* \"#utility.yul\":878:879   */\n      dup1\n        /* \"#utility.yul\":871:883   */\n      revert\n        /* \"#utility.yul\":822:885   */\n    tag_60:\n        /* \"#utility.yul\":769:891   */\n      pop\n      jump\t// out\n        /* \"#utility.yul\":897:1036   */\n    tag_40:\n        /* \"#utility.yul\":943:948   */\n      0x00\n        /* \"#utility.yul\":981:987   */\n      dup2\n        /* \"#utility.yul\":968:988   */\n      calldataload\n        /* \"#utility.yul\":959:988   */\n      swap1\n      pop\n        /* \"#utility.yul\":997:1030   */\n      tag_62\n        /* \"#utility.yul\":1024:1029   */\n      dup2\n        /* \"#utility.yul\":997:1030   */\n      tag_39\n      jump\t// in\n    tag_62:\n        /* \"#utility.yul\":897:1036   */\n      swap3\n      swap2\n      pop\n      pop\n      jump\t// out\n        /* \"#utility.yul\":1042:1371   */\n    tag_14:\n        /* \"#utility.yul\":1101:1107   */\n      0x00\n        /* \"#utility.yul\":1150:1152   */\n      0x20\n        /* \"#utility.yul\":1138:1147   */\n      dup3\n        /* \"#utility.yul\":1129:1136   */\n      dup5\n        /* \"#utility.yul\":1125:1148   */\n      sub\n        /* \"#utility.yul\":1121:1153   */\n      slt\n        /* \"#utility.yul\":1118:1237   */\n      iszero\n      tag_64\n      jumpi\n        /* \"#utility.yul\":1156:1235   */\n      tag_65\n      tag_37\n      jump\t// in\n    tag_65:\n        /* \"#utility.yul\":1118:1237   */\n    tag_64:\n        /* \"#utility.yul\":1276:1277   */\n      0x00\n        /* \"#utility.yul\":1301:1354   */\n      tag_66\n        /* \"#utility.yul\":1346:1353   */\n      dup5\n        /* \"#utility.yul\":1337:1343   */\n      dup3\n        /* \"#utility.yul\":1326:1335   */\n      dup6\n        /* \"#utility.yul\":1322:1344   */\n      add\n        /* \"#utility.yul\":1301:1354   */\n      tag_40\n      jump\t// in\n    tag_66:\n        /* \"#utility.yul\":1291:1354   */\n      swap2\n      pop\n        /* \"#utility.yul\":1247:1364   */\n      pop\n        /* \"#utility.yul\":1042:1371   */\n      swap3\n      swap2\n      pop\n      pop\n      jump\t// out\n        /* \"#utility.yul\":1377:1503   */\n    tag_41:\n        /* \"#utility.yul\":1414:1421   */\n      0x00\n        /* \"#utility.yul\":1454:1496   */\n      0xffffffffffffffffffffffffffffffffffffffff\n        /* \"#utility.yul\":1447:1452   */\n      dup3\n        /* \"#utility.yul\":1443:1497   */\n      and\n        /* \"#utility.yul\":1432:1497   */\n      swap1\n      pop\n        /* \"#utility.yul\":1377:1503   */\n      swap2\n      swap1\n      pop\n      jump\t// out\n        /* \"#utility.yul\":1509:1605   */\n    tag_42:\n        /* \"#utility.yul\":1546:1553   */\n      0x00\n        /* \"#utility.yul\":1575:1599   */\n      tag_69\n        /* \"#utility.yul\":1593:1598   */\n      dup3\n        /* \"#utility.yul\":1575:1599   */\n      tag_41\n      jump\t// in\n    tag_69:\n        /* \"#utility.yul\":1564:1599   */\n      swap1\n      pop\n        /* \"#utility.yul\":1509:1605   */\n      swap2\n      swap1\n      pop\n      jump\t// out\n        /* \"#utility.yul\":1611:1729   */\n    tag_43:\n        /* \"#utility.yul\":1698:1722   */\n      tag_71\n        /* \"#utility.yul\":1716:1721   */\n      dup2\n        /* \"#utility.yul\":1698:1722   */\n      tag_42\n      jump\t// in\n    tag_71:\n        /* \"#utility.yul\":1693:1696   */\n      dup3\n        /* \"#utility.yul\":1686:1723   */\n      mstore\n        /* \"#utility.yul\":1611:1729   */\n      pop\n      pop\n      jump\t// out\n        /* \"#utility.yul\":1735:1957   */\n    tag_20:\n        /* \"#utility.yul\":1828:1832   */\n      0x00\n        /* \"#utility.yul\":1866:1868   */\n      0x20\n        /* \"#utility.yul\":1855:1864   */\n      dup3\n        /* \"#utility.yul\":1851:1869   */\n      add\n        /* \"#utility.yul\":1843:1869   */\n      swap1\n      pop\n        /* \"#utility.yul\":1879:1950   */\n      tag_73\n        /* \"#utility.yul\":1947:1948   */\n      0x00\n        /* \"#utility.yul\":1936:1945   */\n      dup4\n        /* \"#utility.yul\":1932:1949   */\n      add\n        /* \"#utility.yul\":1923:1929   */\n      dup5\n        /* \"#utility.yul\":1879:1950   */\n      tag_43\n      jump\t// in\n    tag_73:\n        /* \"#utility.yul\":1735:1957   */\n      swap3\n      swap2\n      pop\n      pop\n      jump\t// out\n        /* \"#utility.yul\":1963:2132   */\n    tag_44:\n        /* \"#utility.yul\":2047:2058   */\n      0x00\n        /* \"#utility.yul\":2081:2087   */\n      dup3\n        /* \"#utility.yul\":2076:2079   */\n      dup3\n        /* \"#utility.yul\":2069:2088   */\n      mstore\n        /* \"#utility.yul\":2121:2125   */\n      0x20\n        /* \"#utility.yul\":2116:2119   */\n      dup3\n        /* \"#utility.yul\":2112:2126   */\n      add\n        /* \"#utility.yul\":2097:2126   */\n      swap1\n      pop\n        /* \"#utility.yul\":1963:2132   */\n      swap3\n      swap2\n      pop\n      pop\n      jump\t// out\n        /* \"#utility.yul\":2138:2297   */\n    tag_45:\n        /* \"#utility.yul\":2278:2289   */\n      0x4e6f74206f776e65720000000000000000000000000000000000000000000000\n        /* \"#utility.yul\":2274:2275   */\n      0x00\n        /* \"#utility.yul\":2266:2272   */\n      dup3\n        /* \"#utility.yul\":2262:2276   */\n      add\n        /* \"#utility.yul\":2255:2290   */\n      mstore\n        /* \"#utility.yul\":2138:2297   */\n      pop\n      jump\t// out\n        /* \"#utility.yul\":2303:2668   */\n    tag_46:\n        /* \"#utility.yul\":2445:2448   */\n      0x00\n        /* \"#utility.yul\":2466:2532   */\n      tag_77\n        /* \"#utility.yul\":2530:2531   */\n      0x09\n        /* \"#utility.yul\":2525:2528   */\n      dup4\n        /* \"#utility.yul\":2466:2532   */\n      tag_44\n      jump\t// in\n    tag_77:\n        /* \"#utility.yul\":2459:2532   */\n      swap2\n      pop\n        /* \"#utility.yul\":2541:2634   */\n      tag_78\n        /* \"#utility.yul\":2630:2633   */\n      dup3\n        /* \"#utility.yul\":2541:2634   */\n      tag_45\n      jump\t// in\n    tag_78:\n        /* \"#utility.yul\":2659:2661   */\n      0x20\n        /* \"#utility.yul\":2654:2657   */\n      dup3\n        /* \"#utility.yul\":2650:2662   */\n      add\n        /* \"#utility.yul\":2643:2662   */\n      swap1\n      pop\n        /* \"#utility.yul\":2303:2668   */\n      swap2\n      swap1\n      pop\n      jump\t// out\n        /* \"#utility.yul\":2674:3093   */\n    tag_27:\n        /* \"#utility.yul\":2840:2844   */\n      0x00\n        /* \"#utility.yul\":2878:2880   */\n      0x20\n        /* \"#utility.yul\":2867:2876   */\n      dup3\n        /* \"#utility.yul\":2863:2881   */\n      add\n        /* \"#utility.yul\":2855:2881   */\n      swap1\n      pop\n        /* \"#utility.yul\":2927:2936   */\n      dup2\n        /* \"#utility.yul\":2921:2925   */\n      dup2\n        /* \"#utility.yul\":2917:2937   */\n      sub\n        /* \"#utility.yul\":2913:2914   */\n      0x00\n        /* \"#utility.yul\":2902:2911   */\n      dup4\n        /* \"#utility.yul\":2898:2915   */\n      add\n        /* \"#utility.yul\":2891:2938   */\n      mstore\n        /* \"#utility.yul\":2955:3086   */\n      tag_80\n        /* \"#utility.yul\":3081:3085   */\n      dup2\n        /* \"#utility.yul\":2955:3086   */\n      tag_46\n      jump\t// in\n    tag_80:\n        /* \"#utility.yul\":2947:3086   */\n      swap1\n      pop\n        /* \"#utility.yul\":2674:3093   */\n      swap2\n      swap1\n      pop\n      jump\t// out\n        /* \"#utility.yul\":3099:3269   */\n    tag_47:\n        /* \"#utility.yul\":3239:3261   */\n      0x496e73756666696369656e742062616c616e6365000000000000000000000000\n        /* \"#utility.yul\":3235:3236   */\n      0x00\n        /* \"#utility.yul\":3227:3233   */\n      dup3\n        /* \"#utility.yul\":3223:3237   */\n      add\n        /* \"#utility.yul\":3216:3262   */\n      mstore\n        /* \"#utility.yul\":3099:3269   */\n      pop\n      jump\t// out\n        /* \"#utility.yul\":3275:3641   */\n    tag_48:\n        /* \"#utility.yul\":3417:3420   */\n      0x00\n        /* \"#utility.yul\":3438:3505   */\n      tag_83\n        /* \"#utility.yul\":3502:3504   */\n      0x14\n        /* \"#utility.yul\":3497:3500   */\n      dup4\n        /* \"#utility.yul\":3438:3505   */\n      tag_44\n      jump\t// in\n    tag_83:\n        /* \"#utility.yul\":3431:3505   */\n      swap2\n      pop\n        /* \"#utility.yul\":3514:3607   */\n      tag_84\n        /* \"#utility.yul\":3603:3606   */\n      dup3\n        /* \"#utility.yul\":3514:3607   */\n      tag_47\n      jump\t// in\n    tag_84:\n        /* \"#utility.yul\":3632:3634   */\n      0x20\n        /* \"#utility.yul\":3627:3630   */\n      dup3\n        /* \"#utility.yul\":3623:3635   */\n      add\n        /* \"#utility.yul\":3616:3635   */\n      swap1\n      pop\n        /* \"#utility.yul\":3275:3641   */\n      swap2\n      swap1\n      pop\n      jump\t// out\n        /* \"#utility.yul\":3647:4066   */\n    tag_30:\n        /* \"#utility.yul\":3813:3817   */\n      0x00\n        /* \"#utility.yul\":3851:3853   */\n      0x20\n        /* \"#utility.yul\":3840:3849   */\n      dup3\n        /* \"#utility.yul\":3836:3854   */\n      add\n        /* \"#utility.yul\":3828:3854   */\n      swap1\n      pop\n        /* \"#utility.yul\":3900:3909   */\n      dup2\n        /* \"#utility.yul\":3894:3898   */\n      dup2\n        /* \"#utility.yul\":3890:3910   */\n      sub\n        /* \"#utility.yul\":3886:3887   */\n      0x00\n        /* \"#utility.yul\":3875:3884   */\n      dup4\n        /* \"#utility.yul\":3871:3888   */\n      add\n        /* \"#utility.yul\":3864:3911   */\n      mstore\n        /* \"#utility.yul\":3928:4059   */\n      tag_86\n        /* \"#utility.yul\":4054:4058   */\n      dup2\n        /* \"#utility.yul\":3928:4059   */\n      tag_48\n      jump\t// in\n    tag_86:\n        /* \"#utility.yul\":3920:4059   */\n      swap1\n      pop\n        /* \"#utility.yul\":3647:4066   */\n      swap2\n      swap1\n      pop\n      jump\t// out\n\n    auxdata: 0xa2646970667358221220708a6a9c1b302f801e6788949a0659b0ef66a8afab245f75794821d4f257d3be64736f6c63430008120033\n}\n",
				"bytecode": {
					"linkReferences": {},
					"object": "608060405234801561001057600080fd5b50336000806101000a81548173ffffffffffffffffffffffffffffffffffffffff021916908373ffffffffffffffffffffffffffffffffffffffff160217905550610443806100606000396000f3fe60806040526004361061003f5760003560e01c806312065fe0146100445780632e1a7d4d1461006f5780638da5cb5b14610098578063d0e30db0146100c3575b600080fd5b34801561005057600080fd5b506100596100cd565b604051610066919061024f565b60405180910390f35b34801561007b57600080fd5b506100966004803603810190610091919061029b565b6100d5565b005b3480156100a457600080fd5b506100ad610210565b6040516100ba9190610309565b60405180910390f35b6100cb610234565b005b600047905090565b60008054906101000a900473ffffffffffffffffffffffffffffffffffffffff1673ffffffffffffffffffffffffffffffffffffffff163373ffffffffffffffffffffffffffffffffffffffff1614610163576040517f08c379a000000000000000000000000000000000000000000000000000000000815260040161015a90610381565b60405180910390fd5b478111156101a6576040517f08c379a000000000000000000000000000000000000000000000000000000000815260040161019d906103ed565b60405180910390fd5b60008054906101000a900473ffffffffffffffffffffffffffffffffffffffff1673ffffffffffffffffffffffffffffffffffffffff166108fc829081150290604051600060405180830381858888f1935050505015801561020c573d6000803e3d6000fd5b5050565b60008054906101000a900473ffffffffffffffffffffffffffffffffffffffff1681565b565b6000819050919050565b61024981610236565b82525050565b60006020820190506102646000830184610240565b92915050565b600080fd5b61027881610236565b811461028357600080fd5b50565b6000813590506102958161026f565b92915050565b6000602082840312156102b1576102b061026a565b5b60006102bf84828501610286565b91505092915050565b600073ffffffffffffffffffffffffffffffffffffffff82169050919050565b60006102f3826102c8565b9050919050565b610303816102e8565b82525050565b600060208201905061031e60008301846102fa565b92915050565b600082825260208201905092915050565b7f4e6f74206f776e65720000000000000000000000000000000000000000000000600082015250565b600061036b600983610324565b915061037682610335565b602082019050919050565b6000602082019050818103600083015261039a8161035e565b9050919050565b7f496e73756666696369656e742062616c616e6365000000000000000000000000600082015250565b60006103d7601483610324565b91506103e2826103a1565b602082019050919050565b60006020820190508181036000830152610406816103ca565b905091905056fea2646970667358221220708a6a9c1b302f801e6788949a0659b0ef66a8afab245f75794821d4f257d3be64736f6c63430008120033",
					"opcodes": "PUSH1 0x80 PUSH1 0x40 MSTORE CALLVALUE DUP1 ISZERO PUSH2 0x10 JUMPI PUSH1 0x0 DUP1 REVERT JUMPDEST POP CALLER PUSH1 0x0 DUP1 PUSH2 0x100 EXP DUP2 SLOAD DUP2 PUSH20 0xFFFFFFFFFFFFFFFFFFFFFFFFFFFFFFFFFFFFFFFF MUL NOT AND SWAP1 DUP4 PUSH20 0xFFFFFFFFFFFFFFFFFFFFFFFFFFFFFFFFFFFFFFFF AND MUL OR SWAP1 SSTORE POP PUSH2 0x443 DUP1 PUSH2 0x60 PUSH1 0x0 CODECOPY PUSH1 0x0 RETURN INVALID PUSH1 0x80 PUSH1 0x40 MSTORE PUSH1 0x4 CALLDATASIZE LT PUSH2 0x3F JUMPI PUSH1 0x0 CALLDATALOAD PUSH1 0xE0 SHR DUP1 PUSH4 0x12065FE0 EQ PUSH2 0x44 JUMPI DUP1 PUSH4 0x2E1A7D4D EQ PUSH2 0x6F JUMPI DUP1 PUSH4 0x8DA5CB5B EQ PUSH2 0x98 JUMPI DUP1 PUSH4 0xD0E30DB0 EQ PUSH2 0xC3 JUMPI JUMPDEST PUSH1 0x0 DUP1 REVERT JUMPDEST CALLVALUE DUP1 ISZERO PUSH2 0x50 JUMPI PUSH1 0x0 DUP1 REVERT JUMPDEST POP PUSH2 0x59 PUSH2 0xCD JUMP JUMPDEST PUSH1 0x40 MLOAD PUSH2 0x66 SWAP2 SWAP1 PUSH2 0x24F JUMP JUMPDEST PUSH1 0x40 MLOAD DUP1 SWAP2 SUB SWAP1 RETURN JUMPDEST CALLVALUE DUP1 ISZERO PUSH2 0x7B JUMPI PUSH1 0x0 DUP1 REVERT JUMPDEST POP PUSH2 0x96 PUSH1 0x4 DUP1 CALLDATASIZE SUB DUP2 ADD SWAP1 PUSH2 0x91 SWAP2 SWAP1 PUSH2 0x29B JUMP JUMPDEST PUSH2 0xD5 JUMP JUMPDEST STOP JUMPDEST CALLVALUE DUP1 ISZERO PUSH2 0xA4 JUMPI PUSH1 0x0 DUP1 REVERT JUMPDEST POP PUSH2 0xAD PUSH2 0x210 JUMP JUMPDEST PUSH1 0x40 MLOAD PUSH2 0xBA SWAP2 SWAP1 PUSH2 0x309 JUMP JUMPDEST PUSH1 0x40 MLOAD DUP1 SWAP2 SUB SWAP1 RETURN JUMPDEST PUSH2 0xCB PUSH2 0x234 JUMP JUMPDEST STOP JUMPDEST PUSH1 0x0 SELFBALANCE SWAP1 POP SWAP1 JUMP JUMPDEST PUSH1 0x0 DUP1 SLOAD SWAP1 PUSH2 0x100 EXP SWAP1 DIV PUSH20 0xFFFFFFFFFFFFFFFFFFFFFFFFFFFFFFFFFFFFFFFF AND PUSH20 0xFFFFFFFFFFFFFFFFFFFFFFFFFFFFFFFFFFFFFFFF AND CALLER PUSH20 0xFFFFFFFFFFFFFFFFFFFFFFFFFFFFFFFFFFFFFFFF AND EQ PUSH2 0x163 JUMPI PUSH1 0x40 MLOAD PUSH32 0x8C379A000000000000000000000000000000000000000000000000000000000 DUP2 MSTORE PUSH1 0x4 ADD PUSH2 0x15A SWAP1 PUSH2 0x381 JUMP JUMPDEST PUSH1 0x40 MLOAD DUP1 SWAP2 SUB SWAP1 REVERT JUMPDEST SELFBALANCE DUP2 GT ISZERO PUSH2 0x1A6 JUMPI PUSH1 0x40 MLOAD PUSH32 0x8C379A000000000000000000000000000000000000000000000000000000000 DUP2 MSTORE PUSH1 0x4 ADD PUSH2 0x19D SWAP1 PUSH2 0x3ED JUMP JUMPDEST PUSH1 0x40 MLOAD DUP1 SWAP2 SUB SWAP1 REVERT JUMPDEST PUSH1 0x0 DUP1 SLOAD SWAP1 PUSH2 0x100 EXP SWAP1 DIV PUSH20 0xFFFFFFFFFFFFFFFFFFFFFFFFFFFFFFFFFFFFFFFF AND PUSH20 0xFFFFFFFFFFFFFFFFFFFFFFFFFFFFFFFFFFFFFFFF AND PUSH2 0x8FC DUP3 SWAP1 DUP2 ISZERO MUL SWAP1 PUSH1 0x40 MLOAD PUSH1 0x0 PUSH1 0x40 MLOAD DUP1 DUP4 SUB DUP2 DUP6 DUP9 DUP9 CALL SWAP4 POP POP POP POP ISZERO DUP1 ISZERO PUSH2 0x20C JUMPI RETURNDATASIZE PUSH1 0x0 DUP1 RETURNDATACOPY RETURNDATASIZE PUSH1 0x0 REVERT JUMPDEST POP POP JUMP JUMPDEST PUSH1 0x0 DUP1 SLOAD SWAP1 PUSH2 0x100 EXP SWAP1 DIV PUSH20 0xFFFFFFFFFFFFFFFFFFFFFFFFFFFFFFFFFFFFFFFF AND DUP2 JUMP JUMPDEST JUMP JUMPDEST PUSH1 0x0 DUP2 SWAP1 POP SWAP2 SWAP1 POP JUMP JUMPDEST PUSH2 0x249 DUP2 PUSH2 0x236 JUMP JUMPDEST DUP3 MSTORE POP POP JUMP JUMPDEST PUSH1 0x0 PUSH1 0x20 DUP3 ADD SWAP1 POP PUSH2 0x264 PUSH1 0x0 DUP4 ADD DUP5 PUSH2 0x240 JUMP JUMPDEST SWAP3 SWAP2 POP POP JUMP JUMPDEST PUSH1 0x0 DUP1 REVERT JUMPDEST PUSH2 0x278 DUP2 PUSH2 0x236 JUMP JUMPDEST DUP2 EQ PUSH2 0x283 JUMPI PUSH1 0x0 DUP1 REVERT JUMPDEST POP JUMP JUMPDEST PUSH1 0x0 DUP2 CALLDATALOAD SWAP1 POP PUSH2 0x295 DUP2 PUSH2 0x26F JUMP JUMPDEST SWAP3 SWAP2 POP POP JUMP JUMPDEST PUSH1 0x0 PUSH1 0x20 DUP3 DUP5 SUB SLT ISZERO PUSH2 0x2B1 JUMPI PUSH2 0x2B0 PUSH2 0x26A JUMP JUMPDEST JUMPDEST PUSH1 0x0 PUSH2 0x2BF DUP5 DUP3 DUP6 ADD PUSH2 0x286 JUMP JUMPDEST SWAP2 POP POP SWAP3 SWAP2 POP POP JUMP JUMPDEST PUSH1 0x0 PUSH20 0xFFFFFFFFFFFFFFFFFFFFFFFFFFFFFFFFFFFFFFFF DUP3 AND SWAP1 POP SWAP2 SWAP1 POP JUMP JUMPDEST PUSH1 0x0 PUSH2 0x2F3 DUP3 PUSH2 0x2C8 JUMP JUMPDEST SWAP1 POP SWAP2 SWAP1 POP JUMP JUMPDEST PUSH2 0x303 DUP2 PUSH2 0x2E8 JUMP JUMPDEST DUP3 MSTORE POP POP JUMP JUMPDEST PUSH1 0x0 PUSH1 0x20 DUP3 ADD SWAP1 POP PUSH2 0x31E PUSH1 0x0 DUP4 ADD DUP5 PUSH2 0x2FA JUMP JUMPDEST SWAP3 SWAP2 POP POP JUMP JUMPDEST PUSH1 0x0 DUP3 DUP3 MSTORE PUSH1 0x20 DUP3 ADD SWAP1 POP SWAP3 SWAP2 POP POP JUMP JUMPDEST PUSH32 0x4E6F74206F776E65720000000000000000000000000000000000000000000000 PUSH1 0x0 DUP3 ADD MSTORE POP JUMP JUMPDEST PUSH1 0x0 PUSH2 0x36B PUSH1 0x9 DUP4 PUSH2 0x324 JUMP JUMPDEST SWAP2 POP PUSH2 0x376 DUP3 PUSH2 0x335 JUMP JUMPDEST PUSH1 0x20 DUP3 ADD SWAP1 POP SWAP2 SWAP1 POP JUMP JUMPDEST PUSH1 0x0 PUSH1 0x20 DUP3 ADD SWAP1 POP DUP2 DUP2 SUB PUSH1 0x0 DUP4 ADD MSTORE PUSH2 0x39A DUP2 PUSH2 0x35E JUMP JUMPDEST SWAP1 POP SWAP2 SWAP1 POP JUMP JUMPDEST PUSH32 0x496E73756666696369656E742062616C616E6365000000000000000000000000 PUSH1 0x0 DUP3 ADD MSTORE POP JUMP JUMPDEST PUSH1 0x0 PUSH2 0x3D7 PUSH1 0x14 DUP4 PUSH2 0x324 JUMP JUMPDEST SWAP2 POP PUSH2 0x3E2 DUP3 PUSH2 0x3A1 JUMP JUMPDEST PUSH1 0x20 DUP3 ADD SWAP1 POP SWAP2 SWAP1 POP JUMP JUMPDEST PUSH1 0x0 PUSH1 0x20 DUP3 ADD SWAP1 POP DUP2 DUP2 SUB PUSH1 0x0 DUP4 ADD MSTORE PUSH2 0x406 DUP2 PUSH2 0x3CA JUMP JUMPDEST SWAP1 POP SWAP2 SWAP1 POP JUMP INVALID LOG2 PUSH5 0x6970667358 0x22 SLT KECCAK256 PUSH17 0x8A6A9C1B302F801E6788949A0659B0EF66 0xA8 0xAF 0xAB 0x24 0x5F PUSH22 0x794821D4F257D3BE64736F6C63430008120033000000 "
				},
				"gasEstimates": {
					"creation": {
						"codeDepositCost": "218200",
						"executionCost": "24529",
						"totalCost": "242729"
					},
					"external": {
						"deposit()": "164",
						"getBalance()": "317",
						"owner()": "2533",
						"withdraw(uint256)": "infinite"
					}
				},
				"methodIdentifiers": {
					"deposit()": "d0e30db0",
					"getBalance()": "12065fe0",
					"owner()": "8da5cb5b",
					"withdraw(uint256)": "2e1a7d4d"
				}
			},
			"storageLayout": {
				"storage": [
					{
						"astId": 3,
						"contract": "payable.sol:SimpleWallet",
						"label": "owner",
						"offset": 0,
						"slot": "0",
						"type": "t_address"
					}
				],
				"types": {
					"t_address": {
						"encoding": "inplace",
						"label": "address",
						"numberOfBytes": "20"
					}
				}
			},
			"userdoc": {
				"kind": "user",
				"methods": {},
				"version": 1
			}
		}
	}
}