{
	"data": {
		"bytecode": {
			"linkReferences": {},
			"object": "6080604052348015600e575f5ffd5b50610a558061001c5f395ff3fe60806040526004361061003e575f3560e01c8063025e7c2714610042578063040f0aee1461007e57806327e235e314610088578063f9518723146100c4575b5f5ffd5b34801561004d575f5ffd5b506100686004803603810190610063919061064a565b6100ef565b60405161007591906106b4565b60405180910390f35b610086610129565b005b348015610093575f5ffd5b506100ae60048036038101906100a991906106f7565b6102c3565b6040516100bb9190610731565b60405180910390f35b3480156100cf575f5ffd5b506100d86102d8565b6040516100e69291906108b8565b60405180910390f35b5f81815481106100fd575f80fd5b905f5260205f20015f915054906101000a900473ffffffffffffffffffffffffffffffffffffffff1681565b5f341161016b576040517f08c379a000000000000000000000000000000000000000000000000000000000815260040161016290610947565b60405180910390fd5b60025f3373ffffffffffffffffffffffffffffffffffffffff1673ffffffffffffffffffffffffffffffffffffffff1681526020019081526020015f205f9054906101000a900460ff1661026e575f33908060018154018082558091505060019003905f5260205f20015f9091909190916101000a81548173ffffffffffffffffffffffffffffffffffffffff021916908373ffffffffffffffffffffffffffffffffffffffff160217905550600160025f3373ffffffffffffffffffffffffffffffffffffffff1673ffffffffffffffffffffffffffffffffffffffff1681526020019081526020015f205f6101000a81548160ff0219169083151502179055505b3460015f3373ffffffffffffffffffffffffffffffffffffffff1673ffffffffffffffffffffffffffffffffffffffff1681526020019081526020015f205f8282546102ba9190610992565b92505081905550565b6001602052805f5260405f205f915090505481565b6060805f5f8054905090505f5f80548060200260200160405190810160405280929190818152602001828054801561036257602002820191905f5260205f20905b815f9054906101000a900473ffffffffffffffffffffffffffffffffffffffff1673ffffffffffffffffffffffffffffffffffffffff1681526020019060010190808311610319575b505050505090505f8267ffffffffffffffff811115610384576103836109c5565b5b6040519080825280602002602001820160405280156103b25781602001602082028036833780820191505090505b5090505f5f90505b838110156104465760015f8483815181106103d8576103d76109f2565b5b602002602001015173ffffffffffffffffffffffffffffffffffffffff1673ffffffffffffffffffffffffffffffffffffffff1681526020019081526020015f205482828151811061042d5761042c6109f2565b5b60200260200101818152505080806001019150506103ba565b505f5f90505b83811015610605575f6001826104629190610992565b90505b848110156105f7578282815181106104805761047f6109f2565b5b602002602001015183828151811061049b5761049a6109f2565b5b602002602001015111156105ea578281815181106104bc576104bb6109f2565b5b60200260200101518383815181106104d7576104d66109f2565b5b60200260200101518484815181106104f2576104f16109f2565b5b6020026020010185848151811061050c5761050b6109f2565b5b60200260200101828152508281525050508381815181106105305761052f6109f2565b5b602002602001015184838151811061054b5761054a6109f2565b5b6020026020010151858481518110610566576105656109f2565b5b602002602001018684815181106105805761057f6109f2565b5b602002602001018273ffffffffffffffffffffffffffffffffffffffff1673ffffffffffffffffffffffffffffffffffffffff168152508273ffffffffffffffffffffffffffffffffffffffff1673ffffffffffffffffffffffffffffffffffffffff1681525050505b8080600101915050610465565b50808060010191505061044c565b508181945094505050509091565b5f5ffd5b5f819050919050565b61062981610617565b8114610633575f5ffd5b50565b5f8135905061064481610620565b92915050565b5f6020828403121561065f5761065e610613565b5b5f61066c84828501610636565b91505092915050565b5f73ffffffffffffffffffffffffffffffffffffffff82169050919050565b5f61069e82610675565b9050919050565b6106ae81610694565b82525050565b5f6020820190506106c75f8301846106a5565b92915050565b6106d681610694565b81146106e0575f5ffd5b50565b5f813590506106f1816106cd565b92915050565b5f6020828403121561070c5761070b610613565b5b5f610719848285016106e3565b91505092915050565b61072b81610617565b82525050565b5f6020820190506107445f830184610722565b92915050565b5f81519050919050565b5f82825260208201905092915050565b5f819050602082019050919050565b61077c81610694565b82525050565b5f61078d8383610773565b60208301905092915050565b5f602082019050919050565b5f6107af8261074a565b6107b98185610754565b93506107c483610764565b805f5b838110156107f45781516107db8882610782565b97506107e683610799565b9250506001810190506107c7565b5085935050505092915050565b5f81519050919050565b5f82825260208201905092915050565b5f819050602082019050919050565b61083381610617565b82525050565b5f610844838361082a565b60208301905092915050565b5f602082019050919050565b5f61086682610801565b610870818561080b565b935061087b8361081b565b805f5b838110156108ab5781516108928882610839565b975061089d83610850565b92505060018101905061087e565b5085935050505092915050565b5f6040820190508181035f8301526108d081856107a5565b905081810360208301526108e4818461085c565b90509392505050565b5f82825260208201905092915050565b7f53656e64204554480000000000000000000000000000000000000000000000005f82015250565b5f6109316008836108ed565b915061093c826108fd565b602082019050919050565b5f6020820190508181035f83015261095e81610925565b9050919050565b7f4e487b71000000000000000000000000000000000000000000000000000000005f52601160045260245ffd5b5f61099c82610617565b91506109a783610617565b92508282019050808211156109bf576109be610965565b5b92915050565b7f4e487b71000000000000000000000000000000000000000000000000000000005f52604160045260245ffd5b7f4e487b71000000000000000000000000000000000000000000000000000000005f52603260045260245ffdfea264697066735822122045bd6d249739ebffce41a2055ae897826349d7a316b781c4a1906b3247169a4c64736f6c63430008210033",
			"opcodes": "PUSH1 0x80 PUSH1 0x40 MSTORE CALLVALUE DUP1 ISZERO PUSH1 0xE JUMPI PUSH0 PUSH0 REVERT JUMPDEST POP PUSH2 0xA55 DUP1 PUSH2 0x1C PUSH0 CODECOPY PUSH0 RETURN INVALID PUSH1 0x80 PUSH1 0x40 MSTORE PUSH1 0x4 CALLDATASIZE LT PUSH2 0x3E JUMPI PUSH0 CALLDATALOAD PUSH1 0xE0 SHR DUP1 PUSH4 0x25E7C27 EQ PUSH2 0x42 JUMPI DUP1 PUSH4 0x40F0AEE EQ PUSH2 0x7E JUMPI DUP1 PUSH4 0x27E235E3 EQ PUSH2 0x88 JUMPI DUP1 PUSH4 0xF9518723 EQ PUSH2 0xC4 JUMPI JUMPDEST PUSH0 PUSH0 REVERT JUMPDEST CALLVALUE DUP1 ISZERO PUSH2 0x4D JUMPI PUSH0 PUSH0 REVERT JUMPDEST POP PUSH2 0x68 PUSH1 0x4 DUP1 CALLDATASIZE SUB DUP2 ADD SWAP1 PUSH2 0x63 SWAP2 SWAP1 PUSH2 0x64A JUMP JUMPDEST PUSH2 0xEF JUMP JUMPDEST PUSH1 0x40 MLOAD PUSH2 0x75 SWAP2 SWAP1 PUSH2 0x6B4 JUMP JUMPDEST PUSH1 0x40 MLOAD DUP1 SWAP2 SUB SWAP1 RETURN JUMPDEST PUSH2 0x86 PUSH2 0x129 JUMP JUMPDEST STOP JUMPDEST CALLVALUE DUP1 ISZERO PUSH2 0x93 JUMPI PUSH0 PUSH0 REVERT JUMPDEST POP PUSH2 0xAE PUSH1 0x4 DUP1 CALLDATASIZE SUB DUP2 ADD SWAP1 PUSH2 0xA9 SWAP2 SWAP1 PUSH2 0x6F7 JUMP JUMPDEST PUSH2 0x2C3 JUMP JUMPDEST PUSH1 0x40 MLOAD PUSH2 0xBB SWAP2 SWAP1 PUSH2 0x731 JUMP JUMPDEST PUSH1 0x40 MLOAD DUP1 SWAP2 SUB SWAP1 RETURN JUMPDEST CALLVALUE DUP1 ISZERO PUSH2 0xCF JUMPI PUSH0 PUSH0 REVERT JUMPDEST POP PUSH2 0xD8 PUSH2 0x2D8 JUMP JUMPDEST PUSH1 0x40 MLOAD PUSH2 0xE6 SWAP3 SWAP2 SWAP1 PUSH2 0x8B8 JUMP JUMPDEST PUSH1 0x40 MLOAD DUP1 SWAP2 SUB SWAP1 RETURN JUMPDEST PUSH0 DUP2 DUP2 SLOAD DUP2 LT PUSH2 0xFD JUMPI PUSH0 DUP1 REVERT JUMPDEST SWAP1 PUSH0 MSTORE PUSH1 0x20 PUSH0 KECCAK256 ADD PUSH0 SWAP2 POP SLOAD SWAP1 PUSH2 0x100 EXP SWAP1 DIV PUSH20 0xFFFFFFFFFFFFFFFFFFFFFFFFFFFFFFFFFFFFFFFF AND DUP2 JUMP JUMPDEST PUSH0 CALLVALUE GT PUSH2 0x16B JUMPI PUSH1 0x40 MLOAD PUSH32 0x8C379A000000000000000000000000000000000000000000000000000000000 DUP2 MSTORE PUSH1 0x4 ADD PUSH2 0x162 SWAP1 PUSH2 0x947 JUMP JUMPDEST PUSH1 0x40 MLOAD DUP1 SWAP2 SUB SWAP1 REVERT JUMPDEST PUSH1 0x2 PUSH0 CALLER PUSH20 0xFFFFFFFFFFFFFFFFFFFFFFFFFFFFFFFFFFFFFFFF AND PUSH20 0xFFFFFFFFFFFFFFFFFFFFFFFFFFFFFFFFFFFFFFFF AND DUP2 MSTORE PUSH1 0x20 ADD SWAP1 DUP2 MSTORE PUSH1 0x20 ADD PUSH0 KECCAK256 PUSH0 SWAP1 SLOAD SWAP1 PUSH2 0x100 EXP SWAP1 DIV PUSH1 0xFF AND PUSH2 0x26E JUMPI PUSH0 CALLER SWAP1 DUP1 PUSH1 0x1 DUP2 SLOAD ADD DUP1 DUP3 SSTORE DUP1 SWAP2 POP POP PUSH1 0x1 SWAP1 SUB SWAP1 PUSH0 MSTORE PUSH1 0x20 PUSH0 KECCAK256 ADD PUSH0 SWAP1 SWAP2 SWAP1 SWAP2 SWAP1 SWAP2 PUSH2 0x100 EXP DUP2 SLOAD DUP2 PUSH20 0xFFFFFFFFFFFFFFFFFFFFFFFFFFFFFFFFFFFFFFFF MUL NOT AND SWAP1 DUP4 PUSH20 0xFFFFFFFFFFFFFFFFFFFFFFFFFFFFFFFFFFFFFFFF AND MUL OR SWAP1 SSTORE POP PUSH1 0x1 PUSH1 0x2 PUSH0 CALLER PUSH20 0xFFFFFFFFFFFFFFFFFFFFFFFFFFFFFFFFFFFFFFFF AND PUSH20 0xFFFFFFFFFFFFFFFFFFFFFFFFFFFFFFFFFFFFFFFF AND DUP2 MSTORE PUSH1 0x20 ADD SWAP1 DUP2 MSTORE PUSH1 0x20 ADD PUSH0 KECCAK256 PUSH0 PUSH2 0x100 EXP DUP2 SLOAD DUP2 PUSH1 0xFF MUL NOT AND SWAP1 DUP4 ISZERO ISZERO MUL OR SWAP1 SSTORE POP JUMPDEST CALLVALUE PUSH1 0x1 PUSH0 CALLER PUSH20 0xFFFFFFFFFFFFFFFFFFFFFFFFFFFFFFFFFFFFFFFF AND PUSH20 0xFFFFFFFFFFFFFFFFFFFFFFFFFFFFFFFFFFFFFFFF AND DUP2 MSTORE PUSH1 0x20 ADD SWAP1 DUP2 MSTORE PUSH1 0x20 ADD PUSH0 KECCAK256 PUSH0 DUP3 DUP3 SLOAD PUSH2 0x2BA SWAP2 SWAP1 PUSH2 0x992 JUMP JUMPDEST SWAP3 POP POP DUP2 SWAP1 SSTORE POP JUMP JUMPDEST PUSH1 0x1 PUSH1 0x20 MSTORE DUP1 PUSH0 MSTORE PUSH1 0x40 PUSH0 KECCAK256 PUSH0 SWAP2 POP SWAP1 POP SLOAD DUP2 JUMP JUMPDEST PUSH1 0x60 DUP1 PUSH0 PUSH0 DUP1 SLOAD SWAP1 POP SWAP1 POP PUSH0 PUSH0 DUP1 SLOAD DUP1 PUSH1 0x20 MUL PUSH1 0x20 ADD PUSH1 0x40 MLOAD SWAP1 DUP2 ADD PUSH1 0x40 MSTORE DUP1 SWAP3 SWAP2 SWAP1 DUP2 DUP2 MSTORE PUSH1 0x20 ADD DUP3 DUP1 SLOAD DUP1 ISZERO PUSH2 0x362 JUMPI PUSH1 0x20 MUL DUP3 ADD SWAP2 SWAP1 PUSH0 MSTORE PUSH1 0x20 PUSH0 KECCAK256 SWAP1 JUMPDEST DUP2 PUSH0 SWAP1 SLOAD SWAP1 PUSH2 0x100 EXP SWAP1 DIV PUSH20 0xFFFFFFFFFFFFFFFFFFFFFFFFFFFFFFFFFFFFFFFF AND PUSH20 0xFFFFFFFFFFFFFFFFFFFFFFFFFFFFFFFFFFFFFFFF AND DUP2 MSTORE PUSH1 0x20 ADD SWAP1 PUSH1 0x1 ADD SWAP1 DUP1 DUP4 GT PUSH2 0x319 JUMPI JUMPDEST POP POP POP POP POP SWAP1 POP PUSH0 DUP3 PUSH8 0xFFFFFFFFFFFFFFFF DUP2 GT ISZERO PUSH2 0x384 JUMPI PUSH2 0x383 PUSH2 0x9C5 JUMP JUMPDEST JUMPDEST PUSH1 0x40 MLOAD SWAP1 DUP1 DUP3 MSTORE DUP1 PUSH1 0x20 MUL PUSH1 0x20 ADD DUP3 ADD PUSH1 0x40 MSTORE DUP1 ISZERO PUSH2 0x3B2 JUMPI DUP2 PUSH1 0x20 ADD PUSH1 0x20 DUP3 MUL DUP1 CALLDATASIZE DUP4 CALLDATACOPY DUP1 DUP3 ADD SWAP2 POP POP SWAP1 POP JUMPDEST POP SWAP1 POP PUSH0 PUSH0 SWAP1 POP JUMPDEST DUP4 DUP2 LT ISZERO PUSH2 0x446 JUMPI PUSH1 0x1 PUSH0 DUP5 DUP4 DUP2 MLOAD DUP2 LT PUSH2 0x3D8 JUMPI PUSH2 0x3D7 PUSH2 0x9F2 JUMP JUMPDEST JUMPDEST PUSH1 0x20 MUL PUSH1 0x20 ADD ADD MLOAD PUSH20 0xFFFFFFFFFFFFFFFFFFFFFFFFFFFFFFFFFFFFFFFF AND PUSH20 0xFFFFFFFFFFFFFFFFFFFFFFFFFFFFFFFFFFFFFFFF AND DUP2 MSTORE PUSH1 0x20 ADD SWAP1 DUP2 MSTORE PUSH1 0x20 ADD PUSH0 KECCAK256 SLOAD DUP3 DUP3 DUP2 MLOAD DUP2 LT PUSH2 0x42D JUMPI PUSH2 0x42C PUSH2 0x9F2 JUMP JUMPDEST JUMPDEST PUSH1 0x20 MUL PUSH1 0x20 ADD ADD DUP2 DUP2 MSTORE POP POP DUP1 DUP1 PUSH1 0x1 ADD SWAP2 POP POP PUSH2 0x3BA JUMP JUMPDEST POP PUSH0 PUSH0 SWAP1 POP JUMPDEST DUP4 DUP2 LT ISZERO PUSH2 0x605 JUMPI PUSH0 PUSH1 0x1 DUP3 PUSH2 0x462 SWAP2 SWAP1 PUSH2 0x992 JUMP JUMPDEST SWAP1 POP JUMPDEST DUP5 DUP2 LT ISZERO PUSH2 0x5F7 JUMPI DUP3 DUP3 DUP2 MLOAD DUP2 LT PUSH2 0x480 JUMPI PUSH2 0x47F PUSH2 0x9F2 JUMP JUMPDEST JUMPDEST PUSH1 0x20 MUL PUSH1 0x20 ADD ADD MLOAD DUP4 DUP3 DUP2 MLOAD DUP2 LT PUSH2 0x49B JUMPI PUSH2 0x49A PUSH2 0x9F2 JUMP JUMPDEST JUMPDEST PUSH1 0x20 MUL PUSH1 0x20 ADD ADD MLOAD GT ISZERO PUSH2 0x5EA JUMPI DUP3 DUP2 DUP2 MLOAD DUP2 LT PUSH2 0x4BC JUMPI PUSH2 0x4BB PUSH2 0x9F2 JUMP JUMPDEST JUMPDEST PUSH1 0x20 MUL PUSH1 0x20 ADD ADD MLOAD DUP4 DUP4 DUP2 MLOAD DUP2 LT PUSH2 0x4D7 JUMPI PUSH2 0x4D6 PUSH2 0x9F2 JUMP JUMPDEST JUMPDEST PUSH1 0x20 MUL PUSH1 0x20 ADD ADD MLOAD DUP5 DUP5 DUP2 MLOAD DUP2 LT PUSH2 0x4F2 JUMPI PUSH2 0x4F1 PUSH2 0x9F2 JUMP JUMPDEST JUMPDEST PUSH1 0x20 MUL PUSH1 0x20 ADD ADD DUP6 DUP5 DUP2 MLOAD DUP2 LT PUSH2 0x50C JUMPI PUSH2 0x50B PUSH2 0x9F2 JUMP JUMPDEST JUMPDEST PUSH1 0x20 MUL PUSH1 0x20 ADD ADD DUP3 DUP2 MSTORE POP DUP3 DUP2 MSTORE POP POP POP DUP4 DUP2 DUP2 MLOAD DUP2 LT PUSH2 0x530 JUMPI PUSH2 0x52F PUSH2 0x9F2 JUMP JUMPDEST JUMPDEST PUSH1 0x20 MUL PUSH1 0x20 ADD ADD MLOAD DUP5 DUP4 DUP2 MLOAD DUP2 LT PUSH2 0x54B JUMPI PUSH2 0x54A PUSH2 0x9F2 JUMP JUMPDEST JUMPDEST PUSH1 0x20 MUL PUSH1 0x20 ADD ADD MLOAD DUP6 DUP5 DUP2 MLOAD DUP2 LT PUSH2 0x566 JUMPI PUSH2 0x565 PUSH2 0x9F2 JUMP JUMPDEST JUMPDEST PUSH1 0x20 MUL PUSH1 0x20 ADD ADD DUP7 DUP5 DUP2 MLOAD DUP2 LT PUSH2 0x580 JUMPI PUSH2 0x57F PUSH2 0x9F2 JUMP JUMPDEST JUMPDEST PUSH1 0x20 MUL PUSH1 0x20 ADD ADD DUP3 PUSH20 0xFFFFFFFFFFFFFFFFFFFFFFFFFFFFFFFFFFFFFFFF AND PUSH20 0xFFFFFFFFFFFFFFFFFFFFFFFFFFFFFFFFFFFFFFFF AND DUP2 MSTORE POP DUP3 PUSH20 0xFFFFFFFFFFFFFFFFFFFFFFFFFFFFFFFFFFFFFFFF AND PUSH20 0xFFFFFFFFFFFFFFFFFFFFFFFFFFFFFFFFFFFFFFFF AND DUP2 MSTORE POP POP POP JUMPDEST DUP1 DUP1 PUSH1 0x1 ADD SWAP2 POP POP PUSH2 0x465 JUMP JUMPDEST POP DUP1 DUP1 PUSH1 0x1 ADD SWAP2 POP POP PUSH2 0x44C JUMP JUMPDEST POP DUP2 DUP2 SWAP5 POP SWAP5 POP POP POP POP SWAP1 SWAP2 JUMP JUMPDEST PUSH0 PUSH0 REVERT JUMPDEST PUSH0 DUP2 SWAP1 POP SWAP2 SWAP1 POP JUMP JUMPDEST PUSH2 0x629 DUP2 PUSH2 0x617 JUMP JUMPDEST DUP2 EQ PUSH2 0x633 JUMPI PUSH0 PUSH0 REVERT JUMPDEST POP JUMP JUMPDEST PUSH0 DUP2 CALLDATALOAD SWAP1 POP PUSH2 0x644 DUP2 PUSH2 0x620 JUMP JUMPDEST SWAP3 SWAP2 POP POP JUMP JUMPDEST PUSH0 PUSH1 0x20 DUP3 DUP5 SUB SLT ISZERO PUSH2 0x65F JUMPI PUSH2 0x65E PUSH2 0x613 JUMP JUMPDEST JUMPDEST PUSH0 PUSH2 0x66C DUP5 DUP3 DUP6 ADD PUSH2 0x636 JUMP JUMPDEST SWAP2 POP POP SWAP3 SWAP2 POP POP JUMP JUMPDEST PUSH0 PUSH20 0xFFFFFFFFFFFFFFFFFFFFFFFFFFFFFFFFFFFFFFFF DUP3 AND SWAP1 POP SWAP2 SWAP1 POP JUMP JUMPDEST PUSH0 PUSH2 0x69E DUP3 PUSH2 0x675 JUMP JUMPDEST SWAP1 POP SWAP2 SWAP1 POP JUMP JUMPDEST PUSH2 0x6AE DUP2 PUSH2 0x694 JUMP JUMPDEST DUP3 MSTORE POP POP JUMP JUMPDEST PUSH0 PUSH1 0x20 DUP3 ADD SWAP1 POP PUSH2 0x6C7 PUSH0 DUP4 ADD DUP5 PUSH2 0x6A5 JUMP JUMPDEST SWAP3 SWAP2 POP POP JUMP JUMPDEST PUSH2 0x6D6 DUP2 PUSH2 0x694 JUMP JUMPDEST DUP2 EQ PUSH2 0x6E0 JUMPI PUSH0 PUSH0 REVERT JUMPDEST POP JUMP JUMPDEST PUSH0 DUP2 CALLDATALOAD SWAP1 POP PUSH2 0x6F1 DUP2 PUSH2 0x6CD JUMP JUMPDEST SWAP3 SWAP2 POP POP JUMP JUMPDEST PUSH0 PUSH1 0x20 DUP3 DUP5 SUB SLT ISZERO PUSH2 0x70C JUMPI PUSH2 0x70B PUSH2 0x613 JUMP JUMPDEST JUMPDEST PUSH0 PUSH2 0x719 DUP5 DUP3 DUP6 ADD PUSH2 0x6E3 JUMP JUMPDEST SWAP2 POP POP SWAP3 SWAP2 POP POP JUMP JUMPDEST PUSH2 0x72B DUP2 PUSH2 0x617 JUMP JUMPDEST DUP3 MSTORE POP POP JUMP JUMPDEST PUSH0 PUSH1 0x20 DUP3 ADD SWAP1 POP PUSH2 0x744 PUSH0 DUP4 ADD DUP5 PUSH2 0x722 JUMP JUMPDEST SWAP3 SWAP2 POP POP JUMP JUMPDEST PUSH0 DUP2 MLOAD SWAP1 POP SWAP2 SWAP1 POP JUMP JUMPDEST PUSH0 DUP3 DUP3 MSTORE PUSH1 0x20 DUP3 ADD SWAP1 POP SWAP3 SWAP2 POP POP JUMP JUMPDEST PUSH0 DUP2 SWAP1 POP PUSH1 0x20 DUP3 ADD SWAP1 POP SWAP2 SWAP1 POP JUMP JUMPDEST PUSH2 0x77C DUP2 PUSH2 0x694 JUMP JUMPDEST DUP3 MSTORE POP POP JUMP JUMPDEST PUSH0 PUSH2 0x78D DUP4 DUP4 PUSH2 0x773 JUMP JUMPDEST PUSH1 0x20 DUP4 ADD SWAP1 POP SWAP3 SWAP2 POP POP JUMP JUMPDEST PUSH0 PUSH1 0x20 DUP3 ADD SWAP1 POP SWAP2 SWAP1 POP JUMP JUMPDEST PUSH0 PUSH2 0x7AF DUP3 PUSH2 0x74A JUMP JUMPDEST PUSH2 0x7B9 DUP2 DUP6 PUSH2 0x754 JUMP JUMPDEST SWAP4 POP PUSH2 0x7C4 DUP4 PUSH2 0x764 JUMP JUMPDEST DUP1 PUSH0 JUMPDEST DUP4 DUP2 LT ISZERO PUSH2 0x7F4 JUMPI DUP2 MLOAD PUSH2 0x7DB DUP9 DUP3 PUSH2 0x782 JUMP JUMPDEST SWAP8 POP PUSH2 0x7E6 DUP4 PUSH2 0x799 JUMP JUMPDEST SWAP3 POP POP PUSH1 0x1 DUP2 ADD SWAP1 POP PUSH2 0x7C7 JUMP JUMPDEST POP DUP6 SWAP4 POP POP POP POP SWAP3 SWAP2 POP POP JUMP JUMPDEST PUSH0 DUP2 MLOAD SWAP1 POP SWAP2 SWAP1 POP JUMP JUMPDEST PUSH0 DUP3 DUP3 MSTORE PUSH1 0x20 DUP3 ADD SWAP1 POP SWAP3 SWAP2 POP POP JUMP JUMPDEST PUSH0 DUP2 SWAP1 POP PUSH1 0x20 DUP3 ADD SWAP1 POP SWAP2 SWAP1 POP JUMP JUMPDEST PUSH2 0x833 DUP2 PUSH2 0x617 JUMP JUMPDEST DUP3 MSTORE POP POP JUMP JUMPDEST PUSH0 PUSH2 0x844 DUP4 DUP4 PUSH2 0x82A JUMP JUMPDEST PUSH1 0x20 DUP4 ADD SWAP1 POP SWAP3 SWAP2 POP POP JUMP JUMPDEST PUSH0 PUSH1 0x20 DUP3 ADD SWAP1 POP SWAP2 SWAP1 POP JUMP JUMPDEST PUSH0 PUSH2 0x866 DUP3 PUSH2 0x801 JUMP JUMPDEST PUSH2 0x870 DUP2 DUP6 PUSH2 0x80B JUMP JUMPDEST SWAP4 POP PUSH2 0x87B DUP4 PUSH2 0x81B JUMP JUMPDEST DUP1 PUSH0 JUMPDEST DUP4 DUP2 LT ISZERO PUSH2 0x8AB JUMPI DUP2 MLOAD PUSH2 0x892 DUP9 DUP3 PUSH2 0x839 JUMP JUMPDEST SWAP8 POP PUSH2 0x89D DUP4 PUSH2 0x850 JUMP JUMPDEST SWAP3 POP POP PUSH1 0x1 DUP2 ADD SWAP1 POP PUSH2 0x87E JUMP JUMPDEST POP DUP6 SWAP4 POP POP POP POP SWAP3 SWAP2 POP POP JUMP JUMPDEST PUSH0 PUSH1 0x40 DUP3 ADD SWAP1 POP DUP2 DUP2 SUB PUSH0 DUP4 ADD MSTORE PUSH2 0x8D0 DUP2 DUP6 PUSH2 0x7A5 JUMP JUMPDEST SWAP1 POP DUP2 DUP2 SUB PUSH1 0x20 DUP4 ADD MSTORE PUSH2 0x8E4 DUP2 DUP5 PUSH2 0x85C JUMP JUMPDEST SWAP1 POP SWAP4 SWAP3 POP POP POP JUMP JUMPDEST PUSH0 DUP3 DUP3 MSTORE PUSH1 0x20 DUP3 ADD SWAP1 POP SWAP3 SWAP2 POP POP JUMP JUMPDEST PUSH32 0x53656E6420455448000000000000000000000000000000000000000000000000 PUSH0 DUP3 ADD MSTORE POP JUMP JUMPDEST PUSH0 PUSH2 0x931 PUSH1 0x8 DUP4 PUSH2 0x8ED JUMP JUMPDEST SWAP2 POP PUSH2 0x93C DUP3 PUSH2 0x8FD JUMP JUMPDEST PUSH1 0x20 DUP3 ADD SWAP1 POP SWAP2 SWAP1 POP JUMP JUMPDEST PUSH0 PUSH1 0x20 DUP3 ADD SWAP1 POP DUP2 DUP2 SUB PUSH0 DUP4 ADD MSTORE PUSH2 0x95E DUP2 PUSH2 0x925 JUMP JUMPDEST SWAP1 POP SWAP2 SWAP1 POP JUMP JUMPDEST PUSH32 0x4E487B7100000000000000000000000000000000000000000000000000000000 PUSH0 MSTORE PUSH1 0x11 PUSH1 0x4 MSTORE PUSH1 0x24 PUSH0 REVERT JUMPDEST PUSH0 PUSH2 0x99C DUP3 PUSH2 0x617 JUMP JUMPDEST SWAP2 POP PUSH2 0x9A7 DUP4 PUSH2 0x617 JUMP JUMPDEST SWAP3 POP DUP3 DUP3 ADD SWAP1 POP DUP1 DUP3 GT ISZERO PUSH2 0x9BF JUMPI PUSH2 0x9BE PUSH2 0x965 JUMP JUMPDEST JUMPDEST SWAP3 SWAP2 POP POP JUMP JUMPDEST PUSH32 0x4E487B7100000000000000000000000000000000000000000000000000000000 PUSH0 MSTORE PUSH1 0x41 PUSH1 0x4 MSTORE PUSH1 0x24 PUSH0 REVERT JUMPDEST PUSH32 0x4E487B7100000000000000000000000000000000000000000000000000000000 PUSH0 MSTORE PUSH1 0x32 PUSH1 0x4 MSTORE PUSH1 0x24 PUSH0 REVERT INVALID LOG2 PUSH5 0x6970667358 0x22 SLT KECCAK256 GASLIMIT 0xBD PUSH14 0x249739EBFFCE41A2055AE8978263 BLOBHASH 0xD7 LOG3 AND 0xB7 DUP2 0xC4 LOG1 SWAP1 PUSH12 0x3247169A4C64736F6C634300 ADDMOD 0x21 STOP CALLER "
		},
		"gasEstimates": {
			"creation": {
				"codeDepositCost": "529000",
				"executionCost": "560",
				"totalCost": "529560"
			},
			"external": {
				"addValue()": "infinite",
				"balances(address)": "2824",
				"getSortedOwnersAndBalances()": "infinite",
				"owners(uint256)": "4921"
			}
		},
		"methodIdentifiers": {
			"addValue()": "040f0aee",
			"balances(address)": "27e235e3",
			"getSortedOwnersAndBalances()": "f9518723",
			"owners(uint256)": "025e7c27"
		}
	},
	"abi": [
		{
			"inputs": [],
			"name": "addValue",
			"outputs": [],
			"stateMutability": "payable",
			"type": "function"
		},
		{
			"inputs": [
				{
					"internalType": "address",
					"name": "",
					"type": "address"
				}
			],
			"name": "balances",
			"outputs": [
				{
					"internalType": "uint256",
					"name": "",
					"type": "uint256"
				}
			],
			"stateMutability": "view",
			"type": "function"
		},
		{
			"inputs": [],
			"name": "getSortedOwnersAndBalances",
			"outputs": [
				{
					"internalType": "address[]",
					"name": "",
					"type": "address[]"
				},
				{
					"internalType": "uint256[]",
					"name": "",
					"type": "uint256[]"
				}
			],
			"stateMutability": "view",
			"type": "function"
		},
		{
			"inputs": [
				{
					"internalType": "uint256",
					"name": "",
					"type": "uint256"
				}
			],
			"name": "owners",
			"outputs": [
				{
					"internalType": "address",
					"name": "",
					"type": "address"
				}
			],
			"stateMutability": "view",
			"type": "function"
		}
	]
}