{
	"data": {
		"bytecode": {
			"linkReferences": {},
			"object": "6080604052348015600e575f5ffd5b5061010f8061001c5f395ff3fe6080604052348015600e575f5ffd5b50600436106026575f3560e01c8063031396a314602a575b5f5ffd5b60306044565b604051603b919060c2565b60405180910390f35b5f5f5f9054906101000a900460ff16905090565b7f4e487b71000000000000000000000000000000000000000000000000000000005f52602160045260245ffd5b6007811060935760926058565b5b50565b5f81905060a1826085565b919050565b5f60ae826096565b9050919050565b60bc8160a6565b82525050565b5f60208201905060d35f83018460b5565b9291505056fea2646970667358221220445c3cd1efd1878204c5cbca2c310ab8823f8d942df5e21a5133f9384c9256ed64736f6c634300081f0033",
			"opcodes": "PUSH1 0x80 PUSH1 0x40 MSTORE CALLVALUE DUP1 ISZERO PUSH1 0xE JUMPI PUSH0 PUSH0 REVERT JUMPDEST POP PUSH2 0x10F DUP1 PUSH2 0x1C PUSH0 CODECOPY PUSH0 RETURN INVALID PUSH1 0x80 PUSH1 0x40 MSTORE CALLVALUE DUP1 ISZERO PUSH1 0xE JUMPI PUSH0 PUSH0 REVERT JUMPDEST POP PUSH1 0x4 CALLDATASIZE LT PUSH1 0x26 JUMPI PUSH0 CALLDATALOAD PUSH1 0xE0 SHR DUP1 PUSH4 0x31396A3 EQ PUSH1 0x2A JUMPI JUMPDEST PUSH0 PUSH0 REVERT JUMPDEST PUSH1 0x30 PUSH1 0x44 JUMP JUMPDEST PUSH1 0x40 MLOAD PUSH1 0x3B SWAP2 SWAP1 PUSH1 0xC2 JUMP JUMPDEST PUSH1 0x40 MLOAD DUP1 SWAP2 SUB SWAP1 RETURN JUMPDEST PUSH0 PUSH0 PUSH0 SWAP1 SLOAD SWAP1 PUSH2 0x100 EXP SWAP1 DIV PUSH1 0xFF AND SWAP1 POP SWAP1 JUMP JUMPDEST PUSH32 0x4E487B7100000000000000000000000000000000000000000000000000000000 PUSH0 MSTORE PUSH1 0x21 PUSH1 0x4 MSTORE PUSH1 0x24 PUSH0 REVERT JUMPDEST PUSH1 0x7 DUP2 LT PUSH1 0x93 JUMPI PUSH1 0x92 PUSH1 0x58 JUMP JUMPDEST JUMPDEST POP JUMP JUMPDEST PUSH0 DUP2 SWAP1 POP PUSH1 0xA1 DUP3 PUSH1 0x85 JUMP JUMPDEST SWAP2 SWAP1 POP JUMP JUMPDEST PUSH0 PUSH1 0xAE DUP3 PUSH1 0x96 JUMP JUMPDEST SWAP1 POP SWAP2 SWAP1 POP JUMP JUMPDEST PUSH1 0xBC DUP2 PUSH1 0xA6 JUMP JUMPDEST DUP3 MSTORE POP POP JUMP JUMPDEST PUSH0 PUSH1 0x20 DUP3 ADD SWAP1 POP PUSH1 0xD3 PUSH0 DUP4 ADD DUP5 PUSH1 0xB5 JUMP JUMPDEST SWAP3 SWAP2 POP POP JUMP INVALID LOG2 PUSH5 0x6970667358 0x22 SLT KECCAK256 PREVRANDAO TLOAD EXTCODECOPY DATALOADN 0xEFD1 DUP8 DUP3 DIV 0xC5 0xCB 0xCA 0x2C BALANCE EXP 0xB8 DUP3 EXTCODEHASH DUP14 SWAP5 0x2D CREATE2 0xE2 BYTE MLOAD CALLER EXTDELEGATECALL CODESIZE 0x4C SWAP3 JUMP 0xED PUSH5 0x736F6C6343 STOP ADDMOD 0x1F STOP CALLER "
		},
		"gasEstimates": {
			"creation": {
				"codeDepositCost": "54200",
				"executionCost": "103",
				"totalCost": "54303"
			},
			"external": {
				"getcar()": "2538"
			}
		},
		"methodIdentifiers": {
			"getcar()": "031396a3"
		}
	},
	"abi": [
		{
			"inputs": [],
			"name": "getcar",
			"outputs": [
				{
					"internalType": "enum Car_.Car_Type",
					"name": "",
					"type": "uint8"
				}
			],
			"stateMutability": "view",
			"type": "function"
		}
	]
}