{
	"data": {
		"bytecode": {
			"linkReferences": {},
			"object": "6080604052348015600e575f5ffd5b506101d58061001c5f395ff3fe608060405234801561000f575f5ffd5b506004361061003f575f3560e01c806367cb61b614610043578063694ebe4f14610061578063843f72581461006b575b5f5ffd5b61004b610089565b6040516100589190610155565b60405180910390f35b61006961009d565b005b6100736100c8565b6040516100809190610186565b60405180910390f35b5f5f5f9054906101000a900460ff16905090565b60025f5f6101000a81548160ff021916908360028111156100c1576100c06100e2565b5b0217905550565b5f600160028111156100dd576100dc6100e2565b5b905090565b7f4e487b71000000000000000000000000000000000000000000000000000000005f52602160045260245ffd5b600381106101205761011f6100e2565b5b50565b5f8190506101308261010f565b919050565b5f61013f82610123565b9050919050565b61014f81610135565b82525050565b5f6020820190506101685f830184610146565b92915050565b5f819050919050565b6101808161016e565b82525050565b5f6020820190506101995f830184610177565b9291505056fea26469706673582212208eb33689f41bec19af3e829229a949f76f5f385c620502c388934f16fce62bd364736f6c634300081f0033",
			"opcodes": "PUSH1 0x80 PUSH1 0x40 MSTORE CALLVALUE DUP1 ISZERO PUSH1 0xE JUMPI PUSH0 PUSH0 REVERT JUMPDEST POP PUSH2 0x1D5 DUP1 PUSH2 0x1C PUSH0 CODECOPY PUSH0 RETURN INVALID PUSH1 0x80 PUSH1 0x40 MSTORE CALLVALUE DUP1 ISZERO PUSH2 0xF JUMPI PUSH0 PUSH0 REVERT JUMPDEST POP PUSH1 0x4 CALLDATASIZE LT PUSH2 0x3F JUMPI PUSH0 CALLDATALOAD PUSH1 0xE0 SHR DUP1 PUSH4 0x67CB61B6 EQ PUSH2 0x43 JUMPI DUP1 PUSH4 0x694EBE4F EQ PUSH2 0x61 JUMPI DUP1 PUSH4 0x843F7258 EQ PUSH2 0x6B JUMPI JUMPDEST PUSH0 PUSH0 REVERT JUMPDEST PUSH2 0x4B PUSH2 0x89 JUMP JUMPDEST PUSH1 0x40 MLOAD PUSH2 0x58 SWAP2 SWAP1 PUSH2 0x155 JUMP JUMPDEST PUSH1 0x40 MLOAD DUP1 SWAP2 SUB SWAP1 RETURN JUMPDEST PUSH2 0x69 PUSH2 0x9D JUMP JUMPDEST STOP JUMPDEST PUSH2 0x73 PUSH2 0xC8 JUMP JUMPDEST PUSH1 0x40 MLOAD PUSH2 0x80 SWAP2 SWAP1 PUSH2 0x186 JUMP JUMPDEST PUSH1 0x40 MLOAD DUP1 SWAP2 SUB SWAP1 RETURN JUMPDEST PUSH0 PUSH0 PUSH0 SWAP1 SLOAD SWAP1 PUSH2 0x100 EXP SWAP1 DIV PUSH1 0xFF AND SWAP1 POP SWAP1 JUMP JUMPDEST PUSH1 0x2 PUSH0 PUSH0 PUSH2 0x100 EXP DUP2 SLOAD DUP2 PUSH1 0xFF MUL NOT AND SWAP1 DUP4 PUSH1 0x2 DUP2 GT ISZERO PUSH2 0xC1 JUMPI PUSH2 0xC0 PUSH2 0xE2 JUMP JUMPDEST JUMPDEST MUL OR SWAP1 SSTORE POP JUMP JUMPDEST PUSH0 PUSH1 0x1 PUSH1 0x2 DUP2 GT ISZERO PUSH2 0xDD JUMPI PUSH2 0xDC PUSH2 0xE2 JUMP JUMPDEST JUMPDEST SWAP1 POP SWAP1 JUMP JUMPDEST PUSH32 0x4E487B7100000000000000000000000000000000000000000000000000000000 PUSH0 MSTORE PUSH1 0x21 PUSH1 0x4 MSTORE PUSH1 0x24 PUSH0 REVERT JUMPDEST PUSH1 0x3 DUP2 LT PUSH2 0x120 JUMPI PUSH2 0x11F PUSH2 0xE2 JUMP JUMPDEST JUMPDEST POP JUMP JUMPDEST PUSH0 DUP2 SWAP1 POP PUSH2 0x130 DUP3 PUSH2 0x10F JUMP JUMPDEST SWAP2 SWAP1 POP JUMP JUMPDEST PUSH0 PUSH2 0x13F DUP3 PUSH2 0x123 JUMP JUMPDEST SWAP1 POP SWAP2 SWAP1 POP JUMP JUMPDEST PUSH2 0x14F DUP2 PUSH2 0x135 JUMP JUMPDEST DUP3 MSTORE POP POP JUMP JUMPDEST PUSH0 PUSH1 0x20 DUP3 ADD SWAP1 POP PUSH2 0x168 PUSH0 DUP4 ADD DUP5 PUSH2 0x146 JUMP JUMPDEST SWAP3 SWAP2 POP POP JUMP JUMPDEST PUSH0 DUP2 SWAP1 POP SWAP2 SWAP1 POP JUMP JUMPDEST PUSH2 0x180 DUP2 PUSH2 0x16E JUMP JUMPDEST DUP3 MSTORE POP POP JUMP JUMPDEST PUSH0 PUSH1 0x20 DUP3 ADD SWAP1 POP PUSH2 0x199 PUSH0 DUP4 ADD DUP5 PUSH2 0x177 JUMP JUMPDEST SWAP3 SWAP2 POP POP JUMP INVALID LOG2 PUSH5 0x6970667358 0x22 SLT KECCAK256 DUP15 0xB3 CALLDATASIZE DUP10 DELEGATECALL SHL EOFCREATE 0x19 0xAF RETURNDATACOPY DUP3 SWAP3 0x29 0xA9 BLOBHASH 0xF7 PUSH16 0x5F385C620502C388934F16FCE62BD364 PUSH20 0x6F6C634300081F00330000000000000000000000 "
		},
		"gasEstimates": {
			"creation": {
				"codeDepositCost": "93800",
				"executionCost": "139",
				"totalCost": "93939"
			},
			"external": {
				"getChoice()": "2538",
				"getDefaultChoice()": "380",
				"setLarge()": "24428"
			}
		},
		"methodIdentifiers": {
			"getChoice()": "67cb61b6",
			"getDefaultChoice()": "843f7258",
			"setLarge()": "694ebe4f"
		}
	},
	"abi": [
		{
			"inputs": [],
			"name": "getChoice",
			"outputs": [
				{
					"internalType": "enum Enum_Demoi.FreshJuiceSize",
					"name": "",
					"type": "uint8"
				}
			],
			"stateMutability": "view",
			"type": "function"
		},
		{
			"inputs": [],
			"name": "getDefaultChoice",
			"outputs": [
				{
					"internalType": "uint256",
					"name": "",
					"type": "uint256"
				}
			],
			"stateMutability": "pure",
			"type": "function"
		},
		{
			"inputs": [],
			"name": "setLarge",
			"outputs": [],
			"stateMutability": "nonpayable",
			"type": "function"
		}
	]
}