{
	"data": {
		"bytecode": {
			"linkReferences": {},
			"object": "608060405234801561001057600080fd5b50610116806100206000396000f3fe6080604052348015600f57600080fd5b5060043610603c5760003560e01c806371050a82146041578063efa3153914606c578063f91b539a146088575b600080fd5b606a60048036036020811015605557600080fd5b810190808035906020019092919050505060b3565b005b607260bd565b6040518082815260200191505060405180910390f35b60b160048036036020811015609c57600080fd5b810190808035906020019092919050505060d6565b005b8060008190555050565b6000806001546000548160cc57fe5b0690508091505090565b806001819055505056fea264697066735822122045e8ebc815fab7cbcac08b957a6de26bc89ed85e46be5d768eac1a5cd3c86e7f64736f6c634300060c0033",
			"opcodes": "PUSH1 0x80 PUSH1 0x40 MSTORE CALLVALUE DUP1 ISZERO PUSH2 0x10 JUMPI PUSH1 0x0 DUP1 REVERT JUMPDEST POP PUSH2 0x116 DUP1 PUSH2 0x20 PUSH1 0x0 CODECOPY PUSH1 0x0 RETURN INVALID PUSH1 0x80 PUSH1 0x40 MSTORE CALLVALUE DUP1 ISZERO PUSH1 0xF JUMPI PUSH1 0x0 DUP1 REVERT JUMPDEST POP PUSH1 0x4 CALLDATASIZE LT PUSH1 0x3C JUMPI PUSH1 0x0 CALLDATALOAD PUSH1 0xE0 SHR DUP1 PUSH4 0x71050A82 EQ PUSH1 0x41 JUMPI DUP1 PUSH4 0xEFA31539 EQ PUSH1 0x6C JUMPI DUP1 PUSH4 0xF91B539A EQ PUSH1 0x88 JUMPI JUMPDEST PUSH1 0x0 DUP1 REVERT JUMPDEST PUSH1 0x6A PUSH1 0x4 DUP1 CALLDATASIZE SUB PUSH1 0x20 DUP2 LT ISZERO PUSH1 0x55 JUMPI PUSH1 0x0 DUP1 REVERT JUMPDEST DUP2 ADD SWAP1 DUP1 DUP1 CALLDATALOAD SWAP1 PUSH1 0x20 ADD SWAP1 SWAP3 SWAP2 SWAP1 POP POP POP PUSH1 0xB3 JUMP JUMPDEST STOP JUMPDEST PUSH1 0x72 PUSH1 0xBD JUMP JUMPDEST PUSH1 0x40 MLOAD DUP1 DUP3 DUP2 MSTORE PUSH1 0x20 ADD SWAP2 POP POP PUSH1 0x40 MLOAD DUP1 SWAP2 SUB SWAP1 RETURN JUMPDEST PUSH1 0xB1 PUSH1 0x4 DUP1 CALLDATASIZE SUB PUSH1 0x20 DUP2 LT ISZERO PUSH1 0x9C JUMPI PUSH1 0x0 DUP1 REVERT JUMPDEST DUP2 ADD SWAP1 DUP1 DUP1 CALLDATALOAD SWAP1 PUSH1 0x20 ADD SWAP1 SWAP3 SWAP2 SWAP1 POP POP POP PUSH1 0xD6 JUMP JUMPDEST STOP JUMPDEST DUP1 PUSH1 0x0 DUP2 SWAP1 SSTORE POP POP JUMP JUMPDEST PUSH1 0x0 DUP1 PUSH1 0x1 SLOAD PUSH1 0x0 SLOAD DUP2 PUSH1 0xCC JUMPI INVALID JUMPDEST MOD SWAP1 POP DUP1 SWAP2 POP POP SWAP1 JUMP JUMPDEST DUP1 PUSH1 0x1 DUP2 SWAP1 SSTORE POP POP JUMP INVALID LOG2 PUSH5 0x6970667358 0x22 SLT KECCAK256 GASLIMIT 0xE8 0xEB 0xC8 ISZERO STATICCALL 0xB7 0xCB 0xCA 0xC0 DUP12 SWAP6 PUSH27 0x6DE26BC89ED85E46BE5D768EAC1A5CD3C86E7F64736F6C63430006 0xC STOP CALLER "
		},
		"gasEstimates": {
			"creation": {
				"codeDepositCost": "55600",
				"executionCost": "105",
				"totalCost": "55705"
			},
			"external": {
				"Modulo()": "1851",
				"firstNoSet(uint256)": "20220",
				"secondNoSet(uint256)": "20264"
			}
		},
		"methodIdentifiers": {
			"Modulo()": "efa31539",
			"firstNoSet(uint256)": "71050a82",
			"secondNoSet(uint256)": "f91b539a"
		}
	},
	"abi": [
		{
			"inputs": [],
			"name": "Modulo",
			"outputs": [
				{
					"internalType": "uint256",
					"name": "",
					"type": "uint256"
				}
			],
			"stateMutability": "view",
			"type": "function"
		},
		{
			"inputs": [
				{
					"internalType": "uint256",
					"name": "x",
					"type": "uint256"
				}
			],
			"name": "firstNoSet",
			"outputs": [],
			"stateMutability": "nonpayable",
			"type": "function"
		},
		{
			"inputs": [
				{
					"internalType": "uint256",
					"name": "y",
					"type": "uint256"
				}
			],
			"name": "secondNoSet",
			"outputs": [],
			"stateMutability": "nonpayable",
			"type": "function"
		}
	]
}