{
	"data": {
		"bytecode": {
			"linkReferences": {},
			"object": "608060405234801561001057600080fd5b50336000806101000a81548173ffffffffffffffffffffffffffffffffffffffff021916908373ffffffffffffffffffffffffffffffffffffffff1602179055506109fe806100606000396000f3fe608060405234801561001057600080fd5b506004361061004c5760003560e01c806355448fe1146100515780638da5cb5b14610081578063b588bfad1461009f578063c88ac187146100bb575b600080fd5b61006b600480360381019061006691906103c7565b6100d7565b6040516100789190610484565b60405180910390f35b6100896101a8565b60405161009691906104b5565b60405180910390f35b6100b960048036038101906100b49190610605565b6101cc565b005b6100d560048036038101906100d091906103c7565b61021c565b005b6060600160008373ffffffffffffffffffffffffffffffffffffffff1673ffffffffffffffffffffffffffffffffffffffff16815260200190815260200160002080546101239061067d565b80601f016020809104026020016040519081016040528092919081815260200182805461014f9061067d565b801561019c5780601f106101715761010080835404028352916020019161019c565b820191906000526020600020905b81548152906001019060200180831161017f57829003601f168201915b50505050509050919050565b60008054906101000a900473ffffffffffffffffffffffffffffffffffffffff1681565b80600160003373ffffffffffffffffffffffffffffffffffffffff1673ffffffffffffffffffffffffffffffffffffffff16815260200190815260200160002090816102189190610864565b5050565b60008054906101000a900473ffffffffffffffffffffffffffffffffffffffff1673ffffffffffffffffffffffffffffffffffffffff163373ffffffffffffffffffffffffffffffffffffffff16146102aa576040517f08c379a00000000000000000000000000000000000000000000000000000000081526004016102a1906109a8565b60405180910390fd5b600160008273ffffffffffffffffffffffffffffffffffffffff1673ffffffffffffffffffffffffffffffffffffffff16815260200190815260200160002060006102f591906102f8565b50565b5080546103049061067d565b6000825580601f106103165750610335565b601f0160209004906000526020600020908101906103349190610338565b5b50565b5b80821115610351576000816000905550600101610339565b5090565b6000604051905090565b600080fd5b600080fd5b600073ffffffffffffffffffffffffffffffffffffffff82169050919050565b600061039482610369565b9050919050565b6103a481610389565b81146103af57600080fd5b50565b6000813590506103c18161039b565b92915050565b6000602082840312156103dd576103dc61035f565b5b60006103eb848285016103b2565b91505092915050565b600081519050919050565b600082825260208201905092915050565b60005b8381101561042e578082015181840152602081019050610413565b60008484015250505050565b6000601f19601f8301169050919050565b6000610456826103f4565b61046081856103ff565b9350610470818560208601610410565b6104798161043a565b840191505092915050565b6000602082019050818103600083015261049e818461044b565b905092915050565b6104af81610389565b82525050565b60006020820190506104ca60008301846104a6565b92915050565b600080fd5b600080fd5b7f4e487b7100000000000000000000000000000000000000000000000000000000600052604160045260246000fd5b6105128261043a565b810181811067ffffffffffffffff82111715610531576105306104da565b5b80604052505050565b6000610544610355565b90506105508282610509565b919050565b600067ffffffffffffffff8211156105705761056f6104da565b5b6105798261043a565b9050602081019050919050565b82818337600083830152505050565b60006105a86105a384610555565b61053a565b9050828152602081018484840111156105c4576105c36104d5565b5b6105cf848285610586565b509392505050565b600082601f8301126105ec576105eb6104d0565b5b81356105fc848260208601610595565b91505092915050565b60006020828403121561061b5761061a61035f565b5b600082013567ffffffffffffffff81111561063957610638610364565b5b610645848285016105d7565b91505092915050565b7f4e487b7100000000000000000000000000000000000000000000000000000000600052602260045260246000fd5b6000600282049050600182168061069557607f821691505b6020821081036106a8576106a761064e565b5b50919050565b60008190508160005260206000209050919050565b60006020601f8301049050919050565b600082821b905092915050565b6000600883026107107fffffffffffffffffffffffffffffffffffffffffffffffffffffffffffffffff826106d3565b61071a86836106d3565b95508019841693508086168417925050509392505050565b6000819050919050565b6000819050919050565b600061076161075c61075784610732565b61073c565b610732565b9050919050565b6000819050919050565b61077b83610746565b61078f61078782610768565b8484546106e0565b825550505050565b600090565b6107a4610797565b6107af818484610772565b505050565b5b818110156107d3576107c860008261079c565b6001810190506107b5565b5050565b601f821115610818576107e9816106ae565b6107f2846106c3565b81016020851015610801578190505b61081561080d856106c3565b8301826107b4565b50505b505050565b600082821c905092915050565b600061083b6000198460080261081d565b1980831691505092915050565b6000610854838361082a565b9150826002028217905092915050565b61086d826103f4565b67ffffffffffffffff811115610886576108856104da565b5b610890825461067d565b61089b8282856107d7565b600060209050601f8311600181146108ce57600084156108bc578287015190505b6108c68582610848565b86555061092e565b601f1984166108dc866106ae565b60005b82811015610904578489015182556001820191506020850194506020810190506108df565b86831015610921578489015161091d601f89168261082a565b8355505b6001600288020188555050505b505050505050565b7f4f6e6c7920746865206f776e65722063616e2064656c657465206d657373616760008201527f6573000000000000000000000000000000000000000000000000000000000000602082015250565b60006109926022836103ff565b915061099d82610936565b604082019050919050565b600060208201905081810360008301526109c181610985565b905091905056fea2646970667358221220e8cece5339c11cf670a583a11fad1eef52dbb4b6c68ce6d2d3f822971d30979e64736f6c63430008120033",
			"opcodes": "PUSH1 0x80 PUSH1 0x40 MSTORE CALLVALUE DUP1 ISZERO PUSH2 0x10 JUMPI PUSH1 0x0 DUP1 REVERT JUMPDEST POP CALLER PUSH1 0x0 DUP1 PUSH2 0x100 EXP DUP2 SLOAD DUP2 PUSH20 0xFFFFFFFFFFFFFFFFFFFFFFFFFFFFFFFFFFFFFFFF MUL NOT AND SWAP1 DUP4 PUSH20 0xFFFFFFFFFFFFFFFFFFFFFFFFFFFFFFFFFFFFFFFF AND MUL OR SWAP1 SSTORE POP PUSH2 0x9FE DUP1 PUSH2 0x60 PUSH1 0x0 CODECOPY PUSH1 0x0 RETURN INVALID PUSH1 0x80 PUSH1 0x40 MSTORE CALLVALUE DUP1 ISZERO PUSH2 0x10 JUMPI PUSH1 0x0 DUP1 REVERT JUMPDEST POP PUSH1 0x4 CALLDATASIZE LT PUSH2 0x4C JUMPI PUSH1 0x0 CALLDATALOAD PUSH1 0xE0 SHR DUP1 PUSH4 0x55448FE1 EQ PUSH2 0x51 JUMPI DUP1 PUSH4 0x8DA5CB5B EQ PUSH2 0x81 JUMPI DUP1 PUSH4 0xB588BFAD EQ PUSH2 0x9F JUMPI DUP1 PUSH4 0xC88AC187 EQ PUSH2 0xBB JUMPI JUMPDEST PUSH1 0x0 DUP1 REVERT JUMPDEST PUSH2 0x6B PUSH1 0x4 DUP1 CALLDATASIZE SUB DUP2 ADD SWAP1 PUSH2 0x66 SWAP2 SWAP1 PUSH2 0x3C7 JUMP JUMPDEST PUSH2 0xD7 JUMP JUMPDEST PUSH1 0x40 MLOAD PUSH2 0x78 SWAP2 SWAP1 PUSH2 0x484 JUMP JUMPDEST PUSH1 0x40 MLOAD DUP1 SWAP2 SUB SWAP1 RETURN JUMPDEST PUSH2 0x89 PUSH2 0x1A8 JUMP JUMPDEST PUSH1 0x40 MLOAD PUSH2 0x96 SWAP2 SWAP1 PUSH2 0x4B5 JUMP JUMPDEST PUSH1 0x40 MLOAD DUP1 SWAP2 SUB SWAP1 RETURN JUMPDEST PUSH2 0xB9 PUSH1 0x4 DUP1 CALLDATASIZE SUB DUP2 ADD SWAP1 PUSH2 0xB4 SWAP2 SWAP1 PUSH2 0x605 JUMP JUMPDEST PUSH2 0x1CC JUMP JUMPDEST STOP JUMPDEST PUSH2 0xD5 PUSH1 0x4 DUP1 CALLDATASIZE SUB DUP2 ADD SWAP1 PUSH2 0xD0 SWAP2 SWAP1 PUSH2 0x3C7 JUMP JUMPDEST PUSH2 0x21C JUMP JUMPDEST STOP JUMPDEST PUSH1 0x60 PUSH1 0x1 PUSH1 0x0 DUP4 PUSH20 0xFFFFFFFFFFFFFFFFFFFFFFFFFFFFFFFFFFFFFFFF AND PUSH20 0xFFFFFFFFFFFFFFFFFFFFFFFFFFFFFFFFFFFFFFFF AND DUP2 MSTORE PUSH1 0x20 ADD SWAP1 DUP2 MSTORE PUSH1 0x20 ADD PUSH1 0x0 KECCAK256 DUP1 SLOAD PUSH2 0x123 SWAP1 PUSH2 0x67D JUMP JUMPDEST DUP1 PUSH1 0x1F ADD PUSH1 0x20 DUP1 SWAP2 DIV MUL PUSH1 0x20 ADD PUSH1 0x40 MLOAD SWAP1 DUP2 ADD PUSH1 0x40 MSTORE DUP1 SWAP3 SWAP2 SWAP1 DUP2 DUP2 MSTORE PUSH1 0x20 ADD DUP3 DUP1 SLOAD PUSH2 0x14F SWAP1 PUSH2 0x67D JUMP JUMPDEST DUP1 ISZERO PUSH2 0x19C JUMPI DUP1 PUSH1 0x1F LT PUSH2 0x171 JUMPI PUSH2 0x100 DUP1 DUP4 SLOAD DIV MUL DUP4 MSTORE SWAP2 PUSH1 0x20 ADD SWAP2 PUSH2 0x19C JUMP JUMPDEST DUP3 ADD SWAP2 SWAP1 PUSH1 0x0 MSTORE PUSH1 0x20 PUSH1 0x0 KECCAK256 SWAP1 JUMPDEST DUP2 SLOAD DUP2 MSTORE SWAP1 PUSH1 0x1 ADD SWAP1 PUSH1 0x20 ADD DUP1 DUP4 GT PUSH2 0x17F JUMPI DUP3 SWAP1 SUB PUSH1 0x1F AND DUP3 ADD SWAP2 JUMPDEST POP POP POP POP POP SWAP1 POP SWAP2 SWAP1 POP JUMP JUMPDEST PUSH1 0x0 DUP1 SLOAD SWAP1 PUSH2 0x100 EXP SWAP1 DIV PUSH20 0xFFFFFFFFFFFFFFFFFFFFFFFFFFFFFFFFFFFFFFFF AND DUP2 JUMP JUMPDEST DUP1 PUSH1 0x1 PUSH1 0x0 CALLER PUSH20 0xFFFFFFFFFFFFFFFFFFFFFFFFFFFFFFFFFFFFFFFF AND PUSH20 0xFFFFFFFFFFFFFFFFFFFFFFFFFFFFFFFFFFFFFFFF AND DUP2 MSTORE PUSH1 0x20 ADD SWAP1 DUP2 MSTORE PUSH1 0x20 ADD PUSH1 0x0 KECCAK256 SWAP1 DUP2 PUSH2 0x218 SWAP2 SWAP1 PUSH2 0x864 JUMP JUMPDEST POP POP JUMP JUMPDEST PUSH1 0x0 DUP1 SLOAD SWAP1 PUSH2 0x100 EXP SWAP1 DIV PUSH20 0xFFFFFFFFFFFFFFFFFFFFFFFFFFFFFFFFFFFFFFFF AND PUSH20 0xFFFFFFFFFFFFFFFFFFFFFFFFFFFFFFFFFFFFFFFF AND CALLER PUSH20 0xFFFFFFFFFFFFFFFFFFFFFFFFFFFFFFFFFFFFFFFF AND EQ PUSH2 0x2AA JUMPI PUSH1 0x40 MLOAD PUSH32 0x8C379A000000000000000000000000000000000000000000000000000000000 DUP2 MSTORE PUSH1 0x4 ADD PUSH2 0x2A1 SWAP1 PUSH2 0x9A8 JUMP JUMPDEST PUSH1 0x40 MLOAD DUP1 SWAP2 SUB SWAP1 REVERT JUMPDEST PUSH1 0x1 PUSH1 0x0 DUP3 PUSH20 0xFFFFFFFFFFFFFFFFFFFFFFFFFFFFFFFFFFFFFFFF AND PUSH20 0xFFFFFFFFFFFFFFFFFFFFFFFFFFFFFFFFFFFFFFFF AND DUP2 MSTORE PUSH1 0x20 ADD SWAP1 DUP2 MSTORE PUSH1 0x20 ADD PUSH1 0x0 KECCAK256 PUSH1 0x0 PUSH2 0x2F5 SWAP2 SWAP1 PUSH2 0x2F8 JUMP JUMPDEST POP JUMP JUMPDEST POP DUP1 SLOAD PUSH2 0x304 SWAP1 PUSH2 0x67D JUMP JUMPDEST PUSH1 0x0 DUP3 SSTORE DUP1 PUSH1 0x1F LT PUSH2 0x316 JUMPI POP PUSH2 0x335 JUMP JUMPDEST PUSH1 0x1F ADD PUSH1 0x20 SWAP1 DIV SWAP1 PUSH1 0x0 MSTORE PUSH1 0x20 PUSH1 0x0 KECCAK256 SWAP1 DUP2 ADD SWAP1 PUSH2 0x334 SWAP2 SWAP1 PUSH2 0x338 JUMP JUMPDEST JUMPDEST POP JUMP JUMPDEST JUMPDEST DUP1 DUP3 GT ISZERO PUSH2 0x351 JUMPI PUSH1 0x0 DUP2 PUSH1 0x0 SWAP1 SSTORE POP PUSH1 0x1 ADD PUSH2 0x339 JUMP JUMPDEST POP SWAP1 JUMP JUMPDEST PUSH1 0x0 PUSH1 0x40 MLOAD SWAP1 POP SWAP1 JUMP JUMPDEST PUSH1 0x0 DUP1 REVERT JUMPDEST PUSH1 0x0 DUP1 REVERT JUMPDEST PUSH1 0x0 PUSH20 0xFFFFFFFFFFFFFFFFFFFFFFFFFFFFFFFFFFFFFFFF DUP3 AND SWAP1 POP SWAP2 SWAP1 POP JUMP JUMPDEST PUSH1 0x0 PUSH2 0x394 DUP3 PUSH2 0x369 JUMP JUMPDEST SWAP1 POP SWAP2 SWAP1 POP JUMP JUMPDEST PUSH2 0x3A4 DUP2 PUSH2 0x389 JUMP JUMPDEST DUP2 EQ PUSH2 0x3AF JUMPI PUSH1 0x0 DUP1 REVERT JUMPDEST POP JUMP JUMPDEST PUSH1 0x0 DUP2 CALLDATALOAD SWAP1 POP PUSH2 0x3C1 DUP2 PUSH2 0x39B JUMP JUMPDEST SWAP3 SWAP2 POP POP JUMP JUMPDEST PUSH1 0x0 PUSH1 0x20 DUP3 DUP5 SUB SLT ISZERO PUSH2 0x3DD JUMPI PUSH2 0x3DC PUSH2 0x35F JUMP JUMPDEST JUMPDEST PUSH1 0x0 PUSH2 0x3EB DUP5 DUP3 DUP6 ADD PUSH2 0x3B2 JUMP JUMPDEST SWAP2 POP POP SWAP3 SWAP2 POP POP JUMP JUMPDEST PUSH1 0x0 DUP2 MLOAD SWAP1 POP SWAP2 SWAP1 POP JUMP JUMPDEST PUSH1 0x0 DUP3 DUP3 MSTORE PUSH1 0x20 DUP3 ADD SWAP1 POP SWAP3 SWAP2 POP POP JUMP JUMPDEST PUSH1 0x0 JUMPDEST DUP4 DUP2 LT ISZERO PUSH2 0x42E JUMPI DUP1 DUP3 ADD MLOAD DUP2 DUP5 ADD MSTORE PUSH1 0x20 DUP2 ADD SWAP1 POP PUSH2 0x413 JUMP JUMPDEST PUSH1 0x0 DUP5 DUP5 ADD MSTORE POP POP POP POP JUMP JUMPDEST PUSH1 0x0 PUSH1 0x1F NOT PUSH1 0x1F DUP4 ADD AND SWAP1 POP SWAP2 SWAP1 POP JUMP JUMPDEST PUSH1 0x0 PUSH2 0x456 DUP3 PUSH2 0x3F4 JUMP JUMPDEST PUSH2 0x460 DUP2 DUP6 PUSH2 0x3FF JUMP JUMPDEST SWAP4 POP PUSH2 0x470 DUP2 DUP6 PUSH1 0x20 DUP7 ADD PUSH2 0x410 JUMP JUMPDEST PUSH2 0x479 DUP2 PUSH2 0x43A JUMP JUMPDEST DUP5 ADD SWAP2 POP POP SWAP3 SWAP2 POP POP JUMP JUMPDEST PUSH1 0x0 PUSH1 0x20 DUP3 ADD SWAP1 POP DUP2 DUP2 SUB PUSH1 0x0 DUP4 ADD MSTORE PUSH2 0x49E DUP2 DUP5 PUSH2 0x44B JUMP JUMPDEST SWAP1 POP SWAP3 SWAP2 POP POP JUMP JUMPDEST PUSH2 0x4AF DUP2 PUSH2 0x389 JUMP JUMPDEST DUP3 MSTORE POP POP JUMP JUMPDEST PUSH1 0x0 PUSH1 0x20 DUP3 ADD SWAP1 POP PUSH2 0x4CA PUSH1 0x0 DUP4 ADD DUP5 PUSH2 0x4A6 JUMP JUMPDEST SWAP3 SWAP2 POP POP JUMP JUMPDEST PUSH1 0x0 DUP1 REVERT JUMPDEST PUSH1 0x0 DUP1 REVERT JUMPDEST PUSH32 0x4E487B7100000000000000000000000000000000000000000000000000000000 PUSH1 0x0 MSTORE PUSH1 0x41 PUSH1 0x4 MSTORE PUSH1 0x24 PUSH1 0x0 REVERT JUMPDEST PUSH2 0x512 DUP3 PUSH2 0x43A JUMP JUMPDEST DUP2 ADD DUP2 DUP2 LT PUSH8 0xFFFFFFFFFFFFFFFF DUP3 GT OR ISZERO PUSH2 0x531 JUMPI PUSH2 0x530 PUSH2 0x4DA JUMP JUMPDEST JUMPDEST DUP1 PUSH1 0x40 MSTORE POP POP POP JUMP JUMPDEST PUSH1 0x0 PUSH2 0x544 PUSH2 0x355 JUMP JUMPDEST SWAP1 POP PUSH2 0x550 DUP3 DUP3 PUSH2 0x509 JUMP JUMPDEST SWAP2 SWAP1 POP JUMP JUMPDEST PUSH1 0x0 PUSH8 0xFFFFFFFFFFFFFFFF DUP3 GT ISZERO PUSH2 0x570 JUMPI PUSH2 0x56F PUSH2 0x4DA JUMP JUMPDEST JUMPDEST PUSH2 0x579 DUP3 PUSH2 0x43A JUMP JUMPDEST SWAP1 POP PUSH1 0x20 DUP2 ADD SWAP1 POP SWAP2 SWAP1 POP JUMP JUMPDEST DUP3 DUP2 DUP4 CALLDATACOPY PUSH1 0x0 DUP4 DUP4 ADD MSTORE POP POP POP JUMP JUMPDEST PUSH1 0x0 PUSH2 0x5A8 PUSH2 0x5A3 DUP5 PUSH2 0x555 JUMP JUMPDEST PUSH2 0x53A JUMP JUMPDEST SWAP1 POP DUP3 DUP2 MSTORE PUSH1 0x20 DUP2 ADD DUP5 DUP5 DUP5 ADD GT ISZERO PUSH2 0x5C4 JUMPI PUSH2 0x5C3 PUSH2 0x4D5 JUMP JUMPDEST JUMPDEST PUSH2 0x5CF DUP5 DUP3 DUP6 PUSH2 0x586 JUMP JUMPDEST POP SWAP4 SWAP3 POP POP POP JUMP JUMPDEST PUSH1 0x0 DUP3 PUSH1 0x1F DUP4 ADD SLT PUSH2 0x5EC JUMPI PUSH2 0x5EB PUSH2 0x4D0 JUMP JUMPDEST JUMPDEST DUP2 CALLDATALOAD PUSH2 0x5FC DUP5 DUP3 PUSH1 0x20 DUP7 ADD PUSH2 0x595 JUMP JUMPDEST SWAP2 POP POP SWAP3 SWAP2 POP POP JUMP JUMPDEST PUSH1 0x0 PUSH1 0x20 DUP3 DUP5 SUB SLT ISZERO PUSH2 0x61B JUMPI PUSH2 0x61A PUSH2 0x35F JUMP JUMPDEST JUMPDEST PUSH1 0x0 DUP3 ADD CALLDATALOAD PUSH8 0xFFFFFFFFFFFFFFFF DUP2 GT ISZERO PUSH2 0x639 JUMPI PUSH2 0x638 PUSH2 0x364 JUMP JUMPDEST JUMPDEST PUSH2 0x645 DUP5 DUP3 DUP6 ADD PUSH2 0x5D7 JUMP JUMPDEST SWAP2 POP POP SWAP3 SWAP2 POP POP JUMP JUMPDEST PUSH32 0x4E487B7100000000000000000000000000000000000000000000000000000000 PUSH1 0x0 MSTORE PUSH1 0x22 PUSH1 0x4 MSTORE PUSH1 0x24 PUSH1 0x0 REVERT JUMPDEST PUSH1 0x0 PUSH1 0x2 DUP3 DIV SWAP1 POP PUSH1 0x1 DUP3 AND DUP1 PUSH2 0x695 JUMPI PUSH1 0x7F DUP3 AND SWAP2 POP JUMPDEST PUSH1 0x20 DUP3 LT DUP2 SUB PUSH2 0x6A8 JUMPI PUSH2 0x6A7 PUSH2 0x64E JUMP JUMPDEST JUMPDEST POP SWAP2 SWAP1 POP JUMP JUMPDEST PUSH1 0x0 DUP2 SWAP1 POP DUP2 PUSH1 0x0 MSTORE PUSH1 0x20 PUSH1 0x0 KECCAK256 SWAP1 POP SWAP2 SWAP1 POP JUMP JUMPDEST PUSH1 0x0 PUSH1 0x20 PUSH1 0x1F DUP4 ADD DIV SWAP1 POP SWAP2 SWAP1 POP JUMP JUMPDEST PUSH1 0x0 DUP3 DUP3 SHL SWAP1 POP SWAP3 SWAP2 POP POP JUMP JUMPDEST PUSH1 0x0 PUSH1 0x8 DUP4 MUL PUSH2 0x710 PUSH32 0xFFFFFFFFFFFFFFFFFFFFFFFFFFFFFFFFFFFFFFFFFFFFFFFFFFFFFFFFFFFFFFFF DUP3 PUSH2 0x6D3 JUMP JUMPDEST PUSH2 0x71A DUP7 DUP4 PUSH2 0x6D3 JUMP JUMPDEST SWAP6 POP DUP1 NOT DUP5 AND SWAP4 POP DUP1 DUP7 AND DUP5 OR SWAP3 POP POP POP SWAP4 SWAP3 POP POP POP JUMP JUMPDEST PUSH1 0x0 DUP2 SWAP1 POP SWAP2 SWAP1 POP JUMP JUMPDEST PUSH1 0x0 DUP2 SWAP1 POP SWAP2 SWAP1 POP JUMP JUMPDEST PUSH1 0x0 PUSH2 0x761 PUSH2 0x75C PUSH2 0x757 DUP5 PUSH2 0x732 JUMP JUMPDEST PUSH2 0x73C JUMP JUMPDEST PUSH2 0x732 JUMP JUMPDEST SWAP1 POP SWAP2 SWAP1 POP JUMP JUMPDEST PUSH1 0x0 DUP2 SWAP1 POP SWAP2 SWAP1 POP JUMP JUMPDEST PUSH2 0x77B DUP4 PUSH2 0x746 JUMP JUMPDEST PUSH2 0x78F PUSH2 0x787 DUP3 PUSH2 0x768 JUMP JUMPDEST DUP5 DUP5 SLOAD PUSH2 0x6E0 JUMP JUMPDEST DUP3 SSTORE POP POP POP POP JUMP JUMPDEST PUSH1 0x0 SWAP1 JUMP JUMPDEST PUSH2 0x7A4 PUSH2 0x797 JUMP JUMPDEST PUSH2 0x7AF DUP2 DUP5 DUP5 PUSH2 0x772 JUMP JUMPDEST POP POP POP JUMP JUMPDEST JUMPDEST DUP2 DUP2 LT ISZERO PUSH2 0x7D3 JUMPI PUSH2 0x7C8 PUSH1 0x0 DUP3 PUSH2 0x79C JUMP JUMPDEST PUSH1 0x1 DUP2 ADD SWAP1 POP PUSH2 0x7B5 JUMP JUMPDEST POP POP JUMP JUMPDEST PUSH1 0x1F DUP3 GT ISZERO PUSH2 0x818 JUMPI PUSH2 0x7E9 DUP2 PUSH2 0x6AE JUMP JUMPDEST PUSH2 0x7F2 DUP5 PUSH2 0x6C3 JUMP JUMPDEST DUP2 ADD PUSH1 0x20 DUP6 LT ISZERO PUSH2 0x801 JUMPI DUP2 SWAP1 POP JUMPDEST PUSH2 0x815 PUSH2 0x80D DUP6 PUSH2 0x6C3 JUMP JUMPDEST DUP4 ADD DUP3 PUSH2 0x7B4 JUMP JUMPDEST POP POP JUMPDEST POP POP POP JUMP JUMPDEST PUSH1 0x0 DUP3 DUP3 SHR SWAP1 POP SWAP3 SWAP2 POP POP JUMP JUMPDEST PUSH1 0x0 PUSH2 0x83B PUSH1 0x0 NOT DUP5 PUSH1 0x8 MUL PUSH2 0x81D JUMP JUMPDEST NOT DUP1 DUP4 AND SWAP2 POP POP SWAP3 SWAP2 POP POP JUMP JUMPDEST PUSH1 0x0 PUSH2 0x854 DUP4 DUP4 PUSH2 0x82A JUMP JUMPDEST SWAP2 POP DUP3 PUSH1 0x2 MUL DUP3 OR SWAP1 POP SWAP3 SWAP2 POP POP JUMP JUMPDEST PUSH2 0x86D DUP3 PUSH2 0x3F4 JUMP JUMPDEST PUSH8 0xFFFFFFFFFFFFFFFF DUP2 GT ISZERO PUSH2 0x886 JUMPI PUSH2 0x885 PUSH2 0x4DA JUMP JUMPDEST JUMPDEST PUSH2 0x890 DUP3 SLOAD PUSH2 0x67D JUMP JUMPDEST PUSH2 0x89B DUP3 DUP3 DUP6 PUSH2 0x7D7 JUMP JUMPDEST PUSH1 0x0 PUSH1 0x20 SWAP1 POP PUSH1 0x1F DUP4 GT PUSH1 0x1 DUP2 EQ PUSH2 0x8CE JUMPI PUSH1 0x0 DUP5 ISZERO PUSH2 0x8BC JUMPI DUP3 DUP8 ADD MLOAD SWAP1 POP JUMPDEST PUSH2 0x8C6 DUP6 DUP3 PUSH2 0x848 JUMP JUMPDEST DUP7 SSTORE POP PUSH2 0x92E JUMP JUMPDEST PUSH1 0x1F NOT DUP5 AND PUSH2 0x8DC DUP7 PUSH2 0x6AE JUMP JUMPDEST PUSH1 0x0 JUMPDEST DUP3 DUP2 LT ISZERO PUSH2 0x904 JUMPI DUP5 DUP10 ADD MLOAD DUP3 SSTORE PUSH1 0x1 DUP3 ADD SWAP2 POP PUSH1 0x20 DUP6 ADD SWAP5 POP PUSH1 0x20 DUP2 ADD SWAP1 POP PUSH2 0x8DF JUMP JUMPDEST DUP7 DUP4 LT ISZERO PUSH2 0x921 JUMPI DUP5 DUP10 ADD MLOAD PUSH2 0x91D PUSH1 0x1F DUP10 AND DUP3 PUSH2 0x82A JUMP JUMPDEST DUP4 SSTORE POP JUMPDEST PUSH1 0x1 PUSH1 0x2 DUP9 MUL ADD DUP9 SSTORE POP POP POP JUMPDEST POP POP POP POP POP POP JUMP JUMPDEST PUSH32 0x4F6E6C7920746865206F776E65722063616E2064656C657465206D6573736167 PUSH1 0x0 DUP3 ADD MSTORE PUSH32 0x6573000000000000000000000000000000000000000000000000000000000000 PUSH1 0x20 DUP3 ADD MSTORE POP JUMP JUMPDEST PUSH1 0x0 PUSH2 0x992 PUSH1 0x22 DUP4 PUSH2 0x3FF JUMP JUMPDEST SWAP2 POP PUSH2 0x99D DUP3 PUSH2 0x936 JUMP JUMPDEST PUSH1 0x40 DUP3 ADD SWAP1 POP SWAP2 SWAP1 POP JUMP JUMPDEST PUSH1 0x0 PUSH1 0x20 DUP3 ADD SWAP1 POP DUP2 DUP2 SUB PUSH1 0x0 DUP4 ADD MSTORE PUSH2 0x9C1 DUP2 PUSH2 0x985 JUMP JUMPDEST SWAP1 POP SWAP2 SWAP1 POP JUMP INVALID LOG2 PUSH5 0x6970667358 0x22 SLT KECCAK256 0xE8 0xCE 0xCE MSTORE8 CODECOPY 0xC1 SHR 0xF6 PUSH17 0xA583A11FAD1EEF52DBB4B6C68CE6D2D3F8 0x22 SWAP8 SAR ADDRESS SWAP8 SWAP15 PUSH5 0x736F6C6343 STOP ADDMOD SLT STOP CALLER "
		},
		"gasEstimates": {
			"creation": {
				"codeDepositCost": "511600",
				"executionCost": "24809",
				"totalCost": "536409"
			},
			"external": {
				"deleteMessage(address)": "infinite",
				"getMessage(address)": "infinite",
				"owner()": "2511",
				"writeMessage(string)": "infinite"
			}
		},
		"methodIdentifiers": {
			"deleteMessage(address)": "c88ac187",
			"getMessage(address)": "55448fe1",
			"owner()": "8da5cb5b",
			"writeMessage(string)": "b588bfad"
		}
	},
	"abi": [
		{
			"inputs": [],
			"stateMutability": "nonpayable",
			"type": "constructor"
		},
		{
			"inputs": [
				{
					"internalType": "address",
					"name": "_user",
					"type": "address"
				}
			],
			"name": "deleteMessage",
			"outputs": [],
			"stateMutability": "nonpayable",
			"type": "function"
		},
		{
			"inputs": [
				{
					"internalType": "address",
					"name": "_user",
					"type": "address"
				}
			],
			"name": "getMessage",
			"outputs": [
				{
					"internalType": "string",
					"name": "",
					"type": "string"
				}
			],
			"stateMutability": "view",
			"type": "function"
		},
		{
			"inputs": [],
			"name": "owner",
			"outputs": [
				{
					"internalType": "address",
					"name": "",
					"type": "address"
				}
			],
			"stateMutability": "view",
			"type": "function"
		},
		{
			"inputs": [
				{
					"internalType": "string",
					"name": "_msg",
					"type": "string"
				}
			],
			"name": "writeMessage",
			"outputs": [],
			"stateMutability": "nonpayable",
			"type": "function"
		}
	]
}