{
	"data": {
		"bytecode": {
			"linkReferences": {},
			"object": "60806040526040518060400160405280600781526020017f4d616e6167657200000000000000000000000000000000000000000000000000815250600290816200004a9190620002d9565b503480156200005857600080fd5b50620003c0565b600081519050919050565b7f4e487b7100000000000000000000000000000000000000000000000000000000600052604160045260246000fd5b7f4e487b7100000000000000000000000000000000000000000000000000000000600052602260045260246000fd5b60006002820490506001821680620000e157607f821691505b602082108103620000f757620000f662000099565b5b50919050565b60008190508160005260206000209050919050565b60006020601f8301049050919050565b600082821b905092915050565b600060088302620001617fffffffffffffffffffffffffffffffffffffffffffffffffffffffffffffffff8262000122565b6200016d868362000122565b95508019841693508086168417925050509392505050565b6000819050919050565b6000819050919050565b6000620001ba620001b4620001ae8462000185565b6200018f565b62000185565b9050919050565b6000819050919050565b620001d68362000199565b620001ee620001e582620001c1565b8484546200012f565b825550505050565b600090565b62000205620001f6565b62000212818484620001cb565b505050565b5b818110156200023a576200022e600082620001fb565b60018101905062000218565b5050565b601f82111562000289576200025381620000fd565b6200025e8462000112565b810160208510156200026e578190505b620002866200027d8562000112565b83018262000217565b50505b505050565b600082821c905092915050565b6000620002ae600019846008026200028e565b1980831691505092915050565b6000620002c983836200029b565b9150826002028217905092915050565b620002e4826200005f565b67ffffffffffffffff8111156200030057620002ff6200006a565b5b6200030c8254620000c8565b620003198282856200023e565b600060209050601f8311600181146200035157600084156200033c578287015190505b620003488582620002bb565b865550620003b8565b601f1984166200036186620000fd565b60005b828110156200038b5784890151825560018201915060208501945060208101905062000364565b86831015620003ab5784890151620003a7601f8916826200029b565b8355505b6001600288020188555050505b505050505050565b61096f80620003d06000396000f3fe608060405234801561001057600080fd5b50600436106100575760003560e01c80630397b6521461005c57806306fdde031461007a57806355f736d214610098578063a2892c6f146100b4578063a613ba25146100d2575b600080fd5b6100646100f2565b6040516100719190610378565b60405180910390f35b6100826100f8565b60405161008f9190610423565b60405180910390f35b6100b260048036038101906100ad91906105ba565b610186565b005b6100bc6101a1565b6040516100c99190610423565b60405180910390f35b6100da61022f565b6040516100e993929190610616565b60405180910390f35b60015481565b600080546101059061068a565b80601f01602080910402602001604051908101604052809291908181526020018280546101319061068a565b801561017e5780601f106101535761010080835404028352916020019161017e565b820191906000526020600020905b81548152906001019060200180831161016157829003601f168201915b505050505081565b81600090816101959190610867565b50806001819055505050565b600280546101ae9061068a565b80601f01602080910402602001604051908101604052809291908181526020018280546101da9061068a565b80156102275780601f106101fc57610100808354040283529160200191610227565b820191906000526020600020905b81548152906001019060200180831161020a57829003601f168201915b505050505081565b606060006060600060015460028280546102489061068a565b80601f01602080910402602001604051908101604052809291908181526020018280546102749061068a565b80156102c15780601f10610296576101008083540402835291602001916102c1565b820191906000526020600020905b8154815290600101906020018083116102a457829003601f168201915b505050505092508080546102d49061068a565b80601f01602080910402602001604051908101604052809291908181526020018280546103009061068a565b801561034d5780601f106103225761010080835404028352916020019161034d565b820191906000526020600020905b81548152906001019060200180831161033057829003601f168201915b50505050509050925092509250909192565b6000819050919050565b6103728161035f565b82525050565b600060208201905061038d6000830184610369565b92915050565b600081519050919050565b600082825260208201905092915050565b60005b838110156103cd5780820151818401526020810190506103b2565b60008484015250505050565b6000601f19601f8301169050919050565b60006103f582610393565b6103ff818561039e565b935061040f8185602086016103af565b610418816103d9565b840191505092915050565b6000602082019050818103600083015261043d81846103ea565b905092915050565b6000604051905090565b600080fd5b600080fd5b600080fd5b600080fd5b7f4e487b7100000000000000000000000000000000000000000000000000000000600052604160045260246000fd5b61049b826103d9565b810181811067ffffffffffffffff821117156104ba576104b9610463565b5b80604052505050565b60006104cd610445565b90506104d98282610492565b919050565b600067ffffffffffffffff8211156104f9576104f8610463565b5b610502826103d9565b9050602081019050919050565b82818337600083830152505050565b600061053161052c846104de565b6104c3565b90508281526020810184848401111561054d5761054c61045e565b5b61055884828561050f565b509392505050565b600082601f83011261057557610574610459565b5b813561058584826020860161051e565b91505092915050565b6105978161035f565b81146105a257600080fd5b50565b6000813590506105b48161058e565b92915050565b600080604083850312156105d1576105d061044f565b5b600083013567ffffffffffffffff8111156105ef576105ee610454565b5b6105fb85828601610560565b925050602061060c858286016105a5565b9150509250929050565b6000606082019050818103600083015261063081866103ea565b905061063f6020830185610369565b818103604083015261065181846103ea565b9050949350505050565b7f4e487b7100000000000000000000000000000000000000000000000000000000600052602260045260246000fd5b600060028204905060018216806106a257607f821691505b6020821081036106b5576106b461065b565b5b50919050565b60008190508160005260206000209050919050565b60006020601f8301049050919050565b600082821b905092915050565b60006008830261071d7fffffffffffffffffffffffffffffffffffffffffffffffffffffffffffffffff826106e0565b61072786836106e0565b95508019841693508086168417925050509392505050565b6000819050919050565b600061076461075f61075a8461035f565b61073f565b61035f565b9050919050565b6000819050919050565b61077e83610749565b61079261078a8261076b565b8484546106ed565b825550505050565b600090565b6107a761079a565b6107b2818484610775565b505050565b5b818110156107d6576107cb60008261079f565b6001810190506107b8565b5050565b601f82111561081b576107ec816106bb565b6107f5846106d0565b81016020851015610804578190505b610818610810856106d0565b8301826107b7565b50505b505050565b600082821c905092915050565b600061083e60001984600802610820565b1980831691505092915050565b6000610857838361082d565b9150826002028217905092915050565b61087082610393565b67ffffffffffffffff81111561088957610888610463565b5b610893825461068a565b61089e8282856107da565b600060209050601f8311600181146108d157600084156108bf578287015190505b6108c9858261084b565b865550610931565b601f1984166108df866106bb565b60005b82811015610907578489015182556001820191506020850194506020810190506108e2565b868310156109245784890151610920601f89168261082d565b8355505b6001600288020188555050505b50505050505056fea2646970667358221220f9a5d2f55c8681b6f1184827c43006c4cbb5e373a5316c18c3a2fdfa6868693b64736f6c63430008120033",
			"opcodes": "PUSH1 0x80 PUSH1 0x40 MSTORE PUSH1 0x40 MLOAD DUP1 PUSH1 0x40 ADD PUSH1 0x40 MSTORE DUP1 PUSH1 0x7 DUP2 MSTORE PUSH1 0x20 ADD PUSH32 0x4D616E6167657200000000000000000000000000000000000000000000000000 DUP2 MSTORE POP PUSH1 0x2 SWAP1 DUP2 PUSH3 0x4A SWAP2 SWAP1 PUSH3 0x2D9 JUMP JUMPDEST POP CALLVALUE DUP1 ISZERO PUSH3 0x58 JUMPI PUSH1 0x0 DUP1 REVERT JUMPDEST POP PUSH3 0x3C0 JUMP JUMPDEST PUSH1 0x0 DUP2 MLOAD SWAP1 POP SWAP2 SWAP1 POP JUMP JUMPDEST PUSH32 0x4E487B7100000000000000000000000000000000000000000000000000000000 PUSH1 0x0 MSTORE PUSH1 0x41 PUSH1 0x4 MSTORE PUSH1 0x24 PUSH1 0x0 REVERT JUMPDEST PUSH32 0x4E487B7100000000000000000000000000000000000000000000000000000000 PUSH1 0x0 MSTORE PUSH1 0x22 PUSH1 0x4 MSTORE PUSH1 0x24 PUSH1 0x0 REVERT JUMPDEST PUSH1 0x0 PUSH1 0x2 DUP3 DIV SWAP1 POP PUSH1 0x1 DUP3 AND DUP1 PUSH3 0xE1 JUMPI PUSH1 0x7F DUP3 AND SWAP2 POP JUMPDEST PUSH1 0x20 DUP3 LT DUP2 SUB PUSH3 0xF7 JUMPI PUSH3 0xF6 PUSH3 0x99 JUMP JUMPDEST JUMPDEST POP SWAP2 SWAP1 POP JUMP JUMPDEST PUSH1 0x0 DUP2 SWAP1 POP DUP2 PUSH1 0x0 MSTORE PUSH1 0x20 PUSH1 0x0 KECCAK256 SWAP1 POP SWAP2 SWAP1 POP JUMP JUMPDEST PUSH1 0x0 PUSH1 0x20 PUSH1 0x1F DUP4 ADD DIV SWAP1 POP SWAP2 SWAP1 POP JUMP JUMPDEST PUSH1 0x0 DUP3 DUP3 SHL SWAP1 POP SWAP3 SWAP2 POP POP JUMP JUMPDEST PUSH1 0x0 PUSH1 0x8 DUP4 MUL PUSH3 0x161 PUSH32 0xFFFFFFFFFFFFFFFFFFFFFFFFFFFFFFFFFFFFFFFFFFFFFFFFFFFFFFFFFFFFFFFF DUP3 PUSH3 0x122 JUMP JUMPDEST PUSH3 0x16D DUP7 DUP4 PUSH3 0x122 JUMP JUMPDEST SWAP6 POP DUP1 NOT DUP5 AND SWAP4 POP DUP1 DUP7 AND DUP5 OR SWAP3 POP POP POP SWAP4 SWAP3 POP POP POP JUMP JUMPDEST PUSH1 0x0 DUP2 SWAP1 POP SWAP2 SWAP1 POP JUMP JUMPDEST PUSH1 0x0 DUP2 SWAP1 POP SWAP2 SWAP1 POP JUMP JUMPDEST PUSH1 0x0 PUSH3 0x1BA PUSH3 0x1B4 PUSH3 0x1AE DUP5 PUSH3 0x185 JUMP JUMPDEST PUSH3 0x18F JUMP JUMPDEST PUSH3 0x185 JUMP JUMPDEST SWAP1 POP SWAP2 SWAP1 POP JUMP JUMPDEST PUSH1 0x0 DUP2 SWAP1 POP SWAP2 SWAP1 POP JUMP JUMPDEST PUSH3 0x1D6 DUP4 PUSH3 0x199 JUMP JUMPDEST PUSH3 0x1EE PUSH3 0x1E5 DUP3 PUSH3 0x1C1 JUMP JUMPDEST DUP5 DUP5 SLOAD PUSH3 0x12F JUMP JUMPDEST DUP3 SSTORE POP POP POP POP JUMP JUMPDEST PUSH1 0x0 SWAP1 JUMP JUMPDEST PUSH3 0x205 PUSH3 0x1F6 JUMP JUMPDEST PUSH3 0x212 DUP2 DUP5 DUP5 PUSH3 0x1CB JUMP JUMPDEST POP POP POP JUMP JUMPDEST JUMPDEST DUP2 DUP2 LT ISZERO PUSH3 0x23A JUMPI PUSH3 0x22E PUSH1 0x0 DUP3 PUSH3 0x1FB JUMP JUMPDEST PUSH1 0x1 DUP2 ADD SWAP1 POP PUSH3 0x218 JUMP JUMPDEST POP POP JUMP JUMPDEST PUSH1 0x1F DUP3 GT ISZERO PUSH3 0x289 JUMPI PUSH3 0x253 DUP2 PUSH3 0xFD JUMP JUMPDEST PUSH3 0x25E DUP5 PUSH3 0x112 JUMP JUMPDEST DUP2 ADD PUSH1 0x20 DUP6 LT ISZERO PUSH3 0x26E JUMPI DUP2 SWAP1 POP JUMPDEST PUSH3 0x286 PUSH3 0x27D DUP6 PUSH3 0x112 JUMP JUMPDEST DUP4 ADD DUP3 PUSH3 0x217 JUMP JUMPDEST POP POP JUMPDEST POP POP POP JUMP JUMPDEST PUSH1 0x0 DUP3 DUP3 SHR SWAP1 POP SWAP3 SWAP2 POP POP JUMP JUMPDEST PUSH1 0x0 PUSH3 0x2AE PUSH1 0x0 NOT DUP5 PUSH1 0x8 MUL PUSH3 0x28E JUMP JUMPDEST NOT DUP1 DUP4 AND SWAP2 POP POP SWAP3 SWAP2 POP POP JUMP JUMPDEST PUSH1 0x0 PUSH3 0x2C9 DUP4 DUP4 PUSH3 0x29B JUMP JUMPDEST SWAP2 POP DUP3 PUSH1 0x2 MUL DUP3 OR SWAP1 POP SWAP3 SWAP2 POP POP JUMP JUMPDEST PUSH3 0x2E4 DUP3 PUSH3 0x5F JUMP JUMPDEST PUSH8 0xFFFFFFFFFFFFFFFF DUP2 GT ISZERO PUSH3 0x300 JUMPI PUSH3 0x2FF PUSH3 0x6A JUMP JUMPDEST JUMPDEST PUSH3 0x30C DUP3 SLOAD PUSH3 0xC8 JUMP JUMPDEST PUSH3 0x319 DUP3 DUP3 DUP6 PUSH3 0x23E JUMP JUMPDEST PUSH1 0x0 PUSH1 0x20 SWAP1 POP PUSH1 0x1F DUP4 GT PUSH1 0x1 DUP2 EQ PUSH3 0x351 JUMPI PUSH1 0x0 DUP5 ISZERO PUSH3 0x33C JUMPI DUP3 DUP8 ADD MLOAD SWAP1 POP JUMPDEST PUSH3 0x348 DUP6 DUP3 PUSH3 0x2BB JUMP JUMPDEST DUP7 SSTORE POP PUSH3 0x3B8 JUMP JUMPDEST PUSH1 0x1F NOT DUP5 AND PUSH3 0x361 DUP7 PUSH3 0xFD JUMP JUMPDEST PUSH1 0x0 JUMPDEST DUP3 DUP2 LT ISZERO PUSH3 0x38B JUMPI DUP5 DUP10 ADD MLOAD DUP3 SSTORE PUSH1 0x1 DUP3 ADD SWAP2 POP PUSH1 0x20 DUP6 ADD SWAP5 POP PUSH1 0x20 DUP2 ADD SWAP1 POP PUSH3 0x364 JUMP JUMPDEST DUP7 DUP4 LT ISZERO PUSH3 0x3AB JUMPI DUP5 DUP10 ADD MLOAD PUSH3 0x3A7 PUSH1 0x1F DUP10 AND DUP3 PUSH3 0x29B JUMP JUMPDEST DUP4 SSTORE POP JUMPDEST PUSH1 0x1 PUSH1 0x2 DUP9 MUL ADD DUP9 SSTORE POP POP POP JUMPDEST POP POP POP POP POP POP JUMP JUMPDEST PUSH2 0x96F DUP1 PUSH3 0x3D0 PUSH1 0x0 CODECOPY PUSH1 0x0 RETURN INVALID PUSH1 0x80 PUSH1 0x40 MSTORE CALLVALUE DUP1 ISZERO PUSH2 0x10 JUMPI PUSH1 0x0 DUP1 REVERT JUMPDEST POP PUSH1 0x4 CALLDATASIZE LT PUSH2 0x57 JUMPI PUSH1 0x0 CALLDATALOAD PUSH1 0xE0 SHR DUP1 PUSH4 0x397B652 EQ PUSH2 0x5C JUMPI DUP1 PUSH4 0x6FDDE03 EQ PUSH2 0x7A JUMPI DUP1 PUSH4 0x55F736D2 EQ PUSH2 0x98 JUMPI DUP1 PUSH4 0xA2892C6F EQ PUSH2 0xB4 JUMPI DUP1 PUSH4 0xA613BA25 EQ PUSH2 0xD2 JUMPI JUMPDEST PUSH1 0x0 DUP1 REVERT JUMPDEST PUSH2 0x64 PUSH2 0xF2 JUMP JUMPDEST PUSH1 0x40 MLOAD PUSH2 0x71 SWAP2 SWAP1 PUSH2 0x378 JUMP JUMPDEST PUSH1 0x40 MLOAD DUP1 SWAP2 SUB SWAP1 RETURN JUMPDEST PUSH2 0x82 PUSH2 0xF8 JUMP JUMPDEST PUSH1 0x40 MLOAD PUSH2 0x8F SWAP2 SWAP1 PUSH2 0x423 JUMP JUMPDEST PUSH1 0x40 MLOAD DUP1 SWAP2 SUB SWAP1 RETURN JUMPDEST PUSH2 0xB2 PUSH1 0x4 DUP1 CALLDATASIZE SUB DUP2 ADD SWAP1 PUSH2 0xAD SWAP2 SWAP1 PUSH2 0x5BA JUMP JUMPDEST PUSH2 0x186 JUMP JUMPDEST STOP JUMPDEST PUSH2 0xBC PUSH2 0x1A1 JUMP JUMPDEST PUSH1 0x40 MLOAD PUSH2 0xC9 SWAP2 SWAP1 PUSH2 0x423 JUMP JUMPDEST PUSH1 0x40 MLOAD DUP1 SWAP2 SUB SWAP1 RETURN JUMPDEST PUSH2 0xDA PUSH2 0x22F JUMP JUMPDEST PUSH1 0x40 MLOAD PUSH2 0xE9 SWAP4 SWAP3 SWAP2 SWAP1 PUSH2 0x616 JUMP JUMPDEST PUSH1 0x40 MLOAD DUP1 SWAP2 SUB SWAP1 RETURN JUMPDEST PUSH1 0x1 SLOAD DUP2 JUMP JUMPDEST PUSH1 0x0 DUP1 SLOAD PUSH2 0x105 SWAP1 PUSH2 0x68A JUMP JUMPDEST DUP1 PUSH1 0x1F ADD PUSH1 0x20 DUP1 SWAP2 DIV MUL PUSH1 0x20 ADD PUSH1 0x40 MLOAD SWAP1 DUP2 ADD PUSH1 0x40 MSTORE DUP1 SWAP3 SWAP2 SWAP1 DUP2 DUP2 MSTORE PUSH1 0x20 ADD DUP3 DUP1 SLOAD PUSH2 0x131 SWAP1 PUSH2 0x68A JUMP JUMPDEST DUP1 ISZERO PUSH2 0x17E JUMPI DUP1 PUSH1 0x1F LT PUSH2 0x153 JUMPI PUSH2 0x100 DUP1 DUP4 SLOAD DIV MUL DUP4 MSTORE SWAP2 PUSH1 0x20 ADD SWAP2 PUSH2 0x17E JUMP JUMPDEST DUP3 ADD SWAP2 SWAP1 PUSH1 0x0 MSTORE PUSH1 0x20 PUSH1 0x0 KECCAK256 SWAP1 JUMPDEST DUP2 SLOAD DUP2 MSTORE SWAP1 PUSH1 0x1 ADD SWAP1 PUSH1 0x20 ADD DUP1 DUP4 GT PUSH2 0x161 JUMPI DUP3 SWAP1 SUB PUSH1 0x1F AND DUP3 ADD SWAP2 JUMPDEST POP POP POP POP POP DUP2 JUMP JUMPDEST DUP2 PUSH1 0x0 SWAP1 DUP2 PUSH2 0x195 SWAP2 SWAP1 PUSH2 0x867 JUMP JUMPDEST POP DUP1 PUSH1 0x1 DUP2 SWAP1 SSTORE POP POP POP JUMP JUMPDEST PUSH1 0x2 DUP1 SLOAD PUSH2 0x1AE SWAP1 PUSH2 0x68A JUMP JUMPDEST DUP1 PUSH1 0x1F ADD PUSH1 0x20 DUP1 SWAP2 DIV MUL PUSH1 0x20 ADD PUSH1 0x40 MLOAD SWAP1 DUP2 ADD PUSH1 0x40 MSTORE DUP1 SWAP3 SWAP2 SWAP1 DUP2 DUP2 MSTORE PUSH1 0x20 ADD DUP3 DUP1 SLOAD PUSH2 0x1DA SWAP1 PUSH2 0x68A JUMP JUMPDEST DUP1 ISZERO PUSH2 0x227 JUMPI DUP1 PUSH1 0x1F LT PUSH2 0x1FC JUMPI PUSH2 0x100 DUP1 DUP4 SLOAD DIV MUL DUP4 MSTORE SWAP2 PUSH1 0x20 ADD SWAP2 PUSH2 0x227 JUMP JUMPDEST DUP3 ADD SWAP2 SWAP1 PUSH1 0x0 MSTORE PUSH1 0x20 PUSH1 0x0 KECCAK256 SWAP1 JUMPDEST DUP2 SLOAD DUP2 MSTORE SWAP1 PUSH1 0x1 ADD SWAP1 PUSH1 0x20 ADD DUP1 DUP4 GT PUSH2 0x20A JUMPI DUP3 SWAP1 SUB PUSH1 0x1F AND DUP3 ADD SWAP2 JUMPDEST POP POP POP POP POP DUP2 JUMP JUMPDEST PUSH1 0x60 PUSH1 0x0 PUSH1 0x60 PUSH1 0x0 PUSH1 0x1 SLOAD PUSH1 0x2 DUP3 DUP1 SLOAD PUSH2 0x248 SWAP1 PUSH2 0x68A JUMP JUMPDEST DUP1 PUSH1 0x1F ADD PUSH1 0x20 DUP1 SWAP2 DIV MUL PUSH1 0x20 ADD PUSH1 0x40 MLOAD SWAP1 DUP2 ADD PUSH1 0x40 MSTORE DUP1 SWAP3 SWAP2 SWAP1 DUP2 DUP2 MSTORE PUSH1 0x20 ADD DUP3 DUP1 SLOAD PUSH2 0x274 SWAP1 PUSH2 0x68A JUMP JUMPDEST DUP1 ISZERO PUSH2 0x2C1 JUMPI DUP1 PUSH1 0x1F LT PUSH2 0x296 JUMPI PUSH2 0x100 DUP1 DUP4 SLOAD DIV MUL DUP4 MSTORE SWAP2 PUSH1 0x20 ADD SWAP2 PUSH2 0x2C1 JUMP JUMPDEST DUP3 ADD SWAP2 SWAP1 PUSH1 0x0 MSTORE PUSH1 0x20 PUSH1 0x0 KECCAK256 SWAP1 JUMPDEST DUP2 SLOAD DUP2 MSTORE SWAP1 PUSH1 0x1 ADD SWAP1 PUSH1 0x20 ADD DUP1 DUP4 GT PUSH2 0x2A4 JUMPI DUP3 SWAP1 SUB PUSH1 0x1F AND DUP3 ADD SWAP2 JUMPDEST POP POP POP POP POP SWAP3 POP DUP1 DUP1 SLOAD PUSH2 0x2D4 SWAP1 PUSH2 0x68A JUMP JUMPDEST DUP1 PUSH1 0x1F ADD PUSH1 0x20 DUP1 SWAP2 DIV MUL PUSH1 0x20 ADD PUSH1 0x40 MLOAD SWAP1 DUP2 ADD PUSH1 0x40 MSTORE DUP1 SWAP3 SWAP2 SWAP1 DUP2 DUP2 MSTORE PUSH1 0x20 ADD DUP3 DUP1 SLOAD PUSH2 0x300 SWAP1 PUSH2 0x68A JUMP JUMPDEST DUP1 ISZERO PUSH2 0x34D JUMPI DUP1 PUSH1 0x1F LT PUSH2 0x322 JUMPI PUSH2 0x100 DUP1 DUP4 SLOAD DIV MUL DUP4 MSTORE SWAP2 PUSH1 0x20 ADD SWAP2 PUSH2 0x34D JUMP JUMPDEST DUP3 ADD SWAP2 SWAP1 PUSH1 0x0 MSTORE PUSH1 0x20 PUSH1 0x0 KECCAK256 SWAP1 JUMPDEST DUP2 SLOAD DUP2 MSTORE SWAP1 PUSH1 0x1 ADD SWAP1 PUSH1 0x20 ADD DUP1 DUP4 GT PUSH2 0x330 JUMPI DUP3 SWAP1 SUB PUSH1 0x1F AND DUP3 ADD SWAP2 JUMPDEST POP POP POP POP POP SWAP1 POP SWAP3 POP SWAP3 POP SWAP3 POP SWAP1 SWAP2 SWAP3 JUMP JUMPDEST PUSH1 0x0 DUP2 SWAP1 POP SWAP2 SWAP1 POP JUMP JUMPDEST PUSH2 0x372 DUP2 PUSH2 0x35F JUMP JUMPDEST DUP3 MSTORE POP POP JUMP JUMPDEST PUSH1 0x0 PUSH1 0x20 DUP3 ADD SWAP1 POP PUSH2 0x38D PUSH1 0x0 DUP4 ADD DUP5 PUSH2 0x369 JUMP JUMPDEST SWAP3 SWAP2 POP POP JUMP JUMPDEST PUSH1 0x0 DUP2 MLOAD SWAP1 POP SWAP2 SWAP1 POP JUMP JUMPDEST PUSH1 0x0 DUP3 DUP3 MSTORE PUSH1 0x20 DUP3 ADD SWAP1 POP SWAP3 SWAP2 POP POP JUMP JUMPDEST PUSH1 0x0 JUMPDEST DUP4 DUP2 LT ISZERO PUSH2 0x3CD JUMPI DUP1 DUP3 ADD MLOAD DUP2 DUP5 ADD MSTORE PUSH1 0x20 DUP2 ADD SWAP1 POP PUSH2 0x3B2 JUMP JUMPDEST PUSH1 0x0 DUP5 DUP5 ADD MSTORE POP POP POP POP JUMP JUMPDEST PUSH1 0x0 PUSH1 0x1F NOT PUSH1 0x1F DUP4 ADD AND SWAP1 POP SWAP2 SWAP1 POP JUMP JUMPDEST PUSH1 0x0 PUSH2 0x3F5 DUP3 PUSH2 0x393 JUMP JUMPDEST PUSH2 0x3FF DUP2 DUP6 PUSH2 0x39E JUMP JUMPDEST SWAP4 POP PUSH2 0x40F DUP2 DUP6 PUSH1 0x20 DUP7 ADD PUSH2 0x3AF JUMP JUMPDEST PUSH2 0x418 DUP2 PUSH2 0x3D9 JUMP JUMPDEST DUP5 ADD SWAP2 POP POP SWAP3 SWAP2 POP POP JUMP JUMPDEST PUSH1 0x0 PUSH1 0x20 DUP3 ADD SWAP1 POP DUP2 DUP2 SUB PUSH1 0x0 DUP4 ADD MSTORE PUSH2 0x43D DUP2 DUP5 PUSH2 0x3EA JUMP JUMPDEST SWAP1 POP SWAP3 SWAP2 POP POP JUMP JUMPDEST PUSH1 0x0 PUSH1 0x40 MLOAD SWAP1 POP SWAP1 JUMP JUMPDEST PUSH1 0x0 DUP1 REVERT JUMPDEST PUSH1 0x0 DUP1 REVERT JUMPDEST PUSH1 0x0 DUP1 REVERT JUMPDEST PUSH1 0x0 DUP1 REVERT JUMPDEST PUSH32 0x4E487B7100000000000000000000000000000000000000000000000000000000 PUSH1 0x0 MSTORE PUSH1 0x41 PUSH1 0x4 MSTORE PUSH1 0x24 PUSH1 0x0 REVERT JUMPDEST PUSH2 0x49B DUP3 PUSH2 0x3D9 JUMP JUMPDEST DUP2 ADD DUP2 DUP2 LT PUSH8 0xFFFFFFFFFFFFFFFF DUP3 GT OR ISZERO PUSH2 0x4BA JUMPI PUSH2 0x4B9 PUSH2 0x463 JUMP JUMPDEST JUMPDEST DUP1 PUSH1 0x40 MSTORE POP POP POP JUMP JUMPDEST PUSH1 0x0 PUSH2 0x4CD PUSH2 0x445 JUMP JUMPDEST SWAP1 POP PUSH2 0x4D9 DUP3 DUP3 PUSH2 0x492 JUMP JUMPDEST SWAP2 SWAP1 POP JUMP JUMPDEST PUSH1 0x0 PUSH8 0xFFFFFFFFFFFFFFFF DUP3 GT ISZERO PUSH2 0x4F9 JUMPI PUSH2 0x4F8 PUSH2 0x463 JUMP JUMPDEST JUMPDEST PUSH2 0x502 DUP3 PUSH2 0x3D9 JUMP JUMPDEST SWAP1 POP PUSH1 0x20 DUP2 ADD SWAP1 POP SWAP2 SWAP1 POP JUMP JUMPDEST DUP3 DUP2 DUP4 CALLDATACOPY PUSH1 0x0 DUP4 DUP4 ADD MSTORE POP POP POP JUMP JUMPDEST PUSH1 0x0 PUSH2 0x531 PUSH2 0x52C DUP5 PUSH2 0x4DE JUMP JUMPDEST PUSH2 0x4C3 JUMP JUMPDEST SWAP1 POP DUP3 DUP2 MSTORE PUSH1 0x20 DUP2 ADD DUP5 DUP5 DUP5 ADD GT ISZERO PUSH2 0x54D JUMPI PUSH2 0x54C PUSH2 0x45E JUMP JUMPDEST JUMPDEST PUSH2 0x558 DUP5 DUP3 DUP6 PUSH2 0x50F JUMP JUMPDEST POP SWAP4 SWAP3 POP POP POP JUMP JUMPDEST PUSH1 0x0 DUP3 PUSH1 0x1F DUP4 ADD SLT PUSH2 0x575 JUMPI PUSH2 0x574 PUSH2 0x459 JUMP JUMPDEST JUMPDEST DUP2 CALLDATALOAD PUSH2 0x585 DUP5 DUP3 PUSH1 0x20 DUP7 ADD PUSH2 0x51E JUMP JUMPDEST SWAP2 POP POP SWAP3 SWAP2 POP POP JUMP JUMPDEST PUSH2 0x597 DUP2 PUSH2 0x35F JUMP JUMPDEST DUP2 EQ PUSH2 0x5A2 JUMPI PUSH1 0x0 DUP1 REVERT JUMPDEST POP JUMP JUMPDEST PUSH1 0x0 DUP2 CALLDATALOAD SWAP1 POP PUSH2 0x5B4 DUP2 PUSH2 0x58E JUMP JUMPDEST SWAP3 SWAP2 POP POP JUMP JUMPDEST PUSH1 0x0 DUP1 PUSH1 0x40 DUP4 DUP6 SUB SLT ISZERO PUSH2 0x5D1 JUMPI PUSH2 0x5D0 PUSH2 0x44F JUMP JUMPDEST JUMPDEST PUSH1 0x0 DUP4 ADD CALLDATALOAD PUSH8 0xFFFFFFFFFFFFFFFF DUP2 GT ISZERO PUSH2 0x5EF JUMPI PUSH2 0x5EE PUSH2 0x454 JUMP JUMPDEST JUMPDEST PUSH2 0x5FB DUP6 DUP3 DUP7 ADD PUSH2 0x560 JUMP JUMPDEST SWAP3 POP POP PUSH1 0x20 PUSH2 0x60C DUP6 DUP3 DUP7 ADD PUSH2 0x5A5 JUMP JUMPDEST SWAP2 POP POP SWAP3 POP SWAP3 SWAP1 POP JUMP JUMPDEST PUSH1 0x0 PUSH1 0x60 DUP3 ADD SWAP1 POP DUP2 DUP2 SUB PUSH1 0x0 DUP4 ADD MSTORE PUSH2 0x630 DUP2 DUP7 PUSH2 0x3EA JUMP JUMPDEST SWAP1 POP PUSH2 0x63F PUSH1 0x20 DUP4 ADD DUP6 PUSH2 0x369 JUMP JUMPDEST DUP2 DUP2 SUB PUSH1 0x40 DUP4 ADD MSTORE PUSH2 0x651 DUP2 DUP5 PUSH2 0x3EA JUMP JUMPDEST SWAP1 POP SWAP5 SWAP4 POP POP POP POP JUMP JUMPDEST PUSH32 0x4E487B7100000000000000000000000000000000000000000000000000000000 PUSH1 0x0 MSTORE PUSH1 0x22 PUSH1 0x4 MSTORE PUSH1 0x24 PUSH1 0x0 REVERT JUMPDEST PUSH1 0x0 PUSH1 0x2 DUP3 DIV SWAP1 POP PUSH1 0x1 DUP3 AND DUP1 PUSH2 0x6A2 JUMPI PUSH1 0x7F DUP3 AND SWAP2 POP JUMPDEST PUSH1 0x20 DUP3 LT DUP2 SUB PUSH2 0x6B5 JUMPI PUSH2 0x6B4 PUSH2 0x65B JUMP JUMPDEST JUMPDEST POP SWAP2 SWAP1 POP JUMP JUMPDEST PUSH1 0x0 DUP2 SWAP1 POP DUP2 PUSH1 0x0 MSTORE PUSH1 0x20 PUSH1 0x0 KECCAK256 SWAP1 POP SWAP2 SWAP1 POP JUMP JUMPDEST PUSH1 0x0 PUSH1 0x20 PUSH1 0x1F DUP4 ADD DIV SWAP1 POP SWAP2 SWAP1 POP JUMP JUMPDEST PUSH1 0x0 DUP3 DUP3 SHL SWAP1 POP SWAP3 SWAP2 POP POP JUMP JUMPDEST PUSH1 0x0 PUSH1 0x8 DUP4 MUL PUSH2 0x71D PUSH32 0xFFFFFFFFFFFFFFFFFFFFFFFFFFFFFFFFFFFFFFFFFFFFFFFFFFFFFFFFFFFFFFFF DUP3 PUSH2 0x6E0 JUMP JUMPDEST PUSH2 0x727 DUP7 DUP4 PUSH2 0x6E0 JUMP JUMPDEST SWAP6 POP DUP1 NOT DUP5 AND SWAP4 POP DUP1 DUP7 AND DUP5 OR SWAP3 POP POP POP SWAP4 SWAP3 POP POP POP JUMP JUMPDEST PUSH1 0x0 DUP2 SWAP1 POP SWAP2 SWAP1 POP JUMP JUMPDEST PUSH1 0x0 PUSH2 0x764 PUSH2 0x75F PUSH2 0x75A DUP5 PUSH2 0x35F JUMP JUMPDEST PUSH2 0x73F JUMP JUMPDEST PUSH2 0x35F JUMP JUMPDEST SWAP1 POP SWAP2 SWAP1 POP JUMP JUMPDEST PUSH1 0x0 DUP2 SWAP1 POP SWAP2 SWAP1 POP JUMP JUMPDEST PUSH2 0x77E DUP4 PUSH2 0x749 JUMP JUMPDEST PUSH2 0x792 PUSH2 0x78A DUP3 PUSH2 0x76B JUMP JUMPDEST DUP5 DUP5 SLOAD PUSH2 0x6ED JUMP JUMPDEST DUP3 SSTORE POP POP POP POP JUMP JUMPDEST PUSH1 0x0 SWAP1 JUMP JUMPDEST PUSH2 0x7A7 PUSH2 0x79A JUMP JUMPDEST PUSH2 0x7B2 DUP2 DUP5 DUP5 PUSH2 0x775 JUMP JUMPDEST POP POP POP JUMP JUMPDEST JUMPDEST DUP2 DUP2 LT ISZERO PUSH2 0x7D6 JUMPI PUSH2 0x7CB PUSH1 0x0 DUP3 PUSH2 0x79F JUMP JUMPDEST PUSH1 0x1 DUP2 ADD SWAP1 POP PUSH2 0x7B8 JUMP JUMPDEST POP POP JUMP JUMPDEST PUSH1 0x1F DUP3 GT ISZERO PUSH2 0x81B JUMPI PUSH2 0x7EC DUP2 PUSH2 0x6BB JUMP JUMPDEST PUSH2 0x7F5 DUP5 PUSH2 0x6D0 JUMP JUMPDEST DUP2 ADD PUSH1 0x20 DUP6 LT ISZERO PUSH2 0x804 JUMPI DUP2 SWAP1 POP JUMPDEST PUSH2 0x818 PUSH2 0x810 DUP6 PUSH2 0x6D0 JUMP JUMPDEST DUP4 ADD DUP3 PUSH2 0x7B7 JUMP JUMPDEST POP POP JUMPDEST POP POP POP JUMP JUMPDEST PUSH1 0x0 DUP3 DUP3 SHR SWAP1 POP SWAP3 SWAP2 POP POP JUMP JUMPDEST PUSH1 0x0 PUSH2 0x83E PUSH1 0x0 NOT DUP5 PUSH1 0x8 MUL PUSH2 0x820 JUMP JUMPDEST NOT DUP1 DUP4 AND SWAP2 POP POP SWAP3 SWAP2 POP POP JUMP JUMPDEST PUSH1 0x0 PUSH2 0x857 DUP4 DUP4 PUSH2 0x82D JUMP JUMPDEST SWAP2 POP DUP3 PUSH1 0x2 MUL DUP3 OR SWAP1 POP SWAP3 SWAP2 POP POP JUMP JUMPDEST PUSH2 0x870 DUP3 PUSH2 0x393 JUMP JUMPDEST PUSH8 0xFFFFFFFFFFFFFFFF DUP2 GT ISZERO PUSH2 0x889 JUMPI PUSH2 0x888 PUSH2 0x463 JUMP JUMPDEST JUMPDEST PUSH2 0x893 DUP3 SLOAD PUSH2 0x68A JUMP JUMPDEST PUSH2 0x89E DUP3 DUP3 DUP6 PUSH2 0x7DA JUMP JUMPDEST PUSH1 0x0 PUSH1 0x20 SWAP1 POP PUSH1 0x1F DUP4 GT PUSH1 0x1 DUP2 EQ PUSH2 0x8D1 JUMPI PUSH1 0x0 DUP5 ISZERO PUSH2 0x8BF JUMPI DUP3 DUP8 ADD MLOAD SWAP1 POP JUMPDEST PUSH2 0x8C9 DUP6 DUP3 PUSH2 0x84B JUMP JUMPDEST DUP7 SSTORE POP PUSH2 0x931 JUMP JUMPDEST PUSH1 0x1F NOT DUP5 AND PUSH2 0x8DF DUP7 PUSH2 0x6BB JUMP JUMPDEST PUSH1 0x0 JUMPDEST DUP3 DUP2 LT ISZERO PUSH2 0x907 JUMPI DUP5 DUP10 ADD MLOAD DUP3 SSTORE PUSH1 0x1 DUP3 ADD SWAP2 POP PUSH1 0x20 DUP6 ADD SWAP5 POP PUSH1 0x20 DUP2 ADD SWAP1 POP PUSH2 0x8E2 JUMP JUMPDEST DUP7 DUP4 LT ISZERO PUSH2 0x924 JUMPI DUP5 DUP10 ADD MLOAD PUSH2 0x920 PUSH1 0x1F DUP10 AND DUP3 PUSH2 0x82D JUMP JUMPDEST DUP4 SSTORE POP JUMPDEST PUSH1 0x1 PUSH1 0x2 DUP9 MUL ADD DUP9 SSTORE POP POP POP JUMPDEST POP POP POP POP POP POP JUMP INVALID LOG2 PUSH5 0x6970667358 0x22 SLT KECCAK256 0xF9 0xA5 0xD2 CREATE2 0x5C DUP7 DUP2 0xB6 CALL XOR BASEFEE 0x27 0xC4 ADDRESS MOD 0xC4 0xCB 0xB5 0xE3 PUSH20 0xA5316C18C3A2FDFA6868693B64736F6C63430008 SLT STOP CALLER "
		},
		"gasEstimates": {
			"creation": {
				"codeDepositCost": "483000",
				"executionCost": "infinite",
				"totalCost": "infinite"
			},
			"external": {
				"job_role()": "infinite",
				"name()": "infinite",
				"print_detail()": "infinite",
				"salary()": "2407",
				"setEmp(string,uint256)": "infinite"
			}
		},
		"methodIdentifiers": {
			"job_role()": "a2892c6f",
			"name()": "06fdde03",
			"print_detail()": "a613ba25",
			"salary()": "0397b652",
			"setEmp(string,uint256)": "55f736d2"
		}
	},
	"abi": [
		{
			"inputs": [],
			"name": "job_role",
			"outputs": [
				{
					"internalType": "string",
					"name": "",
					"type": "string"
				}
			],
			"stateMutability": "view",
			"type": "function"
		},
		{
			"inputs": [],
			"name": "name",
			"outputs": [
				{
					"internalType": "string",
					"name": "",
					"type": "string"
				}
			],
			"stateMutability": "view",
			"type": "function"
		},
		{
			"inputs": [],
			"name": "print_detail",
			"outputs": [
				{
					"internalType": "string",
					"name": "",
					"type": "string"
				},
				{
					"internalType": "uint256",
					"name": "",
					"type": "uint256"
				},
				{
					"internalType": "string",
					"name": "",
					"type": "string"
				}
			],
			"stateMutability": "view",
			"type": "function"
		},
		{
			"inputs": [],
			"name": "salary",
			"outputs": [
				{
					"internalType": "uint256",
					"name": "",
					"type": "uint256"
				}
			],
			"stateMutability": "view",
			"type": "function"
		},
		{
			"inputs": [
				{
					"internalType": "string",
					"name": "_name",
					"type": "string"
				},
				{
					"internalType": "uint256",
					"name": "_salary",
					"type": "uint256"
				}
			],
			"name": "setEmp",
			"outputs": [],
			"stateMutability": "nonpayable",
			"type": "function"
		}
	]
}