{
	"data": {
		"bytecode": {
			"linkReferences": {},
			"object": "6080604052604051806101c00160405280600560ff168152602001600560ff168152602001600660ff168152602001600860ff168152602001600260ff168152602001600760ff168152602001600960ff168152602001600660ff168152602001600560ff168152602001600260ff168152602001602060ff168152602001600660ff168152602001602e60ff168152602001600860ff16815250600090600e6100aa9291906100bd565b503480156100b757600080fd5b5061012c565b8280548282559060005260206000209081019282156100fe579160200282015b828111156100fd578251829060ff169055916020019190600101906100dd565b5b50905061010b919061010f565b5090565b5b80821115610128576000816000905550600101610110565b5090565b6105b68061013b6000396000f3fe608060405234801561001057600080fd5b506004361061007d5760003560e01c8063b039e14b1161005b578063b039e14b146100c6578063eb5dfdfe146100e4578063fc56365814610102578063fe99d72b146101325761007d565b80631003e2d21461008257806340a053c71461009e57806381d73423146100a8575b600080fd5b61009c6004803603810190610097919061030c565b610162565b005b6100a661018e565b005b6100b06101b8565b6040516100bd9190610348565b60405180910390f35b6100ce610216565b6040516100db9190610421565b60405180910390f35b6100ec61026e565b6040516100f99190610348565b60405180910390f35b61011c6004803603810190610117919061030c565b61027a565b6040516101299190610348565b60405180910390f35b61014c6004803603810190610147919061030c565b6102ad565b6040516101599190610348565b60405180910390f35b600081908060018154018082558091505060019003906000526020600020016000909190919091505550565b60008054806101a05761019f610443565b5b60019003818190600052602060002001600090559055565b6000806000905060005b60008054905081101561020e57600081815481106101e3576101e2610472565b5b9060005260206000200154826101f991906104d0565b9150808061020690610504565b9150506101c2565b508091505090565b6060600080548060200260200160405190810160405280929190818152602001828054801561026457602002820191906000526020600020905b815481526020019060010190808311610250575b5050505050905090565b60008080549050905090565b60008060018361028a919061054c565b8154811061029b5761029a610472565b5b90600052602060002001549050919050565b600081815481106102bd57600080fd5b906000526020600020016000915090505481565b600080fd5b6000819050919050565b6102e9816102d6565b81146102f457600080fd5b50565b600081359050610306816102e0565b92915050565b600060208284031215610322576103216102d1565b5b6000610330848285016102f7565b91505092915050565b610342816102d6565b82525050565b600060208201905061035d6000830184610339565b92915050565b600081519050919050565b600082825260208201905092915050565b6000819050602082019050919050565b610398816102d6565b82525050565b60006103aa838361038f565b60208301905092915050565b6000602082019050919050565b60006103ce82610363565b6103d8818561036e565b93506103e38361037f565b8060005b838110156104145781516103fb888261039e565b9750610406836103b6565b9250506001810190506103e7565b5085935050505092915050565b6000602082019050818103600083015261043b81846103c3565b905092915050565b7f4e487b7100000000000000000000000000000000000000000000000000000000600052603160045260246000fd5b7f4e487b7100000000000000000000000000000000000000000000000000000000600052603260045260246000fd5b7f4e487b7100000000000000000000000000000000000000000000000000000000600052601160045260246000fd5b60006104db826102d6565b91506104e6836102d6565b92508282019050808211156104fe576104fd6104a1565b5b92915050565b600061050f826102d6565b91507fffffffffffffffffffffffffffffffffffffffffffffffffffffffffffffffff8203610541576105406104a1565b5b600182019050919050565b6000610557826102d6565b9150610562836102d6565b925082820390508181111561057a576105796104a1565b5b9291505056fea264697066735822122087be682c2eeef39c02d46161b86ad7ffb341487746cb28391ae0e1dd951d9ff964736f6c63430008120033",
			"opcodes": "PUSH1 0x80 PUSH1 0x40 MSTORE PUSH1 0x40 MLOAD DUP1 PUSH2 0x1C0 ADD PUSH1 0x40 MSTORE DUP1 PUSH1 0x5 PUSH1 0xFF AND DUP2 MSTORE PUSH1 0x20 ADD PUSH1 0x5 PUSH1 0xFF AND DUP2 MSTORE PUSH1 0x20 ADD PUSH1 0x6 PUSH1 0xFF AND DUP2 MSTORE PUSH1 0x20 ADD PUSH1 0x8 PUSH1 0xFF AND DUP2 MSTORE PUSH1 0x20 ADD PUSH1 0x2 PUSH1 0xFF AND DUP2 MSTORE PUSH1 0x20 ADD PUSH1 0x7 PUSH1 0xFF AND DUP2 MSTORE PUSH1 0x20 ADD PUSH1 0x9 PUSH1 0xFF AND DUP2 MSTORE PUSH1 0x20 ADD PUSH1 0x6 PUSH1 0xFF AND DUP2 MSTORE PUSH1 0x20 ADD PUSH1 0x5 PUSH1 0xFF AND DUP2 MSTORE PUSH1 0x20 ADD PUSH1 0x2 PUSH1 0xFF AND DUP2 MSTORE PUSH1 0x20 ADD PUSH1 0x20 PUSH1 0xFF AND DUP2 MSTORE PUSH1 0x20 ADD PUSH1 0x6 PUSH1 0xFF AND DUP2 MSTORE PUSH1 0x20 ADD PUSH1 0x2E PUSH1 0xFF AND DUP2 MSTORE PUSH1 0x20 ADD PUSH1 0x8 PUSH1 0xFF AND DUP2 MSTORE POP PUSH1 0x0 SWAP1 PUSH1 0xE PUSH2 0xAA SWAP3 SWAP2 SWAP1 PUSH2 0xBD JUMP JUMPDEST POP CALLVALUE DUP1 ISZERO PUSH2 0xB7 JUMPI PUSH1 0x0 DUP1 REVERT JUMPDEST POP PUSH2 0x12C JUMP JUMPDEST DUP3 DUP1 SLOAD DUP3 DUP3 SSTORE SWAP1 PUSH1 0x0 MSTORE PUSH1 0x20 PUSH1 0x0 KECCAK256 SWAP1 DUP2 ADD SWAP3 DUP3 ISZERO PUSH2 0xFE JUMPI SWAP2 PUSH1 0x20 MUL DUP3 ADD JUMPDEST DUP3 DUP2 GT ISZERO PUSH2 0xFD JUMPI DUP3 MLOAD DUP3 SWAP1 PUSH1 0xFF AND SWAP1 SSTORE SWAP2 PUSH1 0x20 ADD SWAP2 SWAP1 PUSH1 0x1 ADD SWAP1 PUSH2 0xDD JUMP JUMPDEST JUMPDEST POP SWAP1 POP PUSH2 0x10B SWAP2 SWAP1 PUSH2 0x10F JUMP JUMPDEST POP SWAP1 JUMP JUMPDEST JUMPDEST DUP1 DUP3 GT ISZERO PUSH2 0x128 JUMPI PUSH1 0x0 DUP2 PUSH1 0x0 SWAP1 SSTORE POP PUSH1 0x1 ADD PUSH2 0x110 JUMP JUMPDEST POP SWAP1 JUMP JUMPDEST PUSH2 0x5B6 DUP1 PUSH2 0x13B PUSH1 0x0 CODECOPY PUSH1 0x0 RETURN INVALID PUSH1 0x80 PUSH1 0x40 MSTORE CALLVALUE DUP1 ISZERO PUSH2 0x10 JUMPI PUSH1 0x0 DUP1 REVERT JUMPDEST POP PUSH1 0x4 CALLDATASIZE LT PUSH2 0x7D JUMPI PUSH1 0x0 CALLDATALOAD PUSH1 0xE0 SHR DUP1 PUSH4 0xB039E14B GT PUSH2 0x5B JUMPI DUP1 PUSH4 0xB039E14B EQ PUSH2 0xC6 JUMPI DUP1 PUSH4 0xEB5DFDFE EQ PUSH2 0xE4 JUMPI DUP1 PUSH4 0xFC563658 EQ PUSH2 0x102 JUMPI DUP1 PUSH4 0xFE99D72B EQ PUSH2 0x132 JUMPI PUSH2 0x7D JUMP JUMPDEST DUP1 PUSH4 0x1003E2D2 EQ PUSH2 0x82 JUMPI DUP1 PUSH4 0x40A053C7 EQ PUSH2 0x9E JUMPI DUP1 PUSH4 0x81D73423 EQ PUSH2 0xA8 JUMPI JUMPDEST PUSH1 0x0 DUP1 REVERT JUMPDEST PUSH2 0x9C PUSH1 0x4 DUP1 CALLDATASIZE SUB DUP2 ADD SWAP1 PUSH2 0x97 SWAP2 SWAP1 PUSH2 0x30C JUMP JUMPDEST PUSH2 0x162 JUMP JUMPDEST STOP JUMPDEST PUSH2 0xA6 PUSH2 0x18E JUMP JUMPDEST STOP JUMPDEST PUSH2 0xB0 PUSH2 0x1B8 JUMP JUMPDEST PUSH1 0x40 MLOAD PUSH2 0xBD SWAP2 SWAP1 PUSH2 0x348 JUMP JUMPDEST PUSH1 0x40 MLOAD DUP1 SWAP2 SUB SWAP1 RETURN JUMPDEST PUSH2 0xCE PUSH2 0x216 JUMP JUMPDEST PUSH1 0x40 MLOAD PUSH2 0xDB SWAP2 SWAP1 PUSH2 0x421 JUMP JUMPDEST PUSH1 0x40 MLOAD DUP1 SWAP2 SUB SWAP1 RETURN JUMPDEST PUSH2 0xEC PUSH2 0x26E JUMP JUMPDEST PUSH1 0x40 MLOAD PUSH2 0xF9 SWAP2 SWAP1 PUSH2 0x348 JUMP JUMPDEST PUSH1 0x40 MLOAD DUP1 SWAP2 SUB SWAP1 RETURN JUMPDEST PUSH2 0x11C PUSH1 0x4 DUP1 CALLDATASIZE SUB DUP2 ADD SWAP1 PUSH2 0x117 SWAP2 SWAP1 PUSH2 0x30C JUMP JUMPDEST PUSH2 0x27A JUMP JUMPDEST PUSH1 0x40 MLOAD PUSH2 0x129 SWAP2 SWAP1 PUSH2 0x348 JUMP JUMPDEST PUSH1 0x40 MLOAD DUP1 SWAP2 SUB SWAP1 RETURN JUMPDEST PUSH2 0x14C PUSH1 0x4 DUP1 CALLDATASIZE SUB DUP2 ADD SWAP1 PUSH2 0x147 SWAP2 SWAP1 PUSH2 0x30C JUMP JUMPDEST PUSH2 0x2AD JUMP JUMPDEST PUSH1 0x40 MLOAD PUSH2 0x159 SWAP2 SWAP1 PUSH2 0x348 JUMP JUMPDEST PUSH1 0x40 MLOAD DUP1 SWAP2 SUB SWAP1 RETURN JUMPDEST PUSH1 0x0 DUP2 SWAP1 DUP1 PUSH1 0x1 DUP2 SLOAD ADD DUP1 DUP3 SSTORE DUP1 SWAP2 POP POP PUSH1 0x1 SWAP1 SUB SWAP1 PUSH1 0x0 MSTORE PUSH1 0x20 PUSH1 0x0 KECCAK256 ADD PUSH1 0x0 SWAP1 SWAP2 SWAP1 SWAP2 SWAP1 SWAP2 POP SSTORE POP JUMP JUMPDEST PUSH1 0x0 DUP1 SLOAD DUP1 PUSH2 0x1A0 JUMPI PUSH2 0x19F PUSH2 0x443 JUMP JUMPDEST JUMPDEST PUSH1 0x1 SWAP1 SUB DUP2 DUP2 SWAP1 PUSH1 0x0 MSTORE PUSH1 0x20 PUSH1 0x0 KECCAK256 ADD PUSH1 0x0 SWAP1 SSTORE SWAP1 SSTORE JUMP JUMPDEST PUSH1 0x0 DUP1 PUSH1 0x0 SWAP1 POP PUSH1 0x0 JUMPDEST PUSH1 0x0 DUP1 SLOAD SWAP1 POP DUP2 LT ISZERO PUSH2 0x20E JUMPI PUSH1 0x0 DUP2 DUP2 SLOAD DUP2 LT PUSH2 0x1E3 JUMPI PUSH2 0x1E2 PUSH2 0x472 JUMP JUMPDEST JUMPDEST SWAP1 PUSH1 0x0 MSTORE PUSH1 0x20 PUSH1 0x0 KECCAK256 ADD SLOAD DUP3 PUSH2 0x1F9 SWAP2 SWAP1 PUSH2 0x4D0 JUMP JUMPDEST SWAP2 POP DUP1 DUP1 PUSH2 0x206 SWAP1 PUSH2 0x504 JUMP JUMPDEST SWAP2 POP POP PUSH2 0x1C2 JUMP JUMPDEST POP DUP1 SWAP2 POP POP SWAP1 JUMP JUMPDEST PUSH1 0x60 PUSH1 0x0 DUP1 SLOAD DUP1 PUSH1 0x20 MUL PUSH1 0x20 ADD PUSH1 0x40 MLOAD SWAP1 DUP2 ADD PUSH1 0x40 MSTORE DUP1 SWAP3 SWAP2 SWAP1 DUP2 DUP2 MSTORE PUSH1 0x20 ADD DUP3 DUP1 SLOAD DUP1 ISZERO PUSH2 0x264 JUMPI PUSH1 0x20 MUL DUP3 ADD SWAP2 SWAP1 PUSH1 0x0 MSTORE PUSH1 0x20 PUSH1 0x0 KECCAK256 SWAP1 JUMPDEST DUP2 SLOAD DUP2 MSTORE PUSH1 0x20 ADD SWAP1 PUSH1 0x1 ADD SWAP1 DUP1 DUP4 GT PUSH2 0x250 JUMPI JUMPDEST POP POP POP POP POP SWAP1 POP SWAP1 JUMP JUMPDEST PUSH1 0x0 DUP1 DUP1 SLOAD SWAP1 POP SWAP1 POP SWAP1 JUMP JUMPDEST PUSH1 0x0 DUP1 PUSH1 0x1 DUP4 PUSH2 0x28A SWAP2 SWAP1 PUSH2 0x54C JUMP JUMPDEST DUP2 SLOAD DUP2 LT PUSH2 0x29B JUMPI PUSH2 0x29A PUSH2 0x472 JUMP JUMPDEST JUMPDEST SWAP1 PUSH1 0x0 MSTORE PUSH1 0x20 PUSH1 0x0 KECCAK256 ADD SLOAD SWAP1 POP SWAP2 SWAP1 POP JUMP JUMPDEST PUSH1 0x0 DUP2 DUP2 SLOAD DUP2 LT PUSH2 0x2BD JUMPI PUSH1 0x0 DUP1 REVERT JUMPDEST SWAP1 PUSH1 0x0 MSTORE PUSH1 0x20 PUSH1 0x0 KECCAK256 ADD PUSH1 0x0 SWAP2 POP SWAP1 POP SLOAD DUP2 JUMP JUMPDEST PUSH1 0x0 DUP1 REVERT JUMPDEST PUSH1 0x0 DUP2 SWAP1 POP SWAP2 SWAP1 POP JUMP JUMPDEST PUSH2 0x2E9 DUP2 PUSH2 0x2D6 JUMP JUMPDEST DUP2 EQ PUSH2 0x2F4 JUMPI PUSH1 0x0 DUP1 REVERT JUMPDEST POP JUMP JUMPDEST PUSH1 0x0 DUP2 CALLDATALOAD SWAP1 POP PUSH2 0x306 DUP2 PUSH2 0x2E0 JUMP JUMPDEST SWAP3 SWAP2 POP POP JUMP JUMPDEST PUSH1 0x0 PUSH1 0x20 DUP3 DUP5 SUB SLT ISZERO PUSH2 0x322 JUMPI PUSH2 0x321 PUSH2 0x2D1 JUMP JUMPDEST JUMPDEST PUSH1 0x0 PUSH2 0x330 DUP5 DUP3 DUP6 ADD PUSH2 0x2F7 JUMP JUMPDEST SWAP2 POP POP SWAP3 SWAP2 POP POP JUMP JUMPDEST PUSH2 0x342 DUP2 PUSH2 0x2D6 JUMP JUMPDEST DUP3 MSTORE POP POP JUMP JUMPDEST PUSH1 0x0 PUSH1 0x20 DUP3 ADD SWAP1 POP PUSH2 0x35D PUSH1 0x0 DUP4 ADD DUP5 PUSH2 0x339 JUMP JUMPDEST SWAP3 SWAP2 POP POP JUMP JUMPDEST PUSH1 0x0 DUP2 MLOAD SWAP1 POP SWAP2 SWAP1 POP JUMP JUMPDEST PUSH1 0x0 DUP3 DUP3 MSTORE PUSH1 0x20 DUP3 ADD SWAP1 POP SWAP3 SWAP2 POP POP JUMP JUMPDEST PUSH1 0x0 DUP2 SWAP1 POP PUSH1 0x20 DUP3 ADD SWAP1 POP SWAP2 SWAP1 POP JUMP JUMPDEST PUSH2 0x398 DUP2 PUSH2 0x2D6 JUMP JUMPDEST DUP3 MSTORE POP POP JUMP JUMPDEST PUSH1 0x0 PUSH2 0x3AA DUP4 DUP4 PUSH2 0x38F JUMP JUMPDEST PUSH1 0x20 DUP4 ADD SWAP1 POP SWAP3 SWAP2 POP POP JUMP JUMPDEST PUSH1 0x0 PUSH1 0x20 DUP3 ADD SWAP1 POP SWAP2 SWAP1 POP JUMP JUMPDEST PUSH1 0x0 PUSH2 0x3CE DUP3 PUSH2 0x363 JUMP JUMPDEST PUSH2 0x3D8 DUP2 DUP6 PUSH2 0x36E JUMP JUMPDEST SWAP4 POP PUSH2 0x3E3 DUP4 PUSH2 0x37F JUMP JUMPDEST DUP1 PUSH1 0x0 JUMPDEST DUP4 DUP2 LT ISZERO PUSH2 0x414 JUMPI DUP2 MLOAD PUSH2 0x3FB DUP9 DUP3 PUSH2 0x39E JUMP JUMPDEST SWAP8 POP PUSH2 0x406 DUP4 PUSH2 0x3B6 JUMP JUMPDEST SWAP3 POP POP PUSH1 0x1 DUP2 ADD SWAP1 POP PUSH2 0x3E7 JUMP JUMPDEST POP DUP6 SWAP4 POP POP POP POP SWAP3 SWAP2 POP POP JUMP JUMPDEST PUSH1 0x0 PUSH1 0x20 DUP3 ADD SWAP1 POP DUP2 DUP2 SUB PUSH1 0x0 DUP4 ADD MSTORE PUSH2 0x43B DUP2 DUP5 PUSH2 0x3C3 JUMP JUMPDEST SWAP1 POP SWAP3 SWAP2 POP POP JUMP JUMPDEST PUSH32 0x4E487B7100000000000000000000000000000000000000000000000000000000 PUSH1 0x0 MSTORE PUSH1 0x31 PUSH1 0x4 MSTORE PUSH1 0x24 PUSH1 0x0 REVERT JUMPDEST PUSH32 0x4E487B7100000000000000000000000000000000000000000000000000000000 PUSH1 0x0 MSTORE PUSH1 0x32 PUSH1 0x4 MSTORE PUSH1 0x24 PUSH1 0x0 REVERT JUMPDEST PUSH32 0x4E487B7100000000000000000000000000000000000000000000000000000000 PUSH1 0x0 MSTORE PUSH1 0x11 PUSH1 0x4 MSTORE PUSH1 0x24 PUSH1 0x0 REVERT JUMPDEST PUSH1 0x0 PUSH2 0x4DB DUP3 PUSH2 0x2D6 JUMP JUMPDEST SWAP2 POP PUSH2 0x4E6 DUP4 PUSH2 0x2D6 JUMP JUMPDEST SWAP3 POP DUP3 DUP3 ADD SWAP1 POP DUP1 DUP3 GT ISZERO PUSH2 0x4FE JUMPI PUSH2 0x4FD PUSH2 0x4A1 JUMP JUMPDEST JUMPDEST SWAP3 SWAP2 POP POP JUMP JUMPDEST PUSH1 0x0 PUSH2 0x50F DUP3 PUSH2 0x2D6 JUMP JUMPDEST SWAP2 POP PUSH32 0xFFFFFFFFFFFFFFFFFFFFFFFFFFFFFFFFFFFFFFFFFFFFFFFFFFFFFFFFFFFFFFFF DUP3 SUB PUSH2 0x541 JUMPI PUSH2 0x540 PUSH2 0x4A1 JUMP JUMPDEST JUMPDEST PUSH1 0x1 DUP3 ADD SWAP1 POP SWAP2 SWAP1 POP JUMP JUMPDEST PUSH1 0x0 PUSH2 0x557 DUP3 PUSH2 0x2D6 JUMP JUMPDEST SWAP2 POP PUSH2 0x562 DUP4 PUSH2 0x2D6 JUMP JUMPDEST SWAP3 POP DUP3 DUP3 SUB SWAP1 POP DUP2 DUP2 GT ISZERO PUSH2 0x57A JUMPI PUSH2 0x579 PUSH2 0x4A1 JUMP JUMPDEST JUMPDEST SWAP3 SWAP2 POP POP JUMP INVALID LOG2 PUSH5 0x6970667358 0x22 SLT KECCAK256 DUP8 0xBE PUSH9 0x2C2EEEF39C02D46161 0xB8 PUSH11 0xD7FFB341487746CB28391A 0xE0 0xE1 0xDD SWAP6 SAR SWAP16 0xF9 PUSH5 0x736F6C6343 STOP ADDMOD SLT STOP CALLER "
		},
		"gasEstimates": {
			"creation": {
				"codeDepositCost": "292400",
				"executionCost": "infinite",
				"totalCost": "infinite"
			},
			"external": {
				"Numbers(uint256)": "infinite",
				"add(uint256)": "46830",
				"getNumber(uint256)": "infinite",
				"get_lenght()": "2467",
				"get_total_arrays()": "infinite",
				"removelast()": "29468",
				"sumArray()": "infinite"
			}
		},
		"methodIdentifiers": {
			"Numbers(uint256)": "fe99d72b",
			"add(uint256)": "1003e2d2",
			"getNumber(uint256)": "fc563658",
			"get_lenght()": "eb5dfdfe",
			"get_total_arrays()": "b039e14b",
			"removelast()": "40a053c7",
			"sumArray()": "81d73423"
		}
	},
	"abi": [
		{
			"inputs": [
				{
					"internalType": "uint256",
					"name": "",
					"type": "uint256"
				}
			],
			"name": "Numbers",
			"outputs": [
				{
					"internalType": "uint256",
					"name": "",
					"type": "uint256"
				}
			],
			"stateMutability": "view",
			"type": "function"
		},
		{
			"inputs": [
				{
					"internalType": "uint256",
					"name": "a",
					"type": "uint256"
				}
			],
			"name": "add",
			"outputs": [],
			"stateMutability": "nonpayable",
			"type": "function"
		},
		{
			"inputs": [
				{
					"internalType": "uint256",
					"name": "index",
					"type": "uint256"
				}
			],
			"name": "getNumber",
			"outputs": [
				{
					"internalType": "uint256",
					"name": "",
					"type": "uint256"
				}
			],
			"stateMutability": "view",
			"type": "function"
		},
		{
			"inputs": [],
			"name": "get_lenght",
			"outputs": [
				{
					"internalType": "uint256",
					"name": "",
					"type": "uint256"
				}
			],
			"stateMutability": "view",
			"type": "function"
		},
		{
			"inputs": [],
			"name": "get_total_arrays",
			"outputs": [
				{
					"internalType": "uint256[]",
					"name": "",
					"type": "uint256[]"
				}
			],
			"stateMutability": "view",
			"type": "function"
		},
		{
			"inputs": [],
			"name": "removelast",
			"outputs": [],
			"stateMutability": "nonpayable",
			"type": "function"
		},
		{
			"inputs": [],
			"name": "sumArray",
			"outputs": [
				{
					"internalType": "uint256",
					"name": "",
					"type": "uint256"
				}
			],
			"stateMutability": "view",
			"type": "function"
		}
	]
}