{
	"data": {
		"bytecode": {
			"linkReferences": {},
			"object": "60806040526040518060a001604052806040518060400160405280600381526020017f53616d000000000000000000000000000000000000000000000000000000000081525081526020016040518060400160405280600781526020017f536175726162680000000000000000000000000000000000000000000000000081525081526020016040518060400160405280600681526020017f53616368696e000000000000000000000000000000000000000000000000000081525081526020016040518060400160405280601081526020017f53617572616268204b617761727472610000000000000000000000000000000081525081526020016040518060400160405280600581526020017f5368696e610000000000000000000000000000000000000000000000000000008152508152505f908161014191906107a3565b5034801561014d575f5ffd5b50610805565b5f819050919050565b7f4e487b71000000000000000000000000000000000000000000000000000000005f52604160045260245ffd5b5f81549050919050565b5f819050919050565b5f8190506001806001038301049050919050565b5f819050815f5260205f209050919050565b7f4e487b71000000000000000000000000000000000000000000000000000000005f52602260045260245ffd5b5f600282049050600182168061020657607f821691505b602082108103610219576102186101c2565b5b50919050565b5f819050815f5260205f209050919050565b5f82821c905092915050565b61026d7fffffffffffffffffffffffffffffffffffffffffffffffffffffffffffffffff83602003600802610231565b815481168255505050565b5f82821b905092915050565b5f600883026102b37fffffffffffffffffffffffffffffffffffffffffffffffffffffffffffffffff82610278565b6102bd8683610278565b95508019841693508086168417925050509392505050565b5f819050919050565b5f6102f86102f36102ee84610193565b6102d5565b610193565b9050919050565b5f819050919050565b610311836102de565b61032561031d826102ff565b848454610284565b825550505050565b5f5f905090565b61033c61032d565b610347818484610308565b505050565b5f5b8281101561036d576103625f828401610334565b60018101905061034e565b505050565b5f6103815f1984600802610231565b1980831691505092915050565b5f6103998383610372565b9150826002028217905092915050565b6103b28161021f565b6103bd83825461038e565b8083555f825550505050565b5f6020601f8301049050919050565b602084105f811461043357601f841160018114610400576103f9868561038e565b835561042d565b6104098361021f565b6104216001610417886103c9565b036001830161034c565b61042b87856103a9565b505b5061048d565b61043c856103c9565b610445856103c9565b61044e8461021f565b828101601f8916801561046957610468816001840361023d565b5b8484111561047e5761047d8585038361034c565b5b60018a60020217875550505050505b5050505050565b680100000000000000008411156104ae576104ad61015c565b5b602083105f81146104f757602085105f81146104d5576104ce868561038e565b83556104f1565b8360ff19169350836104e68461021f565b556001866002020183555b50610501565b6001856002020182555b5050505050565b8054610513816101ef565b808411156105285761052784828486610494565b5b8084101561053d5761053c848284866103d8565b5b50505050565b82811015610562576105575f828401610334565b600181019050610543565b505050565b6105715f82610508565b50565b7f4e487b71000000000000000000000000000000000000000000000000000000005f525f60045260245ffd5b5f82146105b0576105af610574565b5b6105b981610567565b5050565b5f5b828110156105de576105d35f8284016105a0565b6001810190506105bf565b505050565b8183101561061a576105f48261019c565b6105fd8461019c565b610606836101b0565b818101610615838503826105bd565b505050505b505050565b680100000000000000008211156106395761063861015c565b5b61064281610189565b8282556106508382846105e3565b505050565b5f60059050919050565b5f81519050919050565b5f81519050919050565b601f8211156106c157828211156106c05761068d8161021f565b610696836103c9565b61069f856103c9565b60208610156106ac575f90505b8083016106bb8284038261034c565b505050505b5b505050565b6106cf82610669565b67ffffffffffffffff8111156106e8576106e761015c565b5b6106f282546101ef565b6106fd828285610673565b5f60209050601f83116001811461072e575f841561071c578287015190505b610726858261038e565b86555061078d565b601f19841661073c8661021f565b5f5b828110156107635784890151825560018201915060208501945060208101905061073e565b86831015610780578489015161077c601f891682610372565b8355505b6001600288020188555050505b505050505050565b61079f82826106c6565b5050565b6107ac82610655565b6107b6818361061f565b6107bf83610153565b6107c8836101b0565b5f5b838110156107fd576107db8361065f565b6107e58184610795565b602084019350600183019250506001810190506107ca565b505050505050565b6102fc806108125f395ff3fe608060405234801561000f575f5ffd5b5060043610610029575f3560e01c806374fddd211461002d575b5f5ffd5b61003561004b565b6040516100429190610249565b60405180910390f35b60605f805480602002602001604051908101604052809291908181526020015f905b82821015610115578382905f5260205f2001805461008a90610296565b80601f01602080910402602001604051908101604052809291908181526020018280546100b690610296565b80156101015780601f106100d857610100808354040283529160200191610101565b820191905f5260205f20905b8154815290600101906020018083116100e457829003601f168201915b50505050508152602001906001019061006d565b50505050905090565b5f81519050919050565b5f82825260208201905092915050565b5f819050602082019050919050565b5f81519050919050565b5f82825260208201905092915050565b8281835e5f83830152505050565b5f601f19601f8301169050919050565b5f61018982610147565b6101938185610151565b93506101a3818560208601610161565b6101ac8161016f565b840191505092915050565b5f6101c2838361017f565b905092915050565b5f602082019050919050565b5f6101e08261011e565b6101ea8185610128565b9350836020820285016101fc85610138565b805f5b85811015610237578484038952815161021885826101b7565b9450610223836101ca565b925060208a019950506001810190506101ff565b50829750879550505050505092915050565b5f6020820190508181035f83015261026181846101d6565b905092915050565b7f4e487b71000000000000000000000000000000000000000000000000000000005f52602260045260245ffd5b5f60028204905060018216806102ad57607f821691505b6020821081036102c0576102bf610269565b5b5091905056fea2646970667358221220795d40a9b44e1063d9f88bbc4908d426e8670d4a36c5f1ebd6e9b2b79f97a32764736f6c63430008220033",
			"opcodes": "PUSH1 0x80 PUSH1 0x40 MSTORE PUSH1 0x40 MLOAD DUP1 PUSH1 0xA0 ADD PUSH1 0x40 MSTORE DUP1 PUSH1 0x40 MLOAD DUP1 PUSH1 0x40 ADD PUSH1 0x40 MSTORE DUP1 PUSH1 0x3 DUP2 MSTORE PUSH1 0x20 ADD PUSH32 0x53616D0000000000000000000000000000000000000000000000000000000000 DUP2 MSTORE POP DUP2 MSTORE PUSH1 0x20 ADD PUSH1 0x40 MLOAD DUP1 PUSH1 0x40 ADD PUSH1 0x40 MSTORE DUP1 PUSH1 0x7 DUP2 MSTORE PUSH1 0x20 ADD PUSH32 0x5361757261626800000000000000000000000000000000000000000000000000 DUP2 MSTORE POP DUP2 MSTORE PUSH1 0x20 ADD PUSH1 0x40 MLOAD DUP1 PUSH1 0x40 ADD PUSH1 0x40 MSTORE DUP1 PUSH1 0x6 DUP2 MSTORE PUSH1 0x20 ADD PUSH32 0x53616368696E0000000000000000000000000000000000000000000000000000 DUP2 MSTORE POP DUP2 MSTORE PUSH1 0x20 ADD PUSH1 0x40 MLOAD DUP1 PUSH1 0x40 ADD PUSH1 0x40 MSTORE DUP1 PUSH1 0x10 DUP2 MSTORE PUSH1 0x20 ADD PUSH32 0x53617572616268204B6177617274726100000000000000000000000000000000 DUP2 MSTORE POP DUP2 MSTORE PUSH1 0x20 ADD PUSH1 0x40 MLOAD DUP1 PUSH1 0x40 ADD PUSH1 0x40 MSTORE DUP1 PUSH1 0x5 DUP2 MSTORE PUSH1 0x20 ADD PUSH32 0x5368696E61000000000000000000000000000000000000000000000000000000 DUP2 MSTORE POP DUP2 MSTORE POP PUSH0 SWAP1 DUP2 PUSH2 0x141 SWAP2 SWAP1 PUSH2 0x7A3 JUMP JUMPDEST POP CALLVALUE DUP1 ISZERO PUSH2 0x14D JUMPI PUSH0 PUSH0 REVERT JUMPDEST POP PUSH2 0x805 JUMP JUMPDEST PUSH0 DUP2 SWAP1 POP SWAP2 SWAP1 POP JUMP JUMPDEST PUSH32 0x4E487B7100000000000000000000000000000000000000000000000000000000 PUSH0 MSTORE PUSH1 0x41 PUSH1 0x4 MSTORE PUSH1 0x24 PUSH0 REVERT JUMPDEST PUSH0 DUP2 SLOAD SWAP1 POP SWAP2 SWAP1 POP JUMP JUMPDEST PUSH0 DUP2 SWAP1 POP SWAP2 SWAP1 POP JUMP JUMPDEST PUSH0 DUP2 SWAP1 POP PUSH1 0x1 DUP1 PUSH1 0x1 SUB DUP4 ADD DIV SWAP1 POP SWAP2 SWAP1 POP JUMP JUMPDEST PUSH0 DUP2 SWAP1 POP DUP2 PUSH0 MSTORE PUSH1 0x20 PUSH0 KECCAK256 SWAP1 POP SWAP2 SWAP1 POP JUMP JUMPDEST PUSH32 0x4E487B7100000000000000000000000000000000000000000000000000000000 PUSH0 MSTORE PUSH1 0x22 PUSH1 0x4 MSTORE PUSH1 0x24 PUSH0 REVERT JUMPDEST PUSH0 PUSH1 0x2 DUP3 DIV SWAP1 POP PUSH1 0x1 DUP3 AND DUP1 PUSH2 0x206 JUMPI PUSH1 0x7F DUP3 AND SWAP2 POP JUMPDEST PUSH1 0x20 DUP3 LT DUP2 SUB PUSH2 0x219 JUMPI PUSH2 0x218 PUSH2 0x1C2 JUMP JUMPDEST JUMPDEST POP SWAP2 SWAP1 POP JUMP JUMPDEST PUSH0 DUP2 SWAP1 POP DUP2 PUSH0 MSTORE PUSH1 0x20 PUSH0 KECCAK256 SWAP1 POP SWAP2 SWAP1 POP JUMP JUMPDEST PUSH0 DUP3 DUP3 SHR SWAP1 POP SWAP3 SWAP2 POP POP JUMP JUMPDEST PUSH2 0x26D PUSH32 0xFFFFFFFFFFFFFFFFFFFFFFFFFFFFFFFFFFFFFFFFFFFFFFFFFFFFFFFFFFFFFFFF DUP4 PUSH1 0x20 SUB PUSH1 0x8 MUL PUSH2 0x231 JUMP JUMPDEST DUP2 SLOAD DUP2 AND DUP3 SSTORE POP POP POP JUMP JUMPDEST PUSH0 DUP3 DUP3 SHL SWAP1 POP SWAP3 SWAP2 POP POP JUMP JUMPDEST PUSH0 PUSH1 0x8 DUP4 MUL PUSH2 0x2B3 PUSH32 0xFFFFFFFFFFFFFFFFFFFFFFFFFFFFFFFFFFFFFFFFFFFFFFFFFFFFFFFFFFFFFFFF DUP3 PUSH2 0x278 JUMP JUMPDEST PUSH2 0x2BD DUP7 DUP4 PUSH2 0x278 JUMP JUMPDEST SWAP6 POP DUP1 NOT DUP5 AND SWAP4 POP DUP1 DUP7 AND DUP5 OR SWAP3 POP POP POP SWAP4 SWAP3 POP POP POP JUMP JUMPDEST PUSH0 DUP2 SWAP1 POP SWAP2 SWAP1 POP JUMP JUMPDEST PUSH0 PUSH2 0x2F8 PUSH2 0x2F3 PUSH2 0x2EE DUP5 PUSH2 0x193 JUMP JUMPDEST PUSH2 0x2D5 JUMP JUMPDEST PUSH2 0x193 JUMP JUMPDEST SWAP1 POP SWAP2 SWAP1 POP JUMP JUMPDEST PUSH0 DUP2 SWAP1 POP SWAP2 SWAP1 POP JUMP JUMPDEST PUSH2 0x311 DUP4 PUSH2 0x2DE JUMP JUMPDEST PUSH2 0x325 PUSH2 0x31D DUP3 PUSH2 0x2FF JUMP JUMPDEST DUP5 DUP5 SLOAD PUSH2 0x284 JUMP JUMPDEST DUP3 SSTORE POP POP POP POP JUMP JUMPDEST PUSH0 PUSH0 SWAP1 POP SWAP1 JUMP JUMPDEST PUSH2 0x33C PUSH2 0x32D JUMP JUMPDEST PUSH2 0x347 DUP2 DUP5 DUP5 PUSH2 0x308 JUMP JUMPDEST POP POP POP JUMP JUMPDEST PUSH0 JUMPDEST DUP3 DUP2 LT ISZERO PUSH2 0x36D JUMPI PUSH2 0x362 PUSH0 DUP3 DUP5 ADD PUSH2 0x334 JUMP JUMPDEST PUSH1 0x1 DUP2 ADD SWAP1 POP PUSH2 0x34E JUMP JUMPDEST POP POP POP JUMP JUMPDEST PUSH0 PUSH2 0x381 PUSH0 NOT DUP5 PUSH1 0x8 MUL PUSH2 0x231 JUMP JUMPDEST NOT DUP1 DUP4 AND SWAP2 POP POP SWAP3 SWAP2 POP POP JUMP JUMPDEST PUSH0 PUSH2 0x399 DUP4 DUP4 PUSH2 0x372 JUMP JUMPDEST SWAP2 POP DUP3 PUSH1 0x2 MUL DUP3 OR SWAP1 POP SWAP3 SWAP2 POP POP JUMP JUMPDEST PUSH2 0x3B2 DUP2 PUSH2 0x21F JUMP JUMPDEST PUSH2 0x3BD DUP4 DUP3 SLOAD PUSH2 0x38E JUMP JUMPDEST DUP1 DUP4 SSTORE PUSH0 DUP3 SSTORE POP POP POP POP JUMP JUMPDEST PUSH0 PUSH1 0x20 PUSH1 0x1F DUP4 ADD DIV SWAP1 POP SWAP2 SWAP1 POP JUMP JUMPDEST PUSH1 0x20 DUP5 LT PUSH0 DUP2 EQ PUSH2 0x433 JUMPI PUSH1 0x1F DUP5 GT PUSH1 0x1 DUP2 EQ PUSH2 0x400 JUMPI PUSH2 0x3F9 DUP7 DUP6 PUSH2 0x38E JUMP JUMPDEST DUP4 SSTORE PUSH2 0x42D JUMP JUMPDEST PUSH2 0x409 DUP4 PUSH2 0x21F JUMP JUMPDEST PUSH2 0x421 PUSH1 0x1 PUSH2 0x417 DUP9 PUSH2 0x3C9 JUMP JUMPDEST SUB PUSH1 0x1 DUP4 ADD PUSH2 0x34C JUMP JUMPDEST PUSH2 0x42B DUP8 DUP6 PUSH2 0x3A9 JUMP JUMPDEST POP JUMPDEST POP PUSH2 0x48D JUMP JUMPDEST PUSH2 0x43C DUP6 PUSH2 0x3C9 JUMP JUMPDEST PUSH2 0x445 DUP6 PUSH2 0x3C9 JUMP JUMPDEST PUSH2 0x44E DUP5 PUSH2 0x21F JUMP JUMPDEST DUP3 DUP2 ADD PUSH1 0x1F DUP10 AND DUP1 ISZERO PUSH2 0x469 JUMPI PUSH2 0x468 DUP2 PUSH1 0x1 DUP5 SUB PUSH2 0x23D JUMP JUMPDEST JUMPDEST DUP5 DUP5 GT ISZERO PUSH2 0x47E JUMPI PUSH2 0x47D DUP6 DUP6 SUB DUP4 PUSH2 0x34C JUMP JUMPDEST JUMPDEST PUSH1 0x1 DUP11 PUSH1 0x2 MUL OR DUP8 SSTORE POP POP POP POP POP JUMPDEST POP POP POP POP POP JUMP JUMPDEST PUSH9 0x10000000000000000 DUP5 GT ISZERO PUSH2 0x4AE JUMPI PUSH2 0x4AD PUSH2 0x15C JUMP JUMPDEST JUMPDEST PUSH1 0x20 DUP4 LT PUSH0 DUP2 EQ PUSH2 0x4F7 JUMPI PUSH1 0x20 DUP6 LT PUSH0 DUP2 EQ PUSH2 0x4D5 JUMPI PUSH2 0x4CE DUP7 DUP6 PUSH2 0x38E JUMP JUMPDEST DUP4 SSTORE PUSH2 0x4F1 JUMP JUMPDEST DUP4 PUSH1 0xFF NOT AND SWAP4 POP DUP4 PUSH2 0x4E6 DUP5 PUSH2 0x21F JUMP JUMPDEST SSTORE PUSH1 0x1 DUP7 PUSH1 0x2 MUL ADD DUP4 SSTORE JUMPDEST POP PUSH2 0x501 JUMP JUMPDEST PUSH1 0x1 DUP6 PUSH1 0x2 MUL ADD DUP3 SSTORE JUMPDEST POP POP POP POP POP JUMP JUMPDEST DUP1 SLOAD PUSH2 0x513 DUP2 PUSH2 0x1EF JUMP JUMPDEST DUP1 DUP5 GT ISZERO PUSH2 0x528 JUMPI PUSH2 0x527 DUP5 DUP3 DUP5 DUP7 PUSH2 0x494 JUMP JUMPDEST JUMPDEST DUP1 DUP5 LT ISZERO PUSH2 0x53D JUMPI PUSH2 0x53C DUP5 DUP3 DUP5 DUP7 PUSH2 0x3D8 JUMP JUMPDEST JUMPDEST POP POP POP POP JUMP JUMPDEST DUP3 DUP2 LT ISZERO PUSH2 0x562 JUMPI PUSH2 0x557 PUSH0 DUP3 DUP5 ADD PUSH2 0x334 JUMP JUMPDEST PUSH1 0x1 DUP2 ADD SWAP1 POP PUSH2 0x543 JUMP JUMPDEST POP POP POP JUMP JUMPDEST PUSH2 0x571 PUSH0 DUP3 PUSH2 0x508 JUMP JUMPDEST POP JUMP JUMPDEST PUSH32 0x4E487B7100000000000000000000000000000000000000000000000000000000 PUSH0 MSTORE PUSH0 PUSH1 0x4 MSTORE PUSH1 0x24 PUSH0 REVERT JUMPDEST PUSH0 DUP3 EQ PUSH2 0x5B0 JUMPI PUSH2 0x5AF PUSH2 0x574 JUMP JUMPDEST JUMPDEST PUSH2 0x5B9 DUP2 PUSH2 0x567 JUMP JUMPDEST POP POP JUMP JUMPDEST PUSH0 JUMPDEST DUP3 DUP2 LT ISZERO PUSH2 0x5DE JUMPI PUSH2 0x5D3 PUSH0 DUP3 DUP5 ADD PUSH2 0x5A0 JUMP JUMPDEST PUSH1 0x1 DUP2 ADD SWAP1 POP PUSH2 0x5BF JUMP JUMPDEST POP POP POP JUMP JUMPDEST DUP2 DUP4 LT ISZERO PUSH2 0x61A JUMPI PUSH2 0x5F4 DUP3 PUSH2 0x19C JUMP JUMPDEST PUSH2 0x5FD DUP5 PUSH2 0x19C JUMP JUMPDEST PUSH2 0x606 DUP4 PUSH2 0x1B0 JUMP JUMPDEST DUP2 DUP2 ADD PUSH2 0x615 DUP4 DUP6 SUB DUP3 PUSH2 0x5BD JUMP JUMPDEST POP POP POP POP JUMPDEST POP POP POP JUMP JUMPDEST PUSH9 0x10000000000000000 DUP3 GT ISZERO PUSH2 0x639 JUMPI PUSH2 0x638 PUSH2 0x15C JUMP JUMPDEST JUMPDEST PUSH2 0x642 DUP2 PUSH2 0x189 JUMP JUMPDEST DUP3 DUP3 SSTORE PUSH2 0x650 DUP4 DUP3 DUP5 PUSH2 0x5E3 JUMP JUMPDEST POP POP POP JUMP JUMPDEST PUSH0 PUSH1 0x5 SWAP1 POP SWAP2 SWAP1 POP JUMP JUMPDEST PUSH0 DUP2 MLOAD SWAP1 POP SWAP2 SWAP1 POP JUMP JUMPDEST PUSH0 DUP2 MLOAD SWAP1 POP SWAP2 SWAP1 POP JUMP JUMPDEST PUSH1 0x1F DUP3 GT ISZERO PUSH2 0x6C1 JUMPI DUP3 DUP3 GT ISZERO PUSH2 0x6C0 JUMPI PUSH2 0x68D DUP2 PUSH2 0x21F JUMP JUMPDEST PUSH2 0x696 DUP4 PUSH2 0x3C9 JUMP JUMPDEST PUSH2 0x69F DUP6 PUSH2 0x3C9 JUMP JUMPDEST PUSH1 0x20 DUP7 LT ISZERO PUSH2 0x6AC JUMPI PUSH0 SWAP1 POP JUMPDEST DUP1 DUP4 ADD PUSH2 0x6BB DUP3 DUP5 SUB DUP3 PUSH2 0x34C JUMP JUMPDEST POP POP POP POP JUMPDEST JUMPDEST POP POP POP JUMP JUMPDEST PUSH2 0x6CF DUP3 PUSH2 0x669 JUMP JUMPDEST PUSH8 0xFFFFFFFFFFFFFFFF DUP2 GT ISZERO PUSH2 0x6E8 JUMPI PUSH2 0x6E7 PUSH2 0x15C JUMP JUMPDEST JUMPDEST PUSH2 0x6F2 DUP3 SLOAD PUSH2 0x1EF JUMP JUMPDEST PUSH2 0x6FD DUP3 DUP3 DUP6 PUSH2 0x673 JUMP JUMPDEST PUSH0 PUSH1 0x20 SWAP1 POP PUSH1 0x1F DUP4 GT PUSH1 0x1 DUP2 EQ PUSH2 0x72E JUMPI PUSH0 DUP5 ISZERO PUSH2 0x71C JUMPI DUP3 DUP8 ADD MLOAD SWAP1 POP JUMPDEST PUSH2 0x726 DUP6 DUP3 PUSH2 0x38E JUMP JUMPDEST DUP7 SSTORE POP PUSH2 0x78D JUMP JUMPDEST PUSH1 0x1F NOT DUP5 AND PUSH2 0x73C DUP7 PUSH2 0x21F JUMP JUMPDEST PUSH0 JUMPDEST DUP3 DUP2 LT ISZERO PUSH2 0x763 JUMPI DUP5 DUP10 ADD MLOAD DUP3 SSTORE PUSH1 0x1 DUP3 ADD SWAP2 POP PUSH1 0x20 DUP6 ADD SWAP5 POP PUSH1 0x20 DUP2 ADD SWAP1 POP PUSH2 0x73E JUMP JUMPDEST DUP7 DUP4 LT ISZERO PUSH2 0x780 JUMPI DUP5 DUP10 ADD MLOAD PUSH2 0x77C PUSH1 0x1F DUP10 AND DUP3 PUSH2 0x372 JUMP JUMPDEST DUP4 SSTORE POP JUMPDEST PUSH1 0x1 PUSH1 0x2 DUP9 MUL ADD DUP9 SSTORE POP POP POP JUMPDEST POP POP POP POP POP POP JUMP JUMPDEST PUSH2 0x79F DUP3 DUP3 PUSH2 0x6C6 JUMP JUMPDEST POP POP JUMP JUMPDEST PUSH2 0x7AC DUP3 PUSH2 0x655 JUMP JUMPDEST PUSH2 0x7B6 DUP2 DUP4 PUSH2 0x61F JUMP JUMPDEST PUSH2 0x7BF DUP4 PUSH2 0x153 JUMP JUMPDEST PUSH2 0x7C8 DUP4 PUSH2 0x1B0 JUMP JUMPDEST PUSH0 JUMPDEST DUP4 DUP2 LT ISZERO PUSH2 0x7FD JUMPI PUSH2 0x7DB DUP4 PUSH2 0x65F JUMP JUMPDEST PUSH2 0x7E5 DUP2 DUP5 PUSH2 0x795 JUMP JUMPDEST PUSH1 0x20 DUP5 ADD SWAP4 POP PUSH1 0x1 DUP4 ADD SWAP3 POP POP PUSH1 0x1 DUP2 ADD SWAP1 POP PUSH2 0x7CA JUMP JUMPDEST POP POP POP POP POP POP JUMP JUMPDEST PUSH2 0x2FC DUP1 PUSH2 0x812 PUSH0 CODECOPY PUSH0 RETURN INVALID PUSH1 0x80 PUSH1 0x40 MSTORE CALLVALUE DUP1 ISZERO PUSH2 0xF JUMPI PUSH0 PUSH0 REVERT JUMPDEST POP PUSH1 0x4 CALLDATASIZE LT PUSH2 0x29 JUMPI PUSH0 CALLDATALOAD PUSH1 0xE0 SHR DUP1 PUSH4 0x74FDDD21 EQ PUSH2 0x2D JUMPI JUMPDEST PUSH0 PUSH0 REVERT JUMPDEST PUSH2 0x35 PUSH2 0x4B JUMP JUMPDEST PUSH1 0x40 MLOAD PUSH2 0x42 SWAP2 SWAP1 PUSH2 0x249 JUMP JUMPDEST PUSH1 0x40 MLOAD DUP1 SWAP2 SUB SWAP1 RETURN JUMPDEST PUSH1 0x60 PUSH0 DUP1 SLOAD DUP1 PUSH1 0x20 MUL PUSH1 0x20 ADD PUSH1 0x40 MLOAD SWAP1 DUP2 ADD PUSH1 0x40 MSTORE DUP1 SWAP3 SWAP2 SWAP1 DUP2 DUP2 MSTORE PUSH1 0x20 ADD PUSH0 SWAP1 JUMPDEST DUP3 DUP3 LT ISZERO PUSH2 0x115 JUMPI DUP4 DUP3 SWAP1 PUSH0 MSTORE PUSH1 0x20 PUSH0 KECCAK256 ADD DUP1 SLOAD PUSH2 0x8A SWAP1 PUSH2 0x296 JUMP JUMPDEST DUP1 PUSH1 0x1F ADD PUSH1 0x20 DUP1 SWAP2 DIV MUL PUSH1 0x20 ADD PUSH1 0x40 MLOAD SWAP1 DUP2 ADD PUSH1 0x40 MSTORE DUP1 SWAP3 SWAP2 SWAP1 DUP2 DUP2 MSTORE PUSH1 0x20 ADD DUP3 DUP1 SLOAD PUSH2 0xB6 SWAP1 PUSH2 0x296 JUMP JUMPDEST DUP1 ISZERO PUSH2 0x101 JUMPI DUP1 PUSH1 0x1F LT PUSH2 0xD8 JUMPI PUSH2 0x100 DUP1 DUP4 SLOAD DIV MUL DUP4 MSTORE SWAP2 PUSH1 0x20 ADD SWAP2 PUSH2 0x101 JUMP JUMPDEST DUP3 ADD SWAP2 SWAP1 PUSH0 MSTORE PUSH1 0x20 PUSH0 KECCAK256 SWAP1 JUMPDEST DUP2 SLOAD DUP2 MSTORE SWAP1 PUSH1 0x1 ADD SWAP1 PUSH1 0x20 ADD DUP1 DUP4 GT PUSH2 0xE4 JUMPI DUP3 SWAP1 SUB PUSH1 0x1F AND DUP3 ADD SWAP2 JUMPDEST POP POP POP POP POP DUP2 MSTORE PUSH1 0x20 ADD SWAP1 PUSH1 0x1 ADD SWAP1 PUSH2 0x6D JUMP JUMPDEST POP POP POP POP SWAP1 POP SWAP1 JUMP JUMPDEST PUSH0 DUP2 MLOAD SWAP1 POP SWAP2 SWAP1 POP JUMP JUMPDEST PUSH0 DUP3 DUP3 MSTORE PUSH1 0x20 DUP3 ADD SWAP1 POP SWAP3 SWAP2 POP POP JUMP JUMPDEST PUSH0 DUP2 SWAP1 POP PUSH1 0x20 DUP3 ADD SWAP1 POP SWAP2 SWAP1 POP JUMP JUMPDEST PUSH0 DUP2 MLOAD SWAP1 POP SWAP2 SWAP1 POP JUMP JUMPDEST PUSH0 DUP3 DUP3 MSTORE PUSH1 0x20 DUP3 ADD SWAP1 POP SWAP3 SWAP2 POP POP JUMP JUMPDEST DUP3 DUP2 DUP4 MCOPY PUSH0 DUP4 DUP4 ADD MSTORE POP POP POP JUMP JUMPDEST PUSH0 PUSH1 0x1F NOT PUSH1 0x1F DUP4 ADD AND SWAP1 POP SWAP2 SWAP1 POP JUMP JUMPDEST PUSH0 PUSH2 0x189 DUP3 PUSH2 0x147 JUMP JUMPDEST PUSH2 0x193 DUP2 DUP6 PUSH2 0x151 JUMP JUMPDEST SWAP4 POP PUSH2 0x1A3 DUP2 DUP6 PUSH1 0x20 DUP7 ADD PUSH2 0x161 JUMP JUMPDEST PUSH2 0x1AC DUP2 PUSH2 0x16F JUMP JUMPDEST DUP5 ADD SWAP2 POP POP SWAP3 SWAP2 POP POP JUMP JUMPDEST PUSH0 PUSH2 0x1C2 DUP4 DUP4 PUSH2 0x17F JUMP JUMPDEST SWAP1 POP SWAP3 SWAP2 POP POP JUMP JUMPDEST PUSH0 PUSH1 0x20 DUP3 ADD SWAP1 POP SWAP2 SWAP1 POP JUMP JUMPDEST PUSH0 PUSH2 0x1E0 DUP3 PUSH2 0x11E JUMP JUMPDEST PUSH2 0x1EA DUP2 DUP6 PUSH2 0x128 JUMP JUMPDEST SWAP4 POP DUP4 PUSH1 0x20 DUP3 MUL DUP6 ADD PUSH2 0x1FC DUP6 PUSH2 0x138 JUMP JUMPDEST DUP1 PUSH0 JUMPDEST DUP6 DUP2 LT ISZERO PUSH2 0x237 JUMPI DUP5 DUP5 SUB DUP10 MSTORE DUP2 MLOAD PUSH2 0x218 DUP6 DUP3 PUSH2 0x1B7 JUMP JUMPDEST SWAP5 POP PUSH2 0x223 DUP4 PUSH2 0x1CA JUMP JUMPDEST SWAP3 POP PUSH1 0x20 DUP11 ADD SWAP10 POP POP PUSH1 0x1 DUP2 ADD SWAP1 POP PUSH2 0x1FF JUMP JUMPDEST POP DUP3 SWAP8 POP DUP8 SWAP6 POP POP POP POP POP POP SWAP3 SWAP2 POP POP JUMP JUMPDEST PUSH0 PUSH1 0x20 DUP3 ADD SWAP1 POP DUP2 DUP2 SUB PUSH0 DUP4 ADD MSTORE PUSH2 0x261 DUP2 DUP5 PUSH2 0x1D6 JUMP JUMPDEST SWAP1 POP SWAP3 SWAP2 POP POP JUMP JUMPDEST PUSH32 0x4E487B7100000000000000000000000000000000000000000000000000000000 PUSH0 MSTORE PUSH1 0x22 PUSH1 0x4 MSTORE PUSH1 0x24 PUSH0 REVERT JUMPDEST PUSH0 PUSH1 0x2 DUP3 DIV SWAP1 POP PUSH1 0x1 DUP3 AND DUP1 PUSH2 0x2AD JUMPI PUSH1 0x7F DUP3 AND SWAP2 POP JUMPDEST PUSH1 0x20 DUP3 LT DUP2 SUB PUSH2 0x2C0 JUMPI PUSH2 0x2BF PUSH2 0x269 JUMP JUMPDEST JUMPDEST POP SWAP2 SWAP1 POP JUMP INVALID LOG2 PUSH5 0x6970667358 0x22 SLT KECCAK256 PUSH26 0x5D40A9B44E1063D9F88BBC4908D426E8670D4A36C5F1EBD6E9B2 0xB7 SWAP16 SWAP8 LOG3 0x27 PUSH5 0x736F6C6343 STOP ADDMOD 0x22 STOP CALLER "
		},
		"gasEstimates": {
			"creation": {
				"codeDepositCost": "152800",
				"executionCost": "infinite",
				"totalCost": "infinite"
			},
			"external": {
				"getAllNumbers()": "infinite"
			}
		},
		"methodIdentifiers": {
			"getAllNumbers()": "74fddd21"
		}
	},
	"abi": [
		{
			"inputs": [],
			"name": "getAllNumbers",
			"outputs": [
				{
					"internalType": "string[]",
					"name": "",
					"type": "string[]"
				}
			],
			"stateMutability": "view",
			"type": "function"
		}
	]
}