{
	"data": {
		"bytecode": {
			"linkReferences": {},
			"object": "6080604052348015600e575f5ffd5b5061130f8061001c5f395ff3fe608060405234801561000f575f5ffd5b506004361061003f575f3560e01c806309d232ac14610043578063541e771d14610073578063bd530e0e146100a7575b5f5ffd5b61005d60048036038101906100589190610898565b6100c3565b60405161006a9190610953565b60405180910390f35b61008d60048036038101906100889190610a9b565b61020a565b60405161009e959493929190610b6b565b60405180910390f35b6100c160048036038101906100bc9190610be6565b6102ed565b005b60605f83836040516100d6929190610cbe565b90815260200160405180910390206004015f9054906101000a900460ff16610133576040517f08c379a000000000000000000000000000000000000000000000000000000000815260040161012a90610d20565b60405180910390fd5b5f5f8484604051610145929190610cbe565b90815260200160405180910390206003015490505f6064826101679190610d98565b90505f6064836101779190610dc8565b9050610182826106a0565b600a821061019e5760405180602001604052805f8152506101d5565b6040518060400160405280600181526020017f30000000000000000000000000000000000000000000000000000000000000008152505b6101de836106a0565b6040516020016101f093929190610e72565b604051602081830303815290604052935050505092915050565b5f818051602081018201805184825260208301602085012081835280955050505050505f91509050805f015f9054906101000a900460ff1690806001016040518060400160405290815f82015f9054906101000a900460ff1660ff1660ff1681526020015f820160019054906101000a900460ff1660ff1660ff168152505090806002016040518060400160405290815f82015f9054906101000a900460ff1660ff1660ff1681526020015f820160019054906101000a900460ff1660ff1660ff168152505090806003015490806004015f9054906101000a900460ff16905085565b60018560ff161480610302575060028560ff16145b610341576040517f08c379a000000000000000000000000000000000000000000000000000000000815260040161033890610ef7565b60405180910390fd5b60188460ff161080156103575750603c8360ff16105b8015610366575060188260ff16105b80156103755750603c8160ff16105b6103b4576040517f08c379a00000000000000000000000000000000000000000000000000000000081526004016103ab90610f5f565b60405180910390fd5b5f60405180604001604052808660ff1681526020018560ff1681525090505f60405180604001604052808560ff1681526020018460ff1681525090505f6103fa836107f9565b90505f610406836107f9565b905060018960ff160361047b576101e061ffff168261ffff161015801561043757506102ee61ffff168161ffff1611155b610476576040517f08c379a000000000000000000000000000000000000000000000000000000000815260040161046d90610fc7565b60405180910390fd5b6104df565b61034861ffff168261ffff161015801561049f575061047461ffff168161ffff1611155b6104de576040517f08c379a00000000000000000000000000000000000000000000000000000000081526004016104d59061102f565b60405180910390fd5b5b8161ffff168161ffff1611610529576040517f08c379a0000000000000000000000000000000000000000000000000000000008152600401610520906110bd565b60405180910390fd5b5f828261053691906110e8565b90505f600a600983610548919061111d565b6105529190611152565b90505f60058261ffff166105669190611182565b90506040518060a001604052808d60ff168152602001888152602001878152602001828152602001600115158152505f8f8f6040516105a6929190610cbe565b90815260200160405180910390205f820151815f015f6101000a81548160ff021916908360ff1602179055506020820151816001015f820151815f015f6101000a81548160ff021916908360ff1602179055506020820151815f0160016101000a81548160ff021916908360ff16021790555050506040820151816002015f820151815f015f6101000a81548160ff021916908360ff1602179055506020820151815f0160016101000a81548160ff021916908360ff1602179055505050606082015181600301556080820151816004015f6101000a81548160ff0219169083151502179055509050505050505050505050505050505050565b60605f82036106e6576040518060400160405280600181526020017f300000000000000000000000000000000000000000000000000000000000000081525090506107f4565b5f8290505f5b5f82146107155780806106fe906111c3565b915050600a8261070e9190610d98565b91506106ec565b5f8167ffffffffffffffff8111156107305761072f610977565b5b6040519080825280601f01601f1916602001820160405280156107625781602001600182028036833780820191505090505b5090505b5f85146107ed5760018261077a919061120a565b9150600a856107899190610dc8565b6030610795919061123d565b60f81b8183815181106107ab576107aa611270565b5b60200101907effffffffffffffffffffffffffffffffffffffffffffffffffffffffffffff191690815f1a905350600a856107e69190610d98565b9450610766565b8093505050505b919050565b5f816020015160ff16603c835f015160ff16610815919061129d565b61081f919061111d565b9050919050565b5f604051905090565b5f5ffd5b5f5ffd5b5f5ffd5b5f5ffd5b5f5ffd5b5f5f83601f84011261085857610857610837565b5b8235905067ffffffffffffffff8111156108755761087461083b565b5b6020830191508360018202830111156108915761089061083f565b5b9250929050565b5f5f602083850312156108ae576108ad61082f565b5b5f83013567ffffffffffffffff8111156108cb576108ca610833565b5b6108d785828601610843565b92509250509250929050565b5f81519050919050565b5f82825260208201905092915050565b8281835e5f83830152505050565b5f601f19601f8301169050919050565b5f610925826108e3565b61092f81856108ed565b935061093f8185602086016108fd565b6109488161090b565b840191505092915050565b5f6020820190508181035f83015261096b818461091b565b905092915050565b5f5ffd5b7f4e487b71000000000000000000000000000000000000000000000000000000005f52604160045260245ffd5b6109ad8261090b565b810181811067ffffffffffffffff821117156109cc576109cb610977565b5b80604052505050565b5f6109de610826565b90506109ea82826109a4565b919050565b5f67ffffffffffffffff821115610a0957610a08610977565b5b610a128261090b565b9050602081019050919050565b828183375f83830152505050565b5f610a3f610a3a846109ef565b6109d5565b905082815260208101848484011115610a5b57610a5a610973565b5b610a66848285610a1f565b509392505050565b5f82601f830112610a8257610a81610837565b5b8135610a92848260208601610a2d565b91505092915050565b5f60208284031215610ab057610aaf61082f565b5b5f82013567ffffffffffffffff811115610acd57610acc610833565b5b610ad984828501610a6e565b91505092915050565b5f60ff82169050919050565b610af781610ae2565b82525050565b610b0681610ae2565b82525050565b604082015f820151610b205f850182610afd565b506020820151610b336020850182610afd565b50505050565b5f819050919050565b610b4b81610b39565b82525050565b5f8115159050919050565b610b6581610b51565b82525050565b5f60e082019050610b7e5f830188610aee565b610b8b6020830187610b0c565b610b986060830186610b0c565b610ba560a0830185610b42565b610bb260c0830184610b5c565b9695505050505050565b610bc581610ae2565b8114610bcf575f5ffd5b50565b5f81359050610be081610bbc565b92915050565b5f5f5f5f5f5f5f60c0888a031215610c0157610c0061082f565b5b5f88013567ffffffffffffffff811115610c1e57610c1d610833565b5b610c2a8a828b01610843565b97509750506020610c3d8a828b01610bd2565b9550506040610c4e8a828b01610bd2565b9450506060610c5f8a828b01610bd2565b9350506080610c708a828b01610bd2565b92505060a0610c818a828b01610bd2565b91505092959891949750929550565b5f81905092915050565b5f610ca58385610c90565b9350610cb2838584610a1f565b82840190509392505050565b5f610cca828486610c9a565b91508190509392505050565b7f5265636f7264206e6f7420666f756e64000000000000000000000000000000005f82015250565b5f610d0a6010836108ed565b9150610d1582610cd6565b602082019050919050565b5f6020820190508181035f830152610d3781610cfe565b9050919050565b7f4e487b71000000000000000000000000000000000000000000000000000000005f52601260045260245ffd5b7f4e487b71000000000000000000000000000000000000000000000000000000005f52601160045260245ffd5b5f610da282610b39565b9150610dad83610b39565b925082610dbd57610dbc610d3e565b5b828204905092915050565b5f610dd282610b39565b9150610ddd83610b39565b925082610ded57610dec610d3e565b5b828206905092915050565b5f610e02826108e3565b610e0c8185610c90565b9350610e1c8185602086016108fd565b80840191505092915050565b7f2e000000000000000000000000000000000000000000000000000000000000005f82015250565b5f610e5c600183610c90565b9150610e6782610e28565b600182019050919050565b5f610e7d8286610df8565b9150610e8882610e50565b9150610e948285610df8565b9150610ea08284610df8565b9150819050949350505050565b7f496e76616c6964207368696674000000000000000000000000000000000000005f82015250565b5f610ee1600d836108ed565b9150610eec82610ead565b602082019050919050565b5f6020820190508181035f830152610f0e81610ed5565b9050919050565b7f496e76616c69642074696d6500000000000000000000000000000000000000005f82015250565b5f610f49600c836108ed565b9150610f5482610f15565b602082019050919050565b5f6020820190508181035f830152610f7681610f3d565b9050919050565b7f54696d6573206e6f7420696e205368696674203120706572696f6400000000005f82015250565b5f610fb1601b836108ed565b9150610fbc82610f7d565b602082019050919050565b5f6020820190508181035f830152610fde81610fa5565b9050919050565b7f54696d6573206e6f7420696e205368696674203220706572696f6400000000005f82015250565b5f611019601b836108ed565b915061102482610fe5565b602082019050919050565b5f6020820190508181035f8301526110468161100d565b9050919050565b7f457869742074696d65206d75737420626520616674657220656e7472792074695f8201527f6d65000000000000000000000000000000000000000000000000000000000000602082015250565b5f6110a76022836108ed565b91506110b28261104d565b604082019050919050565b5f6020820190508181035f8301526110d48161109b565b9050919050565b5f61ffff82169050919050565b5f6110f2826110db565b91506110fd836110db565b9250828203905061ffff81111561111757611116610d6b565b5b92915050565b5f611127826110db565b9150611132836110db565b9250828201905061ffff81111561114c5761114b610d6b565b5b92915050565b5f61115c826110db565b9150611167836110db565b92508261117757611176610d3e565b5b828204905092915050565b5f61118c82610b39565b915061119783610b39565b92508282026111a581610b39565b915082820484148315176111bc576111bb610d6b565b5b5092915050565b5f6111cd82610b39565b91507fffffffffffffffffffffffffffffffffffffffffffffffffffffffffffffffff82036111ff576111fe610d6b565b5b600182019050919050565b5f61121482610b39565b915061121f83610b39565b925082820390508181111561123757611236610d6b565b5b92915050565b5f61124782610b39565b915061125283610b39565b925082820190508082111561126a57611269610d6b565b5b92915050565b7f4e487b71000000000000000000000000000000000000000000000000000000005f52603260045260245ffd5b5f6112a7826110db565b91506112b2836110db565b92508282026112c0816110db565b91508082146112d2576112d1610d6b565b5b509291505056fea2646970667358221220b044111aee559575ef5325757fc3184f4c9c336e86097308c687e76ed25f7e9364736f6c634300081e0033",
			"opcodes": "PUSH1 0x80 PUSH1 0x40 MSTORE CALLVALUE DUP1 ISZERO PUSH1 0xE JUMPI PUSH0 PUSH0 REVERT JUMPDEST POP PUSH2 0x130F DUP1 PUSH2 0x1C PUSH0 CODECOPY PUSH0 RETURN INVALID PUSH1 0x80 PUSH1 0x40 MSTORE CALLVALUE DUP1 ISZERO PUSH2 0xF JUMPI PUSH0 PUSH0 REVERT JUMPDEST POP PUSH1 0x4 CALLDATASIZE LT PUSH2 0x3F JUMPI PUSH0 CALLDATALOAD PUSH1 0xE0 SHR DUP1 PUSH4 0x9D232AC EQ PUSH2 0x43 JUMPI DUP1 PUSH4 0x541E771D EQ PUSH2 0x73 JUMPI DUP1 PUSH4 0xBD530E0E EQ PUSH2 0xA7 JUMPI JUMPDEST PUSH0 PUSH0 REVERT JUMPDEST PUSH2 0x5D PUSH1 0x4 DUP1 CALLDATASIZE SUB DUP2 ADD SWAP1 PUSH2 0x58 SWAP2 SWAP1 PUSH2 0x898 JUMP JUMPDEST PUSH2 0xC3 JUMP JUMPDEST PUSH1 0x40 MLOAD PUSH2 0x6A SWAP2 SWAP1 PUSH2 0x953 JUMP JUMPDEST PUSH1 0x40 MLOAD DUP1 SWAP2 SUB SWAP1 RETURN JUMPDEST PUSH2 0x8D PUSH1 0x4 DUP1 CALLDATASIZE SUB DUP2 ADD SWAP1 PUSH2 0x88 SWAP2 SWAP1 PUSH2 0xA9B JUMP JUMPDEST PUSH2 0x20A JUMP JUMPDEST PUSH1 0x40 MLOAD PUSH2 0x9E SWAP6 SWAP5 SWAP4 SWAP3 SWAP2 SWAP1 PUSH2 0xB6B JUMP JUMPDEST PUSH1 0x40 MLOAD DUP1 SWAP2 SUB SWAP1 RETURN JUMPDEST PUSH2 0xC1 PUSH1 0x4 DUP1 CALLDATASIZE SUB DUP2 ADD SWAP1 PUSH2 0xBC SWAP2 SWAP1 PUSH2 0xBE6 JUMP JUMPDEST PUSH2 0x2ED JUMP JUMPDEST STOP JUMPDEST PUSH1 0x60 PUSH0 DUP4 DUP4 PUSH1 0x40 MLOAD PUSH2 0xD6 SWAP3 SWAP2 SWAP1 PUSH2 0xCBE JUMP JUMPDEST SWAP1 DUP2 MSTORE PUSH1 0x20 ADD PUSH1 0x40 MLOAD DUP1 SWAP2 SUB SWAP1 KECCAK256 PUSH1 0x4 ADD PUSH0 SWAP1 SLOAD SWAP1 PUSH2 0x100 EXP SWAP1 DIV PUSH1 0xFF AND PUSH2 0x133 JUMPI PUSH1 0x40 MLOAD PUSH32 0x8C379A000000000000000000000000000000000000000000000000000000000 DUP2 MSTORE PUSH1 0x4 ADD PUSH2 0x12A SWAP1 PUSH2 0xD20 JUMP JUMPDEST PUSH1 0x40 MLOAD DUP1 SWAP2 SUB SWAP1 REVERT JUMPDEST PUSH0 PUSH0 DUP5 DUP5 PUSH1 0x40 MLOAD PUSH2 0x145 SWAP3 SWAP2 SWAP1 PUSH2 0xCBE JUMP JUMPDEST SWAP1 DUP2 MSTORE PUSH1 0x20 ADD PUSH1 0x40 MLOAD DUP1 SWAP2 SUB SWAP1 KECCAK256 PUSH1 0x3 ADD SLOAD SWAP1 POP PUSH0 PUSH1 0x64 DUP3 PUSH2 0x167 SWAP2 SWAP1 PUSH2 0xD98 JUMP JUMPDEST SWAP1 POP PUSH0 PUSH1 0x64 DUP4 PUSH2 0x177 SWAP2 SWAP1 PUSH2 0xDC8 JUMP JUMPDEST SWAP1 POP PUSH2 0x182 DUP3 PUSH2 0x6A0 JUMP JUMPDEST PUSH1 0xA DUP3 LT PUSH2 0x19E JUMPI PUSH1 0x40 MLOAD DUP1 PUSH1 0x20 ADD PUSH1 0x40 MSTORE DUP1 PUSH0 DUP2 MSTORE POP PUSH2 0x1D5 JUMP JUMPDEST PUSH1 0x40 MLOAD DUP1 PUSH1 0x40 ADD PUSH1 0x40 MSTORE DUP1 PUSH1 0x1 DUP2 MSTORE PUSH1 0x20 ADD PUSH32 0x3000000000000000000000000000000000000000000000000000000000000000 DUP2 MSTORE POP JUMPDEST PUSH2 0x1DE DUP4 PUSH2 0x6A0 JUMP JUMPDEST PUSH1 0x40 MLOAD PUSH1 0x20 ADD PUSH2 0x1F0 SWAP4 SWAP3 SWAP2 SWAP1 PUSH2 0xE72 JUMP JUMPDEST PUSH1 0x40 MLOAD PUSH1 0x20 DUP2 DUP4 SUB SUB DUP2 MSTORE SWAP1 PUSH1 0x40 MSTORE SWAP4 POP POP POP POP SWAP3 SWAP2 POP POP JUMP JUMPDEST PUSH0 DUP2 DUP1 MLOAD PUSH1 0x20 DUP2 ADD DUP3 ADD DUP1 MLOAD DUP5 DUP3 MSTORE PUSH1 0x20 DUP4 ADD PUSH1 0x20 DUP6 ADD KECCAK256 DUP2 DUP4 MSTORE DUP1 SWAP6 POP POP POP POP POP POP PUSH0 SWAP2 POP SWAP1 POP DUP1 PUSH0 ADD PUSH0 SWAP1 SLOAD SWAP1 PUSH2 0x100 EXP SWAP1 DIV PUSH1 0xFF AND SWAP1 DUP1 PUSH1 0x1 ADD PUSH1 0x40 MLOAD DUP1 PUSH1 0x40 ADD PUSH1 0x40 MSTORE SWAP1 DUP2 PUSH0 DUP3 ADD PUSH0 SWAP1 SLOAD SWAP1 PUSH2 0x100 EXP SWAP1 DIV PUSH1 0xFF AND PUSH1 0xFF AND PUSH1 0xFF AND DUP2 MSTORE PUSH1 0x20 ADD PUSH0 DUP3 ADD PUSH1 0x1 SWAP1 SLOAD SWAP1 PUSH2 0x100 EXP SWAP1 DIV PUSH1 0xFF AND PUSH1 0xFF AND PUSH1 0xFF AND DUP2 MSTORE POP POP SWAP1 DUP1 PUSH1 0x2 ADD PUSH1 0x40 MLOAD DUP1 PUSH1 0x40 ADD PUSH1 0x40 MSTORE SWAP1 DUP2 PUSH0 DUP3 ADD PUSH0 SWAP1 SLOAD SWAP1 PUSH2 0x100 EXP SWAP1 DIV PUSH1 0xFF AND PUSH1 0xFF AND PUSH1 0xFF AND DUP2 MSTORE PUSH1 0x20 ADD PUSH0 DUP3 ADD PUSH1 0x1 SWAP1 SLOAD SWAP1 PUSH2 0x100 EXP SWAP1 DIV PUSH1 0xFF AND PUSH1 0xFF AND PUSH1 0xFF AND DUP2 MSTORE POP POP SWAP1 DUP1 PUSH1 0x3 ADD SLOAD SWAP1 DUP1 PUSH1 0x4 ADD PUSH0 SWAP1 SLOAD SWAP1 PUSH2 0x100 EXP SWAP1 DIV PUSH1 0xFF AND SWAP1 POP DUP6 JUMP JUMPDEST PUSH1 0x1 DUP6 PUSH1 0xFF AND EQ DUP1 PUSH2 0x302 JUMPI POP PUSH1 0x2 DUP6 PUSH1 0xFF AND EQ JUMPDEST PUSH2 0x341 JUMPI PUSH1 0x40 MLOAD PUSH32 0x8C379A000000000000000000000000000000000000000000000000000000000 DUP2 MSTORE PUSH1 0x4 ADD PUSH2 0x338 SWAP1 PUSH2 0xEF7 JUMP JUMPDEST PUSH1 0x40 MLOAD DUP1 SWAP2 SUB SWAP1 REVERT JUMPDEST PUSH1 0x18 DUP5 PUSH1 0xFF AND LT DUP1 ISZERO PUSH2 0x357 JUMPI POP PUSH1 0x3C DUP4 PUSH1 0xFF AND LT JUMPDEST DUP1 ISZERO PUSH2 0x366 JUMPI POP PUSH1 0x18 DUP3 PUSH1 0xFF AND LT JUMPDEST DUP1 ISZERO PUSH2 0x375 JUMPI POP PUSH1 0x3C DUP2 PUSH1 0xFF AND LT JUMPDEST PUSH2 0x3B4 JUMPI PUSH1 0x40 MLOAD PUSH32 0x8C379A000000000000000000000000000000000000000000000000000000000 DUP2 MSTORE PUSH1 0x4 ADD PUSH2 0x3AB SWAP1 PUSH2 0xF5F JUMP JUMPDEST PUSH1 0x40 MLOAD DUP1 SWAP2 SUB SWAP1 REVERT JUMPDEST PUSH0 PUSH1 0x40 MLOAD DUP1 PUSH1 0x40 ADD PUSH1 0x40 MSTORE DUP1 DUP7 PUSH1 0xFF AND DUP2 MSTORE PUSH1 0x20 ADD DUP6 PUSH1 0xFF AND DUP2 MSTORE POP SWAP1 POP PUSH0 PUSH1 0x40 MLOAD DUP1 PUSH1 0x40 ADD PUSH1 0x40 MSTORE DUP1 DUP6 PUSH1 0xFF AND DUP2 MSTORE PUSH1 0x20 ADD DUP5 PUSH1 0xFF AND DUP2 MSTORE POP SWAP1 POP PUSH0 PUSH2 0x3FA DUP4 PUSH2 0x7F9 JUMP JUMPDEST SWAP1 POP PUSH0 PUSH2 0x406 DUP4 PUSH2 0x7F9 JUMP JUMPDEST SWAP1 POP PUSH1 0x1 DUP10 PUSH1 0xFF AND SUB PUSH2 0x47B JUMPI PUSH2 0x1E0 PUSH2 0xFFFF AND DUP3 PUSH2 0xFFFF AND LT ISZERO DUP1 ISZERO PUSH2 0x437 JUMPI POP PUSH2 0x2EE PUSH2 0xFFFF AND DUP2 PUSH2 0xFFFF AND GT ISZERO JUMPDEST PUSH2 0x476 JUMPI PUSH1 0x40 MLOAD PUSH32 0x8C379A000000000000000000000000000000000000000000000000000000000 DUP2 MSTORE PUSH1 0x4 ADD PUSH2 0x46D SWAP1 PUSH2 0xFC7 JUMP JUMPDEST PUSH1 0x40 MLOAD DUP1 SWAP2 SUB SWAP1 REVERT JUMPDEST PUSH2 0x4DF JUMP JUMPDEST PUSH2 0x348 PUSH2 0xFFFF AND DUP3 PUSH2 0xFFFF AND LT ISZERO DUP1 ISZERO PUSH2 0x49F JUMPI POP PUSH2 0x474 PUSH2 0xFFFF AND DUP2 PUSH2 0xFFFF AND GT ISZERO JUMPDEST PUSH2 0x4DE JUMPI PUSH1 0x40 MLOAD PUSH32 0x8C379A000000000000000000000000000000000000000000000000000000000 DUP2 MSTORE PUSH1 0x4 ADD PUSH2 0x4D5 SWAP1 PUSH2 0x102F JUMP JUMPDEST PUSH1 0x40 MLOAD DUP1 SWAP2 SUB SWAP1 REVERT JUMPDEST JUMPDEST DUP2 PUSH2 0xFFFF AND DUP2 PUSH2 0xFFFF AND GT PUSH2 0x529 JUMPI PUSH1 0x40 MLOAD PUSH32 0x8C379A000000000000000000000000000000000000000000000000000000000 DUP2 MSTORE PUSH1 0x4 ADD PUSH2 0x520 SWAP1 PUSH2 0x10BD JUMP JUMPDEST PUSH1 0x40 MLOAD DUP1 SWAP2 SUB SWAP1 REVERT JUMPDEST PUSH0 DUP3 DUP3 PUSH2 0x536 SWAP2 SWAP1 PUSH2 0x10E8 JUMP JUMPDEST SWAP1 POP PUSH0 PUSH1 0xA PUSH1 0x9 DUP4 PUSH2 0x548 SWAP2 SWAP1 PUSH2 0x111D JUMP JUMPDEST PUSH2 0x552 SWAP2 SWAP1 PUSH2 0x1152 JUMP JUMPDEST SWAP1 POP PUSH0 PUSH1 0x5 DUP3 PUSH2 0xFFFF AND PUSH2 0x566 SWAP2 SWAP1 PUSH2 0x1182 JUMP JUMPDEST SWAP1 POP PUSH1 0x40 MLOAD DUP1 PUSH1 0xA0 ADD PUSH1 0x40 MSTORE DUP1 DUP14 PUSH1 0xFF AND DUP2 MSTORE PUSH1 0x20 ADD DUP9 DUP2 MSTORE PUSH1 0x20 ADD DUP8 DUP2 MSTORE PUSH1 0x20 ADD DUP3 DUP2 MSTORE PUSH1 0x20 ADD PUSH1 0x1 ISZERO ISZERO DUP2 MSTORE POP PUSH0 DUP16 DUP16 PUSH1 0x40 MLOAD PUSH2 0x5A6 SWAP3 SWAP2 SWAP1 PUSH2 0xCBE JUMP JUMPDEST SWAP1 DUP2 MSTORE PUSH1 0x20 ADD PUSH1 0x40 MLOAD DUP1 SWAP2 SUB SWAP1 KECCAK256 PUSH0 DUP3 ADD MLOAD DUP2 PUSH0 ADD PUSH0 PUSH2 0x100 EXP DUP2 SLOAD DUP2 PUSH1 0xFF MUL NOT AND SWAP1 DUP4 PUSH1 0xFF AND MUL OR SWAP1 SSTORE POP PUSH1 0x20 DUP3 ADD MLOAD DUP2 PUSH1 0x1 ADD PUSH0 DUP3 ADD MLOAD DUP2 PUSH0 ADD PUSH0 PUSH2 0x100 EXP DUP2 SLOAD DUP2 PUSH1 0xFF MUL NOT AND SWAP1 DUP4 PUSH1 0xFF AND MUL OR SWAP1 SSTORE POP PUSH1 0x20 DUP3 ADD MLOAD DUP2 PUSH0 ADD PUSH1 0x1 PUSH2 0x100 EXP DUP2 SLOAD DUP2 PUSH1 0xFF MUL NOT AND SWAP1 DUP4 PUSH1 0xFF AND MUL OR SWAP1 SSTORE POP POP POP PUSH1 0x40 DUP3 ADD MLOAD DUP2 PUSH1 0x2 ADD PUSH0 DUP3 ADD MLOAD DUP2 PUSH0 ADD PUSH0 PUSH2 0x100 EXP DUP2 SLOAD DUP2 PUSH1 0xFF MUL NOT AND SWAP1 DUP4 PUSH1 0xFF AND MUL OR SWAP1 SSTORE POP PUSH1 0x20 DUP3 ADD MLOAD DUP2 PUSH0 ADD PUSH1 0x1 PUSH2 0x100 EXP DUP2 SLOAD DUP2 PUSH1 0xFF MUL NOT AND SWAP1 DUP4 PUSH1 0xFF AND MUL OR SWAP1 SSTORE POP POP POP PUSH1 0x60 DUP3 ADD MLOAD DUP2 PUSH1 0x3 ADD SSTORE PUSH1 0x80 DUP3 ADD MLOAD DUP2 PUSH1 0x4 ADD PUSH0 PUSH2 0x100 EXP DUP2 SLOAD DUP2 PUSH1 0xFF MUL NOT AND SWAP1 DUP4 ISZERO ISZERO MUL OR SWAP1 SSTORE POP SWAP1 POP POP POP POP POP POP POP POP POP POP POP POP POP POP POP POP JUMP JUMPDEST PUSH1 0x60 PUSH0 DUP3 SUB PUSH2 0x6E6 JUMPI PUSH1 0x40 MLOAD DUP1 PUSH1 0x40 ADD PUSH1 0x40 MSTORE DUP1 PUSH1 0x1 DUP2 MSTORE PUSH1 0x20 ADD PUSH32 0x3000000000000000000000000000000000000000000000000000000000000000 DUP2 MSTORE POP SWAP1 POP PUSH2 0x7F4 JUMP JUMPDEST PUSH0 DUP3 SWAP1 POP PUSH0 JUMPDEST PUSH0 DUP3 EQ PUSH2 0x715 JUMPI DUP1 DUP1 PUSH2 0x6FE SWAP1 PUSH2 0x11C3 JUMP JUMPDEST SWAP2 POP POP PUSH1 0xA DUP3 PUSH2 0x70E SWAP2 SWAP1 PUSH2 0xD98 JUMP JUMPDEST SWAP2 POP PUSH2 0x6EC JUMP JUMPDEST PUSH0 DUP2 PUSH8 0xFFFFFFFFFFFFFFFF DUP2 GT ISZERO PUSH2 0x730 JUMPI PUSH2 0x72F PUSH2 0x977 JUMP JUMPDEST JUMPDEST PUSH1 0x40 MLOAD SWAP1 DUP1 DUP3 MSTORE DUP1 PUSH1 0x1F ADD PUSH1 0x1F NOT AND PUSH1 0x20 ADD DUP3 ADD PUSH1 0x40 MSTORE DUP1 ISZERO PUSH2 0x762 JUMPI DUP2 PUSH1 0x20 ADD PUSH1 0x1 DUP3 MUL DUP1 CALLDATASIZE DUP4 CALLDATACOPY DUP1 DUP3 ADD SWAP2 POP POP SWAP1 POP JUMPDEST POP SWAP1 POP JUMPDEST PUSH0 DUP6 EQ PUSH2 0x7ED JUMPI PUSH1 0x1 DUP3 PUSH2 0x77A SWAP2 SWAP1 PUSH2 0x120A JUMP JUMPDEST SWAP2 POP PUSH1 0xA DUP6 PUSH2 0x789 SWAP2 SWAP1 PUSH2 0xDC8 JUMP JUMPDEST PUSH1 0x30 PUSH2 0x795 SWAP2 SWAP1 PUSH2 0x123D JUMP JUMPDEST PUSH1 0xF8 SHL DUP2 DUP4 DUP2 MLOAD DUP2 LT PUSH2 0x7AB JUMPI PUSH2 0x7AA PUSH2 0x1270 JUMP JUMPDEST JUMPDEST PUSH1 0x20 ADD ADD SWAP1 PUSH31 0xFFFFFFFFFFFFFFFFFFFFFFFFFFFFFFFFFFFFFFFFFFFFFFFFFFFFFFFFFFFFFF NOT AND SWAP1 DUP2 PUSH0 BYTE SWAP1 MSTORE8 POP PUSH1 0xA DUP6 PUSH2 0x7E6 SWAP2 SWAP1 PUSH2 0xD98 JUMP JUMPDEST SWAP5 POP PUSH2 0x766 JUMP JUMPDEST DUP1 SWAP4 POP POP POP POP JUMPDEST SWAP2 SWAP1 POP JUMP JUMPDEST PUSH0 DUP2 PUSH1 0x20 ADD MLOAD PUSH1 0xFF AND PUSH1 0x3C DUP4 PUSH0 ADD MLOAD PUSH1 0xFF AND PUSH2 0x815 SWAP2 SWAP1 PUSH2 0x129D JUMP JUMPDEST PUSH2 0x81F SWAP2 SWAP1 PUSH2 0x111D JUMP JUMPDEST SWAP1 POP SWAP2 SWAP1 POP JUMP JUMPDEST PUSH0 PUSH1 0x40 MLOAD SWAP1 POP SWAP1 JUMP JUMPDEST PUSH0 PUSH0 REVERT JUMPDEST PUSH0 PUSH0 REVERT JUMPDEST PUSH0 PUSH0 REVERT JUMPDEST PUSH0 PUSH0 REVERT JUMPDEST PUSH0 PUSH0 REVERT JUMPDEST PUSH0 PUSH0 DUP4 PUSH1 0x1F DUP5 ADD SLT PUSH2 0x858 JUMPI PUSH2 0x857 PUSH2 0x837 JUMP JUMPDEST JUMPDEST DUP3 CALLDATALOAD SWAP1 POP PUSH8 0xFFFFFFFFFFFFFFFF DUP2 GT ISZERO PUSH2 0x875 JUMPI PUSH2 0x874 PUSH2 0x83B JUMP JUMPDEST JUMPDEST PUSH1 0x20 DUP4 ADD SWAP2 POP DUP4 PUSH1 0x1 DUP3 MUL DUP4 ADD GT ISZERO PUSH2 0x891 JUMPI PUSH2 0x890 PUSH2 0x83F JUMP JUMPDEST JUMPDEST SWAP3 POP SWAP3 SWAP1 POP JUMP JUMPDEST PUSH0 PUSH0 PUSH1 0x20 DUP4 DUP6 SUB SLT ISZERO PUSH2 0x8AE JUMPI PUSH2 0x8AD PUSH2 0x82F JUMP JUMPDEST JUMPDEST PUSH0 DUP4 ADD CALLDATALOAD PUSH8 0xFFFFFFFFFFFFFFFF DUP2 GT ISZERO PUSH2 0x8CB JUMPI PUSH2 0x8CA PUSH2 0x833 JUMP JUMPDEST JUMPDEST PUSH2 0x8D7 DUP6 DUP3 DUP7 ADD PUSH2 0x843 JUMP JUMPDEST SWAP3 POP SWAP3 POP POP SWAP3 POP SWAP3 SWAP1 POP JUMP JUMPDEST PUSH0 DUP2 MLOAD SWAP1 POP SWAP2 SWAP1 POP JUMP JUMPDEST PUSH0 DUP3 DUP3 MSTORE PUSH1 0x20 DUP3 ADD SWAP1 POP SWAP3 SWAP2 POP POP JUMP JUMPDEST DUP3 DUP2 DUP4 MCOPY PUSH0 DUP4 DUP4 ADD MSTORE POP POP POP JUMP JUMPDEST PUSH0 PUSH1 0x1F NOT PUSH1 0x1F DUP4 ADD AND SWAP1 POP SWAP2 SWAP1 POP JUMP JUMPDEST PUSH0 PUSH2 0x925 DUP3 PUSH2 0x8E3 JUMP JUMPDEST PUSH2 0x92F DUP2 DUP6 PUSH2 0x8ED JUMP JUMPDEST SWAP4 POP PUSH2 0x93F DUP2 DUP6 PUSH1 0x20 DUP7 ADD PUSH2 0x8FD JUMP JUMPDEST PUSH2 0x948 DUP2 PUSH2 0x90B JUMP JUMPDEST DUP5 ADD SWAP2 POP POP SWAP3 SWAP2 POP POP JUMP JUMPDEST PUSH0 PUSH1 0x20 DUP3 ADD SWAP1 POP DUP2 DUP2 SUB PUSH0 DUP4 ADD MSTORE PUSH2 0x96B DUP2 DUP5 PUSH2 0x91B JUMP JUMPDEST SWAP1 POP SWAP3 SWAP2 POP POP JUMP JUMPDEST PUSH0 PUSH0 REVERT JUMPDEST PUSH32 0x4E487B7100000000000000000000000000000000000000000000000000000000 PUSH0 MSTORE PUSH1 0x41 PUSH1 0x4 MSTORE PUSH1 0x24 PUSH0 REVERT JUMPDEST PUSH2 0x9AD DUP3 PUSH2 0x90B JUMP JUMPDEST DUP2 ADD DUP2 DUP2 LT PUSH8 0xFFFFFFFFFFFFFFFF DUP3 GT OR ISZERO PUSH2 0x9CC JUMPI PUSH2 0x9CB PUSH2 0x977 JUMP JUMPDEST JUMPDEST DUP1 PUSH1 0x40 MSTORE POP POP POP JUMP JUMPDEST PUSH0 PUSH2 0x9DE PUSH2 0x826 JUMP JUMPDEST SWAP1 POP PUSH2 0x9EA DUP3 DUP3 PUSH2 0x9A4 JUMP JUMPDEST SWAP2 SWAP1 POP JUMP JUMPDEST PUSH0 PUSH8 0xFFFFFFFFFFFFFFFF DUP3 GT ISZERO PUSH2 0xA09 JUMPI PUSH2 0xA08 PUSH2 0x977 JUMP JUMPDEST JUMPDEST PUSH2 0xA12 DUP3 PUSH2 0x90B JUMP JUMPDEST SWAP1 POP PUSH1 0x20 DUP2 ADD SWAP1 POP SWAP2 SWAP1 POP JUMP JUMPDEST DUP3 DUP2 DUP4 CALLDATACOPY PUSH0 DUP4 DUP4 ADD MSTORE POP POP POP JUMP JUMPDEST PUSH0 PUSH2 0xA3F PUSH2 0xA3A DUP5 PUSH2 0x9EF JUMP JUMPDEST PUSH2 0x9D5 JUMP JUMPDEST SWAP1 POP DUP3 DUP2 MSTORE PUSH1 0x20 DUP2 ADD DUP5 DUP5 DUP5 ADD GT ISZERO PUSH2 0xA5B JUMPI PUSH2 0xA5A PUSH2 0x973 JUMP JUMPDEST JUMPDEST PUSH2 0xA66 DUP5 DUP3 DUP6 PUSH2 0xA1F JUMP JUMPDEST POP SWAP4 SWAP3 POP POP POP JUMP JUMPDEST PUSH0 DUP3 PUSH1 0x1F DUP4 ADD SLT PUSH2 0xA82 JUMPI PUSH2 0xA81 PUSH2 0x837 JUMP JUMPDEST JUMPDEST DUP2 CALLDATALOAD PUSH2 0xA92 DUP5 DUP3 PUSH1 0x20 DUP7 ADD PUSH2 0xA2D JUMP JUMPDEST SWAP2 POP POP SWAP3 SWAP2 POP POP JUMP JUMPDEST PUSH0 PUSH1 0x20 DUP3 DUP5 SUB SLT ISZERO PUSH2 0xAB0 JUMPI PUSH2 0xAAF PUSH2 0x82F JUMP JUMPDEST JUMPDEST PUSH0 DUP3 ADD CALLDATALOAD PUSH8 0xFFFFFFFFFFFFFFFF DUP2 GT ISZERO PUSH2 0xACD JUMPI PUSH2 0xACC PUSH2 0x833 JUMP JUMPDEST JUMPDEST PUSH2 0xAD9 DUP5 DUP3 DUP6 ADD PUSH2 0xA6E JUMP JUMPDEST SWAP2 POP POP SWAP3 SWAP2 POP POP JUMP JUMPDEST PUSH0 PUSH1 0xFF DUP3 AND SWAP1 POP SWAP2 SWAP1 POP JUMP JUMPDEST PUSH2 0xAF7 DUP2 PUSH2 0xAE2 JUMP JUMPDEST DUP3 MSTORE POP POP JUMP JUMPDEST PUSH2 0xB06 DUP2 PUSH2 0xAE2 JUMP JUMPDEST DUP3 MSTORE POP POP JUMP JUMPDEST PUSH1 0x40 DUP3 ADD PUSH0 DUP3 ADD MLOAD PUSH2 0xB20 PUSH0 DUP6 ADD DUP3 PUSH2 0xAFD JUMP JUMPDEST POP PUSH1 0x20 DUP3 ADD MLOAD PUSH2 0xB33 PUSH1 0x20 DUP6 ADD DUP3 PUSH2 0xAFD JUMP JUMPDEST POP POP POP POP JUMP JUMPDEST PUSH0 DUP2 SWAP1 POP SWAP2 SWAP1 POP JUMP JUMPDEST PUSH2 0xB4B DUP2 PUSH2 0xB39 JUMP JUMPDEST DUP3 MSTORE POP POP JUMP JUMPDEST PUSH0 DUP2 ISZERO ISZERO SWAP1 POP SWAP2 SWAP1 POP JUMP JUMPDEST PUSH2 0xB65 DUP2 PUSH2 0xB51 JUMP JUMPDEST DUP3 MSTORE POP POP JUMP JUMPDEST PUSH0 PUSH1 0xE0 DUP3 ADD SWAP1 POP PUSH2 0xB7E PUSH0 DUP4 ADD DUP9 PUSH2 0xAEE JUMP JUMPDEST PUSH2 0xB8B PUSH1 0x20 DUP4 ADD DUP8 PUSH2 0xB0C JUMP JUMPDEST PUSH2 0xB98 PUSH1 0x60 DUP4 ADD DUP7 PUSH2 0xB0C JUMP JUMPDEST PUSH2 0xBA5 PUSH1 0xA0 DUP4 ADD DUP6 PUSH2 0xB42 JUMP JUMPDEST PUSH2 0xBB2 PUSH1 0xC0 DUP4 ADD DUP5 PUSH2 0xB5C JUMP JUMPDEST SWAP7 SWAP6 POP POP POP POP POP POP JUMP JUMPDEST PUSH2 0xBC5 DUP2 PUSH2 0xAE2 JUMP JUMPDEST DUP2 EQ PUSH2 0xBCF JUMPI PUSH0 PUSH0 REVERT JUMPDEST POP JUMP JUMPDEST PUSH0 DUP2 CALLDATALOAD SWAP1 POP PUSH2 0xBE0 DUP2 PUSH2 0xBBC JUMP JUMPDEST SWAP3 SWAP2 POP POP JUMP JUMPDEST PUSH0 PUSH0 PUSH0 PUSH0 PUSH0 PUSH0 PUSH0 PUSH1 0xC0 DUP9 DUP11 SUB SLT ISZERO PUSH2 0xC01 JUMPI PUSH2 0xC00 PUSH2 0x82F JUMP JUMPDEST JUMPDEST PUSH0 DUP9 ADD CALLDATALOAD PUSH8 0xFFFFFFFFFFFFFFFF DUP2 GT ISZERO PUSH2 0xC1E JUMPI PUSH2 0xC1D PUSH2 0x833 JUMP JUMPDEST JUMPDEST PUSH2 0xC2A DUP11 DUP3 DUP12 ADD PUSH2 0x843 JUMP JUMPDEST SWAP8 POP SWAP8 POP POP PUSH1 0x20 PUSH2 0xC3D DUP11 DUP3 DUP12 ADD PUSH2 0xBD2 JUMP JUMPDEST SWAP6 POP POP PUSH1 0x40 PUSH2 0xC4E DUP11 DUP3 DUP12 ADD PUSH2 0xBD2 JUMP JUMPDEST SWAP5 POP POP PUSH1 0x60 PUSH2 0xC5F DUP11 DUP3 DUP12 ADD PUSH2 0xBD2 JUMP JUMPDEST SWAP4 POP POP PUSH1 0x80 PUSH2 0xC70 DUP11 DUP3 DUP12 ADD PUSH2 0xBD2 JUMP JUMPDEST SWAP3 POP POP PUSH1 0xA0 PUSH2 0xC81 DUP11 DUP3 DUP12 ADD PUSH2 0xBD2 JUMP JUMPDEST SWAP2 POP POP SWAP3 SWAP6 SWAP9 SWAP2 SWAP5 SWAP8 POP SWAP3 SWAP6 POP JUMP JUMPDEST PUSH0 DUP2 SWAP1 POP SWAP3 SWAP2 POP POP JUMP JUMPDEST PUSH0 PUSH2 0xCA5 DUP4 DUP6 PUSH2 0xC90 JUMP JUMPDEST SWAP4 POP PUSH2 0xCB2 DUP4 DUP6 DUP5 PUSH2 0xA1F JUMP JUMPDEST DUP3 DUP5 ADD SWAP1 POP SWAP4 SWAP3 POP POP POP JUMP JUMPDEST PUSH0 PUSH2 0xCCA DUP3 DUP5 DUP7 PUSH2 0xC9A JUMP JUMPDEST SWAP2 POP DUP2 SWAP1 POP SWAP4 SWAP3 POP POP POP JUMP JUMPDEST PUSH32 0x5265636F7264206E6F7420666F756E6400000000000000000000000000000000 PUSH0 DUP3 ADD MSTORE POP JUMP JUMPDEST PUSH0 PUSH2 0xD0A PUSH1 0x10 DUP4 PUSH2 0x8ED JUMP JUMPDEST SWAP2 POP PUSH2 0xD15 DUP3 PUSH2 0xCD6 JUMP JUMPDEST PUSH1 0x20 DUP3 ADD SWAP1 POP SWAP2 SWAP1 POP JUMP JUMPDEST PUSH0 PUSH1 0x20 DUP3 ADD SWAP1 POP DUP2 DUP2 SUB PUSH0 DUP4 ADD MSTORE PUSH2 0xD37 DUP2 PUSH2 0xCFE JUMP JUMPDEST SWAP1 POP SWAP2 SWAP1 POP JUMP JUMPDEST PUSH32 0x4E487B7100000000000000000000000000000000000000000000000000000000 PUSH0 MSTORE PUSH1 0x12 PUSH1 0x4 MSTORE PUSH1 0x24 PUSH0 REVERT JUMPDEST PUSH32 0x4E487B7100000000000000000000000000000000000000000000000000000000 PUSH0 MSTORE PUSH1 0x11 PUSH1 0x4 MSTORE PUSH1 0x24 PUSH0 REVERT JUMPDEST PUSH0 PUSH2 0xDA2 DUP3 PUSH2 0xB39 JUMP JUMPDEST SWAP2 POP PUSH2 0xDAD DUP4 PUSH2 0xB39 JUMP JUMPDEST SWAP3 POP DUP3 PUSH2 0xDBD JUMPI PUSH2 0xDBC PUSH2 0xD3E JUMP JUMPDEST JUMPDEST DUP3 DUP3 DIV SWAP1 POP SWAP3 SWAP2 POP POP JUMP JUMPDEST PUSH0 PUSH2 0xDD2 DUP3 PUSH2 0xB39 JUMP JUMPDEST SWAP2 POP PUSH2 0xDDD DUP4 PUSH2 0xB39 JUMP JUMPDEST SWAP3 POP DUP3 PUSH2 0xDED JUMPI PUSH2 0xDEC PUSH2 0xD3E JUMP JUMPDEST JUMPDEST DUP3 DUP3 MOD SWAP1 POP SWAP3 SWAP2 POP POP JUMP JUMPDEST PUSH0 PUSH2 0xE02 DUP3 PUSH2 0x8E3 JUMP JUMPDEST PUSH2 0xE0C DUP2 DUP6 PUSH2 0xC90 JUMP JUMPDEST SWAP4 POP PUSH2 0xE1C DUP2 DUP6 PUSH1 0x20 DUP7 ADD PUSH2 0x8FD JUMP JUMPDEST DUP1 DUP5 ADD SWAP2 POP POP SWAP3 SWAP2 POP POP JUMP JUMPDEST PUSH32 0x2E00000000000000000000000000000000000000000000000000000000000000 PUSH0 DUP3 ADD MSTORE POP JUMP JUMPDEST PUSH0 PUSH2 0xE5C PUSH1 0x1 DUP4 PUSH2 0xC90 JUMP JUMPDEST SWAP2 POP PUSH2 0xE67 DUP3 PUSH2 0xE28 JUMP JUMPDEST PUSH1 0x1 DUP3 ADD SWAP1 POP SWAP2 SWAP1 POP JUMP JUMPDEST PUSH0 PUSH2 0xE7D DUP3 DUP7 PUSH2 0xDF8 JUMP JUMPDEST SWAP2 POP PUSH2 0xE88 DUP3 PUSH2 0xE50 JUMP JUMPDEST SWAP2 POP PUSH2 0xE94 DUP3 DUP6 PUSH2 0xDF8 JUMP JUMPDEST SWAP2 POP PUSH2 0xEA0 DUP3 DUP5 PUSH2 0xDF8 JUMP JUMPDEST SWAP2 POP DUP2 SWAP1 POP SWAP5 SWAP4 POP POP POP POP JUMP JUMPDEST PUSH32 0x496E76616C696420736869667400000000000000000000000000000000000000 PUSH0 DUP3 ADD MSTORE POP JUMP JUMPDEST PUSH0 PUSH2 0xEE1 PUSH1 0xD DUP4 PUSH2 0x8ED JUMP JUMPDEST SWAP2 POP PUSH2 0xEEC DUP3 PUSH2 0xEAD JUMP JUMPDEST PUSH1 0x20 DUP3 ADD SWAP1 POP SWAP2 SWAP1 POP JUMP JUMPDEST PUSH0 PUSH1 0x20 DUP3 ADD SWAP1 POP DUP2 DUP2 SUB PUSH0 DUP4 ADD MSTORE PUSH2 0xF0E DUP2 PUSH2 0xED5 JUMP JUMPDEST SWAP1 POP SWAP2 SWAP1 POP JUMP JUMPDEST PUSH32 0x496E76616C69642074696D650000000000000000000000000000000000000000 PUSH0 DUP3 ADD MSTORE POP JUMP JUMPDEST PUSH0 PUSH2 0xF49 PUSH1 0xC DUP4 PUSH2 0x8ED JUMP JUMPDEST SWAP2 POP PUSH2 0xF54 DUP3 PUSH2 0xF15 JUMP JUMPDEST PUSH1 0x20 DUP3 ADD SWAP1 POP SWAP2 SWAP1 POP JUMP JUMPDEST PUSH0 PUSH1 0x20 DUP3 ADD SWAP1 POP DUP2 DUP2 SUB PUSH0 DUP4 ADD MSTORE PUSH2 0xF76 DUP2 PUSH2 0xF3D JUMP JUMPDEST SWAP1 POP SWAP2 SWAP1 POP JUMP JUMPDEST PUSH32 0x54696D6573206E6F7420696E205368696674203120706572696F640000000000 PUSH0 DUP3 ADD MSTORE POP JUMP JUMPDEST PUSH0 PUSH2 0xFB1 PUSH1 0x1B DUP4 PUSH2 0x8ED JUMP JUMPDEST SWAP2 POP PUSH2 0xFBC DUP3 PUSH2 0xF7D JUMP JUMPDEST PUSH1 0x20 DUP3 ADD SWAP1 POP SWAP2 SWAP1 POP JUMP JUMPDEST PUSH0 PUSH1 0x20 DUP3 ADD SWAP1 POP DUP2 DUP2 SUB PUSH0 DUP4 ADD MSTORE PUSH2 0xFDE DUP2 PUSH2 0xFA5 JUMP JUMPDEST SWAP1 POP SWAP2 SWAP1 POP JUMP JUMPDEST PUSH32 0x54696D6573206E6F7420696E205368696674203220706572696F640000000000 PUSH0 DUP3 ADD MSTORE POP JUMP JUMPDEST PUSH0 PUSH2 0x1019 PUSH1 0x1B DUP4 PUSH2 0x8ED JUMP JUMPDEST SWAP2 POP PUSH2 0x1024 DUP3 PUSH2 0xFE5 JUMP JUMPDEST PUSH1 0x20 DUP3 ADD SWAP1 POP SWAP2 SWAP1 POP JUMP JUMPDEST PUSH0 PUSH1 0x20 DUP3 ADD SWAP1 POP DUP2 DUP2 SUB PUSH0 DUP4 ADD MSTORE PUSH2 0x1046 DUP2 PUSH2 0x100D JUMP JUMPDEST SWAP1 POP SWAP2 SWAP1 POP JUMP JUMPDEST PUSH32 0x457869742074696D65206D75737420626520616674657220656E747279207469 PUSH0 DUP3 ADD MSTORE PUSH32 0x6D65000000000000000000000000000000000000000000000000000000000000 PUSH1 0x20 DUP3 ADD MSTORE POP JUMP JUMPDEST PUSH0 PUSH2 0x10A7 PUSH1 0x22 DUP4 PUSH2 0x8ED JUMP JUMPDEST SWAP2 POP PUSH2 0x10B2 DUP3 PUSH2 0x104D JUMP JUMPDEST PUSH1 0x40 DUP3 ADD SWAP1 POP SWAP2 SWAP1 POP JUMP JUMPDEST PUSH0 PUSH1 0x20 DUP3 ADD SWAP1 POP DUP2 DUP2 SUB PUSH0 DUP4 ADD MSTORE PUSH2 0x10D4 DUP2 PUSH2 0x109B JUMP JUMPDEST SWAP1 POP SWAP2 SWAP1 POP JUMP JUMPDEST PUSH0 PUSH2 0xFFFF DUP3 AND SWAP1 POP SWAP2 SWAP1 POP JUMP JUMPDEST PUSH0 PUSH2 0x10F2 DUP3 PUSH2 0x10DB JUMP JUMPDEST SWAP2 POP PUSH2 0x10FD DUP4 PUSH2 0x10DB JUMP JUMPDEST SWAP3 POP DUP3 DUP3 SUB SWAP1 POP PUSH2 0xFFFF DUP2 GT ISZERO PUSH2 0x1117 JUMPI PUSH2 0x1116 PUSH2 0xD6B JUMP JUMPDEST JUMPDEST SWAP3 SWAP2 POP POP JUMP JUMPDEST PUSH0 PUSH2 0x1127 DUP3 PUSH2 0x10DB JUMP JUMPDEST SWAP2 POP PUSH2 0x1132 DUP4 PUSH2 0x10DB JUMP JUMPDEST SWAP3 POP DUP3 DUP3 ADD SWAP1 POP PUSH2 0xFFFF DUP2 GT ISZERO PUSH2 0x114C JUMPI PUSH2 0x114B PUSH2 0xD6B JUMP JUMPDEST JUMPDEST SWAP3 SWAP2 POP POP JUMP JUMPDEST PUSH0 PUSH2 0x115C DUP3 PUSH2 0x10DB JUMP JUMPDEST SWAP2 POP PUSH2 0x1167 DUP4 PUSH2 0x10DB JUMP JUMPDEST SWAP3 POP DUP3 PUSH2 0x1177 JUMPI PUSH2 0x1176 PUSH2 0xD3E JUMP JUMPDEST JUMPDEST DUP3 DUP3 DIV SWAP1 POP SWAP3 SWAP2 POP POP JUMP JUMPDEST PUSH0 PUSH2 0x118C DUP3 PUSH2 0xB39 JUMP JUMPDEST SWAP2 POP PUSH2 0x1197 DUP4 PUSH2 0xB39 JUMP JUMPDEST SWAP3 POP DUP3 DUP3 MUL PUSH2 0x11A5 DUP2 PUSH2 0xB39 JUMP JUMPDEST SWAP2 POP DUP3 DUP3 DIV DUP5 EQ DUP4 ISZERO OR PUSH2 0x11BC JUMPI PUSH2 0x11BB PUSH2 0xD6B JUMP JUMPDEST JUMPDEST POP SWAP3 SWAP2 POP POP JUMP JUMPDEST PUSH0 PUSH2 0x11CD DUP3 PUSH2 0xB39 JUMP JUMPDEST SWAP2 POP PUSH32 0xFFFFFFFFFFFFFFFFFFFFFFFFFFFFFFFFFFFFFFFFFFFFFFFFFFFFFFFFFFFFFFFF DUP3 SUB PUSH2 0x11FF JUMPI PUSH2 0x11FE PUSH2 0xD6B JUMP JUMPDEST JUMPDEST PUSH1 0x1 DUP3 ADD SWAP1 POP SWAP2 SWAP1 POP JUMP JUMPDEST PUSH0 PUSH2 0x1214 DUP3 PUSH2 0xB39 JUMP JUMPDEST SWAP2 POP PUSH2 0x121F DUP4 PUSH2 0xB39 JUMP JUMPDEST SWAP3 POP DUP3 DUP3 SUB SWAP1 POP DUP2 DUP2 GT ISZERO PUSH2 0x1237 JUMPI PUSH2 0x1236 PUSH2 0xD6B JUMP JUMPDEST JUMPDEST SWAP3 SWAP2 POP POP JUMP JUMPDEST PUSH0 PUSH2 0x1247 DUP3 PUSH2 0xB39 JUMP JUMPDEST SWAP2 POP PUSH2 0x1252 DUP4 PUSH2 0xB39 JUMP JUMPDEST SWAP3 POP DUP3 DUP3 ADD SWAP1 POP DUP1 DUP3 GT ISZERO PUSH2 0x126A JUMPI PUSH2 0x1269 PUSH2 0xD6B JUMP JUMPDEST JUMPDEST SWAP3 SWAP2 POP POP JUMP JUMPDEST PUSH32 0x4E487B7100000000000000000000000000000000000000000000000000000000 PUSH0 MSTORE PUSH1 0x32 PUSH1 0x4 MSTORE PUSH1 0x24 PUSH0 REVERT JUMPDEST PUSH0 PUSH2 0x12A7 DUP3 PUSH2 0x10DB JUMP JUMPDEST SWAP2 POP PUSH2 0x12B2 DUP4 PUSH2 0x10DB JUMP JUMPDEST SWAP3 POP DUP3 DUP3 MUL PUSH2 0x12C0 DUP2 PUSH2 0x10DB JUMP JUMPDEST SWAP2 POP DUP1 DUP3 EQ PUSH2 0x12D2 JUMPI PUSH2 0x12D1 PUSH2 0xD6B JUMP JUMPDEST JUMPDEST POP SWAP3 SWAP2 POP POP JUMP INVALID LOG2 PUSH5 0x6970667358 0x22 SLT KECCAK256 0xB0 PREVRANDAO GT BYTE RETURNCONTRACT 0x55 SWAP6 PUSH22 0xEF5325757FC3184F4C9C336E86097308C687E76ED25F PUSH31 0x9364736F6C634300081E003300000000000000000000000000000000000000 "
		},
		"gasEstimates": {
			"creation": {
				"codeDepositCost": "975800",
				"executionCost": "1012",
				"totalCost": "976812"
			},
			"external": {
				"getChargeInDollars(string)": "infinite",
				"recordParking(string,uint8,uint8,uint8,uint8,uint8)": "infinite",
				"records(string)": "infinite"
			},
			"internal": {
				"toMinutes(struct ParkingSystem.Time memory)": "infinite"
			}
		},
		"methodIdentifiers": {
			"getChargeInDollars(string)": "09d232ac",
			"recordParking(string,uint8,uint8,uint8,uint8,uint8)": "bd530e0e",
			"records(string)": "541e771d"
		}
	},
	"abi": [
		{
			"inputs": [
				{
					"internalType": "string",
					"name": "vehicleNumber",
					"type": "string"
				}
			],
			"name": "getChargeInDollars",
			"outputs": [
				{
					"internalType": "string",
					"name": "",
					"type": "string"
				}
			],
			"stateMutability": "view",
			"type": "function"
		},
		{
			"inputs": [
				{
					"internalType": "string",
					"name": "vehicleNumber",
					"type": "string"
				},
				{
					"internalType": "uint8",
					"name": "shift",
					"type": "uint8"
				},
				{
					"internalType": "uint8",
					"name": "entryHour",
					"type": "uint8"
				},
				{
					"internalType": "uint8",
					"name": "entryMinute",
					"type": "uint8"
				},
				{
					"internalType": "uint8",
					"name": "exitHour",
					"type": "uint8"
				},
				{
					"internalType": "uint8",
					"name": "exitMinute",
					"type": "uint8"
				}
			],
			"name": "recordParking",
			"outputs": [],
			"stateMutability": "nonpayable",
			"type": "function"
		},
		{
			"inputs": [
				{
					"internalType": "string",
					"name": "",
					"type": "string"
				}
			],
			"name": "records",
			"outputs": [
				{
					"internalType": "uint8",
					"name": "shift",
					"type": "uint8"
				},
				{
					"components": [
						{
							"internalType": "uint8",
							"name": "hour",
							"type": "uint8"
						},
						{
							"internalType": "uint8",
							"name": "minute",
							"type": "uint8"
						}
					],
					"internalType": "struct ParkingSystem.Time",
					"name": "entryTime",
					"type": "tuple"
				},
				{
					"components": [
						{
							"internalType": "uint8",
							"name": "hour",
							"type": "uint8"
						},
						{
							"internalType": "uint8",
							"name": "minute",
							"type": "uint8"
						}
					],
					"internalType": "struct ParkingSystem.Time",
					"name": "exitTime",
					"type": "tuple"
				},
				{
					"internalType": "uint256",
					"name": "chargeCents",
					"type": "uint256"
				},
				{
					"internalType": "bool",
					"name": "exists",
					"type": "bool"
				}
			],
			"stateMutability": "view",
			"type": "function"
		}
	]
}