{
	"data": {
		"bytecode": {
			"linkReferences": {},
			"object": "608060405234801561001057600080fd5b50610a9f806100206000396000f3fe608060405234801561001057600080fd5b506004361061004c5760003560e01c806353b62866146100515780637acc0b201461006d578063b9db15b41461009f578063c27ed2a2146100d1575b600080fd5b61006b600480360381019061006691906103ba565b6100ed565b005b610087600480360381019061008291906103fa565b610175565b604051610096939291906104c6565b60405180910390f35b6100b960048036038101906100b491906103fa565b610227565b6040516100c8939291906104c6565b60405180910390f35b6100eb60048036038101906100e69190610639565b610310565b005b80600080848152602001908152602001600020600201541015610145576040517f08c379a000000000000000000000000000000000000000000000000000000000815260040161013c90610708565b60405180910390fd5b80600080848152602001908152602001600020600201600082825461016a9190610757565b925050819055505050565b6000602052806000526040600020600091509050806000018054610198906107ba565b80601f01602080910402602001604051908101604052809291908181526020018280546101c4906107ba565b80156102115780601f106101e657610100808354040283529160200191610211565b820191906000526020600020905b8154815290600101906020018083116101f457829003601f168201915b5050505050908060010154908060020154905083565b6060600080600080600086815260200190815260200160002060405180606001604052908160008201805461025b906107ba565b80601f0160208091040260200160405190810160405280929190818152602001828054610287906107ba565b80156102d45780601f106102a9576101008083540402835291602001916102d4565b820191906000526020600020905b8154815290600101906020018083116102b757829003601f168201915b50505050508152602001600182015481526020016002820154815250509050806000015181602001518260400151935093509350509193909250565b60405180606001604052808481526020018381526020018281525060008086815260200190815260200160002060008201518160000190816103529190610997565b50602082015181600101556040820151816002015590505050505050565b6000604051905090565b600080fd5b600080fd5b6000819050919050565b61039781610384565b81146103a257600080fd5b50565b6000813590506103b48161038e565b92915050565b600080604083850312156103d1576103d061037a565b5b60006103df858286016103a5565b92505060206103f0858286016103a5565b9150509250929050565b6000602082840312156104105761040f61037a565b5b600061041e848285016103a5565b91505092915050565b600081519050919050565b600082825260208201905092915050565b60005b83811015610461578082015181840152602081019050610446565b60008484015250505050565b6000601f19601f8301169050919050565b600061048982610427565b6104938185610432565b93506104a3818560208601610443565b6104ac8161046d565b840191505092915050565b6104c081610384565b82525050565b600060608201905081810360008301526104e0818661047e565b90506104ef60208301856104b7565b6104fc60408301846104b7565b949350505050565b600080fd5b600080fd5b7f4e487b7100000000000000000000000000000000000000000000000000000000600052604160045260246000fd5b6105468261046d565b810181811067ffffffffffffffff821117156105655761056461050e565b5b80604052505050565b6000610578610370565b9050610584828261053d565b919050565b600067ffffffffffffffff8211156105a4576105a361050e565b5b6105ad8261046d565b9050602081019050919050565b82818337600083830152505050565b60006105dc6105d784610589565b61056e565b9050828152602081018484840111156105f8576105f7610509565b5b6106038482856105ba565b509392505050565b600082601f8301126106205761061f610504565b5b81356106308482602086016105c9565b91505092915050565b600080600080608085870312156106535761065261037a565b5b6000610661878288016103a5565b945050602085013567ffffffffffffffff8111156106825761068161037f565b5b61068e8782880161060b565b935050604061069f878288016103a5565b92505060606106b0878288016103a5565b91505092959194509250565b7f4e6f7420656e6f7567682073746f636b00000000000000000000000000000000600082015250565b60006106f2601083610432565b91506106fd826106bc565b602082019050919050565b60006020820190508181036000830152610721816106e5565b9050919050565b7f4e487b7100000000000000000000000000000000000000000000000000000000600052601160045260246000fd5b600061076282610384565b915061076d83610384565b925082820390508181111561078557610784610728565b5b92915050565b7f4e487b7100000000000000000000000000000000000000000000000000000000600052602260045260246000fd5b600060028204905060018216806107d257607f821691505b6020821081036107e5576107e461078b565b5b50919050565b60008190508160005260206000209050919050565b60006020601f8301049050919050565b600082821b905092915050565b60006008830261084d7fffffffffffffffffffffffffffffffffffffffffffffffffffffffffffffffff82610810565b6108578683610810565b95508019841693508086168417925050509392505050565b6000819050919050565b600061089461088f61088a84610384565b61086f565b610384565b9050919050565b6000819050919050565b6108ae83610879565b6108c26108ba8261089b565b84845461081d565b825550505050565b600090565b6108d76108ca565b6108e28184846108a5565b505050565b5b81811015610906576108fb6000826108cf565b6001810190506108e8565b5050565b601f82111561094b5761091c816107eb565b61092584610800565b81016020851015610934578190505b61094861094085610800565b8301826108e7565b50505b505050565b600082821c905092915050565b600061096e60001984600802610950565b1980831691505092915050565b6000610987838361095d565b9150826002028217905092915050565b6109a082610427565b67ffffffffffffffff8111156109b9576109b861050e565b5b6109c382546107ba565b6109ce82828561090a565b600060209050601f831160018114610a0157600084156109ef578287015190505b6109f9858261097b565b865550610a61565b601f198416610a0f866107eb565b60005b82811015610a3757848901518255600182019150602085019450602081019050610a12565b86831015610a545784890151610a50601f89168261095d565b8355505b6001600288020188555050505b50505050505056fea264697066735822122004a36a9b8b15adfbda220d00ffbd81ef451f32c74d1c2f9884b684313b2edcdb64736f6c63430008120033",
			"opcodes": "PUSH1 0x80 PUSH1 0x40 MSTORE CALLVALUE DUP1 ISZERO PUSH2 0x10 JUMPI PUSH1 0x0 DUP1 REVERT JUMPDEST POP PUSH2 0xA9F DUP1 PUSH2 0x20 PUSH1 0x0 CODECOPY PUSH1 0x0 RETURN INVALID PUSH1 0x80 PUSH1 0x40 MSTORE CALLVALUE DUP1 ISZERO PUSH2 0x10 JUMPI PUSH1 0x0 DUP1 REVERT JUMPDEST POP PUSH1 0x4 CALLDATASIZE LT PUSH2 0x4C JUMPI PUSH1 0x0 CALLDATALOAD PUSH1 0xE0 SHR DUP1 PUSH4 0x53B62866 EQ PUSH2 0x51 JUMPI DUP1 PUSH4 0x7ACC0B20 EQ PUSH2 0x6D JUMPI DUP1 PUSH4 0xB9DB15B4 EQ PUSH2 0x9F JUMPI DUP1 PUSH4 0xC27ED2A2 EQ PUSH2 0xD1 JUMPI JUMPDEST PUSH1 0x0 DUP1 REVERT JUMPDEST PUSH2 0x6B PUSH1 0x4 DUP1 CALLDATASIZE SUB DUP2 ADD SWAP1 PUSH2 0x66 SWAP2 SWAP1 PUSH2 0x3BA JUMP JUMPDEST PUSH2 0xED JUMP JUMPDEST STOP JUMPDEST PUSH2 0x87 PUSH1 0x4 DUP1 CALLDATASIZE SUB DUP2 ADD SWAP1 PUSH2 0x82 SWAP2 SWAP1 PUSH2 0x3FA JUMP JUMPDEST PUSH2 0x175 JUMP JUMPDEST PUSH1 0x40 MLOAD PUSH2 0x96 SWAP4 SWAP3 SWAP2 SWAP1 PUSH2 0x4C6 JUMP JUMPDEST PUSH1 0x40 MLOAD DUP1 SWAP2 SUB SWAP1 RETURN JUMPDEST PUSH2 0xB9 PUSH1 0x4 DUP1 CALLDATASIZE SUB DUP2 ADD SWAP1 PUSH2 0xB4 SWAP2 SWAP1 PUSH2 0x3FA JUMP JUMPDEST PUSH2 0x227 JUMP JUMPDEST PUSH1 0x40 MLOAD PUSH2 0xC8 SWAP4 SWAP3 SWAP2 SWAP1 PUSH2 0x4C6 JUMP JUMPDEST PUSH1 0x40 MLOAD DUP1 SWAP2 SUB SWAP1 RETURN JUMPDEST PUSH2 0xEB PUSH1 0x4 DUP1 CALLDATASIZE SUB DUP2 ADD SWAP1 PUSH2 0xE6 SWAP2 SWAP1 PUSH2 0x639 JUMP JUMPDEST PUSH2 0x310 JUMP JUMPDEST STOP JUMPDEST DUP1 PUSH1 0x0 DUP1 DUP5 DUP2 MSTORE PUSH1 0x20 ADD SWAP1 DUP2 MSTORE PUSH1 0x20 ADD PUSH1 0x0 KECCAK256 PUSH1 0x2 ADD SLOAD LT ISZERO PUSH2 0x145 JUMPI PUSH1 0x40 MLOAD PUSH32 0x8C379A000000000000000000000000000000000000000000000000000000000 DUP2 MSTORE PUSH1 0x4 ADD PUSH2 0x13C SWAP1 PUSH2 0x708 JUMP JUMPDEST PUSH1 0x40 MLOAD DUP1 SWAP2 SUB SWAP1 REVERT JUMPDEST DUP1 PUSH1 0x0 DUP1 DUP5 DUP2 MSTORE PUSH1 0x20 ADD SWAP1 DUP2 MSTORE PUSH1 0x20 ADD PUSH1 0x0 KECCAK256 PUSH1 0x2 ADD PUSH1 0x0 DUP3 DUP3 SLOAD PUSH2 0x16A SWAP2 SWAP1 PUSH2 0x757 JUMP JUMPDEST SWAP3 POP POP DUP2 SWAP1 SSTORE POP POP POP JUMP JUMPDEST PUSH1 0x0 PUSH1 0x20 MSTORE DUP1 PUSH1 0x0 MSTORE PUSH1 0x40 PUSH1 0x0 KECCAK256 PUSH1 0x0 SWAP2 POP SWAP1 POP DUP1 PUSH1 0x0 ADD DUP1 SLOAD PUSH2 0x198 SWAP1 PUSH2 0x7BA JUMP JUMPDEST DUP1 PUSH1 0x1F ADD PUSH1 0x20 DUP1 SWAP2 DIV MUL PUSH1 0x20 ADD PUSH1 0x40 MLOAD SWAP1 DUP2 ADD PUSH1 0x40 MSTORE DUP1 SWAP3 SWAP2 SWAP1 DUP2 DUP2 MSTORE PUSH1 0x20 ADD DUP3 DUP1 SLOAD PUSH2 0x1C4 SWAP1 PUSH2 0x7BA JUMP JUMPDEST DUP1 ISZERO PUSH2 0x211 JUMPI DUP1 PUSH1 0x1F LT PUSH2 0x1E6 JUMPI PUSH2 0x100 DUP1 DUP4 SLOAD DIV MUL DUP4 MSTORE SWAP2 PUSH1 0x20 ADD SWAP2 PUSH2 0x211 JUMP JUMPDEST DUP3 ADD SWAP2 SWAP1 PUSH1 0x0 MSTORE PUSH1 0x20 PUSH1 0x0 KECCAK256 SWAP1 JUMPDEST DUP2 SLOAD DUP2 MSTORE SWAP1 PUSH1 0x1 ADD SWAP1 PUSH1 0x20 ADD DUP1 DUP4 GT PUSH2 0x1F4 JUMPI DUP3 SWAP1 SUB PUSH1 0x1F AND DUP3 ADD SWAP2 JUMPDEST POP POP POP POP POP SWAP1 DUP1 PUSH1 0x1 ADD SLOAD SWAP1 DUP1 PUSH1 0x2 ADD SLOAD SWAP1 POP DUP4 JUMP JUMPDEST PUSH1 0x60 PUSH1 0x0 DUP1 PUSH1 0x0 DUP1 PUSH1 0x0 DUP7 DUP2 MSTORE PUSH1 0x20 ADD SWAP1 DUP2 MSTORE PUSH1 0x20 ADD PUSH1 0x0 KECCAK256 PUSH1 0x40 MLOAD DUP1 PUSH1 0x60 ADD PUSH1 0x40 MSTORE SWAP1 DUP2 PUSH1 0x0 DUP3 ADD DUP1 SLOAD PUSH2 0x25B SWAP1 PUSH2 0x7BA JUMP JUMPDEST DUP1 PUSH1 0x1F ADD PUSH1 0x20 DUP1 SWAP2 DIV MUL PUSH1 0x20 ADD PUSH1 0x40 MLOAD SWAP1 DUP2 ADD PUSH1 0x40 MSTORE DUP1 SWAP3 SWAP2 SWAP1 DUP2 DUP2 MSTORE PUSH1 0x20 ADD DUP3 DUP1 SLOAD PUSH2 0x287 SWAP1 PUSH2 0x7BA JUMP JUMPDEST DUP1 ISZERO PUSH2 0x2D4 JUMPI DUP1 PUSH1 0x1F LT PUSH2 0x2A9 JUMPI PUSH2 0x100 DUP1 DUP4 SLOAD DIV MUL DUP4 MSTORE SWAP2 PUSH1 0x20 ADD SWAP2 PUSH2 0x2D4 JUMP JUMPDEST DUP3 ADD SWAP2 SWAP1 PUSH1 0x0 MSTORE PUSH1 0x20 PUSH1 0x0 KECCAK256 SWAP1 JUMPDEST DUP2 SLOAD DUP2 MSTORE SWAP1 PUSH1 0x1 ADD SWAP1 PUSH1 0x20 ADD DUP1 DUP4 GT PUSH2 0x2B7 JUMPI DUP3 SWAP1 SUB PUSH1 0x1F AND DUP3 ADD SWAP2 JUMPDEST POP POP POP POP POP DUP2 MSTORE PUSH1 0x20 ADD PUSH1 0x1 DUP3 ADD SLOAD DUP2 MSTORE PUSH1 0x20 ADD PUSH1 0x2 DUP3 ADD SLOAD DUP2 MSTORE POP POP SWAP1 POP DUP1 PUSH1 0x0 ADD MLOAD DUP2 PUSH1 0x20 ADD MLOAD DUP3 PUSH1 0x40 ADD MLOAD SWAP4 POP SWAP4 POP SWAP4 POP POP SWAP2 SWAP4 SWAP1 SWAP3 POP JUMP JUMPDEST PUSH1 0x40 MLOAD DUP1 PUSH1 0x60 ADD PUSH1 0x40 MSTORE DUP1 DUP5 DUP2 MSTORE PUSH1 0x20 ADD DUP4 DUP2 MSTORE PUSH1 0x20 ADD DUP3 DUP2 MSTORE POP PUSH1 0x0 DUP1 DUP7 DUP2 MSTORE PUSH1 0x20 ADD SWAP1 DUP2 MSTORE PUSH1 0x20 ADD PUSH1 0x0 KECCAK256 PUSH1 0x0 DUP3 ADD MLOAD DUP2 PUSH1 0x0 ADD SWAP1 DUP2 PUSH2 0x352 SWAP2 SWAP1 PUSH2 0x997 JUMP JUMPDEST POP PUSH1 0x20 DUP3 ADD MLOAD DUP2 PUSH1 0x1 ADD SSTORE PUSH1 0x40 DUP3 ADD MLOAD DUP2 PUSH1 0x2 ADD SSTORE SWAP1 POP POP POP POP POP POP JUMP JUMPDEST PUSH1 0x0 PUSH1 0x40 MLOAD SWAP1 POP SWAP1 JUMP JUMPDEST PUSH1 0x0 DUP1 REVERT JUMPDEST PUSH1 0x0 DUP1 REVERT JUMPDEST PUSH1 0x0 DUP2 SWAP1 POP SWAP2 SWAP1 POP JUMP JUMPDEST PUSH2 0x397 DUP2 PUSH2 0x384 JUMP JUMPDEST DUP2 EQ PUSH2 0x3A2 JUMPI PUSH1 0x0 DUP1 REVERT JUMPDEST POP JUMP JUMPDEST PUSH1 0x0 DUP2 CALLDATALOAD SWAP1 POP PUSH2 0x3B4 DUP2 PUSH2 0x38E JUMP JUMPDEST SWAP3 SWAP2 POP POP JUMP JUMPDEST PUSH1 0x0 DUP1 PUSH1 0x40 DUP4 DUP6 SUB SLT ISZERO PUSH2 0x3D1 JUMPI PUSH2 0x3D0 PUSH2 0x37A JUMP JUMPDEST JUMPDEST PUSH1 0x0 PUSH2 0x3DF DUP6 DUP3 DUP7 ADD PUSH2 0x3A5 JUMP JUMPDEST SWAP3 POP POP PUSH1 0x20 PUSH2 0x3F0 DUP6 DUP3 DUP7 ADD PUSH2 0x3A5 JUMP JUMPDEST SWAP2 POP POP SWAP3 POP SWAP3 SWAP1 POP JUMP JUMPDEST PUSH1 0x0 PUSH1 0x20 DUP3 DUP5 SUB SLT ISZERO PUSH2 0x410 JUMPI PUSH2 0x40F PUSH2 0x37A JUMP JUMPDEST JUMPDEST PUSH1 0x0 PUSH2 0x41E DUP5 DUP3 DUP6 ADD PUSH2 0x3A5 JUMP JUMPDEST SWAP2 POP POP SWAP3 SWAP2 POP POP JUMP JUMPDEST PUSH1 0x0 DUP2 MLOAD SWAP1 POP SWAP2 SWAP1 POP JUMP JUMPDEST PUSH1 0x0 DUP3 DUP3 MSTORE PUSH1 0x20 DUP3 ADD SWAP1 POP SWAP3 SWAP2 POP POP JUMP JUMPDEST PUSH1 0x0 JUMPDEST DUP4 DUP2 LT ISZERO PUSH2 0x461 JUMPI DUP1 DUP3 ADD MLOAD DUP2 DUP5 ADD MSTORE PUSH1 0x20 DUP2 ADD SWAP1 POP PUSH2 0x446 JUMP JUMPDEST PUSH1 0x0 DUP5 DUP5 ADD MSTORE POP POP POP POP JUMP JUMPDEST PUSH1 0x0 PUSH1 0x1F NOT PUSH1 0x1F DUP4 ADD AND SWAP1 POP SWAP2 SWAP1 POP JUMP JUMPDEST PUSH1 0x0 PUSH2 0x489 DUP3 PUSH2 0x427 JUMP JUMPDEST PUSH2 0x493 DUP2 DUP6 PUSH2 0x432 JUMP JUMPDEST SWAP4 POP PUSH2 0x4A3 DUP2 DUP6 PUSH1 0x20 DUP7 ADD PUSH2 0x443 JUMP JUMPDEST PUSH2 0x4AC DUP2 PUSH2 0x46D JUMP JUMPDEST DUP5 ADD SWAP2 POP POP SWAP3 SWAP2 POP POP JUMP JUMPDEST PUSH2 0x4C0 DUP2 PUSH2 0x384 JUMP JUMPDEST DUP3 MSTORE POP POP JUMP JUMPDEST PUSH1 0x0 PUSH1 0x60 DUP3 ADD SWAP1 POP DUP2 DUP2 SUB PUSH1 0x0 DUP4 ADD MSTORE PUSH2 0x4E0 DUP2 DUP7 PUSH2 0x47E JUMP JUMPDEST SWAP1 POP PUSH2 0x4EF PUSH1 0x20 DUP4 ADD DUP6 PUSH2 0x4B7 JUMP JUMPDEST PUSH2 0x4FC PUSH1 0x40 DUP4 ADD DUP5 PUSH2 0x4B7 JUMP JUMPDEST SWAP5 SWAP4 POP POP POP POP JUMP JUMPDEST PUSH1 0x0 DUP1 REVERT JUMPDEST PUSH1 0x0 DUP1 REVERT JUMPDEST PUSH32 0x4E487B7100000000000000000000000000000000000000000000000000000000 PUSH1 0x0 MSTORE PUSH1 0x41 PUSH1 0x4 MSTORE PUSH1 0x24 PUSH1 0x0 REVERT JUMPDEST PUSH2 0x546 DUP3 PUSH2 0x46D JUMP JUMPDEST DUP2 ADD DUP2 DUP2 LT PUSH8 0xFFFFFFFFFFFFFFFF DUP3 GT OR ISZERO PUSH2 0x565 JUMPI PUSH2 0x564 PUSH2 0x50E JUMP JUMPDEST JUMPDEST DUP1 PUSH1 0x40 MSTORE POP POP POP JUMP JUMPDEST PUSH1 0x0 PUSH2 0x578 PUSH2 0x370 JUMP JUMPDEST SWAP1 POP PUSH2 0x584 DUP3 DUP3 PUSH2 0x53D JUMP JUMPDEST SWAP2 SWAP1 POP JUMP JUMPDEST PUSH1 0x0 PUSH8 0xFFFFFFFFFFFFFFFF DUP3 GT ISZERO PUSH2 0x5A4 JUMPI PUSH2 0x5A3 PUSH2 0x50E JUMP JUMPDEST JUMPDEST PUSH2 0x5AD DUP3 PUSH2 0x46D JUMP JUMPDEST SWAP1 POP PUSH1 0x20 DUP2 ADD SWAP1 POP SWAP2 SWAP1 POP JUMP JUMPDEST DUP3 DUP2 DUP4 CALLDATACOPY PUSH1 0x0 DUP4 DUP4 ADD MSTORE POP POP POP JUMP JUMPDEST PUSH1 0x0 PUSH2 0x5DC PUSH2 0x5D7 DUP5 PUSH2 0x589 JUMP JUMPDEST PUSH2 0x56E JUMP JUMPDEST SWAP1 POP DUP3 DUP2 MSTORE PUSH1 0x20 DUP2 ADD DUP5 DUP5 DUP5 ADD GT ISZERO PUSH2 0x5F8 JUMPI PUSH2 0x5F7 PUSH2 0x509 JUMP JUMPDEST JUMPDEST PUSH2 0x603 DUP5 DUP3 DUP6 PUSH2 0x5BA JUMP JUMPDEST POP SWAP4 SWAP3 POP POP POP JUMP JUMPDEST PUSH1 0x0 DUP3 PUSH1 0x1F DUP4 ADD SLT PUSH2 0x620 JUMPI PUSH2 0x61F PUSH2 0x504 JUMP JUMPDEST JUMPDEST DUP2 CALLDATALOAD PUSH2 0x630 DUP5 DUP3 PUSH1 0x20 DUP7 ADD PUSH2 0x5C9 JUMP JUMPDEST SWAP2 POP POP SWAP3 SWAP2 POP POP JUMP JUMPDEST PUSH1 0x0 DUP1 PUSH1 0x0 DUP1 PUSH1 0x80 DUP6 DUP8 SUB SLT ISZERO PUSH2 0x653 JUMPI PUSH2 0x652 PUSH2 0x37A JUMP JUMPDEST JUMPDEST PUSH1 0x0 PUSH2 0x661 DUP8 DUP3 DUP9 ADD PUSH2 0x3A5 JUMP JUMPDEST SWAP5 POP POP PUSH1 0x20 DUP6 ADD CALLDATALOAD PUSH8 0xFFFFFFFFFFFFFFFF DUP2 GT ISZERO PUSH2 0x682 JUMPI PUSH2 0x681 PUSH2 0x37F JUMP JUMPDEST JUMPDEST PUSH2 0x68E DUP8 DUP3 DUP9 ADD PUSH2 0x60B JUMP JUMPDEST SWAP4 POP POP PUSH1 0x40 PUSH2 0x69F DUP8 DUP3 DUP9 ADD PUSH2 0x3A5 JUMP JUMPDEST SWAP3 POP POP PUSH1 0x60 PUSH2 0x6B0 DUP8 DUP3 DUP9 ADD PUSH2 0x3A5 JUMP JUMPDEST SWAP2 POP POP SWAP3 SWAP6 SWAP2 SWAP5 POP SWAP3 POP JUMP JUMPDEST PUSH32 0x4E6F7420656E6F7567682073746F636B00000000000000000000000000000000 PUSH1 0x0 DUP3 ADD MSTORE POP JUMP JUMPDEST PUSH1 0x0 PUSH2 0x6F2 PUSH1 0x10 DUP4 PUSH2 0x432 JUMP JUMPDEST SWAP2 POP PUSH2 0x6FD DUP3 PUSH2 0x6BC JUMP JUMPDEST PUSH1 0x20 DUP3 ADD SWAP1 POP SWAP2 SWAP1 POP JUMP JUMPDEST PUSH1 0x0 PUSH1 0x20 DUP3 ADD SWAP1 POP DUP2 DUP2 SUB PUSH1 0x0 DUP4 ADD MSTORE PUSH2 0x721 DUP2 PUSH2 0x6E5 JUMP JUMPDEST SWAP1 POP SWAP2 SWAP1 POP JUMP JUMPDEST PUSH32 0x4E487B7100000000000000000000000000000000000000000000000000000000 PUSH1 0x0 MSTORE PUSH1 0x11 PUSH1 0x4 MSTORE PUSH1 0x24 PUSH1 0x0 REVERT JUMPDEST PUSH1 0x0 PUSH2 0x762 DUP3 PUSH2 0x384 JUMP JUMPDEST SWAP2 POP PUSH2 0x76D DUP4 PUSH2 0x384 JUMP JUMPDEST SWAP3 POP DUP3 DUP3 SUB SWAP1 POP DUP2 DUP2 GT ISZERO PUSH2 0x785 JUMPI PUSH2 0x784 PUSH2 0x728 JUMP JUMPDEST JUMPDEST SWAP3 SWAP2 POP POP JUMP JUMPDEST PUSH32 0x4E487B7100000000000000000000000000000000000000000000000000000000 PUSH1 0x0 MSTORE PUSH1 0x22 PUSH1 0x4 MSTORE PUSH1 0x24 PUSH1 0x0 REVERT JUMPDEST PUSH1 0x0 PUSH1 0x2 DUP3 DIV SWAP1 POP PUSH1 0x1 DUP3 AND DUP1 PUSH2 0x7D2 JUMPI PUSH1 0x7F DUP3 AND SWAP2 POP JUMPDEST PUSH1 0x20 DUP3 LT DUP2 SUB PUSH2 0x7E5 JUMPI PUSH2 0x7E4 PUSH2 0x78B JUMP JUMPDEST JUMPDEST POP SWAP2 SWAP1 POP JUMP JUMPDEST PUSH1 0x0 DUP2 SWAP1 POP DUP2 PUSH1 0x0 MSTORE PUSH1 0x20 PUSH1 0x0 KECCAK256 SWAP1 POP SWAP2 SWAP1 POP JUMP JUMPDEST PUSH1 0x0 PUSH1 0x20 PUSH1 0x1F DUP4 ADD DIV SWAP1 POP SWAP2 SWAP1 POP JUMP JUMPDEST PUSH1 0x0 DUP3 DUP3 SHL SWAP1 POP SWAP3 SWAP2 POP POP JUMP JUMPDEST PUSH1 0x0 PUSH1 0x8 DUP4 MUL PUSH2 0x84D PUSH32 0xFFFFFFFFFFFFFFFFFFFFFFFFFFFFFFFFFFFFFFFFFFFFFFFFFFFFFFFFFFFFFFFF DUP3 PUSH2 0x810 JUMP JUMPDEST PUSH2 0x857 DUP7 DUP4 PUSH2 0x810 JUMP JUMPDEST SWAP6 POP DUP1 NOT DUP5 AND SWAP4 POP DUP1 DUP7 AND DUP5 OR SWAP3 POP POP POP SWAP4 SWAP3 POP POP POP JUMP JUMPDEST PUSH1 0x0 DUP2 SWAP1 POP SWAP2 SWAP1 POP JUMP JUMPDEST PUSH1 0x0 PUSH2 0x894 PUSH2 0x88F PUSH2 0x88A DUP5 PUSH2 0x384 JUMP JUMPDEST PUSH2 0x86F JUMP JUMPDEST PUSH2 0x384 JUMP JUMPDEST SWAP1 POP SWAP2 SWAP1 POP JUMP JUMPDEST PUSH1 0x0 DUP2 SWAP1 POP SWAP2 SWAP1 POP JUMP JUMPDEST PUSH2 0x8AE DUP4 PUSH2 0x879 JUMP JUMPDEST PUSH2 0x8C2 PUSH2 0x8BA DUP3 PUSH2 0x89B JUMP JUMPDEST DUP5 DUP5 SLOAD PUSH2 0x81D JUMP JUMPDEST DUP3 SSTORE POP POP POP POP JUMP JUMPDEST PUSH1 0x0 SWAP1 JUMP JUMPDEST PUSH2 0x8D7 PUSH2 0x8CA JUMP JUMPDEST PUSH2 0x8E2 DUP2 DUP5 DUP5 PUSH2 0x8A5 JUMP JUMPDEST POP POP POP JUMP JUMPDEST JUMPDEST DUP2 DUP2 LT ISZERO PUSH2 0x906 JUMPI PUSH2 0x8FB PUSH1 0x0 DUP3 PUSH2 0x8CF JUMP JUMPDEST PUSH1 0x1 DUP2 ADD SWAP1 POP PUSH2 0x8E8 JUMP JUMPDEST POP POP JUMP JUMPDEST PUSH1 0x1F DUP3 GT ISZERO PUSH2 0x94B JUMPI PUSH2 0x91C DUP2 PUSH2 0x7EB JUMP JUMPDEST PUSH2 0x925 DUP5 PUSH2 0x800 JUMP JUMPDEST DUP2 ADD PUSH1 0x20 DUP6 LT ISZERO PUSH2 0x934 JUMPI DUP2 SWAP1 POP JUMPDEST PUSH2 0x948 PUSH2 0x940 DUP6 PUSH2 0x800 JUMP JUMPDEST DUP4 ADD DUP3 PUSH2 0x8E7 JUMP JUMPDEST POP POP JUMPDEST POP POP POP JUMP JUMPDEST PUSH1 0x0 DUP3 DUP3 SHR SWAP1 POP SWAP3 SWAP2 POP POP JUMP JUMPDEST PUSH1 0x0 PUSH2 0x96E PUSH1 0x0 NOT DUP5 PUSH1 0x8 MUL PUSH2 0x950 JUMP JUMPDEST NOT DUP1 DUP4 AND SWAP2 POP POP SWAP3 SWAP2 POP POP JUMP JUMPDEST PUSH1 0x0 PUSH2 0x987 DUP4 DUP4 PUSH2 0x95D JUMP JUMPDEST SWAP2 POP DUP3 PUSH1 0x2 MUL DUP3 OR SWAP1 POP SWAP3 SWAP2 POP POP JUMP JUMPDEST PUSH2 0x9A0 DUP3 PUSH2 0x427 JUMP JUMPDEST PUSH8 0xFFFFFFFFFFFFFFFF DUP2 GT ISZERO PUSH2 0x9B9 JUMPI PUSH2 0x9B8 PUSH2 0x50E JUMP JUMPDEST JUMPDEST PUSH2 0x9C3 DUP3 SLOAD PUSH2 0x7BA JUMP JUMPDEST PUSH2 0x9CE DUP3 DUP3 DUP6 PUSH2 0x90A JUMP JUMPDEST PUSH1 0x0 PUSH1 0x20 SWAP1 POP PUSH1 0x1F DUP4 GT PUSH1 0x1 DUP2 EQ PUSH2 0xA01 JUMPI PUSH1 0x0 DUP5 ISZERO PUSH2 0x9EF JUMPI DUP3 DUP8 ADD MLOAD SWAP1 POP JUMPDEST PUSH2 0x9F9 DUP6 DUP3 PUSH2 0x97B JUMP JUMPDEST DUP7 SSTORE POP PUSH2 0xA61 JUMP JUMPDEST PUSH1 0x1F NOT DUP5 AND PUSH2 0xA0F DUP7 PUSH2 0x7EB JUMP JUMPDEST PUSH1 0x0 JUMPDEST DUP3 DUP2 LT ISZERO PUSH2 0xA37 JUMPI DUP5 DUP10 ADD MLOAD DUP3 SSTORE PUSH1 0x1 DUP3 ADD SWAP2 POP PUSH1 0x20 DUP6 ADD SWAP5 POP PUSH1 0x20 DUP2 ADD SWAP1 POP PUSH2 0xA12 JUMP JUMPDEST DUP7 DUP4 LT ISZERO PUSH2 0xA54 JUMPI DUP5 DUP10 ADD MLOAD PUSH2 0xA50 PUSH1 0x1F DUP10 AND DUP3 PUSH2 0x95D JUMP JUMPDEST DUP4 SSTORE POP JUMPDEST PUSH1 0x1 PUSH1 0x2 DUP9 MUL ADD DUP9 SSTORE POP POP POP JUMPDEST POP POP POP POP POP POP JUMP INVALID LOG2 PUSH5 0x6970667358 0x22 SLT KECCAK256 DIV LOG3 PUSH11 0x9B8B15ADFBDA220D00FFBD DUP2 0xEF GASLIMIT 0x1F ORIGIN 0xC7 0x4D SHR 0x2F SWAP9 DUP5 0xB6 DUP5 BALANCE EXTCODESIZE 0x2E 0xDC 0xDB PUSH5 0x736F6C6343 STOP ADDMOD SLT STOP CALLER "
		},
		"gasEstimates": {
			"creation": {
				"codeDepositCost": "543800",
				"executionCost": "575",
				"totalCost": "544375"
			},
			"external": {
				"addProduct(uint256,string,uint256,uint256)": "infinite",
				"buyProduct(uint256,uint256)": "infinite",
				"getProduct(uint256)": "infinite",
				"products(uint256)": "infinite"
			}
		},
		"methodIdentifiers": {
			"addProduct(uint256,string,uint256,uint256)": "c27ed2a2",
			"buyProduct(uint256,uint256)": "53b62866",
			"getProduct(uint256)": "b9db15b4",
			"products(uint256)": "7acc0b20"
		}
	},
	"abi": [
		{
			"inputs": [
				{
					"internalType": "uint256",
					"name": "id",
					"type": "uint256"
				},
				{
					"internalType": "string",
					"name": "_name",
					"type": "string"
				},
				{
					"internalType": "uint256",
					"name": "_price",
					"type": "uint256"
				},
				{
					"internalType": "uint256",
					"name": "_qty",
					"type": "uint256"
				}
			],
			"name": "addProduct",
			"outputs": [],
			"stateMutability": "nonpayable",
			"type": "function"
		},
		{
			"inputs": [
				{
					"internalType": "uint256",
					"name": "id",
					"type": "uint256"
				},
				{
					"internalType": "uint256",
					"name": "qty",
					"type": "uint256"
				}
			],
			"name": "buyProduct",
			"outputs": [],
			"stateMutability": "nonpayable",
			"type": "function"
		},
		{
			"inputs": [
				{
					"internalType": "uint256",
					"name": "id",
					"type": "uint256"
				}
			],
			"name": "getProduct",
			"outputs": [
				{
					"internalType": "string",
					"name": "",
					"type": "string"
				},
				{
					"internalType": "uint256",
					"name": "",
					"type": "uint256"
				},
				{
					"internalType": "uint256",
					"name": "",
					"type": "uint256"
				}
			],
			"stateMutability": "view",
			"type": "function"
		},
		{
			"inputs": [
				{
					"internalType": "uint256",
					"name": "",
					"type": "uint256"
				}
			],
			"name": "products",
			"outputs": [
				{
					"internalType": "string",
					"name": "name",
					"type": "string"
				},
				{
					"internalType": "uint256",
					"name": "price",
					"type": "uint256"
				},
				{
					"internalType": "uint256",
					"name": "quantity",
					"type": "uint256"
				}
			],
			"stateMutability": "view",
			"type": "function"
		}
	]
}