{
	"data": {
		"bytecode": {
			"linkReferences": {},
			"object": "608060405234801561001057600080fd5b50604051610553380380610553833981810160405281019061003291906100db565b806000806101000a81548173ffffffffffffffffffffffffffffffffffffffff021916908373ffffffffffffffffffffffffffffffffffffffff16021790555050610108565b600080fd5b600073ffffffffffffffffffffffffffffffffffffffff82169050919050565b60006100a88261007d565b9050919050565b6100b88161009d565b81146100c357600080fd5b50565b6000815190506100d5816100af565b92915050565b6000602082840312156100f1576100f0610078565b5b60006100ff848285016100c6565b91505092915050565b61043c806101176000396000f3fe608060405234801561001057600080fd5b506004361061002b5760003560e01c8063909a185f14610030575b600080fd5b61004a60048036038101906100459190610158565b610061565b604051610058929190610224565b60405180910390f35b606060008060009054906101000a900473ffffffffffffffffffffffffffffffffffffffff1673ffffffffffffffffffffffffffffffffffffffff16633129e773846040518263ffffffff1660e01b81526004016100bf9190610254565b600060405180830381865afa1580156100dc573d6000803e3d6000fd5b505050506040513d6000823e3d601f19601f8201168201806040525081019061010591906103aa565b91509150915091565b6000604051905090565b600080fd5b600080fd5b6000819050919050565b61013581610122565b811461014057600080fd5b50565b6000813590506101528161012c565b92915050565b60006020828403121561016e5761016d610118565b5b600061017c84828501610143565b91505092915050565b600081519050919050565b600082825260208201905092915050565b60005b838110156101bf5780820151818401526020810190506101a4565b60008484015250505050565b6000601f19601f8301169050919050565b60006101e782610185565b6101f18185610190565b93506102018185602086016101a1565b61020a816101cb565b840191505092915050565b61021e81610122565b82525050565b6000604082019050818103600083015261023e81856101dc565b905061024d6020830184610215565b9392505050565b60006020820190506102696000830184610215565b92915050565b600080fd5b600080fd5b7f4e487b7100000000000000000000000000000000000000000000000000000000600052604160045260246000fd5b6102b1826101cb565b810181811067ffffffffffffffff821117156102d0576102cf610279565b5b80604052505050565b60006102e361010e565b90506102ef82826102a8565b919050565b600067ffffffffffffffff82111561030f5761030e610279565b5b610318826101cb565b9050602081019050919050565b6000610338610333846102f4565b6102d9565b90508281526020810184848401111561035457610353610274565b5b61035f8482856101a1565b509392505050565b600082601f83011261037c5761037b61026f565b5b815161038c848260208601610325565b91505092915050565b6000815190506103a48161012c565b92915050565b600080604083850312156103c1576103c0610118565b5b600083015167ffffffffffffffff8111156103df576103de61011d565b5b6103eb85828601610367565b92505060206103fc85828601610395565b915050925092905056fea2646970667358221220321478feb6887b753c3c311f3578c55553c976318e8c9824cd75a2fe72cb824d64736f6c63430008120033",
			"opcodes": "PUSH1 0x80 PUSH1 0x40 MSTORE CALLVALUE DUP1 ISZERO PUSH2 0x10 JUMPI PUSH1 0x0 DUP1 REVERT JUMPDEST POP PUSH1 0x40 MLOAD PUSH2 0x553 CODESIZE SUB DUP1 PUSH2 0x553 DUP4 CODECOPY DUP2 DUP2 ADD PUSH1 0x40 MSTORE DUP2 ADD SWAP1 PUSH2 0x32 SWAP2 SWAP1 PUSH2 0xDB JUMP JUMPDEST DUP1 PUSH1 0x0 DUP1 PUSH2 0x100 EXP DUP2 SLOAD DUP2 PUSH20 0xFFFFFFFFFFFFFFFFFFFFFFFFFFFFFFFFFFFFFFFF MUL NOT AND SWAP1 DUP4 PUSH20 0xFFFFFFFFFFFFFFFFFFFFFFFFFFFFFFFFFFFFFFFF AND MUL OR SWAP1 SSTORE POP POP PUSH2 0x108 JUMP JUMPDEST PUSH1 0x0 DUP1 REVERT JUMPDEST PUSH1 0x0 PUSH20 0xFFFFFFFFFFFFFFFFFFFFFFFFFFFFFFFFFFFFFFFF DUP3 AND SWAP1 POP SWAP2 SWAP1 POP JUMP JUMPDEST PUSH1 0x0 PUSH2 0xA8 DUP3 PUSH2 0x7D JUMP JUMPDEST SWAP1 POP SWAP2 SWAP1 POP JUMP JUMPDEST PUSH2 0xB8 DUP2 PUSH2 0x9D JUMP JUMPDEST DUP2 EQ PUSH2 0xC3 JUMPI PUSH1 0x0 DUP1 REVERT JUMPDEST POP JUMP JUMPDEST PUSH1 0x0 DUP2 MLOAD SWAP1 POP PUSH2 0xD5 DUP2 PUSH2 0xAF JUMP JUMPDEST SWAP3 SWAP2 POP POP JUMP JUMPDEST PUSH1 0x0 PUSH1 0x20 DUP3 DUP5 SUB SLT ISZERO PUSH2 0xF1 JUMPI PUSH2 0xF0 PUSH2 0x78 JUMP JUMPDEST JUMPDEST PUSH1 0x0 PUSH2 0xFF DUP5 DUP3 DUP6 ADD PUSH2 0xC6 JUMP JUMPDEST SWAP2 POP POP SWAP3 SWAP2 POP POP JUMP JUMPDEST PUSH2 0x43C DUP1 PUSH2 0x117 PUSH1 0x0 CODECOPY PUSH1 0x0 RETURN INVALID PUSH1 0x80 PUSH1 0x40 MSTORE CALLVALUE DUP1 ISZERO PUSH2 0x10 JUMPI PUSH1 0x0 DUP1 REVERT JUMPDEST POP PUSH1 0x4 CALLDATASIZE LT PUSH2 0x2B JUMPI PUSH1 0x0 CALLDATALOAD PUSH1 0xE0 SHR DUP1 PUSH4 0x909A185F EQ PUSH2 0x30 JUMPI JUMPDEST PUSH1 0x0 DUP1 REVERT JUMPDEST PUSH2 0x4A PUSH1 0x4 DUP1 CALLDATASIZE SUB DUP2 ADD SWAP1 PUSH2 0x45 SWAP2 SWAP1 PUSH2 0x158 JUMP JUMPDEST PUSH2 0x61 JUMP JUMPDEST PUSH1 0x40 MLOAD PUSH2 0x58 SWAP3 SWAP2 SWAP1 PUSH2 0x224 JUMP JUMPDEST PUSH1 0x40 MLOAD DUP1 SWAP2 SUB SWAP1 RETURN JUMPDEST PUSH1 0x60 PUSH1 0x0 DUP1 PUSH1 0x0 SWAP1 SLOAD SWAP1 PUSH2 0x100 EXP SWAP1 DIV PUSH20 0xFFFFFFFFFFFFFFFFFFFFFFFFFFFFFFFFFFFFFFFF AND PUSH20 0xFFFFFFFFFFFFFFFFFFFFFFFFFFFFFFFFFFFFFFFF AND PUSH4 0x3129E773 DUP5 PUSH1 0x40 MLOAD DUP3 PUSH4 0xFFFFFFFF AND PUSH1 0xE0 SHL DUP2 MSTORE PUSH1 0x4 ADD PUSH2 0xBF SWAP2 SWAP1 PUSH2 0x254 JUMP JUMPDEST PUSH1 0x0 PUSH1 0x40 MLOAD DUP1 DUP4 SUB DUP2 DUP7 GAS STATICCALL ISZERO DUP1 ISZERO PUSH2 0xDC JUMPI RETURNDATASIZE PUSH1 0x0 DUP1 RETURNDATACOPY RETURNDATASIZE PUSH1 0x0 REVERT JUMPDEST POP POP POP POP PUSH1 0x40 MLOAD RETURNDATASIZE PUSH1 0x0 DUP3 RETURNDATACOPY RETURNDATASIZE PUSH1 0x1F NOT PUSH1 0x1F DUP3 ADD AND DUP3 ADD DUP1 PUSH1 0x40 MSTORE POP DUP2 ADD SWAP1 PUSH2 0x105 SWAP2 SWAP1 PUSH2 0x3AA JUMP JUMPDEST SWAP2 POP SWAP2 POP SWAP2 POP SWAP2 JUMP JUMPDEST PUSH1 0x0 PUSH1 0x40 MLOAD SWAP1 POP SWAP1 JUMP JUMPDEST PUSH1 0x0 DUP1 REVERT JUMPDEST PUSH1 0x0 DUP1 REVERT JUMPDEST PUSH1 0x0 DUP2 SWAP1 POP SWAP2 SWAP1 POP JUMP JUMPDEST PUSH2 0x135 DUP2 PUSH2 0x122 JUMP JUMPDEST DUP2 EQ PUSH2 0x140 JUMPI PUSH1 0x0 DUP1 REVERT JUMPDEST POP JUMP JUMPDEST PUSH1 0x0 DUP2 CALLDATALOAD SWAP1 POP PUSH2 0x152 DUP2 PUSH2 0x12C JUMP JUMPDEST SWAP3 SWAP2 POP POP JUMP JUMPDEST PUSH1 0x0 PUSH1 0x20 DUP3 DUP5 SUB SLT ISZERO PUSH2 0x16E JUMPI PUSH2 0x16D PUSH2 0x118 JUMP JUMPDEST JUMPDEST PUSH1 0x0 PUSH2 0x17C DUP5 DUP3 DUP6 ADD PUSH2 0x143 JUMP JUMPDEST SWAP2 POP POP SWAP3 SWAP2 POP POP JUMP JUMPDEST PUSH1 0x0 DUP2 MLOAD SWAP1 POP SWAP2 SWAP1 POP JUMP JUMPDEST PUSH1 0x0 DUP3 DUP3 MSTORE PUSH1 0x20 DUP3 ADD SWAP1 POP SWAP3 SWAP2 POP POP JUMP JUMPDEST PUSH1 0x0 JUMPDEST DUP4 DUP2 LT ISZERO PUSH2 0x1BF JUMPI DUP1 DUP3 ADD MLOAD DUP2 DUP5 ADD MSTORE PUSH1 0x20 DUP2 ADD SWAP1 POP PUSH2 0x1A4 JUMP JUMPDEST PUSH1 0x0 DUP5 DUP5 ADD MSTORE POP POP POP POP JUMP JUMPDEST PUSH1 0x0 PUSH1 0x1F NOT PUSH1 0x1F DUP4 ADD AND SWAP1 POP SWAP2 SWAP1 POP JUMP JUMPDEST PUSH1 0x0 PUSH2 0x1E7 DUP3 PUSH2 0x185 JUMP JUMPDEST PUSH2 0x1F1 DUP2 DUP6 PUSH2 0x190 JUMP JUMPDEST SWAP4 POP PUSH2 0x201 DUP2 DUP6 PUSH1 0x20 DUP7 ADD PUSH2 0x1A1 JUMP JUMPDEST PUSH2 0x20A DUP2 PUSH2 0x1CB JUMP JUMPDEST DUP5 ADD SWAP2 POP POP SWAP3 SWAP2 POP POP JUMP JUMPDEST PUSH2 0x21E DUP2 PUSH2 0x122 JUMP JUMPDEST DUP3 MSTORE POP POP JUMP JUMPDEST PUSH1 0x0 PUSH1 0x40 DUP3 ADD SWAP1 POP DUP2 DUP2 SUB PUSH1 0x0 DUP4 ADD MSTORE PUSH2 0x23E DUP2 DUP6 PUSH2 0x1DC JUMP JUMPDEST SWAP1 POP PUSH2 0x24D PUSH1 0x20 DUP4 ADD DUP5 PUSH2 0x215 JUMP JUMPDEST SWAP4 SWAP3 POP POP POP JUMP JUMPDEST PUSH1 0x0 PUSH1 0x20 DUP3 ADD SWAP1 POP PUSH2 0x269 PUSH1 0x0 DUP4 ADD DUP5 PUSH2 0x215 JUMP JUMPDEST SWAP3 SWAP2 POP POP JUMP JUMPDEST PUSH1 0x0 DUP1 REVERT JUMPDEST PUSH1 0x0 DUP1 REVERT JUMPDEST PUSH32 0x4E487B7100000000000000000000000000000000000000000000000000000000 PUSH1 0x0 MSTORE PUSH1 0x41 PUSH1 0x4 MSTORE PUSH1 0x24 PUSH1 0x0 REVERT JUMPDEST PUSH2 0x2B1 DUP3 PUSH2 0x1CB JUMP JUMPDEST DUP2 ADD DUP2 DUP2 LT PUSH8 0xFFFFFFFFFFFFFFFF DUP3 GT OR ISZERO PUSH2 0x2D0 JUMPI PUSH2 0x2CF PUSH2 0x279 JUMP JUMPDEST JUMPDEST DUP1 PUSH1 0x40 MSTORE POP POP POP JUMP JUMPDEST PUSH1 0x0 PUSH2 0x2E3 PUSH2 0x10E JUMP JUMPDEST SWAP1 POP PUSH2 0x2EF DUP3 DUP3 PUSH2 0x2A8 JUMP JUMPDEST SWAP2 SWAP1 POP JUMP JUMPDEST PUSH1 0x0 PUSH8 0xFFFFFFFFFFFFFFFF DUP3 GT ISZERO PUSH2 0x30F JUMPI PUSH2 0x30E PUSH2 0x279 JUMP JUMPDEST JUMPDEST PUSH2 0x318 DUP3 PUSH2 0x1CB JUMP JUMPDEST SWAP1 POP PUSH1 0x20 DUP2 ADD SWAP1 POP SWAP2 SWAP1 POP JUMP JUMPDEST PUSH1 0x0 PUSH2 0x338 PUSH2 0x333 DUP5 PUSH2 0x2F4 JUMP JUMPDEST PUSH2 0x2D9 JUMP JUMPDEST SWAP1 POP DUP3 DUP2 MSTORE PUSH1 0x20 DUP2 ADD DUP5 DUP5 DUP5 ADD GT ISZERO PUSH2 0x354 JUMPI PUSH2 0x353 PUSH2 0x274 JUMP JUMPDEST JUMPDEST PUSH2 0x35F DUP5 DUP3 DUP6 PUSH2 0x1A1 JUMP JUMPDEST POP SWAP4 SWAP3 POP POP POP JUMP JUMPDEST PUSH1 0x0 DUP3 PUSH1 0x1F DUP4 ADD SLT PUSH2 0x37C JUMPI PUSH2 0x37B PUSH2 0x26F JUMP JUMPDEST JUMPDEST DUP2 MLOAD PUSH2 0x38C DUP5 DUP3 PUSH1 0x20 DUP7 ADD PUSH2 0x325 JUMP JUMPDEST SWAP2 POP POP SWAP3 SWAP2 POP POP JUMP JUMPDEST PUSH1 0x0 DUP2 MLOAD SWAP1 POP PUSH2 0x3A4 DUP2 PUSH2 0x12C JUMP JUMPDEST SWAP3 SWAP2 POP POP JUMP JUMPDEST PUSH1 0x0 DUP1 PUSH1 0x40 DUP4 DUP6 SUB SLT ISZERO PUSH2 0x3C1 JUMPI PUSH2 0x3C0 PUSH2 0x118 JUMP JUMPDEST JUMPDEST PUSH1 0x0 DUP4 ADD MLOAD PUSH8 0xFFFFFFFFFFFFFFFF DUP2 GT ISZERO PUSH2 0x3DF JUMPI PUSH2 0x3DE PUSH2 0x11D JUMP JUMPDEST JUMPDEST PUSH2 0x3EB DUP6 DUP3 DUP7 ADD PUSH2 0x367 JUMP JUMPDEST SWAP3 POP POP PUSH1 0x20 PUSH2 0x3FC DUP6 DUP3 DUP7 ADD PUSH2 0x395 JUMP JUMPDEST SWAP2 POP POP SWAP3 POP SWAP3 SWAP1 POP JUMP INVALID LOG2 PUSH5 0x6970667358 0x22 SLT KECCAK256 ORIGIN EQ PUSH25 0xFEB6887B753C3C311F3578C55553C976318E8C9824CD75A2FE PUSH19 0xCB824D64736F6C634300081200330000000000 "
		},
		"gasEstimates": {
			"creation": {
				"codeDepositCost": "216800",
				"executionCost": "infinite",
				"totalCost": "infinite"
			},
			"external": {
				"read_store(uint256)": "infinite"
			}
		},
		"methodIdentifiers": {
			"read_store(uint256)": "909a185f"
		}
	},
	"abi": [
		{
			"inputs": [
				{
					"internalType": "address",
					"name": "store_address",
					"type": "address"
				}
			],
			"stateMutability": "nonpayable",
			"type": "constructor"
		},
		{
			"inputs": [
				{
					"internalType": "uint256",
					"name": "indexx",
					"type": "uint256"
				}
			],
			"name": "read_store",
			"outputs": [
				{
					"internalType": "string",
					"name": "",
					"type": "string"
				},
				{
					"internalType": "uint256",
					"name": "",
					"type": "uint256"
				}
			],
			"stateMutability": "view",
			"type": "function"
		}
	]
}