{
	"data": {
		"bytecode": {
			"linkReferences": {},
			"object": "6080604052619c406000556107d060015534801561001c57600080fd5b506103e08061002c6000396000f3fe608060405234801561001057600080fd5b506004361061007d5760003560e01c806315e8b3451161005b57806315e8b345146100dc578063194be2ff146100fa578063cdf8bd3414610118578063e12c98dc146101365761007d565b80630978ba8f146100825780630c395781146100a057806313be277a146100be575b600080fd5b61008a610154565b6040516100979190610256565b60405180910390f35b6100a8610175565b6040516100b59190610256565b60405180910390f35b6100c661017b565b6040516100d39190610256565b60405180910390f35b6100e46101b6565b6040516100f19190610256565b60405180910390f35b6101026101bc565b60405161010f9190610256565b60405180910390f35b6101206101de565b60405161012d9190610256565b60405180910390f35b61013e61021b565b60405161014b9190610256565b60405180910390f35b600061015e6101de565b61016661017b565b61017091906102a0565b905090565b60015481565b60006101856101bc565b60015461019061021b565b60005461019d91906102d4565b6101a791906102d4565b6101b191906102d4565b905090565b60005481565b60006064601e6000546101cf9190610308565b6101d99190610379565b905090565b6000806064600a6000546101f29190610308565b6101fc9190610379565b9050610bb881101561021357610bb8915050610218565b809150505b90565b60006064600a60005461022e9190610308565b6102389190610379565b905090565b6000819050919050565b6102508161023d565b82525050565b600060208201905061026b6000830184610247565b92915050565b7f4e487b7100000000000000000000000000000000000000000000000000000000600052601160045260246000fd5b60006102ab8261023d565b91506102b68361023d565b92508282039050818111156102ce576102cd610271565b5b92915050565b60006102df8261023d565b91506102ea8361023d565b925082820190508082111561030257610301610271565b5b92915050565b60006103138261023d565b915061031e8361023d565b925082820261032c8161023d565b9150828204841483151761034357610342610271565b5b5092915050565b7f4e487b7100000000000000000000000000000000000000000000000000000000600052601260045260246000fd5b60006103848261023d565b915061038f8361023d565b92508261039f5761039e61034a565b5b82820490509291505056fea264697066735822122085a6c7884a35272bbd60d35e2f50a77828b785bfcd0036ce7f9a5cc23a2ebd3564736f6c63430008120033",
			"opcodes": "PUSH1 0x80 PUSH1 0x40 MSTORE PUSH2 0x9C40 PUSH1 0x0 SSTORE PUSH2 0x7D0 PUSH1 0x1 SSTORE CALLVALUE DUP1 ISZERO PUSH2 0x1C JUMPI PUSH1 0x0 DUP1 REVERT JUMPDEST POP PUSH2 0x3E0 DUP1 PUSH2 0x2C PUSH1 0x0 CODECOPY PUSH1 0x0 RETURN INVALID PUSH1 0x80 PUSH1 0x40 MSTORE CALLVALUE DUP1 ISZERO PUSH2 0x10 JUMPI PUSH1 0x0 DUP1 REVERT JUMPDEST POP PUSH1 0x4 CALLDATASIZE LT PUSH2 0x7D JUMPI PUSH1 0x0 CALLDATALOAD PUSH1 0xE0 SHR DUP1 PUSH4 0x15E8B345 GT PUSH2 0x5B JUMPI DUP1 PUSH4 0x15E8B345 EQ PUSH2 0xDC JUMPI DUP1 PUSH4 0x194BE2FF EQ PUSH2 0xFA JUMPI DUP1 PUSH4 0xCDF8BD34 EQ PUSH2 0x118 JUMPI DUP1 PUSH4 0xE12C98DC EQ PUSH2 0x136 JUMPI PUSH2 0x7D JUMP JUMPDEST DUP1 PUSH4 0x978BA8F EQ PUSH2 0x82 JUMPI DUP1 PUSH4 0xC395781 EQ PUSH2 0xA0 JUMPI DUP1 PUSH4 0x13BE277A EQ PUSH2 0xBE JUMPI JUMPDEST PUSH1 0x0 DUP1 REVERT JUMPDEST PUSH2 0x8A PUSH2 0x154 JUMP JUMPDEST PUSH1 0x40 MLOAD PUSH2 0x97 SWAP2 SWAP1 PUSH2 0x256 JUMP JUMPDEST PUSH1 0x40 MLOAD DUP1 SWAP2 SUB SWAP1 RETURN JUMPDEST PUSH2 0xA8 PUSH2 0x175 JUMP JUMPDEST PUSH1 0x40 MLOAD PUSH2 0xB5 SWAP2 SWAP1 PUSH2 0x256 JUMP JUMPDEST PUSH1 0x40 MLOAD DUP1 SWAP2 SUB SWAP1 RETURN JUMPDEST PUSH2 0xC6 PUSH2 0x17B JUMP JUMPDEST PUSH1 0x40 MLOAD PUSH2 0xD3 SWAP2 SWAP1 PUSH2 0x256 JUMP JUMPDEST PUSH1 0x40 MLOAD DUP1 SWAP2 SUB SWAP1 RETURN JUMPDEST PUSH2 0xE4 PUSH2 0x1B6 JUMP JUMPDEST PUSH1 0x40 MLOAD PUSH2 0xF1 SWAP2 SWAP1 PUSH2 0x256 JUMP JUMPDEST PUSH1 0x40 MLOAD DUP1 SWAP2 SUB SWAP1 RETURN JUMPDEST PUSH2 0x102 PUSH2 0x1BC JUMP JUMPDEST PUSH1 0x40 MLOAD PUSH2 0x10F SWAP2 SWAP1 PUSH2 0x256 JUMP JUMPDEST PUSH1 0x40 MLOAD DUP1 SWAP2 SUB SWAP1 RETURN JUMPDEST PUSH2 0x120 PUSH2 0x1DE JUMP JUMPDEST PUSH1 0x40 MLOAD PUSH2 0x12D SWAP2 SWAP1 PUSH2 0x256 JUMP JUMPDEST PUSH1 0x40 MLOAD DUP1 SWAP2 SUB SWAP1 RETURN JUMPDEST PUSH2 0x13E PUSH2 0x21B JUMP JUMPDEST PUSH1 0x40 MLOAD PUSH2 0x14B SWAP2 SWAP1 PUSH2 0x256 JUMP JUMPDEST PUSH1 0x40 MLOAD DUP1 SWAP2 SUB SWAP1 RETURN JUMPDEST PUSH1 0x0 PUSH2 0x15E PUSH2 0x1DE JUMP JUMPDEST PUSH2 0x166 PUSH2 0x17B JUMP JUMPDEST PUSH2 0x170 SWAP2 SWAP1 PUSH2 0x2A0 JUMP JUMPDEST SWAP1 POP SWAP1 JUMP JUMPDEST PUSH1 0x1 SLOAD DUP2 JUMP JUMPDEST PUSH1 0x0 PUSH2 0x185 PUSH2 0x1BC JUMP JUMPDEST PUSH1 0x1 SLOAD PUSH2 0x190 PUSH2 0x21B JUMP JUMPDEST PUSH1 0x0 SLOAD PUSH2 0x19D SWAP2 SWAP1 PUSH2 0x2D4 JUMP JUMPDEST PUSH2 0x1A7 SWAP2 SWAP1 PUSH2 0x2D4 JUMP JUMPDEST PUSH2 0x1B1 SWAP2 SWAP1 PUSH2 0x2D4 JUMP JUMPDEST SWAP1 POP SWAP1 JUMP JUMPDEST PUSH1 0x0 SLOAD DUP2 JUMP JUMPDEST PUSH1 0x0 PUSH1 0x64 PUSH1 0x1E PUSH1 0x0 SLOAD PUSH2 0x1CF SWAP2 SWAP1 PUSH2 0x308 JUMP JUMPDEST PUSH2 0x1D9 SWAP2 SWAP1 PUSH2 0x379 JUMP JUMPDEST SWAP1 POP SWAP1 JUMP JUMPDEST PUSH1 0x0 DUP1 PUSH1 0x64 PUSH1 0xA PUSH1 0x0 SLOAD PUSH2 0x1F2 SWAP2 SWAP1 PUSH2 0x308 JUMP JUMPDEST PUSH2 0x1FC SWAP2 SWAP1 PUSH2 0x379 JUMP JUMPDEST SWAP1 POP PUSH2 0xBB8 DUP2 LT ISZERO PUSH2 0x213 JUMPI PUSH2 0xBB8 SWAP2 POP POP PUSH2 0x218 JUMP JUMPDEST DUP1 SWAP2 POP POP JUMPDEST SWAP1 JUMP JUMPDEST PUSH1 0x0 PUSH1 0x64 PUSH1 0xA PUSH1 0x0 SLOAD PUSH2 0x22E SWAP2 SWAP1 PUSH2 0x308 JUMP JUMPDEST PUSH2 0x238 SWAP2 SWAP1 PUSH2 0x379 JUMP JUMPDEST SWAP1 POP SWAP1 JUMP JUMPDEST PUSH1 0x0 DUP2 SWAP1 POP SWAP2 SWAP1 POP JUMP JUMPDEST PUSH2 0x250 DUP2 PUSH2 0x23D JUMP JUMPDEST DUP3 MSTORE POP POP JUMP JUMPDEST PUSH1 0x0 PUSH1 0x20 DUP3 ADD SWAP1 POP PUSH2 0x26B PUSH1 0x0 DUP4 ADD DUP5 PUSH2 0x247 JUMP JUMPDEST SWAP3 SWAP2 POP POP JUMP JUMPDEST PUSH32 0x4E487B7100000000000000000000000000000000000000000000000000000000 PUSH1 0x0 MSTORE PUSH1 0x11 PUSH1 0x4 MSTORE PUSH1 0x24 PUSH1 0x0 REVERT JUMPDEST PUSH1 0x0 PUSH2 0x2AB DUP3 PUSH2 0x23D JUMP JUMPDEST SWAP2 POP PUSH2 0x2B6 DUP4 PUSH2 0x23D JUMP JUMPDEST SWAP3 POP DUP3 DUP3 SUB SWAP1 POP DUP2 DUP2 GT ISZERO PUSH2 0x2CE JUMPI PUSH2 0x2CD PUSH2 0x271 JUMP JUMPDEST JUMPDEST SWAP3 SWAP2 POP POP JUMP JUMPDEST PUSH1 0x0 PUSH2 0x2DF DUP3 PUSH2 0x23D JUMP JUMPDEST SWAP2 POP PUSH2 0x2EA DUP4 PUSH2 0x23D JUMP JUMPDEST SWAP3 POP DUP3 DUP3 ADD SWAP1 POP DUP1 DUP3 GT ISZERO PUSH2 0x302 JUMPI PUSH2 0x301 PUSH2 0x271 JUMP JUMPDEST JUMPDEST SWAP3 SWAP2 POP POP JUMP JUMPDEST PUSH1 0x0 PUSH2 0x313 DUP3 PUSH2 0x23D JUMP JUMPDEST SWAP2 POP PUSH2 0x31E DUP4 PUSH2 0x23D JUMP JUMPDEST SWAP3 POP DUP3 DUP3 MUL PUSH2 0x32C DUP2 PUSH2 0x23D JUMP JUMPDEST SWAP2 POP DUP3 DUP3 DIV DUP5 EQ DUP4 ISZERO OR PUSH2 0x343 JUMPI PUSH2 0x342 PUSH2 0x271 JUMP JUMPDEST JUMPDEST POP SWAP3 SWAP2 POP POP JUMP JUMPDEST PUSH32 0x4E487B7100000000000000000000000000000000000000000000000000000000 PUSH1 0x0 MSTORE PUSH1 0x12 PUSH1 0x4 MSTORE PUSH1 0x24 PUSH1 0x0 REVERT JUMPDEST PUSH1 0x0 PUSH2 0x384 DUP3 PUSH2 0x23D JUMP JUMPDEST SWAP2 POP PUSH2 0x38F DUP4 PUSH2 0x23D JUMP JUMPDEST SWAP3 POP DUP3 PUSH2 0x39F JUMPI PUSH2 0x39E PUSH2 0x34A JUMP JUMPDEST JUMPDEST DUP3 DUP3 DIV SWAP1 POP SWAP3 SWAP2 POP POP JUMP INVALID LOG2 PUSH5 0x6970667358 0x22 SLT KECCAK256 DUP6 0xA6 0xC7 DUP9 0x4A CALLDATALOAD 0x27 0x2B 0xBD PUSH1 0xD3 0x5E 0x2F POP 0xA7 PUSH25 0x28B785BFCD0036CE7F9A5CC23A2EBD3564736F6C6343000812 STOP CALLER "
		},
		"gasEstimates": {
			"creation": {
				"codeDepositCost": "198400",
				"executionCost": "44450",
				"totalCost": "242850"
			},
			"external": {
				"DA()": "2452",
				"basic()": "2429",
				"getGrossSalary()": "infinite",
				"getHRA()": "infinite",
				"getNetSalary()": "infinite",
				"getPF()": "infinite",
				"getTA()": "infinite"
			}
		},
		"methodIdentifiers": {
			"DA()": "0c395781",
			"basic()": "15e8b345",
			"getGrossSalary()": "13be277a",
			"getHRA()": "194be2ff",
			"getNetSalary()": "0978ba8f",
			"getPF()": "cdf8bd34",
			"getTA()": "e12c98dc"
		}
	},
	"abi": [
		{
			"inputs": [],
			"name": "DA",
			"outputs": [
				{
					"internalType": "uint256",
					"name": "",
					"type": "uint256"
				}
			],
			"stateMutability": "view",
			"type": "function"
		},
		{
			"inputs": [],
			"name": "basic",
			"outputs": [
				{
					"internalType": "uint256",
					"name": "",
					"type": "uint256"
				}
			],
			"stateMutability": "view",
			"type": "function"
		},
		{
			"inputs": [],
			"name": "getGrossSalary",
			"outputs": [
				{
					"internalType": "uint256",
					"name": "",
					"type": "uint256"
				}
			],
			"stateMutability": "view",
			"type": "function"
		},
		{
			"inputs": [],
			"name": "getHRA",
			"outputs": [
				{
					"internalType": "uint256",
					"name": "",
					"type": "uint256"
				}
			],
			"stateMutability": "view",
			"type": "function"
		},
		{
			"inputs": [],
			"name": "getNetSalary",
			"outputs": [
				{
					"internalType": "uint256",
					"name": "",
					"type": "uint256"
				}
			],
			"stateMutability": "view",
			"type": "function"
		},
		{
			"inputs": [],
			"name": "getPF",
			"outputs": [
				{
					"internalType": "uint256",
					"name": "",
					"type": "uint256"
				}
			],
			"stateMutability": "view",
			"type": "function"
		},
		{
			"inputs": [],
			"name": "getTA",
			"outputs": [
				{
					"internalType": "uint256",
					"name": "",
					"type": "uint256"
				}
			],
			"stateMutability": "view",
			"type": "function"
		}
	]
}