{
	"data": {
		"bytecode": {
			"linkReferences": {},
			"object": "608060405234801561001057600080fd5b50610d06806100206000396000f3fe608060405234801561001057600080fd5b506004361061004c5760003560e01c80633129e77314610051578063a7933b9c14610082578063bfb231d2146100a0578063f348c91d146100d1575b600080fd5b61006b600480360381019061006691906104ed565b6100ed565b6040516100799291906105b9565b60405180910390f35b61008a610236565b6040516100979190610741565b60405180910390f35b6100ba60048036038101906100b591906104ed565b610331565b6040516100c89291906105b9565b60405180910390f35b6100eb60048036038101906100e69190610898565b6103ed565b005b60606000808311801561010557506000805490508311155b610144576040517f08c379a000000000000000000000000000000000000000000000000000000000815260040161013b90610940565b60405180910390fd5b6000600184610153919061098f565b905060008181548110610169576101686109c3565b5b90600052602060002090600202016000016000828154811061018e5761018d6109c3565b5b9060005260206000209060020201600101548180546101ac90610a21565b80601f01602080910402602001604051908101604052809291908181526020018280546101d890610a21565b80156102255780601f106101fa57610100808354040283529160200191610225565b820191906000526020600020905b81548152906001019060200180831161020857829003601f168201915b505050505091509250925050915091565b60606000805480602002602001604051908101604052809291908181526020016000905b82821015610328578382906000526020600020906002020160405180604001604052908160008201805461028d90610a21565b80601f01602080910402602001604051908101604052809291908181526020018280546102b990610a21565b80156103065780601f106102db57610100808354040283529160200191610306565b820191906000526020600020905b8154815290600101906020018083116102e957829003601f168201915b505050505081526020016001820154815250508152602001906001019061025a565b50505050905090565b6000818154811061034157600080fd5b906000526020600020906002020160009150905080600001805461036490610a21565b80601f016020809104026020016040519081016040528092919081815260200182805461039090610a21565b80156103dd5780601f106103b2576101008083540402835291602001916103dd565b820191906000526020600020905b8154815290600101906020018083116103c057829003601f168201915b5050505050908060010154905082565b6000604051806040016040528084815260200183815250908060018154018082558091505060019003906000526020600020906002020160009091909190915060008201518160000190816104429190610bfe565b506020820151816001015550503373ffffffffffffffffffffffffffffffffffffffff167fc2cc7021109c71b91714509df19eaf530022b8502b4f2a921489f246bb69613383836040516104979291906105b9565b60405180910390a25050565b6000604051905090565b600080fd5b600080fd5b6000819050919050565b6104ca816104b7565b81146104d557600080fd5b50565b6000813590506104e7816104c1565b92915050565b600060208284031215610503576105026104ad565b5b6000610511848285016104d8565b91505092915050565b600081519050919050565b600082825260208201905092915050565b60005b83811015610554578082015181840152602081019050610539565b60008484015250505050565b6000601f19601f8301169050919050565b600061057c8261051a565b6105868185610525565b9350610596818560208601610536565b61059f81610560565b840191505092915050565b6105b3816104b7565b82525050565b600060408201905081810360008301526105d38185610571565b90506105e260208301846105aa565b9392505050565b600081519050919050565b600082825260208201905092915050565b6000819050602082019050919050565b600082825260208201905092915050565b60006106318261051a565b61063b8185610615565b935061064b818560208601610536565b61065481610560565b840191505092915050565b610668816104b7565b82525050565b6000604083016000830151848203600086015261068b8282610626565b91505060208301516106a0602086018261065f565b508091505092915050565b60006106b7838361066e565b905092915050565b6000602082019050919050565b60006106d7826105e9565b6106e181856105f4565b9350836020820285016106f385610605565b8060005b8581101561072f578484038952815161071085826106ab565b945061071b836106bf565b925060208a019950506001810190506106f7565b50829750879550505050505092915050565b6000602082019050818103600083015261075b81846106cc565b905092915050565b600080fd5b600080fd5b7f4e487b7100000000000000000000000000000000000000000000000000000000600052604160045260246000fd5b6107a582610560565b810181811067ffffffffffffffff821117156107c4576107c361076d565b5b80604052505050565b60006107d76104a3565b90506107e3828261079c565b919050565b600067ffffffffffffffff8211156108035761080261076d565b5b61080c82610560565b9050602081019050919050565b82818337600083830152505050565b600061083b610836846107e8565b6107cd565b90508281526020810184848401111561085757610856610768565b5b610862848285610819565b509392505050565b600082601f83011261087f5761087e610763565b5b813561088f848260208601610828565b91505092915050565b600080604083850312156108af576108ae6104ad565b5b600083013567ffffffffffffffff8111156108cd576108cc6104b2565b5b6108d98582860161086a565b92505060206108ea858286016104d8565b9150509250929050565b7f496e76616c6964206974656d206e756d62657200000000000000000000000000600082015250565b600061092a601383610525565b9150610935826108f4565b602082019050919050565b600060208201905081810360008301526109598161091d565b9050919050565b7f4e487b7100000000000000000000000000000000000000000000000000000000600052601160045260246000fd5b600061099a826104b7565b91506109a5836104b7565b92508282039050818111156109bd576109bc610960565b5b92915050565b7f4e487b7100000000000000000000000000000000000000000000000000000000600052603260045260246000fd5b7f4e487b7100000000000000000000000000000000000000000000000000000000600052602260045260246000fd5b60006002820490506001821680610a3957607f821691505b602082108103610a4c57610a4b6109f2565b5b50919050565b60008190508160005260206000209050919050565b60006020601f8301049050919050565b600082821b905092915050565b600060088302610ab47fffffffffffffffffffffffffffffffffffffffffffffffffffffffffffffffff82610a77565b610abe8683610a77565b95508019841693508086168417925050509392505050565b6000819050919050565b6000610afb610af6610af1846104b7565b610ad6565b6104b7565b9050919050565b6000819050919050565b610b1583610ae0565b610b29610b2182610b02565b848454610a84565b825550505050565b600090565b610b3e610b31565b610b49818484610b0c565b505050565b5b81811015610b6d57610b62600082610b36565b600181019050610b4f565b5050565b601f821115610bb257610b8381610a52565b610b8c84610a67565b81016020851015610b9b578190505b610baf610ba785610a67565b830182610b4e565b50505b505050565b600082821c905092915050565b6000610bd560001984600802610bb7565b1980831691505092915050565b6000610bee8383610bc4565b9150826002028217905092915050565b610c078261051a565b67ffffffffffffffff811115610c2057610c1f61076d565b5b610c2a8254610a21565b610c35828285610b71565b600060209050601f831160018114610c685760008415610c56578287015190505b610c608582610be2565b865550610cc8565b601f198416610c7686610a52565b60005b82811015610c9e57848901518255600182019150602085019450602081019050610c79565b86831015610cbb5784890151610cb7601f891682610bc4565b8355505b6001600288020188555050505b50505050505056fea264697066735822122008a8d3a1ad19a08c0eb01e2d724030f41ccc814508330b4531e5f5ce97a672f764736f6c63430008120033",
			"opcodes": "PUSH1 0x80 PUSH1 0x40 MSTORE CALLVALUE DUP1 ISZERO PUSH2 0x10 JUMPI PUSH1 0x0 DUP1 REVERT JUMPDEST POP PUSH2 0xD06 DUP1 PUSH2 0x20 PUSH1 0x0 CODECOPY PUSH1 0x0 RETURN INVALID PUSH1 0x80 PUSH1 0x40 MSTORE CALLVALUE DUP1 ISZERO PUSH2 0x10 JUMPI PUSH1 0x0 DUP1 REVERT JUMPDEST POP PUSH1 0x4 CALLDATASIZE LT PUSH2 0x4C JUMPI PUSH1 0x0 CALLDATALOAD PUSH1 0xE0 SHR DUP1 PUSH4 0x3129E773 EQ PUSH2 0x51 JUMPI DUP1 PUSH4 0xA7933B9C EQ PUSH2 0x82 JUMPI DUP1 PUSH4 0xBFB231D2 EQ PUSH2 0xA0 JUMPI DUP1 PUSH4 0xF348C91D EQ PUSH2 0xD1 JUMPI JUMPDEST PUSH1 0x0 DUP1 REVERT JUMPDEST PUSH2 0x6B PUSH1 0x4 DUP1 CALLDATASIZE SUB DUP2 ADD SWAP1 PUSH2 0x66 SWAP2 SWAP1 PUSH2 0x4ED JUMP JUMPDEST PUSH2 0xED JUMP JUMPDEST PUSH1 0x40 MLOAD PUSH2 0x79 SWAP3 SWAP2 SWAP1 PUSH2 0x5B9 JUMP JUMPDEST PUSH1 0x40 MLOAD DUP1 SWAP2 SUB SWAP1 RETURN JUMPDEST PUSH2 0x8A PUSH2 0x236 JUMP JUMPDEST PUSH1 0x40 MLOAD PUSH2 0x97 SWAP2 SWAP1 PUSH2 0x741 JUMP JUMPDEST PUSH1 0x40 MLOAD DUP1 SWAP2 SUB SWAP1 RETURN JUMPDEST PUSH2 0xBA PUSH1 0x4 DUP1 CALLDATASIZE SUB DUP2 ADD SWAP1 PUSH2 0xB5 SWAP2 SWAP1 PUSH2 0x4ED JUMP JUMPDEST PUSH2 0x331 JUMP JUMPDEST PUSH1 0x40 MLOAD PUSH2 0xC8 SWAP3 SWAP2 SWAP1 PUSH2 0x5B9 JUMP JUMPDEST PUSH1 0x40 MLOAD DUP1 SWAP2 SUB SWAP1 RETURN JUMPDEST PUSH2 0xEB PUSH1 0x4 DUP1 CALLDATASIZE SUB DUP2 ADD SWAP1 PUSH2 0xE6 SWAP2 SWAP1 PUSH2 0x898 JUMP JUMPDEST PUSH2 0x3ED JUMP JUMPDEST STOP JUMPDEST PUSH1 0x60 PUSH1 0x0 DUP1 DUP4 GT DUP1 ISZERO PUSH2 0x105 JUMPI POP PUSH1 0x0 DUP1 SLOAD SWAP1 POP DUP4 GT ISZERO JUMPDEST PUSH2 0x144 JUMPI PUSH1 0x40 MLOAD PUSH32 0x8C379A000000000000000000000000000000000000000000000000000000000 DUP2 MSTORE PUSH1 0x4 ADD PUSH2 0x13B SWAP1 PUSH2 0x940 JUMP JUMPDEST PUSH1 0x40 MLOAD DUP1 SWAP2 SUB SWAP1 REVERT JUMPDEST PUSH1 0x0 PUSH1 0x1 DUP5 PUSH2 0x153 SWAP2 SWAP1 PUSH2 0x98F JUMP JUMPDEST SWAP1 POP PUSH1 0x0 DUP2 DUP2 SLOAD DUP2 LT PUSH2 0x169 JUMPI PUSH2 0x168 PUSH2 0x9C3 JUMP JUMPDEST JUMPDEST SWAP1 PUSH1 0x0 MSTORE PUSH1 0x20 PUSH1 0x0 KECCAK256 SWAP1 PUSH1 0x2 MUL ADD PUSH1 0x0 ADD PUSH1 0x0 DUP3 DUP2 SLOAD DUP2 LT PUSH2 0x18E JUMPI PUSH2 0x18D PUSH2 0x9C3 JUMP JUMPDEST JUMPDEST SWAP1 PUSH1 0x0 MSTORE PUSH1 0x20 PUSH1 0x0 KECCAK256 SWAP1 PUSH1 0x2 MUL ADD PUSH1 0x1 ADD SLOAD DUP2 DUP1 SLOAD PUSH2 0x1AC SWAP1 PUSH2 0xA21 JUMP JUMPDEST DUP1 PUSH1 0x1F ADD PUSH1 0x20 DUP1 SWAP2 DIV MUL PUSH1 0x20 ADD PUSH1 0x40 MLOAD SWAP1 DUP2 ADD PUSH1 0x40 MSTORE DUP1 SWAP3 SWAP2 SWAP1 DUP2 DUP2 MSTORE PUSH1 0x20 ADD DUP3 DUP1 SLOAD PUSH2 0x1D8 SWAP1 PUSH2 0xA21 JUMP JUMPDEST DUP1 ISZERO PUSH2 0x225 JUMPI DUP1 PUSH1 0x1F LT PUSH2 0x1FA JUMPI PUSH2 0x100 DUP1 DUP4 SLOAD DIV MUL DUP4 MSTORE SWAP2 PUSH1 0x20 ADD SWAP2 PUSH2 0x225 JUMP JUMPDEST DUP3 ADD SWAP2 SWAP1 PUSH1 0x0 MSTORE PUSH1 0x20 PUSH1 0x0 KECCAK256 SWAP1 JUMPDEST DUP2 SLOAD DUP2 MSTORE SWAP1 PUSH1 0x1 ADD SWAP1 PUSH1 0x20 ADD DUP1 DUP4 GT PUSH2 0x208 JUMPI DUP3 SWAP1 SUB PUSH1 0x1F AND DUP3 ADD SWAP2 JUMPDEST POP POP POP POP POP SWAP2 POP SWAP3 POP SWAP3 POP POP SWAP2 POP SWAP2 JUMP JUMPDEST PUSH1 0x60 PUSH1 0x0 DUP1 SLOAD DUP1 PUSH1 0x20 MUL PUSH1 0x20 ADD PUSH1 0x40 MLOAD SWAP1 DUP2 ADD PUSH1 0x40 MSTORE DUP1 SWAP3 SWAP2 SWAP1 DUP2 DUP2 MSTORE PUSH1 0x20 ADD PUSH1 0x0 SWAP1 JUMPDEST DUP3 DUP3 LT ISZERO PUSH2 0x328 JUMPI DUP4 DUP3 SWAP1 PUSH1 0x0 MSTORE PUSH1 0x20 PUSH1 0x0 KECCAK256 SWAP1 PUSH1 0x2 MUL ADD PUSH1 0x40 MLOAD DUP1 PUSH1 0x40 ADD PUSH1 0x40 MSTORE SWAP1 DUP2 PUSH1 0x0 DUP3 ADD DUP1 SLOAD PUSH2 0x28D SWAP1 PUSH2 0xA21 JUMP JUMPDEST DUP1 PUSH1 0x1F ADD PUSH1 0x20 DUP1 SWAP2 DIV MUL PUSH1 0x20 ADD PUSH1 0x40 MLOAD SWAP1 DUP2 ADD PUSH1 0x40 MSTORE DUP1 SWAP3 SWAP2 SWAP1 DUP2 DUP2 MSTORE PUSH1 0x20 ADD DUP3 DUP1 SLOAD PUSH2 0x2B9 SWAP1 PUSH2 0xA21 JUMP JUMPDEST DUP1 ISZERO PUSH2 0x306 JUMPI DUP1 PUSH1 0x1F LT PUSH2 0x2DB JUMPI PUSH2 0x100 DUP1 DUP4 SLOAD DIV MUL DUP4 MSTORE SWAP2 PUSH1 0x20 ADD SWAP2 PUSH2 0x306 JUMP JUMPDEST DUP3 ADD SWAP2 SWAP1 PUSH1 0x0 MSTORE PUSH1 0x20 PUSH1 0x0 KECCAK256 SWAP1 JUMPDEST DUP2 SLOAD DUP2 MSTORE SWAP1 PUSH1 0x1 ADD SWAP1 PUSH1 0x20 ADD DUP1 DUP4 GT PUSH2 0x2E9 JUMPI DUP3 SWAP1 SUB PUSH1 0x1F AND DUP3 ADD SWAP2 JUMPDEST POP POP POP POP POP DUP2 MSTORE PUSH1 0x20 ADD PUSH1 0x1 DUP3 ADD SLOAD DUP2 MSTORE POP POP DUP2 MSTORE PUSH1 0x20 ADD SWAP1 PUSH1 0x1 ADD SWAP1 PUSH2 0x25A JUMP JUMPDEST POP POP POP POP SWAP1 POP SWAP1 JUMP JUMPDEST PUSH1 0x0 DUP2 DUP2 SLOAD DUP2 LT PUSH2 0x341 JUMPI PUSH1 0x0 DUP1 REVERT JUMPDEST SWAP1 PUSH1 0x0 MSTORE PUSH1 0x20 PUSH1 0x0 KECCAK256 SWAP1 PUSH1 0x2 MUL ADD PUSH1 0x0 SWAP2 POP SWAP1 POP DUP1 PUSH1 0x0 ADD DUP1 SLOAD PUSH2 0x364 SWAP1 PUSH2 0xA21 JUMP JUMPDEST DUP1 PUSH1 0x1F ADD PUSH1 0x20 DUP1 SWAP2 DIV MUL PUSH1 0x20 ADD PUSH1 0x40 MLOAD SWAP1 DUP2 ADD PUSH1 0x40 MSTORE DUP1 SWAP3 SWAP2 SWAP1 DUP2 DUP2 MSTORE PUSH1 0x20 ADD DUP3 DUP1 SLOAD PUSH2 0x390 SWAP1 PUSH2 0xA21 JUMP JUMPDEST DUP1 ISZERO PUSH2 0x3DD JUMPI DUP1 PUSH1 0x1F LT PUSH2 0x3B2 JUMPI PUSH2 0x100 DUP1 DUP4 SLOAD DIV MUL DUP4 MSTORE SWAP2 PUSH1 0x20 ADD SWAP2 PUSH2 0x3DD JUMP JUMPDEST DUP3 ADD SWAP2 SWAP1 PUSH1 0x0 MSTORE PUSH1 0x20 PUSH1 0x0 KECCAK256 SWAP1 JUMPDEST DUP2 SLOAD DUP2 MSTORE SWAP1 PUSH1 0x1 ADD SWAP1 PUSH1 0x20 ADD DUP1 DUP4 GT PUSH2 0x3C0 JUMPI DUP3 SWAP1 SUB PUSH1 0x1F AND DUP3 ADD SWAP2 JUMPDEST POP POP POP POP POP SWAP1 DUP1 PUSH1 0x1 ADD SLOAD SWAP1 POP DUP3 JUMP JUMPDEST PUSH1 0x0 PUSH1 0x40 MLOAD DUP1 PUSH1 0x40 ADD PUSH1 0x40 MSTORE DUP1 DUP5 DUP2 MSTORE PUSH1 0x20 ADD DUP4 DUP2 MSTORE POP SWAP1 DUP1 PUSH1 0x1 DUP2 SLOAD ADD DUP1 DUP3 SSTORE DUP1 SWAP2 POP POP PUSH1 0x1 SWAP1 SUB SWAP1 PUSH1 0x0 MSTORE PUSH1 0x20 PUSH1 0x0 KECCAK256 SWAP1 PUSH1 0x2 MUL ADD PUSH1 0x0 SWAP1 SWAP2 SWAP1 SWAP2 SWAP1 SWAP2 POP PUSH1 0x0 DUP3 ADD MLOAD DUP2 PUSH1 0x0 ADD SWAP1 DUP2 PUSH2 0x442 SWAP2 SWAP1 PUSH2 0xBFE JUMP JUMPDEST POP PUSH1 0x20 DUP3 ADD MLOAD DUP2 PUSH1 0x1 ADD SSTORE POP POP CALLER PUSH20 0xFFFFFFFFFFFFFFFFFFFFFFFFFFFFFFFFFFFFFFFF AND PUSH32 0xC2CC7021109C71B91714509DF19EAF530022B8502B4F2A921489F246BB696133 DUP4 DUP4 PUSH1 0x40 MLOAD PUSH2 0x497 SWAP3 SWAP2 SWAP1 PUSH2 0x5B9 JUMP JUMPDEST PUSH1 0x40 MLOAD DUP1 SWAP2 SUB SWAP1 LOG2 POP POP JUMP JUMPDEST PUSH1 0x0 PUSH1 0x40 MLOAD SWAP1 POP SWAP1 JUMP JUMPDEST PUSH1 0x0 DUP1 REVERT JUMPDEST PUSH1 0x0 DUP1 REVERT JUMPDEST PUSH1 0x0 DUP2 SWAP1 POP SWAP2 SWAP1 POP JUMP JUMPDEST PUSH2 0x4CA DUP2 PUSH2 0x4B7 JUMP JUMPDEST DUP2 EQ PUSH2 0x4D5 JUMPI PUSH1 0x0 DUP1 REVERT JUMPDEST POP JUMP JUMPDEST PUSH1 0x0 DUP2 CALLDATALOAD SWAP1 POP PUSH2 0x4E7 DUP2 PUSH2 0x4C1 JUMP JUMPDEST SWAP3 SWAP2 POP POP JUMP JUMPDEST PUSH1 0x0 PUSH1 0x20 DUP3 DUP5 SUB SLT ISZERO PUSH2 0x503 JUMPI PUSH2 0x502 PUSH2 0x4AD JUMP JUMPDEST JUMPDEST PUSH1 0x0 PUSH2 0x511 DUP5 DUP3 DUP6 ADD PUSH2 0x4D8 JUMP JUMPDEST SWAP2 POP POP SWAP3 SWAP2 POP POP JUMP JUMPDEST PUSH1 0x0 DUP2 MLOAD SWAP1 POP SWAP2 SWAP1 POP JUMP JUMPDEST PUSH1 0x0 DUP3 DUP3 MSTORE PUSH1 0x20 DUP3 ADD SWAP1 POP SWAP3 SWAP2 POP POP JUMP JUMPDEST PUSH1 0x0 JUMPDEST DUP4 DUP2 LT ISZERO PUSH2 0x554 JUMPI DUP1 DUP3 ADD MLOAD DUP2 DUP5 ADD MSTORE PUSH1 0x20 DUP2 ADD SWAP1 POP PUSH2 0x539 JUMP JUMPDEST PUSH1 0x0 DUP5 DUP5 ADD MSTORE POP POP POP POP JUMP JUMPDEST PUSH1 0x0 PUSH1 0x1F NOT PUSH1 0x1F DUP4 ADD AND SWAP1 POP SWAP2 SWAP1 POP JUMP JUMPDEST PUSH1 0x0 PUSH2 0x57C DUP3 PUSH2 0x51A JUMP JUMPDEST PUSH2 0x586 DUP2 DUP6 PUSH2 0x525 JUMP JUMPDEST SWAP4 POP PUSH2 0x596 DUP2 DUP6 PUSH1 0x20 DUP7 ADD PUSH2 0x536 JUMP JUMPDEST PUSH2 0x59F DUP2 PUSH2 0x560 JUMP JUMPDEST DUP5 ADD SWAP2 POP POP SWAP3 SWAP2 POP POP JUMP JUMPDEST PUSH2 0x5B3 DUP2 PUSH2 0x4B7 JUMP JUMPDEST DUP3 MSTORE POP POP JUMP JUMPDEST PUSH1 0x0 PUSH1 0x40 DUP3 ADD SWAP1 POP DUP2 DUP2 SUB PUSH1 0x0 DUP4 ADD MSTORE PUSH2 0x5D3 DUP2 DUP6 PUSH2 0x571 JUMP JUMPDEST SWAP1 POP PUSH2 0x5E2 PUSH1 0x20 DUP4 ADD DUP5 PUSH2 0x5AA JUMP JUMPDEST SWAP4 SWAP3 POP POP POP JUMP JUMPDEST PUSH1 0x0 DUP2 MLOAD SWAP1 POP SWAP2 SWAP1 POP JUMP JUMPDEST PUSH1 0x0 DUP3 DUP3 MSTORE PUSH1 0x20 DUP3 ADD SWAP1 POP SWAP3 SWAP2 POP POP JUMP JUMPDEST PUSH1 0x0 DUP2 SWAP1 POP PUSH1 0x20 DUP3 ADD SWAP1 POP SWAP2 SWAP1 POP JUMP JUMPDEST PUSH1 0x0 DUP3 DUP3 MSTORE PUSH1 0x20 DUP3 ADD SWAP1 POP SWAP3 SWAP2 POP POP JUMP JUMPDEST PUSH1 0x0 PUSH2 0x631 DUP3 PUSH2 0x51A JUMP JUMPDEST PUSH2 0x63B DUP2 DUP6 PUSH2 0x615 JUMP JUMPDEST SWAP4 POP PUSH2 0x64B DUP2 DUP6 PUSH1 0x20 DUP7 ADD PUSH2 0x536 JUMP JUMPDEST PUSH2 0x654 DUP2 PUSH2 0x560 JUMP JUMPDEST DUP5 ADD SWAP2 POP POP SWAP3 SWAP2 POP POP JUMP JUMPDEST PUSH2 0x668 DUP2 PUSH2 0x4B7 JUMP JUMPDEST DUP3 MSTORE POP POP JUMP JUMPDEST PUSH1 0x0 PUSH1 0x40 DUP4 ADD PUSH1 0x0 DUP4 ADD MLOAD DUP5 DUP3 SUB PUSH1 0x0 DUP7 ADD MSTORE PUSH2 0x68B DUP3 DUP3 PUSH2 0x626 JUMP JUMPDEST SWAP2 POP POP PUSH1 0x20 DUP4 ADD MLOAD PUSH2 0x6A0 PUSH1 0x20 DUP7 ADD DUP3 PUSH2 0x65F JUMP JUMPDEST POP DUP1 SWAP2 POP POP SWAP3 SWAP2 POP POP JUMP JUMPDEST PUSH1 0x0 PUSH2 0x6B7 DUP4 DUP4 PUSH2 0x66E JUMP JUMPDEST SWAP1 POP SWAP3 SWAP2 POP POP JUMP JUMPDEST PUSH1 0x0 PUSH1 0x20 DUP3 ADD SWAP1 POP SWAP2 SWAP1 POP JUMP JUMPDEST PUSH1 0x0 PUSH2 0x6D7 DUP3 PUSH2 0x5E9 JUMP JUMPDEST PUSH2 0x6E1 DUP2 DUP6 PUSH2 0x5F4 JUMP JUMPDEST SWAP4 POP DUP4 PUSH1 0x20 DUP3 MUL DUP6 ADD PUSH2 0x6F3 DUP6 PUSH2 0x605 JUMP JUMPDEST DUP1 PUSH1 0x0 JUMPDEST DUP6 DUP2 LT ISZERO PUSH2 0x72F JUMPI DUP5 DUP5 SUB DUP10 MSTORE DUP2 MLOAD PUSH2 0x710 DUP6 DUP3 PUSH2 0x6AB JUMP JUMPDEST SWAP5 POP PUSH2 0x71B DUP4 PUSH2 0x6BF JUMP JUMPDEST SWAP3 POP PUSH1 0x20 DUP11 ADD SWAP10 POP POP PUSH1 0x1 DUP2 ADD SWAP1 POP PUSH2 0x6F7 JUMP JUMPDEST POP DUP3 SWAP8 POP DUP8 SWAP6 POP POP POP POP POP POP SWAP3 SWAP2 POP POP JUMP JUMPDEST PUSH1 0x0 PUSH1 0x20 DUP3 ADD SWAP1 POP DUP2 DUP2 SUB PUSH1 0x0 DUP4 ADD MSTORE PUSH2 0x75B DUP2 DUP5 PUSH2 0x6CC JUMP JUMPDEST SWAP1 POP SWAP3 SWAP2 POP POP JUMP JUMPDEST PUSH1 0x0 DUP1 REVERT JUMPDEST PUSH1 0x0 DUP1 REVERT JUMPDEST PUSH32 0x4E487B7100000000000000000000000000000000000000000000000000000000 PUSH1 0x0 MSTORE PUSH1 0x41 PUSH1 0x4 MSTORE PUSH1 0x24 PUSH1 0x0 REVERT JUMPDEST PUSH2 0x7A5 DUP3 PUSH2 0x560 JUMP JUMPDEST DUP2 ADD DUP2 DUP2 LT PUSH8 0xFFFFFFFFFFFFFFFF DUP3 GT OR ISZERO PUSH2 0x7C4 JUMPI PUSH2 0x7C3 PUSH2 0x76D JUMP JUMPDEST JUMPDEST DUP1 PUSH1 0x40 MSTORE POP POP POP JUMP JUMPDEST PUSH1 0x0 PUSH2 0x7D7 PUSH2 0x4A3 JUMP JUMPDEST SWAP1 POP PUSH2 0x7E3 DUP3 DUP3 PUSH2 0x79C JUMP JUMPDEST SWAP2 SWAP1 POP JUMP JUMPDEST PUSH1 0x0 PUSH8 0xFFFFFFFFFFFFFFFF DUP3 GT ISZERO PUSH2 0x803 JUMPI PUSH2 0x802 PUSH2 0x76D JUMP JUMPDEST JUMPDEST PUSH2 0x80C DUP3 PUSH2 0x560 JUMP JUMPDEST SWAP1 POP PUSH1 0x20 DUP2 ADD SWAP1 POP SWAP2 SWAP1 POP JUMP JUMPDEST DUP3 DUP2 DUP4 CALLDATACOPY PUSH1 0x0 DUP4 DUP4 ADD MSTORE POP POP POP JUMP JUMPDEST PUSH1 0x0 PUSH2 0x83B PUSH2 0x836 DUP5 PUSH2 0x7E8 JUMP JUMPDEST PUSH2 0x7CD JUMP JUMPDEST SWAP1 POP DUP3 DUP2 MSTORE PUSH1 0x20 DUP2 ADD DUP5 DUP5 DUP5 ADD GT ISZERO PUSH2 0x857 JUMPI PUSH2 0x856 PUSH2 0x768 JUMP JUMPDEST JUMPDEST PUSH2 0x862 DUP5 DUP3 DUP6 PUSH2 0x819 JUMP JUMPDEST POP SWAP4 SWAP3 POP POP POP JUMP JUMPDEST PUSH1 0x0 DUP3 PUSH1 0x1F DUP4 ADD SLT PUSH2 0x87F JUMPI PUSH2 0x87E PUSH2 0x763 JUMP JUMPDEST JUMPDEST DUP2 CALLDATALOAD PUSH2 0x88F DUP5 DUP3 PUSH1 0x20 DUP7 ADD PUSH2 0x828 JUMP JUMPDEST SWAP2 POP POP SWAP3 SWAP2 POP POP JUMP JUMPDEST PUSH1 0x0 DUP1 PUSH1 0x40 DUP4 DUP6 SUB SLT ISZERO PUSH2 0x8AF JUMPI PUSH2 0x8AE PUSH2 0x4AD JUMP JUMPDEST JUMPDEST PUSH1 0x0 DUP4 ADD CALLDATALOAD PUSH8 0xFFFFFFFFFFFFFFFF DUP2 GT ISZERO PUSH2 0x8CD JUMPI PUSH2 0x8CC PUSH2 0x4B2 JUMP JUMPDEST JUMPDEST PUSH2 0x8D9 DUP6 DUP3 DUP7 ADD PUSH2 0x86A JUMP JUMPDEST SWAP3 POP POP PUSH1 0x20 PUSH2 0x8EA DUP6 DUP3 DUP7 ADD PUSH2 0x4D8 JUMP JUMPDEST SWAP2 POP POP SWAP3 POP SWAP3 SWAP1 POP JUMP JUMPDEST PUSH32 0x496E76616C6964206974656D206E756D62657200000000000000000000000000 PUSH1 0x0 DUP3 ADD MSTORE POP JUMP JUMPDEST PUSH1 0x0 PUSH2 0x92A PUSH1 0x13 DUP4 PUSH2 0x525 JUMP JUMPDEST SWAP2 POP PUSH2 0x935 DUP3 PUSH2 0x8F4 JUMP JUMPDEST PUSH1 0x20 DUP3 ADD SWAP1 POP SWAP2 SWAP1 POP JUMP JUMPDEST PUSH1 0x0 PUSH1 0x20 DUP3 ADD SWAP1 POP DUP2 DUP2 SUB PUSH1 0x0 DUP4 ADD MSTORE PUSH2 0x959 DUP2 PUSH2 0x91D JUMP JUMPDEST SWAP1 POP SWAP2 SWAP1 POP JUMP JUMPDEST PUSH32 0x4E487B7100000000000000000000000000000000000000000000000000000000 PUSH1 0x0 MSTORE PUSH1 0x11 PUSH1 0x4 MSTORE PUSH1 0x24 PUSH1 0x0 REVERT JUMPDEST PUSH1 0x0 PUSH2 0x99A DUP3 PUSH2 0x4B7 JUMP JUMPDEST SWAP2 POP PUSH2 0x9A5 DUP4 PUSH2 0x4B7 JUMP JUMPDEST SWAP3 POP DUP3 DUP3 SUB SWAP1 POP DUP2 DUP2 GT ISZERO PUSH2 0x9BD JUMPI PUSH2 0x9BC PUSH2 0x960 JUMP JUMPDEST JUMPDEST SWAP3 SWAP2 POP POP JUMP JUMPDEST PUSH32 0x4E487B7100000000000000000000000000000000000000000000000000000000 PUSH1 0x0 MSTORE PUSH1 0x32 PUSH1 0x4 MSTORE PUSH1 0x24 PUSH1 0x0 REVERT JUMPDEST PUSH32 0x4E487B7100000000000000000000000000000000000000000000000000000000 PUSH1 0x0 MSTORE PUSH1 0x22 PUSH1 0x4 MSTORE PUSH1 0x24 PUSH1 0x0 REVERT JUMPDEST PUSH1 0x0 PUSH1 0x2 DUP3 DIV SWAP1 POP PUSH1 0x1 DUP3 AND DUP1 PUSH2 0xA39 JUMPI PUSH1 0x7F DUP3 AND SWAP2 POP JUMPDEST PUSH1 0x20 DUP3 LT DUP2 SUB PUSH2 0xA4C JUMPI PUSH2 0xA4B PUSH2 0x9F2 JUMP JUMPDEST JUMPDEST POP SWAP2 SWAP1 POP JUMP JUMPDEST PUSH1 0x0 DUP2 SWAP1 POP DUP2 PUSH1 0x0 MSTORE PUSH1 0x20 PUSH1 0x0 KECCAK256 SWAP1 POP SWAP2 SWAP1 POP JUMP JUMPDEST PUSH1 0x0 PUSH1 0x20 PUSH1 0x1F DUP4 ADD DIV SWAP1 POP SWAP2 SWAP1 POP JUMP JUMPDEST PUSH1 0x0 DUP3 DUP3 SHL SWAP1 POP SWAP3 SWAP2 POP POP JUMP JUMPDEST PUSH1 0x0 PUSH1 0x8 DUP4 MUL PUSH2 0xAB4 PUSH32 0xFFFFFFFFFFFFFFFFFFFFFFFFFFFFFFFFFFFFFFFFFFFFFFFFFFFFFFFFFFFFFFFF DUP3 PUSH2 0xA77 JUMP JUMPDEST PUSH2 0xABE DUP7 DUP4 PUSH2 0xA77 JUMP JUMPDEST SWAP6 POP DUP1 NOT DUP5 AND SWAP4 POP DUP1 DUP7 AND DUP5 OR SWAP3 POP POP POP SWAP4 SWAP3 POP POP POP JUMP JUMPDEST PUSH1 0x0 DUP2 SWAP1 POP SWAP2 SWAP1 POP JUMP JUMPDEST PUSH1 0x0 PUSH2 0xAFB PUSH2 0xAF6 PUSH2 0xAF1 DUP5 PUSH2 0x4B7 JUMP JUMPDEST PUSH2 0xAD6 JUMP JUMPDEST PUSH2 0x4B7 JUMP JUMPDEST SWAP1 POP SWAP2 SWAP1 POP JUMP JUMPDEST PUSH1 0x0 DUP2 SWAP1 POP SWAP2 SWAP1 POP JUMP JUMPDEST PUSH2 0xB15 DUP4 PUSH2 0xAE0 JUMP JUMPDEST PUSH2 0xB29 PUSH2 0xB21 DUP3 PUSH2 0xB02 JUMP JUMPDEST DUP5 DUP5 SLOAD PUSH2 0xA84 JUMP JUMPDEST DUP3 SSTORE POP POP POP POP JUMP JUMPDEST PUSH1 0x0 SWAP1 JUMP JUMPDEST PUSH2 0xB3E PUSH2 0xB31 JUMP JUMPDEST PUSH2 0xB49 DUP2 DUP5 DUP5 PUSH2 0xB0C JUMP JUMPDEST POP POP POP JUMP JUMPDEST JUMPDEST DUP2 DUP2 LT ISZERO PUSH2 0xB6D JUMPI PUSH2 0xB62 PUSH1 0x0 DUP3 PUSH2 0xB36 JUMP JUMPDEST PUSH1 0x1 DUP2 ADD SWAP1 POP PUSH2 0xB4F JUMP JUMPDEST POP POP JUMP JUMPDEST PUSH1 0x1F DUP3 GT ISZERO PUSH2 0xBB2 JUMPI PUSH2 0xB83 DUP2 PUSH2 0xA52 JUMP JUMPDEST PUSH2 0xB8C DUP5 PUSH2 0xA67 JUMP JUMPDEST DUP2 ADD PUSH1 0x20 DUP6 LT ISZERO PUSH2 0xB9B JUMPI DUP2 SWAP1 POP JUMPDEST PUSH2 0xBAF PUSH2 0xBA7 DUP6 PUSH2 0xA67 JUMP JUMPDEST DUP4 ADD DUP3 PUSH2 0xB4E JUMP JUMPDEST POP POP JUMPDEST POP POP POP JUMP JUMPDEST PUSH1 0x0 DUP3 DUP3 SHR SWAP1 POP SWAP3 SWAP2 POP POP JUMP JUMPDEST PUSH1 0x0 PUSH2 0xBD5 PUSH1 0x0 NOT DUP5 PUSH1 0x8 MUL PUSH2 0xBB7 JUMP JUMPDEST NOT DUP1 DUP4 AND SWAP2 POP POP SWAP3 SWAP2 POP POP JUMP JUMPDEST PUSH1 0x0 PUSH2 0xBEE DUP4 DUP4 PUSH2 0xBC4 JUMP JUMPDEST SWAP2 POP DUP3 PUSH1 0x2 MUL DUP3 OR SWAP1 POP SWAP3 SWAP2 POP POP JUMP JUMPDEST PUSH2 0xC07 DUP3 PUSH2 0x51A JUMP JUMPDEST PUSH8 0xFFFFFFFFFFFFFFFF DUP2 GT ISZERO PUSH2 0xC20 JUMPI PUSH2 0xC1F PUSH2 0x76D JUMP JUMPDEST JUMPDEST PUSH2 0xC2A DUP3 SLOAD PUSH2 0xA21 JUMP JUMPDEST PUSH2 0xC35 DUP3 DUP3 DUP6 PUSH2 0xB71 JUMP JUMPDEST PUSH1 0x0 PUSH1 0x20 SWAP1 POP PUSH1 0x1F DUP4 GT PUSH1 0x1 DUP2 EQ PUSH2 0xC68 JUMPI PUSH1 0x0 DUP5 ISZERO PUSH2 0xC56 JUMPI DUP3 DUP8 ADD MLOAD SWAP1 POP JUMPDEST PUSH2 0xC60 DUP6 DUP3 PUSH2 0xBE2 JUMP JUMPDEST DUP7 SSTORE POP PUSH2 0xCC8 JUMP JUMPDEST PUSH1 0x1F NOT DUP5 AND PUSH2 0xC76 DUP7 PUSH2 0xA52 JUMP JUMPDEST PUSH1 0x0 JUMPDEST DUP3 DUP2 LT ISZERO PUSH2 0xC9E JUMPI DUP5 DUP10 ADD MLOAD DUP3 SSTORE PUSH1 0x1 DUP3 ADD SWAP2 POP PUSH1 0x20 DUP6 ADD SWAP5 POP PUSH1 0x20 DUP2 ADD SWAP1 POP PUSH2 0xC79 JUMP JUMPDEST DUP7 DUP4 LT ISZERO PUSH2 0xCBB JUMPI DUP5 DUP10 ADD MLOAD PUSH2 0xCB7 PUSH1 0x1F DUP10 AND DUP3 PUSH2 0xBC4 JUMP JUMPDEST DUP4 SSTORE POP JUMPDEST PUSH1 0x1 PUSH1 0x2 DUP9 MUL ADD DUP9 SSTORE POP POP POP JUMPDEST POP POP POP POP POP POP JUMP INVALID LOG2 PUSH5 0x6970667358 0x22 SLT KECCAK256 ADDMOD 0xA8 0xD3 LOG1 0xAD NOT LOG0 DUP13 0xE 0xB0 0x1E 0x2D PUSH19 0x4030F41CCC814508330B4531E5F5CE97A672F7 PUSH5 0x736F6C6343 STOP ADDMOD SLT STOP CALLER "
		},
		"gasEstimates": {
			"creation": {
				"codeDepositCost": "666800",
				"executionCost": "702",
				"totalCost": "667502"
			},
			"external": {
				"getItem(uint256)": "infinite",
				"get_All_items()": "infinite",
				"items(uint256)": "infinite",
				"storeValue(string,uint256)": "infinite"
			}
		},
		"methodIdentifiers": {
			"getItem(uint256)": "3129e773",
			"get_All_items()": "a7933b9c",
			"items(uint256)": "bfb231d2",
			"storeValue(string,uint256)": "f348c91d"
		}
	},
	"abi": [
		{
			"anonymous": false,
			"inputs": [
				{
					"indexed": true,
					"internalType": "address",
					"name": "",
					"type": "address"
				},
				{
					"indexed": false,
					"internalType": "string",
					"name": "store_product",
					"type": "string"
				},
				{
					"indexed": false,
					"internalType": "uint256",
					"name": "store_price",
					"type": "uint256"
				}
			],
			"name": "store_product",
			"type": "event"
		},
		{
			"inputs": [
				{
					"internalType": "uint256",
					"name": "number",
					"type": "uint256"
				}
			],
			"name": "getItem",
			"outputs": [
				{
					"internalType": "string",
					"name": "",
					"type": "string"
				},
				{
					"internalType": "uint256",
					"name": "",
					"type": "uint256"
				}
			],
			"stateMutability": "view",
			"type": "function"
		},
		{
			"inputs": [],
			"name": "get_All_items",
			"outputs": [
				{
					"components": [
						{
							"internalType": "string",
							"name": "product",
							"type": "string"
						},
						{
							"internalType": "uint256",
							"name": "price",
							"type": "uint256"
						}
					],
					"internalType": "struct Store.Item[]",
					"name": "",
					"type": "tuple[]"
				}
			],
			"stateMutability": "view",
			"type": "function"
		},
		{
			"inputs": [
				{
					"internalType": "uint256",
					"name": "",
					"type": "uint256"
				}
			],
			"name": "items",
			"outputs": [
				{
					"internalType": "string",
					"name": "product",
					"type": "string"
				},
				{
					"internalType": "uint256",
					"name": "price",
					"type": "uint256"
				}
			],
			"stateMutability": "view",
			"type": "function"
		},
		{
			"inputs": [
				{
					"internalType": "string",
					"name": "_product",
					"type": "string"
				},
				{
					"internalType": "uint256",
					"name": "_price",
					"type": "uint256"
				}
			],
			"name": "storeValue",
			"outputs": [],
			"stateMutability": "nonpayable",
			"type": "function"
		}
	]
}