{
	"data": {
		"bytecode": {
			"linkReferences": {},
			"object": "608060405234801561001057600080fd5b50610a24806100206000396000f3fe608060405234801561001057600080fd5b50600436106100415760003560e01c8063682ad06e146100465780636b7b44d714610062578063a6c807a914610095575b600080fd5b610060600480360381019061005b9190610521565b6100c8565b005b61007c600480360381019061007791906105ee565b610194565b60405161008c94939291906106c4565b60405180910390f35b6100af60048036038101906100aa91906105ee565b6102cc565b6040516100bf94939291906106c4565b60405180910390f35b6000602882106100db57600190506100e0565b600090505b60405180608001604052808581526020018481526020018381526020018215158152506000803373ffffffffffffffffffffffffffffffffffffffff1673ffffffffffffffffffffffffffffffffffffffff1681526020019081526020016000206000820151816000019081610156919061091c565b50602082015181600101556040820151816002015560608201518160030160006101000a81548160ff02191690831515021790555090505050505050565b60606000806000806000808773ffffffffffffffffffffffffffffffffffffffff1673ffffffffffffffffffffffffffffffffffffffff1681526020019081526020016000206040518060800160405290816000820180546101f59061073f565b80601f01602080910402602001604051908101604052809291908181526020018280546102219061073f565b801561026e5780601f106102435761010080835404028352916020019161026e565b820191906000526020600020905b81548152906001019060200180831161025157829003601f168201915b5050505050815260200160018201548152602001600282015481526020016003820160009054906101000a900460ff161515151581525050905080600001518160200151826040015183606001519450945094509450509193509193565b60006020528060005260406000206000915090508060000180546102ef9061073f565b80601f016020809104026020016040519081016040528092919081815260200182805461031b9061073f565b80156103685780601f1061033d57610100808354040283529160200191610368565b820191906000526020600020905b81548152906001019060200180831161034b57829003601f168201915b5050505050908060010154908060020154908060030160009054906101000a900460ff16905084565b6000604051905090565b600080fd5b600080fd5b600080fd5b600080fd5b6000601f19601f8301169050919050565b7f4e487b7100000000000000000000000000000000000000000000000000000000600052604160045260246000fd5b6103f8826103af565b810181811067ffffffffffffffff82111715610417576104166103c0565b5b80604052505050565b600061042a610391565b905061043682826103ef565b919050565b600067ffffffffffffffff821115610456576104556103c0565b5b61045f826103af565b9050602081019050919050565b82818337600083830152505050565b600061048e6104898461043b565b610420565b9050828152602081018484840111156104aa576104a96103aa565b5b6104b584828561046c565b509392505050565b600082601f8301126104d2576104d16103a5565b5b81356104e284826020860161047b565b91505092915050565b6000819050919050565b6104fe816104eb565b811461050957600080fd5b50565b60008135905061051b816104f5565b92915050565b60008060006060848603121561053a5761053961039b565b5b600084013567ffffffffffffffff811115610558576105576103a0565b5b610564868287016104bd565b93505060206105758682870161050c565b92505060406105868682870161050c565b9150509250925092565b600073ffffffffffffffffffffffffffffffffffffffff82169050919050565b60006105bb82610590565b9050919050565b6105cb816105b0565b81146105d657600080fd5b50565b6000813590506105e8816105c2565b92915050565b6000602082840312156106045761060361039b565b5b6000610612848285016105d9565b91505092915050565b600081519050919050565b600082825260208201905092915050565b60005b8381101561065557808201518184015260208101905061063a565b60008484015250505050565b600061066c8261061b565b6106768185610626565b9350610686818560208601610637565b61068f816103af565b840191505092915050565b6106a3816104eb565b82525050565b60008115159050919050565b6106be816106a9565b82525050565b600060808201905081810360008301526106de8187610661565b90506106ed602083018661069a565b6106fa604083018561069a565b61070760608301846106b5565b95945050505050565b7f4e487b7100000000000000000000000000000000000000000000000000000000600052602260045260246000fd5b6000600282049050600182168061075757607f821691505b60208210810361076a57610769610710565b5b50919050565b60008190508160005260206000209050919050565b60006020601f8301049050919050565b600082821b905092915050565b6000600883026107d27fffffffffffffffffffffffffffffffffffffffffffffffffffffffffffffffff82610795565b6107dc8683610795565b95508019841693508086168417925050509392505050565b6000819050919050565b600061081961081461080f846104eb565b6107f4565b6104eb565b9050919050565b6000819050919050565b610833836107fe565b61084761083f82610820565b8484546107a2565b825550505050565b600090565b61085c61084f565b61086781848461082a565b505050565b5b8181101561088b57610880600082610854565b60018101905061086d565b5050565b601f8211156108d0576108a181610770565b6108aa84610785565b810160208510156108b9578190505b6108cd6108c585610785565b83018261086c565b50505b505050565b600082821c905092915050565b60006108f3600019846008026108d5565b1980831691505092915050565b600061090c83836108e2565b9150826002028217905092915050565b6109258261061b565b67ffffffffffffffff81111561093e5761093d6103c0565b5b610948825461073f565b61095382828561088f565b600060209050601f8311600181146109865760008415610974578287015190505b61097e8582610900565b8655506109e6565b601f19841661099486610770565b60005b828110156109bc57848901518255600182019150602085019450602081019050610997565b868310156109d957848901516109d5601f8916826108e2565b8355505b6001600288020188555050505b50505050505056fea264697066735822122050bd51500001a0b029fb5e174de2b22cd825b580885abdc8bf6d088e5a4f7c3664736f6c63430008120033",
			"opcodes": "PUSH1 0x80 PUSH1 0x40 MSTORE CALLVALUE DUP1 ISZERO PUSH2 0x10 JUMPI PUSH1 0x0 DUP1 REVERT JUMPDEST POP PUSH2 0xA24 DUP1 PUSH2 0x20 PUSH1 0x0 CODECOPY PUSH1 0x0 RETURN INVALID PUSH1 0x80 PUSH1 0x40 MSTORE CALLVALUE DUP1 ISZERO PUSH2 0x10 JUMPI PUSH1 0x0 DUP1 REVERT JUMPDEST POP PUSH1 0x4 CALLDATASIZE LT PUSH2 0x41 JUMPI PUSH1 0x0 CALLDATALOAD PUSH1 0xE0 SHR DUP1 PUSH4 0x682AD06E EQ PUSH2 0x46 JUMPI DUP1 PUSH4 0x6B7B44D7 EQ PUSH2 0x62 JUMPI DUP1 PUSH4 0xA6C807A9 EQ PUSH2 0x95 JUMPI JUMPDEST PUSH1 0x0 DUP1 REVERT JUMPDEST PUSH2 0x60 PUSH1 0x4 DUP1 CALLDATASIZE SUB DUP2 ADD SWAP1 PUSH2 0x5B SWAP2 SWAP1 PUSH2 0x521 JUMP JUMPDEST PUSH2 0xC8 JUMP JUMPDEST STOP JUMPDEST PUSH2 0x7C PUSH1 0x4 DUP1 CALLDATASIZE SUB DUP2 ADD SWAP1 PUSH2 0x77 SWAP2 SWAP1 PUSH2 0x5EE JUMP JUMPDEST PUSH2 0x194 JUMP JUMPDEST PUSH1 0x40 MLOAD PUSH2 0x8C SWAP5 SWAP4 SWAP3 SWAP2 SWAP1 PUSH2 0x6C4 JUMP JUMPDEST PUSH1 0x40 MLOAD DUP1 SWAP2 SUB SWAP1 RETURN JUMPDEST PUSH2 0xAF PUSH1 0x4 DUP1 CALLDATASIZE SUB DUP2 ADD SWAP1 PUSH2 0xAA SWAP2 SWAP1 PUSH2 0x5EE JUMP JUMPDEST PUSH2 0x2CC JUMP JUMPDEST PUSH1 0x40 MLOAD PUSH2 0xBF SWAP5 SWAP4 SWAP3 SWAP2 SWAP1 PUSH2 0x6C4 JUMP JUMPDEST PUSH1 0x40 MLOAD DUP1 SWAP2 SUB SWAP1 RETURN JUMPDEST PUSH1 0x0 PUSH1 0x28 DUP3 LT PUSH2 0xDB JUMPI PUSH1 0x1 SWAP1 POP PUSH2 0xE0 JUMP JUMPDEST PUSH1 0x0 SWAP1 POP JUMPDEST PUSH1 0x40 MLOAD DUP1 PUSH1 0x80 ADD PUSH1 0x40 MSTORE DUP1 DUP6 DUP2 MSTORE PUSH1 0x20 ADD DUP5 DUP2 MSTORE PUSH1 0x20 ADD DUP4 DUP2 MSTORE PUSH1 0x20 ADD DUP3 ISZERO ISZERO DUP2 MSTORE POP PUSH1 0x0 DUP1 CALLER PUSH20 0xFFFFFFFFFFFFFFFFFFFFFFFFFFFFFFFFFFFFFFFF AND PUSH20 0xFFFFFFFFFFFFFFFFFFFFFFFFFFFFFFFFFFFFFFFF AND DUP2 MSTORE PUSH1 0x20 ADD SWAP1 DUP2 MSTORE PUSH1 0x20 ADD PUSH1 0x0 KECCAK256 PUSH1 0x0 DUP3 ADD MLOAD DUP2 PUSH1 0x0 ADD SWAP1 DUP2 PUSH2 0x156 SWAP2 SWAP1 PUSH2 0x91C JUMP JUMPDEST POP PUSH1 0x20 DUP3 ADD MLOAD DUP2 PUSH1 0x1 ADD SSTORE PUSH1 0x40 DUP3 ADD MLOAD DUP2 PUSH1 0x2 ADD SSTORE PUSH1 0x60 DUP3 ADD MLOAD DUP2 PUSH1 0x3 ADD PUSH1 0x0 PUSH2 0x100 EXP DUP2 SLOAD DUP2 PUSH1 0xFF MUL NOT AND SWAP1 DUP4 ISZERO ISZERO MUL OR SWAP1 SSTORE POP SWAP1 POP POP POP POP POP POP JUMP JUMPDEST PUSH1 0x60 PUSH1 0x0 DUP1 PUSH1 0x0 DUP1 PUSH1 0x0 DUP1 DUP8 PUSH20 0xFFFFFFFFFFFFFFFFFFFFFFFFFFFFFFFFFFFFFFFF AND PUSH20 0xFFFFFFFFFFFFFFFFFFFFFFFFFFFFFFFFFFFFFFFF AND DUP2 MSTORE PUSH1 0x20 ADD SWAP1 DUP2 MSTORE PUSH1 0x20 ADD PUSH1 0x0 KECCAK256 PUSH1 0x40 MLOAD DUP1 PUSH1 0x80 ADD PUSH1 0x40 MSTORE SWAP1 DUP2 PUSH1 0x0 DUP3 ADD DUP1 SLOAD PUSH2 0x1F5 SWAP1 PUSH2 0x73F JUMP JUMPDEST DUP1 PUSH1 0x1F ADD PUSH1 0x20 DUP1 SWAP2 DIV MUL PUSH1 0x20 ADD PUSH1 0x40 MLOAD SWAP1 DUP2 ADD PUSH1 0x40 MSTORE DUP1 SWAP3 SWAP2 SWAP1 DUP2 DUP2 MSTORE PUSH1 0x20 ADD DUP3 DUP1 SLOAD PUSH2 0x221 SWAP1 PUSH2 0x73F JUMP JUMPDEST DUP1 ISZERO PUSH2 0x26E JUMPI DUP1 PUSH1 0x1F LT PUSH2 0x243 JUMPI PUSH2 0x100 DUP1 DUP4 SLOAD DIV MUL DUP4 MSTORE SWAP2 PUSH1 0x20 ADD SWAP2 PUSH2 0x26E JUMP JUMPDEST DUP3 ADD SWAP2 SWAP1 PUSH1 0x0 MSTORE PUSH1 0x20 PUSH1 0x0 KECCAK256 SWAP1 JUMPDEST DUP2 SLOAD DUP2 MSTORE SWAP1 PUSH1 0x1 ADD SWAP1 PUSH1 0x20 ADD DUP1 DUP4 GT PUSH2 0x251 JUMPI DUP3 SWAP1 SUB PUSH1 0x1F AND DUP3 ADD SWAP2 JUMPDEST POP POP POP POP POP DUP2 MSTORE PUSH1 0x20 ADD PUSH1 0x1 DUP3 ADD SLOAD DUP2 MSTORE PUSH1 0x20 ADD PUSH1 0x2 DUP3 ADD SLOAD DUP2 MSTORE PUSH1 0x20 ADD PUSH1 0x3 DUP3 ADD PUSH1 0x0 SWAP1 SLOAD SWAP1 PUSH2 0x100 EXP SWAP1 DIV PUSH1 0xFF AND ISZERO ISZERO ISZERO ISZERO DUP2 MSTORE POP POP SWAP1 POP DUP1 PUSH1 0x0 ADD MLOAD DUP2 PUSH1 0x20 ADD MLOAD DUP3 PUSH1 0x40 ADD MLOAD DUP4 PUSH1 0x60 ADD MLOAD SWAP5 POP SWAP5 POP SWAP5 POP SWAP5 POP POP SWAP2 SWAP4 POP SWAP2 SWAP4 JUMP JUMPDEST PUSH1 0x0 PUSH1 0x20 MSTORE DUP1 PUSH1 0x0 MSTORE PUSH1 0x40 PUSH1 0x0 KECCAK256 PUSH1 0x0 SWAP2 POP SWAP1 POP DUP1 PUSH1 0x0 ADD DUP1 SLOAD PUSH2 0x2EF SWAP1 PUSH2 0x73F JUMP JUMPDEST DUP1 PUSH1 0x1F ADD PUSH1 0x20 DUP1 SWAP2 DIV MUL PUSH1 0x20 ADD PUSH1 0x40 MLOAD SWAP1 DUP2 ADD PUSH1 0x40 MSTORE DUP1 SWAP3 SWAP2 SWAP1 DUP2 DUP2 MSTORE PUSH1 0x20 ADD DUP3 DUP1 SLOAD PUSH2 0x31B SWAP1 PUSH2 0x73F JUMP JUMPDEST DUP1 ISZERO PUSH2 0x368 JUMPI DUP1 PUSH1 0x1F LT PUSH2 0x33D JUMPI PUSH2 0x100 DUP1 DUP4 SLOAD DIV MUL DUP4 MSTORE SWAP2 PUSH1 0x20 ADD SWAP2 PUSH2 0x368 JUMP JUMPDEST DUP3 ADD SWAP2 SWAP1 PUSH1 0x0 MSTORE PUSH1 0x20 PUSH1 0x0 KECCAK256 SWAP1 JUMPDEST DUP2 SLOAD DUP2 MSTORE SWAP1 PUSH1 0x1 ADD SWAP1 PUSH1 0x20 ADD DUP1 DUP4 GT PUSH2 0x34B JUMPI DUP3 SWAP1 SUB PUSH1 0x1F AND DUP3 ADD SWAP2 JUMPDEST POP POP POP POP POP SWAP1 DUP1 PUSH1 0x1 ADD SLOAD SWAP1 DUP1 PUSH1 0x2 ADD SLOAD SWAP1 DUP1 PUSH1 0x3 ADD PUSH1 0x0 SWAP1 SLOAD SWAP1 PUSH2 0x100 EXP SWAP1 DIV PUSH1 0xFF AND SWAP1 POP DUP5 JUMP JUMPDEST PUSH1 0x0 PUSH1 0x40 MLOAD SWAP1 POP SWAP1 JUMP JUMPDEST PUSH1 0x0 DUP1 REVERT JUMPDEST PUSH1 0x0 DUP1 REVERT JUMPDEST PUSH1 0x0 DUP1 REVERT JUMPDEST PUSH1 0x0 DUP1 REVERT JUMPDEST PUSH1 0x0 PUSH1 0x1F NOT PUSH1 0x1F DUP4 ADD AND SWAP1 POP SWAP2 SWAP1 POP JUMP JUMPDEST PUSH32 0x4E487B7100000000000000000000000000000000000000000000000000000000 PUSH1 0x0 MSTORE PUSH1 0x41 PUSH1 0x4 MSTORE PUSH1 0x24 PUSH1 0x0 REVERT JUMPDEST PUSH2 0x3F8 DUP3 PUSH2 0x3AF JUMP JUMPDEST DUP2 ADD DUP2 DUP2 LT PUSH8 0xFFFFFFFFFFFFFFFF DUP3 GT OR ISZERO PUSH2 0x417 JUMPI PUSH2 0x416 PUSH2 0x3C0 JUMP JUMPDEST JUMPDEST DUP1 PUSH1 0x40 MSTORE POP POP POP JUMP JUMPDEST PUSH1 0x0 PUSH2 0x42A PUSH2 0x391 JUMP JUMPDEST SWAP1 POP PUSH2 0x436 DUP3 DUP3 PUSH2 0x3EF JUMP JUMPDEST SWAP2 SWAP1 POP JUMP JUMPDEST PUSH1 0x0 PUSH8 0xFFFFFFFFFFFFFFFF DUP3 GT ISZERO PUSH2 0x456 JUMPI PUSH2 0x455 PUSH2 0x3C0 JUMP JUMPDEST JUMPDEST PUSH2 0x45F DUP3 PUSH2 0x3AF JUMP JUMPDEST SWAP1 POP PUSH1 0x20 DUP2 ADD SWAP1 POP SWAP2 SWAP1 POP JUMP JUMPDEST DUP3 DUP2 DUP4 CALLDATACOPY PUSH1 0x0 DUP4 DUP4 ADD MSTORE POP POP POP JUMP JUMPDEST PUSH1 0x0 PUSH2 0x48E PUSH2 0x489 DUP5 PUSH2 0x43B JUMP JUMPDEST PUSH2 0x420 JUMP JUMPDEST SWAP1 POP DUP3 DUP2 MSTORE PUSH1 0x20 DUP2 ADD DUP5 DUP5 DUP5 ADD GT ISZERO PUSH2 0x4AA JUMPI PUSH2 0x4A9 PUSH2 0x3AA JUMP JUMPDEST JUMPDEST PUSH2 0x4B5 DUP5 DUP3 DUP6 PUSH2 0x46C JUMP JUMPDEST POP SWAP4 SWAP3 POP POP POP JUMP JUMPDEST PUSH1 0x0 DUP3 PUSH1 0x1F DUP4 ADD SLT PUSH2 0x4D2 JUMPI PUSH2 0x4D1 PUSH2 0x3A5 JUMP JUMPDEST JUMPDEST DUP2 CALLDATALOAD PUSH2 0x4E2 DUP5 DUP3 PUSH1 0x20 DUP7 ADD PUSH2 0x47B JUMP JUMPDEST SWAP2 POP POP SWAP3 SWAP2 POP POP JUMP JUMPDEST PUSH1 0x0 DUP2 SWAP1 POP SWAP2 SWAP1 POP JUMP JUMPDEST PUSH2 0x4FE DUP2 PUSH2 0x4EB JUMP JUMPDEST DUP2 EQ PUSH2 0x509 JUMPI PUSH1 0x0 DUP1 REVERT JUMPDEST POP JUMP JUMPDEST PUSH1 0x0 DUP2 CALLDATALOAD SWAP1 POP PUSH2 0x51B DUP2 PUSH2 0x4F5 JUMP JUMPDEST SWAP3 SWAP2 POP POP JUMP JUMPDEST PUSH1 0x0 DUP1 PUSH1 0x0 PUSH1 0x60 DUP5 DUP7 SUB SLT ISZERO PUSH2 0x53A JUMPI PUSH2 0x539 PUSH2 0x39B JUMP JUMPDEST JUMPDEST PUSH1 0x0 DUP5 ADD CALLDATALOAD PUSH8 0xFFFFFFFFFFFFFFFF DUP2 GT ISZERO PUSH2 0x558 JUMPI PUSH2 0x557 PUSH2 0x3A0 JUMP JUMPDEST JUMPDEST PUSH2 0x564 DUP7 DUP3 DUP8 ADD PUSH2 0x4BD JUMP JUMPDEST SWAP4 POP POP PUSH1 0x20 PUSH2 0x575 DUP7 DUP3 DUP8 ADD PUSH2 0x50C JUMP JUMPDEST SWAP3 POP POP PUSH1 0x40 PUSH2 0x586 DUP7 DUP3 DUP8 ADD PUSH2 0x50C JUMP JUMPDEST SWAP2 POP POP SWAP3 POP SWAP3 POP SWAP3 JUMP JUMPDEST PUSH1 0x0 PUSH20 0xFFFFFFFFFFFFFFFFFFFFFFFFFFFFFFFFFFFFFFFF DUP3 AND SWAP1 POP SWAP2 SWAP1 POP JUMP JUMPDEST PUSH1 0x0 PUSH2 0x5BB DUP3 PUSH2 0x590 JUMP JUMPDEST SWAP1 POP SWAP2 SWAP1 POP JUMP JUMPDEST PUSH2 0x5CB DUP2 PUSH2 0x5B0 JUMP JUMPDEST DUP2 EQ PUSH2 0x5D6 JUMPI PUSH1 0x0 DUP1 REVERT JUMPDEST POP JUMP JUMPDEST PUSH1 0x0 DUP2 CALLDATALOAD SWAP1 POP PUSH2 0x5E8 DUP2 PUSH2 0x5C2 JUMP JUMPDEST SWAP3 SWAP2 POP POP JUMP JUMPDEST PUSH1 0x0 PUSH1 0x20 DUP3 DUP5 SUB SLT ISZERO PUSH2 0x604 JUMPI PUSH2 0x603 PUSH2 0x39B JUMP JUMPDEST JUMPDEST PUSH1 0x0 PUSH2 0x612 DUP5 DUP3 DUP6 ADD PUSH2 0x5D9 JUMP JUMPDEST SWAP2 POP POP SWAP3 SWAP2 POP POP JUMP JUMPDEST PUSH1 0x0 DUP2 MLOAD SWAP1 POP SWAP2 SWAP1 POP JUMP JUMPDEST PUSH1 0x0 DUP3 DUP3 MSTORE PUSH1 0x20 DUP3 ADD SWAP1 POP SWAP3 SWAP2 POP POP JUMP JUMPDEST PUSH1 0x0 JUMPDEST DUP4 DUP2 LT ISZERO PUSH2 0x655 JUMPI DUP1 DUP3 ADD MLOAD DUP2 DUP5 ADD MSTORE PUSH1 0x20 DUP2 ADD SWAP1 POP PUSH2 0x63A JUMP JUMPDEST PUSH1 0x0 DUP5 DUP5 ADD MSTORE POP POP POP POP JUMP JUMPDEST PUSH1 0x0 PUSH2 0x66C DUP3 PUSH2 0x61B JUMP JUMPDEST PUSH2 0x676 DUP2 DUP6 PUSH2 0x626 JUMP JUMPDEST SWAP4 POP PUSH2 0x686 DUP2 DUP6 PUSH1 0x20 DUP7 ADD PUSH2 0x637 JUMP JUMPDEST PUSH2 0x68F DUP2 PUSH2 0x3AF JUMP JUMPDEST DUP5 ADD SWAP2 POP POP SWAP3 SWAP2 POP POP JUMP JUMPDEST PUSH2 0x6A3 DUP2 PUSH2 0x4EB JUMP JUMPDEST DUP3 MSTORE POP POP JUMP JUMPDEST PUSH1 0x0 DUP2 ISZERO ISZERO SWAP1 POP SWAP2 SWAP1 POP JUMP JUMPDEST PUSH2 0x6BE DUP2 PUSH2 0x6A9 JUMP JUMPDEST DUP3 MSTORE POP POP JUMP JUMPDEST PUSH1 0x0 PUSH1 0x80 DUP3 ADD SWAP1 POP DUP2 DUP2 SUB PUSH1 0x0 DUP4 ADD MSTORE PUSH2 0x6DE DUP2 DUP8 PUSH2 0x661 JUMP JUMPDEST SWAP1 POP PUSH2 0x6ED PUSH1 0x20 DUP4 ADD DUP7 PUSH2 0x69A JUMP JUMPDEST PUSH2 0x6FA PUSH1 0x40 DUP4 ADD DUP6 PUSH2 0x69A JUMP JUMPDEST PUSH2 0x707 PUSH1 0x60 DUP4 ADD DUP5 PUSH2 0x6B5 JUMP JUMPDEST SWAP6 SWAP5 POP POP POP POP POP JUMP JUMPDEST PUSH32 0x4E487B7100000000000000000000000000000000000000000000000000000000 PUSH1 0x0 MSTORE PUSH1 0x22 PUSH1 0x4 MSTORE PUSH1 0x24 PUSH1 0x0 REVERT JUMPDEST PUSH1 0x0 PUSH1 0x2 DUP3 DIV SWAP1 POP PUSH1 0x1 DUP3 AND DUP1 PUSH2 0x757 JUMPI PUSH1 0x7F DUP3 AND SWAP2 POP JUMPDEST PUSH1 0x20 DUP3 LT DUP2 SUB PUSH2 0x76A JUMPI PUSH2 0x769 PUSH2 0x710 JUMP JUMPDEST JUMPDEST POP SWAP2 SWAP1 POP JUMP JUMPDEST PUSH1 0x0 DUP2 SWAP1 POP DUP2 PUSH1 0x0 MSTORE PUSH1 0x20 PUSH1 0x0 KECCAK256 SWAP1 POP SWAP2 SWAP1 POP JUMP JUMPDEST PUSH1 0x0 PUSH1 0x20 PUSH1 0x1F DUP4 ADD DIV SWAP1 POP SWAP2 SWAP1 POP JUMP JUMPDEST PUSH1 0x0 DUP3 DUP3 SHL SWAP1 POP SWAP3 SWAP2 POP POP JUMP JUMPDEST PUSH1 0x0 PUSH1 0x8 DUP4 MUL PUSH2 0x7D2 PUSH32 0xFFFFFFFFFFFFFFFFFFFFFFFFFFFFFFFFFFFFFFFFFFFFFFFFFFFFFFFFFFFFFFFF DUP3 PUSH2 0x795 JUMP JUMPDEST PUSH2 0x7DC DUP7 DUP4 PUSH2 0x795 JUMP JUMPDEST SWAP6 POP DUP1 NOT DUP5 AND SWAP4 POP DUP1 DUP7 AND DUP5 OR SWAP3 POP POP POP SWAP4 SWAP3 POP POP POP JUMP JUMPDEST PUSH1 0x0 DUP2 SWAP1 POP SWAP2 SWAP1 POP JUMP JUMPDEST PUSH1 0x0 PUSH2 0x819 PUSH2 0x814 PUSH2 0x80F DUP5 PUSH2 0x4EB JUMP JUMPDEST PUSH2 0x7F4 JUMP JUMPDEST PUSH2 0x4EB JUMP JUMPDEST SWAP1 POP SWAP2 SWAP1 POP JUMP JUMPDEST PUSH1 0x0 DUP2 SWAP1 POP SWAP2 SWAP1 POP JUMP JUMPDEST PUSH2 0x833 DUP4 PUSH2 0x7FE JUMP JUMPDEST PUSH2 0x847 PUSH2 0x83F DUP3 PUSH2 0x820 JUMP JUMPDEST DUP5 DUP5 SLOAD PUSH2 0x7A2 JUMP JUMPDEST DUP3 SSTORE POP POP POP POP JUMP JUMPDEST PUSH1 0x0 SWAP1 JUMP JUMPDEST PUSH2 0x85C PUSH2 0x84F JUMP JUMPDEST PUSH2 0x867 DUP2 DUP5 DUP5 PUSH2 0x82A JUMP JUMPDEST POP POP POP JUMP JUMPDEST JUMPDEST DUP2 DUP2 LT ISZERO PUSH2 0x88B JUMPI PUSH2 0x880 PUSH1 0x0 DUP3 PUSH2 0x854 JUMP JUMPDEST PUSH1 0x1 DUP2 ADD SWAP1 POP PUSH2 0x86D JUMP JUMPDEST POP POP JUMP JUMPDEST PUSH1 0x1F DUP3 GT ISZERO PUSH2 0x8D0 JUMPI PUSH2 0x8A1 DUP2 PUSH2 0x770 JUMP JUMPDEST PUSH2 0x8AA DUP5 PUSH2 0x785 JUMP JUMPDEST DUP2 ADD PUSH1 0x20 DUP6 LT ISZERO PUSH2 0x8B9 JUMPI DUP2 SWAP1 POP JUMPDEST PUSH2 0x8CD PUSH2 0x8C5 DUP6 PUSH2 0x785 JUMP JUMPDEST DUP4 ADD DUP3 PUSH2 0x86C JUMP JUMPDEST POP POP JUMPDEST POP POP POP JUMP JUMPDEST PUSH1 0x0 DUP3 DUP3 SHR SWAP1 POP SWAP3 SWAP2 POP POP JUMP JUMPDEST PUSH1 0x0 PUSH2 0x8F3 PUSH1 0x0 NOT DUP5 PUSH1 0x8 MUL PUSH2 0x8D5 JUMP JUMPDEST NOT DUP1 DUP4 AND SWAP2 POP POP SWAP3 SWAP2 POP POP JUMP JUMPDEST PUSH1 0x0 PUSH2 0x90C DUP4 DUP4 PUSH2 0x8E2 JUMP JUMPDEST SWAP2 POP DUP3 PUSH1 0x2 MUL DUP3 OR SWAP1 POP SWAP3 SWAP2 POP POP JUMP JUMPDEST PUSH2 0x925 DUP3 PUSH2 0x61B JUMP JUMPDEST PUSH8 0xFFFFFFFFFFFFFFFF DUP2 GT ISZERO PUSH2 0x93E JUMPI PUSH2 0x93D PUSH2 0x3C0 JUMP JUMPDEST JUMPDEST PUSH2 0x948 DUP3 SLOAD PUSH2 0x73F JUMP JUMPDEST PUSH2 0x953 DUP3 DUP3 DUP6 PUSH2 0x88F JUMP JUMPDEST PUSH1 0x0 PUSH1 0x20 SWAP1 POP PUSH1 0x1F DUP4 GT PUSH1 0x1 DUP2 EQ PUSH2 0x986 JUMPI PUSH1 0x0 DUP5 ISZERO PUSH2 0x974 JUMPI DUP3 DUP8 ADD MLOAD SWAP1 POP JUMPDEST PUSH2 0x97E DUP6 DUP3 PUSH2 0x900 JUMP JUMPDEST DUP7 SSTORE POP PUSH2 0x9E6 JUMP JUMPDEST PUSH1 0x1F NOT DUP5 AND PUSH2 0x994 DUP7 PUSH2 0x770 JUMP JUMPDEST PUSH1 0x0 JUMPDEST DUP3 DUP2 LT ISZERO PUSH2 0x9BC JUMPI DUP5 DUP10 ADD MLOAD DUP3 SSTORE PUSH1 0x1 DUP3 ADD SWAP2 POP PUSH1 0x20 DUP6 ADD SWAP5 POP PUSH1 0x20 DUP2 ADD SWAP1 POP PUSH2 0x997 JUMP JUMPDEST DUP7 DUP4 LT ISZERO PUSH2 0x9D9 JUMPI DUP5 DUP10 ADD MLOAD PUSH2 0x9D5 PUSH1 0x1F DUP10 AND DUP3 PUSH2 0x8E2 JUMP JUMPDEST DUP4 SSTORE POP JUMPDEST PUSH1 0x1 PUSH1 0x2 DUP9 MUL ADD DUP9 SSTORE POP POP POP JUMPDEST POP POP POP POP POP POP JUMP INVALID LOG2 PUSH5 0x6970667358 0x22 SLT KECCAK256 POP 0xBD MLOAD POP STOP ADD LOG0 0xB0 0x29 0xFB 0x5E OR 0x4D 0xE2 0xB2 0x2C 0xD8 0x25 0xB5 DUP1 DUP9 GAS 0xBD 0xC8 0xBF PUSH14 0x88E5A4F7C3664736F6C63430008 SLT STOP CALLER "
		},
		"gasEstimates": {
			"creation": {
				"codeDepositCost": "519200",
				"executionCost": "556",
				"totalCost": "519756"
			},
			"external": {
				"addStudent(string,uint256,uint256)": "infinite",
				"getStudent(address)": "infinite",
				"students(address)": "infinite"
			}
		},
		"methodIdentifiers": {
			"addStudent(string,uint256,uint256)": "682ad06e",
			"getStudent(address)": "6b7b44d7",
			"students(address)": "a6c807a9"
		}
	},
	"abi": [
		{
			"inputs": [
				{
					"internalType": "string",
					"name": "_name",
					"type": "string"
				},
				{
					"internalType": "uint256",
					"name": "_age",
					"type": "uint256"
				},
				{
					"internalType": "uint256",
					"name": "_marks",
					"type": "uint256"
				}
			],
			"name": "addStudent",
			"outputs": [],
			"stateMutability": "nonpayable",
			"type": "function"
		},
		{
			"inputs": [
				{
					"internalType": "address",
					"name": "user",
					"type": "address"
				}
			],
			"name": "getStudent",
			"outputs": [
				{
					"internalType": "string",
					"name": "",
					"type": "string"
				},
				{
					"internalType": "uint256",
					"name": "",
					"type": "uint256"
				},
				{
					"internalType": "uint256",
					"name": "",
					"type": "uint256"
				},
				{
					"internalType": "bool",
					"name": "",
					"type": "bool"
				}
			],
			"stateMutability": "view",
			"type": "function"
		},
		{
			"inputs": [
				{
					"internalType": "address",
					"name": "",
					"type": "address"
				}
			],
			"name": "students",
			"outputs": [
				{
					"internalType": "string",
					"name": "name",
					"type": "string"
				},
				{
					"internalType": "uint256",
					"name": "age",
					"type": "uint256"
				},
				{
					"internalType": "uint256",
					"name": "marks",
					"type": "uint256"
				},
				{
					"internalType": "bool",
					"name": "isPassed",
					"type": "bool"
				}
			],
			"stateMutability": "view",
			"type": "function"
		}
	]
}