{
	"data": {
		"bytecode": {
			"linkReferences": {},
			"object": "608060405261199260005561199a600155600154600054610020919061006e565b60025534801561002f57600080fd5b506100a2565b6000819050919050565b7f4e487b7100000000000000000000000000000000000000000000000000000000600052601160045260246000fd5b600061007982610035565b915061008483610035565b925082820190508082111561009c5761009b61003f565b5b92915050565b610107806100b16000396000f3fe6080604052348015600f57600080fd5b5060043610603c5760003560e01c806332e7c5bf1460415780636537214714605b578063f446c1d0146075575b600080fd5b6047608f565b6040516052919060b8565b60405180910390f35b60616095565b604051606c919060b8565b60405180910390f35b607b609b565b6040516086919060b8565b60405180910390f35b60015481565b60025481565b60005481565b6000819050919050565b60b28160a1565b82525050565b600060208201905060cb600083018460ab565b9291505056fea2646970667358221220259cf43ebb55f0a83677297b78a40407817e50eebefb171c0b16d76f2c1107fe64736f6c63430008120033",
			"opcodes": "PUSH1 0x80 PUSH1 0x40 MSTORE PUSH2 0x1992 PUSH1 0x0 SSTORE PUSH2 0x199A PUSH1 0x1 SSTORE PUSH1 0x1 SLOAD PUSH1 0x0 SLOAD PUSH2 0x20 SWAP2 SWAP1 PUSH2 0x6E JUMP JUMPDEST PUSH1 0x2 SSTORE CALLVALUE DUP1 ISZERO PUSH2 0x2F JUMPI PUSH1 0x0 DUP1 REVERT JUMPDEST POP PUSH2 0xA2 JUMP JUMPDEST PUSH1 0x0 DUP2 SWAP1 POP SWAP2 SWAP1 POP JUMP JUMPDEST PUSH32 0x4E487B7100000000000000000000000000000000000000000000000000000000 PUSH1 0x0 MSTORE PUSH1 0x11 PUSH1 0x4 MSTORE PUSH1 0x24 PUSH1 0x0 REVERT JUMPDEST PUSH1 0x0 PUSH2 0x79 DUP3 PUSH2 0x35 JUMP JUMPDEST SWAP2 POP PUSH2 0x84 DUP4 PUSH2 0x35 JUMP JUMPDEST SWAP3 POP DUP3 DUP3 ADD SWAP1 POP DUP1 DUP3 GT ISZERO PUSH2 0x9C JUMPI PUSH2 0x9B PUSH2 0x3F JUMP JUMPDEST JUMPDEST SWAP3 SWAP2 POP POP JUMP JUMPDEST PUSH2 0x107 DUP1 PUSH2 0xB1 PUSH1 0x0 CODECOPY PUSH1 0x0 RETURN INVALID PUSH1 0x80 PUSH1 0x40 MSTORE CALLVALUE DUP1 ISZERO PUSH1 0xF JUMPI PUSH1 0x0 DUP1 REVERT JUMPDEST POP PUSH1 0x4 CALLDATASIZE LT PUSH1 0x3C JUMPI PUSH1 0x0 CALLDATALOAD PUSH1 0xE0 SHR DUP1 PUSH4 0x32E7C5BF EQ PUSH1 0x41 JUMPI DUP1 PUSH4 0x65372147 EQ PUSH1 0x5B JUMPI DUP1 PUSH4 0xF446C1D0 EQ PUSH1 0x75 JUMPI JUMPDEST PUSH1 0x0 DUP1 REVERT JUMPDEST PUSH1 0x47 PUSH1 0x8F JUMP JUMPDEST PUSH1 0x40 MLOAD PUSH1 0x52 SWAP2 SWAP1 PUSH1 0xB8 JUMP JUMPDEST PUSH1 0x40 MLOAD DUP1 SWAP2 SUB SWAP1 RETURN JUMPDEST PUSH1 0x61 PUSH1 0x95 JUMP JUMPDEST PUSH1 0x40 MLOAD PUSH1 0x6C SWAP2 SWAP1 PUSH1 0xB8 JUMP JUMPDEST PUSH1 0x40 MLOAD DUP1 SWAP2 SUB SWAP1 RETURN JUMPDEST PUSH1 0x7B PUSH1 0x9B JUMP JUMPDEST PUSH1 0x40 MLOAD PUSH1 0x86 SWAP2 SWAP1 PUSH1 0xB8 JUMP JUMPDEST PUSH1 0x40 MLOAD DUP1 SWAP2 SUB SWAP1 RETURN JUMPDEST PUSH1 0x1 SLOAD DUP2 JUMP JUMPDEST PUSH1 0x2 SLOAD DUP2 JUMP JUMPDEST PUSH1 0x0 SLOAD DUP2 JUMP JUMPDEST PUSH1 0x0 DUP2 SWAP1 POP SWAP2 SWAP1 POP JUMP JUMPDEST PUSH1 0xB2 DUP2 PUSH1 0xA1 JUMP JUMPDEST DUP3 MSTORE POP POP JUMP JUMPDEST PUSH1 0x0 PUSH1 0x20 DUP3 ADD SWAP1 POP PUSH1 0xCB PUSH1 0x0 DUP4 ADD DUP5 PUSH1 0xAB JUMP JUMPDEST SWAP3 SWAP2 POP POP JUMP INVALID LOG2 PUSH5 0x6970667358 0x22 SLT KECCAK256 0x25 SWAP13 DELEGATECALL RETURNDATACOPY 0xBB SSTORE CREATE 0xA8 CALLDATASIZE PUSH24 0x297B78A40407817E50EEBEFB171C0B16D76F2C1107FE6473 PUSH16 0x6C634300081200330000000000000000 "
		},
		"gasEstimates": {
			"creation": {
				"codeDepositCost": "52600",
				"executionCost": "infinite",
				"totalCost": "infinite"
			},
			"external": {
				"A()": "2451",
				"B()": "2407",
				"result()": "2429"
			}
		},
		"methodIdentifiers": {
			"A()": "f446c1d0",
			"B()": "32e7c5bf",
			"result()": "65372147"
		}
	},
	"abi": [
		{
			"inputs": [],
			"name": "A",
			"outputs": [
				{
					"internalType": "uint256",
					"name": "",
					"type": "uint256"
				}
			],
			"stateMutability": "view",
			"type": "function"
		},
		{
			"inputs": [],
			"name": "B",
			"outputs": [
				{
					"internalType": "uint256",
					"name": "",
					"type": "uint256"
				}
			],
			"stateMutability": "view",
			"type": "function"
		},
		{
			"inputs": [],
			"name": "result",
			"outputs": [
				{
					"internalType": "uint256",
					"name": "",
					"type": "uint256"
				}
			],
			"stateMutability": "view",
			"type": "function"
		}
	]
}