{
	"data": {
		"bytecode": {
			"linkReferences": {},
			"object": "6080604052604051806101200160405280600260ff168152602001600e60ff168152602001600660ff168152602001600760ff168152602001601360ff168152602001603760ff168152602001600a60ff168152602001600260ff168152602001600560ff16815250600090600961007892919061008b565b5034801561008557600080fd5b506100fa565b8280548282559060005260206000209081019282156100cc579160200282015b828111156100cb578251829060ff169055916020019190600101906100ab565b5b5090506100d991906100dd565b5090565b5b808211156100f65760008160009055506001016100de565b5090565b6101d8806101096000396000f3fe608060405234801561001057600080fd5b506004361061002b5760003560e01c8063ae29343214610030575b600080fd5b61003861004e565b60405161004591906100e1565b60405180910390f35b6000806000905060005b6000805490508110156100c05760008181548110610079576100786100fc565b5b90600052602060002001548210156100ad576000818154811061009f5761009e6100fc565b5b906000526020600020015491505b80806100b89061015a565b915050610058565b819250505090565b6000819050919050565b6100db816100c8565b82525050565b60006020820190506100f660008301846100d2565b92915050565b7f4e487b7100000000000000000000000000000000000000000000000000000000600052603260045260246000fd5b7f4e487b7100000000000000000000000000000000000000000000000000000000600052601160045260246000fd5b6000610165826100c8565b91507fffffffffffffffffffffffffffffffffffffffffffffffffffffffffffffffff82036101975761019661012b565b5b60018201905091905056fea2646970667358221220e8e582ef7638d9fea49c301f8f47a99862cdf1fff2f113612d97efc71e20d95064736f6c63430008120033",
			"opcodes": "PUSH1 0x80 PUSH1 0x40 MSTORE PUSH1 0x40 MLOAD DUP1 PUSH2 0x120 ADD PUSH1 0x40 MSTORE DUP1 PUSH1 0x2 PUSH1 0xFF AND DUP2 MSTORE PUSH1 0x20 ADD PUSH1 0xE PUSH1 0xFF AND DUP2 MSTORE PUSH1 0x20 ADD PUSH1 0x6 PUSH1 0xFF AND DUP2 MSTORE PUSH1 0x20 ADD PUSH1 0x7 PUSH1 0xFF AND DUP2 MSTORE PUSH1 0x20 ADD PUSH1 0x13 PUSH1 0xFF AND DUP2 MSTORE PUSH1 0x20 ADD PUSH1 0x37 PUSH1 0xFF AND DUP2 MSTORE PUSH1 0x20 ADD PUSH1 0xA PUSH1 0xFF AND DUP2 MSTORE PUSH1 0x20 ADD PUSH1 0x2 PUSH1 0xFF AND DUP2 MSTORE PUSH1 0x20 ADD PUSH1 0x5 PUSH1 0xFF AND DUP2 MSTORE POP PUSH1 0x0 SWAP1 PUSH1 0x9 PUSH2 0x78 SWAP3 SWAP2 SWAP1 PUSH2 0x8B JUMP JUMPDEST POP CALLVALUE DUP1 ISZERO PUSH2 0x85 JUMPI PUSH1 0x0 DUP1 REVERT JUMPDEST POP PUSH2 0xFA JUMP JUMPDEST DUP3 DUP1 SLOAD DUP3 DUP3 SSTORE SWAP1 PUSH1 0x0 MSTORE PUSH1 0x20 PUSH1 0x0 KECCAK256 SWAP1 DUP2 ADD SWAP3 DUP3 ISZERO PUSH2 0xCC JUMPI SWAP2 PUSH1 0x20 MUL DUP3 ADD JUMPDEST DUP3 DUP2 GT ISZERO PUSH2 0xCB JUMPI DUP3 MLOAD DUP3 SWAP1 PUSH1 0xFF AND SWAP1 SSTORE SWAP2 PUSH1 0x20 ADD SWAP2 SWAP1 PUSH1 0x1 ADD SWAP1 PUSH2 0xAB JUMP JUMPDEST JUMPDEST POP SWAP1 POP PUSH2 0xD9 SWAP2 SWAP1 PUSH2 0xDD JUMP JUMPDEST POP SWAP1 JUMP JUMPDEST JUMPDEST DUP1 DUP3 GT ISZERO PUSH2 0xF6 JUMPI PUSH1 0x0 DUP2 PUSH1 0x0 SWAP1 SSTORE POP PUSH1 0x1 ADD PUSH2 0xDE JUMP JUMPDEST POP SWAP1 JUMP JUMPDEST PUSH2 0x1D8 DUP1 PUSH2 0x109 PUSH1 0x0 CODECOPY PUSH1 0x0 RETURN INVALID PUSH1 0x80 PUSH1 0x40 MSTORE CALLVALUE DUP1 ISZERO PUSH2 0x10 JUMPI PUSH1 0x0 DUP1 REVERT JUMPDEST POP PUSH1 0x4 CALLDATASIZE LT PUSH2 0x2B JUMPI PUSH1 0x0 CALLDATALOAD PUSH1 0xE0 SHR DUP1 PUSH4 0xAE293432 EQ PUSH2 0x30 JUMPI JUMPDEST PUSH1 0x0 DUP1 REVERT JUMPDEST PUSH2 0x38 PUSH2 0x4E JUMP JUMPDEST PUSH1 0x40 MLOAD PUSH2 0x45 SWAP2 SWAP1 PUSH2 0xE1 JUMP JUMPDEST PUSH1 0x40 MLOAD DUP1 SWAP2 SUB SWAP1 RETURN JUMPDEST PUSH1 0x0 DUP1 PUSH1 0x0 SWAP1 POP PUSH1 0x0 JUMPDEST PUSH1 0x0 DUP1 SLOAD SWAP1 POP DUP2 LT ISZERO PUSH2 0xC0 JUMPI PUSH1 0x0 DUP2 DUP2 SLOAD DUP2 LT PUSH2 0x79 JUMPI PUSH2 0x78 PUSH2 0xFC JUMP JUMPDEST JUMPDEST SWAP1 PUSH1 0x0 MSTORE PUSH1 0x20 PUSH1 0x0 KECCAK256 ADD SLOAD DUP3 LT ISZERO PUSH2 0xAD JUMPI PUSH1 0x0 DUP2 DUP2 SLOAD DUP2 LT PUSH2 0x9F JUMPI PUSH2 0x9E PUSH2 0xFC JUMP JUMPDEST JUMPDEST SWAP1 PUSH1 0x0 MSTORE PUSH1 0x20 PUSH1 0x0 KECCAK256 ADD SLOAD SWAP2 POP JUMPDEST DUP1 DUP1 PUSH2 0xB8 SWAP1 PUSH2 0x15A JUMP JUMPDEST SWAP2 POP POP PUSH2 0x58 JUMP JUMPDEST DUP2 SWAP3 POP POP POP SWAP1 JUMP JUMPDEST PUSH1 0x0 DUP2 SWAP1 POP SWAP2 SWAP1 POP JUMP JUMPDEST PUSH2 0xDB DUP2 PUSH2 0xC8 JUMP JUMPDEST DUP3 MSTORE POP POP JUMP JUMPDEST PUSH1 0x0 PUSH1 0x20 DUP3 ADD SWAP1 POP PUSH2 0xF6 PUSH1 0x0 DUP4 ADD DUP5 PUSH2 0xD2 JUMP JUMPDEST SWAP3 SWAP2 POP POP JUMP JUMPDEST PUSH32 0x4E487B7100000000000000000000000000000000000000000000000000000000 PUSH1 0x0 MSTORE PUSH1 0x32 PUSH1 0x4 MSTORE PUSH1 0x24 PUSH1 0x0 REVERT JUMPDEST PUSH32 0x4E487B7100000000000000000000000000000000000000000000000000000000 PUSH1 0x0 MSTORE PUSH1 0x11 PUSH1 0x4 MSTORE PUSH1 0x24 PUSH1 0x0 REVERT JUMPDEST PUSH1 0x0 PUSH2 0x165 DUP3 PUSH2 0xC8 JUMP JUMPDEST SWAP2 POP PUSH32 0xFFFFFFFFFFFFFFFFFFFFFFFFFFFFFFFFFFFFFFFFFFFFFFFFFFFFFFFFFFFFFFFF DUP3 SUB PUSH2 0x197 JUMPI PUSH2 0x196 PUSH2 0x12B JUMP JUMPDEST JUMPDEST PUSH1 0x1 DUP3 ADD SWAP1 POP SWAP2 SWAP1 POP JUMP INVALID LOG2 PUSH5 0x6970667358 0x22 SLT KECCAK256 0xE8 0xE5 DUP3 0xEF PUSH23 0x38D9FEA49C301F8F47A99862CDF1FFF2F113612D97EFC7 0x1E KECCAK256 0xD9 POP PUSH5 0x736F6C6343 STOP ADDMOD SLT STOP CALLER "
		},
		"gasEstimates": {
			"creation": {
				"codeDepositCost": "94400",
				"executionCost": "infinite",
				"totalCost": "infinite"
			},
			"external": {
				"getLargest()": "infinite"
			}
		},
		"methodIdentifiers": {
			"getLargest()": "ae293432"
		}
	},
	"abi": [
		{
			"inputs": [],
			"name": "getLargest",
			"outputs": [
				{
					"internalType": "uint256",
					"name": "",
					"type": "uint256"
				}
			],
			"stateMutability": "view",
			"type": "function"
		}
	]
}