{
	"data": {
		"bytecode": {
			"linkReferences": {},
			"object": "60806040526101185f553480156013575f5ffd5b503360025f6101000a81548173ffffffffffffffffffffffffffffffffffffffff021916908373ffffffffffffffffffffffffffffffffffffffff1602179055506118dd806100615f395ff3fe608060405234801561000f575f5ffd5b5060043610610091575f3560e01c806341cc78821161006457806341cc78821461011f57806343df8c3f1461014f578063535750891461016b578063633782161461019b578063edb601e5146101b757610091565b806305a1b4a914610095578063126af0b3146100c95780631ce12124146100e55780633d9b569f14610103575b5f5ffd5b6100af60048036038101906100aa9190610d6f565b6101d5565b6040516100c0959493929190610e3b565b60405180910390f35b6100e360048036038101906100de9190610e93565b6102c6565b005b6100ed61035e565b6040516100fa9190610ebe565b60405180910390f35b61011d60048036038101906101189190610d6f565b610363565b005b61013960048036038101906101349190610ed7565b6105b4565b6040516101469190611096565b60405180910390f35b610169600480360381019061016491906111e2565b61074f565b005b61018560048036038101906101809190610d6f565b610942565b604051610192919061129c565b60405180910390f35b6101b560048036038101906101b09190610d6f565b610aba565b005b6101bf610c6b565b6040516101cc91906112bc565b60405180910390f35b6001602052815f5260405f2081815481106101ee575f80fd5b905f5260205f2090600502015f9150915050805f015490806001015f9054906101000a900473ffffffffffffffffffffffffffffffffffffffff169080600201805461023990611302565b80601f016020809104026020016040519081016040528092919081815260200182805461026590611302565b80156102b05780601f10610287576101008083540402835291602001916102b0565b820191905f5260205f20905b81548152906001019060200180831161029357829003601f168201915b5050505050908060030154908060040154905085565b60025f9054906101000a900473ffffffffffffffffffffffffffffffffffffffff1673ffffffffffffffffffffffffffffffffffffffff163373ffffffffffffffffffffffffffffffffffffffff1614610355576040517f08c379a000000000000000000000000000000000000000000000000000000000815260040161034c9061137c565b60405180910390fd5b805f8190555050565b5f5481565b8060015f8473ffffffffffffffffffffffffffffffffffffffff1673ffffffffffffffffffffffffffffffffffffffff1681526020019081526020015f2082815481106103b3576103b261139a565b5b905f5260205f2090600502015f015414610402576040517f08c379a00000000000000000000000000000000000000000000000000000000081526004016103f990611411565b60405180910390fd5b5f60015f8473ffffffffffffffffffffffffffffffffffffffff1673ffffffffffffffffffffffffffffffffffffffff1681526020019081526020015f2082815481106104525761045161139a565b5b905f5260205f20906005020160040154116104a2576040517f08c379a000000000000000000000000000000000000000000000000000000000815260040161049990611479565b60405180910390fd5b60015f8373ffffffffffffffffffffffffffffffffffffffff1673ffffffffffffffffffffffffffffffffffffffff1681526020019081526020015f2081815481106104f1576104f061139a565b5b905f5260205f2090600502016004015f815480929190610510906114c4565b91905055507f3d0717fd4a356bba715c2c433039813105c7a0503b6e6722b88ac387e53f179533838360015f8773ffffffffffffffffffffffffffffffffffffffff1673ffffffffffffffffffffffffffffffffffffffff1681526020019081526020015f2085815481106105885761058761139a565b5b905f5260205f209060050201600401546040516105a894939291906114eb565b60405180910390a15050565b606060015f8373ffffffffffffffffffffffffffffffffffffffff1673ffffffffffffffffffffffffffffffffffffffff1681526020019081526020015f20805480602002602001604051908101604052809291908181526020015f905b82821015610744578382905f5260205f2090600502016040518060a00160405290815f8201548152602001600182015f9054906101000a900473ffffffffffffffffffffffffffffffffffffffff1673ffffffffffffffffffffffffffffffffffffffff1673ffffffffffffffffffffffffffffffffffffffff1681526020016002820180546106a190611302565b80601f01602080910402602001604051908101604052809291908181526020018280546106cd90611302565b80156107185780601f106106ef57610100808354040283529160200191610718565b820191905f5260205f20905b8154815290600101906020018083116106fb57829003601f168201915b505050505081526020016003820154815260200160048201548152505081526020019060010190610612565b505050509050919050565b5f5481511115610794576040517f08c379a000000000000000000000000000000000000000000000000000000000815260040161078b90611578565b60405180910390fd5b5f6040518060a0016040528060015f3373ffffffffffffffffffffffffffffffffffffffff1673ffffffffffffffffffffffffffffffffffffffff1681526020019081526020015f208054905081526020013373ffffffffffffffffffffffffffffffffffffffff1681526020018381526020014281526020015f815250905060015f3373ffffffffffffffffffffffffffffffffffffffff1673ffffffffffffffffffffffffffffffffffffffff1681526020019081526020015f2081908060018154018082558091505060019003905f5260205f2090600502015f909190919091505f820151815f01556020820151816001015f6101000a81548173ffffffffffffffffffffffffffffffffffffffff021916908373ffffffffffffffffffffffffffffffffffffffff16021790555060408201518160020190816108db9190611747565b50606082015181600301556080820151816004015550507fc9211faa39590db63b101ff258efde3b9b7fa2b63bec1be58d9169c3c223549b815f01518260200151836040015184606001516040516109369493929190611816565b60405180910390a15050565b61094a610c90565b60015f8473ffffffffffffffffffffffffffffffffffffffff1673ffffffffffffffffffffffffffffffffffffffff1681526020019081526020015f2082815481106109995761099861139a565b5b905f5260205f2090600502016040518060a00160405290815f8201548152602001600182015f9054906101000a900473ffffffffffffffffffffffffffffffffffffffff1673ffffffffffffffffffffffffffffffffffffffff1673ffffffffffffffffffffffffffffffffffffffff168152602001600282018054610a1e90611302565b80601f0160208091040260200160405190810160405280929190818152602001828054610a4a90611302565b8015610a955780601f10610a6c57610100808354040283529160200191610a95565b820191905f5260205f20905b815481529060010190602001808311610a7857829003601f168201915b5050505050815260200160038201548152602001600482015481525050905092915050565b8060015f8473ffffffffffffffffffffffffffffffffffffffff1673ffffffffffffffffffffffffffffffffffffffff1681526020019081526020015f208281548110610b0a57610b0961139a565b5b905f5260205f2090600502015f015414610b59576040517f08c379a0000000000000000000000000000000000000000000000000000000008152600401610b5090611411565b60405180910390fd5b60015f8373ffffffffffffffffffffffffffffffffffffffff1673ffffffffffffffffffffffffffffffffffffffff1681526020019081526020015f208181548110610ba857610ba761139a565b5b905f5260205f2090600502016004015f815480929190610bc790611860565b91905055507f1117be1a5b246d71cf1faaa8835901e0932a62af9dec3a738caee60fcb55049933838360015f8773ffffffffffffffffffffffffffffffffffffffff1673ffffffffffffffffffffffffffffffffffffffff1681526020019081526020015f208581548110610c3f57610c3e61139a565b5b905f5260205f20906005020160040154604051610c5f94939291906114eb565b60405180910390a15050565b60025f9054906101000a900473ffffffffffffffffffffffffffffffffffffffff1681565b6040518060a001604052805f81526020015f73ffffffffffffffffffffffffffffffffffffffff168152602001606081526020015f81526020015f81525090565b5f604051905090565b5f5ffd5b5f5ffd5b5f73ffffffffffffffffffffffffffffffffffffffff82169050919050565b5f610d0b82610ce2565b9050919050565b610d1b81610d01565b8114610d25575f5ffd5b50565b5f81359050610d3681610d12565b92915050565b5f819050919050565b610d4e81610d3c565b8114610d58575f5ffd5b50565b5f81359050610d6981610d45565b92915050565b5f5f60408385031215610d8557610d84610cda565b5b5f610d9285828601610d28565b9250506020610da385828601610d5b565b9150509250929050565b610db681610d3c565b82525050565b610dc581610d01565b82525050565b5f81519050919050565b5f82825260208201905092915050565b8281835e5f83830152505050565b5f601f19601f8301169050919050565b5f610e0d82610dcb565b610e178185610dd5565b9350610e27818560208601610de5565b610e3081610df3565b840191505092915050565b5f60a082019050610e4e5f830188610dad565b610e5b6020830187610dbc565b8181036040830152610e6d8186610e03565b9050610e7c6060830185610dad565b610e896080830184610dad565b9695505050505050565b5f60208284031215610ea857610ea7610cda565b5b5f610eb584828501610d5b565b91505092915050565b5f602082019050610ed15f830184610dad565b92915050565b5f60208284031215610eec57610eeb610cda565b5b5f610ef984828501610d28565b91505092915050565b5f81519050919050565b5f82825260208201905092915050565b5f819050602082019050919050565b610f3481610d3c565b82525050565b610f4381610d01565b82525050565b5f82825260208201905092915050565b5f610f6382610dcb565b610f6d8185610f49565b9350610f7d818560208601610de5565b610f8681610df3565b840191505092915050565b5f60a083015f830151610fa65f860182610f2b565b506020830151610fb96020860182610f3a565b5060408301518482036040860152610fd18282610f59565b9150506060830151610fe66060860182610f2b565b506080830151610ff96080860182610f2b565b508091505092915050565b5f61100f8383610f91565b905092915050565b5f602082019050919050565b5f61102d82610f02565b6110378185610f0c565b93508360208202850161104985610f1c565b805f5b8581101561108457848403895281516110658582611004565b945061107083611017565b925060208a0199505060018101905061104c565b50829750879550505050505092915050565b5f6020820190508181035f8301526110ae8184611023565b905092915050565b5f5ffd5b5f5ffd5b7f4e487b71000000000000000000000000000000000000000000000000000000005f52604160045260245ffd5b6110f482610df3565b810181811067ffffffffffffffff82111715611113576111126110be565b5b80604052505050565b5f611125610cd1565b905061113182826110eb565b919050565b5f67ffffffffffffffff8211156111505761114f6110be565b5b61115982610df3565b9050602081019050919050565b828183375f83830152505050565b5f61118661118184611136565b61111c565b9050828152602081018484840111156111a2576111a16110ba565b5b6111ad848285611166565b509392505050565b5f82601f8301126111c9576111c86110b6565b5b81356111d9848260208601611174565b91505092915050565b5f602082840312156111f7576111f6610cda565b5b5f82013567ffffffffffffffff81111561121457611213610cde565b5b611220848285016111b5565b91505092915050565b5f60a083015f83015161123e5f860182610f2b565b5060208301516112516020860182610f3a565b50604083015184820360408601526112698282610f59565b915050606083015161127e6060860182610f2b565b5060808301516112916080860182610f2b565b508091505092915050565b5f6020820190508181035f8301526112b48184611229565b905092915050565b5f6020820190506112cf5f830184610dbc565b92915050565b7f4e487b71000000000000000000000000000000000000000000000000000000005f52602260045260245ffd5b5f600282049050600182168061131957607f821691505b60208210810361132c5761132b6112d5565b5b50919050565b7f4f6e6c79206f776e65722063616e206265206368616e6765206c656e677468005f82015250565b5f611366601f83610dd5565b915061137182611332565b602082019050919050565b5f6020820190508181035f8301526113938161135a565b9050919050565b7f4e487b71000000000000000000000000000000000000000000000000000000005f52603260045260245ffd5b7f547765657420646f6573206e6f742065786973740000000000000000000000005f82015250565b5f6113fb601483610dd5565b9150611406826113c7565b602082019050919050565b5f6020820190508181035f830152611428816113ef565b9050919050565b7f547765657420686173206e6f206c696b650000000000000000000000000000005f82015250565b5f611463601183610dd5565b915061146e8261142f565b602082019050919050565b5f6020820190508181035f83015261149081611457565b9050919050565b7f4e487b71000000000000000000000000000000000000000000000000000000005f52601160045260245ffd5b5f6114ce82610d3c565b91505f82036114e0576114df611497565b5b600182039050919050565b5f6080820190506114fe5f830187610dbc565b61150b6020830186610dbc565b6115186040830185610dad565b6115256060830184610dad565b95945050505050565b7f4d617820436861726163746572732052656163686564000000000000000000005f82015250565b5f611562601683610dd5565b915061156d8261152e565b602082019050919050565b5f6020820190508181035f83015261158f81611556565b9050919050565b5f819050815f5260205f209050919050565b5f6020601f8301049050919050565b5f82821b905092915050565b5f600883026115f27fffffffffffffffffffffffffffffffffffffffffffffffffffffffffffffffff826115b7565b6115fc86836115b7565b95508019841693508086168417925050509392505050565b5f819050919050565b5f61163761163261162d84610d3c565b611614565b610d3c565b9050919050565b5f819050919050565b6116508361161d565b61166461165c8261163e565b8484546115c3565b825550505050565b5f5f905090565b61167b61166c565b611686818484611647565b505050565b5f5b828110156116ac576116a15f828401611673565b60018101905061168d565b505050565b601f8211156116ff57828211156116fe576116cb81611596565b6116d4836115a8565b6116dd856115a8565b60208610156116ea575f90505b8083016116f98284038261168b565b505050505b5b505050565b5f82821c905092915050565b5f61171f5f1984600802611704565b1980831691505092915050565b5f6117378383611710565b9150826002028217905092915050565b61175082610dcb565b67ffffffffffffffff811115611769576117686110be565b5b6117738254611302565b61177e8282856116b1565b5f60209050601f8311600181146117af575f841561179d578287015190505b6117a7858261172c565b86555061180e565b601f1984166117bd86611596565b5f5b828110156117e4578489015182556001820191506020850194506020810190506117bf565b8683101561180157848901516117fd601f891682611710565b8355505b6001600288020188555050505b505050505050565b5f6080820190506118295f830187610dad565b6118366020830186610dbc565b81810360408301526118488185610e03565b90506118576060830184610dad565b95945050505050565b5f61186a82610d3c565b91507fffffffffffffffffffffffffffffffffffffffffffffffffffffffffffffffff820361189c5761189b611497565b5b60018201905091905056fea264697066735822122083c063f6a559d38b3f2feb59292ff1ecac12088d3de739e7cf80ef64a6c4431864736f6c63430008220033",
			"opcodes": "PUSH1 0x80 PUSH1 0x40 MSTORE PUSH2 0x118 PUSH0 SSTORE CALLVALUE DUP1 ISZERO PUSH1 0x13 JUMPI PUSH0 PUSH0 REVERT JUMPDEST POP CALLER PUSH1 0x2 PUSH0 PUSH2 0x100 EXP DUP2 SLOAD DUP2 PUSH20 0xFFFFFFFFFFFFFFFFFFFFFFFFFFFFFFFFFFFFFFFF MUL NOT AND SWAP1 DUP4 PUSH20 0xFFFFFFFFFFFFFFFFFFFFFFFFFFFFFFFFFFFFFFFF AND MUL OR SWAP1 SSTORE POP PUSH2 0x18DD DUP1 PUSH2 0x61 PUSH0 CODECOPY PUSH0 RETURN INVALID PUSH1 0x80 PUSH1 0x40 MSTORE CALLVALUE DUP1 ISZERO PUSH2 0xF JUMPI PUSH0 PUSH0 REVERT JUMPDEST POP PUSH1 0x4 CALLDATASIZE LT PUSH2 0x91 JUMPI PUSH0 CALLDATALOAD PUSH1 0xE0 SHR DUP1 PUSH4 0x41CC7882 GT PUSH2 0x64 JUMPI DUP1 PUSH4 0x41CC7882 EQ PUSH2 0x11F JUMPI DUP1 PUSH4 0x43DF8C3F EQ PUSH2 0x14F JUMPI DUP1 PUSH4 0x53575089 EQ PUSH2 0x16B JUMPI DUP1 PUSH4 0x63378216 EQ PUSH2 0x19B JUMPI DUP1 PUSH4 0xEDB601E5 EQ PUSH2 0x1B7 JUMPI PUSH2 0x91 JUMP JUMPDEST DUP1 PUSH4 0x5A1B4A9 EQ PUSH2 0x95 JUMPI DUP1 PUSH4 0x126AF0B3 EQ PUSH2 0xC9 JUMPI DUP1 PUSH4 0x1CE12124 EQ PUSH2 0xE5 JUMPI DUP1 PUSH4 0x3D9B569F EQ PUSH2 0x103 JUMPI JUMPDEST PUSH0 PUSH0 REVERT JUMPDEST PUSH2 0xAF PUSH1 0x4 DUP1 CALLDATASIZE SUB DUP2 ADD SWAP1 PUSH2 0xAA SWAP2 SWAP1 PUSH2 0xD6F JUMP JUMPDEST PUSH2 0x1D5 JUMP JUMPDEST PUSH1 0x40 MLOAD PUSH2 0xC0 SWAP6 SWAP5 SWAP4 SWAP3 SWAP2 SWAP1 PUSH2 0xE3B JUMP JUMPDEST PUSH1 0x40 MLOAD DUP1 SWAP2 SUB SWAP1 RETURN JUMPDEST PUSH2 0xE3 PUSH1 0x4 DUP1 CALLDATASIZE SUB DUP2 ADD SWAP1 PUSH2 0xDE SWAP2 SWAP1 PUSH2 0xE93 JUMP JUMPDEST PUSH2 0x2C6 JUMP JUMPDEST STOP JUMPDEST PUSH2 0xED PUSH2 0x35E JUMP JUMPDEST PUSH1 0x40 MLOAD PUSH2 0xFA SWAP2 SWAP1 PUSH2 0xEBE JUMP JUMPDEST PUSH1 0x40 MLOAD DUP1 SWAP2 SUB SWAP1 RETURN JUMPDEST PUSH2 0x11D PUSH1 0x4 DUP1 CALLDATASIZE SUB DUP2 ADD SWAP1 PUSH2 0x118 SWAP2 SWAP1 PUSH2 0xD6F JUMP JUMPDEST PUSH2 0x363 JUMP JUMPDEST STOP JUMPDEST PUSH2 0x139 PUSH1 0x4 DUP1 CALLDATASIZE SUB DUP2 ADD SWAP1 PUSH2 0x134 SWAP2 SWAP1 PUSH2 0xED7 JUMP JUMPDEST PUSH2 0x5B4 JUMP JUMPDEST PUSH1 0x40 MLOAD PUSH2 0x146 SWAP2 SWAP1 PUSH2 0x1096 JUMP JUMPDEST PUSH1 0x40 MLOAD DUP1 SWAP2 SUB SWAP1 RETURN JUMPDEST PUSH2 0x169 PUSH1 0x4 DUP1 CALLDATASIZE SUB DUP2 ADD SWAP1 PUSH2 0x164 SWAP2 SWAP1 PUSH2 0x11E2 JUMP JUMPDEST PUSH2 0x74F JUMP JUMPDEST STOP JUMPDEST PUSH2 0x185 PUSH1 0x4 DUP1 CALLDATASIZE SUB DUP2 ADD SWAP1 PUSH2 0x180 SWAP2 SWAP1 PUSH2 0xD6F JUMP JUMPDEST PUSH2 0x942 JUMP JUMPDEST PUSH1 0x40 MLOAD PUSH2 0x192 SWAP2 SWAP1 PUSH2 0x129C JUMP JUMPDEST PUSH1 0x40 MLOAD DUP1 SWAP2 SUB SWAP1 RETURN JUMPDEST PUSH2 0x1B5 PUSH1 0x4 DUP1 CALLDATASIZE SUB DUP2 ADD SWAP1 PUSH2 0x1B0 SWAP2 SWAP1 PUSH2 0xD6F JUMP JUMPDEST PUSH2 0xABA JUMP JUMPDEST STOP JUMPDEST PUSH2 0x1BF PUSH2 0xC6B JUMP JUMPDEST PUSH1 0x40 MLOAD PUSH2 0x1CC SWAP2 SWAP1 PUSH2 0x12BC JUMP JUMPDEST PUSH1 0x40 MLOAD DUP1 SWAP2 SUB SWAP1 RETURN JUMPDEST PUSH1 0x1 PUSH1 0x20 MSTORE DUP2 PUSH0 MSTORE PUSH1 0x40 PUSH0 KECCAK256 DUP2 DUP2 SLOAD DUP2 LT PUSH2 0x1EE JUMPI PUSH0 DUP1 REVERT JUMPDEST SWAP1 PUSH0 MSTORE PUSH1 0x20 PUSH0 KECCAK256 SWAP1 PUSH1 0x5 MUL ADD PUSH0 SWAP2 POP SWAP2 POP POP DUP1 PUSH0 ADD SLOAD SWAP1 DUP1 PUSH1 0x1 ADD PUSH0 SWAP1 SLOAD SWAP1 PUSH2 0x100 EXP SWAP1 DIV PUSH20 0xFFFFFFFFFFFFFFFFFFFFFFFFFFFFFFFFFFFFFFFF AND SWAP1 DUP1 PUSH1 0x2 ADD DUP1 SLOAD PUSH2 0x239 SWAP1 PUSH2 0x1302 JUMP JUMPDEST DUP1 PUSH1 0x1F ADD PUSH1 0x20 DUP1 SWAP2 DIV MUL PUSH1 0x20 ADD PUSH1 0x40 MLOAD SWAP1 DUP2 ADD PUSH1 0x40 MSTORE DUP1 SWAP3 SWAP2 SWAP1 DUP2 DUP2 MSTORE PUSH1 0x20 ADD DUP3 DUP1 SLOAD PUSH2 0x265 SWAP1 PUSH2 0x1302 JUMP JUMPDEST DUP1 ISZERO PUSH2 0x2B0 JUMPI DUP1 PUSH1 0x1F LT PUSH2 0x287 JUMPI PUSH2 0x100 DUP1 DUP4 SLOAD DIV MUL DUP4 MSTORE SWAP2 PUSH1 0x20 ADD SWAP2 PUSH2 0x2B0 JUMP JUMPDEST DUP3 ADD SWAP2 SWAP1 PUSH0 MSTORE PUSH1 0x20 PUSH0 KECCAK256 SWAP1 JUMPDEST DUP2 SLOAD DUP2 MSTORE SWAP1 PUSH1 0x1 ADD SWAP1 PUSH1 0x20 ADD DUP1 DUP4 GT PUSH2 0x293 JUMPI DUP3 SWAP1 SUB PUSH1 0x1F AND DUP3 ADD SWAP2 JUMPDEST POP POP POP POP POP SWAP1 DUP1 PUSH1 0x3 ADD SLOAD SWAP1 DUP1 PUSH1 0x4 ADD SLOAD SWAP1 POP DUP6 JUMP JUMPDEST PUSH1 0x2 PUSH0 SWAP1 SLOAD SWAP1 PUSH2 0x100 EXP SWAP1 DIV PUSH20 0xFFFFFFFFFFFFFFFFFFFFFFFFFFFFFFFFFFFFFFFF AND PUSH20 0xFFFFFFFFFFFFFFFFFFFFFFFFFFFFFFFFFFFFFFFF AND CALLER PUSH20 0xFFFFFFFFFFFFFFFFFFFFFFFFFFFFFFFFFFFFFFFF AND EQ PUSH2 0x355 JUMPI PUSH1 0x40 MLOAD PUSH32 0x8C379A000000000000000000000000000000000000000000000000000000000 DUP2 MSTORE PUSH1 0x4 ADD PUSH2 0x34C SWAP1 PUSH2 0x137C JUMP JUMPDEST PUSH1 0x40 MLOAD DUP1 SWAP2 SUB SWAP1 REVERT JUMPDEST DUP1 PUSH0 DUP2 SWAP1 SSTORE POP POP JUMP JUMPDEST PUSH0 SLOAD DUP2 JUMP JUMPDEST DUP1 PUSH1 0x1 PUSH0 DUP5 PUSH20 0xFFFFFFFFFFFFFFFFFFFFFFFFFFFFFFFFFFFFFFFF AND PUSH20 0xFFFFFFFFFFFFFFFFFFFFFFFFFFFFFFFFFFFFFFFF AND DUP2 MSTORE PUSH1 0x20 ADD SWAP1 DUP2 MSTORE PUSH1 0x20 ADD PUSH0 KECCAK256 DUP3 DUP2 SLOAD DUP2 LT PUSH2 0x3B3 JUMPI PUSH2 0x3B2 PUSH2 0x139A JUMP JUMPDEST JUMPDEST SWAP1 PUSH0 MSTORE PUSH1 0x20 PUSH0 KECCAK256 SWAP1 PUSH1 0x5 MUL ADD PUSH0 ADD SLOAD EQ PUSH2 0x402 JUMPI PUSH1 0x40 MLOAD PUSH32 0x8C379A000000000000000000000000000000000000000000000000000000000 DUP2 MSTORE PUSH1 0x4 ADD PUSH2 0x3F9 SWAP1 PUSH2 0x1411 JUMP JUMPDEST PUSH1 0x40 MLOAD DUP1 SWAP2 SUB SWAP1 REVERT JUMPDEST PUSH0 PUSH1 0x1 PUSH0 DUP5 PUSH20 0xFFFFFFFFFFFFFFFFFFFFFFFFFFFFFFFFFFFFFFFF AND PUSH20 0xFFFFFFFFFFFFFFFFFFFFFFFFFFFFFFFFFFFFFFFF AND DUP2 MSTORE PUSH1 0x20 ADD SWAP1 DUP2 MSTORE PUSH1 0x20 ADD PUSH0 KECCAK256 DUP3 DUP2 SLOAD DUP2 LT PUSH2 0x452 JUMPI PUSH2 0x451 PUSH2 0x139A JUMP JUMPDEST JUMPDEST SWAP1 PUSH0 MSTORE PUSH1 0x20 PUSH0 KECCAK256 SWAP1 PUSH1 0x5 MUL ADD PUSH1 0x4 ADD SLOAD GT PUSH2 0x4A2 JUMPI PUSH1 0x40 MLOAD PUSH32 0x8C379A000000000000000000000000000000000000000000000000000000000 DUP2 MSTORE PUSH1 0x4 ADD PUSH2 0x499 SWAP1 PUSH2 0x1479 JUMP JUMPDEST PUSH1 0x40 MLOAD DUP1 SWAP2 SUB SWAP1 REVERT JUMPDEST PUSH1 0x1 PUSH0 DUP4 PUSH20 0xFFFFFFFFFFFFFFFFFFFFFFFFFFFFFFFFFFFFFFFF AND PUSH20 0xFFFFFFFFFFFFFFFFFFFFFFFFFFFFFFFFFFFFFFFF AND DUP2 MSTORE PUSH1 0x20 ADD SWAP1 DUP2 MSTORE PUSH1 0x20 ADD PUSH0 KECCAK256 DUP2 DUP2 SLOAD DUP2 LT PUSH2 0x4F1 JUMPI PUSH2 0x4F0 PUSH2 0x139A JUMP JUMPDEST JUMPDEST SWAP1 PUSH0 MSTORE PUSH1 0x20 PUSH0 KECCAK256 SWAP1 PUSH1 0x5 MUL ADD PUSH1 0x4 ADD PUSH0 DUP2 SLOAD DUP1 SWAP3 SWAP2 SWAP1 PUSH2 0x510 SWAP1 PUSH2 0x14C4 JUMP JUMPDEST SWAP2 SWAP1 POP SSTORE POP PUSH32 0x3D0717FD4A356BBA715C2C433039813105C7A0503B6E6722B88AC387E53F1795 CALLER DUP4 DUP4 PUSH1 0x1 PUSH0 DUP8 PUSH20 0xFFFFFFFFFFFFFFFFFFFFFFFFFFFFFFFFFFFFFFFF AND PUSH20 0xFFFFFFFFFFFFFFFFFFFFFFFFFFFFFFFFFFFFFFFF AND DUP2 MSTORE PUSH1 0x20 ADD SWAP1 DUP2 MSTORE PUSH1 0x20 ADD PUSH0 KECCAK256 DUP6 DUP2 SLOAD DUP2 LT PUSH2 0x588 JUMPI PUSH2 0x587 PUSH2 0x139A JUMP JUMPDEST JUMPDEST SWAP1 PUSH0 MSTORE PUSH1 0x20 PUSH0 KECCAK256 SWAP1 PUSH1 0x5 MUL ADD PUSH1 0x4 ADD SLOAD PUSH1 0x40 MLOAD PUSH2 0x5A8 SWAP5 SWAP4 SWAP3 SWAP2 SWAP1 PUSH2 0x14EB JUMP JUMPDEST PUSH1 0x40 MLOAD DUP1 SWAP2 SUB SWAP1 LOG1 POP POP JUMP JUMPDEST PUSH1 0x60 PUSH1 0x1 PUSH0 DUP4 PUSH20 0xFFFFFFFFFFFFFFFFFFFFFFFFFFFFFFFFFFFFFFFF AND PUSH20 0xFFFFFFFFFFFFFFFFFFFFFFFFFFFFFFFFFFFFFFFF AND DUP2 MSTORE PUSH1 0x20 ADD SWAP1 DUP2 MSTORE PUSH1 0x20 ADD PUSH0 KECCAK256 DUP1 SLOAD DUP1 PUSH1 0x20 MUL PUSH1 0x20 ADD PUSH1 0x40 MLOAD SWAP1 DUP2 ADD PUSH1 0x40 MSTORE DUP1 SWAP3 SWAP2 SWAP1 DUP2 DUP2 MSTORE PUSH1 0x20 ADD PUSH0 SWAP1 JUMPDEST DUP3 DUP3 LT ISZERO PUSH2 0x744 JUMPI DUP4 DUP3 SWAP1 PUSH0 MSTORE PUSH1 0x20 PUSH0 KECCAK256 SWAP1 PUSH1 0x5 MUL ADD PUSH1 0x40 MLOAD DUP1 PUSH1 0xA0 ADD PUSH1 0x40 MSTORE SWAP1 DUP2 PUSH0 DUP3 ADD SLOAD DUP2 MSTORE PUSH1 0x20 ADD PUSH1 0x1 DUP3 ADD PUSH0 SWAP1 SLOAD SWAP1 PUSH2 0x100 EXP SWAP1 DIV PUSH20 0xFFFFFFFFFFFFFFFFFFFFFFFFFFFFFFFFFFFFFFFF AND PUSH20 0xFFFFFFFFFFFFFFFFFFFFFFFFFFFFFFFFFFFFFFFF AND PUSH20 0xFFFFFFFFFFFFFFFFFFFFFFFFFFFFFFFFFFFFFFFF AND DUP2 MSTORE PUSH1 0x20 ADD PUSH1 0x2 DUP3 ADD DUP1 SLOAD PUSH2 0x6A1 SWAP1 PUSH2 0x1302 JUMP JUMPDEST DUP1 PUSH1 0x1F ADD PUSH1 0x20 DUP1 SWAP2 DIV MUL PUSH1 0x20 ADD PUSH1 0x40 MLOAD SWAP1 DUP2 ADD PUSH1 0x40 MSTORE DUP1 SWAP3 SWAP2 SWAP1 DUP2 DUP2 MSTORE PUSH1 0x20 ADD DUP3 DUP1 SLOAD PUSH2 0x6CD SWAP1 PUSH2 0x1302 JUMP JUMPDEST DUP1 ISZERO PUSH2 0x718 JUMPI DUP1 PUSH1 0x1F LT PUSH2 0x6EF JUMPI PUSH2 0x100 DUP1 DUP4 SLOAD DIV MUL DUP4 MSTORE SWAP2 PUSH1 0x20 ADD SWAP2 PUSH2 0x718 JUMP JUMPDEST DUP3 ADD SWAP2 SWAP1 PUSH0 MSTORE PUSH1 0x20 PUSH0 KECCAK256 SWAP1 JUMPDEST DUP2 SLOAD DUP2 MSTORE SWAP1 PUSH1 0x1 ADD SWAP1 PUSH1 0x20 ADD DUP1 DUP4 GT PUSH2 0x6FB JUMPI DUP3 SWAP1 SUB PUSH1 0x1F AND DUP3 ADD SWAP2 JUMPDEST POP POP POP POP POP DUP2 MSTORE PUSH1 0x20 ADD PUSH1 0x3 DUP3 ADD SLOAD DUP2 MSTORE PUSH1 0x20 ADD PUSH1 0x4 DUP3 ADD SLOAD DUP2 MSTORE POP POP DUP2 MSTORE PUSH1 0x20 ADD SWAP1 PUSH1 0x1 ADD SWAP1 PUSH2 0x612 JUMP JUMPDEST POP POP POP POP SWAP1 POP SWAP2 SWAP1 POP JUMP JUMPDEST PUSH0 SLOAD DUP2 MLOAD GT ISZERO PUSH2 0x794 JUMPI PUSH1 0x40 MLOAD PUSH32 0x8C379A000000000000000000000000000000000000000000000000000000000 DUP2 MSTORE PUSH1 0x4 ADD PUSH2 0x78B SWAP1 PUSH2 0x1578 JUMP JUMPDEST PUSH1 0x40 MLOAD DUP1 SWAP2 SUB SWAP1 REVERT JUMPDEST PUSH0 PUSH1 0x40 MLOAD DUP1 PUSH1 0xA0 ADD PUSH1 0x40 MSTORE DUP1 PUSH1 0x1 PUSH0 CALLER PUSH20 0xFFFFFFFFFFFFFFFFFFFFFFFFFFFFFFFFFFFFFFFF AND PUSH20 0xFFFFFFFFFFFFFFFFFFFFFFFFFFFFFFFFFFFFFFFF AND DUP2 MSTORE PUSH1 0x20 ADD SWAP1 DUP2 MSTORE PUSH1 0x20 ADD PUSH0 KECCAK256 DUP1 SLOAD SWAP1 POP DUP2 MSTORE PUSH1 0x20 ADD CALLER PUSH20 0xFFFFFFFFFFFFFFFFFFFFFFFFFFFFFFFFFFFFFFFF AND DUP2 MSTORE PUSH1 0x20 ADD DUP4 DUP2 MSTORE PUSH1 0x20 ADD TIMESTAMP DUP2 MSTORE PUSH1 0x20 ADD PUSH0 DUP2 MSTORE POP SWAP1 POP PUSH1 0x1 PUSH0 CALLER PUSH20 0xFFFFFFFFFFFFFFFFFFFFFFFFFFFFFFFFFFFFFFFF AND PUSH20 0xFFFFFFFFFFFFFFFFFFFFFFFFFFFFFFFFFFFFFFFF AND DUP2 MSTORE PUSH1 0x20 ADD SWAP1 DUP2 MSTORE PUSH1 0x20 ADD PUSH0 KECCAK256 DUP2 SWAP1 DUP1 PUSH1 0x1 DUP2 SLOAD ADD DUP1 DUP3 SSTORE DUP1 SWAP2 POP POP PUSH1 0x1 SWAP1 SUB SWAP1 PUSH0 MSTORE PUSH1 0x20 PUSH0 KECCAK256 SWAP1 PUSH1 0x5 MUL ADD PUSH0 SWAP1 SWAP2 SWAP1 SWAP2 SWAP1 SWAP2 POP PUSH0 DUP3 ADD MLOAD DUP2 PUSH0 ADD SSTORE PUSH1 0x20 DUP3 ADD MLOAD DUP2 PUSH1 0x1 ADD PUSH0 PUSH2 0x100 EXP DUP2 SLOAD DUP2 PUSH20 0xFFFFFFFFFFFFFFFFFFFFFFFFFFFFFFFFFFFFFFFF MUL NOT AND SWAP1 DUP4 PUSH20 0xFFFFFFFFFFFFFFFFFFFFFFFFFFFFFFFFFFFFFFFF AND MUL OR SWAP1 SSTORE POP PUSH1 0x40 DUP3 ADD MLOAD DUP2 PUSH1 0x2 ADD SWAP1 DUP2 PUSH2 0x8DB SWAP2 SWAP1 PUSH2 0x1747 JUMP JUMPDEST POP PUSH1 0x60 DUP3 ADD MLOAD DUP2 PUSH1 0x3 ADD SSTORE PUSH1 0x80 DUP3 ADD MLOAD DUP2 PUSH1 0x4 ADD SSTORE POP POP PUSH32 0xC9211FAA39590DB63B101FF258EFDE3B9B7FA2B63BEC1BE58D9169C3C223549B DUP2 PUSH0 ADD MLOAD DUP3 PUSH1 0x20 ADD MLOAD DUP4 PUSH1 0x40 ADD MLOAD DUP5 PUSH1 0x60 ADD MLOAD PUSH1 0x40 MLOAD PUSH2 0x936 SWAP5 SWAP4 SWAP3 SWAP2 SWAP1 PUSH2 0x1816 JUMP JUMPDEST PUSH1 0x40 MLOAD DUP1 SWAP2 SUB SWAP1 LOG1 POP POP JUMP JUMPDEST PUSH2 0x94A PUSH2 0xC90 JUMP JUMPDEST PUSH1 0x1 PUSH0 DUP5 PUSH20 0xFFFFFFFFFFFFFFFFFFFFFFFFFFFFFFFFFFFFFFFF AND PUSH20 0xFFFFFFFFFFFFFFFFFFFFFFFFFFFFFFFFFFFFFFFF AND DUP2 MSTORE PUSH1 0x20 ADD SWAP1 DUP2 MSTORE PUSH1 0x20 ADD PUSH0 KECCAK256 DUP3 DUP2 SLOAD DUP2 LT PUSH2 0x999 JUMPI PUSH2 0x998 PUSH2 0x139A JUMP JUMPDEST JUMPDEST SWAP1 PUSH0 MSTORE PUSH1 0x20 PUSH0 KECCAK256 SWAP1 PUSH1 0x5 MUL ADD PUSH1 0x40 MLOAD DUP1 PUSH1 0xA0 ADD PUSH1 0x40 MSTORE SWAP1 DUP2 PUSH0 DUP3 ADD SLOAD DUP2 MSTORE PUSH1 0x20 ADD PUSH1 0x1 DUP3 ADD PUSH0 SWAP1 SLOAD SWAP1 PUSH2 0x100 EXP SWAP1 DIV PUSH20 0xFFFFFFFFFFFFFFFFFFFFFFFFFFFFFFFFFFFFFFFF AND PUSH20 0xFFFFFFFFFFFFFFFFFFFFFFFFFFFFFFFFFFFFFFFF AND PUSH20 0xFFFFFFFFFFFFFFFFFFFFFFFFFFFFFFFFFFFFFFFF AND DUP2 MSTORE PUSH1 0x20 ADD PUSH1 0x2 DUP3 ADD DUP1 SLOAD PUSH2 0xA1E SWAP1 PUSH2 0x1302 JUMP JUMPDEST DUP1 PUSH1 0x1F ADD PUSH1 0x20 DUP1 SWAP2 DIV MUL PUSH1 0x20 ADD PUSH1 0x40 MLOAD SWAP1 DUP2 ADD PUSH1 0x40 MSTORE DUP1 SWAP3 SWAP2 SWAP1 DUP2 DUP2 MSTORE PUSH1 0x20 ADD DUP3 DUP1 SLOAD PUSH2 0xA4A SWAP1 PUSH2 0x1302 JUMP JUMPDEST DUP1 ISZERO PUSH2 0xA95 JUMPI DUP1 PUSH1 0x1F LT PUSH2 0xA6C JUMPI PUSH2 0x100 DUP1 DUP4 SLOAD DIV MUL DUP4 MSTORE SWAP2 PUSH1 0x20 ADD SWAP2 PUSH2 0xA95 JUMP JUMPDEST DUP3 ADD SWAP2 SWAP1 PUSH0 MSTORE PUSH1 0x20 PUSH0 KECCAK256 SWAP1 JUMPDEST DUP2 SLOAD DUP2 MSTORE SWAP1 PUSH1 0x1 ADD SWAP1 PUSH1 0x20 ADD DUP1 DUP4 GT PUSH2 0xA78 JUMPI DUP3 SWAP1 SUB PUSH1 0x1F AND DUP3 ADD SWAP2 JUMPDEST POP POP POP POP POP DUP2 MSTORE PUSH1 0x20 ADD PUSH1 0x3 DUP3 ADD SLOAD DUP2 MSTORE PUSH1 0x20 ADD PUSH1 0x4 DUP3 ADD SLOAD DUP2 MSTORE POP POP SWAP1 POP SWAP3 SWAP2 POP POP JUMP JUMPDEST DUP1 PUSH1 0x1 PUSH0 DUP5 PUSH20 0xFFFFFFFFFFFFFFFFFFFFFFFFFFFFFFFFFFFFFFFF AND PUSH20 0xFFFFFFFFFFFFFFFFFFFFFFFFFFFFFFFFFFFFFFFF AND DUP2 MSTORE PUSH1 0x20 ADD SWAP1 DUP2 MSTORE PUSH1 0x20 ADD PUSH0 KECCAK256 DUP3 DUP2 SLOAD DUP2 LT PUSH2 0xB0A JUMPI PUSH2 0xB09 PUSH2 0x139A JUMP JUMPDEST JUMPDEST SWAP1 PUSH0 MSTORE PUSH1 0x20 PUSH0 KECCAK256 SWAP1 PUSH1 0x5 MUL ADD PUSH0 ADD SLOAD EQ PUSH2 0xB59 JUMPI PUSH1 0x40 MLOAD PUSH32 0x8C379A000000000000000000000000000000000000000000000000000000000 DUP2 MSTORE PUSH1 0x4 ADD PUSH2 0xB50 SWAP1 PUSH2 0x1411 JUMP JUMPDEST PUSH1 0x40 MLOAD DUP1 SWAP2 SUB SWAP1 REVERT JUMPDEST PUSH1 0x1 PUSH0 DUP4 PUSH20 0xFFFFFFFFFFFFFFFFFFFFFFFFFFFFFFFFFFFFFFFF AND PUSH20 0xFFFFFFFFFFFFFFFFFFFFFFFFFFFFFFFFFFFFFFFF AND DUP2 MSTORE PUSH1 0x20 ADD SWAP1 DUP2 MSTORE PUSH1 0x20 ADD PUSH0 KECCAK256 DUP2 DUP2 SLOAD DUP2 LT PUSH2 0xBA8 JUMPI PUSH2 0xBA7 PUSH2 0x139A JUMP JUMPDEST JUMPDEST SWAP1 PUSH0 MSTORE PUSH1 0x20 PUSH0 KECCAK256 SWAP1 PUSH1 0x5 MUL ADD PUSH1 0x4 ADD PUSH0 DUP2 SLOAD DUP1 SWAP3 SWAP2 SWAP1 PUSH2 0xBC7 SWAP1 PUSH2 0x1860 JUMP JUMPDEST SWAP2 SWAP1 POP SSTORE POP PUSH32 0x1117BE1A5B246D71CF1FAAA8835901E0932A62AF9DEC3A738CAEE60FCB550499 CALLER DUP4 DUP4 PUSH1 0x1 PUSH0 DUP8 PUSH20 0xFFFFFFFFFFFFFFFFFFFFFFFFFFFFFFFFFFFFFFFF AND PUSH20 0xFFFFFFFFFFFFFFFFFFFFFFFFFFFFFFFFFFFFFFFF AND DUP2 MSTORE PUSH1 0x20 ADD SWAP1 DUP2 MSTORE PUSH1 0x20 ADD PUSH0 KECCAK256 DUP6 DUP2 SLOAD DUP2 LT PUSH2 0xC3F JUMPI PUSH2 0xC3E PUSH2 0x139A JUMP JUMPDEST JUMPDEST SWAP1 PUSH0 MSTORE PUSH1 0x20 PUSH0 KECCAK256 SWAP1 PUSH1 0x5 MUL ADD PUSH1 0x4 ADD SLOAD PUSH1 0x40 MLOAD PUSH2 0xC5F SWAP5 SWAP4 SWAP3 SWAP2 SWAP1 PUSH2 0x14EB JUMP JUMPDEST PUSH1 0x40 MLOAD DUP1 SWAP2 SUB SWAP1 LOG1 POP POP JUMP JUMPDEST PUSH1 0x2 PUSH0 SWAP1 SLOAD SWAP1 PUSH2 0x100 EXP SWAP1 DIV PUSH20 0xFFFFFFFFFFFFFFFFFFFFFFFFFFFFFFFFFFFFFFFF AND DUP2 JUMP JUMPDEST PUSH1 0x40 MLOAD DUP1 PUSH1 0xA0 ADD PUSH1 0x40 MSTORE DUP1 PUSH0 DUP2 MSTORE PUSH1 0x20 ADD PUSH0 PUSH20 0xFFFFFFFFFFFFFFFFFFFFFFFFFFFFFFFFFFFFFFFF AND DUP2 MSTORE PUSH1 0x20 ADD PUSH1 0x60 DUP2 MSTORE PUSH1 0x20 ADD PUSH0 DUP2 MSTORE PUSH1 0x20 ADD PUSH0 DUP2 MSTORE POP SWAP1 JUMP JUMPDEST PUSH0 PUSH1 0x40 MLOAD SWAP1 POP SWAP1 JUMP JUMPDEST PUSH0 PUSH0 REVERT JUMPDEST PUSH0 PUSH0 REVERT JUMPDEST PUSH0 PUSH20 0xFFFFFFFFFFFFFFFFFFFFFFFFFFFFFFFFFFFFFFFF DUP3 AND SWAP1 POP SWAP2 SWAP1 POP JUMP JUMPDEST PUSH0 PUSH2 0xD0B DUP3 PUSH2 0xCE2 JUMP JUMPDEST SWAP1 POP SWAP2 SWAP1 POP JUMP JUMPDEST PUSH2 0xD1B DUP2 PUSH2 0xD01 JUMP JUMPDEST DUP2 EQ PUSH2 0xD25 JUMPI PUSH0 PUSH0 REVERT JUMPDEST POP JUMP JUMPDEST PUSH0 DUP2 CALLDATALOAD SWAP1 POP PUSH2 0xD36 DUP2 PUSH2 0xD12 JUMP JUMPDEST SWAP3 SWAP2 POP POP JUMP JUMPDEST PUSH0 DUP2 SWAP1 POP SWAP2 SWAP1 POP JUMP JUMPDEST PUSH2 0xD4E DUP2 PUSH2 0xD3C JUMP JUMPDEST DUP2 EQ PUSH2 0xD58 JUMPI PUSH0 PUSH0 REVERT JUMPDEST POP JUMP JUMPDEST PUSH0 DUP2 CALLDATALOAD SWAP1 POP PUSH2 0xD69 DUP2 PUSH2 0xD45 JUMP JUMPDEST SWAP3 SWAP2 POP POP JUMP JUMPDEST PUSH0 PUSH0 PUSH1 0x40 DUP4 DUP6 SUB SLT ISZERO PUSH2 0xD85 JUMPI PUSH2 0xD84 PUSH2 0xCDA JUMP JUMPDEST JUMPDEST PUSH0 PUSH2 0xD92 DUP6 DUP3 DUP7 ADD PUSH2 0xD28 JUMP JUMPDEST SWAP3 POP POP PUSH1 0x20 PUSH2 0xDA3 DUP6 DUP3 DUP7 ADD PUSH2 0xD5B JUMP JUMPDEST SWAP2 POP POP SWAP3 POP SWAP3 SWAP1 POP JUMP JUMPDEST PUSH2 0xDB6 DUP2 PUSH2 0xD3C JUMP JUMPDEST DUP3 MSTORE POP POP JUMP JUMPDEST PUSH2 0xDC5 DUP2 PUSH2 0xD01 JUMP JUMPDEST DUP3 MSTORE POP POP JUMP JUMPDEST PUSH0 DUP2 MLOAD SWAP1 POP SWAP2 SWAP1 POP JUMP JUMPDEST PUSH0 DUP3 DUP3 MSTORE PUSH1 0x20 DUP3 ADD SWAP1 POP SWAP3 SWAP2 POP POP JUMP JUMPDEST DUP3 DUP2 DUP4 MCOPY PUSH0 DUP4 DUP4 ADD MSTORE POP POP POP JUMP JUMPDEST PUSH0 PUSH1 0x1F NOT PUSH1 0x1F DUP4 ADD AND SWAP1 POP SWAP2 SWAP1 POP JUMP JUMPDEST PUSH0 PUSH2 0xE0D DUP3 PUSH2 0xDCB JUMP JUMPDEST PUSH2 0xE17 DUP2 DUP6 PUSH2 0xDD5 JUMP JUMPDEST SWAP4 POP PUSH2 0xE27 DUP2 DUP6 PUSH1 0x20 DUP7 ADD PUSH2 0xDE5 JUMP JUMPDEST PUSH2 0xE30 DUP2 PUSH2 0xDF3 JUMP JUMPDEST DUP5 ADD SWAP2 POP POP SWAP3 SWAP2 POP POP JUMP JUMPDEST PUSH0 PUSH1 0xA0 DUP3 ADD SWAP1 POP PUSH2 0xE4E PUSH0 DUP4 ADD DUP9 PUSH2 0xDAD JUMP JUMPDEST PUSH2 0xE5B PUSH1 0x20 DUP4 ADD DUP8 PUSH2 0xDBC JUMP JUMPDEST DUP2 DUP2 SUB PUSH1 0x40 DUP4 ADD MSTORE PUSH2 0xE6D DUP2 DUP7 PUSH2 0xE03 JUMP JUMPDEST SWAP1 POP PUSH2 0xE7C PUSH1 0x60 DUP4 ADD DUP6 PUSH2 0xDAD JUMP JUMPDEST PUSH2 0xE89 PUSH1 0x80 DUP4 ADD DUP5 PUSH2 0xDAD JUMP JUMPDEST SWAP7 SWAP6 POP POP POP POP POP POP JUMP JUMPDEST PUSH0 PUSH1 0x20 DUP3 DUP5 SUB SLT ISZERO PUSH2 0xEA8 JUMPI PUSH2 0xEA7 PUSH2 0xCDA JUMP JUMPDEST JUMPDEST PUSH0 PUSH2 0xEB5 DUP5 DUP3 DUP6 ADD PUSH2 0xD5B JUMP JUMPDEST SWAP2 POP POP SWAP3 SWAP2 POP POP JUMP JUMPDEST PUSH0 PUSH1 0x20 DUP3 ADD SWAP1 POP PUSH2 0xED1 PUSH0 DUP4 ADD DUP5 PUSH2 0xDAD JUMP JUMPDEST SWAP3 SWAP2 POP POP JUMP JUMPDEST PUSH0 PUSH1 0x20 DUP3 DUP5 SUB SLT ISZERO PUSH2 0xEEC JUMPI PUSH2 0xEEB PUSH2 0xCDA JUMP JUMPDEST JUMPDEST PUSH0 PUSH2 0xEF9 DUP5 DUP3 DUP6 ADD PUSH2 0xD28 JUMP JUMPDEST SWAP2 POP POP SWAP3 SWAP2 POP POP JUMP JUMPDEST PUSH0 DUP2 MLOAD SWAP1 POP SWAP2 SWAP1 POP JUMP JUMPDEST PUSH0 DUP3 DUP3 MSTORE PUSH1 0x20 DUP3 ADD SWAP1 POP SWAP3 SWAP2 POP POP JUMP JUMPDEST PUSH0 DUP2 SWAP1 POP PUSH1 0x20 DUP3 ADD SWAP1 POP SWAP2 SWAP1 POP JUMP JUMPDEST PUSH2 0xF34 DUP2 PUSH2 0xD3C JUMP JUMPDEST DUP3 MSTORE POP POP JUMP JUMPDEST PUSH2 0xF43 DUP2 PUSH2 0xD01 JUMP JUMPDEST DUP3 MSTORE POP POP JUMP JUMPDEST PUSH0 DUP3 DUP3 MSTORE PUSH1 0x20 DUP3 ADD SWAP1 POP SWAP3 SWAP2 POP POP JUMP JUMPDEST PUSH0 PUSH2 0xF63 DUP3 PUSH2 0xDCB JUMP JUMPDEST PUSH2 0xF6D DUP2 DUP6 PUSH2 0xF49 JUMP JUMPDEST SWAP4 POP PUSH2 0xF7D DUP2 DUP6 PUSH1 0x20 DUP7 ADD PUSH2 0xDE5 JUMP JUMPDEST PUSH2 0xF86 DUP2 PUSH2 0xDF3 JUMP JUMPDEST DUP5 ADD SWAP2 POP POP SWAP3 SWAP2 POP POP JUMP JUMPDEST PUSH0 PUSH1 0xA0 DUP4 ADD PUSH0 DUP4 ADD MLOAD PUSH2 0xFA6 PUSH0 DUP7 ADD DUP3 PUSH2 0xF2B JUMP JUMPDEST POP PUSH1 0x20 DUP4 ADD MLOAD PUSH2 0xFB9 PUSH1 0x20 DUP7 ADD DUP3 PUSH2 0xF3A JUMP JUMPDEST POP PUSH1 0x40 DUP4 ADD MLOAD DUP5 DUP3 SUB PUSH1 0x40 DUP7 ADD MSTORE PUSH2 0xFD1 DUP3 DUP3 PUSH2 0xF59 JUMP JUMPDEST SWAP2 POP POP PUSH1 0x60 DUP4 ADD MLOAD PUSH2 0xFE6 PUSH1 0x60 DUP7 ADD DUP3 PUSH2 0xF2B JUMP JUMPDEST POP PUSH1 0x80 DUP4 ADD MLOAD PUSH2 0xFF9 PUSH1 0x80 DUP7 ADD DUP3 PUSH2 0xF2B JUMP JUMPDEST POP DUP1 SWAP2 POP POP SWAP3 SWAP2 POP POP JUMP JUMPDEST PUSH0 PUSH2 0x100F DUP4 DUP4 PUSH2 0xF91 JUMP JUMPDEST SWAP1 POP SWAP3 SWAP2 POP POP JUMP JUMPDEST PUSH0 PUSH1 0x20 DUP3 ADD SWAP1 POP SWAP2 SWAP1 POP JUMP JUMPDEST PUSH0 PUSH2 0x102D DUP3 PUSH2 0xF02 JUMP JUMPDEST PUSH2 0x1037 DUP2 DUP6 PUSH2 0xF0C JUMP JUMPDEST SWAP4 POP DUP4 PUSH1 0x20 DUP3 MUL DUP6 ADD PUSH2 0x1049 DUP6 PUSH2 0xF1C JUMP JUMPDEST DUP1 PUSH0 JUMPDEST DUP6 DUP2 LT ISZERO PUSH2 0x1084 JUMPI DUP5 DUP5 SUB DUP10 MSTORE DUP2 MLOAD PUSH2 0x1065 DUP6 DUP3 PUSH2 0x1004 JUMP JUMPDEST SWAP5 POP PUSH2 0x1070 DUP4 PUSH2 0x1017 JUMP JUMPDEST SWAP3 POP PUSH1 0x20 DUP11 ADD SWAP10 POP POP PUSH1 0x1 DUP2 ADD SWAP1 POP PUSH2 0x104C JUMP JUMPDEST POP DUP3 SWAP8 POP DUP8 SWAP6 POP POP POP POP POP POP SWAP3 SWAP2 POP POP JUMP JUMPDEST PUSH0 PUSH1 0x20 DUP3 ADD SWAP1 POP DUP2 DUP2 SUB PUSH0 DUP4 ADD MSTORE PUSH2 0x10AE DUP2 DUP5 PUSH2 0x1023 JUMP JUMPDEST SWAP1 POP SWAP3 SWAP2 POP POP JUMP JUMPDEST PUSH0 PUSH0 REVERT JUMPDEST PUSH0 PUSH0 REVERT JUMPDEST PUSH32 0x4E487B7100000000000000000000000000000000000000000000000000000000 PUSH0 MSTORE PUSH1 0x41 PUSH1 0x4 MSTORE PUSH1 0x24 PUSH0 REVERT JUMPDEST PUSH2 0x10F4 DUP3 PUSH2 0xDF3 JUMP JUMPDEST DUP2 ADD DUP2 DUP2 LT PUSH8 0xFFFFFFFFFFFFFFFF DUP3 GT OR ISZERO PUSH2 0x1113 JUMPI PUSH2 0x1112 PUSH2 0x10BE JUMP JUMPDEST JUMPDEST DUP1 PUSH1 0x40 MSTORE POP POP POP JUMP JUMPDEST PUSH0 PUSH2 0x1125 PUSH2 0xCD1 JUMP JUMPDEST SWAP1 POP PUSH2 0x1131 DUP3 DUP3 PUSH2 0x10EB JUMP JUMPDEST SWAP2 SWAP1 POP JUMP JUMPDEST PUSH0 PUSH8 0xFFFFFFFFFFFFFFFF DUP3 GT ISZERO PUSH2 0x1150 JUMPI PUSH2 0x114F PUSH2 0x10BE JUMP JUMPDEST JUMPDEST PUSH2 0x1159 DUP3 PUSH2 0xDF3 JUMP JUMPDEST SWAP1 POP PUSH1 0x20 DUP2 ADD SWAP1 POP SWAP2 SWAP1 POP JUMP JUMPDEST DUP3 DUP2 DUP4 CALLDATACOPY PUSH0 DUP4 DUP4 ADD MSTORE POP POP POP JUMP JUMPDEST PUSH0 PUSH2 0x1186 PUSH2 0x1181 DUP5 PUSH2 0x1136 JUMP JUMPDEST PUSH2 0x111C JUMP JUMPDEST SWAP1 POP DUP3 DUP2 MSTORE PUSH1 0x20 DUP2 ADD DUP5 DUP5 DUP5 ADD GT ISZERO PUSH2 0x11A2 JUMPI PUSH2 0x11A1 PUSH2 0x10BA JUMP JUMPDEST JUMPDEST PUSH2 0x11AD DUP5 DUP3 DUP6 PUSH2 0x1166 JUMP JUMPDEST POP SWAP4 SWAP3 POP POP POP JUMP JUMPDEST PUSH0 DUP3 PUSH1 0x1F DUP4 ADD SLT PUSH2 0x11C9 JUMPI PUSH2 0x11C8 PUSH2 0x10B6 JUMP JUMPDEST JUMPDEST DUP2 CALLDATALOAD PUSH2 0x11D9 DUP5 DUP3 PUSH1 0x20 DUP7 ADD PUSH2 0x1174 JUMP JUMPDEST SWAP2 POP POP SWAP3 SWAP2 POP POP JUMP JUMPDEST PUSH0 PUSH1 0x20 DUP3 DUP5 SUB SLT ISZERO PUSH2 0x11F7 JUMPI PUSH2 0x11F6 PUSH2 0xCDA JUMP JUMPDEST JUMPDEST PUSH0 DUP3 ADD CALLDATALOAD PUSH8 0xFFFFFFFFFFFFFFFF DUP2 GT ISZERO PUSH2 0x1214 JUMPI PUSH2 0x1213 PUSH2 0xCDE JUMP JUMPDEST JUMPDEST PUSH2 0x1220 DUP5 DUP3 DUP6 ADD PUSH2 0x11B5 JUMP JUMPDEST SWAP2 POP POP SWAP3 SWAP2 POP POP JUMP JUMPDEST PUSH0 PUSH1 0xA0 DUP4 ADD PUSH0 DUP4 ADD MLOAD PUSH2 0x123E PUSH0 DUP7 ADD DUP3 PUSH2 0xF2B JUMP JUMPDEST POP PUSH1 0x20 DUP4 ADD MLOAD PUSH2 0x1251 PUSH1 0x20 DUP7 ADD DUP3 PUSH2 0xF3A JUMP JUMPDEST POP PUSH1 0x40 DUP4 ADD MLOAD DUP5 DUP3 SUB PUSH1 0x40 DUP7 ADD MSTORE PUSH2 0x1269 DUP3 DUP3 PUSH2 0xF59 JUMP JUMPDEST SWAP2 POP POP PUSH1 0x60 DUP4 ADD MLOAD PUSH2 0x127E PUSH1 0x60 DUP7 ADD DUP3 PUSH2 0xF2B JUMP JUMPDEST POP PUSH1 0x80 DUP4 ADD MLOAD PUSH2 0x1291 PUSH1 0x80 DUP7 ADD DUP3 PUSH2 0xF2B JUMP JUMPDEST POP DUP1 SWAP2 POP POP SWAP3 SWAP2 POP POP JUMP JUMPDEST PUSH0 PUSH1 0x20 DUP3 ADD SWAP1 POP DUP2 DUP2 SUB PUSH0 DUP4 ADD MSTORE PUSH2 0x12B4 DUP2 DUP5 PUSH2 0x1229 JUMP JUMPDEST SWAP1 POP SWAP3 SWAP2 POP POP JUMP JUMPDEST PUSH0 PUSH1 0x20 DUP3 ADD SWAP1 POP PUSH2 0x12CF PUSH0 DUP4 ADD DUP5 PUSH2 0xDBC JUMP JUMPDEST SWAP3 SWAP2 POP POP JUMP JUMPDEST PUSH32 0x4E487B7100000000000000000000000000000000000000000000000000000000 PUSH0 MSTORE PUSH1 0x22 PUSH1 0x4 MSTORE PUSH1 0x24 PUSH0 REVERT JUMPDEST PUSH0 PUSH1 0x2 DUP3 DIV SWAP1 POP PUSH1 0x1 DUP3 AND DUP1 PUSH2 0x1319 JUMPI PUSH1 0x7F DUP3 AND SWAP2 POP JUMPDEST PUSH1 0x20 DUP3 LT DUP2 SUB PUSH2 0x132C JUMPI PUSH2 0x132B PUSH2 0x12D5 JUMP JUMPDEST JUMPDEST POP SWAP2 SWAP1 POP JUMP JUMPDEST PUSH32 0x4F6E6C79206F776E65722063616E206265206368616E6765206C656E67746800 PUSH0 DUP3 ADD MSTORE POP JUMP JUMPDEST PUSH0 PUSH2 0x1366 PUSH1 0x1F DUP4 PUSH2 0xDD5 JUMP JUMPDEST SWAP2 POP PUSH2 0x1371 DUP3 PUSH2 0x1332 JUMP JUMPDEST PUSH1 0x20 DUP3 ADD SWAP1 POP SWAP2 SWAP1 POP JUMP JUMPDEST PUSH0 PUSH1 0x20 DUP3 ADD SWAP1 POP DUP2 DUP2 SUB PUSH0 DUP4 ADD MSTORE PUSH2 0x1393 DUP2 PUSH2 0x135A JUMP JUMPDEST SWAP1 POP SWAP2 SWAP1 POP JUMP JUMPDEST PUSH32 0x4E487B7100000000000000000000000000000000000000000000000000000000 PUSH0 MSTORE PUSH1 0x32 PUSH1 0x4 MSTORE PUSH1 0x24 PUSH0 REVERT JUMPDEST PUSH32 0x547765657420646F6573206E6F74206578697374000000000000000000000000 PUSH0 DUP3 ADD MSTORE POP JUMP JUMPDEST PUSH0 PUSH2 0x13FB PUSH1 0x14 DUP4 PUSH2 0xDD5 JUMP JUMPDEST SWAP2 POP PUSH2 0x1406 DUP3 PUSH2 0x13C7 JUMP JUMPDEST PUSH1 0x20 DUP3 ADD SWAP1 POP SWAP2 SWAP1 POP JUMP JUMPDEST PUSH0 PUSH1 0x20 DUP3 ADD SWAP1 POP DUP2 DUP2 SUB PUSH0 DUP4 ADD MSTORE PUSH2 0x1428 DUP2 PUSH2 0x13EF JUMP JUMPDEST SWAP1 POP SWAP2 SWAP1 POP JUMP JUMPDEST PUSH32 0x547765657420686173206E6F206C696B65000000000000000000000000000000 PUSH0 DUP3 ADD MSTORE POP JUMP JUMPDEST PUSH0 PUSH2 0x1463 PUSH1 0x11 DUP4 PUSH2 0xDD5 JUMP JUMPDEST SWAP2 POP PUSH2 0x146E DUP3 PUSH2 0x142F JUMP JUMPDEST PUSH1 0x20 DUP3 ADD SWAP1 POP SWAP2 SWAP1 POP JUMP JUMPDEST PUSH0 PUSH1 0x20 DUP3 ADD SWAP1 POP DUP2 DUP2 SUB PUSH0 DUP4 ADD MSTORE PUSH2 0x1490 DUP2 PUSH2 0x1457 JUMP JUMPDEST SWAP1 POP SWAP2 SWAP1 POP JUMP JUMPDEST PUSH32 0x4E487B7100000000000000000000000000000000000000000000000000000000 PUSH0 MSTORE PUSH1 0x11 PUSH1 0x4 MSTORE PUSH1 0x24 PUSH0 REVERT JUMPDEST PUSH0 PUSH2 0x14CE DUP3 PUSH2 0xD3C JUMP JUMPDEST SWAP2 POP PUSH0 DUP3 SUB PUSH2 0x14E0 JUMPI PUSH2 0x14DF PUSH2 0x1497 JUMP JUMPDEST JUMPDEST PUSH1 0x1 DUP3 SUB SWAP1 POP SWAP2 SWAP1 POP JUMP JUMPDEST PUSH0 PUSH1 0x80 DUP3 ADD SWAP1 POP PUSH2 0x14FE PUSH0 DUP4 ADD DUP8 PUSH2 0xDBC JUMP JUMPDEST PUSH2 0x150B PUSH1 0x20 DUP4 ADD DUP7 PUSH2 0xDBC JUMP JUMPDEST PUSH2 0x1518 PUSH1 0x40 DUP4 ADD DUP6 PUSH2 0xDAD JUMP JUMPDEST PUSH2 0x1525 PUSH1 0x60 DUP4 ADD DUP5 PUSH2 0xDAD JUMP JUMPDEST SWAP6 SWAP5 POP POP POP POP POP JUMP JUMPDEST PUSH32 0x4D61782043686172616374657273205265616368656400000000000000000000 PUSH0 DUP3 ADD MSTORE POP JUMP JUMPDEST PUSH0 PUSH2 0x1562 PUSH1 0x16 DUP4 PUSH2 0xDD5 JUMP JUMPDEST SWAP2 POP PUSH2 0x156D DUP3 PUSH2 0x152E JUMP JUMPDEST PUSH1 0x20 DUP3 ADD SWAP1 POP SWAP2 SWAP1 POP JUMP JUMPDEST PUSH0 PUSH1 0x20 DUP3 ADD SWAP1 POP DUP2 DUP2 SUB PUSH0 DUP4 ADD MSTORE PUSH2 0x158F DUP2 PUSH2 0x1556 JUMP JUMPDEST SWAP1 POP SWAP2 SWAP1 POP JUMP JUMPDEST PUSH0 DUP2 SWAP1 POP DUP2 PUSH0 MSTORE PUSH1 0x20 PUSH0 KECCAK256 SWAP1 POP SWAP2 SWAP1 POP JUMP JUMPDEST PUSH0 PUSH1 0x20 PUSH1 0x1F DUP4 ADD DIV SWAP1 POP SWAP2 SWAP1 POP JUMP JUMPDEST PUSH0 DUP3 DUP3 SHL SWAP1 POP SWAP3 SWAP2 POP POP JUMP JUMPDEST PUSH0 PUSH1 0x8 DUP4 MUL PUSH2 0x15F2 PUSH32 0xFFFFFFFFFFFFFFFFFFFFFFFFFFFFFFFFFFFFFFFFFFFFFFFFFFFFFFFFFFFFFFFF DUP3 PUSH2 0x15B7 JUMP JUMPDEST PUSH2 0x15FC DUP7 DUP4 PUSH2 0x15B7 JUMP JUMPDEST SWAP6 POP DUP1 NOT DUP5 AND SWAP4 POP DUP1 DUP7 AND DUP5 OR SWAP3 POP POP POP SWAP4 SWAP3 POP POP POP JUMP JUMPDEST PUSH0 DUP2 SWAP1 POP SWAP2 SWAP1 POP JUMP JUMPDEST PUSH0 PUSH2 0x1637 PUSH2 0x1632 PUSH2 0x162D DUP5 PUSH2 0xD3C JUMP JUMPDEST PUSH2 0x1614 JUMP JUMPDEST PUSH2 0xD3C JUMP JUMPDEST SWAP1 POP SWAP2 SWAP1 POP JUMP JUMPDEST PUSH0 DUP2 SWAP1 POP SWAP2 SWAP1 POP JUMP JUMPDEST PUSH2 0x1650 DUP4 PUSH2 0x161D JUMP JUMPDEST PUSH2 0x1664 PUSH2 0x165C DUP3 PUSH2 0x163E JUMP JUMPDEST DUP5 DUP5 SLOAD PUSH2 0x15C3 JUMP JUMPDEST DUP3 SSTORE POP POP POP POP JUMP JUMPDEST PUSH0 PUSH0 SWAP1 POP SWAP1 JUMP JUMPDEST PUSH2 0x167B PUSH2 0x166C JUMP JUMPDEST PUSH2 0x1686 DUP2 DUP5 DUP5 PUSH2 0x1647 JUMP JUMPDEST POP POP POP JUMP JUMPDEST PUSH0 JUMPDEST DUP3 DUP2 LT ISZERO PUSH2 0x16AC JUMPI PUSH2 0x16A1 PUSH0 DUP3 DUP5 ADD PUSH2 0x1673 JUMP JUMPDEST PUSH1 0x1 DUP2 ADD SWAP1 POP PUSH2 0x168D JUMP JUMPDEST POP POP POP JUMP JUMPDEST PUSH1 0x1F DUP3 GT ISZERO PUSH2 0x16FF JUMPI DUP3 DUP3 GT ISZERO PUSH2 0x16FE JUMPI PUSH2 0x16CB DUP2 PUSH2 0x1596 JUMP JUMPDEST PUSH2 0x16D4 DUP4 PUSH2 0x15A8 JUMP JUMPDEST PUSH2 0x16DD DUP6 PUSH2 0x15A8 JUMP JUMPDEST PUSH1 0x20 DUP7 LT ISZERO PUSH2 0x16EA JUMPI PUSH0 SWAP1 POP JUMPDEST DUP1 DUP4 ADD PUSH2 0x16F9 DUP3 DUP5 SUB DUP3 PUSH2 0x168B JUMP JUMPDEST POP POP POP POP JUMPDEST JUMPDEST POP POP POP JUMP JUMPDEST PUSH0 DUP3 DUP3 SHR SWAP1 POP SWAP3 SWAP2 POP POP JUMP JUMPDEST PUSH0 PUSH2 0x171F PUSH0 NOT DUP5 PUSH1 0x8 MUL PUSH2 0x1704 JUMP JUMPDEST NOT DUP1 DUP4 AND SWAP2 POP POP SWAP3 SWAP2 POP POP JUMP JUMPDEST PUSH0 PUSH2 0x1737 DUP4 DUP4 PUSH2 0x1710 JUMP JUMPDEST SWAP2 POP DUP3 PUSH1 0x2 MUL DUP3 OR SWAP1 POP SWAP3 SWAP2 POP POP JUMP JUMPDEST PUSH2 0x1750 DUP3 PUSH2 0xDCB JUMP JUMPDEST PUSH8 0xFFFFFFFFFFFFFFFF DUP2 GT ISZERO PUSH2 0x1769 JUMPI PUSH2 0x1768 PUSH2 0x10BE JUMP JUMPDEST JUMPDEST PUSH2 0x1773 DUP3 SLOAD PUSH2 0x1302 JUMP JUMPDEST PUSH2 0x177E DUP3 DUP3 DUP6 PUSH2 0x16B1 JUMP JUMPDEST PUSH0 PUSH1 0x20 SWAP1 POP PUSH1 0x1F DUP4 GT PUSH1 0x1 DUP2 EQ PUSH2 0x17AF JUMPI PUSH0 DUP5 ISZERO PUSH2 0x179D JUMPI DUP3 DUP8 ADD MLOAD SWAP1 POP JUMPDEST PUSH2 0x17A7 DUP6 DUP3 PUSH2 0x172C JUMP JUMPDEST DUP7 SSTORE POP PUSH2 0x180E JUMP JUMPDEST PUSH1 0x1F NOT DUP5 AND PUSH2 0x17BD DUP7 PUSH2 0x1596 JUMP JUMPDEST PUSH0 JUMPDEST DUP3 DUP2 LT ISZERO PUSH2 0x17E4 JUMPI DUP5 DUP10 ADD MLOAD DUP3 SSTORE PUSH1 0x1 DUP3 ADD SWAP2 POP PUSH1 0x20 DUP6 ADD SWAP5 POP PUSH1 0x20 DUP2 ADD SWAP1 POP PUSH2 0x17BF JUMP JUMPDEST DUP7 DUP4 LT ISZERO PUSH2 0x1801 JUMPI DUP5 DUP10 ADD MLOAD PUSH2 0x17FD PUSH1 0x1F DUP10 AND DUP3 PUSH2 0x1710 JUMP JUMPDEST DUP4 SSTORE POP JUMPDEST PUSH1 0x1 PUSH1 0x2 DUP9 MUL ADD DUP9 SSTORE POP POP POP JUMPDEST POP POP POP POP POP POP JUMP JUMPDEST PUSH0 PUSH1 0x80 DUP3 ADD SWAP1 POP PUSH2 0x1829 PUSH0 DUP4 ADD DUP8 PUSH2 0xDAD JUMP JUMPDEST PUSH2 0x1836 PUSH1 0x20 DUP4 ADD DUP7 PUSH2 0xDBC JUMP JUMPDEST DUP2 DUP2 SUB PUSH1 0x40 DUP4 ADD MSTORE PUSH2 0x1848 DUP2 DUP6 PUSH2 0xE03 JUMP JUMPDEST SWAP1 POP PUSH2 0x1857 PUSH1 0x60 DUP4 ADD DUP5 PUSH2 0xDAD JUMP JUMPDEST SWAP6 SWAP5 POP POP POP POP POP JUMP JUMPDEST PUSH0 PUSH2 0x186A DUP3 PUSH2 0xD3C JUMP JUMPDEST SWAP2 POP PUSH32 0xFFFFFFFFFFFFFFFFFFFFFFFFFFFFFFFFFFFFFFFFFFFFFFFFFFFFFFFFFFFFFFFF DUP3 SUB PUSH2 0x189C JUMPI PUSH2 0x189B PUSH2 0x1497 JUMP JUMPDEST JUMPDEST PUSH1 0x1 DUP3 ADD SWAP1 POP SWAP2 SWAP1 POP JUMP INVALID LOG2 PUSH5 0x6970667358 0x22 SLT KECCAK256 DUP4 0xC0 PUSH4 0xF6A559D3 DUP12 EXTCODEHASH 0x2F 0xEB MSIZE 0x29 0x2F CALL EOFCREATE 0xAC SLT ADDMOD DUP14 RETURNDATASIZE SWAPN 0x39 SWAPN 0xCF DUP1 0xEF PUSH5 0xA6C4431864 PUSH20 0x6F6C634300082200330000000000000000000000 "
		},
		"gasEstimates": {
			"creation": {
				"codeDepositCost": "1273000",
				"executionCost": "47690",
				"totalCost": "1320690"
			},
			"external": {
				"Create_Tweet(string)": "infinite",
				"Max_length()": "2469",
				"author_Owner()": "2596",
				"changeTweet_length(uint256)": "24706",
				"get_All_Tweet(address)": "infinite",
				"get_One_Tweet(address,uint256)": "infinite",
				"likeTweet(address,uint256)": "infinite",
				"tweets(address,uint256)": "infinite",
				"unlikeTweet(address,uint256)": "infinite"
			}
		},
		"methodIdentifiers": {
			"Create_Tweet(string)": "43df8c3f",
			"Max_length()": "1ce12124",
			"author_Owner()": "edb601e5",
			"changeTweet_length(uint256)": "126af0b3",
			"get_All_Tweet(address)": "41cc7882",
			"get_One_Tweet(address,uint256)": "53575089",
			"likeTweet(address,uint256)": "63378216",
			"tweets(address,uint256)": "05a1b4a9",
			"unlikeTweet(address,uint256)": "3d9b569f"
		}
	},
	"abi": [
		{
			"inputs": [],
			"stateMutability": "nonpayable",
			"type": "constructor"
		},
		{
			"anonymous": false,
			"inputs": [
				{
					"indexed": false,
					"internalType": "address",
					"name": "liker",
					"type": "address"
				},
				{
					"indexed": false,
					"internalType": "address",
					"name": "tweet_author",
					"type": "address"
				},
				{
					"indexed": false,
					"internalType": "uint256",
					"name": "tweet_id",
					"type": "uint256"
				},
				{
					"indexed": false,
					"internalType": "uint256",
					"name": "new_like_count",
					"type": "uint256"
				}
			],
			"name": "like_tweet",
			"type": "event"
		},
		{
			"anonymous": false,
			"inputs": [
				{
					"indexed": false,
					"internalType": "uint256",
					"name": "id",
					"type": "uint256"
				},
				{
					"indexed": false,
					"internalType": "address",
					"name": "author",
					"type": "address"
				},
				{
					"indexed": false,
					"internalType": "string",
					"name": "content",
					"type": "string"
				},
				{
					"indexed": false,
					"internalType": "uint256",
					"name": "timestamp",
					"type": "uint256"
				}
			],
			"name": "tweet_create",
			"type": "event"
		},
		{
			"anonymous": false,
			"inputs": [
				{
					"indexed": false,
					"internalType": "address",
					"name": "unliker",
					"type": "address"
				},
				{
					"indexed": false,
					"internalType": "address",
					"name": "tweet_author",
					"type": "address"
				},
				{
					"indexed": false,
					"internalType": "uint256",
					"name": "tweet_id",
					"type": "uint256"
				},
				{
					"indexed": false,
					"internalType": "uint256",
					"name": "new_like_count",
					"type": "uint256"
				}
			],
			"name": "unlike_tweet",
			"type": "event"
		},
		{
			"inputs": [
				{
					"internalType": "string",
					"name": "_msg",
					"type": "string"
				}
			],
			"name": "Create_Tweet",
			"outputs": [],
			"stateMutability": "nonpayable",
			"type": "function"
		},
		{
			"inputs": [],
			"name": "Max_length",
			"outputs": [
				{
					"internalType": "uint256",
					"name": "",
					"type": "uint256"
				}
			],
			"stateMutability": "view",
			"type": "function"
		},
		{
			"inputs": [],
			"name": "author_Owner",
			"outputs": [
				{
					"internalType": "address",
					"name": "",
					"type": "address"
				}
			],
			"stateMutability": "view",
			"type": "function"
		},
		{
			"inputs": [
				{
					"internalType": "uint256",
					"name": "_enter_new_Length",
					"type": "uint256"
				}
			],
			"name": "changeTweet_length",
			"outputs": [],
			"stateMutability": "nonpayable",
			"type": "function"
		},
		{
			"inputs": [
				{
					"internalType": "address",
					"name": "_owner",
					"type": "address"
				}
			],
			"name": "get_All_Tweet",
			"outputs": [
				{
					"components": [
						{
							"internalType": "uint256",
							"name": "id",
							"type": "uint256"
						},
						{
							"internalType": "address",
							"name": "author",
							"type": "address"
						},
						{
							"internalType": "string",
							"name": "content",
							"type": "string"
						},
						{
							"internalType": "uint256",
							"name": "timestamp",
							"type": "uint256"
						},
						{
							"internalType": "uint256",
							"name": "likes",
							"type": "uint256"
						}
					],
					"internalType": "struct Tweet.MyTweet[]",
					"name": "",
					"type": "tuple[]"
				}
			],
			"stateMutability": "view",
			"type": "function"
		},
		{
			"inputs": [
				{
					"internalType": "address",
					"name": "_owner",
					"type": "address"
				},
				{
					"internalType": "uint256",
					"name": "i",
					"type": "uint256"
				}
			],
			"name": "get_One_Tweet",
			"outputs": [
				{
					"components": [
						{
							"internalType": "uint256",
							"name": "id",
							"type": "uint256"
						},
						{
							"internalType": "address",
							"name": "author",
							"type": "address"
						},
						{
							"internalType": "string",
							"name": "content",
							"type": "string"
						},
						{
							"internalType": "uint256",
							"name": "timestamp",
							"type": "uint256"
						},
						{
							"internalType": "uint256",
							"name": "likes",
							"type": "uint256"
						}
					],
					"internalType": "struct Tweet.MyTweet",
					"name": "",
					"type": "tuple"
				}
			],
			"stateMutability": "view",
			"type": "function"
		},
		{
			"inputs": [
				{
					"internalType": "address",
					"name": "Owner",
					"type": "address"
				},
				{
					"internalType": "uint256",
					"name": "x",
					"type": "uint256"
				}
			],
			"name": "likeTweet",
			"outputs": [],
			"stateMutability": "nonpayable",
			"type": "function"
		},
		{
			"inputs": [
				{
					"internalType": "address",
					"name": "",
					"type": "address"
				},
				{
					"internalType": "uint256",
					"name": "",
					"type": "uint256"
				}
			],
			"name": "tweets",
			"outputs": [
				{
					"internalType": "uint256",
					"name": "id",
					"type": "uint256"
				},
				{
					"internalType": "address",
					"name": "author",
					"type": "address"
				},
				{
					"internalType": "string",
					"name": "content",
					"type": "string"
				},
				{
					"internalType": "uint256",
					"name": "timestamp",
					"type": "uint256"
				},
				{
					"internalType": "uint256",
					"name": "likes",
					"type": "uint256"
				}
			],
			"stateMutability": "view",
			"type": "function"
		},
		{
			"inputs": [
				{
					"internalType": "address",
					"name": "Owner",
					"type": "address"
				},
				{
					"internalType": "uint256",
					"name": "x",
					"type": "uint256"
				}
			],
			"name": "unlikeTweet",
			"outputs": [],
			"stateMutability": "nonpayable",
			"type": "function"
		}
	]
}