{
	"data": {
		"bytecode": {
			"linkReferences": {},
			"object": "6080604052348015600e575f5ffd5b506101948061001c5f395ff3fe608060405234801561000f575f5ffd5b506004361061003f575f3560e01c8063630f703514610043578063bd72e4fc14610061578063f1388f461461007f575b5f5ffd5b61004b610089565b6040516100589190610145565b60405180910390f35b61006961009e565b6040516100769190610145565b60405180910390f35b6100876100a6565b005b5f5f60019054906101000a900460ff16905090565b5f6006905090565b60035f60016101000a81548160ff021916908360068111156100cb576100ca6100d2565b5b0217905550565b7f4e487b71000000000000000000000000000000000000000000000000000000005f52602160045260245ffd5b600781106101105761010f6100d2565b5b50565b5f819050610120826100ff565b919050565b5f61012f82610113565b9050919050565b61013f81610125565b82525050565b5f6020820190506101585f830184610136565b9291505056fea26469706673582212201ac9a4db6d97c92311684f6c31f928edc1f085c9f720465af4e0d8fb0f86e4db64736f6c634300081f0033",
			"opcodes": "PUSH1 0x80 PUSH1 0x40 MSTORE CALLVALUE DUP1 ISZERO PUSH1 0xE JUMPI PUSH0 PUSH0 REVERT JUMPDEST POP PUSH2 0x194 DUP1 PUSH2 0x1C PUSH0 CODECOPY PUSH0 RETURN INVALID PUSH1 0x80 PUSH1 0x40 MSTORE CALLVALUE DUP1 ISZERO PUSH2 0xF JUMPI PUSH0 PUSH0 REVERT JUMPDEST POP PUSH1 0x4 CALLDATASIZE LT PUSH2 0x3F JUMPI PUSH0 CALLDATALOAD PUSH1 0xE0 SHR DUP1 PUSH4 0x630F7035 EQ PUSH2 0x43 JUMPI DUP1 PUSH4 0xBD72E4FC EQ PUSH2 0x61 JUMPI DUP1 PUSH4 0xF1388F46 EQ PUSH2 0x7F JUMPI JUMPDEST PUSH0 PUSH0 REVERT JUMPDEST PUSH2 0x4B PUSH2 0x89 JUMP JUMPDEST PUSH1 0x40 MLOAD PUSH2 0x58 SWAP2 SWAP1 PUSH2 0x145 JUMP JUMPDEST PUSH1 0x40 MLOAD DUP1 SWAP2 SUB SWAP1 RETURN JUMPDEST PUSH2 0x69 PUSH2 0x9E JUMP JUMPDEST PUSH1 0x40 MLOAD PUSH2 0x76 SWAP2 SWAP1 PUSH2 0x145 JUMP JUMPDEST PUSH1 0x40 MLOAD DUP1 SWAP2 SUB SWAP1 RETURN JUMPDEST PUSH2 0x87 PUSH2 0xA6 JUMP JUMPDEST STOP JUMPDEST PUSH0 PUSH0 PUSH1 0x1 SWAP1 SLOAD SWAP1 PUSH2 0x100 EXP SWAP1 DIV PUSH1 0xFF AND SWAP1 POP SWAP1 JUMP JUMPDEST PUSH0 PUSH1 0x6 SWAP1 POP SWAP1 JUMP JUMPDEST PUSH1 0x3 PUSH0 PUSH1 0x1 PUSH2 0x100 EXP DUP2 SLOAD DUP2 PUSH1 0xFF MUL NOT AND SWAP1 DUP4 PUSH1 0x6 DUP2 GT ISZERO PUSH2 0xCB JUMPI PUSH2 0xCA PUSH2 0xD2 JUMP JUMPDEST JUMPDEST MUL OR SWAP1 SSTORE POP JUMP JUMPDEST PUSH32 0x4E487B7100000000000000000000000000000000000000000000000000000000 PUSH0 MSTORE PUSH1 0x21 PUSH1 0x4 MSTORE PUSH1 0x24 PUSH0 REVERT JUMPDEST PUSH1 0x7 DUP2 LT PUSH2 0x110 JUMPI PUSH2 0x10F PUSH2 0xD2 JUMP JUMPDEST JUMPDEST POP JUMP JUMPDEST PUSH0 DUP2 SWAP1 POP PUSH2 0x120 DUP3 PUSH2 0xFF JUMP JUMPDEST SWAP2 SWAP1 POP JUMP JUMPDEST PUSH0 PUSH2 0x12F DUP3 PUSH2 0x113 JUMP JUMPDEST SWAP1 POP SWAP2 SWAP1 POP JUMP JUMPDEST PUSH2 0x13F DUP2 PUSH2 0x125 JUMP JUMPDEST DUP3 MSTORE POP POP JUMP JUMPDEST PUSH0 PUSH1 0x20 DUP3 ADD SWAP1 POP PUSH2 0x158 PUSH0 DUP4 ADD DUP5 PUSH2 0x136 JUMP JUMPDEST SWAP3 SWAP2 POP POP JUMP INVALID LOG2 PUSH5 0x6970667358 0x22 SLT KECCAK256 BYTE 0xC9 LOG4 0xDB PUSH14 0x97C92311684F6C31F928EDC1F085 0xC9 0xF7 KECCAK256 CHAINID GAS DELEGATECALL RJUMP 0xD8FB 0xF DUP7 RETF 0xDB PUSH5 0x736F6C6343 STOP ADDMOD 0x1F STOP CALLER "
		},
		"gasEstimates": {
			"creation": {
				"codeDepositCost": "80800",
				"executionCost": "127",
				"totalCost": "80927"
			},
			"external": {
				"get_choice()": "2589",
				"getdefaultvalue()": "426",
				"set_value()": "24501"
			}
		},
		"methodIdentifiers": {
			"get_choice()": "630f7035",
			"getdefaultvalue()": "bd72e4fc",
			"set_value()": "f1388f46"
		}
	},
	"abi": [
		{
			"inputs": [],
			"name": "get_choice",
			"outputs": [
				{
					"internalType": "enum Types.week_days",
					"name": "",
					"type": "uint8"
				}
			],
			"stateMutability": "view",
			"type": "function"
		},
		{
			"inputs": [],
			"name": "getdefaultvalue",
			"outputs": [
				{
					"internalType": "enum Types.week_days",
					"name": "",
					"type": "uint8"
				}
			],
			"stateMutability": "pure",
			"type": "function"
		},
		{
			"inputs": [],
			"name": "set_value",
			"outputs": [],
			"stateMutability": "nonpayable",
			"type": "function"
		}
	]
}